{
  "_format": "hh-sol-artifact-1",
  "contractName": "AaveV3Ark",
  "sourceName": "src/contracts/arks/AaveV3Ark.sol",
  "abi": [
    {
      "inputs": [
        {
          "internalType": "address",
          "name": "_aaveV3Pool",
          "type": "address"
        },
        {
          "internalType": "address",
          "name": "_rewardsController",
          "type": "address"
        },
        {
          "components": [
            {
              "internalType": "string",
              "name": "name",
              "type": "string"
            },
            {
              "internalType": "address",
              "name": "accessManager",
              "type": "address"
            },
            {
              "internalType": "address",
              "name": "configurationManager",
              "type": "address"
            },
            {
              "internalType": "address",
              "name": "token",
              "type": "address"
            },
            {
              "internalType": "uint256",
              "name": "depositCap",
              "type": "uint256"
            },
            {
              "internalType": "uint256",
              "name": "maxRebalanceOutflow",
              "type": "uint256"
            },
            {
              "internalType": "uint256",
              "name": "maxRebalanceInflow",
              "type": "uint256"
            },
            {
              "internalType": "bool",
              "name": "requiresKeeperData",
              "type": "bool"
            }
          ],
          "internalType": "struct ArkParams",
          "name": "_params",
          "type": "tuple"
        }
      ],
      "stateMutability": "nonpayable",
      "type": "constructor"
    },
    {
      "inputs": [
        {
          "internalType": "address",
          "name": "caller",
          "type": "address"
        }
      ],
      "name": "CallerIsNotAdmin",
      "type": "error"
    },
    {
      "inputs": [
        {
          "internalType": "address",
          "name": "caller",
          "type": "address"
        }
      ],
      "name": "CallerIsNotAuthorizedToBoard",
      "type": "error"
    },
    {
      "inputs": [
        {
          "internalType": "address",
          "name": "caller",
          "type": "address"
        }
      ],
      "name": "CallerIsNotCommander",
      "type": "error"
    },
    {
      "inputs": [
        {
          "internalType": "address",
          "name": "caller",
          "type": "address"
        },
        {
          "internalType": "bytes32",
          "name": "role",
          "type": "bytes32"
        }
      ],
      "name": "CallerIsNotContractSpecificRole",
      "type": "error"
    },
    {
      "inputs": [
        {
          "internalType": "address",
          "name": "caller",
          "type": "address"
        }
      ],
      "name": "CallerIsNotCurator",
      "type": "error"
    },
    {
      "inputs": [
        {
          "internalType": "address",
          "name": "caller",
          "type": "address"
        }
      ],
      "name": "CallerIsNotGovernor",
      "type": "error"
    },
    {
      "inputs": [
        {
          "internalType": "address",
          "name": "caller",
          "type": "address"
        }
      ],
      "name": "CallerIsNotGuardian",
      "type": "error"
    },
    {
      "inputs": [
        {
          "internalType": "address",
          "name": "caller",
          "type": "address"
        }
      ],
      "name": "CallerIsNotGuardianOrGovernor",
      "type": "error"
    },
    {
      "inputs": [
        {
          "internalType": "address",
          "name": "caller",
          "type": "address"
        }
      ],
      "name": "CallerIsNotKeeper",
      "type": "error"
    },
    {
      "inputs": [
        {
          "internalType": "address",
          "name": "caller",
          "type": "address"
        }
      ],
      "name": "CallerIsNotRaft",
      "type": "error"
    },
    {
      "inputs": [
        {
          "internalType": "address",
          "name": "caller",
          "type": "address"
        }
      ],
      "name": "CallerIsNotRaftOrCommander",
      "type": "error"
    },
    {
      "inputs": [
        {
          "internalType": "address",
          "name": "caller",
          "type": "address"
        }
      ],
      "name": "CallerIsNotSuperKeeper",
      "type": "error"
    },
    {
      "inputs": [],
      "name": "CannotAddCommanderToArkWithCommander",
      "type": "error"
    },
    {
      "inputs": [],
      "name": "CannotDeployArkWithEmptyName",
      "type": "error"
    },
    {
      "inputs": [],
      "name": "CannotDeployArkWithoutConfigurationManager",
      "type": "error"
    },
    {
      "inputs": [],
      "name": "CannotDeployArkWithoutRaft",
      "type": "error"
    },
    {
      "inputs": [],
      "name": "CannotDeployArkWithoutToken",
      "type": "error"
    },
    {
      "inputs": [],
      "name": "CannotRemoveCommanderFromArkWithAssets",
      "type": "error"
    },
    {
      "inputs": [],
      "name": "CannotUseKeeperDataWhenNotRequired",
      "type": "error"
    },
    {
      "inputs": [],
      "name": "ConfigurationManagerZeroAddress",
      "type": "error"
    },
    {
      "inputs": [
        {
          "internalType": "address",
          "name": "caller",
          "type": "address"
        }
      ],
      "name": "DirectGrantIsDisabled",
      "type": "error"
    },
    {
      "inputs": [
        {
          "internalType": "address",
          "name": "caller",
          "type": "address"
        }
      ],
      "name": "DirectRevokeIsDisabled",
      "type": "error"
    },
    {
      "inputs": [],
      "name": "ERC4626AssetMismatch",
      "type": "error"
    },
    {
      "inputs": [
        {
          "internalType": "address",
          "name": "invalidAddress",
          "type": "address"
        }
      ],
      "name": "InvalidAccessManagerAddress",
      "type": "error"
    },
    {
      "inputs": [],
      "name": "InvalidBoardData",
      "type": "error"
    },
    {
      "inputs": [],
      "name": "InvalidDisembarkData",
      "type": "error"
    },
    {
      "inputs": [],
      "name": "InvalidVaultAddress",
      "type": "error"
    },
    {
      "inputs": [],
      "name": "KeeperDataRequired",
      "type": "error"
    },
    {
      "inputs": [
        {
          "internalType": "address",
          "name": "token",
          "type": "address"
        }
      ],
      "name": "SafeERC20FailedOperation",
      "type": "error"
    },
    {
      "anonymous": false,
      "inputs": [
        {
          "indexed": true,
          "internalType": "address[]",
          "name": "rewardTokens",
          "type": "address[]"
        },
        {
          "indexed": true,
          "internalType": "uint256[]",
          "name": "rewardAmounts",
          "type": "uint256[]"
        }
      ],
      "name": "ArkHarvested",
      "type": "event"
    },
    {
      "anonymous": false,
      "inputs": [
        {
          "indexed": false,
          "internalType": "uint256",
          "name": "currentPrice",
          "type": "uint256"
        },
        {
          "indexed": false,
          "internalType": "uint256",
          "name": "timestamp",
          "type": "uint256"
        }
      ],
      "name": "ArkPoked",
      "type": "event"
    },
    {
      "anonymous": false,
      "inputs": [
        {
          "indexed": true,
          "internalType": "address[]",
          "name": "sweptTokens",
          "type": "address[]"
        },
        {
          "indexed": true,
          "internalType": "uint256[]",
          "name": "sweptAmounts",
          "type": "uint256[]"
        }
      ],
      "name": "ArkSwept",
      "type": "event"
    },
    {
      "anonymous": false,
      "inputs": [
        {
          "indexed": true,
          "internalType": "address",
          "name": "commander",
          "type": "address"
        },
        {
          "indexed": false,
          "internalType": "address",
          "name": "token",
          "type": "address"
        },
        {
          "indexed": false,
          "internalType": "uint256",
          "name": "amount",
          "type": "uint256"
        }
      ],
      "name": "Boarded",
      "type": "event"
    },
    {
      "anonymous": false,
      "inputs": [
        {
          "indexed": false,
          "internalType": "uint256",
          "name": "newCap",
          "type": "uint256"
        }
      ],
      "name": "DepositCapUpdated",
      "type": "event"
    },
    {
      "anonymous": false,
      "inputs": [
        {
          "indexed": true,
          "internalType": "address",
          "name": "commander",
          "type": "address"
        },
        {
          "indexed": false,
          "internalType": "address",
          "name": "token",
          "type": "address"
        },
        {
          "indexed": false,
          "internalType": "uint256",
          "name": "amount",
          "type": "uint256"
        }
      ],
      "name": "Disembarked",
      "type": "event"
    },
    {
      "anonymous": false,
      "inputs": [
        {
          "indexed": false,
          "internalType": "address",
          "name": "commander",
          "type": "address"
        }
      ],
      "name": "FleetCommanderRegistered",
      "type": "event"
    },
    {
      "anonymous": false,
      "inputs": [
        {
          "indexed": false,
          "internalType": "address",
          "name": "commander",
          "type": "address"
        }
      ],
      "name": "FleetCommanderUnregistered",
      "type": "event"
    },
    {
      "anonymous": false,
      "inputs": [
        {
          "indexed": false,
          "internalType": "uint256",
          "name": "newMaxInflow",
          "type": "uint256"
        }
      ],
      "name": "MaxRebalanceInflowUpdated",
      "type": "event"
    },
    {
      "anonymous": false,
      "inputs": [
        {
          "indexed": false,
          "internalType": "uint256",
          "name": "newMaxOutflow",
          "type": "uint256"
        }
      ],
      "name": "MaxRebalanceOutflowUpdated",
      "type": "event"
    },
    {
      "anonymous": false,
      "inputs": [
        {
          "indexed": true,
          "internalType": "address",
          "name": "from",
          "type": "address"
        },
        {
          "indexed": true,
          "internalType": "address",
          "name": "to",
          "type": "address"
        },
        {
          "indexed": false,
          "internalType": "address",
          "name": "token",
          "type": "address"
        },
        {
          "indexed": false,
          "internalType": "uint256",
          "name": "amount",
          "type": "uint256"
        }
      ],
      "name": "Moved",
      "type": "event"
    },
    {
      "anonymous": false,
      "inputs": [
        {
          "indexed": false,
          "internalType": "address",
          "name": "newRaft",
          "type": "address"
        }
      ],
      "name": "RaftUpdated",
      "type": "event"
    },
    {
      "inputs": [],
      "name": "aToken",
      "outputs": [
        {
          "internalType": "address",
          "name": "",
          "type": "address"
        }
      ],
      "stateMutability": "view",
      "type": "function"
    },
    {
      "inputs": [],
      "name": "aaveV3DataProvider",
      "outputs": [
        {
          "internalType": "contract IPoolDataProvider",
          "name": "",
          "type": "address"
        }
      ],
      "stateMutability": "view",
      "type": "function"
    },
    {
      "inputs": [],
      "name": "aaveV3Pool",
      "outputs": [
        {
          "internalType": "contract IPoolV3",
          "name": "",
          "type": "address"
        }
      ],
      "stateMutability": "view",
      "type": "function"
    },
    {
      "inputs": [
        {
          "internalType": "uint256",
          "name": "amount",
          "type": "uint256"
        },
        {
          "internalType": "bytes",
          "name": "boardData",
          "type": "bytes"
        }
      ],
      "name": "board",
      "outputs": [],
      "stateMutability": "nonpayable",
      "type": "function"
    },
    {
      "inputs": [],
      "name": "commander",
      "outputs": [
        {
          "internalType": "address",
          "name": "",
          "type": "address"
        }
      ],
      "stateMutability": "view",
      "type": "function"
    },
    {
      "inputs": [],
      "name": "config",
      "outputs": [
        {
          "internalType": "address",
          "name": "commander",
          "type": "address"
        },
        {
          "internalType": "address",
          "name": "raft",
          "type": "address"
        },
        {
          "internalType": "contract IERC20",
          "name": "token",
          "type": "address"
        },
        {
          "internalType": "uint256",
          "name": "depositCap",
          "type": "uint256"
        },
        {
          "internalType": "uint256",
          "name": "maxRebalanceOutflow",
          "type": "uint256"
        },
        {
          "internalType": "uint256",
          "name": "maxRebalanceInflow",
          "type": "uint256"
        },
        {
          "internalType": "string",
          "name": "name",
          "type": "string"
        },
        {
          "internalType": "bool",
          "name": "requiresKeeperData",
          "type": "bool"
        }
      ],
      "stateMutability": "view",
      "type": "function"
    },
    {
      "inputs": [],
      "name": "configurationManager",
      "outputs": [
        {
          "internalType": "contract IConfigurationManager",
          "name": "",
          "type": "address"
        }
      ],
      "stateMutability": "view",
      "type": "function"
    },
    {
      "inputs": [],
      "name": "depositCap",
      "outputs": [
        {
          "internalType": "uint256",
          "name": "",
          "type": "uint256"
        }
      ],
      "stateMutability": "view",
      "type": "function"
    },
    {
      "inputs": [
        {
          "internalType": "uint256",
          "name": "amount",
          "type": "uint256"
        },
        {
          "internalType": "bytes",
          "name": "disembarkData",
          "type": "bytes"
        }
      ],
      "name": "disembark",
      "outputs": [],
      "stateMutability": "nonpayable",
      "type": "function"
    },
    {
      "inputs": [
        {
          "internalType": "enum ContractSpecificRoles",
          "name": "roleName",
          "type": "uint8"
        },
        {
          "internalType": "address",
          "name": "roleTargetContract",
          "type": "address"
        }
      ],
      "name": "generateRole",
      "outputs": [
        {
          "internalType": "bytes32",
          "name": "",
          "type": "bytes32"
        }
      ],
      "stateMutability": "pure",
      "type": "function"
    },
    {
      "inputs": [],
      "name": "getConfig",
      "outputs": [
        {
          "components": [
            {
              "internalType": "address",
              "name": "commander",
              "type": "address"
            },
            {
              "internalType": "address",
              "name": "raft",
              "type": "address"
            },
            {
              "internalType": "contract IERC20",
              "name": "token",
              "type": "address"
            },
            {
              "internalType": "uint256",
              "name": "depositCap",
              "type": "uint256"
            },
            {
              "internalType": "uint256",
              "name": "maxRebalanceOutflow",
              "type": "uint256"
            },
            {
              "internalType": "uint256",
              "name": "maxRebalanceInflow",
              "type": "uint256"
            },
            {
              "internalType": "string",
              "name": "name",
              "type": "string"
            },
            {
              "internalType": "bool",
              "name": "requiresKeeperData",
              "type": "bool"
            }
          ],
          "internalType": "struct ArkConfig",
          "name": "",
          "type": "tuple"
        }
      ],
      "stateMutability": "view",
      "type": "function"
    },
    {
      "inputs": [],
      "name": "harborCommand",
      "outputs": [
        {
          "internalType": "address",
          "name": "",
          "type": "address"
        }
      ],
      "stateMutability": "view",
      "type": "function"
    },
    {
      "inputs": [
        {
          "internalType": "bytes",
          "name": "additionalData",
          "type": "bytes"
        }
      ],
      "name": "harvest",
      "outputs": [
        {
          "internalType": "address[]",
          "name": "rewardTokens",
          "type": "address[]"
        },
        {
          "internalType": "uint256[]",
          "name": "rewardAmounts",
          "type": "uint256[]"
        }
      ],
      "stateMutability": "nonpayable",
      "type": "function"
    },
    {
      "inputs": [],
      "name": "maxRebalanceInflow",
      "outputs": [
        {
          "internalType": "uint256",
          "name": "",
          "type": "uint256"
        }
      ],
      "stateMutability": "view",
      "type": "function"
    },
    {
      "inputs": [],
      "name": "maxRebalanceOutflow",
      "outputs": [
        {
          "internalType": "uint256",
          "name": "",
          "type": "uint256"
        }
      ],
      "stateMutability": "view",
      "type": "function"
    },
    {
      "inputs": [
        {
          "internalType": "uint256",
          "name": "amount",
          "type": "uint256"
        },
        {
          "internalType": "address",
          "name": "receiverArk",
          "type": "address"
        },
        {
          "internalType": "bytes",
          "name": "boardData",
          "type": "bytes"
        },
        {
          "internalType": "bytes",
          "name": "disembarkData",
          "type": "bytes"
        }
      ],
      "name": "move",
      "outputs": [],
      "stateMutability": "nonpayable",
      "type": "function"
    },
    {
      "inputs": [],
      "name": "name",
      "outputs": [
        {
          "internalType": "string",
          "name": "",
          "type": "string"
        }
      ],
      "stateMutability": "view",
      "type": "function"
    },
    {
      "inputs": [],
      "name": "raft",
      "outputs": [
        {
          "internalType": "address",
          "name": "",
          "type": "address"
        }
      ],
      "stateMutability": "view",
      "type": "function"
    },
    {
      "inputs": [],
      "name": "registerFleetCommander",
      "outputs": [],
      "stateMutability": "nonpayable",
      "type": "function"
    },
    {
      "inputs": [],
      "name": "requiresKeeperData",
      "outputs": [
        {
          "internalType": "bool",
          "name": "",
          "type": "bool"
        }
      ],
      "stateMutability": "view",
      "type": "function"
    },
    {
      "inputs": [],
      "name": "rewardsController",
      "outputs": [
        {
          "internalType": "contract IRewardsController",
          "name": "",
          "type": "address"
        }
      ],
      "stateMutability": "view",
      "type": "function"
    },
    {
      "inputs": [
        {
          "internalType": "uint256",
          "name": "newDepositCap",
          "type": "uint256"
        }
      ],
      "name": "setDepositCap",
      "outputs": [],
      "stateMutability": "nonpayable",
      "type": "function"
    },
    {
      "inputs": [
        {
          "internalType": "uint256",
          "name": "newMaxRebalanceInflow",
          "type": "uint256"
        }
      ],
      "name": "setMaxRebalanceInflow",
      "outputs": [],
      "stateMutability": "nonpayable",
      "type": "function"
    },
    {
      "inputs": [
        {
          "internalType": "uint256",
          "name": "newMaxRebalanceOutflow",
          "type": "uint256"
        }
      ],
      "name": "setMaxRebalanceOutflow",
      "outputs": [],
      "stateMutability": "nonpayable",
      "type": "function"
    },
    {
      "inputs": [
        {
          "internalType": "address[]",
          "name": "tokens",
          "type": "address[]"
        }
      ],
      "name": "sweep",
      "outputs": [
        {
          "internalType": "address[]",
          "name": "sweptTokens",
          "type": "address[]"
        },
        {
          "internalType": "uint256[]",
          "name": "sweptAmounts",
          "type": "uint256[]"
        }
      ],
      "stateMutability": "nonpayable",
      "type": "function"
    },
    {
      "inputs": [],
      "name": "tipJar",
      "outputs": [
        {
          "internalType": "address",
          "name": "",
          "type": "address"
        }
      ],
      "stateMutability": "view",
      "type": "function"
    },
    {
      "inputs": [],
      "name": "token",
      "outputs": [
        {
          "internalType": "contract IERC20",
          "name": "",
          "type": "address"
        }
      ],
      "stateMutability": "view",
      "type": "function"
    },
    {
      "inputs": [],
      "name": "totalAssets",
      "outputs": [
        {
          "internalType": "uint256",
          "name": "",
          "type": "uint256"
        }
      ],
      "stateMutability": "view",
      "type": "function"
    },
    {
      "inputs": [],
      "name": "treasury",
      "outputs": [
        {
          "internalType": "address",
          "name": "",
          "type": "address"
        }
      ],
      "stateMutability": "view",
      "type": "function"
    },
    {
      "inputs": [],
      "name": "unregisterFleetCommander",
      "outputs": [],
      "stateMutability": "nonpayable",
      "type": "function"
    }
  ],
  "bytecode": "0x60a080604052346105a357612641803803809161001c82856107ff565b83398101906060818303126105a35761003481610822565b61004060208301610822565b604083015190926001600160401b0382116105a3570192610100848203126105a3576040519061006f826107e3565b84516001600160401b0381116105a357850181601f820112156105a3578051906001600160401b0382116105a757604051926100b5601f8401601f1916602001856107ff565b828452602083830101116105a357815f9260208093018386015e8301015281526100e160208501610822565b908160208201526100f460408601610822565b94604082019286845261010960608301610822565b606084019081526080830151946080850195865260a08401519260a0860193845261014260e060c08701519660c0890197885201610836565b60e08701908152996001600160a01b03908116911680156107d0576040516301ffc9a760e01b815263a237592160e01b6004820152602081602481855afa9081156105c2575f91610796575b5015610784575f80546001600160a01b031916919091179055801561077557608052516001600160a01b0316156107665780516001600160a01b0316156107575783515115610748576001600160a01b036101e7610857565b161561073957516001600160a01b03166101ff610857565b9451915192519351975115159460e06040519161021b836107e3565b5f83526001600160a01b03166020830181905260408301849052606083018590526080830186905260a0830187905260c083018b90529101958652600180546001600160a01b031990811690915560028054821690921790915560038054909116909117905560045560055560065583516001600160401b0381116105a757600754600181811c9116801561072f575b602082101461071b57601f81116106b8575b50602094601f8211600114610655579481929394955f9261064a575b50508160011b915f199060031b1c1916176007555b51151560ff80196008541691161760085560018060a01b03168060018060a01b0319600a541617600a55604051630150a5d760e21b8152602081600481855afa9081156105c2575f91610607575b5060405163e860accb60e01b815290602090829060049082906001600160a01b03165afa9081156105c2575f916105cd575b50600b80546001600160a01b0319166001600160a01b039283161790556003546040516335ea6a7560e01b815291166004820152906101e090829060249082905afa9081156105c2575f91610427575b506101000151600980546001600160a01b039283166001600160a01b031991821617909155600c8054939092169216919091179055604051611d7c90816108c582396080518181816105bf01528181610b1f015281816111d3015281816112450152611a600152f35b8091506101e03d81116105bb575b61043f81836107ff565b810103906101e082126105a357604051916101e08301906001600160401b038211848310176105a757602091604052126105a357604051602081016001600160401b038111828210176105a7576040528151815282526104a160208201610843565b60208301526104b260408201610843565b60408301526104c360608201610843565b60608301526104d460808201610843565b60808301526104e560a08201610843565b60a083015260c081015164ffffffffff811681036105a35760c083015260e081015161ffff811681036105a357610597916101c09160e085015261052c6101008201610822565b61010085015261053f6101208201610822565b6101208501526105526101408201610822565b6101408501526105656101608201610822565b6101608501526105786101808201610843565b61018085015261058b6101a08201610843565b6101a085015201610843565b6101c08201525f6103be565b5f80fd5b634e487b7160e01b5f52604160045260245ffd5b503d610435565b6040513d5f823e3d90fd5b90506020813d6020116105ff575b816105e8602093836107ff565b810103126105a3576105f990610822565b5f61036e565b3d91506105db565b90506020813d602011610642575b81610622602093836107ff565b810103126105a357516001600160a01b03811681036105a357602061033c565b3d9150610615565b015190505f806102d9565b601f1982169560075f52805f20915f5b8881106106a057508360019596979810610688575b505050811b016007556102ee565b01515f1960f88460031b161c191690555f808061067a565b91926020600181928685015181550194019201610665565b60075f527fa66cc928b5edb82af9bd49922954155ab7b0942694bea4ce44661d9a8736c688601f830160051c81019160208410610711575b601f0160051c01905b81811061070657506102bd565b5f81556001016106f9565b90915081906106f0565b634e487b7160e01b5f52602260045260245ffd5b90607f16906102ab565b633a4f9cdb60e21b5f5260045ffd5b63268c072960e01b5f5260045ffd5b637ff57ef160e11b5f5260045ffd5b63b53c493160e01b5f5260045ffd5b63f1634df960e01b5f5260045ffd5b6347bd7c1d60e01b5f5260045260245ffd5b90506020813d6020116107c8575b816107b1602093836107ff565b810103126105a3576107c290610836565b5f61018e565b3d91506107a4565b6347bd7c1d60e01b5f525f60045260245ffd5b61010081019081106001600160401b038211176105a757604052565b601f909101601f19168101906001600160401b038211908210176105a757604052565b51906001600160a01b03821682036105a357565b519081151582036105a357565b51906001600160801b03821682036105a357565b608051604051628bec5760e51b815290602090829060049082906001600160a01b03165afa9081156105c2575f9161088d575090565b90506020813d6020116108bc575b816108a8602093836107ff565b810103126105a3576108b990610822565b90565b3d915061089b56fe6080806040526004361015610012575f80fd5b5f905f3560e01c90816301e1d1141461171f5750806306fdde03146116f0578063117d8ae0146116c457806313c408f8146115c65780632db6d399146112fa578063303dbaf3146112d75780633194549e146112b957806337270936146112905780635b0f83f31461121e57806361d027b3146111ac57806361f5cd8b1461115857806369b3054b146110f35780636bb65f53146110ca578063780469bb14610c3f57806379502c5514610bb45780637aaceb9514610af85780638665120314610aa457806386a06ff014610a7b5780638a8b997614610a1c57806392f5e832146109b5578063a0c1f15e1461098c578063ad5a356f1461096e578063c38a6f0b1461071d578063c3f909d4146105ee578063c9c667e3146105a9578063cce47e5514610580578063ce5c7f6114610221578063dbd5edc714610203578063ebf31131146101935763fc0c546a14610168575f80fd5b346101905780600319360112610190576003546040516001600160a01b039091168152602090f35b80fd5b50346101905780600319360112610190576101ac611bce565b156101f0576001600160601b0360a01b600154166001557f7cb941d7b1708e5b3bcd35ca960d6c6311188cec18886e5b67630552676b04876020604051338152a180f35b631564c0e160e11b815233600452602490fd5b50346101905780600319360112610190576020600454604051908152f35b50346101905760203660031901126101905760043567ffffffffffffffff811161057c576102539036906004016117c6565b604051628bec5760e51b8152919291602081600481305afa908115610571578391610533575b506001600160a01b031633036105205760408051906102988183611883565b60018252601f19810194853660208501376020818351956102b98588611883565b600187528836848901378101031261051c578151906020820182811067ffffffffffffffff8211176105085783526102f09061183e565b8082526001600160a01b031661030584611b1c565b52600b5460035483516334924edb60e21b81526001600160a01b0391821660048201529160609183916024918391165afa9081156104fe5786916104a7575b508251966103528489611883565b6001885236602089013761036587611b1c565b6001600160a01b039182169052600c54825184516357b8988360e01b815260606004820152986020938a9381169284928b92849216906103a99060648401906118bd565b905f196024840152604483015203925af195861561049d57859661045b575b50906104218493927f3e3e7958121b3e39c7a49392d1aa9cdce870c2a059744f9e15cf66fff7865455976103fe61045797611b1c565b52516001600160a01b0316610411611a4c565b61041a86611b1c565b5191611cb2565b61042a82611b51565b61043384611b94565b90878780a361044182611b51565b61044a84611b94565b915196868897a3836118f9565b0390f35b95509291906020863d602011610495575b8161047960209383611883565b810103126104915794519491929091906104216103c8565b5f80fd5b3d915061046c565b82513d87823e3d90fd5b90506060813d6060116104f6575b816104c260609383611883565b810103126104f2576104d381611a38565b506104eb836104e460208401611a38565b9201611a38565b505f610344565b8580fd5b3d91506104b5565b83513d88823e3d90fd5b634e487b7160e01b87526041600452602487fd5b8480fd5b631184b31b60e21b825233600452602482fd5b90506020813d602011610569575b8161054e60209383611883565b810103126105655761055f90611a38565b5f610279565b8280fd5b3d9150610541565b6040513d85823e3d90fd5b5080fd5b5034610190578060031936011261019057600b546040516001600160a01b039091168152602090f35b50346101905780600319360112610190576040517f00000000000000000000000000000000000000000000000000000000000000006001600160a01b03168152602090f35b503461019057806003193601126101905760e060405161060d81611852565b8281528260208201528260408201528260608201528260808201528260a0820152606060c0820152015260405161064381611852565b6001546001600160a01b03908116825260025481166020830190815260035490911660408301908152600454606084019081526005546080850190815260065460a0860190815293949361070f929161069a611947565b9260c0870193845260ff600854169560e08801961515875260405198899860208a5260018060a01b0390511660208a015260018060a01b03905116604089015260018060a01b0390511660608801525160808701525160a08601525160c08501525161010060e08501526101208401906117a2565b905115156101008301520390f35b50346101905760803660031901126101905760043561073a611828565b9060443567ffffffffffffffff811161096a5761075b9036906004016117c6565b909260643567ffffffffffffffff81116104f25761077d9036906004016117c6565b90610786611bce565b15610957578693929161079891611c61565b600a54600354604051631a4ca37b60e21b81526001600160a01b0391821660048201526024810187905230604482015291602091839160649183918991165af1801561091d57610928575b5060035460405163095ea7b360e01b81526001600160a01b038381166004830152602482018790529091602091839160449183918991165af1801561091d576108f0575b506001600160a01b031693843b156105655781606484926040519485938492632db6d39960e01b845289600485015260406024850152816044850152848401378181018301859052601f01601f1916810103018183885af180156108e5576108d0575b5050600354604080516001600160a01b039092168252602082019290925230917f9f784fc02a186f1c98b2d9f15fda084da27cdd291a3785d978f91911d880516b91a380f35b816108da91611883565b61056557825f61088a565b6040513d84823e3d90fd5b6109119060203d602011610916575b6109098183611883565b810190611ad2565b610827565b503d6108ff565b6040513d86823e3d90fd5b6109499060203d602011610950575b6109418183611883565b810190611a29565b505f6107e3565b503d610937565b631564c0e160e11b875233600452602487fd5b8380fd5b50346101905780600319360112610190576020600654604051908152f35b50346101905780600319360112610190576009546040516001600160a01b039091168152602090f35b5034610190576020366003190112610190576004356109d2611bce565b15610a09576020817fb6ac66853c4e59c71e118d25ab494bb847c4e5eb0c8894898c5343e6f61afc1292600655604051908152a180f35b631564c0e160e11b825233600452602482fd5b5034610190578060031936011261019057610a35611bce565b156101f057336001600160601b0360a01b60015416176001557f55489ce0259bd691120d8860861be1c401c7c16a3cd268d21045756af4ecc5ca6020604051338152a180f35b5034610190578060031936011261019057600a546040516001600160a01b039091168152602090f35b503461019057602036600319011261019057600435610ac1611bce565b15610a09576020817f333b26cca69716ad4680ddb07663f5bfb4f06045671f336af9a83690a3ae00f992600455604051908152a180f35b5034610190578060031936011261019057604051637aaceb9560e01b8152906020826004817f00000000000000000000000000000000000000000000000000000000000000006001600160a01b03165afa908115610ba8578091610b6b575b6040516001600160a01b0383168152602090f35b90506020823d602011610ba0575b81610b8660209383611883565b810103126101905750610b9a602091611a38565b5f610b57565b3d9150610b79565b604051903d90823e3d90fd5b50346101905780600319360112610190576001546002546003546004546005546006546001600160a01b039485169585169490931692610c339291610bf7611947565b9260ff60085416956040519889988952602089015260408801526060870152608086015260a085015261010060c08501526101008401906117a2565b90151560e08301520390f35b5034610190576020366003190112610190576004359067ffffffffffffffff8211610190573660238301121561019057816004013591610c7e836118a5565b92610c8c6040519485611883565b8084526024602085019160051b8301019136831161096a57602401905b8282106110b2575050604051628bec5760e51b81529050602081600481305afa9081156108e5578291611078575b506001600160a01b0316330361106557610cf18251611aea565b610cfb8351611aea565b9260018060a01b03600354166040516370a0823160e01b8152306004820152602081602481855afa908115610e9e578591611033575b50610ef1575b50825b8151811015610ea95760249060206001600160a01b03610d5a8386611b3d565b5116604051938480926370a0823160e01b82523060048301525afa918215610e9e578592610e6b575b5081610d94575b6001915001610d3a565b6001600160a01b03610da68285611b3d565b5116916024610db3611a4c565b9360206001600160a01b03610dc88689611b3d565b5116604051938480926370a0823160e01b82523060048301525afa918215610e60578892610e2c575b5090600194610dff92611cb2565b828060a01b03610e0f8386611b3d565b5116610e1b8387611b3d565b52610e268288611b3d565b52610d8a565b91506020823d8211610e58575b81610e4660209383611883565b81010312610491579051906001610df1565b3d9150610e39565b6040513d8a823e3d90fd5b9091506020813d8211610e96575b81610e8660209383611883565b810103126104915751905f610d83565b3d9150610e79565b6040513d87823e3d90fd5b7f46b8771620f6acf56cb03d3e835ea8024c7dcbcf05fcc3f6ade9e19d1a3e212b846104578786610ed981611b51565b610ee283611b94565b9060405196868897a3836118f9565b6001546040516330fe427560e21b815290608090829060049082906001600160a01b03165afa908115610e9e578591610fad575b50516040516370a0823160e01b815230600482015291906001600160a01b0316602083602481855afa918215610fa2578692610f6c575b610f669350611cb2565b5f610d37565b91506020833d602011610f9a575b81610f8760209383611883565b8101031261049157610f66925191610f5c565b3d9150610f7a565b6040513d88823e3d90fd5b90506080813d60801161102b575b81610fc860809383611883565b8101031261051c57604051906080820182811067ffffffffffffffff8211176105085760405280516001600160a01b0381168103611027579060609183526020810151602084015260408101516040840152015160608201525f610f25565b8680fd5b3d9150610fbb565b90506020813d60201161105d575b8161104e60209383611883565b8101031261049157515f610d31565b3d9150611041565b631184b31b60e21b815233600452602490fd5b90506020813d6020116110aa575b8161109360209383611883565b8101031261057c576110a490611a38565b5f610cd7565b3d9150611086565b602080916110bf8461183e565b815201910190610ca9565b5034610190578060031936011261019057600c546040516001600160a01b039091168152602090f35b503461019057604036600319011261019057600435600381101561057c5760209161111c611828565b9050604051908382019260f81b83526001600160601b03199060601b1660218201526015815261114d603582611883565b519020604051908152f35b503461019057602036600319011261019057600435611175611bce565b15610a09576020817ffbe2d5c01ea8ba5596d6c4e6c82c6d4a0a0ee1128689993a4a5ba0169273d69f92600555604051908152a180f35b50346101905780600319360112610190576040516361d027b360e01b8152906020826004817f00000000000000000000000000000000000000000000000000000000000000006001600160a01b03165afa908115610ba8578091610b6b576040516001600160a01b0383168152602090f35b5034610190578060031936011261019057604051635b0f83f360e01b8152906020826004817f00000000000000000000000000000000000000000000000000000000000000006001600160a01b03165afa908115610ba8578091610b6b576040516001600160a01b0383168152602090f35b50346101905780600319360112610190576001546040516001600160a01b039091168152602090f35b50346101905780600319360112610190576020600554604051908152f35b5034610190578060031936011261019057602060ff600854166040519015158152f35b503461049157611309366117f4565b604051631b93849b60e11b8152602081600481305afa908115611482575f9161158c575b50611336611bce565b156114aa575b5061134691611c61565b6003546040516323b872dd60e01b60208201523360248201523060448201526064808201849052815261138c916001600160a01b0316611387608483611883565b611cee565b600354600a5460405163095ea7b360e01b81526001600160a01b0391821660048201526024810184905291602091839160449183915f91165af180156114825761148d575b50600a546003546001600160a01b039182169116813b15610491575f9160848392604051948593849263617ba03760e01b845260048401528760248401523060448401528160648401525af180156114825761146d575b50600354604080516001600160a01b039092168252602082019290925233917fcbaa1442ac205415c9d69643e7b60ec73d1de35dbc807c21ec288c70ddc4207b91a280f35b61147a9192505f90611883565b5f905f611428565b6040513d5f823e3d90fd5b6114a59060203d602011610916576109098183611883565b6113d1565b604051628bec5760e51b8152602081600481305afa908115611482575f91611552575b506001600160a01b0316331461133c5760405163d25dd10160e01b815233600482015290602090829060249082906001600160a01b03165afa908115611482575f91611533575b5015611520575f61133c565b638f7a567d60e01b5f523360045260245ffd5b61154c915060203d602011610916576109098183611883565b5f611514565b90506020813d602011611584575b8161156d60209383611883565b810103126104915761157e90611a38565b5f6114cd565b3d9150611560565b90506020813d6020116115be575b816115a760209383611883565b81010312610491576115b890611a38565b5f61132d565b3d915061159a565b34610491576115d4366117f4565b6115dc611bce565b156116b1576115ea91611c61565b600a54600354604051631a4ca37b60e21b81526001600160a01b0391821660048201526024810184905230604482015291602091839160649183915f91165af1801561148257611692575b5060035461164f90829033906001600160a01b0316611cb2565b600354604080516001600160a01b039092168252602082019290925233917fd5e872c5ecfb1bb8820b2e6a20e31b883682282da886621541f71e31ec11947e91a2005b6116aa9060203d602011610950576109418183611883565b5081611635565b631564c0e160e11b5f523360045260245ffd5b34610491575f3660031901126104915760206116de611a4c565b6040516001600160a01b039091168152f35b34610491575f3660031901126104915761045761170b611947565b6040519182916020835260208301906117a2565b34610491575f366003190112610491576009546370a0823160e01b8252306004830152602090829060249082906001600160a01b03165afa8015611482575f9061176f575b602090604051908152f35b506020813d60201161179a575b8161178960209383611883565b810103126104915760209051611764565b3d915061177c565b805180835260209291819084018484015e5f828201840152601f01601f1916010190565b9181601f840112156104915782359167ffffffffffffffff8311610491576020838186019501011161049157565b90604060031983011261049157600435916024359067ffffffffffffffff821161049157611824916004016117c6565b9091565b602435906001600160a01b038216820361049157565b35906001600160a01b038216820361049157565b610100810190811067ffffffffffffffff82111761186f57604052565b634e487b7160e01b5f52604160045260245ffd5b90601f8019910116810190811067ffffffffffffffff82111761186f57604052565b67ffffffffffffffff811161186f5760051b60200190565b90602080835192838152019201905f5b8181106118da5750505090565b82516001600160a01b03168452602093840193909201916001016118cd565b9061190c906040835260408301906118bd565b906020818303910152602080835192838152019201905f5b8181106119315750505090565b8251845260209384019390920191600101611924565b604051905f6007548060011c9160018216918215611a1f575b602084108314611a0b5783865285929081156119ec575060011461198d575b61198b92500383611883565b565b5060075f90815290917fa66cc928b5edb82af9bd49922954155ab7b0942694bea4ce44661d9a8736c6885b8183106119d057505090602061198b9282010161197f565b60209193508060019154838589010152019101909184926119b8565b6020925061198b94915060ff191682840152151560051b82010161197f565b634e487b7160e01b5f52602260045260245ffd5b92607f1692611960565b90816020910312610491575190565b51906001600160a01b038216820361049157565b604051628bec5760e51b81526020816004817f00000000000000000000000000000000000000000000000000000000000000006001600160a01b03165afa908115611482575f91611a9b575090565b90506020813d602011611aca575b81611ab660209383611883565b8101031261049157611ac790611a38565b90565b3d9150611aa9565b90816020910312610491575180151581036104915790565b90611af4826118a5565b611b016040519182611883565b8281528092611b12601f19916118a5565b0190602036910137565b805115611b295760200190565b634e487b7160e01b5f52603260045260245ffd5b8051821015611b295760209160051b010190565b6040518091829160208251919201905f5b818110611b725750505003902090565b82516001600160a01b0316845285945060209384019390920191600101611b62565b6040518091829160208251919201905f5b818110611bb55750505003902090565b8251845285945060209384019390920191600101611ba5565b5f54604051600160f91b60208083019182526bffffffffffffffffffffffff193060601b166021840152601583526001600160a01b039093169291611c14603582611883565b519020604460405180948193632474521560e21b835260048301523360248301525afa908115611482575f91611c48575090565b611ac7915060203d602011610916576109098183611883565b5015801580611ca5575b611c965780611c8a575b611c7b57565b63332863a960e11b5f5260045ffd5b5060ff60085416611c75565b630cd0fdf960e01b5f5260045ffd5b5060ff6008541615611c6b565b60405163a9059cbb60e01b60208201526001600160a01b0392909216602483015260448083019390935291815261198b91611387606483611883565b905f602091828151910182855af115611482575f513d611d3d57506001600160a01b0381163b155b611d1d5750565b635274afe760e01b5f9081526001600160a01b0391909116600452602490fd5b60011415611d1656fea26469706673582212207765edb69b11a5271211c30735622853933136a76424f209048e63787b96234d64736f6c634300081b0033",
  "linkReferences": {},
  "deployedLinkReferences": {}
}