{
  "_format": "hh-sol-artifact-1",
  "contractName": "BuyAndBurn",
  "sourceName": "src/contracts/BuyAndBurn.sol",
  "abi": [
    {
      "inputs": [
        {
          "internalType": "address",
          "name": "_summer",
          "type": "address"
        },
        {
          "internalType": "address",
          "name": "_accessManager",
          "type": "address"
        },
        {
          "internalType": "address",
          "name": "_configurationManager",
          "type": "address"
        },
        {
          "components": [
            {
              "internalType": "uint40",
              "name": "duration",
              "type": "uint40"
            },
            {
              "internalType": "uint256",
              "name": "startPrice",
              "type": "uint256"
            },
            {
              "internalType": "uint256",
              "name": "endPrice",
              "type": "uint256"
            },
            {
              "internalType": "Percentage",
              "name": "kickerRewardPercentage",
              "type": "uint256"
            },
            {
              "internalType": "enum DecayFunctions.DecayType",
              "name": "decayType",
              "type": "uint8"
            }
          ],
          "internalType": "struct AuctionDefaultParameters",
          "name": "_defaultParameters",
          "type": "tuple"
        }
      ],
      "stateMutability": "nonpayable",
      "type": "constructor"
    },
    {
      "inputs": [
        {
          "internalType": "uint256",
          "name": "auctionId",
          "type": "uint256"
        }
      ],
      "name": "AuctionAlreadyFinalized",
      "type": "error"
    },
    {
      "inputs": [
        {
          "internalType": "uint256",
          "name": "auctionId",
          "type": "uint256"
        }
      ],
      "name": "AuctionNotActive",
      "type": "error"
    },
    {
      "inputs": [
        {
          "internalType": "uint256",
          "name": "auctionId",
          "type": "uint256"
        }
      ],
      "name": "AuctionNotEnded",
      "type": "error"
    },
    {
      "inputs": [],
      "name": "AuctionNotFound",
      "type": "error"
    },
    {
      "inputs": [
        {
          "internalType": "address",
          "name": "tokenToAuction",
          "type": "address"
        }
      ],
      "name": "BuyAndBurnAuctionAlreadyRunning",
      "type": "error"
    },
    {
      "inputs": [
        {
          "internalType": "address",
          "name": "caller",
          "type": "address"
        }
      ],
      "name": "CallerIsNotAdmin",
      "type": "error"
    },
    {
      "inputs": [
        {
          "internalType": "address",
          "name": "caller",
          "type": "address"
        }
      ],
      "name": "CallerIsNotAuthorizedToBoard",
      "type": "error"
    },
    {
      "inputs": [
        {
          "internalType": "address",
          "name": "caller",
          "type": "address"
        }
      ],
      "name": "CallerIsNotCommander",
      "type": "error"
    },
    {
      "inputs": [
        {
          "internalType": "address",
          "name": "caller",
          "type": "address"
        },
        {
          "internalType": "bytes32",
          "name": "role",
          "type": "bytes32"
        }
      ],
      "name": "CallerIsNotContractSpecificRole",
      "type": "error"
    },
    {
      "inputs": [
        {
          "internalType": "address",
          "name": "caller",
          "type": "address"
        }
      ],
      "name": "CallerIsNotCurator",
      "type": "error"
    },
    {
      "inputs": [
        {
          "internalType": "address",
          "name": "caller",
          "type": "address"
        }
      ],
      "name": "CallerIsNotGovernor",
      "type": "error"
    },
    {
      "inputs": [
        {
          "internalType": "address",
          "name": "caller",
          "type": "address"
        }
      ],
      "name": "CallerIsNotGuardian",
      "type": "error"
    },
    {
      "inputs": [
        {
          "internalType": "address",
          "name": "caller",
          "type": "address"
        }
      ],
      "name": "CallerIsNotGuardianOrGovernor",
      "type": "error"
    },
    {
      "inputs": [
        {
          "internalType": "address",
          "name": "caller",
          "type": "address"
        }
      ],
      "name": "CallerIsNotKeeper",
      "type": "error"
    },
    {
      "inputs": [
        {
          "internalType": "address",
          "name": "caller",
          "type": "address"
        }
      ],
      "name": "CallerIsNotRaft",
      "type": "error"
    },
    {
      "inputs": [
        {
          "internalType": "address",
          "name": "caller",
          "type": "address"
        }
      ],
      "name": "CallerIsNotRaftOrCommander",
      "type": "error"
    },
    {
      "inputs": [
        {
          "internalType": "address",
          "name": "caller",
          "type": "address"
        }
      ],
      "name": "CallerIsNotSuperKeeper",
      "type": "error"
    },
    {
      "inputs": [],
      "name": "ConfigurationManagerZeroAddress",
      "type": "error"
    },
    {
      "inputs": [
        {
          "internalType": "address",
          "name": "caller",
          "type": "address"
        }
      ],
      "name": "DirectGrantIsDisabled",
      "type": "error"
    },
    {
      "inputs": [
        {
          "internalType": "address",
          "name": "caller",
          "type": "address"
        }
      ],
      "name": "DirectRevokeIsDisabled",
      "type": "error"
    },
    {
      "inputs": [],
      "name": "InsufficientTokensAvailable",
      "type": "error"
    },
    {
      "inputs": [
        {
          "internalType": "address",
          "name": "invalidAddress",
          "type": "address"
        }
      ],
      "name": "InvalidAccessManagerAddress",
      "type": "error"
    },
    {
      "inputs": [],
      "name": "InvalidDecayType",
      "type": "error"
    },
    {
      "inputs": [
        {
          "internalType": "uint256",
          "name": "x",
          "type": "uint256"
        },
        {
          "internalType": "uint256",
          "name": "y",
          "type": "uint256"
        }
      ],
      "name": "PRBMath_MulDiv18_Overflow",
      "type": "error"
    },
    {
      "inputs": [
        {
          "internalType": "uint256",
          "name": "x",
          "type": "uint256"
        },
        {
          "internalType": "uint256",
          "name": "y",
          "type": "uint256"
        },
        {
          "internalType": "uint256",
          "name": "denominator",
          "type": "uint256"
        }
      ],
      "name": "PRBMath_MulDiv_Overflow",
      "type": "error"
    },
    {
      "inputs": [
        {
          "internalType": "uint256",
          "name": "x",
          "type": "uint256"
        }
      ],
      "name": "PRBMath_UD60x18_Convert_Overflow",
      "type": "error"
    },
    {
      "inputs": [
        {
          "internalType": "address",
          "name": "token",
          "type": "address"
        }
      ],
      "name": "SafeERC20FailedOperation",
      "type": "error"
    },
    {
      "anonymous": false,
      "inputs": [
        {
          "components": [
            {
              "internalType": "uint40",
              "name": "duration",
              "type": "uint40"
            },
            {
              "internalType": "uint256",
              "name": "startPrice",
              "type": "uint256"
            },
            {
              "internalType": "uint256",
              "name": "endPrice",
              "type": "uint256"
            },
            {
              "internalType": "Percentage",
              "name": "kickerRewardPercentage",
              "type": "uint256"
            },
            {
              "internalType": "enum DecayFunctions.DecayType",
              "name": "decayType",
              "type": "uint8"
            }
          ],
          "indexed": false,
          "internalType": "struct AuctionDefaultParameters",
          "name": "newConfig",
          "type": "tuple"
        }
      ],
      "name": "AuctionDefaultParametersUpdated",
      "type": "event"
    },
    {
      "anonymous": false,
      "inputs": [
        {
          "indexed": true,
          "internalType": "uint256",
          "name": "auctionId",
          "type": "uint256"
        },
        {
          "indexed": false,
          "internalType": "uint256",
          "name": "soldTokens",
          "type": "uint256"
        },
        {
          "indexed": false,
          "internalType": "uint256",
          "name": "unsoldTokens",
          "type": "uint256"
        }
      ],
      "name": "AuctionFinalized",
      "type": "event"
    },
    {
      "anonymous": false,
      "inputs": [
        {
          "indexed": true,
          "internalType": "uint256",
          "name": "auctionId",
          "type": "uint256"
        },
        {
          "indexed": true,
          "internalType": "address",
          "name": "tokenToAuction",
          "type": "address"
        },
        {
          "indexed": false,
          "internalType": "uint256",
          "name": "amount",
          "type": "uint256"
        }
      ],
      "name": "BuyAndBurnAuctionStarted",
      "type": "event"
    },
    {
      "anonymous": false,
      "inputs": [
        {
          "indexed": false,
          "internalType": "uint256",
          "name": "amount",
          "type": "uint256"
        }
      ],
      "name": "SummerBurned",
      "type": "event"
    },
    {
      "anonymous": false,
      "inputs": [
        {
          "indexed": true,
          "internalType": "uint256",
          "name": "auctionId",
          "type": "uint256"
        },
        {
          "indexed": true,
          "internalType": "address",
          "name": "buyer",
          "type": "address"
        },
        {
          "indexed": false,
          "internalType": "uint256",
          "name": "amount",
          "type": "uint256"
        },
        {
          "indexed": false,
          "internalType": "uint256",
          "name": "price",
          "type": "uint256"
        }
      ],
      "name": "TokensPurchased",
      "type": "event"
    },
    {
      "inputs": [],
      "name": "auctionDefaultParameters",
      "outputs": [
        {
          "internalType": "uint40",
          "name": "duration",
          "type": "uint40"
        },
        {
          "internalType": "uint256",
          "name": "startPrice",
          "type": "uint256"
        },
        {
          "internalType": "uint256",
          "name": "endPrice",
          "type": "uint256"
        },
        {
          "internalType": "Percentage",
          "name": "kickerRewardPercentage",
          "type": "uint256"
        },
        {
          "internalType": "enum DecayFunctions.DecayType",
          "name": "decayType",
          "type": "uint8"
        }
      ],
      "stateMutability": "view",
      "type": "function"
    },
    {
      "inputs": [
        {
          "internalType": "uint256",
          "name": "auctionId",
          "type": "uint256"
        }
      ],
      "name": "auctionSummerRaised",
      "outputs": [
        {
          "internalType": "uint256",
          "name": "amountRaised",
          "type": "uint256"
        }
      ],
      "stateMutability": "view",
      "type": "function"
    },
    {
      "inputs": [
        {
          "internalType": "uint256",
          "name": "auctionId",
          "type": "uint256"
        }
      ],
      "name": "auctions",
      "outputs": [
        {
          "components": [
            {
              "internalType": "contract IERC20",
              "name": "auctionToken",
              "type": "address"
            },
            {
              "internalType": "contract IERC20",
              "name": "paymentToken",
              "type": "address"
            },
            {
              "internalType": "uint40",
              "name": "startTime",
              "type": "uint40"
            },
            {
              "internalType": "uint40",
              "name": "endTime",
              "type": "uint40"
            },
            {
              "internalType": "uint8",
              "name": "auctionTokenDecimals",
              "type": "uint8"
            },
            {
              "internalType": "uint8",
              "name": "paymentTokenDecimals",
              "type": "uint8"
            },
            {
              "internalType": "address",
              "name": "auctionKicker",
              "type": "address"
            },
            {
              "internalType": "address",
              "name": "unsoldTokensRecipient",
              "type": "address"
            },
            {
              "internalType": "uint40",
              "name": "id",
              "type": "uint40"
            },
            {
              "internalType": "enum DecayFunctions.DecayType",
              "name": "decayType",
              "type": "uint8"
            },
            {
              "internalType": "uint256",
              "name": "startPrice",
              "type": "uint256"
            },
            {
              "internalType": "uint256",
              "name": "endPrice",
              "type": "uint256"
            },
            {
              "internalType": "uint256",
              "name": "totalTokens",
              "type": "uint256"
            },
            {
              "internalType": "uint256",
              "name": "kickerRewardAmount",
              "type": "uint256"
            }
          ],
          "internalType": "struct DutchAuctionLibrary.AuctionConfig",
          "name": "config",
          "type": "tuple"
        },
        {
          "components": [
            {
              "internalType": "uint256",
              "name": "remainingTokens",
              "type": "uint256"
            },
            {
              "internalType": "bool",
              "name": "isFinalized",
              "type": "bool"
            }
          ],
          "internalType": "struct DutchAuctionLibrary.AuctionState",
          "name": "state",
          "type": "tuple"
        }
      ],
      "stateMutability": "view",
      "type": "function"
    },
    {
      "inputs": [
        {
          "internalType": "uint256",
          "name": "auctionId",
          "type": "uint256"
        },
        {
          "internalType": "uint256",
          "name": "amount",
          "type": "uint256"
        }
      ],
      "name": "buyTokens",
      "outputs": [
        {
          "internalType": "uint256",
          "name": "summerAmount",
          "type": "uint256"
        }
      ],
      "stateMutability": "nonpayable",
      "type": "function"
    },
    {
      "inputs": [],
      "name": "configurationManager",
      "outputs": [
        {
          "internalType": "contract IConfigurationManager",
          "name": "",
          "type": "address"
        }
      ],
      "stateMutability": "view",
      "type": "function"
    },
    {
      "inputs": [
        {
          "internalType": "uint256",
          "name": "auctionId",
          "type": "uint256"
        }
      ],
      "name": "finalizeAuction",
      "outputs": [],
      "stateMutability": "nonpayable",
      "type": "function"
    },
    {
      "inputs": [
        {
          "internalType": "enum ContractSpecificRoles",
          "name": "roleName",
          "type": "uint8"
        },
        {
          "internalType": "address",
          "name": "roleTargetContract",
          "type": "address"
        }
      ],
      "name": "generateRole",
      "outputs": [
        {
          "internalType": "bytes32",
          "name": "",
          "type": "bytes32"
        }
      ],
      "stateMutability": "pure",
      "type": "function"
    },
    {
      "inputs": [
        {
          "internalType": "uint256",
          "name": "auctionId",
          "type": "uint256"
        }
      ],
      "name": "getAuctionInfo",
      "outputs": [
        {
          "components": [
            {
              "components": [
                {
                  "internalType": "contract IERC20",
                  "name": "auctionToken",
                  "type": "address"
                },
                {
                  "internalType": "contract IERC20",
                  "name": "paymentToken",
                  "type": "address"
                },
                {
                  "internalType": "uint40",
                  "name": "startTime",
                  "type": "uint40"
                },
                {
                  "internalType": "uint40",
                  "name": "endTime",
                  "type": "uint40"
                },
                {
                  "internalType": "uint8",
                  "name": "auctionTokenDecimals",
                  "type": "uint8"
                },
                {
                  "internalType": "uint8",
                  "name": "paymentTokenDecimals",
                  "type": "uint8"
                },
                {
                  "internalType": "address",
                  "name": "auctionKicker",
                  "type": "address"
                },
                {
                  "internalType": "address",
                  "name": "unsoldTokensRecipient",
                  "type": "address"
                },
                {
                  "internalType": "uint40",
                  "name": "id",
                  "type": "uint40"
                },
                {
                  "internalType": "enum DecayFunctions.DecayType",
                  "name": "decayType",
                  "type": "uint8"
                },
                {
                  "internalType": "uint256",
                  "name": "startPrice",
                  "type": "uint256"
                },
                {
                  "internalType": "uint256",
                  "name": "endPrice",
                  "type": "uint256"
                },
                {
                  "internalType": "uint256",
                  "name": "totalTokens",
                  "type": "uint256"
                },
                {
                  "internalType": "uint256",
                  "name": "kickerRewardAmount",
                  "type": "uint256"
                }
              ],
              "internalType": "struct DutchAuctionLibrary.AuctionConfig",
              "name": "config",
              "type": "tuple"
            },
            {
              "components": [
                {
                  "internalType": "uint256",
                  "name": "remainingTokens",
                  "type": "uint256"
                },
                {
                  "internalType": "bool",
                  "name": "isFinalized",
                  "type": "bool"
                }
              ],
              "internalType": "struct DutchAuctionLibrary.AuctionState",
              "name": "state",
              "type": "tuple"
            }
          ],
          "internalType": "struct DutchAuctionLibrary.Auction",
          "name": "",
          "type": "tuple"
        }
      ],
      "stateMutability": "view",
      "type": "function"
    },
    {
      "inputs": [
        {
          "internalType": "uint256",
          "name": "auctionId",
          "type": "uint256"
        }
      ],
      "name": "getCurrentPrice",
      "outputs": [
        {
          "internalType": "uint256",
          "name": "",
          "type": "uint256"
        }
      ],
      "stateMutability": "view",
      "type": "function"
    },
    {
      "inputs": [],
      "name": "harborCommand",
      "outputs": [
        {
          "internalType": "address",
          "name": "",
          "type": "address"
        }
      ],
      "stateMutability": "view",
      "type": "function"
    },
    {
      "inputs": [],
      "name": "nextAuctionId",
      "outputs": [
        {
          "internalType": "uint256",
          "name": "",
          "type": "uint256"
        }
      ],
      "stateMutability": "view",
      "type": "function"
    },
    {
      "inputs": [
        {
          "internalType": "address",
          "name": "tokenAddress",
          "type": "address"
        }
      ],
      "name": "ongoingAuctions",
      "outputs": [
        {
          "internalType": "uint256",
          "name": "auctionId",
          "type": "uint256"
        }
      ],
      "stateMutability": "view",
      "type": "function"
    },
    {
      "inputs": [],
      "name": "raft",
      "outputs": [
        {
          "internalType": "address",
          "name": "",
          "type": "address"
        }
      ],
      "stateMutability": "view",
      "type": "function"
    },
    {
      "inputs": [
        {
          "internalType": "address",
          "name": "tokenToAuction",
          "type": "address"
        }
      ],
      "name": "startAuction",
      "outputs": [],
      "stateMutability": "nonpayable",
      "type": "function"
    },
    {
      "inputs": [],
      "name": "summerToken",
      "outputs": [
        {
          "internalType": "contract ERC20Burnable",
          "name": "",
          "type": "address"
        }
      ],
      "stateMutability": "view",
      "type": "function"
    },
    {
      "inputs": [],
      "name": "tipJar",
      "outputs": [
        {
          "internalType": "address",
          "name": "",
          "type": "address"
        }
      ],
      "stateMutability": "view",
      "type": "function"
    },
    {
      "inputs": [],
      "name": "treasury",
      "outputs": [
        {
          "internalType": "address",
          "name": "",
          "type": "address"
        }
      ],
      "stateMutability": "view",
      "type": "function"
    },
    {
      "inputs": [
        {
          "components": [
            {
              "internalType": "uint40",
              "name": "duration",
              "type": "uint40"
            },
            {
              "internalType": "uint256",
              "name": "startPrice",
              "type": "uint256"
            },
            {
              "internalType": "uint256",
              "name": "endPrice",
              "type": "uint256"
            },
            {
              "internalType": "Percentage",
              "name": "kickerRewardPercentage",
              "type": "uint256"
            },
            {
              "internalType": "enum DecayFunctions.DecayType",
              "name": "decayType",
              "type": "uint8"
            }
          ],
          "internalType": "struct AuctionDefaultParameters",
          "name": "newParameters",
          "type": "tuple"
        }
      ],
      "name": "updateAuctionDefaultParameters",
      "outputs": [],
      "stateMutability": "nonpayable",
      "type": "function"
    }
  ],
  "bytecode": "0x60c080604052346102275780611cc5803803809161001d8285610265565b833981010361010081126102275761003482610288565b9161004160208201610288565b9060a061005060408301610288565b93605f1901126102275760405160a081016001600160401b0381118282101761025157604052606082015164ffffffffff8116810361022757815260808201516020820190815260a0830151916040810192835260e060c08501519460608301958652015194600286101561022757608082019586526001600160a01b0316801561023e576040516301ffc9a760e01b815263a237592160e01b6004820152602081602481855afa908115610233575f916101f4575b50156101e2579064ffffffffff9160018060a01b03195f5416175f55511664ffffffffff1960015416176001555160025551600355516004555160028110156101ce5760ff80196005541691161760055560018060a01b031680156101bf576080526001600160a01b031660a052604051611a28908161029d823960805181818161027c015281816105c50152818161099901528181610fe301526112b1015260a05181818161017901528181610b4a01526114450152f35b63f1634df960e01b5f5260045ffd5b634e487b7160e01b5f52602160045260245ffd5b6347bd7c1d60e01b5f5260045260245ffd5b90506020813d60201161022b575b8161020f60209383610265565b8101031261022757518015158103610227575f610106565b5f80fd5b3d9150610202565b6040513d5f823e3d90fd5b6347bd7c1d60e01b5f525f60045260245ffd5b634e487b7160e01b5f52604160045260245ffd5b601f909101601f19168101906001600160401b0382119082101761025157604052565b51906001600160a01b03821682036102275756fe6080806040526004361015610012575f80fd5b5f3560e01c908163117d8ae014610fc2575080634075fa0f14610a6b578063473d18c214610a41578063571a26a0146109e45780635b0f83f31461097457806361d027b31461094857806369b3054b146108d55780637975ce281461064b5780637aaceb95146105a0578063a11a912114610406578063c13526b4146103ce578063c2f8b5261461037f578063c55d0f56146102ab578063c9c667e314610267578063e8083863146101a8578063f9ddf50d14610164578063fc3fc4ed146101035763fc528482146100e2575f80fd5b346100ff575f3660031901126100ff576020600654604051908152f35b5f80fd5b346100ff5760203660031901126100ff5761011c611369565b506004355f52600760205261020061013660405f20611330565b61016260206040519261014a8482516111b3565b015180516101c08401526020015115156101e0830152565bf35b346100ff575f3660031901126100ff576040517f00000000000000000000000000000000000000000000000000000000000000006001600160a01b03168152602090f35b346100ff5760203660031901126100ff576004355f90815260076020526040902080546001600160a01b0316156102585760ff6009820154166102375764ffffffffff600182015460c81c1642106102165761020f8161020a61021493611562565b611330565b611424565b005b600364ffffffffff91015460a01c1663e30e8d4760e01b5f5260045260245ffd5b600364ffffffffff91015460a01c1663d9e3dd8360e01b5f5260045260245ffd5b6307145c5f60e11b5f5260045ffd5b346100ff575f3660031901126100ff576040517f00000000000000000000000000000000000000000000000000000000000000006001600160a01b03168152602090f35b346100ff5760203660031901126100ff576004355f5260076020526102d260405f20611330565b61030b6020604051926370d8532160e11b84526102f36004850182516111b3565b015180516101c48401526020015115156101e4830152565b6020816102048173__$b8c3546f85ba417973fa0ec6511a339d39$__5af48015610374575f90610341575b602090604051908152f35b506020813d60201161036c575b8161035b60209383611089565b810103126100ff5760209051610336565b3d915061034e565b6040513d5f823e3d90fd5b346100ff575f3660031901126100ff5760a064ffffffffff600154166101626002546003546004549060ff600554169260405195865260208601526040850152606084015260808301906111a6565b346100ff5760203660031901126100ff576001600160a01b036103ef61102e565b165f526008602052602060405f2054604051908152f35b346100ff5760a03660031901126100ff575f54604051630ccc574960e41b81526001600160a01b0390911690602081600481855afa8015610374575f9061056d575b60209150604460405180948193632474521560e21b835260048301523360248301525afa908115610374575f91610533575b50156105205760043564ffffffffff81168091036100ff578064ffffffffff19600154161760015560243590816002556044359081600355606435928360045560843560028110156100ff577fe9d5a90069e830741fa6df4fbb146dc3c0918e85d57eb372c70e743198179c799460a09461051d9360ff196005541660ff85161760055560405195865260208601526040850152606084015260808301906111a6565ba1005b630ea7d7ed60e21b5f523360045260245ffd5b90506020813d602011610565575b8161054e60209383611089565b810103126100ff5761055f9061135c565b8161047a565b3d9150610541565b506020813d602011610598575b8161058760209383611089565b810103126100ff5760209051610448565b3d915061057a565b346100ff575f3660031901126100ff57604051637aaceb9560e01b81526020816004817f00000000000000000000000000000000000000000000000000000000000000006001600160a01b03165afa8015610374575f90610611575b6040516001600160a01b039091168152602090f35b506020813d602011610643575b8161062b60209383611089565b810103126100ff5761063e602091611288565b6105fc565b3d915061061e565b346100ff5760403660031901126100ff576004355f818152600760205260409020805460243591906001600160a01b031615610258576008810160ff6009830154166108b45760018201549364ffffffffff8560c81c1642101561089357815493848111610884576106bc84611330565b956106d364ffffffffff6040895101511642611417565b96805164ffffffffff6040816060840151169201511690039764ffffffffff8911610870576101208251015191600283101561085c576020996107b59361073a9364ffffffffff935161014081015160ff60a06101608401519301511695869516936115f2565b916107748461076e8360f81c6107696107538289611748565b61076360ff8860f01c1686611748565b90611819565b611790565b99611417565b86556040516323b872dd60e01b8a82015233602482015230604482015260648082018a90528152906107a7608483611089565b6001600160a01b03166117c1565b84546107cd90839033906001600160a01b0316611520565b64ffffffffff600386015460a01c1690604051928352878301527fe8d7e55108ae7ddb60173461d2950c7a8e22a7ac7f442825564fe84c8c6f9a3860403393a381541561084e575b5f526009845260405f2061082a848254611323565b9055541561083c575b50604051908152f35b61020f61084891611330565b82610833565b61085783611562565b610815565b634e487b7160e01b5f52602160045260245ffd5b634e487b7160e01b5f52601160045260245ffd5b632783839d60e01b5f5260045ffd5b64ffffffffff600384015460a01c1663aff5aad960e01b5f5260045260245ffd5b64ffffffffff600383015460a01c1663d9e3dd8360e01b5f5260045260245ffd5b346100ff5760403660031901126100ff5760043560038110156100ff57602435906001600160a01b03821682036100ff57602091604051908382019260f81b83526bffffffffffffffffffffffff199060601b1660218201526015815261093d603582611089565b519020604051908152f35b346100ff575f3660031901126100ff57602061096261129c565b6040516001600160a01b039091168152f35b346100ff575f3660031901126100ff57604051635b0f83f360e01b81526020816004817f00000000000000000000000000000000000000000000000000000000000000006001600160a01b03165afa8015610374575f90610611576040516001600160a01b039091168152602090f35b346100ff5760203660031901126100ff576004355f52600760205261020060405f20610162610a1e6008610a17846110ab565b9301611183565b610a2b60405180946111b3565b80516101c08401526020015115156101e0830152565b346100ff5760203660031901126100ff576004355f526009602052602060405f2054604051908152f35b346100ff5760203660031901126100ff576001600160a01b03610a8c61102e565b16805f52600860205260405f2054610fb1576040516370a0823160e01b8152306004820152602081602481855afa908115610374575f91610f7f575b50610ad161129c565b90610ada611369565b506006545f198114610870576001018060065564ffffffffff600154166002549360035460045460ff60055416936040519261016084019684881067ffffffffffffffff891117610f6b57610c2d97604052845260208401988a8a5264ffffffffff604086019360018060a01b037f0000000000000000000000000000000000000000000000000000000000000000168552606087019081526080870192835260a0870193845260c08701948b865260e0880196875261010088019733895261012081019960018060a01b03168a52610bb861014082019b8c611044565b604051631bd590b960e11b8152905160048201529c516001600160a01b0390811660248f01529051811660448e015290519190911660648c0152905160848b0152905160a48a0152905160c4890152905160e488015290518116610104870152905116610124850152516101448401906111a6565b610200826101648173__$b8c3546f85ba417973fa0ec6511a339d39$__5af4918215610374575f92610dff575b506006545f818152600760209081526040918290208551805182546001600160a01b03199081166001600160a01b0392831617845593820151948201516060830151608084015160a08086015198851693811b64ffffffffff60a01b9081169490941760c89390931b64ffffffffff60c81b169290921760f09190911b60ff60f01b161760f89790971b6001600160f81b03191696909617600185015560c0830151600280860180549097169184169190911790955560e08301516003850180546101008601516001600160c81b031990911692909416919091179290961b16178455610120810151949693959394919282101561085c57602080956101a06009937fa47aeb694c2a8362d1f64935968e9a4884fe70b503208843d370bd3952f1243e99849681549060ff60c81b9060c81b169060ff60c81b1916179055610140810151600488015561016081015160058801556101808101516006880155015160078601550151928351600882015501910151151560ff80198354169116179055845f52600882528360405f2055835f52600982525f6040812055604051908152a3005b809192506102003d8111610f64575b610e188183611089565b8101039061020082126100ff5760405191610e3283611050565b6101c081126100ff5760405190610e488261106c565b610e5183611288565b8252610e5f60208401611288565b6020830152610e70604084016113f7565b6040830152610e81606084016113f7565b6060830152610e9260808401611409565b6080830152610ea360a08401611409565b60a0830152610eb460c08401611288565b60c0830152610ec560e08401611288565b60e0830152610ed761010084016113f7565b6101008301526101208301519160028310156100ff576040926101208201526101408401516101408201526101608401516101608201526101808401516101808201526101a08401516101a082015284526101bf1901126100ff57610f536101e060405192610f4584611050565b6101c081015184520161135c565b602082015260208201529083610c5a565b503d610e0e565b634e487b7160e01b5f52604160045260245ffd5b90506020813d602011610fa9575b81610f9a60209383611089565b810103126100ff575182610ac8565b3d9150610f8d565b627f39b160e81b5f5260045260245ffd5b346100ff575f3660031901126100ff57628bec5760e51b81526020816004817f00000000000000000000000000000000000000000000000000000000000000006001600160a01b03165afa8015610374575f90610611576040516001600160a01b039091168152602090f35b600435906001600160a01b03821682036100ff57565b600282101561085c5752565b6040810190811067ffffffffffffffff821117610f6b57604052565b6101c0810190811067ffffffffffffffff821117610f6b57604052565b90601f8019910116810190811067ffffffffffffffff821117610f6b57604052565b906040516110b88161106c565b6101a06007829460018060a01b038154168452600181015460018060a01b038116602086015264ffffffffff8160a01c16604086015264ffffffffff8160c81c16606086015260ff8160f01c16608086015260f81c60a085015260018060a01b0360028201541660c085015261115b60ff600383015460018060a01b03811660e088015264ffffffffff8160a01c1661010088015260c81c166101208601611044565b6004810154610140850152600581015461016085015260068101546101808501520154910152565b9060405161119081611050565b602060ff60018395805485520154161515910152565b90600282101561085c5752565b6101a0809160018060a01b03815116845260018060a01b03602082015116602085015264ffffffffff604082015116604085015264ffffffffff606082015116606085015260ff608082015116608085015260ff60a08201511660a085015260018060a01b0360c08201511660c085015260018060a01b0360e08201511660e085015264ffffffffff6101008201511661010085015261125d6101208201516101208601906111a6565b6101408101516101408501526101608101516101608501526101808101516101808501520151910152565b51906001600160a01b03821682036100ff57565b6040516361d027b360e01b81526020816004817f00000000000000000000000000000000000000000000000000000000000000006001600160a01b03165afa908115610374575f916112ec575090565b90506020813d60201161131b575b8161130760209383611089565b810103126100ff5761131890611288565b90565b3d91506112fa565b9190820180921161087057565b9060405161133d81611050565b60206113576008839561134f816110ab565b855201611183565b910152565b519081151582036100ff57565b6040519061137682611050565b816040516113838161106c565b5f81525f60208201525f60408201525f60608201525f60808201525f60a08201525f60c08201525f60e08201525f6101008201525f6101208201525f6101408201525f6101608201525f6101808201525f6101a082015281526020604051916113eb83611050565b5f83525f828401520152565b519064ffffffffff821682036100ff57565b519060ff821682036100ff57565b9190820391821161087057565b8051610100015164ffffffffff165f908152600960205260408120549091907f00000000000000000000000000000000000000000000000000000000000000006001600160a01b0316803b156100ff575f8091602460405180948193630852cd8d60e31b83528760048401525af18015610374576114fd575b5064ffffffffff917fbb7b92357c58ac7f76efa146802fb325f7a147f953e808b572d851e8406b2f1e602061010093604051908152a160018060a01b03815151168452600860205283604081205551015116815260096020526040812055565b610100919350916115145f64ffffffffff94611089565b5f93909290915061149d565b60405163a9059cbb60e01b60208201526001600160a01b0390921660248301526044808301939093529181526115609161155b606483611089565b6117c1565b565b7fd11fb103f8d5c913b9e132f165c0cfa304fc230f10796a7a5d63bc3d8de4d3c36040600683015464ffffffffff600360088601956115a387548095611417565b60098201805460ff1916600117905593806115cf575b50015460a01c16935482519182526020820152a2565b8154838301546115ec92916001600160a01b039182169116611520565b5f6115b9565b959495939193828410156116d857600281101561085c578061165e5750916116536116589261164d61164761164161163b8b6116356113189d6107699c9b611748565b99611748565b88611417565b946118ae565b916118ae565b92611819565b611934565b90611417565b91939290916001036116c9576116536107699461164d6116bd6116b76116b16116ac6116a561169e8e6113189f611698906116c39d611748565b9c611748565b809b611417565b9786611417565b6118ae565b936118ae565b926118ed565b916118ed565b90611323565b6346b2fddf60e11b5f5260045ffd5b5050505091505090565b60ff6011199116019060ff821161087057565b60ff166012039060ff821161087057565b60ff16604d811161087057600a0a90565b8115611721570490565b634e487b7160e01b5f52601260045260245ffd5b8181029291811591840414171561087057565b60ff82166012811461178a576012106117755761176f61176a611318936116f5565b611706565b90611735565b61178461176a611318936116e2565b90611717565b50905090565b60ff82166012811461178a576012106117b25761178461176a611318936116f5565b61176f61176a611318936116e2565b905f602091828151910182855af115610374575f513d61181057506001600160a01b0381163b155b6117f05750565b635274afe760e01b5f9081526001600160a01b0391909116600452602490fd5b600114156117e9565b9091905f198382098382029182808310920391808303921461189d57670de0b6b3a7640000821015611886577faccb18165bd6fe31ae1cf318dc5b51eee0e1ba569b88cd74c1773b91fac106699394670de0b6b3a7640000910990828211900360ee1b910360121c170290565b8490635173648d60e01b5f5260045260245260445ffd5b5050670de0b6b3a764000090049150565b7812725dd1d243aba0e75fe645cc4873f9e65afe688c928e1f2181116118db57670de0b6b3a76400000290565b631cd951a760e01b5f5260045260245ffd5b670de0b6b3a764000090600190815b61190557505090565b8061190f91611819565b9060018116611923575b60011c90816118fc565b918161192e91611819565b91611919565b5f19670de0b6b3a7640000820991670de0b6b3a76400008202918280851094039380850394146119e657818410156119c557670de0b6b3a7640000829109600182190182168092046002816003021880820260020302808202600203028082026002030280820260020302808202600203028091026002030293600183805f03040190848311900302920304170290565b630c740aef60e31b5f52600452670de0b6b3a764000060245260445260645ffd5b5090611318925061171756fea2646970667358221220e2fbf38b292983880b0788ad4fd10391468834fd869d7d323aec6bd35cd9f58c64736f6c634300081b0033",
  "linkReferences": {
    "@summerfi/dutch-auction/src/DutchAuctionLibrary.sol": {
      "DutchAuctionLibrary": [
        {
          "length": 20,
          "start": 1457
        },
        {
          "length": 20,
          "start": 3796
        }
      ]
    }
  },
  "deployedLinkReferences": {
    "@summerfi/dutch-auction/src/DutchAuctionLibrary.sol": {
      "DutchAuctionLibrary": [
        {
          "length": 20,
          "start": 788
        },
        {
          "length": 20,
          "start": 3127
        }
      ]
    }
  }
}