{
  "_format": "hh-sol-artifact-1",
  "contractName": "CompoundV3Ark",
  "sourceName": "src/contracts/arks/CompoundV3Ark.sol",
  "abi": [
    {
      "inputs": [
        {
          "internalType": "address",
          "name": "_comet",
          "type": "address"
        },
        {
          "internalType": "address",
          "name": "_cometRewards",
          "type": "address"
        },
        {
          "components": [
            {
              "internalType": "string",
              "name": "name",
              "type": "string"
            },
            {
              "internalType": "address",
              "name": "accessManager",
              "type": "address"
            },
            {
              "internalType": "address",
              "name": "configurationManager",
              "type": "address"
            },
            {
              "internalType": "address",
              "name": "token",
              "type": "address"
            },
            {
              "internalType": "uint256",
              "name": "depositCap",
              "type": "uint256"
            },
            {
              "internalType": "uint256",
              "name": "maxRebalanceOutflow",
              "type": "uint256"
            },
            {
              "internalType": "uint256",
              "name": "maxRebalanceInflow",
              "type": "uint256"
            },
            {
              "internalType": "bool",
              "name": "requiresKeeperData",
              "type": "bool"
            }
          ],
          "internalType": "struct ArkParams",
          "name": "_params",
          "type": "tuple"
        }
      ],
      "stateMutability": "nonpayable",
      "type": "constructor"
    },
    {
      "inputs": [
        {
          "internalType": "address",
          "name": "caller",
          "type": "address"
        }
      ],
      "name": "CallerIsNotAdmin",
      "type": "error"
    },
    {
      "inputs": [
        {
          "internalType": "address",
          "name": "caller",
          "type": "address"
        }
      ],
      "name": "CallerIsNotAuthorizedToBoard",
      "type": "error"
    },
    {
      "inputs": [
        {
          "internalType": "address",
          "name": "caller",
          "type": "address"
        }
      ],
      "name": "CallerIsNotCommander",
      "type": "error"
    },
    {
      "inputs": [
        {
          "internalType": "address",
          "name": "caller",
          "type": "address"
        },
        {
          "internalType": "bytes32",
          "name": "role",
          "type": "bytes32"
        }
      ],
      "name": "CallerIsNotContractSpecificRole",
      "type": "error"
    },
    {
      "inputs": [
        {
          "internalType": "address",
          "name": "caller",
          "type": "address"
        }
      ],
      "name": "CallerIsNotCurator",
      "type": "error"
    },
    {
      "inputs": [
        {
          "internalType": "address",
          "name": "caller",
          "type": "address"
        }
      ],
      "name": "CallerIsNotGovernor",
      "type": "error"
    },
    {
      "inputs": [
        {
          "internalType": "address",
          "name": "caller",
          "type": "address"
        }
      ],
      "name": "CallerIsNotGuardian",
      "type": "error"
    },
    {
      "inputs": [
        {
          "internalType": "address",
          "name": "caller",
          "type": "address"
        }
      ],
      "name": "CallerIsNotGuardianOrGovernor",
      "type": "error"
    },
    {
      "inputs": [
        {
          "internalType": "address",
          "name": "caller",
          "type": "address"
        }
      ],
      "name": "CallerIsNotKeeper",
      "type": "error"
    },
    {
      "inputs": [
        {
          "internalType": "address",
          "name": "caller",
          "type": "address"
        }
      ],
      "name": "CallerIsNotRaft",
      "type": "error"
    },
    {
      "inputs": [
        {
          "internalType": "address",
          "name": "caller",
          "type": "address"
        }
      ],
      "name": "CallerIsNotRaftOrCommander",
      "type": "error"
    },
    {
      "inputs": [
        {
          "internalType": "address",
          "name": "caller",
          "type": "address"
        }
      ],
      "name": "CallerIsNotSuperKeeper",
      "type": "error"
    },
    {
      "inputs": [],
      "name": "CannotAddCommanderToArkWithCommander",
      "type": "error"
    },
    {
      "inputs": [],
      "name": "CannotDeployArkWithEmptyName",
      "type": "error"
    },
    {
      "inputs": [],
      "name": "CannotDeployArkWithoutConfigurationManager",
      "type": "error"
    },
    {
      "inputs": [],
      "name": "CannotDeployArkWithoutRaft",
      "type": "error"
    },
    {
      "inputs": [],
      "name": "CannotDeployArkWithoutToken",
      "type": "error"
    },
    {
      "inputs": [],
      "name": "CannotRemoveCommanderFromArkWithAssets",
      "type": "error"
    },
    {
      "inputs": [],
      "name": "CannotUseKeeperDataWhenNotRequired",
      "type": "error"
    },
    {
      "inputs": [],
      "name": "ConfigurationManagerZeroAddress",
      "type": "error"
    },
    {
      "inputs": [
        {
          "internalType": "address",
          "name": "caller",
          "type": "address"
        }
      ],
      "name": "DirectGrantIsDisabled",
      "type": "error"
    },
    {
      "inputs": [
        {
          "internalType": "address",
          "name": "caller",
          "type": "address"
        }
      ],
      "name": "DirectRevokeIsDisabled",
      "type": "error"
    },
    {
      "inputs": [],
      "name": "ERC4626AssetMismatch",
      "type": "error"
    },
    {
      "inputs": [
        {
          "internalType": "address",
          "name": "invalidAddress",
          "type": "address"
        }
      ],
      "name": "InvalidAccessManagerAddress",
      "type": "error"
    },
    {
      "inputs": [],
      "name": "InvalidBoardData",
      "type": "error"
    },
    {
      "inputs": [],
      "name": "InvalidDisembarkData",
      "type": "error"
    },
    {
      "inputs": [],
      "name": "InvalidVaultAddress",
      "type": "error"
    },
    {
      "inputs": [],
      "name": "KeeperDataRequired",
      "type": "error"
    },
    {
      "inputs": [
        {
          "internalType": "address",
          "name": "token",
          "type": "address"
        }
      ],
      "name": "SafeERC20FailedOperation",
      "type": "error"
    },
    {
      "anonymous": false,
      "inputs": [
        {
          "indexed": true,
          "internalType": "address[]",
          "name": "rewardTokens",
          "type": "address[]"
        },
        {
          "indexed": true,
          "internalType": "uint256[]",
          "name": "rewardAmounts",
          "type": "uint256[]"
        }
      ],
      "name": "ArkHarvested",
      "type": "event"
    },
    {
      "anonymous": false,
      "inputs": [
        {
          "indexed": false,
          "internalType": "uint256",
          "name": "currentPrice",
          "type": "uint256"
        },
        {
          "indexed": false,
          "internalType": "uint256",
          "name": "timestamp",
          "type": "uint256"
        }
      ],
      "name": "ArkPoked",
      "type": "event"
    },
    {
      "anonymous": false,
      "inputs": [
        {
          "indexed": true,
          "internalType": "address[]",
          "name": "sweptTokens",
          "type": "address[]"
        },
        {
          "indexed": true,
          "internalType": "uint256[]",
          "name": "sweptAmounts",
          "type": "uint256[]"
        }
      ],
      "name": "ArkSwept",
      "type": "event"
    },
    {
      "anonymous": false,
      "inputs": [
        {
          "indexed": true,
          "internalType": "address",
          "name": "commander",
          "type": "address"
        },
        {
          "indexed": false,
          "internalType": "address",
          "name": "token",
          "type": "address"
        },
        {
          "indexed": false,
          "internalType": "uint256",
          "name": "amount",
          "type": "uint256"
        }
      ],
      "name": "Boarded",
      "type": "event"
    },
    {
      "anonymous": false,
      "inputs": [
        {
          "indexed": false,
          "internalType": "uint256",
          "name": "newCap",
          "type": "uint256"
        }
      ],
      "name": "DepositCapUpdated",
      "type": "event"
    },
    {
      "anonymous": false,
      "inputs": [
        {
          "indexed": true,
          "internalType": "address",
          "name": "commander",
          "type": "address"
        },
        {
          "indexed": false,
          "internalType": "address",
          "name": "token",
          "type": "address"
        },
        {
          "indexed": false,
          "internalType": "uint256",
          "name": "amount",
          "type": "uint256"
        }
      ],
      "name": "Disembarked",
      "type": "event"
    },
    {
      "anonymous": false,
      "inputs": [
        {
          "indexed": false,
          "internalType": "address",
          "name": "commander",
          "type": "address"
        }
      ],
      "name": "FleetCommanderRegistered",
      "type": "event"
    },
    {
      "anonymous": false,
      "inputs": [
        {
          "indexed": false,
          "internalType": "address",
          "name": "commander",
          "type": "address"
        }
      ],
      "name": "FleetCommanderUnregistered",
      "type": "event"
    },
    {
      "anonymous": false,
      "inputs": [
        {
          "indexed": false,
          "internalType": "uint256",
          "name": "newMaxInflow",
          "type": "uint256"
        }
      ],
      "name": "MaxRebalanceInflowUpdated",
      "type": "event"
    },
    {
      "anonymous": false,
      "inputs": [
        {
          "indexed": false,
          "internalType": "uint256",
          "name": "newMaxOutflow",
          "type": "uint256"
        }
      ],
      "name": "MaxRebalanceOutflowUpdated",
      "type": "event"
    },
    {
      "anonymous": false,
      "inputs": [
        {
          "indexed": true,
          "internalType": "address",
          "name": "from",
          "type": "address"
        },
        {
          "indexed": true,
          "internalType": "address",
          "name": "to",
          "type": "address"
        },
        {
          "indexed": false,
          "internalType": "address",
          "name": "token",
          "type": "address"
        },
        {
          "indexed": false,
          "internalType": "uint256",
          "name": "amount",
          "type": "uint256"
        }
      ],
      "name": "Moved",
      "type": "event"
    },
    {
      "anonymous": false,
      "inputs": [
        {
          "indexed": false,
          "internalType": "address",
          "name": "newRaft",
          "type": "address"
        }
      ],
      "name": "RaftUpdated",
      "type": "event"
    },
    {
      "inputs": [
        {
          "internalType": "uint256",
          "name": "amount",
          "type": "uint256"
        },
        {
          "internalType": "bytes",
          "name": "boardData",
          "type": "bytes"
        }
      ],
      "name": "board",
      "outputs": [],
      "stateMutability": "nonpayable",
      "type": "function"
    },
    {
      "inputs": [],
      "name": "comet",
      "outputs": [
        {
          "internalType": "contract IComet",
          "name": "",
          "type": "address"
        }
      ],
      "stateMutability": "view",
      "type": "function"
    },
    {
      "inputs": [],
      "name": "cometRewards",
      "outputs": [
        {
          "internalType": "contract ICometRewards",
          "name": "",
          "type": "address"
        }
      ],
      "stateMutability": "view",
      "type": "function"
    },
    {
      "inputs": [],
      "name": "commander",
      "outputs": [
        {
          "internalType": "address",
          "name": "",
          "type": "address"
        }
      ],
      "stateMutability": "view",
      "type": "function"
    },
    {
      "inputs": [],
      "name": "config",
      "outputs": [
        {
          "internalType": "address",
          "name": "commander",
          "type": "address"
        },
        {
          "internalType": "address",
          "name": "raft",
          "type": "address"
        },
        {
          "internalType": "contract IERC20",
          "name": "token",
          "type": "address"
        },
        {
          "internalType": "uint256",
          "name": "depositCap",
          "type": "uint256"
        },
        {
          "internalType": "uint256",
          "name": "maxRebalanceOutflow",
          "type": "uint256"
        },
        {
          "internalType": "uint256",
          "name": "maxRebalanceInflow",
          "type": "uint256"
        },
        {
          "internalType": "string",
          "name": "name",
          "type": "string"
        },
        {
          "internalType": "bool",
          "name": "requiresKeeperData",
          "type": "bool"
        }
      ],
      "stateMutability": "view",
      "type": "function"
    },
    {
      "inputs": [],
      "name": "configurationManager",
      "outputs": [
        {
          "internalType": "contract IConfigurationManager",
          "name": "",
          "type": "address"
        }
      ],
      "stateMutability": "view",
      "type": "function"
    },
    {
      "inputs": [],
      "name": "depositCap",
      "outputs": [
        {
          "internalType": "uint256",
          "name": "",
          "type": "uint256"
        }
      ],
      "stateMutability": "view",
      "type": "function"
    },
    {
      "inputs": [
        {
          "internalType": "uint256",
          "name": "amount",
          "type": "uint256"
        },
        {
          "internalType": "bytes",
          "name": "disembarkData",
          "type": "bytes"
        }
      ],
      "name": "disembark",
      "outputs": [],
      "stateMutability": "nonpayable",
      "type": "function"
    },
    {
      "inputs": [
        {
          "internalType": "enum ContractSpecificRoles",
          "name": "roleName",
          "type": "uint8"
        },
        {
          "internalType": "address",
          "name": "roleTargetContract",
          "type": "address"
        }
      ],
      "name": "generateRole",
      "outputs": [
        {
          "internalType": "bytes32",
          "name": "",
          "type": "bytes32"
        }
      ],
      "stateMutability": "pure",
      "type": "function"
    },
    {
      "inputs": [],
      "name": "getConfig",
      "outputs": [
        {
          "components": [
            {
              "internalType": "address",
              "name": "commander",
              "type": "address"
            },
            {
              "internalType": "address",
              "name": "raft",
              "type": "address"
            },
            {
              "internalType": "contract IERC20",
              "name": "token",
              "type": "address"
            },
            {
              "internalType": "uint256",
              "name": "depositCap",
              "type": "uint256"
            },
            {
              "internalType": "uint256",
              "name": "maxRebalanceOutflow",
              "type": "uint256"
            },
            {
              "internalType": "uint256",
              "name": "maxRebalanceInflow",
              "type": "uint256"
            },
            {
              "internalType": "string",
              "name": "name",
              "type": "string"
            },
            {
              "internalType": "bool",
              "name": "requiresKeeperData",
              "type": "bool"
            }
          ],
          "internalType": "struct ArkConfig",
          "name": "",
          "type": "tuple"
        }
      ],
      "stateMutability": "view",
      "type": "function"
    },
    {
      "inputs": [],
      "name": "harborCommand",
      "outputs": [
        {
          "internalType": "address",
          "name": "",
          "type": "address"
        }
      ],
      "stateMutability": "view",
      "type": "function"
    },
    {
      "inputs": [
        {
          "internalType": "bytes",
          "name": "additionalData",
          "type": "bytes"
        }
      ],
      "name": "harvest",
      "outputs": [
        {
          "internalType": "address[]",
          "name": "rewardTokens",
          "type": "address[]"
        },
        {
          "internalType": "uint256[]",
          "name": "rewardAmounts",
          "type": "uint256[]"
        }
      ],
      "stateMutability": "nonpayable",
      "type": "function"
    },
    {
      "inputs": [],
      "name": "maxRebalanceInflow",
      "outputs": [
        {
          "internalType": "uint256",
          "name": "",
          "type": "uint256"
        }
      ],
      "stateMutability": "view",
      "type": "function"
    },
    {
      "inputs": [],
      "name": "maxRebalanceOutflow",
      "outputs": [
        {
          "internalType": "uint256",
          "name": "",
          "type": "uint256"
        }
      ],
      "stateMutability": "view",
      "type": "function"
    },
    {
      "inputs": [
        {
          "internalType": "uint256",
          "name": "amount",
          "type": "uint256"
        },
        {
          "internalType": "address",
          "name": "receiverArk",
          "type": "address"
        },
        {
          "internalType": "bytes",
          "name": "boardData",
          "type": "bytes"
        },
        {
          "internalType": "bytes",
          "name": "disembarkData",
          "type": "bytes"
        }
      ],
      "name": "move",
      "outputs": [],
      "stateMutability": "nonpayable",
      "type": "function"
    },
    {
      "inputs": [],
      "name": "name",
      "outputs": [
        {
          "internalType": "string",
          "name": "",
          "type": "string"
        }
      ],
      "stateMutability": "view",
      "type": "function"
    },
    {
      "inputs": [],
      "name": "raft",
      "outputs": [
        {
          "internalType": "address",
          "name": "",
          "type": "address"
        }
      ],
      "stateMutability": "view",
      "type": "function"
    },
    {
      "inputs": [],
      "name": "registerFleetCommander",
      "outputs": [],
      "stateMutability": "nonpayable",
      "type": "function"
    },
    {
      "inputs": [],
      "name": "requiresKeeperData",
      "outputs": [
        {
          "internalType": "bool",
          "name": "",
          "type": "bool"
        }
      ],
      "stateMutability": "view",
      "type": "function"
    },
    {
      "inputs": [
        {
          "internalType": "uint256",
          "name": "newDepositCap",
          "type": "uint256"
        }
      ],
      "name": "setDepositCap",
      "outputs": [],
      "stateMutability": "nonpayable",
      "type": "function"
    },
    {
      "inputs": [
        {
          "internalType": "uint256",
          "name": "newMaxRebalanceInflow",
          "type": "uint256"
        }
      ],
      "name": "setMaxRebalanceInflow",
      "outputs": [],
      "stateMutability": "nonpayable",
      "type": "function"
    },
    {
      "inputs": [
        {
          "internalType": "uint256",
          "name": "newMaxRebalanceOutflow",
          "type": "uint256"
        }
      ],
      "name": "setMaxRebalanceOutflow",
      "outputs": [],
      "stateMutability": "nonpayable",
      "type": "function"
    },
    {
      "inputs": [
        {
          "internalType": "address[]",
          "name": "tokens",
          "type": "address[]"
        }
      ],
      "name": "sweep",
      "outputs": [
        {
          "internalType": "address[]",
          "name": "sweptTokens",
          "type": "address[]"
        },
        {
          "internalType": "uint256[]",
          "name": "sweptAmounts",
          "type": "uint256[]"
        }
      ],
      "stateMutability": "nonpayable",
      "type": "function"
    },
    {
      "inputs": [],
      "name": "tipJar",
      "outputs": [
        {
          "internalType": "address",
          "name": "",
          "type": "address"
        }
      ],
      "stateMutability": "view",
      "type": "function"
    },
    {
      "inputs": [],
      "name": "token",
      "outputs": [
        {
          "internalType": "contract IERC20",
          "name": "",
          "type": "address"
        }
      ],
      "stateMutability": "view",
      "type": "function"
    },
    {
      "inputs": [],
      "name": "totalAssets",
      "outputs": [
        {
          "internalType": "uint256",
          "name": "suppliedAssets",
          "type": "uint256"
        }
      ],
      "stateMutability": "view",
      "type": "function"
    },
    {
      "inputs": [],
      "name": "treasury",
      "outputs": [
        {
          "internalType": "address",
          "name": "",
          "type": "address"
        }
      ],
      "stateMutability": "view",
      "type": "function"
    },
    {
      "inputs": [],
      "name": "unregisterFleetCommander",
      "outputs": [],
      "stateMutability": "nonpayable",
      "type": "function"
    }
  ],
  "bytecode": "0x60a080604052346104f5576121eb803803809161001c828561053b565b83398101906060818303126104f5576100348161055e565b6100406020830161055e565b604083015190926001600160401b0382116104f5570192610100848203126104f5576040519061006f8261051f565b84516001600160401b0381116104f557850181601f820112156104f5578051906001600160401b03821161045257604051926100b5601f8401601f19166020018561053b565b828452602083830101116104f557815f9260208093018386015e8301015281526100e16020850161055e565b908160208201526100f46040860161055e565b9460408201928684526101096060830161055e565b606084019081526080830151946080850195865260a08401519260a0860193845261014260e060c08701519660c0890197885201610572565b60e08701908152996001600160a01b039081169116801561050c576040516301ffc9a760e01b815263a237592160e01b6004820152602081602481855afa908115610501575f916104c3575b50156104b1575f80546001600160a01b03191691909117905580156104a257608052516001600160a01b0316156104935780516001600160a01b0316156104845783515115610475576001600160a01b036101e761057f565b161561046657516001600160a01b03166101ff61057f565b9451915192519351975115159460e06040519161021b8361051f565b5f83526001600160a01b03166020830181905260408301849052606083018590526080830186905260a0830187905260c083018b90529101958652600180546001600160a01b031990811690915560028054821690921790915560038054909116909117905560045560055560065583516001600160401b03811161045257600754600181811c91168015610448575b602082101461043457601f81116103d1575b50602094601f821160011461036e579481929394955f92610363575b50508160011b915f199060031b1c1916176007555b51151560ff80196008541691161760085560018060a01b031660018060a01b0319600954161760095560018060a01b031660018060a01b0319600a541617600a55604051611bfe90816105ed82396080518181816104ef01528181610a1f01528181611077015281816110e901526118fd0152f35b015190505f806102d9565b601f1982169560075f52805f20915f5b8881106103b9575083600195969798106103a1575b505050811b016007556102ee565b01515f1960f88460031b161c191690555f8080610393565b9192602060018192868501518155019401920161037e565b60075f527fa66cc928b5edb82af9bd49922954155ab7b0942694bea4ce44661d9a8736c688601f830160051c8101916020841061042a575b601f0160051c01905b81811061041f57506102bd565b5f8155600101610412565b9091508190610409565b634e487b7160e01b5f52602260045260245ffd5b90607f16906102ab565b634e487b7160e01b5f52604160045260245ffd5b633a4f9cdb60e21b5f5260045ffd5b63268c072960e01b5f5260045ffd5b637ff57ef160e11b5f5260045ffd5b63b53c493160e01b5f5260045ffd5b63f1634df960e01b5f5260045ffd5b6347bd7c1d60e01b5f5260045260245ffd5b90506020813d6020116104f9575b816104de6020938361053b565b810103126104f5576104ef90610572565b5f61018e565b5f80fd5b3d91506104d1565b6040513d5f823e3d90fd5b6347bd7c1d60e01b5f525f60045260245ffd5b61010081019081106001600160401b0382111761045257604052565b601f909101601f19168101906001600160401b0382119082101761045257604052565b51906001600160a01b03821682036104f557565b519081151582036104f557565b608051604051628bec5760e51b815290602090829060049082906001600160a01b03165afa908115610501575f916105b5575090565b90506020813d6020116105e4575b816105d06020938361053b565b810103126104f5576105e19061055e565b90565b3d91506105c356fe6080806040526004361015610012575f80fd5b5f905f3560e01c90816301e1d114146115cf5750806306fdde03146115a0578063117d8ae01461157457806313c408f8146114615780632db6d399146111c8578063303dbaf3146111a55780633194549e14611187578063323159721461115e57806337270936146111355780635b0f83f3146110c357806361d027b31461105157806361f5cd8b14610ffd57806369b3054b14610f98578063780469bb14610b1457806379502c5514610a895780637aaceb95146109f957806386651203146109a55780638a8b99761461094657806392f5e832146108df578063ad5a356f146108c1578063ba3e9c1214610898578063c38a6f0b1461064d578063c3f909d41461051e578063c9c667e3146104d9578063ce5c7f611461020b578063dbd5edc7146101ed578063ebf311311461017d5763fc0c546a14610152575f80fd5b3461017a578060031936011261017a576003546040516001600160a01b039091168152602090f35b80fd5b503461017a578060031936011261017a57610196611a50565b156101da576001600160601b0360a01b600154166001557f7cb941d7b1708e5b3bcd35ca960d6c6311188cec18886e5b67630552676b04876020604051338152a180f35b631564c0e160e11b815233600452602490fd5b503461017a578060031936011261017a576020600454604051908152f35b503461017a57602036600319011261017a5760043567ffffffffffffffff81116104d55761023d903690600401611676565b604051628bec5760e51b8152919291602081600481305afa9081156104ca57839161049b575b506001600160a01b031633036104885760408051906102828183611733565b60018252602085601f198301948536848701378351956102a28588611733565b6001875236848801378101031261046c578051946020860186811067ffffffffffffffff8211176104745782526102d8906116ee565b8086526001600160a01b03166102ed8361199e565b52600a546009546001600160a01b039182169116813b156104705785916064839285519485938492635b81a7bf60e11b84526004840152306024840152600160448401525af1801561044d57610457575b50845181516370a0823160e01b81523060048201529590602090879060249082906001600160a01b03165afa95861561044d57859661040b575b50906103d18493927f3e3e7958121b3e39c7a49392d1aa9cdce870c2a059744f9e15cf66fff7865455976103ae6104079761199e565b52516001600160a01b03166103c16118e9565b6103ca8661199e565b5191611b34565b6103da826119d3565b6103e384611a16565b90878780a36103f1826119d3565b6103fa84611a16565b915196868897a38361176d565b0390f35b95509291906020863d602011610445575b8161042960209383611733565b810103126104415794519491929091906103d1610378565b5f80fd5b3d915061041c565b82513d87823e3d90fd5b610462858092611733565b61046c575f61033e565b8380fd5b8580fd5b634e487b7160e01b86526041600452602486fd5b631184b31b60e21b825233600452602482fd5b6104bd915060203d6020116104c3575b6104b58183611733565b8101906118ca565b5f610263565b503d6104ab565b6040513d85823e3d90fd5b5080fd5b503461017a578060031936011261017a576040517f00000000000000000000000000000000000000000000000000000000000000006001600160a01b03168152602090f35b503461017a578060031936011261017a5760e060405161053d81611702565b8281528260208201528260408201528260608201528260808201528260a0820152606060c0820152015260405161057381611702565b6001546001600160a01b03908116825260025481166020830190815260035490911660408301908152600454606084019081526005546080850190815260065460a0860190815293949361063f92916105ca6117e8565b9260c0870193845260ff600854169560e08801961515875260405198899860208a5260018060a01b0390511660208a015260018060a01b03905116604089015260018060a01b0390511660608801525160808701525160a08601525160c08501525161010060e0850152610120840190611652565b905115156101008301520390f35b503461017a57608036600319011261017a5760043561066a6116d8565b9060443567ffffffffffffffff811161046c5761068b903690600401611676565b909260643567ffffffffffffffff8111610470576106ad903690600401611676565b906106b6611a50565b1561088557869392916106c891611ae3565b6009546003546001600160a01b039081169116803b156108815760405163f3fef3a360e01b81526001600160a01b039290921660048301526024820186905284908290604490829084905af190811561086157849161086c575b505060035460405163095ea7b360e01b81526001600160a01b038381166004830152602482018790529091602091839160449183918991165af1801561086157610834575b506001600160a01b031693843b156108255781606484926040519485938492632db6d39960e01b845289600485015260406024850152816044850152848401378181018301859052601f01601f1916810103018183885af1801561082957610810575b5050600354604080516001600160a01b039092168252602082019290925230917f9f784fc02a186f1c98b2d9f15fda084da27cdd291a3785d978f91911d880516b91a380f35b8161081a91611733565b61082557825f6107ca565b8280fd5b6040513d84823e3d90fd5b6108559060203d60201161085a575b61084d8183611733565b810190611954565b610767565b503d610843565b6040513d86823e3d90fd5b8161087691611733565b61082557825f610722565b8480fd5b631564c0e160e11b875233600452602487fd5b503461017a578060031936011261017a576009546040516001600160a01b039091168152602090f35b503461017a578060031936011261017a576020600654604051908152f35b503461017a57602036600319011261017a576004356108fc611a50565b15610933576020817fb6ac66853c4e59c71e118d25ab494bb847c4e5eb0c8894898c5343e6f61afc1292600655604051908152a180f35b631564c0e160e11b825233600452602482fd5b503461017a578060031936011261017a5761095f611a50565b156101da57336001600160601b0360a01b60015416176001557f55489ce0259bd691120d8860861be1c401c7c16a3cd268d21045756af4ecc5ca6020604051338152a180f35b503461017a57602036600319011261017a576004356109c2611a50565b15610933576020817f333b26cca69716ad4680ddb07663f5bfb4f06045671f336af9a83690a3ae00f992600455604051908152a180f35b503461017a578060031936011261017a57604051637aaceb9560e01b81526020816004817f00000000000000000000000000000000000000000000000000000000000000006001600160a01b03165afa9081156108295760209291610a6c575b506040516001600160a01b039091168152f35b610a839150823d84116104c3576104b58183611733565b5f610a59565b503461017a578060031936011261017a576001546002546003546004546005546006546001600160a01b039485169585169490931692610b089291610acc6117e8565b9260ff60085416956040519889988952602089015260408801526060870152608086015260a085015261010060c0850152610100840190611652565b90151560e08301520390f35b503461017a57602036600319011261017a576004359067ffffffffffffffff821161017a573660238301121561017a57816004013591610b5383611755565b92610b616040519485611733565b8084526024602085019160051b8301019136831161046c57602401905b828210610f80575050604051628bec5760e51b81529050602081600481305afa908115610829578291610f61575b506001600160a01b03163303610f4e57610bc6825161196c565b610bd0835161196c565b9260018060a01b03600354166040516370a0823160e01b8152306004820152602081602481855afa908115610d73578591610f1c575b50610dc6575b50825b8151811015610d7e5760249060206001600160a01b03610c2f83866119bf565b5116604051938480926370a0823160e01b82523060048301525afa918215610d73578592610d40575b5081610c69575b6001915001610c0f565b6001600160a01b03610c7b82856119bf565b5116916024610c886118e9565b9360206001600160a01b03610c9d86896119bf565b5116604051938480926370a0823160e01b82523060048301525afa918215610d35578892610d01575b5090600194610cd492611b34565b828060a01b03610ce483866119bf565b5116610cf083876119bf565b52610cfb82886119bf565b52610c5f565b91506020823d8211610d2d575b81610d1b60209383611733565b81010312610441579051906001610cc6565b3d9150610d0e565b6040513d8a823e3d90fd5b9091506020813d8211610d6b575b81610d5b60209383611733565b810103126104415751905f610c58565b3d9150610d4e565b6040513d87823e3d90fd5b7f46b8771620f6acf56cb03d3e835ea8024c7dcbcf05fcc3f6ade9e19d1a3e212b846104078786610dae816119d3565b610db783611a16565b9060405196868897a38361176d565b6001546040516330fe427560e21b815290608090829060049082906001600160a01b03165afa908115610d73578591610e82575b50516040516370a0823160e01b815230600482015291906001600160a01b0316602083602481855afa918215610e77578692610e41575b610e3b9350611b34565b5f610c0c565b91506020833d602011610e6f575b81610e5c60209383611733565b8101031261044157610e3b925191610e31565b3d9150610e4f565b6040513d88823e3d90fd5b90506080813d608011610f14575b81610e9d60809383611733565b8101031261088157604051906080820182811067ffffffffffffffff821117610f005760405280516001600160a01b0381168103610efc579060609183526020810151602084015260408101516040840152015160608201525f610dfa565b8680fd5b634e487b7160e01b87526041600452602487fd5b3d9150610e90565b90506020813d602011610f46575b81610f3760209383611733565b8101031261044157515f610c06565b3d9150610f2a565b631184b31b60e21b815233600452602490fd5b610f7a915060203d6020116104c3576104b58183611733565b5f610bac565b60208091610f8d846116ee565b815201910190610b7e565b503461017a57604036600319011261017a5760043560038110156104d557602091610fc16116d8565b9050604051908382019260f81b83526001600160601b03199060601b16602182015260158152610ff2603582611733565b519020604051908152f35b503461017a57602036600319011261017a5760043561101a611a50565b15610933576020817ffbe2d5c01ea8ba5596d6c4e6c82c6d4a0a0ee1128689993a4a5ba0169273d69f92600555604051908152a180f35b503461017a578060031936011261017a576040516361d027b360e01b81526020816004817f00000000000000000000000000000000000000000000000000000000000000006001600160a01b03165afa9081156108295760209291610a6c57506040516001600160a01b039091168152f35b503461017a578060031936011261017a57604051635b0f83f360e01b81526020816004817f00000000000000000000000000000000000000000000000000000000000000006001600160a01b03165afa9081156108295760209291610a6c57506040516001600160a01b039091168152f35b503461017a578060031936011261017a576001546040516001600160a01b039091168152602090f35b503461017a578060031936011261017a57600a546040516001600160a01b039091168152602090f35b503461017a578060031936011261017a576020600554604051908152f35b503461017a578060031936011261017a57602060ff600854166040519015158152f35b503461017a576111d7366116a4565b90604051631b93849b60e11b8152602081600481305afa908115610d73578591611442575b50611205611a50565b1561137b575b509061121691611ae3565b6003546040516323b872dd60e01b60208201523360248201523060448201526064808201849052815261125c916001600160a01b0316611257608483611733565b611b70565b60035460095460405163095ea7b360e01b81526001600160a01b0391821660048201526024810184905291602091839160449183918891165af180156104ca5761135e575b5060095460035483916001600160a01b039182169116803b1561082557604051631e573fb760e31b81526001600160a01b039290921660048301526024820184905282908290604490829084905af1801561082957611349575b5050600354604080516001600160a01b039092168252602082019290925233917fcbaa1442ac205415c9d69643e7b60ec73d1de35dbc807c21ec288c70ddc4207b9190819081015b0390a280f35b8161135391611733565b6104d557815f6112fb565b6113769060203d60201161085a5761084d8183611733565b6112a1565b604051628bec5760e51b8152602081600481305afa908115610e77578691611423575b506001600160a01b0316331461120b5760405163d25dd10160e01b815233600482015290602090829060249082906001600160a01b03165afa908115610d73578591611404575b50156113f1575f61120b565b638f7a567d60e01b845233600452602484fd5b61141d915060203d60201161085a5761084d8183611733565b5f6113e5565b61143c915060203d6020116104c3576104b58183611733565b5f61139e565b61145b915060203d6020116104c3576104b58183611733565b5f6111fc565b503461044157611470366116a4565b611478611a50565b156115615761148691611ae3565b6009546003546001600160a01b039081169116803b156104415760405163f3fef3a360e01b81526001600160a01b03929092166004830152602482018390525f908290604490829084905af1801561155657611541575b506003546114f790829033906001600160a01b0316611b34565b600354604080516001600160a01b039092168252602082019290925233917fd5e872c5ecfb1bb8820b2e6a20e31b883682282da886621541f71e31ec11947e919081908101611343565b61154e9192505f90611733565b5f905f6114dd565b6040513d5f823e3d90fd5b631564c0e160e11b5f523360045260245ffd5b34610441575f36600319011261044157602061158e6118e9565b6040516001600160a01b039091168152f35b34610441575f366003190112610441576104076115bb6117e8565b604051918291602083526020830190611652565b34610441575f366003190112610441576009546370a0823160e01b8252306004830152602090829060249082906001600160a01b03165afa8015611556575f9061161f575b602090604051908152f35b506020813d60201161164a575b8161163960209383611733565b810103126104415760209051611614565b3d915061162c565b805180835260209291819084018484015e5f828201840152601f01601f1916010190565b9181601f840112156104415782359167ffffffffffffffff8311610441576020838186019501011161044157565b90604060031983011261044157600435916024359067ffffffffffffffff8211610441576116d491600401611676565b9091565b602435906001600160a01b038216820361044157565b35906001600160a01b038216820361044157565b610100810190811067ffffffffffffffff82111761171f57604052565b634e487b7160e01b5f52604160045260245ffd5b90601f8019910116810190811067ffffffffffffffff82111761171f57604052565b67ffffffffffffffff811161171f5760051b60200190565b604081016040825282518091526020606083019301905f5b8181106117c9575050506020818303910152602080835192838152019201905f5b8181106117b35750505090565b82518452602093840193909201916001016117a6565b82516001600160a01b0316855260209485019490920191600101611785565b604051905f6007548060011c91600182169182156118c0575b6020841083146118ac57838652859290811561188d575060011461182e575b61182c92500383611733565b565b5060075f90815290917fa66cc928b5edb82af9bd49922954155ab7b0942694bea4ce44661d9a8736c6885b81831061187157505090602061182c92820101611820565b6020919350806001915483858901015201910190918492611859565b6020925061182c94915060ff191682840152151560051b820101611820565b634e487b7160e01b5f52602260045260245ffd5b92607f1692611801565b9081602091031261044157516001600160a01b03811681036104415790565b604051628bec5760e51b81526020816004817f00000000000000000000000000000000000000000000000000000000000000006001600160a01b03165afa908115611556575f91611938575090565b611951915060203d6020116104c3576104b58183611733565b90565b90816020910312610441575180151581036104415790565b9061197682611755565b6119836040519182611733565b8281528092611994601f1991611755565b0190602036910137565b8051156119ab5760200190565b634e487b7160e01b5f52603260045260245ffd5b80518210156119ab5760209160051b010190565b6040518091829160208251919201905f5b8181106119f45750505003902090565b82516001600160a01b03168452859450602093840193909201916001016119e4565b6040518091829160208251919201905f5b818110611a375750505003902090565b8251845285945060209384019390920191600101611a27565b5f54604051600160f91b60208083019182526bffffffffffffffffffffffff193060601b166021840152601583526001600160a01b039093169291611a96603582611733565b519020604460405180948193632474521560e21b835260048301523360248301525afa908115611556575f91611aca575090565b611951915060203d60201161085a5761084d8183611733565b5015801580611b27575b611b185780611b0c575b611afd57565b63332863a960e11b5f5260045ffd5b5060ff60085416611af7565b630cd0fdf960e01b5f5260045ffd5b5060ff6008541615611aed565b60405163a9059cbb60e01b60208201526001600160a01b0392909216602483015260448083019390935291815261182c91611257606483611733565b905f602091828151910182855af115611556575f513d611bbf57506001600160a01b0381163b155b611b9f5750565b635274afe760e01b5f9081526001600160a01b0391909116600452602490fd5b60011415611b9856fea2646970667358221220485c8347848cc7f635a6f3cb021a2f5d88122fbf12eedda6d4b27576ad8e40af64736f6c634300081b0033",
  "linkReferences": {},
  "deployedLinkReferences": {}
}