{
  "_format": "hh-sol-artifact-1",
  "contractName": "CompoundV3Ark",
  "sourceName": "src/contracts/arks/CompoundV3Ark.sol",
  "abi": [
    {
      "inputs": [
        {
          "internalType": "address",
          "name": "_comet",
          "type": "address"
        },
        {
          "internalType": "address",
          "name": "_cometRewards",
          "type": "address"
        },
        {
          "components": [
            {
              "internalType": "string",
              "name": "name",
              "type": "string"
            },
            {
              "internalType": "string",
              "name": "details",
              "type": "string"
            },
            {
              "internalType": "address",
              "name": "accessManager",
              "type": "address"
            },
            {
              "internalType": "address",
              "name": "configurationManager",
              "type": "address"
            },
            {
              "internalType": "address",
              "name": "asset",
              "type": "address"
            },
            {
              "internalType": "uint256",
              "name": "depositCap",
              "type": "uint256"
            },
            {
              "internalType": "uint256",
              "name": "maxRebalanceOutflow",
              "type": "uint256"
            },
            {
              "internalType": "uint256",
              "name": "maxRebalanceInflow",
              "type": "uint256"
            },
            {
              "internalType": "bool",
              "name": "requiresKeeperData",
              "type": "bool"
            },
            {
              "internalType": "Percentage",
              "name": "maxDepositPercentageOfTVL",
              "type": "uint256"
            }
          ],
          "internalType": "struct ArkParams",
          "name": "_params",
          "type": "tuple"
        }
      ],
      "stateMutability": "nonpayable",
      "type": "constructor"
    },
    {
      "inputs": [
        {
          "internalType": "address",
          "name": "caller",
          "type": "address"
        }
      ],
      "name": "CallerIsNotAdmin",
      "type": "error"
    },
    {
      "inputs": [
        {
          "internalType": "address",
          "name": "caller",
          "type": "address"
        }
      ],
      "name": "CallerIsNotAuthorizedToBoard",
      "type": "error"
    },
    {
      "inputs": [
        {
          "internalType": "address",
          "name": "caller",
          "type": "address"
        }
      ],
      "name": "CallerIsNotCommander",
      "type": "error"
    },
    {
      "inputs": [
        {
          "internalType": "address",
          "name": "caller",
          "type": "address"
        },
        {
          "internalType": "bytes32",
          "name": "role",
          "type": "bytes32"
        }
      ],
      "name": "CallerIsNotContractSpecificRole",
      "type": "error"
    },
    {
      "inputs": [
        {
          "internalType": "address",
          "name": "caller",
          "type": "address"
        }
      ],
      "name": "CallerIsNotCurator",
      "type": "error"
    },
    {
      "inputs": [
        {
          "internalType": "address",
          "name": "caller",
          "type": "address"
        }
      ],
      "name": "CallerIsNotDecayController",
      "type": "error"
    },
    {
      "inputs": [
        {
          "internalType": "address",
          "name": "caller",
          "type": "address"
        }
      ],
      "name": "CallerIsNotGovernor",
      "type": "error"
    },
    {
      "inputs": [
        {
          "internalType": "address",
          "name": "caller",
          "type": "address"
        }
      ],
      "name": "CallerIsNotGuardian",
      "type": "error"
    },
    {
      "inputs": [
        {
          "internalType": "address",
          "name": "caller",
          "type": "address"
        }
      ],
      "name": "CallerIsNotGuardianOrGovernor",
      "type": "error"
    },
    {
      "inputs": [
        {
          "internalType": "address",
          "name": "caller",
          "type": "address"
        }
      ],
      "name": "CallerIsNotKeeper",
      "type": "error"
    },
    {
      "inputs": [
        {
          "internalType": "address",
          "name": "caller",
          "type": "address"
        }
      ],
      "name": "CallerIsNotRaft",
      "type": "error"
    },
    {
      "inputs": [
        {
          "internalType": "address",
          "name": "caller",
          "type": "address"
        }
      ],
      "name": "CallerIsNotRaftOrCommander",
      "type": "error"
    },
    {
      "inputs": [
        {
          "internalType": "address",
          "name": "caller",
          "type": "address"
        }
      ],
      "name": "CallerIsNotSuperKeeper",
      "type": "error"
    },
    {
      "inputs": [],
      "name": "CannotAddCommanderToArkWithCommander",
      "type": "error"
    },
    {
      "inputs": [],
      "name": "CannotDeployArkWithEmptyName",
      "type": "error"
    },
    {
      "inputs": [],
      "name": "CannotDeployArkWithoutConfigurationManager",
      "type": "error"
    },
    {
      "inputs": [],
      "name": "CannotDeployArkWithoutRaft",
      "type": "error"
    },
    {
      "inputs": [],
      "name": "CannotDeployArkWithoutToken",
      "type": "error"
    },
    {
      "inputs": [],
      "name": "CannotRemoveCommanderFromArkWithAssets",
      "type": "error"
    },
    {
      "inputs": [],
      "name": "CannotUseKeeperDataWhenNotRequired",
      "type": "error"
    },
    {
      "inputs": [],
      "name": "ConfigurationManagerZeroAddress",
      "type": "error"
    },
    {
      "inputs": [
        {
          "internalType": "address",
          "name": "caller",
          "type": "address"
        }
      ],
      "name": "DirectGrantIsDisabled",
      "type": "error"
    },
    {
      "inputs": [
        {
          "internalType": "address",
          "name": "caller",
          "type": "address"
        }
      ],
      "name": "DirectRevokeIsDisabled",
      "type": "error"
    },
    {
      "inputs": [],
      "name": "ERC4626AssetMismatch",
      "type": "error"
    },
    {
      "inputs": [
        {
          "internalType": "address",
          "name": "invalidAddress",
          "type": "address"
        }
      ],
      "name": "InvalidAccessManagerAddress",
      "type": "error"
    },
    {
      "inputs": [],
      "name": "InvalidBoardData",
      "type": "error"
    },
    {
      "inputs": [],
      "name": "InvalidDisembarkData",
      "type": "error"
    },
    {
      "inputs": [],
      "name": "InvalidVaultAddress",
      "type": "error"
    },
    {
      "inputs": [],
      "name": "KeeperDataRequired",
      "type": "error"
    },
    {
      "inputs": [],
      "name": "ReentrancyGuardReentrantCall",
      "type": "error"
    },
    {
      "inputs": [
        {
          "internalType": "address",
          "name": "token",
          "type": "address"
        }
      ],
      "name": "SafeERC20FailedOperation",
      "type": "error"
    },
    {
      "anonymous": false,
      "inputs": [
        {
          "indexed": true,
          "internalType": "address[]",
          "name": "rewardTokens",
          "type": "address[]"
        },
        {
          "indexed": true,
          "internalType": "uint256[]",
          "name": "rewardAmounts",
          "type": "uint256[]"
        }
      ],
      "name": "ArkHarvested",
      "type": "event"
    },
    {
      "anonymous": false,
      "inputs": [
        {
          "indexed": false,
          "internalType": "uint256",
          "name": "currentPrice",
          "type": "uint256"
        },
        {
          "indexed": false,
          "internalType": "uint256",
          "name": "timestamp",
          "type": "uint256"
        }
      ],
      "name": "ArkPoked",
      "type": "event"
    },
    {
      "anonymous": false,
      "inputs": [
        {
          "indexed": true,
          "internalType": "address[]",
          "name": "sweptTokens",
          "type": "address[]"
        },
        {
          "indexed": true,
          "internalType": "uint256[]",
          "name": "sweptAmounts",
          "type": "uint256[]"
        }
      ],
      "name": "ArkSwept",
      "type": "event"
    },
    {
      "anonymous": false,
      "inputs": [
        {
          "indexed": true,
          "internalType": "address",
          "name": "commander",
          "type": "address"
        },
        {
          "indexed": false,
          "internalType": "address",
          "name": "token",
          "type": "address"
        },
        {
          "indexed": false,
          "internalType": "uint256",
          "name": "amount",
          "type": "uint256"
        }
      ],
      "name": "Boarded",
      "type": "event"
    },
    {
      "anonymous": false,
      "inputs": [
        {
          "indexed": false,
          "internalType": "uint256",
          "name": "newCap",
          "type": "uint256"
        }
      ],
      "name": "DepositCapUpdated",
      "type": "event"
    },
    {
      "anonymous": false,
      "inputs": [
        {
          "indexed": true,
          "internalType": "address",
          "name": "commander",
          "type": "address"
        },
        {
          "indexed": false,
          "internalType": "address",
          "name": "token",
          "type": "address"
        },
        {
          "indexed": false,
          "internalType": "uint256",
          "name": "amount",
          "type": "uint256"
        }
      ],
      "name": "Disembarked",
      "type": "event"
    },
    {
      "anonymous": false,
      "inputs": [
        {
          "indexed": false,
          "internalType": "address",
          "name": "commander",
          "type": "address"
        }
      ],
      "name": "FleetCommanderRegistered",
      "type": "event"
    },
    {
      "anonymous": false,
      "inputs": [
        {
          "indexed": false,
          "internalType": "address",
          "name": "commander",
          "type": "address"
        }
      ],
      "name": "FleetCommanderUnregistered",
      "type": "event"
    },
    {
      "anonymous": false,
      "inputs": [
        {
          "indexed": false,
          "internalType": "Percentage",
          "name": "newMaxDepositPercentageOfTVL",
          "type": "uint256"
        }
      ],
      "name": "MaxDepositPercentageOfTVLUpdated",
      "type": "event"
    },
    {
      "anonymous": false,
      "inputs": [
        {
          "indexed": false,
          "internalType": "uint256",
          "name": "newMaxInflow",
          "type": "uint256"
        }
      ],
      "name": "MaxRebalanceInflowUpdated",
      "type": "event"
    },
    {
      "anonymous": false,
      "inputs": [
        {
          "indexed": false,
          "internalType": "uint256",
          "name": "newMaxOutflow",
          "type": "uint256"
        }
      ],
      "name": "MaxRebalanceOutflowUpdated",
      "type": "event"
    },
    {
      "anonymous": false,
      "inputs": [
        {
          "indexed": true,
          "internalType": "address",
          "name": "from",
          "type": "address"
        },
        {
          "indexed": true,
          "internalType": "address",
          "name": "to",
          "type": "address"
        },
        {
          "indexed": false,
          "internalType": "address",
          "name": "token",
          "type": "address"
        },
        {
          "indexed": false,
          "internalType": "uint256",
          "name": "amount",
          "type": "uint256"
        }
      ],
      "name": "Moved",
      "type": "event"
    },
    {
      "anonymous": false,
      "inputs": [
        {
          "indexed": false,
          "internalType": "address",
          "name": "newRaft",
          "type": "address"
        }
      ],
      "name": "RaftUpdated",
      "type": "event"
    },
    {
      "inputs": [],
      "name": "asset",
      "outputs": [
        {
          "internalType": "contract IERC20",
          "name": "",
          "type": "address"
        }
      ],
      "stateMutability": "view",
      "type": "function"
    },
    {
      "inputs": [
        {
          "internalType": "uint256",
          "name": "amount",
          "type": "uint256"
        },
        {
          "internalType": "bytes",
          "name": "boardData",
          "type": "bytes"
        }
      ],
      "name": "board",
      "outputs": [],
      "stateMutability": "nonpayable",
      "type": "function"
    },
    {
      "inputs": [],
      "name": "comet",
      "outputs": [
        {
          "internalType": "contract IComet",
          "name": "",
          "type": "address"
        }
      ],
      "stateMutability": "view",
      "type": "function"
    },
    {
      "inputs": [],
      "name": "cometRewards",
      "outputs": [
        {
          "internalType": "contract ICometRewards",
          "name": "",
          "type": "address"
        }
      ],
      "stateMutability": "view",
      "type": "function"
    },
    {
      "inputs": [],
      "name": "commander",
      "outputs": [
        {
          "internalType": "address",
          "name": "",
          "type": "address"
        }
      ],
      "stateMutability": "view",
      "type": "function"
    },
    {
      "inputs": [],
      "name": "config",
      "outputs": [
        {
          "internalType": "address",
          "name": "commander",
          "type": "address"
        },
        {
          "internalType": "address",
          "name": "raft",
          "type": "address"
        },
        {
          "internalType": "contract IERC20",
          "name": "asset",
          "type": "address"
        },
        {
          "internalType": "uint256",
          "name": "depositCap",
          "type": "uint256"
        },
        {
          "internalType": "uint256",
          "name": "maxRebalanceOutflow",
          "type": "uint256"
        },
        {
          "internalType": "uint256",
          "name": "maxRebalanceInflow",
          "type": "uint256"
        },
        {
          "internalType": "string",
          "name": "name",
          "type": "string"
        },
        {
          "internalType": "string",
          "name": "details",
          "type": "string"
        },
        {
          "internalType": "bool",
          "name": "requiresKeeperData",
          "type": "bool"
        },
        {
          "internalType": "Percentage",
          "name": "maxDepositPercentageOfTVL",
          "type": "uint256"
        }
      ],
      "stateMutability": "view",
      "type": "function"
    },
    {
      "inputs": [],
      "name": "configurationManager",
      "outputs": [
        {
          "internalType": "contract IConfigurationManager",
          "name": "",
          "type": "address"
        }
      ],
      "stateMutability": "view",
      "type": "function"
    },
    {
      "inputs": [],
      "name": "depositCap",
      "outputs": [
        {
          "internalType": "uint256",
          "name": "",
          "type": "uint256"
        }
      ],
      "stateMutability": "view",
      "type": "function"
    },
    {
      "inputs": [
        {
          "internalType": "uint256",
          "name": "amount",
          "type": "uint256"
        },
        {
          "internalType": "bytes",
          "name": "disembarkData",
          "type": "bytes"
        }
      ],
      "name": "disembark",
      "outputs": [],
      "stateMutability": "nonpayable",
      "type": "function"
    },
    {
      "inputs": [],
      "name": "fleetCommanderRewardsManagerFactory",
      "outputs": [
        {
          "internalType": "address",
          "name": "",
          "type": "address"
        }
      ],
      "stateMutability": "view",
      "type": "function"
    },
    {
      "inputs": [
        {
          "internalType": "enum ContractSpecificRoles",
          "name": "roleName",
          "type": "uint8"
        },
        {
          "internalType": "address",
          "name": "roleTargetContract",
          "type": "address"
        }
      ],
      "name": "generateRole",
      "outputs": [
        {
          "internalType": "bytes32",
          "name": "",
          "type": "bytes32"
        }
      ],
      "stateMutability": "pure",
      "type": "function"
    },
    {
      "inputs": [],
      "name": "getConfig",
      "outputs": [
        {
          "components": [
            {
              "internalType": "address",
              "name": "commander",
              "type": "address"
            },
            {
              "internalType": "address",
              "name": "raft",
              "type": "address"
            },
            {
              "internalType": "contract IERC20",
              "name": "asset",
              "type": "address"
            },
            {
              "internalType": "uint256",
              "name": "depositCap",
              "type": "uint256"
            },
            {
              "internalType": "uint256",
              "name": "maxRebalanceOutflow",
              "type": "uint256"
            },
            {
              "internalType": "uint256",
              "name": "maxRebalanceInflow",
              "type": "uint256"
            },
            {
              "internalType": "string",
              "name": "name",
              "type": "string"
            },
            {
              "internalType": "string",
              "name": "details",
              "type": "string"
            },
            {
              "internalType": "bool",
              "name": "requiresKeeperData",
              "type": "bool"
            },
            {
              "internalType": "Percentage",
              "name": "maxDepositPercentageOfTVL",
              "type": "uint256"
            }
          ],
          "internalType": "struct ArkConfig",
          "name": "",
          "type": "tuple"
        }
      ],
      "stateMutability": "view",
      "type": "function"
    },
    {
      "inputs": [],
      "name": "harborCommand",
      "outputs": [
        {
          "internalType": "address",
          "name": "",
          "type": "address"
        }
      ],
      "stateMutability": "view",
      "type": "function"
    },
    {
      "inputs": [
        {
          "internalType": "bytes",
          "name": "additionalData",
          "type": "bytes"
        }
      ],
      "name": "harvest",
      "outputs": [
        {
          "internalType": "address[]",
          "name": "rewardTokens",
          "type": "address[]"
        },
        {
          "internalType": "uint256[]",
          "name": "rewardAmounts",
          "type": "uint256[]"
        }
      ],
      "stateMutability": "nonpayable",
      "type": "function"
    },
    {
      "inputs": [],
      "name": "maxDepositPercentageOfTVL",
      "outputs": [
        {
          "internalType": "Percentage",
          "name": "",
          "type": "uint256"
        }
      ],
      "stateMutability": "view",
      "type": "function"
    },
    {
      "inputs": [],
      "name": "maxRebalanceInflow",
      "outputs": [
        {
          "internalType": "uint256",
          "name": "",
          "type": "uint256"
        }
      ],
      "stateMutability": "view",
      "type": "function"
    },
    {
      "inputs": [],
      "name": "maxRebalanceOutflow",
      "outputs": [
        {
          "internalType": "uint256",
          "name": "",
          "type": "uint256"
        }
      ],
      "stateMutability": "view",
      "type": "function"
    },
    {
      "inputs": [
        {
          "internalType": "uint256",
          "name": "amount",
          "type": "uint256"
        },
        {
          "internalType": "address",
          "name": "receiverArk",
          "type": "address"
        },
        {
          "internalType": "bytes",
          "name": "boardData",
          "type": "bytes"
        },
        {
          "internalType": "bytes",
          "name": "disembarkData",
          "type": "bytes"
        }
      ],
      "name": "move",
      "outputs": [],
      "stateMutability": "nonpayable",
      "type": "function"
    },
    {
      "inputs": [],
      "name": "name",
      "outputs": [
        {
          "internalType": "string",
          "name": "",
          "type": "string"
        }
      ],
      "stateMutability": "view",
      "type": "function"
    },
    {
      "inputs": [],
      "name": "raft",
      "outputs": [
        {
          "internalType": "address",
          "name": "",
          "type": "address"
        }
      ],
      "stateMutability": "view",
      "type": "function"
    },
    {
      "inputs": [],
      "name": "registerFleetCommander",
      "outputs": [],
      "stateMutability": "nonpayable",
      "type": "function"
    },
    {
      "inputs": [],
      "name": "requiresKeeperData",
      "outputs": [
        {
          "internalType": "bool",
          "name": "",
          "type": "bool"
        }
      ],
      "stateMutability": "view",
      "type": "function"
    },
    {
      "inputs": [
        {
          "internalType": "uint256",
          "name": "newDepositCap",
          "type": "uint256"
        }
      ],
      "name": "setDepositCap",
      "outputs": [],
      "stateMutability": "nonpayable",
      "type": "function"
    },
    {
      "inputs": [
        {
          "internalType": "Percentage",
          "name": "newMaxDepositPercentageOfTVL",
          "type": "uint256"
        }
      ],
      "name": "setMaxDepositPercentageOfTVL",
      "outputs": [],
      "stateMutability": "nonpayable",
      "type": "function"
    },
    {
      "inputs": [
        {
          "internalType": "uint256",
          "name": "newMaxRebalanceInflow",
          "type": "uint256"
        }
      ],
      "name": "setMaxRebalanceInflow",
      "outputs": [],
      "stateMutability": "nonpayable",
      "type": "function"
    },
    {
      "inputs": [
        {
          "internalType": "uint256",
          "name": "newMaxRebalanceOutflow",
          "type": "uint256"
        }
      ],
      "name": "setMaxRebalanceOutflow",
      "outputs": [],
      "stateMutability": "nonpayable",
      "type": "function"
    },
    {
      "inputs": [
        {
          "internalType": "address[]",
          "name": "tokens",
          "type": "address[]"
        }
      ],
      "name": "sweep",
      "outputs": [
        {
          "internalType": "address[]",
          "name": "sweptTokens",
          "type": "address[]"
        },
        {
          "internalType": "uint256[]",
          "name": "sweptAmounts",
          "type": "uint256[]"
        }
      ],
      "stateMutability": "nonpayable",
      "type": "function"
    },
    {
      "inputs": [],
      "name": "tipJar",
      "outputs": [
        {
          "internalType": "address",
          "name": "",
          "type": "address"
        }
      ],
      "stateMutability": "view",
      "type": "function"
    },
    {
      "inputs": [],
      "name": "totalAssets",
      "outputs": [
        {
          "internalType": "uint256",
          "name": "suppliedAssets",
          "type": "uint256"
        }
      ],
      "stateMutability": "view",
      "type": "function"
    },
    {
      "inputs": [],
      "name": "treasury",
      "outputs": [
        {
          "internalType": "address",
          "name": "",
          "type": "address"
        }
      ],
      "stateMutability": "view",
      "type": "function"
    },
    {
      "inputs": [],
      "name": "unregisterFleetCommander",
      "outputs": [],
      "stateMutability": "nonpayable",
      "type": "function"
    }
  ],
  "bytecode": "0x60a0806040523461065d57612872803803809161001c82856106a3565b8339810160608282031261065d57610033826106c6565b90610040602084016106c6565b604084015190936001600160401b03821161065d5701906101408282031261065d576040519061006f82610687565b82516001600160401b03811161065d578161008b9185016106da565b82526020830151906001600160401b03821161065d576100ac9184016106da565b91602082019283526100c0604082016106c6565b928360408401526100d3606083016106c6565b9260608101948486526100e8608085016106c6565b956080830196875260a08501519660a0840197885260c08601519160c0850192835260e08701519360e086019485526101206101276101008a0161072f565b61010088019081529801516101208701908152986001600160a01b0390811691168015610674576040516301ffc9a760e01b8152639bd1803160e01b6004820152602081602481855afa908115610669575f9161062b575b5015610619575f80546001600160a01b031916919091179055801561060a57608052516001600160a01b0316156105fb5780516001600160a01b0316156105ec57835151156105dd576001600160a01b036101d861073c565b16156105ce57516001600160a01b03166101f061073c565b97519151925193519451955115159651976101206040519161021183610687565b5f83526001600160a01b03166020830181905260408301849052606083018590526080830186905260a0830187905260c0830188905260e083019889526101008301998a529101988952600180546001600160a01b03199081169091556002805482169092179091556003805490911690911790556004556005556006558051906001600160401b0382116104d15760075490600182811c921680156105c4575b60208310146104b35781601f849311610556575b50602090601f83116001146104f0575f926104e5575b50508160011b915f199060031b1c1916176007555b518051906001600160401b0382116104d15760085490600182811c921680156104c7575b60208310146104b35781601f849311610445575b50602090601f83116001146103df575f926103d4575b50508160011b915f199060031b1c1916176008555b51151560ff80196009541691161760095551600a5560018060a01b031660018060a01b0319600b541617600b5560018060a01b031660018060a01b0319600c541617600c556040516120c890816107aa8239608051818181610199015281816105ba01528181610b3e0152818161134f015281816113c10152611d430152f35b015190505f8061033f565b60085f9081528281209350601f198516905b81811061042d5750908460019594939210610415575b505050811b01600855610354565b01515f1960f88460031b161c191690555f8080610407565b929360206001819287860151815501950193016103f1565b60085f529091507ff3f7a9fe364faab93b216da50a3214154f22a0a2b415b23a84c8169e8b636ee3601f840160051c810191602085106104a9575b90601f859493920160051c01905b81811061049b5750610329565b5f815584935060010161048e565b9091508190610480565b634e487b7160e01b5f52602260045260245ffd5b91607f1691610315565b634e487b7160e01b5f52604160045260245ffd5b015190505f806102dc565b60075f9081528281209350601f198516905b81811061053e5750908460019594939210610526575b505050811b016007556102f1565b01515f1960f88460031b161c191690555f8080610518565b92936020600181928786015181550195019301610502565b60075f529091507fa66cc928b5edb82af9bd49922954155ab7b0942694bea4ce44661d9a8736c688601f840160051c810191602085106105ba575b90601f859493920160051c01905b8181106105ac57506102c6565b5f815584935060010161059f565b9091508190610591565b91607f16916102b2565b633a4f9cdb60e21b5f5260045ffd5b63268c072960e01b5f5260045ffd5b637ff57ef160e11b5f5260045ffd5b63b53c493160e01b5f5260045ffd5b63f1634df960e01b5f5260045ffd5b6347bd7c1d60e01b5f5260045260245ffd5b90506020813d602011610661575b81610646602093836106a3565b8101031261065d576106579061072f565b5f61017f565b5f80fd5b3d9150610639565b6040513d5f823e3d90fd5b6347bd7c1d60e01b5f525f60045260245ffd5b61014081019081106001600160401b038211176104d157604052565b601f909101601f19168101906001600160401b038211908210176104d157604052565b51906001600160a01b038216820361065d57565b81601f8201121561065d578051906001600160401b0382116104d1576040519261070e601f8401601f1916602001856106a3565b8284526020838301011161065d57815f9260208093018386015e8301015290565b5190811515820361065d57565b608051604051628bec5760e51b815290602090829060049082906001600160a01b03165afa908115610669575f91610772575090565b90506020813d6020116107a1575b8161078d602093836106a3565b8101031261065d5761079e906106c6565b90565b3d915061078056fe6080806040526004361015610012575f80fd5b5f905f3560e01c90816301e1d1141461195e5750806306fdde031461192f578063117d8ae01461190357806313c408f8146117fd5780632db6d3991461151c578063303dbaf3146114f95780633194549e146114db57806332315972146114b2578063372709361461148957806338d52e0f146114605780634fc7fac31461140c5780635b0f83f31461139a57806361d027b31461132857806361f5cd8b146112d457806369b3054b1461126a578063780469bb14610c3c57806379502c5514610b895780637aaceb9514610b175780638665120314610ac35780638a8b997614610a6757806392f5e83214610a00578063ad5a356f146109e2578063ba3e9c12146109b9578063bdcdd8821461099b578063c38a6f0b14610763578063c3f909d4146105e9578063c9c667e3146105a4578063ce5c7f61146102bf578063dbd5edc7146102a1578063ebf31131146102315763f7e533ec14610173575f80fd5b3461021a578060031936011261021a57604051633df94cfb60e21b8152906020826004817f00000000000000000000000000000000000000000000000000000000000000006001600160a01b03165afa9081156102255780916101e5575b6040516001600160a01b0383168152602090f35b90506020823d60201161021d575b8161020060209383611ada565b8101031261021a5750610214602091611d1b565b5f6101d1565b80fd5b3d91506101f3565b604051903d90823e3d90fd5b503461021a578060031936011261021a5761024a611ecc565b1561028e57600180546001600160a01b03191690556040513381527f7cb941d7b1708e5b3bcd35ca960d6c6311188cec18886e5b67630552676b048790602090a180f35b631564c0e160e11b815233600452602490fd5b503461021a578060031936011261021a576020600454604051908152f35b503461021a57602036600319011261021a576004356001600160401b0381116105a0576102f0903690600401611a05565b9190604051628bec5760e51b8152602081600481305afa908115610595578391610557575b506001600160a01b031633036105445761032d611f5f565b604092835161033c8582611ada565b60018152602083601f1987019384368486013787519461035c8987611ada565b6001865236848701378101031261053c5761038185519361037c85611a8f565b611a7b565b8084526001600160a01b031661039682611e1a565b52600c54600b546001600160a01b039182169116813b156105405785916064839289519485938492635b81a7bf60e11b84526004840152306024840152600160448401525af1801561051d57908591610527575b5050825185516370a0823160e01b815230600482015290602090829060249082906001600160a01b03165afa90811561051d5785916104e5575b506104e1936104599161043685611e1a565b52516001600160a01b0316610449611d2f565b61045285611e1a565b5191611fe5565b61046281611e4f565b61046b83611e92565b907f3e3e7958121b3e39c7a49392d1aa9cdce870c2a059744f9e15cf66fff78654558680a361049981611e4f565b936104a383611e92565b95519586957f3e3e7958121b3e39c7a49392d1aa9cdce870c2a059744f9e15cf66fff78654558380a35f5160206120735f395f51905f525d83611b12565b0390f35b90506020813d602011610515575b8161050060209383611ada565b8101031261051157516104e1610424565b5f80fd5b3d91506104f3565b86513d87823e3d90fd5b8161053191611ada565b61053c57835f6103ea565b8380fd5b8580fd5b631184b31b60e21b825233600452602482fd5b90506020813d60201161058d575b8161057260209383611ada565b810103126105895761058390611d1b565b5f610315565b8280fd5b3d9150610565565b6040513d85823e3d90fd5b5080fd5b503461021a578060031936011261021a576040517f00000000000000000000000000000000000000000000000000000000000000006001600160a01b03168152602090f35b503461021a578060031936011261021a5761012060405161060981611abe565b8281528260208201528260408201528260608201528260808201528260a0820152606060c0820152606060e082015282610100820152015260405161064d81611abe565b6001546001600160a01b03908116825260025481166020830190815260035490911660408301908152600454606084019081526005546080850190815260065460a0860190815293949391929161074e919061073a906106ab611b8d565b9060c088019182526106bb611c6f565b60e089810191825260095460ff1615156101008b01908152600a546101208c019081526040805160208082529d516001600160a01b039081169e82019e909e529d518d16908e01529851909a1660608c0152975160808b0152935160a08a01525160c089015251610140958801959095528695946101608701906119e1565b9051858203601f19016101008701526119e1565b91511515610120840152516101408301520390f35b503461021a57608036600319011261021a57600435610780611a65565b906044356001600160401b03811161053c576107a0903690600401611a05565b90926064356001600160401b038111610540576107c1903690600401611a05565b906107ca611ecc565b1561098857869392916107dc91611f94565b600b546003546001600160a01b039081169116803b156109845785859161081a938360405180968195829463f3fef3a360e01b845260048401611db5565b03925af190811561096457849161096f575b505060035460405163095ea7b360e01b81529060209082906001600160a01b031681878161085e8b8960048401611db5565b03925af1801561096457610937575b506001600160a01b031693843b156105895781606484926040519485938492632db6d39960e01b845289600485015260406024850152816044850152848401378181018301859052601f01601f1916810103018183885af1801561092c57610917575b505060035460405130927f9f784fc02a186f1c98b2d9f15fda084da27cdd291a3785d978f91911d880516b928291610911916001600160a01b031683611db5565b0390a380f35b8161092191611ada565b61058957825f6108d0565b6040513d84823e3d90fd5b6109589060203d60201161095d575b6109508183611ada565b810190611dd0565b61086d565b503d610946565b6040513d86823e3d90fd5b8161097991611ada565b61058957825f61082c565b8480fd5b631564c0e160e11b875233600452602487fd5b503461021a578060031936011261021a576020600a54604051908152f35b503461021a578060031936011261021a57600b546040516001600160a01b039091168152602090f35b503461021a578060031936011261021a576020600654604051908152f35b503461021a57602036600319011261021a57600435610a1d611ecc565b15610a54576020817fb6ac66853c4e59c71e118d25ab494bb847c4e5eb0c8894898c5343e6f61afc1292600655604051908152a180f35b631564c0e160e11b825233600452602482fd5b503461021a578060031936011261021a57610a80611ecc565b1561028e573360018060a01b031960015416176001557f55489ce0259bd691120d8860861be1c401c7c16a3cd268d21045756af4ecc5ca6020604051338152a180f35b503461021a57602036600319011261021a57600435610ae0611ecc565b15610a54576020817f333b26cca69716ad4680ddb07663f5bfb4f06045671f336af9a83690a3ae00f992600455604051908152a180f35b503461021a578060031936011261021a57604051637aaceb9560e01b8152906020826004817f00000000000000000000000000000000000000000000000000000000000000006001600160a01b03165afa9081156102255780916101e5576040516001600160a01b0383168152602090f35b503461021a578060031936011261021a576001546002546003546004546005546006546001600160a01b0394851695851694929390921691610c299190610c1b90610bd2611b8d565b90610bdb611c6f565b9360ff6009541697600a54976040519b8c9b8c5260208c015260408b015260608a0152608089015260a088015261014060c08801526101408701906119e1565b9085820360e08701526119e1565b9115156101008401526101208301520390f35b503461021a57602036600319011261021a576004356001600160401b0381116105a057366023820112156105a057806004013590610c7982611afb565b91610c876040519384611ada565b8083526024602084019160051b8301019136831161098457602401905b828210611252575050604051628bec5760e51b81529050602081600481305afa908115610595578391611218575b506001600160a01b0316330361054457610cea611f5f565b610cf48151611de8565b90610cff8151611de8565b6003546040516370a0823160e01b815230600482015291939185916001600160a01b031690602081602481855afa9081156105955783916111e3575b50610f0b575b505b8251811015610eb25760249060206001600160a01b03610d638387611e3b565b5116604051938480926370a0823160e01b82523060048301525afa918215610ea7578692610e74575b5081610d9d575b6001915001610d43565b6001600160a01b03610daf8286611e3b565b5116916024610dbc611d2f565b9360206001600160a01b03610dd1868a611e3b565b5116604051938480926370a0823160e01b82523060048301525afa918215610e69578992610e35575b5090600194610e0892611fe5565b828060a01b03610e188387611e3b565b5116610e248386611e3b565b52610e2f8287611e3b565b52610d93565b91506020823d8211610e61575b81610e4f60209383611ada565b81010312610511579051906001610dfa565b3d9150610e42565b6040513d8b823e3d90fd5b9091506020813d8211610e9f575b81610e8f60209383611ada565b810103126105115751905f610d8c565b3d9150610e82565b6040513d88823e3d90fd5b84826104e186610ec183611e4f565b92610ecb82611e92565b946040519586957f46b8771620f6acf56cb03d3e835ea8024c7dcbcf05fcc3f6ade9e19d1a3e212b8380a35f5160206120735f395f51905f525d83611b12565b6001546040516330fe427560e21b81529060a090829060049082906001600160a01b03165afa908115610595578391611136575b50516040516370a0823160e01b81523060048201526001600160a01b039091169190602081602481855afa908115610964578491611101575b5060208460405192610fad84610f9f8582019363095ea7b360e01b85528960248401611db5565b03601f198101865285611ada565b83519082865af184513d826110e5575b5050156110a1575b50506003546040516370a0823160e01b815230600482015290602090829060249082906001600160a01b03165afa90811561059557839161106c575b5060405161100e81611a8f565b838152823b1561053c5761104892849283604051809681958294632db6d39960e01b845260048401526040602484015260448301906119e1565b03925af1801561092c5715610d41578161106191611ada565b61053c57835f610d41565b9250506020823d602011611099575b8161108860209383611ada565b81010312610511578591515f611001565b3d915061107b565b6110de916110d960405163095ea7b360e01b6020820152856024820152866044820152604481526110d3606482611ada565b8261201a565b61201a565b5f80610fc5565b9091506110f95750813b15155b5f80610fbd565b6001146110f2565b9350506020833d60201161112e575b8161111d60209383611ada565b81010312610511578692515f610f78565b3d9150611110565b9192505060a0813d60a0116111db575b8161115360a09383611ada565b81010312610540576040519060a082018281106001600160401b038211176111c757604052805187939291906001600160a01b0381168103610984576111bc91608091845260208101516020850152604081015160408501526060810151606085015201611d1b565b60808201525f610f3f565b634e487b7160e01b88526041600452602488fd5b3d9150611146565b9250506020823d602011611210575b816111ff60209383611ada565b81010312610511578591515f610d3b565b3d91506111f2565b90506020813d60201161124a575b8161123360209383611ada565b810103126105895761124490611d1b565b5f610cd2565b3d9150611226565b6020809161125f84611a7b565b815201910190610ca4565b503461021a57604036600319011261021a5760043560038110156105a057602091611293611a65565b9050604051908382019260f81b83526bffffffffffffffffffffffff199060601b166021820152601581526112c9603582611ada565b519020604051908152f35b503461021a57602036600319011261021a576004356112f1611ecc565b15610a54576020817ffbe2d5c01ea8ba5596d6c4e6c82c6d4a0a0ee1128689993a4a5ba0169273d69f92600555604051908152a180f35b503461021a578060031936011261021a576040516361d027b360e01b8152906020826004817f00000000000000000000000000000000000000000000000000000000000000006001600160a01b03165afa9081156102255780916101e5576040516001600160a01b0383168152602090f35b503461021a578060031936011261021a57604051635b0f83f360e01b8152906020826004817f00000000000000000000000000000000000000000000000000000000000000006001600160a01b03165afa9081156102255780916101e5576040516001600160a01b0383168152602090f35b503461021a57602036600319011261021a57600435611429611ecc565b15610a54576020817fd3c6d0ab315f2f1352f036cd9f401b49e38e1b90907e195225e8105f9a0b6f0292600a55604051908152a180f35b503461021a578060031936011261021a576003546040516001600160a01b039091168152602090f35b503461021a578060031936011261021a576001546040516001600160a01b039091168152602090f35b503461021a578060031936011261021a57600c546040516001600160a01b039091168152602090f35b503461021a578060031936011261021a576020600554604051908152f35b503461021a578060031936011261021a57602060ff600954166040519015158152f35b503461021a5761152b36611a32565b90611534611f5f565b604051631b93849b60e11b8152602081600481305afa90811561177e5785916117c3575b50611561611ecc565b156116d6575b509061157291611f94565b6003546040516323b872dd60e01b6020820152336024820152306044820152606480820184905281526115b3916001600160a01b03166110d9608483611ada565b600354600b5460405163095ea7b360e01b81529160209183916001600160a01b03908116918391889183916115ee918a911660048401611db5565b03925af18015610595576116b9575b50600b5460035483916001600160a01b039182169116803b156105895783839161163e9383604051809681958294631e573fb760e31b845260048401611db5565b03925af1801561092c576116a4575b505060035460405133927fcbaa1442ac205415c9d69643e7b60ec73d1de35dbc807c21ec288c70ddc4207b92829161168e916001600160a01b031683611db5565b0390a2805f5160206120735f395f51905f525d80f35b816116ae91611ada565b6105a057815f61164d565b6116d19060203d60201161095d576109508183611ada565b6115fd565b604051628bec5760e51b8152602081600481305afa908115610ea7578691611789575b506001600160a01b031633146115675760405163d25dd10160e01b815233600482015290602090829060249082906001600160a01b03165afa90811561177e57859161175f575b501561174c575f611567565b638f7a567d60e01b845233600452602484fd5b611778915060203d60201161095d576109508183611ada565b5f611740565b6040513d87823e3d90fd5b90506020813d6020116117bb575b816117a460209383611ada565b81010312610540576117b590611d1b565b5f6116f9565b3d9150611797565b90506020813d6020116117f5575b816117de60209383611ada565b81010312610984576117ef90611d1b565b5f611558565b3d91506117d1565b50346105115761180c36611a32565b611814611ecc565b156118f05761182a91611825611f5f565b611f94565b600b546003546001600160a01b039081169116803b1561051157825f91611868938360405180968195829463f3fef3a360e01b845260048401611db5565b03925af180156118e5576118d0575b5060035461189190829033906001600160a01b0316611fe5565b60035460405133927fd5e872c5ecfb1bb8820b2e6a20e31b883682282da886621541f71e31ec11947e92829161168e916001600160a01b031683611db5565b6118dd9192505f90611ada565b5f905f611877565b6040513d5f823e3d90fd5b631564c0e160e11b5f523360045260245ffd5b34610511575f36600319011261051157602061191d611d2f565b6040516001600160a01b039091168152f35b34610511575f366003190112610511576104e161194a611b8d565b6040519182916020835260208301906119e1565b34610511575f36600319011261051157600b546370a0823160e01b8252306004830152602090829060249082906001600160a01b03165afa80156118e5575f906119ae575b602090604051908152f35b506020813d6020116119d9575b816119c860209383611ada565b8101031261051157602090516119a3565b3d91506119bb565b805180835260209291819084018484015e5f828201840152601f01601f1916010190565b9181601f84011215610511578235916001600160401b038311610511576020838186019501011161051157565b9060406003198301126105115760043591602435906001600160401b03821161051157611a6191600401611a05565b9091565b602435906001600160a01b038216820361051157565b35906001600160a01b038216820361051157565b602081019081106001600160401b03821117611aaa57604052565b634e487b7160e01b5f52604160045260245ffd5b61014081019081106001600160401b03821117611aaa57604052565b90601f801991011681019081106001600160401b03821117611aaa57604052565b6001600160401b038111611aaa5760051b60200190565b604081016040825282518091526020606083019301905f5b818110611b6e575050506020818303910152602080835192838152019201905f5b818110611b585750505090565b8251845260209384019390920191600101611b4b565b82516001600160a01b0316855260209485019490920191600101611b2a565b604051905f6007548060011c9160018216918215611c65575b602084108314611c51578386528592908115611c325750600114611bd3575b611bd192500383611ada565b565b5060075f90815290917fa66cc928b5edb82af9bd49922954155ab7b0942694bea4ce44661d9a8736c6885b818310611c16575050906020611bd192820101611bc5565b6020919350806001915483858901015201910190918492611bfe565b60209250611bd194915060ff191682840152151560051b820101611bc5565b634e487b7160e01b5f52602260045260245ffd5b92607f1692611ba6565b604051905f6008548060011c9160018216918215611d11575b602084108314611c51578386528592908115611c325750600114611cb257611bd192500383611ada565b5060085f90815290917ff3f7a9fe364faab93b216da50a3214154f22a0a2b415b23a84c8169e8b636ee35b818310611cf5575050906020611bd192820101611bc5565b6020919350806001915483858901015201910190918492611cdd565b92607f1692611c88565b51906001600160a01b038216820361051157565b604051628bec5760e51b81526020816004817f00000000000000000000000000000000000000000000000000000000000000006001600160a01b03165afa9081156118e5575f91611d7e575090565b90506020813d602011611dad575b81611d9960209383611ada565b8101031261051157611daa90611d1b565b90565b3d9150611d8c565b6001600160a01b039091168152602081019190915260400190565b90816020910312610511575180151581036105115790565b90611df282611afb565b611dff6040519182611ada565b8281528092611e10601f1991611afb565b0190602036910137565b805115611e275760200190565b634e487b7160e01b5f52603260045260245ffd5b8051821015611e275760209160051b010190565b6040518091829160208251919201905f5b818110611e705750505003902090565b82516001600160a01b0316845285945060209384019390920191600101611e60565b6040518091829160208251919201905f5b818110611eb35750505003902090565b8251845285945060209384019390920191600101611ea3565b5f54604051600160f91b60208083019182526bffffffffffffffffffffffff193060601b166021840152601583526001600160a01b039093169291611f12603582611ada565b519020604460405180948193632474521560e21b835260048301523360248301525afa9081156118e5575f91611f46575090565b611daa915060203d60201161095d576109508183611ada565b5f5160206120735f395f51905f525c611f855760015f5160206120735f395f51905f525d565b633ee5aeb560e01b5f5260045ffd5b5015801580611fd8575b611fc95780611fbd575b611fae57565b63332863a960e11b5f5260045ffd5b5060ff60095416611fa8565b630cd0fdf960e01b5f5260045ffd5b5060ff6009541615611f9e565b6110d9611bd1939261200c60405194859263a9059cbb60e01b602085015260248401611db5565b03601f198101845283611ada565b905f602091828151910182855af1156118e5575f513d61206957506001600160a01b0381163b155b6120495750565b635274afe760e01b5f9081526001600160a01b0391909116600452602490fd5b6001141561204256fe9b779b17422d0df92223018b32b4d1fa46e071723d6817e2486d003becc55f00a26469706673582212200750b21cfbf1e3da2c8d63ed6d70b0fcb0169fae9e931a63fddac3a403b80e1c64736f6c634300081c0033",
  "linkReferences": {},
  "deployedLinkReferences": {}
}