{
  "_format": "hh-sol-artifact-1",
  "contractName": "CompoundV3Ark",
  "sourceName": "src/contracts/arks/CompoundV3Ark.sol",
  "abi": [
    {
      "inputs": [
        {
          "internalType": "address",
          "name": "_comet",
          "type": "address"
        },
        {
          "internalType": "address",
          "name": "_cometRewards",
          "type": "address"
        },
        {
          "components": [
            {
              "internalType": "string",
              "name": "name",
              "type": "string"
            },
            {
              "internalType": "string",
              "name": "details",
              "type": "string"
            },
            {
              "internalType": "address",
              "name": "accessManager",
              "type": "address"
            },
            {
              "internalType": "address",
              "name": "configurationManager",
              "type": "address"
            },
            {
              "internalType": "address",
              "name": "asset",
              "type": "address"
            },
            {
              "internalType": "uint256",
              "name": "depositCap",
              "type": "uint256"
            },
            {
              "internalType": "uint256",
              "name": "maxRebalanceOutflow",
              "type": "uint256"
            },
            {
              "internalType": "uint256",
              "name": "maxRebalanceInflow",
              "type": "uint256"
            },
            {
              "internalType": "bool",
              "name": "requiresKeeperData",
              "type": "bool"
            },
            {
              "internalType": "Percentage",
              "name": "maxDepositPercentageOfTVL",
              "type": "uint256"
            }
          ],
          "internalType": "struct ArkParams",
          "name": "_params",
          "type": "tuple"
        }
      ],
      "stateMutability": "nonpayable",
      "type": "constructor"
    },
    {
      "inputs": [
        {
          "internalType": "address",
          "name": "caller",
          "type": "address"
        }
      ],
      "name": "CallerIsNotAdmin",
      "type": "error"
    },
    {
      "inputs": [
        {
          "internalType": "address",
          "name": "caller",
          "type": "address"
        }
      ],
      "name": "CallerIsNotAuthorizedToBoard",
      "type": "error"
    },
    {
      "inputs": [
        {
          "internalType": "address",
          "name": "caller",
          "type": "address"
        }
      ],
      "name": "CallerIsNotCommander",
      "type": "error"
    },
    {
      "inputs": [
        {
          "internalType": "address",
          "name": "caller",
          "type": "address"
        },
        {
          "internalType": "bytes32",
          "name": "role",
          "type": "bytes32"
        }
      ],
      "name": "CallerIsNotContractSpecificRole",
      "type": "error"
    },
    {
      "inputs": [
        {
          "internalType": "address",
          "name": "caller",
          "type": "address"
        }
      ],
      "name": "CallerIsNotCurator",
      "type": "error"
    },
    {
      "inputs": [
        {
          "internalType": "address",
          "name": "caller",
          "type": "address"
        }
      ],
      "name": "CallerIsNotDecayController",
      "type": "error"
    },
    {
      "inputs": [
        {
          "internalType": "address",
          "name": "caller",
          "type": "address"
        }
      ],
      "name": "CallerIsNotGovernor",
      "type": "error"
    },
    {
      "inputs": [
        {
          "internalType": "address",
          "name": "caller",
          "type": "address"
        }
      ],
      "name": "CallerIsNotGuardian",
      "type": "error"
    },
    {
      "inputs": [
        {
          "internalType": "address",
          "name": "caller",
          "type": "address"
        }
      ],
      "name": "CallerIsNotGuardianOrGovernor",
      "type": "error"
    },
    {
      "inputs": [
        {
          "internalType": "address",
          "name": "caller",
          "type": "address"
        }
      ],
      "name": "CallerIsNotKeeper",
      "type": "error"
    },
    {
      "inputs": [
        {
          "internalType": "address",
          "name": "caller",
          "type": "address"
        }
      ],
      "name": "CallerIsNotRaft",
      "type": "error"
    },
    {
      "inputs": [
        {
          "internalType": "address",
          "name": "caller",
          "type": "address"
        }
      ],
      "name": "CallerIsNotRaftOrCommander",
      "type": "error"
    },
    {
      "inputs": [
        {
          "internalType": "address",
          "name": "caller",
          "type": "address"
        }
      ],
      "name": "CallerIsNotSuperKeeper",
      "type": "error"
    },
    {
      "inputs": [],
      "name": "CannotAddCommanderToArkWithCommander",
      "type": "error"
    },
    {
      "inputs": [],
      "name": "CannotDeployArkWithEmptyName",
      "type": "error"
    },
    {
      "inputs": [],
      "name": "CannotDeployArkWithoutConfigurationManager",
      "type": "error"
    },
    {
      "inputs": [],
      "name": "CannotDeployArkWithoutRaft",
      "type": "error"
    },
    {
      "inputs": [],
      "name": "CannotDeployArkWithoutToken",
      "type": "error"
    },
    {
      "inputs": [],
      "name": "CannotRemoveCommanderFromArkWithAssets",
      "type": "error"
    },
    {
      "inputs": [],
      "name": "CannotUseKeeperDataWhenNotRequired",
      "type": "error"
    },
    {
      "inputs": [],
      "name": "ConfigurationManagerZeroAddress",
      "type": "error"
    },
    {
      "inputs": [
        {
          "internalType": "address",
          "name": "caller",
          "type": "address"
        }
      ],
      "name": "DirectGrantIsDisabled",
      "type": "error"
    },
    {
      "inputs": [
        {
          "internalType": "address",
          "name": "caller",
          "type": "address"
        }
      ],
      "name": "DirectRevokeIsDisabled",
      "type": "error"
    },
    {
      "inputs": [],
      "name": "ERC4626AssetMismatch",
      "type": "error"
    },
    {
      "inputs": [
        {
          "internalType": "address",
          "name": "invalidAddress",
          "type": "address"
        }
      ],
      "name": "InvalidAccessManagerAddress",
      "type": "error"
    },
    {
      "inputs": [],
      "name": "InvalidBoardData",
      "type": "error"
    },
    {
      "inputs": [],
      "name": "InvalidDisembarkData",
      "type": "error"
    },
    {
      "inputs": [],
      "name": "InvalidVaultAddress",
      "type": "error"
    },
    {
      "inputs": [],
      "name": "KeeperDataRequired",
      "type": "error"
    },
    {
      "inputs": [],
      "name": "ReentrancyGuardReentrantCall",
      "type": "error"
    },
    {
      "inputs": [
        {
          "internalType": "address",
          "name": "token",
          "type": "address"
        }
      ],
      "name": "SafeERC20FailedOperation",
      "type": "error"
    },
    {
      "anonymous": false,
      "inputs": [
        {
          "indexed": true,
          "internalType": "address[]",
          "name": "rewardTokens",
          "type": "address[]"
        },
        {
          "indexed": true,
          "internalType": "uint256[]",
          "name": "rewardAmounts",
          "type": "uint256[]"
        }
      ],
      "name": "ArkHarvested",
      "type": "event"
    },
    {
      "anonymous": false,
      "inputs": [
        {
          "indexed": false,
          "internalType": "uint256",
          "name": "currentPrice",
          "type": "uint256"
        },
        {
          "indexed": false,
          "internalType": "uint256",
          "name": "timestamp",
          "type": "uint256"
        }
      ],
      "name": "ArkPoked",
      "type": "event"
    },
    {
      "anonymous": false,
      "inputs": [
        {
          "indexed": true,
          "internalType": "address[]",
          "name": "sweptTokens",
          "type": "address[]"
        },
        {
          "indexed": true,
          "internalType": "uint256[]",
          "name": "sweptAmounts",
          "type": "uint256[]"
        }
      ],
      "name": "ArkSwept",
      "type": "event"
    },
    {
      "anonymous": false,
      "inputs": [
        {
          "indexed": true,
          "internalType": "address",
          "name": "commander",
          "type": "address"
        },
        {
          "indexed": false,
          "internalType": "address",
          "name": "token",
          "type": "address"
        },
        {
          "indexed": false,
          "internalType": "uint256",
          "name": "amount",
          "type": "uint256"
        }
      ],
      "name": "Boarded",
      "type": "event"
    },
    {
      "anonymous": false,
      "inputs": [
        {
          "indexed": false,
          "internalType": "uint256",
          "name": "newCap",
          "type": "uint256"
        }
      ],
      "name": "DepositCapUpdated",
      "type": "event"
    },
    {
      "anonymous": false,
      "inputs": [
        {
          "indexed": true,
          "internalType": "address",
          "name": "commander",
          "type": "address"
        },
        {
          "indexed": false,
          "internalType": "address",
          "name": "token",
          "type": "address"
        },
        {
          "indexed": false,
          "internalType": "uint256",
          "name": "amount",
          "type": "uint256"
        }
      ],
      "name": "Disembarked",
      "type": "event"
    },
    {
      "anonymous": false,
      "inputs": [
        {
          "indexed": false,
          "internalType": "address",
          "name": "commander",
          "type": "address"
        }
      ],
      "name": "FleetCommanderRegistered",
      "type": "event"
    },
    {
      "anonymous": false,
      "inputs": [
        {
          "indexed": false,
          "internalType": "address",
          "name": "commander",
          "type": "address"
        }
      ],
      "name": "FleetCommanderUnregistered",
      "type": "event"
    },
    {
      "anonymous": false,
      "inputs": [
        {
          "indexed": false,
          "internalType": "Percentage",
          "name": "newMaxDepositPercentageOfTVL",
          "type": "uint256"
        }
      ],
      "name": "MaxDepositPercentageOfTVLUpdated",
      "type": "event"
    },
    {
      "anonymous": false,
      "inputs": [
        {
          "indexed": false,
          "internalType": "uint256",
          "name": "newMaxInflow",
          "type": "uint256"
        }
      ],
      "name": "MaxRebalanceInflowUpdated",
      "type": "event"
    },
    {
      "anonymous": false,
      "inputs": [
        {
          "indexed": false,
          "internalType": "uint256",
          "name": "newMaxOutflow",
          "type": "uint256"
        }
      ],
      "name": "MaxRebalanceOutflowUpdated",
      "type": "event"
    },
    {
      "anonymous": false,
      "inputs": [
        {
          "indexed": true,
          "internalType": "address",
          "name": "from",
          "type": "address"
        },
        {
          "indexed": true,
          "internalType": "address",
          "name": "to",
          "type": "address"
        },
        {
          "indexed": false,
          "internalType": "address",
          "name": "token",
          "type": "address"
        },
        {
          "indexed": false,
          "internalType": "uint256",
          "name": "amount",
          "type": "uint256"
        }
      ],
      "name": "Moved",
      "type": "event"
    },
    {
      "anonymous": false,
      "inputs": [
        {
          "indexed": false,
          "internalType": "address",
          "name": "newRaft",
          "type": "address"
        }
      ],
      "name": "RaftUpdated",
      "type": "event"
    },
    {
      "inputs": [],
      "name": "asset",
      "outputs": [
        {
          "internalType": "contract IERC20",
          "name": "",
          "type": "address"
        }
      ],
      "stateMutability": "view",
      "type": "function"
    },
    {
      "inputs": [
        {
          "internalType": "uint256",
          "name": "amount",
          "type": "uint256"
        },
        {
          "internalType": "bytes",
          "name": "boardData",
          "type": "bytes"
        }
      ],
      "name": "board",
      "outputs": [],
      "stateMutability": "nonpayable",
      "type": "function"
    },
    {
      "inputs": [],
      "name": "comet",
      "outputs": [
        {
          "internalType": "contract IComet",
          "name": "",
          "type": "address"
        }
      ],
      "stateMutability": "view",
      "type": "function"
    },
    {
      "inputs": [],
      "name": "cometRewards",
      "outputs": [
        {
          "internalType": "contract ICometRewards",
          "name": "",
          "type": "address"
        }
      ],
      "stateMutability": "view",
      "type": "function"
    },
    {
      "inputs": [],
      "name": "commander",
      "outputs": [
        {
          "internalType": "address",
          "name": "",
          "type": "address"
        }
      ],
      "stateMutability": "view",
      "type": "function"
    },
    {
      "inputs": [],
      "name": "config",
      "outputs": [
        {
          "internalType": "address",
          "name": "commander",
          "type": "address"
        },
        {
          "internalType": "address",
          "name": "raft",
          "type": "address"
        },
        {
          "internalType": "contract IERC20",
          "name": "asset",
          "type": "address"
        },
        {
          "internalType": "uint256",
          "name": "depositCap",
          "type": "uint256"
        },
        {
          "internalType": "uint256",
          "name": "maxRebalanceOutflow",
          "type": "uint256"
        },
        {
          "internalType": "uint256",
          "name": "maxRebalanceInflow",
          "type": "uint256"
        },
        {
          "internalType": "string",
          "name": "name",
          "type": "string"
        },
        {
          "internalType": "string",
          "name": "details",
          "type": "string"
        },
        {
          "internalType": "bool",
          "name": "requiresKeeperData",
          "type": "bool"
        },
        {
          "internalType": "Percentage",
          "name": "maxDepositPercentageOfTVL",
          "type": "uint256"
        }
      ],
      "stateMutability": "view",
      "type": "function"
    },
    {
      "inputs": [],
      "name": "configurationManager",
      "outputs": [
        {
          "internalType": "contract IConfigurationManager",
          "name": "",
          "type": "address"
        }
      ],
      "stateMutability": "view",
      "type": "function"
    },
    {
      "inputs": [],
      "name": "depositCap",
      "outputs": [
        {
          "internalType": "uint256",
          "name": "",
          "type": "uint256"
        }
      ],
      "stateMutability": "view",
      "type": "function"
    },
    {
      "inputs": [
        {
          "internalType": "uint256",
          "name": "amount",
          "type": "uint256"
        },
        {
          "internalType": "bytes",
          "name": "disembarkData",
          "type": "bytes"
        }
      ],
      "name": "disembark",
      "outputs": [],
      "stateMutability": "nonpayable",
      "type": "function"
    },
    {
      "inputs": [],
      "name": "fleetCommanderRewardsManagerFactory",
      "outputs": [
        {
          "internalType": "address",
          "name": "",
          "type": "address"
        }
      ],
      "stateMutability": "view",
      "type": "function"
    },
    {
      "inputs": [
        {
          "internalType": "enum ContractSpecificRoles",
          "name": "roleName",
          "type": "uint8"
        },
        {
          "internalType": "address",
          "name": "roleTargetContract",
          "type": "address"
        }
      ],
      "name": "generateRole",
      "outputs": [
        {
          "internalType": "bytes32",
          "name": "",
          "type": "bytes32"
        }
      ],
      "stateMutability": "pure",
      "type": "function"
    },
    {
      "inputs": [],
      "name": "getConfig",
      "outputs": [
        {
          "components": [
            {
              "internalType": "address",
              "name": "commander",
              "type": "address"
            },
            {
              "internalType": "address",
              "name": "raft",
              "type": "address"
            },
            {
              "internalType": "contract IERC20",
              "name": "asset",
              "type": "address"
            },
            {
              "internalType": "uint256",
              "name": "depositCap",
              "type": "uint256"
            },
            {
              "internalType": "uint256",
              "name": "maxRebalanceOutflow",
              "type": "uint256"
            },
            {
              "internalType": "uint256",
              "name": "maxRebalanceInflow",
              "type": "uint256"
            },
            {
              "internalType": "string",
              "name": "name",
              "type": "string"
            },
            {
              "internalType": "string",
              "name": "details",
              "type": "string"
            },
            {
              "internalType": "bool",
              "name": "requiresKeeperData",
              "type": "bool"
            },
            {
              "internalType": "Percentage",
              "name": "maxDepositPercentageOfTVL",
              "type": "uint256"
            }
          ],
          "internalType": "struct ArkConfig",
          "name": "",
          "type": "tuple"
        }
      ],
      "stateMutability": "view",
      "type": "function"
    },
    {
      "inputs": [],
      "name": "harborCommand",
      "outputs": [
        {
          "internalType": "address",
          "name": "",
          "type": "address"
        }
      ],
      "stateMutability": "view",
      "type": "function"
    },
    {
      "inputs": [
        {
          "internalType": "bytes",
          "name": "additionalData",
          "type": "bytes"
        }
      ],
      "name": "harvest",
      "outputs": [
        {
          "internalType": "address[]",
          "name": "rewardTokens",
          "type": "address[]"
        },
        {
          "internalType": "uint256[]",
          "name": "rewardAmounts",
          "type": "uint256[]"
        }
      ],
      "stateMutability": "nonpayable",
      "type": "function"
    },
    {
      "inputs": [
        {
          "internalType": "address",
          "name": "account",
          "type": "address"
        }
      ],
      "name": "hasAdmiralsQuartersRole",
      "outputs": [
        {
          "internalType": "bool",
          "name": "",
          "type": "bool"
        }
      ],
      "stateMutability": "view",
      "type": "function"
    },
    {
      "inputs": [],
      "name": "maxDepositPercentageOfTVL",
      "outputs": [
        {
          "internalType": "Percentage",
          "name": "",
          "type": "uint256"
        }
      ],
      "stateMutability": "view",
      "type": "function"
    },
    {
      "inputs": [],
      "name": "maxRebalanceInflow",
      "outputs": [
        {
          "internalType": "uint256",
          "name": "",
          "type": "uint256"
        }
      ],
      "stateMutability": "view",
      "type": "function"
    },
    {
      "inputs": [],
      "name": "maxRebalanceOutflow",
      "outputs": [
        {
          "internalType": "uint256",
          "name": "",
          "type": "uint256"
        }
      ],
      "stateMutability": "view",
      "type": "function"
    },
    {
      "inputs": [
        {
          "internalType": "uint256",
          "name": "amount",
          "type": "uint256"
        },
        {
          "internalType": "address",
          "name": "receiverArk",
          "type": "address"
        },
        {
          "internalType": "bytes",
          "name": "boardData",
          "type": "bytes"
        },
        {
          "internalType": "bytes",
          "name": "disembarkData",
          "type": "bytes"
        }
      ],
      "name": "move",
      "outputs": [],
      "stateMutability": "nonpayable",
      "type": "function"
    },
    {
      "inputs": [],
      "name": "name",
      "outputs": [
        {
          "internalType": "string",
          "name": "",
          "type": "string"
        }
      ],
      "stateMutability": "view",
      "type": "function"
    },
    {
      "inputs": [],
      "name": "raft",
      "outputs": [
        {
          "internalType": "address",
          "name": "",
          "type": "address"
        }
      ],
      "stateMutability": "view",
      "type": "function"
    },
    {
      "inputs": [],
      "name": "registerFleetCommander",
      "outputs": [],
      "stateMutability": "nonpayable",
      "type": "function"
    },
    {
      "inputs": [],
      "name": "requiresKeeperData",
      "outputs": [
        {
          "internalType": "bool",
          "name": "",
          "type": "bool"
        }
      ],
      "stateMutability": "view",
      "type": "function"
    },
    {
      "inputs": [
        {
          "internalType": "uint256",
          "name": "newDepositCap",
          "type": "uint256"
        }
      ],
      "name": "setDepositCap",
      "outputs": [],
      "stateMutability": "nonpayable",
      "type": "function"
    },
    {
      "inputs": [
        {
          "internalType": "Percentage",
          "name": "newMaxDepositPercentageOfTVL",
          "type": "uint256"
        }
      ],
      "name": "setMaxDepositPercentageOfTVL",
      "outputs": [],
      "stateMutability": "nonpayable",
      "type": "function"
    },
    {
      "inputs": [
        {
          "internalType": "uint256",
          "name": "newMaxRebalanceInflow",
          "type": "uint256"
        }
      ],
      "name": "setMaxRebalanceInflow",
      "outputs": [],
      "stateMutability": "nonpayable",
      "type": "function"
    },
    {
      "inputs": [
        {
          "internalType": "uint256",
          "name": "newMaxRebalanceOutflow",
          "type": "uint256"
        }
      ],
      "name": "setMaxRebalanceOutflow",
      "outputs": [],
      "stateMutability": "nonpayable",
      "type": "function"
    },
    {
      "inputs": [
        {
          "internalType": "address[]",
          "name": "tokens",
          "type": "address[]"
        }
      ],
      "name": "sweep",
      "outputs": [
        {
          "internalType": "address[]",
          "name": "sweptTokens",
          "type": "address[]"
        },
        {
          "internalType": "uint256[]",
          "name": "sweptAmounts",
          "type": "uint256[]"
        }
      ],
      "stateMutability": "nonpayable",
      "type": "function"
    },
    {
      "inputs": [],
      "name": "tipJar",
      "outputs": [
        {
          "internalType": "address",
          "name": "",
          "type": "address"
        }
      ],
      "stateMutability": "view",
      "type": "function"
    },
    {
      "inputs": [],
      "name": "totalAssets",
      "outputs": [
        {
          "internalType": "uint256",
          "name": "suppliedAssets",
          "type": "uint256"
        }
      ],
      "stateMutability": "view",
      "type": "function"
    },
    {
      "inputs": [],
      "name": "treasury",
      "outputs": [
        {
          "internalType": "address",
          "name": "",
          "type": "address"
        }
      ],
      "stateMutability": "view",
      "type": "function"
    },
    {
      "inputs": [],
      "name": "unregisterFleetCommander",
      "outputs": [],
      "stateMutability": "nonpayable",
      "type": "function"
    }
  ],
  "bytecode": "0x60a0806040523461065d57612a77803803809161001c82856106a3565b8339810160608282031261065d57610033826106c6565b90610040602084016106c6565b604084015190936001600160401b03821161065d5701906101408282031261065d576040519061006f82610687565b82516001600160401b03811161065d578161008b9185016106da565b82526020830151906001600160401b03821161065d576100ac9184016106da565b91602082019283526100c0604082016106c6565b928360408401526100d3606083016106c6565b9260608101948486526100e8608085016106c6565b956080830196875260a08501519660a0840197885260c08601519160c0850192835260e08701519360e086019485526101206101276101008a0161072f565b61010088019081529801516101208701908152986001600160a01b0390811691168015610674576040516301ffc9a760e01b81526338c7ccdb60e01b6004820152602081602481855afa908115610669575f9161062b575b5015610619575f80546001600160a01b031916919091179055801561060a57608052516001600160a01b0316156105fb5780516001600160a01b0316156105ec57835151156105dd576001600160a01b036101d861073c565b16156105ce57516001600160a01b03166101f061073c565b97519151925193519451955115159651976101206040519161021183610687565b5f83526001600160a01b03166020830181905260408301849052606083018590526080830186905260a0830187905260c0830188905260e083019889526101008301998a529101988952600180546001600160a01b03199081169091556002805482169092179091556003805490911690911790556004556005556006558051906001600160401b0382116104d15760075490600182811c921680156105c4575b60208310146104b35781601f849311610556575b50602090601f83116001146104f0575f926104e5575b50508160011b915f199060031b1c1916176007555b518051906001600160401b0382116104d15760085490600182811c921680156104c7575b60208310146104b35781601f849311610445575b50602090601f83116001146103df575f926103d4575b50508160011b915f199060031b1c1916176008555b51151560ff80196009541691161760095551600a5560018060a01b031660018060a01b0319600b541617600b5560018060a01b031660018060a01b0319600c541617600c556040516122cd90816107aa82396080518181816101a4015281816106e801528181610d1f015281816115f1015281816116630152611f390152f35b015190505f8061033f565b60085f9081528281209350601f198516905b81811061042d5750908460019594939210610415575b505050811b01600855610354565b01515f1960f88460031b161c191690555f8080610407565b929360206001819287860151815501950193016103f1565b60085f529091507ff3f7a9fe364faab93b216da50a3214154f22a0a2b415b23a84c8169e8b636ee3601f840160051c810191602085106104a9575b90601f859493920160051c01905b81811061049b5750610329565b5f815584935060010161048e565b9091508190610480565b634e487b7160e01b5f52602260045260245ffd5b91607f1691610315565b634e487b7160e01b5f52604160045260245ffd5b015190505f806102dc565b60075f9081528281209350601f198516905b81811061053e5750908460019594939210610526575b505050811b016007556102f1565b01515f1960f88460031b161c191690555f8080610518565b92936020600181928786015181550195019301610502565b60075f529091507fa66cc928b5edb82af9bd49922954155ab7b0942694bea4ce44661d9a8736c688601f840160051c810191602085106105ba575b90601f859493920160051c01905b8181106105ac57506102c6565b5f815584935060010161059f565b9091508190610591565b91607f16916102b2565b633a4f9cdb60e21b5f5260045ffd5b63268c072960e01b5f5260045ffd5b637ff57ef160e11b5f5260045ffd5b63b53c493160e01b5f5260045ffd5b63f1634df960e01b5f5260045ffd5b6347bd7c1d60e01b5f5260045260245ffd5b90506020813d602011610661575b81610646602093836106a3565b8101031261065d576106579061072f565b5f61017f565b5f80fd5b3d9150610639565b6040513d5f823e3d90fd5b6347bd7c1d60e01b5f525f60045260245ffd5b61014081019081106001600160401b038211176104d157604052565b601f909101601f19168101906001600160401b038211908210176104d157604052565b51906001600160a01b038216820361065d57565b81601f8201121561065d578051906001600160401b0382116104d1576040519261070e601f8401601f1916602001856106a3565b8284526020838301011161065d57815f9260208093018386015e8301015290565b5190811515820361065d57565b608051604051628bec5760e51b815290602090829060049082906001600160a01b03165afa908115610669575f91610772575090565b90506020813d6020116107a1575b8161078d602093836106a3565b8101031261065d5761079e906106c6565b90565b3d915061078056fe6080806040526004361015610012575f80fd5b5f905f3560e01c90816301e1d11414611c005750806306fdde0314611bd1578063117d8ae014611ba557806313c408f814611a9f5780632db6d399146117be578063303dbaf31461179b5780633194549e1461177d5780633231597214611754578063372709361461172b57806338d52e0f146117025780634fc7fac3146116ae5780635b0f83f31461163c57806361d027b3146115ca57806361f5cd8b1461157657806369b3054b14611512578063780469bb14610ee457806379502c5514610d6a5780637aaceb9514610cf85780638665120314610ca45780638a8b997614610c4857806392f5e83214610be1578063ad5a356f14610bc3578063ba3e9c1214610b9a578063bdcdd88214610b7c578063c38a6f0b1461096a578063c3f909d414610717578063c9c667e3146106d2578063ce5c7f61146103f5578063dbd5edc7146103d7578063ebc136d0146102ac578063ebf311311461023c5763f7e533ec1461017e575f80fd5b34610225578060031936011261022557604051633df94cfb60e21b8152906020826004817f00000000000000000000000000000000000000000000000000000000000000006001600160a01b03165afa9081156102305780916101f0575b6040516001600160a01b0383168152602090f35b90506020823d602011610228575b8161020b60209383611d7c565b81010312610225575061021f602091611f11565b5f6101dc565b80fd5b3d91506101fe565b604051903d90823e3d90fd5b50346102255780600319360112610225576102556120c2565b1561029957600180546001600160a01b03191690556040513381527f7cb941d7b1708e5b3bcd35ca960d6c6311188cec18886e5b67630552676b048790602090a180f35b631564c0e160e11b815233600452602490fd5b5034610225576020366003190112610225576004356001600160a01b03811681036103d357815460405163a89f38a360e01b81526001600160a01b039091169190602081600481865afa9081156103c857849161038e575b50604051632474521560e21b815260048101919091526001600160a01b0390911660248201529060209082908180604481015b03915afa9081156103835760209291610356575b506040519015158152f35b6103769150823d841161037c575b61036e8183611d7c565b810190611fc6565b5f61034b565b503d610364565b6040513d84823e3d90fd5b9190506020823d6020116103c0575b816103aa60209383611d7c565b810103126103bc579051610337610304565b8380fd5b3d915061039d565b6040513d86823e3d90fd5b5080fd5b50346102255780600319360112610225576020600454604051908152f35b5034610225576020366003190112610225576004356001600160401b0381116103d357610426903690600401611ca7565b9190604051628bec5760e51b8152602081600481305afa9081156106c7578391610689575b506001600160a01b0316330361067657610463612164565b60409283516104728582611d7c565b60018152602083601f198701938436848601378751946104928987611d7c565b600186523684870137810103126103bc576104b78551936104b285611d31565b611d1d565b8084526001600160a01b03166104cc82612010565b52600c54600b546001600160a01b039182169116813b156106725785916064839289519485938492635b81a7bf60e11b84526004840152306024840152600160448401525af180156106535790859161065d575b5050825185516370a0823160e01b815230600482015290602090829060249082906001600160a01b03165afa90811561065357859161061b575b506106179361058f9161056c85612010565b52516001600160a01b031661057f611f25565b61058885612010565b51916121ea565b61059881612045565b6105a183612088565b907f3e3e7958121b3e39c7a49392d1aa9cdce870c2a059744f9e15cf66fff78654558680a36105cf81612045565b936105d983612088565b95519586957f3e3e7958121b3e39c7a49392d1aa9cdce870c2a059744f9e15cf66fff78654558380a35f5160206122785f395f51905f525d83611db4565b0390f35b90506020813d60201161064b575b8161063660209383611d7c565b81010312610647575161061761055a565b5f80fd5b3d9150610629565b86513d87823e3d90fd5b8161066791611d7c565b6103bc57835f610520565b8580fd5b631184b31b60e21b825233600452602482fd5b90506020813d6020116106bf575b816106a460209383611d7c565b810103126106bb576106b590611f11565b5f61044b565b8280fd5b3d9150610697565b6040513d85823e3d90fd5b50346102255780600319360112610225576040517f00000000000000000000000000000000000000000000000000000000000000006001600160a01b03168152602090f35b50346102255780600319360112610225578061012060405161073881611d60565b8281528260208201528260408201528260608201528260808201528260a0820152606060c0820152606060e082015282610100820152015260405161077c81611d60565b6001546001600160a01b03908116825260025481166020830190815260035490911660408301908152600454606084019081526005546080850190815260065460a08601908152939591936107cf611e2f565b9160c087019283526040519380600854908160011c91600181168015610960575b60208410811461094c5783895290811561092557506001146108cc575b5050918493916108256108b7966108a3950386611d7c565b60e089810195865260095460ff1615156101008b01908152600a546101208c019081526040805160208082529d516001600160a01b039081169e82019e909e529d518d16908e01529851909a1660608c0152975160808b01525160a08a01525160c08901525161014095880195909552869594610160870190611c83565b9051858203601f1901610100870152611c83565b91511515610120840152516101408301520390f35b6008815291507ff3f7a9fe364faab93b216da50a3214154f22a0a2b415b23a84c8169e8b636ee35b81831061090b57505084016020018161082561080d565b6001816020929493945483858b01015201910191906108f4565b60ff19166020808a019190915292151560051b88019092019250839150610825905061080d565b634e487b7160e01b83526022600452602483fd5b92607f16926107f0565b503461022557608036600319011261022557600435610987611d07565b906044356001600160401b0381116103bc576109a7903690600401611ca7565b90926064356001600160401b038111610672576109c8903690600401611ca7565b906109d16120c2565b15610b6957869392916109e391612199565b600b546003546001600160a01b039081169116803b15610b6557858591610a21938360405180968195829463f3fef3a360e01b845260048401611fab565b03925af19081156103c8578491610b50575b505060035460405163095ea7b360e01b81529060209082906001600160a01b0316818781610a658b8960048401611fab565b03925af180156103c857610b33575b506001600160a01b031693843b156106bb5781606484926040519485938492632db6d39960e01b845289600485015260406024850152816044850152848401378181018301859052601f01601f1916810103018183885af1801561038357610b1e575b505060035460405130927f9f784fc02a186f1c98b2d9f15fda084da27cdd291a3785d978f91911d880516b928291610b18916001600160a01b031683611fab565b0390a380f35b81610b2891611d7c565b6106bb57825f610ad7565b610b4b9060203d60201161037c5761036e8183611d7c565b610a74565b81610b5a91611d7c565b6106bb57825f610a33565b8480fd5b631564c0e160e11b875233600452602487fd5b50346102255780600319360112610225576020600a54604051908152f35b5034610225578060031936011261022557600b546040516001600160a01b039091168152602090f35b50346102255780600319360112610225576020600654604051908152f35b503461022557602036600319011261022557600435610bfe6120c2565b15610c35576020817fb6ac66853c4e59c71e118d25ab494bb847c4e5eb0c8894898c5343e6f61afc1292600655604051908152a180f35b631564c0e160e11b825233600452602482fd5b5034610225578060031936011261022557610c616120c2565b15610299573360018060a01b031960015416176001557f55489ce0259bd691120d8860861be1c401c7c16a3cd268d21045756af4ecc5ca6020604051338152a180f35b503461022557602036600319011261022557600435610cc16120c2565b15610c35576020817f333b26cca69716ad4680ddb07663f5bfb4f06045671f336af9a83690a3ae00f992600455604051908152a180f35b5034610225578060031936011261022557604051637aaceb9560e01b8152906020826004817f00000000000000000000000000000000000000000000000000000000000000006001600160a01b03165afa9081156102305780916101f0576040516001600160a01b0383168152602090f35b50346102255780600319360112610225576001546002546003546004546005546006546001600160a01b039485169695851695929490931692610dab611e2f565b916040519380600854908160011c91600181168015610eda575b60208410811461094c57838952908115610eb35750600114610e5a575b505091849391610dfa610e4796610e39950386611d7c565b60ff6009541697600a54976040519b8c9b8c5260208c015260408b015260608a0152608089015260a088015261014060c0880152610140870190611c83565b9085820360e0870152611c83565b9115156101008401526101208301520390f35b6008815291507ff3f7a9fe364faab93b216da50a3214154f22a0a2b415b23a84c8169e8b636ee35b818310610e99575050840160200181610dfa610de2565b6001816020929493945483858b0101520191019190610e82565b60ff19166020808a019190915292151560051b88019092019250839150610dfa9050610de2565b92607f1692610dc5565b5034610225576020366003190112610225576004356001600160401b0381116103d357366023820112156103d357806004013590610f2182611d9d565b91610f2f6040519384611d7c565b8083526024602084019160051b83010191368311610b6557602401905b8282106114fa575050604051628bec5760e51b81529050602081600481305afa9081156106c75783916114c0575b506001600160a01b0316330361067657610f92612164565b610f9c8151611fde565b90610fa78151611fde565b6003546040516370a0823160e01b815230600482015291939185916001600160a01b031690602081602481855afa9081156106c757839161148b575b506111b3575b505b825181101561115a5760249060206001600160a01b0361100b8387612031565b5116604051938480926370a0823160e01b82523060048301525afa91821561114f57869261111c575b5081611045575b6001915001610feb565b6001600160a01b036110578286612031565b5116916024611064611f25565b9360206001600160a01b03611079868a612031565b5116604051938480926370a0823160e01b82523060048301525afa9182156111115789926110dd575b50906001946110b0926121ea565b828060a01b036110c08387612031565b51166110cc8386612031565b526110d78287612031565b5261103b565b91506020823d8211611109575b816110f760209383611d7c565b810103126106475790519060016110a2565b3d91506110ea565b6040513d8b823e3d90fd5b9091506020813d8211611147575b8161113760209383611d7c565b810103126106475751905f611034565b3d915061112a565b6040513d88823e3d90fd5b84826106178661116983612045565b9261117382612088565b946040519586957f46b8771620f6acf56cb03d3e835ea8024c7dcbcf05fcc3f6ade9e19d1a3e212b8380a35f5160206122785f395f51905f525d83611db4565b6001546040516330fe427560e21b81529060a090829060049082906001600160a01b03165afa9081156106c75783916113de575b50516040516370a0823160e01b81523060048201526001600160a01b039091169190602081602481855afa9081156103c85784916113a9575b5060208460405192611255846112478582019363095ea7b360e01b85528960248401611fab565b03601f198101865285611d7c565b83519082865af184513d8261138d575b505015611349575b50506003546040516370a0823160e01b815230600482015290602090829060249082906001600160a01b03165afa9081156106c7578391611314575b506040516112b681611d31565b838152823b156103bc576112f092849283604051809681958294632db6d39960e01b84526004840152604060248401526044830190611c83565b03925af180156103835715610fe9578161130991611d7c565b6103bc57835f610fe9565b9250506020823d602011611341575b8161133060209383611d7c565b81010312610647578591515f6112a9565b3d9150611323565b6113869161138160405163095ea7b360e01b60208201528560248201528660448201526044815261137b606482611d7c565b8261221f565b61221f565b5f8061126d565b9091506113a15750813b15155b5f80611265565b60011461139a565b9350506020833d6020116113d6575b816113c560209383611d7c565b81010312610647578692515f611220565b3d91506113b8565b9192505060a0813d60a011611483575b816113fb60a09383611d7c565b81010312610672576040519060a082018281106001600160401b0382111761146f57604052805187939291906001600160a01b0381168103610b655761146491608091845260208101516020850152604081015160408501526060810151606085015201611f11565b60808201525f6111e7565b634e487b7160e01b88526041600452602488fd5b3d91506113ee565b9250506020823d6020116114b8575b816114a760209383611d7c565b81010312610647578591515f610fe3565b3d915061149a565b90506020813d6020116114f2575b816114db60209383611d7c565b810103126106bb576114ec90611f11565b5f610f7a565b3d91506114ce565b6020809161150784611d1d565b815201910190610f4c565b50346102255760403660031901126102255760043560038110156103d35760209161153b611d07565b9050604051908382019260f81b835260018060601b03199060601b1660218201526015815261156b603582611d7c565b519020604051908152f35b5034610225576020366003190112610225576004356115936120c2565b15610c35576020817ffbe2d5c01ea8ba5596d6c4e6c82c6d4a0a0ee1128689993a4a5ba0169273d69f92600555604051908152a180f35b50346102255780600319360112610225576040516361d027b360e01b8152906020826004817f00000000000000000000000000000000000000000000000000000000000000006001600160a01b03165afa9081156102305780916101f0576040516001600160a01b0383168152602090f35b5034610225578060031936011261022557604051635b0f83f360e01b8152906020826004817f00000000000000000000000000000000000000000000000000000000000000006001600160a01b03165afa9081156102305780916101f0576040516001600160a01b0383168152602090f35b5034610225576020366003190112610225576004356116cb6120c2565b15610c35576020817fd3c6d0ab315f2f1352f036cd9f401b49e38e1b90907e195225e8105f9a0b6f0292600a55604051908152a180f35b50346102255780600319360112610225576003546040516001600160a01b039091168152602090f35b50346102255780600319360112610225576001546040516001600160a01b039091168152602090f35b5034610225578060031936011261022557600c546040516001600160a01b039091168152602090f35b50346102255780600319360112610225576020600554604051908152f35b5034610225578060031936011261022557602060ff600954166040519015158152f35b5034610225576117cd36611cd4565b906117d6612164565b604051631b93849b60e11b8152602081600481305afa908115611a20578591611a65575b506118036120c2565b15611978575b509061181491612199565b6003546040516323b872dd60e01b602082015233602482015230604482015260648082018490528152611855916001600160a01b0316611381608483611d7c565b600354600b5460405163095ea7b360e01b81529160209183916001600160a01b0390811691839188918391611890918a911660048401611fab565b03925af180156106c75761195b575b50600b5460035483916001600160a01b039182169116803b156106bb578383916118e09383604051809681958294631e573fb760e31b845260048401611fab565b03925af1801561038357611946575b505060035460405133927fcbaa1442ac205415c9d69643e7b60ec73d1de35dbc807c21ec288c70ddc4207b928291611930916001600160a01b031683611fab565b0390a2805f5160206122785f395f51905f525d80f35b8161195091611d7c565b6103d357815f6118ef565b6119739060203d60201161037c5761036e8183611d7c565b61189f565b604051628bec5760e51b8152602081600481305afa90811561114f578691611a2b575b506001600160a01b031633146118095760405163d25dd10160e01b815233600482015290602090829060249082906001600160a01b03165afa908115611a20578591611a01575b50156119ee575f611809565b638f7a567d60e01b845233600452602484fd5b611a1a915060203d60201161037c5761036e8183611d7c565b5f6119e2565b6040513d87823e3d90fd5b90506020813d602011611a5d575b81611a4660209383611d7c565b8101031261067257611a5790611f11565b5f61199b565b3d9150611a39565b90506020813d602011611a97575b81611a8060209383611d7c565b81010312610b6557611a9190611f11565b5f6117fa565b3d9150611a73565b503461064757611aae36611cd4565b611ab66120c2565b15611b9257611acc91611ac7612164565b612199565b600b546003546001600160a01b039081169116803b1561064757825f91611b0a938360405180968195829463f3fef3a360e01b845260048401611fab565b03925af18015611b8757611b72575b50600354611b3390829033906001600160a01b03166121ea565b60035460405133927fd5e872c5ecfb1bb8820b2e6a20e31b883682282da886621541f71e31ec11947e928291611930916001600160a01b031683611fab565b611b7f9192505f90611d7c565b5f905f611b19565b6040513d5f823e3d90fd5b631564c0e160e11b5f523360045260245ffd5b34610647575f366003190112610647576020611bbf611f25565b6040516001600160a01b039091168152f35b34610647575f36600319011261064757610617611bec611e2f565b604051918291602083526020830190611c83565b34610647575f36600319011261064757600b546370a0823160e01b8252306004830152602090829060249082906001600160a01b03165afa8015611b87575f90611c50575b602090604051908152f35b506020813d602011611c7b575b81611c6a60209383611d7c565b810103126106475760209051611c45565b3d9150611c5d565b805180835260209291819084018484015e5f828201840152601f01601f1916010190565b9181601f84011215610647578235916001600160401b038311610647576020838186019501011161064757565b9060406003198301126106475760043591602435906001600160401b03821161064757611d0391600401611ca7565b9091565b602435906001600160a01b038216820361064757565b35906001600160a01b038216820361064757565b602081019081106001600160401b03821117611d4c57604052565b634e487b7160e01b5f52604160045260245ffd5b61014081019081106001600160401b03821117611d4c57604052565b90601f801991011681019081106001600160401b03821117611d4c57604052565b6001600160401b038111611d4c5760051b60200190565b604081016040825282518091526020606083019301905f5b818110611e10575050506020818303910152602080835192838152019201905f5b818110611dfa5750505090565b8251845260209384019390920191600101611ded565b82516001600160a01b0316855260209485019490920191600101611dcc565b604051905f6007548060011c9160018216918215611f07575b602084108314611ef3578386528592908115611ed45750600114611e75575b611e7392500383611d7c565b565b5060075f90815290917fa66cc928b5edb82af9bd49922954155ab7b0942694bea4ce44661d9a8736c6885b818310611eb8575050906020611e7392820101611e67565b6020919350806001915483858901015201910190918492611ea0565b60209250611e7394915060ff191682840152151560051b820101611e67565b634e487b7160e01b5f52602260045260245ffd5b92607f1692611e48565b51906001600160a01b038216820361064757565b604051628bec5760e51b81526020816004817f00000000000000000000000000000000000000000000000000000000000000006001600160a01b03165afa908115611b87575f91611f74575090565b90506020813d602011611fa3575b81611f8f60209383611d7c565b8101031261064757611fa090611f11565b90565b3d9150611f82565b6001600160a01b039091168152602081019190915260400190565b90816020910312610647575180151581036106475790565b90611fe882611d9d565b611ff56040519182611d7c565b8281528092612006601f1991611d9d565b0190602036910137565b80511561201d5760200190565b634e487b7160e01b5f52603260045260245ffd5b805182101561201d5760209160051b010190565b6040518091829160208251919201905f5b8181106120665750505003902090565b82516001600160a01b0316845285945060209384019390920191600101612056565b6040518091829160208251919201905f5b8181106120a95750505003902090565b8251845285945060209384019390920191600101612099565b5f54604051600160f91b60208083019182526001600160601b03193060601b166021840152601583526121369390926001600160a01b039091169190612109603582611d7c565b519020604051632474521560e21b8152600481019190915233602482015292839190829081906044820190565b03915afa908115611b87575f9161214b575090565b611fa0915060203d60201161037c5761036e8183611d7c565b5f5160206122785f395f51905f525c61218a5760015f5160206122785f395f51905f525d565b633ee5aeb560e01b5f5260045ffd5b50158015806121dd575b6121ce57806121c2575b6121b357565b63332863a960e11b5f5260045ffd5b5060ff600954166121ad565b630cd0fdf960e01b5f5260045ffd5b5060ff60095416156121a3565b611381611e73939261221160405194859263a9059cbb60e01b602085015260248401611fab565b03601f198101845283611d7c565b905f602091828151910182855af115611b87575f513d61226e57506001600160a01b0381163b155b61224e5750565b635274afe760e01b5f9081526001600160a01b0391909116600452602490fd5b6001141561224756fe9b779b17422d0df92223018b32b4d1fa46e071723d6817e2486d003becc55f00a2646970667358221220e233aa8d1ae319d58986959e0ef0152588dbee317ad0799c2e225cdaa5a3258d64736f6c634300081c0033",
  "linkReferences": {},
  "deployedLinkReferences": {}
}