{
  "_format": "hh-sol-artifact-1",
  "contractName": "CompoundV3Ark",
  "sourceName": "src/contracts/arks/CompoundV3Ark.sol",
  "abi": [
    {
      "inputs": [
        {
          "internalType": "address",
          "name": "_comet",
          "type": "address"
        },
        {
          "internalType": "address",
          "name": "_cometRewards",
          "type": "address"
        },
        {
          "components": [
            {
              "internalType": "string",
              "name": "name",
              "type": "string"
            },
            {
              "internalType": "address",
              "name": "accessManager",
              "type": "address"
            },
            {
              "internalType": "address",
              "name": "configurationManager",
              "type": "address"
            },
            {
              "internalType": "address",
              "name": "token",
              "type": "address"
            },
            {
              "internalType": "uint256",
              "name": "depositCap",
              "type": "uint256"
            },
            {
              "internalType": "uint256",
              "name": "maxRebalanceOutflow",
              "type": "uint256"
            },
            {
              "internalType": "uint256",
              "name": "maxRebalanceInflow",
              "type": "uint256"
            },
            {
              "internalType": "bool",
              "name": "requiresKeeperData",
              "type": "bool"
            }
          ],
          "internalType": "struct ArkParams",
          "name": "_params",
          "type": "tuple"
        }
      ],
      "stateMutability": "nonpayable",
      "type": "constructor"
    },
    {
      "inputs": [
        {
          "internalType": "address",
          "name": "caller",
          "type": "address"
        }
      ],
      "name": "CallerIsNotAdmin",
      "type": "error"
    },
    {
      "inputs": [
        {
          "internalType": "address",
          "name": "caller",
          "type": "address"
        }
      ],
      "name": "CallerIsNotAuthorizedToBoard",
      "type": "error"
    },
    {
      "inputs": [
        {
          "internalType": "address",
          "name": "caller",
          "type": "address"
        }
      ],
      "name": "CallerIsNotCommander",
      "type": "error"
    },
    {
      "inputs": [
        {
          "internalType": "address",
          "name": "caller",
          "type": "address"
        },
        {
          "internalType": "bytes32",
          "name": "role",
          "type": "bytes32"
        }
      ],
      "name": "CallerIsNotContractSpecificRole",
      "type": "error"
    },
    {
      "inputs": [
        {
          "internalType": "address",
          "name": "caller",
          "type": "address"
        }
      ],
      "name": "CallerIsNotCurator",
      "type": "error"
    },
    {
      "inputs": [
        {
          "internalType": "address",
          "name": "caller",
          "type": "address"
        }
      ],
      "name": "CallerIsNotGovernor",
      "type": "error"
    },
    {
      "inputs": [
        {
          "internalType": "address",
          "name": "caller",
          "type": "address"
        }
      ],
      "name": "CallerIsNotGuardian",
      "type": "error"
    },
    {
      "inputs": [
        {
          "internalType": "address",
          "name": "caller",
          "type": "address"
        }
      ],
      "name": "CallerIsNotGuardianOrGovernor",
      "type": "error"
    },
    {
      "inputs": [
        {
          "internalType": "address",
          "name": "caller",
          "type": "address"
        }
      ],
      "name": "CallerIsNotKeeper",
      "type": "error"
    },
    {
      "inputs": [
        {
          "internalType": "address",
          "name": "caller",
          "type": "address"
        }
      ],
      "name": "CallerIsNotRaft",
      "type": "error"
    },
    {
      "inputs": [
        {
          "internalType": "address",
          "name": "caller",
          "type": "address"
        }
      ],
      "name": "CallerIsNotRaftOrCommander",
      "type": "error"
    },
    {
      "inputs": [
        {
          "internalType": "address",
          "name": "caller",
          "type": "address"
        }
      ],
      "name": "CallerIsNotSuperKeeper",
      "type": "error"
    },
    {
      "inputs": [],
      "name": "CannotAddCommanderToArkWithCommander",
      "type": "error"
    },
    {
      "inputs": [],
      "name": "CannotDeployArkWithEmptyName",
      "type": "error"
    },
    {
      "inputs": [],
      "name": "CannotDeployArkWithoutConfigurationManager",
      "type": "error"
    },
    {
      "inputs": [],
      "name": "CannotDeployArkWithoutRaft",
      "type": "error"
    },
    {
      "inputs": [],
      "name": "CannotDeployArkWithoutToken",
      "type": "error"
    },
    {
      "inputs": [],
      "name": "CannotRemoveCommanderFromArkWithAssets",
      "type": "error"
    },
    {
      "inputs": [],
      "name": "CannotUseKeeperDataWhenNotRequired",
      "type": "error"
    },
    {
      "inputs": [],
      "name": "ConfigurationManagerZeroAddress",
      "type": "error"
    },
    {
      "inputs": [
        {
          "internalType": "address",
          "name": "caller",
          "type": "address"
        }
      ],
      "name": "DirectGrantIsDisabled",
      "type": "error"
    },
    {
      "inputs": [
        {
          "internalType": "address",
          "name": "caller",
          "type": "address"
        }
      ],
      "name": "DirectRevokeIsDisabled",
      "type": "error"
    },
    {
      "inputs": [],
      "name": "ERC4626AssetMismatch",
      "type": "error"
    },
    {
      "inputs": [
        {
          "internalType": "address",
          "name": "invalidAddress",
          "type": "address"
        }
      ],
      "name": "InvalidAccessManagerAddress",
      "type": "error"
    },
    {
      "inputs": [],
      "name": "InvalidBoardData",
      "type": "error"
    },
    {
      "inputs": [],
      "name": "InvalidDisembarkData",
      "type": "error"
    },
    {
      "inputs": [],
      "name": "InvalidVaultAddress",
      "type": "error"
    },
    {
      "inputs": [],
      "name": "KeeperDataRequired",
      "type": "error"
    },
    {
      "inputs": [],
      "name": "ReentrancyGuardReentrantCall",
      "type": "error"
    },
    {
      "inputs": [
        {
          "internalType": "address",
          "name": "token",
          "type": "address"
        }
      ],
      "name": "SafeERC20FailedOperation",
      "type": "error"
    },
    {
      "anonymous": false,
      "inputs": [
        {
          "indexed": true,
          "internalType": "address[]",
          "name": "rewardTokens",
          "type": "address[]"
        },
        {
          "indexed": true,
          "internalType": "uint256[]",
          "name": "rewardAmounts",
          "type": "uint256[]"
        }
      ],
      "name": "ArkHarvested",
      "type": "event"
    },
    {
      "anonymous": false,
      "inputs": [
        {
          "indexed": false,
          "internalType": "uint256",
          "name": "currentPrice",
          "type": "uint256"
        },
        {
          "indexed": false,
          "internalType": "uint256",
          "name": "timestamp",
          "type": "uint256"
        }
      ],
      "name": "ArkPoked",
      "type": "event"
    },
    {
      "anonymous": false,
      "inputs": [
        {
          "indexed": true,
          "internalType": "address[]",
          "name": "sweptTokens",
          "type": "address[]"
        },
        {
          "indexed": true,
          "internalType": "uint256[]",
          "name": "sweptAmounts",
          "type": "uint256[]"
        }
      ],
      "name": "ArkSwept",
      "type": "event"
    },
    {
      "anonymous": false,
      "inputs": [
        {
          "indexed": true,
          "internalType": "address",
          "name": "commander",
          "type": "address"
        },
        {
          "indexed": false,
          "internalType": "address",
          "name": "token",
          "type": "address"
        },
        {
          "indexed": false,
          "internalType": "uint256",
          "name": "amount",
          "type": "uint256"
        }
      ],
      "name": "Boarded",
      "type": "event"
    },
    {
      "anonymous": false,
      "inputs": [
        {
          "indexed": false,
          "internalType": "uint256",
          "name": "newCap",
          "type": "uint256"
        }
      ],
      "name": "DepositCapUpdated",
      "type": "event"
    },
    {
      "anonymous": false,
      "inputs": [
        {
          "indexed": true,
          "internalType": "address",
          "name": "commander",
          "type": "address"
        },
        {
          "indexed": false,
          "internalType": "address",
          "name": "token",
          "type": "address"
        },
        {
          "indexed": false,
          "internalType": "uint256",
          "name": "amount",
          "type": "uint256"
        }
      ],
      "name": "Disembarked",
      "type": "event"
    },
    {
      "anonymous": false,
      "inputs": [
        {
          "indexed": false,
          "internalType": "address",
          "name": "commander",
          "type": "address"
        }
      ],
      "name": "FleetCommanderRegistered",
      "type": "event"
    },
    {
      "anonymous": false,
      "inputs": [
        {
          "indexed": false,
          "internalType": "address",
          "name": "commander",
          "type": "address"
        }
      ],
      "name": "FleetCommanderUnregistered",
      "type": "event"
    },
    {
      "anonymous": false,
      "inputs": [
        {
          "indexed": false,
          "internalType": "uint256",
          "name": "newMaxInflow",
          "type": "uint256"
        }
      ],
      "name": "MaxRebalanceInflowUpdated",
      "type": "event"
    },
    {
      "anonymous": false,
      "inputs": [
        {
          "indexed": false,
          "internalType": "uint256",
          "name": "newMaxOutflow",
          "type": "uint256"
        }
      ],
      "name": "MaxRebalanceOutflowUpdated",
      "type": "event"
    },
    {
      "anonymous": false,
      "inputs": [
        {
          "indexed": true,
          "internalType": "address",
          "name": "from",
          "type": "address"
        },
        {
          "indexed": true,
          "internalType": "address",
          "name": "to",
          "type": "address"
        },
        {
          "indexed": false,
          "internalType": "address",
          "name": "token",
          "type": "address"
        },
        {
          "indexed": false,
          "internalType": "uint256",
          "name": "amount",
          "type": "uint256"
        }
      ],
      "name": "Moved",
      "type": "event"
    },
    {
      "anonymous": false,
      "inputs": [
        {
          "indexed": false,
          "internalType": "address",
          "name": "newRaft",
          "type": "address"
        }
      ],
      "name": "RaftUpdated",
      "type": "event"
    },
    {
      "inputs": [
        {
          "internalType": "uint256",
          "name": "amount",
          "type": "uint256"
        },
        {
          "internalType": "bytes",
          "name": "boardData",
          "type": "bytes"
        }
      ],
      "name": "board",
      "outputs": [],
      "stateMutability": "nonpayable",
      "type": "function"
    },
    {
      "inputs": [],
      "name": "comet",
      "outputs": [
        {
          "internalType": "contract IComet",
          "name": "",
          "type": "address"
        }
      ],
      "stateMutability": "view",
      "type": "function"
    },
    {
      "inputs": [],
      "name": "cometRewards",
      "outputs": [
        {
          "internalType": "contract ICometRewards",
          "name": "",
          "type": "address"
        }
      ],
      "stateMutability": "view",
      "type": "function"
    },
    {
      "inputs": [],
      "name": "commander",
      "outputs": [
        {
          "internalType": "address",
          "name": "",
          "type": "address"
        }
      ],
      "stateMutability": "view",
      "type": "function"
    },
    {
      "inputs": [],
      "name": "config",
      "outputs": [
        {
          "internalType": "address",
          "name": "commander",
          "type": "address"
        },
        {
          "internalType": "address",
          "name": "raft",
          "type": "address"
        },
        {
          "internalType": "contract IERC20",
          "name": "token",
          "type": "address"
        },
        {
          "internalType": "uint256",
          "name": "depositCap",
          "type": "uint256"
        },
        {
          "internalType": "uint256",
          "name": "maxRebalanceOutflow",
          "type": "uint256"
        },
        {
          "internalType": "uint256",
          "name": "maxRebalanceInflow",
          "type": "uint256"
        },
        {
          "internalType": "string",
          "name": "name",
          "type": "string"
        },
        {
          "internalType": "bool",
          "name": "requiresKeeperData",
          "type": "bool"
        }
      ],
      "stateMutability": "view",
      "type": "function"
    },
    {
      "inputs": [],
      "name": "configurationManager",
      "outputs": [
        {
          "internalType": "contract IConfigurationManager",
          "name": "",
          "type": "address"
        }
      ],
      "stateMutability": "view",
      "type": "function"
    },
    {
      "inputs": [],
      "name": "depositCap",
      "outputs": [
        {
          "internalType": "uint256",
          "name": "",
          "type": "uint256"
        }
      ],
      "stateMutability": "view",
      "type": "function"
    },
    {
      "inputs": [
        {
          "internalType": "uint256",
          "name": "amount",
          "type": "uint256"
        },
        {
          "internalType": "bytes",
          "name": "disembarkData",
          "type": "bytes"
        }
      ],
      "name": "disembark",
      "outputs": [],
      "stateMutability": "nonpayable",
      "type": "function"
    },
    {
      "inputs": [
        {
          "internalType": "enum ContractSpecificRoles",
          "name": "roleName",
          "type": "uint8"
        },
        {
          "internalType": "address",
          "name": "roleTargetContract",
          "type": "address"
        }
      ],
      "name": "generateRole",
      "outputs": [
        {
          "internalType": "bytes32",
          "name": "",
          "type": "bytes32"
        }
      ],
      "stateMutability": "pure",
      "type": "function"
    },
    {
      "inputs": [],
      "name": "getConfig",
      "outputs": [
        {
          "components": [
            {
              "internalType": "address",
              "name": "commander",
              "type": "address"
            },
            {
              "internalType": "address",
              "name": "raft",
              "type": "address"
            },
            {
              "internalType": "contract IERC20",
              "name": "token",
              "type": "address"
            },
            {
              "internalType": "uint256",
              "name": "depositCap",
              "type": "uint256"
            },
            {
              "internalType": "uint256",
              "name": "maxRebalanceOutflow",
              "type": "uint256"
            },
            {
              "internalType": "uint256",
              "name": "maxRebalanceInflow",
              "type": "uint256"
            },
            {
              "internalType": "string",
              "name": "name",
              "type": "string"
            },
            {
              "internalType": "bool",
              "name": "requiresKeeperData",
              "type": "bool"
            }
          ],
          "internalType": "struct ArkConfig",
          "name": "",
          "type": "tuple"
        }
      ],
      "stateMutability": "view",
      "type": "function"
    },
    {
      "inputs": [],
      "name": "harborCommand",
      "outputs": [
        {
          "internalType": "address",
          "name": "",
          "type": "address"
        }
      ],
      "stateMutability": "view",
      "type": "function"
    },
    {
      "inputs": [
        {
          "internalType": "bytes",
          "name": "additionalData",
          "type": "bytes"
        }
      ],
      "name": "harvest",
      "outputs": [
        {
          "internalType": "address[]",
          "name": "rewardTokens",
          "type": "address[]"
        },
        {
          "internalType": "uint256[]",
          "name": "rewardAmounts",
          "type": "uint256[]"
        }
      ],
      "stateMutability": "nonpayable",
      "type": "function"
    },
    {
      "inputs": [],
      "name": "maxRebalanceInflow",
      "outputs": [
        {
          "internalType": "uint256",
          "name": "",
          "type": "uint256"
        }
      ],
      "stateMutability": "view",
      "type": "function"
    },
    {
      "inputs": [],
      "name": "maxRebalanceOutflow",
      "outputs": [
        {
          "internalType": "uint256",
          "name": "",
          "type": "uint256"
        }
      ],
      "stateMutability": "view",
      "type": "function"
    },
    {
      "inputs": [
        {
          "internalType": "uint256",
          "name": "amount",
          "type": "uint256"
        },
        {
          "internalType": "address",
          "name": "receiverArk",
          "type": "address"
        },
        {
          "internalType": "bytes",
          "name": "boardData",
          "type": "bytes"
        },
        {
          "internalType": "bytes",
          "name": "disembarkData",
          "type": "bytes"
        }
      ],
      "name": "move",
      "outputs": [],
      "stateMutability": "nonpayable",
      "type": "function"
    },
    {
      "inputs": [],
      "name": "name",
      "outputs": [
        {
          "internalType": "string",
          "name": "",
          "type": "string"
        }
      ],
      "stateMutability": "view",
      "type": "function"
    },
    {
      "inputs": [],
      "name": "raft",
      "outputs": [
        {
          "internalType": "address",
          "name": "",
          "type": "address"
        }
      ],
      "stateMutability": "view",
      "type": "function"
    },
    {
      "inputs": [],
      "name": "registerFleetCommander",
      "outputs": [],
      "stateMutability": "nonpayable",
      "type": "function"
    },
    {
      "inputs": [],
      "name": "requiresKeeperData",
      "outputs": [
        {
          "internalType": "bool",
          "name": "",
          "type": "bool"
        }
      ],
      "stateMutability": "view",
      "type": "function"
    },
    {
      "inputs": [
        {
          "internalType": "uint256",
          "name": "newDepositCap",
          "type": "uint256"
        }
      ],
      "name": "setDepositCap",
      "outputs": [],
      "stateMutability": "nonpayable",
      "type": "function"
    },
    {
      "inputs": [
        {
          "internalType": "uint256",
          "name": "newMaxRebalanceInflow",
          "type": "uint256"
        }
      ],
      "name": "setMaxRebalanceInflow",
      "outputs": [],
      "stateMutability": "nonpayable",
      "type": "function"
    },
    {
      "inputs": [
        {
          "internalType": "uint256",
          "name": "newMaxRebalanceOutflow",
          "type": "uint256"
        }
      ],
      "name": "setMaxRebalanceOutflow",
      "outputs": [],
      "stateMutability": "nonpayable",
      "type": "function"
    },
    {
      "inputs": [
        {
          "internalType": "address[]",
          "name": "tokens",
          "type": "address[]"
        }
      ],
      "name": "sweep",
      "outputs": [
        {
          "internalType": "address[]",
          "name": "sweptTokens",
          "type": "address[]"
        },
        {
          "internalType": "uint256[]",
          "name": "sweptAmounts",
          "type": "uint256[]"
        }
      ],
      "stateMutability": "nonpayable",
      "type": "function"
    },
    {
      "inputs": [],
      "name": "tipJar",
      "outputs": [
        {
          "internalType": "address",
          "name": "",
          "type": "address"
        }
      ],
      "stateMutability": "view",
      "type": "function"
    },
    {
      "inputs": [],
      "name": "token",
      "outputs": [
        {
          "internalType": "contract IERC20",
          "name": "",
          "type": "address"
        }
      ],
      "stateMutability": "view",
      "type": "function"
    },
    {
      "inputs": [],
      "name": "totalAssets",
      "outputs": [
        {
          "internalType": "uint256",
          "name": "suppliedAssets",
          "type": "uint256"
        }
      ],
      "stateMutability": "view",
      "type": "function"
    },
    {
      "inputs": [],
      "name": "treasury",
      "outputs": [
        {
          "internalType": "address",
          "name": "",
          "type": "address"
        }
      ],
      "stateMutability": "view",
      "type": "function"
    },
    {
      "inputs": [],
      "name": "unregisterFleetCommander",
      "outputs": [],
      "stateMutability": "nonpayable",
      "type": "function"
    }
  ],
  "bytecode": "0x60a0806040523461048f57612385803803809161001c82856104af565b833981019060608183031261048f57610034816104d2565b610040602083016104d2565b604083015190926001600160401b03821161048f5701926101008482031261048f576040519061006f82610493565b84516001600160401b03811161048f57850181601f8201121561048f578051906001600160401b03821161041d57604051926100b5601f8401601f1916602001856104af565b8284526020838301011161048f57815f9260208093018386015e8301015281526100e1602085016104d2565b908160208201526100f4604086016104d2565b946040820192868452610109606083016104d2565b606084019081526080830151946080850195865260a08401519260a0860193845260e060c08601519560c088019687520151998a15158b0361048f5760e087019a8b526001600160a01b039081169116801561047c575f80546001600160a01b031916919091179055801561046d57608052516001600160a01b03161561045e5780516001600160a01b03161561044f5783515115610440576001600160a01b036101b26104e6565b161561043157516001600160a01b03166101ca6104e6565b9451915192519351975115159460e0604051916101e683610493565b5f83526001600160a01b03166020830181905260408301849052606083018590526080830186905260a0830187905260c083018b90529101958652600180546001600160a01b031990811690915560028054821690921790915560038054909116909117905560045560055560065583516001600160401b03811161041d57600754600181811c91168015610413575b60208210146103ff57601f811161039c575b50602094601f8211600114610339579481929394955f9261032e575b50508160011b915f199060031b1c1916176007555b51151560ff80196008541691161760085560018060a01b031660018060a01b0319600954161760095560018060a01b031660018060a01b0319600a541617600a55604051611e26908161055f82396080518181816104f801528181610a28015281816112080152818161127a0152611ad00152f35b015190505f806102a4565b601f1982169560075f52805f20915f5b8881106103845750836001959697981061036c575b505050811b016007556102b9565b01515f1960f88460031b161c191690555f808061035e565b91926020600181928685015181550194019201610349565b60075f527fa66cc928b5edb82af9bd49922954155ab7b0942694bea4ce44661d9a8736c688601f830160051c810191602084106103f5575b601f0160051c01905b8181106103ea5750610288565b5f81556001016103dd565b90915081906103d4565b634e487b7160e01b5f52602260045260245ffd5b90607f1690610276565b634e487b7160e01b5f52604160045260245ffd5b633a4f9cdb60e21b5f5260045ffd5b63268c072960e01b5f5260045ffd5b637ff57ef160e11b5f5260045ffd5b63b53c493160e01b5f5260045ffd5b63f1634df960e01b5f5260045ffd5b6347bd7c1d60e01b5f525f60045260245ffd5b5f80fd5b61010081019081106001600160401b0382111761041d57604052565b601f909101601f19168101906001600160401b0382119082101761041d57604052565b51906001600160a01b038216820361048f57565b608051604051628bec5760e51b815290602090829060049082906001600160a01b03165afa908115610553575f9161051c575090565b90506020813d60201161054b575b81610537602093836104af565b8101031261048f57610548906104d2565b90565b3d915061052a565b6040513d5f823e3d90fdfe6080806040526004361015610012575f80fd5b5f905f3560e01c90816301e1d114146117865750806306fdde0314611757578063117d8ae01461172b57806313c408f8146116105780632db6d39914611359578063303dbaf3146113365780633194549e1461131857806332315972146112ef57806337270936146112c65780635b0f83f31461125457806361d027b3146111e257806361f5cd8b1461118e57806369b3054b14611129578063780469bb14610b1d57806379502c5514610a925780637aaceb9514610a0257806386651203146109ae5780638a8b99761461094f57806392f5e832146108e8578063ad5a356f146108ca578063ba3e9c12146108a1578063c38a6f0b14610656578063c3f909d414610527578063c9c667e3146104e2578063ce5c7f611461020b578063dbd5edc7146101ed578063ebf311311461017d5763fc0c546a14610152575f80fd5b3461017a578060031936011261017a576003546040516001600160a01b039091168152602090f35b80fd5b503461017a578060031936011261017a57610196611c23565b156101da576001600160601b0360a01b600154166001557f7cb941d7b1708e5b3bcd35ca960d6c6311188cec18886e5b67630552676b04876020604051338152a180f35b631564c0e160e11b815233600452602490fd5b503461017a578060031936011261017a576020600454604051908152f35b503461017a57602036600319011261017a5760043567ffffffffffffffff81116104de5761023d90369060040161182d565b9190604051628bec5760e51b8152602081600481305afa9081156104d35783916104a4575b506001600160a01b031633036104915761027a611cb6565b60409283516102898582611906565b60018152602083601f198701938436848601378751946102a98987611906565b60018652368487013781010312610489576102ce8551936102c9856118b9565b6118a5565b8084526001600160a01b03166102e382611b71565b52600a546009546001600160a01b039182169116813b1561048d5785916064839289519485938492635b81a7bf60e11b84526004840152306024840152600160448401525af1801561046a57908591610474575b5050825185516370a0823160e01b815230600482015290602090829060249082906001600160a01b03165afa90811561046a578591610432575b5061042e936103a69161038385611b71565b52516001600160a01b0316610396611abc565b61039f85611b71565b5191611d3c565b6103af81611ba6565b6103b883611be9565b907f3e3e7958121b3e39c7a49392d1aa9cdce870c2a059744f9e15cf66fff78654558680a36103e681611ba6565b936103f083611be9565b95519586957f3e3e7958121b3e39c7a49392d1aa9cdce870c2a059744f9e15cf66fff78654558380a35f516020611dd15f395f51905f525d83611940565b0390f35b90506020813d602011610462575b8161044d60209383611906565b8101031261045e575161042e610371565b5f80fd5b3d9150610440565b86513d87823e3d90fd5b8161047e91611906565b61048957835f610337565b8380fd5b8580fd5b631184b31b60e21b825233600452602482fd5b6104c6915060203d6020116104cc575b6104be8183611906565b810190611a9d565b5f610262565b503d6104b4565b6040513d85823e3d90fd5b5080fd5b503461017a578060031936011261017a576040517f00000000000000000000000000000000000000000000000000000000000000006001600160a01b03168152602090f35b503461017a578060031936011261017a5760e0604051610546816118e9565b8281528260208201528260408201528260608201528260808201528260a0820152606060c0820152015260405161057c816118e9565b6001546001600160a01b03908116825260025481166020830190815260035490911660408301908152600454606084019081526005546080850190815260065460a0860190815293949361064892916105d36119bb565b9260c0870193845260ff600854169560e08801961515875260405198899860208a5260018060a01b0390511660208a015260018060a01b03905116604089015260018060a01b0390511660608801525160808701525160a08601525160c08501525161010060e0850152610120840190611809565b905115156101008301520390f35b503461017a57608036600319011261017a5760043561067361188f565b9060443567ffffffffffffffff81116104895761069490369060040161182d565b909260643567ffffffffffffffff811161048d576106b690369060040161182d565b906106bf611c23565b1561088e57869392916106d191611ceb565b6009546003546001600160a01b039081169116803b1561088a5760405163f3fef3a360e01b81526001600160a01b039290921660048301526024820186905284908290604490829084905af190811561086a578491610875575b505060035460405163095ea7b360e01b81526001600160a01b038381166004830152602482018790529091602091839160449183918991165af1801561086a5761083d575b506001600160a01b031693843b1561082e5781606484926040519485938492632db6d39960e01b845289600485015260406024850152816044850152848401378181018301859052601f01601f1916810103018183885af1801561083257610819575b5050600354604080516001600160a01b039092168252602082019290925230917f9f784fc02a186f1c98b2d9f15fda084da27cdd291a3785d978f91911d880516b91a380f35b8161082391611906565b61082e57825f6107d3565b8280fd5b6040513d84823e3d90fd5b61085e9060203d602011610863575b6108568183611906565b810190611b27565b610770565b503d61084c565b6040513d86823e3d90fd5b8161087f91611906565b61082e57825f61072b565b8480fd5b631564c0e160e11b875233600452602487fd5b503461017a578060031936011261017a576009546040516001600160a01b039091168152602090f35b503461017a578060031936011261017a576020600654604051908152f35b503461017a57602036600319011261017a57600435610905611c23565b1561093c576020817fb6ac66853c4e59c71e118d25ab494bb847c4e5eb0c8894898c5343e6f61afc1292600655604051908152a180f35b631564c0e160e11b825233600452602482fd5b503461017a578060031936011261017a57610968611c23565b156101da57336001600160601b0360a01b60015416176001557f55489ce0259bd691120d8860861be1c401c7c16a3cd268d21045756af4ecc5ca6020604051338152a180f35b503461017a57602036600319011261017a576004356109cb611c23565b1561093c576020817f333b26cca69716ad4680ddb07663f5bfb4f06045671f336af9a83690a3ae00f992600455604051908152a180f35b503461017a578060031936011261017a57604051637aaceb9560e01b81526020816004817f00000000000000000000000000000000000000000000000000000000000000006001600160a01b03165afa9081156108325760209291610a75575b506040516001600160a01b039091168152f35b610a8c9150823d84116104cc576104be8183611906565b5f610a62565b503461017a578060031936011261017a576001546002546003546004546005546006546001600160a01b039485169585169490931692610b119291610ad56119bb565b9260ff60085416956040519889988952602089015260408801526060870152608086015260a085015261010060c0850152610100840190611809565b90151560e08301520390f35b503461017a57602036600319011261017a5760043567ffffffffffffffff81116104de57366023820112156104de57806004013590610b5b82611928565b91610b696040519384611906565b8083526024602084019160051b8301019136831161088a57602401905b828210611111575050604051628bec5760e51b81529050602081600481305afa9081156104d35783916110f2575b506001600160a01b0316330361049157610bcc611cb6565b610bd68151611b3f565b90610be18151611b3f565b6003546040516370a0823160e01b815230600482015291939185916001600160a01b031690602081602481855afa9081156104d35783916110bd575b50610ded575b505b8251811015610d945760249060206001600160a01b03610c458387611b92565b5116604051938480926370a0823160e01b82523060048301525afa918215610d89578692610d56575b5081610c7f575b6001915001610c25565b6001600160a01b03610c918286611b92565b5116916024610c9e611abc565b9360206001600160a01b03610cb3868a611b92565b5116604051938480926370a0823160e01b82523060048301525afa918215610d4b578992610d17575b5090600194610cea92611d3c565b828060a01b03610cfa8387611b92565b5116610d068386611b92565b52610d118287611b92565b52610c75565b91506020823d8211610d43575b81610d3160209383611906565b8101031261045e579051906001610cdc565b3d9150610d24565b6040513d8b823e3d90fd5b9091506020813d8211610d81575b81610d7160209383611906565b8101031261045e5751905f610c6e565b3d9150610d64565b6040513d88823e3d90fd5b848261042e86610da383611ba6565b92610dad82611be9565b946040519586957f46b8771620f6acf56cb03d3e835ea8024c7dcbcf05fcc3f6ade9e19d1a3e212b8380a35f516020611dd15f395f51905f525d83611940565b6001546040516330fe427560e21b815290608090829060049082906001600160a01b03165afa9081156104d3578391611022575b50516040516370a0823160e01b81523060048201526001600160a01b039091169190602081602481855afa90811561086a578491610fed575b5060405163095ea7b360e01b60208083019182526001600160a01b03861660248401526044808401949094529282529091908590610e99606485611906565b83519082865af184513d82610fd1575b505015610f8d575b50506003546040516370a0823160e01b815230600482015290602090829060249082906001600160a01b03165afa9081156104d3578391610f58575b50604051610efa816118b9565b838152823b1561048957610f3492849283604051809681958294632db6d39960e01b84526004840152604060248401526044830190611809565b03925af180156108325715610c235781610f4d91611906565b61048957835f610c23565b9250506020823d602011610f85575b81610f7460209383611906565b8101031261045e578591515f610eed565b3d9150610f67565b610fca91610fc560405163095ea7b360e01b602082015285602482015286604482015260448152610fbf606482611906565b82611d78565b611d78565b5f80610eb1565b909150610fe55750813b15155b5f80610ea9565b600114610fde565b9350506020833d60201161101a575b8161100960209383611906565b8101031261045e578692515f610e5a565b3d9150610ffc565b919250506080813d6080116110b5575b8161103f60809383611906565b8101031261048d57604051906080820182811067ffffffffffffffff8211176110a1576040528051879392916001600160a01b038216820361088a5760609183526020810151602084015260408101516040840152015160608201525f610e21565b634e487b7160e01b88526041600452602488fd5b3d9150611032565b9250506020823d6020116110ea575b816110d960209383611906565b8101031261045e578591515f610c1d565b3d91506110cc565b61110b915060203d6020116104cc576104be8183611906565b5f610bb4565b6020809161111e846118a5565b815201910190610b86565b503461017a57604036600319011261017a5760043560038110156104de5760209161115261188f565b9050604051908382019260f81b83526001600160601b03199060601b16602182015260158152611183603582611906565b519020604051908152f35b503461017a57602036600319011261017a576004356111ab611c23565b1561093c576020817ffbe2d5c01ea8ba5596d6c4e6c82c6d4a0a0ee1128689993a4a5ba0169273d69f92600555604051908152a180f35b503461017a578060031936011261017a576040516361d027b360e01b81526020816004817f00000000000000000000000000000000000000000000000000000000000000006001600160a01b03165afa9081156108325760209291610a7557506040516001600160a01b039091168152f35b503461017a578060031936011261017a57604051635b0f83f360e01b81526020816004817f00000000000000000000000000000000000000000000000000000000000000006001600160a01b03165afa9081156108325760209291610a7557506040516001600160a01b039091168152f35b503461017a578060031936011261017a576001546040516001600160a01b039091168152602090f35b503461017a578060031936011261017a57600a546040516001600160a01b039091168152602090f35b503461017a578060031936011261017a576020600554604051908152f35b503461017a578060031936011261017a57602060ff600854166040519015158152f35b503461017a576113683661185b565b90611371611cb6565b604051631b93849b60e11b8152602081600481305afa9081156115c75785916115f1575b5061139e611c23565b1561151f575b50906113af91611ceb565b6003546040516323b872dd60e01b6020820152336024820152306044820152606480820184905281526113f0916001600160a01b0316610fc5608483611906565b60035460095460405163095ea7b360e01b81526001600160a01b0391821660048201526024810184905291602091839160449183918891165af180156104d357611502575b5060095460035483916001600160a01b039182169116803b1561082e57604051631e573fb760e31b81526001600160a01b039290921660048301526024820184905282908290604490829084905af18015610832576114ed575b5050600354604080516001600160a01b039092168252602082019290925233917fcbaa1442ac205415c9d69643e7b60ec73d1de35dbc807c21ec288c70ddc4207b9190819081015b0390a2805f516020611dd15f395f51905f525d80f35b816114f791611906565b6104de57815f61148f565b61151a9060203d602011610863576108568183611906565b611435565b604051628bec5760e51b8152602081600481305afa908115610d895786916115d2575b506001600160a01b031633146113a45760405163d25dd10160e01b815233600482015290602090829060249082906001600160a01b03165afa9081156115c75785916115a8575b5015611595575f6113a4565b638f7a567d60e01b845233600452602484fd5b6115c1915060203d602011610863576108568183611906565b5f611589565b6040513d87823e3d90fd5b6115eb915060203d6020116104cc576104be8183611906565b5f611542565b61160a915060203d6020116104cc576104be8183611906565b5f611395565b503461045e5761161f3661185b565b611627611c23565b156117185761163d91611638611cb6565b611ceb565b6009546003546001600160a01b039081169116803b1561045e5760405163f3fef3a360e01b81526001600160a01b03929092166004830152602482018390525f908290604490829084905af1801561170d576116f8575b506003546116ae90829033906001600160a01b0316611d3c565b600354604080516001600160a01b039092168252602082019290925233917fd5e872c5ecfb1bb8820b2e6a20e31b883682282da886621541f71e31ec11947e9190819081016114d7565b6117059192505f90611906565b5f905f611694565b6040513d5f823e3d90fd5b631564c0e160e11b5f523360045260245ffd5b3461045e575f36600319011261045e576020611745611abc565b6040516001600160a01b039091168152f35b3461045e575f36600319011261045e5761042e6117726119bb565b604051918291602083526020830190611809565b3461045e575f36600319011261045e576009546370a0823160e01b8252306004830152602090829060249082906001600160a01b03165afa801561170d575f906117d6575b602090604051908152f35b506020813d602011611801575b816117f060209383611906565b8101031261045e57602090516117cb565b3d91506117e3565b805180835260209291819084018484015e5f828201840152601f01601f1916010190565b9181601f8401121561045e5782359167ffffffffffffffff831161045e576020838186019501011161045e57565b90604060031983011261045e57600435916024359067ffffffffffffffff821161045e5761188b9160040161182d565b9091565b602435906001600160a01b038216820361045e57565b35906001600160a01b038216820361045e57565b6020810190811067ffffffffffffffff8211176118d557604052565b634e487b7160e01b5f52604160045260245ffd5b610100810190811067ffffffffffffffff8211176118d557604052565b90601f8019910116810190811067ffffffffffffffff8211176118d557604052565b67ffffffffffffffff81116118d55760051b60200190565b604081016040825282518091526020606083019301905f5b81811061199c575050506020818303910152602080835192838152019201905f5b8181106119865750505090565b8251845260209384019390920191600101611979565b82516001600160a01b0316855260209485019490920191600101611958565b604051905f6007548060011c9160018216918215611a93575b602084108314611a7f578386528592908115611a605750600114611a01575b6119ff92500383611906565b565b5060075f90815290917fa66cc928b5edb82af9bd49922954155ab7b0942694bea4ce44661d9a8736c6885b818310611a445750509060206119ff928201016119f3565b6020919350806001915483858901015201910190918492611a2c565b602092506119ff94915060ff191682840152151560051b8201016119f3565b634e487b7160e01b5f52602260045260245ffd5b92607f16926119d4565b9081602091031261045e57516001600160a01b038116810361045e5790565b604051628bec5760e51b81526020816004817f00000000000000000000000000000000000000000000000000000000000000006001600160a01b03165afa90811561170d575f91611b0b575090565b611b24915060203d6020116104cc576104be8183611906565b90565b9081602091031261045e5751801515810361045e5790565b90611b4982611928565b611b566040519182611906565b8281528092611b67601f1991611928565b0190602036910137565b805115611b7e5760200190565b634e487b7160e01b5f52603260045260245ffd5b8051821015611b7e5760209160051b010190565b6040518091829160208251919201905f5b818110611bc75750505003902090565b82516001600160a01b0316845285945060209384019390920191600101611bb7565b6040518091829160208251919201905f5b818110611c0a5750505003902090565b8251845285945060209384019390920191600101611bfa565b5f54604051600160f91b60208083019182526bffffffffffffffffffffffff193060601b166021840152601583526001600160a01b039093169291611c69603582611906565b519020604460405180948193632474521560e21b835260048301523360248301525afa90811561170d575f91611c9d575090565b611b24915060203d602011610863576108568183611906565b5f516020611dd15f395f51905f525c611cdc5760015f516020611dd15f395f51905f525d565b633ee5aeb560e01b5f5260045ffd5b5015801580611d2f575b611d205780611d14575b611d0557565b63332863a960e11b5f5260045ffd5b5060ff60085416611cff565b630cd0fdf960e01b5f5260045ffd5b5060ff6008541615611cf5565b60405163a9059cbb60e01b60208201526001600160a01b039290921660248301526044808301939093529181526119ff91610fc5606483611906565b905f602091828151910182855af11561170d575f513d611dc757506001600160a01b0381163b155b611da75750565b635274afe760e01b5f9081526001600160a01b0391909116600452602490fd5b60011415611da056fe9b779b17422d0df92223018b32b4d1fa46e071723d6817e2486d003becc55f00a26469706673582212209081d457ff6b51600f002e0c8f278f93fa0da70550ada75ecd964e88280a3e3564736f6c634300081b0033",
  "linkReferences": {},
  "deployedLinkReferences": {}
}