{
  "_format": "hh-sol-artifact-1",
  "contractName": "Raft",
  "sourceName": "src/contracts/Raft.sol",
  "abi": [
    {
      "inputs": [
        {
          "internalType": "address",
          "name": "_accessManager",
          "type": "address"
        },
        {
          "components": [
            {
              "internalType": "uint40",
              "name": "duration",
              "type": "uint40"
            },
            {
              "internalType": "uint256",
              "name": "startPrice",
              "type": "uint256"
            },
            {
              "internalType": "uint256",
              "name": "endPrice",
              "type": "uint256"
            },
            {
              "internalType": "Percentage",
              "name": "kickerRewardPercentage",
              "type": "uint256"
            },
            {
              "internalType": "enum DecayFunctions.DecayType",
              "name": "decayType",
              "type": "uint8"
            }
          ],
          "internalType": "struct AuctionDefaultParameters",
          "name": "defaultParameters",
          "type": "tuple"
        }
      ],
      "stateMutability": "nonpayable",
      "type": "constructor"
    },
    {
      "inputs": [
        {
          "internalType": "uint256",
          "name": "auctionId",
          "type": "uint256"
        }
      ],
      "name": "AuctionAlreadyFinalized",
      "type": "error"
    },
    {
      "inputs": [
        {
          "internalType": "uint256",
          "name": "auctionId",
          "type": "uint256"
        }
      ],
      "name": "AuctionNotActive",
      "type": "error"
    },
    {
      "inputs": [
        {
          "internalType": "uint256",
          "name": "auctionId",
          "type": "uint256"
        }
      ],
      "name": "AuctionNotEnded",
      "type": "error"
    },
    {
      "inputs": [],
      "name": "AuctionNotFound",
      "type": "error"
    },
    {
      "inputs": [
        {
          "internalType": "address",
          "name": "caller",
          "type": "address"
        }
      ],
      "name": "CallerIsNotAdmin",
      "type": "error"
    },
    {
      "inputs": [
        {
          "internalType": "address",
          "name": "caller",
          "type": "address"
        }
      ],
      "name": "CallerIsNotAuthorizedToBoard",
      "type": "error"
    },
    {
      "inputs": [
        {
          "internalType": "address",
          "name": "caller",
          "type": "address"
        }
      ],
      "name": "CallerIsNotCommander",
      "type": "error"
    },
    {
      "inputs": [
        {
          "internalType": "address",
          "name": "caller",
          "type": "address"
        },
        {
          "internalType": "bytes32",
          "name": "role",
          "type": "bytes32"
        }
      ],
      "name": "CallerIsNotContractSpecificRole",
      "type": "error"
    },
    {
      "inputs": [
        {
          "internalType": "address",
          "name": "caller",
          "type": "address"
        }
      ],
      "name": "CallerIsNotCurator",
      "type": "error"
    },
    {
      "inputs": [
        {
          "internalType": "address",
          "name": "caller",
          "type": "address"
        }
      ],
      "name": "CallerIsNotDecayController",
      "type": "error"
    },
    {
      "inputs": [
        {
          "internalType": "address",
          "name": "caller",
          "type": "address"
        }
      ],
      "name": "CallerIsNotGovernor",
      "type": "error"
    },
    {
      "inputs": [
        {
          "internalType": "address",
          "name": "caller",
          "type": "address"
        }
      ],
      "name": "CallerIsNotGuardian",
      "type": "error"
    },
    {
      "inputs": [
        {
          "internalType": "address",
          "name": "caller",
          "type": "address"
        }
      ],
      "name": "CallerIsNotGuardianOrGovernor",
      "type": "error"
    },
    {
      "inputs": [
        {
          "internalType": "address",
          "name": "caller",
          "type": "address"
        }
      ],
      "name": "CallerIsNotKeeper",
      "type": "error"
    },
    {
      "inputs": [
        {
          "internalType": "address",
          "name": "caller",
          "type": "address"
        }
      ],
      "name": "CallerIsNotRaft",
      "type": "error"
    },
    {
      "inputs": [
        {
          "internalType": "address",
          "name": "caller",
          "type": "address"
        }
      ],
      "name": "CallerIsNotRaftOrCommander",
      "type": "error"
    },
    {
      "inputs": [
        {
          "internalType": "address",
          "name": "caller",
          "type": "address"
        }
      ],
      "name": "CallerIsNotSuperKeeper",
      "type": "error"
    },
    {
      "inputs": [
        {
          "internalType": "address",
          "name": "caller",
          "type": "address"
        }
      ],
      "name": "DirectGrantIsDisabled",
      "type": "error"
    },
    {
      "inputs": [
        {
          "internalType": "address",
          "name": "caller",
          "type": "address"
        }
      ],
      "name": "DirectRevokeIsDisabled",
      "type": "error"
    },
    {
      "inputs": [],
      "name": "InsufficientTokensAvailable",
      "type": "error"
    },
    {
      "inputs": [
        {
          "internalType": "address",
          "name": "invalidAddress",
          "type": "address"
        }
      ],
      "name": "InvalidAccessManagerAddress",
      "type": "error"
    },
    {
      "inputs": [],
      "name": "InvalidDecayType",
      "type": "error"
    },
    {
      "inputs": [
        {
          "internalType": "uint256",
          "name": "x",
          "type": "uint256"
        },
        {
          "internalType": "uint256",
          "name": "y",
          "type": "uint256"
        }
      ],
      "name": "PRBMath_MulDiv18_Overflow",
      "type": "error"
    },
    {
      "inputs": [
        {
          "internalType": "uint256",
          "name": "x",
          "type": "uint256"
        },
        {
          "internalType": "uint256",
          "name": "y",
          "type": "uint256"
        },
        {
          "internalType": "uint256",
          "name": "denominator",
          "type": "uint256"
        }
      ],
      "name": "PRBMath_MulDiv_Overflow",
      "type": "error"
    },
    {
      "inputs": [
        {
          "internalType": "uint256",
          "name": "x",
          "type": "uint256"
        }
      ],
      "name": "PRBMath_UD60x18_Convert_Overflow",
      "type": "error"
    },
    {
      "inputs": [
        {
          "internalType": "address",
          "name": "ark",
          "type": "address"
        }
      ],
      "name": "RaftArkDoesntRequireKeeperData",
      "type": "error"
    },
    {
      "inputs": [
        {
          "internalType": "address",
          "name": "ark",
          "type": "address"
        }
      ],
      "name": "RaftArkRequiresKeeperData",
      "type": "error"
    },
    {
      "inputs": [
        {
          "internalType": "address",
          "name": "ark",
          "type": "address"
        },
        {
          "internalType": "address",
          "name": "rewardToken",
          "type": "address"
        }
      ],
      "name": "RaftAuctionAlreadyRunning",
      "type": "error"
    },
    {
      "inputs": [
        {
          "internalType": "address",
          "name": "token",
          "type": "address"
        }
      ],
      "name": "SafeERC20FailedOperation",
      "type": "error"
    },
    {
      "anonymous": false,
      "inputs": [
        {
          "indexed": true,
          "internalType": "address",
          "name": "ark",
          "type": "address"
        },
        {
          "indexed": true,
          "internalType": "address[]",
          "name": "rewardTokens",
          "type": "address[]"
        },
        {
          "indexed": true,
          "internalType": "uint256[]",
          "name": "rewardAmounts",
          "type": "uint256[]"
        }
      ],
      "name": "ArkHarvested",
      "type": "event"
    },
    {
      "anonymous": false,
      "inputs": [
        {
          "indexed": false,
          "internalType": "uint256",
          "name": "auctionId",
          "type": "uint256"
        },
        {
          "indexed": false,
          "internalType": "address",
          "name": "ark",
          "type": "address"
        },
        {
          "indexed": false,
          "internalType": "address",
          "name": "rewardToken",
          "type": "address"
        },
        {
          "indexed": false,
          "internalType": "uint256",
          "name": "amount",
          "type": "uint256"
        }
      ],
      "name": "ArkRewardTokenAuctionStarted",
      "type": "event"
    },
    {
      "anonymous": false,
      "inputs": [
        {
          "components": [
            {
              "internalType": "uint40",
              "name": "duration",
              "type": "uint40"
            },
            {
              "internalType": "uint256",
              "name": "startPrice",
              "type": "uint256"
            },
            {
              "internalType": "uint256",
              "name": "endPrice",
              "type": "uint256"
            },
            {
              "internalType": "Percentage",
              "name": "kickerRewardPercentage",
              "type": "uint256"
            },
            {
              "internalType": "enum DecayFunctions.DecayType",
              "name": "decayType",
              "type": "uint8"
            }
          ],
          "indexed": false,
          "internalType": "struct AuctionDefaultParameters",
          "name": "newConfig",
          "type": "tuple"
        }
      ],
      "name": "AuctionDefaultParametersUpdated",
      "type": "event"
    },
    {
      "anonymous": false,
      "inputs": [
        {
          "indexed": true,
          "internalType": "uint256",
          "name": "auctionId",
          "type": "uint256"
        },
        {
          "indexed": false,
          "internalType": "uint256",
          "name": "soldTokens",
          "type": "uint256"
        },
        {
          "indexed": false,
          "internalType": "uint256",
          "name": "unsoldTokens",
          "type": "uint256"
        }
      ],
      "name": "AuctionFinalized",
      "type": "event"
    },
    {
      "anonymous": false,
      "inputs": [
        {
          "indexed": true,
          "internalType": "address",
          "name": "ark",
          "type": "address"
        },
        {
          "indexed": true,
          "internalType": "address",
          "name": "fromRewardToken",
          "type": "address"
        },
        {
          "indexed": true,
          "internalType": "address",
          "name": "toFleetToken",
          "type": "address"
        },
        {
          "indexed": false,
          "internalType": "uint256",
          "name": "amountReboarded",
          "type": "uint256"
        }
      ],
      "name": "RewardBoarded",
      "type": "event"
    },
    {
      "anonymous": false,
      "inputs": [
        {
          "indexed": true,
          "internalType": "uint256",
          "name": "auctionId",
          "type": "uint256"
        },
        {
          "indexed": true,
          "internalType": "address",
          "name": "buyer",
          "type": "address"
        },
        {
          "indexed": false,
          "internalType": "uint256",
          "name": "amount",
          "type": "uint256"
        },
        {
          "indexed": false,
          "internalType": "uint256",
          "name": "price",
          "type": "uint256"
        }
      ],
      "name": "TokensPurchased",
      "type": "event"
    },
    {
      "inputs": [],
      "name": "auctionDefaultParameters",
      "outputs": [
        {
          "internalType": "uint40",
          "name": "duration",
          "type": "uint40"
        },
        {
          "internalType": "uint256",
          "name": "startPrice",
          "type": "uint256"
        },
        {
          "internalType": "uint256",
          "name": "endPrice",
          "type": "uint256"
        },
        {
          "internalType": "Percentage",
          "name": "kickerRewardPercentage",
          "type": "uint256"
        },
        {
          "internalType": "enum DecayFunctions.DecayType",
          "name": "decayType",
          "type": "uint8"
        }
      ],
      "stateMutability": "view",
      "type": "function"
    },
    {
      "inputs": [
        {
          "internalType": "address",
          "name": "ark",
          "type": "address"
        },
        {
          "internalType": "address",
          "name": "rewardToken",
          "type": "address"
        }
      ],
      "name": "auctions",
      "outputs": [
        {
          "components": [
            {
              "internalType": "contract IERC20",
              "name": "auctionToken",
              "type": "address"
            },
            {
              "internalType": "contract IERC20",
              "name": "paymentToken",
              "type": "address"
            },
            {
              "internalType": "uint40",
              "name": "startTime",
              "type": "uint40"
            },
            {
              "internalType": "uint40",
              "name": "endTime",
              "type": "uint40"
            },
            {
              "internalType": "uint8",
              "name": "auctionTokenDecimals",
              "type": "uint8"
            },
            {
              "internalType": "uint8",
              "name": "paymentTokenDecimals",
              "type": "uint8"
            },
            {
              "internalType": "address",
              "name": "auctionKicker",
              "type": "address"
            },
            {
              "internalType": "address",
              "name": "unsoldTokensRecipient",
              "type": "address"
            },
            {
              "internalType": "uint40",
              "name": "id",
              "type": "uint40"
            },
            {
              "internalType": "enum DecayFunctions.DecayType",
              "name": "decayType",
              "type": "uint8"
            },
            {
              "internalType": "uint256",
              "name": "startPrice",
              "type": "uint256"
            },
            {
              "internalType": "uint256",
              "name": "endPrice",
              "type": "uint256"
            },
            {
              "internalType": "uint256",
              "name": "totalTokens",
              "type": "uint256"
            },
            {
              "internalType": "uint256",
              "name": "kickerRewardAmount",
              "type": "uint256"
            }
          ],
          "internalType": "struct DutchAuctionLibrary.AuctionConfig",
          "name": "config",
          "type": "tuple"
        },
        {
          "components": [
            {
              "internalType": "uint256",
              "name": "remainingTokens",
              "type": "uint256"
            },
            {
              "internalType": "bool",
              "name": "isFinalized",
              "type": "bool"
            }
          ],
          "internalType": "struct DutchAuctionLibrary.AuctionState",
          "name": "state",
          "type": "tuple"
        }
      ],
      "stateMutability": "view",
      "type": "function"
    },
    {
      "inputs": [
        {
          "internalType": "address",
          "name": "ark",
          "type": "address"
        },
        {
          "internalType": "address",
          "name": "rewardToken",
          "type": "address"
        },
        {
          "internalType": "bytes",
          "name": "data",
          "type": "bytes"
        }
      ],
      "name": "board",
      "outputs": [],
      "stateMutability": "nonpayable",
      "type": "function"
    },
    {
      "inputs": [
        {
          "internalType": "address",
          "name": "ark",
          "type": "address"
        },
        {
          "internalType": "address",
          "name": "rewardToken",
          "type": "address"
        },
        {
          "internalType": "uint256",
          "name": "amount",
          "type": "uint256"
        }
      ],
      "name": "buyTokens",
      "outputs": [
        {
          "internalType": "uint256",
          "name": "paymentAmount",
          "type": "uint256"
        }
      ],
      "stateMutability": "nonpayable",
      "type": "function"
    },
    {
      "inputs": [
        {
          "internalType": "address",
          "name": "ark",
          "type": "address"
        },
        {
          "internalType": "address",
          "name": "rewardToken",
          "type": "address"
        }
      ],
      "name": "finalizeAuction",
      "outputs": [],
      "stateMutability": "nonpayable",
      "type": "function"
    },
    {
      "inputs": [
        {
          "internalType": "enum ContractSpecificRoles",
          "name": "roleName",
          "type": "uint8"
        },
        {
          "internalType": "address",
          "name": "roleTargetContract",
          "type": "address"
        }
      ],
      "name": "generateRole",
      "outputs": [
        {
          "internalType": "bytes32",
          "name": "",
          "type": "bytes32"
        }
      ],
      "stateMutability": "pure",
      "type": "function"
    },
    {
      "inputs": [
        {
          "internalType": "address",
          "name": "ark",
          "type": "address"
        },
        {
          "internalType": "address",
          "name": "rewardToken",
          "type": "address"
        }
      ],
      "name": "getAuctionInfo",
      "outputs": [
        {
          "components": [
            {
              "components": [
                {
                  "internalType": "contract IERC20",
                  "name": "auctionToken",
                  "type": "address"
                },
                {
                  "internalType": "contract IERC20",
                  "name": "paymentToken",
                  "type": "address"
                },
                {
                  "internalType": "uint40",
                  "name": "startTime",
                  "type": "uint40"
                },
                {
                  "internalType": "uint40",
                  "name": "endTime",
                  "type": "uint40"
                },
                {
                  "internalType": "uint8",
                  "name": "auctionTokenDecimals",
                  "type": "uint8"
                },
                {
                  "internalType": "uint8",
                  "name": "paymentTokenDecimals",
                  "type": "uint8"
                },
                {
                  "internalType": "address",
                  "name": "auctionKicker",
                  "type": "address"
                },
                {
                  "internalType": "address",
                  "name": "unsoldTokensRecipient",
                  "type": "address"
                },
                {
                  "internalType": "uint40",
                  "name": "id",
                  "type": "uint40"
                },
                {
                  "internalType": "enum DecayFunctions.DecayType",
                  "name": "decayType",
                  "type": "uint8"
                },
                {
                  "internalType": "uint256",
                  "name": "startPrice",
                  "type": "uint256"
                },
                {
                  "internalType": "uint256",
                  "name": "endPrice",
                  "type": "uint256"
                },
                {
                  "internalType": "uint256",
                  "name": "totalTokens",
                  "type": "uint256"
                },
                {
                  "internalType": "uint256",
                  "name": "kickerRewardAmount",
                  "type": "uint256"
                }
              ],
              "internalType": "struct DutchAuctionLibrary.AuctionConfig",
              "name": "config",
              "type": "tuple"
            },
            {
              "components": [
                {
                  "internalType": "uint256",
                  "name": "remainingTokens",
                  "type": "uint256"
                },
                {
                  "internalType": "bool",
                  "name": "isFinalized",
                  "type": "bool"
                }
              ],
              "internalType": "struct DutchAuctionLibrary.AuctionState",
              "name": "state",
              "type": "tuple"
            }
          ],
          "internalType": "struct DutchAuctionLibrary.Auction",
          "name": "",
          "type": "tuple"
        }
      ],
      "stateMutability": "view",
      "type": "function"
    },
    {
      "inputs": [
        {
          "internalType": "address",
          "name": "ark",
          "type": "address"
        },
        {
          "internalType": "address",
          "name": "rewardToken",
          "type": "address"
        }
      ],
      "name": "getCurrentPrice",
      "outputs": [
        {
          "internalType": "uint256",
          "name": "",
          "type": "uint256"
        }
      ],
      "stateMutability": "view",
      "type": "function"
    },
    {
      "inputs": [
        {
          "internalType": "address",
          "name": "ark",
          "type": "address"
        },
        {
          "internalType": "address",
          "name": "rewardToken",
          "type": "address"
        }
      ],
      "name": "getObtainedTokens",
      "outputs": [
        {
          "internalType": "uint256",
          "name": "",
          "type": "uint256"
        }
      ],
      "stateMutability": "view",
      "type": "function"
    },
    {
      "inputs": [
        {
          "internalType": "address",
          "name": "ark",
          "type": "address"
        },
        {
          "internalType": "bytes",
          "name": "rewardData",
          "type": "bytes"
        }
      ],
      "name": "harvest",
      "outputs": [],
      "stateMutability": "nonpayable",
      "type": "function"
    },
    {
      "inputs": [
        {
          "internalType": "address",
          "name": "ark",
          "type": "address"
        },
        {
          "internalType": "address",
          "name": "paymentToken",
          "type": "address"
        },
        {
          "internalType": "bytes",
          "name": "rewardData",
          "type": "bytes"
        }
      ],
      "name": "harvestAndStartAuction",
      "outputs": [],
      "stateMutability": "nonpayable",
      "type": "function"
    },
    {
      "inputs": [
        {
          "internalType": "address",
          "name": "account",
          "type": "address"
        }
      ],
      "name": "hasAdmiralsQuartersRole",
      "outputs": [
        {
          "internalType": "bool",
          "name": "",
          "type": "bool"
        }
      ],
      "stateMutability": "view",
      "type": "function"
    },
    {
      "inputs": [],
      "name": "nextAuctionId",
      "outputs": [
        {
          "internalType": "uint256",
          "name": "",
          "type": "uint256"
        }
      ],
      "stateMutability": "view",
      "type": "function"
    },
    {
      "inputs": [
        {
          "internalType": "address",
          "name": "ark",
          "type": "address"
        },
        {
          "internalType": "address",
          "name": "rewardToken",
          "type": "address"
        }
      ],
      "name": "obtainedTokens",
      "outputs": [
        {
          "internalType": "uint256",
          "name": "harvestedAmount",
          "type": "uint256"
        }
      ],
      "stateMutability": "view",
      "type": "function"
    },
    {
      "inputs": [
        {
          "internalType": "address",
          "name": "ark",
          "type": "address"
        },
        {
          "internalType": "address",
          "name": "rewardToken",
          "type": "address"
        }
      ],
      "name": "paymentTokensToBoard",
      "outputs": [
        {
          "internalType": "uint256",
          "name": "paymentTokensToBoard",
          "type": "uint256"
        }
      ],
      "stateMutability": "view",
      "type": "function"
    },
    {
      "inputs": [
        {
          "internalType": "address",
          "name": "ark",
          "type": "address"
        },
        {
          "internalType": "address",
          "name": "rewardToken",
          "type": "address"
        },
        {
          "internalType": "address",
          "name": "paymentToken",
          "type": "address"
        }
      ],
      "name": "startAuction",
      "outputs": [],
      "stateMutability": "nonpayable",
      "type": "function"
    },
    {
      "inputs": [
        {
          "internalType": "address",
          "name": "ark",
          "type": "address"
        },
        {
          "internalType": "address[]",
          "name": "tokens",
          "type": "address[]"
        }
      ],
      "name": "sweep",
      "outputs": [
        {
          "internalType": "address[]",
          "name": "sweptTokens",
          "type": "address[]"
        },
        {
          "internalType": "uint256[]",
          "name": "sweptAmounts",
          "type": "uint256[]"
        }
      ],
      "stateMutability": "nonpayable",
      "type": "function"
    },
    {
      "inputs": [
        {
          "internalType": "address",
          "name": "ark",
          "type": "address"
        },
        {
          "internalType": "address[]",
          "name": "tokens",
          "type": "address[]"
        },
        {
          "internalType": "address",
          "name": "paymentToken",
          "type": "address"
        }
      ],
      "name": "sweepAndStartAuction",
      "outputs": [],
      "stateMutability": "nonpayable",
      "type": "function"
    },
    {
      "inputs": [
        {
          "internalType": "address",
          "name": "ark",
          "type": "address"
        },
        {
          "internalType": "address",
          "name": "rewardToken",
          "type": "address"
        }
      ],
      "name": "unsoldTokens",
      "outputs": [
        {
          "internalType": "uint256",
          "name": "remainingTokens",
          "type": "uint256"
        }
      ],
      "stateMutability": "view",
      "type": "function"
    },
    {
      "inputs": [
        {
          "components": [
            {
              "internalType": "uint40",
              "name": "duration",
              "type": "uint40"
            },
            {
              "internalType": "uint256",
              "name": "startPrice",
              "type": "uint256"
            },
            {
              "internalType": "uint256",
              "name": "endPrice",
              "type": "uint256"
            },
            {
              "internalType": "Percentage",
              "name": "kickerRewardPercentage",
              "type": "uint256"
            },
            {
              "internalType": "enum DecayFunctions.DecayType",
              "name": "decayType",
              "type": "uint8"
            }
          ],
          "internalType": "struct AuctionDefaultParameters",
          "name": "newConfig",
          "type": "tuple"
        }
      ],
      "name": "updateAuctionDefaultParameters",
      "outputs": [],
      "stateMutability": "nonpayable",
      "type": "function"
    }
  ],
  "bytecode": "0x608080604052346101a85780612933803803809161001d82856101e6565b83398101039060c082126101a85780516001600160a01b03811692908390036101a85760a090601f1901126101a85760405160a081016001600160401b038111828210176101d257604052602082015164ffffffffff811681036101a85781526040820151602082019081526060830151916040810192835260a06080850151946060830195865201519460028610156101a8576080820195865280156101bf576040516301ffc9a760e01b81526338c7ccdb60e01b6004820152602081602481855afa9081156101b4575f91610175575b5015610163579064ffffffffff9160018060a01b03195f5416175f55511664ffffffffff19600154161760015551600255516003555160045551600281101561014f5760ff801960055416911617600555604051612729908161020a8239f35b634e487b7160e01b5f52602160045260245ffd5b6347bd7c1d60e01b5f5260045260245ffd5b90506020813d6020116101ac575b81610190602093836101e6565b810103126101a8575180151581036101a8575f6100ef565b5f80fd5b3d9150610183565b6040513d5f823e3d90fd5b6347bd7c1d60e01b5f525f60045260245ffd5b634e487b7160e01b5f52604160045260245ffd5b601f909101601f19168101906001600160401b038211908210176101d25760405256fe60806040526004361015610011575f80fd5b5f3560e01c806318242941146110005780633beef0ce14610fb0578063672d226414610f3857806369b3054b14610ed75780636e91edf8146100f55780637399bfe814610e955780638a179be414610dca5780638dc385a314610c01578063953790b114610af55780639b05e3c314610a2b578063a11a91211461089d578063a30215e11461084d578063b3924cd0146107c6578063c2f8b52614610775578063d526b80b14610638578063db16a55514610547578063dcefa53814610271578063ebc136d014610166578063fc528482146101495763fe7f25b4146100f5575f80fd5b346101455760403660031901126101455761010e611085565b61011661109b565b6001600160a01b039182165f908152600760209081526040808320949093168252928352819020549051908152f35b5f80fd5b34610145575f366003190112610145576020600654604051908152f35b346101455760203660031901126101455761017f611085565b5f5460405163a89f38a360e01b81526001600160a01b039091169190602081600481865afa908115610230575f9161023b575b50604051632474521560e21b8152926020928492839182916101d89190600484016113f0565b03915afa8015610230575f906101f6575b6020906040519015158152f35b506020813d602011610228575b816102106020938361110a565b81010312610145576102236020916113e3565b6101e9565b3d9150610203565b6040513d5f823e3d90fd5b9190506020823d602011610269575b816102576020938361110a565b810103126101455790516101d86101b2565b3d915061024a565b346101455760603660031901126101455761028a611085565b61029261109b565b6001600160a01b038281165f818152600860209081526040808320858716845290915290208054919460443594919390921615610538576008830160ff6009850154166105175760018401549564ffffffffff8760c81c164210156104f6578154958681116104e75761030486611409565b9761031b64ffffffffff60408b51015116426121f2565b98805164ffffffffff6040816060840151169201511690039964ffffffffff8b116104d357610120825101519160028310156104bf5760209b6103fd936103829364ffffffffff935161014081015160ff60a06101608401519301511695869516936122f0565b916103bc846103b68360f81c6103b161039b8289612449565b6103ab60ff8860f01c1686612449565b9061251a565b612491565b9b6121f2565b86556040516323b872dd60e01b8c82015233602482015230604482015260648082018c90528152906103ef60848361110a565b6001600160a01b03166124c2565b865461041590839033906001600160a01b03166122af565b64ffffffffff600388015460a01c1690604051928352898301527fe8d7e55108ae7ddb60173461d2950c7a8e22a7ac7f442825564fe84c8c6f9a3860403393a38154156104b1575b5f52600a865260405f2060018060a01b0383165f52865260405f206104838682546114c3565b90555415610497575b505050604051908152f35b6104a36104a993611409565b91612132565b82808061048c565b6104ba8561221f565b61045d565b634e487b7160e01b5f52602160045260245ffd5b634e487b7160e01b5f52601160045260245ffd5b632783839d60e01b5f5260045ffd5b64ffffffffff600386015460a01c1663aff5aad960e01b5f5260045260245ffd5b64ffffffffff600385015460a01c1663d9e3dd8360e01b5f5260045260245ffd5b6307145c5f60e11b5f5260045ffd5b3461014557604036600319011261014557610560611085565b61056861109b565b9060018060a01b03165f52600860205260405f209060018060a01b03165f5260205261059660405f20611409565b6105cf6020604051926370d8532160e11b84526105b7600485018251611233565b015180516101c48401526020015115156101e4830152565b6020816102048173__$ac6d8f54a114e2a8b8822b9ba237b4b369$__5af48015610230575f90610605575b602090604051908152f35b506020813d602011610630575b8161061f6020938361110a565b8101031261014557602090516105fa565b3d9150610612565b346101455761064636611365565b5f54604051630ccc574960e41b81526001600160a01b0390911690602081600481855afa908115610230575f91610741575b5060209061069d926040518080958194632474521560e21b83523390600484016113f0565b03915afa908115610230575f91610707575b50156106f4576106bf9184611d91565b505f5b81518110156106f2576001906106ec846001600160a01b036106e484876113bb565b51168761180a565b016106c2565b005b630ea7d7ed60e21b5f523360045260245ffd5b90506020813d602011610739575b816107226020938361110a565b8101031261014557610733906113e3565b856106af565b3d9150610715565b90506020813d60201161076d575b8161075c6020938361110a565b81010312610145575161069d610678565b3d915061074f565b34610145575f3660031901126101455760a064ffffffffff600154166107c46002546003546004549060ff60055416926040519586526020860152604085015260608401526080830190611226565bf35b34610145576040366003190112610145576107df611085565b6107e761109b565b906107f0611435565b5060018060a01b03165f52600860205260405f209060018060a01b03165f5260205261020061082160405f20611409565b6107c4602060405192610835848251611233565b015180516101c08401526020015115156101e0830152565b3461014557604036600319011261014557610866611085565b61086e61109b565b6001600160a01b039182165f908152600a60209081526040808320949093168252928352819020549051908152f35b346101455760a0366003190112610145575f54604051630ccc574960e41b81526001600160a01b0390911690602081600481855afa908115610230575f916109f7575b50602090610905926040518080958194632474521560e21b83523390600484016113f0565b03915afa908115610230575f916109bd575b50156106f45760043564ffffffffff8116809103610145578064ffffffffff1960015416176001556024359081600255604435908160035560643592836004556084356002811015610145577fe9d5a90069e830741fa6df4fbb146dc3c0918e85d57eb372c70e743198179c799460a0946109ba9360ff196005541660ff8516176005556040519586526020860152604085015260608401526080830190611226565ba1005b90506020813d6020116109ef575b816109d86020938361110a565b81010312610145576109e9906113e3565b81610917565b3d91506109cb565b90506020813d602011610a23575b81610a126020938361110a565b8101031261014557516109056108e0565b3d9150610a05565b3461014557604036600319011261014557610a44611085565b610a4c61109b565b6001600160a01b038083165f9081526008602090815260408083208486168452909152902080549093929116156105385760ff600984015416610ad45764ffffffffff600184015460c81c164210610ab3576104a383610aae6106f29561221f565b611409565b64ffffffffff600384015460a01c1663e30e8d4760e01b5f5260045260245ffd5b64ffffffffff600384015460a01c1663d9e3dd8360e01b5f5260045260245ffd5b3461014557606036600319011261014557610b0e611085565b610b1661109b565b610b1e6110b1565b9060018060a01b035f5416604051630ccc574960e41b8152602081600481855afa908115610230575f91610bcd575b50602090610b72926040518080958194632474521560e21b83523390600484016113f0565b03915afa908115610230575f91610b93575b50156106f4576106f29261180a565b90506020813d602011610bc5575b81610bae6020938361110a565b8101031261014557610bbf906113e3565b84610b84565b3d9150610ba1565b90506020813d602011610bf9575b81610be86020938361110a565b810103126101455751610b72610b4d565b3d9150610bdb565b3461014557610c0f36611365565b9160018060a09593951b035f5416604051630ccc574960e41b8152602081600481855afa908115610230575f91610d96575b50602090610c66926040518080958194632474521560e21b83523390600484016113f0565b03915afa908115610230575f91610d5c575b50156106f45760405163303dbaf360e01b81526001600160a01b03831690602081600481855afa908115610230575f91610d22575b5015610d1057506001600160401b038311610cfc5760405192610cda601f8201601f19166020018561110a565b8084523681860111610145576020815f926106f2978388013785010152611f11565b634e487b7160e01b5f52604160045260245ffd5b63b616b3c160e01b5f5260045260245ffd5b90506020813d602011610d54575b81610d3d6020938361110a565b8101031261014557610d4e906113e3565b86610cad565b3d9150610d30565b90506020813d602011610d8e575b81610d776020938361110a565b8101031261014557610d88906113e3565b85610c78565b3d9150610d6a565b90506020813d602011610dc2575b81610db16020938361110a565b810103126101455751610c66610c41565b3d9150610da4565b3461014557604036600319011261014557610de3611085565b602435906001600160401b03821161014557610e06610e0c923690600401611308565b916115ef565b90604051918291604083016040845281518091526020606085019201905f5b818110610e73575050508281036020840152602080835192838152019201905f5b818110610e5a575050500390f35b8251845285945060209384019390920191600101610e4c565b82516001600160a01b0316845286955060209384019390920191600101610e2b565b3461014557604036600319011261014557610eae611085565b602435906001600160401b03821161014557610ed16106f2923690600401611338565b91611d91565b3461014557604036600319011261014557600435600381101561014557602090610eff61109b565b604051908382019260f81b835260018060601b03199060601b16602182015260158152610f2d60358261110a565b519020604051908152f35b3461014557606036600319011261014557610f51611085565b6024356001600160401b03811161014557610f73610f85913690600401611308565b610f7e9291926110b1565b92846115ef565b505f5b81518110156106f257600190610faa846001600160a01b036106e484876113bb565b01610f88565b3461014557604036600319011261014557610fc9611085565b610fd161109b565b6001600160a01b039182165f908152600960209081526040808320949093168252928352819020549051908152f35b3461014557604036600319011261014557611019611085565b61102161109b565b9060018060a01b03165f52600860205260405f209060018060a01b03165f5260205261020060405f206107c4611062600861105b8461112b565b9301611203565b61106f6040518094611233565b80516101c08401526020015115156101e0830152565b600435906001600160a01b038216820361014557565b602435906001600160a01b038216820361014557565b604435906001600160a01b038216820361014557565b60028210156104bf5752565b6101c081019081106001600160401b03821117610cfc57604052565b604081019081106001600160401b03821117610cfc57604052565b90601f801991011681019081106001600160401b03821117610cfc57604052565b90604051611138816110d3565b6101a06007829460018060a01b038154168452600181015460018060a01b038116602086015264ffffffffff8160a01c16604086015264ffffffffff8160c81c16606086015260ff8160f01c16608086015260f81c60a085015260018060a01b0360028201541660c08501526111db60ff600383015460018060a01b03811660e088015264ffffffffff8160a01c1661010088015260c81c1661012086016110c7565b6004810154610140850152600581015461016085015260068101546101808501520154910152565b90604051611210816110ef565b602060ff60018395805485520154161515910152565b9060028210156104bf5752565b6101a0809160018060a01b03815116845260018060a01b03602082015116602085015264ffffffffff604082015116604085015264ffffffffff606082015116606085015260ff608082015116608085015260ff60a08201511660a085015260018060a01b0360c08201511660c085015260018060a01b0360e08201511660e085015264ffffffffff610100820151166101008501526112dd610120820151610120860190611226565b6101408101516101408501526101608101516101608501526101808101516101808501520151910152565b9181601f84011215610145578235916001600160401b038311610145576020808501948460051b01011161014557565b9181601f84011215610145578235916001600160401b038311610145576020838186019501011161014557565b6060600319820112610145576004356001600160a01b038116810361014557916024356001600160a01b03811681036101455791604435906001600160401b038211610145576113b791600401611338565b9091565b80518210156113cf5760209160051b010190565b634e487b7160e01b5f52603260045260245ffd5b5190811515820361014557565b9081526001600160a01b03909116602082015260400190565b90604051611416816110ef565b6020611430600883956114288161112b565b855201611203565b910152565b60405190611442826110ef565b8160405161144f816110d3565b5f81525f60208201525f60408201525f60608201525f60808201525f60a08201525f60c08201525f60e08201525f6101008201525f6101208201525f6101408201525f6101608201525f6101808201525f6101a082015281526020604051916114b7836110ef565b5f83525f828401520152565b919082018092116104d357565b6001600160401b038111610cfc5760051b60200190565b51906001600160a01b038216820361014557565b91906040838203126101455782516001600160401b03811161014557830181601f8201121561014557805190611530826114d0565b9161153e604051938461110a565b80835260208084019160051b8301019184831161014557602001905b8282106115d757505050926020810151906001600160401b03821161014557019080601f83011215610145578151611591816114d0565b9261159f604051948561110a565b81845260208085019260051b82010192831161014557602001905b8282106115c75750505090565b81518152602091820191016115ba565b602080916115e4846114e7565b81520191019061155a565b5f54604051630ccc574960e41b81529394936001600160a01b0390911690602081600481855afa908115610230575f916117b1575b50602090611649926040518080958194632474521560e21b83523390600484016113f0565b03915afa908115610230575f91611777575b50156106f45760405163780469bb60e01b81526020600482015260248101859052936001600160a01b03919091169184916044830191905f905b8082106117425750505090805f92038183855af1928315610230575f905f9461171b575b505f5b815181101561171457806116d2600192876113bb565b51845f52600760205260405f20838060a01b036116ef84876113bb565b5116848060a01b03165f5260205261170c60405f209182546114c3565b9055016116bc565b5090509190565b905061173a9193503d805f833e611732818361110a565b8101906114fb565b92905f6116b9565b919350918335906001600160a01b03821682036101455760208091600193848060a01b03168152019401920186939291611695565b90506020813d6020116117a9575b816117926020938361110a565b81010312610145576117a3906113e3565b5f61165b565b3d9150611785565b90506020813d6020116117dd575b816117cc6020938361110a565b810103126101455751611649611624565b3d91506117bf565b805464ffffffffff60a01b191660a09290921b64ffffffffff60a01b16919091179055565b6001600160a01b039081165f81815260086020908152604080832085871684529091529020805493949391929190911615159081611d81575b50611d62575f8181526007602090815260408083206001600160a01b0387168085529083528184205485855260098452828520918552925290912054611888916114c3565b6001600160a01b039093169261189c611435565b506006545f1981146104d357600101928360065564ffffffffff600154169060025490600354926004549060ff6005541694604051986101608a018a81106001600160401b03821117610cfc57604052895260208901948a865260408a0194600160a01b6001900316855260608a0192835260808a0190815260a08a0191825260c08a019288845260e08b019485526101008b01953387526101208c01973089526101408d019961194d908b6110c7565b604051631bd590b960e11b81529c5160048e0152516001600160a01b0390811660248e01529051811660448d0152905164ffffffffff1660648c0152905160848b0152905160a48a0152905160c4890152905160e488015290518116610104870152905116610124850152516119c890610144850190611226565b828073__$ac6d8f54a114e2a8b8822b9ba237b4b369$__5a926101649161020094f4928315610230575f93611bf6575b505f8281526008602090815260408083208784528252918290208551805182546001600160a01b03199081166001600160a01b03928316178455938201516001840180549095169116178355928301519096929190611a5e9064ffffffffff16826117e5565b60608201518154608084015160a08501516001600160c81b0390921660c89390931b64ffffffffff60c81b169290921760f09290921b60ff60f01b169190911760f89190911b6001600160f81b03191617905560c08101516002870180546001600160a01b03199081166001600160a01b039384161790915560e08301516003890180549092169216919091178155610100820151611b049064ffffffffff16826117e5565b6101208201519560028710156104bf577f5b66543d3d25b638d45065504e7ba2610119c2ce1a07781059cd1dfd67f483c6976101a064ffffffffff946101009460809a81549060ff60c81b9060c81b169060ff60c81b1916179055610140810151600484015561016081015160058401556101808101516006840155015160078201556020600981840151928351600882015501910151151560ff80198354169116179055855f52600760205260405f20845f526020525f6040812055855f52600960205260405f20845f526020525f60408120555101511692604051938452602084015260408301526060820152a1565b809193506102003d8111611d5b575b611c0f818361110a565b8101039061020082126101455760405191611c29836110ef565b6101c081126101455760405190611c3f826110d3565b611c48836114e7565b8252611c56602084016114e7565b6020830152611c67604084016121ff565b6040830152611c78606084016121ff565b6060830152611c8960808401612211565b6080830152611c9a60a08401612211565b60a0830152611cab60c084016114e7565b60c0830152611cbc60e084016114e7565b60e0830152611cce61010084016121ff565b610100830152610120830151916002831015610145576040926101208201526101408401516101408201526101608401516101608201526101808401516101808201526101a08401516101a082015284526101bf19011261014557611d4a6101e060405192611d3c846110ef565b6101c08101518452016113e3565b60208201526020820152915f6119f8565b503d611c05565b905063ef83e9dd60e01b5f5260045260018060a01b031660245260445ffd5b60ff91506009015416155f611843565b60405163ce5c7f6160e01b8152602060048201526024810184905293926001600160a01b03909116915f91859160449183918190838501378181018301859052601f01601f1916810103018183855af1928315610230575f905f94611ef2575b508381945f5b8351811015611e4f5780611e0d600192856113bb565b51865f52600760205260405f20838060a01b03611e2a84896113bb565b5116848060a01b03165f52602052611e4760405f209182546114c3565b905501611df7565b509392916040518091829160208251919201905f5b818110611ed057505050039020906040518091829160208251919201905f5b818110611eb757505050039020917ff7904a549ceee39edb99c75ebe3dd4fef55faded4684ab7963232e23fcfd3f4c5f80a4565b8251845285945060209384019390920191600101611e83565b82516001600160a01b0316845285945060209384019390920191600101611e64565b9050611f099193503d805f833e611732818361110a565b92905f611df1565b6001600160a01b038083165f8181526008602090815260408083208587168452825282209196949592949391611f4690611409565b5101511691835f52600a60205260405f2060018060a01b0386165f5260205260405f20549182611f7a575b50505050505050565b60405163303dbaf360e01b815290602082600481895afa9182156102305784926120ee575b5060405163095ea7b360e01b81526001600160a01b039091166004820152602481019190915260208180604481015b03815f885af18015610230576120b7575b50833b15610145575f602091606460405180948193632db6d39960e01b8352876004840152604060248401528051918291826044860152018484015e8181018301859052601f01601f1916810103018183885af18015610230576120a2575b506040519081526001600160a01b0384169083907f902a3a8d6e4938f8d990a89084a4ac52bd8d18e234aba1615f333643282fca9890602090a48252600a602052604082209060018060a01b03165f5260205260405f20555f808080808080611f71565b6120af9195505f9061110a565b5f935f61203e565b6020813d6020116120e6575b816120d06020938361110a565b81010312610145576120e1906113e3565b611fdf565b3d91506120c3565b91506020823d60201161212a575b816121096020938361110a565b810103126101455783602091612121611fce946113e3565b50915091611f9f565b3d91506120fc565b9160208060049201515160018060a01b03851690815f526009835260405f2060018060a01b0386165f52835261216d60405f209182546114c3565b905560405163303dbaf360e01b815292839182905afa908115610230575f916121b8575b501561219b575050565b6121b691604051916121ae60208461110a565b5f8352611f11565b565b90506020813d6020116121ea575b816121d36020938361110a565b81010312610145576121e4906113e3565b5f612191565b3d91506121c6565b919082039182116104d357565b519064ffffffffff8216820361014557565b519060ff8216820361014557565b7fd11fb103f8d5c913b9e132f165c0cfa304fc230f10796a7a5d63bc3d8de4d3c36040600683015464ffffffffff60036008860195612260875480956121f2565b60098201805460ff19166001179055938061228c575b50015460a01c16935482519182526020820152a2565b8154838301546122a992916001600160a01b0391821691166122af565b5f612276565b60405163a9059cbb60e01b60208201526001600160a01b039290921660248301526044808301939093529181526121b6916122eb60648361110a565b6124c2565b959495939193828410156123d95760028110156104bf578061235f5750916123516123569261234b61234561233f6123398b61233361235c9d6103b19c9b612449565b99612449565b886121f2565b946125af565b916125af565b9261251a565b612635565b906121f2565b90565b91939290916001036123ca576123516103b19461234b6123be6123b86123b26123ad6123a661239f8e61235c9f612399906123c49d612449565b9c612449565b809b6121f2565b97866121f2565b6125af565b936125af565b926125ee565b916125ee565b906114c3565b6346b2fddf60e11b5f5260045ffd5b5050505091505090565b60ff6011199116019060ff82116104d357565b60ff166012039060ff82116104d357565b60ff16604d81116104d357600a0a90565b8115612422570490565b634e487b7160e01b5f52601260045260245ffd5b818102929181159184041417156104d357565b60ff82166012811461248b576012106124765761247061246b61235c936123f6565b612407565b90612436565b61248561246b61235c936123e3565b90612418565b50905090565b60ff82166012811461248b576012106124b35761248561246b61235c936123f6565b61247061246b61235c936123e3565b905f602091828151910182855af115610230575f513d61251157506001600160a01b0381163b155b6124f15750565b635274afe760e01b5f9081526001600160a01b0391909116600452602490fd5b600114156124ea565b9091905f198382098382029182808310920391808303921461259e57670de0b6b3a7640000821015612587577faccb18165bd6fe31ae1cf318dc5b51eee0e1ba569b88cd74c1773b91fac106699394670de0b6b3a7640000910990828211900360ee1b910360121c170290565b8490635173648d60e01b5f5260045260245260445ffd5b5050670de0b6b3a764000090049150565b7812725dd1d243aba0e75fe645cc4873f9e65afe688c928e1f2181116125dc57670de0b6b3a76400000290565b631cd951a760e01b5f5260045260245ffd5b670de0b6b3a764000090600190815b61260657505090565b806126109161251a565b9060018116612624575b60011c90816125fd565b918161262f9161251a565b9161261a565b5f19670de0b6b3a7640000820991670de0b6b3a76400008202918280851094039380850394146126e757818410156126c657670de0b6b3a7640000829109600182190182168092046002816003021880820260020302808202600203028082026002030280820260020302808202600203028091026002030293600183805f03040190848311900302920304170290565b630c740aef60e31b5f52600452670de0b6b3a764000060245260445260645ffd5b509061235c925061241856fea26469706673582212204dfc722ac3c9157a4a8550444455f8140c56c326101645b6f54564dca0d50d8864736f6c634300081c0033",
  "linkReferences": {
    "@summerfi/dutch-auction/DutchAuctionLibrary.sol": {
      "DutchAuctionLibrary": [
        {
          "length": 20,
          "start": 2018
        },
        {
          "length": 20,
          "start": 7126
        }
      ]
    }
  },
  "deployedLinkReferences": {
    "@summerfi/dutch-auction/DutchAuctionLibrary.sol": {
      "DutchAuctionLibrary": [
        {
          "length": 20,
          "start": 1496
        },
        {
          "length": 20,
          "start": 6604
        }
      ]
    }
  }
}