{
  "_format": "hh-sol-artifact-1",
  "contractName": "AdmiralsQuarters",
  "sourceName": "src/contracts/AdmiralsQuarters.sol",
  "abi": [
    {
      "inputs": [
        {
          "internalType": "address",
          "name": "_oneInchRouter",
          "type": "address"
        }
      ],
      "stateMutability": "nonpayable",
      "type": "constructor"
    },
    {
      "inputs": [
        {
          "internalType": "address",
          "name": "target",
          "type": "address"
        }
      ],
      "name": "AddressEmptyCode",
      "type": "error"
    },
    {
      "inputs": [],
      "name": "AssetMismatch",
      "type": "error"
    },
    {
      "inputs": [],
      "name": "FailedCall",
      "type": "error"
    },
    {
      "inputs": [],
      "name": "InsufficientOutputAmount",
      "type": "error"
    },
    {
      "inputs": [],
      "name": "InvalidFleetCommander",
      "type": "error"
    },
    {
      "inputs": [],
      "name": "InvalidRouterAddress",
      "type": "error"
    },
    {
      "inputs": [],
      "name": "InvalidToken",
      "type": "error"
    },
    {
      "inputs": [
        {
          "internalType": "address",
          "name": "owner",
          "type": "address"
        }
      ],
      "name": "OwnableInvalidOwner",
      "type": "error"
    },
    {
      "inputs": [
        {
          "internalType": "address",
          "name": "account",
          "type": "address"
        }
      ],
      "name": "OwnableUnauthorizedAccount",
      "type": "error"
    },
    {
      "inputs": [],
      "name": "ReentrancyGuard",
      "type": "error"
    },
    {
      "inputs": [],
      "name": "ReentrancyGuardReentrantCall",
      "type": "error"
    },
    {
      "inputs": [
        {
          "internalType": "address",
          "name": "token",
          "type": "address"
        }
      ],
      "name": "SafeERC20FailedOperation",
      "type": "error"
    },
    {
      "inputs": [],
      "name": "SwapAmountMismatch",
      "type": "error"
    },
    {
      "inputs": [],
      "name": "SwapFailed",
      "type": "error"
    },
    {
      "inputs": [],
      "name": "TokenMismatch",
      "type": "error"
    },
    {
      "inputs": [],
      "name": "UnsupportedSwapFunction",
      "type": "error"
    },
    {
      "inputs": [],
      "name": "ZeroAmount",
      "type": "error"
    },
    {
      "anonymous": false,
      "inputs": [
        {
          "indexed": true,
          "internalType": "address",
          "name": "user",
          "type": "address"
        },
        {
          "indexed": true,
          "internalType": "address",
          "name": "fleetCommander",
          "type": "address"
        },
        {
          "indexed": false,
          "internalType": "uint256",
          "name": "inputAmount",
          "type": "uint256"
        },
        {
          "indexed": false,
          "internalType": "uint256",
          "name": "sharesReceived",
          "type": "uint256"
        }
      ],
      "name": "FleetEntered",
      "type": "event"
    },
    {
      "anonymous": false,
      "inputs": [
        {
          "indexed": true,
          "internalType": "address",
          "name": "user",
          "type": "address"
        },
        {
          "indexed": true,
          "internalType": "address",
          "name": "fleetCommander",
          "type": "address"
        },
        {
          "indexed": false,
          "internalType": "uint256",
          "name": "withdrawnAmount",
          "type": "uint256"
        },
        {
          "indexed": false,
          "internalType": "uint256",
          "name": "outputAmount",
          "type": "uint256"
        }
      ],
      "name": "FleetExited",
      "type": "event"
    },
    {
      "anonymous": false,
      "inputs": [
        {
          "indexed": true,
          "internalType": "address",
          "name": "previousOwner",
          "type": "address"
        },
        {
          "indexed": true,
          "internalType": "address",
          "name": "newOwner",
          "type": "address"
        }
      ],
      "name": "OwnershipTransferred",
      "type": "event"
    },
    {
      "anonymous": false,
      "inputs": [
        {
          "indexed": true,
          "internalType": "address",
          "name": "user",
          "type": "address"
        },
        {
          "indexed": true,
          "internalType": "address",
          "name": "fromToken",
          "type": "address"
        },
        {
          "indexed": true,
          "internalType": "address",
          "name": "toToken",
          "type": "address"
        },
        {
          "indexed": false,
          "internalType": "uint256",
          "name": "fromAmount",
          "type": "uint256"
        },
        {
          "indexed": false,
          "internalType": "uint256",
          "name": "toAmount",
          "type": "uint256"
        }
      ],
      "name": "Swapped",
      "type": "event"
    },
    {
      "anonymous": false,
      "inputs": [
        {
          "indexed": true,
          "internalType": "address",
          "name": "user",
          "type": "address"
        },
        {
          "indexed": true,
          "internalType": "address",
          "name": "token",
          "type": "address"
        },
        {
          "indexed": false,
          "internalType": "uint256",
          "name": "amount",
          "type": "uint256"
        }
      ],
      "name": "TokensDeposited",
      "type": "event"
    },
    {
      "anonymous": false,
      "inputs": [
        {
          "indexed": true,
          "internalType": "address",
          "name": "token",
          "type": "address"
        },
        {
          "indexed": true,
          "internalType": "address",
          "name": "to",
          "type": "address"
        },
        {
          "indexed": false,
          "internalType": "uint256",
          "name": "amount",
          "type": "uint256"
        }
      ],
      "name": "TokensRescued",
      "type": "event"
    },
    {
      "anonymous": false,
      "inputs": [
        {
          "indexed": true,
          "internalType": "address",
          "name": "user",
          "type": "address"
        },
        {
          "indexed": true,
          "internalType": "address",
          "name": "token",
          "type": "address"
        },
        {
          "indexed": false,
          "internalType": "uint256",
          "name": "amount",
          "type": "uint256"
        }
      ],
      "name": "TokensWithdrawn",
      "type": "event"
    },
    {
      "inputs": [
        {
          "internalType": "contract IERC20",
          "name": "asset",
          "type": "address"
        },
        {
          "internalType": "uint256",
          "name": "amount",
          "type": "uint256"
        }
      ],
      "name": "depositTokens",
      "outputs": [],
      "stateMutability": "nonpayable",
      "type": "function"
    },
    {
      "inputs": [
        {
          "internalType": "address",
          "name": "fleetCommander",
          "type": "address"
        },
        {
          "internalType": "contract IERC20",
          "name": "inputToken",
          "type": "address"
        },
        {
          "internalType": "uint256",
          "name": "amount",
          "type": "uint256"
        }
      ],
      "name": "enterFleet",
      "outputs": [
        {
          "internalType": "uint256",
          "name": "shares",
          "type": "uint256"
        }
      ],
      "stateMutability": "nonpayable",
      "type": "function"
    },
    {
      "inputs": [
        {
          "internalType": "address",
          "name": "fleetCommander",
          "type": "address"
        },
        {
          "internalType": "uint256",
          "name": "amount",
          "type": "uint256"
        }
      ],
      "name": "exitFleet",
      "outputs": [
        {
          "internalType": "uint256",
          "name": "shares",
          "type": "uint256"
        }
      ],
      "stateMutability": "nonpayable",
      "type": "function"
    },
    {
      "inputs": [
        {
          "internalType": "bytes[]",
          "name": "data",
          "type": "bytes[]"
        }
      ],
      "name": "multicall",
      "outputs": [
        {
          "internalType": "bytes[]",
          "name": "results",
          "type": "bytes[]"
        }
      ],
      "stateMutability": "nonpayable",
      "type": "function"
    },
    {
      "inputs": [],
      "name": "oneInchRouter",
      "outputs": [
        {
          "internalType": "address",
          "name": "",
          "type": "address"
        }
      ],
      "stateMutability": "view",
      "type": "function"
    },
    {
      "inputs": [],
      "name": "owner",
      "outputs": [
        {
          "internalType": "address",
          "name": "",
          "type": "address"
        }
      ],
      "stateMutability": "view",
      "type": "function"
    },
    {
      "inputs": [],
      "name": "renounceOwnership",
      "outputs": [],
      "stateMutability": "nonpayable",
      "type": "function"
    },
    {
      "inputs": [
        {
          "internalType": "contract IERC20",
          "name": "token",
          "type": "address"
        },
        {
          "internalType": "address",
          "name": "to",
          "type": "address"
        },
        {
          "internalType": "uint256",
          "name": "amount",
          "type": "uint256"
        }
      ],
      "name": "rescueTokens",
      "outputs": [],
      "stateMutability": "nonpayable",
      "type": "function"
    },
    {
      "inputs": [
        {
          "internalType": "contract IERC20",
          "name": "fromToken",
          "type": "address"
        },
        {
          "internalType": "contract IERC20",
          "name": "toToken",
          "type": "address"
        },
        {
          "internalType": "uint256",
          "name": "amount",
          "type": "uint256"
        },
        {
          "internalType": "uint256",
          "name": "minTokensReceived",
          "type": "uint256"
        },
        {
          "internalType": "bytes",
          "name": "swapCalldata",
          "type": "bytes"
        }
      ],
      "name": "swap",
      "outputs": [
        {
          "internalType": "uint256",
          "name": "swappedAmount",
          "type": "uint256"
        }
      ],
      "stateMutability": "nonpayable",
      "type": "function"
    },
    {
      "inputs": [
        {
          "internalType": "address",
          "name": "newOwner",
          "type": "address"
        }
      ],
      "name": "transferOwnership",
      "outputs": [],
      "stateMutability": "nonpayable",
      "type": "function"
    },
    {
      "inputs": [
        {
          "internalType": "contract IERC20",
          "name": "asset",
          "type": "address"
        },
        {
          "internalType": "uint256",
          "name": "amount",
          "type": "uint256"
        }
      ],
      "name": "withdrawTokens",
      "outputs": [],
      "stateMutability": "nonpayable",
      "type": "function"
    }
  ],
  "bytecode": "0x60a0346100e557601f610fbd38819003918201601f19168301916001600160401b038311848410176100e9578084926020946040528339810103126100e557516001600160a01b038116908181036100e55733156100d2575f8054336001600160a01b0319821681178355604051949290916001600160a01b0316907f8be0079c531659141344cd1fd0a4f28419497f9722a3daafe3b4186f6b6457e09080a3156100c357608052610ebf90816100fe823960805181818161049801526106eb0152f35b6314203b4b60e01b5f5260045ffd5b631e4fbdf760e01b5f525f60045260245ffd5b5f80fd5b634e487b7160e01b5f52604160045260245ffdfe60806040526004361015610011575f80fd5b5f3560e01c806306b091f914610a8757806312739fb21461087d5780632506c0181461061657806366168bd714610545578063715018a6146104ee5780638da5cb5b146104c7578063ac3af20814610483578063ac9650d8146102a5578063cea9d26f14610233578063d7f8e9a51461011b5763f2fde38b14610092575f80fd5b34610117576020366003190112610117576100ab610b77565b6100b3610d8d565b6001600160a01b03168015610104575f80546001600160a01b03198116831782556001600160a01b0316907f8be0079c531659141344cd1fd0a4f28419497f9722a3daafe3b4186f6b6457e09080a3005b631e4fbdf760e01b5f525f60045260245ffd5b5f80fd5b3461011757604036600319011261011757610134610b77565b60243590610140610c17565b6001600160a01b0316908115610224578061021f57505f195b604051632d182be560e21b815260048101829052306024820152336044820152916020836064815f855af1918215610214575f926101df575b6020935060405190815282848201527f3018bc84615a588f3485d554ded6943344a7f25f8b758b14b6e9677378c1c68b60403392a35f5f516020610e6a5f395f51905f525d604051908152f35b91506020833d60201161020c575b816101fa60209383610ba3565b81010312610117576020925191610192565b3d91506101ed565b6040513d5f823e3d90fd5b610159565b6317b9ea1760e11b5f5260045ffd5b346101175760603660031901126101175761024c610b77565b610254610b8d565b7f77023e19c7343ad491fd706c36335ca0e738340a91f29b1fd81e2673d44896c4602060443592610283610d8d565b61028e848287610c4c565b6040519384526001600160a01b03908116941692a3005b34610117576020366003190112610117576004356001600160401b0381116101175736602382011215610117578060040135906001600160401b038211610117573660248360051b8301011161011757906020916040516103068482610ba3565b5f815283810191601f19850136843761031e84610bd8565b9061032c6040519283610ba3565b848252601f1961033b86610bd8565b01865f5b828110610474575050503681900360421901905f5b868110156104005760248160051b8301013583811215610117578201906024820135916001600160401b03831161011757604401918036038313610117575f80600194896103d06103e4958f8e6040519483869484860198893784019083820190898252519283915e010185815203601f198101835282610ba3565b5190305af46103dd610d4f565b9030610e0b565b6103ee8287610bef565b526103f98186610bef565b5001610354565b604080518981528551818b018190525f92600582901b8301810191888d01918d9085015b8287106104315785850386f35b90919293828080600193603f198a82030186528189518051918291828552018484015e5f838284010152601f801991011601019601920196019592919092610424565b6060858201830152810161033f565b34610117575f366003190112610117576040517f00000000000000000000000000000000000000000000000000000000000000006001600160a01b03168152602090f35b34610117575f366003190112610117575f546040516001600160a01b039091168152602090f35b34610117575f36600319011261011757610506610d8d565b5f80546001600160a01b0319811682556001600160a01b03167f8be0079c531659141344cd1fd0a4f28419497f9722a3daafe3b4186f6b6457e08280a3005b346101175760403660031901126101175761055e610b77565b602435610569610c17565b6001600160a01b0382169182156106075781156105f8576040516323b872dd60e01b6020820152336024820152306044820152606480820184905281526105ba916105b5608483610ba3565b610db3565b6040519081527fcbc4a4091b012bb1329c38bbbb15455f5cac5aa3673da0a7f38cd61a4f49551760203392a35f5f516020610e6a5f395f51905f525d005b631f2a200560e01b5f5260045ffd5b63c1ab6dc160e01b5f5260045ffd5b346101175760a03660031901126101175761062f610b77565b610637610b8d565b9060443591608435906001600160401b0382116101175736602383011215610117578160040135926001600160401b03841161011757366024858501011161011757610681610c17565b6001600160a01b038116918215801561086c575b6106075785156105f8576001600160a01b03169282841461085d576040516370a0823160e01b815230600482015294602086602481885afa958615610214575f96610822575b509160245f80949381946107118b7f00000000000000000000000000000000000000000000000000000000000000008097610c8a565b80604051948593018337810182815203925af161072c610d4f565b5015610813576040516370a0823160e01b815230600482015292602084602481865afa938415610214575f946107df575b5083039283116107cb5760643583106107bc5760209360405190815283858201527f6782190c91d4a7e8ad2a867deed6ec0a970cab8ff137ae2bd4abd92b3810f4d360403392a45f5f516020610e6a5f395f51905f525d604051908152f35b6342301c2360e01b5f5260045ffd5b634e487b7160e01b5f52601160045260245ffd5b9093506020813d60201161080b575b816107fb60209383610ba3565b810103126101175751928561075d565b3d91506107ee565b63081ceff360e41b5f5260045ffd5b91929095506020823d602011610855575b8161084060209383610ba3565b810103126101175790519490919060246106db565b3d9150610833565b6341e0808560e11b5f5260045ffd5b506001600160a01b03811615610695565b3461011757606036600319011261011757610896610b77565b61089e610b8d565b90604435906108ab610c17565b6001600160a01b0316918215610224576001600160a01b0316908115610607576040516338d52e0f60e01b8152602081600481875afa908115610214575f91610a45575b506001600160a01b031690818303610a36576020602493604051948580926370a0823160e01b82523060048301525afa928315610214575f93610a02575b50806109fc5750815b82116107bc57818361094792610c8a565b604051636e553f6560e01b815260048101829052336024820152916020836044815f855af1918215610214575f926109c7575b6020935060405190815282848201527fd584e570678d099262db4ba972df2e63e3618dadc6179677a6a2b18360c4a65760403392a35f5f516020610e6a5f395f51905f525d604051908152f35b91506020833d6020116109f4575b816109e260209383610ba3565b8101031261011757602092519161097a565b3d91506109d5565b91610936565b9092506020813d602011610a2e575b81610a1e60209383610ba3565b810103126101175751918461092d565b3d9150610a11565b63936bb5ad60e01b5f5260045ffd5b90506020813d602011610a7f575b81610a6060209383610ba3565b8101031261011757516001600160a01b038116810361011757846108ef565b3d9150610a53565b3461011757604036600319011261011757610aa0610b77565b60243590610aac610c17565b6001600160a01b03811691908183156106075715610b0f575b81610ad1913390610c4c565b6040519081527f6337ed398c0e8467698c581374fdce4db14922df487b5a39483079f5f59b60a460203392a35f5f516020610e6a5f395f51905f525d005b6040516370a0823160e01b8152306004820152909150602081602481865afa8015610214575f90610b43575b919050610ac5565b506020813d602011610b6f575b81610b5d60209383610ba3565b8101031261011757610ad19051610b3b565b3d9150610b50565b600435906001600160a01b038216820361011757565b602435906001600160a01b038216820361011757565b90601f801991011681019081106001600160401b03821117610bc457604052565b634e487b7160e01b5f52604160045260245ffd5b6001600160401b038111610bc45760051b60200190565b8051821015610c035760209160051b010190565b634e487b7160e01b5f52603260045260245ffd5b5f516020610e6a5f395f51905f525c610c3d5760015f516020610e6a5f395f51905f525d565b633ee5aeb560e01b5f5260045ffd5b60405163a9059cbb60e01b60208201526001600160a01b03929092166024830152604480830193909352918152610c88916105b5606483610ba3565b565b60405163095ea7b360e01b60208083019182526001600160a01b0385166024840152604480840196909652948252929390925f90610cc9606486610ba3565b84519082855af15f513d82610d2a575b505015610ce557505050565b60405163095ea7b360e01b60208201526001600160a01b0390931660248401525f6044808501919091528352610c88926105b590610d24606482610ba3565b82610db3565b909150610d4757506001600160a01b0381163b15155b5f80610cd9565b600114610d40565b3d15610d88573d906001600160401b038211610bc45760405191610d7d601f8201601f191660200184610ba3565b82523d5f602084013e565b606090565b5f546001600160a01b03163303610da057565b63118cdaa760e01b5f523360045260245ffd5b905f602091828151910182855af115610214575f513d610e0257506001600160a01b0381163b155b610de25750565b635274afe760e01b5f9081526001600160a01b0391909116600452602490fd5b60011415610ddb565b90610e2f5750805115610e2057805190602001fd5b63d6bda27560e01b5f5260045ffd5b81511580610e60575b610e40575090565b639996b31560e01b5f9081526001600160a01b0391909116600452602490fd5b50803b15610e3856fe9b779b17422d0df92223018b32b4d1fa46e071723d6817e2486d003becc55f00a2646970667358221220843c9d1433bc45d697188aea1232954100221f74c1c15619bcc37a00abbc0c8364736f6c634300081c0033",
  "linkReferences": {},
  "deployedLinkReferences": {}
}