{
  "_format": "hh-sol-artifact-1",
  "contractName": "HarborCommand",
  "sourceName": "src/contracts/HarborCommand.sol",
  "abi": [
    {
      "inputs": [
        {
          "internalType": "address",
          "name": "_accessManager",
          "type": "address"
        }
      ],
      "stateMutability": "nonpayable",
      "type": "constructor"
    },
    {
      "inputs": [
        {
          "internalType": "address",
          "name": "caller",
          "type": "address"
        }
      ],
      "name": "CallerIsNotAdmin",
      "type": "error"
    },
    {
      "inputs": [
        {
          "internalType": "address",
          "name": "caller",
          "type": "address"
        }
      ],
      "name": "CallerIsNotAuthorizedToBoard",
      "type": "error"
    },
    {
      "inputs": [
        {
          "internalType": "address",
          "name": "caller",
          "type": "address"
        }
      ],
      "name": "CallerIsNotCommander",
      "type": "error"
    },
    {
      "inputs": [
        {
          "internalType": "address",
          "name": "caller",
          "type": "address"
        },
        {
          "internalType": "bytes32",
          "name": "role",
          "type": "bytes32"
        }
      ],
      "name": "CallerIsNotContractSpecificRole",
      "type": "error"
    },
    {
      "inputs": [
        {
          "internalType": "address",
          "name": "caller",
          "type": "address"
        }
      ],
      "name": "CallerIsNotCurator",
      "type": "error"
    },
    {
      "inputs": [
        {
          "internalType": "address",
          "name": "caller",
          "type": "address"
        }
      ],
      "name": "CallerIsNotDecayController",
      "type": "error"
    },
    {
      "inputs": [
        {
          "internalType": "address",
          "name": "caller",
          "type": "address"
        }
      ],
      "name": "CallerIsNotGovernor",
      "type": "error"
    },
    {
      "inputs": [
        {
          "internalType": "address",
          "name": "caller",
          "type": "address"
        }
      ],
      "name": "CallerIsNotGuardian",
      "type": "error"
    },
    {
      "inputs": [
        {
          "internalType": "address",
          "name": "caller",
          "type": "address"
        }
      ],
      "name": "CallerIsNotGuardianOrGovernor",
      "type": "error"
    },
    {
      "inputs": [
        {
          "internalType": "address",
          "name": "caller",
          "type": "address"
        }
      ],
      "name": "CallerIsNotKeeper",
      "type": "error"
    },
    {
      "inputs": [
        {
          "internalType": "address",
          "name": "caller",
          "type": "address"
        }
      ],
      "name": "CallerIsNotRaft",
      "type": "error"
    },
    {
      "inputs": [
        {
          "internalType": "address",
          "name": "caller",
          "type": "address"
        }
      ],
      "name": "CallerIsNotRaftOrCommander",
      "type": "error"
    },
    {
      "inputs": [
        {
          "internalType": "address",
          "name": "caller",
          "type": "address"
        }
      ],
      "name": "CallerIsNotSuperKeeper",
      "type": "error"
    },
    {
      "inputs": [
        {
          "internalType": "address",
          "name": "caller",
          "type": "address"
        }
      ],
      "name": "DirectGrantIsDisabled",
      "type": "error"
    },
    {
      "inputs": [
        {
          "internalType": "address",
          "name": "caller",
          "type": "address"
        }
      ],
      "name": "DirectRevokeIsDisabled",
      "type": "error"
    },
    {
      "inputs": [
        {
          "internalType": "address",
          "name": "fleetCommander",
          "type": "address"
        }
      ],
      "name": "FleetCommanderAlreadyEnlisted",
      "type": "error"
    },
    {
      "inputs": [
        {
          "internalType": "address",
          "name": "fleetCommander",
          "type": "address"
        }
      ],
      "name": "FleetCommanderNotEnlisted",
      "type": "error"
    },
    {
      "inputs": [
        {
          "internalType": "address",
          "name": "invalidAddress",
          "type": "address"
        }
      ],
      "name": "InvalidAccessManagerAddress",
      "type": "error"
    },
    {
      "anonymous": false,
      "inputs": [
        {
          "indexed": true,
          "internalType": "address",
          "name": "fleetCommander",
          "type": "address"
        }
      ],
      "name": "FleetCommanderDecommissioned",
      "type": "event"
    },
    {
      "anonymous": false,
      "inputs": [
        {
          "indexed": true,
          "internalType": "address",
          "name": "fleetCommander",
          "type": "address"
        }
      ],
      "name": "FleetCommanderEnlisted",
      "type": "event"
    },
    {
      "inputs": [
        {
          "internalType": "address",
          "name": "_fleetCommander",
          "type": "address"
        }
      ],
      "name": "activeFleetCommanders",
      "outputs": [
        {
          "internalType": "bool",
          "name": "",
          "type": "bool"
        }
      ],
      "stateMutability": "view",
      "type": "function"
    },
    {
      "inputs": [
        {
          "internalType": "address",
          "name": "_fleetCommander",
          "type": "address"
        }
      ],
      "name": "decommissionFleetCommander",
      "outputs": [],
      "stateMutability": "nonpayable",
      "type": "function"
    },
    {
      "inputs": [
        {
          "internalType": "address",
          "name": "_fleetCommander",
          "type": "address"
        }
      ],
      "name": "enlistFleetCommander",
      "outputs": [],
      "stateMutability": "nonpayable",
      "type": "function"
    },
    {
      "inputs": [
        {
          "internalType": "uint256",
          "name": "index",
          "type": "uint256"
        }
      ],
      "name": "fleetCommandersList",
      "outputs": [
        {
          "internalType": "address",
          "name": "",
          "type": "address"
        }
      ],
      "stateMutability": "view",
      "type": "function"
    },
    {
      "inputs": [
        {
          "internalType": "enum ContractSpecificRoles",
          "name": "roleName",
          "type": "uint8"
        },
        {
          "internalType": "address",
          "name": "roleTargetContract",
          "type": "address"
        }
      ],
      "name": "generateRole",
      "outputs": [
        {
          "internalType": "bytes32",
          "name": "",
          "type": "bytes32"
        }
      ],
      "stateMutability": "pure",
      "type": "function"
    },
    {
      "inputs": [],
      "name": "getActiveFleetCommanders",
      "outputs": [
        {
          "internalType": "address[]",
          "name": "",
          "type": "address[]"
        }
      ],
      "stateMutability": "view",
      "type": "function"
    },
    {
      "inputs": [
        {
          "internalType": "address",
          "name": "account",
          "type": "address"
        }
      ],
      "name": "hasAdmiralsQuartersRole",
      "outputs": [
        {
          "internalType": "bool",
          "name": "",
          "type": "bool"
        }
      ],
      "stateMutability": "view",
      "type": "function"
    }
  ],
  "bytecode": "0x608080604052346100e0576020816108dc803803809161001f828561010a565b8339810103126100e057516001600160a01b038116908190036100e05780156100f7576040516301ffc9a760e01b81526338c7ccdb60e01b6004820152602081602481855afa9081156100ec575f916100ad575b501561009b575f80546001600160a01b03191691909117905560405161079a90816101428239f35b6347bd7c1d60e01b5f5260045260245ffd5b90506020813d6020116100e4575b816100c86020938361010a565b810103126100e0575180151581036100e0575f610073565b5f80fd5b3d91506100bb565b6040513d5f823e3d90fd5b6347bd7c1d60e01b5f525f60045260245ffd5b601f909101601f19168101906001600160401b0382119082101761012d57604052565b634e487b7160e01b5f52604160045260245ffdfe6080806040526004361015610012575f80fd5b5f3560e01c908163588b97c7146104655750806369b3054b146103f35780638e3d569314610385578063ab4ba0f7146102e3578063b912d58c146101a6578063e9d00d561461016c5763ebc136d014610069575f80fd5b346101605760203660031901126101605761008261058e565b5f5460405163a89f38a360e01b81526001600160a01b039091169190602081600481865afa908115610127575f91610132575b50604051632474521560e21b8152926020928492839182916100db9190600484016105f2565b03915afa8015610127576020915f916100fa575b506040519015158152f35b61011a9150823d8411610120575b61011281836105a4565b8101906105da565b5f6100ef565b503d610108565b6040513d5f823e3d90fd5b9190506020823d602011610164575b8161014e602093836105a4565b810103126101605790516100db6100b5565b5f80fd5b3d9150610141565b34610160576020366003190112610160576001600160a01b0361018d61058e565b165f526002602052602060405f20541515604051908152f35b34610160576020366003190112610160576101bf61058e565b5f54604051630ccc574960e41b81526001600160a01b0390911690602081600481855afa908115610127575f916102af575b50602090610216926040518080958194632474521560e21b83523390600484016105f2565b03915afa908115610127575f91610290575b501561027d576001600160a01b03166102408161068b565b1561026b577f1e34673d1d14c032c95f75eeaf38870b6123c81b82b1ea97cccc7442d06ef6115f80a2005b630349cba160e61b5f5260045260245ffd5b630ea7d7ed60e21b5f523360045260245ffd5b6102a9915060203d6020116101205761011281836105a4565b82610228565b90506020813d6020116102db575b816102ca602093836105a4565b8101031261016057516102166101f1565b3d91506102bd565b34610160575f366003190112610160576040518060206001549283815201809260015f5260205f20905f5b81811061036f57505050816103249103826105a4565b604051918291602083019060208452518091526040830191905f5b81811061034d575050500390f35b82516001600160a01b031684528594506020938401939092019160010161033f565b825484526020909301926001928301920161030e565b34610160576020366003190112610160576004356001548110156103df5760015f527fb10e2d527612073b26eecdfd717e6a320cf44b4afac2b0732d9fcbe2b7fa0cf601546040516001600160a01b039091168152602090f35b634e487b7160e01b5f52603260045260245ffd5b3461016057604036600319011261016057600435600381101561016057602435906001600160a01b03821682036101605760405160f89190911b602082810191825260609390931b6001600160601b0319166021830152601582529061045a6035826105a4565b519020604051908152f35b346101605760203660031901126101605761047e61058e565b5f54630ccc574960e41b835290916001600160a01b0390911690602081600481855afa908115610127575f9161055a575b506020906104d4926040518080958194632474521560e21b83523390600484016105f2565b03915afa908115610127575f9161053b575b501561027d576001600160a01b03166104fe81610620565b15610529577f8962d9675f6e694d83eac853fc2c4cdac912219afd6e7aaa4f1ba35ff622af2f5f80a2005b63e12abecb60e01b5f5260045260245ffd5b610554915060203d6020116101205761011281836105a4565b826104e6565b90506020813d602011610586575b81610575602093836105a4565b8101031261016057516104d46104af565b3d9150610568565b600435906001600160a01b038216820361016057565b90601f8019910116810190811067ffffffffffffffff8211176105c657604052565b634e487b7160e01b5f52604160045260245ffd5b90816020910312610160575180151581036101605790565b9081526001600160a01b03909116602082015260400190565b80548210156103df575f5260205f2001905f90565b805f52600260205260405f2054155f1461068657600154600160401b8110156105c65761066f610659826001859401600155600161060b565b819391549060031b91821b915f19901b19161790565b9055600154905f52600260205260405f2055600190565b505f90565b5f81815260026020526040902054801561075e575f19810181811161074a576001545f1981019190821161074a57818103610712575b50505060015480156106fe575f19016106db81600161060b565b8154905f199060031b1b191690556001555f5260026020525f6040812055600190565b634e487b7160e01b5f52603160045260245ffd5b61073461072361065993600161060b565b90549060031b1c928392600161060b565b90555f52600260205260405f20555f80806106c1565b634e487b7160e01b5f52601160045260245ffd5b50505f9056fea26469706673582212207a4d6e5142f4d568011fe10f26d3f4ae97c03796d21c840d31be2efb1090f5ad64736f6c634300081c0033",
  "linkReferences": {},
  "deployedLinkReferences": {}
}