{
  "_format": "hh-sol-artifact-1",
  "contractName": "AdmiralsQuarters",
  "sourceName": "src/contracts/AdmiralsQuarters.sol",
  "abi": [
    {
      "inputs": [
        {
          "internalType": "address",
          "name": "_oneInchRouter",
          "type": "address"
        }
      ],
      "stateMutability": "nonpayable",
      "type": "constructor"
    },
    {
      "inputs": [
        {
          "internalType": "address",
          "name": "target",
          "type": "address"
        }
      ],
      "name": "AddressEmptyCode",
      "type": "error"
    },
    {
      "inputs": [],
      "name": "AssetMismatch",
      "type": "error"
    },
    {
      "inputs": [],
      "name": "FailedCall",
      "type": "error"
    },
    {
      "inputs": [],
      "name": "InsufficientOutputAmount",
      "type": "error"
    },
    {
      "inputs": [],
      "name": "InvalidFleetCommander",
      "type": "error"
    },
    {
      "inputs": [],
      "name": "InvalidRouterAddress",
      "type": "error"
    },
    {
      "inputs": [],
      "name": "InvalidToken",
      "type": "error"
    },
    {
      "inputs": [
        {
          "internalType": "address",
          "name": "owner",
          "type": "address"
        }
      ],
      "name": "OwnableInvalidOwner",
      "type": "error"
    },
    {
      "inputs": [
        {
          "internalType": "address",
          "name": "account",
          "type": "address"
        }
      ],
      "name": "OwnableUnauthorizedAccount",
      "type": "error"
    },
    {
      "inputs": [],
      "name": "ReentrancyGuard",
      "type": "error"
    },
    {
      "inputs": [],
      "name": "ReentrancyGuardReentrantCall",
      "type": "error"
    },
    {
      "inputs": [
        {
          "internalType": "address",
          "name": "token",
          "type": "address"
        }
      ],
      "name": "SafeERC20FailedOperation",
      "type": "error"
    },
    {
      "inputs": [],
      "name": "SwapAmountMismatch",
      "type": "error"
    },
    {
      "inputs": [],
      "name": "SwapFailed",
      "type": "error"
    },
    {
      "inputs": [],
      "name": "UnsupportedSwapFunction",
      "type": "error"
    },
    {
      "inputs": [],
      "name": "ZeroAmount",
      "type": "error"
    },
    {
      "anonymous": false,
      "inputs": [
        {
          "indexed": true,
          "internalType": "address",
          "name": "user",
          "type": "address"
        },
        {
          "indexed": true,
          "internalType": "address",
          "name": "fleetCommander",
          "type": "address"
        },
        {
          "indexed": false,
          "internalType": "uint256",
          "name": "inputAmount",
          "type": "uint256"
        },
        {
          "indexed": false,
          "internalType": "uint256",
          "name": "sharesReceived",
          "type": "uint256"
        }
      ],
      "name": "FleetEntered",
      "type": "event"
    },
    {
      "anonymous": false,
      "inputs": [
        {
          "indexed": true,
          "internalType": "address",
          "name": "user",
          "type": "address"
        },
        {
          "indexed": true,
          "internalType": "address",
          "name": "fleetCommander",
          "type": "address"
        },
        {
          "indexed": false,
          "internalType": "uint256",
          "name": "withdrawnAmount",
          "type": "uint256"
        },
        {
          "indexed": false,
          "internalType": "uint256",
          "name": "outputAmount",
          "type": "uint256"
        }
      ],
      "name": "FleetExited",
      "type": "event"
    },
    {
      "anonymous": false,
      "inputs": [
        {
          "indexed": true,
          "internalType": "address",
          "name": "previousOwner",
          "type": "address"
        },
        {
          "indexed": true,
          "internalType": "address",
          "name": "newOwner",
          "type": "address"
        }
      ],
      "name": "OwnershipTransferred",
      "type": "event"
    },
    {
      "anonymous": false,
      "inputs": [
        {
          "indexed": true,
          "internalType": "address",
          "name": "user",
          "type": "address"
        },
        {
          "indexed": true,
          "internalType": "address",
          "name": "fromToken",
          "type": "address"
        },
        {
          "indexed": true,
          "internalType": "address",
          "name": "toToken",
          "type": "address"
        },
        {
          "indexed": false,
          "internalType": "uint256",
          "name": "fromAmount",
          "type": "uint256"
        },
        {
          "indexed": false,
          "internalType": "uint256",
          "name": "toAmount",
          "type": "uint256"
        }
      ],
      "name": "Swapped",
      "type": "event"
    },
    {
      "anonymous": false,
      "inputs": [
        {
          "indexed": true,
          "internalType": "address",
          "name": "user",
          "type": "address"
        },
        {
          "indexed": true,
          "internalType": "address",
          "name": "token",
          "type": "address"
        },
        {
          "indexed": false,
          "internalType": "uint256",
          "name": "amount",
          "type": "uint256"
        }
      ],
      "name": "TokensDeposited",
      "type": "event"
    },
    {
      "anonymous": false,
      "inputs": [
        {
          "indexed": true,
          "internalType": "address",
          "name": "token",
          "type": "address"
        },
        {
          "indexed": true,
          "internalType": "address",
          "name": "to",
          "type": "address"
        },
        {
          "indexed": false,
          "internalType": "uint256",
          "name": "amount",
          "type": "uint256"
        }
      ],
      "name": "TokensRescued",
      "type": "event"
    },
    {
      "anonymous": false,
      "inputs": [
        {
          "indexed": true,
          "internalType": "address",
          "name": "user",
          "type": "address"
        },
        {
          "indexed": true,
          "internalType": "address",
          "name": "token",
          "type": "address"
        },
        {
          "indexed": false,
          "internalType": "uint256",
          "name": "amount",
          "type": "uint256"
        }
      ],
      "name": "TokensWithdrawn",
      "type": "event"
    },
    {
      "inputs": [
        {
          "internalType": "contract IERC20",
          "name": "asset",
          "type": "address"
        },
        {
          "internalType": "uint256",
          "name": "amount",
          "type": "uint256"
        }
      ],
      "name": "depositTokens",
      "outputs": [],
      "stateMutability": "nonpayable",
      "type": "function"
    },
    {
      "inputs": [
        {
          "internalType": "address",
          "name": "fleetCommander",
          "type": "address"
        },
        {
          "internalType": "contract IERC20",
          "name": "inputToken",
          "type": "address"
        },
        {
          "internalType": "uint256",
          "name": "amount",
          "type": "uint256"
        }
      ],
      "name": "enterFleet",
      "outputs": [
        {
          "internalType": "uint256",
          "name": "shares",
          "type": "uint256"
        }
      ],
      "stateMutability": "nonpayable",
      "type": "function"
    },
    {
      "inputs": [
        {
          "internalType": "address",
          "name": "fleetCommander",
          "type": "address"
        },
        {
          "internalType": "uint256",
          "name": "amount",
          "type": "uint256"
        }
      ],
      "name": "exitFleet",
      "outputs": [
        {
          "internalType": "uint256",
          "name": "shares",
          "type": "uint256"
        }
      ],
      "stateMutability": "nonpayable",
      "type": "function"
    },
    {
      "inputs": [
        {
          "internalType": "bytes[]",
          "name": "data",
          "type": "bytes[]"
        }
      ],
      "name": "multicall",
      "outputs": [
        {
          "internalType": "bytes[]",
          "name": "results",
          "type": "bytes[]"
        }
      ],
      "stateMutability": "nonpayable",
      "type": "function"
    },
    {
      "inputs": [],
      "name": "oneInchRouter",
      "outputs": [
        {
          "internalType": "address",
          "name": "",
          "type": "address"
        }
      ],
      "stateMutability": "view",
      "type": "function"
    },
    {
      "inputs": [],
      "name": "owner",
      "outputs": [
        {
          "internalType": "address",
          "name": "",
          "type": "address"
        }
      ],
      "stateMutability": "view",
      "type": "function"
    },
    {
      "inputs": [],
      "name": "renounceOwnership",
      "outputs": [],
      "stateMutability": "nonpayable",
      "type": "function"
    },
    {
      "inputs": [
        {
          "internalType": "contract IERC20",
          "name": "token",
          "type": "address"
        },
        {
          "internalType": "address",
          "name": "to",
          "type": "address"
        },
        {
          "internalType": "uint256",
          "name": "amount",
          "type": "uint256"
        }
      ],
      "name": "rescueTokens",
      "outputs": [],
      "stateMutability": "nonpayable",
      "type": "function"
    },
    {
      "inputs": [
        {
          "internalType": "contract IERC20",
          "name": "fromToken",
          "type": "address"
        },
        {
          "internalType": "contract IERC20",
          "name": "toToken",
          "type": "address"
        },
        {
          "internalType": "uint256",
          "name": "amount",
          "type": "uint256"
        },
        {
          "internalType": "uint256",
          "name": "minTokensReceived",
          "type": "uint256"
        },
        {
          "internalType": "bytes",
          "name": "swapCalldata",
          "type": "bytes"
        }
      ],
      "name": "swap",
      "outputs": [
        {
          "internalType": "uint256",
          "name": "swappedAmount",
          "type": "uint256"
        }
      ],
      "stateMutability": "nonpayable",
      "type": "function"
    },
    {
      "inputs": [
        {
          "internalType": "address",
          "name": "newOwner",
          "type": "address"
        }
      ],
      "name": "transferOwnership",
      "outputs": [],
      "stateMutability": "nonpayable",
      "type": "function"
    },
    {
      "inputs": [
        {
          "internalType": "contract IERC20",
          "name": "asset",
          "type": "address"
        },
        {
          "internalType": "uint256",
          "name": "amount",
          "type": "uint256"
        }
      ],
      "name": "withdrawTokens",
      "outputs": [],
      "stateMutability": "nonpayable",
      "type": "function"
    }
  ],
  "bytecode": "0x60a0346100e557601f610fb638819003918201601f19168301916001600160401b038311848410176100e9578084926020946040528339810103126100e557516001600160a01b038116908181036100e55733156100d2575f8054336001600160a01b0319821681178355604051949290916001600160a01b0316907f8be0079c531659141344cd1fd0a4f28419497f9722a3daafe3b4186f6b6457e09080a3156100c357608052610eb890816100fe823960805181818161049b01526106f00152f35b6314203b4b60e01b5f5260045ffd5b631e4fbdf760e01b5f525f60045260245ffd5b5f80fd5b634e487b7160e01b5f52604160045260245ffdfe60806040526004361015610011575f80fd5b5f3560e01c806306b091f914610a7d57806312739fb2146108825780632506c0181461061957806366168bd714610548578063715018a6146104f15780638da5cb5b146104ca578063ac3af20814610486578063ac9650d8146102a5578063cea9d26f14610233578063d7f8e9a51461011b5763f2fde38b14610092575f80fd5b34610117576020366003190112610117576100ab610b6d565b6100b3610d86565b6001600160a01b03168015610104575f80546001600160a01b03198116831782556001600160a01b0316907f8be0079c531659141344cd1fd0a4f28419497f9722a3daafe3b4186f6b6457e09080a3005b631e4fbdf760e01b5f525f60045260245ffd5b5f80fd5b3461011757604036600319011261011757610134610b6d565b60243590610140610c0f565b6001600160a01b0316908115610224578061021f57505f195b604051632d182be560e21b815260048101829052306024820152336044820152916020836064815f855af1918215610214575f926101df575b6020935060405190815282848201527f3018bc84615a588f3485d554ded6943344a7f25f8b758b14b6e9677378c1c68b60403392a35f5f516020610e635f395f51905f525d604051908152f35b91506020833d60201161020c575b816101fa60209383610b99565b81010312610117576020925191610192565b3d91506101ed565b6040513d5f823e3d90fd5b610159565b6317b9ea1760e11b5f5260045ffd5b346101175760603660031901126101175761024c610b6d565b610254610b83565b7f77023e19c7343ad491fd706c36335ca0e738340a91f29b1fd81e2673d44896c4602060443592610283610d86565b61028e848287610c44565b6040519384526001600160a01b03908116941692a3005b346101175760203660031901126101175760043567ffffffffffffffff811161011757366023820112156101175780600401359067ffffffffffffffff8211610117573660248360051b8301011161011757906020916040516103088482610b99565b5f815283810191601f19850136843761032084610bcf565b9061032e6040519283610b99565b848252601f1961033d86610bcf565b01865f5b828110610477575050503681900360421901905f5b868110156104035760248160051b83010135838112156101175782019060248201359167ffffffffffffffff831161011757604401918036038313610117575f80600194896103d36103e7958f8e6040519483869484860198893784019083820190898252519283915e010185815203601f198101835282610b99565b5190305af46103e0610d47565b9030610e04565b6103f18287610be7565b526103fc8186610be7565b5001610356565b604080518981528551818b018190525f92600582901b8301810191888d01918d9085015b8287106104345785850386f35b90919293828080600193603f198a82030186528189518051918291828552018484015e5f838284010152601f801991011601019601920196019592919092610427565b60608582018301528101610341565b34610117575f366003190112610117576040517f00000000000000000000000000000000000000000000000000000000000000006001600160a01b03168152602090f35b34610117575f366003190112610117575f546040516001600160a01b039091168152602090f35b34610117575f36600319011261011757610509610d86565b5f80546001600160a01b0319811682556001600160a01b03167f8be0079c531659141344cd1fd0a4f28419497f9722a3daafe3b4186f6b6457e08280a3005b3461011757604036600319011261011757610561610b6d565b60243561056c610c0f565b6001600160a01b03821691821561060a5781156105fb576040516323b872dd60e01b6020820152336024820152306044820152606480820184905281526105bd916105b8608483610b99565b610dac565b6040519081527fcbc4a4091b012bb1329c38bbbb15455f5cac5aa3673da0a7f38cd61a4f49551760203392a35f5f516020610e635f395f51905f525d005b631f2a200560e01b5f5260045ffd5b63c1ab6dc160e01b5f5260045ffd5b346101175760a036600319011261011757610632610b6d565b61063a610b83565b90604435916084359067ffffffffffffffff821161011757366023830112156101175781600401359267ffffffffffffffff841161011757366024858501011161011757610686610c0f565b6001600160a01b0381169182158015610871575b61060a5785156105fb576001600160a01b031692828414610862576040516370a0823160e01b815230600482015294602086602481885afa958615610214575f96610827575b509160245f80949381946107168b7f00000000000000000000000000000000000000000000000000000000000000008097610c82565b80604051948593018337810182815203925af1610731610d47565b5015610818576040516370a0823160e01b815230600482015292602084602481865afa938415610214575f946107e4575b5083039283116107d05760643583106107c15760209360405190815283858201527f6782190c91d4a7e8ad2a867deed6ec0a970cab8ff137ae2bd4abd92b3810f4d360403392a45f5f516020610e635f395f51905f525d604051908152f35b6342301c2360e01b5f5260045ffd5b634e487b7160e01b5f52601160045260245ffd5b9093506020813d602011610810575b8161080060209383610b99565b8101031261011757519285610762565b3d91506107f3565b63081ceff360e41b5f5260045ffd5b91929095506020823d60201161085a575b8161084560209383610b99565b810103126101175790519490919060246106e0565b3d9150610838565b6341e0808560e11b5f5260045ffd5b506001600160a01b0381161561069a565b346101175760603660031901126101175761089b610b6d565b6108a3610b83565b90604435906108b0610c0f565b6001600160a01b0316918215610224576001600160a01b0316801561060a576040516338d52e0f60e01b815290602082600481875afa918215610214575f92610a36575b50916020602493604051948580926370a0823160e01b82523060048301525afa928315610214575f93610a02575b50806109fc5750815b82116107c15761094790829084906001600160a01b0316610c82565b604051636e553f6560e01b815260048101829052336024820152916020836044815f855af1918215610214575f926109c7575b6020935060405190815282848201527fd584e570678d099262db4ba972df2e63e3618dadc6179677a6a2b18360c4a65760403392a35f5f516020610e635f395f51905f525d604051908152f35b91506020833d6020116109f4575b816109e260209383610b99565b8101031261011757602092519161097a565b3d91506109d5565b9161092b565b9092506020813d602011610a2e575b81610a1e60209383610b99565b8101031261011757519184610922565b3d9150610a11565b9091506020813d602011610a75575b81610a5260209383610b99565b810103126101175751916001600160a01b038316830361011757919060206108f4565b3d9150610a45565b3461011757604036600319011261011757610a96610b6d565b60243590610aa2610c0f565b6001600160a01b038116919081831561060a5715610b05575b81610ac7913390610c44565b6040519081527f6337ed398c0e8467698c581374fdce4db14922df487b5a39483079f5f59b60a460203392a35f5f516020610e635f395f51905f525d005b6040516370a0823160e01b8152306004820152909150602081602481865afa8015610214575f90610b39575b919050610abb565b506020813d602011610b65575b81610b5360209383610b99565b8101031261011757610ac79051610b31565b3d9150610b46565b600435906001600160a01b038216820361011757565b602435906001600160a01b038216820361011757565b90601f8019910116810190811067ffffffffffffffff821117610bbb57604052565b634e487b7160e01b5f52604160045260245ffd5b67ffffffffffffffff8111610bbb5760051b60200190565b8051821015610bfb5760209160051b010190565b634e487b7160e01b5f52603260045260245ffd5b5f516020610e635f395f51905f525c610c355760015f516020610e635f395f51905f525d565b633ee5aeb560e01b5f5260045ffd5b60405163a9059cbb60e01b60208201526001600160a01b03929092166024830152604480830193909352918152610c80916105b8606483610b99565b565b60405163095ea7b360e01b60208083019182526001600160a01b0385166024840152604480840196909652948252929390925f90610cc1606486610b99565b84519082855af15f513d82610d22575b505015610cdd57505050565b60405163095ea7b360e01b60208201526001600160a01b0390931660248401525f6044808501919091528352610c80926105b890610d1c606482610b99565b82610dac565b909150610d3f57506001600160a01b0381163b15155b5f80610cd1565b600114610d38565b3d15610d81573d9067ffffffffffffffff8211610bbb5760405191610d76601f8201601f191660200184610b99565b82523d5f602084013e565b606090565b5f546001600160a01b03163303610d9957565b63118cdaa760e01b5f523360045260245ffd5b905f602091828151910182855af115610214575f513d610dfb57506001600160a01b0381163b155b610ddb5750565b635274afe760e01b5f9081526001600160a01b0391909116600452602490fd5b60011415610dd4565b90610e285750805115610e1957805190602001fd5b63d6bda27560e01b5f5260045ffd5b81511580610e59575b610e39575090565b639996b31560e01b5f9081526001600160a01b0391909116600452602490fd5b50803b15610e3156fe9b779b17422d0df92223018b32b4d1fa46e071723d6817e2486d003becc55f00a264697066735822122055033120d257e916d0b9d603c4aff8fd8b9c8bb39d40499c7d8e51029a80e21c64736f6c634300081b0033",
  "linkReferences": {},
  "deployedLinkReferences": {}
}