{
  "_format": "hh-sol-artifact-1",
  "contractName": "TipJar",
  "sourceName": "src/contracts/TipJar.sol",
  "abi": [
    {
      "inputs": [
        {
          "internalType": "address",
          "name": "_accessManager",
          "type": "address"
        },
        {
          "internalType": "address",
          "name": "_configurationManager",
          "type": "address"
        }
      ],
      "stateMutability": "nonpayable",
      "type": "constructor"
    },
    {
      "inputs": [
        {
          "internalType": "address",
          "name": "caller",
          "type": "address"
        }
      ],
      "name": "CallerIsNotAdmin",
      "type": "error"
    },
    {
      "inputs": [
        {
          "internalType": "address",
          "name": "caller",
          "type": "address"
        }
      ],
      "name": "CallerIsNotAuthorizedToBoard",
      "type": "error"
    },
    {
      "inputs": [
        {
          "internalType": "address",
          "name": "caller",
          "type": "address"
        }
      ],
      "name": "CallerIsNotCommander",
      "type": "error"
    },
    {
      "inputs": [
        {
          "internalType": "address",
          "name": "caller",
          "type": "address"
        },
        {
          "internalType": "bytes32",
          "name": "role",
          "type": "bytes32"
        }
      ],
      "name": "CallerIsNotContractSpecificRole",
      "type": "error"
    },
    {
      "inputs": [
        {
          "internalType": "address",
          "name": "caller",
          "type": "address"
        }
      ],
      "name": "CallerIsNotCurator",
      "type": "error"
    },
    {
      "inputs": [
        {
          "internalType": "address",
          "name": "caller",
          "type": "address"
        }
      ],
      "name": "CallerIsNotDecayController",
      "type": "error"
    },
    {
      "inputs": [
        {
          "internalType": "address",
          "name": "caller",
          "type": "address"
        }
      ],
      "name": "CallerIsNotGovernor",
      "type": "error"
    },
    {
      "inputs": [
        {
          "internalType": "address",
          "name": "caller",
          "type": "address"
        }
      ],
      "name": "CallerIsNotGuardian",
      "type": "error"
    },
    {
      "inputs": [
        {
          "internalType": "address",
          "name": "caller",
          "type": "address"
        }
      ],
      "name": "CallerIsNotGuardianOrGovernor",
      "type": "error"
    },
    {
      "inputs": [
        {
          "internalType": "address",
          "name": "caller",
          "type": "address"
        }
      ],
      "name": "CallerIsNotKeeper",
      "type": "error"
    },
    {
      "inputs": [
        {
          "internalType": "address",
          "name": "caller",
          "type": "address"
        }
      ],
      "name": "CallerIsNotRaft",
      "type": "error"
    },
    {
      "inputs": [
        {
          "internalType": "address",
          "name": "caller",
          "type": "address"
        }
      ],
      "name": "CallerIsNotRaftOrCommander",
      "type": "error"
    },
    {
      "inputs": [
        {
          "internalType": "address",
          "name": "caller",
          "type": "address"
        }
      ],
      "name": "CallerIsNotSuperKeeper",
      "type": "error"
    },
    {
      "inputs": [],
      "name": "ConfigurationManagerZeroAddress",
      "type": "error"
    },
    {
      "inputs": [
        {
          "internalType": "address",
          "name": "caller",
          "type": "address"
        }
      ],
      "name": "DirectGrantIsDisabled",
      "type": "error"
    },
    {
      "inputs": [
        {
          "internalType": "address",
          "name": "caller",
          "type": "address"
        }
      ],
      "name": "DirectRevokeIsDisabled",
      "type": "error"
    },
    {
      "inputs": [],
      "name": "EnforcedPause",
      "type": "error"
    },
    {
      "inputs": [],
      "name": "ExpectedPause",
      "type": "error"
    },
    {
      "inputs": [
        {
          "internalType": "address",
          "name": "invalidAddress",
          "type": "address"
        }
      ],
      "name": "InvalidAccessManagerAddress",
      "type": "error"
    },
    {
      "inputs": [],
      "name": "InvalidFleetCommanderAddress",
      "type": "error"
    },
    {
      "inputs": [],
      "name": "InvalidRecipientAddress",
      "type": "error"
    },
    {
      "inputs": [
        {
          "internalType": "Percentage",
          "name": "invalidAllocation",
          "type": "uint256"
        }
      ],
      "name": "InvalidTipStreamAllocation",
      "type": "error"
    },
    {
      "inputs": [],
      "name": "InvalidTreasuryAddress",
      "type": "error"
    },
    {
      "inputs": [],
      "name": "NoAssetsToDistribute",
      "type": "error"
    },
    {
      "inputs": [],
      "name": "NoSharesToRedeem",
      "type": "error"
    },
    {
      "inputs": [
        {
          "internalType": "address",
          "name": "recipient",
          "type": "address"
        }
      ],
      "name": "TipStreamAlreadyExists",
      "type": "error"
    },
    {
      "inputs": [
        {
          "internalType": "address",
          "name": "recipient",
          "type": "address"
        }
      ],
      "name": "TipStreamDoesNotExist",
      "type": "error"
    },
    {
      "inputs": [
        {
          "internalType": "address",
          "name": "recipient",
          "type": "address"
        }
      ],
      "name": "TipStreamLocked",
      "type": "error"
    },
    {
      "inputs": [],
      "name": "TotalAllocationExceedsOneHundredPercent",
      "type": "error"
    },
    {
      "anonymous": false,
      "inputs": [
        {
          "indexed": false,
          "internalType": "address",
          "name": "account",
          "type": "address"
        }
      ],
      "name": "Paused",
      "type": "event"
    },
    {
      "anonymous": false,
      "inputs": [
        {
          "indexed": true,
          "internalType": "address",
          "name": "account",
          "type": "address"
        }
      ],
      "name": "TipJarPaused",
      "type": "event"
    },
    {
      "anonymous": false,
      "inputs": [
        {
          "indexed": true,
          "internalType": "address",
          "name": "fleetCommander",
          "type": "address"
        },
        {
          "indexed": false,
          "internalType": "uint256",
          "name": "totalDistributed",
          "type": "uint256"
        }
      ],
      "name": "TipJarShaken",
      "type": "event"
    },
    {
      "anonymous": false,
      "inputs": [
        {
          "indexed": true,
          "internalType": "address",
          "name": "account",
          "type": "address"
        }
      ],
      "name": "TipJarUnpaused",
      "type": "event"
    },
    {
      "anonymous": false,
      "inputs": [
        {
          "components": [
            {
              "internalType": "address",
              "name": "recipient",
              "type": "address"
            },
            {
              "internalType": "Percentage",
              "name": "allocation",
              "type": "uint256"
            },
            {
              "internalType": "uint256",
              "name": "lockedUntilEpoch",
              "type": "uint256"
            }
          ],
          "indexed": false,
          "internalType": "struct ITipJar.TipStream",
          "name": "tipStream",
          "type": "tuple"
        }
      ],
      "name": "TipStreamAdded",
      "type": "event"
    },
    {
      "anonymous": false,
      "inputs": [
        {
          "indexed": true,
          "internalType": "address",
          "name": "recipient",
          "type": "address"
        }
      ],
      "name": "TipStreamRemoved",
      "type": "event"
    },
    {
      "anonymous": false,
      "inputs": [
        {
          "components": [
            {
              "internalType": "address",
              "name": "recipient",
              "type": "address"
            },
            {
              "internalType": "Percentage",
              "name": "allocation",
              "type": "uint256"
            },
            {
              "internalType": "uint256",
              "name": "lockedUntilEpoch",
              "type": "uint256"
            }
          ],
          "indexed": false,
          "internalType": "struct ITipJar.TipStream",
          "name": "oldTipStream",
          "type": "tuple"
        },
        {
          "components": [
            {
              "internalType": "address",
              "name": "recipient",
              "type": "address"
            },
            {
              "internalType": "Percentage",
              "name": "allocation",
              "type": "uint256"
            },
            {
              "internalType": "uint256",
              "name": "lockedUntilEpoch",
              "type": "uint256"
            }
          ],
          "indexed": false,
          "internalType": "struct ITipJar.TipStream",
          "name": "newTipStream",
          "type": "tuple"
        }
      ],
      "name": "TipStreamUpdated",
      "type": "event"
    },
    {
      "anonymous": false,
      "inputs": [
        {
          "indexed": false,
          "internalType": "address",
          "name": "account",
          "type": "address"
        }
      ],
      "name": "Unpaused",
      "type": "event"
    },
    {
      "inputs": [
        {
          "components": [
            {
              "internalType": "address",
              "name": "recipient",
              "type": "address"
            },
            {
              "internalType": "Percentage",
              "name": "allocation",
              "type": "uint256"
            },
            {
              "internalType": "uint256",
              "name": "lockedUntilEpoch",
              "type": "uint256"
            }
          ],
          "internalType": "struct ITipJar.TipStream",
          "name": "tipStream",
          "type": "tuple"
        }
      ],
      "name": "addTipStream",
      "outputs": [
        {
          "internalType": "uint256",
          "name": "lockedUntilEpoch",
          "type": "uint256"
        }
      ],
      "stateMutability": "nonpayable",
      "type": "function"
    },
    {
      "inputs": [],
      "name": "configurationManager",
      "outputs": [
        {
          "internalType": "contract IConfigurationManager",
          "name": "",
          "type": "address"
        }
      ],
      "stateMutability": "view",
      "type": "function"
    },
    {
      "inputs": [],
      "name": "fleetCommanderRewardsManagerFactory",
      "outputs": [
        {
          "internalType": "address",
          "name": "",
          "type": "address"
        }
      ],
      "stateMutability": "view",
      "type": "function"
    },
    {
      "inputs": [
        {
          "internalType": "enum ContractSpecificRoles",
          "name": "roleName",
          "type": "uint8"
        },
        {
          "internalType": "address",
          "name": "roleTargetContract",
          "type": "address"
        }
      ],
      "name": "generateRole",
      "outputs": [
        {
          "internalType": "bytes32",
          "name": "",
          "type": "bytes32"
        }
      ],
      "stateMutability": "pure",
      "type": "function"
    },
    {
      "inputs": [],
      "name": "getAllTipStreams",
      "outputs": [
        {
          "components": [
            {
              "internalType": "address",
              "name": "recipient",
              "type": "address"
            },
            {
              "internalType": "Percentage",
              "name": "allocation",
              "type": "uint256"
            },
            {
              "internalType": "uint256",
              "name": "lockedUntilEpoch",
              "type": "uint256"
            }
          ],
          "internalType": "struct ITipJar.TipStream[]",
          "name": "allStreams",
          "type": "tuple[]"
        }
      ],
      "stateMutability": "view",
      "type": "function"
    },
    {
      "inputs": [
        {
          "internalType": "address",
          "name": "recipient",
          "type": "address"
        }
      ],
      "name": "getTipStream",
      "outputs": [
        {
          "components": [
            {
              "internalType": "address",
              "name": "recipient",
              "type": "address"
            },
            {
              "internalType": "Percentage",
              "name": "allocation",
              "type": "uint256"
            },
            {
              "internalType": "uint256",
              "name": "lockedUntilEpoch",
              "type": "uint256"
            }
          ],
          "internalType": "struct ITipJar.TipStream",
          "name": "",
          "type": "tuple"
        }
      ],
      "stateMutability": "view",
      "type": "function"
    },
    {
      "inputs": [],
      "name": "getTotalAllocation",
      "outputs": [
        {
          "internalType": "Percentage",
          "name": "total",
          "type": "uint256"
        }
      ],
      "stateMutability": "view",
      "type": "function"
    },
    {
      "inputs": [],
      "name": "harborCommand",
      "outputs": [
        {
          "internalType": "address",
          "name": "",
          "type": "address"
        }
      ],
      "stateMutability": "view",
      "type": "function"
    },
    {
      "inputs": [
        {
          "internalType": "address",
          "name": "account",
          "type": "address"
        }
      ],
      "name": "hasAdmiralsQuartersRole",
      "outputs": [
        {
          "internalType": "bool",
          "name": "",
          "type": "bool"
        }
      ],
      "stateMutability": "view",
      "type": "function"
    },
    {
      "inputs": [],
      "name": "pause",
      "outputs": [],
      "stateMutability": "nonpayable",
      "type": "function"
    },
    {
      "inputs": [],
      "name": "paused",
      "outputs": [
        {
          "internalType": "bool",
          "name": "",
          "type": "bool"
        }
      ],
      "stateMutability": "view",
      "type": "function"
    },
    {
      "inputs": [],
      "name": "raft",
      "outputs": [
        {
          "internalType": "address",
          "name": "",
          "type": "address"
        }
      ],
      "stateMutability": "view",
      "type": "function"
    },
    {
      "inputs": [
        {
          "internalType": "address",
          "name": "recipient",
          "type": "address"
        }
      ],
      "name": "removeTipStream",
      "outputs": [],
      "stateMutability": "nonpayable",
      "type": "function"
    },
    {
      "inputs": [
        {
          "internalType": "address",
          "name": "fleetCommander_",
          "type": "address"
        }
      ],
      "name": "shake",
      "outputs": [],
      "stateMutability": "nonpayable",
      "type": "function"
    },
    {
      "inputs": [],
      "name": "shakeAll",
      "outputs": [],
      "stateMutability": "nonpayable",
      "type": "function"
    },
    {
      "inputs": [
        {
          "internalType": "address[]",
          "name": "fleetCommanders",
          "type": "address[]"
        }
      ],
      "name": "shakeMultiple",
      "outputs": [],
      "stateMutability": "nonpayable",
      "type": "function"
    },
    {
      "inputs": [],
      "name": "tipJar",
      "outputs": [
        {
          "internalType": "address",
          "name": "",
          "type": "address"
        }
      ],
      "stateMutability": "view",
      "type": "function"
    },
    {
      "inputs": [
        {
          "internalType": "uint256",
          "name": "",
          "type": "uint256"
        }
      ],
      "name": "tipStreamRecipients",
      "outputs": [
        {
          "internalType": "address",
          "name": "",
          "type": "address"
        }
      ],
      "stateMutability": "view",
      "type": "function"
    },
    {
      "inputs": [
        {
          "internalType": "address",
          "name": "recipient",
          "type": "address"
        }
      ],
      "name": "tipStreams",
      "outputs": [
        {
          "internalType": "address",
          "name": "recipient",
          "type": "address"
        },
        {
          "internalType": "Percentage",
          "name": "allocation",
          "type": "uint256"
        },
        {
          "internalType": "uint256",
          "name": "lockedUntilEpoch",
          "type": "uint256"
        }
      ],
      "stateMutability": "view",
      "type": "function"
    },
    {
      "inputs": [],
      "name": "treasury",
      "outputs": [
        {
          "internalType": "address",
          "name": "",
          "type": "address"
        }
      ],
      "stateMutability": "view",
      "type": "function"
    },
    {
      "inputs": [],
      "name": "unpause",
      "outputs": [],
      "stateMutability": "nonpayable",
      "type": "function"
    },
    {
      "inputs": [
        {
          "components": [
            {
              "internalType": "address",
              "name": "recipient",
              "type": "address"
            },
            {
              "internalType": "Percentage",
              "name": "allocation",
              "type": "uint256"
            },
            {
              "internalType": "uint256",
              "name": "lockedUntilEpoch",
              "type": "uint256"
            }
          ],
          "internalType": "struct ITipJar.TipStream",
          "name": "tipStream",
          "type": "tuple"
        },
        {
          "internalType": "bool",
          "name": "shakeAllFleetCommanders",
          "type": "bool"
        }
      ],
      "name": "updateTipStream",
      "outputs": [],
      "stateMutability": "nonpayable",
      "type": "function"
    }
  ],
  "bytecode": "0x60a0806040523461013957604081611ac0803803809161001f8285610163565b8339810103126101395761003e60206100378361019a565b920161019a565b6001600160a01b03909116908115610150576040516301ffc9a760e01b81526338c7ccdb60e01b6004820152602081602481865afa908115610145575f91610106575b50156100f3575f54906001600160a01b031680156100e4576080526001600160a81b031916175f5560405161191190816101af82396080518181816101510152818161043301528181610b650152818161103201528181611204015261128b0152f35b63f1634df960e01b5f5260045ffd5b506347bd7c1d60e01b5f5260045260245ffd5b90506020813d60201161013d575b8161012160209383610163565b8101031261013957518015158103610139575f610081565b5f80fd5b3d9150610114565b6040513d5f823e3d90fd5b6347bd7c1d60e01b5f525f60045260245ffd5b601f909101601f19168101906001600160401b0382119082101761018657604052565b634e487b7160e01b5f52604160045260245ffd5b51906001600160a01b03821682036101395756fe6080806040526004361015610012575f80fd5b5f3560e01c908163117d8ae0146110115750806315d3b5d814610fef57806319d8b41c14610e165780633f4ba83a14610cce578063407f25fb14610c8c5780635b0f83f314610c725780635c975abb14610c4e57806361d027b314610c2257806369b3054b14610bb05780637aaceb9514610b40578063839b088514610a9d5780638456cb591461094f578063908cbdc6146108dd578063908fb02d146106e2578063b2cdc7db1461068b578063bf7c1cc114610462578063c9c667e31461041e578063ebc136d01461032a578063efffce611461020b578063f5abfe5e146101e2578063f7e533ec1461012c5763fffa445e1461010e575f80fd5b34610128575f3660031901126101285761012661131c565b005b5f80fd5b34610128575f36600319011261012857604051633df94cfb60e21b81526020816004817f00000000000000000000000000000000000000000000000000000000000000006001600160a01b03165afa80156101d7575f9061019d575b6040516001600160a01b039091168152602090f35b506020813d6020116101cf575b816101b760209383611098565b81010312610128576101ca60209161115e565b610188565b3d91506101aa565b6040513d5f823e3d90fd5b34610128576020366003190112610128576101266101fe6110b9565b610206611505565b611522565b34610128575f36600319011261012857600254610227816112c6565b906102356040519283611098565b808252601f19610244826112c6565b015f5b8181106103135750505f5b8181106102a957826040518091602082016020835281518091526020604084019201905f5b818110610285575050500390f35b91935091602060608261029b600194885161113c565b019401910191849392610277565b806102b5600192611110565b838060a01b0391549060031b1c165f528160205260405f206002604051916102dc8361107d565b848060a01b038154168352848101546020840152015460408201526103018286611308565b5261030c8185611308565b5001610252565b60209061031e6112dd565b82828701015201610247565b34610128576020366003190112610128576103436110b9565b5f5460405163a89f38a360e01b81526001600160a01b039091169190602081600481865afa9081156101d7575f916103e8575b50604051632474521560e21b81529260209284928391829161039c9190600484016111d6565b03915afa80156101d7576020915f916103bb575b506040519015158152f35b6103db9150823d84116103e1575b6103d38183611098565b8101906111be565b826103b0565b503d6103c9565b9190506020823d602011610416575b8161040460209383611098565b8101031261012857905161039c610376565b3d91506103f7565b34610128575f366003190112610128576040517f00000000000000000000000000000000000000000000000000000000000000006001600160a01b03168152602090f35b346101285760203660031901126101285761047b6110b9565b5f54604051630ccc574960e41b81526001600160a01b0390911690602081600481855afa9081156101d7575f91610657575b506020906104d2926040518080958194632474521560e21b83523390600484016111d6565b03915afa9081156101d7575f91610638575b5015610625576104f381611403565b60018060a01b0316805f5260016020525f60026040822082815582600182015501555f5b600254908181101561061e578261052d82611110565b905460039190911b1c6001600160a01b03161461054e576001915001610517565b5f19820191821161060a576105806105686105a493611110565b905460039190911b1c6001600160a01b031691611110565b9080546001600160a01b0360039390931b83811b199091169290931690921b179055565b60025480156105f6575f19016105b981611110565b81549060018060a01b039060031b1b191690556002555b7f27d83e91c23e8d23e65c7096fcf662b306a1b459d3f1f2451462ad9817449e985f80a2005b634e487b7160e01b5f52603160045260245ffd5b634e487b7160e01b5f52601160045260245ffd5b50506105d0565b630ea7d7ed60e21b5f523360045260245ffd5b610651915060203d6020116103e1576103d38183611098565b826104e4565b90506020813d602011610683575b8161067260209383611098565b8101031261012857516104d26104ad565b3d9150610665565b34610128576020366003190112610128576001600160a01b036106ac6110b9565b165f526001602052606060405f2060018060a01b0381541690600260018201549101549060405192835260208301526040820152f35b34610128576060366003190112610128576106fc366110cf565b5f54604051630ccc574960e41b81526001600160a01b0390911690602081600481855afa9081156101d7575f916108a9575b50602090610753926040518080958194632474521560e21b83523390600484016111d6565b03915afa9081156101d7575f9161088a575b50156106255780516001600160a01b039081165f908152600160205260409020541661086a57602081016107b3815160018060a01b038451165f526001602052600160405f20015490611461565b81516001600160a01b039081165f90815260016020819052604091829020855181546001600160a01b0319169416938417815593519084015583018051600293840155915490600160401b8210156108565760209361083f6060926105808560017fc74f22a7864325ef73181ac12dffdb2376c8c1ae1a55c09314bb85c3cb547e2c9701600255611110565b61084c604051809261113c565ba151604051908152f35b634e487b7160e01b5f52604160045260245ffd5b5163ca86ad5f60e01b5f9081526001600160a01b03909116600452602490fd5b6108a3915060203d6020116103e1576103d38183611098565b82610765565b90506020813d6020116108d5575b816108c460209383611098565b81010312610128575161075361072e565b3d91506108b7565b34610128576020366003190112610128576108f66110b9565b6108fe6112dd565b5060018060a01b03165f526001602052606060405f206002604051916109238361107d565b60018060a01b038154168352600181015460208401520154604082015261094d604051809261113c565bf35b34610128575f366003190112610128575f5460405163093a953d60e21b81526001600160a01b03821690602081600481855afa9081156101d7575f91610a69575b506020906109b5926040518080958194632474521560e21b83523390600484016111d6565b03915afa9081156101d7575f91610a4a575b5015610a37576109d5611505565b60ff60a01b1916600160a01b175f556040513381527f62e78cea01bee320cd4e420270b5ea74000d11b0c9f74754ebdbfc544b05a25890602090a1337f14d52775fdf448adb1590a213d36c4b16e90211feebaace272ba2d196bd7c9625f80a2005b635560e16d60e01b5f523360045260245ffd5b610a63915060203d6020116103e1576103d38183611098565b826109c7565b90506020813d602011610a95575b81610a8460209383611098565b8101031261012857516109b5610990565b3d9150610a77565b34610128576020366003190112610128576004356001600160401b03811161012857366023820112156101285780600401356001600160401b0381116101285760248160051b83010136811161012857610af6826112c6565b91610b046040519384611098565b82526024602083019301925b818410610b2057610126836114cf565b83356001600160a01b038116810361012857815260209384019301610b10565b34610128575f36600319011261012857604051637aaceb9560e01b81526020816004817f00000000000000000000000000000000000000000000000000000000000000006001600160a01b03165afa80156101d7575f9061019d576040516001600160a01b039091168152602090f35b3461012857604036600319011261012857600435600381101561012857602435906001600160a01b03821682036101285760405160f89190911b602082810191825260609390931b6001600160601b03191660218301526015825290610c17603582611098565b519020604051908152f35b34610128575f366003190112610128576020610c3c611276565b6040516001600160a01b039091168152f35b34610128575f36600319011261012857602060ff5f5460a01c166040519015158152f35b34610128575f366003190112610128576020610c3c6111ef565b346101285760203660031901126101285760043560025481101561012857610cb5602091611110565b905460405160039290921b1c6001600160a01b03168152f35b34610128575f366003190112610128575f54604051630ccc574960e41b81526001600160a01b03821690602081600481855afa9081156101d7575f91610de2575b50602090610d34926040518080958194632474521560e21b83523390600484016111d6565b03915afa9081156101d7575f91610dc3575b50156106255760ff8160a01c1615610db45760ff60a01b19165f556040513381527f5db9ee0a495bf2e6ff9c91a7834c1ba4fdd244a5e8aa4e537bd38aeae4b073aa90602090a1337fd57b21780f69067eafb3fc443fd50132e616575b1143938eb3e43a56047c85475f80a2005b638dfc202b60e01b5f5260045ffd5b610ddc915060203d6020116103e1576103d38183611098565b82610d46565b90506020813d602011610e0e575b81610dfd60209383611098565b810103126101285751610d34610d0f565b3d9150610df0565b3461012857608036600319011261012857610e30366110cf565b606435908115158203610128575f54604051630ccc574960e41b81526001600160a01b0390911690602081600481855afa9081156101d7575f91610fbb575b50602090610e94926040518080958194632474521560e21b83523390600484016111d6565b03915afa9081156101d7575f91610f9c575b5015610625577ff98da2985cf0f5057e1736402dc428a8e3b5e75cbb807bfd12fc7a438e0c33e291610f8c60c092610ee660018060a01b03825116611403565b60018060a01b038151165f52600160205260405f2060405193610f088561107d565b60018060a01b038254168552600260018301549283602088015201546040860152610f3860208401928351611461565b610f8f575b5160018060a01b038251165f526001602052600160405f200155604081015160018060a01b038251165f526001602052600260405f200155610f82604051809461113c565b606083019061113c565ba1005b610f9761131c565b610f3d565b610fb5915060203d6020116103e1576103d38183611098565b83610ea6565b90506020813d602011610fe7575b81610fd660209383611098565b810103126101285751610e94610e6f565b3d9150610fc9565b34610128575f366003190112610128576020611009611172565b604051908152f35b34610128575f36600319011261012857628bec5760e51b81526020816004817f00000000000000000000000000000000000000000000000000000000000000006001600160a01b03165afa80156101d7575f9061019d576040516001600160a01b039091168152602090f35b606081019081106001600160401b0382111761085657604052565b90601f801991011681019081106001600160401b0382111761085657604052565b600435906001600160a01b038216820361012857565b606090600319011261012857604051906110e88261107d565b816004356001600160a01b038116810361012857815260243560208201526040604435910152565b6002548110156111285760025f5260205f2001905f90565b634e487b7160e01b5f52603260045260245ffd5b80516001600160a01b0316825260208082015190830152604090810151910152565b51906001600160a01b038216820361012857565b5f905f6002545b808210611184575050565b90926111b660019161119586611110565b848060a01b0391549060031b1c165f52826020528260405f200154906113f6565b930190611179565b90816020910312610128575180151581036101285790565b9081526001600160a01b03909116602082015260400190565b604051635b0f83f360e01b81526020816004817f00000000000000000000000000000000000000000000000000000000000000006001600160a01b03165afa9081156101d7575f9161123f575090565b90506020813d60201161126e575b8161125a60209383611098565b810103126101285761126b9061115e565b90565b3d915061124d565b6040516361d027b360e01b81526020816004817f00000000000000000000000000000000000000000000000000000000000000006001600160a01b03165afa9081156101d7575f9161123f575090565b6001600160401b0381116108565760051b60200190565b604051906112ea8261107d565b5f6040838281528260208201520152565b9190820391821161060a57565b80518210156111285760209160051b010190565b60045f6001600160a01b0361132f6111ef565b166040519283809263ab4ba0f760e01b82525afa80156101d7575f9061135c575b61135a91506114cf565b565b503d805f833e61136c8183611098565b810190602081830312610128578051906001600160401b03821161012857019080601f830112156101285781516113a2816112c6565b926113b06040519485611098565b81845260208085019260051b82010192831161012857602001905b8282106113de5750505061135a90611350565b602080916113eb8461115e565b8152019101906113cb565b9190820180921161060a57565b6001600160a01b039081165f818152600160205260409020549091161561144f57805f526001602052600260405f200154421061143d5750565b63214b419b60e21b5f5260045260245ffd5b63b295314d60e01b5f5260045260245ffd5b9190821580156114bd575b6114aa5761148561148a9293611480611172565b6113f6565b6112fb565b68056bc75e2d631000001061149b57565b63b12ff28560e01b5f5260045ffd5b8263354436e360e01b5f5260045260245ffd5b5068056bc75e2d63100000831161146c565b905f5b8251811015611500576001906114fa6001600160a01b036114f38387611308565b5116611522565b016114d2565b509050565b60ff5f5460a01c1661151357565b63d93c066560e01b5f5260045ffd5b602460206001600160a01b036115366111ef565b6040516374e806ab60e11b81526001600160a01b03909516600486018190529493849290918391165afa9081156101d7575f916118bc575b50156118ad576040516370a0823160e01b815230600482015291602083602481855afa9283156101d7575f93611879575b50821561186a5760405192635d043b2960e11b845260048401523060248401523060448401526020836064815f865af19283156101d7575f93611836575b508215611827576040516338d52e0f60e01b8152602081600481865afa9081156101d7575f916117ed575b506001600160a01b0316925f918290815b6002548110156117085761162c81611110565b60018060a01b0391549060031b1c16805f526001602052611655600160405f20015480956113f6565b9368056bc75e2d63100000908186036116f557505061167486866112fb565b905b81611686575b5050600101611619565b60405163a9059cbb60e01b81526001600160a01b03919091166004820152602481018290529195906020836044815f8d5af19182156101d7576001936116d1936116d9575b506113f6565b94905f61167c565b6116f09060203d81116103e1576103d38183611098565b6116cb565b808702908782040361060a570490611676565b509491926117179150836112fb565b908161174d575b505060207fd3f5fdad4c895ab394f249ba2c358f247600664c003b17a0f4ee80309c41a3ae91604051908152a2565b611794929160209161175d611276565b60405163a9059cbb60e01b81526001600160a01b0390911660048201526024810192909252909384919082905f9082906044820190565b03925af19081156101d7577fd3f5fdad4c895ab394f249ba2c358f247600664c003b17a0f4ee80309c41a3ae926020926117d0575b509161171e565b6117e690833d85116103e1576103d38183611098565b505f6117c9565b90506020813d60201161181f575b8161180860209383611098565b81010312610128576118199061115e565b5f611608565b3d91506117fb565b63319f812560e21b5f5260045ffd5b9092506020813d602011611862575b8161185260209383611098565b810103126101285751915f6115dd565b3d9150611845565b63f10cc93760e01b5f5260045ffd5b9092506020813d6020116118a5575b8161189560209383611098565b810103126101285751915f61159f565b3d9150611888565b635ec4fa1360e11b5f5260045ffd5b6118d5915060203d6020116103e1576103d38183611098565b5f61156e56fea264697066735822122061ec01584e278cf2010fd7b730debafbf07c3f414702daff0d0dcd985639284664736f6c634300081c0033",
  "linkReferences": {},
  "deployedLinkReferences": {}
}