{
  "_format": "hh-sol-artifact-1",
  "contractName": "HarborCommand",
  "sourceName": "src/contracts/HarborCommand.sol",
  "abi": [
    {
      "inputs": [
        {
          "internalType": "address",
          "name": "_accessManager",
          "type": "address"
        }
      ],
      "stateMutability": "nonpayable",
      "type": "constructor"
    },
    {
      "inputs": [
        {
          "internalType": "address",
          "name": "caller",
          "type": "address"
        }
      ],
      "name": "CallerIsNotAdmin",
      "type": "error"
    },
    {
      "inputs": [
        {
          "internalType": "address",
          "name": "caller",
          "type": "address"
        }
      ],
      "name": "CallerIsNotAuthorizedToBoard",
      "type": "error"
    },
    {
      "inputs": [
        {
          "internalType": "address",
          "name": "caller",
          "type": "address"
        }
      ],
      "name": "CallerIsNotCommander",
      "type": "error"
    },
    {
      "inputs": [
        {
          "internalType": "address",
          "name": "caller",
          "type": "address"
        },
        {
          "internalType": "bytes32",
          "name": "role",
          "type": "bytes32"
        }
      ],
      "name": "CallerIsNotContractSpecificRole",
      "type": "error"
    },
    {
      "inputs": [
        {
          "internalType": "address",
          "name": "caller",
          "type": "address"
        }
      ],
      "name": "CallerIsNotCurator",
      "type": "error"
    },
    {
      "inputs": [
        {
          "internalType": "address",
          "name": "caller",
          "type": "address"
        }
      ],
      "name": "CallerIsNotGovernor",
      "type": "error"
    },
    {
      "inputs": [
        {
          "internalType": "address",
          "name": "caller",
          "type": "address"
        }
      ],
      "name": "CallerIsNotGuardian",
      "type": "error"
    },
    {
      "inputs": [
        {
          "internalType": "address",
          "name": "caller",
          "type": "address"
        }
      ],
      "name": "CallerIsNotGuardianOrGovernor",
      "type": "error"
    },
    {
      "inputs": [
        {
          "internalType": "address",
          "name": "caller",
          "type": "address"
        }
      ],
      "name": "CallerIsNotKeeper",
      "type": "error"
    },
    {
      "inputs": [
        {
          "internalType": "address",
          "name": "caller",
          "type": "address"
        }
      ],
      "name": "CallerIsNotRaft",
      "type": "error"
    },
    {
      "inputs": [
        {
          "internalType": "address",
          "name": "caller",
          "type": "address"
        }
      ],
      "name": "CallerIsNotRaftOrCommander",
      "type": "error"
    },
    {
      "inputs": [
        {
          "internalType": "address",
          "name": "caller",
          "type": "address"
        }
      ],
      "name": "CallerIsNotSuperKeeper",
      "type": "error"
    },
    {
      "inputs": [
        {
          "internalType": "address",
          "name": "caller",
          "type": "address"
        }
      ],
      "name": "DirectGrantIsDisabled",
      "type": "error"
    },
    {
      "inputs": [
        {
          "internalType": "address",
          "name": "caller",
          "type": "address"
        }
      ],
      "name": "DirectRevokeIsDisabled",
      "type": "error"
    },
    {
      "inputs": [
        {
          "internalType": "address",
          "name": "fleetCommander",
          "type": "address"
        }
      ],
      "name": "FleetCommanderAlreadyEnlisted",
      "type": "error"
    },
    {
      "inputs": [
        {
          "internalType": "address",
          "name": "fleetCommander",
          "type": "address"
        }
      ],
      "name": "FleetCommanderNotEnlisted",
      "type": "error"
    },
    {
      "inputs": [
        {
          "internalType": "address",
          "name": "invalidAddress",
          "type": "address"
        }
      ],
      "name": "InvalidAccessManagerAddress",
      "type": "error"
    },
    {
      "anonymous": false,
      "inputs": [
        {
          "indexed": true,
          "internalType": "address",
          "name": "fleetCommander",
          "type": "address"
        }
      ],
      "name": "FleetCommanderDecommissioned",
      "type": "event"
    },
    {
      "anonymous": false,
      "inputs": [
        {
          "indexed": true,
          "internalType": "address",
          "name": "fleetCommander",
          "type": "address"
        }
      ],
      "name": "FleetCommanderEnlisted",
      "type": "event"
    },
    {
      "inputs": [
        {
          "internalType": "address",
          "name": "",
          "type": "address"
        }
      ],
      "name": "activeFleetCommanders",
      "outputs": [
        {
          "internalType": "bool",
          "name": "",
          "type": "bool"
        }
      ],
      "stateMutability": "view",
      "type": "function"
    },
    {
      "inputs": [
        {
          "internalType": "address",
          "name": "_fleetCommander",
          "type": "address"
        }
      ],
      "name": "decommissionFleetCommander",
      "outputs": [],
      "stateMutability": "nonpayable",
      "type": "function"
    },
    {
      "inputs": [
        {
          "internalType": "address",
          "name": "_fleetCommander",
          "type": "address"
        }
      ],
      "name": "enlistFleetCommander",
      "outputs": [],
      "stateMutability": "nonpayable",
      "type": "function"
    },
    {
      "inputs": [
        {
          "internalType": "uint256",
          "name": "",
          "type": "uint256"
        }
      ],
      "name": "fleetCommandersList",
      "outputs": [
        {
          "internalType": "address",
          "name": "",
          "type": "address"
        }
      ],
      "stateMutability": "view",
      "type": "function"
    },
    {
      "inputs": [
        {
          "internalType": "enum ContractSpecificRoles",
          "name": "roleName",
          "type": "uint8"
        },
        {
          "internalType": "address",
          "name": "roleTargetContract",
          "type": "address"
        }
      ],
      "name": "generateRole",
      "outputs": [
        {
          "internalType": "bytes32",
          "name": "",
          "type": "bytes32"
        }
      ],
      "stateMutability": "pure",
      "type": "function"
    },
    {
      "inputs": [],
      "name": "getActiveFleetCommanders",
      "outputs": [
        {
          "internalType": "address[]",
          "name": "",
          "type": "address[]"
        }
      ],
      "stateMutability": "view",
      "type": "function"
    }
  ],
  "bytecode": "0x608080604052346100e0576020816107fe803803809161001f828561010a565b8339810103126100e057516001600160a01b038116908190036100e05780156100f7576040516301ffc9a760e01b815263a237592160e01b6004820152602081602481855afa9081156100ec575f916100ad575b501561009b575f80546001600160a01b0319169190911790556040516106bc90816101428239f35b6347bd7c1d60e01b5f5260045260245ffd5b90506020813d6020116100e4575b816100c86020938361010a565b810103126100e0575180151581036100e0575f610073565b5f80fd5b3d91506100bb565b6040513d5f823e3d90fd5b6347bd7c1d60e01b5f525f60045260245ffd5b601f909101601f19168101906001600160401b0382119082101761012d57604052565b634e487b7160e01b5f52604160045260245ffdfe6080806040526004361015610012575f80fd5b5f3560e01c908163588b97c71461047e5750806369b3054b1461040b5780638e3d5693146103c9578063ab4ba0f714610301578063b912d58c1461009f5763e9d00d561461005e575f80fd5b3461009b57602036600319011261009b576001600160a01b0361007f61060a565b165f526001602052602060ff60405f2054166040519015158152f35b5f80fd5b3461009b57602036600319011261009b576100b861060a565b5f54604051630ccc574960e41b81526001600160a01b0390911690602081600481855afa9081156102c2575f916102cd575b50604051632474521560e21b815260048101919091523360248201529060209082908180604481015b03915afa9081156102c2575f91610293575b5015610280576001600160a01b03165f8181526001602052604090205460ff161561026e575f818152600160205260408120805460ff191690555b6002549081811015610267578261017682610620565b905460039190911b1c6001600160a01b031614610197576001915001610160565b5f198201918211610253576101c96101b16101ed93610620565b905460039190911b1c6001600160a01b031691610620565b81546001600160a01b0393841660039290921b91821b9390911b1916919091179055565b600254801561023f575f190161020281610620565b81549060018060a01b039060031b1b191690556002555b7f1e34673d1d14c032c95f75eeaf38870b6123c81b82b1ea97cccc7442d06ef6115f80a2005b634e487b7160e01b5f52603160045260245ffd5b634e487b7160e01b5f52601160045260245ffd5b5050610219565b630349cba160e61b5f5260045260245ffd5b630ea7d7ed60e21b5f523360045260245ffd5b6102b5915060203d6020116102bb575b6102ad818361064c565b81019061066e565b82610125565b503d6102a3565b6040513d5f823e3d90fd5b90506020813d6020116102f9575b816102e86020938361064c565b8101031261009b57516101136100ea565b3d91506102db565b3461009b575f36600319011261009b576040518060206002549283815201809260025f527f405787fa12a823e0f2b7631cc41b3ba8828b3321ca811111fa75cd3aa3bb5ace905f5b8181106103aa575050508161035f91038261064c565b604051918291602083019060208452518091526040830191905f5b818110610388575050500390f35b82516001600160a01b031684528594506020938401939092019160010161037a565b82546001600160a01b0316845260209093019260019283019201610349565b3461009b57602036600319011261009b5760043560025481101561009b576103f2602091610620565b905460405160039290921b1c6001600160a01b03168152f35b3461009b57604036600319011261009b57600435600381101561009b57602435906001600160a01b038216820361009b57602091604051908382019260f81b83526bffffffffffffffffffffffff199060601b1660218201526015815261047360358261064c565b519020604051908152f35b3461009b57602036600319011261009b5761049761060a565b5f54630ccc574960e41b835290916001600160a01b0390911690602081600481855afa9081156102c2575f916105d6575b50604051632474521560e21b815260048101919091523360248201529060209082908180604481015b03915afa9081156102c2575f916105b7575b5015610280576001600160a01b0381165f8181526001602052604090205490919060ff166105a457815f52600160205260405f20600160ff198254161790556002549068010000000000000000821015610590576101c982600161056a9401600255610620565b7f8962d9675f6e694d83eac853fc2c4cdac912219afd6e7aaa4f1ba35ff622af2f5f80a2005b634e487b7160e01b5f52604160045260245ffd5b5063e12abecb60e01b5f5260045260245ffd5b6105d0915060203d6020116102bb576102ad818361064c565b82610503565b90506020813d602011610602575b816105f16020938361064c565b8101031261009b57516104f16104c8565b3d91506105e4565b600435906001600160a01b038216820361009b57565b6002548110156106385760025f5260205f2001905f90565b634e487b7160e01b5f52603260045260245ffd5b90601f8019910116810190811067ffffffffffffffff82111761059057604052565b9081602091031261009b5751801515810361009b579056fea2646970667358221220afc09c2d8b08ee5d1e2a49f548a175e96d77f7ceccf87721fe7e01db7b37910264736f6c634300081b0033",
  "linkReferences": {},
  "deployedLinkReferences": {}
}