{
  "_format": "hh-sol-artifact-1",
  "contractName": "DutchAuctionLibrary",
  "sourceName": "@summerfi/dutch-auction/DutchAuctionLibrary.sol",
  "abi": [
    {
      "inputs": [],
      "name": "InvalidAuctionToken",
      "type": "error"
    },
    {
      "inputs": [],
      "name": "InvalidDecayType",
      "type": "error"
    },
    {
      "inputs": [],
      "name": "InvalidDuration",
      "type": "error"
    },
    {
      "inputs": [],
      "name": "InvalidKickerRewardPercentage",
      "type": "error"
    },
    {
      "inputs": [],
      "name": "InvalidPaymentToken",
      "type": "error"
    },
    {
      "inputs": [],
      "name": "InvalidPrices",
      "type": "error"
    },
    {
      "inputs": [],
      "name": "InvalidTokenAmount",
      "type": "error"
    },
    {
      "inputs": [
        {
          "internalType": "uint256",
          "name": "x",
          "type": "uint256"
        },
        {
          "internalType": "uint256",
          "name": "y",
          "type": "uint256"
        }
      ],
      "name": "PRBMath_MulDiv18_Overflow",
      "type": "error"
    },
    {
      "inputs": [
        {
          "internalType": "uint256",
          "name": "x",
          "type": "uint256"
        },
        {
          "internalType": "uint256",
          "name": "y",
          "type": "uint256"
        },
        {
          "internalType": "uint256",
          "name": "denominator",
          "type": "uint256"
        }
      ],
      "name": "PRBMath_MulDiv_Overflow",
      "type": "error"
    },
    {
      "inputs": [
        {
          "internalType": "uint256",
          "name": "x",
          "type": "uint256"
        }
      ],
      "name": "PRBMath_UD60x18_Convert_Overflow",
      "type": "error"
    },
    {
      "inputs": [
        {
          "internalType": "address",
          "name": "token",
          "type": "address"
        }
      ],
      "name": "SafeERC20FailedOperation",
      "type": "error"
    },
    {
      "anonymous": false,
      "inputs": [
        {
          "indexed": true,
          "internalType": "uint256",
          "name": "auctionId",
          "type": "uint256"
        },
        {
          "indexed": true,
          "internalType": "address",
          "name": "auctionKicker",
          "type": "address"
        },
        {
          "indexed": false,
          "internalType": "uint256",
          "name": "totalTokens",
          "type": "uint256"
        },
        {
          "indexed": false,
          "internalType": "uint256",
          "name": "kickerRewardAmount",
          "type": "uint256"
        }
      ],
      "name": "AuctionCreated",
      "type": "event"
    },
    {
      "anonymous": false,
      "inputs": [
        {
          "indexed": true,
          "internalType": "uint256",
          "name": "auctionId",
          "type": "uint256"
        },
        {
          "indexed": true,
          "internalType": "address",
          "name": "kicker",
          "type": "address"
        },
        {
          "indexed": false,
          "internalType": "uint256",
          "name": "amount",
          "type": "uint256"
        }
      ],
      "name": "KickerRewardClaimed",
      "type": "event"
    },
    {
      "inputs": [
        {
          "components": [
            {
              "components": [
                {
                  "internalType": "contract IERC20",
                  "name": "auctionToken",
                  "type": "IERC20"
                },
                {
                  "internalType": "contract IERC20",
                  "name": "paymentToken",
                  "type": "IERC20"
                },
                {
                  "internalType": "uint40",
                  "name": "startTime",
                  "type": "uint40"
                },
                {
                  "internalType": "uint40",
                  "name": "endTime",
                  "type": "uint40"
                },
                {
                  "internalType": "uint8",
                  "name": "auctionTokenDecimals",
                  "type": "uint8"
                },
                {
                  "internalType": "uint8",
                  "name": "paymentTokenDecimals",
                  "type": "uint8"
                },
                {
                  "internalType": "address",
                  "name": "auctionKicker",
                  "type": "address"
                },
                {
                  "internalType": "address",
                  "name": "unsoldTokensRecipient",
                  "type": "address"
                },
                {
                  "internalType": "uint40",
                  "name": "id",
                  "type": "uint40"
                },
                {
                  "internalType": "enum DecayFunctions.DecayType",
                  "name": "decayType",
                  "type": "DecayFunctions.DecayType"
                },
                {
                  "internalType": "uint256",
                  "name": "startPrice",
                  "type": "uint256"
                },
                {
                  "internalType": "uint256",
                  "name": "endPrice",
                  "type": "uint256"
                },
                {
                  "internalType": "uint256",
                  "name": "totalTokens",
                  "type": "uint256"
                },
                {
                  "internalType": "uint256",
                  "name": "kickerRewardAmount",
                  "type": "uint256"
                }
              ],
              "internalType": "struct DutchAuctionLibrary.AuctionConfig",
              "name": "config",
              "type": "tuple"
            },
            {
              "components": [
                {
                  "internalType": "uint256",
                  "name": "remainingTokens",
                  "type": "uint256"
                },
                {
                  "internalType": "bool",
                  "name": "isFinalized",
                  "type": "bool"
                }
              ],
              "internalType": "struct DutchAuctionLibrary.AuctionState",
              "name": "state",
              "type": "tuple"
            }
          ],
          "internalType": "struct DutchAuctionLibrary.Auction",
          "name": "auction",
          "type": "tuple"
        }
      ],
      "name": "getCurrentPrice",
      "outputs": [
        {
          "internalType": "uint256",
          "name": "",
          "type": "uint256"
        }
      ],
      "stateMutability": "view",
      "type": "function"
    }
  ],
  "bytecode": "0x60808060405234601c57610ce79081610021823930816102340152f35b5f80fdfe6080806040526004361015610012575f80fd5b5f3560e01c90816337ab217214610231575063e1b0a64214610032575f80fd5b3660031901610200811261022d576101c060405191610050836106df565b1261022d57604051610061816106fb565b6004356001600160a01b038116810361022d57815261007e61073a565b602082015260443564ffffffffff8116810361022d5760408201526100a1610750565b606082015260843560ff8116810361022d57608082015260a43560ff8116810361022d5760a082015260c4356001600160a01b038116810361022d5760c082015260e4356001600160a01b038116810361022d5760e08201526101043564ffffffffff8116810361022d5761010082015261012435600281101561022d576101208201526101443561014082015261016435610160820152610184356101808201526101a4356101a082015281526040366101c319011261022d57604051610168816106df565b6101c43581526101e435801515810361022d576020820152602082015261019b64ffffffffff6040835101511642610764565b815164ffffffffff6040816060840151169201511690039164ffffffffff83116102195761012081510151926002841015610205576020936101fd9364ffffffffff935161014081015160ff60a0610160840151930151169586951693610932565b604051908152f35b634e487b7160e01b5f52602160045260245ffd5b634e487b7160e01b5f52601160045260245ffd5b5f80fd5b307f00000000000000000000000000000000000000000000000000000000000000001461022d5761016036600319011261022d57610160810181811067ffffffffffffffff8211176106cb57604052600435815261028d61073a565b602082019081526044356001600160a01b038116810361022d57604083019081526102b6610750565b90606084019182526080840193608435855260a081019460a435865260c082019260c435845260e083019660e4358852610104359160018060a01b038316830361022d57610100850192835261012435976001600160a01b038916890361022d57610120860198895261014435600281101561022d576101408701908152604051996103418b6106df565b60405161034d816106fb565b5f81525f60208201525f60408201525f60608201525f60808201525f60a08201525f60c08201525f60e08201525f6101008201525f6101208201525f6101408201525f6101608201525f6101808201525f6101a08201528b5260208b019b6040516103b7816106df565b5f81525f60208201528d5264ffffffffff8b5116156106bc578751865110156106ad5789511561069e5780519068056bc75e2d6310000080921161068f5784516001600160a01b0316156106805785516001600160a01b031615610671578a5190516104229161077e565b90801561065d576104369104809a51610764565b885193518551919b64ffffffffff958616956001600160a01b03938416939192909116906104838161047a61046a8561079b565b9a516001600160a01b031661079b565b94511642610771565b9a5198519951945195519a1699966001600160a01b0395861695909416936002881015610205576040519a60ff9485936104bc8e6106fb565b8d5260208d015264ffffffffff421660408d015260608c01521660808a01521660a088015260c087015260e086015261010085015261012084015261014083015261016082015283610180820152826101a0820152845260405161051f816106df565b8381525f6020820152855261053384610847565b519060405192835260208301527fc9050d42180a61cb0d9ebb8ad118b62fe6eab12cf12ff752c4a0cc7da9ddf62760403393a3604051905160018060a01b03815116825260018060a01b03602082015116602083015264ffffffffff604082015116604083015264ffffffffff606082015116606083015260ff608082015116608083015260ff60a08201511660a083015260018060a01b0360c08201511660c083015260018060a01b0360e08201511660e083015264ffffffffff61010082015116610100830152610120810151926002841015610205576101a06020926102009561012086015261014081015161014086015261016081015161016086015261018081015161018086015201516101a08401525180516101c0840152015115156101e0820152f35b634e487b7160e01b5f52601260045260245ffd5b6356e7ec5f60e01b5f5260045ffd5b633d69997b60e11b5f5260045ffd5b635116b39560e11b5f5260045ffd5b632160733960e01b5f5260045ffd5b63104272fb60e11b5f5260045ffd5b637616640160e01b5f5260045ffd5b634e487b7160e01b5f52604160045260245ffd5b6040810190811067ffffffffffffffff8211176106cb57604052565b6101c0810190811067ffffffffffffffff8211176106cb57604052565b90601f8019910116810190811067ffffffffffffffff8211176106cb57604052565b602435906001600160a01b038216820361022d57565b6064359064ffffffffff8216820361022d57565b9190820391821161021957565b9190820180921161021957565b8181029291811591840414171561021957565b811561065d570490565b5f8091604051602081019063313ce56760e01b8252600481526107bf602482610718565b51916001600160a01b03165afa3d1561083f573d9067ffffffffffffffff82116106cb57604051916107fb601f8201601f191660200184610718565b82523d5f602084013e5b80610833575b6108155750601290565b60208180518101031261022d576020015160ff8116810361022d5790565b5060208151101561080b565b606090610805565b80516101a0810151801561092d57815160c09092015160405163a9059cbb60e01b60208281019182526001600160a01b03938416602484015260448084019590955293825293909116925f9161089e606482610718565b519082855af115610922575f513d6109195750803b155b61090757505164ffffffffff610100820151167f8c64a72d516a852e54dd27d4394b8d1e8cd1247bfdbb29d75e60d3d6efba1ec260206101a060018060a01b0360c086015116940151604051908152a3565b635274afe760e01b5f5260045260245ffd5b600114156108b5565b6040513d5f823e3d90fd5b505050565b95949593919382841015610a2057600281101561020557806109a65750916109936109989261098d61098761098161097b8b6109756109a39d61099e9c9b610a5f565b99610a5f565b88610764565b94610aa7565b91610aa7565b92610b5e565b610bf3565b90610764565b610b2d565b90565b9193929091600103610a115761099361099e9461098d610a056109ff6109f96109f46109ed6109e68e6109a39f6109e090610a0b9d610a5f565b9c610a5f565b809b610764565b9786610764565b610aa7565b93610aa7565b92610ae6565b91610ae6565b90610771565b6346b2fddf60e11b5f5260045ffd5b5050505091505090565b60ff6011199116019060ff821161021957565b60ff166012039060ff821161021957565b60ff16604d811161021957600a0a90565b60ff821660128114610aa157601210610a8c57610a86610a816109a393610a3d565b610a4e565b9061077e565b610a9b610a816109a393610a2a565b90610791565b50905090565b7812725dd1d243aba0e75fe645cc4873f9e65afe688c928e1f218111610ad457670de0b6b3a76400000290565b631cd951a760e01b5f5260045260245ffd5b670de0b6b3a764000090600190815b610afe57505090565b80610b0891610b5e565b9060018116610b1c575b60011c9081610af5565b9181610b2791610b5e565b91610b12565b60ff821660128114610aa157601210610b4f57610a9b610a816109a393610a3d565b610a86610a816109a393610a2a565b9091905f1983820983820291828083109203918083039214610be257670de0b6b3a7640000821015610bcb577faccb18165bd6fe31ae1cf318dc5b51eee0e1ba569b88cd74c1773b91fac106699394670de0b6b3a7640000910990828211900360ee1b910360121c170290565b8490635173648d60e01b5f5260045260245260445ffd5b5050670de0b6b3a764000090049150565b5f19670de0b6b3a7640000820991670de0b6b3a7640000820291828085109403938085039414610ca55781841015610c8457670de0b6b3a7640000829109600182190182168092046002816003021880820260020302808202600203028082026002030280820260020302808202600203028091026002030293600183805f03040190848311900302920304170290565b630c740aef60e31b5f52600452670de0b6b3a764000060245260445260645ffd5b50906109a3925061079156fea264697066735822122075ce747bbdd186cb92bffbadf78a535dc9019bf4a13ac0748ae01d080031125664736f6c634300081c0033",
  "linkReferences": {},
  "deployedLinkReferences": {}
}