{
  "_format": "hh-sol-artifact-1",
  "contractName": "ConfigurationManager",
  "sourceName": "src/contracts/ConfigurationManager.sol",
  "abi": [
    {
      "inputs": [
        {
          "internalType": "address",
          "name": "_accessManager",
          "type": "address"
        }
      ],
      "stateMutability": "nonpayable",
      "type": "constructor"
    },
    {
      "inputs": [],
      "name": "AddressZero",
      "type": "error"
    },
    {
      "inputs": [
        {
          "internalType": "address",
          "name": "caller",
          "type": "address"
        }
      ],
      "name": "CallerIsNotAdmin",
      "type": "error"
    },
    {
      "inputs": [
        {
          "internalType": "address",
          "name": "caller",
          "type": "address"
        }
      ],
      "name": "CallerIsNotAuthorizedToBoard",
      "type": "error"
    },
    {
      "inputs": [
        {
          "internalType": "address",
          "name": "caller",
          "type": "address"
        }
      ],
      "name": "CallerIsNotCommander",
      "type": "error"
    },
    {
      "inputs": [
        {
          "internalType": "address",
          "name": "caller",
          "type": "address"
        },
        {
          "internalType": "bytes32",
          "name": "role",
          "type": "bytes32"
        }
      ],
      "name": "CallerIsNotContractSpecificRole",
      "type": "error"
    },
    {
      "inputs": [
        {
          "internalType": "address",
          "name": "caller",
          "type": "address"
        }
      ],
      "name": "CallerIsNotCurator",
      "type": "error"
    },
    {
      "inputs": [
        {
          "internalType": "address",
          "name": "caller",
          "type": "address"
        }
      ],
      "name": "CallerIsNotGovernor",
      "type": "error"
    },
    {
      "inputs": [
        {
          "internalType": "address",
          "name": "caller",
          "type": "address"
        }
      ],
      "name": "CallerIsNotGuardian",
      "type": "error"
    },
    {
      "inputs": [
        {
          "internalType": "address",
          "name": "caller",
          "type": "address"
        }
      ],
      "name": "CallerIsNotGuardianOrGovernor",
      "type": "error"
    },
    {
      "inputs": [
        {
          "internalType": "address",
          "name": "caller",
          "type": "address"
        }
      ],
      "name": "CallerIsNotKeeper",
      "type": "error"
    },
    {
      "inputs": [
        {
          "internalType": "address",
          "name": "caller",
          "type": "address"
        }
      ],
      "name": "CallerIsNotRaft",
      "type": "error"
    },
    {
      "inputs": [
        {
          "internalType": "address",
          "name": "caller",
          "type": "address"
        }
      ],
      "name": "CallerIsNotRaftOrCommander",
      "type": "error"
    },
    {
      "inputs": [
        {
          "internalType": "address",
          "name": "caller",
          "type": "address"
        }
      ],
      "name": "CallerIsNotSuperKeeper",
      "type": "error"
    },
    {
      "inputs": [],
      "name": "ConfigurationManagerAlreadyInitialized",
      "type": "error"
    },
    {
      "inputs": [
        {
          "internalType": "address",
          "name": "caller",
          "type": "address"
        }
      ],
      "name": "DirectGrantIsDisabled",
      "type": "error"
    },
    {
      "inputs": [
        {
          "internalType": "address",
          "name": "caller",
          "type": "address"
        }
      ],
      "name": "DirectRevokeIsDisabled",
      "type": "error"
    },
    {
      "inputs": [],
      "name": "HarborCommandNotSet",
      "type": "error"
    },
    {
      "inputs": [
        {
          "internalType": "address",
          "name": "invalidAddress",
          "type": "address"
        }
      ],
      "name": "InvalidAccessManagerAddress",
      "type": "error"
    },
    {
      "inputs": [],
      "name": "RaftNotSet",
      "type": "error"
    },
    {
      "inputs": [],
      "name": "TipJarNotSet",
      "type": "error"
    },
    {
      "inputs": [],
      "name": "TreasuryNotSet",
      "type": "error"
    },
    {
      "inputs": [],
      "name": "ZeroAddress",
      "type": "error"
    },
    {
      "anonymous": false,
      "inputs": [
        {
          "indexed": false,
          "internalType": "address",
          "name": "oldHarborCommand",
          "type": "address"
        },
        {
          "indexed": false,
          "internalType": "address",
          "name": "newHarborCommand",
          "type": "address"
        }
      ],
      "name": "HarborCommandUpdated",
      "type": "event"
    },
    {
      "anonymous": false,
      "inputs": [
        {
          "indexed": false,
          "internalType": "address",
          "name": "oldRaft",
          "type": "address"
        },
        {
          "indexed": false,
          "internalType": "address",
          "name": "newRaft",
          "type": "address"
        }
      ],
      "name": "RaftUpdated",
      "type": "event"
    },
    {
      "anonymous": false,
      "inputs": [
        {
          "indexed": false,
          "internalType": "address",
          "name": "oldTipJar",
          "type": "address"
        },
        {
          "indexed": false,
          "internalType": "address",
          "name": "newTipJar",
          "type": "address"
        }
      ],
      "name": "TipJarUpdated",
      "type": "event"
    },
    {
      "anonymous": false,
      "inputs": [
        {
          "indexed": false,
          "internalType": "uint8",
          "name": "oldTipRate",
          "type": "uint8"
        },
        {
          "indexed": false,
          "internalType": "uint8",
          "name": "newTipRate",
          "type": "uint8"
        }
      ],
      "name": "TipRateUpdated",
      "type": "event"
    },
    {
      "anonymous": false,
      "inputs": [
        {
          "indexed": false,
          "internalType": "address",
          "name": "oldTreasury",
          "type": "address"
        },
        {
          "indexed": false,
          "internalType": "address",
          "name": "newTreasury",
          "type": "address"
        }
      ],
      "name": "TreasuryUpdated",
      "type": "event"
    },
    {
      "inputs": [
        {
          "internalType": "enum ContractSpecificRoles",
          "name": "roleName",
          "type": "uint8"
        },
        {
          "internalType": "address",
          "name": "roleTargetContract",
          "type": "address"
        }
      ],
      "name": "generateRole",
      "outputs": [
        {
          "internalType": "bytes32",
          "name": "",
          "type": "bytes32"
        }
      ],
      "stateMutability": "pure",
      "type": "function"
    },
    {
      "inputs": [],
      "name": "harborCommand",
      "outputs": [
        {
          "internalType": "address",
          "name": "",
          "type": "address"
        }
      ],
      "stateMutability": "view",
      "type": "function"
    },
    {
      "inputs": [
        {
          "components": [
            {
              "internalType": "address",
              "name": "raft",
              "type": "address"
            },
            {
              "internalType": "address",
              "name": "tipJar",
              "type": "address"
            },
            {
              "internalType": "address",
              "name": "treasury",
              "type": "address"
            },
            {
              "internalType": "address",
              "name": "harborCommand",
              "type": "address"
            }
          ],
          "internalType": "struct ConfigurationManagerParams",
          "name": "params",
          "type": "tuple"
        }
      ],
      "name": "initializeConfiguration",
      "outputs": [],
      "stateMutability": "nonpayable",
      "type": "function"
    },
    {
      "inputs": [],
      "name": "initialized",
      "outputs": [
        {
          "internalType": "bool",
          "name": "",
          "type": "bool"
        }
      ],
      "stateMutability": "view",
      "type": "function"
    },
    {
      "inputs": [],
      "name": "raft",
      "outputs": [
        {
          "internalType": "address",
          "name": "",
          "type": "address"
        }
      ],
      "stateMutability": "view",
      "type": "function"
    },
    {
      "inputs": [
        {
          "internalType": "address",
          "name": "newHarborCommand",
          "type": "address"
        }
      ],
      "name": "setHarborCommand",
      "outputs": [],
      "stateMutability": "nonpayable",
      "type": "function"
    },
    {
      "inputs": [
        {
          "internalType": "address",
          "name": "newRaft",
          "type": "address"
        }
      ],
      "name": "setRaft",
      "outputs": [],
      "stateMutability": "nonpayable",
      "type": "function"
    },
    {
      "inputs": [
        {
          "internalType": "address",
          "name": "newTipJar",
          "type": "address"
        }
      ],
      "name": "setTipJar",
      "outputs": [],
      "stateMutability": "nonpayable",
      "type": "function"
    },
    {
      "inputs": [
        {
          "internalType": "address",
          "name": "newTreasury",
          "type": "address"
        }
      ],
      "name": "setTreasury",
      "outputs": [],
      "stateMutability": "nonpayable",
      "type": "function"
    },
    {
      "inputs": [],
      "name": "tipJar",
      "outputs": [
        {
          "internalType": "address",
          "name": "",
          "type": "address"
        }
      ],
      "stateMutability": "view",
      "type": "function"
    },
    {
      "inputs": [],
      "name": "treasury",
      "outputs": [
        {
          "internalType": "address",
          "name": "",
          "type": "address"
        }
      ],
      "stateMutability": "view",
      "type": "function"
    }
  ],
  "bytecode": "0x608080604052346100e057602081610beb803803809161001f828561010a565b8339810103126100e057516001600160a01b038116908190036100e05780156100f7576040516301ffc9a760e01b815263a237592160e01b6004820152602081602481855afa9081156100ec575f916100ad575b501561009b575f80546001600160a01b031916919091179055604051610aa990816101428239f35b6347bd7c1d60e01b5f5260045260245ffd5b90506020813d6020116100e4575b816100c86020938361010a565b810103126100e0575180151581036100e0575f610073565b5f80fd5b3d91506100bb565b6040513d5f823e3d90fd5b6347bd7c1d60e01b5f525f60045260245ffd5b601f909101601f19168101906001600160401b0382119082101761012d57604052565b634e487b7160e01b5f52604160045260245ffdfe6080806040526004361015610012575f80fd5b5f3560e01c908163117d8ae0146109ea57508063158ef93e146109c6578063330c22f0146106c157806344ee06051461057e5780635b0f83f3146105565780635c66e3da1461041357806361d027b3146103eb57806369b3054b14610384578063788d8366146102415780637aaceb95146102195763f0f4426014610095575f80fd5b3461020d57602036600319011261020d576100ae610a2f565b5f54604051630ccc574960e41b81526001600160a01b0390911690602081600481855afa9081156101d6575f916101e1575b50604051632474521560e21b815260048101919091523360248201529060209082908180604481015b03915afa9081156101d6575f916101a7575b5015610194576001600160a01b03811690811561018557600354604080516001600160a01b03808416825293909316602084015290917f4ab5be82436d353e61ca18726e984e561f5c1cc7c6d38b29d2553c790434705a9190a16001600160a01b03191617600355005b639fabe1c160e01b5f5260045ffd5b630ea7d7ed60e21b5f523360045260245ffd5b6101c9915060203d6020116101cf575b6101c18183610a0d565b810190610a5b565b5f61011b565b503d6101b7565b6040513d5f823e3d90fd5b90506020813d602011610211575b816101fc60209383610a0d565b8101031261020d57516101096100e0565b5f80fd5b3d91506101ef565b3461020d575f36600319011261020d576002546040516001600160a01b039091168152602090f35b3461020d57602036600319011261020d5761025a610a2f565b5f54604051630ccc574960e41b81526001600160a01b0390911690602081600481855afa9081156101d6575f91610350575b50604051632474521560e21b815260048101919091523360248201529060209082908180604481015b03915afa9081156101d6575f91610331575b5015610194576001600160a01b03811690811561018557600454604080516001600160a01b03808416825293909316602084015290917f5da6b94665bf1ffea8956b1bfd3424ac4e5879083197059f23e5181df77c36199190a16001600160a01b03191617600455005b61034a915060203d6020116101cf576101c18183610a0d565b826102c7565b90506020813d60201161037c575b8161036b60209383610a0d565b8101031261020d57516102b561028c565b3d915061035e565b3461020d57604036600319011261020d57600435600381101561020d576020906103ac610a45565b604051908382019260f81b83526bffffffffffffffffffffffff199060601b166021820152601581526103e0603582610a0d565b519020604051908152f35b3461020d575f36600319011261020d576003546040516001600160a01b039091168152602090f35b3461020d57602036600319011261020d5761042c610a2f565b5f54604051630ccc574960e41b81526001600160a01b0390911690602081600481855afa9081156101d6575f91610522575b50604051632474521560e21b815260048101919091523360248201529060209082908180604481015b03915afa9081156101d6575f91610503575b5015610194576001600160a01b03811690811561018557600254604080516001600160a01b03808416825293909316602084015290917ff6305c18a40cde2556a61871b17cd0a86d780832dc0e3e05a43c1d2ff8a53ac49190a16001600160a01b03191617600255005b61051c915060203d6020116101cf576101c18183610a0d565b82610499565b90506020813d60201161054e575b8161053d60209383610a0d565b8101031261020d575161048761045e565b3d9150610530565b3461020d575f36600319011261020d576004546040516001600160a01b039091168152602090f35b3461020d57602036600319011261020d57610597610a2f565b5f54604051630ccc574960e41b81526001600160a01b0390911690602081600481855afa9081156101d6575f9161068d575b50604051632474521560e21b815260048101919091523360248201529060209082908180604481015b03915afa9081156101d6575f9161066e575b5015610194576001600160a01b03811690811561018557600154604080516001600160a01b03808416825293909316602084015290917fffe0a81e9fcc7a42c05a5b4b763ffb4ca50ddd532d824b476298bb12641945459190a16001600160a01b03191617600155005b610687915060203d6020116101cf576101c18183610a0d565b82610604565b90506020813d6020116106b9575b816106a860209383610a0d565b8101031261020d57516105f26105c9565b3d915061069b565b3461020d57608036600319011261020d576040516080810181811067ffffffffffffffff8211176109b2576040526106f7610a2f565b8152610701610a45565b60208201908152906044356001600160a01b038116810361020d57604082019081526064356001600160a01b038116810361020d57606083019081525f54604051630ccc574960e41b81529094906001600160a01b03861690602081600481855afa9081156101d6575f9161097e575b50604051632474521560e21b815260048101919091523360248201529060209082908180604481015b03915afa9081156101d6575f9161095f575b50156101945760ff8560a01c166109505783516001600160a01b031615801561093e575b801561092c575b801561091a575b610185579251600180546001600160a01b039283166001600160a01b0319918216811790925585516002805491851691831691909117905584516003805491851691831691909117905583516004805491909416911617909155604080515f815260208101929092527f5da6b94665bf1ffea8956b1bfd3424ac4e5879083197059f23e5181df77c361994610906947f4ab5be82436d353e61ca18726e984e561f5c1cc7c6d38b29d2553c790434705a936108e29391927ff6305c18a40cde2556a61871b17cd0a86d780832dc0e3e05a43c1d2ff8a53ac49285927fffe0a81e9fcc7a42c05a5b4b763ffb4ca50ddd532d824b476298bb1264194545918190810185565b0390a151604080515f81526001600160a01b03909216602083015290918291820190565b0390a160ff60a01b1916600160a01b175f55005b5081516001600160a01b0316156107de565b5082516001600160a01b0316156107d7565b5080516001600160a01b0316156107d0565b63485ed86d60e01b5f5260045ffd5b610978915060203d6020116101cf576101c18183610a0d565b866107ac565b90506020813d6020116109aa575b8161099960209383610a0d565b8101031261020d575161079a610771565b3d915061098c565b634e487b7160e01b5f52604160045260245ffd5b3461020d575f36600319011261020d57602060ff5f5460a01c166040519015158152f35b3461020d575f36600319011261020d576001546001600160a01b03168152602090f35b90601f8019910116810190811067ffffffffffffffff8211176109b257604052565b600435906001600160a01b038216820361020d57565b602435906001600160a01b038216820361020d57565b9081602091031261020d5751801515810361020d579056fea2646970667358221220fe272ce7d0a73a31dc129ff10ce006616b292185ec59a72f83c310906275c85b64736f6c634300081b0033",
  "linkReferences": {},
  "deployedLinkReferences": {}
}