{
  "_format": "hh-sol-artifact-1",
  "contractName": "AdmiralsQuarters",
  "sourceName": "src/contracts/AdmiralsQuarters.sol",
  "abi": [
    {
      "inputs": [
        {
          "internalType": "address",
          "name": "_oneInchRouter",
          "type": "address"
        },
        {
          "internalType": "address",
          "name": "_configurationManager",
          "type": "address"
        }
      ],
      "stateMutability": "nonpayable",
      "type": "constructor"
    },
    {
      "inputs": [
        {
          "internalType": "address",
          "name": "target",
          "type": "address"
        }
      ],
      "name": "AddressEmptyCode",
      "type": "error"
    },
    {
      "inputs": [],
      "name": "AssetMismatch",
      "type": "error"
    },
    {
      "inputs": [],
      "name": "ConfigurationManagerZeroAddress",
      "type": "error"
    },
    {
      "inputs": [],
      "name": "FailedCall",
      "type": "error"
    },
    {
      "inputs": [],
      "name": "InsufficientOutputAmount",
      "type": "error"
    },
    {
      "inputs": [],
      "name": "InvalidFleetCommander",
      "type": "error"
    },
    {
      "inputs": [],
      "name": "InvalidRewardsManager",
      "type": "error"
    },
    {
      "inputs": [],
      "name": "InvalidRouterAddress",
      "type": "error"
    },
    {
      "inputs": [],
      "name": "InvalidToken",
      "type": "error"
    },
    {
      "inputs": [],
      "name": "MulticallAlreadyInProgress",
      "type": "error"
    },
    {
      "inputs": [],
      "name": "NotMulticall",
      "type": "error"
    },
    {
      "inputs": [
        {
          "internalType": "address",
          "name": "owner",
          "type": "address"
        }
      ],
      "name": "OwnableInvalidOwner",
      "type": "error"
    },
    {
      "inputs": [
        {
          "internalType": "address",
          "name": "account",
          "type": "address"
        }
      ],
      "name": "OwnableUnauthorizedAccount",
      "type": "error"
    },
    {
      "inputs": [],
      "name": "ReentrancyGuard",
      "type": "error"
    },
    {
      "inputs": [],
      "name": "ReentrancyGuardReentrantCall",
      "type": "error"
    },
    {
      "inputs": [
        {
          "internalType": "address",
          "name": "token",
          "type": "address"
        }
      ],
      "name": "SafeERC20FailedOperation",
      "type": "error"
    },
    {
      "inputs": [],
      "name": "SwapAmountMismatch",
      "type": "error"
    },
    {
      "inputs": [],
      "name": "SwapFailed",
      "type": "error"
    },
    {
      "inputs": [],
      "name": "TokenMismatch",
      "type": "error"
    },
    {
      "inputs": [],
      "name": "UnsupportedSwapFunction",
      "type": "error"
    },
    {
      "inputs": [],
      "name": "ZeroAmount",
      "type": "error"
    },
    {
      "anonymous": false,
      "inputs": [
        {
          "indexed": true,
          "internalType": "address",
          "name": "user",
          "type": "address"
        },
        {
          "indexed": true,
          "internalType": "address",
          "name": "aToken",
          "type": "address"
        },
        {
          "indexed": false,
          "internalType": "uint256",
          "name": "amount",
          "type": "uint256"
        }
      ],
      "name": "AavePositionImported",
      "type": "event"
    },
    {
      "anonymous": false,
      "inputs": [
        {
          "indexed": true,
          "internalType": "address",
          "name": "user",
          "type": "address"
        },
        {
          "indexed": true,
          "internalType": "address",
          "name": "cToken",
          "type": "address"
        },
        {
          "indexed": false,
          "internalType": "uint256",
          "name": "amount",
          "type": "uint256"
        }
      ],
      "name": "CompoundPositionImported",
      "type": "event"
    },
    {
      "anonymous": false,
      "inputs": [
        {
          "indexed": true,
          "internalType": "address",
          "name": "user",
          "type": "address"
        },
        {
          "indexed": true,
          "internalType": "address",
          "name": "vault",
          "type": "address"
        },
        {
          "indexed": false,
          "internalType": "uint256",
          "name": "amount",
          "type": "uint256"
        }
      ],
      "name": "ERC4626PositionImported",
      "type": "event"
    },
    {
      "anonymous": false,
      "inputs": [
        {
          "indexed": true,
          "internalType": "address",
          "name": "user",
          "type": "address"
        },
        {
          "indexed": true,
          "internalType": "address",
          "name": "fleetCommander",
          "type": "address"
        },
        {
          "indexed": false,
          "internalType": "uint256",
          "name": "inputAmount",
          "type": "uint256"
        },
        {
          "indexed": false,
          "internalType": "uint256",
          "name": "sharesReceived",
          "type": "uint256"
        }
      ],
      "name": "FleetEntered",
      "type": "event"
    },
    {
      "anonymous": false,
      "inputs": [
        {
          "indexed": true,
          "internalType": "address",
          "name": "user",
          "type": "address"
        },
        {
          "indexed": true,
          "internalType": "address",
          "name": "fleetCommander",
          "type": "address"
        },
        {
          "indexed": false,
          "internalType": "uint256",
          "name": "withdrawnAmount",
          "type": "uint256"
        },
        {
          "indexed": false,
          "internalType": "uint256",
          "name": "outputAmount",
          "type": "uint256"
        }
      ],
      "name": "FleetExited",
      "type": "event"
    },
    {
      "anonymous": false,
      "inputs": [
        {
          "indexed": true,
          "internalType": "address",
          "name": "user",
          "type": "address"
        },
        {
          "indexed": true,
          "internalType": "address",
          "name": "fleetCommander",
          "type": "address"
        },
        {
          "indexed": false,
          "internalType": "uint256",
          "name": "amount",
          "type": "uint256"
        }
      ],
      "name": "FleetSharesStaked",
      "type": "event"
    },
    {
      "anonymous": false,
      "inputs": [
        {
          "indexed": true,
          "internalType": "address",
          "name": "user",
          "type": "address"
        },
        {
          "indexed": true,
          "internalType": "address",
          "name": "fleetCommander",
          "type": "address"
        },
        {
          "indexed": false,
          "internalType": "uint256",
          "name": "amount",
          "type": "uint256"
        }
      ],
      "name": "FleetSharesUnstaked",
      "type": "event"
    },
    {
      "anonymous": false,
      "inputs": [
        {
          "indexed": true,
          "internalType": "address",
          "name": "previousOwner",
          "type": "address"
        },
        {
          "indexed": true,
          "internalType": "address",
          "name": "newOwner",
          "type": "address"
        }
      ],
      "name": "OwnershipTransferred",
      "type": "event"
    },
    {
      "anonymous": false,
      "inputs": [
        {
          "indexed": true,
          "internalType": "address",
          "name": "user",
          "type": "address"
        },
        {
          "indexed": true,
          "internalType": "address",
          "name": "fromToken",
          "type": "address"
        },
        {
          "indexed": true,
          "internalType": "address",
          "name": "toToken",
          "type": "address"
        },
        {
          "indexed": false,
          "internalType": "uint256",
          "name": "fromAmount",
          "type": "uint256"
        },
        {
          "indexed": false,
          "internalType": "uint256",
          "name": "toAmount",
          "type": "uint256"
        }
      ],
      "name": "Swapped",
      "type": "event"
    },
    {
      "anonymous": false,
      "inputs": [
        {
          "indexed": true,
          "internalType": "address",
          "name": "user",
          "type": "address"
        },
        {
          "indexed": true,
          "internalType": "address",
          "name": "token",
          "type": "address"
        },
        {
          "indexed": false,
          "internalType": "uint256",
          "name": "amount",
          "type": "uint256"
        }
      ],
      "name": "TokensDeposited",
      "type": "event"
    },
    {
      "anonymous": false,
      "inputs": [
        {
          "indexed": true,
          "internalType": "address",
          "name": "token",
          "type": "address"
        },
        {
          "indexed": true,
          "internalType": "address",
          "name": "to",
          "type": "address"
        },
        {
          "indexed": false,
          "internalType": "uint256",
          "name": "amount",
          "type": "uint256"
        }
      ],
      "name": "TokensRescued",
      "type": "event"
    },
    {
      "anonymous": false,
      "inputs": [
        {
          "indexed": true,
          "internalType": "address",
          "name": "user",
          "type": "address"
        },
        {
          "indexed": true,
          "internalType": "address",
          "name": "token",
          "type": "address"
        },
        {
          "indexed": false,
          "internalType": "uint256",
          "name": "amount",
          "type": "uint256"
        }
      ],
      "name": "TokensWithdrawn",
      "type": "event"
    },
    {
      "inputs": [],
      "name": "configurationManager",
      "outputs": [
        {
          "internalType": "contract IConfigurationManager",
          "name": "",
          "type": "address"
        }
      ],
      "stateMutability": "view",
      "type": "function"
    },
    {
      "inputs": [
        {
          "internalType": "contract IERC20",
          "name": "asset",
          "type": "address"
        },
        {
          "internalType": "uint256",
          "name": "amount",
          "type": "uint256"
        }
      ],
      "name": "depositTokens",
      "outputs": [],
      "stateMutability": "nonpayable",
      "type": "function"
    },
    {
      "inputs": [
        {
          "internalType": "address",
          "name": "fleetCommander",
          "type": "address"
        },
        {
          "internalType": "contract IERC20",
          "name": "inputToken",
          "type": "address"
        },
        {
          "internalType": "uint256",
          "name": "assets",
          "type": "uint256"
        },
        {
          "internalType": "address",
          "name": "receiver",
          "type": "address"
        }
      ],
      "name": "enterFleet",
      "outputs": [
        {
          "internalType": "uint256",
          "name": "shares",
          "type": "uint256"
        }
      ],
      "stateMutability": "nonpayable",
      "type": "function"
    },
    {
      "inputs": [
        {
          "internalType": "address",
          "name": "fleetCommander",
          "type": "address"
        },
        {
          "internalType": "uint256",
          "name": "assets",
          "type": "uint256"
        }
      ],
      "name": "exitFleet",
      "outputs": [
        {
          "internalType": "uint256",
          "name": "shares",
          "type": "uint256"
        }
      ],
      "stateMutability": "nonpayable",
      "type": "function"
    },
    {
      "inputs": [],
      "name": "fleetCommanderRewardsManagerFactory",
      "outputs": [
        {
          "internalType": "address",
          "name": "",
          "type": "address"
        }
      ],
      "stateMutability": "view",
      "type": "function"
    },
    {
      "inputs": [],
      "name": "harborCommand",
      "outputs": [
        {
          "internalType": "address",
          "name": "",
          "type": "address"
        }
      ],
      "stateMutability": "view",
      "type": "function"
    },
    {
      "inputs": [
        {
          "internalType": "address",
          "name": "aToken",
          "type": "address"
        },
        {
          "internalType": "uint256",
          "name": "assets",
          "type": "uint256"
        }
      ],
      "name": "moveFromAaveToAdmiralsQuarters",
      "outputs": [],
      "stateMutability": "nonpayable",
      "type": "function"
    },
    {
      "inputs": [
        {
          "internalType": "address",
          "name": "cToken",
          "type": "address"
        },
        {
          "internalType": "uint256",
          "name": "assets",
          "type": "uint256"
        }
      ],
      "name": "moveFromCompoundToAdmiralsQuarters",
      "outputs": [],
      "stateMutability": "nonpayable",
      "type": "function"
    },
    {
      "inputs": [
        {
          "internalType": "address",
          "name": "vault",
          "type": "address"
        },
        {
          "internalType": "uint256",
          "name": "shares",
          "type": "uint256"
        }
      ],
      "name": "moveFromERC4626ToAdmiralsQuarters",
      "outputs": [],
      "stateMutability": "nonpayable",
      "type": "function"
    },
    {
      "inputs": [
        {
          "internalType": "bytes[]",
          "name": "data",
          "type": "bytes[]"
        }
      ],
      "name": "multicall",
      "outputs": [
        {
          "internalType": "bytes[]",
          "name": "results",
          "type": "bytes[]"
        }
      ],
      "stateMutability": "nonpayable",
      "type": "function"
    },
    {
      "inputs": [],
      "name": "oneInchRouter",
      "outputs": [
        {
          "internalType": "address",
          "name": "",
          "type": "address"
        }
      ],
      "stateMutability": "view",
      "type": "function"
    },
    {
      "inputs": [],
      "name": "owner",
      "outputs": [
        {
          "internalType": "address",
          "name": "",
          "type": "address"
        }
      ],
      "stateMutability": "view",
      "type": "function"
    },
    {
      "inputs": [],
      "name": "raft",
      "outputs": [
        {
          "internalType": "address",
          "name": "",
          "type": "address"
        }
      ],
      "stateMutability": "view",
      "type": "function"
    },
    {
      "inputs": [],
      "name": "renounceOwnership",
      "outputs": [],
      "stateMutability": "nonpayable",
      "type": "function"
    },
    {
      "inputs": [
        {
          "internalType": "contract IERC20",
          "name": "token",
          "type": "address"
        },
        {
          "internalType": "address",
          "name": "to",
          "type": "address"
        },
        {
          "internalType": "uint256",
          "name": "amount",
          "type": "uint256"
        }
      ],
      "name": "rescueTokens",
      "outputs": [],
      "stateMutability": "nonpayable",
      "type": "function"
    },
    {
      "inputs": [
        {
          "internalType": "address",
          "name": "fleetCommander",
          "type": "address"
        },
        {
          "internalType": "uint256",
          "name": "shares",
          "type": "uint256"
        }
      ],
      "name": "stake",
      "outputs": [],
      "stateMutability": "nonpayable",
      "type": "function"
    },
    {
      "inputs": [
        {
          "internalType": "contract IERC20",
          "name": "fromToken",
          "type": "address"
        },
        {
          "internalType": "contract IERC20",
          "name": "toToken",
          "type": "address"
        },
        {
          "internalType": "uint256",
          "name": "assets",
          "type": "uint256"
        },
        {
          "internalType": "uint256",
          "name": "minTokensReceived",
          "type": "uint256"
        },
        {
          "internalType": "bytes",
          "name": "swapCalldata",
          "type": "bytes"
        }
      ],
      "name": "swap",
      "outputs": [
        {
          "internalType": "uint256",
          "name": "swappedAmount",
          "type": "uint256"
        }
      ],
      "stateMutability": "nonpayable",
      "type": "function"
    },
    {
      "inputs": [],
      "name": "tipJar",
      "outputs": [
        {
          "internalType": "address",
          "name": "",
          "type": "address"
        }
      ],
      "stateMutability": "view",
      "type": "function"
    },
    {
      "inputs": [
        {
          "internalType": "address",
          "name": "newOwner",
          "type": "address"
        }
      ],
      "name": "transferOwnership",
      "outputs": [],
      "stateMutability": "nonpayable",
      "type": "function"
    },
    {
      "inputs": [],
      "name": "treasury",
      "outputs": [
        {
          "internalType": "address",
          "name": "",
          "type": "address"
        }
      ],
      "stateMutability": "view",
      "type": "function"
    },
    {
      "inputs": [
        {
          "internalType": "address",
          "name": "fleetCommander",
          "type": "address"
        },
        {
          "internalType": "uint256",
          "name": "shares",
          "type": "uint256"
        }
      ],
      "name": "unstakeAndWithdrawAssets",
      "outputs": [],
      "stateMutability": "nonpayable",
      "type": "function"
    },
    {
      "inputs": [
        {
          "internalType": "contract IERC20",
          "name": "asset",
          "type": "address"
        },
        {
          "internalType": "uint256",
          "name": "amount",
          "type": "uint256"
        }
      ],
      "name": "withdrawTokens",
      "outputs": [],
      "stateMutability": "nonpayable",
      "type": "function"
    }
  ],
  "bytecode": "0x60c03461013e57601f6120fa38819003918201601f19168301916001600160401b0383118484101761014257808492604094855283398101031261013e57610052602061004b83610156565b9201610156565b90331561012b575f8054336001600160a01b0319821681178355604051949290916001600160a01b0316907f8be0079c531659141344cd1fd0a4f28419497f9722a3daafe3b4186f6b6457e09080a36001600160a01b0316801561011c576080526001600160a01b0381161561010d5760a052611f8f908161016b82396080518181816103e901528181610894015281816111d001528181611355015281816116920152611a55015260a051818181610f0901526114c10152f35b6314203b4b60e01b5f5260045ffd5b63f1634df960e01b5f5260045ffd5b631e4fbdf760e01b5f525f60045260245ffd5b5f80fd5b634e487b7160e01b5f52604160045260245ffd5b51906001600160a01b038216820361013e5756fe60806040526004361015610011575f80fd5b5f5f3560e01c806306b091f9146118b45780630dedddbf146116dd578063117d8ae01461166c5780632506c018146113cd5780635b0f83f3146113a057806361d027b31461132e57806366168bd714611275578063715018a61461121b5780637aaceb95146111a957806388bcf98314610f5f5780638da5cb5b14610f38578063ac3af20814610ef3578063ac9650d814610cc2578063adc9772e14610af0578063bec93aa7146108c3578063c9c667e31461087e578063cea9d26f1461080a578063cf87c38f1461063c578063d7f8e9a514610504578063f2fde38b1461047e578063f7e533ec146103c25763ff993eb51461010c575f80fd5b346103bf5760803660031901126103bf576101256119cb565b61012d6119e1565b604435926064356001600160a01b03811693919290918483036103bd57336001600160a01b035f516020611f1a5f395f51905f525c16036103ae57610170611b93565b61017981611cee565b61018282611bc8565b6040516338d52e0f60e01b81526001600160a01b03919091169290602081600481875afa908115610356578591610370575b506001600160a01b039283169692169182870361036157602060249697604051978880926370a0823160e01b82523060048301525afa958615610356578596610322575b508061031c575084955b610316575033935b851161030757848261021b92611da6565b604051636e553f6560e01b8152600481018590526001600160a01b039093166024840181905260208460448186865af19384156102fc5783946102a2575b507fd584e570678d099262db4ba972df2e63e3618dadc6179677a6a2b18360c4a657604060209681519081528688820152a35f516020611f3a5f395f51905f525d604051908152f35b9493506020853d6020116102f4575b816102be602093836119f7565b810103126102f057935192937fd584e570678d099262db4ba972df2e63e3618dadc6179677a6a2b18360c4a657610259565b5f80fd5b3d91506102b1565b6040513d85823e3d90fd5b6342301c2360e01b8352600483fd5b9361020a565b95610202565b9095506020813d60201161034e575b8161033e602093836119f7565b810103126102f05751945f6101f8565b3d9150610331565b6040513d87823e3d90fd5b63936bb5ad60e01b8552600485fd5b90506020813d6020116103a6575b8161038b602093836119f7565b810103126103a25761039c90611a2c565b5f6101b4565b8480fd5b3d915061037e565b633128ce5560e01b8452600484fd5b835b80fd5b50346103bf57806003193601126103bf57604051633df94cfb60e21b8152906020826004817f00000000000000000000000000000000000000000000000000000000000000006001600160a01b03165afa908115610472578091610435575b6040516001600160a01b0383168152602090f35b90506020823d60201161046a575b81610450602093836119f7565b810103126103bf5750610464602091611a2c565b5f610421565b3d9150610443565b604051903d90823e3d90fd5b50346103bf5760203660031901126103bf576104986119cb565b6104a0611c89565b6001600160a01b031680156104f05781546001600160a01b03198116821783556001600160a01b03167f8be0079c531659141344cd1fd0a4f28419497f9722a3daafe3b4186f6b6457e08380a380f35b631e4fbdf760e01b82526004829052602482fd5b50346103bf5760403660031901126103bf5761051e6119cb565b6024359190336001600160a01b035f516020611f1a5f395f51905f525c160361062d57610549611b93565b61055281611cee565b6001600160a01b0316918061062757505f19905b604051632d182be560e21b8152926020848061058733308860048501611b73565b038185855af192831561061c5782936105e7575b6020945060405190815283858201527f3018bc84615a588f3485d554ded6943344a7f25f8b758b14b6e9677378c1c68b60403392a35f516020611f3a5f395f51905f525d604051908152f35b92506020843d602011610614575b81610602602093836119f7565b810103126102f057602093519261059b565b3d91506105f5565b6040513d84823e3d90fd5b90610566565b633128ce5560e01b8252600482fd5b50346103bf5760403660031901126103bf576106566119cb565b60243590336001600160a01b035f516020611f1a5f395f51905f525c16036107fb57610680611b93565b6040516338d52e0f60e01b81526001600160a01b03919091169190602081600481865afa8015610782576107c4575b50806107bf57506040516370a0823160e01b8152336004820152602081602481855afa9081156102fc57839161078d575b505b604051635d043b2960e11b81526020818061070233308760048501611b73565b038187875af1801561078257610753575b506040519081527f915b71c589595289d233b271db8454f447949848ecdd456a109e3f2559c0d50960203392a3805f516020611f3a5f395f51905f525d80f35b6020813d60201161077a575b8161076c602093836119f7565b810103126102f05751610713565b3d915061075f565b6040513d86823e3d90fd5b90506020813d6020116107b7575b816107a8602093836119f7565b810103126102f057515f6106e0565b3d915061079b565b6106e2565b6020813d6020116107f3575b816107dd602093836119f7565b810103126103bd576107ee90611a2c565b6106af565b3d91506107d0565b633128ce5560e01b8352600483fd5b50346103bf5760603660031901126103bf576108246119cb565b61082c6119e1565b7f77023e19c7343ad491fd706c36335ca0e738340a91f29b1fd81e2673d44896c460206044359261085b611c89565b610866848287611be7565b6040519384526001600160a01b03908116941692a380f35b50346103bf57806003193601126103bf576040517f00000000000000000000000000000000000000000000000000000000000000006001600160a01b03168152602090f35b50346103bf5760403660031901126103bf576108dd6119cb565b60243590336001600160a01b035f516020611f1a5f395f51905f525c16036107fb57610907611b93565b61091081611cee565b6040516330fe427560e21b81526001600160a01b03919091169190839060a081600481875afa90811561061c578291610ac1575b50608001516001600160a01b03169161095c83611d87565b80610abb57506040516370a0823160e01b8152336004820152602081602481865afa90811561061c578291610a86575b50915b803b15610a825781604051809263c7ec362360e01b82528183816109b889303360048501611b51565b03925af1801561061c57610a69575b5050604051632d182be560e21b8152602081806109e930338760048501611b73565b038187875af1801561078257610a3a575b506040519081527f700c68e6e49e104bb8288f3d6ffb4723d8c8fa31695662535a9c6980d44eee2060203392a3805f516020611f3a5f395f51905f525d80f35b6020813d602011610a61575b81610a53602093836119f7565b810103126102f057516109fa565b3d9150610a46565b81610a73916119f7565b610a7e57825f6109c7565b8280fd5b5080fd5b9150506020813d602011610ab3575b81610aa2602093836119f7565b810103126102f0578390515f61098c565b3d9150610a95565b9161098f565b610ae3915060a03d60a011610ae9575b610adb81836119f7565b810190611ac7565b5f610944565b503d610ad1565b50346103bf5760403660031901126103bf57610b0a6119cb565b60243590336001600160a01b035f516020611f1a5f395f51905f525c16036107fb57610b34611b93565b610b3d81611cee565b6040516330fe427560e21b81526001600160a01b0391909116919060a081600481865afa908115610782578491610ca3575b50608001516001600160a01b0316610b8681611d87565b6040516370a0823160e01b815230600482015291602083602481875afa928315610356578593610c6f575b5080610c695750815b8211610c5a5780610bcd83869386611da6565b803b15610a825781604051809263cecc238f60e01b8252818381610bf5893360048401611b36565b03925af1801561061c57610c45575b50506040519081527f229b6242f243935a5ba03689948a442635f9fd7ed35555146349f51316c1f28e60203392a3805f516020611f3a5f395f51905f525d80f35b81610c4f916119f7565b610a7e57825f610c04565b6342301c2360e01b8452600484fd5b91610bba565b9092506020813d602011610c9b575b81610c8b602093836119f7565b810103126102f05751915f610bb1565b3d9150610c7e565b610cbc915060a03d60a011610ae957610adb81836119f7565b5f610b6f565b50346103bf5760203660031901126103bf576004356001600160401b038111610a825736602382011215610a825780600401356001600160401b038111610a7e573660248260051b84010111610a7e575f516020611f1a5f395f51905f525c6001600160a01b0316610ee45790335f516020611f1a5f395f51905f525d6020604051610d4e82826119f7565b84815281810191601f198101368437610d6685611caf565b93610d7460405195866119f7565b858552601f19610d8387611caf565b01875b818110610ed5575050368190036042190190875b87811015610e4d5760248160051b8301013583811215610e49578201906024820135916001600160401b038311610e45576044018a83360382136103bf5780610e299289610e156001978b8e6040519483869484860198893784019083820190898252519283915e010185815203601f1981018352826119f7565b5190305af4610e22611c23565b9030611ebb565b610e33828a611cc6565b52610e3e8189611cc6565b5001610d9a565b8a80fd5b8980fd5b888488825f516020611f1a5f395f51905f525d60405191808301818452825180915260408401918060408360051b870101940192865b838810610e905786860387f35b9091929394838080600193603f198b8203018752818a518051918291828552018484015e86838284010152601f80199101160101970193019701969093929193610e83565b60608782018501528301610d86565b6339082a3960e11b8352600483fd5b50346103bf57806003193601126103bf576040517f00000000000000000000000000000000000000000000000000000000000000006001600160a01b03168152602090f35b50346103bf57806003193601126103bf57546040516001600160a01b039091168152602090f35b50346103bf5760403660031901126103bf57610f796119cb565b60243590336001600160a01b035f516020611f1a5f395f51905f525c16036107fb57610fa3611b93565b604051633a9ae92360e11b81526001600160a01b039190911691908390602081600481875afa90811561061c57829161116f575b506040516358b50cef60e11b815292602084600481885afa9384156102fc578394611133575b508061112757506040516370a0823160e01b8152336004820152602081602481885afa9081156102fc5783916110ef575b50906064602092945b6110438630338a611c61565b604051631a4ca37b60e21b81526001600160a01b039182166004820152602481018790523060448201529485938492165af18015610782576110c0575b506040519081527fd269ddb991eeb6ceaf84849c22783248bd97ffea53842ccfc04dc943729b19e360203392a3805f516020611f3a5f395f51905f525d80f35b6020813d6020116110e7575b816110d9602093836119f7565b810103126102f05751611080565b3d91506110cc565b919250506020813d60201161111f575b8161110c602093836119f7565b810103126102f05751849190606461102e565b3d91506110ff565b90606460209294611037565b9093506020813d602011611167575b8161114f602093836119f7565b81010312610a7e5761116090611a2c565b925f610ffd565b3d9150611142565b90506020813d6020116111a1575b8161118a602093836119f7565b81010312610a825761119b90611a2c565b5f610fd7565b3d915061117d565b50346103bf57806003193601126103bf57604051637aaceb9560e01b8152906020826004817f00000000000000000000000000000000000000000000000000000000000000006001600160a01b03165afa908115610472578091610435576040516001600160a01b0383168152602090f35b50346103bf57806003193601126103bf57611234611c89565b80546001600160a01b03198116825581906001600160a01b03167f8be0079c531659141344cd1fd0a4f28419497f9722a3daafe3b4186f6b6457e08280a380f35b50346103bf5760403660031901126103bf5761128f6119cb565b60243590336001600160a01b035f516020611f1a5f395f51905f525c16036107fb576112b9611b93565b6112c281611bc8565b811561131f576112d482303384611c61565b6040519182526001600160a01b03169033907fcbc4a4091b012bb1329c38bbbb15455f5cac5aa3673da0a7f38cd61a4f49551790602090a3805f516020611f3a5f395f51905f525d80f35b631f2a200560e01b8352600483fd5b50346103bf57806003193601126103bf576040516361d027b360e01b8152906020826004817f00000000000000000000000000000000000000000000000000000000000000006001600160a01b03165afa908115610472578091610435576040516001600160a01b0383168152602090f35b50346103bf57806003193601126103bf5760206113bb611a40565b6040516001600160a01b039091168152f35b50346103bf5760a03660031901126103bf576113e76119cb565b6113ef6119e1565b9160443592608435906001600160401b038211610a7e5736602383011215610a7e578160040135936001600160401b0385116103bd5736602486850101116103bd57336001600160a01b035f516020611f1a5f395f51905f525c16036103ae57611457611b93565b6001600160a01b038116918215801561165b575b61164c57861561163d576001600160a01b03169282841461162e576040516370a0823160e01b815230600482015295602087602481885afa9687156116235786976115e8575b509160248680949381946114e78c7f00000000000000000000000000000000000000000000000000000000000000008097611da6565b80604051948593018337810182815203925af1611502611c23565b50156115d9576040516370a0823160e01b815230600482015293602085602481865afa9485156107825784956115a5575b5084039384116115915760643584106103075760209460405190815284868201527f6782190c91d4a7e8ad2a867deed6ec0a970cab8ff137ae2bd4abd92b3810f4d360403392a45f516020611f3a5f395f51905f525d604051908152f35b634e487b7160e01b83526011600452602483fd5b9094506020813d6020116115d1575b816115c1602093836119f7565b810103126102f05751935f611533565b3d91506115b4565b63081ceff360e41b8352600483fd5b91929096506020823d60201161161b575b81611606602093836119f7565b810103126102f05790519590919060246114b1565b3d91506115f9565b6040513d88823e3d90fd5b6341e0808560e11b8552600485fd5b631f2a200560e01b8552600485fd5b63c1ab6dc160e01b8552600485fd5b506001600160a01b0381161561146b565b50346103bf57806003193601126103bf57604051628bec5760e51b8152906020826004817f00000000000000000000000000000000000000000000000000000000000000006001600160a01b03165afa908115610472578091610435576040516001600160a01b0383168152602090f35b50346102f05760403660031901126102f0576116f76119cb565b60243590336001600160a01b035f516020611f1a5f395f51905f525c16036118a557611721611b93565b60405163c55dae6360e01b81526001600160a01b039190911691602082600481865afa918215611826575f92611869575b508061186357506040516370a0823160e01b8152336004820152602081602481865afa908115611826575f91611831575b50905b823b156102f0576040516304c8826360e31b81523360048201523060248201526001600160a01b039091166044820152606481018290525f8160848183875af1801561182657611811575b506040519081527f2bb776770e69df4d29d3c5d4c6c05ec4c32f7be119d35604fbba0e8f86d152f960203392a3805f516020611f3a5f395f51905f525d80f35b61181e9193505f906119f7565b5f915f6117d1565b6040513d5f823e3d90fd5b90506020813d60201161185b575b8161184c602093836119f7565b810103126102f057515f611783565b3d915061183f565b90611786565b9091506020813d60201161189d575b81611885602093836119f7565b810103126102f05761189690611a2c565b905f611752565b3d9150611878565b633128ce5560e01b5f5260045ffd5b346102f05760403660031901126102f0576118cd6119cb565b60243590336001600160a01b035f516020611f1a5f395f51905f525c16036118a5576118f7611b93565b8161190182611bc8565b1561195c575b611912823383611be7565b6040519182526001600160a01b03169033907f6337ed398c0e8467698c581374fdce4db14922df487b5a39483079f5f59b60a490602090a35f5f516020611f3a5f395f51905f525d005b6040516370a0823160e01b81523060048201529091506020816024816001600160a01b0386165afa908115611826575f91611999575b5090611907565b90506020813d6020116119c3575b816119b4602093836119f7565b810103126102f0575182611992565b3d91506119a7565b600435906001600160a01b03821682036102f057565b602435906001600160a01b03821682036102f057565b90601f801991011681019081106001600160401b03821117611a1857604052565b634e487b7160e01b5f52604160045260245ffd5b51906001600160a01b03821682036102f057565b604051635b0f83f360e01b81526020816004817f00000000000000000000000000000000000000000000000000000000000000006001600160a01b03165afa908115611826575f91611a90575090565b90506020813d602011611abf575b81611aab602093836119f7565b810103126102f057611abc90611a2c565b90565b3d9150611a9e565b908160a09103126102f0576040519060a082018281106001600160401b03821117611a185760405280516001600160a01b03811681036102f057611b2e91608091845260208101516020850152604081015160408501526060810151606085015201611a2c565b608082015290565b6001600160a01b039091168152602081019190915260400190565b6001600160a01b03918216815291166020820152604081019190915260600190565b9081526001600160a01b0391821660208201529116604082015260600190565b5f516020611f3a5f395f51905f525c611bb95760015f516020611f3a5f395f51905f525d565b633ee5aeb560e01b5f5260045ffd5b6001600160a01b031615611bd857565b63c1ab6dc160e01b5f5260045ffd5b611c1c611c219392611c0e60405194859263a9059cbb60e01b602085015260248401611b36565b03601f1981018452836119f7565b611e63565b565b3d15611c5c573d906001600160401b038211611a185760405191611c51601f8201601f1916602001846119f7565b82523d5f602084013e565b606090565b90611c1c90611c0e611c21956040519586936323b872dd60e01b602086015260248501611b51565b5f546001600160a01b03163303611c9c57565b63118cdaa760e01b5f523360045260245ffd5b6001600160401b038111611a185760051b60200190565b8051821015611cda5760209160051b010190565b634e487b7160e01b5f52603260045260245ffd5b60206001600160a01b03611d00611a40565b6040516374e806ab60e11b81526001600160a01b03909416600485015283916024918391165afa908115611826575f91611d4c575b5015611d3d57565b6317b9ea1760e11b5f5260045ffd5b90506020813d602011611d7f575b81611d67602093836119f7565b810103126102f0575180151581036102f0575f611d35565b3d9150611d5a565b6001600160a01b031615611d9757565b63913a247f60e01b5f5260045ffd5b91909160205f60405193611ddd85611dcf8582019363095ea7b360e01b85528960248401611b36565b03601f1981018752866119f7565b84519082855af15f513d82611e3e575b505015611df957505050565b60405163095ea7b360e01b60208201526001600160a01b0390931660248401525f6044808501919091528352611c2192611c1c90611e386064826119f7565b82611e63565b909150611e5b57506001600160a01b0381163b15155b5f80611ded565b600114611e54565b905f602091828151910182855af115611826575f513d611eb257506001600160a01b0381163b155b611e925750565b635274afe760e01b5f9081526001600160a01b0391909116600452602490fd5b60011415611e8b565b90611edf5750805115611ed057805190602001fd5b63d6bda27560e01b5f5260045ffd5b81511580611f10575b611ef0575090565b639996b31560e01b5f9081526001600160a01b0391909116600452602490fd5b50803b15611ee856fe4047f0417aa4905ca06b566a01340d0e510e7af6b560e81d10e0ea24404f597b9b779b17422d0df92223018b32b4d1fa46e071723d6817e2486d003becc55f00a2646970667358221220b9ccf1c1218c74ef1a01e5966720386c68c6c860f2f3400b582ea5fec9019cd864736f6c634300081c0033",
  "linkReferences": {},
  "deployedLinkReferences": {}
}