{
  "_format": "hh-sol-artifact-1",
  "contractName": "ConfigurationManager",
  "sourceName": "src/contracts/ConfigurationManager.sol",
  "abi": [
    {
      "inputs": [
        {
          "internalType": "address",
          "name": "_accessManager",
          "type": "address"
        }
      ],
      "stateMutability": "nonpayable",
      "type": "constructor"
    },
    {
      "inputs": [],
      "name": "AddressZero",
      "type": "error"
    },
    {
      "inputs": [
        {
          "internalType": "address",
          "name": "caller",
          "type": "address"
        }
      ],
      "name": "CallerIsNotAdmin",
      "type": "error"
    },
    {
      "inputs": [
        {
          "internalType": "address",
          "name": "caller",
          "type": "address"
        }
      ],
      "name": "CallerIsNotAuthorizedToBoard",
      "type": "error"
    },
    {
      "inputs": [
        {
          "internalType": "address",
          "name": "caller",
          "type": "address"
        }
      ],
      "name": "CallerIsNotCommander",
      "type": "error"
    },
    {
      "inputs": [
        {
          "internalType": "address",
          "name": "caller",
          "type": "address"
        },
        {
          "internalType": "bytes32",
          "name": "role",
          "type": "bytes32"
        }
      ],
      "name": "CallerIsNotContractSpecificRole",
      "type": "error"
    },
    {
      "inputs": [
        {
          "internalType": "address",
          "name": "caller",
          "type": "address"
        }
      ],
      "name": "CallerIsNotCurator",
      "type": "error"
    },
    {
      "inputs": [
        {
          "internalType": "address",
          "name": "caller",
          "type": "address"
        }
      ],
      "name": "CallerIsNotDecayController",
      "type": "error"
    },
    {
      "inputs": [
        {
          "internalType": "address",
          "name": "caller",
          "type": "address"
        }
      ],
      "name": "CallerIsNotGovernor",
      "type": "error"
    },
    {
      "inputs": [
        {
          "internalType": "address",
          "name": "caller",
          "type": "address"
        }
      ],
      "name": "CallerIsNotGuardian",
      "type": "error"
    },
    {
      "inputs": [
        {
          "internalType": "address",
          "name": "caller",
          "type": "address"
        }
      ],
      "name": "CallerIsNotGuardianOrGovernor",
      "type": "error"
    },
    {
      "inputs": [
        {
          "internalType": "address",
          "name": "caller",
          "type": "address"
        }
      ],
      "name": "CallerIsNotKeeper",
      "type": "error"
    },
    {
      "inputs": [
        {
          "internalType": "address",
          "name": "caller",
          "type": "address"
        }
      ],
      "name": "CallerIsNotRaft",
      "type": "error"
    },
    {
      "inputs": [
        {
          "internalType": "address",
          "name": "caller",
          "type": "address"
        }
      ],
      "name": "CallerIsNotRaftOrCommander",
      "type": "error"
    },
    {
      "inputs": [
        {
          "internalType": "address",
          "name": "caller",
          "type": "address"
        }
      ],
      "name": "CallerIsNotSuperKeeper",
      "type": "error"
    },
    {
      "inputs": [],
      "name": "ConfigurationManagerAlreadyInitialized",
      "type": "error"
    },
    {
      "inputs": [
        {
          "internalType": "address",
          "name": "caller",
          "type": "address"
        }
      ],
      "name": "DirectGrantIsDisabled",
      "type": "error"
    },
    {
      "inputs": [
        {
          "internalType": "address",
          "name": "caller",
          "type": "address"
        }
      ],
      "name": "DirectRevokeIsDisabled",
      "type": "error"
    },
    {
      "inputs": [],
      "name": "HarborCommandNotSet",
      "type": "error"
    },
    {
      "inputs": [
        {
          "internalType": "address",
          "name": "invalidAddress",
          "type": "address"
        }
      ],
      "name": "InvalidAccessManagerAddress",
      "type": "error"
    },
    {
      "inputs": [],
      "name": "RaftNotSet",
      "type": "error"
    },
    {
      "inputs": [],
      "name": "TipJarNotSet",
      "type": "error"
    },
    {
      "inputs": [],
      "name": "TreasuryNotSet",
      "type": "error"
    },
    {
      "inputs": [],
      "name": "ZeroAddress",
      "type": "error"
    },
    {
      "anonymous": false,
      "inputs": [
        {
          "indexed": false,
          "internalType": "address",
          "name": "oldFleetCommanderRewardsManagerFactory",
          "type": "address"
        },
        {
          "indexed": false,
          "internalType": "address",
          "name": "newFleetCommanderRewardsManagerFactory",
          "type": "address"
        }
      ],
      "name": "FleetCommanderRewardsManagerFactoryUpdated",
      "type": "event"
    },
    {
      "anonymous": false,
      "inputs": [
        {
          "indexed": false,
          "internalType": "address",
          "name": "oldHarborCommand",
          "type": "address"
        },
        {
          "indexed": false,
          "internalType": "address",
          "name": "newHarborCommand",
          "type": "address"
        }
      ],
      "name": "HarborCommandUpdated",
      "type": "event"
    },
    {
      "anonymous": false,
      "inputs": [
        {
          "indexed": false,
          "internalType": "address",
          "name": "oldRaft",
          "type": "address"
        },
        {
          "indexed": false,
          "internalType": "address",
          "name": "newRaft",
          "type": "address"
        }
      ],
      "name": "RaftUpdated",
      "type": "event"
    },
    {
      "anonymous": false,
      "inputs": [
        {
          "indexed": false,
          "internalType": "address",
          "name": "oldTipJar",
          "type": "address"
        },
        {
          "indexed": false,
          "internalType": "address",
          "name": "newTipJar",
          "type": "address"
        }
      ],
      "name": "TipJarUpdated",
      "type": "event"
    },
    {
      "anonymous": false,
      "inputs": [
        {
          "indexed": false,
          "internalType": "uint8",
          "name": "oldTipRate",
          "type": "uint8"
        },
        {
          "indexed": false,
          "internalType": "uint8",
          "name": "newTipRate",
          "type": "uint8"
        }
      ],
      "name": "TipRateUpdated",
      "type": "event"
    },
    {
      "anonymous": false,
      "inputs": [
        {
          "indexed": false,
          "internalType": "address",
          "name": "oldTreasury",
          "type": "address"
        },
        {
          "indexed": false,
          "internalType": "address",
          "name": "newTreasury",
          "type": "address"
        }
      ],
      "name": "TreasuryUpdated",
      "type": "event"
    },
    {
      "inputs": [],
      "name": "fleetCommanderRewardsManagerFactory",
      "outputs": [
        {
          "internalType": "address",
          "name": "",
          "type": "address"
        }
      ],
      "stateMutability": "view",
      "type": "function"
    },
    {
      "inputs": [
        {
          "internalType": "enum ContractSpecificRoles",
          "name": "roleName",
          "type": "uint8"
        },
        {
          "internalType": "address",
          "name": "roleTargetContract",
          "type": "address"
        }
      ],
      "name": "generateRole",
      "outputs": [
        {
          "internalType": "bytes32",
          "name": "",
          "type": "bytes32"
        }
      ],
      "stateMutability": "pure",
      "type": "function"
    },
    {
      "inputs": [],
      "name": "harborCommand",
      "outputs": [
        {
          "internalType": "address",
          "name": "",
          "type": "address"
        }
      ],
      "stateMutability": "view",
      "type": "function"
    },
    {
      "inputs": [
        {
          "internalType": "address",
          "name": "account",
          "type": "address"
        }
      ],
      "name": "hasAdmiralsQuartersRole",
      "outputs": [
        {
          "internalType": "bool",
          "name": "",
          "type": "bool"
        }
      ],
      "stateMutability": "view",
      "type": "function"
    },
    {
      "inputs": [
        {
          "components": [
            {
              "internalType": "address",
              "name": "raft",
              "type": "address"
            },
            {
              "internalType": "address",
              "name": "tipJar",
              "type": "address"
            },
            {
              "internalType": "address",
              "name": "treasury",
              "type": "address"
            },
            {
              "internalType": "address",
              "name": "harborCommand",
              "type": "address"
            },
            {
              "internalType": "address",
              "name": "fleetCommanderRewardsManagerFactory",
              "type": "address"
            }
          ],
          "internalType": "struct ConfigurationManagerParams",
          "name": "params",
          "type": "tuple"
        }
      ],
      "name": "initializeConfiguration",
      "outputs": [],
      "stateMutability": "nonpayable",
      "type": "function"
    },
    {
      "inputs": [],
      "name": "initialized",
      "outputs": [
        {
          "internalType": "bool",
          "name": "",
          "type": "bool"
        }
      ],
      "stateMutability": "view",
      "type": "function"
    },
    {
      "inputs": [],
      "name": "raft",
      "outputs": [
        {
          "internalType": "address",
          "name": "",
          "type": "address"
        }
      ],
      "stateMutability": "view",
      "type": "function"
    },
    {
      "inputs": [
        {
          "internalType": "address",
          "name": "newFleetCommanderRewardsManagerFactory",
          "type": "address"
        }
      ],
      "name": "setFleetCommanderRewardsManagerFactory",
      "outputs": [],
      "stateMutability": "nonpayable",
      "type": "function"
    },
    {
      "inputs": [
        {
          "internalType": "address",
          "name": "newHarborCommand",
          "type": "address"
        }
      ],
      "name": "setHarborCommand",
      "outputs": [],
      "stateMutability": "nonpayable",
      "type": "function"
    },
    {
      "inputs": [
        {
          "internalType": "address",
          "name": "newRaft",
          "type": "address"
        }
      ],
      "name": "setRaft",
      "outputs": [],
      "stateMutability": "nonpayable",
      "type": "function"
    },
    {
      "inputs": [
        {
          "internalType": "address",
          "name": "newTipJar",
          "type": "address"
        }
      ],
      "name": "setTipJar",
      "outputs": [],
      "stateMutability": "nonpayable",
      "type": "function"
    },
    {
      "inputs": [
        {
          "internalType": "address",
          "name": "newTreasury",
          "type": "address"
        }
      ],
      "name": "setTreasury",
      "outputs": [],
      "stateMutability": "nonpayable",
      "type": "function"
    },
    {
      "inputs": [],
      "name": "tipJar",
      "outputs": [
        {
          "internalType": "address",
          "name": "",
          "type": "address"
        }
      ],
      "stateMutability": "view",
      "type": "function"
    },
    {
      "inputs": [],
      "name": "treasury",
      "outputs": [
        {
          "internalType": "address",
          "name": "",
          "type": "address"
        }
      ],
      "stateMutability": "view",
      "type": "function"
    }
  ],
  "bytecode": "0x608080604052346100e057602081610ee7803803809161001f828561010a565b8339810103126100e057516001600160a01b038116908190036100e05780156100f7576040516301ffc9a760e01b81526338c7ccdb60e01b6004820152602081602481855afa9081156100ec575f916100ad575b501561009b575f80546001600160a01b031916919091179055604051610da590816101428239f35b6347bd7c1d60e01b5f5260045260245ffd5b90506020813d6020116100e4575b816100c86020938361010a565b810103126100e0575180151581036100e0575f610073565b5f80fd5b3d91506100bb565b6040513d5f823e3d90fd5b6347bd7c1d60e01b5f525f60045260245ffd5b601f909101601f19168101906001600160401b0382119082101761012d57604052565b634e487b7160e01b5f52604160045260245ffdfe6080806040526004361015610012575f80fd5b5f3560e01c908163117d8ae014610c9a57508063158ef93e14610c765780631fcb6ee61461091c57806344ee0605146107dc5780635b0f83f3146107b45780635c66e3da1461067457806361d027b31461064c57806369b3054b146105eb578063788d8366146104ab5780637aaceb9514610483578063d6c953c614610343578063ebc136d01461025f578063f0f44260146100e25763f7e533ec146100b6575f80fd5b346100de575f3660031901126100de576005546040516001600160a01b039091168152602090f35b5f80fd5b346100de5760203660031901126100de576100fb610cdf565b5f54604051630ccc574960e41b81526001600160a01b0390911690602081600481855afa908115610220575f9161022b575b50602090610152926040518080958194632474521560e21b8352339060048401610d23565b03915afa908115610220575f916101f1575b50156101de576001600160a01b0381169081156101cf5760035460405190917f4ab5be82436d353e61ca18726e984e561f5c1cc7c6d38b29d2553c790434705a919081906101bc906001600160a01b03861683610d55565b0390a16001600160a01b03191617600355005b639fabe1c160e01b5f5260045ffd5b630ea7d7ed60e21b5f523360045260245ffd5b610213915060203d602011610219575b61020b8183610cbd565b810190610d0b565b82610164565b503d610201565b6040513d5f823e3d90fd5b90506020813d602011610257575b8161024660209383610cbd565b810103126100de575161015261012d565b3d9150610239565b346100de5760203660031901126100de57610278610cdf565b5f5460405163a89f38a360e01b81526001600160a01b039091169190602081600481865afa908115610220575f9161030d575b50604051632474521560e21b8152926020928492839182916102d1919060048401610d23565b03915afa8015610220576020915f916102f0575b506040519015158152f35b6103079150823d84116102195761020b8183610cbd565b826102e5565b9190506020823d60201161033b575b8161032960209383610cbd565b810103126100de5790516102d16102ab565b3d915061031c565b346100de5760203660031901126100de5761035c610cdf565b5f54604051630ccc574960e41b81526001600160a01b0390911690602081600481855afa908115610220575f9161044f575b506020906103b3926040518080958194632474521560e21b8352339060048401610d23565b03915afa908115610220575f91610430575b50156101de576001600160a01b0381169081156101cf5760055460405190917ffdc61a171cf2fa6f226e1e76e7a1769cfab9da2ff86bad6060c7d77ee62e19259190819061041d906001600160a01b03861683610d55565b0390a16001600160a01b03191617600555005b610449915060203d6020116102195761020b8183610cbd565b826103c5565b90506020813d60201161047b575b8161046a60209383610cbd565b810103126100de57516103b361038e565b3d915061045d565b346100de575f3660031901126100de576002546040516001600160a01b039091168152602090f35b346100de5760203660031901126100de576104c4610cdf565b5f54604051630ccc574960e41b81526001600160a01b0390911690602081600481855afa908115610220575f916105b7575b5060209061051b926040518080958194632474521560e21b8352339060048401610d23565b03915afa908115610220575f91610598575b50156101de576001600160a01b0381169081156101cf5760045460405190917f5da6b94665bf1ffea8956b1bfd3424ac4e5879083197059f23e5181df77c361991908190610585906001600160a01b03861683610d55565b0390a16001600160a01b03191617600455005b6105b1915060203d6020116102195761020b8183610cbd565b8261052d565b90506020813d6020116105e3575b816105d260209383610cbd565b810103126100de575161051b6104f6565b3d91506105c5565b346100de5760403660031901126100de5760043560038110156100de57602090610613610cf5565b604051908382019260f81b835260018060601b03199060601b16602182015260158152610641603582610cbd565b519020604051908152f35b346100de575f3660031901126100de576003546040516001600160a01b039091168152602090f35b346100de5760203660031901126100de5761068d610cdf565b5f54604051630ccc574960e41b81526001600160a01b0390911690602081600481855afa908115610220575f91610780575b506020906106e4926040518080958194632474521560e21b8352339060048401610d23565b03915afa908115610220575f91610761575b50156101de576001600160a01b0381169081156101cf5760025460405190917ff6305c18a40cde2556a61871b17cd0a86d780832dc0e3e05a43c1d2ff8a53ac49190819061074e906001600160a01b03861683610d55565b0390a16001600160a01b03191617600255005b61077a915060203d6020116102195761020b8183610cbd565b826106f6565b90506020813d6020116107ac575b8161079b60209383610cbd565b810103126100de57516106e46106bf565b3d915061078e565b346100de575f3660031901126100de576004546040516001600160a01b039091168152602090f35b346100de5760203660031901126100de576107f5610cdf565b5f54604051630ccc574960e41b81526001600160a01b0390911690602081600481855afa908115610220575f916108e8575b5060209061084c926040518080958194632474521560e21b8352339060048401610d23565b03915afa908115610220575f916108c9575b50156101de576001600160a01b0381169081156101cf5760015460405190917fffe0a81e9fcc7a42c05a5b4b763ffb4ca50ddd532d824b476298bb1264194545919081906108b6906001600160a01b03861683610d55565b0390a16001600160a01b03191617600155005b6108e2915060203d6020116102195761020b8183610cbd565b8261085e565b90506020813d602011610914575b8161090360209383610cbd565b810103126100de575161084c610827565b3d91506108f6565b346100de5760a03660031901126100de5760405160a0810181811067ffffffffffffffff821117610c6257604052610952610cdf565b815261095c610cf5565b6020820190815260443591906001600160a01b03831683036100de5760408201928352606435916001600160a01b03831683036100de5760608101928352608435906001600160a01b03821682036100de57608081019182525f54604051630ccc574960e41b81529095906001600160a01b03871690602081600481855afa908115610220575f91610c2e575b50602090610a0e926040518080958194632474521560e21b8352339060048401610d23565b03915afa908115610220575f91610c0f575b50156101de5760ff8660a01c16610c005781516001600160a01b0316158015610bee575b8015610bdc575b8015610bca575b8015610bb8575b6101cf579051600180546001600160a01b03199081166001600160a01b039384169081179092558551600280548316918516919091179055835160038054831691851691909117905586516004805483169185169190911790558451600580549092169316929092179091556040517ffdc61a171cf2fa6f226e1e76e7a1769cfab9da2ff86bad6060c7d77ee62e192595610ba4957f5da6b94665bf1ffea8956b1bfd3424ac4e5879083197059f23e5181df77c361994610b8b9492937f4ab5be82436d353e61ca18726e984e561f5c1cc7c6d38b29d2553c790434705a9386937ff6305c18a40cde2556a61871b17cd0a86d780832dc0e3e05a43c1d2ff8a53ac49285927fffe0a81e9fcc7a42c05a5b4b763ffb4ca50ddd532d824b476298bb126419454591908190859082610d3c565b0390a1516040519182916001600160a01b031682610d3c565b0390a160ff60a01b1916600160a01b175f55005b5082516001600160a01b031615610a59565b5084516001600160a01b031615610a52565b5080516001600160a01b031615610a4b565b5083516001600160a01b031615610a44565b63485ed86d60e01b5f5260045ffd5b610c28915060203d6020116102195761020b8183610cbd565b87610a20565b90506020813d602011610c5a575b81610c4960209383610cbd565b810103126100de5751610a0e6109e9565b3d9150610c3c565b634e487b7160e01b5f52604160045260245ffd5b346100de575f3660031901126100de57602060ff5f5460a01c166040519015158152f35b346100de575f3660031901126100de576001546001600160a01b03168152602090f35b90601f8019910116810190811067ffffffffffffffff821117610c6257604052565b600435906001600160a01b03821682036100de57565b602435906001600160a01b03821682036100de57565b908160209103126100de575180151581036100de5790565b9081526001600160a01b03909116602082015260400190565b5f81526001600160a01b03909116602082015260400190565b6001600160a01b039182168152911660208201526040019056fea264697066735822122078289844812bf4038969d001a4c7dddd870f2f6d08f5f35261a50e624d30ec5764736f6c634300081c0033",
  "linkReferences": {},
  "deployedLinkReferences": {}
}