{
  "_format": "hh-sol-artifact-1",
  "contractName": "HarborCommand",
  "sourceName": "src/contracts/HarborCommand.sol",
  "abi": [
    {
      "inputs": [
        {
          "internalType": "address",
          "name": "_accessManager",
          "type": "address"
        }
      ],
      "stateMutability": "nonpayable",
      "type": "constructor"
    },
    {
      "inputs": [
        {
          "internalType": "address",
          "name": "caller",
          "type": "address"
        }
      ],
      "name": "CallerIsNotAdmin",
      "type": "error"
    },
    {
      "inputs": [
        {
          "internalType": "address",
          "name": "caller",
          "type": "address"
        }
      ],
      "name": "CallerIsNotAuthorizedToBoard",
      "type": "error"
    },
    {
      "inputs": [
        {
          "internalType": "address",
          "name": "caller",
          "type": "address"
        }
      ],
      "name": "CallerIsNotCommander",
      "type": "error"
    },
    {
      "inputs": [
        {
          "internalType": "address",
          "name": "caller",
          "type": "address"
        },
        {
          "internalType": "bytes32",
          "name": "role",
          "type": "bytes32"
        }
      ],
      "name": "CallerIsNotContractSpecificRole",
      "type": "error"
    },
    {
      "inputs": [
        {
          "internalType": "address",
          "name": "caller",
          "type": "address"
        }
      ],
      "name": "CallerIsNotCurator",
      "type": "error"
    },
    {
      "inputs": [
        {
          "internalType": "address",
          "name": "caller",
          "type": "address"
        }
      ],
      "name": "CallerIsNotDecayController",
      "type": "error"
    },
    {
      "inputs": [
        {
          "internalType": "address",
          "name": "caller",
          "type": "address"
        }
      ],
      "name": "CallerIsNotGovernor",
      "type": "error"
    },
    {
      "inputs": [
        {
          "internalType": "address",
          "name": "caller",
          "type": "address"
        }
      ],
      "name": "CallerIsNotGuardian",
      "type": "error"
    },
    {
      "inputs": [
        {
          "internalType": "address",
          "name": "caller",
          "type": "address"
        }
      ],
      "name": "CallerIsNotGuardianOrGovernor",
      "type": "error"
    },
    {
      "inputs": [
        {
          "internalType": "address",
          "name": "caller",
          "type": "address"
        }
      ],
      "name": "CallerIsNotKeeper",
      "type": "error"
    },
    {
      "inputs": [
        {
          "internalType": "address",
          "name": "caller",
          "type": "address"
        }
      ],
      "name": "CallerIsNotRaft",
      "type": "error"
    },
    {
      "inputs": [
        {
          "internalType": "address",
          "name": "caller",
          "type": "address"
        }
      ],
      "name": "CallerIsNotRaftOrCommander",
      "type": "error"
    },
    {
      "inputs": [
        {
          "internalType": "address",
          "name": "caller",
          "type": "address"
        }
      ],
      "name": "CallerIsNotSuperKeeper",
      "type": "error"
    },
    {
      "inputs": [
        {
          "internalType": "address",
          "name": "caller",
          "type": "address"
        }
      ],
      "name": "DirectGrantIsDisabled",
      "type": "error"
    },
    {
      "inputs": [
        {
          "internalType": "address",
          "name": "caller",
          "type": "address"
        }
      ],
      "name": "DirectRevokeIsDisabled",
      "type": "error"
    },
    {
      "inputs": [
        {
          "internalType": "address",
          "name": "fleetCommander",
          "type": "address"
        }
      ],
      "name": "FleetCommanderAlreadyEnlisted",
      "type": "error"
    },
    {
      "inputs": [
        {
          "internalType": "address",
          "name": "fleetCommander",
          "type": "address"
        }
      ],
      "name": "FleetCommanderNotEnlisted",
      "type": "error"
    },
    {
      "inputs": [
        {
          "internalType": "address",
          "name": "invalidAddress",
          "type": "address"
        }
      ],
      "name": "InvalidAccessManagerAddress",
      "type": "error"
    },
    {
      "anonymous": false,
      "inputs": [
        {
          "indexed": true,
          "internalType": "address",
          "name": "fleetCommander",
          "type": "address"
        }
      ],
      "name": "FleetCommanderDecommissioned",
      "type": "event"
    },
    {
      "anonymous": false,
      "inputs": [
        {
          "indexed": true,
          "internalType": "address",
          "name": "fleetCommander",
          "type": "address"
        }
      ],
      "name": "FleetCommanderEnlisted",
      "type": "event"
    },
    {
      "inputs": [
        {
          "internalType": "address",
          "name": "_fleetCommander",
          "type": "address"
        }
      ],
      "name": "activeFleetCommanders",
      "outputs": [
        {
          "internalType": "bool",
          "name": "",
          "type": "bool"
        }
      ],
      "stateMutability": "view",
      "type": "function"
    },
    {
      "inputs": [
        {
          "internalType": "address",
          "name": "_fleetCommander",
          "type": "address"
        }
      ],
      "name": "decommissionFleetCommander",
      "outputs": [],
      "stateMutability": "nonpayable",
      "type": "function"
    },
    {
      "inputs": [
        {
          "internalType": "address",
          "name": "_fleetCommander",
          "type": "address"
        }
      ],
      "name": "enlistFleetCommander",
      "outputs": [],
      "stateMutability": "nonpayable",
      "type": "function"
    },
    {
      "inputs": [
        {
          "internalType": "uint256",
          "name": "index",
          "type": "uint256"
        }
      ],
      "name": "fleetCommandersList",
      "outputs": [
        {
          "internalType": "address",
          "name": "",
          "type": "address"
        }
      ],
      "stateMutability": "view",
      "type": "function"
    },
    {
      "inputs": [
        {
          "internalType": "enum ContractSpecificRoles",
          "name": "roleName",
          "type": "uint8"
        },
        {
          "internalType": "address",
          "name": "roleTargetContract",
          "type": "address"
        }
      ],
      "name": "generateRole",
      "outputs": [
        {
          "internalType": "bytes32",
          "name": "",
          "type": "bytes32"
        }
      ],
      "stateMutability": "pure",
      "type": "function"
    },
    {
      "inputs": [],
      "name": "getActiveFleetCommanders",
      "outputs": [
        {
          "internalType": "address[]",
          "name": "",
          "type": "address[]"
        }
      ],
      "stateMutability": "view",
      "type": "function"
    }
  ],
  "bytecode": "0x608080604052346100e0576020816107dd803803809161001f828561010a565b8339810103126100e057516001600160a01b038116908190036100e05780156100f7576040516301ffc9a760e01b8152639bd1803160e01b6004820152602081602481855afa9081156100ec575f916100ad575b501561009b575f80546001600160a01b03191691909117905560405161069b90816101428239f35b6347bd7c1d60e01b5f5260045260245ffd5b90506020813d6020116100e4575b816100c86020938361010a565b810103126100e0575180151581036100e0575f610073565b5f80fd5b3d91506100bb565b6040513d5f823e3d90fd5b6347bd7c1d60e01b5f525f60045260245ffd5b601f909101601f19168101906001600160401b0382119082101761012d57604052565b634e487b7160e01b5f52604160045260245ffdfe6080806040526004361015610012575f80fd5b5f3560e01c908163588b97c71461037b5750806369b3054b146103085780638e3d56931461029a578063ab4ba0f7146101f8578063b912d58c1461009c5763e9d00d561461005e575f80fd5b34610098576020366003190112610098576001600160a01b0361007f6104a8565b165f526002602052602060405f20541515604051908152f35b5f80fd5b34610098576020366003190112610098576100b56104a8565b5f54604051630ccc574960e41b81526001600160a01b0390911690602081600481855afa9081156101b9575f916101c4575b50604051632474521560e21b815260048101919091523360248201529060209082908180604481015b03915afa9081156101b9575f9161018a575b5015610177576001600160a01b031661013a8161058c565b15610165577f1e34673d1d14c032c95f75eeaf38870b6123c81b82b1ea97cccc7442d06ef6115f80a2005b630349cba160e61b5f5260045260245ffd5b630ea7d7ed60e21b5f523360045260245ffd5b6101ac915060203d6020116101b2575b6101a481836104be565b8101906104f4565b82610122565b503d61019a565b6040513d5f823e3d90fd5b90506020813d6020116101f0575b816101df602093836104be565b8101031261009857516101106100e7565b3d91506101d2565b34610098575f366003190112610098576040518060206001549283815201809260015f5260205f20905f5b81811061028457505050816102399103826104be565b604051918291602083019060208452518091526040830191905f5b818110610262575050500390f35b82516001600160a01b0316845285945060209384019390920191600101610254565b8254845260209093019260019283019201610223565b34610098576020366003190112610098576004356001548110156102f45760015f527fb10e2d527612073b26eecdfd717e6a320cf44b4afac2b0732d9fcbe2b7fa0cf601546040516001600160a01b039091168152602090f35b634e487b7160e01b5f52603260045260245ffd5b3461009857604036600319011261009857600435600381101561009857602435906001600160a01b038216820361009857602091604051908382019260f81b83526bffffffffffffffffffffffff199060601b166021820152601581526103706035826104be565b519020604051908152f35b34610098576020366003190112610098576103946104a8565b5f54630ccc574960e41b835290916001600160a01b0390911690602081600481855afa9081156101b9575f91610474575b50604051632474521560e21b815260048101919091523360248201529060209082908180604481015b03915afa9081156101b9575f91610455575b5015610177576001600160a01b031661041881610521565b15610443577f8962d9675f6e694d83eac853fc2c4cdac912219afd6e7aaa4f1ba35ff622af2f5f80a2005b63e12abecb60e01b5f5260045260245ffd5b61046e915060203d6020116101b2576101a481836104be565b82610400565b90506020813d6020116104a0575b8161048f602093836104be565b8101031261009857516103ee6103c5565b3d9150610482565b600435906001600160a01b038216820361009857565b90601f8019910116810190811067ffffffffffffffff8211176104e057604052565b634e487b7160e01b5f52604160045260245ffd5b90816020910312610098575180151581036100985790565b80548210156102f4575f5260205f2001905f90565b805f52600260205260405f2054155f1461058757600154600160401b8110156104e05761057061055a826001859401600155600161050c565b819391549060031b91821b915f19901b19161790565b9055600154905f52600260205260405f2055600190565b505f90565b5f81815260026020526040902054801561065f575f19810181811161064b576001545f1981019190821161064b57818103610613575b50505060015480156105ff575f19016105dc81600161050c565b8154905f199060031b1b191690556001555f5260026020525f6040812055600190565b634e487b7160e01b5f52603160045260245ffd5b61063561062461055a93600161050c565b90549060031b1c928392600161050c565b90555f52600260205260405f20555f80806105c2565b634e487b7160e01b5f52601160045260245ffd5b50505f9056fea2646970667358221220699dcb836fef9957e77fc5c2239c43b24226b8219a8f54bf7cd1f5d82b92055064736f6c634300081c0033",
  "linkReferences": {},
  "deployedLinkReferences": {}
}