{
  "_format": "hh-sol-artifact-1",
  "contractName": "TipJar",
  "sourceName": "src/contracts/TipJar.sol",
  "abi": [
    {
      "inputs": [
        {
          "internalType": "address",
          "name": "_accessManager",
          "type": "address"
        },
        {
          "internalType": "address",
          "name": "_configurationManager",
          "type": "address"
        }
      ],
      "stateMutability": "nonpayable",
      "type": "constructor"
    },
    {
      "inputs": [
        {
          "internalType": "address",
          "name": "caller",
          "type": "address"
        }
      ],
      "name": "CallerIsNotAdmin",
      "type": "error"
    },
    {
      "inputs": [
        {
          "internalType": "address",
          "name": "caller",
          "type": "address"
        }
      ],
      "name": "CallerIsNotAuthorizedToBoard",
      "type": "error"
    },
    {
      "inputs": [
        {
          "internalType": "address",
          "name": "caller",
          "type": "address"
        }
      ],
      "name": "CallerIsNotCommander",
      "type": "error"
    },
    {
      "inputs": [
        {
          "internalType": "address",
          "name": "caller",
          "type": "address"
        },
        {
          "internalType": "bytes32",
          "name": "role",
          "type": "bytes32"
        }
      ],
      "name": "CallerIsNotContractSpecificRole",
      "type": "error"
    },
    {
      "inputs": [
        {
          "internalType": "address",
          "name": "caller",
          "type": "address"
        }
      ],
      "name": "CallerIsNotCurator",
      "type": "error"
    },
    {
      "inputs": [
        {
          "internalType": "address",
          "name": "caller",
          "type": "address"
        }
      ],
      "name": "CallerIsNotGovernor",
      "type": "error"
    },
    {
      "inputs": [
        {
          "internalType": "address",
          "name": "caller",
          "type": "address"
        }
      ],
      "name": "CallerIsNotGuardian",
      "type": "error"
    },
    {
      "inputs": [
        {
          "internalType": "address",
          "name": "caller",
          "type": "address"
        }
      ],
      "name": "CallerIsNotGuardianOrGovernor",
      "type": "error"
    },
    {
      "inputs": [
        {
          "internalType": "address",
          "name": "caller",
          "type": "address"
        }
      ],
      "name": "CallerIsNotKeeper",
      "type": "error"
    },
    {
      "inputs": [
        {
          "internalType": "address",
          "name": "caller",
          "type": "address"
        }
      ],
      "name": "CallerIsNotRaft",
      "type": "error"
    },
    {
      "inputs": [
        {
          "internalType": "address",
          "name": "caller",
          "type": "address"
        }
      ],
      "name": "CallerIsNotRaftOrCommander",
      "type": "error"
    },
    {
      "inputs": [
        {
          "internalType": "address",
          "name": "caller",
          "type": "address"
        }
      ],
      "name": "CallerIsNotSuperKeeper",
      "type": "error"
    },
    {
      "inputs": [],
      "name": "ConfigurationManagerZeroAddress",
      "type": "error"
    },
    {
      "inputs": [
        {
          "internalType": "address",
          "name": "caller",
          "type": "address"
        }
      ],
      "name": "DirectGrantIsDisabled",
      "type": "error"
    },
    {
      "inputs": [
        {
          "internalType": "address",
          "name": "caller",
          "type": "address"
        }
      ],
      "name": "DirectRevokeIsDisabled",
      "type": "error"
    },
    {
      "inputs": [
        {
          "internalType": "address",
          "name": "invalidAddress",
          "type": "address"
        }
      ],
      "name": "InvalidAccessManagerAddress",
      "type": "error"
    },
    {
      "inputs": [],
      "name": "InvalidFleetCommanderAddress",
      "type": "error"
    },
    {
      "inputs": [],
      "name": "InvalidRecipientAddress",
      "type": "error"
    },
    {
      "inputs": [
        {
          "internalType": "Percentage",
          "name": "invalidAllocation",
          "type": "uint256"
        }
      ],
      "name": "InvalidTipStreamAllocation",
      "type": "error"
    },
    {
      "inputs": [],
      "name": "InvalidTreasuryAddress",
      "type": "error"
    },
    {
      "inputs": [],
      "name": "NoAssetsToDistribute",
      "type": "error"
    },
    {
      "inputs": [],
      "name": "NoSharesToRedeem",
      "type": "error"
    },
    {
      "inputs": [
        {
          "internalType": "address",
          "name": "recipient",
          "type": "address"
        }
      ],
      "name": "TipStreamAlreadyExists",
      "type": "error"
    },
    {
      "inputs": [
        {
          "internalType": "address",
          "name": "recipient",
          "type": "address"
        }
      ],
      "name": "TipStreamDoesNotExist",
      "type": "error"
    },
    {
      "inputs": [
        {
          "internalType": "address",
          "name": "recipient",
          "type": "address"
        }
      ],
      "name": "TipStreamLocked",
      "type": "error"
    },
    {
      "inputs": [],
      "name": "TotalAllocationExceedsOneHundredPercent",
      "type": "error"
    },
    {
      "anonymous": false,
      "inputs": [
        {
          "indexed": true,
          "internalType": "address",
          "name": "fleetCommander",
          "type": "address"
        },
        {
          "indexed": false,
          "internalType": "uint256",
          "name": "totalDistributed",
          "type": "uint256"
        }
      ],
      "name": "TipJarShaken",
      "type": "event"
    },
    {
      "anonymous": false,
      "inputs": [
        {
          "components": [
            {
              "internalType": "address",
              "name": "recipient",
              "type": "address"
            },
            {
              "internalType": "Percentage",
              "name": "allocation",
              "type": "uint256"
            },
            {
              "internalType": "uint256",
              "name": "lockedUntilEpoch",
              "type": "uint256"
            }
          ],
          "indexed": false,
          "internalType": "struct ITipJar.TipStream",
          "name": "tipStream",
          "type": "tuple"
        }
      ],
      "name": "TipStreamAdded",
      "type": "event"
    },
    {
      "anonymous": false,
      "inputs": [
        {
          "indexed": true,
          "internalType": "address",
          "name": "recipient",
          "type": "address"
        }
      ],
      "name": "TipStreamRemoved",
      "type": "event"
    },
    {
      "anonymous": false,
      "inputs": [
        {
          "components": [
            {
              "internalType": "address",
              "name": "recipient",
              "type": "address"
            },
            {
              "internalType": "Percentage",
              "name": "allocation",
              "type": "uint256"
            },
            {
              "internalType": "uint256",
              "name": "lockedUntilEpoch",
              "type": "uint256"
            }
          ],
          "indexed": false,
          "internalType": "struct ITipJar.TipStream",
          "name": "oldTipStream",
          "type": "tuple"
        },
        {
          "components": [
            {
              "internalType": "address",
              "name": "recipient",
              "type": "address"
            },
            {
              "internalType": "Percentage",
              "name": "allocation",
              "type": "uint256"
            },
            {
              "internalType": "uint256",
              "name": "lockedUntilEpoch",
              "type": "uint256"
            }
          ],
          "indexed": false,
          "internalType": "struct ITipJar.TipStream",
          "name": "newTipStream",
          "type": "tuple"
        }
      ],
      "name": "TipStreamUpdated",
      "type": "event"
    },
    {
      "inputs": [
        {
          "components": [
            {
              "internalType": "address",
              "name": "recipient",
              "type": "address"
            },
            {
              "internalType": "Percentage",
              "name": "allocation",
              "type": "uint256"
            },
            {
              "internalType": "uint256",
              "name": "lockedUntilEpoch",
              "type": "uint256"
            }
          ],
          "internalType": "struct ITipJar.TipStream",
          "name": "tipStream",
          "type": "tuple"
        }
      ],
      "name": "addTipStream",
      "outputs": [
        {
          "internalType": "uint256",
          "name": "lockedUntilEpoch",
          "type": "uint256"
        }
      ],
      "stateMutability": "nonpayable",
      "type": "function"
    },
    {
      "inputs": [],
      "name": "configurationManager",
      "outputs": [
        {
          "internalType": "contract IConfigurationManager",
          "name": "",
          "type": "address"
        }
      ],
      "stateMutability": "view",
      "type": "function"
    },
    {
      "inputs": [
        {
          "internalType": "enum ContractSpecificRoles",
          "name": "roleName",
          "type": "uint8"
        },
        {
          "internalType": "address",
          "name": "roleTargetContract",
          "type": "address"
        }
      ],
      "name": "generateRole",
      "outputs": [
        {
          "internalType": "bytes32",
          "name": "",
          "type": "bytes32"
        }
      ],
      "stateMutability": "pure",
      "type": "function"
    },
    {
      "inputs": [],
      "name": "getAllTipStreams",
      "outputs": [
        {
          "components": [
            {
              "internalType": "address",
              "name": "recipient",
              "type": "address"
            },
            {
              "internalType": "Percentage",
              "name": "allocation",
              "type": "uint256"
            },
            {
              "internalType": "uint256",
              "name": "lockedUntilEpoch",
              "type": "uint256"
            }
          ],
          "internalType": "struct ITipJar.TipStream[]",
          "name": "",
          "type": "tuple[]"
        }
      ],
      "stateMutability": "view",
      "type": "function"
    },
    {
      "inputs": [
        {
          "internalType": "address",
          "name": "recipient",
          "type": "address"
        }
      ],
      "name": "getTipStream",
      "outputs": [
        {
          "components": [
            {
              "internalType": "address",
              "name": "recipient",
              "type": "address"
            },
            {
              "internalType": "Percentage",
              "name": "allocation",
              "type": "uint256"
            },
            {
              "internalType": "uint256",
              "name": "lockedUntilEpoch",
              "type": "uint256"
            }
          ],
          "internalType": "struct ITipJar.TipStream",
          "name": "",
          "type": "tuple"
        }
      ],
      "stateMutability": "view",
      "type": "function"
    },
    {
      "inputs": [],
      "name": "getTotalAllocation",
      "outputs": [
        {
          "internalType": "Percentage",
          "name": "total",
          "type": "uint256"
        }
      ],
      "stateMutability": "view",
      "type": "function"
    },
    {
      "inputs": [],
      "name": "harborCommand",
      "outputs": [
        {
          "internalType": "address",
          "name": "",
          "type": "address"
        }
      ],
      "stateMutability": "view",
      "type": "function"
    },
    {
      "inputs": [],
      "name": "raft",
      "outputs": [
        {
          "internalType": "address",
          "name": "",
          "type": "address"
        }
      ],
      "stateMutability": "view",
      "type": "function"
    },
    {
      "inputs": [
        {
          "internalType": "address",
          "name": "recipient",
          "type": "address"
        }
      ],
      "name": "removeTipStream",
      "outputs": [],
      "stateMutability": "nonpayable",
      "type": "function"
    },
    {
      "inputs": [
        {
          "internalType": "address",
          "name": "fleetCommander_",
          "type": "address"
        }
      ],
      "name": "shake",
      "outputs": [],
      "stateMutability": "nonpayable",
      "type": "function"
    },
    {
      "inputs": [
        {
          "internalType": "address[]",
          "name": "fleetCommanders",
          "type": "address[]"
        }
      ],
      "name": "shakeMultiple",
      "outputs": [],
      "stateMutability": "nonpayable",
      "type": "function"
    },
    {
      "inputs": [],
      "name": "tipJar",
      "outputs": [
        {
          "internalType": "address",
          "name": "",
          "type": "address"
        }
      ],
      "stateMutability": "view",
      "type": "function"
    },
    {
      "inputs": [
        {
          "internalType": "uint256",
          "name": "",
          "type": "uint256"
        }
      ],
      "name": "tipStreamRecipients",
      "outputs": [
        {
          "internalType": "address",
          "name": "",
          "type": "address"
        }
      ],
      "stateMutability": "view",
      "type": "function"
    },
    {
      "inputs": [
        {
          "internalType": "address",
          "name": "recipient",
          "type": "address"
        }
      ],
      "name": "tipStreams",
      "outputs": [
        {
          "internalType": "address",
          "name": "recipient",
          "type": "address"
        },
        {
          "internalType": "Percentage",
          "name": "allocation",
          "type": "uint256"
        },
        {
          "internalType": "uint256",
          "name": "lockedUntilEpoch",
          "type": "uint256"
        }
      ],
      "stateMutability": "view",
      "type": "function"
    },
    {
      "inputs": [],
      "name": "treasury",
      "outputs": [
        {
          "internalType": "address",
          "name": "",
          "type": "address"
        }
      ],
      "stateMutability": "view",
      "type": "function"
    },
    {
      "inputs": [
        {
          "components": [
            {
              "internalType": "address",
              "name": "recipient",
              "type": "address"
            },
            {
              "internalType": "Percentage",
              "name": "allocation",
              "type": "uint256"
            },
            {
              "internalType": "uint256",
              "name": "lockedUntilEpoch",
              "type": "uint256"
            }
          ],
          "internalType": "struct ITipJar.TipStream",
          "name": "tipStream",
          "type": "tuple"
        }
      ],
      "name": "updateTipStream",
      "outputs": [],
      "stateMutability": "nonpayable",
      "type": "function"
    }
  ],
  "bytecode": "0x60a08060405234610132576040816114eb803803809161001f828561015c565b8339810103126101325761003e602061003783610193565b9201610193565b906001600160a01b03168015610149576040516301ffc9a760e01b815263a237592160e01b6004820152602081602481855afa90811561013e575f916100ff575b50156100ed575f80546001600160a01b0319169190911790556001600160a01b031680156100de5760805260405161134390816101a8823960805181818161045d01528181610a3c01528181610bf401528181610d800152610dec0152f35b63f1634df960e01b5f5260045ffd5b6347bd7c1d60e01b5f5260045260245ffd5b90506020813d602011610136575b8161011a6020938361015c565b8101031261013257518015158103610132575f61007f565b5f80fd5b3d915061010d565b6040513d5f823e3d90fd5b6347bd7c1d60e01b5f525f60045260245ffd5b601f909101601f19168101906001600160401b0382119082101761017f57604052565b634e487b7160e01b5f52604160045260245ffd5b51906001600160a01b03821682036101325756fe6080806040526004361015610012575f80fd5b5f3560e01c908163117d8ae014610bd35750806315d3b5d814610bb1578063407f25fb14610b6f5780635b0f83f314610b5557806361d027b314610b2957806369b3054b14610ab65780637aaceb9514610a17578063839b08851461098e578063908cbdc614610908578063908fb02d146106fd578063b2cdc7db146106a6578063bf7c1cc11461048c578063c9c667e314610448578063efffce611461030d578063f32617c9146100f35763f5abfe5e146100cc575f80fd5b346100ef5760203660031901126100ef576100ed6100e8610c6c565b610ea3565b005b5f80fd5b346100ef5761010136610cc0565b5f54604051630ccc574960e41b81526001600160a01b0390911690602081600481855afa9081156102ce575f916102d9575b50604051632474521560e21b815260048101919091523360248201529060209082908180604481015b03915afa9081156102ce575f9161029f575b501561028c5780517ff98da2985cf0f5057e1736402dc428a8e3b5e75cbb807bfd12fc7a438e0c33e29160c0916101ad906001600160a01b03166112af565b60018060a01b038151165f52600160205261028960405f2091604051926101d384610c82565b60018060a01b03815416845260026001820154918260208701520154604085015261020360208301918251611241565b5160018060a01b038251165f526001602052600160405f200155604081015160018060a01b038251165f526001602052600260405f20015561026460405180946040809160018060a01b038151168452602081015160208501520151910152565b80516001600160a01b03166060840152602081015160808401526040015160a0830152565ba1005b630ea7d7ed60e21b5f523360045260245ffd5b6102c1915060203d6020116102c7575b6102b98183610c9e565b810190610e45565b8261016e565b503d6102af565b6040513d5f823e3d90fd5b90506020813d602011610305575b816102f460209383610c9e565b810103126100ef575161015c610133565b3d91506102e7565b346100ef575f3660031901126100ef5760025461032981610e6a565b906103376040519283610c9e565b808252601f1961034682610e6a565b015f5b8181106104315750505f5b8181106103c757826040518091602082016020835281518091526020604084019201905f5b818110610387575050500390f35b9193509160206060826103b960019488516040809160018060a01b038151168452602081015160208501520151910152565b019401910191849392610379565b806103d3600192610c40565b838060a01b0391549060031b1c165f528160205260405f206002604051916103fa83610c82565b848060a01b0381541683528481015460208401520154604082015261041f8286610e82565b5261042a8185610e82565b5001610354565b60209061043c610e27565b82828701015201610349565b346100ef575f3660031901126100ef576040517f00000000000000000000000000000000000000000000000000000000000000006001600160a01b03168152602090f35b346100ef5760203660031901126100ef576104a5610c6c565b5f54604051630ccc574960e41b81526001600160a01b0390911690602081600481855afa9081156102ce575f91610672575b50604051632474521560e21b815260048101919091523360248201529060209082908180604481015b03915afa9081156102ce575f91610653575b501561028c57610521816112af565b60018060a01b0316805f5260016020525f60026040822082815582600182015501555f5b600254908181101561064c578261055b82610c40565b905460039190911b1c6001600160a01b03161461057c576001915001610545565b5f198201918211610638576105ae6105966105d293610c40565b905460039190911b1c6001600160a01b031691610c40565b81546001600160a01b0393841660039290921b91821b9390911b1916919091179055565b6002548015610624575f19016105e781610c40565b81549060018060a01b039060031b1b191690556002555b7f27d83e91c23e8d23e65c7096fcf662b306a1b459d3f1f2451462ad9817449e985f80a2005b634e487b7160e01b5f52603160045260245ffd5b634e487b7160e01b5f52601160045260245ffd5b50506105fe565b61066c915060203d6020116102c7576102b98183610c9e565b82610512565b90506020813d60201161069e575b8161068d60209383610c9e565b810103126100ef57516105006104d7565b3d9150610680565b346100ef5760203660031901126100ef576001600160a01b036106c7610c6c565b165f526001602052606060405f2060018060a01b0381541690600260018201549101549060405192835260208301526040820152f35b346100ef5761070b36610cc0565b5f54604051630ccc574960e41b81526001600160a01b0390911690602081600481855afa9081156102ce575f916108d4575b50604051632474521560e21b815260048101919091523360248201529060209082908180604481015b03915afa9081156102ce575f916108b5575b501561028c5780516001600160a01b039081165f908152600160205260409020541661089557602081016107c6815160018060a01b038451165f526001602052600160405f20015490611241565b81516001600160a01b039081165f90815260016020819052604091829020855181546001600160a01b0319169416938417815593519084015583015160029283015590549168010000000000000000831015610881576108536060926105ae8560017fc74f22a7864325ef73181ac12dffdb2376c8c1ae1a55c09314bb85c3cb547e2c9701600255610c40565b6040805182516001600160a01b03168152602080840151908201529181015190820152a160206040515f8152f35b634e487b7160e01b5f52604160045260245ffd5b5163ca86ad5f60e01b5f9081526001600160a01b03909116600452602490fd5b6108ce915060203d6020116102c7576102b98183610c9e565b82610778565b90506020813d602011610900575b816108ef60209383610c9e565b810103126100ef575161076661073d565b3d91506108e2565b346100ef5760203660031901126100ef57610921610c6c565b610929610e27565b5060018060a01b03165f526001602052606060405f2060026040519161094e83610c82565b80546001600160a01b0316808452600182015460208086019182529390920154604094850190815284519182529151928101929092525191810191909152f35b346100ef5760203660031901126100ef5760043567ffffffffffffffff81116100ef57366023820112156100ef5780600401359067ffffffffffffffff82116100ef573660248360051b830101116100ef575f5b828110156100ed57600581901b820160240135906001600160a01b03821682036100ef57610a11600192610ea3565b016109e2565b346100ef575f3660031901126100ef57604051637aaceb9560e01b81526020816004817f00000000000000000000000000000000000000000000000000000000000000006001600160a01b03165afa80156102ce576020915f91610a89575b506040516001600160a01b039091168152f35b610aa99150823d8411610aaf575b610aa18183610c9e565b810190610d00565b82610a76565b503d610a97565b346100ef5760403660031901126100ef5760043560038110156100ef57602435906001600160a01b03821682036100ef57602091604051908382019260f81b83526bffffffffffffffffffffffff199060601b16602182015260158152610b1e603582610c9e565b519020604051908152f35b346100ef575f3660031901126100ef576020610b43610dd7565b6040516001600160a01b039091168152f35b346100ef575f3660031901126100ef576020610b43610d6b565b346100ef5760203660031901126100ef576004356002548110156100ef57610b98602091610c40565b905460405160039290921b1c6001600160a01b03168152f35b346100ef575f3660031901126100ef576020610bcb610d1f565b604051908152f35b346100ef575f3660031901126100ef57628bec5760e51b81526020816004817f00000000000000000000000000000000000000000000000000000000000000006001600160a01b03165afa80156102ce576020915f91610a8957506040516001600160a01b039091168152f35b600254811015610c585760025f5260205f2001905f90565b634e487b7160e01b5f52603260045260245ffd5b600435906001600160a01b03821682036100ef57565b6060810190811067ffffffffffffffff82111761088157604052565b90601f8019910116810190811067ffffffffffffffff82111761088157604052565b60609060031901126100ef57604051610cd881610c82565b6004356001600160a01b03811681036100ef5781526024356020820152604435604082015290565b908160209103126100ef57516001600160a01b03811681036100ef5790565b5f905f6002545b808210610d31575050565b9092610d63600191610d4286610c40565b848060a01b0391549060031b1c165f52826020528260405f20015490610e96565b930190610d26565b604051635b0f83f360e01b81526020816004817f00000000000000000000000000000000000000000000000000000000000000006001600160a01b03165afa9081156102ce575f91610dbb575090565b610dd4915060203d602011610aaf57610aa18183610c9e565b90565b6040516361d027b360e01b81526020816004817f00000000000000000000000000000000000000000000000000000000000000006001600160a01b03165afa9081156102ce575f91610dbb575090565b60405190610e3482610c82565b5f6040838281528260208201520152565b908160209103126100ef575180151581036100ef5790565b9190820391821161063857565b67ffffffffffffffff81116108815760051b60200190565b8051821015610c585760209160051b010190565b9190820180921161063857565b602460206001600160a01b03610eb7610d6b565b6040516374e806ab60e11b81526001600160a01b03909516600486018190529493849290918391165afa9081156102ce575f91611222575b5015611213576040516370a0823160e01b815230600482015291602083602481855afa9283156102ce575f936111df575b5082156111d05760405192635d043b2960e11b845260048401523060248401523060448401526020836064815f865af19283156102ce575f9361119c575b50821561118d576040516338d52e0f60e01b8152602081600481865afa9081156102ce575f9161116e575b506001600160a01b0316925f918290815b60025481101561108957610fad81610c40565b60018060a01b0391549060031b1c16805f526001602052610fd6600160405f2001548095610e96565b9368056bc75e2d6310000090818603611076575050610ff58686610e5d565b905b81611007575b5050600101610f9a565b60405163a9059cbb60e01b81526001600160a01b03919091166004820152602481018290529195906020836044815f8d5af19182156102ce576001936110529361105a575b50610e96565b94905f610ffd565b6110719060203d81116102c7576102b98183610c9e565b61104c565b8087029087820403610638570490610ff7565b50949192611098915083610e5d565b90816110ce575b505060207fd3f5fdad4c895ab394f249ba2c358f247600664c003b17a0f4ee80309c41a3ae91604051908152a2565b61111592916020916110de610dd7565b60405163a9059cbb60e01b81526001600160a01b0390911660048201526024810192909252909384919082905f9082906044820190565b03925af19081156102ce577fd3f5fdad4c895ab394f249ba2c358f247600664c003b17a0f4ee80309c41a3ae92602092611151575b509161109f565b61116790833d85116102c7576102b98183610c9e565b505f61114a565b611187915060203d602011610aaf57610aa18183610c9e565b5f610f89565b63319f812560e21b5f5260045ffd5b9092506020813d6020116111c8575b816111b860209383610c9e565b810103126100ef5751915f610f5e565b3d91506111ab565b63f10cc93760e01b5f5260045ffd5b9092506020813d60201161120b575b816111fb60209383610c9e565b810103126100ef5751915f610f20565b3d91506111ee565b635ec4fa1360e11b5f5260045ffd5b61123b915060203d6020116102c7576102b98183610c9e565b5f610eef565b91908215801561129d575b61128a5761126561126a9293611260610d1f565b610e96565b610e5d565b68056bc75e2d631000001061127b57565b63b12ff28560e01b5f5260045ffd5b8263354436e360e01b5f5260045260245ffd5b5068056bc75e2d63100000831161124c565b6001600160a01b039081165f81815260016020526040902054909116156112fb57805f526001602052600260405f20015442106112e95750565b63214b419b60e21b5f5260045260245ffd5b63b295314d60e01b5f5260045260245ffdfea26469706673582212209dc411b458de387da75e846360654ae6e7c81054b8e8babd8e49eb20fc9735e664736f6c634300081b0033",
  "linkReferences": {},
  "deployedLinkReferences": {}
}