{
  "_format": "hh-sol-artifact-1",
  "contractName": "CurveSwapPendlePtArk",
  "sourceName": "src/contracts/arks/CurveSwapArk.sol",
  "abi": [
    {
      "inputs": [
        {
          "components": [
            {
              "internalType": "string",
              "name": "name",
              "type": "string"
            },
            {
              "internalType": "address",
              "name": "accessManager",
              "type": "address"
            },
            {
              "internalType": "address",
              "name": "configurationManager",
              "type": "address"
            },
            {
              "internalType": "address",
              "name": "token",
              "type": "address"
            },
            {
              "internalType": "uint256",
              "name": "depositCap",
              "type": "uint256"
            },
            {
              "internalType": "uint256",
              "name": "maxRebalanceOutflow",
              "type": "uint256"
            },
            {
              "internalType": "uint256",
              "name": "maxRebalanceInflow",
              "type": "uint256"
            },
            {
              "internalType": "bool",
              "name": "requiresKeeperData",
              "type": "bool"
            }
          ],
          "internalType": "struct ArkParams",
          "name": "_params",
          "type": "tuple"
        },
        {
          "components": [
            {
              "internalType": "address",
              "name": "market",
              "type": "address"
            },
            {
              "internalType": "address",
              "name": "oracle",
              "type": "address"
            },
            {
              "internalType": "address",
              "name": "router",
              "type": "address"
            }
          ],
          "internalType": "struct PendlePtArkConstructorParams",
          "name": "_pendlePtArkConstructorParams",
          "type": "tuple"
        },
        {
          "components": [
            {
              "internalType": "address",
              "name": "curvePool",
              "type": "address"
            },
            {
              "internalType": "address",
              "name": "marketAsset",
              "type": "address"
            }
          ],
          "internalType": "struct CurveSwapPendlePtArk.CurveSwapArkConstructorParams",
          "name": "_curveSwapArkConstructorParams",
          "type": "tuple"
        }
      ],
      "stateMutability": "nonpayable",
      "type": "constructor"
    },
    {
      "inputs": [
        {
          "internalType": "address",
          "name": "caller",
          "type": "address"
        }
      ],
      "name": "CallerIsNotAdmin",
      "type": "error"
    },
    {
      "inputs": [
        {
          "internalType": "address",
          "name": "caller",
          "type": "address"
        }
      ],
      "name": "CallerIsNotAuthorizedToBoard",
      "type": "error"
    },
    {
      "inputs": [
        {
          "internalType": "address",
          "name": "caller",
          "type": "address"
        }
      ],
      "name": "CallerIsNotCommander",
      "type": "error"
    },
    {
      "inputs": [
        {
          "internalType": "address",
          "name": "caller",
          "type": "address"
        },
        {
          "internalType": "bytes32",
          "name": "role",
          "type": "bytes32"
        }
      ],
      "name": "CallerIsNotContractSpecificRole",
      "type": "error"
    },
    {
      "inputs": [
        {
          "internalType": "address",
          "name": "caller",
          "type": "address"
        }
      ],
      "name": "CallerIsNotCurator",
      "type": "error"
    },
    {
      "inputs": [
        {
          "internalType": "address",
          "name": "caller",
          "type": "address"
        }
      ],
      "name": "CallerIsNotGovernor",
      "type": "error"
    },
    {
      "inputs": [
        {
          "internalType": "address",
          "name": "caller",
          "type": "address"
        }
      ],
      "name": "CallerIsNotGuardian",
      "type": "error"
    },
    {
      "inputs": [
        {
          "internalType": "address",
          "name": "caller",
          "type": "address"
        }
      ],
      "name": "CallerIsNotGuardianOrGovernor",
      "type": "error"
    },
    {
      "inputs": [
        {
          "internalType": "address",
          "name": "caller",
          "type": "address"
        }
      ],
      "name": "CallerIsNotKeeper",
      "type": "error"
    },
    {
      "inputs": [
        {
          "internalType": "address",
          "name": "caller",
          "type": "address"
        }
      ],
      "name": "CallerIsNotRaft",
      "type": "error"
    },
    {
      "inputs": [
        {
          "internalType": "address",
          "name": "caller",
          "type": "address"
        }
      ],
      "name": "CallerIsNotRaftOrCommander",
      "type": "error"
    },
    {
      "inputs": [
        {
          "internalType": "address",
          "name": "caller",
          "type": "address"
        }
      ],
      "name": "CallerIsNotSuperKeeper",
      "type": "error"
    },
    {
      "inputs": [],
      "name": "CannotAddCommanderToArkWithCommander",
      "type": "error"
    },
    {
      "inputs": [],
      "name": "CannotDeployArkWithEmptyName",
      "type": "error"
    },
    {
      "inputs": [],
      "name": "CannotDeployArkWithoutConfigurationManager",
      "type": "error"
    },
    {
      "inputs": [],
      "name": "CannotDeployArkWithoutRaft",
      "type": "error"
    },
    {
      "inputs": [],
      "name": "CannotDeployArkWithoutToken",
      "type": "error"
    },
    {
      "inputs": [],
      "name": "CannotRemoveCommanderFromArkWithAssets",
      "type": "error"
    },
    {
      "inputs": [],
      "name": "CannotUseKeeperDataWhenNotRequired",
      "type": "error"
    },
    {
      "inputs": [],
      "name": "ConfigurationManagerZeroAddress",
      "type": "error"
    },
    {
      "inputs": [
        {
          "internalType": "address",
          "name": "caller",
          "type": "address"
        }
      ],
      "name": "DirectGrantIsDisabled",
      "type": "error"
    },
    {
      "inputs": [
        {
          "internalType": "address",
          "name": "caller",
          "type": "address"
        }
      ],
      "name": "DirectRevokeIsDisabled",
      "type": "error"
    },
    {
      "inputs": [],
      "name": "ERC4626AssetMismatch",
      "type": "error"
    },
    {
      "inputs": [],
      "name": "EmaOutOfRange",
      "type": "error"
    },
    {
      "inputs": [
        {
          "internalType": "address",
          "name": "invalidAddress",
          "type": "address"
        }
      ],
      "name": "InvalidAccessManagerAddress",
      "type": "error"
    },
    {
      "inputs": [],
      "name": "InvalidBoardData",
      "type": "error"
    },
    {
      "inputs": [],
      "name": "InvalidDisembarkData",
      "type": "error"
    },
    {
      "inputs": [],
      "name": "InvalidFunctionSelector",
      "type": "error"
    },
    {
      "inputs": [],
      "name": "InvalidMarket",
      "type": "error"
    },
    {
      "inputs": [],
      "name": "InvalidParamsLength",
      "type": "error"
    },
    {
      "inputs": [],
      "name": "InvalidReceiver",
      "type": "error"
    },
    {
      "inputs": [],
      "name": "InvalidSwapType",
      "type": "error"
    },
    {
      "inputs": [],
      "name": "InvalidVaultAddress",
      "type": "error"
    },
    {
      "inputs": [],
      "name": "KeeperDataRequired",
      "type": "error"
    },
    {
      "inputs": [],
      "name": "LowerEmaNotLessThanUpperEma",
      "type": "error"
    },
    {
      "inputs": [],
      "name": "MarketExpirationTooClose",
      "type": "error"
    },
    {
      "inputs": [],
      "name": "MarketExpired",
      "type": "error"
    },
    {
      "inputs": [
        {
          "internalType": "address",
          "name": "token",
          "type": "address"
        }
      ],
      "name": "SafeERC20FailedOperation",
      "type": "error"
    },
    {
      "inputs": [],
      "name": "UpperEmaNotGreaterThanLowerEma",
      "type": "error"
    },
    {
      "anonymous": false,
      "inputs": [
        {
          "indexed": true,
          "internalType": "address[]",
          "name": "rewardTokens",
          "type": "address[]"
        },
        {
          "indexed": true,
          "internalType": "uint256[]",
          "name": "rewardAmounts",
          "type": "uint256[]"
        }
      ],
      "name": "ArkHarvested",
      "type": "event"
    },
    {
      "anonymous": false,
      "inputs": [
        {
          "indexed": false,
          "internalType": "uint256",
          "name": "currentPrice",
          "type": "uint256"
        },
        {
          "indexed": false,
          "internalType": "uint256",
          "name": "timestamp",
          "type": "uint256"
        }
      ],
      "name": "ArkPoked",
      "type": "event"
    },
    {
      "anonymous": false,
      "inputs": [
        {
          "indexed": true,
          "internalType": "address[]",
          "name": "sweptTokens",
          "type": "address[]"
        },
        {
          "indexed": true,
          "internalType": "uint256[]",
          "name": "sweptAmounts",
          "type": "uint256[]"
        }
      ],
      "name": "ArkSwept",
      "type": "event"
    },
    {
      "anonymous": false,
      "inputs": [
        {
          "indexed": true,
          "internalType": "address",
          "name": "commander",
          "type": "address"
        },
        {
          "indexed": false,
          "internalType": "address",
          "name": "token",
          "type": "address"
        },
        {
          "indexed": false,
          "internalType": "uint256",
          "name": "amount",
          "type": "uint256"
        }
      ],
      "name": "Boarded",
      "type": "event"
    },
    {
      "anonymous": false,
      "inputs": [
        {
          "indexed": false,
          "internalType": "uint256",
          "name": "newCap",
          "type": "uint256"
        }
      ],
      "name": "DepositCapUpdated",
      "type": "event"
    },
    {
      "anonymous": false,
      "inputs": [
        {
          "indexed": true,
          "internalType": "address",
          "name": "commander",
          "type": "address"
        },
        {
          "indexed": false,
          "internalType": "address",
          "name": "token",
          "type": "address"
        },
        {
          "indexed": false,
          "internalType": "uint256",
          "name": "amount",
          "type": "uint256"
        }
      ],
      "name": "Disembarked",
      "type": "event"
    },
    {
      "anonymous": false,
      "inputs": [
        {
          "indexed": false,
          "internalType": "address",
          "name": "commander",
          "type": "address"
        }
      ],
      "name": "FleetCommanderRegistered",
      "type": "event"
    },
    {
      "anonymous": false,
      "inputs": [
        {
          "indexed": false,
          "internalType": "address",
          "name": "commander",
          "type": "address"
        }
      ],
      "name": "FleetCommanderUnregistered",
      "type": "event"
    },
    {
      "anonymous": false,
      "inputs": [
        {
          "indexed": false,
          "internalType": "uint256",
          "name": "newMaxInflow",
          "type": "uint256"
        }
      ],
      "name": "MaxRebalanceInflowUpdated",
      "type": "event"
    },
    {
      "anonymous": false,
      "inputs": [
        {
          "indexed": false,
          "internalType": "uint256",
          "name": "newMaxOutflow",
          "type": "uint256"
        }
      ],
      "name": "MaxRebalanceOutflowUpdated",
      "type": "event"
    },
    {
      "anonymous": false,
      "inputs": [
        {
          "indexed": true,
          "internalType": "address",
          "name": "from",
          "type": "address"
        },
        {
          "indexed": true,
          "internalType": "address",
          "name": "to",
          "type": "address"
        },
        {
          "indexed": false,
          "internalType": "address",
          "name": "token",
          "type": "address"
        },
        {
          "indexed": false,
          "internalType": "uint256",
          "name": "amount",
          "type": "uint256"
        }
      ],
      "name": "Moved",
      "type": "event"
    },
    {
      "anonymous": false,
      "inputs": [
        {
          "indexed": false,
          "internalType": "address",
          "name": "newRaft",
          "type": "address"
        }
      ],
      "name": "RaftUpdated",
      "type": "event"
    },
    {
      "inputs": [],
      "name": "MAX_SLIPPAGE_PERCENTAGE",
      "outputs": [
        {
          "internalType": "Percentage",
          "name": "",
          "type": "uint256"
        }
      ],
      "stateMutability": "view",
      "type": "function"
    },
    {
      "inputs": [],
      "name": "MIN_ORACLE_DURATION",
      "outputs": [
        {
          "internalType": "uint256",
          "name": "",
          "type": "uint256"
        }
      ],
      "stateMutability": "view",
      "type": "function"
    },
    {
      "inputs": [],
      "name": "PT",
      "outputs": [
        {
          "internalType": "contract IPPrincipalToken",
          "name": "",
          "type": "address"
        }
      ],
      "stateMutability": "view",
      "type": "function"
    },
    {
      "inputs": [],
      "name": "SY",
      "outputs": [
        {
          "internalType": "contract IStandardizedYield",
          "name": "",
          "type": "address"
        }
      ],
      "stateMutability": "view",
      "type": "function"
    },
    {
      "inputs": [],
      "name": "USDC_INDEX",
      "outputs": [
        {
          "internalType": "int128",
          "name": "",
          "type": "int128"
        }
      ],
      "stateMutability": "view",
      "type": "function"
    },
    {
      "inputs": [],
      "name": "USDE_INDEX",
      "outputs": [
        {
          "internalType": "int128",
          "name": "",
          "type": "int128"
        }
      ],
      "stateMutability": "view",
      "type": "function"
    },
    {
      "inputs": [],
      "name": "YT",
      "outputs": [
        {
          "internalType": "contract IPYieldToken",
          "name": "",
          "type": "address"
        }
      ],
      "stateMutability": "view",
      "type": "function"
    },
    {
      "inputs": [
        {
          "internalType": "uint256",
          "name": "amount",
          "type": "uint256"
        },
        {
          "internalType": "bytes",
          "name": "boardData",
          "type": "bytes"
        }
      ],
      "name": "board",
      "outputs": [],
      "stateMutability": "nonpayable",
      "type": "function"
    },
    {
      "inputs": [],
      "name": "commander",
      "outputs": [
        {
          "internalType": "address",
          "name": "",
          "type": "address"
        }
      ],
      "stateMutability": "view",
      "type": "function"
    },
    {
      "inputs": [],
      "name": "config",
      "outputs": [
        {
          "internalType": "address",
          "name": "commander",
          "type": "address"
        },
        {
          "internalType": "address",
          "name": "raft",
          "type": "address"
        },
        {
          "internalType": "contract IERC20",
          "name": "token",
          "type": "address"
        },
        {
          "internalType": "uint256",
          "name": "depositCap",
          "type": "uint256"
        },
        {
          "internalType": "uint256",
          "name": "maxRebalanceOutflow",
          "type": "uint256"
        },
        {
          "internalType": "uint256",
          "name": "maxRebalanceInflow",
          "type": "uint256"
        },
        {
          "internalType": "string",
          "name": "name",
          "type": "string"
        },
        {
          "internalType": "bool",
          "name": "requiresKeeperData",
          "type": "bool"
        }
      ],
      "stateMutability": "view",
      "type": "function"
    },
    {
      "inputs": [],
      "name": "configurationManager",
      "outputs": [
        {
          "internalType": "contract IConfigurationManager",
          "name": "",
          "type": "address"
        }
      ],
      "stateMutability": "view",
      "type": "function"
    },
    {
      "inputs": [],
      "name": "curveSwap",
      "outputs": [
        {
          "internalType": "contract ICurveSwap",
          "name": "",
          "type": "address"
        }
      ],
      "stateMutability": "view",
      "type": "function"
    },
    {
      "inputs": [],
      "name": "depositCap",
      "outputs": [
        {
          "internalType": "uint256",
          "name": "",
          "type": "uint256"
        }
      ],
      "stateMutability": "view",
      "type": "function"
    },
    {
      "inputs": [
        {
          "internalType": "uint256",
          "name": "amount",
          "type": "uint256"
        },
        {
          "internalType": "bytes",
          "name": "disembarkData",
          "type": "bytes"
        }
      ],
      "name": "disembark",
      "outputs": [],
      "stateMutability": "nonpayable",
      "type": "function"
    },
    {
      "inputs": [],
      "name": "emptySwap",
      "outputs": [
        {
          "internalType": "enum SwapType",
          "name": "swapType",
          "type": "uint8"
        },
        {
          "internalType": "address",
          "name": "extRouter",
          "type": "address"
        },
        {
          "internalType": "bytes",
          "name": "extCalldata",
          "type": "bytes"
        },
        {
          "internalType": "bool",
          "name": "needScale",
          "type": "bool"
        }
      ],
      "stateMutability": "view",
      "type": "function"
    },
    {
      "inputs": [
        {
          "internalType": "enum ContractSpecificRoles",
          "name": "roleName",
          "type": "uint8"
        },
        {
          "internalType": "address",
          "name": "roleTargetContract",
          "type": "address"
        }
      ],
      "name": "generateRole",
      "outputs": [
        {
          "internalType": "bytes32",
          "name": "",
          "type": "bytes32"
        }
      ],
      "stateMutability": "pure",
      "type": "function"
    },
    {
      "inputs": [],
      "name": "getConfig",
      "outputs": [
        {
          "components": [
            {
              "internalType": "address",
              "name": "commander",
              "type": "address"
            },
            {
              "internalType": "address",
              "name": "raft",
              "type": "address"
            },
            {
              "internalType": "contract IERC20",
              "name": "token",
              "type": "address"
            },
            {
              "internalType": "uint256",
              "name": "depositCap",
              "type": "uint256"
            },
            {
              "internalType": "uint256",
              "name": "maxRebalanceOutflow",
              "type": "uint256"
            },
            {
              "internalType": "uint256",
              "name": "maxRebalanceInflow",
              "type": "uint256"
            },
            {
              "internalType": "string",
              "name": "name",
              "type": "string"
            },
            {
              "internalType": "bool",
              "name": "requiresKeeperData",
              "type": "bool"
            }
          ],
          "internalType": "struct ArkConfig",
          "name": "",
          "type": "tuple"
        }
      ],
      "stateMutability": "view",
      "type": "function"
    },
    {
      "inputs": [],
      "name": "getExchangeRate",
      "outputs": [
        {
          "internalType": "uint256",
          "name": "price",
          "type": "uint256"
        }
      ],
      "stateMutability": "view",
      "type": "function"
    },
    {
      "inputs": [],
      "name": "harborCommand",
      "outputs": [
        {
          "internalType": "address",
          "name": "",
          "type": "address"
        }
      ],
      "stateMutability": "view",
      "type": "function"
    },
    {
      "inputs": [
        {
          "internalType": "bytes",
          "name": "additionalData",
          "type": "bytes"
        }
      ],
      "name": "harvest",
      "outputs": [
        {
          "internalType": "address[]",
          "name": "rewardTokens",
          "type": "address[]"
        },
        {
          "internalType": "uint256[]",
          "name": "rewardAmounts",
          "type": "uint256[]"
        }
      ],
      "stateMutability": "nonpayable",
      "type": "function"
    },
    {
      "inputs": [],
      "name": "lowerEma",
      "outputs": [
        {
          "internalType": "uint256",
          "name": "",
          "type": "uint256"
        }
      ],
      "stateMutability": "view",
      "type": "function"
    },
    {
      "inputs": [],
      "name": "market",
      "outputs": [
        {
          "internalType": "address",
          "name": "",
          "type": "address"
        }
      ],
      "stateMutability": "view",
      "type": "function"
    },
    {
      "inputs": [],
      "name": "marketAsset",
      "outputs": [
        {
          "internalType": "address",
          "name": "",
          "type": "address"
        }
      ],
      "stateMutability": "view",
      "type": "function"
    },
    {
      "inputs": [],
      "name": "marketExpiry",
      "outputs": [
        {
          "internalType": "uint256",
          "name": "",
          "type": "uint256"
        }
      ],
      "stateMutability": "view",
      "type": "function"
    },
    {
      "inputs": [],
      "name": "maxRebalanceInflow",
      "outputs": [
        {
          "internalType": "uint256",
          "name": "",
          "type": "uint256"
        }
      ],
      "stateMutability": "view",
      "type": "function"
    },
    {
      "inputs": [],
      "name": "maxRebalanceOutflow",
      "outputs": [
        {
          "internalType": "uint256",
          "name": "",
          "type": "uint256"
        }
      ],
      "stateMutability": "view",
      "type": "function"
    },
    {
      "inputs": [
        {
          "internalType": "uint256",
          "name": "amount",
          "type": "uint256"
        },
        {
          "internalType": "address",
          "name": "receiverArk",
          "type": "address"
        },
        {
          "internalType": "bytes",
          "name": "boardData",
          "type": "bytes"
        },
        {
          "internalType": "bytes",
          "name": "disembarkData",
          "type": "bytes"
        }
      ],
      "name": "move",
      "outputs": [],
      "stateMutability": "nonpayable",
      "type": "function"
    },
    {
      "inputs": [],
      "name": "name",
      "outputs": [
        {
          "internalType": "string",
          "name": "",
          "type": "string"
        }
      ],
      "stateMutability": "view",
      "type": "function"
    },
    {
      "inputs": [],
      "name": "oracle",
      "outputs": [
        {
          "internalType": "address",
          "name": "",
          "type": "address"
        }
      ],
      "stateMutability": "view",
      "type": "function"
    },
    {
      "inputs": [],
      "name": "oracleDuration",
      "outputs": [
        {
          "internalType": "uint32",
          "name": "",
          "type": "uint32"
        }
      ],
      "stateMutability": "view",
      "type": "function"
    },
    {
      "inputs": [],
      "name": "raft",
      "outputs": [
        {
          "internalType": "address",
          "name": "",
          "type": "address"
        }
      ],
      "stateMutability": "view",
      "type": "function"
    },
    {
      "inputs": [],
      "name": "registerFleetCommander",
      "outputs": [],
      "stateMutability": "nonpayable",
      "type": "function"
    },
    {
      "inputs": [],
      "name": "requiresKeeperData",
      "outputs": [
        {
          "internalType": "bool",
          "name": "",
          "type": "bool"
        }
      ],
      "stateMutability": "view",
      "type": "function"
    },
    {
      "inputs": [
        {
          "internalType": "address",
          "name": "token",
          "type": "address"
        }
      ],
      "name": "rescueToken",
      "outputs": [],
      "stateMutability": "nonpayable",
      "type": "function"
    },
    {
      "inputs": [],
      "name": "router",
      "outputs": [
        {
          "internalType": "address",
          "name": "",
          "type": "address"
        }
      ],
      "stateMutability": "view",
      "type": "function"
    },
    {
      "inputs": [],
      "name": "routerParams",
      "outputs": [
        {
          "internalType": "uint256",
          "name": "guessMin",
          "type": "uint256"
        },
        {
          "internalType": "uint256",
          "name": "guessMax",
          "type": "uint256"
        },
        {
          "internalType": "uint256",
          "name": "guessOffchain",
          "type": "uint256"
        },
        {
          "internalType": "uint256",
          "name": "maxIteration",
          "type": "uint256"
        },
        {
          "internalType": "uint256",
          "name": "eps",
          "type": "uint256"
        }
      ],
      "stateMutability": "view",
      "type": "function"
    },
    {
      "inputs": [
        {
          "internalType": "uint256",
          "name": "newDepositCap",
          "type": "uint256"
        }
      ],
      "name": "setDepositCap",
      "outputs": [],
      "stateMutability": "nonpayable",
      "type": "function"
    },
    {
      "inputs": [
        {
          "internalType": "uint256",
          "name": "_lowerEma",
          "type": "uint256"
        }
      ],
      "name": "setLowerEma",
      "outputs": [],
      "stateMutability": "nonpayable",
      "type": "function"
    },
    {
      "inputs": [
        {
          "internalType": "uint256",
          "name": "newMaxRebalanceInflow",
          "type": "uint256"
        }
      ],
      "name": "setMaxRebalanceInflow",
      "outputs": [],
      "stateMutability": "nonpayable",
      "type": "function"
    },
    {
      "inputs": [
        {
          "internalType": "uint256",
          "name": "newMaxRebalanceOutflow",
          "type": "uint256"
        }
      ],
      "name": "setMaxRebalanceOutflow",
      "outputs": [],
      "stateMutability": "nonpayable",
      "type": "function"
    },
    {
      "inputs": [
        {
          "internalType": "uint256",
          "name": "_upperEma",
          "type": "uint256"
        }
      ],
      "name": "setUpperEma",
      "outputs": [],
      "stateMutability": "nonpayable",
      "type": "function"
    },
    {
      "inputs": [],
      "name": "slippagePercentage",
      "outputs": [
        {
          "internalType": "Percentage",
          "name": "",
          "type": "uint256"
        }
      ],
      "stateMutability": "view",
      "type": "function"
    },
    {
      "inputs": [
        {
          "internalType": "address[]",
          "name": "tokens",
          "type": "address[]"
        }
      ],
      "name": "sweep",
      "outputs": [
        {
          "internalType": "address[]",
          "name": "sweptTokens",
          "type": "address[]"
        },
        {
          "internalType": "uint256[]",
          "name": "sweptAmounts",
          "type": "uint256[]"
        }
      ],
      "stateMutability": "nonpayable",
      "type": "function"
    },
    {
      "inputs": [],
      "name": "tipJar",
      "outputs": [
        {
          "internalType": "address",
          "name": "",
          "type": "address"
        }
      ],
      "stateMutability": "view",
      "type": "function"
    },
    {
      "inputs": [],
      "name": "token",
      "outputs": [
        {
          "internalType": "contract IERC20",
          "name": "",
          "type": "address"
        }
      ],
      "stateMutability": "view",
      "type": "function"
    },
    {
      "inputs": [],
      "name": "totalAssets",
      "outputs": [
        {
          "internalType": "uint256",
          "name": "",
          "type": "uint256"
        }
      ],
      "stateMutability": "view",
      "type": "function"
    },
    {
      "inputs": [],
      "name": "treasury",
      "outputs": [
        {
          "internalType": "address",
          "name": "",
          "type": "address"
        }
      ],
      "stateMutability": "view",
      "type": "function"
    },
    {
      "inputs": [],
      "name": "unregisterFleetCommander",
      "outputs": [],
      "stateMutability": "nonpayable",
      "type": "function"
    },
    {
      "inputs": [],
      "name": "upperEma",
      "outputs": [
        {
          "internalType": "uint256",
          "name": "",
          "type": "uint256"
        }
      ],
      "stateMutability": "view",
      "type": "function"
    },
    {
      "inputs": [
        {
          "internalType": "bytes",
          "name": "params",
          "type": "bytes"
        }
      ],
      "name": "validateAndDecodeSwapForPtParams",
      "outputs": [
        {
          "internalType": "address",
          "name": "receiver",
          "type": "address"
        },
        {
          "internalType": "address",
          "name": "swapMarket",
          "type": "address"
        },
        {
          "internalType": "uint256",
          "name": "minPtOut",
          "type": "uint256"
        },
        {
          "components": [
            {
              "internalType": "uint256",
              "name": "guessMin",
              "type": "uint256"
            },
            {
              "internalType": "uint256",
              "name": "guessMax",
              "type": "uint256"
            },
            {
              "internalType": "uint256",
              "name": "guessOffchain",
              "type": "uint256"
            },
            {
              "internalType": "uint256",
              "name": "maxIteration",
              "type": "uint256"
            },
            {
              "internalType": "uint256",
              "name": "eps",
              "type": "uint256"
            }
          ],
          "internalType": "struct ApproxParams",
          "name": "guessPtOut",
          "type": "tuple"
        },
        {
          "components": [
            {
              "internalType": "address",
              "name": "tokenIn",
              "type": "address"
            },
            {
              "internalType": "uint256",
              "name": "netTokenIn",
              "type": "uint256"
            },
            {
              "internalType": "address",
              "name": "tokenMintSy",
              "type": "address"
            },
            {
              "internalType": "address",
              "name": "pendleSwap",
              "type": "address"
            },
            {
              "components": [
                {
                  "internalType": "enum SwapType",
                  "name": "swapType",
                  "type": "uint8"
                },
                {
                  "internalType": "address",
                  "name": "extRouter",
                  "type": "address"
                },
                {
                  "internalType": "bytes",
                  "name": "extCalldata",
                  "type": "bytes"
                },
                {
                  "internalType": "bool",
                  "name": "needScale",
                  "type": "bool"
                }
              ],
              "internalType": "struct SwapData",
              "name": "swapData",
              "type": "tuple"
            }
          ],
          "internalType": "struct TokenInput",
          "name": "input",
          "type": "tuple"
        },
        {
          "components": [
            {
              "internalType": "address",
              "name": "limitRouter",
              "type": "address"
            },
            {
              "internalType": "uint256",
              "name": "epsSkipMarket",
              "type": "uint256"
            },
            {
              "components": [
                {
                  "components": [
                    {
                      "internalType": "uint256",
                      "name": "salt",
                      "type": "uint256"
                    },
                    {
                      "internalType": "uint256",
                      "name": "expiry",
                      "type": "uint256"
                    },
                    {
                      "internalType": "uint256",
                      "name": "nonce",
                      "type": "uint256"
                    },
                    {
                      "internalType": "enum IPLimitOrderType.OrderType",
                      "name": "orderType",
                      "type": "uint8"
                    },
                    {
                      "internalType": "address",
                      "name": "token",
                      "type": "address"
                    },
                    {
                      "internalType": "address",
                      "name": "YT",
                      "type": "address"
                    },
                    {
                      "internalType": "address",
                      "name": "maker",
                      "type": "address"
                    },
                    {
                      "internalType": "address",
                      "name": "receiver",
                      "type": "address"
                    },
                    {
                      "internalType": "uint256",
                      "name": "makingAmount",
                      "type": "uint256"
                    },
                    {
                      "internalType": "uint256",
                      "name": "lnImpliedRate",
                      "type": "uint256"
                    },
                    {
                      "internalType": "uint256",
                      "name": "failSafeRate",
                      "type": "uint256"
                    },
                    {
                      "internalType": "bytes",
                      "name": "permit",
                      "type": "bytes"
                    }
                  ],
                  "internalType": "struct Order",
                  "name": "order",
                  "type": "tuple"
                },
                {
                  "internalType": "bytes",
                  "name": "signature",
                  "type": "bytes"
                },
                {
                  "internalType": "uint256",
                  "name": "makingAmount",
                  "type": "uint256"
                }
              ],
              "internalType": "struct FillOrderParams[]",
              "name": "normalFills",
              "type": "tuple[]"
            },
            {
              "components": [
                {
                  "components": [
                    {
                      "internalType": "uint256",
                      "name": "salt",
                      "type": "uint256"
                    },
                    {
                      "internalType": "uint256",
                      "name": "expiry",
                      "type": "uint256"
                    },
                    {
                      "internalType": "uint256",
                      "name": "nonce",
                      "type": "uint256"
                    },
                    {
                      "internalType": "enum IPLimitOrderType.OrderType",
                      "name": "orderType",
                      "type": "uint8"
                    },
                    {
                      "internalType": "address",
                      "name": "token",
                      "type": "address"
                    },
                    {
                      "internalType": "address",
                      "name": "YT",
                      "type": "address"
                    },
                    {
                      "internalType": "address",
                      "name": "maker",
                      "type": "address"
                    },
                    {
                      "internalType": "address",
                      "name": "receiver",
                      "type": "address"
                    },
                    {
                      "internalType": "uint256",
                      "name": "makingAmount",
                      "type": "uint256"
                    },
                    {
                      "internalType": "uint256",
                      "name": "lnImpliedRate",
                      "type": "uint256"
                    },
                    {
                      "internalType": "uint256",
                      "name": "failSafeRate",
                      "type": "uint256"
                    },
                    {
                      "internalType": "bytes",
                      "name": "permit",
                      "type": "bytes"
                    }
                  ],
                  "internalType": "struct Order",
                  "name": "order",
                  "type": "tuple"
                },
                {
                  "internalType": "bytes",
                  "name": "signature",
                  "type": "bytes"
                },
                {
                  "internalType": "uint256",
                  "name": "makingAmount",
                  "type": "uint256"
                }
              ],
              "internalType": "struct FillOrderParams[]",
              "name": "flashFills",
              "type": "tuple[]"
            },
            {
              "internalType": "bytes",
              "name": "optData",
              "type": "bytes"
            }
          ],
          "internalType": "struct LimitOrderData",
          "name": "limit",
          "type": "tuple"
        }
      ],
      "stateMutability": "pure",
      "type": "function"
    },
    {
      "inputs": [
        {
          "internalType": "bytes",
          "name": "params",
          "type": "bytes"
        }
      ],
      "name": "validateAndDecodeSwapPtForTokenParams",
      "outputs": [
        {
          "internalType": "address",
          "name": "receiver",
          "type": "address"
        },
        {
          "internalType": "address",
          "name": "swapMarket",
          "type": "address"
        },
        {
          "internalType": "uint256",
          "name": "exactPtIn",
          "type": "uint256"
        },
        {
          "components": [
            {
              "internalType": "address",
              "name": "tokenOut",
              "type": "address"
            },
            {
              "internalType": "uint256",
              "name": "minTokenOut",
              "type": "uint256"
            },
            {
              "internalType": "address",
              "name": "tokenRedeemSy",
              "type": "address"
            },
            {
              "internalType": "address",
              "name": "pendleSwap",
              "type": "address"
            },
            {
              "components": [
                {
                  "internalType": "enum SwapType",
                  "name": "swapType",
                  "type": "uint8"
                },
                {
                  "internalType": "address",
                  "name": "extRouter",
                  "type": "address"
                },
                {
                  "internalType": "bytes",
                  "name": "extCalldata",
                  "type": "bytes"
                },
                {
                  "internalType": "bool",
                  "name": "needScale",
                  "type": "bool"
                }
              ],
              "internalType": "struct SwapData",
              "name": "swapData",
              "type": "tuple"
            }
          ],
          "internalType": "struct TokenOutput",
          "name": "output",
          "type": "tuple"
        },
        {
          "components": [
            {
              "internalType": "address",
              "name": "limitRouter",
              "type": "address"
            },
            {
              "internalType": "uint256",
              "name": "epsSkipMarket",
              "type": "uint256"
            },
            {
              "components": [
                {
                  "components": [
                    {
                      "internalType": "uint256",
                      "name": "salt",
                      "type": "uint256"
                    },
                    {
                      "internalType": "uint256",
                      "name": "expiry",
                      "type": "uint256"
                    },
                    {
                      "internalType": "uint256",
                      "name": "nonce",
                      "type": "uint256"
                    },
                    {
                      "internalType": "enum IPLimitOrderType.OrderType",
                      "name": "orderType",
                      "type": "uint8"
                    },
                    {
                      "internalType": "address",
                      "name": "token",
                      "type": "address"
                    },
                    {
                      "internalType": "address",
                      "name": "YT",
                      "type": "address"
                    },
                    {
                      "internalType": "address",
                      "name": "maker",
                      "type": "address"
                    },
                    {
                      "internalType": "address",
                      "name": "receiver",
                      "type": "address"
                    },
                    {
                      "internalType": "uint256",
                      "name": "makingAmount",
                      "type": "uint256"
                    },
                    {
                      "internalType": "uint256",
                      "name": "lnImpliedRate",
                      "type": "uint256"
                    },
                    {
                      "internalType": "uint256",
                      "name": "failSafeRate",
                      "type": "uint256"
                    },
                    {
                      "internalType": "bytes",
                      "name": "permit",
                      "type": "bytes"
                    }
                  ],
                  "internalType": "struct Order",
                  "name": "order",
                  "type": "tuple"
                },
                {
                  "internalType": "bytes",
                  "name": "signature",
                  "type": "bytes"
                },
                {
                  "internalType": "uint256",
                  "name": "makingAmount",
                  "type": "uint256"
                }
              ],
              "internalType": "struct FillOrderParams[]",
              "name": "normalFills",
              "type": "tuple[]"
            },
            {
              "components": [
                {
                  "components": [
                    {
                      "internalType": "uint256",
                      "name": "salt",
                      "type": "uint256"
                    },
                    {
                      "internalType": "uint256",
                      "name": "expiry",
                      "type": "uint256"
                    },
                    {
                      "internalType": "uint256",
                      "name": "nonce",
                      "type": "uint256"
                    },
                    {
                      "internalType": "enum IPLimitOrderType.OrderType",
                      "name": "orderType",
                      "type": "uint8"
                    },
                    {
                      "internalType": "address",
                      "name": "token",
                      "type": "address"
                    },
                    {
                      "internalType": "address",
                      "name": "YT",
                      "type": "address"
                    },
                    {
                      "internalType": "address",
                      "name": "maker",
                      "type": "address"
                    },
                    {
                      "internalType": "address",
                      "name": "receiver",
                      "type": "address"
                    },
                    {
                      "internalType": "uint256",
                      "name": "makingAmount",
                      "type": "uint256"
                    },
                    {
                      "internalType": "uint256",
                      "name": "lnImpliedRate",
                      "type": "uint256"
                    },
                    {
                      "internalType": "uint256",
                      "name": "failSafeRate",
                      "type": "uint256"
                    },
                    {
                      "internalType": "bytes",
                      "name": "permit",
                      "type": "bytes"
                    }
                  ],
                  "internalType": "struct Order",
                  "name": "order",
                  "type": "tuple"
                },
                {
                  "internalType": "bytes",
                  "name": "signature",
                  "type": "bytes"
                },
                {
                  "internalType": "uint256",
                  "name": "makingAmount",
                  "type": "uint256"
                }
              ],
              "internalType": "struct FillOrderParams[]",
              "name": "flashFills",
              "type": "tuple[]"
            },
            {
              "internalType": "bytes",
              "name": "optData",
              "type": "bytes"
            }
          ],
          "internalType": "struct LimitOrderData",
          "name": "limit",
          "type": "tuple"
        }
      ],
      "stateMutability": "pure",
      "type": "function"
    }
  ],
  "bytecode": "0x60c0806040523461056a576142a9803803809161001c8285610755565b833981018181039060c0821261056a5782516001600160401b03811161056a578301926101008483031261056a576040519161005783610739565b84516001600160401b03811161056a57850181601f8201121561056a578051906001600160401b03821161067b576040519261009d601f8401601f191660200185610755565b8284526020838301011161056a57815f9260208093018386015e8301015282526100c960208501610778565b90602083019182526100dd60408601610778565b93604084019485526100f160608701610778565b93606081019485526080870151906080810191825260a08801519760a0820198895261012b60e060c08301519260c085019384520161078c565b60e08301908152986060601f1986011261056a5760405197606089016001600160401b0381118a82101761067b5760405261016860208801610778565b895261017660408801610778565b9960208a019a8b52604061018c60608a01610778565b8b820190815297607f19011261056a5760408051989089016001600160401b0381118a82101761067b576101d49160a0916040526101cc60808201610778565b8b5201610778565b602089019081528151995190996001600160a01b0390811691168015610726576040516301ffc9a760e01b815263a237592160e01b6004820152602081602481855afa908115610576575f916106ec575b50156106da575f80546001600160a01b03191691909117905580156106cb57608052516001600160a01b0316156106bc5780516001600160a01b0316156106ad578351511561069e576001600160a01b0361027e610805565b161561068f57516001600160a01b0316610296610805565b94519151925193519a5115159460e0604051916102b283610739565b5f83526001600160a01b03166020830181905260408301849052606083018590526080830186905260a0830187905260c083018e90529101958652600180546001600160a01b031990811690915560028054821690921790915560038054909116909117905560045560055560065586516001600160401b03811161067b57600754600181811c91168015610671575b602082101461065d57601f81116105fa575b506020601f821160011461058c57908060609897969594939260049a5f92610581575b50508160011b915f199060031b1c1916176007555b516008805460ff191691151560ff16919091179055670ddeeff45500c000601f55670de43b19fdb7e00060205551600c805495516001600160a01b0390811660a0529451600b805460e160a31b9488166001600160c01b031990991698909817939093179091556706f05b59d3b200006010559151600980549186166001600160a01b03199283161790559251600a80549186169185169190911790555f1960135561010060155566038d7ea4c680006016559216921682179055604051630b2339af60e21b815292839182905afa908115610576575f915f915f91610500575b50600f80546001600160a01b03199081166001600160a01b0393841617909155600e8054821693831693909317909255600d805490921692169190911790556104b4610799565b6104bc610799565b604051613a369081610873823960805181818161081301528181610fcf015281816116a3015281816117130152612dca015260a051818181610f7b01526126a80152f35b925050506060813d60601161056e575b8161051d60609383610755565b8101031261056a5780516001600160a01b038116810361056a576020820151916001600160a01b038316830361056a5760400151906001600160a01b038216820361056a5791905f61046d565b5f80fd5b3d9150610510565b6040513d5f823e3d90fd5b015190505f80610377565b601f1982169860075f52815f20995f5b8181106105e2575099600192849260609b9a999897969560049d106105ca575b505050811b0160075561038c565b01515f1960f88460031b161c191690555f80806105bc565b838301518c556001909b019a6020938401930161059c565b60075f527fa66cc928b5edb82af9bd49922954155ab7b0942694bea4ce44661d9a8736c688601f830160051c81019160208410610653575b601f0160051c01905b8181106106485750610354565b5f815560010161063b565b9091508190610632565b634e487b7160e01b5f52602260045260245ffd5b90607f1690610342565b634e487b7160e01b5f52604160045260245ffd5b633a4f9cdb60e21b5f5260045ffd5b63268c072960e01b5f5260045ffd5b637ff57ef160e11b5f5260045ffd5b63b53c493160e01b5f5260045ffd5b63f1634df960e01b5f5260045ffd5b6347bd7c1d60e01b5f5260045260245ffd5b90506020813d60201161071e575b8161070760209383610755565b8101031261056a576107189061078c565b5f610225565b3d91506106fa565b6347bd7c1d60e01b5f525f60045260245ffd5b61010081019081106001600160401b0382111761067b57604052565b601f909101601f19168101906001600160401b0382119082101761067b57604052565b51906001600160a01b038216820361056a57565b5190811515820361056a57565b600b546040516370c264df60e11b815290602090829060049082906001600160a01b03165afa908115610576575f916107d3575b50601155565b90506020813d6020116107fd575b816107ee60209383610755565b8101031261056a57515f6107cd565b3d91506107e1565b608051604051628bec5760e51b815290602090829060049082906001600160a01b03165afa908115610576575f9161083b575090565b90506020813d60201161086a575b8161085660209383610755565b8101031261056a5761086790610778565b90565b3d915061084956fe6080806040526004361015610012575f80fd5b5f905f3560e01c90816301e1d1141461265e5750806306fdde0314612620578063117d8ae0146125f457806313c408f81461238b5780631deae8c61461236f578063256d8a23146123305780632db6d39914611e9b5780632f6107a414611d87578063303dbaf314611d655780633194549e14611d48578063326c488e14611bd85780633727093614611bb05780634452d81c14611b935780634460d3cf146119be57806345a042571461189757806351437a241461187b578063552d2e591461175e5780635b0f83f3146116ee57806361d027b31461167e57806361f5cd8b1461162c57806369b3054b146115ca578063780469bb1461112a578063781c18db1461110257806379502c551461106f5780637a04d4da146110555780637aaceb9514610faa5780637dc0d1d014610f6657806380f5560514610f3e57806383ce329014610f215780638665120314610ecf5780638a8b997614610e725780638f1d3f0014610e5557806392f5e83214610e03578063930ec27714610de0578063ad5a356f14610dc3578063afd27bf514610d9b578063c38a6f0b1461099f578063c38cff9a14610983578063c3f909d414610842578063c9c667e3146107fd578063ce5c7f6114610512578063cefba474146104eb578063d8fca1ac146104c2578063d94073d414610499578063dbd5edc71461047b578063e6aa216c14610458578063ea1af6e01461042f578063ebf31131146103bf578063f66a7749146102a3578063f887ea401461027a5763fc0c546a1461024f575f80fd5b346102775780600319360112610277576003546040516001600160a01b039091168152602090f35b80fd5b5034610277578060031936011261027757600c546040516001600160a01b039091168152602090f35b5034610277578060031936011261027757601c549060ff821690604051908181601d54926102d084612ccb565b808452936001811690811561039d575060011461033e575b506102f592500382612c18565b61033260ff601e541691604051948461030e879661285c565b855260081c6001600160a01b031660208501526080604085018190528401906127d8565b90151560608301520390f35b601d8152919290507f6d4407e7be21f808e6509aa9fa9143369579dd7d760fe20a2c09680fc146134f5b8183106103815750509060206102f5928201015f6102e8565b6020919350806001915483858801015201910190918392610368565b9050602092506102f594915060ff191682840152151560051b8201015f6102e8565b50346102775780600319360112610277576103d861334f565b1561041c576001600160601b0360a01b600154166001557f7cb941d7b1708e5b3bcd35ca960d6c6311188cec18886e5b67630552676b04876020604051338152a180f35b631564c0e160e11b815233600452602490fd5b5034610277578060031936011261027757600a546040516001600160a01b039091168152602090f35b503461027757806003193601126102775760206104736132e3565b604051908152f35b50346102775780600319360112610277576020600454604051908152f35b5034610277578060031936011261027757600e546040516001600160a01b039091168152602090f35b50346102775780600319360112610277576009546040516001600160a01b039091168152602090f35b5034610277578060031936011261027757602063ffffffff600c5460a01c16604051908152f35b5034610277576020366003190112610277576004356001600160401b0381116107f1576105439036906004016127fc565b5050604051628bec5760e51b8152602081600481305afa9081156107065782916107bf575b506001600160a01b031633036107ac57600b5460405163c4f59f9b60e01b815291906001600160a01b03168183600481845afa928315610706578293610711575b5091818093602460405180968193639262187b60e01b83523060048401525af1928315610706578293610668575b50815b815181101561061c576001906106166001600160a01b036105fb838661323e565b5116610605612db6565b61060f848961323e565b5191613455565b016105da565b507f3e3e7958121b3e39c7a49392d1aa9cdce870c2a059744f9e15cf66fff7865455926106649161064c81613266565b610655836132a9565b9060405196868897a383612c50565b0390f35b9092503d8083833e61067a8183612c18565b8101906020818303126106fe578051906001600160401b03821161070257019080601f830112156106fe5781516106b081612c39565b926106be6040519485612c18565b81845260208085019260051b8201019283116106fa57602001905b8282106106ea57505050915f6105d7565b81518152602091820191016106d9565b8480fd5b8280fd5b8380fd5b6040513d84823e3d90fd5b92503d8083853e6107228185612c18565b8301926020818503126106fe578051906001600160401b038211610702570183601f820112156106fe5780519361075885612c39565b916107666040519384612c18565b85835260208084019660051b8201019182116106fa57602001945b81861061079457509093508290506105a9565b602080916107a188612da2565b815201950194610781565b631184b31b60e21b815233600452602490fd5b90506020813d6020116107f5575b816107da60209383612c18565b810103126107f1576107eb90612da2565b5f610568565b5080fd5b3d91506107cd565b50346102775780600319360112610277576040517f00000000000000000000000000000000000000000000000000000000000000006001600160a01b03168152602090f35b503461027757806003193601126102775760e060405161086181612bc5565b8281528260208201528260408201528260608201528260808201528260a0820152606060c0820152015260405161089781612bc5565b6001546001600160a01b0390811682526002548116602083019081526003549091166040808401918252600454606085019081526005546080860190815260065460a087019081529251949594610975939092909190610901846108fa81612d03565b0385612c18565b60c0870193845260ff600854169560e08801961515875260405198899860208a5260018060a01b0390511660208a015260018060a01b03905116604089015260018060a01b0390511660608801525160808701525160a08601525160c08501525161010060e08501526101208401906127d8565b905115156101008301520390f35b5034610277578060031936011261027757602060405160018152f35b5034610c2b576080366003190112610c2b576004356109bc612b0c565b906044356001600160401b038111610c2b576109dc9036906004016127fc565b90926064356001600160401b038111610c2b576109fd9036906004016127fc565b90610a0661334f565b15610d885781610a19610a299383613404565b610a21613493565b8101906135cb565b601154421015610d79575f610a5b91516040518093819263552d2e5960e01b83526020600484015260248301906127d8565b0381305afa8015610c20575f905f905f915f945f92610cf1575b50306001600160a01b03851603610ce257600b546001600160a01b03908116908216819003610cd357600c5460405163095ea7b360e01b81526001600160a01b039091166004820152602481018a905290602090829060449082905f905af18015610c2057610c95575b505f606094610b1060018060a01b03600c54169460405198899788968795631652a23360e21b875260048701612b36565b03925af18015610c2057610c66575b5060035460405163095ea7b360e01b81526001600160a01b038381166004830152602482018690529091602091839160449183915f91165af18015610c2057610c2f575b506001600160a01b031692833b15610c2b578160645f926040519485938492632db6d39960e01b845288600485015260406024850152816044850152848401378181018301859052601f01601f1916810103018183875af18015610c2057610c0b575b50600354604080516001600160a01b039092168252602082019290925230917f9f784fc02a186f1c98b2d9f15fda084da27cdd291a3785d978f91911d880516b91a380f35b610c189193505f90612c18565b5f915f610bc6565b6040513d5f823e3d90fd5b5f80fd5b6020813d602011610c5e575b81610c4860209383612c18565b81010312610c2b57610c5990612e39565b610b63565b3d9150610c3b565b610c879060603d606011610c8e575b610c7f8183612c18565b81019061398d565b5050610b1f565b503d610c75565b6020813d602011610ccb575b81610cae60209383612c18565b81010312610c2b57606094610cc35f92612e39565b509450610adf565b3d9150610ca1565b639db8d5b160e01b5f5260045ffd5b631e4ec46b60e01b5f5260045ffd5b9450505050503d805f833e610d068183612c18565b81019060a081830312610c2b57610d1c81612da2565b91610d2960208301612da2565b9160408101519060608101516001600160401b038111610c2b5783610d4f918301613673565b9260808201516001600160401b038111610c2b57610d6d92016138f4565b9392909193905f610a75565b63b2094b5960e01b5f5260045ffd5b631564c0e160e11b5f523360045260245ffd5b34610c2b575f366003190112610c2b57600d546040516001600160a01b039091168152602090f35b34610c2b575f366003190112610c2b576020600654604051908152f35b34610c2b575f366003190112610c2b57602060405168056bc75e2d631000008152f35b34610c2b576020366003190112610c2b57600435610e1f61334f565b15610d88576020817fb6ac66853c4e59c71e118d25ab494bb847c4e5eb0c8894898c5343e6f61afc1292600655604051908152a1005b34610c2b575f366003190112610c2b576020601154604051908152f35b34610c2b575f366003190112610c2b57610e8a61334f565b15610d8857336001600160601b0360a01b60015416176001557f55489ce0259bd691120d8860861be1c401c7c16a3cd268d21045756af4ecc5ca6020604051338152a1005b34610c2b576020366003190112610c2b57600435610eeb61334f565b15610d88576020817f333b26cca69716ad4680ddb07663f5bfb4f06045671f336af9a83690a3ae00f992600455604051908152a1005b34610c2b575f366003190112610c2b576020601f54604051908152f35b34610c2b575f366003190112610c2b57600b546040516001600160a01b039091168152602090f35b34610c2b575f366003190112610c2b576040517f00000000000000000000000000000000000000000000000000000000000000006001600160a01b03168152602090f35b34610c2b575f366003190112610c2b57604051637aaceb9560e01b81526020816004817f00000000000000000000000000000000000000000000000000000000000000006001600160a01b03165afa8015610c20575f9061101b575b6040516001600160a01b039091168152602090f35b506020813d60201161104d575b8161103560209383612c18565b81010312610c2b57611048602091612da2565b611006565b3d9150611028565b34610c2b575f366003190112610c2b5760206040515f8152f35b34610c2b575f366003190112610c2b576001546002546003546004546005546006546040516001600160a01b0395861696861695909416936110f6939092906110bb846108fa81612d03565b60ff60085416956040519889988952602089015260408801526060870152608086015260a085015261010060c08501526101008401906127d8565b90151560e08301520390f35b34610c2b575f366003190112610c2b57600f546040516001600160a01b039091168152602090f35b34610c2b576020366003190112610c2b576004356001600160401b038111610c2b5736602382011215610c2b5780600401359061116682612c39565b916111746040519384612c18565b8083526024602084019160051b83010191368311610c2b57602401905b8282106115b257604051628bec5760e51b81528490602081600481305afa908115610c20575f91611578575b506001600160a01b03163303611565578051906111d982612c39565b916111e76040519384612c18565b8083526111f6601f1991612c39565b0136602084013780519161120983612c39565b926112176040519485612c18565b808452611226601f1991612c39565b013660208501376003546040516370a0823160e01b81523060048201526001600160a01b0390911690602081602481855afa908115610c20575f91611533575b50611411575b505f5b82518110156113c85760249060206001600160a01b0361128f838761323e565b5116604051938480926370a0823160e01b82523060048301525afa918215610c20575f92611395575b50816112c9575b600191500161126f565b6001600160a01b036112db828661323e565b51169160246112e8612db6565b9360206001600160a01b036112fd868a61323e565b5116604051938480926370a0823160e01b82523060048301525afa918215610c20575f92611361575b509060019461133492613455565b828060a01b03611344838761323e565b5116611350838661323e565b5261135b828761323e565b526112bf565b91506020823d821161138d575b8161137b60209383612c18565b81010312610c2b579051906001611326565b3d915061136e565b9091506020813d82116113c0575b816113b060209383612c18565b81010312610c2b575190856112b8565b3d91506113a3565b50826106646113d683613266565b916113e0816132a9565b936040519485947f46b8771620f6acf56cb03d3e835ea8024c7dcbcf05fcc3f6ade9e19d1a3e212b5f80a383612c50565b6001546040516330fe427560e21b815290608090829060049082906001600160a01b03165afa908115610c20575f916114c2575b50516040516370a0823160e01b815230600482015291906001600160a01b0316602083602481855afa918215610c20575f9261148c575b6114869350613455565b8361126c565b91506020833d6020116114ba575b816114a760209383612c18565b81010312610c2b5761148692519161147c565b3d915061149a565b90506080813d60801161152b575b816114dd60809383612c18565b81010312610c2b57604051906114f282612baa565b8051906001600160a01b0382168203610c2b57606091835260208101516020840152604081015160408401520151606082015285611445565b3d91506114d0565b90506020813d60201161155d575b8161154e60209383612c18565b81010312610c2b575185611266565b3d9150611541565b631184b31b60e21b5f523360045260245ffd5b90506020813d6020116115aa575b8161159360209383612c18565b81010312610c2b576115a490612da2565b826111bd565b3d9150611586565b602080916115bf84612b22565b815201910190611191565b34610c2b576040366003190112610c2b576004356003811015610c2b576020906115f2612b0c565b604051908382019260f81b83526001600160601b03199060601b16602182015260158152611621603582612c18565b519020604051908152f35b34610c2b576020366003190112610c2b5760043561164861334f565b15610d88576020817ffbe2d5c01ea8ba5596d6c4e6c82c6d4a0a0ee1128689993a4a5ba0169273d69f92600555604051908152a1005b34610c2b575f366003190112610c2b576040516361d027b360e01b81526020816004817f00000000000000000000000000000000000000000000000000000000000000006001600160a01b03165afa8015610c20575f9061101b576040516001600160a01b039091168152602090f35b34610c2b575f366003190112610c2b57604051635b0f83f360e01b81526020816004817f00000000000000000000000000000000000000000000000000000000000000006001600160a01b03165afa8015610c20575f9061101b576040516001600160a01b039091168152602090f35b34610c2b576020366003190112610c2b576004356001600160401b038111610c2b5761178e9036906004016127fc565b611796612e46565b5061179f612e92565b506004811061186c5780600411610c2b5781356001600160e01b031916631652a23360e21b0361185d5781019060a08183036003190112610c2b576117e660048201612b22565b916117f360248301612b22565b9260648301356001600160401b038111610c2b5782600461181692860101612f1d565b6084840135946001600160401b038611610c2b5761183e6106649460046044988801016131a0565b6040519687969194910135916001600160a01b03908116911686612b36565b6342868c9b60e01b5f5260045ffd5b633e5431b160e21b5f5260045ffd5b34610c2b575f366003190112610c2b5760208054604051908152f35b34610c2b576020366003190112610c2b575f54604051630ccc574960e41b815260048035926001600160a01b03169190602090829081855afa908115610c20575f9161198a575b50604051632474521560e21b815260048101919091523360248201529060209082908180604481015b03915afa908115610c20575f91611950575b501561193d5760205481101561192e57601f55005b630f8943a560e11b5f5260045ffd5b630ea7d7ed60e21b5f523360045260245ffd5b90506020813d602011611982575b8161196b60209383612c18565b81010312610c2b5761197c90612e39565b82611919565b3d915061195e565b90506020813d6020116119b6575b816119a560209383612c18565b81010312610c2b57516119076118de565b3d9150611998565b34610c2b576020366003190112610c2b576004356001600160a01b03811690819003610c2b575f54604051630ccc574960e41b81526001600160a01b0390911690602081600481855afa908115610c20575f91611b5f575b50604051632474521560e21b815260048101919091523360248201529060209082908180604481015b03915afa908115610c20575f91611b25575b501561193d576040516370a0823160e01b815230600482015290602082602481845afa918215610c20575f92611aef575b5060405163a9059cbb60e01b815233600482015260248101929092526020908290815f81604481015b03925af18015610c2057611abb57005b6020813d602011611ae7575b81611ad460209383612c18565b81010312610c2b57611ae590612e39565b005b3d9150611ac7565b91506020823d602011611b1d575b81611b0a60209383612c18565b81010312610c2b57905190611aab611a82565b3d9150611afd565b90506020813d602011611b57575b81611b4060209383612c18565b81010312610c2b57611b5190612e39565b82611a51565b3d9150611b33565b90506020813d602011611b8b575b81611b7a60209383612c18565b81010312610c2b5751611a3f611a16565b3d9150611b6d565b34610c2b575f366003190112610c2b576020601054604051908152f35b34610c2b575f366003190112610c2b576001546040516001600160a01b039091168152602090f35b34610c2b576020366003190112610c2b576004356001600160401b038111610c2b57611c089036906004016127fc565b5f6080604051611c1781612b7b565b8281528260208201528260408201528260608201520152611c36612e46565b50611c3f612e92565b506004811061186c5780600411610c2b5781356001600160e01b03191663640fc23d60e11b0361185d5781018181039190610140600319840112610c2b57611c8960048301612b22565b60a0611c9760248501612b22565b946063190112610c2b57604051611cad81612b7b565b606484013581526084840135602082015260a4840135604082015260c4840135606082015260e484013560808201526101048401356001600160401b038111610c2b57836004611cff92870101612f1d565b90610124850135956001600160401b038711610c2b57611d296106649560046044998901016131a0565b6040519788979195910135916001600160a01b03908116911687612a93565b34610c2b575f366003190112610c2b576020600554604051908152f35b34610c2b575f366003190112610c2b57602060ff600854166040519015158152f35b34610c2b576020366003190112610c2b575f54604051630ccc574960e41b815260048035926001600160a01b03169190602090829081855afa908115610c20575f91611e67575b50604051632474521560e21b815260048101919091523360248201529060209082908180604481015b03915afa908115610c20575f91611e2d575b501561193d57601f54811115611e1e57602055005b6311a96e5960e21b5f5260045ffd5b90506020813d602011611e5f575b81611e4860209383612c18565b81010312610c2b57611e5990612e39565b82611e09565b3d9150611e3b565b90506020813d602011611e93575b81611e8260209383612c18565b81010312610c2b5751611df7611dce565b3d9150611e75565b34610c2b57611ea936612829565b604051631b93849b60e11b8152602081600481305afa908115610c20575f916122f6575b50611ed661334f565b156121f9575b50611ee78183613404565b6003546040516323b872dd60e01b602082015233602482015230604482015260648082018690528152611f2d916001600160a01b0316611f28608483612c18565b6139a8565b611f35613493565b60115491621a5e0042018042116121e5578311156121d657611f59918101906135cb565b90421015610d79575f611f89915160405180938192631936244760e11b83526020600484015260248301906127d8565b0381305afa908115610c20575f905f905f915f945f925f91612102575b50306001600160a01b03861603610ce257600b546001600160a01b0390811690831603610cd357600354600c5460405163095ea7b360e01b81526001600160a01b039182166004820152602481018a905291602091839160449183915f91165af18015610c20576120be575b506060946120445f9260018060a01b03600c541695604051998a988997889663640fc23d60e11b885260048801612a93565b03925af18015610c205761209f575b50600354604080516001600160a01b039092168252602082019290925233917fcbaa1442ac205415c9d69643e7b60ec73d1de35dbc807c21ec288c70ddc4207b9190819081015b0390a2005b6120b79060603d606011610c8e57610c7f8183612c18565b5050612053565b946020863d6020116120fa575b816120d860209383612c18565b81010312610c2b576120445f926120f0606098612e39565b5092505094612012565b3d91506120cb565b955050505050503d805f833e6121188183612c18565b810190808203906101408212610c2b5761213181612da2565b61213d60208301612da2565b9260a0604084015191605f190112610c2b576040519261215c84612b7b565b606081015184526080810151602085015260a0810151604085015260c0810151606085015260e081015160808501526101008101516001600160401b038111610c2b57866121ab918301613673565b956101208201516001600160401b038111610c2b576121ca92016138f4565b91939092949187611fa6565b63eb86c49b60e01b5f5260045ffd5b634e487b7160e01b5f52601160045260245ffd5b604051628bec5760e51b8152602081600481305afa908115610c20575f916122bc575b506001600160a01b03163314611edc5760405163d25dd10160e01b815233600482015290602090829060249082906001600160a01b03165afa908115610c20575f91612282575b501561226f5783611edc565b638f7a567d60e01b5f523360045260245ffd5b90506020813d6020116122b4575b8161229d60209383612c18565b81010312610c2b576122ae90612e39565b84612263565b3d9150612290565b90506020813d6020116122ee575b816122d760209383612c18565b81010312610c2b576122e890612da2565b8561221c565b3d91506122ca565b90506020813d602011612328575b8161231160209383612c18565b81010312610c2b5761232290612da2565b84611ecd565b3d9150612304565b34610c2b575f366003190112610c2b5760a060125460135460145460155490601654926040519485526020850152604084015260608301526080820152f35b34610c2b575f366003190112610c2b5760206040516103848152f35b34610c2b5761239936612829565b906123a261334f565b15610d885781610a196123b59383613404565b601154421015610d79575f6123e791516040518093819263552d2e5960e01b83526020600484015260248301906127d8565b0381305afa8015610c20575f905f905f915f945f9261256c575b50306001600160a01b03851603610ce257600b546001600160a01b03908116908216819003610cd357600c5460405163095ea7b360e01b81526001600160a01b0390911660048201526024810188905290602090829060449082905f905af18015610c205761252e575b505f60609461249c60018060a01b03600c54169460405198899788968795631652a23360e21b875260048701612b36565b03925af18015610c205761250f575b506003546124c590829033906001600160a01b0316613455565b600354604080516001600160a01b039092168252602082019290925233917fd5e872c5ecfb1bb8820b2e6a20e31b883682282da886621541f71e31ec11947e91908190810161209a565b6125279060603d606011610c8e57610c7f8183612c18565b50506124ab565b6020813d602011612564575b8161254760209383612c18565b81010312610c2b5760609461255c5f92612e39565b50945061246b565b3d915061253a565b9450505050503d805f833e6125818183612c18565b81019060a081830312610c2b5761259781612da2565b916125a460208301612da2565b9160408101519060608101516001600160401b038111610c2b57836125ca918301613673565b9260808201516001600160401b038111610c2b576125e892016138f4565b93929091939086612401565b34610c2b575f366003190112610c2b57602061260e612db6565b6040516001600160a01b039091168152f35b34610c2b575f366003190112610c2b5761066460405161264a8161264381612d03565b0382612c18565b6040519182916020835260208301906127d8565b34610c2b575f366003190112610c2b57600b54600c5463abca0eab60e01b83526001600160a01b03918216600484015260a01c63ffffffff166024830152602090829060449082907f0000000000000000000000000000000000000000000000000000000000000000165afa908115610c20575f916127a6575b50600e546040516370a0823160e01b815230600482015290602090829060249082906001600160a01b03165afa908115610c20575f91612774575b508181029181830414901517156121e557670de0b6b3a764000090046127376132e3565b620f4240820291808304620f424014901517156121e55780156127605760209104604051908152f35b634e487b7160e01b5f52601260045260245ffd5b90506020813d60201161279e575b8161278f60209383612c18565b81010312610c2b575182612713565b3d9150612782565b90506020813d6020116127d0575b816127c160209383612c18565b81010312610c2b5751816126d8565b3d91506127b4565b805180835260209291819084018484015e5f828201840152601f01601f1916010190565b9181601f84011215610c2b578235916001600160401b038311610c2b5760208381860195010111610c2b57565b906040600319830112610c2b5760043591602435906001600160401b038211610c2b57612858916004016127fc565b9091565b6004111561286657565b634e487b7160e01b5f52602160045260245ffd5b60809060018060a01b0381511683526020810151602084015260018060a01b03604082015116604084015260018060a01b03606082015116606084015201519060a0608082015281516128cc8161285c565b60a082015260208201516001600160a01b031660c08201526040820151608060e083015261010090606090612906906101208501906127d8565b930151151591015290565b9080602083519182815201916020808360051b8301019401925f915b83831061293c57505050505090565b9091929394602080600192601f19858203018652885190604080612a20612a10610160865160608752805160608801528881015160808801528481015160a0880152606081015161298c8161285c565b60c08801528a8060a01b0360808201511660e08801528a8060a01b0360a0820151166101008801528a8060a01b0360c0820151166101208801528a8060a01b0360e082015116610140880152610100810151828801526101208101516101808801526101408101516101a088015201516101806101c08701526101e08601906127d8565b86860151858203888701526127d8565b9301519101529701930193019193929061292d565b612a909160018060a01b038251168152602082015160208201526080612a7f612a6d604085015160a0604086015260a0850190612911565b60608501518482036060860152612911565b9201519060808184039101526127d8565b90565b949193612afd93612a90979560809360018060a01b0316885260018060a01b03166020880152604087015280516060870152602081015182870152604081015160a0870152606081015160c0870152015160e085015261014061010085015261014084019061287a565b91610120818403910152612a35565b602435906001600160a01b0382168203610c2b57565b35906001600160a01b0382168203610c2b57565b6001600160a01b03918216815291166020820152604081019190915260a060608201819052612a90939192612b6d9184019061287a565b916080818403910152612a35565b60a081019081106001600160401b03821117612b9657604052565b634e487b7160e01b5f52604160045260245ffd5b608081019081106001600160401b03821117612b9657604052565b61010081019081106001600160401b03821117612b9657604052565b606081019081106001600160401b03821117612b9657604052565b61018081019081106001600160401b03821117612b9657604052565b90601f801991011681019081106001600160401b03821117612b9657604052565b6001600160401b038111612b965760051b60200190565b604081016040825282518091526020606083019301905f5b818110612cac575050506020818303910152602080835192838152019201905f5b818110612c965750505090565b8251845260209384019390920191600101612c89565b82516001600160a01b0316855260209485019490920191600101612c68565b90600182811c92168015612cf9575b6020831014612ce557565b634e487b7160e01b5f52602260045260245ffd5b91607f1691612cda565b6007545f9291612d1282612ccb565b8082529160018116908115612d865750600114612d2d575050565b60075f9081529293509091907fa66cc928b5edb82af9bd49922954155ab7b0942694bea4ce44661d9a8736c6885b838310612d6c575060209250010190565b600181602092949394548385870101520191019190612d5b565b9050602093945060ff929192191683830152151560051b010190565b51906001600160a01b0382168203610c2b57565b604051628bec5760e51b81526020816004817f00000000000000000000000000000000000000000000000000000000000000006001600160a01b03165afa908115610c20575f91612e05575090565b90506020813d602011612e31575b81612e2060209383612c18565b81010312610c2b57612a9090612da2565b3d9150612e13565b51908115158203610c2b57565b60405190612e5382612b7b565b815f81525f60208201525f60408201525f6060820152608060405191612e7883612baa565b5f83525f6020840152606060408401525f60608401520152565b60405190612e9f82612b7b565b60606080835f81525f602082015282604082015282808201520152565b6001600160401b038111612b9657601f01601f191660200190565b81601f82011215610c2b57803590612eee82612ebc565b92612efc6040519485612c18565b82845260208383010111610c2b57815f926020809301838601378301015290565b919060a083820312610c2b57604051612f3581612b7b565b8093612f4081612b22565b825260208101356020830152612f5860408201612b22565b6040830152612f6960608201612b22565b60608301526080810135906001600160401b038211610c2b570191608083820312610c2b5760405192612f9b84612baa565b80356004811015610c2b578452612fb460208201612b22565b602085015260408101356001600160401b038111610c2b57606092612fda918301612ed7565b60408501520135908115158203610c2b5760809160608401520152565b81601f82011215610c2b5780359061300e82612c39565b9261301c6040519485612c18565b82845260208085019360051b83010191818311610c2b5760208101935b83851061304857505050505090565b84356001600160401b038111610c2b5782016060818503601f190112610c2b576040519161307583612be1565b60208201356001600160401b038111610c2b5760209083010161018081870312610c2b57604051906130a682612bfc565b80358252602081013560208301526040810135604083015260608101356004811015610c2b5760608301526130dd60808201612b22565b60808301526130ee60a08201612b22565b60a08301526130ff60c08201612b22565b60c083015261311060e08201612b22565b60e0830152610100810135610100830152610120810135610120830152610140810135610140830152610160810135906001600160401b038211610c2b5761315a91889101612ed7565b61016082015283526040820135926001600160401b038411610c2b5760608361318a886020809881980101612ed7565b8584015201356040820152815201940193613039565b919060a083820312610c2b57604051906131b982612b7b565b81936131c481612b22565b83526020810135602084015260408101356001600160401b038111610c2b57826131ef918301612ff7565b604084015260608101356001600160401b038111610c2b5782613213918301612ff7565b60608401526080810135916001600160401b038311610c2b576080926132399201612ed7565b910152565b80518210156132525760209160051b010190565b634e487b7160e01b5f52603260045260245ffd5b6040518091829160208251919201905f5b8181106132875750505003902090565b82516001600160a01b0316845285945060209384019390920191600101613277565b6040518091829160208251919201905f5b8181106132ca5750505003902090565b82518452859450602093840193909201916001016132ba565b600954604051631c98d5a960e11b81525f600482015290602090829060249082906001600160a01b03165afa908115610c20575f91613320575090565b90506020813d602011613347575b8161333b60209383612c18565b81010312610c2b575190565b3d915061332e565b6133bb602060018060a01b035f541660405182810190600160f91b82526001600160601b03193060601b1660218201526015815261338e603582612c18565b519020604051632474521560e21b8152600481019190915233602482015292839190829081906044820190565b03915afa908115610c20575f916133d0575090565b90506020813d6020116133fc575b816133eb60209383612c18565b81010312610c2b57612a9090612e39565b3d91506133de565b5015801580613448575b613439578061342d575b61341e57565b63332863a960e11b5f5260045ffd5b5060ff60085416613418565b630cd0fdf960e01b5f5260045ffd5b5060ff600854161561340e565b60405163a9059cbb60e01b60208201526001600160a01b0392909216602483015260448083019390935291815261349191611f28606483612c18565b565b6009546040516390d2083760e01b81525f60048201526001600160a01b0390911690602081602481855afa908115610c20575f91613598575b506024915f806020936040518581019163f82c50f160e01b8352878201528681526134f8604482612c18565b51906a636f6e736f6c652e6c6f675afa506040516390d2083760e01b81525f600482015292839182905afa908115610c20575f91613566575b50601f5460205490821015918261355b575b50501561354c57565b638de5208960e01b5f5260045ffd5b111590505f80613543565b90506020813d602011613590575b8161358160209383612c18565b81010312610c2b57515f613531565b3d9150613574565b90506020813d6020116135c3575b816135b360209383612c18565b81010312610c2b575160246134cc565b3d91506135a6565b602081830312610c2b578035906001600160401b038211610c2b5701602081830312610c2b5760405191602083018381106001600160401b03821117612b965760405281356001600160401b038111610c2b576136289201612ed7565b815290565b81601f82011215610c2b5780519061364482612ebc565b926136526040519485612c18565b82845260208383010111610c2b57815f9260208093018386015e8301015290565b919060a083820312610c2b5760405161368b81612b7b565b809361369681612da2565b8252602081015160208301526136ae60408201612da2565b60408301526136bf60608201612da2565b60608301526080810151906001600160401b038211610c2b570190608082840312610c2b57604051926136f184612baa565b82516004811015610c2b57845261370a60208401612da2565b60208501526040830151906001600160401b038211610c2b5783613737606092613742946080970161362d565b604087015201612e39565b60608401520152565b81601f82011215610c2b5780519061376282612c39565b926137706040519485612c18565b82845260208085019360051b83010191818311610c2b5760208101935b83851061379c57505050505090565b84516001600160401b038111610c2b5782016060818503601f190112610c2b57604051916137c983612be1565b60208201516001600160401b038111610c2b5760209083010161018081870312610c2b57604051906137fa82612bfc565b80518252602081015160208301526040810151604083015260608101516004811015610c2b57606083015261383160808201612da2565b608083015261384260a08201612da2565b60a083015261385360c08201612da2565b60c083015261386460e08201612da2565b60e0830152610100810151610100830152610120810151610120830152610140810151610140830152610160810151906001600160401b038211610c2b576138ae9188910161362d565b61016082015283526040820151926001600160401b038411610c2b576060836138de88602080988198010161362d565b858401520151604082015281520194019361378d565b919060a083820312610c2b576040519061390d82612b7b565b819361391881612da2565b83526020810151602084015260408101516001600160401b038111610c2b578261394391830161374b565b604084015260608101516001600160401b038111610c2b578261396791830161374b565b60608401526080810151916001600160401b038311610c2b57608092613239920161362d565b90816060910312610c2b578051916040602083015192015190565b905f602091828151910182855af115610c20575f513d6139f757506001600160a01b0381163b155b6139d75750565b635274afe760e01b5f9081526001600160a01b0391909116600452602490fd5b600114156139d056fea264697066735822122029ca94a23f823d0f2934b1140d4e2fe322400eb9603a0b246478d32a93d4e78964736f6c634300081b0033",
  "linkReferences": {},
  "deployedLinkReferences": {}
}