{
  "_format": "hh-sol-artifact-1",
  "contractName": "ERC4626Ark",
  "sourceName": "src/contracts/arks/ERC4626Ark.sol",
  "abi": [
    {
      "inputs": [
        {
          "internalType": "address",
          "name": "_vault",
          "type": "address"
        },
        {
          "components": [
            {
              "internalType": "string",
              "name": "name",
              "type": "string"
            },
            {
              "internalType": "address",
              "name": "accessManager",
              "type": "address"
            },
            {
              "internalType": "address",
              "name": "configurationManager",
              "type": "address"
            },
            {
              "internalType": "address",
              "name": "token",
              "type": "address"
            },
            {
              "internalType": "uint256",
              "name": "depositCap",
              "type": "uint256"
            },
            {
              "internalType": "uint256",
              "name": "maxRebalanceOutflow",
              "type": "uint256"
            },
            {
              "internalType": "uint256",
              "name": "maxRebalanceInflow",
              "type": "uint256"
            },
            {
              "internalType": "bool",
              "name": "requiresKeeperData",
              "type": "bool"
            }
          ],
          "internalType": "struct ArkParams",
          "name": "_params",
          "type": "tuple"
        }
      ],
      "stateMutability": "nonpayable",
      "type": "constructor"
    },
    {
      "inputs": [
        {
          "internalType": "address",
          "name": "caller",
          "type": "address"
        }
      ],
      "name": "CallerIsNotAdmin",
      "type": "error"
    },
    {
      "inputs": [
        {
          "internalType": "address",
          "name": "caller",
          "type": "address"
        }
      ],
      "name": "CallerIsNotAuthorizedToBoard",
      "type": "error"
    },
    {
      "inputs": [
        {
          "internalType": "address",
          "name": "caller",
          "type": "address"
        }
      ],
      "name": "CallerIsNotCommander",
      "type": "error"
    },
    {
      "inputs": [
        {
          "internalType": "address",
          "name": "caller",
          "type": "address"
        },
        {
          "internalType": "bytes32",
          "name": "role",
          "type": "bytes32"
        }
      ],
      "name": "CallerIsNotContractSpecificRole",
      "type": "error"
    },
    {
      "inputs": [
        {
          "internalType": "address",
          "name": "caller",
          "type": "address"
        }
      ],
      "name": "CallerIsNotCurator",
      "type": "error"
    },
    {
      "inputs": [
        {
          "internalType": "address",
          "name": "caller",
          "type": "address"
        }
      ],
      "name": "CallerIsNotGovernor",
      "type": "error"
    },
    {
      "inputs": [
        {
          "internalType": "address",
          "name": "caller",
          "type": "address"
        }
      ],
      "name": "CallerIsNotGuardian",
      "type": "error"
    },
    {
      "inputs": [
        {
          "internalType": "address",
          "name": "caller",
          "type": "address"
        }
      ],
      "name": "CallerIsNotGuardianOrGovernor",
      "type": "error"
    },
    {
      "inputs": [
        {
          "internalType": "address",
          "name": "caller",
          "type": "address"
        }
      ],
      "name": "CallerIsNotKeeper",
      "type": "error"
    },
    {
      "inputs": [
        {
          "internalType": "address",
          "name": "caller",
          "type": "address"
        }
      ],
      "name": "CallerIsNotRaft",
      "type": "error"
    },
    {
      "inputs": [
        {
          "internalType": "address",
          "name": "caller",
          "type": "address"
        }
      ],
      "name": "CallerIsNotRaftOrCommander",
      "type": "error"
    },
    {
      "inputs": [
        {
          "internalType": "address",
          "name": "caller",
          "type": "address"
        }
      ],
      "name": "CallerIsNotSuperKeeper",
      "type": "error"
    },
    {
      "inputs": [],
      "name": "CannotAddCommanderToArkWithCommander",
      "type": "error"
    },
    {
      "inputs": [],
      "name": "CannotDeployArkWithEmptyName",
      "type": "error"
    },
    {
      "inputs": [],
      "name": "CannotDeployArkWithoutConfigurationManager",
      "type": "error"
    },
    {
      "inputs": [],
      "name": "CannotDeployArkWithoutRaft",
      "type": "error"
    },
    {
      "inputs": [],
      "name": "CannotDeployArkWithoutToken",
      "type": "error"
    },
    {
      "inputs": [],
      "name": "CannotRemoveCommanderFromArkWithAssets",
      "type": "error"
    },
    {
      "inputs": [],
      "name": "CannotUseKeeperDataWhenNotRequired",
      "type": "error"
    },
    {
      "inputs": [],
      "name": "ConfigurationManagerZeroAddress",
      "type": "error"
    },
    {
      "inputs": [
        {
          "internalType": "address",
          "name": "caller",
          "type": "address"
        }
      ],
      "name": "DirectGrantIsDisabled",
      "type": "error"
    },
    {
      "inputs": [
        {
          "internalType": "address",
          "name": "caller",
          "type": "address"
        }
      ],
      "name": "DirectRevokeIsDisabled",
      "type": "error"
    },
    {
      "inputs": [],
      "name": "ERC4626AssetMismatch",
      "type": "error"
    },
    {
      "inputs": [
        {
          "internalType": "address",
          "name": "invalidAddress",
          "type": "address"
        }
      ],
      "name": "InvalidAccessManagerAddress",
      "type": "error"
    },
    {
      "inputs": [],
      "name": "InvalidBoardData",
      "type": "error"
    },
    {
      "inputs": [],
      "name": "InvalidDisembarkData",
      "type": "error"
    },
    {
      "inputs": [],
      "name": "InvalidVaultAddress",
      "type": "error"
    },
    {
      "inputs": [],
      "name": "KeeperDataRequired",
      "type": "error"
    },
    {
      "inputs": [
        {
          "internalType": "address",
          "name": "token",
          "type": "address"
        }
      ],
      "name": "SafeERC20FailedOperation",
      "type": "error"
    },
    {
      "anonymous": false,
      "inputs": [
        {
          "indexed": true,
          "internalType": "address[]",
          "name": "rewardTokens",
          "type": "address[]"
        },
        {
          "indexed": true,
          "internalType": "uint256[]",
          "name": "rewardAmounts",
          "type": "uint256[]"
        }
      ],
      "name": "ArkHarvested",
      "type": "event"
    },
    {
      "anonymous": false,
      "inputs": [
        {
          "indexed": false,
          "internalType": "uint256",
          "name": "currentPrice",
          "type": "uint256"
        },
        {
          "indexed": false,
          "internalType": "uint256",
          "name": "timestamp",
          "type": "uint256"
        }
      ],
      "name": "ArkPoked",
      "type": "event"
    },
    {
      "anonymous": false,
      "inputs": [
        {
          "indexed": true,
          "internalType": "address[]",
          "name": "sweptTokens",
          "type": "address[]"
        },
        {
          "indexed": true,
          "internalType": "uint256[]",
          "name": "sweptAmounts",
          "type": "uint256[]"
        }
      ],
      "name": "ArkSwept",
      "type": "event"
    },
    {
      "anonymous": false,
      "inputs": [
        {
          "indexed": true,
          "internalType": "address",
          "name": "commander",
          "type": "address"
        },
        {
          "indexed": false,
          "internalType": "address",
          "name": "token",
          "type": "address"
        },
        {
          "indexed": false,
          "internalType": "uint256",
          "name": "amount",
          "type": "uint256"
        }
      ],
      "name": "Boarded",
      "type": "event"
    },
    {
      "anonymous": false,
      "inputs": [
        {
          "indexed": false,
          "internalType": "uint256",
          "name": "newCap",
          "type": "uint256"
        }
      ],
      "name": "DepositCapUpdated",
      "type": "event"
    },
    {
      "anonymous": false,
      "inputs": [
        {
          "indexed": true,
          "internalType": "address",
          "name": "commander",
          "type": "address"
        },
        {
          "indexed": false,
          "internalType": "address",
          "name": "token",
          "type": "address"
        },
        {
          "indexed": false,
          "internalType": "uint256",
          "name": "amount",
          "type": "uint256"
        }
      ],
      "name": "Disembarked",
      "type": "event"
    },
    {
      "anonymous": false,
      "inputs": [
        {
          "indexed": false,
          "internalType": "address",
          "name": "commander",
          "type": "address"
        }
      ],
      "name": "FleetCommanderRegistered",
      "type": "event"
    },
    {
      "anonymous": false,
      "inputs": [
        {
          "indexed": false,
          "internalType": "address",
          "name": "commander",
          "type": "address"
        }
      ],
      "name": "FleetCommanderUnregistered",
      "type": "event"
    },
    {
      "anonymous": false,
      "inputs": [
        {
          "indexed": false,
          "internalType": "uint256",
          "name": "newMaxInflow",
          "type": "uint256"
        }
      ],
      "name": "MaxRebalanceInflowUpdated",
      "type": "event"
    },
    {
      "anonymous": false,
      "inputs": [
        {
          "indexed": false,
          "internalType": "uint256",
          "name": "newMaxOutflow",
          "type": "uint256"
        }
      ],
      "name": "MaxRebalanceOutflowUpdated",
      "type": "event"
    },
    {
      "anonymous": false,
      "inputs": [
        {
          "indexed": true,
          "internalType": "address",
          "name": "from",
          "type": "address"
        },
        {
          "indexed": true,
          "internalType": "address",
          "name": "to",
          "type": "address"
        },
        {
          "indexed": false,
          "internalType": "address",
          "name": "token",
          "type": "address"
        },
        {
          "indexed": false,
          "internalType": "uint256",
          "name": "amount",
          "type": "uint256"
        }
      ],
      "name": "Moved",
      "type": "event"
    },
    {
      "anonymous": false,
      "inputs": [
        {
          "indexed": false,
          "internalType": "address",
          "name": "newRaft",
          "type": "address"
        }
      ],
      "name": "RaftUpdated",
      "type": "event"
    },
    {
      "inputs": [
        {
          "internalType": "uint256",
          "name": "amount",
          "type": "uint256"
        },
        {
          "internalType": "bytes",
          "name": "boardData",
          "type": "bytes"
        }
      ],
      "name": "board",
      "outputs": [],
      "stateMutability": "nonpayable",
      "type": "function"
    },
    {
      "inputs": [],
      "name": "commander",
      "outputs": [
        {
          "internalType": "address",
          "name": "",
          "type": "address"
        }
      ],
      "stateMutability": "view",
      "type": "function"
    },
    {
      "inputs": [],
      "name": "config",
      "outputs": [
        {
          "internalType": "address",
          "name": "commander",
          "type": "address"
        },
        {
          "internalType": "address",
          "name": "raft",
          "type": "address"
        },
        {
          "internalType": "contract IERC20",
          "name": "token",
          "type": "address"
        },
        {
          "internalType": "uint256",
          "name": "depositCap",
          "type": "uint256"
        },
        {
          "internalType": "uint256",
          "name": "maxRebalanceOutflow",
          "type": "uint256"
        },
        {
          "internalType": "uint256",
          "name": "maxRebalanceInflow",
          "type": "uint256"
        },
        {
          "internalType": "string",
          "name": "name",
          "type": "string"
        },
        {
          "internalType": "bool",
          "name": "requiresKeeperData",
          "type": "bool"
        }
      ],
      "stateMutability": "view",
      "type": "function"
    },
    {
      "inputs": [],
      "name": "configurationManager",
      "outputs": [
        {
          "internalType": "contract IConfigurationManager",
          "name": "",
          "type": "address"
        }
      ],
      "stateMutability": "view",
      "type": "function"
    },
    {
      "inputs": [],
      "name": "depositCap",
      "outputs": [
        {
          "internalType": "uint256",
          "name": "",
          "type": "uint256"
        }
      ],
      "stateMutability": "view",
      "type": "function"
    },
    {
      "inputs": [
        {
          "internalType": "uint256",
          "name": "amount",
          "type": "uint256"
        },
        {
          "internalType": "bytes",
          "name": "disembarkData",
          "type": "bytes"
        }
      ],
      "name": "disembark",
      "outputs": [],
      "stateMutability": "nonpayable",
      "type": "function"
    },
    {
      "inputs": [
        {
          "internalType": "enum ContractSpecificRoles",
          "name": "roleName",
          "type": "uint8"
        },
        {
          "internalType": "address",
          "name": "roleTargetContract",
          "type": "address"
        }
      ],
      "name": "generateRole",
      "outputs": [
        {
          "internalType": "bytes32",
          "name": "",
          "type": "bytes32"
        }
      ],
      "stateMutability": "pure",
      "type": "function"
    },
    {
      "inputs": [],
      "name": "getConfig",
      "outputs": [
        {
          "components": [
            {
              "internalType": "address",
              "name": "commander",
              "type": "address"
            },
            {
              "internalType": "address",
              "name": "raft",
              "type": "address"
            },
            {
              "internalType": "contract IERC20",
              "name": "token",
              "type": "address"
            },
            {
              "internalType": "uint256",
              "name": "depositCap",
              "type": "uint256"
            },
            {
              "internalType": "uint256",
              "name": "maxRebalanceOutflow",
              "type": "uint256"
            },
            {
              "internalType": "uint256",
              "name": "maxRebalanceInflow",
              "type": "uint256"
            },
            {
              "internalType": "string",
              "name": "name",
              "type": "string"
            },
            {
              "internalType": "bool",
              "name": "requiresKeeperData",
              "type": "bool"
            }
          ],
          "internalType": "struct ArkConfig",
          "name": "",
          "type": "tuple"
        }
      ],
      "stateMutability": "view",
      "type": "function"
    },
    {
      "inputs": [],
      "name": "harborCommand",
      "outputs": [
        {
          "internalType": "address",
          "name": "",
          "type": "address"
        }
      ],
      "stateMutability": "view",
      "type": "function"
    },
    {
      "inputs": [
        {
          "internalType": "bytes",
          "name": "additionalData",
          "type": "bytes"
        }
      ],
      "name": "harvest",
      "outputs": [
        {
          "internalType": "address[]",
          "name": "rewardTokens",
          "type": "address[]"
        },
        {
          "internalType": "uint256[]",
          "name": "rewardAmounts",
          "type": "uint256[]"
        }
      ],
      "stateMutability": "nonpayable",
      "type": "function"
    },
    {
      "inputs": [],
      "name": "maxRebalanceInflow",
      "outputs": [
        {
          "internalType": "uint256",
          "name": "",
          "type": "uint256"
        }
      ],
      "stateMutability": "view",
      "type": "function"
    },
    {
      "inputs": [],
      "name": "maxRebalanceOutflow",
      "outputs": [
        {
          "internalType": "uint256",
          "name": "",
          "type": "uint256"
        }
      ],
      "stateMutability": "view",
      "type": "function"
    },
    {
      "inputs": [
        {
          "internalType": "uint256",
          "name": "amount",
          "type": "uint256"
        },
        {
          "internalType": "address",
          "name": "receiverArk",
          "type": "address"
        },
        {
          "internalType": "bytes",
          "name": "boardData",
          "type": "bytes"
        },
        {
          "internalType": "bytes",
          "name": "disembarkData",
          "type": "bytes"
        }
      ],
      "name": "move",
      "outputs": [],
      "stateMutability": "nonpayable",
      "type": "function"
    },
    {
      "inputs": [],
      "name": "name",
      "outputs": [
        {
          "internalType": "string",
          "name": "",
          "type": "string"
        }
      ],
      "stateMutability": "view",
      "type": "function"
    },
    {
      "inputs": [],
      "name": "raft",
      "outputs": [
        {
          "internalType": "address",
          "name": "",
          "type": "address"
        }
      ],
      "stateMutability": "view",
      "type": "function"
    },
    {
      "inputs": [],
      "name": "registerFleetCommander",
      "outputs": [],
      "stateMutability": "nonpayable",
      "type": "function"
    },
    {
      "inputs": [],
      "name": "requiresKeeperData",
      "outputs": [
        {
          "internalType": "bool",
          "name": "",
          "type": "bool"
        }
      ],
      "stateMutability": "view",
      "type": "function"
    },
    {
      "inputs": [
        {
          "internalType": "uint256",
          "name": "newDepositCap",
          "type": "uint256"
        }
      ],
      "name": "setDepositCap",
      "outputs": [],
      "stateMutability": "nonpayable",
      "type": "function"
    },
    {
      "inputs": [
        {
          "internalType": "uint256",
          "name": "newMaxRebalanceInflow",
          "type": "uint256"
        }
      ],
      "name": "setMaxRebalanceInflow",
      "outputs": [],
      "stateMutability": "nonpayable",
      "type": "function"
    },
    {
      "inputs": [
        {
          "internalType": "uint256",
          "name": "newMaxRebalanceOutflow",
          "type": "uint256"
        }
      ],
      "name": "setMaxRebalanceOutflow",
      "outputs": [],
      "stateMutability": "nonpayable",
      "type": "function"
    },
    {
      "inputs": [
        {
          "internalType": "address[]",
          "name": "tokens",
          "type": "address[]"
        }
      ],
      "name": "sweep",
      "outputs": [
        {
          "internalType": "address[]",
          "name": "sweptTokens",
          "type": "address[]"
        },
        {
          "internalType": "uint256[]",
          "name": "sweptAmounts",
          "type": "uint256[]"
        }
      ],
      "stateMutability": "nonpayable",
      "type": "function"
    },
    {
      "inputs": [],
      "name": "tipJar",
      "outputs": [
        {
          "internalType": "address",
          "name": "",
          "type": "address"
        }
      ],
      "stateMutability": "view",
      "type": "function"
    },
    {
      "inputs": [],
      "name": "token",
      "outputs": [
        {
          "internalType": "contract IERC20",
          "name": "",
          "type": "address"
        }
      ],
      "stateMutability": "view",
      "type": "function"
    },
    {
      "inputs": [],
      "name": "totalAssets",
      "outputs": [
        {
          "internalType": "uint256",
          "name": "",
          "type": "uint256"
        }
      ],
      "stateMutability": "view",
      "type": "function"
    },
    {
      "inputs": [],
      "name": "treasury",
      "outputs": [
        {
          "internalType": "address",
          "name": "",
          "type": "address"
        }
      ],
      "stateMutability": "view",
      "type": "function"
    },
    {
      "inputs": [],
      "name": "unregisterFleetCommander",
      "outputs": [],
      "stateMutability": "nonpayable",
      "type": "function"
    },
    {
      "inputs": [],
      "name": "vault",
      "outputs": [
        {
          "internalType": "contract IERC4626",
          "name": "",
          "type": "address"
        }
      ],
      "stateMutability": "view",
      "type": "function"
    }
  ],
  "bytecode": "0x60c080604052346103fc57612104803803809161001c8285610636565b83398101906040818303126103fc5761003481610659565b602082015190916001600160401b0382116103fc570191610100838203126103fc57604051906100638261061a565b83516001600160401b0381116103fc57840181601f820112156103fc578051906001600160401b03821161055c57604051926100a9601f8401601f191660200185610636565b828452602083830101116103fc57815f9260208093018386015e8301015281526100d560208401610659565b908160208201526100e860408501610659565b9360408201928584526100fd60608301610659565b606084019081526080830151946080850195865260a08401519260a0860193845261013660e060c08701519660c089019788520161066d565b60e08701908152986001600160a01b0390811691168015610607576040516301ffc9a760e01b815263a237592160e01b6004820152602081602481855afa908115610408575f916105cd575b50156105bb575f80546001600160a01b03191691909117905580156105ac57608052516001600160a01b03161561059d5780516001600160a01b03161561058e578351511561057f576001600160a01b036101db61067a565b161561057057516001600160a01b03166101f361067a565b9451915192519351965115159460e06040519161020f8361061a565b5f83526001600160a01b03166020830181905260408301849052606083018590526080830186905260a0830187905260c083018a90529101958652600180546001600160a01b031990811690915560028054821690921790915560038054909116909117905560045560055560065582516001600160401b03811161055c57600754600181811c91168015610552575b602082101461053e57601f81116104db575b506020601f821160011461047857819293945f9261046d575b50508160011b915f199060031b1c1916176007555b51151560ff80196008541691161760085560018060a01b0316801561045e5760a08190526040516338d52e0f60e01b815290602082600481845afa918215610408575f92610422575b506003546001600160a01b039081169216829003610413575f916044602092604051948593849263095ea7b360e01b84526004840152811960248401525af18015610408576103cb575b604051611a1c90816106e882396080518181816103a70152818161089c01528181610ecd01528181610f3e015261171b015260a051818181610188015281816105a5015281816110a50152818161127901526113ae0152f35b6020813d602011610400575b816103e460209383610636565b810103126103fc576103f59061066d565b505f610372565b5f80fd5b3d91506103d7565b6040513d5f823e3d90fd5b632df548ff60e11b5f5260045ffd5b9091506020813d602011610456575b8161043e60209383610636565b810103126103fc5761044f90610659565b905f610328565b3d9150610431565b630306120160e01b5f5260045ffd5b015190505f806102ca565b601f1982169060075f52805f20915f5b8181106104c3575095836001959697106104ab575b505050811b016007556102df565b01515f1960f88460031b161c191690555f808061049d565b9192602060018192868b015181550194019201610488565b60075f527fa66cc928b5edb82af9bd49922954155ab7b0942694bea4ce44661d9a8736c688601f830160051c81019160208410610534575b601f0160051c01905b81811061052957506102b1565b5f815560010161051c565b9091508190610513565b634e487b7160e01b5f52602260045260245ffd5b90607f169061029f565b634e487b7160e01b5f52604160045260245ffd5b633a4f9cdb60e21b5f5260045ffd5b63268c072960e01b5f5260045ffd5b637ff57ef160e11b5f5260045ffd5b63b53c493160e01b5f5260045ffd5b63f1634df960e01b5f5260045ffd5b6347bd7c1d60e01b5f5260045260245ffd5b90506020813d6020116105ff575b816105e860209383610636565b810103126103fc576105f99061066d565b5f610182565b3d91506105db565b6347bd7c1d60e01b5f525f60045260245ffd5b61010081019081106001600160401b0382111761055c57604052565b601f909101601f19168101906001600160401b0382119082101761055c57604052565b51906001600160a01b03821682036103fc57565b519081151582036103fc57565b608051604051628bec5760e51b815290602090829060049082906001600160a01b03165afa908115610408575f916106b0575090565b90506020813d6020116106df575b816106cb60209383610636565b810103126103fc576106dc90610659565b90565b3d91506106be56fe6080806040526004361015610012575f80fd5b5f905f3560e01c90816301e1d1141461138c5750806306fdde031461135d578063117d8ae01461133157806313c408f81461122b5780632db6d39914610ff1578063303dbaf314610fcf5780633194549e14610fb25780633727093614610f8a5780635b0f83f314610f1957806361d027b314610ea857806361f5cd8b14610e5657806369b3054b14610df4578063780469bb1461099057806379502c55146109065780637aaceb951461087757806386651203146108255780638a8b9976146107c857806392f5e83214610776578063ad5a356f14610759578063c38a6f0b14610505578063c3f909d4146103d6578063c9c667e314610391578063ce5c7f6114610245578063dbd5edc714610227578063ebf31131146101b7578063fbfa77cf146101725763fc0c546a14610147575f80fd5b3461016f578060031936011261016f576003546040516001600160a01b039091168152602090f35b80fd5b503461016f578060031936011261016f576040517f00000000000000000000000000000000000000000000000000000000000000006001600160a01b03168152602090f35b503461016f578060031936011261016f576101d061186e565b15610214576001600160601b0360a01b600154166001557f7cb941d7b1708e5b3bcd35ca960d6c6311188cec18886e5b67630552676b04876020604051338152a180f35b631564c0e160e11b815233600452602490fd5b503461016f578060031936011261016f576020600454604051908152f35b503461016f57602036600319011261016f5760043567ffffffffffffffff811161038d576102779036906004016114ad565b5050604051628bec5760e51b8152602081600481305afa908115610382578291610353575b506001600160a01b03163303610340577f3e3e7958121b3e39c7a49392d1aa9cdce870c2a059744f9e15cf66fff78654559061033c604080516102df8282611542565b60018152601f19820191823660208401378051926102fd8285611542565b6001845236602085013784610311836117bc565b528461031c846117bc565b52610326826117f1565b61032f84611834565b915196868897a38361157c565b0390f35b631184b31b60e21b815233600452602490fd5b610375915060203d60201161037b575b61036d8183611542565b8101906116e8565b5f61029c565b503d610363565b6040513d84823e3d90fd5b5080fd5b503461016f578060031936011261016f576040517f00000000000000000000000000000000000000000000000000000000000000006001600160a01b03168152602090f35b503461016f578060031936011261016f5760e06040516103f581611525565b8281528260208201528260408201528260608201528260808201528260a0820152606060c0820152015260405161042b81611525565b6001546001600160a01b03908116825260025481166020830190815260035490911660408301908152600454606084019081526005546080850190815260065460a086019081529394936104f792916104826115f7565b9260c0870193845260ff600854169560e08801961515875260405198899860208a5260018060a01b0390511660208a015260018060a01b03905116604089015260018060a01b0390511660608801525160808701525160a08601525160c08501525161010060e0850152610120840190611489565b905115156101008301520390f35b50346106e65760803660031901126106e65760043561052261150f565b9060443567ffffffffffffffff81116106e6576105439036906004016114ad565b909260643567ffffffffffffffff81116106e6576105659036906004016114ad565b61056d61186e565b156107465761057b91611901565b604051632d182be560e21b815260048101849052306024820181905260448201526020816064815f7f00000000000000000000000000000000000000000000000000000000000000006001600160a01b03165af180156106db57610717575b5060035460405163095ea7b360e01b81526001600160a01b038381166004830152602482018690529091602091839160449183915f91165af180156106db576106ea575b506001600160a01b031692833b156106e6578160645f926040519485938492632db6d39960e01b845288600485015260406024850152816044850152848401378181018301859052601f01601f1916810103018183875af180156106db576106c6575b50600354604080516001600160a01b039092168252602082019290925230917f9f784fc02a186f1c98b2d9f15fda084da27cdd291a3785d978f91911d880516b91a380f35b6106d39193505f90611542565b5f915f610681565b6040513d5f823e3d90fd5b5f80fd5b61070b9060203d602011610710575b6107038183611542565b810190611772565b61061e565b503d6106f9565b6107389060203d60201161073f575b6107308183611542565b8101906116d9565b505f6105da565b503d610726565b631564c0e160e11b5f523360045260245ffd5b346106e6575f3660031901126106e6576020600654604051908152f35b346106e65760203660031901126106e65760043561079261186e565b15610746576020817fb6ac66853c4e59c71e118d25ab494bb847c4e5eb0c8894898c5343e6f61afc1292600655604051908152a1005b346106e6575f3660031901126106e6576107e061186e565b1561074657336001600160601b0360a01b60015416176001557f55489ce0259bd691120d8860861be1c401c7c16a3cd268d21045756af4ecc5ca6020604051338152a1005b346106e65760203660031901126106e65760043561084161186e565b15610746576020817f333b26cca69716ad4680ddb07663f5bfb4f06045671f336af9a83690a3ae00f992600455604051908152a1005b346106e6575f3660031901126106e657604051637aaceb9560e01b81526020816004817f00000000000000000000000000000000000000000000000000000000000000006001600160a01b03165afa80156106db576020915f916108e9575b506040516001600160a01b039091168152f35b6109009150823d841161037b5761036d8183611542565b826108d6565b346106e6575f3660031901126106e6576001546002546003546004546005546006546001600160a01b03948516958516949093169261098492916109486115f7565b9260ff60085416956040519889988952602089015260408801526060870152608086015260a085015261010060c0850152610100840190611489565b90151560e08301520390f35b346106e65760203660031901126106e65760043567ffffffffffffffff81116106e657366023820112156106e65780600401356109cc81611564565b916109da6040519384611542565b8183526024602084019260051b820101903682116106e657602401915b818310610dd457604051628bec5760e51b81528490602081600481305afa9081156106db575f91610db5575b506001600160a01b03163303610da257610a3d815161178a565b90610a48815161178a565b9160018060a01b03600354166040516370a0823160e01b8152306004820152602081602481855afa9081156106db575f91610d70575b50610c29575b505f5b8251811015610be05760249060206001600160a01b03610aa783876117dd565b5116604051938480926370a0823160e01b82523060048301525afa9182156106db575f92610bad575b5081610ae1575b6001915001610a87565b6001600160a01b03610af382866117dd565b5116916024610b00611707565b9360206001600160a01b03610b15868a6117dd565b5116604051938480926370a0823160e01b82523060048301525afa9182156106db575f92610b79575b5090600194610b4c92611952565b828060a01b03610b5c83876117dd565b5116610b6883866117dd565b52610b7382876117dd565b52610ad7565b91506020823d8211610ba5575b81610b9360209383611542565b810103126106e6579051906001610b3e565b3d9150610b86565b9091506020813d8211610bd8575b81610bc860209383611542565b810103126106e657519085610ad0565b3d9150610bbb565b508261033c610bee836117f1565b91610bf881611834565b936040519485947f46b8771620f6acf56cb03d3e835ea8024c7dcbcf05fcc3f6ade9e19d1a3e212b5f80a38361157c565b6001546040516330fe427560e21b815290608090829060049082906001600160a01b03165afa9081156106db575f91610cda575b50516040516370a0823160e01b815230600482015291906001600160a01b0316602083602481855afa9182156106db575f92610ca4575b610c9e9350611952565b83610a84565b91506020833d602011610cd2575b81610cbf60209383611542565b810103126106e657610c9e925191610c94565b3d9150610cb2565b90506080813d608011610d68575b81610cf560809383611542565b810103126106e657604051906080820182811067ffffffffffffffff821117610d54576040528051906001600160a01b03821682036106e657606091835260208101516020840152604081015160408401520151606082015285610c5d565b634e487b7160e01b5f52604160045260245ffd5b3d9150610ce8565b90506020813d602011610d9a575b81610d8b60209383611542565b810103126106e6575185610a7e565b3d9150610d7e565b631184b31b60e21b5f523360045260245ffd5b610dce915060203d60201161037b5761036d8183611542565b82610a23565b82356001600160a01b03811681036106e6578152602092830192016109f7565b346106e65760403660031901126106e65760043560038110156106e657602090610e1c61150f565b604051908382019260f81b83526001600160601b03199060601b16602182015260158152610e4b603582611542565b519020604051908152f35b346106e65760203660031901126106e657600435610e7261186e565b15610746576020817ffbe2d5c01ea8ba5596d6c4e6c82c6d4a0a0ee1128689993a4a5ba0169273d69f92600555604051908152a1005b346106e6575f3660031901126106e6576040516361d027b360e01b81526020816004817f00000000000000000000000000000000000000000000000000000000000000006001600160a01b03165afa80156106db576020915f916108e957506040516001600160a01b039091168152f35b346106e6575f3660031901126106e657604051635b0f83f360e01b81526020816004817f00000000000000000000000000000000000000000000000000000000000000006001600160a01b03165afa80156106db576020915f916108e957506040516001600160a01b039091168152f35b346106e6575f3660031901126106e6576001546040516001600160a01b039091168152602090f35b346106e6575f3660031901126106e6576020600554604051908152f35b346106e6575f3660031901126106e657602060ff600854166040519015158152f35b346106e657610fff366114db565b604051631b93849b60e11b8152602081600481305afa9081156106db575f9161120c575b5061102c61186e565b15611145575b5061103c91611901565b6003546040516323b872dd60e01b602082015233602482015230604482015260648082018490528152611082916001600160a01b031661107d608483611542565b61198e565b604051636e553f6560e01b8152600481018290523060248201526020816044815f7f00000000000000000000000000000000000000000000000000000000000000006001600160a01b03165af180156106db57611126575b50600354604080516001600160a01b039092168252602082019290925233917fcbaa1442ac205415c9d69643e7b60ec73d1de35dbc807c21ec288c70ddc4207b9190819081015b0390a2005b61113e9060203d60201161073f576107308183611542565b50816110da565b604051628bec5760e51b8152602081600481305afa9081156106db575f916111ed575b506001600160a01b031633146110325760405163d25dd10160e01b815233600482015290602090829060249082906001600160a01b03165afa9081156106db575f916111ce575b50156111bb5783611032565b638f7a567d60e01b5f523360045260245ffd5b6111e7915060203d602011610710576107038183611542565b846111af565b611206915060203d60201161037b5761036d8183611542565b85611168565b611225915060203d60201161037b5761036d8183611542565b84611023565b346106e657611239366114db565b61124161186e565b156107465761124f91611901565b604051632d182be560e21b815260048101829052306024820181905260448201526020816064815f7f00000000000000000000000000000000000000000000000000000000000000006001600160a01b03165af180156106db57611312575b506003546112c890829033906001600160a01b0316611952565b600354604080516001600160a01b039092168252602082019290925233917fd5e872c5ecfb1bb8820b2e6a20e31b883682282da886621541f71e31ec11947e919081908101611121565b61132a9060203d60201161073f576107308183611542565b50816112ae565b346106e6575f3660031901126106e657602061134b611707565b6040516001600160a01b039091168152f35b346106e6575f3660031901126106e65761033c6113786115f7565b604051918291602083526020830190611489565b346106e6575f3660031901126106e6576370a0823160e01b81523060048201527f00000000000000000000000000000000000000000000000000000000000000006001600160a01b031690602081602481855afa80156106db575f90611456575b602091506024604051809481936303d1689d60e11b835260048301525afa80156106db575f90611423575b602090604051908152f35b506020813d60201161144e575b8161143d60209383611542565b810103126106e65760209051611418565b3d9150611430565b506020813d602011611481575b8161147060209383611542565b810103126106e657602090516113ed565b3d9150611463565b805180835260209291819084018484015e5f828201840152601f01601f1916010190565b9181601f840112156106e65782359167ffffffffffffffff83116106e657602083818601950101116106e657565b9060406003198301126106e657600435916024359067ffffffffffffffff82116106e65761150b916004016114ad565b9091565b602435906001600160a01b03821682036106e657565b610100810190811067ffffffffffffffff821117610d5457604052565b90601f8019910116810190811067ffffffffffffffff821117610d5457604052565b67ffffffffffffffff8111610d545760051b60200190565b604081016040825282518091526020606083019301905f5b8181106115d8575050506020818303910152602080835192838152019201905f5b8181106115c25750505090565b82518452602093840193909201916001016115b5565b82516001600160a01b0316855260209485019490920191600101611594565b604051905f6007548060011c91600182169182156116cf575b6020841083146116bb57838652859290811561169c575060011461163d575b61163b92500383611542565b565b5060075f90815290917fa66cc928b5edb82af9bd49922954155ab7b0942694bea4ce44661d9a8736c6885b81831061168057505090602061163b9282010161162f565b6020919350806001915483858901015201910190918492611668565b6020925061163b94915060ff191682840152151560051b82010161162f565b634e487b7160e01b5f52602260045260245ffd5b92607f1692611610565b908160209103126106e6575190565b908160209103126106e657516001600160a01b03811681036106e65790565b604051628bec5760e51b81526020816004817f00000000000000000000000000000000000000000000000000000000000000006001600160a01b03165afa9081156106db575f91611756575090565b61176f915060203d60201161037b5761036d8183611542565b90565b908160209103126106e6575180151581036106e65790565b9061179482611564565b6117a16040519182611542565b82815280926117b2601f1991611564565b0190602036910137565b8051156117c95760200190565b634e487b7160e01b5f52603260045260245ffd5b80518210156117c95760209160051b010190565b6040518091829160208251919201905f5b8181106118125750505003902090565b82516001600160a01b0316845285945060209384019390920191600101611802565b6040518091829160208251919201905f5b8181106118555750505003902090565b8251845285945060209384019390920191600101611845565b5f54604051600160f91b60208083019182526bffffffffffffffffffffffff193060601b166021840152601583526001600160a01b0390931692916118b4603582611542565b519020604460405180948193632474521560e21b835260048301523360248301525afa9081156106db575f916118e8575090565b61176f915060203d602011610710576107038183611542565b5015801580611945575b611936578061192a575b61191b57565b63332863a960e11b5f5260045ffd5b5060ff60085416611915565b630cd0fdf960e01b5f5260045ffd5b5060ff600854161561190b565b60405163a9059cbb60e01b60208201526001600160a01b0392909216602483015260448083019390935291815261163b9161107d606483611542565b905f602091828151910182855af1156106db575f513d6119dd57506001600160a01b0381163b155b6119bd5750565b635274afe760e01b5f9081526001600160a01b0391909116600452602490fd5b600114156119b656fea2646970667358221220a477c1e104312d3e11dc66037b25aa518aa3380fc3f8dbbcc9a7cdfe0d6c669864736f6c634300081b0033",
  "linkReferences": {},
  "deployedLinkReferences": {}
}