{
  "_format": "hh-sol-artifact-1",
  "contractName": "FleetCommander",
  "sourceName": "src/contracts/FleetCommander.sol",
  "abi": [
    {
      "inputs": [
        {
          "components": [
            {
              "internalType": "string",
              "name": "name",
              "type": "string"
            },
            {
              "internalType": "string",
              "name": "details",
              "type": "string"
            },
            {
              "internalType": "string",
              "name": "symbol",
              "type": "string"
            },
            {
              "internalType": "address",
              "name": "configurationManager",
              "type": "address"
            },
            {
              "internalType": "address",
              "name": "accessManager",
              "type": "address"
            },
            {
              "internalType": "address",
              "name": "asset",
              "type": "address"
            },
            {
              "internalType": "uint256",
              "name": "initialMinimumBufferBalance",
              "type": "uint256"
            },
            {
              "internalType": "uint256",
              "name": "initialRebalanceCooldown",
              "type": "uint256"
            },
            {
              "internalType": "uint256",
              "name": "depositCap",
              "type": "uint256"
            },
            {
              "internalType": "Percentage",
              "name": "initialTipRate",
              "type": "uint256"
            }
          ],
          "internalType": "struct FleetCommanderParams",
          "name": "params",
          "type": "tuple"
        }
      ],
      "stateMutability": "nonpayable",
      "type": "constructor"
    },
    {
      "inputs": [
        {
          "internalType": "address",
          "name": "caller",
          "type": "address"
        }
      ],
      "name": "CallerIsNotAdmin",
      "type": "error"
    },
    {
      "inputs": [
        {
          "internalType": "address",
          "name": "caller",
          "type": "address"
        }
      ],
      "name": "CallerIsNotAuthorizedToBoard",
      "type": "error"
    },
    {
      "inputs": [
        {
          "internalType": "address",
          "name": "caller",
          "type": "address"
        }
      ],
      "name": "CallerIsNotCommander",
      "type": "error"
    },
    {
      "inputs": [
        {
          "internalType": "address",
          "name": "caller",
          "type": "address"
        },
        {
          "internalType": "bytes32",
          "name": "role",
          "type": "bytes32"
        }
      ],
      "name": "CallerIsNotContractSpecificRole",
      "type": "error"
    },
    {
      "inputs": [
        {
          "internalType": "address",
          "name": "caller",
          "type": "address"
        }
      ],
      "name": "CallerIsNotCurator",
      "type": "error"
    },
    {
      "inputs": [
        {
          "internalType": "address",
          "name": "caller",
          "type": "address"
        }
      ],
      "name": "CallerIsNotDecayController",
      "type": "error"
    },
    {
      "inputs": [
        {
          "internalType": "address",
          "name": "caller",
          "type": "address"
        }
      ],
      "name": "CallerIsNotGovernor",
      "type": "error"
    },
    {
      "inputs": [
        {
          "internalType": "address",
          "name": "caller",
          "type": "address"
        }
      ],
      "name": "CallerIsNotGuardian",
      "type": "error"
    },
    {
      "inputs": [
        {
          "internalType": "address",
          "name": "caller",
          "type": "address"
        }
      ],
      "name": "CallerIsNotGuardianOrGovernor",
      "type": "error"
    },
    {
      "inputs": [
        {
          "internalType": "address",
          "name": "caller",
          "type": "address"
        }
      ],
      "name": "CallerIsNotKeeper",
      "type": "error"
    },
    {
      "inputs": [
        {
          "internalType": "address",
          "name": "caller",
          "type": "address"
        }
      ],
      "name": "CallerIsNotRaft",
      "type": "error"
    },
    {
      "inputs": [
        {
          "internalType": "address",
          "name": "caller",
          "type": "address"
        }
      ],
      "name": "CallerIsNotRaftOrCommander",
      "type": "error"
    },
    {
      "inputs": [
        {
          "internalType": "address",
          "name": "caller",
          "type": "address"
        }
      ],
      "name": "CallerIsNotSuperKeeper",
      "type": "error"
    },
    {
      "inputs": [],
      "name": "ConfigurationManagerZeroAddress",
      "type": "error"
    },
    {
      "inputs": [
        {
          "internalType": "uint256",
          "name": "lastActionTimestamp",
          "type": "uint256"
        },
        {
          "internalType": "uint256",
          "name": "cooldown",
          "type": "uint256"
        },
        {
          "internalType": "uint256",
          "name": "currentTimestamp",
          "type": "uint256"
        }
      ],
      "name": "CooldownNotElapsed",
      "type": "error"
    },
    {
      "inputs": [
        {
          "internalType": "address",
          "name": "caller",
          "type": "address"
        }
      ],
      "name": "DirectGrantIsDisabled",
      "type": "error"
    },
    {
      "inputs": [
        {
          "internalType": "address",
          "name": "caller",
          "type": "address"
        }
      ],
      "name": "DirectRevokeIsDisabled",
      "type": "error"
    },
    {
      "inputs": [
        {
          "internalType": "address",
          "name": "spender",
          "type": "address"
        },
        {
          "internalType": "uint256",
          "name": "allowance",
          "type": "uint256"
        },
        {
          "internalType": "uint256",
          "name": "needed",
          "type": "uint256"
        }
      ],
      "name": "ERC20InsufficientAllowance",
      "type": "error"
    },
    {
      "inputs": [
        {
          "internalType": "address",
          "name": "sender",
          "type": "address"
        },
        {
          "internalType": "uint256",
          "name": "balance",
          "type": "uint256"
        },
        {
          "internalType": "uint256",
          "name": "needed",
          "type": "uint256"
        }
      ],
      "name": "ERC20InsufficientBalance",
      "type": "error"
    },
    {
      "inputs": [
        {
          "internalType": "address",
          "name": "approver",
          "type": "address"
        }
      ],
      "name": "ERC20InvalidApprover",
      "type": "error"
    },
    {
      "inputs": [
        {
          "internalType": "address",
          "name": "receiver",
          "type": "address"
        }
      ],
      "name": "ERC20InvalidReceiver",
      "type": "error"
    },
    {
      "inputs": [
        {
          "internalType": "address",
          "name": "sender",
          "type": "address"
        }
      ],
      "name": "ERC20InvalidSender",
      "type": "error"
    },
    {
      "inputs": [
        {
          "internalType": "address",
          "name": "spender",
          "type": "address"
        }
      ],
      "name": "ERC20InvalidSpender",
      "type": "error"
    },
    {
      "inputs": [
        {
          "internalType": "address",
          "name": "receiver",
          "type": "address"
        },
        {
          "internalType": "uint256",
          "name": "assets",
          "type": "uint256"
        },
        {
          "internalType": "uint256",
          "name": "max",
          "type": "uint256"
        }
      ],
      "name": "ERC4626ExceededMaxDeposit",
      "type": "error"
    },
    {
      "inputs": [
        {
          "internalType": "address",
          "name": "receiver",
          "type": "address"
        },
        {
          "internalType": "uint256",
          "name": "shares",
          "type": "uint256"
        },
        {
          "internalType": "uint256",
          "name": "max",
          "type": "uint256"
        }
      ],
      "name": "ERC4626ExceededMaxMint",
      "type": "error"
    },
    {
      "inputs": [
        {
          "internalType": "address",
          "name": "owner",
          "type": "address"
        },
        {
          "internalType": "uint256",
          "name": "shares",
          "type": "uint256"
        },
        {
          "internalType": "uint256",
          "name": "max",
          "type": "uint256"
        }
      ],
      "name": "ERC4626ExceededMaxRedeem",
      "type": "error"
    },
    {
      "inputs": [
        {
          "internalType": "address",
          "name": "owner",
          "type": "address"
        },
        {
          "internalType": "uint256",
          "name": "assets",
          "type": "uint256"
        },
        {
          "internalType": "uint256",
          "name": "max",
          "type": "uint256"
        }
      ],
      "name": "ERC4626ExceededMaxWithdraw",
      "type": "error"
    },
    {
      "inputs": [],
      "name": "EnforcedPause",
      "type": "error"
    },
    {
      "inputs": [],
      "name": "ExpectedPause",
      "type": "error"
    },
    {
      "inputs": [
        {
          "internalType": "address",
          "name": "ark",
          "type": "address"
        }
      ],
      "name": "FleetCommanderArkAlreadyExists",
      "type": "error"
    },
    {
      "inputs": [],
      "name": "FleetCommanderArkAlreadyHasCommander",
      "type": "error"
    },
    {
      "inputs": [
        {
          "internalType": "address",
          "name": "ark",
          "type": "address"
        }
      ],
      "name": "FleetCommanderArkAssetsNotZero",
      "type": "error"
    },
    {
      "inputs": [
        {
          "internalType": "address",
          "name": "ark",
          "type": "address"
        }
      ],
      "name": "FleetCommanderArkDepositCapGreaterThanZero",
      "type": "error"
    },
    {
      "inputs": [
        {
          "internalType": "address",
          "name": "ark",
          "type": "address"
        }
      ],
      "name": "FleetCommanderArkDepositCapZero",
      "type": "error"
    },
    {
      "inputs": [
        {
          "internalType": "address",
          "name": "ark",
          "type": "address"
        }
      ],
      "name": "FleetCommanderArkNotActive",
      "type": "error"
    },
    {
      "inputs": [
        {
          "internalType": "address",
          "name": "ark",
          "type": "address"
        }
      ],
      "name": "FleetCommanderArkNotFound",
      "type": "error"
    },
    {
      "inputs": [],
      "name": "FleetCommanderCantUseMaxUintMovingFromBuffer",
      "type": "error"
    },
    {
      "inputs": [],
      "name": "FleetCommanderCantUseRebalanceOnBufferArk",
      "type": "error"
    },
    {
      "inputs": [
        {
          "internalType": "address",
          "name": "ark",
          "type": "address"
        },
        {
          "internalType": "uint256",
          "name": "amount",
          "type": "uint256"
        },
        {
          "internalType": "uint256",
          "name": "effectiveDepositCap",
          "type": "uint256"
        }
      ],
      "name": "FleetCommanderEffectiveDepositCapExceeded",
      "type": "error"
    },
    {
      "inputs": [
        {
          "internalType": "address",
          "name": "fromArk",
          "type": "address"
        },
        {
          "internalType": "uint256",
          "name": "amount",
          "type": "uint256"
        },
        {
          "internalType": "uint256",
          "name": "maxRebalanceInflow",
          "type": "uint256"
        }
      ],
      "name": "FleetCommanderExceedsMaxInflow",
      "type": "error"
    },
    {
      "inputs": [
        {
          "internalType": "address",
          "name": "fromArk",
          "type": "address"
        },
        {
          "internalType": "uint256",
          "name": "amount",
          "type": "uint256"
        },
        {
          "internalType": "uint256",
          "name": "maxRebalanceOutflow",
          "type": "uint256"
        }
      ],
      "name": "FleetCommanderExceedsMaxOutflow",
      "type": "error"
    },
    {
      "inputs": [],
      "name": "FleetCommanderInsufficientBuffer",
      "type": "error"
    },
    {
      "inputs": [],
      "name": "FleetCommanderInvalidArkAddress",
      "type": "error"
    },
    {
      "inputs": [],
      "name": "FleetCommanderInvalidBufferAdjustment",
      "type": "error"
    },
    {
      "inputs": [
        {
          "internalType": "address",
          "name": "ark",
          "type": "address"
        }
      ],
      "name": "FleetCommanderInvalidSourceArk",
      "type": "error"
    },
    {
      "inputs": [],
      "name": "FleetCommanderInvalidStakingRewardsManager",
      "type": "error"
    },
    {
      "inputs": [],
      "name": "FleetCommanderMovedMoreThanAvailable",
      "type": "error"
    },
    {
      "inputs": [],
      "name": "FleetCommanderNoExcessFunds",
      "type": "error"
    },
    {
      "inputs": [],
      "name": "FleetCommanderNoFundsMoved",
      "type": "error"
    },
    {
      "inputs": [],
      "name": "FleetCommanderPausableMinimumPauseTimeNotElapsed",
      "type": "error"
    },
    {
      "inputs": [
        {
          "internalType": "address",
          "name": "ark",
          "type": "address"
        }
      ],
      "name": "FleetCommanderRebalanceAmountZero",
      "type": "error"
    },
    {
      "inputs": [],
      "name": "FleetCommanderRebalanceNoOperations",
      "type": "error"
    },
    {
      "inputs": [
        {
          "internalType": "uint256",
          "name": "operationsCount",
          "type": "uint256"
        }
      ],
      "name": "FleetCommanderRebalanceTooManyOperations",
      "type": "error"
    },
    {
      "inputs": [],
      "name": "FleetCommanderStakingRewardsManagerNotSet",
      "type": "error"
    },
    {
      "inputs": [],
      "name": "FleetCommanderTransfersDisabled",
      "type": "error"
    },
    {
      "inputs": [
        {
          "internalType": "address",
          "name": "caller",
          "type": "address"
        },
        {
          "internalType": "address",
          "name": "owner",
          "type": "address"
        }
      ],
      "name": "FleetCommanderUnauthorizedRedemption",
      "type": "error"
    },
    {
      "inputs": [
        {
          "internalType": "address",
          "name": "caller",
          "type": "address"
        },
        {
          "internalType": "address",
          "name": "owner",
          "type": "address"
        }
      ],
      "name": "FleetCommanderUnauthorizedWithdrawal",
      "type": "error"
    },
    {
      "inputs": [
        {
          "internalType": "address",
          "name": "invalidAddress",
          "type": "address"
        }
      ],
      "name": "InvalidAccessManagerAddress",
      "type": "error"
    },
    {
      "inputs": [],
      "name": "InvalidFleetCommanderAddress",
      "type": "error"
    },
    {
      "inputs": [],
      "name": "InvalidTipJarAddress",
      "type": "error"
    },
    {
      "inputs": [
        {
          "internalType": "address",
          "name": "token",
          "type": "address"
        }
      ],
      "name": "SafeERC20FailedOperation",
      "type": "error"
    },
    {
      "inputs": [],
      "name": "TipRateCannotExceedOneHundredPercent",
      "type": "error"
    },
    {
      "inputs": [],
      "name": "WithdrawalAmountExceedsMaxBufferLimit",
      "type": "error"
    },
    {
      "anonymous": false,
      "inputs": [
        {
          "indexed": true,
          "internalType": "address",
          "name": "owner",
          "type": "address"
        },
        {
          "indexed": true,
          "internalType": "address",
          "name": "spender",
          "type": "address"
        },
        {
          "indexed": false,
          "internalType": "uint256",
          "name": "value",
          "type": "uint256"
        }
      ],
      "name": "Approval",
      "type": "event"
    },
    {
      "anonymous": false,
      "inputs": [
        {
          "indexed": true,
          "internalType": "address",
          "name": "ark",
          "type": "address"
        }
      ],
      "name": "ArkAdded",
      "type": "event"
    },
    {
      "anonymous": false,
      "inputs": [
        {
          "indexed": true,
          "internalType": "address",
          "name": "ark",
          "type": "address"
        }
      ],
      "name": "ArkRemoved",
      "type": "event"
    },
    {
      "anonymous": false,
      "inputs": [
        {
          "indexed": false,
          "internalType": "uint256",
          "name": "previousCooldown",
          "type": "uint256"
        },
        {
          "indexed": false,
          "internalType": "uint256",
          "name": "newCooldown",
          "type": "uint256"
        }
      ],
      "name": "CooldownUpdated",
      "type": "event"
    },
    {
      "anonymous": false,
      "inputs": [
        {
          "indexed": true,
          "internalType": "address",
          "name": "sender",
          "type": "address"
        },
        {
          "indexed": true,
          "internalType": "address",
          "name": "owner",
          "type": "address"
        },
        {
          "indexed": false,
          "internalType": "uint256",
          "name": "assets",
          "type": "uint256"
        },
        {
          "indexed": false,
          "internalType": "uint256",
          "name": "shares",
          "type": "uint256"
        }
      ],
      "name": "Deposit",
      "type": "event"
    },
    {
      "anonymous": false,
      "inputs": [
        {
          "indexed": false,
          "internalType": "address",
          "name": "newAddress",
          "type": "address"
        }
      ],
      "name": "FeeAddressUpdated",
      "type": "event"
    },
    {
      "anonymous": false,
      "inputs": [
        {
          "indexed": true,
          "internalType": "address",
          "name": "keeper",
          "type": "address"
        },
        {
          "indexed": false,
          "internalType": "uint256",
          "name": "totalMoved",
          "type": "uint256"
        }
      ],
      "name": "FleetCommanderBufferAdjusted",
      "type": "event"
    },
    {
      "anonymous": false,
      "inputs": [
        {
          "indexed": false,
          "internalType": "uint256",
          "name": "newCap",
          "type": "uint256"
        }
      ],
      "name": "FleetCommanderDepositCapUpdated",
      "type": "event"
    },
    {
      "anonymous": false,
      "inputs": [
        {
          "indexed": false,
          "internalType": "uint256",
          "name": "newMaxRebalanceOperations",
          "type": "uint256"
        }
      ],
      "name": "FleetCommanderMaxRebalanceOperationsUpdated",
      "type": "event"
    },
    {
      "anonymous": false,
      "inputs": [
        {
          "indexed": true,
          "internalType": "address",
          "name": "owner",
          "type": "address"
        },
        {
          "indexed": false,
          "internalType": "address",
          "name": "receiver",
          "type": "address"
        },
        {
          "indexed": false,
          "internalType": "uint256",
          "name": "totalRedeemed",
          "type": "uint256"
        }
      ],
      "name": "FleetCommanderRedeemedFromArks",
      "type": "event"
    },
    {
      "anonymous": false,
      "inputs": [
        {
          "indexed": true,
          "internalType": "address",
          "name": "referee",
          "type": "address"
        },
        {
          "indexed": true,
          "internalType": "bytes",
          "name": "referralCode",
          "type": "bytes"
        }
      ],
      "name": "FleetCommanderReferral",
      "type": "event"
    },
    {
      "anonymous": false,
      "inputs": [
        {
          "indexed": false,
          "internalType": "address",
          "name": "newStakingRewards",
          "type": "address"
        }
      ],
      "name": "FleetCommanderStakingRewardsUpdated",
      "type": "event"
    },
    {
      "anonymous": false,
      "inputs": [
        {
          "indexed": true,
          "internalType": "address",
          "name": "owner",
          "type": "address"
        },
        {
          "indexed": false,
          "internalType": "address",
          "name": "receiver",
          "type": "address"
        },
        {
          "indexed": false,
          "internalType": "uint256",
          "name": "totalWithdrawn",
          "type": "uint256"
        }
      ],
      "name": "FleetCommanderWithdrawnFromArks",
      "type": "event"
    },
    {
      "anonymous": false,
      "inputs": [
        {
          "indexed": false,
          "internalType": "uint256",
          "name": "newBalance",
          "type": "uint256"
        }
      ],
      "name": "FleetCommanderminimumBufferBalanceUpdated",
      "type": "event"
    },
    {
      "anonymous": false,
      "inputs": [
        {
          "indexed": true,
          "internalType": "address",
          "name": "user",
          "type": "address"
        },
        {
          "indexed": false,
          "internalType": "uint256",
          "name": "prevBalance",
          "type": "uint256"
        },
        {
          "indexed": false,
          "internalType": "uint256",
          "name": "newBalance",
          "type": "uint256"
        }
      ],
      "name": "FundsBufferBalanceUpdated",
      "type": "event"
    },
    {
      "anonymous": false,
      "inputs": [
        {
          "indexed": true,
          "internalType": "address",
          "name": "keeper",
          "type": "address"
        },
        {
          "indexed": false,
          "internalType": "uint256",
          "name": "prevBalance",
          "type": "uint256"
        },
        {
          "indexed": false,
          "internalType": "uint256",
          "name": "newBalance",
          "type": "uint256"
        }
      ],
      "name": "FundsQueueRefilled",
      "type": "event"
    },
    {
      "anonymous": false,
      "inputs": [
        {
          "indexed": true,
          "internalType": "address",
          "name": "keeper",
          "type": "address"
        },
        {
          "indexed": false,
          "internalType": "uint256",
          "name": "newBalance",
          "type": "uint256"
        }
      ],
      "name": "MinFundsQueueBalanceUpdated",
      "type": "event"
    },
    {
      "anonymous": false,
      "inputs": [
        {
          "indexed": false,
          "internalType": "uint256",
          "name": "newMinimumPauseTime",
          "type": "uint256"
        }
      ],
      "name": "MinimumPauseTimeUpdated",
      "type": "event"
    },
    {
      "anonymous": false,
      "inputs": [
        {
          "indexed": false,
          "internalType": "address",
          "name": "account",
          "type": "address"
        }
      ],
      "name": "Paused",
      "type": "event"
    },
    {
      "anonymous": false,
      "inputs": [
        {
          "indexed": true,
          "internalType": "address",
          "name": "keeper",
          "type": "address"
        },
        {
          "indexed": false,
          "internalType": "uint256",
          "name": "prevBalance",
          "type": "uint256"
        },
        {
          "indexed": false,
          "internalType": "uint256",
          "name": "newBalance",
          "type": "uint256"
        }
      ],
      "name": "QueuedFundsCommitted",
      "type": "event"
    },
    {
      "anonymous": false,
      "inputs": [
        {
          "indexed": true,
          "internalType": "address",
          "name": "keeper",
          "type": "address"
        },
        {
          "components": [
            {
              "internalType": "address",
              "name": "fromArk",
              "type": "address"
            },
            {
              "internalType": "address",
              "name": "toArk",
              "type": "address"
            },
            {
              "internalType": "uint256",
              "name": "amount",
              "type": "uint256"
            },
            {
              "internalType": "bytes",
              "name": "boardData",
              "type": "bytes"
            },
            {
              "internalType": "bytes",
              "name": "disembarkData",
              "type": "bytes"
            }
          ],
          "indexed": false,
          "internalType": "struct RebalanceData[]",
          "name": "rebalances",
          "type": "tuple[]"
        }
      ],
      "name": "Rebalanced",
      "type": "event"
    },
    {
      "anonymous": false,
      "inputs": [
        {
          "indexed": false,
          "internalType": "uint256",
          "name": "tipAmount",
          "type": "uint256"
        }
      ],
      "name": "TipAccrued",
      "type": "event"
    },
    {
      "anonymous": false,
      "inputs": [
        {
          "indexed": false,
          "internalType": "address",
          "name": "newTipJar",
          "type": "address"
        }
      ],
      "name": "TipJarUpdated",
      "type": "event"
    },
    {
      "anonymous": false,
      "inputs": [
        {
          "indexed": false,
          "internalType": "Percentage",
          "name": "newTipRate",
          "type": "uint256"
        }
      ],
      "name": "TipRateUpdated",
      "type": "event"
    },
    {
      "anonymous": false,
      "inputs": [
        {
          "indexed": true,
          "internalType": "address",
          "name": "from",
          "type": "address"
        },
        {
          "indexed": true,
          "internalType": "address",
          "name": "to",
          "type": "address"
        },
        {
          "indexed": false,
          "internalType": "uint256",
          "name": "value",
          "type": "uint256"
        }
      ],
      "name": "Transfer",
      "type": "event"
    },
    {
      "anonymous": false,
      "inputs": [
        {
          "indexed": false,
          "internalType": "address",
          "name": "account",
          "type": "address"
        }
      ],
      "name": "Unpaused",
      "type": "event"
    },
    {
      "anonymous": false,
      "inputs": [
        {
          "indexed": true,
          "internalType": "address",
          "name": "sender",
          "type": "address"
        },
        {
          "indexed": true,
          "internalType": "address",
          "name": "receiver",
          "type": "address"
        },
        {
          "indexed": true,
          "internalType": "address",
          "name": "owner",
          "type": "address"
        },
        {
          "indexed": false,
          "internalType": "uint256",
          "name": "assets",
          "type": "uint256"
        },
        {
          "indexed": false,
          "internalType": "uint256",
          "name": "shares",
          "type": "uint256"
        }
      ],
      "name": "Withdraw",
      "type": "event"
    },
    {
      "inputs": [],
      "name": "DEFAULT_MAX_REBALANCE_OPERATIONS",
      "outputs": [
        {
          "internalType": "uint256",
          "name": "",
          "type": "uint256"
        }
      ],
      "stateMutability": "view",
      "type": "function"
    },
    {
      "inputs": [],
      "name": "INITIAL_MINIMUM_PAUSE_TIME",
      "outputs": [
        {
          "internalType": "uint256",
          "name": "",
          "type": "uint256"
        }
      ],
      "stateMutability": "view",
      "type": "function"
    },
    {
      "inputs": [],
      "name": "MAX_REBALANCE_OPERATIONS",
      "outputs": [
        {
          "internalType": "uint256",
          "name": "",
          "type": "uint256"
        }
      ],
      "stateMutability": "view",
      "type": "function"
    },
    {
      "inputs": [
        {
          "internalType": "address",
          "name": "ark",
          "type": "address"
        }
      ],
      "name": "addArk",
      "outputs": [],
      "stateMutability": "nonpayable",
      "type": "function"
    },
    {
      "inputs": [
        {
          "internalType": "address[]",
          "name": "_arkAddresses",
          "type": "address[]"
        }
      ],
      "name": "addArks",
      "outputs": [],
      "stateMutability": "nonpayable",
      "type": "function"
    },
    {
      "inputs": [
        {
          "components": [
            {
              "internalType": "address",
              "name": "fromArk",
              "type": "address"
            },
            {
              "internalType": "address",
              "name": "toArk",
              "type": "address"
            },
            {
              "internalType": "uint256",
              "name": "amount",
              "type": "uint256"
            },
            {
              "internalType": "bytes",
              "name": "boardData",
              "type": "bytes"
            },
            {
              "internalType": "bytes",
              "name": "disembarkData",
              "type": "bytes"
            }
          ],
          "internalType": "struct RebalanceData[]",
          "name": "rebalanceData",
          "type": "tuple[]"
        }
      ],
      "name": "adjustBuffer",
      "outputs": [],
      "stateMutability": "nonpayable",
      "type": "function"
    },
    {
      "inputs": [
        {
          "internalType": "address",
          "name": "owner",
          "type": "address"
        },
        {
          "internalType": "address",
          "name": "spender",
          "type": "address"
        }
      ],
      "name": "allowance",
      "outputs": [
        {
          "internalType": "uint256",
          "name": "",
          "type": "uint256"
        }
      ],
      "stateMutability": "view",
      "type": "function"
    },
    {
      "inputs": [
        {
          "internalType": "address",
          "name": "spender",
          "type": "address"
        },
        {
          "internalType": "uint256",
          "name": "value",
          "type": "uint256"
        }
      ],
      "name": "approve",
      "outputs": [
        {
          "internalType": "bool",
          "name": "",
          "type": "bool"
        }
      ],
      "stateMutability": "nonpayable",
      "type": "function"
    },
    {
      "inputs": [
        {
          "internalType": "uint256",
          "name": "index",
          "type": "uint256"
        }
      ],
      "name": "arks",
      "outputs": [
        {
          "internalType": "address",
          "name": "",
          "type": "address"
        }
      ],
      "stateMutability": "view",
      "type": "function"
    },
    {
      "inputs": [],
      "name": "asset",
      "outputs": [
        {
          "internalType": "address",
          "name": "",
          "type": "address"
        }
      ],
      "stateMutability": "view",
      "type": "function"
    },
    {
      "inputs": [
        {
          "internalType": "address",
          "name": "account",
          "type": "address"
        }
      ],
      "name": "balanceOf",
      "outputs": [
        {
          "internalType": "uint256",
          "name": "",
          "type": "uint256"
        }
      ],
      "stateMutability": "view",
      "type": "function"
    },
    {
      "inputs": [],
      "name": "bufferArk",
      "outputs": [
        {
          "internalType": "address",
          "name": "",
          "type": "address"
        }
      ],
      "stateMutability": "view",
      "type": "function"
    },
    {
      "inputs": [],
      "name": "config",
      "outputs": [
        {
          "internalType": "contract IArk",
          "name": "bufferArk",
          "type": "address"
        },
        {
          "internalType": "uint256",
          "name": "minimumBufferBalance",
          "type": "uint256"
        },
        {
          "internalType": "uint256",
          "name": "depositCap",
          "type": "uint256"
        },
        {
          "internalType": "uint256",
          "name": "maxRebalanceOperations",
          "type": "uint256"
        },
        {
          "internalType": "address",
          "name": "stakingRewardsManager",
          "type": "address"
        }
      ],
      "stateMutability": "view",
      "type": "function"
    },
    {
      "inputs": [],
      "name": "configurationManager",
      "outputs": [
        {
          "internalType": "contract IConfigurationManager",
          "name": "",
          "type": "address"
        }
      ],
      "stateMutability": "view",
      "type": "function"
    },
    {
      "inputs": [
        {
          "internalType": "uint256",
          "name": "shares",
          "type": "uint256"
        }
      ],
      "name": "convertToAssets",
      "outputs": [
        {
          "internalType": "uint256",
          "name": "",
          "type": "uint256"
        }
      ],
      "stateMutability": "view",
      "type": "function"
    },
    {
      "inputs": [
        {
          "internalType": "uint256",
          "name": "assets",
          "type": "uint256"
        }
      ],
      "name": "convertToShares",
      "outputs": [
        {
          "internalType": "uint256",
          "name": "",
          "type": "uint256"
        }
      ],
      "stateMutability": "view",
      "type": "function"
    },
    {
      "inputs": [],
      "name": "decimals",
      "outputs": [
        {
          "internalType": "uint8",
          "name": "",
          "type": "uint8"
        }
      ],
      "stateMutability": "view",
      "type": "function"
    },
    {
      "inputs": [
        {
          "internalType": "uint256",
          "name": "assets",
          "type": "uint256"
        },
        {
          "internalType": "address",
          "name": "receiver",
          "type": "address"
        }
      ],
      "name": "deposit",
      "outputs": [
        {
          "internalType": "uint256",
          "name": "shares",
          "type": "uint256"
        }
      ],
      "stateMutability": "nonpayable",
      "type": "function"
    },
    {
      "inputs": [
        {
          "internalType": "uint256",
          "name": "assets",
          "type": "uint256"
        },
        {
          "internalType": "address",
          "name": "receiver",
          "type": "address"
        },
        {
          "internalType": "bytes",
          "name": "referralCode",
          "type": "bytes"
        }
      ],
      "name": "deposit",
      "outputs": [
        {
          "internalType": "uint256",
          "name": "",
          "type": "uint256"
        }
      ],
      "stateMutability": "nonpayable",
      "type": "function"
    },
    {
      "inputs": [],
      "name": "details",
      "outputs": [
        {
          "internalType": "string",
          "name": "",
          "type": "string"
        }
      ],
      "stateMutability": "view",
      "type": "function"
    },
    {
      "inputs": [],
      "name": "estimateAccruedTip",
      "outputs": [
        {
          "internalType": "uint256",
          "name": "",
          "type": "uint256"
        }
      ],
      "stateMutability": "view",
      "type": "function"
    },
    {
      "inputs": [],
      "name": "fleetCommanderRewardsManagerFactory",
      "outputs": [
        {
          "internalType": "address",
          "name": "",
          "type": "address"
        }
      ],
      "stateMutability": "view",
      "type": "function"
    },
    {
      "inputs": [
        {
          "components": [
            {
              "internalType": "address",
              "name": "fromArk",
              "type": "address"
            },
            {
              "internalType": "address",
              "name": "toArk",
              "type": "address"
            },
            {
              "internalType": "uint256",
              "name": "amount",
              "type": "uint256"
            },
            {
              "internalType": "bytes",
              "name": "boardData",
              "type": "bytes"
            },
            {
              "internalType": "bytes",
              "name": "disembarkData",
              "type": "bytes"
            }
          ],
          "internalType": "struct RebalanceData[]",
          "name": "rebalanceData",
          "type": "tuple[]"
        }
      ],
      "name": "forceRebalance",
      "outputs": [],
      "stateMutability": "nonpayable",
      "type": "function"
    },
    {
      "inputs": [
        {
          "internalType": "enum ContractSpecificRoles",
          "name": "roleName",
          "type": "uint8"
        },
        {
          "internalType": "address",
          "name": "roleTargetContract",
          "type": "address"
        }
      ],
      "name": "generateRole",
      "outputs": [
        {
          "internalType": "bytes32",
          "name": "",
          "type": "bytes32"
        }
      ],
      "stateMutability": "pure",
      "type": "function"
    },
    {
      "inputs": [],
      "name": "getArks",
      "outputs": [
        {
          "internalType": "address[]",
          "name": "",
          "type": "address[]"
        }
      ],
      "stateMutability": "view",
      "type": "function"
    },
    {
      "inputs": [],
      "name": "getConfig",
      "outputs": [
        {
          "components": [
            {
              "internalType": "contract IArk",
              "name": "bufferArk",
              "type": "address"
            },
            {
              "internalType": "uint256",
              "name": "minimumBufferBalance",
              "type": "uint256"
            },
            {
              "internalType": "uint256",
              "name": "depositCap",
              "type": "uint256"
            },
            {
              "internalType": "uint256",
              "name": "maxRebalanceOperations",
              "type": "uint256"
            },
            {
              "internalType": "address",
              "name": "stakingRewardsManager",
              "type": "address"
            }
          ],
          "internalType": "struct FleetConfig",
          "name": "",
          "type": "tuple"
        }
      ],
      "stateMutability": "view",
      "type": "function"
    },
    {
      "inputs": [],
      "name": "getCooldown",
      "outputs": [
        {
          "internalType": "uint256",
          "name": "",
          "type": "uint256"
        }
      ],
      "stateMutability": "view",
      "type": "function"
    },
    {
      "inputs": [
        {
          "internalType": "contract IArk",
          "name": "ark",
          "type": "address"
        }
      ],
      "name": "getEffectiveArkDepositCap",
      "outputs": [
        {
          "internalType": "uint256",
          "name": "",
          "type": "uint256"
        }
      ],
      "stateMutability": "view",
      "type": "function"
    },
    {
      "inputs": [],
      "name": "getLastActionTimestamp",
      "outputs": [
        {
          "internalType": "uint256",
          "name": "",
          "type": "uint256"
        }
      ],
      "stateMutability": "view",
      "type": "function"
    },
    {
      "inputs": [],
      "name": "harborCommand",
      "outputs": [
        {
          "internalType": "address",
          "name": "",
          "type": "address"
        }
      ],
      "stateMutability": "view",
      "type": "function"
    },
    {
      "inputs": [
        {
          "internalType": "address",
          "name": "account",
          "type": "address"
        }
      ],
      "name": "hasAdmiralsQuartersRole",
      "outputs": [
        {
          "internalType": "bool",
          "name": "",
          "type": "bool"
        }
      ],
      "stateMutability": "view",
      "type": "function"
    },
    {
      "inputs": [
        {
          "internalType": "address",
          "name": "arkAddress",
          "type": "address"
        }
      ],
      "name": "isArkActive",
      "outputs": [
        {
          "internalType": "bool",
          "name": "",
          "type": "bool"
        }
      ],
      "stateMutability": "view",
      "type": "function"
    },
    {
      "inputs": [
        {
          "internalType": "address",
          "name": "ark",
          "type": "address"
        }
      ],
      "name": "isArkWithdrawable",
      "outputs": [
        {
          "internalType": "bool",
          "name": "isWithdrawable",
          "type": "bool"
        }
      ],
      "stateMutability": "view",
      "type": "function"
    },
    {
      "inputs": [],
      "name": "lastTipTimestamp",
      "outputs": [
        {
          "internalType": "uint256",
          "name": "",
          "type": "uint256"
        }
      ],
      "stateMutability": "view",
      "type": "function"
    },
    {
      "inputs": [
        {
          "internalType": "address",
          "name": "owner",
          "type": "address"
        }
      ],
      "name": "maxBufferRedeem",
      "outputs": [
        {
          "internalType": "uint256",
          "name": "_maxBufferRedeem",
          "type": "uint256"
        }
      ],
      "stateMutability": "view",
      "type": "function"
    },
    {
      "inputs": [
        {
          "internalType": "address",
          "name": "owner",
          "type": "address"
        }
      ],
      "name": "maxBufferWithdraw",
      "outputs": [
        {
          "internalType": "uint256",
          "name": "_maxBufferWithdraw",
          "type": "uint256"
        }
      ],
      "stateMutability": "view",
      "type": "function"
    },
    {
      "inputs": [
        {
          "internalType": "address",
          "name": "owner",
          "type": "address"
        }
      ],
      "name": "maxDeposit",
      "outputs": [
        {
          "internalType": "uint256",
          "name": "_maxDeposit",
          "type": "uint256"
        }
      ],
      "stateMutability": "view",
      "type": "function"
    },
    {
      "inputs": [
        {
          "internalType": "address",
          "name": "owner",
          "type": "address"
        }
      ],
      "name": "maxMint",
      "outputs": [
        {
          "internalType": "uint256",
          "name": "_maxMint",
          "type": "uint256"
        }
      ],
      "stateMutability": "view",
      "type": "function"
    },
    {
      "inputs": [
        {
          "internalType": "address",
          "name": "owner",
          "type": "address"
        }
      ],
      "name": "maxRedeem",
      "outputs": [
        {
          "internalType": "uint256",
          "name": "_maxRedeem",
          "type": "uint256"
        }
      ],
      "stateMutability": "view",
      "type": "function"
    },
    {
      "inputs": [
        {
          "internalType": "address",
          "name": "owner",
          "type": "address"
        }
      ],
      "name": "maxWithdraw",
      "outputs": [
        {
          "internalType": "uint256",
          "name": "_maxWithdraw",
          "type": "uint256"
        }
      ],
      "stateMutability": "view",
      "type": "function"
    },
    {
      "inputs": [],
      "name": "minimumPauseTime",
      "outputs": [
        {
          "internalType": "uint256",
          "name": "",
          "type": "uint256"
        }
      ],
      "stateMutability": "view",
      "type": "function"
    },
    {
      "inputs": [
        {
          "internalType": "uint256",
          "name": "shares",
          "type": "uint256"
        },
        {
          "internalType": "address",
          "name": "receiver",
          "type": "address"
        }
      ],
      "name": "mint",
      "outputs": [
        {
          "internalType": "uint256",
          "name": "assets",
          "type": "uint256"
        }
      ],
      "stateMutability": "nonpayable",
      "type": "function"
    },
    {
      "inputs": [],
      "name": "name",
      "outputs": [
        {
          "internalType": "string",
          "name": "",
          "type": "string"
        }
      ],
      "stateMutability": "view",
      "type": "function"
    },
    {
      "inputs": [],
      "name": "pause",
      "outputs": [],
      "stateMutability": "nonpayable",
      "type": "function"
    },
    {
      "inputs": [],
      "name": "pauseStartTime",
      "outputs": [
        {
          "internalType": "uint256",
          "name": "",
          "type": "uint256"
        }
      ],
      "stateMutability": "view",
      "type": "function"
    },
    {
      "inputs": [],
      "name": "paused",
      "outputs": [
        {
          "internalType": "bool",
          "name": "",
          "type": "bool"
        }
      ],
      "stateMutability": "view",
      "type": "function"
    },
    {
      "inputs": [
        {
          "internalType": "uint256",
          "name": "assets",
          "type": "uint256"
        }
      ],
      "name": "previewDeposit",
      "outputs": [
        {
          "internalType": "uint256",
          "name": "",
          "type": "uint256"
        }
      ],
      "stateMutability": "view",
      "type": "function"
    },
    {
      "inputs": [
        {
          "internalType": "uint256",
          "name": "shares",
          "type": "uint256"
        }
      ],
      "name": "previewMint",
      "outputs": [
        {
          "internalType": "uint256",
          "name": "",
          "type": "uint256"
        }
      ],
      "stateMutability": "view",
      "type": "function"
    },
    {
      "inputs": [
        {
          "internalType": "uint256",
          "name": "shares",
          "type": "uint256"
        }
      ],
      "name": "previewRedeem",
      "outputs": [
        {
          "internalType": "uint256",
          "name": "",
          "type": "uint256"
        }
      ],
      "stateMutability": "view",
      "type": "function"
    },
    {
      "inputs": [
        {
          "internalType": "uint256",
          "name": "assets",
          "type": "uint256"
        }
      ],
      "name": "previewWithdraw",
      "outputs": [
        {
          "internalType": "uint256",
          "name": "",
          "type": "uint256"
        }
      ],
      "stateMutability": "view",
      "type": "function"
    },
    {
      "inputs": [],
      "name": "raft",
      "outputs": [
        {
          "internalType": "address",
          "name": "",
          "type": "address"
        }
      ],
      "stateMutability": "view",
      "type": "function"
    },
    {
      "inputs": [
        {
          "components": [
            {
              "internalType": "address",
              "name": "fromArk",
              "type": "address"
            },
            {
              "internalType": "address",
              "name": "toArk",
              "type": "address"
            },
            {
              "internalType": "uint256",
              "name": "amount",
              "type": "uint256"
            },
            {
              "internalType": "bytes",
              "name": "boardData",
              "type": "bytes"
            },
            {
              "internalType": "bytes",
              "name": "disembarkData",
              "type": "bytes"
            }
          ],
          "internalType": "struct RebalanceData[]",
          "name": "rebalanceData",
          "type": "tuple[]"
        }
      ],
      "name": "rebalance",
      "outputs": [],
      "stateMutability": "nonpayable",
      "type": "function"
    },
    {
      "inputs": [
        {
          "internalType": "uint256",
          "name": "shares",
          "type": "uint256"
        },
        {
          "internalType": "address",
          "name": "receiver",
          "type": "address"
        },
        {
          "internalType": "address",
          "name": "owner",
          "type": "address"
        }
      ],
      "name": "redeem",
      "outputs": [
        {
          "internalType": "uint256",
          "name": "assets",
          "type": "uint256"
        }
      ],
      "stateMutability": "nonpayable",
      "type": "function"
    },
    {
      "inputs": [
        {
          "internalType": "uint256",
          "name": "shares",
          "type": "uint256"
        },
        {
          "internalType": "address",
          "name": "receiver",
          "type": "address"
        },
        {
          "internalType": "address",
          "name": "owner",
          "type": "address"
        }
      ],
      "name": "redeemFromArks",
      "outputs": [
        {
          "internalType": "uint256",
          "name": "totalAssetsToWithdraw",
          "type": "uint256"
        }
      ],
      "stateMutability": "nonpayable",
      "type": "function"
    },
    {
      "inputs": [
        {
          "internalType": "uint256",
          "name": "shares",
          "type": "uint256"
        },
        {
          "internalType": "address",
          "name": "receiver",
          "type": "address"
        },
        {
          "internalType": "address",
          "name": "owner",
          "type": "address"
        }
      ],
      "name": "redeemFromBuffer",
      "outputs": [
        {
          "internalType": "uint256",
          "name": "assets",
          "type": "uint256"
        }
      ],
      "stateMutability": "nonpayable",
      "type": "function"
    },
    {
      "inputs": [
        {
          "internalType": "address",
          "name": "ark",
          "type": "address"
        }
      ],
      "name": "removeArk",
      "outputs": [],
      "stateMutability": "nonpayable",
      "type": "function"
    },
    {
      "inputs": [
        {
          "internalType": "address",
          "name": "ark",
          "type": "address"
        },
        {
          "internalType": "uint256",
          "name": "newDepositCap",
          "type": "uint256"
        }
      ],
      "name": "setArkDepositCap",
      "outputs": [],
      "stateMutability": "nonpayable",
      "type": "function"
    },
    {
      "inputs": [
        {
          "internalType": "address",
          "name": "ark",
          "type": "address"
        },
        {
          "internalType": "Percentage",
          "name": "newMaxDepositPercentageOfTVL",
          "type": "uint256"
        }
      ],
      "name": "setArkMaxDepositPercentageOfTVL",
      "outputs": [],
      "stateMutability": "nonpayable",
      "type": "function"
    },
    {
      "inputs": [
        {
          "internalType": "address",
          "name": "ark",
          "type": "address"
        },
        {
          "internalType": "uint256",
          "name": "newMaxRebalanceInflow",
          "type": "uint256"
        }
      ],
      "name": "setArkMaxRebalanceInflow",
      "outputs": [],
      "stateMutability": "nonpayable",
      "type": "function"
    },
    {
      "inputs": [
        {
          "internalType": "address",
          "name": "ark",
          "type": "address"
        },
        {
          "internalType": "uint256",
          "name": "newMaxRebalanceOutflow",
          "type": "uint256"
        }
      ],
      "name": "setArkMaxRebalanceOutflow",
      "outputs": [],
      "stateMutability": "nonpayable",
      "type": "function"
    },
    {
      "inputs": [
        {
          "internalType": "uint256",
          "name": "newCap",
          "type": "uint256"
        }
      ],
      "name": "setFleetDepositCap",
      "outputs": [],
      "stateMutability": "nonpayable",
      "type": "function"
    },
    {
      "inputs": [
        {
          "internalType": "uint256",
          "name": "newMaxRebalanceOperations",
          "type": "uint256"
        }
      ],
      "name": "setMaxRebalanceOperations",
      "outputs": [],
      "stateMutability": "nonpayable",
      "type": "function"
    },
    {
      "inputs": [
        {
          "internalType": "uint256",
          "name": "newMinimumBalance",
          "type": "uint256"
        }
      ],
      "name": "setMinimumBufferBalance",
      "outputs": [],
      "stateMutability": "nonpayable",
      "type": "function"
    },
    {
      "inputs": [
        {
          "internalType": "uint256",
          "name": "_newMinimumPauseTime",
          "type": "uint256"
        }
      ],
      "name": "setMinimumPauseTime",
      "outputs": [],
      "stateMutability": "nonpayable",
      "type": "function"
    },
    {
      "inputs": [
        {
          "internalType": "address",
          "name": "newStakingRewardsManager",
          "type": "address"
        }
      ],
      "name": "setStakingRewardsManager",
      "outputs": [],
      "stateMutability": "nonpayable",
      "type": "function"
    },
    {
      "inputs": [
        {
          "internalType": "Percentage",
          "name": "newTipRate",
          "type": "uint256"
        }
      ],
      "name": "setTipRate",
      "outputs": [],
      "stateMutability": "nonpayable",
      "type": "function"
    },
    {
      "inputs": [],
      "name": "symbol",
      "outputs": [
        {
          "internalType": "string",
          "name": "",
          "type": "string"
        }
      ],
      "stateMutability": "view",
      "type": "function"
    },
    {
      "inputs": [],
      "name": "tip",
      "outputs": [
        {
          "internalType": "uint256",
          "name": "",
          "type": "uint256"
        }
      ],
      "stateMutability": "nonpayable",
      "type": "function"
    },
    {
      "inputs": [],
      "name": "tipJar",
      "outputs": [
        {
          "internalType": "address",
          "name": "",
          "type": "address"
        }
      ],
      "stateMutability": "view",
      "type": "function"
    },
    {
      "inputs": [],
      "name": "tipRate",
      "outputs": [
        {
          "internalType": "Percentage",
          "name": "",
          "type": "uint256"
        }
      ],
      "stateMutability": "view",
      "type": "function"
    },
    {
      "inputs": [],
      "name": "totalAssets",
      "outputs": [
        {
          "internalType": "uint256",
          "name": "",
          "type": "uint256"
        }
      ],
      "stateMutability": "view",
      "type": "function"
    },
    {
      "inputs": [],
      "name": "totalSupply",
      "outputs": [
        {
          "internalType": "uint256",
          "name": "",
          "type": "uint256"
        }
      ],
      "stateMutability": "view",
      "type": "function"
    },
    {
      "inputs": [
        {
          "internalType": "address",
          "name": "to",
          "type": "address"
        },
        {
          "internalType": "uint256",
          "name": "amount",
          "type": "uint256"
        }
      ],
      "name": "transfer",
      "outputs": [
        {
          "internalType": "bool",
          "name": "",
          "type": "bool"
        }
      ],
      "stateMutability": "nonpayable",
      "type": "function"
    },
    {
      "inputs": [
        {
          "internalType": "address",
          "name": "from",
          "type": "address"
        },
        {
          "internalType": "address",
          "name": "to",
          "type": "address"
        },
        {
          "internalType": "uint256",
          "name": "amount",
          "type": "uint256"
        }
      ],
      "name": "transferFrom",
      "outputs": [
        {
          "internalType": "bool",
          "name": "",
          "type": "bool"
        }
      ],
      "stateMutability": "nonpayable",
      "type": "function"
    },
    {
      "inputs": [],
      "name": "treasury",
      "outputs": [
        {
          "internalType": "address",
          "name": "",
          "type": "address"
        }
      ],
      "stateMutability": "view",
      "type": "function"
    },
    {
      "inputs": [],
      "name": "unpause",
      "outputs": [],
      "stateMutability": "nonpayable",
      "type": "function"
    },
    {
      "inputs": [
        {
          "internalType": "uint256",
          "name": "newCooldown",
          "type": "uint256"
        }
      ],
      "name": "updateRebalanceCooldown",
      "outputs": [],
      "stateMutability": "nonpayable",
      "type": "function"
    },
    {
      "inputs": [
        {
          "internalType": "uint256",
          "name": "assets",
          "type": "uint256"
        },
        {
          "internalType": "address",
          "name": "receiver",
          "type": "address"
        },
        {
          "internalType": "address",
          "name": "owner",
          "type": "address"
        }
      ],
      "name": "withdraw",
      "outputs": [
        {
          "internalType": "uint256",
          "name": "shares",
          "type": "uint256"
        }
      ],
      "stateMutability": "nonpayable",
      "type": "function"
    },
    {
      "inputs": [
        {
          "internalType": "uint256",
          "name": "assets",
          "type": "uint256"
        },
        {
          "internalType": "address",
          "name": "receiver",
          "type": "address"
        },
        {
          "internalType": "address",
          "name": "owner",
          "type": "address"
        }
      ],
      "name": "withdrawFromArks",
      "outputs": [
        {
          "internalType": "uint256",
          "name": "totalSharesToRedeem",
          "type": "uint256"
        }
      ],
      "stateMutability": "nonpayable",
      "type": "function"
    },
    {
      "inputs": [
        {
          "internalType": "uint256",
          "name": "assets",
          "type": "uint256"
        },
        {
          "internalType": "address",
          "name": "receiver",
          "type": "address"
        },
        {
          "internalType": "address",
          "name": "owner",
          "type": "address"
        }
      ],
      "name": "withdrawFromBuffer",
      "outputs": [
        {
          "internalType": "uint256",
          "name": "shares",
          "type": "uint256"
        }
      ],
      "stateMutability": "nonpayable",
      "type": "function"
    },
    {
      "inputs": [],
      "name": "withdrawableTotalAssets",
      "outputs": [
        {
          "internalType": "uint256",
          "name": "",
          "type": "uint256"
        }
      ],
      "stateMutability": "view",
      "type": "function"
    }
  ],
  "bytecode": "0x60e08060405234610726576190c6803803809161001c82856109ec565b8339810190602081830312610726578051906001600160401b038211610726570190610140828203126107265760405190610056826109d0565b82516001600160401b0381116107265781610072918501610a2a565b825260208301516001600160401b0381116107265781610093918501610a2a565b60208301908152604084015190916001600160401b038211610726576100ba918501610a2a565b918260408201526100cd60608501610a70565b9160608201928084526100e260808701610a70565b9560808401948786526100f760a08301610a70565b9560a0860198878a5260c08401519460c0880195865260e0850151998a60e08a0152610120610100870151966101008b019788520151998a6101208b015260018060a01b031698519160018060a01b03169260018060a01b03169180519060018060401b0382116106de5760035490600182811c921680156109c6575b60208310146106c05781601f849311610958575b50602090601f83116001146108f2575f926108e7575b50508160011b915f199060031b1c1916176003555b8051906001600160401b0382116106de5760045490600182811c921680156108dd575b60208310146106c05781601f84931161086f575b50602090601f8311600114610809575f926107fe575b50508160011b915f199060031b1c1916176004555b80156107eb576040516301ffc9a760e01b81526338c7ccdb60e01b6004820152602081602481855afa9081156107e0575f916107a5575b501561079357600580546001600160a81b0319169190911790556201fa406006558015610784576080525197519051604051986001600160a01b039283169291821691166102998a6109d0565b6040998a9283516102aa85826109ec565b600981526842756666657241726b60b81b602082015282528351946102cf85876109ec565b601186527042756666657241726b2064657461696c7360781b602087015260208301958652848301938452606083019182526080830190815260a083015f19815260c084015f19815260e08501915f1983526101008601935f855261012087019568056bc75e2d63100000875289519a61263090818d01998d8b1060018060401b038c11176106de578c6101408f9e928f938e6103939761038096616a9690395251918d01526101808c0190610a84565b90518a8203603f190160608c0152610a84565b98516001600160a01b0390811660808a01529051811660a089015290511660c08701525160e08601525161010085015251610120840152511515610140830152516101608201523060209091015203905ff090811561077a57915191516080518851633df94cfb60e21b81526001600160a01b03938416949093909160209185916004918391165afa928315610732575f9361073c575b506005548951630f07f82960e01b81526001600160a01b03918216600482015230602482015293602091859160449183915f91165af1928315610732575f936106f2575b50885160a08101936001600160401b038511828610176106de576080948b52858252826020830152838b830152600a606083015260018060a01b031693849101528360018060a01b03196008541617600855600955600a55600a600b5560018060a01b0319600c541617600c555f526010602052845f20600160ff198254161790555180519060018060401b0382116106de57600d5490600182811c921680156106d4575b60208310146106c05781601f849311610652575b50602090601f83116001146105ec575f926105e1575b50508160011b915f199060031b1c191617600d555b61055b81610aa8565b90156105d9575b60c05260a0526011554260125560135551615f4a9081610b4c82396080518181816107b1015281816110400152818161117801528181611c2c015281816131340152613d14015260a051818181610ad201528181612c290152818161361b0152818161448c0152614980015260c051816109dd0152f35b506012610562565b015190505f8061053d565b600d5f9081528281209350601f198516905b81811061063a5750908460019594939210610622575b505050811b01600d55610552565b01515f1960f88460031b161c191690555f8080610614565b929360206001819287860151815501950193016105fe565b600d5f529091507fd7b6990105719101dabeb77144f2a3385c8033acd3af97e9423a695e81ad1eb5601f840160051c810191602085106106b6575b90601f859493920160051c01905b8181106106a85750610527565b5f815584935060010161069b565b909150819061068d565b634e487b7160e01b5f52602260045260245ffd5b91607f1691610513565b634e487b7160e01b5f52604160045260245ffd5b9092506020813d60201161072a575b8161070e602093836109ec565b810103126107265761071f90610a70565b915f61046e565b5f80fd5b3d9150610701565b89513d5f823e3d90fd5b92506020833d602011610772575b81610757602093836109ec565b8101031261072657602061076b5f94610a70565b935061042a565b3d915061074a565b87513d5f823e3d90fd5b63f1634df960e01b5f5260045ffd5b6347bd7c1d60e01b5f5260045260245ffd5b90506020813d6020116107d8575b816107c0602093836109ec565b8101031261072657518015158103610726575f61024c565b3d91506107b3565b6040513d5f823e3d90fd5b6347bd7c1d60e01b5f525f60045260245ffd5b015190505f80610200565b60045f9081528281209350601f198516905b818110610857575090846001959493921061083f575b505050811b01600455610215565b01515f1960f88460031b161c191690555f8080610831565b9293602060018192878601518155019501930161081b565b60045f529091507f8a35acfbc15ff81a39ae7d344fd709f28e8600b4aa8c65c6b64bfe7fe36bd19b601f840160051c810191602085106108d3575b90601f859493920160051c01905b8181106108c557506101ea565b5f81558493506001016108b8565b90915081906108aa565b91607f16916101d6565b015190505f8061019e565b60035f9081528281209350601f198516905b8181106109405750908460019594939210610928575b505050811b016003556101b3565b01515f1960f88460031b161c191690555f808061091a565b92936020600181928786015181550195019301610904565b60035f529091507fc2575a0e9e593c00f959f8c92f12db2869c3395a3b0502d05e2516446f71f85b601f840160051c810191602085106109bc575b90601f859493920160051c01905b8181106109ae5750610188565b5f81558493506001016109a1565b9091508190610993565b91607f1691610174565b61014081019081106001600160401b038211176106de57604052565b601f909101601f19168101906001600160401b038211908210176106de57604052565b6001600160401b0381116106de57601f01601f191660200190565b81601f8201121561072657805190610a4182610a0f565b92610a4f60405194856109ec565b8284526020838301011161072657815f9260208093018386015e8301015290565b51906001600160a01b038216820361072657565b805180835260209291819084018484015e5f828201840152601f01601f1916010190565b5f8091604051602081019063313ce56760e01b825260048152610acc6024826109ec565b51916001600160a01b03165afa3d15610b43573d90610aea82610a0f565b91610af860405193846109ec565b82523d5f602084013e5b80610b37575b610b14575b505f905f90565b602081805181010312610726576020015160ff8111610b0d579060ff6001921690565b50602081511015610b08565b606090610b0256fe60806040526004361015610011575f80fd5b5f3560e01c806301e1d1141461051557806306fdde031461051057806307a2d13a146104b6578063095ea7b31461050b5780630a28a47714610506578063117d8ae014610501578063133ab579146104fc578063168b813a1461048e57806318160ddd146104f7578063218e4a15146104f257806323b872dd146104ed5780632755cd2d146104e8578063313ce567146104e35780633152d5d1146104de57806334050560146104d957806338d52e0f146104d45780633a7c9f0e146104cf5780633e314c76146104ca5780633f4ba83a146104c5578063402d267d146104c0578063498e76a0146104bb5780634cdad506146104b65780634daecb9c146104b15780635340c012146104ac578063565974d3146104a75780635822198f146104a25780635b0f83f31461049d5780635c975abb146104985780635e5a9ea9146104935780635ed975e51461048e5780635f538f6f1461048957806361d027b314610484578063680e57ab1461047f578063684826261461047a57806369b3054b146104755780636e553f651461047057806370a082311461046b57806371aedbc11461046657806379502c55146104615780637aaceb951461045c5780638456cb59146104575780639265b76e1461045257806394bf804d1461044d57806394d7eaa41461044857806395d89b411461044357806396c25a381461043e578063a039e94414610439578063a0506f0b14610434578063a9059cbb1461042f578063b3d7f6b91461042a578063b460af9414610425578063b637766c14610420578063ba0876521461041b578063c3f909d414610416578063c63d75b614610411578063c6e6f592146103b7578063c8169aa11461040c578063c9c667e314610407578063cada514314610402578063cc5b1e55146103fd578063ce96cb77146103f8578063d25dd101146103f3578063d45a07a1146103ee578063d570ee47146103e9578063d902d41a146103e4578063d905777e146103df578063dc9de0a8146103da578063dd62ed3e146103d5578063e193858f146103d0578063e37d5b7f146103cb578063e7b20e5b146103c6578063ebc136d0146103c1578063ef2fc472146103bc578063ef8b30f7146103b7578063f1cd665b146103b2578063f3577816146103ad578063f3ba553e146103a8578063f7e533ec146103a3578063faa9bce91461039e578063fcf2849f146103995763ff32a42a14610394575f80fd5b612771565b612674565b6125db565b612541565b6124b6565b61249d565b612438565b611bd1565b612411565b612331565b612287565b6121ce565b61211e565b6120cc565b61201c565b611ff5565b611f76565b611f5c565b611ed1565b611eaa565b611e83565b611dd9565b611cad565b611c17565b611bef565b611baa565b611af8565b611a19565b61198e565b6118a2565b611884565b611859565b61183c565b611823565b61176a565b6116b5565b611698565b61151f565b6114f8565b6113c1565b611395565b611345565b611328565b6112ee565b6112c4565b61125f565b6111e2565b6111c5565b611153565b61113a565b610909565b6110b2565b61108d565b61101b565b610f58565b610ea3565b610df3565b610d46565b610675565b610d29565b610d02565b610b6a565b610b43565b610b2a565b610abd565b610a32565b610a15565b6109c9565b61099f565b61095e565b610941565b610924565b610833565b61078d565b61075e565b6106b1565b610582565b610528565b5f91031261052457565b5f80fd5b34610524575f3660031901126105245760206105426127d0565b604051908152f35b805180835260209291819084018484015e5f828201840152601f01601f1916010190565b90602061057f92818152019061054a565b90565b34610524575f366003190112610524576040515f6003548060011c906001811690811561066b575b60208310821461065757828552602085019190811561063e57506001146105ec575b6105e8846105dc81860382610e82565b6040519182918261056e565b0390f35b60035f9081529250907fc2575a0e9e593c00f959f8c92f12db2869c3395a3b0502d05e2516446f71f85b5b81841061062a575050016105dc826105cc565b805484840152602090930192600101610617565b60ff191682525090151560051b0190506105dc826105cc565b634e487b7160e01b5f52602260045260245ffd5b91607f16916105aa565b34610524576020366003190112610524576020610542600435613ee7565b6001600160a01b0381160361052457565b35906106af82610693565b565b34610524576040366003190112610524576004356106ce81610693565b602435331561074b576001600160a01b038216918215610738576106fe8291335f52600160205260405f20610dde565b5560405190815233907f8c5be1e5ebec7d5bd14f71427d1e84f3dd0314c0f7b2291e5b200ac8c7c3b92590602090a3602060405160018152f35b634a1406b160e11b5f525f60045260245ffd5b63e602df0560e01b5f525f60045260245ffd5b34610524576020366003190112610524576020610542600435613f42565b6001600160a01b0316600452602490565b34610524575f36600319011261052457604051628bec5760e51b81526020816004817f00000000000000000000000000000000000000000000000000000000000000006001600160a01b03165afa90811561082e575f916107ff575b506040516001600160a01b039091168152602090f35b610821915060203d602011610827575b6108198183610e82565b8101906127f8565b5f6107e9565b503d61080f565b61280d565b346105245760203660031901126105245760043530158015610875575b61085f5761085d90612852565b005b6363b52ed760e11b5f526108723361077c565b5ffd5b506005546108c19060209061089a906001600160a01b03165b6001600160a01b031690565b6108a330612f8b565b906040518080958194632474521560e21b8352339060048401612839565b03915afa90811561082e575f916108da575b5015610850565b6108fc915060203d602011610902575b6108f48183610e82565b810190612825565b5f6108d3565b503d6108ea565b34610524575f366003190112610524576020604051600a8152f35b34610524575f366003190112610524576020600254604051908152f35b34610524575f366003190112610524576020601354604051908152f35b3461052457606036600319011261052457602061099560043561098081610693565b60243561098c81610693565b6044359161288b565b6040519015158152f35b34610524575f366003190112610524576109b7613f9d565b60206105426109c461311f565b613fbb565b34610524575f3660031901126105245760ff7f00000000000000000000000000000000000000000000000000000000000000001660ff8111610a1057602090604051908152f35b6128df565b34610524575f366003190112610524576020601454604051908152f35b3461052457604036600319011261052457600435610a4f81610693565b60243530158015610a68575b61085f5761085d916128f3565b50600554610a859060209061089a906001600160a01b031661088e565b03915afa90811561082e575f91610a9e575b5015610a5b565b610ab7915060203d602011610902576108f48183610e82565b5f610a97565b34610524575f366003190112610524576040517f00000000000000000000000000000000000000000000000000000000000000006001600160a01b03168152602090f35b60609060031901126105245760043590602435610b1d81610693565b9060443561057f81610693565b34610524576020610542610b3d36610b01565b9161296a565b34610524576020366003190112610524576020610542600435610b6581610693565b612ad7565b34610524575f36600319011261052457600554610b8f906001600160a01b031661088e565b60405163093a953d60e21b8152602081600481855afa90811561082e57610bd7916020915f91610ce5575b5060405180938192632474521560e21b8352339060048401612839565b0381855afa90811561082e575f91610cc6575b50159081610c13575b50610c005761085d612b54565b636b2a758d60e01b5f526108723361077c565b604051630ccc574960e41b8152909150602081600481855afa801561082e57610c5e926020925f92610c97575b506040518080958194632474521560e21b8352339060048401612839565b03915afa90811561082e575f91610c78575b50155f610bf3565b610c91915060203d602011610902576108f48183610e82565b5f610c70565b610cb8919250833d8511610cbf575b610cb08183610e82565b810190612ac8565b905f610c40565b503d610ca6565b610cdf915060203d602011610902576108f48183610e82565b5f610bea565b610cfc9150823d8411610cbf57610cb08183610e82565b5f610bba565b34610524576020366003190112610524576020610542600435610d2481610693565b612bdc565b34610524575f366003190112610524576020601154604051908152f35b346105245760203660031901126105245760043530158015610d70575b61085f5761085d90612ca7565b50600554610d8d9060209061089a906001600160a01b031661088e565b03915afa90811561082e575f91610da6575b5015610d63565b610dbf915060203d602011610902576108f48183610e82565b5f610d9f565b6001600160a01b03165f90815260208190526040902090565b9060018060a01b03165f5260205260405f2090565b3461052457602036600319011261052457600435610e1081610693565b60018060a01b03165f526010602052602060ff60405f2054166040519015158152f35b634e487b7160e01b5f52604160045260245ffd5b60a081019081106001600160401b03821117610e6257604052565b610e33565b604081019081106001600160401b03821117610e6257604052565b90601f801991011681019081106001600160401b03821117610e6257604052565b34610524575f366003190112610524576040515f600d548060011c9060018116908115610f4e575b60208310821461065757828552602085019190811561063e5750600114610efc576105e8846105dc81860382610e82565b600d5f9081529250907fd7b6990105719101dabeb77144f2a3385c8033acd3af97e9423a695e81ad1eb55b818410610f3a575050016105dc826105cc565b805484840152602090930192600101610f27565b91607f1691610ecb565b3461052457602036600319011261052457600435600554610f81906001600160a01b031661088e565b604051630ccc574960e41b8152602081600481855afa801561082e57610fc8926020925f92610c9757506040518080958194632474521560e21b8352339060048401612839565b03915afa90811561082e575f91610ffc575b5015610fe95761085d90612ce0565b630ea7d7ed60e21b5f526108723361077c565b611015915060203d602011610902576108f48183610e82565b5f610fda565b34610524575f36600319011261052457604051635b0f83f360e01b81526020816004817f00000000000000000000000000000000000000000000000000000000000000006001600160a01b03165afa90811561082e575f916107ff57506040516001600160a01b039091168152602090f35b34610524575f36600319011261052457602060ff60055460a01c166040519015158152f35b34610524576020366003190112610524576004356110cf81610693565b301580156110e5575b61085f5761085d90612d4a565b506005546111029060209061089a906001600160a01b031661088e565b03915afa90811561082e575f9161111b575b50156110d8565b611134915060203d602011610902576108f48183610e82565b5f611114565b3461052457602061054261114d36610b01565b91612e85565b34610524575f366003190112610524576040516361d027b360e01b81526020816004817f00000000000000000000000000000000000000000000000000000000000000006001600160a01b03165afa90811561082e575f916107ff57506040516001600160a01b039091168152602090f35b34610524575f366003190112610524576020600654604051908152f35b34610524575f366003190112610524576012544203428111610a10576040516318160ddd60e01b8152602081600481305afa91821561082e576105e892611230925f91611240575b506146d1565b6040519081529081906020820190565b611259915060203d602011610cbf57610cb08183610e82565b5f61122a565b346105245760403660031901126105245760043560038110156105245760209060243561128b81610693565b604051908382019260f81b835260018060601b03199060601b166021820152601581526112b9603582610e82565b519020604051908152f35b346105245760403660031901126105245760206105426024356004356112e982610693565b612ff3565b346105245760203660031901126105245760043561130b81610693565b60018060a01b03165f525f602052602060405f2054604051908152f35b34610524575f366003190112610524576020601254604051908152f35b34610524575f36600319011261052457600854600954600a54600b54600c54604080516001600160a01b03968716815260208101959095528401929092526060830152909116608082015260a090f35b34610524575f3660031901126105245760206113af61311f565b6040516001600160a01b039091168152f35b34610524575f366003190112610524576005546113e6906001600160a01b031661088e565b60405163093a953d60e21b8152602081600481855afa90811561082e5761142d916020915f91610ce5575060405180938192632474521560e21b8352339060048401612839565b0381855afa90811561082e575f916114d9575b50159081611456575b50610c005761085d613188565b604051630ccc574960e41b8152909150602081600481855afa801561082e576114a0926020925f92610c9757506040518080958194632474521560e21b8352339060048401612839565b03915afa90811561082e575f916114ba575b50155f611449565b6114d3915060203d602011610902576108f48183610e82565b5f6114b2565b6114f2915060203d602011610902576108f48183610e82565b5f611440565b3461052457602036600319011261052457602061054260043561151a81610693565b6131dd565b34610524576040366003190112610524576004602435813561154082610693565b61154b6109c461311f565b50602061158761088e61155c615a72565b60085490611574906001600160a01b03831690614710565b5061157d613f9d565b61088e3386614a2e565b6040516278744560e21b815294859182905afa90811561082e576004935f92611673575b50806115b96115c192613f14565b8094336148cf565b6008546115e19083906115dc906001600160a01b031661088e565b61495c565b6008546020906115f9906001600160a01b031661088e565b6040516278744560e21b815294859182905afa801561082e576116495f516020615ed55f395f51905f52916105e8955f91611654575b506040805194855260208501919091523393918291820190565b0390a26112306142a2565b61166d915060203d602011610cbf57610cb08183610e82565b5f61162f565b6115c19192506116919060203d602011610cbf57610cb08183610e82565b91906115ab565b34610524575f366003190112610524576020600754604051908152f35b34610524575f366003190112610524576040515f6004548060011c9060018116908115611760575b60208310821461065757828552602085019190811561063e575060011461170e576105e8846105dc81860382610e82565b60045f9081529250907f8a35acfbc15ff81a39ae7d344fd709f28e8600b4aa8c65c6b64bfe7fe36bd19b5b81841061174c575050016105dc826105cc565b805484840152602090930192600101611739565b91607f16916116dd565b346105245760203660031901126105245760043561178781610693565b60055461179c906001600160a01b031661088e565b604051630ccc574960e41b8152602081600481855afa801561082e576117e3926020925f92610c9757506040518080958194632474521560e21b8352339060048401612839565b03915afa90811561082e575f91611804575b5015610fe95761085d90613258565b61181d915060203d602011610902576108f48183610e82565b5f6117f5565b3461052457602061054261183636610b01565b9161338d565b34610524575f3660031901126105245760206040516201fa408152f35b3461052457604036600319011261052457602061099560043561187b81610693565b60243590613498565b34610524576020366003190112610524576020610542600435613f14565b346105245760046118b236610b01565b906118be6109c461311f565b506118c7615a72565b60085493906118e0906001600160a01b0386169061410c565b6118e8613f9d565b928390602090611900906001600160a01b031661088e565b6040516278744560e21b815296879182905afa90811561082e576105e8955f9261196d575b505f1914611953575b83116119455761193d92612e85565b6112306142a2565b61194e9261338d565b61193d565b925061196761196183610dc5565b54613ee7565b9261192e565b61198791925060203d602011610cbf57610cb08183610e82565b905f611925565b34610524576040366003190112610524576004356119ab81610693565b602435301580156119c4575b61085f5761085d91613576565b506005546119e19060209061089a906001600160a01b031661088e565b03915afa90811561082e575f916119fa575b50156119b7565b611a13915060203d602011610902576108f48183610e82565b5f6119f3565b34610524576004611a2936610b01565b90611a356109c461311f565b50611a3e615a72565b6008549390611a57906001600160a01b0386169061410c565b611a5f613f9d565b928390602090611a77906001600160a01b031661088e565b6040516278744560e21b815296879182905afa94851561082e576105e895611aa6915f91611ad9575b50613f70565b905f1914611ac7575b8311611abe5761193d92613bfc565b61194e9261296a565b9250611ad282610dc5565b5492611aaf565b611af2915060203d602011610cbf57610cb08183610e82565b5f611aa0565b34610524575f366003190112610524575f6080604051611b1781610e47565b82815282602082015282604082015282606082015201526105e8604051611b3d81610e47565b6008546001600160a01b039081168083526009546020808501918252600a546040808701918252600b546060808901918252600c5488166080998a0190815283519788529551948701949094529151908501525190830152519091169181019190915290819060a0820190565b34610524576020366003190112610524576020610542600435611bcc81610693565b6135d0565b34610524576020366003190112610524576020610542600435613f70565b34610524575f366003190112610524576008546040516001600160a01b039091168152602090f35b34610524575f366003190112610524576040517f00000000000000000000000000000000000000000000000000000000000000006001600160a01b03168152602090f35b906020600319830112610524576004356001600160401b0381116105245760040182601f82011215610524578035926001600160401b038411610524576020808301928560051b010111610524579190565b3461052457611cbb36611c5b565b600554611cd0906001600160a01b031661088e565b611cfa6020611cde30612fc0565b60405180938192632474521560e21b8352339060048401612839565b0381855afa90811561082e575f91611dba575b50159081611d37575b50611d245761085d9161367f565b6329068e8160e21b5f526108723361077c565b6040516366e943f160e01b8152909150602081600481855afa801561082e57611d81926020925f92610c9757506040518080958194632474521560e21b8352339060048401612839565b03915afa90811561082e575f91611d9b575b50155f611d16565b611db4915060203d602011610902576108f48183610e82565b5f611d93565b611dd3915060203d602011610902576108f48183610e82565b5f611d0d565b3461052457611de736611c5b565b600554611dfc906001600160a01b031661088e565b604051630ccc574960e41b8152602081600481855afa801561082e57611e43926020925f92610c9757506040518080958194632474521560e21b8352339060048401612839565b03915afa90811561082e575f91611e64575b5015610fe95761085d9161388e565b611e7d915060203d602011610902576108f48183610e82565b5f611e55565b34610524576020366003190112610524576020610542600435611ea581610693565b6138e6565b34610524576020366003190112610524576020610995600435611ecc81610693565b61390a565b3461052457604036600319011261052457600435611eee81610693565b60243530158015611f07575b61085f5761085d91613940565b50600554611f249060209061089a906001600160a01b031661088e565b03915afa90811561082e575f91611f3d575b5015611efa565b611f56915060203d602011610902576108f48183610e82565b5f611f36565b34610524575f36600319011261052457602061054261399a565b346105245760203660031901126105245760043530158015611fa0575b61085f5761085d906139b7565b50600554611fbd9060209061089a906001600160a01b031661088e565b03915afa90811561082e575f91611fd6575b5015611f93565b611fef915060203d602011610902576108f48183610e82565b5f611fcf565b3461052457602036600319011261052457602061054260043561201781610693565b6139f0565b3461052457602036600319011261052457600435600554612045906001600160a01b031661088e565b604051630ccc574960e41b8152602081600481855afa801561082e5761208c926020925f92610c9757506040518080958194632474521560e21b8352339060048401612839565b03915afa90811561082e575f916120ad575b5015610fe95761085d906139fb565b6120c6915060203d602011610902576108f48183610e82565b5f61209e565b346105245760403660031901126105245760206121156004356120ee81610693565b602435906120fb82610693565b6001600160a01b03165f9081526001845260409020610dde565b54604051908152f35b3461052457602036600319011261052457600435600554612147906001600160a01b031661088e565b604051630ccc574960e41b8152602081600481855afa801561082e5761218e926020925f92610c9757506040518080958194632474521560e21b8352339060048401612839565b03915afa90811561082e575f916121af575b5015610fe95761085d90613a3c565b6121c8915060203d602011610902576108f48183610e82565b5f6121a0565b34610524576020366003190112610524576004356121eb81610693565b600554612200906001600160a01b031661088e565b604051630ccc574960e41b8152602081600481855afa801561082e57612247926020925f92610c9757506040518080958194632474521560e21b8352339060048401612839565b03915afa90811561082e575f91612268575b5015610fe95761085d90613a75565b612281915060203d602011610902576108f48183610e82565b5f612259565b346105245761229536611c5b565b6005546122aa906001600160a01b031661088e565b604051630ccc574960e41b8152602081600481855afa801561082e576122f1926020925f92610c9757506040518080958194632474521560e21b8352339060048401612839565b03915afa90811561082e575f91612312575b5015610fe95761085d91613a81565b61232b915060203d602011610902576108f48183610e82565b5f612303565b346105245760203660031901126105245760043561234e81610693565b600554612363906001600160a01b031661088e565b60405163a89f38a360e01b81529091602082600481865afa92831561082e576123ad936020935f916123f4575b50604051809581948293632474521560e21b845260048401612839565b03915afa801561082e576105e8915f916123d5575b5060405190151581529081906020820190565b6123ee915060203d602011610902576108f48183610e82565b5f6123c2565b61240b9150843d8611610cbf57610cb08183610e82565b5f612390565b3461052457602036600319011261052457602061054260043561243381610693565b613b24565b34610524575f36600319011261052457612450615a72565b6040518091602082016020835281518091526020604084019201905f5b81811061247b575050500390f35b82516001600160a01b031684528594506020938401939092019160010161246d565b346105245760206105426124b036610b01565b91613bfc565b34610524576040366003190112610524576004356124d381610693565b602435301580156124ec575b61085f5761085d91613ca5565b506005546125099060209061089a906001600160a01b031661088e565b03915afa90811561082e575f91612522575b50156124df565b61253b915060203d602011610902576108f48183610e82565b5f61251b565b34610524575f3660031901126105245760206113af613cff565b604051906106af604083610e82565b604051906106af61014083610e82565b6001600160401b038111610e6257601f01601f191660200190565b81601f82011215610524578035906125ac8261257a565b926125ba6040519485610e82565b8284526020838301011161052457815f926020809301838601378301015290565b34610524576060366003190112610524576004356024356125fb81610693565b604435906001600160401b038211610524576105e8926020612624611230943690600401612595565b61262c613f9d565b604051918183925191829101835e81015f815203902060018060a01b0383167f38383a2eb7bd8ee888f12fb942a2e22e84f2d7240f1f8541ad4bbddace6e34425f80a3612ff3565b346105245761268236611c5b565b600554612697906001600160a01b031661088e565b6126a56020611cde30612fc0565b0381855afa90811561082e575f91612752575b501590816126cf575b50611d245761085d91613d4f565b6040516366e943f160e01b8152909150602081600481855afa801561082e57612719926020925f92610c9757506040518080958194632474521560e21b8352339060048401612839565b03915afa90811561082e575f91612733575b50155f6126c1565b61274c915060203d602011610902576108f48183610e82565b5f61272b565b61276b915060203d602011610902576108f48183610e82565b5f6126b8565b3461052457602036600319011261052457600435600e548110156127cb57600e5f527fbb7b4a454dc3493923482f07822329ed19e8244eff582cc204f8554c3620c3fd01546040516001600160a01b039091168152602090f35b6138c8565b61057f6127db615a72565b6008546001600160a01b031690613e18565b51906106af82610693565b90816020910312610524575161057f81610693565b6040513d5f823e3d90fd5b5190811515820361052457565b908160209103126105245761057f90612818565b9081526001600160a01b03909116602082015260400190565b60207f4f4bedc5354096786a0fb857b12fdd6488cc973b2348cedb78088bdceaa906b59161287e613f9d565b80600b55604051908152a1565b919060018060a01b03600c5416331480156128cd575b6128b45763ec47ea8b60e01b5f5260045ffd5b6128c8926128c38333836155ca565b61565c565b600190565b506001600160a01b03811630146128a1565b634e487b7160e01b5f52601160045260245ffd5b6001600160a01b03165f818152600f6020526040902054909190156129575761291a613f9d565b813b15610524575f91602483926040519485938492638665120360e01b845260048401525af1801561082e5761294d5750565b5f6106af91610e82565b50632767039f60e01b5f5260045260245ffd5b6129756109c461311f565b50612993612981615a72565b6008546001600160a01b03169061410c565b61299b613f9d565b6001600160a01b038316913383141580612a53575b612a3f576129bd846139f0565b808311612a2a5750907f09fbb654e02253d6c37ecb473c5ed6f4557cac3fe5abc1d559523f6e257ee18591612a07826129f581613ee7565b8097612a00826142e3565b84336143d1565b612a105f601455565b612a1f60405192839283612aad565b0390a261057f6142a2565b632e52afbb60e21b5f526108729083866142cc565b630c849df760e41b5f526108728433612e54565b50604051636eb1769f60e11b815260208180612a73338960048401612e6b565b0381305afa801561082e5783915f91612a8e575b50106129b0565b612aa7915060203d602011610cbf57610cb08183610e82565b5f612a87565b6001600160a01b039091168152602081019190915260400190565b90816020910312610524575190565b6008546040516278744560e21b81529190602090839060049082906001600160a01b03165afa91821561082e575f92612b33575b5060018060a01b03165f525f602052612b2760405f2054613ee7565b90818082109118021890565b612b4d91925060203d602011610cbf57610cb08183610e82565b905f612b0b565b612b5c61454d565b6007546006548101809111610a10574210612bb257612b7961454d565b60ff60a01b19600554166005557f5db9ee0a495bf2e6ff9c91a7834c1ba4fdd244a5e8aa4e537bd38aeae4b073aa6020604051338152a1565b6304a59e3b60e01b5f5260045ffd5b5f19810191908211610a1057565b91908203918211610a1057565b612be46127d0565b600a54919082811115612c925750612c25915060205f915b6040516370a0823160e01b81526001600160a01b03909116600482015292839081906024820190565b03817f00000000000000000000000000000000000000000000000000000000000000006001600160a01b03165afa90811561082e5761057f925f92612c71575b50808218908211021890565b612c8b91925060203d602011610cbf57610cb08183610e82565b905f612c65565b8203918211610a10576020612c259291612bfc565b60207f3ba130ec8df44f0a71243af1b7f9f4239616bafda97ae766b3c40a9d202b21a491612cd3613f9d565b80600955604051908152a1565b612ce8613f9d565b612cf061311f565b68056bc75e2d631000008211612d3b577f186e864438b783eec69fd7ce4871c28accfc0b45558ea08c48540f76094fecde91612d2d602092613fbb565b5080601155604051908152a1565b6319ecf1a560e31b5f5260045ffd5b612d52613f9d565b6001600160a01b03811615612e45575f906020612da9612d7661088e61088e613cff565b600554612d8b906001600160a01b031661088e565b604051958680948193630f07f82960e01b8352309060048401612e6b565b03925af190811561082e57612e07612e21927f8f407169a2fff9de40408b8d482b293eff9e2dbc448da0593fa9a39d428a4104945f91612e26575b50600c80546001600160a01b0319166001600160a01b0392909216919091179055565b6040516001600160a01b0390911681529081906020820190565b0390a1565b612e3f915060203d602011610827576108198183610e82565b5f612de4565b63a0394e6160e01b5f5260045ffd5b6001600160a01b0390811660045216602452604490565b6001600160a01b0391821681529116602082015260400190565b90612e8e613f9d565b612e9782613f42565b92612ea381858561456c565b600854612eb8906001600160a01b031661088e565b92604051916278744560e21b8352602083600481885afa93841561082e5786935f95612f62575b50612eee83612ef4969761464b565b336143d1565b600854600490602090612f0f906001600160a01b031661088e565b6040516278744560e21b815292839182905afa90811561082e575f516020615ed55f395f51905f5291612f5c915f9161165457506040805194855260208501919091523393918291820190565b0390a290565b612ef4955083612f83612eee9260203d602011610cbf57610cb08183610e82565b965050612edf565b6040515f6020820190815260609290921b6001600160601b031916602182015260158152612fba603582610e82565b51902090565b604051600160f81b6020820190815260609290921b6001600160601b031916602182015260158152612fba603582610e82565b90612fff6109c461311f565b506004602061303d61088e613012615a72565b6008549061302a906001600160a01b03831690614710565b50613033613f9d565b61088e3388614899565b6040516278744560e21b815292839182905afa90811561082e5783905f926130f8575b5061307b613090929361307283613f70565b958691336148cf565b6008546115dc906001600160a01b031661088e565b6008546004906020906130ab906001600160a01b031661088e565b6040516278744560e21b815292839182905afa90811561082e575f516020615ed55f395f51905f5291612a1f915f9161165457506040805194855260208501919091523393918291820190565b613090925061311861307b9160203d602011610cbf57610cb08183610e82565b9250613060565b604051637aaceb9560e01b81526020816004817f00000000000000000000000000000000000000000000000000000000000000006001600160a01b03165afa90811561082e575f9161316f575090565b61057f915060203d602011610827576108198183610e82565b613190613f9d565b613198613f9d565b6005805460ff60a01b1916600160a01b1790556040513381527f62e78cea01bee320cd4e420270b5ea74000d11b0c9f74754ebdbfc544b05a25890602090a142600755565b6008546040516278744560e21b815290602090829060049082906001600160a01b03165afa801561082e57613219915f91613239575b50613f42565b9060018060a01b03165f525f60205260405f205490818082109118021890565b613252915060203d602011610cbf57610cb08183610e82565b5f613213565b613260613f9d565b61327061326c8261390a565b1590565b61337a5761327d81615903565b6132976132926001600160a01b03831661088e565b615d32565b506001600160a01b03811690813b156105245760405163ebf3113160e01b81525f8160048183875af1801561082e57613366575b506005546132e1906001600160a01b031661088e565b803b156105245760405163d55dd62b60e01b8152600260048201526001600160a01b039290921660248301525f908290604490829084905af1801561082e5761334c575b507f66d72a91b52f63fb063c4f672763d7ef15ce4d7c9a268a7f9b5133e41c1709a55f80a2565b8061335a5f61336093610e82565b8061051a565b5f613325565b8061335a5f61337493610e82565b5f6132cb565b632767039f60e01b5f526108729061077c565b91909161339b6109c461311f565b506133a7612981615a72565b6133af613f9d565b6133b881613f42565b926001600160a01b03831692338414158061343e575b61342a576133db816138e6565b808411613415575090612a0785848094612a007fd4383faec5079b2ec7ac0ff240326baa0d584b03d51b9742f7c1a034f6fc015b976142e3565b633fa733bb60e21b5f526108729184906142cc565b638b27f8ed60e01b5f526108729033612e54565b50604051636eb1769f60e11b81526020818061345e338660048401612e6b565b0381305afa801561082e5786915f91613479575b50106133ce565b613492915060203d602011610cbf57610cb08183610e82565b5f613472565b906040516330fe427560e21b815260a081600481305afa90811561082e575f916134f2575b50608001516134d4906001600160a01b031661088e565b33146134e95763ec47ea8b60e01b5f5260045ffd5b61057f91614a64565b905060a0813d60a01161356e575b8161350d60a09383610e82565b810103126105245761088e60806134d492816040519161352c83610e47565b805161353781610693565b8352602081015160208401526040810151604084015260608101516060840152015161356281610693565b828201529250506134bd565b3d9150613500565b6001600160a01b03165f818152600f6020526040902054909190156129575761359d613f9d565b813b15610524575f916024839260405194859384926361f5cd8b60e01b845260048401525af1801561082e5761294d5750565b6135d86127d0565b600a54908181111561366a57505061361760205f925b6040516370a0823160e01b81526001600160a01b03909116600482015291829081906024820190565b03817f00000000000000000000000000000000000000000000000000000000000000006001600160a01b03165afa801561082e5761057f92613665925f92612c715750808218908211021890565b613f70565b8103908111610a1057602061361791926135ee565b919060145480420390428211610a1057601354809210613875575050426014556136aa6109c461311f565b506136b3613f9d565b6136bd8184614aac565b6136d260206136cc8386614a6f565b016138dc565b92600460206136eb61088e60085460018060a01b031690565b956001600160a01b0387166040516278744560e21b81526001600160a01b0390921614969092839182905afa90811561082e575f91613856575b505f5f955b8487106137895761374495965015613779575b5050614ebb565b60405190815233907f4bd1a9dd6e8410a6d85178f9a75d601cb7b266e228771c213fe39ffffad2d3299080602081015b0390a2565b61378291615a38565b5f8061373d565b906137a66137a061379b898888614a8a565b614cfd565b836159c8565b60406137b3888787614a8a565b01355f1981146137d3575b6137ca90600192613eda565b9601959061372a565b50811561384757600460206137f761088e61088e6137f28c8b8b614a8a565b6138dc565b6040516278744560e21b815292839182905afa91821561082e576001926137ca925f91613829575b50915091506137be565b613841915060203d8111610cbf57610cb08183610e82565b5f61381f565b63055bb2a160e41b5f5260045ffd5b61386f915060203d602011610cbf57610cb08183610e82565b5f613725565b630924dbf160e21b5f526004526024524260445260645ffd5b91613897613f9d565b5f5b828110156138c2576001906138bc8160051b8601356138b781610693565b615177565b01613899565b50915050565b634e487b7160e01b5f52603260045260245ffd5b3561057f81610693565b6138ee61399a565b9060018060a01b03165f525f602052612b2760405f2054613ee7565b6001600160a01b03165f818152600f6020526040902054151590811561392e575090565b6008546001600160a01b031614919050565b6001600160a01b03165f818152600f60205260409020549091901561295757613967613f9d565b813b15610524575f9160248392604051948593849263497af41960e11b845260048401525af1801561082e5761294d5750565b61057f6139a5615a72565b6008546001600160a01b03169061534f565b60207f4faeac5aec9fa2e6f82ae7ccfef27a03ca3ff9d8c5356fea9acb2caad1c4c344916139e3613f9d565b80600a55604051908152a1565b61321961366561399a565b613a03613f9d565b60135460408051918252602082018390527f5953b565c074c2cce1866b4e69c9efc4908556bb6fca70f735907c94d940551591a1601355565b60207f3cf175d91d8c5823f3729423b5a64130e40d4b09e88c6dc1925a260f26818c2591613a68613f9d565b80600655604051908152a1565b6106af906138b7613f9d565b906106af91613a916109c461311f565b50613a9a613f9d565b9190613aa68184614aac565b6008546001600160a01b0316925f5b828110613acb5750613ac8929350614ebb565b50565b613ad961379b828585614a8a565b60208101516001600160a01b031686149086908215613b10575b5050613b0157600101613ab5565b630394d1d160e21b5f5260045ffd5b516001600160a01b0316149050855f613af3565b6040516278744560e21b815290602082600481305afa91821561082e575f92613bdb575b50604051635ee6ec4160e11b8152916001600160a01b039190911690602083600481855afa92831561082e57600493602092613b8b925f92613bbc575b50615406565b916040519384809263dbd5edc760e01b82525afa90811561082e5761057f925f92612c715750808218908211021890565b613bd4919250843d8611610cbf57610cb08183610e82565b905f613b85565b613bf591925060203d602011610cbf57610cb08183610e82565b905f613b48565b91613c086109c461311f565b50613c4161088e613c17615a72565b60085490613c2f906001600160a01b0383169061410c565b613c37613f9d565b61088e8487615425565b6040516278744560e21b81529390602085600481845afa92831561082e57612eee955f94613c82575b506130909394613c7984613ee7565b9687809461464b565b6130909450613c9f9060203d602011610cbf57610cb08183610e82565b93613c6a565b6001600160a01b03165f818152600f60205260409020549091901561295757613ccc613f9d565b813b15610524575f91602483926040519485938492634fc7fac360e01b845260048401525af1801561082e5761294d5750565b604051633df94cfb60e21b81526020816004817f00000000000000000000000000000000000000000000000000000000000000006001600160a01b03165afa90811561082e575f9161316f575090565b91906014549283420393428511610a1057601354809510613d8057506106af92935042601455613a916109c461311f565b8490630924dbf160e21b5f526004526024524260445260645ffd5b604051602081017fa44c7cc604645fc9d906e0a5aeb821ecf76e473a1a4d03393ebd52161430e41a815260208252613dd4604083610e82565b9051902060ff191690565b604051602081017fa9898051640582db44f19359a5df62a03dbff55353a9f388ea332d75dfa80fa0815260208252613dd4604083610e82565b90613e21613d9b565b5c613ebe57613e2f916154d4565b5f9190825b8151841015613eb95760046020613e646001600160a01b03613e5688876140ea565b51166001600160a01b031690565b6040516278744560e21b815292839182905afa801561082e57600192613e91925f92613e99575b50613eda565b930192613e34565b613eb291925060203d8111610cbf57610cb08183610e82565b905f613e8b565b925050565b5050613ec8613ddf565b5c90565b9060018201809211610a1057565b91908201809211610a1057565b613eef6127d0565b9060018201809211610a105760025460018101809111610a105761057f925f9261556c565b613f1c6127d0565b9060018201809211610a105760025460018101809111610a105761057f9260019261556c565b6002549060018201809211610a1057613f596127d0565b60018101809111610a105761057f9260019261556c565b6002549060018201809211610a1057613f876127d0565b60018101809111610a105761057f925f9261556c565b60ff60055460a01c16613fac57565b63d93c066560e01b5f5260045ffd5b90601154613fd0670de0b6b3a76400006146c3565b1461406957613fe160125442612bcf565b8015614063576040516318160ddd60e01b815290602082600481305afa801561082e57614014925f9161124057506146d1565b91828061401f575050565b614028916158b5565b61403142601255565b6040518281527f698f29fe990d4e7770f7e74cd309da261dd03ca828f7bb3c2ea8b8c9adcc0ecd908060208101612e21565b505f9150565b905061407442601255565b5f90565b6001600160401b038111610e625760051b60200190565b9061409982614078565b6140a66040519182610e82565b82815280926140b7601f1991614078565b01905f5b8281106140c757505050565b6020906040516140d681610e67565b5f81525f83820152828285010152016140bb565b80518210156127cb5760209160051b010190565b5f198114610a105760010190565b9061411691614710565b90614121825161408f565b5f915f905f5b8551808210156141d6575f198101908111610a1057811480156141a1575b614152575b600101614127565b9193614199614193600192614167868a6140ea565b5161417289896140ea565b5261417d88886140ea565b50602061418a878b6140ea565b51015190613eda565b956140fe565b92905061414a565b506141d16141ca6141c36141b5848a6140ea565b51516001600160a01b031690565b6010610dde565b5460ff1690565b614145565b505093506106af926141e99183526156db565b6141f2816156ee565b6157f0565b604051602081017f98932279f8646d348f86cf154406d1fab3c6a0c52686d604c7d4a6a140038108815260208252613dd4604083610e82565b604051602081017f410d83ac3c7a0c2a0669e43e3a5ca6694ee49455f748efa9954a95c3752e9fc8815260208252613dd4604083610e82565b604051602081017f2e756c3932ba771b80f1bae53d1177d9f7a4ced0ce66d74053b09f874cec6ffe815260208252613dd4604083610e82565b5f6142ab613d9b565b5d5f6142b56141f7565b5d5f6142bf614230565b5d5f6142c9614269565b5d565b6001600160a01b0316600452602452604452606490565b6142eb614230565b5c6142f58161408f565b905f5b818110614378575050905f5b825181101561437357602061431982856140ea565b51015182811061433957506141b5614334916106af946140ea565b61464b565b8093929361434e575b50600101919091614304565b80829461436761436c936143346141b5600197896140ea565b612bcf565b9290614342565b505050565b8061438c6001926143876157b7565b615bba565b5c6143998261438761577e565b5c604051916143a783610e67565b848060a01b0316825260208201526143bf82866140ea565b526143ca81856140ea565b50016142f8565b6001600160a01b0380841695908216939092918387860361453c575b5050851561452957856144cc57509060025491818301809311610a10577ffbde797d201c681b91056529119e0b02407c7bb96a4a2c75c01fc9667232c8db926002555b81600254036002555f865f516020615ef55f395f51905f5260405180602081018782520390a360405163a9059cbb60e01b60208201526144b09061448a8161447c898660248401612aad565b03601f198101835282610e82565b7f0000000000000000000000000000000000000000000000000000000000000000615bda565b6040805195865260208601929092526001600160a01b031693a4565b6144d581610dc5565b54838110614513579061450d847ffbde797d201c681b91056529119e0b02407c7bb96a4a2c75c01fc9667232c8db9594930391610dc5565b55614430565b63391434e360e21b5f52610872918491906142cc565b634b637e8f60e11b5f525f60045260245ffd5b61454691836155ca565b5f836143ed565b60ff60055460a01c161561455d57565b638dfc202b60e01b5f5260045ffd5b90336001600160a01b038416141590816145c4575b506145b05761458f82612ad7565b9182821161459c57505050565b633fa733bb60e21b5f5261087293506142cc565b638b27f8ed60e01b5f526108728233612e54565b604051636eb1769f60e11b8152909150602081806145e6338860048401612e6b565b0381305afa90811561082e575f91614601575b50105f614581565b61461a915060203d602011610cbf57610cb08183610e82565b5f6145f9565b6040519061462f602083610e82565b5f8252565b60409061057f93928152816020820152019061054a565b60018060a01b031690604051614662602082610e82565b5f8152823b156105245761468f925f9283604051809681958294630278811f60e31b845260048401614634565b03925af1801561082e5761294d5750565b634e487b7160e01b5f52601260045260245ffd5b81156146be570490565b6146a0565b905f911560011715610a1057565b906301e133806011540468056bc75e2d6310000090810190818111610a1057614703926146fd92615c32565b82615406565b908103908111610a105790565b61472261471d8251613ecc565b61408f565b925f90815b83518310156147e6576004602061475461088e61088e614747888a6140ea565b516001600160a01b031690565b6040516278744560e21b815292839182905afa801561082e576001926147be925f926147c6575b5061478961474787896140ea565b6147a361479461255b565b6001600160a01b039092168252565b8260208201526147b3878b6140ea565b52613e8b868a6140ea565b920191614727565b6147df91925060203d8111610cbf57610cb08183610e82565b905f61477b565b6040516278744560e21b815291949192506001600160a01b0390911690602083600481855afa91821561082e576148699461485b945f94614872575b5090613e8b9161484261483361255b565b6001600160a01b039093168352565b8460208301525190614854828a6140ea565b52876140ea565b614864846156ee565b615813565b6106af82615826565b613e8b929194506148919060203d602011610cbf57610cb08183610e82565b939091614822565b6148a282612bdc565b918282116148af57505050565b633c8097d960e11b5f5260018060a01b031660045260245260445260645ffd5b6040516323b872dd60e01b60208201526001600160a01b03909116602482018190523060448301526064808301859052825292937fdcbc1c05240f31ff3ad067ef1ee35ce4997762752e3a095284754544f4c709d79290916149369061448a608482610e82565b61494082826158b5565b6040805195865260208601929092526001600160a01b031693a3565b60405163095ea7b360e01b81526020818061497b868660048401612aad565b03815f7f00000000000000000000000000000000000000000000000000000000000000006001600160a01b03165af1801561082e57614a11575b506001600160a01b0316906149c8614620565b823b15610524576149f2925f9283604051809681958294632db6d39960e01b845260048401614634565b03925af1801561082e57614a035750565b8061335a5f6106af93610e82565b614a299060203d602011610902576108f48183610e82565b6149b5565b614a37826135d0565b91828211614a4457505050565b63284ff66760e01b5f5260018060a01b031660045260245260445260645ffd5b906128c8913361565c565b90156127cb57803590609e1981360301821215610524570190565b91908110156127cb5760051b81013590609e1981360301821215610524570190565b600b548211614cea578115614cdb575f5b828110614ac957505050565b614ad4818484614a8a565b35614ade81610693565b6020614aeb838686614a8a565b013590614af782610693565b6040614b04848787614a8a565b01358015614cc8576001600160a01b038316918215614cb5576001600160a01b0381168015614ca257614b3961326c8661390a565b614c8f57614b4961326c8361390a565b614c7c57906020600492604051938480926318ca2a4f60e11b82525afa91821561082e575f92614c5c575b50818311614c4857505060405163ad5a356f60e01b815290602082600481865afa91821561082e575f92614c28575b50818111614c1357505060206004916040519283809263dbd5edc760e01b82525afa90811561082e575f91614bf5575b5015614be25750600101614abd565b630b9cb3f960e11b5f526108729061077c565b614c0d915060203d8111610cbf57610cb08183610e82565b5f614bd3565b63016b606760e21b5f526108729250836142cc565b614c4191925060203d8111610cbf57610cb08183610e82565b905f614ba3565b637d7bf8e160e01b5f5261087292906142cc565b614c7591925060203d8111610cbf57610cb08183610e82565b905f614b74565b63c80e655f60e01b5f526108728261077c565b63c80e655f60e01b5f526108728561077c565b632767039f60e01b5f526108728261077c565b632767039f60e01b5f526108728461077c565b630a16952b60e21b5f526108728361077c565b6304dcdcd560e31b5f5260045ffd5b5063899a5d8160e01b5f5260045260245ffd5b60a0813603126105245760405190614d1482610e47565b8035614d1f81610693565b8252614d2d602082016106a4565b60208301526040810135604083015260608101356001600160401b03811161052457614d5c9036908301612595565b60608301526080810135906001600160401b03821161052457614d8191369101612595565b608082015290565b9035601e19823603018112156105245701602081359101916001600160401b03821161052457813603831361052457565b908060209392818452848401375f828201840152601f01601f1916010190565b82602082016020835252604081019260408160051b83010193835f91609e1982360301945b848410614e10575050505050505090565b90919293949596603f19828203018352873587811215610524576020614eaa60019387839401908135614e4281610693565b868060a01b0316815283820135614e5881610693565b868060a01b03168482015260408201356040820152614e9c614e91614e806060850185614d89565b60a0606086015260a0850191614dba565b926080810190614d89565b916080818503910152614dba565b990193019401929195949390614dff565b5f9291835b818110614efb57506137747f507d790d4c0157977bb25bd8941f5f91c3118eab68b257c1d1c0825cb0051fd991604051918291339583614dda565b93614f0a61379b868486614a8a565b6020810151909190614f24906001600160a01b031661088e565b8251909290614f3b906001600160a01b031661088e565b9060408101515f1981145f1461504657506040516278744560e21b81526020816004816001600160a01b0387165afa90811561082e575f91615028575b50935b614f8481613b24565b6040516278744560e21b81526001600160a01b0390921691602081600481865afa801561082e5787614fbe9184935f9161500a5750613eda565b11614ff55750849282600196614fe99360806060614fee9997015193015193898060a01b0316615dd3565b613eda565b9401614ec0565b6316e05b4760e21b5f526108729186906142cc565b615022915060203d8111610cbf57610cb08183610e82565b5f613e8b565b615040915060203d8111610cbf57610cb08183610e82565b5f614f78565b93614f7b565b81601f82011215610524578051906150638261257a565b926150716040519485610e82565b8284526020838301011161052457815f9260208093018386015e8301015290565b602081830312610524578051906001600160401b03821161052457019061014082820312610524576150c261256a565b916150cc816127ed565b83526150da602082016127ed565b60208401526150eb604082016127ed565b6040840152606081015160608401526080810151608084015260a081015160a084015260c08101516001600160401b038111610524578261512d91830161504c565b60c084015260e08101516001600160401b038111610524576101209261515491830161504c565b60e08401526151666101008201612818565b610100840152015161012082015290565b6001600160a01b038116908115615307576151918161390a565b6152f45760405163303dbaf360e01b8152602081600481865afa801561082e576151e6915f916152d5575b506001600160a01b0383165f908152601060205260409020901560ff801983541691151516179055565b6040516330fe427560e21b81525f81600481865afa90811561082e5761521f9161088e915f916152b3575b50516001600160a01b031690565b6152a457813b1561052457604051634545ccbb60e11b81525f8160048183875af1801561082e57615269926152649261088e92615290575b506001600160a01b031690565b615e60565b507fcb4a29d359e86f179111dcba8714def1a859612f729f2d224d13efeac51b36bc5f80a2565b8061335a5f61529e93610e82565b5f615257565b631089e45f60e21b5f5260045ffd5b6152cf91503d805f833e6152c78183610e82565b810190615092565b5f615211565b6152ee915060203d602011610902576108f48183610e82565b5f6151bc565b637eadea0960e11b5f526108729061077c565b63210e96cb60e01b5f5260045ffd5b604051602081017f3d5fcbe10cf86b117683d0d4967b64a0c0fa4bdda7d07499d3c9dc5e388b6940815260208252613dd4604083610e82565b91905f9261535b6141f7565b5c6153fa579061536a916154d4565b5f5b8151808210156143735761537f90612bc1565b811480156153de575b615395575b60010161536c565b92600460206153aa61088e61474788876140ea565b6040516278744560e21b815292839182905afa801561082e576001926153d6925f92613e995750613eda565b93905061538d565b506153f56141ca6141c361088e61474785876140ea565b615388565b50509050613ec8615316565b818102918183041490151715610a105768056bc75e2d63100000900490565b336001600160a01b03831614158061547a575b61546657615445826131dd565b9182821161545257505050565b632e52afbb60e21b5f5261087293506142cc565b630c849df760e41b5f526108728233612e54565b50604051636eb1769f60e11b81526020818061549a338760048401612e6b565b0381305afa801561082e5782915f916154b5575b5010615438565b6154ce915060203d602011610cbf57610cb08183610e82565b5f6154ae565b9182519060018201809211610a10576154ec82614078565b916154fa6040519384610e82565b808352615509601f1991614078565b013660208401375f5b845181101561554c576001906001600160a01b0361553082886140ea565b511661553c82866140ea565b90838060a01b0316905201615512565b509261555c9092919251836140ea565b6001600160a01b03909116905290565b9190615579828285615acf565b9360048110156155b65760018091161492836155a1575b50505015158101809111610a105790565b9091809350156146be570915155f8080615590565b634e487b7160e01b5f52602160045260245ffd5b6001600160a01b03165f818152600160205260409020919290916155ef908490610dde565b54600181016155ff575b50505050565b81811061563b57821561074b576001600160a01b0384161561073857615631925f526001602052039160405f20610dde565b555f8080806155f9565b83637dc7a0d960e11b5f5260018060a01b031660045260245260445260645ffd5b916001600160a01b038316918215614529576001600160a01b0381169384156156c85761568881610dc5565b5483811061451357916156b6916156b0855f516020615ef55f395f51905f5296950391610dc5565b55610dc5565b805482019055604051908152602090a3565b63ec442f0560e01b5f525f60045260245ffd5b6156e3615316565b5d60016142c96141f7565b905f905b82518210156157795760018201808311610a10575b835181101561576e57600190602061571f85876140ea565b510151602061572e83886140ea565b5101511061573d575b01615707565b61574781866140ea565b5161575285876140ea565b5161575d83886140ea565b5261576885876140ea565b52615737565b5090600101906156f2565b915050565b604051602081017f8f2b8f2fcb6f2e256bfd8c09fcca564574482705250cb5c8dbe56c4f4fce37c8815260208252613dd4604083610e82565b604051602081017f05abb041f8dc8945baa4f2792e2109e9d9e22dea3aa665ccf2f030209c7415ad815260208252613dd4604083610e82565b6106af906157fc61577e565b6158046157b7565b9061580d614230565b92615b61565b61581b613ddf565b5d60016142c9613d9b565b6106af90604051602081017f5720a3c83eb8242bbe1a4159c3b45ed663cd9e207a02bdea64844c6c583da9dd815260208252615863604083610e82565b60ff199151902016604051602081017fb4b00da68d43fac77a22bb187c63cb88989e294cfebeb79b3789ae1629639d988152602082526158a4604083610e82565b9051902060ff19169061580d614269565b6001600160a01b038116919082156156c85760025490828201809211610a10575f926158f46020925f516020615ef55f395f51905f5294600255610dc5565b818154019055604051908152a3565b60405163dbd5edc760e01b81526001600160a01b03821690602081600481855afa90811561082e575f916159a9575b50615996576020600491604051928380926278744560e21b82525afa90811561082e575f91615977575b506159645750565b63ca4a18b360e01b5f526108729061077c565b615990915060203d602011610cbf57610cb08183610e82565b5f61595c565b632a4d8fbb60e01b5f526108728261077c565b6159c2915060203d602011610cbf57610cb08183610e82565b5f615932565b908180615a1a575b82156159ee575b50506159df57565b633abef25360e21b5f5260045ffd5b159150816159ff575b505f806159d7565b516008546001600160a01b039081169116141590505f6159f7565b60208201516008546001600160a01b039081169116141592506159d0565b9060095480831115615a63578203918211610a105711615a5457565b633b5391f960e01b5f5260045ffd5b63ff105df960e01b5f5260045ffd5b60405190600e548083528260208101600e5f5260205f20925f5b818110615aa15750506106af92500383610e82565b8454835260019485019487945060209093019201615a8c565b80548210156127cb575f5260205f2001905f90565b91818302915f1981850993838086109503948086039514615b545784831115615b475790829109815f0382168092046002816003021880820260020302808202600203028082026002030280820260020302808202600203028091026002030293600183805f03040190848311900302920304170290565b6011600384150218615ec4565b50509061057f92506146b4565b91935f5b8351811015615bb15780615b7b60019285615bba565b6020615b8783886140ea565b510151905d615b968188615bba565b828060a01b03615ba683886140ea565b515116905d01615b65565b5093505051905d565b906040519060208201928352604082015260408152612fba606082610e82565b905f602091828151910182855af11561280d575f513d615c2957506001600160a01b0381163b155b615c095750565b635274afe760e01b5f9081526001600160a01b0391909116600452602490fd5b60011415615c02565b90929181158015615cd2575b615cc05760018416615cba57805b93615c578260011c90565b9060011c92835b615c685750505050565b808002908082040361052457818101908110610524578290049260018116615c95575b60011c9283615c5e565b9483810290848204141584151516610524578181019081106105245782900494615c8b565b81615c4c565b919215159050615ccd5790565b505f90565b508315615c3e565b91615cf39183549060031b91821b915f19901b19161790565b9055565b80548015615d1e575f190190615d0d8282615aba565b8154905f199060031b1b1916905555565b634e487b7160e01b5f52603160045260245ffd5b5f818152600f6020526040902054908115615dcd575f19820190828211610a1057600e545f19810193908411610a105783835f95615d8c9503615d92575b505050615d7d600e615cf7565b600f905f5260205260405f2090565b55600190565b615d7d615dbe91615db4615daa615dc495600e615aba565b90549060031b1c90565b928391600e615aba565b90615cda565b555f8080615d70565b50505f90565b9192916001600160a01b031690813b15610524575f8094615e3a615e28976040519889978896879563c38a6f0b60e01b8752600487015260018060a01b0316602486015260806044860152608485019061054a565b8381036003190160648501529061054a565b03925af1801561082e57615e4b5750565b80615e575f8093610e82565b80031261052457565b5f818152600f6020526040902054615ccd57600e54600160401b811015610e6257615ead615e97826001859401600e55600e615aba565b819391549060031b91821b915f19901b19161790565b9055600e54905f52600f60205260405f2055600190565b634e487b715f526020526024601cfdfee68a55afda2dca8343871fe0e5575a383291a40ae7d53e4dee12faf79cde144eddf252ad1be2c89b69c2b068fc378daa952ba7f163c4a11628f55a4df523b3efa2646970667358221220fc6d3a03961996c876f76576480183c42eee4cc36b4fd1d7639fe06488e3b1a864736f6c634300081c003360a0806040523461062d57612630803803809161001c8285610673565b8339810160408282031261062d5781516001600160401b03811161062d5782016101408183031261062d576040519161005483610657565b81516001600160401b03811161062d5781610070918401610696565b83526020820151906001600160401b03821161062d57610091918301610696565b90602083019182526100a5604082016106eb565b918260408501526100b8606083016106eb565b9360608101938585526100cd608085016106eb565b946080830195865260a08501519560a0840196875260c08601519160c0850192835260e08701519360e0860194855261012b60206101206101116101008c016106ff565b9a6101008a019b8c5201519c61012089019d8e52016106eb565b996001600160a01b0390811691168015610644576040516301ffc9a760e01b81526338c7ccdb60e01b6004820152602081602481855afa908115610639575f916105fb575b50156105e9575f80546001600160a01b03191691909117905580156105da57608052516001600160a01b0316156105cb5780516001600160a01b0316156105bc57835151156105ad576001600160a01b036101c961070c565b161561059e57516001600160a01b03166101e161070c565b96519151925193519451955115159851966101206040519161020283610657565b5f83526001600160a01b03166020830181905260408301849052606083018590526080830186905260a0830187905260c0830188905260e0830198895261010083019b8c529101978852600180546001600160a01b03199081169091556002805482169092179091556003805490911690911790556004556005556006558051906001600160401b0382116104a15760075490600182811c92168015610594575b60208310146104835781601f849311610526575b50602090601f83116001146104c0575f926104b5575b50508160011b915f199060031b1c1916176007555b5180519093906001600160401b0381116104a157600854600181811c91168015610497575b602082101461048357601f8111610420575b50602094601f82116001146103bd579481929394955f926103b2575b50508160011b915f199060031b1c1916176008555b51151560ff80196009541691161760095551600a5560018060a01b031660018060a01b03196001541617600155604051611eb6908161077a823960805181818161018e015281816105dc01528181610aae015281816113f9015281816114a40152611bde0152f35b015190505f80610335565b601f1982169560085f52805f20915f5b888110610408575083600195969798106103f0575b505050811b0160085561034a565b01515f1960f88460031b161c191690555f80806103e2565b919260206001819286850151815501940192016103cd565b60085f527ff3f7a9fe364faab93b216da50a3214154f22a0a2b415b23a84c8169e8b636ee3601f830160051c81019160208410610479575b601f0160051c01905b81811061046e5750610319565b5f8155600101610461565b9091508190610458565b634e487b7160e01b5f52602260045260245ffd5b90607f1690610307565b634e487b7160e01b5f52604160045260245ffd5b015190505f806102cd565b60075f9081528281209350601f198516905b81811061050e57509084600195949392106104f6575b505050811b016007556102e2565b01515f1960f88460031b161c191690555f80806104e8565b929360206001819287860151815501950193016104d2565b60075f529091507fa66cc928b5edb82af9bd49922954155ab7b0942694bea4ce44661d9a8736c688601f840160051c8101916020851061058a575b90601f859493920160051c01905b81811061057c57506102b7565b5f815584935060010161056f565b9091508190610561565b91607f16916102a3565b633a4f9cdb60e21b5f5260045ffd5b63268c072960e01b5f5260045ffd5b637ff57ef160e11b5f5260045ffd5b63b53c493160e01b5f5260045ffd5b63f1634df960e01b5f5260045ffd5b6347bd7c1d60e01b5f5260045260245ffd5b90506020813d602011610631575b8161061660209383610673565b8101031261062d57610627906106ff565b5f610170565b5f80fd5b3d9150610609565b6040513d5f823e3d90fd5b6347bd7c1d60e01b5f525f60045260245ffd5b61014081019081106001600160401b038211176104a157604052565b601f909101601f19168101906001600160401b038211908210176104a157604052565b81601f8201121561062d578051906001600160401b0382116104a157604051926106ca601f8401601f191660200185610673565b8284526020838301011161062d57815f9260208093018386015e8301015290565b51906001600160a01b038216820361062d57565b5190811515820361062d57565b608051604051628bec5760e51b815290602090829060049082906001600160a01b03165afa908115610639575f91610742575090565b90506020813d602011610771575b8161075d60209383610673565b8101031261062d5761076e906106eb565b90565b3d915061075056fe6080806040526004361015610012575f80fd5b5f905f3560e01c90816301e1d114146118b75750806306fdde0314611884578063117d8ae01461185857806313c408f8146117d45780632db6d399146115d0578063303dbaf3146115ae5780633194549e14611591578063372709361461156957806338d52e0f146115415780634fc7fac3146114ef5780635b0f83f31461147f57806361d027b3146113d457806361f5cd8b1461136f57806369b3054b1461130e578063780469bb14610bac57806379502c5514610af95780637aaceb9514610a875780638665120314610a335780638a8b9976146109d757806392f5e83214610970578063ad5a356f14610952578063bdcdd88214610934578063c38a6f0b14610785578063c3f909d41461060b578063c9c667e3146105c6578063ce5c7f61146103df578063dbd5edc7146103c1578063ebc136d014610296578063ebf31131146102265763f7e533ec14610168575f80fd5b3461020f578060031936011261020f57604051633df94cfb60e21b8152906020826004817f00000000000000000000000000000000000000000000000000000000000000006001600160a01b03165afa90811561021a5780916101da575b6040516001600160a01b0383168152602090f35b90506020823d602011610212575b816101f5602093836119f0565b8101031261020f5750610209602091611bb6565b5f6101c6565b80fd5b3d91506101e8565b604051903d90823e3d90fd5b503461020f578060031936011261020f5761023f611cab565b1561028357600180546001600160a01b03191690556040513381527f7cb941d7b1708e5b3bcd35ca960d6c6311188cec18886e5b67630552676b048790602090a180f35b631564c0e160e11b815233600452602490fd5b503461020f57602036600319011261020f576004356001600160a01b03811681036103bd57815460405163a89f38a360e01b81526001600160a01b039091169190602081600481865afa9081156103b2578491610378575b50604051632474521560e21b815260048101919091526001600160a01b0390911660248201529060209082908180604481015b03915afa90811561036d5760209291610340575b506040519015158152f35b6103609150823d8411610366575b61035881836119f0565b810190611c6b565b5f610335565b503d61034e565b6040513d84823e3d90fd5b9190506020823d6020116103aa575b81610394602093836119f0565b810103126103a65790516103216102ee565b8380fd5b3d9150610387565b6040513d86823e3d90fd5b5080fd5b503461020f578060031936011261020f576020600454604051908152f35b503461020f57602036600319011261020f576004356001600160401b0381116103bd5761041090369060040161195e565b5050604051628bec5760e51b8152602081600481305afa90811561036d57829161058c575b506001600160a01b031633036105795761044d611d4d565b604051808091606051608090855b8181106105575750505003902060405180606051608090855b818110610541575050508190039020916040519283927f3e3e7958121b3e39c7a49392d1aa9cdce870c2a059744f9e15cf66fff78654558380a3805f516020611e615f395f51905f525d6040820190604083526060518092526060830191608090825b81811061051f57505050828203602084015260206060519283815201916080915b818110610506575050500390f35b82518452859450602093840193909201916001016104f8565b82516001600160a01b03168552869550602094850194909201916001016104d7565b8251845260209384019390920191600101610474565b82516001600160a01b031684528594506020938401939092019160010161045b565b631184b31b60e21b815233600452602490fd5b90506020813d6020116105be575b816105a7602093836119f0565b810103126103bd576105b890611bb6565b5f610435565b3d915061059a565b503461020f578060031936011261020f576040517f00000000000000000000000000000000000000000000000000000000000000006001600160a01b03168152602090f35b503461020f578060031936011261020f5761012060405161062b816119d4565b8281528260208201528260408201528260608201528260808201528260a0820152606060c0820152606060e082015282610100820152015260405161066f816119d4565b6001546001600160a01b03908116825260025481166020830190815260035490911660408301908152600454606084019081526005546080850190815260065460a08601908152939493919291610770919061075c906106cd611a28565b9060c088019182526106dd611b0a565b60e089810191825260095460ff1615156101008b01908152600a546101208c019081526040805160208082529d516001600160a01b039081169e82019e909e529d518d16908e01529851909a1660608c0152975160808b0152935160a08a01525160c0890152516101409588019590955286959461016087019061193a565b9051858203601f190161010087015261193a565b91511515610120840152516101408301520390f35b503461020f57608036600319011261020f576004356107a26119be565b906044356001600160401b0381116103a6576107c290369060040161195e565b90926064356001600160401b038111610930576107e390369060040161195e565b906107ec611cab565b1561091d57869392916107fe91611d82565b60035460405163095ea7b360e01b81529060209082906001600160a01b031681878161082e8b8960048401611c50565b03925af180156103b257610900575b506001600160a01b031693843b156108fc5781606484926040519485938492632db6d39960e01b845289600485015260406024850152816044850152848401378181018301859052601f01601f1916810103018183885af1801561036d576108e7575b505060035460405130927f9f784fc02a186f1c98b2d9f15fda084da27cdd291a3785d978f91911d880516b9282916108e1916001600160a01b031683611c50565b0390a380f35b816108f1916119f0565b6108fc57825f6108a0565b8280fd5b6109189060203d6020116103665761035881836119f0565b61083d565b631564c0e160e11b875233600452602487fd5b8580fd5b503461020f578060031936011261020f576020600a54604051908152f35b503461020f578060031936011261020f576020600654604051908152f35b503461020f57602036600319011261020f5760043561098d611cab565b156109c4576020817fb6ac66853c4e59c71e118d25ab494bb847c4e5eb0c8894898c5343e6f61afc1292600655604051908152a180f35b631564c0e160e11b825233600452602482fd5b503461020f578060031936011261020f576109f0611cab565b15610283573360018060a01b031960015416176001557f55489ce0259bd691120d8860861be1c401c7c16a3cd268d21045756af4ecc5ca6020604051338152a180f35b503461020f57602036600319011261020f57600435610a50611cab565b156109c4576020817f333b26cca69716ad4680ddb07663f5bfb4f06045671f336af9a83690a3ae00f992600455604051908152a180f35b503461020f578060031936011261020f57604051637aaceb9560e01b8152906020826004817f00000000000000000000000000000000000000000000000000000000000000006001600160a01b03165afa90811561021a5780916101da576040516001600160a01b0383168152602090f35b503461020f578060031936011261020f576001546002546003546004546005546006546001600160a01b0394851695851694929390921691610b999190610b8b90610b42611a28565b90610b4b611b0a565b9360ff6009541697600a54976040519b8c9b8c5260208c015260408b015260608a0152608089015260a088015261014060c088015261014087019061193a565b9085820360e087015261193a565b9115156101008401526101208301520390f35b5034610e1b576020366003190112610e1b576004356001600160401b038111610e1b5736602382011215610e1b578060040135610be881611a11565b91610bf660405193846119f0565b8183526024602084019260051b82010190368211610e1b57602401915b8183106112ee575050604051628bec5760e51b81529050602081600481305afa9081156110fa575f916112b4575b506001600160a01b031633036112a157610c59611d4d565b8051610c7d610c6782611a11565b91610c7560405193846119f0565b808352611a11565b602082019290601f1901368437805193610caf610c9986611a11565b95610ca760405197886119f0565b808752611a11565b6020860190601f19013682376003546040516370a0823160e01b81523060048201526001600160a01b0390911690602081602481855afa9081156110fa575f9161126f575b50610f89575b50815b8351811015610e655760249060206001600160a01b03610d1d8388611c83565b5116604051938480926370a0823160e01b82523060048301525afa9182156103b2578492610e32575b5081610d57575b6001915001610cfd565b6001600160a01b03610d698287611c83565b5116916024610d76611bca565b9360206001600160a01b03610d8b868b611c83565b5116604051938480926370a0823160e01b82523060048301525afa918215610e27578792610def575b5090600194610dc292611dd3565b828060a01b03610dd28388611c83565b5116610dde8389611c83565b52610de9828a611c83565b52610d4d565b91506020823d8211610e1f575b81610e09602093836119f0565b81010312610e1b579051906001610db4565b5f80fd5b3d9150610dfc565b6040513d89823e3d90fd5b9091506020813d8211610e5d575b81610e4d602093836119f0565b81010312610e1b5751905f610d46565b3d9150610e40565b5085908492866040518086518390855b818110610f6a575050508190039020936040518082518690865b818110610f54575050508190039020956040519687967f46b8771620f6acf56cb03d3e835ea8024c7dcbcf05fcc3f6ade9e19d1a3e212b8680a3835f516020611e615f395f51905f525d60408601906040875251809152606086019290845b818110610f32575050506020908583038287015251918281520192915b818110610f19575050500390f35b8251845285945060209384019390920191600101610f0b565b82516001600160a01b0316855288975060209485019490920191600101610eee565b8251845260209384019390920191600101610e8f565b82516001600160a01b0316845260209384019390920191600101610e75565b6001546040516330fe427560e21b81529060a090829060049082906001600160a01b03165afa9081156110fa575f916111dd575b50516040516370a0823160e01b81523060048201526001600160a01b039091169190602081602481855afa9081156110fa575f916111ab575b5060205f6040519261102b8461101d8582019363095ea7b360e01b85528960248401611c50565b03601f1981018652856119f0565b83519082865af15f513d8261118f575b50501561114b575b50506003546040516370a0823160e01b815230600482015290602090829060249082906001600160a01b03165afa9081156110fa575f91611119575b50604051602081018181106001600160401b03821117611105576040525f8152823b15610e1b576110d6925f9283604051809681958294632db6d39960e01b8452600484015260406024840152604483019061193a565b03925af180156110fa5715610cfa576110f29192505f906119f0565b5f905f610cfa565b6040513d5f823e3d90fd5b634e487b7160e01b5f52604160045260245ffd5b90506020813d602011611143575b81611134602093836119f0565b81010312610e1b57515f61107f565b3d9150611127565b6111889161118360405163095ea7b360e01b60208201528560248201525f60448201526044815261117d6064826119f0565b82611e08565b611e08565b5f80611043565b9091506111a35750813b15155b5f8061103b565b60011461119c565b90506020813d6020116111d5575b816111c6602093836119f0565b81010312610e1b57515f610ff6565b3d91506111b9565b905060a0813d60a011611267575b816111f860a093836119f0565b81010312610e1b576040519060a082018281106001600160401b038211176111055760405280516001600160a01b0381168103610e1b5761125c91608091845260208101516020850152604081015160408501526060810151606085015201611bb6565b60808201525f610fbd565b3d91506111eb565b90506020813d602011611299575b8161128a602093836119f0565b81010312610e1b57515f610cf4565b3d915061127d565b631184b31b60e21b5f523360045260245ffd5b90506020813d6020116112e6575b816112cf602093836119f0565b81010312610e1b576112e090611bb6565b5f610c41565b3d91506112c2565b82356001600160a01b0381168103610e1b57815260209283019201610c13565b34610e1b576040366003190112610e1b576004356003811015610e1b576020906113366119be565b604051908382019260f81b835260018060601b03199060601b166021820152601581526113646035826119f0565b519020604051908152f35b34610e1b576020366003190112610e1b5760043561138b611cab565b156113c1576020817ffbe2d5c01ea8ba5596d6c4e6c82c6d4a0a0ee1128689993a4a5ba0169273d69f92600555604051908152a1005b631564c0e160e11b5f523360045260245ffd5b34610e1b575f366003190112610e1b576040516361d027b360e01b81526020816004817f00000000000000000000000000000000000000000000000000000000000000006001600160a01b03165afa80156110fa575f90611445575b6040516001600160a01b039091168152602090f35b506020813d602011611477575b8161145f602093836119f0565b81010312610e1b57611472602091611bb6565b611430565b3d9150611452565b34610e1b575f366003190112610e1b57604051635b0f83f360e01b81526020816004817f00000000000000000000000000000000000000000000000000000000000000006001600160a01b03165afa80156110fa575f90611445576040516001600160a01b039091168152602090f35b34610e1b576020366003190112610e1b5760043561150b611cab565b156113c1576020817fd3c6d0ab315f2f1352f036cd9f401b49e38e1b90907e195225e8105f9a0b6f0292600a55604051908152a1005b34610e1b575f366003190112610e1b576003546040516001600160a01b039091168152602090f35b34610e1b575f366003190112610e1b576001546040516001600160a01b039091168152602090f35b34610e1b575f366003190112610e1b576020600554604051908152f35b34610e1b575f366003190112610e1b57602060ff600954166040519015158152f35b34610e1b576115de3661198b565b6115e6611d4d565b604051631b93849b60e11b8152602081600481305afa9081156110fa575f9161179a575b50611613611cab565b156116b8575b5061162391611d82565b6003546040516323b872dd60e01b602082015233602482015230604482015260648082018490528152611664916001600160a01b03166111836084836119f0565b60035460405133927fcbaa1442ac205415c9d69643e7b60ec73d1de35dbc807c21ec288c70ddc4207b9282916116a3916001600160a01b031683611c50565b0390a25f5f516020611e615f395f51905f525d005b604051628bec5760e51b8152602081600481305afa9081156110fa575f91611760575b506001600160a01b031633146116195760405163d25dd10160e01b815233600482015290602090829060249082906001600160a01b03165afa9081156110fa575f91611741575b501561172e5783611619565b638f7a567d60e01b5f523360045260245ffd5b61175a915060203d6020116103665761035881836119f0565b84611722565b90506020813d602011611792575b8161177b602093836119f0565b81010312610e1b5761178c90611bb6565b856116db565b3d915061176e565b90506020813d6020116117cc575b816117b5602093836119f0565b81010312610e1b576117c690611bb6565b8461160a565b3d91506117a8565b34610e1b576117e23661198b565b6117ea611cab565b156113c157611800916117fb611d4d565b611d82565b60035461181990829033906001600160a01b0316611dd3565b60035460405133927fd5e872c5ecfb1bb8820b2e6a20e31b883682282da886621541f71e31ec11947e9282916116a3916001600160a01b031683611c50565b34610e1b575f366003190112610e1b576020611872611bca565b6040516001600160a01b039091168152f35b34610e1b575f366003190112610e1b576118b361189f611a28565b60405191829160208352602083019061193a565b0390f35b34610e1b575f366003190112610e1b576003546370a0823160e01b8252306004830152602090829060249082906001600160a01b03165afa80156110fa575f90611907575b602090604051908152f35b506020813d602011611932575b81611921602093836119f0565b81010312610e1b57602090516118fc565b3d9150611914565b805180835260209291819084018484015e5f828201840152601f01601f1916010190565b9181601f84011215610e1b578235916001600160401b038311610e1b5760208381860195010111610e1b57565b906040600319830112610e1b5760043591602435906001600160401b038211610e1b576119ba9160040161195e565b9091565b602435906001600160a01b0382168203610e1b57565b61014081019081106001600160401b0382111761110557604052565b90601f801991011681019081106001600160401b0382111761110557604052565b6001600160401b0381116111055760051b60200190565b604051905f6007548060011c9160018216918215611b00575b602084108314611aec578386528592908115611acd5750600114611a6e575b611a6c925003836119f0565b565b5060075f90815290917fa66cc928b5edb82af9bd49922954155ab7b0942694bea4ce44661d9a8736c6885b818310611ab1575050906020611a6c92820101611a60565b6020919350806001915483858901015201910190918492611a99565b60209250611a6c94915060ff191682840152151560051b820101611a60565b634e487b7160e01b5f52602260045260245ffd5b92607f1692611a41565b604051905f6008548060011c9160018216918215611bac575b602084108314611aec578386528592908115611acd5750600114611b4d57611a6c925003836119f0565b5060085f90815290917ff3f7a9fe364faab93b216da50a3214154f22a0a2b415b23a84c8169e8b636ee35b818310611b90575050906020611a6c92820101611a60565b6020919350806001915483858901015201910190918492611b78565b92607f1692611b23565b51906001600160a01b0382168203610e1b57565b604051628bec5760e51b81526020816004817f00000000000000000000000000000000000000000000000000000000000000006001600160a01b03165afa9081156110fa575f91611c19575090565b90506020813d602011611c48575b81611c34602093836119f0565b81010312610e1b57611c4590611bb6565b90565b3d9150611c27565b6001600160a01b039091168152602081019190915260400190565b90816020910312610e1b57518015158103610e1b5790565b8051821015611c975760209160051b010190565b634e487b7160e01b5f52603260045260245ffd5b5f54604051600160f91b60208083019182526001600160601b03193060601b16602184015260158352611d1f9390926001600160a01b039091169190611cf26035826119f0565b519020604051632474521560e21b8152600481019190915233602482015292839190829081906044820190565b03915afa9081156110fa575f91611d34575090565b611c45915060203d6020116103665761035881836119f0565b5f516020611e615f395f51905f525c611d735760015f516020611e615f395f51905f525d565b633ee5aeb560e01b5f5260045ffd5b5015801580611dc6575b611db75780611dab575b611d9c57565b63332863a960e11b5f5260045ffd5b5060ff60095416611d96565b630cd0fdf960e01b5f5260045ffd5b5060ff6009541615611d8c565b611183611a6c9392611dfa60405194859263a9059cbb60e01b602085015260248401611c50565b03601f1981018452836119f0565b905f602091828151910182855af1156110fa575f513d611e5757506001600160a01b0381163b155b611e375750565b635274afe760e01b5f9081526001600160a01b0391909116600452602490fd5b60011415611e3056fe9b779b17422d0df92223018b32b4d1fa46e071723d6817e2486d003becc55f00a26469706673582212202f5072f9ab4b5a5c36afd1f7b1ef84d121e697f5424c7e23fb2dc29635ce120264736f6c634300081c0033",
  "linkReferences": {},
  "deployedLinkReferences": {}
}