{
  "_format": "hh-sol-artifact-1",
  "contractName": "VotingDecayLibrary",
  "sourceName": "@summerfi/voting-decay/VotingDecayLibrary.sol",
  "abi": [
    {
      "inputs": [],
      "name": "AccountNotInitialized",
      "type": "error"
    },
    {
      "inputs": [],
      "name": "InvalidDecayRate",
      "type": "error"
    },
    {
      "inputs": [],
      "name": "InvalidDecayType",
      "type": "error"
    },
    {
      "anonymous": false,
      "inputs": [
        {
          "indexed": false,
          "internalType": "address",
          "name": "account",
          "type": "address"
        }
      ],
      "name": "AccountInitialized",
      "type": "event"
    },
    {
      "anonymous": false,
      "inputs": [
        {
          "indexed": false,
          "internalType": "uint40",
          "name": "newWindow",
          "type": "uint40"
        }
      ],
      "name": "DecayFreeWindowSet",
      "type": "event"
    },
    {
      "anonymous": false,
      "inputs": [
        {
          "indexed": false,
          "internalType": "uint8",
          "name": "newFunction",
          "type": "uint8"
        }
      ],
      "name": "DecayFunctionSet",
      "type": "event"
    },
    {
      "anonymous": false,
      "inputs": [
        {
          "indexed": false,
          "internalType": "uint256",
          "name": "newRate",
          "type": "uint256"
        }
      ],
      "name": "DecayRateSet",
      "type": "event"
    },
    {
      "anonymous": false,
      "inputs": [
        {
          "indexed": false,
          "internalType": "address",
          "name": "account",
          "type": "address"
        }
      ],
      "name": "DecayReset",
      "type": "event"
    },
    {
      "anonymous": false,
      "inputs": [
        {
          "indexed": false,
          "internalType": "address",
          "name": "account",
          "type": "address"
        },
        {
          "indexed": false,
          "internalType": "uint256",
          "name": "newDecayFactor",
          "type": "uint256"
        }
      ],
      "name": "DecayUpdated",
      "type": "event"
    },
    {
      "inputs": [],
      "name": "MAX_DELEGATION_DEPTH",
      "outputs": [
        {
          "internalType": "uint256",
          "name": "",
          "type": "uint256"
        }
      ],
      "stateMutability": "view",
      "type": "function"
    },
    {
      "inputs": [],
      "name": "WAD",
      "outputs": [
        {
          "internalType": "uint256",
          "name": "",
          "type": "uint256"
        }
      ],
      "stateMutability": "view",
      "type": "function"
    }
  ],
  "bytecode": "0x6080806040523460185760e4908161001d823930815050f35b5f80fdfe60808060405260043610156011575f80fd5b5f3560e01c9081636a146024146094575080637969a71314607f57637b49a9d1146039575f80fd5b6040366003190112607b576024356001600160a01b03811690819003607b575f52600435602052602064ffffffffff600160405f200154161515604051908152f35b5f80fd5b5f366003190112607b57602060405160028152f35b5f366003190112607b5780670de0b6b3a764000060209252f3fea2646970667358221220297bf40e11228b1dfe172d35ceaeb429b42ce5d93d84b0b25105dd51691891a764736f6c634300081c0033",
  "linkReferences": {},
  "deployedLinkReferences": {}
}