{
  "_format": "hh-sol-artifact-1",
  "contractName": "SummerGovernor",
  "sourceName": "src/contracts/SummerGovernor.sol",
  "abi": [
    {
      "inputs": [
        {
          "components": [
            {
              "internalType": "contract IVotes",
              "name": "token",
              "type": "address"
            },
            {
              "internalType": "contract TimelockController",
              "name": "timelock",
              "type": "address"
            },
            {
              "internalType": "uint48",
              "name": "votingDelay",
              "type": "uint48"
            },
            {
              "internalType": "uint32",
              "name": "votingPeriod",
              "type": "uint32"
            },
            {
              "internalType": "uint256",
              "name": "proposalThreshold",
              "type": "uint256"
            },
            {
              "internalType": "uint256",
              "name": "quorumFraction",
              "type": "uint256"
            },
            {
              "internalType": "address",
              "name": "initialWhitelistGuardian",
              "type": "address"
            },
            {
              "internalType": "address",
              "name": "endpoint",
              "type": "address"
            },
            {
              "internalType": "uint32",
              "name": "proposalChainId",
              "type": "uint32"
            }
          ],
          "internalType": "struct ISummerGovernor.GovernorParams",
          "name": "params",
          "type": "tuple"
        }
      ],
      "stateMutability": "nonpayable",
      "type": "constructor"
    },
    {
      "inputs": [],
      "name": "CheckpointUnorderedInsertion",
      "type": "error"
    },
    {
      "inputs": [],
      "name": "DecayController__ZeroAddress",
      "type": "error"
    },
    {
      "inputs": [],
      "name": "FailedCall",
      "type": "error"
    },
    {
      "inputs": [
        {
          "internalType": "address",
          "name": "voter",
          "type": "address"
        }
      ],
      "name": "GovernorAlreadyCastVote",
      "type": "error"
    },
    {
      "inputs": [
        {
          "internalType": "uint256",
          "name": "proposalId",
          "type": "uint256"
        }
      ],
      "name": "GovernorAlreadyQueuedProposal",
      "type": "error"
    },
    {
      "inputs": [],
      "name": "GovernorDisabledDeposit",
      "type": "error"
    },
    {
      "inputs": [
        {
          "internalType": "address",
          "name": "proposer",
          "type": "address"
        },
        {
          "internalType": "uint256",
          "name": "votes",
          "type": "uint256"
        },
        {
          "internalType": "uint256",
          "name": "threshold",
          "type": "uint256"
        }
      ],
      "name": "GovernorInsufficientProposerVotes",
      "type": "error"
    },
    {
      "inputs": [
        {
          "internalType": "uint256",
          "name": "targets",
          "type": "uint256"
        },
        {
          "internalType": "uint256",
          "name": "calldatas",
          "type": "uint256"
        },
        {
          "internalType": "uint256",
          "name": "values",
          "type": "uint256"
        }
      ],
      "name": "GovernorInvalidProposalLength",
      "type": "error"
    },
    {
      "inputs": [
        {
          "internalType": "uint256",
          "name": "quorumNumerator",
          "type": "uint256"
        },
        {
          "internalType": "uint256",
          "name": "quorumDenominator",
          "type": "uint256"
        }
      ],
      "name": "GovernorInvalidQuorumFraction",
      "type": "error"
    },
    {
      "inputs": [
        {
          "internalType": "address",
          "name": "voter",
          "type": "address"
        }
      ],
      "name": "GovernorInvalidSignature",
      "type": "error"
    },
    {
      "inputs": [],
      "name": "GovernorInvalidVoteParams",
      "type": "error"
    },
    {
      "inputs": [],
      "name": "GovernorInvalidVoteType",
      "type": "error"
    },
    {
      "inputs": [
        {
          "internalType": "uint256",
          "name": "votingPeriod",
          "type": "uint256"
        }
      ],
      "name": "GovernorInvalidVotingPeriod",
      "type": "error"
    },
    {
      "inputs": [
        {
          "internalType": "uint256",
          "name": "proposalId",
          "type": "uint256"
        }
      ],
      "name": "GovernorNonexistentProposal",
      "type": "error"
    },
    {
      "inputs": [
        {
          "internalType": "uint256",
          "name": "proposalId",
          "type": "uint256"
        }
      ],
      "name": "GovernorNotQueuedProposal",
      "type": "error"
    },
    {
      "inputs": [],
      "name": "GovernorNotSet",
      "type": "error"
    },
    {
      "inputs": [
        {
          "internalType": "address",
          "name": "account",
          "type": "address"
        }
      ],
      "name": "GovernorOnlyExecutor",
      "type": "error"
    },
    {
      "inputs": [
        {
          "internalType": "address",
          "name": "account",
          "type": "address"
        }
      ],
      "name": "GovernorOnlyProposer",
      "type": "error"
    },
    {
      "inputs": [],
      "name": "GovernorQueueNotImplemented",
      "type": "error"
    },
    {
      "inputs": [
        {
          "internalType": "address",
          "name": "proposer",
          "type": "address"
        }
      ],
      "name": "GovernorRestrictedProposer",
      "type": "error"
    },
    {
      "inputs": [
        {
          "internalType": "uint256",
          "name": "proposalId",
          "type": "uint256"
        },
        {
          "internalType": "enum IGovernor.ProposalState",
          "name": "current",
          "type": "uint8"
        },
        {
          "internalType": "bytes32",
          "name": "expectedStates",
          "type": "bytes32"
        }
      ],
      "name": "GovernorUnexpectedProposalState",
      "type": "error"
    },
    {
      "inputs": [
        {
          "internalType": "address",
          "name": "account",
          "type": "address"
        },
        {
          "internalType": "uint256",
          "name": "currentNonce",
          "type": "uint256"
        }
      ],
      "name": "InvalidAccountNonce",
      "type": "error"
    },
    {
      "inputs": [],
      "name": "InvalidDelegate",
      "type": "error"
    },
    {
      "inputs": [],
      "name": "InvalidEndpointCall",
      "type": "error"
    },
    {
      "inputs": [],
      "name": "InvalidShortString",
      "type": "error"
    },
    {
      "inputs": [],
      "name": "LzTokenUnavailable",
      "type": "error"
    },
    {
      "inputs": [
        {
          "internalType": "uint32",
          "name": "eid",
          "type": "uint32"
        }
      ],
      "name": "NoPeer",
      "type": "error"
    },
    {
      "inputs": [
        {
          "internalType": "uint256",
          "name": "msgValue",
          "type": "uint256"
        }
      ],
      "name": "NotEnoughNative",
      "type": "error"
    },
    {
      "inputs": [
        {
          "internalType": "address",
          "name": "addr",
          "type": "address"
        }
      ],
      "name": "OnlyEndpoint",
      "type": "error"
    },
    {
      "inputs": [
        {
          "internalType": "uint32",
          "name": "eid",
          "type": "uint32"
        },
        {
          "internalType": "bytes32",
          "name": "sender",
          "type": "bytes32"
        }
      ],
      "name": "OnlyPeer",
      "type": "error"
    },
    {
      "inputs": [
        {
          "internalType": "address",
          "name": "owner",
          "type": "address"
        }
      ],
      "name": "OwnableInvalidOwner",
      "type": "error"
    },
    {
      "inputs": [
        {
          "internalType": "address",
          "name": "account",
          "type": "address"
        }
      ],
      "name": "OwnableUnauthorizedAccount",
      "type": "error"
    },
    {
      "inputs": [
        {
          "internalType": "uint8",
          "name": "bits",
          "type": "uint8"
        },
        {
          "internalType": "uint256",
          "name": "value",
          "type": "uint256"
        }
      ],
      "name": "SafeCastOverflowedUintDowncast",
      "type": "error"
    },
    {
      "inputs": [
        {
          "internalType": "address",
          "name": "token",
          "type": "address"
        }
      ],
      "name": "SafeERC20FailedOperation",
      "type": "error"
    },
    {
      "inputs": [
        {
          "internalType": "string",
          "name": "str",
          "type": "string"
        }
      ],
      "name": "StringTooLong",
      "type": "error"
    },
    {
      "inputs": [],
      "name": "SummerGovernorInvalidCaller",
      "type": "error"
    },
    {
      "inputs": [
        {
          "internalType": "uint256",
          "name": "chainId",
          "type": "uint256"
        },
        {
          "internalType": "uint256",
          "name": "proposalChainId",
          "type": "uint256"
        }
      ],
      "name": "SummerGovernorInvalidChain",
      "type": "error"
    },
    {
      "inputs": [
        {
          "internalType": "uint256",
          "name": "proposalThreshold",
          "type": "uint256"
        },
        {
          "internalType": "uint256",
          "name": "minThreshold",
          "type": "uint256"
        },
        {
          "internalType": "uint256",
          "name": "maxThreshold",
          "type": "uint256"
        }
      ],
      "name": "SummerGovernorInvalidProposalThreshold",
      "type": "error"
    },
    {
      "inputs": [
        {
          "internalType": "address",
          "name": "originSender",
          "type": "address"
        }
      ],
      "name": "SummerGovernorInvalidSender",
      "type": "error"
    },
    {
      "inputs": [
        {
          "internalType": "address",
          "name": "trustedRemote",
          "type": "address"
        }
      ],
      "name": "SummerGovernorInvalidTrustedRemote",
      "type": "error"
    },
    {
      "inputs": [
        {
          "internalType": "address",
          "name": "whitelistGuardian",
          "type": "address"
        }
      ],
      "name": "SummerGovernorInvalidWhitelistGuardian",
      "type": "error"
    },
    {
      "inputs": [
        {
          "internalType": "address",
          "name": "proposer",
          "type": "address"
        },
        {
          "internalType": "uint256",
          "name": "votes",
          "type": "uint256"
        },
        {
          "internalType": "uint256",
          "name": "threshold",
          "type": "uint256"
        }
      ],
      "name": "SummerGovernorProposerBelowThresholdAndNotWhitelisted",
      "type": "error"
    },
    {
      "inputs": [
        {
          "internalType": "address",
          "name": "caller",
          "type": "address"
        },
        {
          "internalType": "address",
          "name": "proposer",
          "type": "address"
        },
        {
          "internalType": "uint256",
          "name": "votes",
          "type": "uint256"
        },
        {
          "internalType": "uint256",
          "name": "threshold",
          "type": "uint256"
        }
      ],
      "name": "SummerGovernorUnauthorizedCancellation",
      "type": "error"
    },
    {
      "anonymous": false,
      "inputs": [],
      "name": "EIP712DomainChanged",
      "type": "event"
    },
    {
      "anonymous": false,
      "inputs": [
        {
          "indexed": true,
          "internalType": "address",
          "name": "previousOwner",
          "type": "address"
        },
        {
          "indexed": true,
          "internalType": "address",
          "name": "newOwner",
          "type": "address"
        }
      ],
      "name": "OwnershipTransferred",
      "type": "event"
    },
    {
      "anonymous": false,
      "inputs": [
        {
          "indexed": false,
          "internalType": "uint32",
          "name": "eid",
          "type": "uint32"
        },
        {
          "indexed": false,
          "internalType": "bytes32",
          "name": "peer",
          "type": "bytes32"
        }
      ],
      "name": "PeerSet",
      "type": "event"
    },
    {
      "anonymous": false,
      "inputs": [
        {
          "indexed": false,
          "internalType": "uint256",
          "name": "proposalId",
          "type": "uint256"
        }
      ],
      "name": "ProposalCanceled",
      "type": "event"
    },
    {
      "anonymous": false,
      "inputs": [
        {
          "indexed": false,
          "internalType": "uint256",
          "name": "proposalId",
          "type": "uint256"
        },
        {
          "indexed": false,
          "internalType": "address",
          "name": "proposer",
          "type": "address"
        },
        {
          "indexed": false,
          "internalType": "address[]",
          "name": "targets",
          "type": "address[]"
        },
        {
          "indexed": false,
          "internalType": "uint256[]",
          "name": "values",
          "type": "uint256[]"
        },
        {
          "indexed": false,
          "internalType": "string[]",
          "name": "signatures",
          "type": "string[]"
        },
        {
          "indexed": false,
          "internalType": "bytes[]",
          "name": "calldatas",
          "type": "bytes[]"
        },
        {
          "indexed": false,
          "internalType": "uint256",
          "name": "voteStart",
          "type": "uint256"
        },
        {
          "indexed": false,
          "internalType": "uint256",
          "name": "voteEnd",
          "type": "uint256"
        },
        {
          "indexed": false,
          "internalType": "string",
          "name": "description",
          "type": "string"
        }
      ],
      "name": "ProposalCreated",
      "type": "event"
    },
    {
      "anonymous": false,
      "inputs": [
        {
          "indexed": false,
          "internalType": "uint256",
          "name": "proposalId",
          "type": "uint256"
        }
      ],
      "name": "ProposalExecuted",
      "type": "event"
    },
    {
      "anonymous": false,
      "inputs": [
        {
          "indexed": false,
          "internalType": "uint256",
          "name": "proposalId",
          "type": "uint256"
        },
        {
          "indexed": false,
          "internalType": "uint256",
          "name": "etaSeconds",
          "type": "uint256"
        }
      ],
      "name": "ProposalQueued",
      "type": "event"
    },
    {
      "anonymous": false,
      "inputs": [
        {
          "indexed": true,
          "internalType": "uint256",
          "name": "proposalId",
          "type": "uint256"
        },
        {
          "indexed": true,
          "internalType": "uint32",
          "name": "srcEid",
          "type": "uint32"
        }
      ],
      "name": "ProposalReceivedCrossChain",
      "type": "event"
    },
    {
      "anonymous": false,
      "inputs": [
        {
          "indexed": true,
          "internalType": "uint256",
          "name": "proposalId",
          "type": "uint256"
        },
        {
          "indexed": true,
          "internalType": "uint32",
          "name": "dstEid",
          "type": "uint32"
        }
      ],
      "name": "ProposalSentCrossChain",
      "type": "event"
    },
    {
      "anonymous": false,
      "inputs": [
        {
          "indexed": false,
          "internalType": "uint256",
          "name": "oldProposalThreshold",
          "type": "uint256"
        },
        {
          "indexed": false,
          "internalType": "uint256",
          "name": "newProposalThreshold",
          "type": "uint256"
        }
      ],
      "name": "ProposalThresholdSet",
      "type": "event"
    },
    {
      "anonymous": false,
      "inputs": [
        {
          "indexed": false,
          "internalType": "uint256",
          "name": "oldQuorumNumerator",
          "type": "uint256"
        },
        {
          "indexed": false,
          "internalType": "uint256",
          "name": "newQuorumNumerator",
          "type": "uint256"
        }
      ],
      "name": "QuorumNumeratorUpdated",
      "type": "event"
    },
    {
      "anonymous": false,
      "inputs": [
        {
          "indexed": false,
          "internalType": "address",
          "name": "oldTimelock",
          "type": "address"
        },
        {
          "indexed": false,
          "internalType": "address",
          "name": "newTimelock",
          "type": "address"
        }
      ],
      "name": "TimelockChange",
      "type": "event"
    },
    {
      "anonymous": false,
      "inputs": [
        {
          "indexed": true,
          "internalType": "uint32",
          "name": "chainId",
          "type": "uint32"
        },
        {
          "indexed": false,
          "internalType": "address",
          "name": "trustedRemote",
          "type": "address"
        }
      ],
      "name": "TrustedRemoteSet",
      "type": "event"
    },
    {
      "anonymous": false,
      "inputs": [
        {
          "indexed": true,
          "internalType": "address",
          "name": "voter",
          "type": "address"
        },
        {
          "indexed": false,
          "internalType": "uint256",
          "name": "proposalId",
          "type": "uint256"
        },
        {
          "indexed": false,
          "internalType": "uint8",
          "name": "support",
          "type": "uint8"
        },
        {
          "indexed": false,
          "internalType": "uint256",
          "name": "weight",
          "type": "uint256"
        },
        {
          "indexed": false,
          "internalType": "string",
          "name": "reason",
          "type": "string"
        }
      ],
      "name": "VoteCast",
      "type": "event"
    },
    {
      "anonymous": false,
      "inputs": [
        {
          "indexed": true,
          "internalType": "address",
          "name": "voter",
          "type": "address"
        },
        {
          "indexed": false,
          "internalType": "uint256",
          "name": "proposalId",
          "type": "uint256"
        },
        {
          "indexed": false,
          "internalType": "uint8",
          "name": "support",
          "type": "uint8"
        },
        {
          "indexed": false,
          "internalType": "uint256",
          "name": "weight",
          "type": "uint256"
        },
        {
          "indexed": false,
          "internalType": "string",
          "name": "reason",
          "type": "string"
        },
        {
          "indexed": false,
          "internalType": "bytes",
          "name": "params",
          "type": "bytes"
        }
      ],
      "name": "VoteCastWithParams",
      "type": "event"
    },
    {
      "anonymous": false,
      "inputs": [
        {
          "indexed": false,
          "internalType": "uint256",
          "name": "oldVotingDelay",
          "type": "uint256"
        },
        {
          "indexed": false,
          "internalType": "uint256",
          "name": "newVotingDelay",
          "type": "uint256"
        }
      ],
      "name": "VotingDelaySet",
      "type": "event"
    },
    {
      "anonymous": false,
      "inputs": [
        {
          "indexed": false,
          "internalType": "uint256",
          "name": "oldVotingPeriod",
          "type": "uint256"
        },
        {
          "indexed": false,
          "internalType": "uint256",
          "name": "newVotingPeriod",
          "type": "uint256"
        }
      ],
      "name": "VotingPeriodSet",
      "type": "event"
    },
    {
      "anonymous": false,
      "inputs": [
        {
          "indexed": true,
          "internalType": "address",
          "name": "account",
          "type": "address"
        },
        {
          "indexed": false,
          "internalType": "uint256",
          "name": "expiration",
          "type": "uint256"
        }
      ],
      "name": "WhitelistAccountExpirationSet",
      "type": "event"
    },
    {
      "anonymous": false,
      "inputs": [
        {
          "indexed": true,
          "internalType": "address",
          "name": "newGuardian",
          "type": "address"
        }
      ],
      "name": "WhitelistGuardianSet",
      "type": "event"
    },
    {
      "inputs": [],
      "name": "BALLOT_TYPEHASH",
      "outputs": [
        {
          "internalType": "bytes32",
          "name": "",
          "type": "bytes32"
        }
      ],
      "stateMutability": "view",
      "type": "function"
    },
    {
      "inputs": [],
      "name": "CLOCK_MODE",
      "outputs": [
        {
          "internalType": "string",
          "name": "",
          "type": "string"
        }
      ],
      "stateMutability": "view",
      "type": "function"
    },
    {
      "inputs": [],
      "name": "COUNTING_MODE",
      "outputs": [
        {
          "internalType": "string",
          "name": "",
          "type": "string"
        }
      ],
      "stateMutability": "pure",
      "type": "function"
    },
    {
      "inputs": [],
      "name": "EXTENDED_BALLOT_TYPEHASH",
      "outputs": [
        {
          "internalType": "bytes32",
          "name": "",
          "type": "bytes32"
        }
      ],
      "stateMutability": "view",
      "type": "function"
    },
    {
      "inputs": [],
      "name": "MAX_PROPOSAL_THRESHOLD",
      "outputs": [
        {
          "internalType": "uint256",
          "name": "",
          "type": "uint256"
        }
      ],
      "stateMutability": "view",
      "type": "function"
    },
    {
      "inputs": [],
      "name": "MIN_PROPOSAL_THRESHOLD",
      "outputs": [
        {
          "internalType": "uint256",
          "name": "",
          "type": "uint256"
        }
      ],
      "stateMutability": "view",
      "type": "function"
    },
    {
      "inputs": [
        {
          "components": [
            {
              "internalType": "uint32",
              "name": "srcEid",
              "type": "uint32"
            },
            {
              "internalType": "bytes32",
              "name": "sender",
              "type": "bytes32"
            },
            {
              "internalType": "uint64",
              "name": "nonce",
              "type": "uint64"
            }
          ],
          "internalType": "struct Origin",
          "name": "origin",
          "type": "tuple"
        }
      ],
      "name": "allowInitializePath",
      "outputs": [
        {
          "internalType": "bool",
          "name": "",
          "type": "bool"
        }
      ],
      "stateMutability": "view",
      "type": "function"
    },
    {
      "inputs": [
        {
          "internalType": "address[]",
          "name": "targets",
          "type": "address[]"
        },
        {
          "internalType": "uint256[]",
          "name": "values",
          "type": "uint256[]"
        },
        {
          "internalType": "bytes[]",
          "name": "calldatas",
          "type": "bytes[]"
        },
        {
          "internalType": "bytes32",
          "name": "descriptionHash",
          "type": "bytes32"
        }
      ],
      "name": "cancel",
      "outputs": [
        {
          "internalType": "uint256",
          "name": "",
          "type": "uint256"
        }
      ],
      "stateMutability": "nonpayable",
      "type": "function"
    },
    {
      "inputs": [
        {
          "internalType": "uint256",
          "name": "proposalId",
          "type": "uint256"
        },
        {
          "internalType": "uint8",
          "name": "support",
          "type": "uint8"
        }
      ],
      "name": "castVote",
      "outputs": [
        {
          "internalType": "uint256",
          "name": "",
          "type": "uint256"
        }
      ],
      "stateMutability": "nonpayable",
      "type": "function"
    },
    {
      "inputs": [
        {
          "internalType": "uint256",
          "name": "proposalId",
          "type": "uint256"
        },
        {
          "internalType": "uint8",
          "name": "support",
          "type": "uint8"
        },
        {
          "internalType": "address",
          "name": "voter",
          "type": "address"
        },
        {
          "internalType": "bytes",
          "name": "signature",
          "type": "bytes"
        }
      ],
      "name": "castVoteBySig",
      "outputs": [
        {
          "internalType": "uint256",
          "name": "",
          "type": "uint256"
        }
      ],
      "stateMutability": "nonpayable",
      "type": "function"
    },
    {
      "inputs": [
        {
          "internalType": "uint256",
          "name": "proposalId",
          "type": "uint256"
        },
        {
          "internalType": "uint8",
          "name": "support",
          "type": "uint8"
        },
        {
          "internalType": "string",
          "name": "reason",
          "type": "string"
        }
      ],
      "name": "castVoteWithReason",
      "outputs": [
        {
          "internalType": "uint256",
          "name": "",
          "type": "uint256"
        }
      ],
      "stateMutability": "nonpayable",
      "type": "function"
    },
    {
      "inputs": [
        {
          "internalType": "uint256",
          "name": "proposalId",
          "type": "uint256"
        },
        {
          "internalType": "uint8",
          "name": "support",
          "type": "uint8"
        },
        {
          "internalType": "string",
          "name": "reason",
          "type": "string"
        },
        {
          "internalType": "bytes",
          "name": "params",
          "type": "bytes"
        }
      ],
      "name": "castVoteWithReasonAndParams",
      "outputs": [
        {
          "internalType": "uint256",
          "name": "",
          "type": "uint256"
        }
      ],
      "stateMutability": "nonpayable",
      "type": "function"
    },
    {
      "inputs": [
        {
          "internalType": "uint256",
          "name": "proposalId",
          "type": "uint256"
        },
        {
          "internalType": "uint8",
          "name": "support",
          "type": "uint8"
        },
        {
          "internalType": "address",
          "name": "voter",
          "type": "address"
        },
        {
          "internalType": "string",
          "name": "reason",
          "type": "string"
        },
        {
          "internalType": "bytes",
          "name": "params",
          "type": "bytes"
        },
        {
          "internalType": "bytes",
          "name": "signature",
          "type": "bytes"
        }
      ],
      "name": "castVoteWithReasonAndParamsBySig",
      "outputs": [
        {
          "internalType": "uint256",
          "name": "",
          "type": "uint256"
        }
      ],
      "stateMutability": "nonpayable",
      "type": "function"
    },
    {
      "inputs": [],
      "name": "clock",
      "outputs": [
        {
          "internalType": "uint48",
          "name": "",
          "type": "uint48"
        }
      ],
      "stateMutability": "view",
      "type": "function"
    },
    {
      "inputs": [],
      "name": "config",
      "outputs": [
        {
          "internalType": "address",
          "name": "whitelistGuardian",
          "type": "address"
        }
      ],
      "stateMutability": "view",
      "type": "function"
    },
    {
      "inputs": [],
      "name": "eip712Domain",
      "outputs": [
        {
          "internalType": "bytes1",
          "name": "fields",
          "type": "bytes1"
        },
        {
          "internalType": "string",
          "name": "name",
          "type": "string"
        },
        {
          "internalType": "string",
          "name": "version",
          "type": "string"
        },
        {
          "internalType": "uint256",
          "name": "chainId",
          "type": "uint256"
        },
        {
          "internalType": "address",
          "name": "verifyingContract",
          "type": "address"
        },
        {
          "internalType": "bytes32",
          "name": "salt",
          "type": "bytes32"
        },
        {
          "internalType": "uint256[]",
          "name": "extensions",
          "type": "uint256[]"
        }
      ],
      "stateMutability": "view",
      "type": "function"
    },
    {
      "inputs": [],
      "name": "endpoint",
      "outputs": [
        {
          "internalType": "contract ILayerZeroEndpointV2",
          "name": "",
          "type": "address"
        }
      ],
      "stateMutability": "view",
      "type": "function"
    },
    {
      "inputs": [
        {
          "internalType": "address[]",
          "name": "targets",
          "type": "address[]"
        },
        {
          "internalType": "uint256[]",
          "name": "values",
          "type": "uint256[]"
        },
        {
          "internalType": "bytes[]",
          "name": "calldatas",
          "type": "bytes[]"
        },
        {
          "internalType": "bytes32",
          "name": "descriptionHash",
          "type": "bytes32"
        }
      ],
      "name": "execute",
      "outputs": [
        {
          "internalType": "uint256",
          "name": "",
          "type": "uint256"
        }
      ],
      "stateMutability": "payable",
      "type": "function"
    },
    {
      "inputs": [
        {
          "internalType": "address",
          "name": "account",
          "type": "address"
        },
        {
          "internalType": "uint256",
          "name": "timepoint",
          "type": "uint256"
        }
      ],
      "name": "getVotes",
      "outputs": [
        {
          "internalType": "uint256",
          "name": "",
          "type": "uint256"
        }
      ],
      "stateMutability": "view",
      "type": "function"
    },
    {
      "inputs": [
        {
          "internalType": "address",
          "name": "account",
          "type": "address"
        },
        {
          "internalType": "uint256",
          "name": "timepoint",
          "type": "uint256"
        },
        {
          "internalType": "bytes",
          "name": "params",
          "type": "bytes"
        }
      ],
      "name": "getVotesWithParams",
      "outputs": [
        {
          "internalType": "uint256",
          "name": "",
          "type": "uint256"
        }
      ],
      "stateMutability": "view",
      "type": "function"
    },
    {
      "inputs": [
        {
          "internalType": "address",
          "name": "account",
          "type": "address"
        }
      ],
      "name": "getWhitelistAccountExpiration",
      "outputs": [
        {
          "internalType": "uint256",
          "name": "",
          "type": "uint256"
        }
      ],
      "stateMutability": "view",
      "type": "function"
    },
    {
      "inputs": [],
      "name": "getWhitelistGuardian",
      "outputs": [
        {
          "internalType": "address",
          "name": "",
          "type": "address"
        }
      ],
      "stateMutability": "view",
      "type": "function"
    },
    {
      "inputs": [
        {
          "internalType": "uint256",
          "name": "proposalId",
          "type": "uint256"
        },
        {
          "internalType": "address",
          "name": "account",
          "type": "address"
        }
      ],
      "name": "hasVoted",
      "outputs": [
        {
          "internalType": "bool",
          "name": "",
          "type": "bool"
        }
      ],
      "stateMutability": "view",
      "type": "function"
    },
    {
      "inputs": [
        {
          "internalType": "address[]",
          "name": "targets",
          "type": "address[]"
        },
        {
          "internalType": "uint256[]",
          "name": "values",
          "type": "uint256[]"
        },
        {
          "internalType": "bytes[]",
          "name": "calldatas",
          "type": "bytes[]"
        },
        {
          "internalType": "bytes32",
          "name": "descriptionHash",
          "type": "bytes32"
        }
      ],
      "name": "hashProposal",
      "outputs": [
        {
          "internalType": "uint256",
          "name": "",
          "type": "uint256"
        }
      ],
      "stateMutability": "pure",
      "type": "function"
    },
    {
      "inputs": [
        {
          "components": [
            {
              "internalType": "uint32",
              "name": "srcEid",
              "type": "uint32"
            },
            {
              "internalType": "bytes32",
              "name": "sender",
              "type": "bytes32"
            },
            {
              "internalType": "uint64",
              "name": "nonce",
              "type": "uint64"
            }
          ],
          "internalType": "struct Origin",
          "name": "",
          "type": "tuple"
        },
        {
          "internalType": "bytes",
          "name": "",
          "type": "bytes"
        },
        {
          "internalType": "address",
          "name": "_sender",
          "type": "address"
        }
      ],
      "name": "isComposeMsgSender",
      "outputs": [
        {
          "internalType": "bool",
          "name": "",
          "type": "bool"
        }
      ],
      "stateMutability": "view",
      "type": "function"
    },
    {
      "inputs": [
        {
          "internalType": "address",
          "name": "account",
          "type": "address"
        }
      ],
      "name": "isWhitelisted",
      "outputs": [
        {
          "internalType": "bool",
          "name": "",
          "type": "bool"
        }
      ],
      "stateMutability": "view",
      "type": "function"
    },
    {
      "inputs": [
        {
          "components": [
            {
              "internalType": "uint32",
              "name": "srcEid",
              "type": "uint32"
            },
            {
              "internalType": "bytes32",
              "name": "sender",
              "type": "bytes32"
            },
            {
              "internalType": "uint64",
              "name": "nonce",
              "type": "uint64"
            }
          ],
          "internalType": "struct Origin",
          "name": "_origin",
          "type": "tuple"
        },
        {
          "internalType": "bytes32",
          "name": "_guid",
          "type": "bytes32"
        },
        {
          "internalType": "bytes",
          "name": "_message",
          "type": "bytes"
        },
        {
          "internalType": "address",
          "name": "_executor",
          "type": "address"
        },
        {
          "internalType": "bytes",
          "name": "_extraData",
          "type": "bytes"
        }
      ],
      "name": "lzReceive",
      "outputs": [],
      "stateMutability": "payable",
      "type": "function"
    },
    {
      "inputs": [],
      "name": "name",
      "outputs": [
        {
          "internalType": "string",
          "name": "",
          "type": "string"
        }
      ],
      "stateMutability": "view",
      "type": "function"
    },
    {
      "inputs": [
        {
          "internalType": "uint32",
          "name": "",
          "type": "uint32"
        },
        {
          "internalType": "bytes32",
          "name": "",
          "type": "bytes32"
        }
      ],
      "name": "nextNonce",
      "outputs": [
        {
          "internalType": "uint64",
          "name": "nonce",
          "type": "uint64"
        }
      ],
      "stateMutability": "view",
      "type": "function"
    },
    {
      "inputs": [
        {
          "internalType": "address",
          "name": "owner",
          "type": "address"
        }
      ],
      "name": "nonces",
      "outputs": [
        {
          "internalType": "uint256",
          "name": "",
          "type": "uint256"
        }
      ],
      "stateMutability": "view",
      "type": "function"
    },
    {
      "inputs": [],
      "name": "oAppVersion",
      "outputs": [
        {
          "internalType": "uint64",
          "name": "senderVersion",
          "type": "uint64"
        },
        {
          "internalType": "uint64",
          "name": "receiverVersion",
          "type": "uint64"
        }
      ],
      "stateMutability": "pure",
      "type": "function"
    },
    {
      "inputs": [
        {
          "internalType": "address",
          "name": "",
          "type": "address"
        },
        {
          "internalType": "address",
          "name": "",
          "type": "address"
        },
        {
          "internalType": "uint256[]",
          "name": "",
          "type": "uint256[]"
        },
        {
          "internalType": "uint256[]",
          "name": "",
          "type": "uint256[]"
        },
        {
          "internalType": "bytes",
          "name": "",
          "type": "bytes"
        }
      ],
      "name": "onERC1155BatchReceived",
      "outputs": [
        {
          "internalType": "bytes4",
          "name": "",
          "type": "bytes4"
        }
      ],
      "stateMutability": "nonpayable",
      "type": "function"
    },
    {
      "inputs": [
        {
          "internalType": "address",
          "name": "",
          "type": "address"
        },
        {
          "internalType": "address",
          "name": "",
          "type": "address"
        },
        {
          "internalType": "uint256",
          "name": "",
          "type": "uint256"
        },
        {
          "internalType": "uint256",
          "name": "",
          "type": "uint256"
        },
        {
          "internalType": "bytes",
          "name": "",
          "type": "bytes"
        }
      ],
      "name": "onERC1155Received",
      "outputs": [
        {
          "internalType": "bytes4",
          "name": "",
          "type": "bytes4"
        }
      ],
      "stateMutability": "nonpayable",
      "type": "function"
    },
    {
      "inputs": [
        {
          "internalType": "address",
          "name": "",
          "type": "address"
        },
        {
          "internalType": "address",
          "name": "",
          "type": "address"
        },
        {
          "internalType": "uint256",
          "name": "",
          "type": "uint256"
        },
        {
          "internalType": "bytes",
          "name": "",
          "type": "bytes"
        }
      ],
      "name": "onERC721Received",
      "outputs": [
        {
          "internalType": "bytes4",
          "name": "",
          "type": "bytes4"
        }
      ],
      "stateMutability": "nonpayable",
      "type": "function"
    },
    {
      "inputs": [],
      "name": "owner",
      "outputs": [
        {
          "internalType": "address",
          "name": "",
          "type": "address"
        }
      ],
      "stateMutability": "view",
      "type": "function"
    },
    {
      "inputs": [
        {
          "internalType": "uint32",
          "name": "eid",
          "type": "uint32"
        }
      ],
      "name": "peers",
      "outputs": [
        {
          "internalType": "bytes32",
          "name": "peer",
          "type": "bytes32"
        }
      ],
      "stateMutability": "view",
      "type": "function"
    },
    {
      "inputs": [],
      "name": "proposalChainId",
      "outputs": [
        {
          "internalType": "uint32",
          "name": "",
          "type": "uint32"
        }
      ],
      "stateMutability": "view",
      "type": "function"
    },
    {
      "inputs": [
        {
          "internalType": "uint256",
          "name": "proposalId",
          "type": "uint256"
        }
      ],
      "name": "proposalDeadline",
      "outputs": [
        {
          "internalType": "uint256",
          "name": "",
          "type": "uint256"
        }
      ],
      "stateMutability": "view",
      "type": "function"
    },
    {
      "inputs": [
        {
          "internalType": "uint256",
          "name": "proposalId",
          "type": "uint256"
        }
      ],
      "name": "proposalEta",
      "outputs": [
        {
          "internalType": "uint256",
          "name": "",
          "type": "uint256"
        }
      ],
      "stateMutability": "view",
      "type": "function"
    },
    {
      "inputs": [
        {
          "internalType": "uint256",
          "name": "proposalId",
          "type": "uint256"
        }
      ],
      "name": "proposalNeedsQueuing",
      "outputs": [
        {
          "internalType": "bool",
          "name": "",
          "type": "bool"
        }
      ],
      "stateMutability": "view",
      "type": "function"
    },
    {
      "inputs": [
        {
          "internalType": "uint256",
          "name": "proposalId",
          "type": "uint256"
        }
      ],
      "name": "proposalProposer",
      "outputs": [
        {
          "internalType": "address",
          "name": "",
          "type": "address"
        }
      ],
      "stateMutability": "view",
      "type": "function"
    },
    {
      "inputs": [
        {
          "internalType": "uint256",
          "name": "proposalId",
          "type": "uint256"
        }
      ],
      "name": "proposalSnapshot",
      "outputs": [
        {
          "internalType": "uint256",
          "name": "",
          "type": "uint256"
        }
      ],
      "stateMutability": "view",
      "type": "function"
    },
    {
      "inputs": [],
      "name": "proposalThreshold",
      "outputs": [
        {
          "internalType": "uint256",
          "name": "",
          "type": "uint256"
        }
      ],
      "stateMutability": "view",
      "type": "function"
    },
    {
      "inputs": [
        {
          "internalType": "uint256",
          "name": "proposalId",
          "type": "uint256"
        }
      ],
      "name": "proposalVotes",
      "outputs": [
        {
          "internalType": "uint256",
          "name": "againstVotes",
          "type": "uint256"
        },
        {
          "internalType": "uint256",
          "name": "forVotes",
          "type": "uint256"
        },
        {
          "internalType": "uint256",
          "name": "abstainVotes",
          "type": "uint256"
        }
      ],
      "stateMutability": "view",
      "type": "function"
    },
    {
      "inputs": [
        {
          "internalType": "address[]",
          "name": "targets",
          "type": "address[]"
        },
        {
          "internalType": "uint256[]",
          "name": "values",
          "type": "uint256[]"
        },
        {
          "internalType": "bytes[]",
          "name": "calldatas",
          "type": "bytes[]"
        },
        {
          "internalType": "string",
          "name": "description",
          "type": "string"
        }
      ],
      "name": "propose",
      "outputs": [
        {
          "internalType": "uint256",
          "name": "",
          "type": "uint256"
        }
      ],
      "stateMutability": "nonpayable",
      "type": "function"
    },
    {
      "inputs": [
        {
          "internalType": "address[]",
          "name": "targets",
          "type": "address[]"
        },
        {
          "internalType": "uint256[]",
          "name": "values",
          "type": "uint256[]"
        },
        {
          "internalType": "bytes[]",
          "name": "calldatas",
          "type": "bytes[]"
        },
        {
          "internalType": "bytes32",
          "name": "descriptionHash",
          "type": "bytes32"
        }
      ],
      "name": "queue",
      "outputs": [
        {
          "internalType": "uint256",
          "name": "",
          "type": "uint256"
        }
      ],
      "stateMutability": "nonpayable",
      "type": "function"
    },
    {
      "inputs": [
        {
          "internalType": "uint256",
          "name": "timepoint",
          "type": "uint256"
        }
      ],
      "name": "quorum",
      "outputs": [
        {
          "internalType": "uint256",
          "name": "",
          "type": "uint256"
        }
      ],
      "stateMutability": "view",
      "type": "function"
    },
    {
      "inputs": [],
      "name": "quorumDenominator",
      "outputs": [
        {
          "internalType": "uint256",
          "name": "",
          "type": "uint256"
        }
      ],
      "stateMutability": "view",
      "type": "function"
    },
    {
      "inputs": [
        {
          "internalType": "uint256",
          "name": "timepoint",
          "type": "uint256"
        }
      ],
      "name": "quorumNumerator",
      "outputs": [
        {
          "internalType": "uint256",
          "name": "",
          "type": "uint256"
        }
      ],
      "stateMutability": "view",
      "type": "function"
    },
    {
      "inputs": [],
      "name": "quorumNumerator",
      "outputs": [
        {
          "internalType": "uint256",
          "name": "",
          "type": "uint256"
        }
      ],
      "stateMutability": "view",
      "type": "function"
    },
    {
      "inputs": [
        {
          "internalType": "address",
          "name": "target",
          "type": "address"
        },
        {
          "internalType": "uint256",
          "name": "value",
          "type": "uint256"
        },
        {
          "internalType": "bytes",
          "name": "data",
          "type": "bytes"
        }
      ],
      "name": "relay",
      "outputs": [],
      "stateMutability": "payable",
      "type": "function"
    },
    {
      "inputs": [],
      "name": "renounceOwnership",
      "outputs": [],
      "stateMutability": "nonpayable",
      "type": "function"
    },
    {
      "inputs": [
        {
          "internalType": "uint32",
          "name": "_dstEid",
          "type": "uint32"
        },
        {
          "internalType": "address[]",
          "name": "_dstTargets",
          "type": "address[]"
        },
        {
          "internalType": "uint256[]",
          "name": "_dstValues",
          "type": "uint256[]"
        },
        {
          "internalType": "bytes[]",
          "name": "_dstCalldatas",
          "type": "bytes[]"
        },
        {
          "internalType": "bytes32",
          "name": "_dstDescriptionHash",
          "type": "bytes32"
        },
        {
          "internalType": "bytes",
          "name": "_options",
          "type": "bytes"
        }
      ],
      "name": "sendProposalToTargetChain",
      "outputs": [],
      "stateMutability": "nonpayable",
      "type": "function"
    },
    {
      "inputs": [
        {
          "internalType": "address",
          "name": "_delegate",
          "type": "address"
        }
      ],
      "name": "setDelegate",
      "outputs": [],
      "stateMutability": "nonpayable",
      "type": "function"
    },
    {
      "inputs": [
        {
          "internalType": "uint32",
          "name": "_eid",
          "type": "uint32"
        },
        {
          "internalType": "bytes32",
          "name": "_peer",
          "type": "bytes32"
        }
      ],
      "name": "setPeer",
      "outputs": [],
      "stateMutability": "nonpayable",
      "type": "function"
    },
    {
      "inputs": [
        {
          "internalType": "uint256",
          "name": "newProposalThreshold",
          "type": "uint256"
        }
      ],
      "name": "setProposalThreshold",
      "outputs": [],
      "stateMutability": "nonpayable",
      "type": "function"
    },
    {
      "inputs": [
        {
          "internalType": "uint32",
          "name": "_chainId",
          "type": "uint32"
        },
        {
          "internalType": "address",
          "name": "_trustedRemote",
          "type": "address"
        }
      ],
      "name": "setTrustedRemote",
      "outputs": [],
      "stateMutability": "nonpayable",
      "type": "function"
    },
    {
      "inputs": [
        {
          "internalType": "uint48",
          "name": "newVotingDelay",
          "type": "uint48"
        }
      ],
      "name": "setVotingDelay",
      "outputs": [],
      "stateMutability": "nonpayable",
      "type": "function"
    },
    {
      "inputs": [
        {
          "internalType": "uint32",
          "name": "newVotingPeriod",
          "type": "uint32"
        }
      ],
      "name": "setVotingPeriod",
      "outputs": [],
      "stateMutability": "nonpayable",
      "type": "function"
    },
    {
      "inputs": [
        {
          "internalType": "address",
          "name": "account",
          "type": "address"
        },
        {
          "internalType": "uint256",
          "name": "expiration",
          "type": "uint256"
        }
      ],
      "name": "setWhitelistAccountExpiration",
      "outputs": [],
      "stateMutability": "nonpayable",
      "type": "function"
    },
    {
      "inputs": [
        {
          "internalType": "address",
          "name": "_whitelistGuardian",
          "type": "address"
        }
      ],
      "name": "setWhitelistGuardian",
      "outputs": [],
      "stateMutability": "nonpayable",
      "type": "function"
    },
    {
      "inputs": [
        {
          "internalType": "uint256",
          "name": "proposalId",
          "type": "uint256"
        }
      ],
      "name": "state",
      "outputs": [
        {
          "internalType": "enum IGovernor.ProposalState",
          "name": "",
          "type": "uint8"
        }
      ],
      "stateMutability": "view",
      "type": "function"
    },
    {
      "inputs": [],
      "name": "summerToken",
      "outputs": [
        {
          "internalType": "contract ISummerToken",
          "name": "",
          "type": "address"
        }
      ],
      "stateMutability": "view",
      "type": "function"
    },
    {
      "inputs": [
        {
          "internalType": "bytes4",
          "name": "interfaceId",
          "type": "bytes4"
        }
      ],
      "name": "supportsInterface",
      "outputs": [
        {
          "internalType": "bool",
          "name": "",
          "type": "bool"
        }
      ],
      "stateMutability": "view",
      "type": "function"
    },
    {
      "inputs": [],
      "name": "timelock",
      "outputs": [
        {
          "internalType": "address",
          "name": "",
          "type": "address"
        }
      ],
      "stateMutability": "view",
      "type": "function"
    },
    {
      "inputs": [],
      "name": "token",
      "outputs": [
        {
          "internalType": "contract IERC5805",
          "name": "",
          "type": "address"
        }
      ],
      "stateMutability": "view",
      "type": "function"
    },
    {
      "inputs": [
        {
          "internalType": "address",
          "name": "newOwner",
          "type": "address"
        }
      ],
      "name": "transferOwnership",
      "outputs": [],
      "stateMutability": "nonpayable",
      "type": "function"
    },
    {
      "inputs": [
        {
          "internalType": "uint32",
          "name": "chainId",
          "type": "uint32"
        }
      ],
      "name": "trustedRemotes",
      "outputs": [
        {
          "internalType": "address",
          "name": "trustedRemote",
          "type": "address"
        }
      ],
      "stateMutability": "view",
      "type": "function"
    },
    {
      "inputs": [
        {
          "internalType": "uint256",
          "name": "newQuorumNumerator",
          "type": "uint256"
        }
      ],
      "name": "updateQuorumNumerator",
      "outputs": [],
      "stateMutability": "nonpayable",
      "type": "function"
    },
    {
      "inputs": [
        {
          "internalType": "contract TimelockController",
          "name": "newTimelock",
          "type": "address"
        }
      ],
      "name": "updateTimelock",
      "outputs": [],
      "stateMutability": "nonpayable",
      "type": "function"
    },
    {
      "inputs": [],
      "name": "version",
      "outputs": [
        {
          "internalType": "string",
          "name": "",
          "type": "string"
        }
      ],
      "stateMutability": "view",
      "type": "function"
    },
    {
      "inputs": [],
      "name": "votingDelay",
      "outputs": [
        {
          "internalType": "uint256",
          "name": "",
          "type": "uint256"
        }
      ],
      "stateMutability": "view",
      "type": "function"
    },
    {
      "inputs": [],
      "name": "votingPeriod",
      "outputs": [
        {
          "internalType": "uint256",
          "name": "",
          "type": "uint256"
        }
      ],
      "stateMutability": "view",
      "type": "function"
    },
    {
      "stateMutability": "payable",
      "type": "receive"
    }
  ],
  "bytecode": "0x6101e0604052346101265761001a6100156101bf565b6102b7565b604051614d9b9081610e4682396080518161422b015260a051816142e2015260c051816141f5015260e0518161427a015261010051816142a001526101205181611aad01526101405181611ad9015261016051818181611d97015281816123640152818161252401528181612607015281816130ad015281816137ca01528181613a5801528181613d8701528181613e450152614af5015261018051818181610fe1015281816112a201528181611414015281816125c30152612e6701526101a0518181816107d10152818161153f015281816120bc0152818161463e0152818161479a0152614c2701526101c051818181610f92015281816119e0015281816127540152612bf20152f35b5f80fd5b634e487b7160e01b5f52604160045260245ffd5b601f909101601f19168101906001600160401b0382119082101761016157604052565b61012a565b604051906101766101208361013e565b565b6040519061017660408361013e565b51906001600160a01b038216820361012657565b519065ffffffffffff8216820361012657565b519063ffffffff8216820361012657565b615c0161012081380391826040519384926101da828561013e565b8339810103126101265761026d6101006101f2610166565b926101fc81610187565b845261020a60208201610187565b602085015261021b6040820161019b565b604085015261022c606082016101ae565b60608501526080810151608085015260a081015160a085015261025160c08201610187565b60c085015261026260e08201610187565b60e0850152016101ae565b61010082015290565b6040519061028560408361013e565b60018252565b6040519061029a60408361013e565b600e82526d29bab6b6b2b923b7bb32b93737b960911b6020830152565b60e08101516020820151825160a084015160408501516001600160a01b0392831694610319949084169316918291869065ffffffffffff169061030160608a015163ffffffff1690565b9260808a01988951958061031361028b565b996103b7565b51683635c9adc5dea000008110801561038f575b610362575060c081015161035c9161010091610351906001600160a01b03166106e4565b015163ffffffff1690565b6101c052565b6309c6075760e01b5f52600452683635c9adc5dea0000060245269152d02c7e14af680000060445260645ffd5b5069152d02c7e14af6800000811161032d565b5f91031261012657565b6040513d5f823e3d90fd5b98966104856104a19761048061048f969a61047b61048a969f9d979d9a999a6103de610276565b60208101603160f81b81526103f2836109a7565b610120526103ff82610a97565b6101405282516020840120918260e05251902080610100524660a0526040519060208201927f8b73c3c69bb8fe3d512ecc4cf759cc79239f7b179b0ffacaa9a75d522b39400f8452604083015260608201524660808201523060a082015260a0815261046c60c08261013e565b5190206080523060c0526105ff565b610954565b61084d565b61089a565b61091b565b6001600160a01b031661016052610785565b6001600160a01b0316801561056957610180526001600160a01b03811615610555576104cc9061073d565b6001600160a01b039081166101a081905290821615610546576001600160a01b0316803b156101265760405163ca5eb5e160e01b81526001600160a01b039290921660048301525f908290602490829084905af180156105415761052d5750565b8061053b5f6101769361013e565b806103a2565b6103ac565b632d618d8160e21b5f5260045ffd5b631e4fbdf760e01b5f90815260045260245ffd5b6334566e4b60e21b5f5260045ffd5b90600182811c921680156105a6575b602083101461059257565b634e487b7160e01b5f52602260045260245ffd5b91607f1691610587565b601f82116105bd57505050565b5f5260205f20906020601f840160051c830193106105f5575b601f0160051c01905b8181106105ea575050565b5f81556001016105df565b90915081906105d6565b80519091906001600160401b0381116101615761062881610621600354610578565b60036105b0565b602092601f821160011461066857610658929382915f9261065d575b50508160011b915f199060031b1c19161790565b600355565b015190505f80610644565b60035f52601f198216937fc2575a0e9e593c00f959f8c92f12db2869c3395a3b0502d05e2516446f71f85b915f5b8681106106cc57508360019596106106b4575b505050811b01600355565b01515f1960f88460031b161c191690555f80806106a9565b91926020600181928685015181550194019201610696565b6001600160a01b0316801561072b57601080546001600160a01b031916821790557f7b8ac9dc00c39ab43cee17ce9ec96af81b02a21526626b7701fc69cb025711c25f80a2565b63224fa21960e21b5f5260045260245ffd5b600d80546001600160a01b039283166001600160a01b0319821681179092559091167f8be0079c531659141344cd1fd0a4f28419497f9722a3daafe3b4186f6b6457e05f80a3565b6064811161083657600c5490816107d6575f516020615be15f395f51905f5291505f5b6107c26107b3610c33565b6107bc84610b89565b90610d3c565b5050604080519182526020820192909252a1565b815f1981011161082257600c5f527fdf6966c971051c3d54ec59162606531493a51404a002842f56009d7e5cf4a8c691909101545f516020615be15f395f51905f52919060301c6107a8565b634e487b7160e01b5f52601160045260245ffd5b63243e544560e01b5f52600452606460245260445ffd5b600a547fc565b045403dc03c2eea82b81a0465edad9e2e7fc4d97e11421c209da93d7a93604065ffffffffffff81519481851686521693846020820152a165ffffffffffff191617600a55565b63ffffffff81169081156109085769ffffffff000000000000907f7e3f7f0708a84de9203036abaa450dccc85ad5ff52f78c170f3edb55cf5e88286040600a549481519063ffffffff8760301c1682526020820152a160301b169069ffffffff000000000000191617600a55565b63f1cfbf0560e01b5f525f60045260245ffd5b60095460408051918252602082018390527fccb45da8d5717e6c4544694297c4ba5cf151d455c9bb0ed4fc7a38411bc0546191a1600955565b600754604080516001600160a01b03808416825290931660208401819052927f08f74ea46ef7894f65eabfb5e6e695de773a000b47c529ab559178069b2264019190a16001600160a01b03191617600755565b908151602081105f146109c25750906109bf90610bba565b90565b6001600160401b038111610161576109e4816109de5f54610578565b5f6105b0565b602092601f8211600114610a1a57610a13929382915f9261065d5750508160011b915f199060031b1c19161790565b5f5560ff90565b5f8052601f198216937f290decd9548b62a8d60345a988386fc84ba6bc95484008f6362f93160ef3e563915f5b868110610a7f5750836001959610610a67575b505050811b015f5560ff90565b01515f1960f88460031b161c191690555f8080610a5a565b91926020600181928685015181550194019201610a47565b908151602081105f14610aaf5750906109bf90610bba565b6001600160401b03811161016157610ad381610acc600154610578565b60016105b0565b602092601f8211600114610b0a57610b02929382915f9261065d5750508160011b915f199060031b1c19161790565b60015560ff90565b60015f52601f198216937fb10e2d527612073b26eecdfd717e6a320cf44b4afac2b0732d9fcbe2b7fa0cf6915f5b868110610b715750836001959610610b59575b505050811b0160015560ff90565b01515f1960f88460031b161c191690555f8080610b4b565b91926020600181928685015181550194019201610b38565b6001600160d01b038111610ba3576001600160d01b031690565b6306dfcc6560e41b5f5260d060045260245260445ffd5b601f815111610be5576020815191015160208210610bd6571790565b5f198260200360031b1b161790565b604460209160405192839163305a27a960e01b83528160048401528051918291826024860152018484015e5f828201840152601f01601f19168101030190fd5b5f1981019190821161082257565b610160516040516324776b7d60e21b815290602090829060049082906001600160a01b03165afa5f9181610c99575b506109bf575065ffffffffffff4311610c815765ffffffffffff431690565b6306dfcc6560e41b5f5260306004524360245260445ffd5b9091506020813d602011610ccd575b81610cb56020938361013e565b8101031261012657610cc69061019b565b905f610c62565b3d9150610ca8565b908154680100000000000000008110156101615760018101808455811015610d28575f9283526020928390208251929093015160301b65ffffffffffff191665ffffffffffff9290921691909117910155565b634e487b7160e01b5f52603260045260245ffd5b600c549192918015610e1c57610d54610d7d91610c25565b600c5f527fdf6966c971051c3d54ec59162606531493a51404a002842f56009d7e5cf4a8c70190565b908154610d99610d928265ffffffffffff1690565b9160301c90565b9265ffffffffffff808416921691808311610e0d57869203610dd757610dd392509065ffffffffffff82549181199060301b169116179055565b9190565b5050610dd390610df6610de8610178565b65ffffffffffff9092168252565b6001600160d01b03851660208201525b600c610cd5565b632520601d60e01b5f5260045ffd5b50610e4090610e2c610de8610178565b6001600160d01b0384166020820152610e06565b5f919056fe6080604052600436101561001a575b3615610018575f80fd5b005b5f3560e01c806301ffc9a7146104a457806302a251a31461049f57806306f3f9e61461049a57806306fdde031461049557806313137d6514610490578063143489d01461048b578063150b7a0214610486578063160cbed71461048157806317442b701461047c5780631d187c5014610477578063223a0fc31461047257806325fd935a1461046d5780632656227d146104685780632d63f693146104635780632fe3e2611461045e5780633400288b146104595780633932abb1146104545780633af32abf1461044f5780633e4f49e61461044a5780634385963214610445578063452115d6146104405780634bf5d7e91461043b578063544ffc9c1461043657806354fd4d5014610431578063567813881461042c5780635b8d0e0d146104275780635e280f11146104225780635f398a141461041d57806360c4247f146104185780636f28376114610413578063715018a61461040e578063768e7812146104095780637905188714610404578063791f5d23146103ff57806379502c55146103fa578063798ec935146103fa5780637b3c71d3146103f55780637d25a05e146103f05780637d5e81e2146103eb5780637ecebe00146103e657806380c176eb146103e157806382413eac146103dc57806384b0196e146103d75780638da5cb5b146103d25780638ff262e3146103cd57806391ddadf4146103c857806395df68c3146103c357806397c3d334146103be5780639a802a6d146103b9578063a7713a70146103b4578063a890c910146103af578063a9a95294146103aa578063ab58fb8e146103a5578063b58131b0146103a0578063bb0b6a531461039b578063bc197c8114610396578063c01f9e3714610391578063c28bc2fa1461038c578063c59057e414610387578063ca5eb5e114610382578063d33219b41461037d578063dd4e2ba514610378578063deaaa7cc14610373578063ded0a6381461036e578063e540d01d14610369578063eb9019d414610364578063ece40cc11461035f578063f23a6e611461035a578063f2fde38b14610355578063f8ce560a14610350578063f9ddf50d1461034b578063fc0c546a146103465763ff7bd03d0361000e57612636565b6125f2565b6125ae565b6124f3565b612469565b6123fc565b6123a7565b612302565b612260565b6121f2565b6121b8565b612159565b612131565b612094565b612078565b61200d565b611fef565b611f42565b611f09565b611eec565b611eb9565b611e9d565b611e25565b611dfa565b611d25565b611d0a565b611ccf565b611ca5565b611b8d565b611b65565b611a95565b611a04565b6119c4565b611989565b6118db565b6118b5565b611860565b611838565b611815565b6117a3565b6116ed565b611692565b611614565b6115ee565b61156e565b61152a565b611494565b6113e2565b61138f565b61134e565b61131f565b61127b565b611226565b6111f7565b61117e565b611159565b6110ec565b6110b2565b61107d565b610f80565b610f5c565b610ea6565b610e65565b610e29565b610be2565b61099e565b610864565b61076d565b610644565b610546565b610520565b346105125760203660031901126105125760043563ffffffff60e01b8116809103610512576020906332a2ad4360e11b8114908115610501575b81156104f0575b506040519015158152f35b6301ffc9a760e01b1490505f6104e5565b630271189760e51b811491506104de565b5f80fd5b5f91031261051257565b34610512575f36600319011261051257602063ffffffff600a5460301c16604051908152f35b34610512576020366003190112610512576004356105626130f9565b606481116105f5576001600160d01b0361057a613e78565b1690610584613d72565b916001600160d01b0382116105dd577f0553476bf02ef2726e8ce5ced78d63e26e602e4a2257b1f559418e24b4633997926105c9906001600160d01b03841690614940565b5050604080519182526020820192909252a1005b506306dfcc6560e41b5f5260d060045260245260445ffd5b63243e544560e01b5f52600452606460245260445ffd5b805180835260209291819084018484015e5f828201840152601f01601f1916010190565b90602061064192818152019061060c565b90565b34610512575f366003190112610512576040515f6003546106648161267b565b80845290600181169081156106fa575060011461069c575b6106988361068c818503826108f1565b60405191829182610630565b0390f35b60035f9081527fc2575a0e9e593c00f959f8c92f12db2869c3395a3b0502d05e2516446f71f85b939250905b8082106106e05750909150810160200161068c61067c565b9192600181602092548385880101520191019092916106c8565b60ff191660208086019190915291151560051b8401909101915061068c905061067c565b606090600319011261051257600490565b9181601f84011215610512578235916001600160401b038311610512576020838186019501011161051257565b6001600160a01b0381160361051257565b60e0366003190112610512576107823661071e565b6084356001600160401b038111610512576107a190369060040161072f565b906107ad60a43561075c565b60c4356001600160401b038111610512576107cc90369060040161072f565b5050337f00000000000000000000000000000000000000000000000000000000000000006001600160a01b0316036108515782359261080a84610e4a565b61081384613176565b93602082013580950361082b575061001893506131a6565b63ffffffff8161083b8793610e4a565b63309afaf360e21b5f521660045260245260445ffd5b6391ac5e4f60e01b5f523360045260245ffd5b3461051257602036600319011261051257600480355f908152602091825260409020546001600160a01b03166040516001600160a01b039091168152f35b634e487b7160e01b5f52604160045260245ffd5b604081019081106001600160401b038211176108d157604052565b6108a2565b606081019081106001600160401b038211176108d157604052565b90601f801991011681019081106001600160401b038211176108d157604052565b604051906109216040836108f1565b565b6040519061092160a0836108f1565b6001600160401b0381116108d157601f01601f191660200190565b92919261095982610932565b9161096760405193846108f1565b829481845281830111610512578281602093845f960137010152565b9080601f83011215610512578160206106419335910161094d565b34610512576080366003190112610512576109ba60043561075c565b6109c560243561075c565b6064356001600160401b038111610512576109e4903690600401610983565b50600754306001600160a01b0390911603610a0b57604051630a85bd0160e11b8152602090f35b637485328f60e11b5f5260045ffd5b6001600160401b0381116108d15760051b60200190565b9080601f83011215610512578135610a4881610a1a565b92610a5660405194856108f1565b81845260208085019260051b82010192831161051257602001905b828210610a7e5750505090565b602080918335610a8d8161075c565b815201910190610a71565b9080601f83011215610512578135610aaf81610a1a565b92610abd60405194856108f1565b81845260208085019260051b82010192831161051257602001905b828210610ae55750505090565b8135815260209182019101610ad8565b9080601f83011215610512578135610b0c81610a1a565b92610b1a60405194856108f1565b81845260208085019260051b820101918383116105125760208201905b838210610b4657505050505090565b81356001600160401b03811161051257602091610b6887848094880101610983565b815201910190610b37565b6080600319820112610512576004356001600160401b0381116105125781610b9d91600401610a31565b916024356001600160401b0381116105125782610bbc91600401610a98565b91604435906001600160401b03821161051257610bdb91600401610af5565b9060643590565b3461051257610bf036610b73565b9092610bfe82858584613003565b93610c08856132fe565b50600754610c26906001600160a01b03165b6001600160a01b031690565b936040519363793d064960e11b8552602085600481895afa948515610dd4575f95610e08575b503060601b6bffffffffffffffffffffffff191618946020604051809263b1c5f42760e01b82528180610c858b89898c60048601613ffa565b03915afa908115610dd4575f91610dd9575b50610caa875f52600860205260405f2090565b55600754610cc0906001600160a01b0316610c1a565b90813b15610512575f8094610cec87604051998a97889687956308f2a0bb60e41b87526004870161403f565b03925af1908115610dd457610d1092610d0b92610dba575b5042613c50565b613c03565b9065ffffffffffff821615610dab577f9a2e42fd6722813d69113e7d0079d3d940171428df7373df9c7f7617cfda2892610d9883610d79610698956001610d5f875f52600460205260405f2090565b019065ffffffffffff1665ffffffffffff19825416179055565b6040805185815265ffffffffffff909216602083015290918291820190565b0390a16040519081529081906020820190565b634844252360e11b5f5260045ffd5b80610dc85f610dce936108f1565b80610516565b5f610d04565b61273e565b610dfb915060203d602011610e01575b610df381836108f1565b810190613e05565b5f610c97565b503d610de9565b610e2291955060203d602011610e0157610df381836108f1565b935f610c4c565b34610512575f36600319011261051257604080516001815260026020820152f35b63ffffffff81160361051257565b6004359061092182610e4a565b346105125760203660031901126105125763ffffffff600435610e8781610e4a565b165f526011602052602060018060a01b0360405f205416604051908152f35b3461051257604036600319011261051257600435610ec381610e4a565b60243590610ed08261075c565b610ed86130f9565b6001600160a01b038216908115610f495763ffffffff165f81815260116020908152604090912080546001600160a01b0319166001600160a01b0390951694909417909355917fd80f72ac1fabf984004ebf5c8a48affdef9cb0b24c64a132fc851893a4b7d5fc91604051908152a2005b5063e73964b560e01b5f5260045260245ffd5b34610512575f36600319011261051257602060405169152d02c7e14af68000008152f35b610f8936610b73565b919263ffffffff7f000000000000000000000000000000000000000000000000000000000000000016804603611067575033610fdf575b9061069893610fcf93926133d0565b6040519081529081906020820190565b7f00000000000000000000000000000000000000000000000000000000000000006001600160a01b03169390929190843b15610512575f8095602460405180988193633e4986ef60e11b83523360048401525af1938415610dd45761069895610fcf95611053575b50919293509350610fc0565b80610dc85f611061936108f1565b5f611047565b6327bf854560e21b5f524660045260245260445ffd5b34610512576020366003190112610512576004355f526004602052602065ffffffffffff60405f205460a01c16604051908152f35b34610512575f3660031901126105125760206040517f3e83946653575f9a39005e1545185629e92736b7528ab20ca3816f315424a8118152f35b34610512576040366003190112610512577f238399d427b947898edb290f5ff0f9109849b1c3ba196a42e35f00c50a54b98b604060043561112c81610e4a565b63ffffffff6024359161113d613536565b1690815f52600e60205280835f205582519182526020820152a1005b34610512575f36600319011261051257602065ffffffffffff600a5416604051908152f35b346105125760203660031901126105125760206111bc6004356111a08161075c565b6001600160a01b03165f908152600f6020526040902054421090565b6040519015158152f35b634e487b7160e01b5f52602160045260245ffd5b600811156111e457565b6111c6565b60088110156111e457602452565b3461051257602036600319011261051257611213600435613575565b60405160088210156111e4576020918152f35b3461051257604036600319011261051257602060ff61126f60243560043561124d8261075c565b5f52600b8452600360405f20019060018060a01b03165f5260205260405f2090565b54166040519015158152f35b346105125761128936610b73565b9192336112a0575b9061069893610fcf9392612749565b7f00000000000000000000000000000000000000000000000000000000000000006001600160a01b0316803b15610512575f8091602460405180948193633e4986ef60e11b83523360048401525af18015610dd457611300575b50611291565b806113105f8093969594966108f1565b8003126105125790915f6112fa565b34610512575f3660031901126105125761069861133a6137b6565b60405191829160208352602083019061060c565b34610512576020366003190112610512576004355f52600b602052606060405f20805490600260018201549101549060405192835260208301526040820152f35b34610512575f366003190112610512576106986040516113b06040826108f1565b60018152603160f81b602082015260405191829160208352602083019061060c565b6024359060ff8216820361051257565b34610512576040366003190112610512576004356113fe6113d2565b9033611412575b61069891610fcf916128a3565b7f00000000000000000000000000000000000000000000000000000000000000006001600160a01b031691823b15610512575f8093602460405180968193633e4986ef60e11b83523360048401525af1918215610dd45761069893610fcf93611480575b5091509150611405565b80610dc85f61148e936108f1565b5f611476565b346105125760c0366003190112610512576004356114b06113d2565b90604435906114be8261075c565b6064356001600160401b038111610512576114dd90369060040161072f565b6084356001600160401b038111610512576114fc903690600401610983565b9160a435946001600160401b0386116105125761069896611524610fcf973690600401610983565b956128c0565b34610512575f366003190112610512576040517f00000000000000000000000000000000000000000000000000000000000000006001600160a01b03168152602090f35b346105125760803660031901126105125760043561158a6113d2565b906044356001600160401b038111610512576115aa90369060040161072f565b9190926064356001600160401b038111610512576115e3946115d36115db923690600401610983565b94369161094d565b9133906139fb565b604051908152602090f35b3461051257602036600319011261051257602061160c6004356129c6565b604051908152f35b34610512576020366003190112610512576004356116318161075c565b6116396130f9565b6001600160a01b0316801561168057601080546001600160a01b031916821790557f7b8ac9dc00c39ab43cee17ce9ec96af81b02a21526626b7701fc69cb025711c25f80a2005b63224fa21960e21b5f5260045260245ffd5b34610512575f366003190112610512576116aa613536565b600d80546001600160a01b031981169091555f906001600160a01b03167f8be0079c531659141344cd1fd0a4f28419497f9722a3daafe3b4186f6b6457e08280a3005b346105125760c036600319011261051257611706610e58565b6024356001600160401b03811161051257611725903690600401610a31565b6044356001600160401b03811161051257611744903690600401610a98565b916064356001600160401b03811161051257611764903690600401610af5565b6084359060a435946001600160401b0386116105125761178b61001896369060040161072f565b959094612aee565b65ffffffffffff81160361051257565b34610512576020366003190112610512576004356117c081611793565b6117c86130f9565b600a547fc565b045403dc03c2eea82b81a0465edad9e2e7fc4d97e11421c209da93d7a93604065ffffffffffff81519481851686521693846020820152a165ffffffffffff191617600a55005b34610512575f366003190112610512576020604051683635c9adc5dea000008152f35b34610512575f366003190112610512576010546040516001600160a01b039091168152602090f35b346105125760603660031901126105125760043561187c6113d2565b90604435906001600160401b038211610512576020926118ad6118a661160c94369060040161072f565b369161094d565b913390613885565b34610512576040366003190112610512576118d1600435610e4a565b60206040515f8152f35b34610512576080366003190112610512576004356001600160401b0381116105125761190b903690600401610a31565b6024356001600160401b0381116105125761192a903690600401610a98565b906044356001600160401b0381116105125761194a903690600401610af5565b90606435916001600160401b03831161051257366023840112156105125761069893611983610fcf94369060248160040135910161094d565b92612be0565b34610512576020366003190112610512576004356119a68161075c565b60018060a01b03165f526002602052602060405f2054604051908152f35b34610512575f36600319011261051257602060405163ffffffff7f0000000000000000000000000000000000000000000000000000000000000000168152f35b346105125760a036600319011261051257611a1e3661071e565b506064356001600160401b03811161051257611a3e90369060040161072f565b50506020608435611a4e8161075c565b6040516001600160a01b0390911630148152f35b90602080835192838152019201905f5b818110611a7f5750505090565b8251845260209384019390920191600101611a72565b34610512575f36600319011261051257611b37611ad17f0000000000000000000000000000000000000000000000000000000000000000614838565b610698611afd7f0000000000000000000000000000000000000000000000000000000000000000614897565b611b4560405191611b0f6020846108f1565b5f808452366020850137604051958695600f60f81b875260e0602088015260e087019061060c565b90858203604087015261060c565b904660608501523060808501525f60a085015283820360c0850152611a62565b34610512575f36600319011261051257600d546040516001600160a01b039091168152602090f35b3461051257608036600319011261051257600435611ba96113d2565b9060443591611bb78361075c565b6064356001600160401b03811161051257611c6a611bdc611c6e923690600401610983565b6001600160a01b0386165f908152600260205260409020805460018101909155611c649060405160208101917ff2aad550cf55f045cb27e9c559f9889fdfb6e6cdaa032301d6ea397784ae51d7835288604083015260ff8816606083015260018060a01b038a16608083015260a082015260a08152611c5c60c0826108f1565b5190206138a2565b866138d2565b1590565b611c895790610fcf9161069893611c8361288f565b92613885565b6394ab6c0760e01b5f526001600160a01b03831660045260245ffd5b34610512575f366003190112610512576020611cbf613d72565b65ffffffffffff60405191168152f35b3461051257602036600319011261051257600435611cec8161075c565b60018060a01b03165f52600f602052602060405f2054604051908152f35b34610512575f36600319011261051257602060405160648152f35b3461051257606036600319011261051257600435611d428161075c565b6024356044356001600160401b03811161051257611d64903690600401610983565b50604051630748d63560e31b81526001600160a01b039283166004820152602481019190915290602090829060449082907f0000000000000000000000000000000000000000000000000000000000000000165afa8015610dd457610698915f91611ddb575b506040519081529081906020820190565b611df4915060203d602011610e0157610df381836108f1565b5f611dca565b34610512575f3660031901126105125760206001600160d01b03611e1c613e78565b16604051908152f35b3461051257602036600319011261051257600435611e428161075c565b611e4a6130f9565b600754604080516001600160a01b03808416825290931660208401819052927f08f74ea46ef7894f65eabfb5e6e695de773a000b47c529ab559178069b2264019190a16001600160a01b03191617600755005b3461051257602036600319011261051257602060405160018152f35b3461051257602036600319011261051257602061160c6004355f52600460205265ffffffffffff600160405f2001541690565b34610512575f366003190112610512576020600954604051908152f35b346105125760203660031901126105125763ffffffff600435611f2b81610e4a565b165f52600e602052602060405f2054604051908152f35b346105125760a036600319011261051257611f5e60043561075c565b611f6960243561075c565b6044356001600160401b03811161051257611f88903690600401610a98565b506064356001600160401b03811161051257611fa8903690600401610a98565b506084356001600160401b03811161051257611fc8903690600401610983565b50610698611fd4612eda565b6040516001600160e01b031990911681529081906020820190565b3461051257602036600319011261051257602061160c600435612ef9565b6060366003190112610512576004356120258161075c565b6024356044356001600160401b03811161051257610018925f9261204e8493369060040161072f565b91906120586130f9565b826040519384928337810185815203925af1612072612f40565b90613ebc565b3461051257602061160c61208b36610b73565b92919091613003565b34610512575f6020366003190112610512576004356120b28161075c565b6120ba613536565b7f00000000000000000000000000000000000000000000000000000000000000006001600160a01b031690813b156105125760405163ca5eb5e160e01b81526001600160a01b039091166004820152905f908290602490829084905af18015610dd457612125575080f35b61001891505f906108f1565b34610512575f366003190112610512576007546040516001600160a01b039091168152602090f35b34610512575f3660031901126105125761069860405161217a6040826108f1565b602081527f737570706f72743d627261766f2671756f72756d3d666f722c6162737461696e602082015260405191829160208352602083019061060c565b34610512575f3660031901126105125760206040517ff2aad550cf55f045cb27e9c559f9889fdfb6e6cdaa032301d6ea397784ae51d78152f35b346105125760403660031901126105125760043561220f8161075c565b7f4e7b7545bc5744d0e30425959f4687475774b6c7edad77d24cb51c7d967d451560206024359261223e6130f9565b6001600160a01b03165f818152600f83526040908190208590555193845292a2005b346105125760203660031901126105125760043561227d81610e4a565b6122856130f9565b63ffffffff81169081156122ef5763ffffffff60301b907f7e3f7f0708a84de9203036abaa450dccc85ad5ff52f78c170f3edb55cf5e88286040600a549481519063ffffffff8760301c1682526020820152a160301b169063ffffffff60301b191617600a555f80f35b63f1cfbf0560e01b5f525f60045260245ffd5b346105125760403660031901126105125760043561231f8161075c565b6024355f6040516123316020826108f1565b52604051630748d63560e31b81526001600160a01b039283166004820152602481019190915290602090829060449082907f0000000000000000000000000000000000000000000000000000000000000000165afa8015610dd457610698915f91611ddb57506040519081529081906020820190565b34610512576020366003190112610512576004356123c36130f9565b60095460408051918252602082018390527fccb45da8d5717e6c4544694297c4ba5cf151d455c9bb0ed4fc7a38411bc0546191a1600955005b346105125760a03660031901126105125761241860043561075c565b61242360243561075c565b6084356001600160401b03811161051257612442903690600401610983565b50600754306001600160a01b0390911603610a0b5760405163f23a6e6160e01b8152602090f35b34610512576020366003190112610512576004356124868161075c565b61248e613536565b6001600160a01b031680156124e057600d80546001600160a01b0319811683179091556001600160a01b03167f8be0079c531659141344cd1fd0a4f28419497f9722a3daafe3b4186f6b6457e05f80a3005b631e4fbdf760e01b5f525f60045260245ffd5b3461051257602036600319011261051257600435604051632394e7a360e21b815260048101829052906020826024817f00000000000000000000000000000000000000000000000000000000000000006001600160a01b03165afa918215610dd4575f92612589575b50612566906129c6565b90818102918183041490151715612584576106989060649004610fcf565b61286d565b6125669192506125a79060203d602011610e0157610df381836108f1565b919061255c565b34610512575f366003190112610512576040517f00000000000000000000000000000000000000000000000000000000000000006001600160a01b03168152602090f35b34610512575f366003190112610512576040517f00000000000000000000000000000000000000000000000000000000000000006001600160a01b03168152602090f35b346105125760603660031901126105125760206126523661071e565b63ffffffff813561266281610e4a565b165f52600e82528160405f205491013560405191148152f35b90600182811c921680156126a9575b602083101461269557565b634e487b7160e01b5f52602260045260245ffd5b91607f169161268a565b5f92918154916126c28361267b565b808352926001811690811561271757506001146126de57505050565b5f9081526020812093945091925b8383106126fd575060209250010190565b6001816020929493945483858701015201910191906126ec565b915050602093945060ff929192191683830152151560051b010190565b3561064181610e4a565b6040513d5f823e3d90fd5b9392919063ffffffff7f00000000000000000000000000000000000000000000000000000000000000001680460361106757506127a561278b84848489613003565b5f908152600460205260409020546001600160a01b031690565b94336001600160a01b03871614158061284d575b8061282f575b6127ce57610641949550613682565b856127e16127db42612881565b8261306a565b9061282b6127ee60095490565b6040516308a4880b60e31b81523360048201526001600160a01b039093166024840152604483019390935260648201929092529081906084820190565b0390fd5b50601054612845906001600160a01b0316610c1a565b3314156127bf565b505f19420142811161258457612863908761306a565b60095411156127b9565b634e487b7160e01b5f52601160045260245ffd5b5f1981019190821161258457565b6040519061289e6020836108f1565b5f8252565b61064191604051916128b66020846108f1565b5f83523390613885565b939092919695611c6a61297b916129758a6128f48160018060a01b03165f52600260205260405f2080549060018201905590565b6128ff36888a61094d565b602081519101208b5160208d0120906040519260208401947f3e83946653575f9a39005e1545185629e92736b7528ab20ca3816f315424a81186528d604086015260ff8d16606086015260018060a01b0316608085015260a084015260c083015260e082015260e08152611c5c610100826108f1565b8a6138d2565b6129965761064195969161299091369161094d565b926139fb565b6394ab6c0760e01b5f526001600160a01b03871660045260245ffd5b634e487b7160e01b5f52603260045260245ffd5b600c54905f19820182811161258457821115612ae957600c5f527fdf6966c971051c3d54ec59162606531493a51404a002842f56009d7e5cf4a8c682015465ffffffffffff8116821015612ae05750612a1e90613c03565b5f829160058411612a8c575b612a3493506144a0565b80612a3e57505f90565b612a80612a79612a5061064193612881565b600c5f527fdf6966c971051c3d54ec59162606531493a51404a002842f56009d7e5cf4a8c70190565b5460301c90565b6001600160d01b031690565b9192612a9781614342565b810390811161258457612a3493600c5f5265ffffffffffff8260205f2001541665ffffffffffff8516105f14612ace575091612a2a565b929150612ada90613c32565b90612a2a565b91505060301c90565b6129b2565b9390612b74612b4e979363ffffffff9793612b60612bb797612b0e6130f9565b612b1a83828689613003565b9b8c94612b3c604051988997602089015260a0604089015260c0880190612f6f565b868103601f1901606088015290611a62565b848103601f1901608086015290612fab565b9060a083015203601f1981018352826108f1565b612bb0612b95612b8f612b8836878761094d565b84896145db565b51613c40565b92612b9e610912565b9384525f60208501523094369161094d565b9085614711565b5016907f56fd6890539d17e2b7a1a260eb3a205a9a381dcd8a38504cbbb1eb3a2c316ddb5f80a3565b9091925f9333612e65575b63ffffffff7f000000000000000000000000000000000000000000000000000000000000000016804603612e4f57505f19420142811161258457612c2f903361306a565b6009549081811080612e37575b612e1e575050612c5482516020840120828686613003565b948351855190818114801590612e13575b8015612e0b575b612de957505065ffffffffffff612c9d612c8e885f52600460205260405f2090565b5460a01c65ffffffffffff1690565b16612dc957507f7d84a6263ae0d98d3329bd7b46bb4e8d6f98cd35a7adb45c274c8b7fd5ebd5e0939291612dc391612d03612cd6613d72565b65ffffffffffff612cfc612cf165ffffffffffff600a541690565b65ffffffffffff1690565b9116613c50565b612d21612d1863ffffffff600a5460301c1690565b63ffffffff1690565b91612da0612d378a5f52600460205260405f2090565b80546001600160a01b03191633178155612d77612d5385613c03565b825465ffffffffffff60a01b191660a09190911b65ffffffffffff60a01b16178255565b612d808561480d565b815463ffffffff60d01b191660d09190911b63ffffffff60d01b16179055565b612db4612dad8751613c5d565b9383613c50565b92604051978897338c8a613ca6565b0390a190565b612de686612dd681613575565b6331b75e4d60e01b8452906132e5565b90fd5b612de692935190630447b05d60e41b8552929190606493600452602452604452565b508015612c6c565b508351811415612c65565b6303554fd560e01b875233600452602452604452606485fd5b50335f908152600f6020526040902054421015612c3c565b6327bf854560e21b865246600452602452604485fd5b7f00000000000000000000000000000000000000000000000000000000000000006001600160a01b0316803b15610512575f8091602460405180948193633e4986ef60e11b83523360048401525af18015610dd457612ec5575b50612beb565b612ed29195505f906108f1565b5f935f612ebf565b600754306001600160a01b0390911603610a0b5763bc197c8160e01b90565b805f52600460205265ffffffffffff60405f205460a01c16905f52600460205263ffffffff60405f205460d01c160165ffffffffffff81116125845765ffffffffffff1690565b3d15612f6a573d90612f5182610932565b91612f5f60405193846108f1565b82523d5f602084013e565b606090565b90602080835192838152019201905f5b818110612f8c5750505090565b82516001600160a01b0316845260209384019390920191600101612f7f565b9080602083519182815201916020808360051b8301019401925f915b838310612fd657505050505090565b9091929394602080612ff4600193601f19868203018752895161060c565b97019301930191939290612fc7565b92906130649161305061303e9460405195869461302c602087019960808b5260a0880190612f6f565b868103601f1901604088015290611a62565b848103601f1901606086015290612fab565b90608083015203601f1981018352826108f1565b51902090565b905f60405161307a6020826108f1565b52604051630748d63560e31b81526001600160a01b039283166004820152602481019190915290602090829060449082907f0000000000000000000000000000000000000000000000000000000000000000165afa908115610dd4575f916130e0575090565b610641915060203d602011610e0157610df381836108f1565b600754336001600160a01b039091160361316357600754306001600160a01b039091160361312357565b61312c36610932565b61313960405191826108f1565b3681526020810190365f83375f602036830101525190205b8061315a613f00565b03613151575b50565b6347096e4760e01b5f523360045260245ffd5b63ffffffff16805f52600e60205260405f2054908115613194575090565b63f6ff4fb760e01b5f5260045260245ffd5b929181019060a0818303126105125780359160208201356001600160401b03811161051257816131d7918401610a31565b60408301356001600160401b03811161051257826131f6918501610a98565b9160608401356001600160401b03811161051257608091613218918601610af5565b9301359363ffffffff61322a88612734565b16817f30d15b7e92a81e472f6ba5aff0c0a81b2f409d1af0e92aa0e20d98ba24f98b415f80a3613297610c1a602061328861327b6132678c612734565b63ffffffff165f52601160205260405f2090565b546001600160a01b031690565b9901356001600160a01b031690565b966001600160a01b03908116908816036132b657613160959650613f6c565b638dc88d7f60e01b5f526001600160a01b03871660045260245ffd5b60088110156111e45760ff600191161b90565b6004526064919060088110156111e4576024525f604452565b61330781613575565b906010613313836132d2565b161561331d575090565b6331b75e4d60e01b5f5260045261333491506111e9565b601060445260645ffd5b61334781613575565b906002613353836132d2565b161561335d575090565b6331b75e4d60e01b5f5260045261337491506111e9565b600260445260645ffd5b9061338882613575565b9181613393846132d2565b161561339e57505090565b6331b75e4d60e01b5f526004526133b4826111e9565b60445260645ffd5b8051821015612ae95760209160051b010190565b939290916133e082828588613003565b926020956133f260206010178661337e565b5061341b613408865f52600460205260405f2090565b805460ff60f01b1916600160f01b179055565b600754613430906001600160a01b0316610c1a565b306001600160a01b03909116036134cb575b8461344f95969750614a20565b600754309061346890610c1a906001600160a01b031681565b1415806134b0575b6134a7575b6040518181527f712ae1383f79ac853f8d882153778e0260ef8f03b504e2866e0593e04d2b291f908060208101612dc3565b5f600555613475565b506005546001600160801b03811660809190911c1415613470565b925f95929491955b845181101561352757600190306134fd610c1a6134f0848a6133bc565b516001600160a01b031690565b14613509575b016134d3565b61352261351682896133bc565b518a815191012061408c565b613503565b50919550859490939192613442565b600d546001600160a01b0316330361354a57565b63118cdaa760e01b5f523360045260245ffd5b90816020910312610512575180151581036105125790565b61357e816140f2565b90613588826111da565b6005820361367e576135a391505f52600860205260405f2090565b546007546135b9906001600160a01b0316610c1a565b604051632c258a9f60e11b815260048101839052602081602481855afa908115610dd4575f9161365f575b50156135f1575050600590565b604051632ab0f52960e01b81526004810192909252602090829060249082905afa908115610dd4575f91613630575b501561362b57600790565b600290565b613652915060203d602011613658575b61364a81836108f1565b81019061355d565b5f613620565b503d613640565b613678915060203d6020116136585761364a81836108f1565b5f6135e4565b5090565b9061368e939291613003565b613699603b8261337e565b506136c46136af825f52600460205260405f2090565b80546001600160f81b0316600160f81b179055565b6040518181527f789cf55be980739dad1d0699b93b58e806b51c9d96619bfa8fe0a28abaa7b30c90602090a1613702815f52600860205260405f2090565b548061370c575090565b600754613721906001600160a01b0316610c1a565b803b156105125760405163c4d252f560e01b815260048101929092525f908290602490829084905af18015610dd457613767575b505f8181526008602052604081205590565b80610dc85f613775936108f1565b5f613755565b6040519061378a6040836108f1565b601d82527f6d6f64653d626c6f636b6e756d6265722666726f6d3d64656661756c740000006020830152565b604051634bf5d7e960e01b81525f816004817f00000000000000000000000000000000000000000000000000000000000000006001600160a01b03165afa5f918161380a575b50610641575061064161377b565b9091503d805f833e61381c81836108f1565b810190602081830312610512578051906001600160401b038211610512570181601f820112156105125780519061385282610932565b9261386060405194856108f1565b8284526020838301011161051257815f9260208093018386015e83010152905f6137fc565b9161064193916040519361389a6020866108f1565b5f85526139fb565b6042906138ad6141f2565b906040519161190160f01b8352600283015260228201522090565b600411156111e457565b9190823b61390d57906138e491614308565b506138ee816138c8565b1591826138fa57505090565b6001600160a01b03918216911614919050565b915f9261394361395185946040519283916020830195630b135d3f60e11b8752602484015260406044840152606483019061060c565b03601f1981018352826108f1565b51915afa61395d612f40565b8161398d575b8161396c575090565b9050613989630b135d3f60e11b9160208082518301019101613e05565b1490565b905060208151101590613963565b93909260ff6139c79361064197958752166020860152604085015260a0606085015260a084019061060c565b91608081840391015261060c565b909260ff608093610641969584521660208301526040820152816060820152019061060c565b929190613a078461333e565b50835f526004602052613a2b65ffffffffffff8060405f205460a01c161682613e14565b506040516309ab24eb60e41b81526001600160a01b038281166004830152909590602090879060249082907f0000000000000000000000000000000000000000000000000000000000000000165afa958615610dd4575f96613be2575b50613a9b855f52600b60205260405f2090565b6001600160a01b0383165f90815260038201602081905260409091205460ff16613bc6576001600160a01b0384165f90815260209190915260409020613ae890805460ff19166001179055565b60ff841680613b845750613afd878254613c50565b90555b8051613b485750613b427fb8e138887d0aa13bab447e82de9d5c1777041ecd21ca36ba824ff1e6c07ddda4938660405194859460018060a01b031697856139d5565b0390a290565b613b42907fe2babfbac5889a709b63bb7f598b324e08bc5a4fb9ec647fb3cbc9ec07eb8712948760405195869560018060a01b0316988661399b565b60018103613ba25750600101613b9b878254613c50565b9055613b00565b600203613bb757600201613b9b878254613c50565b6303599be160e11b5f5260045ffd5b6371c6af4960e01b5f526001600160a01b03841660045260245ffd5b613bfc91965060203d602011610e0157610df381836108f1565b945f613a88565b65ffffffffffff8111613c1b5765ffffffffffff1690565b6306dfcc6560e41b5f52603060045260245260445ffd5b906001820180921161258457565b90620186a0820180921161258457565b9190820180921161258457565b90613c6782610a1a565b613c7460405191826108f1565b8281528092613c85601f1991610a1a565b01905f5b828110613c9557505050565b806060602080938501015201613c89565b959998969794939192613ce793613cd992885260018060a01b031660208801526101206040880152610120870190612f6f565b908582036060870152611a62565b968388036080850152815180895260208901906020808260051b8c01019401915f905b828210613d46575050505061064196975090613d2d9184820360a0860152612fab565b9360c083015260e082015261010081840391015261060c565b90919294602080613d646001938f601f19908203018652895161060c565b970192019201909291613d0a565b6040516324776b7d60e21b81526020816004817f00000000000000000000000000000000000000000000000000000000000000006001600160a01b03165afa5f9181613dc8575b50610641575061064143613c03565b9091506020813d602011613dfd575b81613de4602093836108f1565b810103126105125751613df681611793565b905f613db9565b3d9150613dd7565b90816020910312610512575190565b604051630748d63560e31b81526001600160a01b0391821660048201526024810192909252602090829060449082907f0000000000000000000000000000000000000000000000000000000000000000165afa908115610dd4575f916130e0575090565b600c5480613e8557505f90565b805f1981011161258457600c5f527fdf6966c971051c3d54ec59162606531493a51404a002842f56009d7e5cf4a8c6015460301c90565b9091906109215750805115613ed357805190602001fd5b63d6bda27560e01b5f5260045ffd5b8115613eec570490565b634e487b7160e01b5f52601260045260245ffd5b6005546001600160801b038116919060801c8214613f5a575f82815260066020526040808220546001600160801b03808616845291832092909255600580546001600160801b031916600190950190911693909317909255565b634e487b715f5260316020526024601cfd5b93509091935f5b8251811015613fc857600190613fc15f806001600160a01b03613f9685896133bc565b5116613fa2858a6133bc565b5190613fae868d6133bc565b5191602083519301915af1612072612f40565b5001613f73565b50935050507f712ae1383f79ac853f8d882153778e0260ef8f03b504e2866e0593e04d2b291f6020604051838152a190565b9493926140266080936140186140349460a08a5260a08a0190612f6f565b9088820360208a0152611a62565b908682036040880152612fab565b935f60608201520152565b919261406e60a09461406061407c949998979960c0875260c0870190612f6f565b908582036020870152611a62565b908382036040850152612fab565b945f606083015260808201520152565b6005546001608082901c9081016001600160801b0390811693921683146140e0575f90815260066020526040902055600580546001600160801b031660809290921b6001600160801b031916919091179055565b634e487b715f5260416020526024601cfd5b614104815f52600460205260405f2090565b5460f881901c9060f01c60ff166141eb576141e557614131612cf1612c8e835f52600460205260405f2090565b80156141d157614142612cf1613d72565b809110156141cb5761415382612ef9565b1061415e5750600190565b61416a611c6a82614aae565b80156141a8575b1561417c5750600390565b61419a905f52600460205265ffffffffffff600160405f2001541690565b6141a357600490565b600590565b506141c6611c6a825f52600b60205260405f20600181015490541090565b614171565b50505f90565b636ad0607560e01b5f52600482905260245ffd5b50600290565b5050600790565b307f00000000000000000000000000000000000000000000000000000000000000006001600160a01b031614806142df575b1561424d577f000000000000000000000000000000000000000000000000000000000000000090565b60405160208101907f8b73c3c69bb8fe3d512ecc4cf759cc79239f7b179b0ffacaa9a75d522b39400f82527f000000000000000000000000000000000000000000000000000000000000000060408201527f000000000000000000000000000000000000000000000000000000000000000060608201524660808201523060a082015260a0815261306460c0826108f1565b507f00000000000000000000000000000000000000000000000000000000000000004614614224565b8151919060418303614338576143319250602082015190606060408401519301515f1a90614b83565b9192909190565b50505f9160029190565b600181111561064157806001600160801b821015614463575b6144096143ff6143f56143eb6143e16143d76143c66144109760046144159a600160401b811015614456575b640100000000811015614449575b6201000081101561443c575b61010081101561442f575b6010811015614422575b101561441a575b60030260011c90565b6143d0818b613ee2565b0160011c90565b6143d0818a613ee2565b6143d08189613ee2565b6143d08188613ee2565b6143d08187613ee2565b6143d08186613ee2565b8093613ee2565b821190565b900390565b60011b6143bd565b60041c9160021b916143b6565b60081c9160041b916143ac565b60101c9160081b916143a1565b60201c9160101b91614395565b60401c9160201b91614387565b50506144156144106144096143ff6143f56143eb6143e16143d76143c661448a8a60801c90565b9850600160401b975061435b9650505050505050565b905b8281106144ae57505090565b90918082169080831860011c820180921161258457600c5f527fdf6966c971051c3d54ec59162606531493a51404a002842f56009d7e5cf4a8c782015465ffffffffffff90811690851610156145075750915b906144a2565b92915061451390613c32565b90614501565b60405190614526826108b6565b5f6020838281520152565b919082604091031261051257604051614549816108b6565b6020808294805184520151910152565b906040828203126105125761064191614531565b906020909392936040835263ffffffff815116604084015281810151606084015260806145c16145ab604084015160a08488015260e087019061060c565b6060840151868203603f190160a088015261060c565b910151151560c08401526001600160a01b03909416910152565b61463a926040926145ea614519565b506145f483613176565b61460b6145ff610923565b63ffffffff9095168552565b60208401528383015260608201525f6080820152815180938192631bb8518b60e31b835230906004840161456d565b03817f00000000000000000000000000000000000000000000000000000000000000006001600160a01b03165afa908115610dd4575f91614679575090565b610641915060403d60401161469b575b61469381836108f1565b810190614559565b503d614689565b604051906146af826108d6565b815f81525f602082015260406146c3614519565b910152565b60808183031261051257604051916146df836108d6565b8151835260208201516001600160401b038116810361051257602084015261470991604001614531565b604082015290565b61477a6080949261479696946147256146a2565b5060206147328651614bfb565b9501918251806147fe575b5061474785613176565b9251151592614763614757610923565b63ffffffff9097168752565b602086015260408501526060840152151585830152565b6040518095819482936302637a4560e41b84526004840161456d565b03917f00000000000000000000000000000000000000000000000000000000000000006001600160a01b03165af1908115610dd4575f916147d5575090565b610641915060803d6080116147f7575b6147ef81836108f1565b8101906146c8565b503d6147e5565b61480790614c18565b5f61473d565b63ffffffff81116148215763ffffffff1690565b6306dfcc6560e41b5f52602060045260245260445ffd5b60ff811461487e5760ff811690601f821161486f576040519161485c6040846108f1565b6020808452838101919036833783525290565b632cd44ac360e21b5f5260045ffd5b5060405161064181614890815f6126b3565b03826108f1565b60ff81146148bb5760ff811690601f821161486f576040519161485c6040846108f1565b50604051610641816148908160016126b3565b908154600160401b8110156108d15760018101808455811015612ae957610921925f5260205f20019061491e65ffffffffffff825116839065ffffffffffff1665ffffffffffff19825416179055565b60200151815465ffffffffffff1660309190911b65ffffffffffff1916179055565b600c5491929180156149f757612a5061495891612881565b90815461497461496d8265ffffffffffff1690565b9160301c90565b9265ffffffffffff8084169216918083116149e8578692036149b2576149ae92509065ffffffffffff82549181199060301b169116179055565b9190565b50506149ae906149d16149c3610912565b65ffffffffffff9092168252565b6001600160d01b03851660208201525b600c6148ce565b632520601d60e01b5f5260045ffd5b50614a1b90614a076149c3610912565b6001600160d01b03841660208201526149e1565b5f9190565b6007549094919391926001600160a01b0390911690813b15610512575f93614a736040519687958694859463e38335e560e01b86526bffffffffffffffffffffffff193060601b16189260048601613ffa565b039134905af18015610dd457614a95575b505f90815260086020526040812055565b80614aa15f80936108f1565b800312610512575f614a84565b805f52600b60205260405f20905f52600460205265ffffffffffff60405f205460a01c1660405190632394e7a360e21b825280600483015260208260248160018060a01b037f0000000000000000000000000000000000000000000000000000000000000000165afa918215610dd4575f92614b5e575b50614b2f906129c6565b9081810291818304149015171561258457614b599060649004916002600182015491015490613c50565b101590565b614b2f919250614b7c9060203d602011610e0157610df381836108f1565b9190614b25565b91906fa2a8918ca85bafe22016d0b997e4df60600160ff1b038411614bf0579160209360809260ff5f9560405194855216868401526040830152606082015282805260015afa15610dd4575f516001600160a01b03811615614be657905f905f90565b505f906001905f90565b5050505f9160039190565b804710614c055790565b476304fb820960e51b5f5260045260245ffd5b60405163393f876560e21b81527f00000000000000000000000000000000000000000000000000000000000000006001600160a01b03169190602081600481865afa908115610dd4575f91614c93575b506001600160a01b0316918215614c8457610921923390614cce565b6329b99a9560e11b5f5260045ffd5b90506020813d602011614cc6575b81614cae602093836108f1565b810103126105125751614cc08161075c565b5f614c68565b3d9150614ca1565b6040516323b872dd60e01b60208083019182526001600160a01b039485166024840152949093166044820152606480820195909552938452925f9190614d156084826108f1565b519082855af11561273e575f513d614d5c57506001600160a01b0381163b155b614d3c5750565b635274afe760e01b5f9081526001600160a01b0391909116600452602490fd5b60011415614d3556fea264697066735822122092e9cd610d302c8530ad6b79b62ab4e56c6b90be5f0f09f85ee5028a1a2d554264736f6c634300081c00330553476bf02ef2726e8ce5ced78d63e26e602e4a2257b1f559418e24b4633997",
  "linkReferences": {},
  "deployedLinkReferences": {}
}