{
  "_format": "hh-sol-artifact-1",
  "contractName": "SummerGovernor",
  "sourceName": "src/contracts/SummerGovernor.sol",
  "abi": [
    {
      "inputs": [
        {
          "components": [
            {
              "internalType": "contract ISummerToken",
              "name": "token",
              "type": "address"
            },
            {
              "internalType": "contract TimelockController",
              "name": "timelock",
              "type": "address"
            },
            {
              "internalType": "uint48",
              "name": "votingDelay",
              "type": "uint48"
            },
            {
              "internalType": "uint32",
              "name": "votingPeriod",
              "type": "uint32"
            },
            {
              "internalType": "uint256",
              "name": "proposalThreshold",
              "type": "uint256"
            },
            {
              "internalType": "uint256",
              "name": "quorumFraction",
              "type": "uint256"
            },
            {
              "internalType": "address",
              "name": "initialWhitelistGuardian",
              "type": "address"
            },
            {
              "internalType": "address",
              "name": "endpoint",
              "type": "address"
            },
            {
              "internalType": "uint32",
              "name": "proposalChainId",
              "type": "uint32"
            },
            {
              "internalType": "uint32[]",
              "name": "peerEndpointIds",
              "type": "uint32[]"
            },
            {
              "internalType": "address[]",
              "name": "peerAddresses",
              "type": "address[]"
            }
          ],
          "internalType": "struct ISummerGovernor.GovernorParams",
          "name": "params",
          "type": "tuple"
        }
      ],
      "stateMutability": "nonpayable",
      "type": "constructor"
    },
    {
      "inputs": [],
      "name": "CheckpointUnorderedInsertion",
      "type": "error"
    },
    {
      "inputs": [],
      "name": "DecayController__RewardsManagerAlreadySet",
      "type": "error"
    },
    {
      "inputs": [],
      "name": "DecayController__ZeroAddress",
      "type": "error"
    },
    {
      "inputs": [],
      "name": "FailedCall",
      "type": "error"
    },
    {
      "inputs": [
        {
          "internalType": "address",
          "name": "voter",
          "type": "address"
        }
      ],
      "name": "GovernorAlreadyCastVote",
      "type": "error"
    },
    {
      "inputs": [
        {
          "internalType": "uint256",
          "name": "proposalId",
          "type": "uint256"
        }
      ],
      "name": "GovernorAlreadyQueuedProposal",
      "type": "error"
    },
    {
      "inputs": [],
      "name": "GovernorDisabledDeposit",
      "type": "error"
    },
    {
      "inputs": [
        {
          "internalType": "address",
          "name": "proposer",
          "type": "address"
        },
        {
          "internalType": "uint256",
          "name": "votes",
          "type": "uint256"
        },
        {
          "internalType": "uint256",
          "name": "threshold",
          "type": "uint256"
        }
      ],
      "name": "GovernorInsufficientProposerVotes",
      "type": "error"
    },
    {
      "inputs": [
        {
          "internalType": "uint256",
          "name": "targets",
          "type": "uint256"
        },
        {
          "internalType": "uint256",
          "name": "calldatas",
          "type": "uint256"
        },
        {
          "internalType": "uint256",
          "name": "values",
          "type": "uint256"
        }
      ],
      "name": "GovernorInvalidProposalLength",
      "type": "error"
    },
    {
      "inputs": [
        {
          "internalType": "uint256",
          "name": "quorumNumerator",
          "type": "uint256"
        },
        {
          "internalType": "uint256",
          "name": "quorumDenominator",
          "type": "uint256"
        }
      ],
      "name": "GovernorInvalidQuorumFraction",
      "type": "error"
    },
    {
      "inputs": [
        {
          "internalType": "address",
          "name": "voter",
          "type": "address"
        }
      ],
      "name": "GovernorInvalidSignature",
      "type": "error"
    },
    {
      "inputs": [],
      "name": "GovernorInvalidVoteParams",
      "type": "error"
    },
    {
      "inputs": [],
      "name": "GovernorInvalidVoteType",
      "type": "error"
    },
    {
      "inputs": [
        {
          "internalType": "uint256",
          "name": "votingPeriod",
          "type": "uint256"
        }
      ],
      "name": "GovernorInvalidVotingPeriod",
      "type": "error"
    },
    {
      "inputs": [
        {
          "internalType": "uint256",
          "name": "proposalId",
          "type": "uint256"
        }
      ],
      "name": "GovernorNonexistentProposal",
      "type": "error"
    },
    {
      "inputs": [
        {
          "internalType": "uint256",
          "name": "proposalId",
          "type": "uint256"
        }
      ],
      "name": "GovernorNotQueuedProposal",
      "type": "error"
    },
    {
      "inputs": [],
      "name": "GovernorNotSet",
      "type": "error"
    },
    {
      "inputs": [
        {
          "internalType": "address",
          "name": "account",
          "type": "address"
        }
      ],
      "name": "GovernorOnlyExecutor",
      "type": "error"
    },
    {
      "inputs": [
        {
          "internalType": "address",
          "name": "account",
          "type": "address"
        }
      ],
      "name": "GovernorOnlyProposer",
      "type": "error"
    },
    {
      "inputs": [],
      "name": "GovernorQueueNotImplemented",
      "type": "error"
    },
    {
      "inputs": [
        {
          "internalType": "address",
          "name": "proposer",
          "type": "address"
        }
      ],
      "name": "GovernorRestrictedProposer",
      "type": "error"
    },
    {
      "inputs": [
        {
          "internalType": "uint256",
          "name": "proposalId",
          "type": "uint256"
        },
        {
          "internalType": "enum IGovernor.ProposalState",
          "name": "current",
          "type": "uint8"
        },
        {
          "internalType": "bytes32",
          "name": "expectedStates",
          "type": "bytes32"
        }
      ],
      "name": "GovernorUnexpectedProposalState",
      "type": "error"
    },
    {
      "inputs": [
        {
          "internalType": "address",
          "name": "account",
          "type": "address"
        },
        {
          "internalType": "uint256",
          "name": "currentNonce",
          "type": "uint256"
        }
      ],
      "name": "InvalidAccountNonce",
      "type": "error"
    },
    {
      "inputs": [],
      "name": "InvalidDelegate",
      "type": "error"
    },
    {
      "inputs": [],
      "name": "InvalidEndpointCall",
      "type": "error"
    },
    {
      "inputs": [],
      "name": "InvalidShortString",
      "type": "error"
    },
    {
      "inputs": [],
      "name": "LzTokenUnavailable",
      "type": "error"
    },
    {
      "inputs": [
        {
          "internalType": "uint32",
          "name": "eid",
          "type": "uint32"
        }
      ],
      "name": "NoPeer",
      "type": "error"
    },
    {
      "inputs": [
        {
          "internalType": "uint256",
          "name": "msgValue",
          "type": "uint256"
        }
      ],
      "name": "NotEnoughNative",
      "type": "error"
    },
    {
      "inputs": [
        {
          "internalType": "address",
          "name": "addr",
          "type": "address"
        }
      ],
      "name": "OnlyEndpoint",
      "type": "error"
    },
    {
      "inputs": [
        {
          "internalType": "uint32",
          "name": "eid",
          "type": "uint32"
        },
        {
          "internalType": "bytes32",
          "name": "sender",
          "type": "bytes32"
        }
      ],
      "name": "OnlyPeer",
      "type": "error"
    },
    {
      "inputs": [
        {
          "internalType": "address",
          "name": "owner",
          "type": "address"
        }
      ],
      "name": "OwnableInvalidOwner",
      "type": "error"
    },
    {
      "inputs": [
        {
          "internalType": "address",
          "name": "account",
          "type": "address"
        }
      ],
      "name": "OwnableUnauthorizedAccount",
      "type": "error"
    },
    {
      "inputs": [
        {
          "internalType": "uint8",
          "name": "bits",
          "type": "uint8"
        },
        {
          "internalType": "uint256",
          "name": "value",
          "type": "uint256"
        }
      ],
      "name": "SafeCastOverflowedUintDowncast",
      "type": "error"
    },
    {
      "inputs": [
        {
          "internalType": "address",
          "name": "token",
          "type": "address"
        }
      ],
      "name": "SafeERC20FailedOperation",
      "type": "error"
    },
    {
      "inputs": [
        {
          "internalType": "string",
          "name": "str",
          "type": "string"
        }
      ],
      "name": "StringTooLong",
      "type": "error"
    },
    {
      "inputs": [],
      "name": "SummerGovernorInvalidCaller",
      "type": "error"
    },
    {
      "inputs": [
        {
          "internalType": "uint256",
          "name": "chainId",
          "type": "uint256"
        },
        {
          "internalType": "uint256",
          "name": "proposalChainId",
          "type": "uint256"
        }
      ],
      "name": "SummerGovernorInvalidChain",
      "type": "error"
    },
    {
      "inputs": [],
      "name": "SummerGovernorInvalidPeerArrays",
      "type": "error"
    },
    {
      "inputs": [
        {
          "internalType": "uint256",
          "name": "proposalThreshold",
          "type": "uint256"
        },
        {
          "internalType": "uint256",
          "name": "minThreshold",
          "type": "uint256"
        },
        {
          "internalType": "uint256",
          "name": "maxThreshold",
          "type": "uint256"
        }
      ],
      "name": "SummerGovernorInvalidProposalThreshold",
      "type": "error"
    },
    {
      "inputs": [
        {
          "internalType": "address",
          "name": "trustedRemote",
          "type": "address"
        }
      ],
      "name": "SummerGovernorInvalidTrustedRemote",
      "type": "error"
    },
    {
      "inputs": [
        {
          "internalType": "address",
          "name": "whitelistGuardian",
          "type": "address"
        }
      ],
      "name": "SummerGovernorInvalidWhitelistGuardian",
      "type": "error"
    },
    {
      "inputs": [
        {
          "internalType": "address",
          "name": "proposer",
          "type": "address"
        },
        {
          "internalType": "uint256",
          "name": "votes",
          "type": "uint256"
        },
        {
          "internalType": "uint256",
          "name": "threshold",
          "type": "uint256"
        }
      ],
      "name": "SummerGovernorProposerBelowThresholdAndNotWhitelisted",
      "type": "error"
    },
    {
      "inputs": [
        {
          "internalType": "address",
          "name": "caller",
          "type": "address"
        },
        {
          "internalType": "address",
          "name": "proposer",
          "type": "address"
        },
        {
          "internalType": "uint256",
          "name": "votes",
          "type": "uint256"
        },
        {
          "internalType": "uint256",
          "name": "threshold",
          "type": "uint256"
        }
      ],
      "name": "SummerGovernorUnauthorizedCancellation",
      "type": "error"
    },
    {
      "anonymous": false,
      "inputs": [],
      "name": "EIP712DomainChanged",
      "type": "event"
    },
    {
      "anonymous": false,
      "inputs": [
        {
          "indexed": true,
          "internalType": "address",
          "name": "previousOwner",
          "type": "address"
        },
        {
          "indexed": true,
          "internalType": "address",
          "name": "newOwner",
          "type": "address"
        }
      ],
      "name": "OwnershipTransferred",
      "type": "event"
    },
    {
      "anonymous": false,
      "inputs": [
        {
          "indexed": false,
          "internalType": "uint32",
          "name": "eid",
          "type": "uint32"
        },
        {
          "indexed": false,
          "internalType": "bytes32",
          "name": "peer",
          "type": "bytes32"
        }
      ],
      "name": "PeerSet",
      "type": "event"
    },
    {
      "anonymous": false,
      "inputs": [
        {
          "indexed": false,
          "internalType": "uint256",
          "name": "proposalId",
          "type": "uint256"
        }
      ],
      "name": "ProposalCanceled",
      "type": "event"
    },
    {
      "anonymous": false,
      "inputs": [
        {
          "indexed": false,
          "internalType": "uint256",
          "name": "proposalId",
          "type": "uint256"
        },
        {
          "indexed": false,
          "internalType": "address",
          "name": "proposer",
          "type": "address"
        },
        {
          "indexed": false,
          "internalType": "address[]",
          "name": "targets",
          "type": "address[]"
        },
        {
          "indexed": false,
          "internalType": "uint256[]",
          "name": "values",
          "type": "uint256[]"
        },
        {
          "indexed": false,
          "internalType": "string[]",
          "name": "signatures",
          "type": "string[]"
        },
        {
          "indexed": false,
          "internalType": "bytes[]",
          "name": "calldatas",
          "type": "bytes[]"
        },
        {
          "indexed": false,
          "internalType": "uint256",
          "name": "voteStart",
          "type": "uint256"
        },
        {
          "indexed": false,
          "internalType": "uint256",
          "name": "voteEnd",
          "type": "uint256"
        },
        {
          "indexed": false,
          "internalType": "string",
          "name": "description",
          "type": "string"
        }
      ],
      "name": "ProposalCreated",
      "type": "event"
    },
    {
      "anonymous": false,
      "inputs": [
        {
          "indexed": false,
          "internalType": "uint256",
          "name": "proposalId",
          "type": "uint256"
        }
      ],
      "name": "ProposalExecuted",
      "type": "event"
    },
    {
      "anonymous": false,
      "inputs": [
        {
          "indexed": false,
          "internalType": "uint256",
          "name": "proposalId",
          "type": "uint256"
        },
        {
          "indexed": false,
          "internalType": "uint256",
          "name": "etaSeconds",
          "type": "uint256"
        }
      ],
      "name": "ProposalQueued",
      "type": "event"
    },
    {
      "anonymous": false,
      "inputs": [
        {
          "indexed": true,
          "internalType": "uint256",
          "name": "proposalId",
          "type": "uint256"
        },
        {
          "indexed": true,
          "internalType": "uint32",
          "name": "srcEid",
          "type": "uint32"
        }
      ],
      "name": "ProposalReceivedCrossChain",
      "type": "event"
    },
    {
      "anonymous": false,
      "inputs": [
        {
          "indexed": true,
          "internalType": "uint256",
          "name": "proposalId",
          "type": "uint256"
        },
        {
          "indexed": true,
          "internalType": "uint32",
          "name": "dstEid",
          "type": "uint32"
        }
      ],
      "name": "ProposalSentCrossChain",
      "type": "event"
    },
    {
      "anonymous": false,
      "inputs": [
        {
          "indexed": false,
          "internalType": "uint256",
          "name": "oldProposalThreshold",
          "type": "uint256"
        },
        {
          "indexed": false,
          "internalType": "uint256",
          "name": "newProposalThreshold",
          "type": "uint256"
        }
      ],
      "name": "ProposalThresholdSet",
      "type": "event"
    },
    {
      "anonymous": false,
      "inputs": [
        {
          "indexed": false,
          "internalType": "uint256",
          "name": "oldQuorumNumerator",
          "type": "uint256"
        },
        {
          "indexed": false,
          "internalType": "uint256",
          "name": "newQuorumNumerator",
          "type": "uint256"
        }
      ],
      "name": "QuorumNumeratorUpdated",
      "type": "event"
    },
    {
      "anonymous": false,
      "inputs": [
        {
          "indexed": false,
          "internalType": "address",
          "name": "oldTimelock",
          "type": "address"
        },
        {
          "indexed": false,
          "internalType": "address",
          "name": "newTimelock",
          "type": "address"
        }
      ],
      "name": "TimelockChange",
      "type": "event"
    },
    {
      "anonymous": false,
      "inputs": [
        {
          "indexed": true,
          "internalType": "address",
          "name": "voter",
          "type": "address"
        },
        {
          "indexed": false,
          "internalType": "uint256",
          "name": "proposalId",
          "type": "uint256"
        },
        {
          "indexed": false,
          "internalType": "uint8",
          "name": "support",
          "type": "uint8"
        },
        {
          "indexed": false,
          "internalType": "uint256",
          "name": "weight",
          "type": "uint256"
        },
        {
          "indexed": false,
          "internalType": "string",
          "name": "reason",
          "type": "string"
        }
      ],
      "name": "VoteCast",
      "type": "event"
    },
    {
      "anonymous": false,
      "inputs": [
        {
          "indexed": true,
          "internalType": "address",
          "name": "voter",
          "type": "address"
        },
        {
          "indexed": false,
          "internalType": "uint256",
          "name": "proposalId",
          "type": "uint256"
        },
        {
          "indexed": false,
          "internalType": "uint8",
          "name": "support",
          "type": "uint8"
        },
        {
          "indexed": false,
          "internalType": "uint256",
          "name": "weight",
          "type": "uint256"
        },
        {
          "indexed": false,
          "internalType": "string",
          "name": "reason",
          "type": "string"
        },
        {
          "indexed": false,
          "internalType": "bytes",
          "name": "params",
          "type": "bytes"
        }
      ],
      "name": "VoteCastWithParams",
      "type": "event"
    },
    {
      "anonymous": false,
      "inputs": [
        {
          "indexed": false,
          "internalType": "uint256",
          "name": "oldVotingDelay",
          "type": "uint256"
        },
        {
          "indexed": false,
          "internalType": "uint256",
          "name": "newVotingDelay",
          "type": "uint256"
        }
      ],
      "name": "VotingDelaySet",
      "type": "event"
    },
    {
      "anonymous": false,
      "inputs": [
        {
          "indexed": false,
          "internalType": "uint256",
          "name": "oldVotingPeriod",
          "type": "uint256"
        },
        {
          "indexed": false,
          "internalType": "uint256",
          "name": "newVotingPeriod",
          "type": "uint256"
        }
      ],
      "name": "VotingPeriodSet",
      "type": "event"
    },
    {
      "anonymous": false,
      "inputs": [
        {
          "indexed": true,
          "internalType": "address",
          "name": "account",
          "type": "address"
        },
        {
          "indexed": false,
          "internalType": "uint256",
          "name": "expiration",
          "type": "uint256"
        }
      ],
      "name": "WhitelistAccountExpirationSet",
      "type": "event"
    },
    {
      "anonymous": false,
      "inputs": [
        {
          "indexed": true,
          "internalType": "address",
          "name": "newGuardian",
          "type": "address"
        }
      ],
      "name": "WhitelistGuardianSet",
      "type": "event"
    },
    {
      "inputs": [],
      "name": "BALLOT_TYPEHASH",
      "outputs": [
        {
          "internalType": "bytes32",
          "name": "",
          "type": "bytes32"
        }
      ],
      "stateMutability": "view",
      "type": "function"
    },
    {
      "inputs": [],
      "name": "CLOCK_MODE",
      "outputs": [
        {
          "internalType": "string",
          "name": "",
          "type": "string"
        }
      ],
      "stateMutability": "view",
      "type": "function"
    },
    {
      "inputs": [],
      "name": "COUNTING_MODE",
      "outputs": [
        {
          "internalType": "string",
          "name": "",
          "type": "string"
        }
      ],
      "stateMutability": "pure",
      "type": "function"
    },
    {
      "inputs": [],
      "name": "EXTENDED_BALLOT_TYPEHASH",
      "outputs": [
        {
          "internalType": "bytes32",
          "name": "",
          "type": "bytes32"
        }
      ],
      "stateMutability": "view",
      "type": "function"
    },
    {
      "inputs": [],
      "name": "MAX_PROPOSAL_THRESHOLD",
      "outputs": [
        {
          "internalType": "uint256",
          "name": "",
          "type": "uint256"
        }
      ],
      "stateMutability": "view",
      "type": "function"
    },
    {
      "inputs": [],
      "name": "MIN_PROPOSAL_THRESHOLD",
      "outputs": [
        {
          "internalType": "uint256",
          "name": "",
          "type": "uint256"
        }
      ],
      "stateMutability": "view",
      "type": "function"
    },
    {
      "inputs": [
        {
          "components": [
            {
              "internalType": "uint32",
              "name": "srcEid",
              "type": "uint32"
            },
            {
              "internalType": "bytes32",
              "name": "sender",
              "type": "bytes32"
            },
            {
              "internalType": "uint64",
              "name": "nonce",
              "type": "uint64"
            }
          ],
          "internalType": "struct Origin",
          "name": "origin",
          "type": "tuple"
        }
      ],
      "name": "allowInitializePath",
      "outputs": [
        {
          "internalType": "bool",
          "name": "",
          "type": "bool"
        }
      ],
      "stateMutability": "view",
      "type": "function"
    },
    {
      "inputs": [
        {
          "internalType": "address[]",
          "name": "targets",
          "type": "address[]"
        },
        {
          "internalType": "uint256[]",
          "name": "values",
          "type": "uint256[]"
        },
        {
          "internalType": "bytes[]",
          "name": "calldatas",
          "type": "bytes[]"
        },
        {
          "internalType": "bytes32",
          "name": "descriptionHash",
          "type": "bytes32"
        }
      ],
      "name": "cancel",
      "outputs": [
        {
          "internalType": "uint256",
          "name": "",
          "type": "uint256"
        }
      ],
      "stateMutability": "nonpayable",
      "type": "function"
    },
    {
      "inputs": [
        {
          "internalType": "uint256",
          "name": "proposalId",
          "type": "uint256"
        },
        {
          "internalType": "uint8",
          "name": "support",
          "type": "uint8"
        }
      ],
      "name": "castVote",
      "outputs": [
        {
          "internalType": "uint256",
          "name": "",
          "type": "uint256"
        }
      ],
      "stateMutability": "nonpayable",
      "type": "function"
    },
    {
      "inputs": [
        {
          "internalType": "uint256",
          "name": "proposalId",
          "type": "uint256"
        },
        {
          "internalType": "uint8",
          "name": "support",
          "type": "uint8"
        },
        {
          "internalType": "address",
          "name": "voter",
          "type": "address"
        },
        {
          "internalType": "bytes",
          "name": "signature",
          "type": "bytes"
        }
      ],
      "name": "castVoteBySig",
      "outputs": [
        {
          "internalType": "uint256",
          "name": "",
          "type": "uint256"
        }
      ],
      "stateMutability": "nonpayable",
      "type": "function"
    },
    {
      "inputs": [
        {
          "internalType": "uint256",
          "name": "proposalId",
          "type": "uint256"
        },
        {
          "internalType": "uint8",
          "name": "support",
          "type": "uint8"
        },
        {
          "internalType": "string",
          "name": "reason",
          "type": "string"
        }
      ],
      "name": "castVoteWithReason",
      "outputs": [
        {
          "internalType": "uint256",
          "name": "",
          "type": "uint256"
        }
      ],
      "stateMutability": "nonpayable",
      "type": "function"
    },
    {
      "inputs": [
        {
          "internalType": "uint256",
          "name": "proposalId",
          "type": "uint256"
        },
        {
          "internalType": "uint8",
          "name": "support",
          "type": "uint8"
        },
        {
          "internalType": "string",
          "name": "reason",
          "type": "string"
        },
        {
          "internalType": "bytes",
          "name": "params",
          "type": "bytes"
        }
      ],
      "name": "castVoteWithReasonAndParams",
      "outputs": [
        {
          "internalType": "uint256",
          "name": "",
          "type": "uint256"
        }
      ],
      "stateMutability": "nonpayable",
      "type": "function"
    },
    {
      "inputs": [
        {
          "internalType": "uint256",
          "name": "proposalId",
          "type": "uint256"
        },
        {
          "internalType": "uint8",
          "name": "support",
          "type": "uint8"
        },
        {
          "internalType": "address",
          "name": "voter",
          "type": "address"
        },
        {
          "internalType": "string",
          "name": "reason",
          "type": "string"
        },
        {
          "internalType": "bytes",
          "name": "params",
          "type": "bytes"
        },
        {
          "internalType": "bytes",
          "name": "signature",
          "type": "bytes"
        }
      ],
      "name": "castVoteWithReasonAndParamsBySig",
      "outputs": [
        {
          "internalType": "uint256",
          "name": "",
          "type": "uint256"
        }
      ],
      "stateMutability": "nonpayable",
      "type": "function"
    },
    {
      "inputs": [],
      "name": "clock",
      "outputs": [
        {
          "internalType": "uint48",
          "name": "",
          "type": "uint48"
        }
      ],
      "stateMutability": "view",
      "type": "function"
    },
    {
      "inputs": [],
      "name": "config",
      "outputs": [
        {
          "internalType": "address",
          "name": "whitelistGuardian",
          "type": "address"
        }
      ],
      "stateMutability": "view",
      "type": "function"
    },
    {
      "inputs": [],
      "name": "eip712Domain",
      "outputs": [
        {
          "internalType": "bytes1",
          "name": "fields",
          "type": "bytes1"
        },
        {
          "internalType": "string",
          "name": "name",
          "type": "string"
        },
        {
          "internalType": "string",
          "name": "version",
          "type": "string"
        },
        {
          "internalType": "uint256",
          "name": "chainId",
          "type": "uint256"
        },
        {
          "internalType": "address",
          "name": "verifyingContract",
          "type": "address"
        },
        {
          "internalType": "bytes32",
          "name": "salt",
          "type": "bytes32"
        },
        {
          "internalType": "uint256[]",
          "name": "extensions",
          "type": "uint256[]"
        }
      ],
      "stateMutability": "view",
      "type": "function"
    },
    {
      "inputs": [],
      "name": "endpoint",
      "outputs": [
        {
          "internalType": "contract ILayerZeroEndpointV2",
          "name": "",
          "type": "address"
        }
      ],
      "stateMutability": "view",
      "type": "function"
    },
    {
      "inputs": [
        {
          "internalType": "address[]",
          "name": "targets",
          "type": "address[]"
        },
        {
          "internalType": "uint256[]",
          "name": "values",
          "type": "uint256[]"
        },
        {
          "internalType": "bytes[]",
          "name": "calldatas",
          "type": "bytes[]"
        },
        {
          "internalType": "bytes32",
          "name": "descriptionHash",
          "type": "bytes32"
        }
      ],
      "name": "execute",
      "outputs": [
        {
          "internalType": "uint256",
          "name": "",
          "type": "uint256"
        }
      ],
      "stateMutability": "payable",
      "type": "function"
    },
    {
      "inputs": [
        {
          "internalType": "address",
          "name": "account",
          "type": "address"
        },
        {
          "internalType": "uint256",
          "name": "timepoint",
          "type": "uint256"
        }
      ],
      "name": "getVotes",
      "outputs": [
        {
          "internalType": "uint256",
          "name": "",
          "type": "uint256"
        }
      ],
      "stateMutability": "view",
      "type": "function"
    },
    {
      "inputs": [
        {
          "internalType": "address",
          "name": "account",
          "type": "address"
        },
        {
          "internalType": "uint256",
          "name": "timepoint",
          "type": "uint256"
        },
        {
          "internalType": "bytes",
          "name": "params",
          "type": "bytes"
        }
      ],
      "name": "getVotesWithParams",
      "outputs": [
        {
          "internalType": "uint256",
          "name": "",
          "type": "uint256"
        }
      ],
      "stateMutability": "view",
      "type": "function"
    },
    {
      "inputs": [
        {
          "internalType": "address",
          "name": "account",
          "type": "address"
        }
      ],
      "name": "getWhitelistAccountExpiration",
      "outputs": [
        {
          "internalType": "uint256",
          "name": "",
          "type": "uint256"
        }
      ],
      "stateMutability": "view",
      "type": "function"
    },
    {
      "inputs": [],
      "name": "getWhitelistGuardian",
      "outputs": [
        {
          "internalType": "address",
          "name": "",
          "type": "address"
        }
      ],
      "stateMutability": "view",
      "type": "function"
    },
    {
      "inputs": [
        {
          "internalType": "uint256",
          "name": "proposalId",
          "type": "uint256"
        },
        {
          "internalType": "address",
          "name": "account",
          "type": "address"
        }
      ],
      "name": "hasVoted",
      "outputs": [
        {
          "internalType": "bool",
          "name": "",
          "type": "bool"
        }
      ],
      "stateMutability": "view",
      "type": "function"
    },
    {
      "inputs": [
        {
          "internalType": "address[]",
          "name": "targets",
          "type": "address[]"
        },
        {
          "internalType": "uint256[]",
          "name": "values",
          "type": "uint256[]"
        },
        {
          "internalType": "bytes[]",
          "name": "calldatas",
          "type": "bytes[]"
        },
        {
          "internalType": "bytes32",
          "name": "descriptionHash",
          "type": "bytes32"
        }
      ],
      "name": "hashProposal",
      "outputs": [
        {
          "internalType": "uint256",
          "name": "",
          "type": "uint256"
        }
      ],
      "stateMutability": "pure",
      "type": "function"
    },
    {
      "inputs": [
        {
          "components": [
            {
              "internalType": "uint32",
              "name": "srcEid",
              "type": "uint32"
            },
            {
              "internalType": "bytes32",
              "name": "sender",
              "type": "bytes32"
            },
            {
              "internalType": "uint64",
              "name": "nonce",
              "type": "uint64"
            }
          ],
          "internalType": "struct Origin",
          "name": "",
          "type": "tuple"
        },
        {
          "internalType": "bytes",
          "name": "",
          "type": "bytes"
        },
        {
          "internalType": "address",
          "name": "_sender",
          "type": "address"
        }
      ],
      "name": "isComposeMsgSender",
      "outputs": [
        {
          "internalType": "bool",
          "name": "",
          "type": "bool"
        }
      ],
      "stateMutability": "view",
      "type": "function"
    },
    {
      "inputs": [
        {
          "internalType": "address",
          "name": "account",
          "type": "address"
        }
      ],
      "name": "isWhitelisted",
      "outputs": [
        {
          "internalType": "bool",
          "name": "",
          "type": "bool"
        }
      ],
      "stateMutability": "view",
      "type": "function"
    },
    {
      "inputs": [
        {
          "components": [
            {
              "internalType": "uint32",
              "name": "srcEid",
              "type": "uint32"
            },
            {
              "internalType": "bytes32",
              "name": "sender",
              "type": "bytes32"
            },
            {
              "internalType": "uint64",
              "name": "nonce",
              "type": "uint64"
            }
          ],
          "internalType": "struct Origin",
          "name": "_origin",
          "type": "tuple"
        },
        {
          "internalType": "bytes32",
          "name": "_guid",
          "type": "bytes32"
        },
        {
          "internalType": "bytes",
          "name": "_message",
          "type": "bytes"
        },
        {
          "internalType": "address",
          "name": "_executor",
          "type": "address"
        },
        {
          "internalType": "bytes",
          "name": "_extraData",
          "type": "bytes"
        }
      ],
      "name": "lzReceive",
      "outputs": [],
      "stateMutability": "payable",
      "type": "function"
    },
    {
      "inputs": [],
      "name": "name",
      "outputs": [
        {
          "internalType": "string",
          "name": "",
          "type": "string"
        }
      ],
      "stateMutability": "view",
      "type": "function"
    },
    {
      "inputs": [
        {
          "internalType": "uint32",
          "name": "",
          "type": "uint32"
        },
        {
          "internalType": "bytes32",
          "name": "",
          "type": "bytes32"
        }
      ],
      "name": "nextNonce",
      "outputs": [
        {
          "internalType": "uint64",
          "name": "nonce",
          "type": "uint64"
        }
      ],
      "stateMutability": "view",
      "type": "function"
    },
    {
      "inputs": [
        {
          "internalType": "address",
          "name": "owner",
          "type": "address"
        }
      ],
      "name": "nonces",
      "outputs": [
        {
          "internalType": "uint256",
          "name": "",
          "type": "uint256"
        }
      ],
      "stateMutability": "view",
      "type": "function"
    },
    {
      "inputs": [],
      "name": "oAppVersion",
      "outputs": [
        {
          "internalType": "uint64",
          "name": "senderVersion",
          "type": "uint64"
        },
        {
          "internalType": "uint64",
          "name": "receiverVersion",
          "type": "uint64"
        }
      ],
      "stateMutability": "pure",
      "type": "function"
    },
    {
      "inputs": [
        {
          "internalType": "address",
          "name": "",
          "type": "address"
        },
        {
          "internalType": "address",
          "name": "",
          "type": "address"
        },
        {
          "internalType": "uint256[]",
          "name": "",
          "type": "uint256[]"
        },
        {
          "internalType": "uint256[]",
          "name": "",
          "type": "uint256[]"
        },
        {
          "internalType": "bytes",
          "name": "",
          "type": "bytes"
        }
      ],
      "name": "onERC1155BatchReceived",
      "outputs": [
        {
          "internalType": "bytes4",
          "name": "",
          "type": "bytes4"
        }
      ],
      "stateMutability": "nonpayable",
      "type": "function"
    },
    {
      "inputs": [
        {
          "internalType": "address",
          "name": "",
          "type": "address"
        },
        {
          "internalType": "address",
          "name": "",
          "type": "address"
        },
        {
          "internalType": "uint256",
          "name": "",
          "type": "uint256"
        },
        {
          "internalType": "uint256",
          "name": "",
          "type": "uint256"
        },
        {
          "internalType": "bytes",
          "name": "",
          "type": "bytes"
        }
      ],
      "name": "onERC1155Received",
      "outputs": [
        {
          "internalType": "bytes4",
          "name": "",
          "type": "bytes4"
        }
      ],
      "stateMutability": "nonpayable",
      "type": "function"
    },
    {
      "inputs": [
        {
          "internalType": "address",
          "name": "",
          "type": "address"
        },
        {
          "internalType": "address",
          "name": "",
          "type": "address"
        },
        {
          "internalType": "uint256",
          "name": "",
          "type": "uint256"
        },
        {
          "internalType": "bytes",
          "name": "",
          "type": "bytes"
        }
      ],
      "name": "onERC721Received",
      "outputs": [
        {
          "internalType": "bytes4",
          "name": "",
          "type": "bytes4"
        }
      ],
      "stateMutability": "nonpayable",
      "type": "function"
    },
    {
      "inputs": [],
      "name": "owner",
      "outputs": [
        {
          "internalType": "address",
          "name": "",
          "type": "address"
        }
      ],
      "stateMutability": "view",
      "type": "function"
    },
    {
      "inputs": [
        {
          "internalType": "uint32",
          "name": "eid",
          "type": "uint32"
        }
      ],
      "name": "peers",
      "outputs": [
        {
          "internalType": "bytes32",
          "name": "peer",
          "type": "bytes32"
        }
      ],
      "stateMutability": "view",
      "type": "function"
    },
    {
      "inputs": [],
      "name": "proposalChainId",
      "outputs": [
        {
          "internalType": "uint32",
          "name": "",
          "type": "uint32"
        }
      ],
      "stateMutability": "view",
      "type": "function"
    },
    {
      "inputs": [
        {
          "internalType": "uint256",
          "name": "proposalId",
          "type": "uint256"
        }
      ],
      "name": "proposalDeadline",
      "outputs": [
        {
          "internalType": "uint256",
          "name": "",
          "type": "uint256"
        }
      ],
      "stateMutability": "view",
      "type": "function"
    },
    {
      "inputs": [
        {
          "internalType": "uint256",
          "name": "proposalId",
          "type": "uint256"
        }
      ],
      "name": "proposalEta",
      "outputs": [
        {
          "internalType": "uint256",
          "name": "",
          "type": "uint256"
        }
      ],
      "stateMutability": "view",
      "type": "function"
    },
    {
      "inputs": [
        {
          "internalType": "uint256",
          "name": "proposalId",
          "type": "uint256"
        }
      ],
      "name": "proposalNeedsQueuing",
      "outputs": [
        {
          "internalType": "bool",
          "name": "",
          "type": "bool"
        }
      ],
      "stateMutability": "view",
      "type": "function"
    },
    {
      "inputs": [
        {
          "internalType": "uint256",
          "name": "proposalId",
          "type": "uint256"
        }
      ],
      "name": "proposalProposer",
      "outputs": [
        {
          "internalType": "address",
          "name": "",
          "type": "address"
        }
      ],
      "stateMutability": "view",
      "type": "function"
    },
    {
      "inputs": [
        {
          "internalType": "uint256",
          "name": "proposalId",
          "type": "uint256"
        }
      ],
      "name": "proposalSnapshot",
      "outputs": [
        {
          "internalType": "uint256",
          "name": "",
          "type": "uint256"
        }
      ],
      "stateMutability": "view",
      "type": "function"
    },
    {
      "inputs": [],
      "name": "proposalThreshold",
      "outputs": [
        {
          "internalType": "uint256",
          "name": "",
          "type": "uint256"
        }
      ],
      "stateMutability": "view",
      "type": "function"
    },
    {
      "inputs": [
        {
          "internalType": "uint256",
          "name": "proposalId",
          "type": "uint256"
        }
      ],
      "name": "proposalVotes",
      "outputs": [
        {
          "internalType": "uint256",
          "name": "againstVotes",
          "type": "uint256"
        },
        {
          "internalType": "uint256",
          "name": "forVotes",
          "type": "uint256"
        },
        {
          "internalType": "uint256",
          "name": "abstainVotes",
          "type": "uint256"
        }
      ],
      "stateMutability": "view",
      "type": "function"
    },
    {
      "inputs": [
        {
          "internalType": "address[]",
          "name": "targets",
          "type": "address[]"
        },
        {
          "internalType": "uint256[]",
          "name": "values",
          "type": "uint256[]"
        },
        {
          "internalType": "bytes[]",
          "name": "calldatas",
          "type": "bytes[]"
        },
        {
          "internalType": "string",
          "name": "description",
          "type": "string"
        }
      ],
      "name": "propose",
      "outputs": [
        {
          "internalType": "uint256",
          "name": "",
          "type": "uint256"
        }
      ],
      "stateMutability": "nonpayable",
      "type": "function"
    },
    {
      "inputs": [
        {
          "internalType": "address[]",
          "name": "targets",
          "type": "address[]"
        },
        {
          "internalType": "uint256[]",
          "name": "values",
          "type": "uint256[]"
        },
        {
          "internalType": "bytes[]",
          "name": "calldatas",
          "type": "bytes[]"
        },
        {
          "internalType": "bytes32",
          "name": "descriptionHash",
          "type": "bytes32"
        }
      ],
      "name": "queue",
      "outputs": [
        {
          "internalType": "uint256",
          "name": "",
          "type": "uint256"
        }
      ],
      "stateMutability": "nonpayable",
      "type": "function"
    },
    {
      "inputs": [
        {
          "internalType": "uint256",
          "name": "timepoint",
          "type": "uint256"
        }
      ],
      "name": "quorum",
      "outputs": [
        {
          "internalType": "uint256",
          "name": "",
          "type": "uint256"
        }
      ],
      "stateMutability": "view",
      "type": "function"
    },
    {
      "inputs": [],
      "name": "quorumDenominator",
      "outputs": [
        {
          "internalType": "uint256",
          "name": "",
          "type": "uint256"
        }
      ],
      "stateMutability": "view",
      "type": "function"
    },
    {
      "inputs": [
        {
          "internalType": "uint256",
          "name": "timepoint",
          "type": "uint256"
        }
      ],
      "name": "quorumNumerator",
      "outputs": [
        {
          "internalType": "uint256",
          "name": "",
          "type": "uint256"
        }
      ],
      "stateMutability": "view",
      "type": "function"
    },
    {
      "inputs": [],
      "name": "quorumNumerator",
      "outputs": [
        {
          "internalType": "uint256",
          "name": "",
          "type": "uint256"
        }
      ],
      "stateMutability": "view",
      "type": "function"
    },
    {
      "inputs": [
        {
          "internalType": "address",
          "name": "target",
          "type": "address"
        },
        {
          "internalType": "uint256",
          "name": "value",
          "type": "uint256"
        },
        {
          "internalType": "bytes",
          "name": "data",
          "type": "bytes"
        }
      ],
      "name": "relay",
      "outputs": [],
      "stateMutability": "payable",
      "type": "function"
    },
    {
      "inputs": [],
      "name": "renounceOwnership",
      "outputs": [],
      "stateMutability": "nonpayable",
      "type": "function"
    },
    {
      "inputs": [
        {
          "internalType": "uint32",
          "name": "_dstEid",
          "type": "uint32"
        },
        {
          "internalType": "address[]",
          "name": "_dstTargets",
          "type": "address[]"
        },
        {
          "internalType": "uint256[]",
          "name": "_dstValues",
          "type": "uint256[]"
        },
        {
          "internalType": "bytes[]",
          "name": "_dstCalldatas",
          "type": "bytes[]"
        },
        {
          "internalType": "bytes32",
          "name": "_dstDescriptionHash",
          "type": "bytes32"
        },
        {
          "internalType": "bytes",
          "name": "_options",
          "type": "bytes"
        }
      ],
      "name": "sendProposalToTargetChain",
      "outputs": [],
      "stateMutability": "nonpayable",
      "type": "function"
    },
    {
      "inputs": [
        {
          "internalType": "address",
          "name": "_delegate",
          "type": "address"
        }
      ],
      "name": "setDelegate",
      "outputs": [],
      "stateMutability": "nonpayable",
      "type": "function"
    },
    {
      "inputs": [
        {
          "internalType": "uint32",
          "name": "_eid",
          "type": "uint32"
        },
        {
          "internalType": "bytes32",
          "name": "_peer",
          "type": "bytes32"
        }
      ],
      "name": "setPeer",
      "outputs": [],
      "stateMutability": "nonpayable",
      "type": "function"
    },
    {
      "inputs": [
        {
          "internalType": "uint256",
          "name": "newProposalThreshold",
          "type": "uint256"
        }
      ],
      "name": "setProposalThreshold",
      "outputs": [],
      "stateMutability": "nonpayable",
      "type": "function"
    },
    {
      "inputs": [
        {
          "internalType": "uint48",
          "name": "newVotingDelay",
          "type": "uint48"
        }
      ],
      "name": "setVotingDelay",
      "outputs": [],
      "stateMutability": "nonpayable",
      "type": "function"
    },
    {
      "inputs": [
        {
          "internalType": "uint32",
          "name": "newVotingPeriod",
          "type": "uint32"
        }
      ],
      "name": "setVotingPeriod",
      "outputs": [],
      "stateMutability": "nonpayable",
      "type": "function"
    },
    {
      "inputs": [
        {
          "internalType": "address",
          "name": "account",
          "type": "address"
        },
        {
          "internalType": "uint256",
          "name": "expiration",
          "type": "uint256"
        }
      ],
      "name": "setWhitelistAccountExpiration",
      "outputs": [],
      "stateMutability": "nonpayable",
      "type": "function"
    },
    {
      "inputs": [
        {
          "internalType": "address",
          "name": "_whitelistGuardian",
          "type": "address"
        }
      ],
      "name": "setWhitelistGuardian",
      "outputs": [],
      "stateMutability": "nonpayable",
      "type": "function"
    },
    {
      "inputs": [
        {
          "internalType": "uint256",
          "name": "proposalId",
          "type": "uint256"
        }
      ],
      "name": "state",
      "outputs": [
        {
          "internalType": "enum IGovernor.ProposalState",
          "name": "",
          "type": "uint8"
        }
      ],
      "stateMutability": "view",
      "type": "function"
    },
    {
      "inputs": [
        {
          "internalType": "bytes4",
          "name": "interfaceId",
          "type": "bytes4"
        }
      ],
      "name": "supportsInterface",
      "outputs": [
        {
          "internalType": "bool",
          "name": "",
          "type": "bool"
        }
      ],
      "stateMutability": "view",
      "type": "function"
    },
    {
      "inputs": [],
      "name": "timelock",
      "outputs": [
        {
          "internalType": "address",
          "name": "",
          "type": "address"
        }
      ],
      "stateMutability": "view",
      "type": "function"
    },
    {
      "inputs": [],
      "name": "token",
      "outputs": [
        {
          "internalType": "contract IERC5805",
          "name": "",
          "type": "address"
        }
      ],
      "stateMutability": "view",
      "type": "function"
    },
    {
      "inputs": [
        {
          "internalType": "address",
          "name": "newOwner",
          "type": "address"
        }
      ],
      "name": "transferOwnership",
      "outputs": [],
      "stateMutability": "nonpayable",
      "type": "function"
    },
    {
      "inputs": [
        {
          "internalType": "uint256",
          "name": "newQuorumNumerator",
          "type": "uint256"
        }
      ],
      "name": "updateQuorumNumerator",
      "outputs": [],
      "stateMutability": "nonpayable",
      "type": "function"
    },
    {
      "inputs": [
        {
          "internalType": "contract TimelockController",
          "name": "newTimelock",
          "type": "address"
        }
      ],
      "name": "updateTimelock",
      "outputs": [],
      "stateMutability": "nonpayable",
      "type": "function"
    },
    {
      "inputs": [],
      "name": "version",
      "outputs": [
        {
          "internalType": "string",
          "name": "",
          "type": "string"
        }
      ],
      "stateMutability": "view",
      "type": "function"
    },
    {
      "inputs": [],
      "name": "votingDelay",
      "outputs": [
        {
          "internalType": "uint256",
          "name": "",
          "type": "uint256"
        }
      ],
      "stateMutability": "view",
      "type": "function"
    },
    {
      "inputs": [],
      "name": "votingPeriod",
      "outputs": [
        {
          "internalType": "uint256",
          "name": "",
          "type": "uint256"
        }
      ],
      "stateMutability": "view",
      "type": "function"
    },
    {
      "stateMutability": "payable",
      "type": "receive"
    }
  ],
  "bytecode": "0x6101e06040523461011f5761001a6100156102a3565b610425565b604051614d4690816111c58239608051816141d8015260a0518161428f015260c051816141a2015260e051816142270152610100518161424d01526101205181611acb01526101405181611af7015261016051818181611d9e0152818161236c0152818161252c015281816125cb015281816130b30152818161375501528181613a0501528181613d3401528181613df20152614aa0015261018051818181610eaf015281816111ef015281816113cc0152612b9f01526101a0518181816107a10152818161155d015281816120c3015281816145eb015281816147470152614bd201526101c051818181610e5e015281816119fe015281816127180152612c8a0152f35b5f80fd5b634e487b7160e01b5f52604160045260245ffd5b601f909101601f19168101906001600160401b0382119082101761015a57604052565b610123565b6040519061016f61016083610137565b565b6040519061016f604083610137565b6001600160a01b0381160361011f57565b519061016f82610180565b519065ffffffffffff8216820361011f57565b519063ffffffff8216820361011f57565b6001600160401b03811161015a5760051b60200190565b9080601f8301121561011f5781516101ee816101c0565b926101fc6040519485610137565b81845260208085019260051b82010192831161011f57602001905b8282106102245750505090565b60208091610231846101af565b815201910190610217565b9080601f8301121561011f578151610253816101c0565b926102616040519485610137565b81845260208085019260051b82010192831161011f57602001905b8282106102895750505090565b60208091835161029881610180565b81520191019061027c565b615f2b80380380604051926102b88285610137565b833981019060208183031261011f578051906001600160401b03821161011f57016101608183031261011f576102ec61015f565b916102f682610191565b835261030460208301610191565b60208401526103156040830161019c565b6040840152610326606083016101af565b60608401526080820151608084015260a082015160a084015261034b60c08301610191565b60c084015261035c60e08301610191565b60e084015261036e61010083016101af565b6101008401526101208201516001600160401b03811161011f57816103949184016101d7565b6101208401526101408201516001600160401b03811161011f576103b8920161023c565b61014082015290565b604051906103d0604083610137565b60018252565b604051906103e5604083610137565b600e82526d29bab6b6b2b923b7bb32b93737b960911b6020830152565b9081602091031261011f575161041781610180565b90565b6040513d5f823e3d90fd5b60e0810151602091906004906001600160a01b031661050b610100840191610451835163ffffffff1690565b63ffffffff811646036105d9578587015161047c906001600160a01b03165b6001600160a01b031690565b905b469063ffffffff16036105d2578686015186906104a3906001600160a01b0316610470565b81516104b7906001600160a01b0316610470565b60a0830151906104d0604085015165ffffffffffff1690565b91816104e3606087015163ffffffff1690565b946104fc608088019e8f5198015160018060a01b031690565b976105056103d6565b996105ea565b8251602090610522906001600160a01b0316610470565b60405163defe205360e01b815293849182905afa80156105cd5761016f9461056161056792610588955f9161059e575b506001600160a01b031661091b565b5161095a565b60c083015161057e906001600160a01b03166109b4565b5163ffffffff1690565b6101c05261014061012082015191015190610a3a565b6105c0915060203d6020116105c6575b6105b88183610137565b810190610402565b5f610552565b503d6105ae565b61041a565b85306104a3565b309061047e565b5f91031261011f57565b98966106b86106d4976106b36106c2969a6106ae6106bd969f9d979d9a999a6106116103c1565b60208101603160f81b815261062583610d3d565b6101205261063282610e2a565b6101405282516020840120918260e05251902080610100524660a0526040519060208201927f8b73c3c69bb8fe3d512ecc4cf759cc79239f7b179b0ffacaa9a75d522b39400f8452604083015260608201524660808201523060a082015260a0815261069f60c082610137565b5190206080523060c052610836565b610cea565b610be3565b610c30565b610cb1565b6001600160a01b031661016052610b1b565b6001600160a01b031680156107a057610180526001600160a01b0381161561078c576106ff90610ad3565b6001600160a01b039081166101a08190529082161561077d5761072a906001600160a01b0316610470565b803b1561011f5760405163ca5eb5e160e01b81526001600160a01b039290921660048301525f908290602490829084905af180156105cd576107695750565b806107775f61016f93610137565b806105e0565b632d618d8160e21b5f5260045ffd5b631e4fbdf760e01b5f90815260045260245ffd5b6334566e4b60e21b5f5260045ffd5b90600182811c921680156107dd575b60208310146107c957565b634e487b7160e01b5f52602260045260245ffd5b91607f16916107be565b601f82116107f457505050565b5f5260205f20906020601f840160051c8301931061082c575b601f0160051c01905b818110610821575050565b5f8155600101610816565b909150819061080d565b80519091906001600160401b03811161015a5761085f816108586003546107af565b60036107e7565b602092601f821160011461089f5761088f929382915f92610894575b50508160011b915f199060031b1c19161790565b600355565b015190505f8061087b565b60035f52601f198216937fc2575a0e9e593c00f959f8c92f12db2869c3395a3b0502d05e2516446f71f85b915f5b86811061090357508360019596106108eb575b505050811b01600355565b01515f1960f88460031b161c191690555f80806108e0565b919260206001819286850151815501940192016108cd565b6001600160a01b031680156107a057600d546001600160a01b03811661094b576001600160a01b03191617600d55565b6336f62bb160e01b5f5260045ffd5b683635c9adc5dea00000811080156109a1575b6109745750565b6309c6075760e01b5f52600452683635c9adc5dea0000060245269152d02c7e14af680000060445260645ffd5b5069152d02c7e14af6800000811161096d565b6001600160a01b031680156109fb57601180546001600160a01b031916821790557f7b8ac9dc00c39ab43cee17ce9ec96af81b02a21526626b7701fc69cb025711c25f80a2565b63224fa21960e21b5f5260045260245ffd5b634e487b7160e01b5f52603260045260245ffd5b8051821015610a355760209160051b010190565b610a0d565b91909180518015610abe57835103610ac4575f5b8151811015610abe57807f238399d427b947898edb290f5ff0f9109849b1c3ba196a42e35f00c50a54b98b604063ffffffff610a8c60019587610a21565b5116848060a01b03610a9e858a610a21565b5116815f52600f60205280835f205582519182526020820152a101610a4e565b50509050565b638158df6160e01b5f5260045ffd5b600e80546001600160a01b039283166001600160a01b0319821681179092559091167f8be0079c531659141344cd1fd0a4f28419497f9722a3daafe3b4186f6b6457e05f80a3565b60648111610bcc57600c549081610b6c575f516020615f0b5f395f51905f5291505f5b610b58610b49610fc6565b610b5284610f1c565b906110bb565b5050604080519182526020820192909252a1565b815f19810111610bb857600c5f527fdf6966c971051c3d54ec59162606531493a51404a002842f56009d7e5cf4a8c691909101545f516020615f0b5f395f51905f52919060301c610b3e565b634e487b7160e01b5f52601160045260245ffd5b63243e544560e01b5f52600452606460245260445ffd5b600a547fc565b045403dc03c2eea82b81a0465edad9e2e7fc4d97e11421c209da93d7a93604065ffffffffffff81519481851686521693846020820152a165ffffffffffff191617600a55565b63ffffffff8116908115610c9e5769ffffffff000000000000907f7e3f7f0708a84de9203036abaa450dccc85ad5ff52f78c170f3edb55cf5e88286040600a549481519063ffffffff8760301c1682526020820152a160301b169069ffffffff000000000000191617600a55565b63f1cfbf0560e01b5f525f60045260245ffd5b60095460408051918252602082018390527fccb45da8d5717e6c4544694297c4ba5cf151d455c9bb0ed4fc7a38411bc0546191a1600955565b600754604080516001600160a01b03808416825290931660208401819052927f08f74ea46ef7894f65eabfb5e6e695de773a000b47c529ab559178069b2264019190a16001600160a01b03191617600755565b908151602081105f14610d5557509061041790610f4d565b6001600160401b03811161015a57610d7781610d715f546107af565b5f6107e7565b602092601f8211600114610dad57610da6929382915f926108945750508160011b915f199060031b1c19161790565b5f5560ff90565b5f8052601f198216937f290decd9548b62a8d60345a988386fc84ba6bc95484008f6362f93160ef3e563915f5b868110610e125750836001959610610dfa575b505050811b015f5560ff90565b01515f1960f88460031b161c191690555f8080610ded565b91926020600181928685015181550194019201610dda565b908151602081105f14610e4257509061041790610f4d565b6001600160401b03811161015a57610e6681610e5f6001546107af565b60016107e7565b602092601f8211600114610e9d57610e95929382915f926108945750508160011b915f199060031b1c19161790565b60015560ff90565b60015f52601f198216937fb10e2d527612073b26eecdfd717e6a320cf44b4afac2b0732d9fcbe2b7fa0cf6915f5b868110610f045750836001959610610eec575b505050811b0160015560ff90565b01515f1960f88460031b161c191690555f8080610ede565b91926020600181928685015181550194019201610ecb565b6001600160d01b038111610f36576001600160d01b031690565b6306dfcc6560e41b5f5260d060045260245260445ffd5b601f815111610f78576020815191015160208210610f69571790565b5f198260200360031b1b161790565b604460209160405192839163305a27a960e01b83528160048401528051918291826024860152018484015e5f828201840152601f01601f19168101030190fd5b5f19810191908211610bb857565b610160516040516324776b7d60e21b815290602090829060049082906001600160a01b03165afa5f918161102c575b50610417575065ffffffffffff43116110145765ffffffffffff431690565b6306dfcc6560e41b5f5260306004524360245260445ffd5b9091506020813d602011611060575b8161104860209383610137565b8101031261011f576110599061019c565b905f610ff5565b3d915061103b565b9081546801000000000000000081101561015a5760018101808455811015610a35575f9283526020928390208251929093015160301b65ffffffffffff191665ffffffffffff9290921691909117910155565b600c54919291801561119b576110d36110fc91610fb8565b600c5f527fdf6966c971051c3d54ec59162606531493a51404a002842f56009d7e5cf4a8c70190565b9081546111186111118265ffffffffffff1690565b9160301c90565b9265ffffffffffff80841692169180831161118c578692036111565761115292509065ffffffffffff82549181199060301b169116179055565b9190565b505061115290611175611167610171565b65ffffffffffff9092168252565b6001600160d01b03851660208201525b600c611068565b632520601d60e01b5f5260045ffd5b506111bf906111ab611167610171565b6001600160d01b0384166020820152611185565b5f919056fe6080604052600436101561001a575b3615610018575f80fd5b005b5f3560e01c806301ffc9a71461047457806302a251a31461046f57806306f3f9e61461046a57806306fdde031461046557806313137d6514610460578063143489d01461045b578063150b7a0214610456578063160cbed71461045157806317442b701461044c57806325fd935a146104475780632656227d146104425780632d63f6931461043d5780632fe3e261146104385780633400288b146104335780633932abb11461042e5780633af32abf146104295780633e4f49e614610424578063438596321461041f578063452115d61461041a5780634bf5d7e914610415578063544ffc9c1461041057806354fd4d501461040b57806356781388146104065780635b8d0e0d146104015780635e280f11146103fc5780635f398a14146103f757806360c4247f146103f25780636f283761146103ed578063715018a6146103e8578063768e7812146103e357806379051887146103de578063791f5d23146103d957806379502c55146103d4578063798ec935146103d45780637b3c71d3146103cf5780637d25a05e146103ca5780637d5e81e2146103c55780637ecebe00146103c057806380c176eb146103bb57806382413eac146103b657806384b0196e146103b15780638da5cb5b146103ac5780638ff262e3146103a757806391ddadf4146103a257806395df68c31461039d57806397c3d334146103985780639a802a6d14610393578063a7713a701461038e578063a890c91014610389578063a9a9529414610384578063ab58fb8e1461037f578063b58131b01461037a578063bb0b6a5314610375578063bc197c8114610370578063c01f9e371461036b578063c28bc2fa14610366578063c59057e414610361578063ca5eb5e11461035c578063d33219b414610357578063dd4e2ba514610352578063deaaa7cc1461034d578063ded0a63814610348578063e540d01d14610343578063eb9019d41461033e578063ece40cc114610339578063f23a6e6114610334578063f2fde38b1461032f578063f8ce560a1461032a578063fc0c546a146103255763ff7bd03d0361000e576125fa565b6125b6565b6124fb565b612471565b612404565b6123af565b61230a565b612267565b6121f9565b6121bf565b612160565b612138565b61209b565b61207f565b612014565b611ff6565b611f49565b611f10565b611ef3565b611ec0565b611ea4565b611e2c565b611e01565b611d2c565b611d11565b611cd6565b611cac565b611bab565b611b83565b611ab3565b611a22565b6119e2565b6119a7565b6118f9565b6118d3565b61187e565b611856565b611833565b6117c1565b61170b565b6116b0565b611632565b61160c565b61158c565b611548565b6114b2565b61139a565b611347565b611306565b6112d7565b6111c6565b611171565b611142565b6110c9565b6110a4565b611037565b610fe2565b610fad565b610e4c565b610e28565b610e07565b610bc5565b610981565b610847565b61073d565b610614565b610516565b6104f0565b346104e25760203660031901126104e25760043563ffffffff60e01b81168091036104e2576020906332a2ad4360e11b81149081156104d1575b81156104c0575b506040519015158152f35b6301ffc9a760e01b1490505f6104b5565b630271189760e51b811491506104ae565b5f80fd5b5f9103126104e257565b346104e2575f3660031901126104e257602063ffffffff600a5460301c16604051908152f35b346104e25760203660031901126104e2576004356105326130ff565b606481116105c5576001600160d01b0361054a613e25565b1690610554613d1f565b916001600160d01b0382116105ad577f0553476bf02ef2726e8ce5ced78d63e26e602e4a2257b1f559418e24b463399792610599906001600160d01b038416906148ed565b5050604080519182526020820192909252a1005b506306dfcc6560e41b5f5260d060045260245260445ffd5b63243e544560e01b5f52600452606460245260445ffd5b805180835260209291819084018484015e5f828201840152601f01601f1916010190565b9060206106119281815201906105dc565b90565b346104e2575f3660031901126104e2576040515f6003546106348161263f565b80845290600181169081156106ca575060011461066c575b6106688361065c818503826108d4565b60405191829182610600565b0390f35b60035f9081527fc2575a0e9e593c00f959f8c92f12db2869c3395a3b0502d05e2516446f71f85b939250905b8082106106b05750909150810160200161065c61064c565b919260018160209254838588010152019101909291610698565b60ff191660208086019190915291151560051b8401909101915061065c905061064c565b60609060031901126104e257600490565b9181601f840112156104e2578235916001600160401b0383116104e257602083818601950101116104e257565b6001600160a01b038116036104e257565b60e03660031901126104e257610752366106ee565b6084356001600160401b0381116104e2576107719036906004016106ff565b9061077d60a43561072c565b60c4356001600160401b0381116104e25761079c9036906004016106ff565b5050337f00000000000000000000000000000000000000000000000000000000000000006001600160a01b031603610821578235926107da8461101c565b6107e38461317c565b9360208201358095036107fb575061001893506131ac565b63ffffffff8161080b879361101c565b63309afaf360e21b5f521660045260245260445ffd5b6391ac5e4f60e01b5f523360045260245ffd5b6001600160a01b03909116815260200190565b346104e25760203660031901126104e257600480355f908152602091825260409020546001600160a01b03166040516001600160a01b039091168152f35b634e487b7160e01b5f52604160045260245ffd5b604081019081106001600160401b038211176108b457604052565b610885565b606081019081106001600160401b038211176108b457604052565b90601f801991011681019081106001600160401b038211176108b457604052565b604051906109046040836108d4565b565b6040519061090460a0836108d4565b6001600160401b0381116108b457601f01601f191660200190565b92919261093c82610915565b9161094a60405193846108d4565b8294818452818301116104e2578281602093845f960137010152565b9080601f830112156104e25781602061061193359101610930565b346104e25760803660031901126104e25761099d60043561072c565b6109a860243561072c565b6064356001600160401b0381116104e2576109c7903690600401610966565b50600754306001600160a01b03909116036109ee57604051630a85bd0160e11b8152602090f35b637485328f60e11b5f5260045ffd5b6001600160401b0381116108b45760051b60200190565b9080601f830112156104e2578135610a2b816109fd565b92610a3960405194856108d4565b81845260208085019260051b8201019283116104e257602001905b828210610a615750505090565b602080918335610a708161072c565b815201910190610a54565b9080601f830112156104e2578135610a92816109fd565b92610aa060405194856108d4565b81845260208085019260051b8201019283116104e257602001905b828210610ac85750505090565b8135815260209182019101610abb565b9080601f830112156104e2578135610aef816109fd565b92610afd60405194856108d4565b81845260208085019260051b820101918383116104e25760208201905b838210610b2957505050505090565b81356001600160401b0381116104e257602091610b4b87848094880101610966565b815201910190610b1a565b60806003198201126104e2576004356001600160401b0381116104e25781610b8091600401610a14565b916024356001600160401b0381116104e25782610b9f91600401610a7b565b91604435906001600160401b0382116104e257610bbe91600401610ad8565b9060643590565b346104e257610bd336610b56565b9092610be182858584613009565b93610beb85613289565b50600754610c09906001600160a01b03165b6001600160a01b031690565b936040519363793d064960e11b8552602085600481895afa948515610db2575f95610de6575b503060601b6001600160601b03191618946020604051809263b1c5f42760e01b82528180610c638b89898c60048601613fa7565b03915afa908115610db2575f91610db7575b50610c88875f52600860205260405f2090565b55600754610c9e906001600160a01b0316610bfd565b90813b156104e2575f8094610cca87604051998a97889687956308f2a0bb60e41b875260048701613fec565b03925af1908115610db257610cee92610ce992610d98575b5042613bfd565b613bb0565b9065ffffffffffff821615610d89577f9a2e42fd6722813d69113e7d0079d3d940171428df7373df9c7f7617cfda2892610d7683610d57610668956001610d3d875f52600460205260405f2090565b019065ffffffffffff1665ffffffffffff19825416179055565b6040805185815265ffffffffffff909216602083015290918291820190565b0390a16040519081529081906020820190565b634844252360e11b5f5260045ffd5b80610da65f610dac936108d4565b806104e6565b5f610ce2565b612702565b610dd9915060203d602011610ddf575b610dd181836108d4565b810190613db2565b5f610c75565b503d610dc7565b610e0091955060203d602011610ddf57610dd181836108d4565b935f610c2f565b346104e2575f3660031901126104e257604080516001815260026020820152f35b346104e2575f3660031901126104e257602060405169152d02c7e14af68000008152f35b610e5536610b56565b919263ffffffff7f000000000000000000000000000000000000000000000000000000000000000016804603610f97575033610eab575b9061066893610e9b939261335b565b6040519081529081906020820190565b91907f00000000000000000000000000000000000000000000000000000000000000006001600160a01b0316803b156104e2575f6040518092633e4986ef60e11b8252818381610efe3360048301610834565b03925af18015610db257610f83575b50600d54610f23906001600160a01b0316610bfd565b93843b156104e2575f604051809663dae21dab60e01b8252818381610f4b3360048301610834565b03925af1938415610db25761066895610e9b95610f6f575b50919293509350610e8c565b80610da65f610f7d936108d4565b5f610f63565b80610da65f610f91936108d4565b5f610f0d565b6327bf854560e21b5f524660045260245260445ffd5b346104e25760203660031901126104e2576004355f526004602052602065ffffffffffff60405f205460a01c16604051908152f35b346104e2575f3660031901126104e25760206040517f3e83946653575f9a39005e1545185629e92736b7528ab20ca3816f315424a8118152f35b63ffffffff8116036104e257565b600435906109048261101c565b346104e25760403660031901126104e2577f238399d427b947898edb290f5ff0f9109849b1c3ba196a42e35f00c50a54b98b60406004356110778161101c565b63ffffffff602435916110886134c1565b1690815f52600f60205280835f205582519182526020820152a1005b346104e2575f3660031901126104e257602065ffffffffffff600a5416604051908152f35b346104e25760203660031901126104e25760206111076004356110eb8161072c565b6001600160a01b03165f90815260106020526040902054421090565b6040519015158152f35b634e487b7160e01b5f52602160045260245ffd5b6008111561112f57565b611111565b600881101561112f57602452565b346104e25760203660031901126104e25761115e600435613500565b604051600882101561112f576020918152f35b346104e25760403660031901126104e257602060ff6111ba6024356004356111988261072c565b5f52600b8452600360405f20019060018060a01b03165f5260205260405f2090565b54166040519015158152f35b346104e2576111d436610b56565b9192336111eb575b9061066893610e9b939261270d565b91907f00000000000000000000000000000000000000000000000000000000000000006001600160a01b0316803b156104e2575f6040518092633e4986ef60e11b825281838161123e3360048301610834565b03925af18015610db2576112c3575b50600d54611263906001600160a01b0316610bfd565b93843b156104e2575f604051809663dae21dab60e01b825281838161128b3360048301610834565b03925af1938415610db25761066895610e9b956112af575b509192935093506111dc565b80610da65f6112bd936108d4565b5f6112a3565b80610da65f6112d1936108d4565b5f61124d565b346104e2575f3660031901126104e2576106686112f2613741565b6040519182916020835260208301906105dc565b346104e25760203660031901126104e2576004355f52600b602052606060405f20805490600260018201549101549060405192835260208301526040820152f35b346104e2575f3660031901126104e2576106686040516113686040826108d4565b60018152603160f81b60208201526040519182916020835260208301906105dc565b6024359060ff821682036104e257565b346104e25760403660031901126104e2576004356113b661138a565b90336113ca575b61066891610e9b91612867565b7f00000000000000000000000000000000000000000000000000000000000000006001600160a01b0316803b156104e2575f6040518092633e4986ef60e11b825281838161141b3360048301610834565b03925af18015610db25761149e575b50600d54611440906001600160a01b0316610bfd565b91823b156104e2575f604051809463dae21dab60e01b82528183816114683360048301610834565b03925af1918215610db25761066893610e9b9361148a575b50915091506113bd565b80610da65f611498936108d4565b5f611480565b80610da65f6114ac936108d4565b5f61142a565b346104e25760c03660031901126104e2576004356114ce61138a565b90604435906114dc8261072c565b6064356001600160401b0381116104e2576114fb9036906004016106ff565b6084356001600160401b0381116104e25761151a903690600401610966565b9160a435946001600160401b0386116104e25761066896611542610e9b973690600401610966565b95612884565b346104e2575f3660031901126104e2576040517f00000000000000000000000000000000000000000000000000000000000000006001600160a01b03168152602090f35b346104e25760803660031901126104e2576004356115a861138a565b906044356001600160401b0381116104e2576115c89036906004016106ff565b9190926064356001600160401b0381116104e257611601946115f16115f9923690600401610966565b943691610930565b9133906139a8565b604051908152602090f35b346104e25760203660031901126104e257602061162a600435612970565b604051908152f35b346104e25760203660031901126104e25760043561164f8161072c565b6116576130ff565b6001600160a01b0316801561169e57601180546001600160a01b031916821790557f7b8ac9dc00c39ab43cee17ce9ec96af81b02a21526626b7701fc69cb025711c25f80a2005b63224fa21960e21b5f5260045260245ffd5b346104e2575f3660031901126104e2576116c86134c1565b600e80546001600160a01b031981169091555f906001600160a01b03167f8be0079c531659141344cd1fd0a4f28419497f9722a3daafe3b4186f6b6457e08280a3005b346104e25760c03660031901126104e25761172461102a565b6024356001600160401b0381116104e257611743903690600401610a14565b6044356001600160401b0381116104e257611762903690600401610a7b565b916064356001600160401b0381116104e257611782903690600401610ad8565b6084359060a435946001600160401b0386116104e2576117a96100189636906004016106ff565b959094612a98565b65ffffffffffff8116036104e257565b346104e25760203660031901126104e2576004356117de816117b1565b6117e66130ff565b600a547fc565b045403dc03c2eea82b81a0465edad9e2e7fc4d97e11421c209da93d7a93604065ffffffffffff81519481851686521693846020820152a165ffffffffffff191617600a55005b346104e2575f3660031901126104e2576020604051683635c9adc5dea000008152f35b346104e2575f3660031901126104e2576011546040516001600160a01b039091168152602090f35b346104e25760603660031901126104e25760043561189a61138a565b90604435906001600160401b0382116104e2576020926118cb6118c461162a9436906004016106ff565b3691610930565b913390613810565b346104e25760403660031901126104e2576118ef60043561101c565b60206040515f8152f35b346104e25760803660031901126104e2576004356001600160401b0381116104e257611929903690600401610a14565b6024356001600160401b0381116104e257611948903690600401610a7b565b906044356001600160401b0381116104e257611968903690600401610ad8565b90606435916001600160401b0383116104e257366023840112156104e257610668936119a1610e9b943690602481600401359101610930565b92612b8a565b346104e25760203660031901126104e2576004356119c48161072c565b60018060a01b03165f526002602052602060405f2054604051908152f35b346104e2575f3660031901126104e257602060405163ffffffff7f0000000000000000000000000000000000000000000000000000000000000000168152f35b346104e25760a03660031901126104e257611a3c366106ee565b506064356001600160401b0381116104e257611a5c9036906004016106ff565b50506020608435611a6c8161072c565b6040516001600160a01b0390911630148152f35b90602080835192838152019201905f5b818110611a9d5750505090565b8251845260209384019390920191600101611a90565b346104e2575f3660031901126104e257611b55611aef7f00000000000000000000000000000000000000000000000000000000000000006147e5565b610668611b1b7f0000000000000000000000000000000000000000000000000000000000000000614844565b611b6360405191611b2d6020846108d4565b5f808452366020850137604051958695600f60f81b875260e0602088015260e08701906105dc565b9085820360408701526105dc565b904660608501523060808501525f60a085015283820360c0850152611a80565b346104e2575f3660031901126104e257600e546040516001600160a01b039091168152602090f35b346104e25760803660031901126104e257600435611bc761138a565b9060443591611bd58361072c565b6064356001600160401b0381116104e257611c70611bfa611c74923690600401610966565b611c6a611c068761382d565b60405160208101917ff2aad550cf55f045cb27e9c559f9889fdfb6e6cdaa032301d6ea397784ae51d7835288604083015260ff8816606083015260018060a01b038a16608083015260a082015260a08152611c6260c0826108d4565b51902061384f565b8661387f565b1590565b611c8f5790610e9b9161066893611c89612853565b92613810565b6394ab6c0760e01b5f526001600160a01b03831660045260245b5ffd5b346104e2575f3660031901126104e2576020611cc6613d1f565b65ffffffffffff60405191168152f35b346104e25760203660031901126104e257600435611cf38161072c565b60018060a01b03165f526010602052602060405f2054604051908152f35b346104e2575f3660031901126104e257602060405160648152f35b346104e25760603660031901126104e257600435611d498161072c565b6024356044356001600160401b0381116104e257611d6b903690600401610966565b50604051630748d63560e31b81526001600160a01b039283166004820152602481019190915290602090829060449082907f0000000000000000000000000000000000000000000000000000000000000000165afa8015610db257610668915f91611de2575b506040519081529081906020820190565b611dfb915060203d602011610ddf57610dd181836108d4565b5f611dd1565b346104e2575f3660031901126104e25760206001600160d01b03611e23613e25565b16604051908152f35b346104e25760203660031901126104e257600435611e498161072c565b611e516130ff565b600754604080516001600160a01b03808416825290931660208401819052927f08f74ea46ef7894f65eabfb5e6e695de773a000b47c529ab559178069b2264019190a16001600160a01b03191617600755005b346104e25760203660031901126104e257602060405160018152f35b346104e25760203660031901126104e257602061162a6004355f52600460205265ffffffffffff600160405f2001541690565b346104e2575f3660031901126104e2576020600954604051908152f35b346104e25760203660031901126104e25763ffffffff600435611f328161101c565b165f52600f602052602060405f2054604051908152f35b346104e25760a03660031901126104e257611f6560043561072c565b611f7060243561072c565b6044356001600160401b0381116104e257611f8f903690600401610a7b565b506064356001600160401b0381116104e257611faf903690600401610a7b565b506084356001600160401b0381116104e257611fcf903690600401610966565b50610668611fdb612ee0565b6040516001600160e01b031990911681529081906020820190565b346104e25760203660031901126104e257602061162a600435612eff565b60603660031901126104e25760043561202c8161072c565b6024356044356001600160401b0381116104e257610018925f92612055849336906004016106ff565b919061205f6130ff565b826040519384928337810185815203925af1612079612f46565b90613e69565b346104e257602061162a61209236610b56565b92919091613009565b346104e2575f60203660031901126104e2576004356120b98161072c565b6120c16134c1565b7f00000000000000000000000000000000000000000000000000000000000000006001600160a01b031690813b156104e25760405163ca5eb5e160e01b81526001600160a01b039091166004820152905f908290602490829084905af18015610db25761212c575080f35b61001891505f906108d4565b346104e2575f3660031901126104e2576007546040516001600160a01b039091168152602090f35b346104e2575f3660031901126104e2576106686040516121816040826108d4565b602081527f737570706f72743d627261766f2671756f72756d3d666f722c6162737461696e60208201526040519182916020835260208301906105dc565b346104e2575f3660031901126104e25760206040517ff2aad550cf55f045cb27e9c559f9889fdfb6e6cdaa032301d6ea397784ae51d78152f35b346104e25760403660031901126104e2576004356122168161072c565b7f4e7b7545bc5744d0e30425959f4687475774b6c7edad77d24cb51c7d967d45156020602435926122456130ff565b6001600160a01b03165f818152601083526040908190208590555193845292a2005b346104e25760203660031901126104e2576004356122848161101c565b61228c6130ff565b63ffffffff81169081156122f7577f7e3f7f0708a84de9203036abaa450dccc85ad5ff52f78c170f3edb55cf5e88286040600a549381519063ffffffff8660301c1682526020820152a163ffffffff60301b1990911660309190911b63ffffffff60301b1617600a55005b63f1cfbf0560e01b5f525f60045260245ffd5b346104e25760403660031901126104e2576004356123278161072c565b6024355f6040516123396020826108d4565b52604051630748d63560e31b81526001600160a01b039283166004820152602481019190915290602090829060449082907f0000000000000000000000000000000000000000000000000000000000000000165afa8015610db257610668915f91611de257506040519081529081906020820190565b346104e25760203660031901126104e2576004356123cb6130ff565b60095460408051918252602082018390527fccb45da8d5717e6c4544694297c4ba5cf151d455c9bb0ed4fc7a38411bc0546191a1600955005b346104e25760a03660031901126104e25761242060043561072c565b61242b60243561072c565b6084356001600160401b0381116104e25761244a903690600401610966565b50600754306001600160a01b03909116036109ee5760405163f23a6e6160e01b8152602090f35b346104e25760203660031901126104e25760043561248e8161072c565b6124966134c1565b6001600160a01b031680156124e857600e80546001600160a01b0319811683179091556001600160a01b03167f8be0079c531659141344cd1fd0a4f28419497f9722a3daafe3b4186f6b6457e05f80a3005b631e4fbdf760e01b5f525f60045260245ffd5b346104e25760203660031901126104e257600435604051632394e7a360e21b815260048101829052906020826024817f00000000000000000000000000000000000000000000000000000000000000006001600160a01b03165afa918215610db2575f92612591575b5061256e90612970565b9081810291818304149015171561258c576106689060649004610e9b565b612831565b61256e9192506125af9060203d602011610ddf57610dd181836108d4565b9190612564565b346104e2575f3660031901126104e2576040517f00000000000000000000000000000000000000000000000000000000000000006001600160a01b03168152602090f35b346104e25760603660031901126104e2576020612616366106ee565b63ffffffff81356126268161101c565b165f52600f82528160405f205491013560405191148152f35b90600182811c9216801561266d575b602083101461265957565b634e487b7160e01b5f52602260045260245ffd5b91607f169161264e565b5f92918154916126868361263f565b80835292600181169081156126db57506001146126a257505050565b5f9081526020812093945091925b8383106126c1575060209250010190565b6001816020929493945483858701015201910191906126b0565b915050602093945060ff929192191683830152151560051b010190565b356106118161101c565b6040513d5f823e3d90fd5b9392919063ffffffff7f000000000000000000000000000000000000000000000000000000000000000016804603610f97575061276961274f84848489613009565b5f908152600460205260409020546001600160a01b031690565b94336001600160a01b038716141580612811575b806127f3575b6127925761061194955061360d565b856127a561279f42612845565b82613070565b906127ef6127b260095490565b6040516308a4880b60e31b81523360048201526001600160a01b039093166024840152604483019390935260648201929092529081906084820190565b0390fd5b50601154612809906001600160a01b0316610bfd565b331415612783565b505f19420142811161258c576128279087613070565b600954111561277d565b634e487b7160e01b5f52601160045260245ffd5b5f1981019190821161258c57565b604051906128626020836108d4565b5f8252565b610611916040519161287a6020846108d4565b5f83523390613810565b939092919695611c706129259161291f8a61289e8161382d565b6128a936888a610930565b602081519101208b5160208d0120906040519260208401947f3e83946653575f9a39005e1545185629e92736b7528ab20ca3816f315424a81186528d604086015260ff8d16606086015260018060a01b0316608085015260a084015260c083015260e082015260e08152611c62610100826108d4565b8a61387f565b6129405761061195969161293a913691610930565b926139a8565b6394ab6c0760e01b5f526001600160a01b03871660045260245ffd5b634e487b7160e01b5f52603260045260245ffd5b600c54905f19820182811161258c57821115612a9357600c5f527fdf6966c971051c3d54ec59162606531493a51404a002842f56009d7e5cf4a8c682015465ffffffffffff8116821015612a8a57506129c890613bb0565b5f829160058411612a36575b6129de935061444d565b806129e857505f90565b612a2a612a236129fa61061193612845565b600c5f527fdf6966c971051c3d54ec59162606531493a51404a002842f56009d7e5cf4a8c70190565b5460301c90565b6001600160d01b031690565b9192612a41816142ef565b810390811161258c576129de93600c5f5265ffffffffffff8260205f2001541665ffffffffffff8516105f14612a785750916129d4565b929150612a8490613bdf565b906129d4565b91505060301c90565b61295c565b9390612b1e612af8979363ffffffff9793612b0a612b6197612ab86130ff565b612ac483828689613009565b9b8c94612ae6604051988997602089015260a0604089015260c0880190612f75565b868103601f1901606088015290611a80565b848103601f1901608086015290612fb1565b9060a083015203601f1981018352826108d4565b612b5a612b3f612b39612b32368787610930565b8489614588565b51613bed565b92612b486108f5565b9384525f602085015230943691610930565b90856146be565b5016907f56fd6890539d17e2b7a1a260eb3a205a9a381dcd8a38504cbbb1eb3a2c316ddb5f80a3565b92919033612b9d575b610611935f612c7f565b7f00000000000000000000000000000000000000000000000000000000000000006001600160a01b0316803b156104e2575f6040518092633e4986ef60e11b8252818381612bee3360048301610834565b03925af18015610db257612c6b575b50600d54612c13906001600160a01b0316610bfd565b93843b156104e2575f604051809663dae21dab60e01b8252818381612c3b3360048301610834565b03925af1948515610db25761061195612c57575b509350612b93565b80610da65f612c65936108d4565b5f612c4f565b80610da65f612c79936108d4565b5f612bfd565b5090919263ffffffff7f000000000000000000000000000000000000000000000000000000000000000016804603610f9757505f19420142811161258c57612cc79033613070565b6009549081811080612ec8575b612eaf575050612cec81516020830120858585613009565b938251845190818114801590612ea4575b8015612e9c575b612e7d57505065ffffffffffff612d35612d26875f52600460205260405f2090565b5460a01c65ffffffffffff1690565b16612e60577f7d84a6263ae0d98d3329bd7b46bb4e8d6f98cd35a7adb45c274c8b7fd5ebd5e0939291612e5a91612d9a612d6d613d1f565b65ffffffffffff612d93612d8865ffffffffffff600a541690565b65ffffffffffff1690565b9116613bfd565b612db8612daf63ffffffff600a5460301c1690565b63ffffffff1690565b91612e37612dce8a5f52600460205260405f2090565b80546001600160a01b03191633178155612e0e612dea85613bb0565b825465ffffffffffff60a01b191660a09190911b65ffffffffffff60a01b16178255565b612e17856147ba565b815463ffffffff60d01b191660d09190911b63ffffffff60d01b16179055565b612e4b612e448751613c0a565b9383613bfd565b92604051978897338c8a613c53565b0390a190565b611ca985612e6d81613500565b6331b75e4d60e01b5f5290613270565b9151630447b05d60e41b5f908152600493909352602452604452606490fd5b508015612d04565b508251811415612cfd565b6303554fd560e01b5f523360045260245260445260645ffd5b50335f90815260106020526040902054421015612cd4565b600754306001600160a01b03909116036109ee5763bc197c8160e01b90565b805f52600460205265ffffffffffff60405f205460a01c16905f52600460205263ffffffff60405f205460d01c160165ffffffffffff811161258c5765ffffffffffff1690565b3d15612f70573d90612f5782610915565b91612f6560405193846108d4565b82523d5f602084013e565b606090565b90602080835192838152019201905f5b818110612f925750505090565b82516001600160a01b0316845260209384019390920191600101612f85565b9080602083519182815201916020808360051b8301019401925f915b838310612fdc57505050505090565b9091929394602080612ffa600193601f1986820301875289516105dc565b97019301930191939290612fcd565b929061306a9161305661304494604051958694613032602087019960808b5260a0880190612f75565b868103601f1901604088015290611a80565b848103601f1901606086015290612fb1565b90608083015203601f1981018352826108d4565b51902090565b905f6040516130806020826108d4565b52604051630748d63560e31b81526001600160a01b039283166004820152602481019190915290602090829060449082907f0000000000000000000000000000000000000000000000000000000000000000165afa908115610db2575f916130e6575090565b610611915060203d602011610ddf57610dd181836108d4565b600754336001600160a01b039091160361316957600754306001600160a01b039091160361312957565b61313236610915565b61313f60405191826108d4565b3681526020810190365f83375f602036830101525190205b80613160613ead565b03613157575b50565b6347096e4760e01b5f523360045260245ffd5b63ffffffff16805f52600f60205260405f205490811561319a575090565b63f6ff4fb760e01b5f5260045260245ffd5b909182019160a0818403126104e257803560208201356001600160401b0381116104e257846131dc918401610a14565b60408301356001600160401b0381116104e257856131fb918501610a7b565b916060840135956001600160401b0387116104e257613232608061322963ffffffff936131669a8901610ad8565b960135966126f8565b16817f30d15b7e92a81e472f6ba5aff0c0a81b2f409d1af0e92aa0e20d98ba24f98b415f80a3613f19565b600881101561112f5760ff600191161b90565b60045260649190600881101561112f576024525f604452565b61329281613500565b90601061329e8361325d565b16156132a8575090565b6331b75e4d60e01b5f526004526132bf9150611134565b601060445260645ffd5b6132d281613500565b9060026132de8361325d565b16156132e8575090565b6331b75e4d60e01b5f526004526132ff9150611134565b600260445260645ffd5b9061331382613500565b918161331e8461325d565b161561332957505090565b6331b75e4d60e01b5f5260045261333f82611134565b60445260645ffd5b8051821015612a935760209160051b010190565b9392909161336b82828588613009565b9260209561337d602060101786613309565b506133a6613393865f52600460205260405f2090565b805460ff60f01b1916600160f01b179055565b6007546133bb906001600160a01b0316610bfd565b306001600160a01b0390911603613456575b846133da959697506149cd565b60075430906133f390610bfd906001600160a01b031681565b14158061343b575b613432575b6040518181527f712ae1383f79ac853f8d882153778e0260ef8f03b504e2866e0593e04d2b291f908060208101612e5a565b5f600555613400565b506005546001600160801b03811660809190911c14156133fb565b925f95929491955b84518110156134b25760019030613488610bfd61347b848a613347565b516001600160a01b031690565b14613494575b0161345e565b6134ad6134a18289613347565b518a8151910120614039565b61348e565b509195508594909391926133cd565b600e546001600160a01b031633036134d557565b63118cdaa760e01b5f523360045260245ffd5b908160209103126104e2575180151581036104e25790565b6135098161409f565b9061351382611125565b600582036136095761352e91505f52600860205260405f2090565b54600754613544906001600160a01b0316610bfd565b604051632c258a9f60e11b815260048101839052602081602481855afa908115610db2575f916135ea575b501561357c575050600590565b604051632ab0f52960e01b81526004810192909252602090829060249082905afa908115610db2575f916135bb575b50156135b657600790565b600290565b6135dd915060203d6020116135e3575b6135d581836108d4565b8101906134e8565b5f6135ab565b503d6135cb565b613603915060203d6020116135e3576135d581836108d4565b5f61356f565b5090565b90613619939291613009565b613624603b82613309565b5061364f61363a825f52600460205260405f2090565b80546001600160f81b0316600160f81b179055565b6040518181527f789cf55be980739dad1d0699b93b58e806b51c9d96619bfa8fe0a28abaa7b30c90602090a161368d815f52600860205260405f2090565b5480613697575090565b6007546136ac906001600160a01b0316610bfd565b803b156104e25760405163c4d252f560e01b815260048101929092525f908290602490829084905af18015610db2576136f2575b505f8181526008602052604081205590565b80610da65f613700936108d4565b5f6136e0565b604051906137156040836108d4565b601d82527f6d6f64653d626c6f636b6e756d6265722666726f6d3d64656661756c740000006020830152565b604051634bf5d7e960e01b81525f816004817f00000000000000000000000000000000000000000000000000000000000000006001600160a01b03165afa5f9181613795575b506106115750610611613706565b9091503d805f833e6137a781836108d4565b8101906020818303126104e2578051906001600160401b0382116104e2570181601f820112156104e2578051906137dd82610915565b926137eb60405194856108d4565b828452602083830101116104e257815f9260208093018386015e83010152905f613787565b916106119391604051936138256020866108d4565b5f85526139a8565b6001600160a01b03165f90815260026020526040902080546001810190915590565b60429061385a61419f565b906040519161190160f01b8352600283015260228201522090565b6004111561112f57565b9190823b6138ba5790613891916142b5565b5061389b81613875565b1591826138a757505090565b6001600160a01b03918216911614919050565b915f926138f06138fe85946040519283916020830195630b135d3f60e11b875260248401526040604484015260648301906105dc565b03601f1981018352826108d4565b51915afa61390a612f46565b8161393a575b81613919575090565b9050613936630b135d3f60e11b9160208082518301019101613db2565b1490565b905060208151101590613910565b93909260ff6139749361061197958752166020860152604085015260a0606085015260a08401906105dc565b9160808184039101526105dc565b909260ff60809361061196958452166020830152604082015281606082015201906105dc565b9291906139b4846132c9565b50835f5260046020526139d865ffffffffffff8060405f205460a01c161682613dc1565b506040516309ab24eb60e41b81526001600160a01b038281166004830152909590602090879060249082907f0000000000000000000000000000000000000000000000000000000000000000165afa958615610db2575f96613b8f575b50613a48855f52600b60205260405f2090565b6001600160a01b0383165f90815260038201602081905260409091205460ff16613b73576001600160a01b0384165f90815260209190915260409020613a9590805460ff19166001179055565b60ff841680613b315750613aaa878254613bfd565b90555b8051613af55750613aef7fb8e138887d0aa13bab447e82de9d5c1777041ecd21ca36ba824ff1e6c07ddda4938660405194859460018060a01b03169785613982565b0390a290565b613aef907fe2babfbac5889a709b63bb7f598b324e08bc5a4fb9ec647fb3cbc9ec07eb8712948760405195869560018060a01b03169886613948565b60018103613b4f5750600101613b48878254613bfd565b9055613aad565b600203613b6457600201613b48878254613bfd565b6303599be160e11b5f5260045ffd5b6371c6af4960e01b5f526001600160a01b03841660045260245ffd5b613ba991965060203d602011610ddf57610dd181836108d4565b945f613a35565b65ffffffffffff8111613bc85765ffffffffffff1690565b6306dfcc6560e41b5f52603060045260245260445ffd5b906001820180921161258c57565b90620186a0820180921161258c57565b9190820180921161258c57565b90613c14826109fd565b613c2160405191826108d4565b8281528092613c32601f19916109fd565b01905f5b828110613c4257505050565b806060602080938501015201613c36565b959998969794939192613c9493613c8692885260018060a01b031660208801526101206040880152610120870190612f75565b908582036060870152611a80565b968388036080850152815180895260208901906020808260051b8c01019401915f905b828210613cf3575050505061061196975090613cda9184820360a0860152612fb1565b9360c083015260e08201526101008184039101526105dc565b90919294602080613d116001938f601f1990820301865289516105dc565b970192019201909291613cb7565b6040516324776b7d60e21b81526020816004817f00000000000000000000000000000000000000000000000000000000000000006001600160a01b03165afa5f9181613d75575b50610611575061061143613bb0565b9091506020813d602011613daa575b81613d91602093836108d4565b810103126104e25751613da3816117b1565b905f613d66565b3d9150613d84565b908160209103126104e2575190565b604051630748d63560e31b81526001600160a01b0391821660048201526024810192909252602090829060449082907f0000000000000000000000000000000000000000000000000000000000000000165afa908115610db2575f916130e6575090565b600c5480613e3257505f90565b805f1981011161258c57600c5f527fdf6966c971051c3d54ec59162606531493a51404a002842f56009d7e5cf4a8c6015460301c90565b9091906109045750805115613e8057805190602001fd5b63d6bda27560e01b5f5260045ffd5b8115613e99570490565b634e487b7160e01b5f52601260045260245ffd5b6005546001600160801b038116919060801c8214613f07575f82815260066020526040808220546001600160801b03808616845291832092909255600580546001600160801b031916600190950190911693909317909255565b634e487b715f5260316020526024601cfd5b93509091935f5b8251811015613f7557600190613f6e5f806001600160a01b03613f438589613347565b5116613f4f858a613347565b5190613f5b868d613347565b5191602083519301915af1612079612f46565b5001613f20565b50935050507f712ae1383f79ac853f8d882153778e0260ef8f03b504e2866e0593e04d2b291f6020604051838152a190565b949392613fd3608093613fc5613fe19460a08a5260a08a0190612f75565b9088820360208a0152611a80565b908682036040880152612fb1565b935f60608201520152565b919261401b60a09461400d614029949998979960c0875260c0870190612f75565b908582036020870152611a80565b908382036040850152612fb1565b945f606083015260808201520152565b6005546001608082901c9081016001600160801b03908116939216831461408d575f90815260066020526040902055600580546001600160801b031660809290921b6001600160801b031916919091179055565b634e487b715f5260416020526024601cfd5b6140b1815f52600460205260405f2090565b5460f881901c9060f01c60ff1661419857614192576140de612d88612d26835f52600460205260405f2090565b801561417e576140ef612d88613d1f565b809110156141785761410082612eff565b1061410b5750600190565b614117611c7082614a59565b8015614155575b156141295750600390565b614147905f52600460205265ffffffffffff600160405f2001541690565b61415057600490565b600590565b50614173611c70825f52600b60205260405f20600181015490541090565b61411e565b50505f90565b636ad0607560e01b5f52600482905260245ffd5b50600290565b5050600790565b307f00000000000000000000000000000000000000000000000000000000000000006001600160a01b0316148061428c575b156141fa577f000000000000000000000000000000000000000000000000000000000000000090565b60405160208101907f8b73c3c69bb8fe3d512ecc4cf759cc79239f7b179b0ffacaa9a75d522b39400f82527f000000000000000000000000000000000000000000000000000000000000000060408201527f000000000000000000000000000000000000000000000000000000000000000060608201524660808201523060a082015260a0815261306a60c0826108d4565b507f000000000000000000000000000000000000000000000000000000000000000046146141d1565b81519190604183036142e5576142de9250602082015190606060408401519301515f1a90614b2e565b9192909190565b50505f9160029190565b600181111561061157806001600160801b821015614410575b6143b66143ac6143a261439861438e6143846143736143bd9760046143c29a600160401b811015614403575b6401000000008110156143f6575b620100008110156143e9575b6101008110156143dc575b60108110156143cf575b10156143c7575b60030260011c90565b61437d818b613e8f565b0160011c90565b61437d818a613e8f565b61437d8189613e8f565b61437d8188613e8f565b61437d8187613e8f565b61437d8186613e8f565b8093613e8f565b821190565b900390565b60011b61436a565b60041c9160021b91614363565b60081c9160041b91614359565b60101c9160081b9161434e565b60201c9160101b91614342565b60401c9160201b91614334565b50506143c26143bd6143b66143ac6143a261439861438e6143846143736144378a60801c90565b9850600160401b97506143089650505050505050565b905b82811061445b57505090565b90918082169080831860011c820180921161258c57600c5f527fdf6966c971051c3d54ec59162606531493a51404a002842f56009d7e5cf4a8c782015465ffffffffffff90811690851610156144b45750915b9061444f565b9291506144c090613bdf565b906144ae565b604051906144d382610899565b5f6020838281520152565b91908260409103126104e2576040516144f681610899565b6020808294805184520151910152565b906040828203126104e257610611916144de565b906020909392936040835263ffffffff8151166040840152818101516060840152608061456e614558604084015160a08488015260e08701906105dc565b6060840151868203603f190160a08801526105dc565b910151151560c08401526001600160a01b03909416910152565b6145e7926040926145976144c6565b506145a18361317c565b6145b86145ac610906565b63ffffffff9095168552565b60208401528383015260608201525f6080820152815180938192631bb8518b60e31b835230906004840161451a565b03817f00000000000000000000000000000000000000000000000000000000000000006001600160a01b03165afa908115610db2575f91614626575090565b610611915060403d604011614648575b61464081836108d4565b810190614506565b503d614636565b6040519061465c826108b9565b815f81525f602082015260406146706144c6565b910152565b6080818303126104e2576040519161468c836108b9565b8151835260208201516001600160401b03811681036104e25760208401526146b6916040016144de565b604082015290565b6147276080949261474396946146d261464f565b5060206146df8651614ba6565b9501918251806147ab575b506146f48561317c565b9251151592614710614704610906565b63ffffffff9097168752565b602086015260408501526060840152151585830152565b6040518095819482936302637a4560e41b84526004840161451a565b03917f00000000000000000000000000000000000000000000000000000000000000006001600160a01b03165af1908115610db2575f91614782575090565b610611915060803d6080116147a4575b61479c81836108d4565b810190614675565b503d614792565b6147b490614bc3565b5f6146ea565b63ffffffff81116147ce5763ffffffff1690565b6306dfcc6560e41b5f52602060045260245260445ffd5b60ff811461482b5760ff811690601f821161481c57604051916148096040846108d4565b6020808452838101919036833783525290565b632cd44ac360e21b5f5260045ffd5b506040516106118161483d815f612677565b03826108d4565b60ff81146148685760ff811690601f821161481c57604051916148096040846108d4565b506040516106118161483d816001612677565b908154600160401b8110156108b45760018101808455811015612a9357610904925f5260205f2001906148cb65ffffffffffff825116839065ffffffffffff1665ffffffffffff19825416179055565b60200151815465ffffffffffff1660309190911b65ffffffffffff1916179055565b600c5491929180156149a4576129fa61490591612845565b90815461492161491a8265ffffffffffff1690565b9160301c90565b9265ffffffffffff8084169216918083116149955786920361495f5761495b92509065ffffffffffff82549181199060301b169116179055565b9190565b505061495b9061497e6149706108f5565b65ffffffffffff9092168252565b6001600160d01b03851660208201525b600c61487b565b632520601d60e01b5f5260045ffd5b506149c8906149b46149706108f5565b6001600160d01b038416602082015261498e565b5f9190565b6007549094919391926001600160a01b0390911690813b156104e25760405163e38335e560e01b8152945f94869485938493614a1e933060601b6001600160601b0319161892919060048601613fa7565b039134905af18015610db257614a40575b505f90815260086020526040812055565b80614a4c5f80936108d4565b8003126104e2575f614a2f565b805f52600b60205260405f20905f52600460205265ffffffffffff60405f205460a01c1660405190632394e7a360e21b825280600483015260208260248160018060a01b037f0000000000000000000000000000000000000000000000000000000000000000165afa918215610db2575f92614b09575b50614ada90612970565b9081810291818304149015171561258c57614b049060649004916002600182015491015490613bfd565b101590565b614ada919250614b279060203d602011610ddf57610dd181836108d4565b9190614ad0565b91906fa2a8918ca85bafe22016d0b997e4df60600160ff1b038411614b9b579160209360809260ff5f9560405194855216868401526040830152606082015282805260015afa15610db2575f516001600160a01b03811615614b9157905f905f90565b505f906001905f90565b5050505f9160039190565b804710614bb05790565b476304fb820960e51b5f5260045260245ffd5b60405163393f876560e21b81527f00000000000000000000000000000000000000000000000000000000000000006001600160a01b03169190602081600481865afa908115610db2575f91614c3e575b506001600160a01b0316918215614c2f57610904923390614c79565b6329b99a9560e11b5f5260045ffd5b90506020813d602011614c71575b81614c59602093836108d4565b810103126104e25751614c6b8161072c565b5f614c13565b3d9150614c4c565b6040516323b872dd60e01b60208083019182526001600160a01b039485166024840152949093166044820152606480820195909552938452925f9190614cc06084826108d4565b519082855af115612702575f513d614d0757506001600160a01b0381163b155b614ce75750565b635274afe760e01b5f9081526001600160a01b0391909116600452602490fd5b60011415614ce056fea26469706673582212203eab7a86fa198974d48ab982922b59ca2015dc7c55c8fdab61a53b711a42590b64736f6c634300081c00330553476bf02ef2726e8ce5ced78d63e26e602e4a2257b1f559418e24b4633997",
  "linkReferences": {},
  "deployedLinkReferences": {}
}