{
  "_format": "hh-sol-artifact-1",
  "contractName": "SummerToken",
  "sourceName": "src/contracts/SummerToken.sol",
  "abi": [
    {
      "inputs": [
        {
          "components": [
            {
              "internalType": "string",
              "name": "name",
              "type": "string"
            },
            {
              "internalType": "string",
              "name": "symbol",
              "type": "string"
            },
            {
              "internalType": "address",
              "name": "lzEndpoint",
              "type": "address"
            },
            {
              "internalType": "address",
              "name": "owner",
              "type": "address"
            },
            {
              "internalType": "address",
              "name": "accessManager",
              "type": "address"
            },
            {
              "internalType": "uint40",
              "name": "initialDecayFreeWindow",
              "type": "uint40"
            },
            {
              "internalType": "uint256",
              "name": "initialDecayRate",
              "type": "uint256"
            },
            {
              "internalType": "enum VotingDecayLibrary.DecayFunction",
              "name": "initialDecayFunction",
              "type": "uint8"
            },
            {
              "internalType": "uint256",
              "name": "transferEnableDate",
              "type": "uint256"
            },
            {
              "internalType": "uint256",
              "name": "maxSupply",
              "type": "uint256"
            },
            {
              "internalType": "uint256",
              "name": "initialSupply",
              "type": "uint256"
            }
          ],
          "internalType": "struct ISummerToken.TokenParams",
          "name": "params",
          "type": "tuple"
        }
      ],
      "stateMutability": "nonpayable",
      "type": "constructor"
    },
    {
      "inputs": [],
      "name": "AccountNotInitialized",
      "type": "error"
    },
    {
      "inputs": [
        {
          "internalType": "address",
          "name": "caller",
          "type": "address"
        }
      ],
      "name": "CallerIsNotAdmin",
      "type": "error"
    },
    {
      "inputs": [
        {
          "internalType": "address",
          "name": "caller",
          "type": "address"
        }
      ],
      "name": "CallerIsNotAuthorized",
      "type": "error"
    },
    {
      "inputs": [
        {
          "internalType": "address",
          "name": "caller",
          "type": "address"
        }
      ],
      "name": "CallerIsNotAuthorizedToBoard",
      "type": "error"
    },
    {
      "inputs": [
        {
          "internalType": "address",
          "name": "caller",
          "type": "address"
        }
      ],
      "name": "CallerIsNotCommander",
      "type": "error"
    },
    {
      "inputs": [
        {
          "internalType": "address",
          "name": "caller",
          "type": "address"
        },
        {
          "internalType": "bytes32",
          "name": "role",
          "type": "bytes32"
        }
      ],
      "name": "CallerIsNotContractSpecificRole",
      "type": "error"
    },
    {
      "inputs": [
        {
          "internalType": "address",
          "name": "caller",
          "type": "address"
        }
      ],
      "name": "CallerIsNotCurator",
      "type": "error"
    },
    {
      "inputs": [
        {
          "internalType": "address",
          "name": "caller",
          "type": "address"
        }
      ],
      "name": "CallerIsNotDecayController",
      "type": "error"
    },
    {
      "inputs": [
        {
          "internalType": "address",
          "name": "caller",
          "type": "address"
        }
      ],
      "name": "CallerIsNotDecayManager",
      "type": "error"
    },
    {
      "inputs": [
        {
          "internalType": "address",
          "name": "caller",
          "type": "address"
        }
      ],
      "name": "CallerIsNotGovernor",
      "type": "error"
    },
    {
      "inputs": [
        {
          "internalType": "address",
          "name": "caller",
          "type": "address"
        }
      ],
      "name": "CallerIsNotGuardian",
      "type": "error"
    },
    {
      "inputs": [
        {
          "internalType": "address",
          "name": "caller",
          "type": "address"
        }
      ],
      "name": "CallerIsNotGuardianOrGovernor",
      "type": "error"
    },
    {
      "inputs": [
        {
          "internalType": "address",
          "name": "caller",
          "type": "address"
        }
      ],
      "name": "CallerIsNotKeeper",
      "type": "error"
    },
    {
      "inputs": [
        {
          "internalType": "address",
          "name": "caller",
          "type": "address"
        }
      ],
      "name": "CallerIsNotRaft",
      "type": "error"
    },
    {
      "inputs": [
        {
          "internalType": "address",
          "name": "caller",
          "type": "address"
        }
      ],
      "name": "CallerIsNotRaftOrCommander",
      "type": "error"
    },
    {
      "inputs": [
        {
          "internalType": "address",
          "name": "caller",
          "type": "address"
        }
      ],
      "name": "CallerIsNotSuperKeeper",
      "type": "error"
    },
    {
      "inputs": [],
      "name": "CheckpointUnorderedInsertion",
      "type": "error"
    },
    {
      "inputs": [],
      "name": "DecayController__RewardsManagerAlreadySet",
      "type": "error"
    },
    {
      "inputs": [],
      "name": "DecayController__ZeroAddress",
      "type": "error"
    },
    {
      "inputs": [
        {
          "internalType": "address",
          "name": "caller",
          "type": "address"
        }
      ],
      "name": "DirectGrantIsDisabled",
      "type": "error"
    },
    {
      "inputs": [
        {
          "internalType": "address",
          "name": "caller",
          "type": "address"
        }
      ],
      "name": "DirectRevokeIsDisabled",
      "type": "error"
    },
    {
      "inputs": [],
      "name": "ECDSAInvalidSignature",
      "type": "error"
    },
    {
      "inputs": [
        {
          "internalType": "uint256",
          "name": "length",
          "type": "uint256"
        }
      ],
      "name": "ECDSAInvalidSignatureLength",
      "type": "error"
    },
    {
      "inputs": [
        {
          "internalType": "bytes32",
          "name": "s",
          "type": "bytes32"
        }
      ],
      "name": "ECDSAInvalidSignatureS",
      "type": "error"
    },
    {
      "inputs": [
        {
          "internalType": "uint256",
          "name": "increasedSupply",
          "type": "uint256"
        },
        {
          "internalType": "uint256",
          "name": "cap",
          "type": "uint256"
        }
      ],
      "name": "ERC20ExceededCap",
      "type": "error"
    },
    {
      "inputs": [
        {
          "internalType": "uint256",
          "name": "increasedSupply",
          "type": "uint256"
        },
        {
          "internalType": "uint256",
          "name": "cap",
          "type": "uint256"
        }
      ],
      "name": "ERC20ExceededSafeSupply",
      "type": "error"
    },
    {
      "inputs": [
        {
          "internalType": "address",
          "name": "spender",
          "type": "address"
        },
        {
          "internalType": "uint256",
          "name": "allowance",
          "type": "uint256"
        },
        {
          "internalType": "uint256",
          "name": "needed",
          "type": "uint256"
        }
      ],
      "name": "ERC20InsufficientAllowance",
      "type": "error"
    },
    {
      "inputs": [
        {
          "internalType": "address",
          "name": "sender",
          "type": "address"
        },
        {
          "internalType": "uint256",
          "name": "balance",
          "type": "uint256"
        },
        {
          "internalType": "uint256",
          "name": "needed",
          "type": "uint256"
        }
      ],
      "name": "ERC20InsufficientBalance",
      "type": "error"
    },
    {
      "inputs": [
        {
          "internalType": "address",
          "name": "approver",
          "type": "address"
        }
      ],
      "name": "ERC20InvalidApprover",
      "type": "error"
    },
    {
      "inputs": [
        {
          "internalType": "uint256",
          "name": "cap",
          "type": "uint256"
        }
      ],
      "name": "ERC20InvalidCap",
      "type": "error"
    },
    {
      "inputs": [
        {
          "internalType": "address",
          "name": "receiver",
          "type": "address"
        }
      ],
      "name": "ERC20InvalidReceiver",
      "type": "error"
    },
    {
      "inputs": [
        {
          "internalType": "address",
          "name": "sender",
          "type": "address"
        }
      ],
      "name": "ERC20InvalidSender",
      "type": "error"
    },
    {
      "inputs": [
        {
          "internalType": "address",
          "name": "spender",
          "type": "address"
        }
      ],
      "name": "ERC20InvalidSpender",
      "type": "error"
    },
    {
      "inputs": [
        {
          "internalType": "uint256",
          "name": "deadline",
          "type": "uint256"
        }
      ],
      "name": "ERC2612ExpiredSignature",
      "type": "error"
    },
    {
      "inputs": [
        {
          "internalType": "address",
          "name": "signer",
          "type": "address"
        },
        {
          "internalType": "address",
          "name": "owner",
          "type": "address"
        }
      ],
      "name": "ERC2612InvalidSigner",
      "type": "error"
    },
    {
      "inputs": [
        {
          "internalType": "uint256",
          "name": "timepoint",
          "type": "uint256"
        },
        {
          "internalType": "uint48",
          "name": "clock",
          "type": "uint48"
        }
      ],
      "name": "ERC5805FutureLookup",
      "type": "error"
    },
    {
      "inputs": [],
      "name": "ERC6372InconsistentClock",
      "type": "error"
    },
    {
      "inputs": [
        {
          "internalType": "address",
          "name": "invalidAddress",
          "type": "address"
        }
      ],
      "name": "InvalidAccessManagerAddress",
      "type": "error"
    },
    {
      "inputs": [
        {
          "internalType": "address",
          "name": "account",
          "type": "address"
        },
        {
          "internalType": "uint256",
          "name": "currentNonce",
          "type": "uint256"
        }
      ],
      "name": "InvalidAccountNonce",
      "type": "error"
    },
    {
      "inputs": [],
      "name": "InvalidDecayRate",
      "type": "error"
    },
    {
      "inputs": [],
      "name": "InvalidDecayType",
      "type": "error"
    },
    {
      "inputs": [],
      "name": "InvalidDelegate",
      "type": "error"
    },
    {
      "inputs": [],
      "name": "InvalidEndpointCall",
      "type": "error"
    },
    {
      "inputs": [],
      "name": "InvalidLocalDecimals",
      "type": "error"
    },
    {
      "inputs": [
        {
          "internalType": "bytes",
          "name": "options",
          "type": "bytes"
        }
      ],
      "name": "InvalidOptions",
      "type": "error"
    },
    {
      "inputs": [],
      "name": "InvalidShortString",
      "type": "error"
    },
    {
      "inputs": [
        {
          "internalType": "enum ISummerVestingWallet.VestingType",
          "name": "invalidType",
          "type": "uint8"
        }
      ],
      "name": "InvalidVestingType",
      "type": "error"
    },
    {
      "inputs": [],
      "name": "LzTokenUnavailable",
      "type": "error"
    },
    {
      "inputs": [
        {
          "internalType": "uint32",
          "name": "eid",
          "type": "uint32"
        }
      ],
      "name": "NoPeer",
      "type": "error"
    },
    {
      "inputs": [
        {
          "internalType": "uint256",
          "name": "msgValue",
          "type": "uint256"
        }
      ],
      "name": "NotEnoughNative",
      "type": "error"
    },
    {
      "inputs": [
        {
          "internalType": "address",
          "name": "addr",
          "type": "address"
        }
      ],
      "name": "OnlyEndpoint",
      "type": "error"
    },
    {
      "inputs": [
        {
          "internalType": "uint32",
          "name": "eid",
          "type": "uint32"
        },
        {
          "internalType": "bytes32",
          "name": "sender",
          "type": "bytes32"
        }
      ],
      "name": "OnlyPeer",
      "type": "error"
    },
    {
      "inputs": [],
      "name": "OnlySelf",
      "type": "error"
    },
    {
      "inputs": [
        {
          "internalType": "address",
          "name": "owner",
          "type": "address"
        }
      ],
      "name": "OwnableInvalidOwner",
      "type": "error"
    },
    {
      "inputs": [
        {
          "internalType": "address",
          "name": "account",
          "type": "address"
        }
      ],
      "name": "OwnableUnauthorizedAccount",
      "type": "error"
    },
    {
      "inputs": [
        {
          "internalType": "uint256",
          "name": "x",
          "type": "uint256"
        },
        {
          "internalType": "uint256",
          "name": "y",
          "type": "uint256"
        }
      ],
      "name": "PRBMath_MulDiv18_Overflow",
      "type": "error"
    },
    {
      "inputs": [
        {
          "internalType": "uint256",
          "name": "x",
          "type": "uint256"
        },
        {
          "internalType": "uint256",
          "name": "y",
          "type": "uint256"
        },
        {
          "internalType": "uint256",
          "name": "denominator",
          "type": "uint256"
        }
      ],
      "name": "PRBMath_MulDiv_Overflow",
      "type": "error"
    },
    {
      "inputs": [
        {
          "internalType": "uint8",
          "name": "bits",
          "type": "uint8"
        },
        {
          "internalType": "uint256",
          "name": "value",
          "type": "uint256"
        }
      ],
      "name": "SafeCastOverflowedUintDowncast",
      "type": "error"
    },
    {
      "inputs": [
        {
          "internalType": "address",
          "name": "token",
          "type": "address"
        }
      ],
      "name": "SafeERC20FailedOperation",
      "type": "error"
    },
    {
      "inputs": [
        {
          "internalType": "bytes",
          "name": "result",
          "type": "bytes"
        }
      ],
      "name": "SimulationResult",
      "type": "error"
    },
    {
      "inputs": [
        {
          "internalType": "uint256",
          "name": "amountLD",
          "type": "uint256"
        },
        {
          "internalType": "uint256",
          "name": "minAmountLD",
          "type": "uint256"
        }
      ],
      "name": "SlippageExceeded",
      "type": "error"
    },
    {
      "inputs": [
        {
          "internalType": "string",
          "name": "str",
          "type": "string"
        }
      ],
      "name": "StringTooLong",
      "type": "error"
    },
    {
      "inputs": [],
      "name": "TransferNotAllowed",
      "type": "error"
    },
    {
      "inputs": [],
      "name": "TransfersAlreadyEnabled",
      "type": "error"
    },
    {
      "inputs": [],
      "name": "TransfersCannotBeEnabledYet",
      "type": "error"
    },
    {
      "inputs": [
        {
          "internalType": "uint256",
          "name": "expiry",
          "type": "uint256"
        }
      ],
      "name": "VotesExpiredSignature",
      "type": "error"
    },
    {
      "anonymous": false,
      "inputs": [
        {
          "indexed": false,
          "internalType": "address",
          "name": "account",
          "type": "address"
        }
      ],
      "name": "AccountInitialized",
      "type": "event"
    },
    {
      "anonymous": false,
      "inputs": [
        {
          "indexed": true,
          "internalType": "address",
          "name": "account",
          "type": "address"
        }
      ],
      "name": "AddressRemovedFromWhitelist",
      "type": "event"
    },
    {
      "anonymous": false,
      "inputs": [
        {
          "indexed": true,
          "internalType": "address",
          "name": "account",
          "type": "address"
        }
      ],
      "name": "AddressWhitelisted",
      "type": "event"
    },
    {
      "anonymous": false,
      "inputs": [
        {
          "indexed": true,
          "internalType": "address",
          "name": "owner",
          "type": "address"
        },
        {
          "indexed": true,
          "internalType": "address",
          "name": "spender",
          "type": "address"
        },
        {
          "indexed": false,
          "internalType": "uint256",
          "name": "value",
          "type": "uint256"
        }
      ],
      "name": "Approval",
      "type": "event"
    },
    {
      "anonymous": false,
      "inputs": [
        {
          "indexed": false,
          "internalType": "uint40",
          "name": "newWindow",
          "type": "uint40"
        }
      ],
      "name": "DecayFreeWindowSet",
      "type": "event"
    },
    {
      "anonymous": false,
      "inputs": [
        {
          "indexed": false,
          "internalType": "uint8",
          "name": "newFunction",
          "type": "uint8"
        }
      ],
      "name": "DecayFunctionSet",
      "type": "event"
    },
    {
      "anonymous": false,
      "inputs": [
        {
          "indexed": false,
          "internalType": "uint256",
          "name": "newRate",
          "type": "uint256"
        }
      ],
      "name": "DecayRateSet",
      "type": "event"
    },
    {
      "anonymous": false,
      "inputs": [
        {
          "indexed": false,
          "internalType": "address",
          "name": "account",
          "type": "address"
        },
        {
          "indexed": false,
          "internalType": "uint256",
          "name": "newDecayFactor",
          "type": "uint256"
        }
      ],
      "name": "DecayUpdated",
      "type": "event"
    },
    {
      "anonymous": false,
      "inputs": [
        {
          "indexed": true,
          "internalType": "address",
          "name": "delegator",
          "type": "address"
        },
        {
          "indexed": true,
          "internalType": "address",
          "name": "fromDelegate",
          "type": "address"
        },
        {
          "indexed": true,
          "internalType": "address",
          "name": "toDelegate",
          "type": "address"
        }
      ],
      "name": "DelegateChanged",
      "type": "event"
    },
    {
      "anonymous": false,
      "inputs": [
        {
          "indexed": true,
          "internalType": "address",
          "name": "delegate",
          "type": "address"
        },
        {
          "indexed": false,
          "internalType": "uint256",
          "name": "previousVotes",
          "type": "uint256"
        },
        {
          "indexed": false,
          "internalType": "uint256",
          "name": "newVotes",
          "type": "uint256"
        }
      ],
      "name": "DelegateVotesChanged",
      "type": "event"
    },
    {
      "anonymous": false,
      "inputs": [],
      "name": "EIP712DomainChanged",
      "type": "event"
    },
    {
      "anonymous": false,
      "inputs": [
        {
          "components": [
            {
              "internalType": "uint32",
              "name": "eid",
              "type": "uint32"
            },
            {
              "internalType": "uint16",
              "name": "msgType",
              "type": "uint16"
            },
            {
              "internalType": "bytes",
              "name": "options",
              "type": "bytes"
            }
          ],
          "indexed": false,
          "internalType": "struct EnforcedOptionParam[]",
          "name": "_enforcedOptions",
          "type": "tuple[]"
        }
      ],
      "name": "EnforcedOptionSet",
      "type": "event"
    },
    {
      "anonymous": false,
      "inputs": [
        {
          "indexed": false,
          "internalType": "address",
          "name": "inspector",
          "type": "address"
        }
      ],
      "name": "MsgInspectorSet",
      "type": "event"
    },
    {
      "anonymous": false,
      "inputs": [
        {
          "indexed": true,
          "internalType": "bytes32",
          "name": "guid",
          "type": "bytes32"
        },
        {
          "indexed": false,
          "internalType": "uint32",
          "name": "srcEid",
          "type": "uint32"
        },
        {
          "indexed": true,
          "internalType": "address",
          "name": "toAddress",
          "type": "address"
        },
        {
          "indexed": false,
          "internalType": "uint256",
          "name": "amountReceivedLD",
          "type": "uint256"
        }
      ],
      "name": "OFTReceived",
      "type": "event"
    },
    {
      "anonymous": false,
      "inputs": [
        {
          "indexed": true,
          "internalType": "bytes32",
          "name": "guid",
          "type": "bytes32"
        },
        {
          "indexed": false,
          "internalType": "uint32",
          "name": "dstEid",
          "type": "uint32"
        },
        {
          "indexed": true,
          "internalType": "address",
          "name": "fromAddress",
          "type": "address"
        },
        {
          "indexed": false,
          "internalType": "uint256",
          "name": "amountSentLD",
          "type": "uint256"
        },
        {
          "indexed": false,
          "internalType": "uint256",
          "name": "amountReceivedLD",
          "type": "uint256"
        }
      ],
      "name": "OFTSent",
      "type": "event"
    },
    {
      "anonymous": false,
      "inputs": [
        {
          "indexed": true,
          "internalType": "address",
          "name": "previousOwner",
          "type": "address"
        },
        {
          "indexed": true,
          "internalType": "address",
          "name": "newOwner",
          "type": "address"
        }
      ],
      "name": "OwnershipTransferred",
      "type": "event"
    },
    {
      "anonymous": false,
      "inputs": [
        {
          "indexed": false,
          "internalType": "uint32",
          "name": "eid",
          "type": "uint32"
        },
        {
          "indexed": false,
          "internalType": "bytes32",
          "name": "peer",
          "type": "bytes32"
        }
      ],
      "name": "PeerSet",
      "type": "event"
    },
    {
      "anonymous": false,
      "inputs": [
        {
          "indexed": false,
          "internalType": "address",
          "name": "preCrimeAddress",
          "type": "address"
        }
      ],
      "name": "PreCrimeSet",
      "type": "event"
    },
    {
      "anonymous": false,
      "inputs": [
        {
          "indexed": true,
          "internalType": "address",
          "name": "from",
          "type": "address"
        },
        {
          "indexed": true,
          "internalType": "address",
          "name": "to",
          "type": "address"
        },
        {
          "indexed": false,
          "internalType": "uint256",
          "name": "value",
          "type": "uint256"
        }
      ],
      "name": "Transfer",
      "type": "event"
    },
    {
      "anonymous": false,
      "inputs": [],
      "name": "TransfersEnabled",
      "type": "event"
    },
    {
      "inputs": [],
      "name": "CLOCK_MODE",
      "outputs": [
        {
          "internalType": "string",
          "name": "",
          "type": "string"
        }
      ],
      "stateMutability": "pure",
      "type": "function"
    },
    {
      "inputs": [],
      "name": "DOMAIN_SEPARATOR",
      "outputs": [
        {
          "internalType": "bytes32",
          "name": "",
          "type": "bytes32"
        }
      ],
      "stateMutability": "view",
      "type": "function"
    },
    {
      "inputs": [],
      "name": "SEND",
      "outputs": [
        {
          "internalType": "uint16",
          "name": "",
          "type": "uint16"
        }
      ],
      "stateMutability": "view",
      "type": "function"
    },
    {
      "inputs": [],
      "name": "SEND_AND_CALL",
      "outputs": [
        {
          "internalType": "uint16",
          "name": "",
          "type": "uint16"
        }
      ],
      "stateMutability": "view",
      "type": "function"
    },
    {
      "inputs": [
        {
          "internalType": "address",
          "name": "account",
          "type": "address"
        }
      ],
      "name": "addToWhitelist",
      "outputs": [],
      "stateMutability": "nonpayable",
      "type": "function"
    },
    {
      "inputs": [
        {
          "components": [
            {
              "internalType": "uint32",
              "name": "srcEid",
              "type": "uint32"
            },
            {
              "internalType": "bytes32",
              "name": "sender",
              "type": "bytes32"
            },
            {
              "internalType": "uint64",
              "name": "nonce",
              "type": "uint64"
            }
          ],
          "internalType": "struct Origin",
          "name": "origin",
          "type": "tuple"
        }
      ],
      "name": "allowInitializePath",
      "outputs": [
        {
          "internalType": "bool",
          "name": "",
          "type": "bool"
        }
      ],
      "stateMutability": "view",
      "type": "function"
    },
    {
      "inputs": [
        {
          "internalType": "address",
          "name": "owner",
          "type": "address"
        },
        {
          "internalType": "address",
          "name": "spender",
          "type": "address"
        }
      ],
      "name": "allowance",
      "outputs": [
        {
          "internalType": "uint256",
          "name": "",
          "type": "uint256"
        }
      ],
      "stateMutability": "view",
      "type": "function"
    },
    {
      "inputs": [],
      "name": "approvalRequired",
      "outputs": [
        {
          "internalType": "bool",
          "name": "",
          "type": "bool"
        }
      ],
      "stateMutability": "pure",
      "type": "function"
    },
    {
      "inputs": [
        {
          "internalType": "address",
          "name": "spender",
          "type": "address"
        },
        {
          "internalType": "uint256",
          "name": "value",
          "type": "uint256"
        }
      ],
      "name": "approve",
      "outputs": [
        {
          "internalType": "bool",
          "name": "",
          "type": "bool"
        }
      ],
      "stateMutability": "nonpayable",
      "type": "function"
    },
    {
      "inputs": [
        {
          "internalType": "address",
          "name": "account",
          "type": "address"
        }
      ],
      "name": "balanceOf",
      "outputs": [
        {
          "internalType": "uint256",
          "name": "",
          "type": "uint256"
        }
      ],
      "stateMutability": "view",
      "type": "function"
    },
    {
      "inputs": [
        {
          "internalType": "uint256",
          "name": "value",
          "type": "uint256"
        }
      ],
      "name": "burn",
      "outputs": [],
      "stateMutability": "nonpayable",
      "type": "function"
    },
    {
      "inputs": [
        {
          "internalType": "address",
          "name": "account",
          "type": "address"
        },
        {
          "internalType": "uint256",
          "name": "value",
          "type": "uint256"
        }
      ],
      "name": "burnFrom",
      "outputs": [],
      "stateMutability": "nonpayable",
      "type": "function"
    },
    {
      "inputs": [],
      "name": "cap",
      "outputs": [
        {
          "internalType": "uint256",
          "name": "",
          "type": "uint256"
        }
      ],
      "stateMutability": "view",
      "type": "function"
    },
    {
      "inputs": [
        {
          "internalType": "address",
          "name": "account",
          "type": "address"
        },
        {
          "internalType": "uint32",
          "name": "pos",
          "type": "uint32"
        }
      ],
      "name": "checkpoints",
      "outputs": [
        {
          "components": [
            {
              "internalType": "uint48",
              "name": "_key",
              "type": "uint48"
            },
            {
              "internalType": "uint208",
              "name": "_value",
              "type": "uint208"
            }
          ],
          "internalType": "struct Checkpoints.Checkpoint208",
          "name": "",
          "type": "tuple"
        }
      ],
      "stateMutability": "view",
      "type": "function"
    },
    {
      "inputs": [],
      "name": "clock",
      "outputs": [
        {
          "internalType": "uint48",
          "name": "",
          "type": "uint48"
        }
      ],
      "stateMutability": "view",
      "type": "function"
    },
    {
      "inputs": [
        {
          "internalType": "uint32",
          "name": "_eid",
          "type": "uint32"
        },
        {
          "internalType": "uint16",
          "name": "_msgType",
          "type": "uint16"
        },
        {
          "internalType": "bytes",
          "name": "_extraOptions",
          "type": "bytes"
        }
      ],
      "name": "combineOptions",
      "outputs": [
        {
          "internalType": "bytes",
          "name": "",
          "type": "bytes"
        }
      ],
      "stateMutability": "view",
      "type": "function"
    },
    {
      "inputs": [],
      "name": "decimalConversionRate",
      "outputs": [
        {
          "internalType": "uint256",
          "name": "",
          "type": "uint256"
        }
      ],
      "stateMutability": "view",
      "type": "function"
    },
    {
      "inputs": [],
      "name": "decimals",
      "outputs": [
        {
          "internalType": "uint8",
          "name": "",
          "type": "uint8"
        }
      ],
      "stateMutability": "view",
      "type": "function"
    },
    {
      "inputs": [
        {
          "internalType": "address",
          "name": "delegatee",
          "type": "address"
        }
      ],
      "name": "delegate",
      "outputs": [],
      "stateMutability": "nonpayable",
      "type": "function"
    },
    {
      "inputs": [
        {
          "internalType": "address",
          "name": "delegatee",
          "type": "address"
        },
        {
          "internalType": "uint256",
          "name": "nonce",
          "type": "uint256"
        },
        {
          "internalType": "uint256",
          "name": "expiry",
          "type": "uint256"
        },
        {
          "internalType": "uint8",
          "name": "v",
          "type": "uint8"
        },
        {
          "internalType": "bytes32",
          "name": "r",
          "type": "bytes32"
        },
        {
          "internalType": "bytes32",
          "name": "s",
          "type": "bytes32"
        }
      ],
      "name": "delegateBySig",
      "outputs": [],
      "stateMutability": "nonpayable",
      "type": "function"
    },
    {
      "inputs": [
        {
          "internalType": "address",
          "name": "account",
          "type": "address"
        }
      ],
      "name": "delegates",
      "outputs": [
        {
          "internalType": "address",
          "name": "",
          "type": "address"
        }
      ],
      "stateMutability": "view",
      "type": "function"
    },
    {
      "inputs": [],
      "name": "eip712Domain",
      "outputs": [
        {
          "internalType": "bytes1",
          "name": "fields",
          "type": "bytes1"
        },
        {
          "internalType": "string",
          "name": "name",
          "type": "string"
        },
        {
          "internalType": "string",
          "name": "version",
          "type": "string"
        },
        {
          "internalType": "uint256",
          "name": "chainId",
          "type": "uint256"
        },
        {
          "internalType": "address",
          "name": "verifyingContract",
          "type": "address"
        },
        {
          "internalType": "bytes32",
          "name": "salt",
          "type": "bytes32"
        },
        {
          "internalType": "uint256[]",
          "name": "extensions",
          "type": "uint256[]"
        }
      ],
      "stateMutability": "view",
      "type": "function"
    },
    {
      "inputs": [],
      "name": "enableTransfers",
      "outputs": [],
      "stateMutability": "nonpayable",
      "type": "function"
    },
    {
      "inputs": [],
      "name": "endpoint",
      "outputs": [
        {
          "internalType": "contract ILayerZeroEndpointV2",
          "name": "",
          "type": "address"
        }
      ],
      "stateMutability": "view",
      "type": "function"
    },
    {
      "inputs": [
        {
          "internalType": "uint32",
          "name": "eid",
          "type": "uint32"
        },
        {
          "internalType": "uint16",
          "name": "msgType",
          "type": "uint16"
        }
      ],
      "name": "enforcedOptions",
      "outputs": [
        {
          "internalType": "bytes",
          "name": "enforcedOption",
          "type": "bytes"
        }
      ],
      "stateMutability": "view",
      "type": "function"
    },
    {
      "inputs": [
        {
          "internalType": "enum ContractSpecificRoles",
          "name": "roleName",
          "type": "uint8"
        },
        {
          "internalType": "address",
          "name": "roleTargetContract",
          "type": "address"
        }
      ],
      "name": "generateRole",
      "outputs": [
        {
          "internalType": "bytes32",
          "name": "",
          "type": "bytes32"
        }
      ],
      "stateMutability": "pure",
      "type": "function"
    },
    {
      "inputs": [
        {
          "internalType": "address",
          "name": "account",
          "type": "address"
        }
      ],
      "name": "getDecayFactor",
      "outputs": [
        {
          "internalType": "uint256",
          "name": "",
          "type": "uint256"
        }
      ],
      "stateMutability": "view",
      "type": "function"
    },
    {
      "inputs": [],
      "name": "getDecayFreeWindow",
      "outputs": [
        {
          "internalType": "uint40",
          "name": "",
          "type": "uint40"
        }
      ],
      "stateMutability": "view",
      "type": "function"
    },
    {
      "inputs": [
        {
          "internalType": "uint256",
          "name": "timepoint",
          "type": "uint256"
        }
      ],
      "name": "getPastTotalSupply",
      "outputs": [
        {
          "internalType": "uint256",
          "name": "",
          "type": "uint256"
        }
      ],
      "stateMutability": "view",
      "type": "function"
    },
    {
      "inputs": [
        {
          "internalType": "address",
          "name": "account",
          "type": "address"
        },
        {
          "internalType": "uint256",
          "name": "timepoint",
          "type": "uint256"
        }
      ],
      "name": "getPastVotes",
      "outputs": [
        {
          "internalType": "uint256",
          "name": "",
          "type": "uint256"
        }
      ],
      "stateMutability": "view",
      "type": "function"
    },
    {
      "inputs": [
        {
          "internalType": "address",
          "name": "account",
          "type": "address"
        }
      ],
      "name": "getVotes",
      "outputs": [
        {
          "internalType": "uint256",
          "name": "",
          "type": "uint256"
        }
      ],
      "stateMutability": "view",
      "type": "function"
    },
    {
      "inputs": [
        {
          "internalType": "address",
          "name": "account",
          "type": "address"
        }
      ],
      "name": "hasAdmiralsQuartersRole",
      "outputs": [
        {
          "internalType": "bool",
          "name": "",
          "type": "bool"
        }
      ],
      "stateMutability": "view",
      "type": "function"
    },
    {
      "inputs": [
        {
          "components": [
            {
              "internalType": "uint32",
              "name": "srcEid",
              "type": "uint32"
            },
            {
              "internalType": "bytes32",
              "name": "sender",
              "type": "bytes32"
            },
            {
              "internalType": "uint64",
              "name": "nonce",
              "type": "uint64"
            }
          ],
          "internalType": "struct Origin",
          "name": "",
          "type": "tuple"
        },
        {
          "internalType": "bytes",
          "name": "",
          "type": "bytes"
        },
        {
          "internalType": "address",
          "name": "_sender",
          "type": "address"
        }
      ],
      "name": "isComposeMsgSender",
      "outputs": [
        {
          "internalType": "bool",
          "name": "",
          "type": "bool"
        }
      ],
      "stateMutability": "view",
      "type": "function"
    },
    {
      "inputs": [
        {
          "internalType": "uint32",
          "name": "_eid",
          "type": "uint32"
        },
        {
          "internalType": "bytes32",
          "name": "_peer",
          "type": "bytes32"
        }
      ],
      "name": "isPeer",
      "outputs": [
        {
          "internalType": "bool",
          "name": "",
          "type": "bool"
        }
      ],
      "stateMutability": "view",
      "type": "function"
    },
    {
      "inputs": [
        {
          "components": [
            {
              "internalType": "uint32",
              "name": "srcEid",
              "type": "uint32"
            },
            {
              "internalType": "bytes32",
              "name": "sender",
              "type": "bytes32"
            },
            {
              "internalType": "uint64",
              "name": "nonce",
              "type": "uint64"
            }
          ],
          "internalType": "struct Origin",
          "name": "_origin",
          "type": "tuple"
        },
        {
          "internalType": "bytes32",
          "name": "_guid",
          "type": "bytes32"
        },
        {
          "internalType": "bytes",
          "name": "_message",
          "type": "bytes"
        },
        {
          "internalType": "address",
          "name": "_executor",
          "type": "address"
        },
        {
          "internalType": "bytes",
          "name": "_extraData",
          "type": "bytes"
        }
      ],
      "name": "lzReceive",
      "outputs": [],
      "stateMutability": "payable",
      "type": "function"
    },
    {
      "inputs": [
        {
          "components": [
            {
              "components": [
                {
                  "internalType": "uint32",
                  "name": "srcEid",
                  "type": "uint32"
                },
                {
                  "internalType": "bytes32",
                  "name": "sender",
                  "type": "bytes32"
                },
                {
                  "internalType": "uint64",
                  "name": "nonce",
                  "type": "uint64"
                }
              ],
              "internalType": "struct Origin",
              "name": "origin",
              "type": "tuple"
            },
            {
              "internalType": "uint32",
              "name": "dstEid",
              "type": "uint32"
            },
            {
              "internalType": "address",
              "name": "receiver",
              "type": "address"
            },
            {
              "internalType": "bytes32",
              "name": "guid",
              "type": "bytes32"
            },
            {
              "internalType": "uint256",
              "name": "value",
              "type": "uint256"
            },
            {
              "internalType": "address",
              "name": "executor",
              "type": "address"
            },
            {
              "internalType": "bytes",
              "name": "message",
              "type": "bytes"
            },
            {
              "internalType": "bytes",
              "name": "extraData",
              "type": "bytes"
            }
          ],
          "internalType": "struct InboundPacket[]",
          "name": "_packets",
          "type": "tuple[]"
        }
      ],
      "name": "lzReceiveAndRevert",
      "outputs": [],
      "stateMutability": "payable",
      "type": "function"
    },
    {
      "inputs": [
        {
          "components": [
            {
              "internalType": "uint32",
              "name": "srcEid",
              "type": "uint32"
            },
            {
              "internalType": "bytes32",
              "name": "sender",
              "type": "bytes32"
            },
            {
              "internalType": "uint64",
              "name": "nonce",
              "type": "uint64"
            }
          ],
          "internalType": "struct Origin",
          "name": "_origin",
          "type": "tuple"
        },
        {
          "internalType": "bytes32",
          "name": "_guid",
          "type": "bytes32"
        },
        {
          "internalType": "bytes",
          "name": "_message",
          "type": "bytes"
        },
        {
          "internalType": "address",
          "name": "_executor",
          "type": "address"
        },
        {
          "internalType": "bytes",
          "name": "_extraData",
          "type": "bytes"
        }
      ],
      "name": "lzReceiveSimulate",
      "outputs": [],
      "stateMutability": "payable",
      "type": "function"
    },
    {
      "inputs": [],
      "name": "msgInspector",
      "outputs": [
        {
          "internalType": "address",
          "name": "",
          "type": "address"
        }
      ],
      "stateMutability": "view",
      "type": "function"
    },
    {
      "inputs": [],
      "name": "name",
      "outputs": [
        {
          "internalType": "string",
          "name": "",
          "type": "string"
        }
      ],
      "stateMutability": "view",
      "type": "function"
    },
    {
      "inputs": [
        {
          "internalType": "uint32",
          "name": "",
          "type": "uint32"
        },
        {
          "internalType": "bytes32",
          "name": "",
          "type": "bytes32"
        }
      ],
      "name": "nextNonce",
      "outputs": [
        {
          "internalType": "uint64",
          "name": "nonce",
          "type": "uint64"
        }
      ],
      "stateMutability": "view",
      "type": "function"
    },
    {
      "inputs": [
        {
          "internalType": "address",
          "name": "owner",
          "type": "address"
        }
      ],
      "name": "nonces",
      "outputs": [
        {
          "internalType": "uint256",
          "name": "",
          "type": "uint256"
        }
      ],
      "stateMutability": "view",
      "type": "function"
    },
    {
      "inputs": [
        {
          "internalType": "address",
          "name": "account",
          "type": "address"
        }
      ],
      "name": "numCheckpoints",
      "outputs": [
        {
          "internalType": "uint32",
          "name": "",
          "type": "uint32"
        }
      ],
      "stateMutability": "view",
      "type": "function"
    },
    {
      "inputs": [],
      "name": "oApp",
      "outputs": [
        {
          "internalType": "address",
          "name": "",
          "type": "address"
        }
      ],
      "stateMutability": "view",
      "type": "function"
    },
    {
      "inputs": [],
      "name": "oAppVersion",
      "outputs": [
        {
          "internalType": "uint64",
          "name": "senderVersion",
          "type": "uint64"
        },
        {
          "internalType": "uint64",
          "name": "receiverVersion",
          "type": "uint64"
        }
      ],
      "stateMutability": "pure",
      "type": "function"
    },
    {
      "inputs": [],
      "name": "oftVersion",
      "outputs": [
        {
          "internalType": "bytes4",
          "name": "interfaceId",
          "type": "bytes4"
        },
        {
          "internalType": "uint64",
          "name": "version",
          "type": "uint64"
        }
      ],
      "stateMutability": "pure",
      "type": "function"
    },
    {
      "inputs": [],
      "name": "owner",
      "outputs": [
        {
          "internalType": "address",
          "name": "",
          "type": "address"
        }
      ],
      "stateMutability": "view",
      "type": "function"
    },
    {
      "inputs": [
        {
          "internalType": "uint32",
          "name": "eid",
          "type": "uint32"
        }
      ],
      "name": "peers",
      "outputs": [
        {
          "internalType": "bytes32",
          "name": "peer",
          "type": "bytes32"
        }
      ],
      "stateMutability": "view",
      "type": "function"
    },
    {
      "inputs": [
        {
          "internalType": "address",
          "name": "owner",
          "type": "address"
        },
        {
          "internalType": "address",
          "name": "spender",
          "type": "address"
        },
        {
          "internalType": "uint256",
          "name": "value",
          "type": "uint256"
        },
        {
          "internalType": "uint256",
          "name": "deadline",
          "type": "uint256"
        },
        {
          "internalType": "uint8",
          "name": "v",
          "type": "uint8"
        },
        {
          "internalType": "bytes32",
          "name": "r",
          "type": "bytes32"
        },
        {
          "internalType": "bytes32",
          "name": "s",
          "type": "bytes32"
        }
      ],
      "name": "permit",
      "outputs": [],
      "stateMutability": "nonpayable",
      "type": "function"
    },
    {
      "inputs": [],
      "name": "preCrime",
      "outputs": [
        {
          "internalType": "address",
          "name": "",
          "type": "address"
        }
      ],
      "stateMutability": "view",
      "type": "function"
    },
    {
      "inputs": [
        {
          "components": [
            {
              "internalType": "uint32",
              "name": "dstEid",
              "type": "uint32"
            },
            {
              "internalType": "bytes32",
              "name": "to",
              "type": "bytes32"
            },
            {
              "internalType": "uint256",
              "name": "amountLD",
              "type": "uint256"
            },
            {
              "internalType": "uint256",
              "name": "minAmountLD",
              "type": "uint256"
            },
            {
              "internalType": "bytes",
              "name": "extraOptions",
              "type": "bytes"
            },
            {
              "internalType": "bytes",
              "name": "composeMsg",
              "type": "bytes"
            },
            {
              "internalType": "bytes",
              "name": "oftCmd",
              "type": "bytes"
            }
          ],
          "internalType": "struct SendParam",
          "name": "_sendParam",
          "type": "tuple"
        }
      ],
      "name": "quoteOFT",
      "outputs": [
        {
          "components": [
            {
              "internalType": "uint256",
              "name": "minAmountLD",
              "type": "uint256"
            },
            {
              "internalType": "uint256",
              "name": "maxAmountLD",
              "type": "uint256"
            }
          ],
          "internalType": "struct OFTLimit",
          "name": "oftLimit",
          "type": "tuple"
        },
        {
          "components": [
            {
              "internalType": "int256",
              "name": "feeAmountLD",
              "type": "int256"
            },
            {
              "internalType": "string",
              "name": "description",
              "type": "string"
            }
          ],
          "internalType": "struct OFTFeeDetail[]",
          "name": "oftFeeDetails",
          "type": "tuple[]"
        },
        {
          "components": [
            {
              "internalType": "uint256",
              "name": "amountSentLD",
              "type": "uint256"
            },
            {
              "internalType": "uint256",
              "name": "amountReceivedLD",
              "type": "uint256"
            }
          ],
          "internalType": "struct OFTReceipt",
          "name": "oftReceipt",
          "type": "tuple"
        }
      ],
      "stateMutability": "view",
      "type": "function"
    },
    {
      "inputs": [
        {
          "components": [
            {
              "internalType": "uint32",
              "name": "dstEid",
              "type": "uint32"
            },
            {
              "internalType": "bytes32",
              "name": "to",
              "type": "bytes32"
            },
            {
              "internalType": "uint256",
              "name": "amountLD",
              "type": "uint256"
            },
            {
              "internalType": "uint256",
              "name": "minAmountLD",
              "type": "uint256"
            },
            {
              "internalType": "bytes",
              "name": "extraOptions",
              "type": "bytes"
            },
            {
              "internalType": "bytes",
              "name": "composeMsg",
              "type": "bytes"
            },
            {
              "internalType": "bytes",
              "name": "oftCmd",
              "type": "bytes"
            }
          ],
          "internalType": "struct SendParam",
          "name": "_sendParam",
          "type": "tuple"
        },
        {
          "internalType": "bool",
          "name": "_payInLzToken",
          "type": "bool"
        }
      ],
      "name": "quoteSend",
      "outputs": [
        {
          "components": [
            {
              "internalType": "uint256",
              "name": "nativeFee",
              "type": "uint256"
            },
            {
              "internalType": "uint256",
              "name": "lzTokenFee",
              "type": "uint256"
            }
          ],
          "internalType": "struct MessagingFee",
          "name": "msgFee",
          "type": "tuple"
        }
      ],
      "stateMutability": "view",
      "type": "function"
    },
    {
      "inputs": [
        {
          "internalType": "address",
          "name": "account",
          "type": "address"
        }
      ],
      "name": "removeFromWhitelist",
      "outputs": [],
      "stateMutability": "nonpayable",
      "type": "function"
    },
    {
      "inputs": [],
      "name": "renounceOwnership",
      "outputs": [],
      "stateMutability": "nonpayable",
      "type": "function"
    },
    {
      "inputs": [],
      "name": "rewardsManager",
      "outputs": [
        {
          "internalType": "contract IGovernanceRewardsManager",
          "name": "",
          "type": "address"
        }
      ],
      "stateMutability": "view",
      "type": "function"
    },
    {
      "inputs": [
        {
          "components": [
            {
              "internalType": "uint32",
              "name": "dstEid",
              "type": "uint32"
            },
            {
              "internalType": "bytes32",
              "name": "to",
              "type": "bytes32"
            },
            {
              "internalType": "uint256",
              "name": "amountLD",
              "type": "uint256"
            },
            {
              "internalType": "uint256",
              "name": "minAmountLD",
              "type": "uint256"
            },
            {
              "internalType": "bytes",
              "name": "extraOptions",
              "type": "bytes"
            },
            {
              "internalType": "bytes",
              "name": "composeMsg",
              "type": "bytes"
            },
            {
              "internalType": "bytes",
              "name": "oftCmd",
              "type": "bytes"
            }
          ],
          "internalType": "struct SendParam",
          "name": "_sendParam",
          "type": "tuple"
        },
        {
          "components": [
            {
              "internalType": "uint256",
              "name": "nativeFee",
              "type": "uint256"
            },
            {
              "internalType": "uint256",
              "name": "lzTokenFee",
              "type": "uint256"
            }
          ],
          "internalType": "struct MessagingFee",
          "name": "_fee",
          "type": "tuple"
        },
        {
          "internalType": "address",
          "name": "_refundAddress",
          "type": "address"
        }
      ],
      "name": "send",
      "outputs": [
        {
          "components": [
            {
              "internalType": "bytes32",
              "name": "guid",
              "type": "bytes32"
            },
            {
              "internalType": "uint64",
              "name": "nonce",
              "type": "uint64"
            },
            {
              "components": [
                {
                  "internalType": "uint256",
                  "name": "nativeFee",
                  "type": "uint256"
                },
                {
                  "internalType": "uint256",
                  "name": "lzTokenFee",
                  "type": "uint256"
                }
              ],
              "internalType": "struct MessagingFee",
              "name": "fee",
              "type": "tuple"
            }
          ],
          "internalType": "struct MessagingReceipt",
          "name": "msgReceipt",
          "type": "tuple"
        },
        {
          "components": [
            {
              "internalType": "uint256",
              "name": "amountSentLD",
              "type": "uint256"
            },
            {
              "internalType": "uint256",
              "name": "amountReceivedLD",
              "type": "uint256"
            }
          ],
          "internalType": "struct OFTReceipt",
          "name": "oftReceipt",
          "type": "tuple"
        }
      ],
      "stateMutability": "payable",
      "type": "function"
    },
    {
      "inputs": [
        {
          "internalType": "uint40",
          "name": "newWindow",
          "type": "uint40"
        }
      ],
      "name": "setDecayFreeWindow",
      "outputs": [],
      "stateMutability": "nonpayable",
      "type": "function"
    },
    {
      "inputs": [
        {
          "internalType": "enum VotingDecayLibrary.DecayFunction",
          "name": "newFunction",
          "type": "uint8"
        }
      ],
      "name": "setDecayFunction",
      "outputs": [],
      "stateMutability": "nonpayable",
      "type": "function"
    },
    {
      "inputs": [
        {
          "internalType": "uint256",
          "name": "newRatePerSecond",
          "type": "uint256"
        }
      ],
      "name": "setDecayRatePerSecond",
      "outputs": [],
      "stateMutability": "nonpayable",
      "type": "function"
    },
    {
      "inputs": [
        {
          "internalType": "address",
          "name": "_delegate",
          "type": "address"
        }
      ],
      "name": "setDelegate",
      "outputs": [],
      "stateMutability": "nonpayable",
      "type": "function"
    },
    {
      "inputs": [
        {
          "components": [
            {
              "internalType": "uint32",
              "name": "eid",
              "type": "uint32"
            },
            {
              "internalType": "uint16",
              "name": "msgType",
              "type": "uint16"
            },
            {
              "internalType": "bytes",
              "name": "options",
              "type": "bytes"
            }
          ],
          "internalType": "struct EnforcedOptionParam[]",
          "name": "_enforcedOptions",
          "type": "tuple[]"
        }
      ],
      "name": "setEnforcedOptions",
      "outputs": [],
      "stateMutability": "nonpayable",
      "type": "function"
    },
    {
      "inputs": [
        {
          "internalType": "address",
          "name": "_msgInspector",
          "type": "address"
        }
      ],
      "name": "setMsgInspector",
      "outputs": [],
      "stateMutability": "nonpayable",
      "type": "function"
    },
    {
      "inputs": [
        {
          "internalType": "uint32",
          "name": "_eid",
          "type": "uint32"
        },
        {
          "internalType": "bytes32",
          "name": "_peer",
          "type": "bytes32"
        }
      ],
      "name": "setPeer",
      "outputs": [],
      "stateMutability": "nonpayable",
      "type": "function"
    },
    {
      "inputs": [
        {
          "internalType": "address",
          "name": "_preCrime",
          "type": "address"
        }
      ],
      "name": "setPreCrime",
      "outputs": [],
      "stateMutability": "nonpayable",
      "type": "function"
    },
    {
      "inputs": [],
      "name": "sharedDecimals",
      "outputs": [
        {
          "internalType": "uint8",
          "name": "",
          "type": "uint8"
        }
      ],
      "stateMutability": "view",
      "type": "function"
    },
    {
      "inputs": [],
      "name": "symbol",
      "outputs": [
        {
          "internalType": "string",
          "name": "",
          "type": "string"
        }
      ],
      "stateMutability": "view",
      "type": "function"
    },
    {
      "inputs": [],
      "name": "token",
      "outputs": [
        {
          "internalType": "address",
          "name": "",
          "type": "address"
        }
      ],
      "stateMutability": "view",
      "type": "function"
    },
    {
      "inputs": [],
      "name": "totalSupply",
      "outputs": [
        {
          "internalType": "uint256",
          "name": "",
          "type": "uint256"
        }
      ],
      "stateMutability": "view",
      "type": "function"
    },
    {
      "inputs": [
        {
          "internalType": "address",
          "name": "to",
          "type": "address"
        },
        {
          "internalType": "uint256",
          "name": "value",
          "type": "uint256"
        }
      ],
      "name": "transfer",
      "outputs": [
        {
          "internalType": "bool",
          "name": "",
          "type": "bool"
        }
      ],
      "stateMutability": "nonpayable",
      "type": "function"
    },
    {
      "inputs": [],
      "name": "transferEnableDate",
      "outputs": [
        {
          "internalType": "uint256",
          "name": "",
          "type": "uint256"
        }
      ],
      "stateMutability": "view",
      "type": "function"
    },
    {
      "inputs": [
        {
          "internalType": "address",
          "name": "from",
          "type": "address"
        },
        {
          "internalType": "address",
          "name": "to",
          "type": "address"
        },
        {
          "internalType": "uint256",
          "name": "value",
          "type": "uint256"
        }
      ],
      "name": "transferFrom",
      "outputs": [
        {
          "internalType": "bool",
          "name": "",
          "type": "bool"
        }
      ],
      "stateMutability": "nonpayable",
      "type": "function"
    },
    {
      "inputs": [
        {
          "internalType": "address",
          "name": "newOwner",
          "type": "address"
        }
      ],
      "name": "transferOwnership",
      "outputs": [],
      "stateMutability": "nonpayable",
      "type": "function"
    },
    {
      "inputs": [],
      "name": "transfersEnabled",
      "outputs": [
        {
          "internalType": "bool",
          "name": "",
          "type": "bool"
        }
      ],
      "stateMutability": "view",
      "type": "function"
    },
    {
      "inputs": [
        {
          "internalType": "address",
          "name": "account",
          "type": "address"
        }
      ],
      "name": "updateDecayFactor",
      "outputs": [],
      "stateMutability": "nonpayable",
      "type": "function"
    },
    {
      "inputs": [],
      "name": "vestingWalletFactory",
      "outputs": [
        {
          "internalType": "contract SummerVestingWalletFactory",
          "name": "",
          "type": "address"
        }
      ],
      "stateMutability": "view",
      "type": "function"
    },
    {
      "inputs": [
        {
          "internalType": "address",
          "name": "account",
          "type": "address"
        }
      ],
      "name": "whitelistedAddresses",
      "outputs": [
        {
          "internalType": "bool",
          "name": "isWhitelisted",
          "type": "bool"
        }
      ],
      "stateMutability": "view",
      "type": "function"
    }
  ],
  "bytecode": "0x610200604052346100f15761001a6100156101da565b610317565b6040516152589081611454823960805181818161095a01528181610a7a01528181610fa101528181611461015281816124a501528181613f63015261479d015260a051818181610ef101528181611d22015281816133940152818161375501526140ba015260c05181613636015260e051816136f30152610100518161360001526101205181613685015261014051816136ab01526101605181611880015261018051816118a901526101a051818181610d03015261416f01526101c0518161136c01526101e05181818161083e0152612f170152f35b5f80fd5b634e487b7160e01b5f52604160045260245ffd5b601f909101601f19168101906001600160401b0382119082101761012c57604052565b6100f5565b6040519061014161016083610109565b565b60405190610141604083610109565b81601f820112156100f1578051906001600160401b03821161012c5760405192610186601f8401601f191660200185610109565b828452602083830101116100f157815f9260208093018386015e8301015290565b51906001600160a01b03821682036100f157565b519064ffffffffff821682036100f157565b519060028210156100f157565b619f5d80380380604051926101ef8285610109565b83398101906020818303126100f1578051906001600160401b0382116100f1570190610160828203126100f157610224610131565b82519092906001600160401b0381116100f15782610243918301610152565b835260208101516001600160401b0381116100f15761014092610267918301610152565b6020840152610278604082016101a7565b6040840152610289606082016101a7565b606084015261029a608082016101a7565b60808401526102ab60a082016101bb565b60a084015260c081015160c08401526102c660e082016101cd565b60e0840152610100810151610100840152610120810151610120840152015161014082015290565b600211156102f857565b634e487b7160e01b5f52602160045260245ffd5b6040513d5f823e3d90fd5b6080810180519091906103ad906001600160a01b0316926103726101208401518451956020860151610352604088015160018060a01b031690565b906060880198806103698b5160018060a01b031690565b958695306104b5565b6103a061038760a085015164ffffffffff1690565b60c085015160e08601519161039b836102ee565b6109ef565b516001600160a01b031690565b60405190611c78808301916001600160401b0383118484101761012c5783926103ee926166ac85393081526001600160a01b03909116602082015260400190565b03905ff080156104b057601280546001600160a01b0319166001600160a01b039290921691821790556104319061042c905b6001600160a01b031690565b610a21565b6101008101516101e052604051611bf9808201906001600160401b0382118383101761012c57829161046b91618324843930815260200190565b03905ff09182156104b057601780546001600160a01b0319166001600160a01b039094169390931790925561014191610140906104a7906103a0565b91015190610a60565b61030c565b979491926104c79693979491976105be565b6001600160a01b038116908115610592576040516301ffc9a760e01b81526338c7ccdb60e01b6004820152602081602481865afa9081156104b0575f91610563575b50156105485750601080546001600160a01b0319166001600160a01b03928316179055168015610539576101c052565b6334566e4b60e21b5f5260045ffd5b6347bd7c1d60e01b5f526001600160a01b031660045260245ffd5b610585915060203d60201161058b575b61057d8183610109565b8101906105a6565b5f610509565b503d610573565b6347bd7c1d60e01b5f90815260045260245ffd5b908160209103126100f1575180151581036100f15790565b9594929092604051946105d2604087610109565b600186526105ea6020870197603160f81b895261098b565b6001600160a01b039081166080819052908216156106f257610614906001600160a01b0316610420565b803b156100f15760405163ca5eb5e160e01b81526001600160a01b039290921660048301525f908290602490829084905af180156104b0576106d8575b506106736106789261066b610666600661095a565b610970565b60a052610788565b61086d565b61068181610b3e565b6101605261068e82610c33565b610180526020815191012061012052519020610140524660e0526106b0610d25565b60c052306101005280156106c4576101a052565b63392e1e2760e01b5f90815260045260245ffd5b806106e65f6106ec93610109565b80610981565b5f610651565b632d618d8160e21b5f5260045ffd5b90600182811c9216801561072f575b602083101461071b57565b634e487b7160e01b5f52602260045260245ffd5b91607f1691610710565b601f821161074657505050565b5f5260205f20906020601f840160051c8301931061077e575b601f0160051c01905b818110610773575050565b5f8155600101610768565b909150819061075f565b80519091906001600160401b03811161012c576107b1816107aa600854610701565b6008610739565b602092601f82116001146107f1576107e1929382915f926107e6575b50508160011b915f199060031b1c19161790565b600855565b015190505f806107cd565b60085f52601f198216937ff3f7a9fe364faab93b216da50a3214154f22a0a2b415b23a84c8169e8b636ee3915f5b868110610855575083600195961061083d575b505050811b01600855565b01515f1960f88460031b161c191690555f8080610832565b9192602060018192868501518155019401920161081f565b80519091906001600160401b03811161012c576108968161088f600954610701565b6009610739565b602092601f82116001146108ca576108c5929382915f926107e65750508160011b915f199060031b1c19161790565b600955565b60095f52601f198216937f6e1540171b6c0c960b71a7020d9f60077f6af931a8bbf590da0223dacf75c7af915f5b86811061092e5750836001959610610916575b505050811b01600955565b01515f1960f88460031b161c191690555f808061090b565b919260206001819286850151815501940192016108f8565b634e487b7160e01b5f52601160045260245ffd5b60ff166012039060ff821161096b57565b610946565b60ff16604d811161096b57600a0a90565b5f9103126100f157565b6001600160a01b031680156109dc575f80546001600160a01b03198116831782556001600160a01b0316907f8be0079c531659141344cd1fd0a4f28419497f9722a3daafe3b4186f6b6457e09080a3565b631e4fbdf760e01b5f525f60045260245ffd5b64ffffffffff1664ffffffffff19601454161760145560155560028110156102f85760ff801960165416911617601655565b6001600160a01b03168015610539576011546001600160a01b038116610a51576001600160a01b03191617601155565b6336f62bb160e01b5f5260045ffd5b91906001600160a01b0383168015610b2b57610a86610a8183600754610def565b600755565b6001600160a01b0384165f908152600560209081526040808320805486019055518481527fddf252ad1be2c89b69c2b068fc378daa952ba7f163c4a11628f55a4df523b3ef9190a3600754926001600160d01b03808511610b145750610aed929350610dfc565b6101a051600754818111610aff575050565b63279e7e1560e21b5f5260045260245260445ffd5b630e58ae9360e11b5f52600485905260245260445ffd5b63ec442f0560e01b5f525f60045260245ffd5b908151602081105f14610b59575090610b5690610d84565b90565b6001600160401b03811161012c57610b7d81610b76600a54610701565b600a610739565b602092601f8211600114610bb457610bac929382915f926107e65750508160011b915f199060031b1c19161790565b600a5560ff90565b600a5f52601f198216937fc65a7bb8d6351c1cf70c95a316cc6a92839c986682d98bc35f958f4883f9d2a8915f5b868110610c1b5750836001959610610c03575b505050811b01600a5560ff90565b01515f1960f88460031b161c191690555f8080610bf5565b91926020600181928685015181550194019201610be2565b908151602081105f14610c4b575090610b5690610d84565b6001600160401b03811161012c57610c6f81610c68600b54610701565b600b610739565b602092601f8211600114610ca657610c9e929382915f926107e65750508160011b915f199060031b1c19161790565b600b5560ff90565b600b5f52601f198216937f0175b7a638427703f0dbe7bb9bbf987a2551717b34e79f33b5b1008d1fa01db9915f5b868110610d0d5750836001959610610cf5575b505050811b01600b5560ff90565b01515f1960f88460031b161c191690555f8080610ce7565b91926020600181928685015181550194019201610cd4565b61012051610140516040519060208201927f8b73c3c69bb8fe3d512ecc4cf759cc79239f7b179b0ffacaa9a75d522b39400f8452604083015260608201524660808201523060a082015260a08152610d7e60c082610109565b51902090565b601f815111610daf576020815191015160208210610da0571790565b5f198260200360031b1b161790565b604460209160405192839163305a27a960e01b83528160048401528051918291826024860152018484015e5f828201840152601f01601f19168101030190fd5b9190820180921161096b57565b90610e07825f610e28565b610e2457610e1681835f610e78565b610e2457610141915f610fe8565b5050565b6012546001600160a01b0390811691168114918215610e51575b5050610e4c575f90565b600190565b6001600160a01b03161490505f80610e42565b908160209103126100f157610b56906101a7565b60175490929190610e91906001600160a01b0316610420565b6040516305e5f31960e21b81526001600160a01b038316600482015290602090829060249082905afa9081156104b0575f91610fc9575b506001600160a01b03811680610f9e575050601754610f2393602091610ef6906001600160a01b0316610420565b6040516305e5f31960e21b81526001600160a01b0390921660048301529094859190829081906024820190565b03915afa9283156104b0575f93610f6d575b506001600160a01b03831680610f4d57505050505f90565b6001600160a01b03821614610f6557610e4c92610fe8565b505050600190565b610f9091935060203d602011610f97575b610f888183610109565b810190610e64565b915f610f35565b503d610f7e565b9091506001600160a01b03841603610fb857505050600190565b610fc192610fe8565b5f8080610f65565b610fe2915060203d602011610f9757610f888183610109565b5f610ec8565b9091906001600160a01b0316801561104f575b610141926001600160a01b0316908115611037575b5f908152600d6020526040808220549282529020546001600160a01b03908116911661120c565b611048611043846110c4565b6110f5565b5050611010565b611058826110c4565b600f548061109d57505f905b6001600160d01b03918216908216019390841161096b5761014193611093904265ffffffffffff16600f61137d565b9050509250610ffb565b805f1981011161096b57600f5f525f516020619f1d5f395f51905f52015460301c90611064565b6001600160d01b0381116110de576001600160d01b031690565b6306dfcc6560e41b5f5260d060045260245260445ffd5b600f548061113257505f905b6001600160d01b039081169181169190910390811161096b5761112e904265ffffffffffff16600f61137d565b9091565b805f1981011161096b57600f5f525f516020619f1d5f395f51905f52015460301c90611101565b90815480155f1461119457505f905b6001600160d01b039081169181169190910390811161096b5761112e9165ffffffffffff42169061137d565b805f1981011161096b575f83815260209020015f19015460301c90611168565b90815480155f146111ec57505f905b6001600160d01b039182169082160190811161096b5761112e9165ffffffffffff42169061137d565b805f1981011161096b575f83815260209020015f19015460301c906111c3565b6001600160a01b038083169392919081169081851415806112ff575b611234575b5050505050565b816112a5575b505082611249575b808061122d565b6001600160a01b03165f908152600e602052604090205f516020619f3d5f395f51905f52916112829161127c90916110c4565b906111b4565b604080516001600160d01b039384168152919092166020820152a25f8080611242565b6001600160a01b03165f908152600e602052604090205f516020619f3d5f395f51905f52906112dd906112d7866110c4565b90611159565b604080516001600160d01b039384168152919092166020820152a25f8061123a565b50831515611228565b5f1981019190821161096b57565b9081546801000000000000000081101561012c5760018101808455811015611369575f9283526020928390208251929093015160301b65ffffffffffff191665ffffffffffff9290921691909117910155565b634e487b7160e01b5f52603260045260245ffd5b805492939280156114295761139461139f91611308565b825f5260205f200190565b8054603081901c9365ffffffffffff9182169291811680841161141a578793036113e657506113e292509065ffffffffffff82549181199060301b169116179055565b9190565b9150506113e2916114066113f8610143565b65ffffffffffff9093168352565b6001600160d01b0386166020830152611316565b632520601d60e01b5f5260045ffd5b509061144e9161143a6113f8610143565b6001600160d01b0385166020830152611316565b5f919056fe60806040526004361015610011575f80fd5b5f3560e01c806306c933d8146104bf57806306fdde03146104ba578063095ea7b3146104b55780630d35b415146104b05780630dce88f4146104ab578063111ecdad146104a657806313137d65146104a1578063134d4f251461049c578063156a0d0f1461049757806317442b701461049257806318160ddd1461048d5780631f5e13341461048857806323b872dd14610483578063313ce5671461047e5780633400288b14610479578063355274ea146104745780633644e5151461046f5780633a46b1a81461046a5780633b6f743b14610465578063412290811461046057806342966c681461045b5780634bf5d7e91461045657806352ae2879146103575780635535d46114610451578063587cde1e1461044c5780635a0dfe4d146104475780635c19a95c146104425780635e280f111461043d57806369b3054b146104385780636fc1b31e146104335780636fcfff451461042e57806370a0823114610429578063715018a61461042457806379cc67901461041f5780637c930dde1461041a5780637d25a05e146104155780637ecebe001461041057806382413eac1461040b57806384b0196e14610406578063857749b0146104015780638ab1d681146103fc5780638da5cb5b146103f75780638e539e8c146103f257806391ddadf4146103ed57806392a525d5146103e857806395d89b41146103e3578063963efcaa146103de5780639ab24eb0146103d95780639f68b964146103d4578063a9059cbb146103cf578063af35c6c7146103ca578063b731ea0a146103c5578063b98bd070146103c0578063bb0b6a53146103bb578063bc70b354146103b6578063bd815db0146103b1578063bef97c87146103ac578063c3cda520146103a7578063c7c7f5b3146103a2578063ca5eb5e11461039d578063cfe081d114610398578063d045a0dc14610393578063d42438851461038e578063d505accf14610389578063dd62ed3e14610384578063defe20531461037f578063e0cf01ae1461037a578063e43252d714610375578063ea4ebdca14610370578063ebc136d01461036b578063f1127ed814610366578063f2fde38b14610361578063f56a47a51461035c578063fc0c546a146103575763ff7bd03d14610352575f80fd5b612bd4565b6110d7565b612ba7565b612b1e565b612a6e565b61298e565b61296a565b6128b1565b6127f8565b6127d0565b61277e565b61266b565b6125fb565b6125ca565b61251a565b61247d565b61235b565b61220e565b6121c9565b612075565b612021565b611fe8565b611f05565b611e8b565b611de0565b611db6565b611d9c565b611d45565b611d0b565b611c66565b611ba8565b611b86565b611a73565b611a4c565b611980565b611965565b611868565b61180a565b6117cf565b6117a9565b61169d565b611669565b611612565b6115d7565b61156f565b6114ff565b611490565b61144c565b61133e565b6112f8565b6112b5565b61123a565b611087565b611068565b611040565b610e8d565b610d48565b610d26565b610cec565b610c67565b610c3e565b610bfe565b610be3565b610bc6565b610ba5565b610b7f565b610b64565b610947565b610874565b610827565b610746565b610663565b610589565b610507565b6001600160a01b038116036104d557565b5f80fd5b6001600160a01b03165f90815260056020526040902090565b9060018060a01b03165f5260205260405f2090565b346104d55760203660031901126104d557600435610524816104c4565b60018060a01b03165f526018602052602060ff60405f2054166040519015158152f35b5f9103126104d557565b805180835260209291819084018484015e5f828201840152601f01601f1916010190565b906020610586928181520190610551565b90565b346104d5575f3660031901126104d5576040515f6008546105a981611111565b808452906001811690811561063f57506001146105e1575b6105dd836105d181850382611219565b60405191829182610575565b0390f35b60085f9081527ff3f7a9fe364faab93b216da50a3214154f22a0a2b415b23a84c8169e8b636ee3939250905b808210610625575090915081016020016105d16105c1565b91926001816020925483858801015201910190929161060d565b60ff191660208086019190915291151560051b840190910191506105d190506105c1565b346104d55760403660031901126104d55761068d600435610683816104c4565b6024359033613ff8565b602060405160018152f35b908160e09103126104d55790565b939291906106c28560a081019260208091805184520151910152565b60a06040860152815180915260c0850190602060c08260051b8801019301915f905b82821061070a57505050509060606107089294019060208091805184520151910152565b565b9091929360208061073860019360bf198c82030186526040838a518051845201519181858201520190610551565b9601920192019092916106e4565b346104d55760203660031901126104d5576004356001600160401b0381116104d557610776903690600401610698565b61077e612c4b565b50610787612c4b565b50604051610794816111de565b5f81526001600160401b0360208201526020604051926107b48285611219565b5f8452601f1982015f5b818110610804575050906107e86105dd9260408101356107e2606083013592612c7a565b5061338b565b90916107f2612c2d565b928352820152604051938493846106a6565b8390604051610812816111de565b5f8152606083820152828289010152016107be565b346104d5575f3660031901126104d55760206040517f00000000000000000000000000000000000000000000000000000000000000008152f35b6001600160a01b03909116815260200190565b346104d5575f3660031901126104d5576004546040516001600160a01b039091168152602090f35b60609060031901126104d557600490565b9181601f840112156104d5578235916001600160401b0383116104d557602083818601950101116104d557565b90600319820160e081126104d5576060136104d557600491606435916084356001600160401b0381116104d55782610914916004016108ad565b9290929160a435610924816104c4565b9160c435906001600160401b0382116104d557610943916004016108ad565b9091565b610950366108da565b50919492915050337f00000000000000000000000000000000000000000000000000000000000000006001600160a01b031603610b5157813561099281610c59565b61099b816133dd565b906020840135809203610b2c5750506109c36109b7858361408e565b6001600160a01b031690565b936109e96109d96109d4838561409a565b6140ac565b6109e285612c7a565b50866140e0565b916109f48260281090565b610a4c575b5050610a257fefed6d3500546b29533b128a29e3a94d70788727f0507505ac12eaf2e578fd9c92612c7a565b6040805163ffffffff92909216825260208201929092526001600160a01b039490941693a3005b9082610a7792610a71610a616040880161340d565b93610a6b88612c7a565b926141d0565b926141ec565b917f00000000000000000000000000000000000000000000000000000000000000006001600160a01b0316803b156104d557604051633e5ac80960e11b8152935f918591829084908290610ad0908b8d60048501613417565b03925af1908115610b27577fefed6d3500546b29533b128a29e3a94d70788727f0507505ac12eaf2e578fd9c93610a2592610b0d575b50926109f9565b80610b1b5f610b2193611219565b80610547565b5f610b06565b612c9f565b80610b3b63ffffffff92610c59565b63309afaf360e21b5f521660045260245260445ffd5b6391ac5e4f60e01b5f523360045260245ffd5b346104d5575f3660031901126104d557602060405160028152f35b346104d5575f3660031901126104d5576040805162b9270b60e21b815260016020820152f35b346104d5575f3660031901126104d557604080516001815260026020820152f35b346104d5575f3660031901126104d5576020600754604051908152f35b346104d5575f3660031901126104d557602060405160018152f35b346104d55760603660031901126104d55761068d600435610c1e816104c4565b602435610c2a816104c4565b60443591610c39833383613441565b6134f9565b346104d5575f3660031901126104d557602060405160128152f35b63ffffffff8116036104d557565b346104d55760403660031901126104d5577f238399d427b947898edb290f5ff0f9109849b1c3ba196a42e35f00c50a54b98b600435610ca581610c59565b60243590610cb16135d7565b63ffffffff81165f5260016020528160405f2055610ce7604051928392836020909392919363ffffffff60408201951681520152565b0390a1005b346104d5575f3660031901126104d55760206040517f00000000000000000000000000000000000000000000000000000000000000008152f35b346104d5575f3660031901126104d5576020610d406135fd565b604051908152f35b346104d55760403660031901126104d557600435610d65816104c4565b6024359065ffffffffffff421680831015610e6d57506001600160a01b0381165f908152600e6020526040902091610d9c9061399c565b9180545f938160058111610e05575b508291602095610dbf92610d4096956144ae565b80610de6575050610de060035f5b6001600160d01b0316925f8160136148a0565b90614244565b610de091610df5600392613981565b905f52855f20015460301c610dcd565b93929190610e1285614350565b8503948511610e6857602095610d4095610dbf93855f5265ffffffffffff828a5f2001541665ffffffffffff8516105f14610e565750915b92509550919293610dab565b929150610e62906139cb565b90610e4a565b612c19565b82637669fc0f60e11b5f5260045260245260445ffd5b801515036104d557565b346104d55760403660031901126104d5576004356001600160401b0381116104d557610ebd903690600401610698565b602435610ec981610e83565b610ed1612c4b565b50813591606081013590610f1c6040820135610eec86610c59565b610f177f0000000000000000000000000000000000000000000000000000000000000000809261405d565b61407b565b9180831061102a57610f9d604086610f8287610f38888861373e565b90610f4285610c59565b610f4a612c4b565b50610f54856133dd565b610f6b610f5f612c3c565b63ffffffff9097168752565b602086015285850152606084015215156080830152565b815180938192631bb8518b60e31b8352309060048401613879565b03817f00000000000000000000000000000000000000000000000000000000000000006001600160a01b03165afa8015610b27576105dd915f91610ffb575b5060405191829182815181526020918201519181019190915260400190565b61101d915060403d604011611023575b6110158183611219565b810190613865565b82610fdc565b503d61100b565b826371c4efed60e01b5f5260045260245260445ffd5b346104d5575f3660031901126104d5576017546040516001600160a01b039091168152602090f35b346104d55760203660031901126104d557611085600435336138e7565b005b346104d5575f3660031901126104d5576105dd6040516110a8604082611219565b600e81526d06d6f64653d74696d657374616d760941b6020820152604051918291602083526020830190610551565b346104d5575f3660031901126104d5576020604051308152f35b6024359061ffff821682036104d557565b359061ffff821682036104d557565b90600182811c9216801561113f575b602083101461112b57565b634e487b7160e01b5f52602260045260245ffd5b91607f1691611120565b5f929181549161115883611111565b80835292600181169081156111ad575060011461117457505050565b5f9081526020812093945091925b838310611193575060209250010190565b600181602092949394548385870101520191019190611182565b915050602093945060ff929192191683830152151560051b010190565b634e487b7160e01b5f52604160045260245ffd5b604081019081106001600160401b038211176111f957604052565b6111ca565b606081019081106001600160401b038211176111f957604052565b90601f801991011681019081106001600160401b038211176111f957604052565b346104d55760403660031901126104d5576105dd61129a6112a161128e60043561126381610c59565b63ffffffff6112706110f1565b91165f52600360205260405f209061ffff165f5260205260405f2090565b60405192838092611149565b0382611219565b604051918291602083526020830190610551565b346104d55760203660031901126104d5576004356112d2816104c4565b60018060a01b03165f52600d602052602060018060a01b0360405f205416604051908152f35b346104d55760403660031901126104d557602061133460043561131a81610c59565b6024359063ffffffff165f52600160205260405f20541490565b6040519015158152f35b346104d55760203660031901126104d55760043561135b816104c4565b3361136a575b61108590613977565b7f00000000000000000000000000000000000000000000000000000000000000006001600160a01b0316803b156104d5575f6040518092633e4986ef60e11b82528183816113bb3360048301610861565b03925af18015610b2757611438575b506011546113e0906001600160a01b03166109b7565b90813b156104d5575f604051809363dae21dab60e01b82528183816114083360048301610861565b03925af1918215610b275761108592611424575b509050611361565b80610b1b5f61143293611219565b5f61141c565b80610b1b5f61144693611219565b5f6113ca565b346104d5575f3660031901126104d5576040517f00000000000000000000000000000000000000000000000000000000000000006001600160a01b03168152602090f35b346104d55760403660031901126104d55760043560038110156104d5576105dd906024356114bd816104c4565b60405190602082019260f81b835260018060601b03199060601b166021820152601581526114ec603582611219565b5190206040519081529081906020820190565b346104d55760203660031901126104d5577ff0be4f1e87349231d80c36b33f9e8639658eeaf474014dee15a3e6a4d4414197602060043561153f816104c4565b6115476135d7565b600480546001600160a01b0319166001600160a01b03929092169182179055604051908152a1005b346104d55760203660031901126104d55760043561158c816104c4565b6001600160a01b03165f908152600e602052604090205463ffffffff81116115c05760405163ffffffff9091168152602090f35b6306dfcc6560e41b5f52602060045260245260445ffd5b346104d55760203660031901126104d5576004356115f4816104c4565b60018060a01b03165f526005602052602060405f2054604051908152f35b346104d5575f3660031901126104d55761162a6135d7565b5f80546001600160a01b0319811682556001600160a01b03167f8be0079c531659141344cd1fd0a4f28419497f9722a3daafe3b4186f6b6457e08280a3005b346104d55760403660031901126104d557611085600435611689816104c4565b60243590611698823383613441565b6138e7565b346104d55760203660031901126104d5576004356116ba816104c4565b6010546116cf906001600160a01b03166109b7565b60405163605a9a6160e11b8152602081600481855afa8015610b2757611717926020925f9261177a575b506040518080958194632474521560e21b8352339060048401612ce2565b03915afa908115610b27575f9161174b575b50156117385761108590612cfb565b630a4510f960e31b5f523360045260245ffd5b61176d915060203d602011611773575b6117658183611219565b810190612ccd565b5f611729565b503d61175b565b61179b919250833d85116117a2575b6117938183611219565b810190612cbe565b905f6116f9565b503d611789565b346104d55760403660031901126104d5576117c5600435610c59565b60206040515f8152f35b346104d55760203660031901126104d5576004356117ec816104c4565b60018060a01b03165f52600c602052602060405f2054604051908152f35b346104d55760a03660031901126104d5576118243661089c565b506064356001600160401b0381116104d5576118449036906004016108ad565b50506020608435611854816104c4565b6040516001600160a01b0390911630148152f35b346104d5575f3660031901126104d55761190c6118a47f00000000000000000000000000000000000000000000000000000000000000006142c0565b6118cd7f0000000000000000000000000000000000000000000000000000000000000000614319565b60206040516118dc8282611219565b5f81528161191a81830194601f198301368737604051978897600f60f81b895260e0858a015260e0890190610551565b908782036040890152610551565b914660608701523060808701525f60a087015285830360c087015251918281520192915f5b82811061194e57505050500390f35b83518552869550938101939281019260010161193f565b346104d5575f3660031901126104d557602060405160068152f35b346104d55760203660031901126104d55760043561199d816104c4565b6010546119b2906001600160a01b03166109b7565b604051630ccc574960e41b8152602081600481855afa8015610b27576119f9926020925f9261177a57506040518080958194632474521560e21b8352339060048401612ce2565b03915afa908115610b27575f91611a2d575b5015611a1a5761108590612e7f565b630ea7d7ed60e21b5f523360045260245ffd5b611a46915060203d602011611773576117658183611219565b5f611a0b565b346104d5575f3660031901126104d5575f546040516001600160a01b039091168152602090f35b346104d55760203660031901126104d5574265ffffffffffff1660043581811015611b7157611aa19061399c565b600f54905f829160058411611b1d575b611abd9350600f6144ae565b80611ae257506105dd5f5b6040516001600160d01b0390911681529081906020820190565b611aee6105dd91613981565b600f5f527f8d1108e10bcb7c27dddfc02ed9d693a074039d026cf4ea4240b40f7d581ac802015460301c611ac8565b9192611b2881614350565b8103908111610e6857611abd93600f5f5265ffffffffffff8260205f2001541665ffffffffffff8516105f14611b5f575091611ab1565b929150611b6b906139cb565b90611ab1565b637669fc0f60e11b5f5260045260245260445ffd5b346104d5575f3660031901126104d557602060405165ffffffffffff42168152f35b346104d55760203660031901126104d55760043564ffffffffff811681036104d557601054611bdf906001600160a01b03166109b7565b604051630ccc574960e41b8152602081600481855afa8015610b2757611c26926020925f9261177a57506040518080958194632474521560e21b8352339060048401612ce2565b03915afa908115610b27575f91611c47575b5015611a1a5761108590612ec3565b611c60915060203d602011611773576117658183611219565b5f611c38565b346104d5575f3660031901126104d5576040515f600954611c8681611111565b808452906001811690811561063f5750600114611cad576105dd836105d181850382611219565b60095f9081527f6e1540171b6c0c960b71a7020d9f60077f6af931a8bbf590da0223dacf75c7af939250905b808210611cf1575090915081016020016105d16105c1565b919260018160209254838588010152019101909291611cd9565b346104d5575f3660031901126104d55760206040517f00000000000000000000000000000000000000000000000000000000000000008152f35b346104d55760203660031901126104d5576020610d40611d97600435611d6a816104c4565b611d916003610dcd611d8c8460018060a01b03165f52600e60205260405f2090565b614512565b90614ba3565b614c38565b346104d5575f3660031901126104d55760206040515f8152f35b346104d55760403660031901126104d55761068d600435611dd6816104c4565b60243590336134f9565b346104d5575f3660031901126104d557601054611e05906001600160a01b03166109b7565b604051630ccc574960e41b8152602081600481855afa8015610b2757611e4c926020925f9261177a57506040518080958194632474521560e21b8352339060048401612ce2565b03915afa908115610b27575f91611e6c575b5015611a1a57611085612f07565b611e85915060203d602011611773576117658183611219565b5f611e5e565b346104d5575f3660031901126104d5576002546040516001600160a01b039091168152602090f35b9060206003198301126104d5576004356001600160401b0381116104d55760040182601f820112156104d5578035926001600160401b0384116104d5576020808301928560051b0101116104d5579190565b346104d557611f1336611eb3565b90611f1c6135d7565b611f2582612c63565b90611f336040519283611219565b828252602082019260051b8101903682116104d55780935b828510611f5b5761108584613b98565b84356001600160401b0381116104d5578201906060823603126104d55760405191611f85836111fe565b8035611f9081610c59565b8352611f9e60208201611102565b60208401526040810135906001600160401b0382116104d557019036601f830112156104d557602092611fd8849336908581359101612f90565b6040820152815201940193611f4b565b346104d55760203660031901126104d55763ffffffff60043561200a81610c59565b165f526001602052602060405f2054604051908152f35b346104d55760603660031901126104d55760043561203e81610c59565b6120466110f1565b604435906001600160401b0382116104d5576105dd9261206d6112a19336906004016108ad565b929091613055565b61207e36611eb3565b5f5b8181106120ed57604051638e9e709960e01b81525f81600481335afa8015610b27576120c7915f916120cb575b50604051638351eea760e01b815291829160048301610575565b0390fd5b6120e791503d805f833e6120df8183611219565b8101906131fa565b826120ad565b6120f881838561310b565b9061212861212461210884612c7a565b60208501359063ffffffff165f52600160205260405f20541490565b1590565b6121c05760c08201359160a0810135612145610100830183613133565b94909161215460e08501613165565b93612163610120820182613133565b959095303b156104d5575f96612190926040519a8b9889978897633411683760e21b895260048901613180565b0391305af1918215610b27576001926121ac575b505b01612080565b80610b1b5f6121ba93611219565b5f6121a4565b600191506121a6565b346104d5575f3660031901126104d557602060ff60175460a01c166040519015158152f35b6064359060ff821682036104d557565b6084359060ff821682036104d557565b346104d55760c03660031901126104d55760043561222b816104c4565b6024359060443561223a6121ee565b6084359060a435928042116122f857916122bf93916122b16122b69460405160208101917fe48329057bfd03d55e49b547132e39cffd9c1820ad7b9d4c5307691425d15adf835260018060a01b038a1660408301528a60608301526080820152608081526122a960a082611219565b519020613c8d565b61453c565b909291926145be565b6122c881613fd6565b8093036122d9576110859250613cc2565b90506301d4b62360e61b5f5260018060a01b031660045260245260445ffd5b632341d78760e11b5f5260045260245ffd5b91608061070892949361234a604060c0830197805184526001600160401b0360208201511660208501520151604083019060208091805184520151910152565b019060208091805184520151910152565b60803660031901126104d5576004356001600160401b0381116104d557612386903690600401610698565b60403660231901126104d55760643561239e816104c4565b6123a661325c565b506123af612c4b565b506060820135906123c86040840135610eec8535610c59565b9180831061102a5750612402906123df83336138e7565b6123e9838561373e565b6123f286612c7a565b916123fc36613282565b92613ee6565b9061240b612c2d565b928184528160208501527f85496b760a4b7f8d66384b9df21b381f5d1b1e79f229a47aaf4c232edc2fe59a61246b612444855193612c7a565b936040519181839233978460409194939263ffffffff606083019616825260208201520152565b0390a36105dd6040519283928361230a565b346104d5575f60203660031901126104d55760043561249b816104c4565b6124a36135d7565b7f00000000000000000000000000000000000000000000000000000000000000006001600160a01b031690813b156104d55760405163ca5eb5e160e01b81526001600160a01b039091166004820152905f908290602490829084905af18015610b275761250e575080f35b61108591505f90611219565b346104d55760203660031901126104d557600435601054612543906001600160a01b03166109b7565b604051630ccc574960e41b8152602081600481855afa8015610b275761258a926020925f9261177a57506040518080958194632474521560e21b8352339060048401612ce2565b03915afa908115610b27575f916125ab575b5015611a1a57611085906132aa565b6125c4915060203d602011611773576117658183611219565b5f61259c565b6125d3366108da565b50505092903033036125ec576109c36109b7858361408e565b63029a949d60e31b5f5260045ffd5b346104d55760203660031901126104d5577fd48d879cef83a1c0bdda516f27b13ddb1b3f8bbac1c9e1511bb2a659c2427760602060043561263b816104c4565b6126436135d7565b600280546001600160a01b0319166001600160a01b03929092169182179055604051908152a1005b346104d55760e03660031901126104d557600435612688816104c4565b602435612694816104c4565b60443590606435926126a46121fe565b60a43560c4359086421161276b576127309261272b6126c286613fd6565b9860405160208101917f6e71edae12b1b97f4d1f60370fef10105fa2faae0126114a169c64845d6126c9835260018060a01b0389169b8c604084015260018060a01b038b1660608401528b608084015260a083015260c082015260c081526122a960e082611219565b613cb3565b936001600160a01b0385160361274a576110859350613ff8565b6325c0072360e11b5f526001600160a01b038085166004521660245260445ffd5b8663313c898160e11b5f5260045260245ffd5b346104d55760403660031901126104d55760206127c76004356127a0816104c4565b602435906127ad826104c4565b6001600160a01b03165f90815260068452604090206104f2565b54604051908152f35b346104d5575f3660031901126104d5576012546040516001600160a01b039091168152602090f35b346104d55760203660031901126104d55760043560028110156104d55760105461282a906001600160a01b03166109b7565b604051630ccc574960e41b8152602081600481855afa8015610b2757612871926020925f9261177a57506040518080958194632474521560e21b8352339060048401612ce2565b03915afa908115610b27575f91612892575b5015611a1a57611085906132f9565b6128ab915060203d602011611773576117658183611219565b5f612883565b346104d55760203660031901126104d5576004356128ce816104c4565b6010546128e3906001600160a01b03166109b7565b604051630ccc574960e41b8152602081600481855afa8015610b275761292a926020925f9261177a57506040518080958194632474521560e21b8352339060048401612ce2565b03915afa908115610b27575f9161294b575b5015611a1a5761108590613344565b612964915060203d602011611773576117658183611219565b5f61293c565b346104d5575f3660031901126104d557602064ffffffffff60145416604051908152f35b346104d55760203660031901126104d5576004356129ab816104c4565b6010546129c0906001600160a01b03166109b7565b60405163a89f38a360e01b81529091602082600481865afa928315610b2757612a0a936020935f91612a51575b50604051809581948293632474521560e21b845260048401612ce2565b03915afa8015610b27576105dd915f91612a32575b5060405190151581529081906020820190565b612a4b915060203d602011611773576117658183611219565b5f612a1f565b612a689150843d86116117a2576117938183611219565b5f6129ed565b346104d55760403660031901126104d5576105dd612ad4600435612a91816104c4565b60243590612a9e82610c59565b612aa6612c4b565b50612aaf612c4b565b506001600160a01b03165f908152600e60205260409020612ace612c4b565b5061488b565b5060405190612ae2826111de565b5465ffffffffffff811680835260309190911c60209283019081526040805192835290516001600160d01b031692820192909252918291820190565b346104d55760203660031901126104d557600435612b3b816104c4565b612b436135d7565b6001600160a01b03168015612b94575f80546001600160a01b03198116831782556001600160a01b0316907f8be0079c531659141344cd1fd0a4f28419497f9722a3daafe3b4186f6b6457e09080a3005b631e4fbdf760e01b5f525f60045260245ffd5b346104d55760203660031901126104d5576020610d406003600435612bcb816104c4565b5f8160136148a0565b346104d55760603660031901126104d5576020612bf03661089c565b63ffffffff8135612c0081610c59565b165f52600182528160405f205491013560405191148152f35b634e487b7160e01b5f52601160045260245ffd5b60405190610708604083611219565b6040519061070860a083611219565b60405190612c58826111de565b5f6020838281520152565b6001600160401b0381116111f95760051b60200190565b3561058681610c59565b6001600160401b0381116111f957601f01601f191660200190565b6040513d5f823e3d90fd5b634e487b7160e01b5f52602160045260245ffd5b908160209103126104d5575190565b908160209103126104d5575161058681610e83565b9081526001600160a01b03909116602082015260400190565b6001600160a01b0381165f908152601360205260409020600101547f7d4f30fa682bd557f547a1f7245a280525fd183bdb54917c56ec7ef22e5b532a919064ffffffffff1615612df3575b6001600160a01b0381165f908152601360205260409020612db960018201612d89612d83612d79835464ffffffffff1690565b64ffffffffff1690565b4261398f565b612d9c612d7960145464ffffffffff1690565b10612ddd575b805464ffffffffff19164264ffffffffff16179055565b54604080516001600160a01b0390931683526020830191909152819081015b0390a1565b612dec6003855f8160136148a0565b8355612da2565b612e48604051612e02816111de565b670de0b6b3a76400008152600164ffffffffff602083018142168152612e298660136104f2565b93518455511691019064ffffffffff1664ffffffffff19825416179055565b7f9b44a2c7f9f0b5aa4e7da60d8a2325796c57f93a45559d66515743ffbd8a610360405180612e778482610861565b0390a1612d46565b6001600160a01b03165f818152601860205260408120805460ff191690557f535611fb62fa2a833988f283b779e417e996813e44046f521d76c17b5943b08c9080a2565b602064ffffffffff7f9ec539ec1ff2fdcda111a25f0c7d902ff0205d74dfaa05f434eecc8cdea9e8b192168064ffffffffff196014541617601455604051908152a1565b60175460ff8160a01c16612f81577f00000000000000000000000000000000000000000000000000000000000000004210612f725760ff60a01b1916600160a01b176017557feadb24812ab3c9a55c774958184293ebdb6c7f6a2dbab11f397d80c86feb65d35f80a1565b63be5fb0cb60e01b5f5260045ffd5b6385e1a58160e01b5f5260045ffd5b929192612f9c82612c84565b91612faa6040519384611219565b8294818452818301116104d5578281602093845f960137010152565b90929192836002116104d55783116104d557600201916001190190565b805191908290602001825e015f815290565b61300f939261070892816040519687946020860190612fe3565b918237015f815203601f198101845283611219565b908060209392818452848401375f828201840152601f01601f1916010190565b916020610586938181520191613024565b61128e61129a9263ffffffff6130869397959697165f52600360205260405f209061ffff165f5260205260405f2090565b8051156130e95783156130e35760028410156130ba5750506120c7604051928392639a6d49cd60e01b845260048401613044565b9092806130dd91610586946130d86130d3368484612f90565b613c55565b612fc6565b91612ff5565b92509050565b509190610586913691612f90565b634e487b7160e01b5f52603260045260245ffd5b919081101561312e5760051b8101359061013e19813603018212156104d5570190565b6130f7565b903590601e19813603018212156104d557018035906001600160401b0382116104d5576020019181360383136104d557565b35610586816104c4565b6001600160401b038116036104d557565b9290936131dc926001600160401b0360406105869a98999763ffffffff81356131a881610c59565b1688526020810135602089015201356131c08161316f565b166040860152606085015260e0608085015260e0840191613024565b6001600160a01b0390941660a082015280840360c090910152613024565b6020818303126104d5578051906001600160401b0382116104d5570181601f820112156104d55780519061322d82612c84565b9261323b6040519485611219565b828452602083830101116104d557815f9260208093018386015e8301015290565b60405190613269826111fe565b815f81525f6020820152604061327d612c4b565b910152565b60409060231901126104d5576040519061329b826111de565b60243582526044356020830152565b670de0b6b3a764000081116132ea576020817f179ae38251712f92ada204166c624f1fd16102c85f82e13348393a898b04e9d292601555604051908152a1565b630678582160e51b5f5260045ffd5b600281101561333f5760207f7b7c2a74bf19219346c0b038bc25beb1372ff76eb0b6fe50ba0433b4ac9842799160ff8019601654169116809117601655604051908152a1565b612caa565b6001600160a01b03165f818152601860205260408120805460ff191660011790557f4f783c179409b4127238bc9c990bc99b9a651666a0d20b51d6c42849eb88466d9080a2565b6133ba90610f177f0000000000000000000000000000000000000000000000000000000000000000809261405d565b9182918084106133c75750565b836371c4efed60e01b5f5260045260245260445ffd5b63ffffffff16805f52600160205260405f20549081156133fb575090565b63f6ff4fb760e01b5f5260045260245ffd5b356105868161316f565b610586939260809260018060a01b0316825260208201525f60408201528160608201520190610551565b6001600160a01b03165f818152600660205260409020919290916134669084906104f2565b5460018101613476575b50505050565b8181106134d85782156134c5576001600160a01b038416156134b2576134a8925f526006602052039160405f206104f2565b555f808080613470565b634a1406b160e11b5f525f60045260245ffd5b63e602df0560e01b5f525f60045260245ffd5b83637dc7a0d960e11b5f5260018060a01b031660045260245260445260645ffd5b6001600160a01b0381169392919084156135c4576001600160a01b03821680156135b157613527838361495b565b156135a257613535826104d9565b549584871061357c578461070896970361354e846104d9565b55613558846104d9565b8054860190556040518581525f5160206152035f395f51905f5290602090a3614b76565b63391434e360e21b5f526001600160a01b0383166004526024879052604485905260645ffd5b638cd22d1960e01b5f5260045ffd5b63ec442f0560e01b5f525f60045260245ffd5b634b637e8f60e11b5f525f60045260245ffd5b5f546001600160a01b031633036135ea57565b63118cdaa760e01b5f523360045260245ffd5b307f00000000000000000000000000000000000000000000000000000000000000006001600160a01b031614806136f0575b15613658577f000000000000000000000000000000000000000000000000000000000000000090565b60405160208101907f8b73c3c69bb8fe3d512ecc4cf759cc79239f7b179b0ffacaa9a75d522b39400f82527f000000000000000000000000000000000000000000000000000000000000000060408201527f000000000000000000000000000000000000000000000000000000000000000060608201524660808201523060a082015260a081526136ea60c082611219565b51902090565b507f0000000000000000000000000000000000000000000000000000000000000000461461362f565b909161373061058693604084526040840190610551565b916020818403910152610551565b90916137a36137c99361378661377a6020860135927f00000000000000000000000000000000000000000000000000000000000000009061405d565b6001600160401b031690565b61379d61379660a0870187613133565b3691612f90565b91614251565b93909283945f14613835576002905b61206d6137be82612c7a565b916080810190613133565b60045490926001600160a01b039091169083826137e557505050565b60405163043a78eb60e01b8152926020928492839182916138099160048401613719565b03915afa8015610b275761381a5750565b6138329060203d602011611773576117658183611219565b50565b6001906137b2565b91908260409103126104d557604051613855816111de565b6020808294805184520151910152565b906040828203126104d5576105869161383d565b906020909392936040835263ffffffff815116604084015281810151606084015260806138cd6138b7604084015160a08488015260e0870190610551565b6060840151868203603f190160a0880152610551565b910151151560c08401526001600160a01b03909416910152565b6001600160a01b03811680156135c4576139015f8361495b565b156135a25761390f826104d9565b5483811061395357915f80928561070896950361392b846104d9565b556007805486900390556040518581525f5160206152035f395f51905f5290602090a3614b76565b63391434e360e21b5f526001600160a01b038316600452602452604483905260645ffd5b6107089033613cc2565b5f19810191908211610e6857565b91908203918211610e6857565b65ffffffffffff81116139b45765ffffffffffff1690565b6306dfcc6560e41b5f52603060045260245260445ffd5b9060018201809211610e6857565b91908201809211610e6857565b805182101561312e5760209160051b010190565b601f8211613a0757505050565b5f5260205f20906020601f840160051c83019310613a3f575b601f0160051c01905b818110613a34575050565b5f8155600101613a29565b9091508190613a20565b91909182516001600160401b0381116111f957613a7081613a6a8454611111565b846139fa565b6020601f8211600114613aaf578190613aa09394955f92613aa4575b50508160011b915f199060031b1c19161790565b9055565b015190505f80613a8c565b601f19821690613ac2845f5260205f2090565b915f5b818110613afc57509583600195969710613ae4575b505050811b019055565b01515f1960f88460031b161c191690555f8080613ada565b9192602060018192868b015181550194019201613ac5565b602081016020825282518091526040820191602060408360051b8301019401925f915b838310613b4657505050505090565b9091929394602080613b89600193603f19868203018752606060408b5163ffffffff815116845261ffff8682015116868501520151918160408201520190610551565b97019301930191939290613b37565b5f5b8151811015613c235780613bbd6040613bb5600194866139e6565b510151613c55565b613c1d6040613bcc83866139e6565b51015163ffffffff613bde84876139e6565b5151165f526003602052613c1860405f20613c086020613bfe878a6139e6565b51015161ffff1690565b61ffff165f5260205260405f2090565b613a49565b01613b9a565b50612dd87fbe4864a8e820971c0247f5992e2da559595f7bf076a21cb5928d443d2a13b6749160405191829182613b14565b600361ffff60028301511603613c685750565b604051639a6d49cd60e01b8152602060048201529081906120c7906024830190610551565b604290613c986135fd565b906040519161190160f01b8352600283015260228201522090565b9161058693916122b69361453c565b6001600160a01b038181165f818152600d6020526040812080548685166001600160a01b03198216811790925594959490931693929184917f3134e8a2e6d97e929a7e54011ea5485d7d196dd5f0ba4d4ef95803e8e3fc257f9080a4613d27836104d9565b54601254613d3d906001600160a01b03166109b7565b93602060405180966370a0823160e01b82528180613d5e8660048301610861565b03915afa948515610b27575f95613e83575b50601754613d86906001600160a01b03166109b7565b60405163baf3510760e01b815260208180613da48660048301610861565b0381855afa908115610b27575f91613e64575b506001600160a01b031615613e5057613de99291602091604051808096819463baf3510760e01b835260048301610861565b03915afa8015610b275761070895613e0f613e1692613e1b955f91613e21575b506104d9565b54926139d9565b6139d9565b9161464f565b613e43915060203d602011613e49575b613e3b8183611219565b81019061463a565b5f613e09565b503d613e31565b5050613e1b90613e16610708955f926139d9565b613e7d915060203d602011613e4957613e3b8183611219565b5f613db7565b613e9d91955060203d6020116117a2576117938183611219565b935f613d70565b906080828203126104d557613ede906040805193613ec1856111fe565b805185526020810151613ed38161316f565b60208601520161383d565b604082015290565b613f4360809492613f5f9694613efa61325c565b506020613f078651614771565b950191825180613fc7575b50613f1c856133dd565b9251151592613f2c610f5f612c3c565b602086015260408501526060840152151585830152565b6040518095819482936302637a4560e41b845260048401613879565b03917f00000000000000000000000000000000000000000000000000000000000000006001600160a01b03165af1908115610b27575f91613f9e575090565b610586915060803d608011613fc0575b613fb88183611219565b810190613ea4565b503d613fae565b613fd09061478e565b5f613f12565b6001600160a01b03165f908152600c6020526040902080546001810190915590565b6001600160a01b03169081156134c5576001600160a01b0381169283156134b257806140507f8c5be1e5ebec7d5bd14f71427d1e84f3dd0314c0f7b2291e5b200ac8c7c3b92593855f52600660205260405f206104f2565b55604051908152602090a3565b8115614067570490565b634e487b7160e01b5f52601260045260245ffd5b81810292918115918404141715610e6857565b906020116104d5573590565b906028116104d5576020013560c01c90565b610586906001600160401b037f0000000000000000000000000000000000000000000000000000000000000000911661407b565b6001600160a01b038116156141c7575b6001600160a01b03811680156135b15761410a825f61495b565b156135a25761412361411e846007546139d9565b600755565b61412c826104d9565b8054840190556040518381525f905f5160206152035f395f51905f5290602090a36007546001600160d01b03908181116141b25750508161416d915f614b76565b7f000000000000000000000000000000000000000000000000000000000000000060075481811161419d57505090565b63279e7e1560e21b5f5260045260245260445ffd5b630e58ae9360e11b5f5260045260245260445ffd5b5061dead6140f0565b90806028116104d5576105869136916027190190602801612f90565b60405160c09190911b6001600160c01b031916602082015260e09190911b6001600160e01b0319166028820152602c8101919091529061058690829061423690604c830190612fe3565b03601f198101835282611219565b61058691611d9791614ba3565b82511580159390614294579061423661429192604051948593602085015260018060c01b03199060c01b1660408401523360488401526068830190612fe3565b91565b509060405191602083015260018060c01b03199060c01b16604082015260288152614291604882611219565b60ff81146143065760ff811690601f82116142f757604051916142e4604084611219565b6020808452838101919036833783525290565b632cd44ac360e21b5f5260045ffd5b506040516105868161129a81600a611149565b60ff811461433d5760ff811690601f82116142f757604051916142e4604084611219565b506040516105868161129a81600b611149565b600181111561058657806001600160801b821015614471575b61441761440d6144036143f96143ef6143e56143d461441e9760046144239a600160401b811015614464575b640100000000811015614457575b6201000081101561444a575b61010081101561443d575b6010811015614430575b1015614428575b60030260011c90565b6143de818b61405d565b0160011c90565b6143de818a61405d565b6143de818961405d565b6143de818861405d565b6143de818761405d565b6143de818661405d565b809361405d565b821190565b900390565b60011b6143cb565b60041c9160021b916143c4565b60081c9160041b916143ba565b60101c9160081b916143af565b60201c9160101b916143a3565b60401c9160201b91614395565b505061442361441e61441761440d6144036143f96143ef6143e56143d46144988a60801c90565b9850600160401b97506143699650505050505050565b91905b8382106144be5750505090565b9091928083169080841860011c8201809211610e6857845f5265ffffffffffff8260205f2001541665ffffffffffff8416105f146145005750925b91906144b1565b93925061450c906139cb565b916144f9565b805490816145205750505f90565b815f19810111610e68575f525f199060205f2001015460301c90565b91906fa2a8918ca85bafe22016d0b997e4df60600160ff1b0384116145a9579160209360809260ff5f9560405194855216868401526040830152606082015282805260015afa15610b27575f516001600160a01b0381161561459f57905f905f90565b505f906001905f90565b5050505f9160039190565b6004111561333f57565b6145c7816145b4565b806145d0575050565b6145d9816145b4565b600181036145f05763f645eedf60e01b5f5260045ffd5b6145f9816145b4565b60028103614614575063fce698f760e01b5f5260045260245ffd5b806146206003926145b4565b146146285750565b6335e2f38360e21b5f5260045260245ffd5b908160209103126104d55751610586816104c4565b6001600160a01b03808316939291908116908185141580614768575b614677575b5050505050565b816146fb575b50508261468c575b8080614670565b6001600160a01b03165f908152600e602052604090207fdec2bacdd2f05b59de34da9b523dff8be42e5e38e818c82fdb0bae774387a724916146d8916146d290916149dc565b90614a40565b604080516001600160d01b039384168152919092166020820152a25f8080614685565b6001600160a01b03165f908152600e602052604090207fdec2bacdd2f05b59de34da9b523dff8be42e5e38e818c82fdb0bae774387a7249061474690614740866149dc565b90614a0d565b604080516001600160d01b039384168152919092166020820152a25f8061467d565b5083151561466b565b80340361477b5790565b6304fb820960e51b5f523460045260245ffd5b60405163393f876560e21b81527f00000000000000000000000000000000000000000000000000000000000000006001600160a01b031690602081600481855afa908115610b27575f9161486c575b506001600160a01b031691821561485d576020915f9160405190848201926323b872dd60e01b84523360248401526044830152606482015260648152614824608482611219565b519082855af115612c9f575f513d6148545750803b155b6148425750565b635274afe760e01b5f5260045260245ffd5b6001141561483b565b6329b99a9560e11b5f5260045ffd5b614885915060203d602011613e4957613e3b8183611219565b5f6147dd565b805482101561312e575f5260205f2001905f90565b9391929092600281101561494e57826003036151ee576001600160a01b038481165f908152600d60205260409020541690811515828161493a575b508061492a575b61491357505050506148f76121248284614aef565b6149045761058691614aa7565b633aab01a760e11b5f5260045ffd5b6105869592939450614924906139cb565b916148a0565b506149358287614aef565b6148e2565b6001600160a01b038716141590505f6148db565b5091505061058691614aa7565b6001600160a01b0316801580156149cb575b6149c45760ff60175460a01c166149c4575f52601860205260ff60405f2054169081156149a3575b5061499e575f90565b600190565b6001600160a01b03165f9081526018602052604081205460ff169150614995565b5050600190565b506001600160a01b0382161561496d565b6001600160d01b0381116149f6576001600160d01b031690565b6306dfcc6560e41b5f5260d060045260245260445ffd5b90614a1782614512565b6001600160d01b0391821690821603908111610e68576109439165ffffffffffff421690614e01565b90614a4a82614512565b6001600160d01b0391821690821601908111610e68576109439165ffffffffffff421690614e01565b614a7d600f614512565b6001600160d01b0391821690821603908111610e6857610943904265ffffffffffff16600f614e01565b90614ab290826104f2565b9064ffffffffff600183015416420390428211610e685761058692549160028201549060ff600364ffffffffff6001860154169401541693614b1b565b614b0164ffffffffff926001926104f2565b015416151590565b670de0b6b3a764000061058691614ce8565b93909280841115614b6f578303928311610e6857600281101561333f5780614b47575061058692614f80565b600281101561333f57600103614b605761058692614ed7565b6346b2fddf60e11b5f5260045ffd5b5050505090565b9190614b828184614fbb565b614b9e57614b91828285614ff2565b614b9e576107089261513b565b505050565b9091905f1983820983820291828083109203918083039214614c2757670de0b6b3a7640000821015614c10577faccb18165bd6fe31ae1cf318dc5b51eee0e1ba569b88cd74c1773b91fac106699394670de0b6b3a7640000910990828211900360ee1b910360121c170290565b8490635173648d60e01b5f5260045260245260445ffd5b5050670de0b6b3a764000090049150565b905f19670de0b6b3a76400008309670de0b6b3a7640000830290818082109103908082039114614cd857670de0b6b3a7640000811015614cb357670de0b6b3a7640000807faccb18165bd6fe31ae1cf318dc5b51eee0e1ba569b88cd74c1773b91fac1066994950990828211900360ee1b910360121c170290565b630c740aef60e31b5f526004849052670de0b6b3a7640000602481905260445260645ffd5b50670de0b6b3a764000090049150565b5f19670de0b6b3a7640000820991670de0b6b3a7640000820291828085109403938085039414614d9a5781841015614d7957670de0b6b3a7640000829109600182190182168092046002816003021880820260020302808202600203028082026002030280820260020302808202600203028091026002030293600183805f03040190848311900302920304170290565b630c740aef60e31b5f52600452670de0b6b3a764000060245260445260645ffd5b5090610586925061405d565b8054600160401b8110156111f957614dc39160018201815561488b565b614dee57815160209092015160301b65ffffffffffff191665ffffffffffff92909216919091179055565b634e487b7160e01b5f525f60045260245ffd5b80549293928015614ead57614e18614e2391613981565b825f5260205f200190565b8054603081901c9365ffffffffffff91821692918116808411614e9e57879303614e6a5750614e6692509065ffffffffffff82549181199060301b169116179055565b9190565b915050614e6691614e8a614e7c612c2d565b65ffffffffffff9093168352565b6001600160d01b0386166020830152614da6565b632520601d60e01b5f5260045ffd5b5090614ed291614ebe614e7c612c2d565b6001600160d01b0385166020830152614da6565b5f9190565b9082158015614f78575b614f7257670de0b6b3a764000003670de0b6b3a76400008111610e6857806001841615614f63575b9260011c90815b614f3457505090614f2091614ba3565b8015614f2f5761058690614b09565b505f90565b80614f3e91614ba3565b9060018116614f52575b60011c9081614f10565b9281614f5d91614ba3565b92614f48565b50670de0b6b3a7640000614f09565b50905090565b508015614ee1565b91614f8a9161407b565b670de0b6b3a76400000390670de0b6b3a76400008211610e6857670de0b6b3a764000091614fb79161407b565b0490565b6012546001600160a01b0390811691168114918215614fdf575b505061499e575f90565b6001600160a01b03161490505f80614fd5565b6017549092919061500b906001600160a01b03166109b7565b602060405180926305e5f31960e21b8252818061502b8760048301610861565b03915afa908115610b27575f9161511c575b506001600160a01b038116806150f15750506017546150869360209161506b906001600160a01b03166109b7565b60405180809781946305e5f31960e21b835260048301610861565b03915afa928315610b27575f936150d0575b506001600160a01b038316806150b057505050505f90565b6001600160a01b038216146150c85761499e9261513b565b505050600190565b6150ea91935060203d602011613e4957613e3b8183611219565b915f615098565b9091506001600160a01b0384160361510b57505050600190565b6151149261513b565b5f80806150c8565b615135915060203d602011613e4957613e3b8183611219565b5f61503d565b9091906001600160a01b031680156151a2575b610708926001600160a01b031690811561518a575b5f908152600d6020526040808220549282529020546001600160a01b03908116911661464f565b61519b615196846149dc565b614a73565b5050615163565b6151ab826149dc565b6151b5600f614512565b6001600160d01b039182169082160193908411610e6857610708936151e4904265ffffffffffff16600f614e01565b905050925061514e565b634e487b7160e01b5f52605160045260245ffdfeddf252ad1be2c89b69c2b068fc378daa952ba7f163c4a11628f55a4df523b3efa2646970667358221220e5ca9728f00d4a7e44673220669ca34c2437810f044f4376c22944fa980da96c64736f6c634300081c003360a0806040523461016f57604081611c78803803809161001f8285610199565b83398101031261016f57610032816101d0565b906001600160a01b0390610048906020016101d0565b168015610186576040516301ffc9a760e01b81526338c7ccdb60e01b6004820152602081602481855afa90811561017b575f9161013c575b501561012a575f80546001600160a01b0319169190911790556001600160a01b0316801561011b576080819052600380546001600160a01b0319169091179055301561011b576009546001600160a01b03811661010c576001600160a01b0319163017600955604051611a9390816101e5823960805181818161054b015281816106b401526110600152f35b6336f62bb160e01b5f5260045ffd5b6334566e4b60e21b5f5260045ffd5b6347bd7c1d60e01b5f5260045260245ffd5b90506020813d602011610173575b8161015760209383610199565b8101031261016f5751801515810361016f575f610080565b5f80fd5b3d915061014a565b6040513d5f823e3d90fd5b6347bd7c1d60e01b5f525f60045260245ffd5b601f909101601f19168101906001600160401b038211908210176101bc57604052565b634e487b7160e01b5f52604160045260245ffd5b51906001600160a01b038216820361016f5756fe6080806040526004361015610012575f80fd5b5f905f3560e01c90816318160ddd146112b257508063211dc32d146112865780632378bea6146111315780632e17de78146110305780633d18b91214610f3c5780633d509c9714610d2b57806348e5d9f814610cc5578063638634ee14610ca157806369b3054b14610c3d5780637035ab9814610bea578063705b504a14610bb157806370a0823114610b7857806372f702f314610b4f57806377df7b6a14610b2a5780637bb7bed114610ad7578063a2f1b4c914610ab4578063a3cd8ac41461077d578063a694fc3a1461068c578063bcd110141461063f578063c7ec362314610618578063cecc238f14610510578063dae21dab146103e6578063e70b9e2714610393578063e9fad8ee14610279578063ebc136d01461016a5763f12297771461013c575f80fd5b3461016757602036600319011261016757602061015f61015a6112cc565b61148d565b604051908152f35b80fd5b5034610167576020366003190112610167576101846112cc565b815460405163a89f38a360e01b81526001600160a01b039091169190602081600481865afa90811561026e578491610234575b50604051632474521560e21b8152926020928492839182916101dd919060048401611428565b03915afa90811561022957602092916101fc575b506040519015158152f35b61021c9150823d8411610222575b61021481836113da565b810190611410565b5f6101f1565b503d61020a565b6040513d84823e3d90fd5b9190506020823d602011610266575b81610250602093836113da565b810103126102625790516101dd6101b7565b5f80fd5b3d9150610243565b6040513d86823e3d90fd5b50346101675780600319360112610167575f516020611a3e5f395f51905f525c6103845760015f516020611a3e5f395f51905f525d6102b73361161e565b60015433825b8281106102ef5783805f516020611a3e5f395f51905f525d33815260086020526102ec604082205433336116d8565b80f35b806102fb600192611874565b838060a01b0391549060031b1c16808652600660205260408620845f5260205260405f20548061032e575b5050016102bd565b818752600660205260408720855f526020528660405f2055610351813384611763565b6040519081527f540798df468d7b23d11f156fdb954cb19ad414d150722a7b6d55ba369dea792e60203392a35f80610326565b633ee5aeb560e01b8152600490fd5b50346101675760403660031901126101675760406103af6112cc565b916103b86112e2565b9260018060a01b031681526006602052209060018060a01b03165f52602052602060405f2054604051908152f35b5034610167576020366003190112610167576104006112cc565b815460405163605a9a6160e11b81526001600160a01b0390911690602081600481855afa90811561026e5784916104dc575b50602090610457926040518080958194632474521560e21b8352339060048401611428565b03915afa9081156104d15783916104b2575b501561049f576001600160a01b0381169081610483578280f35b61048c9061153e565b908252600a60205260408220555f808280f35b630a4510f960e31b825233600452602482fd5b6104cb915060203d6020116102225761021481836113da565b5f610469565b6040513d85823e3d90fd5b90506020813d602011610508575b816104f7602093836113da565b810103126102625751610457610432565b3d91506104ea565b50346101675760403660031901126101675761052a6112cc565b816001600160a01b03821680610549575b506102ec60243583336117a6565b7f00000000000000000000000000000000000000000000000000000000000000006001600160a01b0316803b156105ff57828091602460405180948193633e4986ef60e11b83528760048401525af19081156104d1578391610603575b50506009546001600160a01b031690813b156105ff57829160248392604051948593849263dae21dab60e01b845260048401525af18015610229571561053b57816105f0916113da565b6105fb57815f61053b565b5080fd5b8280fd5b8161060d916113da565b6105fb57815f6105a6565b5034610167576060366003190112610167576106326112cc565b5061063b6112e2565b5080f35b50346101675760203660031901126101675760209061015f90600260406001600160a01b0361066c6112cc565b169283815260048652600182822001549381526004865220015490611316565b503461016757602036600319011261016757336106b1575b6102ec60043533336117a6565b807f00000000000000000000000000000000000000000000000000000000000000006001600160a01b0316803b1561076557818091602460405180948193633e4986ef60e11b83523360048401525af1801561022957610768575b506009546001600160a01b0316803b156107655781809160246040518094819363dae21dab60e01b83523360048401525af1801561022957610750575b50506106a4565b8161075a916113da565b61016757805f610749565b50fd5b81610772916113da565b61016757805f61070c565b5034610167576060366003190112610167576107976112cc565b6024356044359160018060a01b03845416604051630ccc574960e41b8152602081600481855afa90811561097d578691610a80575b506020906107f1926040518080958194632474521560e21b8352339060048401611428565b03915afa908115610a75578591610a56575b5015610a4357600154845b8181106109fb5750506001600160a01b031680845260046020526040842060028101805492949192909190806109d0575080156109be576108987f68e3e9397770d9dfa88c0953a34e1a70a05416b3895957f5b689787a920791c491610873876119e8565b50808455604080516001600160a01b0389168152602081019290925290918291820190565b0390a15b815442811161098857506108b18154846112f8565b60018301555b6040516370a0823160e01b815230600482015290602082602481885afa91821561097d578692610949575b506108f46001840154915480936112f8565b1061093a579160209161092e7fac24935fd910bc682b5ccb1a07b718cadf8cf2f6d1404c4f3ddc3662dae40e299442600384015542611480565b9055604051908152a280f35b63010ee96f60e31b8552600485fd5b9091506020813d602011610975575b81610965602093836113da565b810103126102625751905f6108e2565b3d9150610958565b6040513d88823e3d90fd5b610993904290611473565b6109b76109af6109a96001860193845490611316565b86611480565b8354906112f8565b90556108b7565b60016203036160e11b03198652600486fd5b81151591826109f0575b50501561089c576333fec8c760e21b8552600485fd5b141590505f806109da565b80610a07600192611874565b838060a01b0391549060031b1c1680885260046020526003610a3a60408a2092610a308161148d565b6004850155611441565b9101550161080e565b630ea7d7ed60e21b845233600452602484fd5b610a6f915060203d6020116102225761021481836113da565b5f610803565b6040513d87823e3d90fd5b90506020813d602011610aac575b81610a9b602093836113da565b8101031261026257516107f16107cc565b3d9150610a8e565b50346101675780600319360112610167576020604051670de0b6b3a76400008152f35b50346101675760203660031901126101675760043590600154821015610b1b576020610b0283611874565b905460405160039290921b1c6001600160a01b03168152f35b634e23d03560e01b8152600490fd5b50346101675780600319360112610167575060206702c68af0bb140000604051908152f35b50346101675780600319360112610167576003546040516001600160a01b039091168152602090f35b5034610167576020366003190112610167576020906040906001600160a01b03610ba06112cc565b168152600883522054604051908152f35b5034610167576020366003190112610167576020906040906001600160a01b03610bd96112cc565b168152600a83522054604051908152f35b5034610167576040366003190112610167576040610c066112cc565b91610c0f6112e2565b9260018060a01b031681526005602052209060018060a01b03165f52602052602060405f2054604051908152f35b50346101675760403660031901126101675760043560038110156105fb5790602091610c676112e2565b60405191848301935060f81b835260018060601b03199060601b16602182015260158152610c966035826113da565b519020604051908152f35b503461016757602036600319011261016757602061015f610cc06112cc565b611441565b50346101675760203660031901126101675760a0906040906001600160a01b03610ced6112cc565b168152600460205220805490600181015490600281015460046003830154920154926040519485526020850152604084015260608301526080820152f35b503461016757602036600319011261016757610d456112cc565b8154604051630ccc574960e41b81526001600160a01b0390911690602081600481855afa90811561026e578491610f08575b50602090610d9c926040518080958194632474521560e21b8352339060048401611428565b03915afa9081156104d1578391610ee9575b5015610ed6576001600160a01b03168082526004602052604082206002015415610ec75780825260046020526040822054421115610eb8576040516370a0823160e01b8152306004820152602081602481855afa9081156104d1578391610e86575b5080610e745750602081610e447f66257bcef574219c04f7c05f7a1c78d599da10491294c92a5805c48b4cdf50099361190d565b5080845260048252836004604082208281558260018201558260028201558260038201550155604051908152a180f35b633007cea360e01b8352600452602482fd5b90506020813d602011610eb0575b81610ea1602093836113da565b8101031261026257515f610e10565b3d9150610e94565b63d9ba1add60e01b8252600482fd5b63064fed9960e31b8252600482fd5b630ea7d7ed60e21b825233600452602482fd5b610f02915060203d6020116102225761021481836113da565b5f610dae565b90506020813d602011610f34575b81610f23602093836113da565b810103126102625751610d9c610d77565b3d9150610f16565b50346101675780600319360112610167575f516020611a3e5f395f51905f525c6103845760015f516020611a3e5f395f51905f525d610f7a3361161e565b60015433825b828110610f9b5783805f516020611a3e5f395f51905f525d80f35b80610fa7600192611874565b838060a01b0391549060031b1c16808652600660205260408620845f5260205260405f205480610fda575b505001610f80565b818752600660205260408720855f526020528660405f2055610ffd813384611763565b6040519081527f540798df468d7b23d11f156fdb954cb19ad414d150722a7b6d55ba369dea792e60203392a35f80610fd2565b50346102625760203660031901126102625761104b3361161e565b3361105e575b6102ec60043533336116d8565b7f00000000000000000000000000000000000000000000000000000000000000006001600160a01b0316803b15610262575f8091602460405180948193633e4986ef60e11b83523360048401525af1801561112657611113575b5060095481906001600160a01b0316803b156107655781809160246040518094819363dae21dab60e01b83523360048401525af18015610229576110fe575b5050611051565b81611108916113da565b61016757805f6110f7565b61111f91505f906113da565b5f5f6110b8565b6040513d5f823e3d90fd5b346102625760403660031901126102625761114a6112cc565b5f54604051630ccc574960e41b815260243592916001600160a01b031690602081600481855afa908115611126575f91611252575b506020906111a4926040518080958194632474521560e21b8352339060048401611428565b03915afa908115611126575f91611233575b5015611220576001600160a01b03165f818152600460205260409020805491929142111561121157817fad2f86b01ed93b4b3a150d448c61a4f5d8d38075d3c0c64cc0a26fd6e1f495459260026020930155604051908152a2005b63d9ba1add60e01b5f5260045ffd5b630ea7d7ed60e21b5f523360045260245ffd5b61124c915060203d6020116102225761021481836113da565b836111b6565b90506020813d60201161127e575b8161126d602093836113da565b8101031261026257516111a461117f565b3d9150611260565b3461026257604036600319011261026257602061015f6112a46112cc565b6112ac6112e2565b9061133d565b34610262575f366003190112610262576020906007548152f35b600435906001600160a01b038216820361026257565b602435906001600160a01b038216820361026257565b8115611302570490565b634e487b7160e01b5f52601260045260245ffd5b8181029291811591840414171561132957565b634e487b7160e01b5f52601160045260245ffd5b6113d6906113a46113d0670de0b6b3a76400009460018060a01b0384165f526008602052856113aa60405f20546113a46113768561148d565b6001600160a01b039586165f818152600560209081526040808320998d168352989052969096205490611473565b90611316565b04905f52600660205260405f2060018060a01b0385165f5260205260405f205490611480565b9161153e565b0490565b90601f8019910116810190811067ffffffffffffffff8211176113fc57604052565b634e487b7160e01b5f52604160045260245ffd5b90816020910312610262575180151581036102625790565b9081526001600160a01b03909116602082015260400190565b6001600160a01b03165f8181526004602052604090205442101561146457504290565b5f52600460205260405f205490565b9190820391821161132957565b9190820180921161132957565b600754908115611522576114eb60018060a01b038216805f5260046020526114d56114bf600460405f20015494611441565b825f526004602052600360405f20015490611473565b905f526004602052600160405f20015490611316565b670de0b6b3a7640000810290808204670de0b6b3a764000014901517156113295761151f92611519916112f8565b90611480565b90565b905060018060a01b03165f526004602052600460405f20015490565b60035460405163f56a47a560e01b81526001600160a01b03928316600482018190529092909160209184916024918391165afa918215611126575f926115ea575b50805f52600a60205260405f2054156115e6576702c68af0bb14000091828102928184041490151715611329575f52600a60205260405f205490670b1a2bc2ec5000009182810292818404149015171561132957670de0b6b3a7640000916113d691611480565b5090565b9091506020813d602011611616575b81611606602093836113da565b810103126102625751905f61157f565b3d91506115f9565b600154905f5b82811061163057505050565b8061163c600192611874565b838060a01b0391549060031b1c16805f52600460205260405f2061165f8261148d565b9060048101918255600361167284611441565b910155838060a01b03851661168a575b505001611624565b611694828661133d565b825f52600660205260405f20858060a01b0387165f5260205260405f205554905f52600560205260405f20838060a01b0385165f5260205260405f20555f80611682565b9190918115611754578161174b816020936117167f0f5bb82176feb1b5e747e28471aa92156a04d9f3ab9f45f28e2d704232b93f7596600754611473565b60075560018060a01b031695865f526008855260405f20611738838254611473565b90556003546001600160a01b0316611763565b604051908152a2565b6310356e5960e21b5f5260045ffd5b60405163a9059cbb60e01b60208201526001600160a01b039290921660248301526044808301939093529181526117a49161179f6064836113da565b6118b5565b565b91908115611865576003546001600160a01b031615611856578161174b6020926117f37f9e71bc8eea02a63969f509818f2dafb9254532904319f9dbda79b67bd34a5f3d95600754611480565b60075560018060a01b031694855f526008845260405f20611815848254611480565b90556003546040516323b872dd60e01b868201526001600160a01b03928316602482015230604482015260648082018690528152911661179f6084836113da565b63417198d360e01b5f5260045ffd5b636a76ff9f60e01b5f5260045ffd5b60015481101561188c5760015f5260205f2001905f90565b634e487b7160e01b5f52603260045260245ffd5b805482101561188c575f5260205f2001905f90565b905f602091828151910182855af115611126575f513d61190457506001600160a01b0381163b155b6118e45750565b635274afe760e01b5f9081526001600160a01b0391909116600452602490fd5b600114156118dd565b5f8181526002602052604090205480156119e2575f198101818111611329576001545f1981019190821161132957818103611994575b5050506001548015611980575f190161195d8160016118a0565b8154905f199060031b1b191690556001555f5260026020525f6040812055600190565b634e487b7160e01b5f52603160045260245ffd5b6119cc6119a56119b69360016118a0565b90549060031b1c92839260016118a0565b819391549060031b91821b915f19901b19161790565b90555f52600260205260405f20555f8080611943565b50505f90565b805f52600260205260405f2054155f14611a3857600154600160401b8110156113fc57611a216119b682600185940160015560016118a0565b9055600154905f52600260205260405f2055600190565b505f9056fe9b779b17422d0df92223018b32b4d1fa46e071723d6817e2486d003becc55f00a264697066735822122083d0beec4b8185723a48897771780113826bbb1a74b4ef86fb35f7266d65080364736f6c634300081c003360a034606c57601f611bf938819003918201601f19168301916001600160401b03831184841017607057808492602094604052833981010312606c57516001600160a01b0381168103606c57608052604051611b7490816100858239608051818181605d01526101e90152f35b5f80fd5b634e487b7160e01b5f52604160045260245ffdfe6080806040526004361015610012575f80fd5b5f3560e01c9081631797cc64146103ca5750806392f1d24f146100cf578063baf35107146100905763fc0c546a14610048575f80fd5b3461008c575f36600319011261008c576040517f00000000000000000000000000000000000000000000000000000000000000006001600160a01b03168152602090f35b5f80fd5b3461008c57602036600319011261008c576001600160a01b036100b1610409565b165f525f602052602060018060a01b0360405f205416604051908152f35b3461008c57608036600319011261008c576100e8610409565b60243590604435906001600160401b03821161008c573660238301121561008c578160040135916001600160401b038311610393578260051b60405193610132602083018661041f565b8452602460208501918301019136831161008c57602401905b8282106103ba5750505060643590600282101561008c576001600160a01b039081165f81815260208190526040902054909391166103a7575f92845b82518510156101c25760208560051b8401015181018091116101ae57600190940193610187565b634e487b7160e01b5f52601160045260245ffd5b9350916040516116aa90818101918183106001600160401b038411176103935761049582397f00000000000000000000000000000000000000000000000000000000000000006001600160a01b031680835260208301869052426001600160401b031660408401526303c2670060608401529181906102446080820186610440565b8860a082015261010060c0820152610260610100820187610461565b9060e03391015203905ff08015610388575f8581526020818152604080832080546001600160a01b03199081166001600160a01b0390961695861790915584845260018352818420805490911689179055516323b872dd60e01b815233600482015260248101849052604481019890985291969283916064918391905af1801561038857610346575b508392916020957fa24f0c282d4a63b2f7e3712da4fab41eaf78fcd5ff348ea189f9d6e5430054de9261033b610330604051948594855260608b8601526060850190610461565b916040840190610440565b0390a3604051908152f35b602093929193813d602011610380575b816103636020938361041f565b8101031261008c575190811515820361008c5791929050836102e9565b3d9150610356565b6040513d5f823e3d90fd5b634e487b7160e01b5f52604160045260245ffd5b82630f7b254960e21b5f5260045260245ffd5b813581526020918201910161014b565b3461008c57602036600319011261008c576020906001600160a01b036103ee610409565b165f9081526001835260409020546001600160a01b03168152f35b600435906001600160a01b038216820361008c57565b90601f801991011681019081106001600160401b0382111761039357604052565b90600282101561044d5752565b634e487b7160e01b5f52602160045260245ffd5b90602080835192838152019201905f5b81811061047e5750505090565b825184526020938401939092019160010161047156fe610100604052346103dd576116aa8038038061001a816103e1565b9283398101610100828203126103dd5761003382610406565b9161004060208201610406565b9161004d6040830161041a565b6100596060840161041a565b60808401519060028210156103dd5760a085015160c08601519093906001600160401b0381116103dd5786019585601f880112156103dd578651956100a56100a08861042e565b6103e1565b9760208989815201906020829960051b8201019283116103dd57602001905b8282106103cd5750505060e06100da9101610406565b966001600160a01b031680156103ba575f80546001600160a01b03198116831782556001600160a01b0316907f8be0079c531659141344cd1fd0a4f28419497f9722a3daafe3b4186f6b6457e09080a360805260a05260c0526006558151906001600160401b038211610358576801000000000000000082116103585760045482600455808310610380575b5060045f5260205f205f5b83811061036c5750505050519161019661018d6100a08561042e565b9380855261042e565b602084019390601f190136853751926001600160401b03841161035857680100000000000000008411610358576005548460055580851061030b575b509260055f5260205f208160051c905f5b8281106102c65750601f198316909203918261027a575b610207858560e05261045b565b506040516111839081610507823960805181818161030b0152818161044f01528181610d860152610ff9015260a0518181816102e101528181610b130152610dc4015260c05181818161068401528181610b49015261107a015260e0518181816101870152818161052701526107000152f35b5f9586935b808810610297575050610207955001555f80806101fa565b909360206102bb6001928a88511515919060ff809160031b9316831b921b19161790565b95019701969061027f565b5f5f5b602081106102de5750828201556001016101e3565b979060206103026001928b85511515919060ff809160031b9316831b921b19161790565b920198016102c9565b6103379060055f5260205f20601f80880160051c8201928189168061033d575b500160051c0190610445565b5f6101d2565b5f198501908154905f199060200360031b1c1690555f61032b565b634e487b7160e01b5f52604160045260245ffd5b600190602084519401938184015501610171565b60045f526103b4907f8a35acfbc15ff81a39ae7d344fd709f28e8600b4aa8c65c6b64bfe7fe36bd19b908101908401610445565b5f610166565b631e4fbdf760e01b5f525f60045260245ffd5b81518152602091820191016100c4565b5f80fd5b6040519190601f01601f191682016001600160401b0381118382101761035857604052565b51906001600160a01b03821682036103dd57565b51906001600160401b03821682036103dd57565b6001600160401b0381116103585760051b60200190565b818110610450575050565b5f8155600101610445565b6001600160a01b0381165f9081525f51602061168a5f395f51905f52602052604090205460ff16610501576001600160a01b03165f8181525f51602061168a5f395f51905f5260205260408120805460ff191660011790553391907f55435dd261a4b9b3364963f7738a7a662ad9c84396d64be3365284bb7f0a5041907f2f8788117e7eff1d82e926ec794901d17c78024a50270940304540a733656f0d9080a4600190565b505f9056fe608080604052600436101561001c575b50361561001a575f80fd5b005b5f3560e01c90816301ffc9a714610bb2575080630a17b06b14610b7b5780630e17454c14610b375780630fb5a6b414610af45780631916558714610a44578063248a9ca314610a1957806324ea54f4146109df5780632f2ff15d146109a1578063330609441461098457806336568abe14610940578063715018a6146108e9578063810ec23b146108b057806386d1a69f146107be57806388fb15021461066a5780638da5cb5b1461064357806391d14854146105fa57806396132521146105dd5780639852595c146105a5578063a217fddf1461058b578063a3f8eace14610568578063aa5ef02b14610473578063be9a655514610430578063c2a5b0be146103ab578063c9514c9b14610373578063d547741f14610330578063efbe1c1c146102c2578063f2fde38b1461023d578063f8d870c814610200578063fbccedae146101ba5763fc0c546a14610172575f61000f565b346101b6575f3660031901126101b6576040517f00000000000000000000000000000000000000000000000000000000000000006001600160a01b03168152602090f35b5f80fd5b346101b6575f3660031901126101b65760206101f86101ef476101ea6001600160401b0342169160015490610c7c565b610d77565b60015490610d34565b604051908152f35b346101b65760203660031901126101b6576004356005548110156101b65760ff61022b602092610c5d565b90549060031b1c166040519015158152f35b346101b65760203660031901126101b657610256610c05565b61025e610fc9565b6001600160a01b031680156102af575f80546001600160a01b03198116831782556001600160a01b0316907f8be0079c531659141344cd1fd0a4f28419497f9722a3daafe3b4186f6b6457e09080a3005b631e4fbdf760e01b5f525f60045260245ffd5b346101b6575f3660031901126101b65760206101f86001600160401b037f0000000000000000000000000000000000000000000000000000000000000000166001600160401b037f000000000000000000000000000000000000000000000000000000000000000016610c7c565b346101b65760403660031901126101b65761001a60043561034f610c1b565b9061036e610369825f526003602052600160405f20015490565b610e7f565b610f45565b346101b65760203660031901126101b6576004356004548110156101b65761039c602091610c31565b90549060031b1c604051908152f35b346101b65760203660031901126101b6576004356103c7610e10565b600181108015610425575b610416575f198101908111610402576103ea90610c5d565b81549060031b9060ff6001831b921b19161790555f80f35b634e487b7160e01b5f52601160045260245ffd5b630d8a8dc160e21b5f5260045ffd5b5060045481116103d2565b346101b6575f3660031901126101b65760206040516001600160401b037f0000000000000000000000000000000000000000000000000000000000000000168152f35b346101b65760203660031901126101b65760043561048f610e10565b600454600160401b811015610554578060016104ae9201600455610c31565b81545f1960039290921b91821b19169083901b17905560055490600160401b821015610554576104e782600161001a9401600555610c5d565b60ff82549160031b1b19169055604051906323b872dd60e01b6020830152336024830152306044830152606482015260648152610525608482610c89565b7f00000000000000000000000000000000000000000000000000000000000000006001600160a01b03166110f5565b634e487b7160e01b5f52604160045260245ffd5b346101b65760203660031901126101b65760206101f8610586610c05565b610d41565b346101b6575f3660031901126101b65760206040515f8152f35b346101b65760203660031901126101b6576001600160a01b036105c6610c05565b165f526002602052602060405f2054604051908152f35b346101b6575f3660031901126101b6576020600154604051908152f35b346101b65760403660031901126101b657610613610c1b565b6004355f52600360205260405f209060018060a01b03165f52602052602060ff60405f2054166040519015158152f35b346101b6575f3660031901126101b6575f546040516001600160a01b039091168152602090f35b346101b6575f3660031901126101b657610682610e10565b7f000000000000000000000000000000000000000000000000000000000000000060028110156107aa5761079b575f5f6004545b808210610775576106fb60206106d4856106ce611078565b90610d34565b60405163a9059cbb60e01b8152336004820152602481019190915291829081906044820190565b03815f7f00000000000000000000000000000000000000000000000000000000000000006001600160a01b03165af1801561076a5761073657005b6020813d602011610762575b8161074f60209383610c89565b810103126101b65751801515036101b657005b3d9150610742565b6040513d5f823e3d90fd5b909161079360019161078685610c31565b90549060031b1c90610c7c565b9201906106b6565b632d09888560e11b5f5260045ffd5b634e487b7160e01b5f52602160045260245ffd5b346101b6575f3660031901126101b6576107e9476101ea6001600160401b0342169160015490610c7c565b6108006107f96001548093610d34565b8092610c7c565b6001557fda9d4e5f101b8b9b1c5b76d0c5a9f7923571acfc02376aa076b75a8c080c956b6020604051838152a15f546001600160a01b0316478211610899575f80809381935af13d15610894573d6001600160401b0381116105545760405190610874601f8201601f191660200183610c89565b81525f60203d92013e5b1561088557005b63d6bda27560e01b5f5260045ffd5b61087e565b504763cf47918160e01b5f5260045260245260445ffd5b346101b65760403660031901126101b6576108c9610c05565b602435906001600160401b03821682036101b6576020916101f891610caa565b346101b6575f3660031901126101b657610901610fc9565b5f80546001600160a01b0319811682556001600160a01b03167f8be0079c531659141344cd1fd0a4f28419497f9722a3daafe3b4186f6b6457e08280a3005b346101b65760403660031901126101b657610959610c1b565b336001600160a01b038216036109755761001a90600435610f45565b63334bd91960e11b5f5260045ffd5b346101b6575f3660031901126101b6576020600654604051908152f35b346101b65760403660031901126101b65761001a6004356109c0610c1b565b906109da610369825f526003602052600160405f20015490565b610eb9565b346101b6575f3660031901126101b65760206040517f55435dd261a4b9b3364963f7738a7a662ad9c84396d64be3365284bb7f0a50418152f35b346101b65760203660031901126101b65760206101f86004355f526003602052600160405f20015490565b346101b65760203660031901126101b65761001a610a60610c05565b610a6981610d41565b9060018060a01b0316805f52600260205260405f20610a89838254610c7c565b9055807fc0e523490dd523c33b1878c9eb14ff46991e3f5b2cd33710918618f2a39cba1b6020604051858152a25f5460405163a9059cbb60e01b60208201526001600160a01b039091166024820152604480820193909352918252610aef606483610c89565b6110f5565b346101b6575f3660031901126101b65760206040516001600160401b037f0000000000000000000000000000000000000000000000000000000000000000168152f35b346101b6575f3660031901126101b6577f000000000000000000000000000000000000000000000000000000000000000060405160028210156107aa576020918152f35b346101b65760203660031901126101b6576004356001600160401b03811681036101b6576101f86020916101ea4760015490610c7c565b346101b65760203660031901126101b6576004359063ffffffff60e01b82168092036101b657602091637965db0b60e01b8114908115610bf4575b5015158152f35b6301ffc9a760e01b14905083610bed565b600435906001600160a01b03821682036101b657565b602435906001600160a01b03821682036101b657565b600454811015610c495760045f5260205f2001905f90565b634e487b7160e01b5f52603260045260245ffd5b90600554821015610c495760055f52601f60205f208360051c01921690565b9190820180921161040257565b90601f801991011681019081106001600160401b0382111761055457604052565b6040516370a0823160e01b81523060048201526001600160a01b03919091169190602081602481865afa90811561076a575f91610d00575b506101ea90610cfd935f52600260205260405f205490610c7c565b90565b90506020813d602011610d2c575b81610d1b60209383610c89565b810103126101b65751610cfd610ce2565b3d9150610d0e565b9190820391821161040257565b610cfd90610d586001600160401b03421682610caa565b6001600160a01b039091165f9081526002602052604090205490610d34565b906001600160401b03808216907f00000000000000000000000000000000000000000000000000000000000000001680821015610db657505050505f90565b610dea906001600160401b037f00000000000000000000000000000000000000000000000000000000000000001690610c7c565b1015610df4575090565b610cfd9150610e0290610fef565b610e0a611078565b90610c7c565b335f9081527f928bc822364ea6c79099cd2e1cc1a80e662a0ebf765aa4970cedb73b2f2abb72602052604090205460ff1615610e4857565b63e2517d3f60e01b5f52336004527f55435dd261a4b9b3364963f7738a7a662ad9c84396d64be3365284bb7f0a504160245260445ffd5b5f81815260036020908152604080832033845290915290205460ff1615610ea35750565b63e2517d3f60e01b5f523360045260245260445ffd5b5f8181526003602090815260408083206001600160a01b038616845290915290205460ff16610f3f575f8181526003602090815260408083206001600160a01b0395909516808452949091528120805460ff19166001179055339291907f2f8788117e7eff1d82e926ec794901d17c78024a50270940304540a733656f0d9080a4600190565b50505f90565b5f8181526003602090815260408083206001600160a01b038616845290915290205460ff1615610f3f575f8181526003602090815260408083206001600160a01b0395909516808452949091528120805460ff19169055339291907ff6391f5c32d9c69d2a47ea670b442974b53935d1edc7fd64eb21e047a839171b9080a4600190565b5f546001600160a01b03163303610fdc57565b63118cdaa760e01b5f523360045260245ffd5b6001600160401b037f00000000000000000000000000000000000000000000000000000000000000001662ed4e00810191828211610402576001600160401b0316918210610f3f5761104091610d34565b62ed4dff198101908111610402576276a700900460028101809111610402576006548181029181830414901517156104025760031c90565b7f000000000000000000000000000000000000000000000000000000000000000060028110156107aa576110f1575f5f600454905b8181106110b957505090565b60ff6110c482610c5d565b90549060031b1c166110d9575b6001016110ad565b916110e960019161078685610c31565b9290506110d1565b5f90565b905f602091828151910182855af11561076a575f513d61114457506001600160a01b0381163b155b6111245750565b635274afe760e01b5f9081526001600160a01b0391909116600452602490fd5b6001141561111d56fea2646970667358221220cedd94d15f822c3a3cae2ebee45df33d2454c317c1bbb59aa979e937d0ed57d364736f6c634300081c0033928bc822364ea6c79099cd2e1cc1a80e662a0ebf765aa4970cedb73b2f2abb72a26469706673582212207d7cbb5ad92729be8934d15be7f940aade2e0e25b558865a0e69fd942388b3d564736f6c634300081c00338d1108e10bcb7c27dddfc02ed9d693a074039d026cf4ea4240b40f7d581ac801dec2bacdd2f05b59de34da9b523dff8be42e5e38e818c82fdb0bae774387a724",
  "linkReferences": {},
  "deployedLinkReferences": {}
}