{
  "_format": "hh-sol-artifact-1",
  "contractName": "SummerGovernor",
  "sourceName": "src/contracts/SummerGovernor.sol",
  "abi": [
    {
      "inputs": [
        {
          "components": [
            {
              "internalType": "contract ISummerToken",
              "name": "token",
              "type": "address"
            },
            {
              "internalType": "contract SummerTimelockController",
              "name": "timelock",
              "type": "address"
            },
            {
              "internalType": "address",
              "name": "accessManager",
              "type": "address"
            },
            {
              "internalType": "uint48",
              "name": "votingDelay",
              "type": "uint48"
            },
            {
              "internalType": "uint32",
              "name": "votingPeriod",
              "type": "uint32"
            },
            {
              "internalType": "uint256",
              "name": "proposalThreshold",
              "type": "uint256"
            },
            {
              "internalType": "uint256",
              "name": "quorumFraction",
              "type": "uint256"
            },
            {
              "internalType": "address",
              "name": "endpoint",
              "type": "address"
            },
            {
              "internalType": "uint32",
              "name": "hubChainId",
              "type": "uint32"
            },
            {
              "internalType": "address",
              "name": "initialOwner",
              "type": "address"
            }
          ],
          "internalType": "struct ISummerGovernor.GovernorParams",
          "name": "params",
          "type": "tuple"
        }
      ],
      "stateMutability": "nonpayable",
      "type": "constructor"
    },
    {
      "inputs": [],
      "name": "CheckpointUnorderedInsertion",
      "type": "error"
    },
    {
      "inputs": [],
      "name": "DecayController__RewardsManagerAlreadySet",
      "type": "error"
    },
    {
      "inputs": [],
      "name": "DecayController__ZeroAddress",
      "type": "error"
    },
    {
      "inputs": [],
      "name": "FailedCall",
      "type": "error"
    },
    {
      "inputs": [
        {
          "internalType": "address",
          "name": "voter",
          "type": "address"
        }
      ],
      "name": "GovernorAlreadyCastVote",
      "type": "error"
    },
    {
      "inputs": [
        {
          "internalType": "uint256",
          "name": "proposalId",
          "type": "uint256"
        }
      ],
      "name": "GovernorAlreadyQueuedProposal",
      "type": "error"
    },
    {
      "inputs": [],
      "name": "GovernorDisabledDeposit",
      "type": "error"
    },
    {
      "inputs": [
        {
          "internalType": "address",
          "name": "proposer",
          "type": "address"
        },
        {
          "internalType": "uint256",
          "name": "votes",
          "type": "uint256"
        },
        {
          "internalType": "uint256",
          "name": "threshold",
          "type": "uint256"
        }
      ],
      "name": "GovernorInsufficientProposerVotes",
      "type": "error"
    },
    {
      "inputs": [
        {
          "internalType": "uint256",
          "name": "targets",
          "type": "uint256"
        },
        {
          "internalType": "uint256",
          "name": "calldatas",
          "type": "uint256"
        },
        {
          "internalType": "uint256",
          "name": "values",
          "type": "uint256"
        }
      ],
      "name": "GovernorInvalidProposalLength",
      "type": "error"
    },
    {
      "inputs": [
        {
          "internalType": "uint256",
          "name": "quorumNumerator",
          "type": "uint256"
        },
        {
          "internalType": "uint256",
          "name": "quorumDenominator",
          "type": "uint256"
        }
      ],
      "name": "GovernorInvalidQuorumFraction",
      "type": "error"
    },
    {
      "inputs": [
        {
          "internalType": "address",
          "name": "voter",
          "type": "address"
        }
      ],
      "name": "GovernorInvalidSignature",
      "type": "error"
    },
    {
      "inputs": [],
      "name": "GovernorInvalidVoteParams",
      "type": "error"
    },
    {
      "inputs": [],
      "name": "GovernorInvalidVoteType",
      "type": "error"
    },
    {
      "inputs": [
        {
          "internalType": "uint256",
          "name": "votingPeriod",
          "type": "uint256"
        }
      ],
      "name": "GovernorInvalidVotingPeriod",
      "type": "error"
    },
    {
      "inputs": [
        {
          "internalType": "uint256",
          "name": "proposalId",
          "type": "uint256"
        }
      ],
      "name": "GovernorNonexistentProposal",
      "type": "error"
    },
    {
      "inputs": [
        {
          "internalType": "uint256",
          "name": "proposalId",
          "type": "uint256"
        }
      ],
      "name": "GovernorNotQueuedProposal",
      "type": "error"
    },
    {
      "inputs": [],
      "name": "GovernorNotSet",
      "type": "error"
    },
    {
      "inputs": [
        {
          "internalType": "address",
          "name": "account",
          "type": "address"
        }
      ],
      "name": "GovernorOnlyExecutor",
      "type": "error"
    },
    {
      "inputs": [
        {
          "internalType": "address",
          "name": "account",
          "type": "address"
        }
      ],
      "name": "GovernorOnlyProposer",
      "type": "error"
    },
    {
      "inputs": [],
      "name": "GovernorQueueNotImplemented",
      "type": "error"
    },
    {
      "inputs": [
        {
          "internalType": "address",
          "name": "proposer",
          "type": "address"
        }
      ],
      "name": "GovernorRestrictedProposer",
      "type": "error"
    },
    {
      "inputs": [
        {
          "internalType": "uint256",
          "name": "proposalId",
          "type": "uint256"
        },
        {
          "internalType": "enum IGovernor.ProposalState",
          "name": "current",
          "type": "uint8"
        },
        {
          "internalType": "bytes32",
          "name": "expectedStates",
          "type": "bytes32"
        }
      ],
      "name": "GovernorUnexpectedProposalState",
      "type": "error"
    },
    {
      "inputs": [
        {
          "internalType": "address",
          "name": "account",
          "type": "address"
        },
        {
          "internalType": "uint256",
          "name": "currentNonce",
          "type": "uint256"
        }
      ],
      "name": "InvalidAccountNonce",
      "type": "error"
    },
    {
      "inputs": [],
      "name": "InvalidDelegate",
      "type": "error"
    },
    {
      "inputs": [],
      "name": "InvalidEndpointCall",
      "type": "error"
    },
    {
      "inputs": [],
      "name": "InvalidShortString",
      "type": "error"
    },
    {
      "inputs": [],
      "name": "LzTokenUnavailable",
      "type": "error"
    },
    {
      "inputs": [
        {
          "internalType": "uint32",
          "name": "eid",
          "type": "uint32"
        }
      ],
      "name": "NoPeer",
      "type": "error"
    },
    {
      "inputs": [
        {
          "internalType": "uint256",
          "name": "msgValue",
          "type": "uint256"
        }
      ],
      "name": "NotEnoughNative",
      "type": "error"
    },
    {
      "inputs": [
        {
          "internalType": "address",
          "name": "addr",
          "type": "address"
        }
      ],
      "name": "OnlyEndpoint",
      "type": "error"
    },
    {
      "inputs": [
        {
          "internalType": "uint32",
          "name": "eid",
          "type": "uint32"
        },
        {
          "internalType": "bytes32",
          "name": "sender",
          "type": "bytes32"
        }
      ],
      "name": "OnlyPeer",
      "type": "error"
    },
    {
      "inputs": [
        {
          "internalType": "address",
          "name": "owner",
          "type": "address"
        }
      ],
      "name": "OwnableInvalidOwner",
      "type": "error"
    },
    {
      "inputs": [
        {
          "internalType": "address",
          "name": "account",
          "type": "address"
        }
      ],
      "name": "OwnableUnauthorizedAccount",
      "type": "error"
    },
    {
      "inputs": [
        {
          "internalType": "uint8",
          "name": "bits",
          "type": "uint8"
        },
        {
          "internalType": "uint256",
          "name": "value",
          "type": "uint256"
        }
      ],
      "name": "SafeCastOverflowedUintDowncast",
      "type": "error"
    },
    {
      "inputs": [
        {
          "internalType": "address",
          "name": "token",
          "type": "address"
        }
      ],
      "name": "SafeERC20FailedOperation",
      "type": "error"
    },
    {
      "inputs": [
        {
          "internalType": "string",
          "name": "str",
          "type": "string"
        }
      ],
      "name": "StringTooLong",
      "type": "error"
    },
    {
      "inputs": [],
      "name": "SummerGovernorCannotExecuteOnHubChain",
      "type": "error"
    },
    {
      "inputs": [],
      "name": "SummerGovernorInvalidCaller",
      "type": "error"
    },
    {
      "inputs": [],
      "name": "SummerGovernorInvalidPeerArrays",
      "type": "error"
    },
    {
      "inputs": [
        {
          "internalType": "uint256",
          "name": "proposalThreshold",
          "type": "uint256"
        },
        {
          "internalType": "uint256",
          "name": "minThreshold",
          "type": "uint256"
        },
        {
          "internalType": "uint256",
          "name": "maxThreshold",
          "type": "uint256"
        }
      ],
      "name": "SummerGovernorInvalidProposalThreshold",
      "type": "error"
    },
    {
      "inputs": [
        {
          "internalType": "address",
          "name": "trustedRemote",
          "type": "address"
        }
      ],
      "name": "SummerGovernorInvalidTrustedRemote",
      "type": "error"
    },
    {
      "inputs": [
        {
          "internalType": "uint256",
          "name": "chainId",
          "type": "uint256"
        },
        {
          "internalType": "uint256",
          "name": "hubChainId",
          "type": "uint256"
        }
      ],
      "name": "SummerGovernorNotHubChain",
      "type": "error"
    },
    {
      "inputs": [
        {
          "internalType": "address",
          "name": "proposer",
          "type": "address"
        },
        {
          "internalType": "uint256",
          "name": "votes",
          "type": "uint256"
        },
        {
          "internalType": "uint256",
          "name": "threshold",
          "type": "uint256"
        }
      ],
      "name": "SummerGovernorProposerBelowThresholdAndNotGuardian",
      "type": "error"
    },
    {
      "inputs": [
        {
          "internalType": "address",
          "name": "caller",
          "type": "address"
        },
        {
          "internalType": "address",
          "name": "proposer",
          "type": "address"
        },
        {
          "internalType": "uint256",
          "name": "votes",
          "type": "uint256"
        },
        {
          "internalType": "uint256",
          "name": "threshold",
          "type": "uint256"
        }
      ],
      "name": "SummerGovernorUnauthorizedCancellation",
      "type": "error"
    },
    {
      "anonymous": false,
      "inputs": [],
      "name": "EIP712DomainChanged",
      "type": "event"
    },
    {
      "anonymous": false,
      "inputs": [
        {
          "indexed": true,
          "internalType": "address",
          "name": "previousOwner",
          "type": "address"
        },
        {
          "indexed": true,
          "internalType": "address",
          "name": "newOwner",
          "type": "address"
        }
      ],
      "name": "OwnershipTransferred",
      "type": "event"
    },
    {
      "anonymous": false,
      "inputs": [
        {
          "indexed": false,
          "internalType": "uint32",
          "name": "eid",
          "type": "uint32"
        },
        {
          "indexed": false,
          "internalType": "bytes32",
          "name": "peer",
          "type": "bytes32"
        }
      ],
      "name": "PeerSet",
      "type": "event"
    },
    {
      "anonymous": false,
      "inputs": [
        {
          "indexed": false,
          "internalType": "uint256",
          "name": "proposalId",
          "type": "uint256"
        }
      ],
      "name": "ProposalCanceled",
      "type": "event"
    },
    {
      "anonymous": false,
      "inputs": [
        {
          "indexed": false,
          "internalType": "uint256",
          "name": "proposalId",
          "type": "uint256"
        },
        {
          "indexed": false,
          "internalType": "address",
          "name": "proposer",
          "type": "address"
        },
        {
          "indexed": false,
          "internalType": "address[]",
          "name": "targets",
          "type": "address[]"
        },
        {
          "indexed": false,
          "internalType": "uint256[]",
          "name": "values",
          "type": "uint256[]"
        },
        {
          "indexed": false,
          "internalType": "string[]",
          "name": "signatures",
          "type": "string[]"
        },
        {
          "indexed": false,
          "internalType": "bytes[]",
          "name": "calldatas",
          "type": "bytes[]"
        },
        {
          "indexed": false,
          "internalType": "uint256",
          "name": "voteStart",
          "type": "uint256"
        },
        {
          "indexed": false,
          "internalType": "uint256",
          "name": "voteEnd",
          "type": "uint256"
        },
        {
          "indexed": false,
          "internalType": "string",
          "name": "description",
          "type": "string"
        }
      ],
      "name": "ProposalCreated",
      "type": "event"
    },
    {
      "anonymous": false,
      "inputs": [
        {
          "indexed": false,
          "internalType": "uint256",
          "name": "proposalId",
          "type": "uint256"
        }
      ],
      "name": "ProposalExecuted",
      "type": "event"
    },
    {
      "anonymous": false,
      "inputs": [
        {
          "indexed": false,
          "internalType": "uint256",
          "name": "proposalId",
          "type": "uint256"
        },
        {
          "indexed": false,
          "internalType": "uint256",
          "name": "etaSeconds",
          "type": "uint256"
        }
      ],
      "name": "ProposalQueued",
      "type": "event"
    },
    {
      "anonymous": false,
      "inputs": [
        {
          "indexed": true,
          "internalType": "uint256",
          "name": "proposalId",
          "type": "uint256"
        },
        {
          "indexed": true,
          "internalType": "uint32",
          "name": "srcEid",
          "type": "uint32"
        }
      ],
      "name": "ProposalReceivedCrossChain",
      "type": "event"
    },
    {
      "anonymous": false,
      "inputs": [
        {
          "indexed": true,
          "internalType": "uint256",
          "name": "proposalId",
          "type": "uint256"
        },
        {
          "indexed": true,
          "internalType": "uint32",
          "name": "dstEid",
          "type": "uint32"
        }
      ],
      "name": "ProposalSentCrossChain",
      "type": "event"
    },
    {
      "anonymous": false,
      "inputs": [
        {
          "indexed": false,
          "internalType": "uint256",
          "name": "oldProposalThreshold",
          "type": "uint256"
        },
        {
          "indexed": false,
          "internalType": "uint256",
          "name": "newProposalThreshold",
          "type": "uint256"
        }
      ],
      "name": "ProposalThresholdSet",
      "type": "event"
    },
    {
      "anonymous": false,
      "inputs": [
        {
          "indexed": false,
          "internalType": "uint256",
          "name": "oldQuorumNumerator",
          "type": "uint256"
        },
        {
          "indexed": false,
          "internalType": "uint256",
          "name": "newQuorumNumerator",
          "type": "uint256"
        }
      ],
      "name": "QuorumNumeratorUpdated",
      "type": "event"
    },
    {
      "anonymous": false,
      "inputs": [
        {
          "indexed": false,
          "internalType": "address",
          "name": "oldTimelock",
          "type": "address"
        },
        {
          "indexed": false,
          "internalType": "address",
          "name": "newTimelock",
          "type": "address"
        }
      ],
      "name": "TimelockChange",
      "type": "event"
    },
    {
      "anonymous": false,
      "inputs": [
        {
          "indexed": true,
          "internalType": "address",
          "name": "voter",
          "type": "address"
        },
        {
          "indexed": false,
          "internalType": "uint256",
          "name": "proposalId",
          "type": "uint256"
        },
        {
          "indexed": false,
          "internalType": "uint8",
          "name": "support",
          "type": "uint8"
        },
        {
          "indexed": false,
          "internalType": "uint256",
          "name": "weight",
          "type": "uint256"
        },
        {
          "indexed": false,
          "internalType": "string",
          "name": "reason",
          "type": "string"
        }
      ],
      "name": "VoteCast",
      "type": "event"
    },
    {
      "anonymous": false,
      "inputs": [
        {
          "indexed": true,
          "internalType": "address",
          "name": "voter",
          "type": "address"
        },
        {
          "indexed": false,
          "internalType": "uint256",
          "name": "proposalId",
          "type": "uint256"
        },
        {
          "indexed": false,
          "internalType": "uint8",
          "name": "support",
          "type": "uint8"
        },
        {
          "indexed": false,
          "internalType": "uint256",
          "name": "weight",
          "type": "uint256"
        },
        {
          "indexed": false,
          "internalType": "string",
          "name": "reason",
          "type": "string"
        },
        {
          "indexed": false,
          "internalType": "bytes",
          "name": "params",
          "type": "bytes"
        }
      ],
      "name": "VoteCastWithParams",
      "type": "event"
    },
    {
      "anonymous": false,
      "inputs": [
        {
          "indexed": false,
          "internalType": "uint256",
          "name": "oldVotingDelay",
          "type": "uint256"
        },
        {
          "indexed": false,
          "internalType": "uint256",
          "name": "newVotingDelay",
          "type": "uint256"
        }
      ],
      "name": "VotingDelaySet",
      "type": "event"
    },
    {
      "anonymous": false,
      "inputs": [
        {
          "indexed": false,
          "internalType": "uint256",
          "name": "oldVotingPeriod",
          "type": "uint256"
        },
        {
          "indexed": false,
          "internalType": "uint256",
          "name": "newVotingPeriod",
          "type": "uint256"
        }
      ],
      "name": "VotingPeriodSet",
      "type": "event"
    },
    {
      "inputs": [],
      "name": "BALLOT_TYPEHASH",
      "outputs": [
        {
          "internalType": "bytes32",
          "name": "",
          "type": "bytes32"
        }
      ],
      "stateMutability": "view",
      "type": "function"
    },
    {
      "inputs": [],
      "name": "CLOCK_MODE",
      "outputs": [
        {
          "internalType": "string",
          "name": "",
          "type": "string"
        }
      ],
      "stateMutability": "view",
      "type": "function"
    },
    {
      "inputs": [],
      "name": "COUNTING_MODE",
      "outputs": [
        {
          "internalType": "string",
          "name": "",
          "type": "string"
        }
      ],
      "stateMutability": "pure",
      "type": "function"
    },
    {
      "inputs": [],
      "name": "EXTENDED_BALLOT_TYPEHASH",
      "outputs": [
        {
          "internalType": "bytes32",
          "name": "",
          "type": "bytes32"
        }
      ],
      "stateMutability": "view",
      "type": "function"
    },
    {
      "inputs": [],
      "name": "MAX_PROPOSAL_THRESHOLD",
      "outputs": [
        {
          "internalType": "uint256",
          "name": "",
          "type": "uint256"
        }
      ],
      "stateMutability": "view",
      "type": "function"
    },
    {
      "inputs": [],
      "name": "MIN_PROPOSAL_THRESHOLD",
      "outputs": [
        {
          "internalType": "uint256",
          "name": "",
          "type": "uint256"
        }
      ],
      "stateMutability": "view",
      "type": "function"
    },
    {
      "inputs": [],
      "name": "accessManager",
      "outputs": [
        {
          "internalType": "address",
          "name": "",
          "type": "address"
        }
      ],
      "stateMutability": "view",
      "type": "function"
    },
    {
      "inputs": [
        {
          "components": [
            {
              "internalType": "uint32",
              "name": "srcEid",
              "type": "uint32"
            },
            {
              "internalType": "bytes32",
              "name": "sender",
              "type": "bytes32"
            },
            {
              "internalType": "uint64",
              "name": "nonce",
              "type": "uint64"
            }
          ],
          "internalType": "struct Origin",
          "name": "origin",
          "type": "tuple"
        }
      ],
      "name": "allowInitializePath",
      "outputs": [
        {
          "internalType": "bool",
          "name": "",
          "type": "bool"
        }
      ],
      "stateMutability": "view",
      "type": "function"
    },
    {
      "inputs": [
        {
          "internalType": "address[]",
          "name": "targets",
          "type": "address[]"
        },
        {
          "internalType": "uint256[]",
          "name": "values",
          "type": "uint256[]"
        },
        {
          "internalType": "bytes[]",
          "name": "calldatas",
          "type": "bytes[]"
        },
        {
          "internalType": "bytes32",
          "name": "descriptionHash",
          "type": "bytes32"
        }
      ],
      "name": "cancel",
      "outputs": [
        {
          "internalType": "uint256",
          "name": "",
          "type": "uint256"
        }
      ],
      "stateMutability": "nonpayable",
      "type": "function"
    },
    {
      "inputs": [
        {
          "internalType": "uint256",
          "name": "proposalId",
          "type": "uint256"
        },
        {
          "internalType": "uint8",
          "name": "support",
          "type": "uint8"
        }
      ],
      "name": "castVote",
      "outputs": [
        {
          "internalType": "uint256",
          "name": "",
          "type": "uint256"
        }
      ],
      "stateMutability": "nonpayable",
      "type": "function"
    },
    {
      "inputs": [
        {
          "internalType": "uint256",
          "name": "proposalId",
          "type": "uint256"
        },
        {
          "internalType": "uint8",
          "name": "support",
          "type": "uint8"
        },
        {
          "internalType": "address",
          "name": "voter",
          "type": "address"
        },
        {
          "internalType": "bytes",
          "name": "signature",
          "type": "bytes"
        }
      ],
      "name": "castVoteBySig",
      "outputs": [
        {
          "internalType": "uint256",
          "name": "",
          "type": "uint256"
        }
      ],
      "stateMutability": "nonpayable",
      "type": "function"
    },
    {
      "inputs": [
        {
          "internalType": "uint256",
          "name": "proposalId",
          "type": "uint256"
        },
        {
          "internalType": "uint8",
          "name": "support",
          "type": "uint8"
        },
        {
          "internalType": "string",
          "name": "reason",
          "type": "string"
        }
      ],
      "name": "castVoteWithReason",
      "outputs": [
        {
          "internalType": "uint256",
          "name": "",
          "type": "uint256"
        }
      ],
      "stateMutability": "nonpayable",
      "type": "function"
    },
    {
      "inputs": [
        {
          "internalType": "uint256",
          "name": "proposalId",
          "type": "uint256"
        },
        {
          "internalType": "uint8",
          "name": "support",
          "type": "uint8"
        },
        {
          "internalType": "string",
          "name": "reason",
          "type": "string"
        },
        {
          "internalType": "bytes",
          "name": "params",
          "type": "bytes"
        }
      ],
      "name": "castVoteWithReasonAndParams",
      "outputs": [
        {
          "internalType": "uint256",
          "name": "",
          "type": "uint256"
        }
      ],
      "stateMutability": "nonpayable",
      "type": "function"
    },
    {
      "inputs": [
        {
          "internalType": "uint256",
          "name": "proposalId",
          "type": "uint256"
        },
        {
          "internalType": "uint8",
          "name": "support",
          "type": "uint8"
        },
        {
          "internalType": "address",
          "name": "voter",
          "type": "address"
        },
        {
          "internalType": "string",
          "name": "reason",
          "type": "string"
        },
        {
          "internalType": "bytes",
          "name": "params",
          "type": "bytes"
        },
        {
          "internalType": "bytes",
          "name": "signature",
          "type": "bytes"
        }
      ],
      "name": "castVoteWithReasonAndParamsBySig",
      "outputs": [
        {
          "internalType": "uint256",
          "name": "",
          "type": "uint256"
        }
      ],
      "stateMutability": "nonpayable",
      "type": "function"
    },
    {
      "inputs": [],
      "name": "clock",
      "outputs": [
        {
          "internalType": "uint48",
          "name": "",
          "type": "uint48"
        }
      ],
      "stateMutability": "view",
      "type": "function"
    },
    {
      "inputs": [],
      "name": "eip712Domain",
      "outputs": [
        {
          "internalType": "bytes1",
          "name": "fields",
          "type": "bytes1"
        },
        {
          "internalType": "string",
          "name": "name",
          "type": "string"
        },
        {
          "internalType": "string",
          "name": "version",
          "type": "string"
        },
        {
          "internalType": "uint256",
          "name": "chainId",
          "type": "uint256"
        },
        {
          "internalType": "address",
          "name": "verifyingContract",
          "type": "address"
        },
        {
          "internalType": "bytes32",
          "name": "salt",
          "type": "bytes32"
        },
        {
          "internalType": "uint256[]",
          "name": "extensions",
          "type": "uint256[]"
        }
      ],
      "stateMutability": "view",
      "type": "function"
    },
    {
      "inputs": [],
      "name": "endpoint",
      "outputs": [
        {
          "internalType": "contract ILayerZeroEndpointV2",
          "name": "",
          "type": "address"
        }
      ],
      "stateMutability": "view",
      "type": "function"
    },
    {
      "inputs": [
        {
          "internalType": "address[]",
          "name": "targets",
          "type": "address[]"
        },
        {
          "internalType": "uint256[]",
          "name": "values",
          "type": "uint256[]"
        },
        {
          "internalType": "bytes[]",
          "name": "calldatas",
          "type": "bytes[]"
        },
        {
          "internalType": "bytes32",
          "name": "descriptionHash",
          "type": "bytes32"
        }
      ],
      "name": "execute",
      "outputs": [
        {
          "internalType": "uint256",
          "name": "",
          "type": "uint256"
        }
      ],
      "stateMutability": "payable",
      "type": "function"
    },
    {
      "inputs": [
        {
          "internalType": "address",
          "name": "account",
          "type": "address"
        },
        {
          "internalType": "uint256",
          "name": "timepoint",
          "type": "uint256"
        }
      ],
      "name": "getVotes",
      "outputs": [
        {
          "internalType": "uint256",
          "name": "",
          "type": "uint256"
        }
      ],
      "stateMutability": "view",
      "type": "function"
    },
    {
      "inputs": [
        {
          "internalType": "address",
          "name": "account",
          "type": "address"
        },
        {
          "internalType": "uint256",
          "name": "timepoint",
          "type": "uint256"
        },
        {
          "internalType": "bytes",
          "name": "params",
          "type": "bytes"
        }
      ],
      "name": "getVotesWithParams",
      "outputs": [
        {
          "internalType": "uint256",
          "name": "",
          "type": "uint256"
        }
      ],
      "stateMutability": "view",
      "type": "function"
    },
    {
      "inputs": [
        {
          "internalType": "uint256",
          "name": "proposalId",
          "type": "uint256"
        },
        {
          "internalType": "address",
          "name": "account",
          "type": "address"
        }
      ],
      "name": "hasVoted",
      "outputs": [
        {
          "internalType": "bool",
          "name": "",
          "type": "bool"
        }
      ],
      "stateMutability": "view",
      "type": "function"
    },
    {
      "inputs": [
        {
          "internalType": "address[]",
          "name": "targets",
          "type": "address[]"
        },
        {
          "internalType": "uint256[]",
          "name": "values",
          "type": "uint256[]"
        },
        {
          "internalType": "bytes[]",
          "name": "calldatas",
          "type": "bytes[]"
        },
        {
          "internalType": "bytes32",
          "name": "descriptionHash",
          "type": "bytes32"
        }
      ],
      "name": "hashProposal",
      "outputs": [
        {
          "internalType": "uint256",
          "name": "",
          "type": "uint256"
        }
      ],
      "stateMutability": "pure",
      "type": "function"
    },
    {
      "inputs": [],
      "name": "hubChainId",
      "outputs": [
        {
          "internalType": "uint32",
          "name": "",
          "type": "uint32"
        }
      ],
      "stateMutability": "view",
      "type": "function"
    },
    {
      "inputs": [
        {
          "internalType": "address",
          "name": "account",
          "type": "address"
        }
      ],
      "name": "isActiveGuardian",
      "outputs": [
        {
          "internalType": "bool",
          "name": "",
          "type": "bool"
        }
      ],
      "stateMutability": "view",
      "type": "function"
    },
    {
      "inputs": [
        {
          "components": [
            {
              "internalType": "uint32",
              "name": "srcEid",
              "type": "uint32"
            },
            {
              "internalType": "bytes32",
              "name": "sender",
              "type": "bytes32"
            },
            {
              "internalType": "uint64",
              "name": "nonce",
              "type": "uint64"
            }
          ],
          "internalType": "struct Origin",
          "name": "",
          "type": "tuple"
        },
        {
          "internalType": "bytes",
          "name": "",
          "type": "bytes"
        },
        {
          "internalType": "address",
          "name": "_sender",
          "type": "address"
        }
      ],
      "name": "isComposeMsgSender",
      "outputs": [
        {
          "internalType": "bool",
          "name": "",
          "type": "bool"
        }
      ],
      "stateMutability": "view",
      "type": "function"
    },
    {
      "inputs": [
        {
          "components": [
            {
              "internalType": "uint32",
              "name": "srcEid",
              "type": "uint32"
            },
            {
              "internalType": "bytes32",
              "name": "sender",
              "type": "bytes32"
            },
            {
              "internalType": "uint64",
              "name": "nonce",
              "type": "uint64"
            }
          ],
          "internalType": "struct Origin",
          "name": "_origin",
          "type": "tuple"
        },
        {
          "internalType": "bytes32",
          "name": "_guid",
          "type": "bytes32"
        },
        {
          "internalType": "bytes",
          "name": "_message",
          "type": "bytes"
        },
        {
          "internalType": "address",
          "name": "_executor",
          "type": "address"
        },
        {
          "internalType": "bytes",
          "name": "_extraData",
          "type": "bytes"
        }
      ],
      "name": "lzReceive",
      "outputs": [],
      "stateMutability": "payable",
      "type": "function"
    },
    {
      "inputs": [],
      "name": "name",
      "outputs": [
        {
          "internalType": "string",
          "name": "",
          "type": "string"
        }
      ],
      "stateMutability": "view",
      "type": "function"
    },
    {
      "inputs": [
        {
          "internalType": "uint32",
          "name": "",
          "type": "uint32"
        },
        {
          "internalType": "bytes32",
          "name": "",
          "type": "bytes32"
        }
      ],
      "name": "nextNonce",
      "outputs": [
        {
          "internalType": "uint64",
          "name": "nonce",
          "type": "uint64"
        }
      ],
      "stateMutability": "view",
      "type": "function"
    },
    {
      "inputs": [
        {
          "internalType": "address",
          "name": "owner",
          "type": "address"
        }
      ],
      "name": "nonces",
      "outputs": [
        {
          "internalType": "uint256",
          "name": "",
          "type": "uint256"
        }
      ],
      "stateMutability": "view",
      "type": "function"
    },
    {
      "inputs": [],
      "name": "oAppVersion",
      "outputs": [
        {
          "internalType": "uint64",
          "name": "senderVersion",
          "type": "uint64"
        },
        {
          "internalType": "uint64",
          "name": "receiverVersion",
          "type": "uint64"
        }
      ],
      "stateMutability": "pure",
      "type": "function"
    },
    {
      "inputs": [
        {
          "internalType": "address",
          "name": "",
          "type": "address"
        },
        {
          "internalType": "address",
          "name": "",
          "type": "address"
        },
        {
          "internalType": "uint256[]",
          "name": "",
          "type": "uint256[]"
        },
        {
          "internalType": "uint256[]",
          "name": "",
          "type": "uint256[]"
        },
        {
          "internalType": "bytes",
          "name": "",
          "type": "bytes"
        }
      ],
      "name": "onERC1155BatchReceived",
      "outputs": [
        {
          "internalType": "bytes4",
          "name": "",
          "type": "bytes4"
        }
      ],
      "stateMutability": "nonpayable",
      "type": "function"
    },
    {
      "inputs": [
        {
          "internalType": "address",
          "name": "",
          "type": "address"
        },
        {
          "internalType": "address",
          "name": "",
          "type": "address"
        },
        {
          "internalType": "uint256",
          "name": "",
          "type": "uint256"
        },
        {
          "internalType": "uint256",
          "name": "",
          "type": "uint256"
        },
        {
          "internalType": "bytes",
          "name": "",
          "type": "bytes"
        }
      ],
      "name": "onERC1155Received",
      "outputs": [
        {
          "internalType": "bytes4",
          "name": "",
          "type": "bytes4"
        }
      ],
      "stateMutability": "nonpayable",
      "type": "function"
    },
    {
      "inputs": [
        {
          "internalType": "address",
          "name": "",
          "type": "address"
        },
        {
          "internalType": "address",
          "name": "",
          "type": "address"
        },
        {
          "internalType": "uint256",
          "name": "",
          "type": "uint256"
        },
        {
          "internalType": "bytes",
          "name": "",
          "type": "bytes"
        }
      ],
      "name": "onERC721Received",
      "outputs": [
        {
          "internalType": "bytes4",
          "name": "",
          "type": "bytes4"
        }
      ],
      "stateMutability": "nonpayable",
      "type": "function"
    },
    {
      "inputs": [],
      "name": "owner",
      "outputs": [
        {
          "internalType": "address",
          "name": "",
          "type": "address"
        }
      ],
      "stateMutability": "view",
      "type": "function"
    },
    {
      "inputs": [
        {
          "internalType": "uint32",
          "name": "eid",
          "type": "uint32"
        }
      ],
      "name": "peers",
      "outputs": [
        {
          "internalType": "bytes32",
          "name": "peer",
          "type": "bytes32"
        }
      ],
      "stateMutability": "view",
      "type": "function"
    },
    {
      "inputs": [
        {
          "internalType": "uint256",
          "name": "proposalId",
          "type": "uint256"
        }
      ],
      "name": "proposalDeadline",
      "outputs": [
        {
          "internalType": "uint256",
          "name": "",
          "type": "uint256"
        }
      ],
      "stateMutability": "view",
      "type": "function"
    },
    {
      "inputs": [
        {
          "internalType": "uint256",
          "name": "proposalId",
          "type": "uint256"
        }
      ],
      "name": "proposalEta",
      "outputs": [
        {
          "internalType": "uint256",
          "name": "",
          "type": "uint256"
        }
      ],
      "stateMutability": "view",
      "type": "function"
    },
    {
      "inputs": [
        {
          "internalType": "uint256",
          "name": "proposalId",
          "type": "uint256"
        }
      ],
      "name": "proposalNeedsQueuing",
      "outputs": [
        {
          "internalType": "bool",
          "name": "",
          "type": "bool"
        }
      ],
      "stateMutability": "view",
      "type": "function"
    },
    {
      "inputs": [
        {
          "internalType": "uint256",
          "name": "proposalId",
          "type": "uint256"
        }
      ],
      "name": "proposalProposer",
      "outputs": [
        {
          "internalType": "address",
          "name": "",
          "type": "address"
        }
      ],
      "stateMutability": "view",
      "type": "function"
    },
    {
      "inputs": [
        {
          "internalType": "uint256",
          "name": "proposalId",
          "type": "uint256"
        }
      ],
      "name": "proposalSnapshot",
      "outputs": [
        {
          "internalType": "uint256",
          "name": "",
          "type": "uint256"
        }
      ],
      "stateMutability": "view",
      "type": "function"
    },
    {
      "inputs": [],
      "name": "proposalThreshold",
      "outputs": [
        {
          "internalType": "uint256",
          "name": "",
          "type": "uint256"
        }
      ],
      "stateMutability": "view",
      "type": "function"
    },
    {
      "inputs": [
        {
          "internalType": "uint256",
          "name": "proposalId",
          "type": "uint256"
        }
      ],
      "name": "proposalVotes",
      "outputs": [
        {
          "internalType": "uint256",
          "name": "againstVotes",
          "type": "uint256"
        },
        {
          "internalType": "uint256",
          "name": "forVotes",
          "type": "uint256"
        },
        {
          "internalType": "uint256",
          "name": "abstainVotes",
          "type": "uint256"
        }
      ],
      "stateMutability": "view",
      "type": "function"
    },
    {
      "inputs": [
        {
          "internalType": "address[]",
          "name": "targets",
          "type": "address[]"
        },
        {
          "internalType": "uint256[]",
          "name": "values",
          "type": "uint256[]"
        },
        {
          "internalType": "bytes[]",
          "name": "calldatas",
          "type": "bytes[]"
        },
        {
          "internalType": "string",
          "name": "description",
          "type": "string"
        }
      ],
      "name": "propose",
      "outputs": [
        {
          "internalType": "uint256",
          "name": "",
          "type": "uint256"
        }
      ],
      "stateMutability": "nonpayable",
      "type": "function"
    },
    {
      "inputs": [
        {
          "internalType": "address[]",
          "name": "targets",
          "type": "address[]"
        },
        {
          "internalType": "uint256[]",
          "name": "values",
          "type": "uint256[]"
        },
        {
          "internalType": "bytes[]",
          "name": "calldatas",
          "type": "bytes[]"
        },
        {
          "internalType": "bytes32",
          "name": "descriptionHash",
          "type": "bytes32"
        }
      ],
      "name": "queue",
      "outputs": [
        {
          "internalType": "uint256",
          "name": "",
          "type": "uint256"
        }
      ],
      "stateMutability": "nonpayable",
      "type": "function"
    },
    {
      "inputs": [
        {
          "internalType": "uint256",
          "name": "timepoint",
          "type": "uint256"
        }
      ],
      "name": "quorum",
      "outputs": [
        {
          "internalType": "uint256",
          "name": "",
          "type": "uint256"
        }
      ],
      "stateMutability": "view",
      "type": "function"
    },
    {
      "inputs": [],
      "name": "quorumDenominator",
      "outputs": [
        {
          "internalType": "uint256",
          "name": "",
          "type": "uint256"
        }
      ],
      "stateMutability": "view",
      "type": "function"
    },
    {
      "inputs": [
        {
          "internalType": "uint256",
          "name": "timepoint",
          "type": "uint256"
        }
      ],
      "name": "quorumNumerator",
      "outputs": [
        {
          "internalType": "uint256",
          "name": "",
          "type": "uint256"
        }
      ],
      "stateMutability": "view",
      "type": "function"
    },
    {
      "inputs": [],
      "name": "quorumNumerator",
      "outputs": [
        {
          "internalType": "uint256",
          "name": "",
          "type": "uint256"
        }
      ],
      "stateMutability": "view",
      "type": "function"
    },
    {
      "inputs": [
        {
          "internalType": "address",
          "name": "target",
          "type": "address"
        },
        {
          "internalType": "uint256",
          "name": "value",
          "type": "uint256"
        },
        {
          "internalType": "bytes",
          "name": "data",
          "type": "bytes"
        }
      ],
      "name": "relay",
      "outputs": [],
      "stateMutability": "payable",
      "type": "function"
    },
    {
      "inputs": [],
      "name": "renounceOwnership",
      "outputs": [],
      "stateMutability": "nonpayable",
      "type": "function"
    },
    {
      "inputs": [
        {
          "internalType": "uint32",
          "name": "_dstEid",
          "type": "uint32"
        },
        {
          "internalType": "address[]",
          "name": "_dstTargets",
          "type": "address[]"
        },
        {
          "internalType": "uint256[]",
          "name": "_dstValues",
          "type": "uint256[]"
        },
        {
          "internalType": "bytes[]",
          "name": "_dstCalldatas",
          "type": "bytes[]"
        },
        {
          "internalType": "bytes32",
          "name": "_dstDescriptionHash",
          "type": "bytes32"
        },
        {
          "internalType": "bytes",
          "name": "_options",
          "type": "bytes"
        }
      ],
      "name": "sendProposalToTargetChain",
      "outputs": [],
      "stateMutability": "nonpayable",
      "type": "function"
    },
    {
      "inputs": [
        {
          "internalType": "address",
          "name": "_delegate",
          "type": "address"
        }
      ],
      "name": "setDelegate",
      "outputs": [],
      "stateMutability": "nonpayable",
      "type": "function"
    },
    {
      "inputs": [
        {
          "internalType": "uint32",
          "name": "_eid",
          "type": "uint32"
        },
        {
          "internalType": "bytes32",
          "name": "_peer",
          "type": "bytes32"
        }
      ],
      "name": "setPeer",
      "outputs": [],
      "stateMutability": "nonpayable",
      "type": "function"
    },
    {
      "inputs": [
        {
          "internalType": "uint256",
          "name": "newProposalThreshold",
          "type": "uint256"
        }
      ],
      "name": "setProposalThreshold",
      "outputs": [],
      "stateMutability": "nonpayable",
      "type": "function"
    },
    {
      "inputs": [
        {
          "internalType": "uint48",
          "name": "newVotingDelay",
          "type": "uint48"
        }
      ],
      "name": "setVotingDelay",
      "outputs": [],
      "stateMutability": "nonpayable",
      "type": "function"
    },
    {
      "inputs": [
        {
          "internalType": "uint32",
          "name": "newVotingPeriod",
          "type": "uint32"
        }
      ],
      "name": "setVotingPeriod",
      "outputs": [],
      "stateMutability": "nonpayable",
      "type": "function"
    },
    {
      "inputs": [
        {
          "internalType": "uint256",
          "name": "proposalId",
          "type": "uint256"
        }
      ],
      "name": "state",
      "outputs": [
        {
          "internalType": "enum IGovernor.ProposalState",
          "name": "",
          "type": "uint8"
        }
      ],
      "stateMutability": "view",
      "type": "function"
    },
    {
      "inputs": [
        {
          "internalType": "bytes4",
          "name": "interfaceId",
          "type": "bytes4"
        }
      ],
      "name": "supportsInterface",
      "outputs": [
        {
          "internalType": "bool",
          "name": "",
          "type": "bool"
        }
      ],
      "stateMutability": "view",
      "type": "function"
    },
    {
      "inputs": [],
      "name": "timelock",
      "outputs": [
        {
          "internalType": "address",
          "name": "",
          "type": "address"
        }
      ],
      "stateMutability": "view",
      "type": "function"
    },
    {
      "inputs": [],
      "name": "token",
      "outputs": [
        {
          "internalType": "contract IERC5805",
          "name": "",
          "type": "address"
        }
      ],
      "stateMutability": "view",
      "type": "function"
    },
    {
      "inputs": [
        {
          "internalType": "address",
          "name": "newOwner",
          "type": "address"
        }
      ],
      "name": "transferOwnership",
      "outputs": [],
      "stateMutability": "nonpayable",
      "type": "function"
    },
    {
      "inputs": [
        {
          "internalType": "uint256",
          "name": "newQuorumNumerator",
          "type": "uint256"
        }
      ],
      "name": "updateQuorumNumerator",
      "outputs": [],
      "stateMutability": "nonpayable",
      "type": "function"
    },
    {
      "inputs": [
        {
          "internalType": "contract TimelockController",
          "name": "newTimelock",
          "type": "address"
        }
      ],
      "name": "updateTimelock",
      "outputs": [],
      "stateMutability": "nonpayable",
      "type": "function"
    },
    {
      "inputs": [],
      "name": "version",
      "outputs": [
        {
          "internalType": "string",
          "name": "",
          "type": "string"
        }
      ],
      "stateMutability": "view",
      "type": "function"
    },
    {
      "inputs": [],
      "name": "votingDelay",
      "outputs": [
        {
          "internalType": "uint256",
          "name": "",
          "type": "uint256"
        }
      ],
      "stateMutability": "view",
      "type": "function"
    },
    {
      "inputs": [],
      "name": "votingPeriod",
      "outputs": [
        {
          "internalType": "uint256",
          "name": "",
          "type": "uint256"
        }
      ],
      "stateMutability": "view",
      "type": "function"
    },
    {
      "stateMutability": "payable",
      "type": "receive"
    }
  ],
  "bytecode": "0x610200604052346101375761001a6100156101d8565b610306565b604051614a0f9081610f1f823960805181613ea1015260a05181613f58015260c05181613e6b015260e05181613ef001526101005181613f16015261012051816117d1015261014051816117fd015261016051818181611aa50152818161201a015281816121da015281816122a501528181612bcf015281816131ca0152818161347a015281816137a901528181613867015261476901526101805181612f6201526101a05181818161076e0152818161134901528181611ddf01528181612cbc015281816142b401528181614410015261489b01526101c051818181610c9c0152818161104301528181611256015281816119f40152818161267e015281816127a3015261399901526101e0518181816122e90152612c5d0152f35b5f80fd5b634e487b7160e01b5f52604160045260245ffd5b601f909101601f19168101906001600160401b0382119082101761017257604052565b61013b565b604051906101876101408361014f565b565b6040519061018760408361014f565b6001600160a01b0381160361013757565b519061018782610198565b519065ffffffffffff8216820361013757565b519063ffffffff8216820361013757565b61594e61014081380391826040519384926101f3828561014f565b8339810103126101375761029961012061020b610177565b92610215816101a9565b8452610223602082016101a9565b6020850152610234604082016101a9565b6040850152610245606082016101b4565b6060850152610256608082016101c7565b608085015260a081015160a085015260c081015160c085015261027b60e082016101a9565b60e085015261028d61010082016101c7565b610100850152016101a9565b61012082015290565b604051906102b160408361014f565b60018252565b604051906102c660408361014f565b600e82526d29bab6b6b2b923b7bb32b93737b960911b6020830152565b9081602091031261013757516102f881610198565b90565b6040513d5f823e3d90fd5b60e08101516004906001600160a01b0316602083015190929061039b9061033d906001600160a01b03165b6001600160a01b031690565b61012083015183516001600160a01b0391821696929161035d9116610331565b9560c085015196610377606087015165ffffffffffff1690565b608087015163ffffffff169160a0880199818b5195876103956102b7565b9961044f565b60408101516001600160a01b03166101e05280516020906103c4906001600160a01b0316610331565b60405163defe205360e01b815293849182905afa80156104405761040b936103fa61040092610100955f91610411575b50610780565b516107bf565b015163ffffffff1690565b6101c052565b610433915060203d602011610439575b61042b818361014f565b8101906102e3565b5f6103f4565b503d610421565b6102fb565b5f91031261013757565b989661051d61053997610518610527969a610513610522969f9d979d9a999a6104766102a2565b60208101603160f81b815261048a83610a83565b6101205261049782610b70565b6101405282516020840120918260e05251902080610100524660a0526040519060208201927f8b73c3c69bb8fe3d512ecc4cf759cc79239f7b179b0ffacaa9a75d522b39400f8452604083015260608201524660808201523060a082015260a0815261050460c08261014f565b5190206080523060c05261069b565b610a30565b610929565b610976565b6109f7565b6001600160a01b031661016052610861565b6001600160a01b0316801561060557610180526001600160a01b038116156105f15761056490610819565b6001600160a01b039081166101a0819052908216156105e25761058f906001600160a01b0316610331565b803b156101375760405163ca5eb5e160e01b81526001600160a01b039290921660048301525f908290602490829084905af18015610440576105ce5750565b806105dc5f6101879361014f565b80610445565b632d618d8160e21b5f5260045ffd5b631e4fbdf760e01b5f90815260045260245ffd5b6334566e4b60e21b5f5260045ffd5b90600182811c92168015610642575b602083101461062e57565b634e487b7160e01b5f52602260045260245ffd5b91607f1691610623565b601f821161065957505050565b5f5260205f20906020601f840160051c83019310610691575b601f0160051c01905b818110610686575050565b5f815560010161067b565b9091508190610672565b80519091906001600160401b038111610172576106c4816106bd600354610614565b600361064c565b602092601f8211600114610704576106f4929382915f926106f9575b50508160011b915f199060031b1c19161790565b600355565b015190505f806106e0565b60035f52601f198216937fc2575a0e9e593c00f959f8c92f12db2869c3395a3b0502d05e2516446f71f85b915f5b8681106107685750836001959610610750575b505050811b01600355565b01515f1960f88460031b161c191690555f8080610745565b91926020600181928685015181550194019201610732565b6001600160a01b0316801561060557600d546001600160a01b0381166107b0576001600160a01b03191617600d55565b6336f62bb160e01b5f5260045ffd5b683635c9adc5dea0000081108015610806575b6107d95750565b6309c6075760e01b5f52600452683635c9adc5dea0000060245269152d02c7e14af680000060445260645ffd5b5069152d02c7e14af680000081116107d2565b600e80546001600160a01b039283166001600160a01b0319821681179092559091167f8be0079c531659141344cd1fd0a4f28419497f9722a3daafe3b4186f6b6457e05f80a3565b6064811161091257600c5490816108b2575f51602061592e5f395f51905f5291505f5b61089e61088f610d0c565b61089884610c62565b90610e15565b5050604080519182526020820192909252a1565b815f198101116108fe57600c5f527fdf6966c971051c3d54ec59162606531493a51404a002842f56009d7e5cf4a8c691909101545f51602061592e5f395f51905f52919060301c610884565b634e487b7160e01b5f52601160045260245ffd5b63243e544560e01b5f52600452606460245260445ffd5b600a547fc565b045403dc03c2eea82b81a0465edad9e2e7fc4d97e11421c209da93d7a93604065ffffffffffff81519481851686521693846020820152a165ffffffffffff191617600a55565b63ffffffff81169081156109e45769ffffffff000000000000907f7e3f7f0708a84de9203036abaa450dccc85ad5ff52f78c170f3edb55cf5e88286040600a549481519063ffffffff8760301c1682526020820152a160301b169069ffffffff000000000000191617600a55565b63f1cfbf0560e01b5f525f60045260245ffd5b60095460408051918252602082018390527fccb45da8d5717e6c4544694297c4ba5cf151d455c9bb0ed4fc7a38411bc0546191a1600955565b600754604080516001600160a01b03808416825290931660208401819052927f08f74ea46ef7894f65eabfb5e6e695de773a000b47c529ab559178069b2264019190a16001600160a01b03191617600755565b908151602081105f14610a9b5750906102f890610c93565b6001600160401b03811161017257610abd81610ab75f54610614565b5f61064c565b602092601f8211600114610af357610aec929382915f926106f95750508160011b915f199060031b1c19161790565b5f5560ff90565b5f8052601f198216937f290decd9548b62a8d60345a988386fc84ba6bc95484008f6362f93160ef3e563915f5b868110610b585750836001959610610b40575b505050811b015f5560ff90565b01515f1960f88460031b161c191690555f8080610b33565b91926020600181928685015181550194019201610b20565b908151602081105f14610b885750906102f890610c93565b6001600160401b03811161017257610bac81610ba5600154610614565b600161064c565b602092601f8211600114610be357610bdb929382915f926106f95750508160011b915f199060031b1c19161790565b60015560ff90565b60015f52601f198216937fb10e2d527612073b26eecdfd717e6a320cf44b4afac2b0732d9fcbe2b7fa0cf6915f5b868110610c4a5750836001959610610c32575b505050811b0160015560ff90565b01515f1960f88460031b161c191690555f8080610c24565b91926020600181928685015181550194019201610c11565b6001600160d01b038111610c7c576001600160d01b031690565b6306dfcc6560e41b5f5260d060045260245260445ffd5b601f815111610cbe576020815191015160208210610caf571790565b5f198260200360031b1b161790565b604460209160405192839163305a27a960e01b83528160048401528051918291826024860152018484015e5f828201840152601f01601f19168101030190fd5b5f198101919082116108fe57565b610160516040516324776b7d60e21b815290602090829060049082906001600160a01b03165afa5f9181610d72575b506102f8575065ffffffffffff4311610d5a5765ffffffffffff431690565b6306dfcc6560e41b5f5260306004524360245260445ffd5b9091506020813d602011610da6575b81610d8e6020938361014f565b8101031261013757610d9f906101b4565b905f610d3b565b3d9150610d81565b908154680100000000000000008110156101725760018101808455811015610e01575f9283526020928390208251929093015160301b65ffffffffffff191665ffffffffffff9290921691909117910155565b634e487b7160e01b5f52603260045260245ffd5b600c549192918015610ef557610e2d610e5691610cfe565b600c5f527fdf6966c971051c3d54ec59162606531493a51404a002842f56009d7e5cf4a8c70190565b908154610e72610e6b8265ffffffffffff1690565b9160301c90565b9265ffffffffffff808416921691808311610ee657869203610eb057610eac92509065ffffffffffff82549181199060301b169116179055565b9190565b5050610eac90610ecf610ec1610189565b65ffffffffffff9092168252565b6001600160d01b03851660208201525b600c610dae565b632520601d60e01b5f5260045ffd5b50610f1990610f05610ec1610189565b6001600160d01b0384166020820152610edf565b5f919056fe60806040526004361015610022575b3615610018575f80fd5b610020612cb9565b005b5f3560e01c806301ffc9a71461044157806302a251a31461043c57806306f3f9e61461043757806306fdde031461043257806313137d651461042d578063143489d014610428578063150b7a0214610423578063160cbed71461041e57806317442b701461041957806325fd935a146104145780632656227d1461040f5780632d63f6931461040a5780632fe3e261146104055780633400288b146104005780633932abb1146103fb5780633e4f49e6146103f657806343859632146103f1578063452115d6146103ec5780634bf5d7e9146103e7578063544ffc9c146103e257806354fd4d50146103dd57806356781388146103d85780635b8d0e0d146103d35780635e280f11146103ce5780635f398a14146103c957806360c4247f146103c4578063715018a6146103bf578063768e7812146103ba57806379051887146103b5578063791f5d23146103b05780637b3c71d3146103ab5780637d25a05e146103a65780637d5e81e2146103a15780637ecebe001461039c57806382413eac1461039757806384b0196e146103925780638da5cb5b1461038d5780638ff262e31461038857806391ddadf414610383578063929f58401461037e57806397c3d334146103795780639a802a6d14610374578063a7713a701461036f578063a890c9101461036a578063a9a9529414610365578063ab58fb8e14610360578063b58131b01461035b578063bb0b6a5314610356578063bc197c8114610351578063c01f9e371461034c578063c28bc2fa14610347578063c59057e414610342578063ca5eb5e11461033d578063d33219b414610338578063dd4e2ba514610333578063deaaa7cc1461032e578063e540d01d14610329578063eb9019d414610324578063ece40cc11461031f578063f23a6e611461031a578063f2fde38b14610315578063f8ce560a14610310578063f99ab9f81461030b578063fc0c546a14610306578063fdcb6068146103015763ff7bd03d0361000e57612318565b6122d4565b612290565b61225f565b6121a9565b61211f565b6120b2565b61205d565b611fb8565b611f15565b611edb565b611e7c565b611e54565b611db7565b611d9b565b611d30565b611d12565b611c65565b611c2c565b611c0f565b611bdc565b611bc0565b611b48565b611b1d565b611a33565b611a18565b6119d8565b6119ae565b6118b1565b611889565b6117b9565b611728565b6116ed565b61163f565b611619565b6115c4565b6115a1565b61152f565b611479565b61141e565b6113f8565b611378565b611334565b61129e565b61122a565b6111d7565b611196565b611167565b611021565b610fcc565b610f9d565b610f47565b610eda565b610e85565b610e50565b610c82565b610c5e565b610c3d565b610b7f565b61093b565b610801565b61070a565b6105e1565b6104e3565b6104bd565b346104af5760203660031901126104af5760043563ffffffff60e01b81168091036104af576020906332a2ad4360e11b811490811561049e575b811561048d575b506040519015158152f35b6301ffc9a760e01b1490505f610482565b630271189760e51b8114915061047b565b5f80fd5b5f9103126104af57565b346104af575f3660031901126104af57602063ffffffff600a5460301c16604051908152f35b346104af5760203660031901126104af576004356104ff612d07565b60648111610592576001600160d01b0361051761389a565b1690610521613794565b916001600160d01b03821161057a577f0553476bf02ef2726e8ce5ced78d63e26e602e4a2257b1f559418e24b463399792610566906001600160d01b038416906145b6565b5050604080519182526020820192909252a1005b506306dfcc6560e41b5f5260d060045260245260445ffd5b63243e544560e01b5f52600452606460245260445ffd5b805180835260209291819084018484015e5f828201840152601f01601f1916010190565b9060206105de9281815201906105a9565b90565b346104af575f3660031901126104af576040515f6003546106018161235d565b80845290600181169081156106975750600114610639575b610635836106298185038261088e565b604051918291826105cd565b0390f35b60035f9081527fc2575a0e9e593c00f959f8c92f12db2869c3395a3b0502d05e2516446f71f85b939250905b80821061067d57509091508101602001610629610619565b919260018160209254838588010152019101909291610665565b60ff191660208086019190915291151560051b840190910191506106299050610619565b60609060031901126104af57600490565b9181601f840112156104af578235916001600160401b0383116104af57602083818601950101116104af57565b6001600160a01b038116036104af57565b60e03660031901126104af5761071f366106bb565b6084356001600160401b0381116104af5761073e9036906004016106cc565b9061074a60a4356106f9565b60c4356001600160401b0381116104af576107699036906004016106cc565b5050337f00000000000000000000000000000000000000000000000000000000000000006001600160a01b0316036107ee578235926107a784610ebf565b6107b084612d84565b9360208201358095036107c857506100209350612db4565b63ffffffff816107d88793610ebf565b63309afaf360e21b5f521660045260245260445ffd5b6391ac5e4f60e01b5f523360045260245ffd5b346104af5760203660031901126104af57600480355f908152602091825260409020546001600160a01b03166040516001600160a01b039091168152f35b634e487b7160e01b5f52604160045260245ffd5b604081019081106001600160401b0382111761086e57604052565b61083f565b606081019081106001600160401b0382111761086e57604052565b90601f801991011681019081106001600160401b0382111761086e57604052565b604051906108be60408361088e565b565b604051906108be60a08361088e565b6001600160401b03811161086e57601f01601f191660200190565b9291926108f6826108cf565b91610904604051938461088e565b8294818452818301116104af578281602093845f960137010152565b9080601f830112156104af578160206105de933591016108ea565b346104af5760803660031901126104af576109576004356106f9565b6109626024356106f9565b6064356001600160401b0381116104af57610981903690600401610920565b50600754306001600160a01b03909116036109a857604051630a85bd0160e11b8152602090f35b637485328f60e11b5f5260045ffd5b6001600160401b03811161086e5760051b60200190565b9080601f830112156104af5781356109e5816109b7565b926109f3604051948561088e565b81845260208085019260051b8201019283116104af57602001905b828210610a1b5750505090565b602080918335610a2a816106f9565b815201910190610a0e565b9080601f830112156104af578135610a4c816109b7565b92610a5a604051948561088e565b81845260208085019260051b8201019283116104af57602001905b828210610a825750505090565b8135815260209182019101610a75565b9080601f830112156104af578135610aa9816109b7565b92610ab7604051948561088e565b81845260208085019260051b820101918383116104af5760208201905b838210610ae357505050505090565b81356001600160401b0381116104af57602091610b0587848094880101610920565b815201910190610ad4565b60806003198201126104af576004356001600160401b0381116104af5781610b3a916004016109ce565b916024356001600160401b0381116104af5782610b5991600401610a35565b91604435906001600160401b0382116104af57610b7891600401610a92565b9060643590565b346104af57610bb0610b9036610b10565b91610b9f838383879897612b1a565b94610ba986612e91565b5085613ab0565b9065ffffffffffff82168015610c2e5760407f9a2e42fd6722813d69113e7d0079d3d940171428df7373df9c7f7617cfda289291610c1261063595855f5260046020526001845f20019065ffffffffffff1665ffffffffffff19825416179055565b8151908482526020820152a16040519081529081906020820190565b634844252360e11b5f5260045ffd5b346104af575f3660031901126104af57604080516001815260026020820152f35b346104af575f3660031901126104af57602060405169152d02c7e14af68000008152f35b610c8b36610b10565b91610c9533612f4f565b63ffffffff7f000000000000000000000000000000000000000000000000000000000000000016804603610e3a5750610cd083838387612b1a565b936020610cde603087612f11565b50610d07610cf4875f52600460205260405f2090565b805460ff60f01b1916600160f01b179055565b600754610d24906001600160a01b03165b6001600160a01b031690565b306001600160a01b0390911603610dd2575b5091849391610d489361063596614696565b6007543090610d6190610d18906001600160a01b031681565b141580610db3575b610daa575b6040518181527f712ae1383f79ac853f8d882153778e0260ef8f03b504e2866e0593e04d2b291f90602090a16040519081529081906020820190565b5f600555610d6e565b506005546001600160801b03811660809190911c1415610d69565b1590565b949091935f5b8351811015610e2c5760019030610e02610d18610df58489613043565b516001600160a01b031690565b14610e0e575b01610dd8565b610e27610e1b8288613043565b51898151910120613c09565b610e08565b509094509290610635610d36565b63039644b160e11b5f524660045260245260445ffd5b346104af5760203660031901126104af576004355f526004602052602065ffffffffffff60405f205460a01c16604051908152f35b346104af575f3660031901126104af5760206040517f3e83946653575f9a39005e1545185629e92736b7528ab20ca3816f315424a8118152f35b63ffffffff8116036104af57565b600435906108be82610ebf565b346104af5760403660031901126104af577f238399d427b947898edb290f5ff0f9109849b1c3ba196a42e35f00c50a54b98b6040600435610f1a81610ebf565b63ffffffff60243591610f2b613057565b1690815f52600f60205280835f205582519182526020820152a1005b346104af575f3660031901126104af57602065ffffffffffff600a5416604051908152f35b634e487b7160e01b5f52602160045260245ffd5b60081115610f8a57565b610f6c565b6008811015610f8a57602452565b346104af5760203660031901126104af57610fb960043561307e565b6040516008821015610f8a576020918152f35b346104af5760403660031901126104af57602060ff611015602435600435610ff3826106f9565b5f52600b8452600360405f20019060018060a01b03165f5260205260405f2090565b54166040519015158152f35b346104af5761102f36610b10565b9261103c92919233612f4f565b63ffffffff7f000000000000000000000000000000000000000000000000000000000000000016804603610e3a575061109461107a85858585612b1a565b5f908152600460205260409020546001600160a01b031690565b336001600160a01b038216141580611142575b80611130575b6110d0576106356110c086868686613d6f565b6040519081529081906020820190565b6110e26110dc42612434565b82612b8c565b9061112c6110ef60095490565b6040516308a4880b60e31b81523360048201526001600160a01b039093166024840152604483019390935260648201929092529081906084820190565b0390fd5b5061113d610dce33612c33565b6110ad565b505f194201428111611162576111589082612b8c565b60095411156110a7565b612420565b346104af575f3660031901126104af576106356111826131b6565b6040519182916020835260208301906105a9565b346104af5760203660031901126104af576004355f52600b602052606060405f20805490600260018201549101549060405192835260208301526040820152f35b346104af575f3660031901126104af576106356040516111f860408261088e565b60018152603160f81b60208201526040519182916020835260208301906105a9565b6024359060ff821682036104af57565b346104af5760403660031901126104af5760043561124661121a565b61124f33612f4f565b63ffffffff7f000000000000000000000000000000000000000000000000000000000000000016804603610e3a576106356110c084846040519161129460208461088e565b5f83523390613285565b346104af5760c03660031901126104af576004356112ba61121a565b90604435906112c8826106f9565b6064356001600160401b0381116104af576112e79036906004016106cc565b6084356001600160401b0381116104af57611306903690600401610920565b9160a435946001600160401b0386116104af576106359661132e6110c0973690600401610920565b95612456565b346104af575f3660031901126104af576040517f00000000000000000000000000000000000000000000000000000000000000006001600160a01b03168152602090f35b346104af5760803660031901126104af5760043561139461121a565b906044356001600160401b0381116104af576113b49036906004016106cc565b9190926064356001600160401b0381116104af576113ed946113dd6113e5923690600401610920565b9436916108ea565b91339061341d565b604051908152602090f35b346104af5760203660031901126104af576020611416600435612542565b604051908152f35b346104af575f3660031901126104af57611436613057565b600e80546001600160a01b031981169091555f906001600160a01b03167f8be0079c531659141344cd1fd0a4f28419497f9722a3daafe3b4186f6b6457e08280a3005b346104af5760c03660031901126104af57611492610ecd565b6024356001600160401b0381116104af576114b19036906004016109ce565b6044356001600160401b0381116104af576114d0903690600401610a35565b916064356001600160401b0381116104af576114f0903690600401610a92565b6084359060a435946001600160401b0386116104af576115176100209636906004016106cc565b95909461266a565b65ffffffffffff8116036104af57565b346104af5760203660031901126104af5760043561154c8161151f565b611554612d07565b600a547fc565b045403dc03c2eea82b81a0465edad9e2e7fc4d97e11421c209da93d7a93604065ffffffffffff81519481851686521693846020820152a165ffffffffffff191617600a55005b346104af575f3660031901126104af576020604051683635c9adc5dea000008152f35b346104af5760603660031901126104af576004356115e061121a565b90604435906001600160401b0382116104af5760209261161161160a6114169436906004016106cc565b36916108ea565b913390613285565b346104af5760403660031901126104af57611635600435610ebf565b60206040515f8152f35b346104af5760803660031901126104af576004356001600160401b0381116104af5761166f9036906004016109ce565b6024356001600160401b0381116104af5761168e903690600401610a35565b906044356001600160401b0381116104af576116ae903690600401610a92565b90606435916001600160401b0383116104af57366023840112156104af57610635936116e76110c09436906024816004013591016108ea565b92612790565b346104af5760203660031901126104af5760043561170a816106f9565b60018060a01b03165f526002602052602060405f2054604051908152f35b346104af5760a03660031901126104af57611742366106bb565b506064356001600160401b0381116104af576117629036906004016106cc565b50506020608435611772816106f9565b6040516001600160a01b0390911630148152f35b90602080835192838152019201905f5b8181106117a35750505090565b8251845260209384019390920191600101611796565b346104af575f3660031901126104af5761185b6117f57f00000000000000000000000000000000000000000000000000000000000000006144ae565b6106356118217f000000000000000000000000000000000000000000000000000000000000000061450d565b6118696040519161183360208461088e565b5f808452366020850137604051958695600f60f81b875260e0602088015260e08701906105a9565b9085820360408701526105a9565b904660608501523060808501525f60a085015283820360c0850152611786565b346104af575f3660031901126104af57600e546040516001600160a01b039091168152602090f35b346104af5760803660031901126104af576004356118cd61121a565b90604435916118db836106f9565b6064356001600160401b0381116104af57610dce611900611976923690600401610920565b61197061190c876132a2565b60405160208101917ff2aad550cf55f045cb27e9c559f9889fdfb6e6cdaa032301d6ea397784ae51d7835288604083015260ff8816606083015260018060a01b038a16608083015260a082015260a0815261196860c08261088e565b5190206132c4565b866132f4565b61199157906110c0916106359361198b612442565b92613285565b6394ab6c0760e01b5f526001600160a01b03831660045260245b5ffd5b346104af575f3660031901126104af5760206119c8613794565b65ffffffffffff60405191168152f35b346104af575f3660031901126104af57602060405163ffffffff7f0000000000000000000000000000000000000000000000000000000000000000168152f35b346104af575f3660031901126104af57602060405160648152f35b346104af5760603660031901126104af57600435611a50816106f9565b6024356044356001600160401b0381116104af57611a72903690600401610920565b50604051630748d63560e31b81526001600160a01b039283166004820152602481019190915290602090829060449082907f0000000000000000000000000000000000000000000000000000000000000000165afa8015611b1857610635915f91611ae9575b506040519081529081906020820190565b611b0b915060203d602011611b11575b611b03818361088e565b810190613827565b5f611ad8565b503d611af9565b612b81565b346104af575f3660031901126104af5760206001600160d01b03611b3f61389a565b16604051908152f35b346104af5760203660031901126104af57600435611b65816106f9565b611b6d612d07565b600754604080516001600160a01b03808416825290931660208401819052927f08f74ea46ef7894f65eabfb5e6e695de773a000b47c529ab559178069b2264019190a16001600160a01b03191617600755005b346104af5760203660031901126104af57602060405160018152f35b346104af5760203660031901126104af5760206114166004355f52600460205265ffffffffffff600160405f2001541690565b346104af575f3660031901126104af576020600954604051908152f35b346104af5760203660031901126104af5763ffffffff600435611c4e81610ebf565b165f52600f602052602060405f2054604051908152f35b346104af5760a03660031901126104af57611c816004356106f9565b611c8c6024356106f9565b6044356001600160401b0381116104af57611cab903690600401610a35565b506064356001600160401b0381116104af57611ccb903690600401610a35565b506084356001600160401b0381116104af57611ceb903690600401610920565b50610635611cf76129f1565b6040516001600160e01b031990911681529081906020820190565b346104af5760203660031901126104af576020611416600435612a10565b60603660031901126104af57600435611d48816106f9565b6024356044356001600160401b0381116104af57610020925f92611d71849336906004016106cc565b9190611d7b612d07565b826040519384928337810185815203925af1611d95612a57565b906138de565b346104af576020611416611dae36610b10565b92919091612b1a565b346104af575f60203660031901126104af57600435611dd5816106f9565b611ddd613057565b7f00000000000000000000000000000000000000000000000000000000000000006001600160a01b031690813b156104af5760405163ca5eb5e160e01b81526001600160a01b039091166004820152905f908290602490829084905af18015611b1857611e48575080f35b61002091505f9061088e565b346104af575f3660031901126104af576007546040516001600160a01b039091168152602090f35b346104af575f3660031901126104af57610635604051611e9d60408261088e565b602081527f737570706f72743d627261766f2671756f72756d3d666f722c6162737461696e60208201526040519182916020835260208301906105a9565b346104af575f3660031901126104af5760206040517ff2aad550cf55f045cb27e9c559f9889fdfb6e6cdaa032301d6ea397784ae51d78152f35b346104af5760203660031901126104af57600435611f3281610ebf565b611f3a612d07565b63ffffffff8116908115611fa5577f7e3f7f0708a84de9203036abaa450dccc85ad5ff52f78c170f3edb55cf5e88286040600a549381519063ffffffff8660301c1682526020820152a163ffffffff60301b1990911660309190911b63ffffffff60301b1617600a55005b63f1cfbf0560e01b5f525f60045260245ffd5b346104af5760403660031901126104af57600435611fd5816106f9565b6024355f604051611fe760208261088e565b52604051630748d63560e31b81526001600160a01b039283166004820152602481019190915290602090829060449082907f0000000000000000000000000000000000000000000000000000000000000000165afa8015611b1857610635915f91611ae957506040519081529081906020820190565b346104af5760203660031901126104af57600435612079612d07565b60095460408051918252602082018390527fccb45da8d5717e6c4544694297c4ba5cf151d455c9bb0ed4fc7a38411bc0546191a1600955005b346104af5760a03660031901126104af576120ce6004356106f9565b6120d96024356106f9565b6084356001600160401b0381116104af576120f8903690600401610920565b50600754306001600160a01b03909116036109a85760405163f23a6e6160e01b8152602090f35b346104af5760203660031901126104af5760043561213c816106f9565b612144613057565b6001600160a01b0316801561219657600e80546001600160a01b0319811683179091556001600160a01b03167f8be0079c531659141344cd1fd0a4f28419497f9722a3daafe3b4186f6b6457e05f80a3005b631e4fbdf760e01b5f525f60045260245ffd5b346104af5760203660031901126104af57600435604051632394e7a360e21b815260048101829052906020826024817f00000000000000000000000000000000000000000000000000000000000000006001600160a01b03165afa918215611b18575f9261223a575b5061221c90612542565b908181029181830414901517156111625761063590606490046110c0565b61221c9192506122589060203d602011611b1157611b03818361088e565b9190612212565b346104af5760203660031901126104af576020612286600435612281816106f9565b612c33565b6040519015158152f35b346104af575f3660031901126104af576040517f00000000000000000000000000000000000000000000000000000000000000006001600160a01b03168152602090f35b346104af575f3660031901126104af576040517f00000000000000000000000000000000000000000000000000000000000000006001600160a01b03168152602090f35b346104af5760603660031901126104af576020612334366106bb565b63ffffffff813561234481610ebf565b165f52600f82528160405f205491013560405191148152f35b90600182811c9216801561238b575b602083101461237757565b634e487b7160e01b5f52602260045260245ffd5b91607f169161236c565b5f92918154916123a48361235d565b80835292600181169081156123f957506001146123c057505050565b5f9081526020812093945091925b8383106123df575060209250010190565b6001816020929493945483858701015201910191906123ce565b915050602093945060ff929192191683830152151560051b010190565b356105de81610ebf565b634e487b7160e01b5f52601160045260245ffd5b5f1981019190821161116257565b6040519061245160208361088e565b5f8252565b939092919695610dce6124f7916124f18a612470816132a2565b61247b36888a6108ea565b602081519101208b5160208d0120906040519260208401947f3e83946653575f9a39005e1545185629e92736b7528ab20ca3816f315424a81186528d604086015260ff8d16606086015260018060a01b0316608085015260a084015260c083015260e082015260e081526119686101008261088e565b8a6132f4565b612512576105de95969161250c9136916108ea565b9261341d565b6394ab6c0760e01b5f526001600160a01b03871660045260245ffd5b634e487b7160e01b5f52603260045260245ffd5b600c54905f1982018281116111625782111561266557600c5f527fdf6966c971051c3d54ec59162606531493a51404a002842f56009d7e5cf4a8c682015465ffffffffffff811682101561265c575061259a90613625565b5f829160058411612608575b6125b09350614116565b806125ba57505f90565b6125fc6125f56125cc6105de93612434565b600c5f527fdf6966c971051c3d54ec59162606531493a51404a002842f56009d7e5cf4a8c70190565b5460301c90565b6001600160d01b031690565b919261261381613fb8565b8103908111611162576125b093600c5f5265ffffffffffff8260205f2001541665ffffffffffff8516105f1461264a5750916125a6565b92915061265690613654565b906125a6565b91505060301c90565b61252e565b9594939092612677612d07565b63ffffffff7f000000000000000000000000000000000000000000000000000000000000000016804603610e3a5750926127248383612710876126ca6126fe9c9a976127679a63ffffffff9d9a89612b1a565b9b8c946126ec604051988997602089015260a0604089015260c0880190612a86565b868103601f1901606088015290611786565b848103601f1901608086015290612ac2565b9060a083015203601f19810183528261088e565b61276061274561273f6127383687876108ea565b8489614251565b51613662565b9261274e6108af565b9384525f6020850152309436916108ea565b9085614387565b5016907f56fd6890539d17e2b7a1a260eb3a205a9a381dcd8a38504cbbb1eb3a2c316ddb5f80a3565b90919261279c33612f4f565b63ffffffff7f000000000000000000000000000000000000000000000000000000000000000016804603610e3a57505f194201428111611162576127e09033612b8c565b60095490818110806129e1575b6129c857505061280581516020830120858585612b1a565b9382518451908181148015906129bd575b80156129b5575b61299657505065ffffffffffff61284e61283f875f52600460205260405f2090565b5460a01c65ffffffffffff1690565b16612979577f7d84a6263ae0d98d3329bd7b46bb4e8d6f98cd35a7adb45c274c8b7fd5ebd5e0939291612973916128b3612886613794565b65ffffffffffff6128ac6128a165ffffffffffff600a541690565b65ffffffffffff1690565b9116613672565b6128d16128c863ffffffff600a5460301c1690565b63ffffffff1690565b916129506128e78a5f52600460205260405f2090565b80546001600160a01b0319163317815561292761290385613625565b825465ffffffffffff60a01b191660a09190911b65ffffffffffff60a01b16178255565b61293085614483565b815463ffffffff60d01b191660d09190911b63ffffffff60d01b16179055565b61296461295d875161367f565b9383613672565b92604051978897338c8a6136c8565b0390a190565b6119ab856129868161307e565b6331b75e4d60e01b5f5290612e78565b9151630447b05d60e41b5f908152600493909352602452604452606490fd5b50801561281d565b508251811415612816565b63094f84a760e21b5f523360045260245260445260645ffd5b506129eb33612c33565b156127ed565b600754306001600160a01b03909116036109a85763bc197c8160e01b90565b805f52600460205265ffffffffffff60405f205460a01c16905f52600460205263ffffffff60405f205460d01c160165ffffffffffff81116111625765ffffffffffff1690565b3d15612a81573d90612a68826108cf565b91612a76604051938461088e565b82523d5f602084013e565b606090565b90602080835192838152019201905f5b818110612aa35750505090565b82516001600160a01b0316845260209384019390920191600101612a96565b9080602083519182815201916020808360051b8301019401925f915b838310612aed57505050505090565b9091929394602080612b0b600193601f1986820301875289516105a9565b97019301930191939290612ade565b9290612b7b91612b67612b5594604051958694612b43602087019960808b5260a0880190612a86565b868103601f1901604088015290611786565b848103601f1901606086015290612ac2565b90608083015203601f19810183528261088e565b51902090565b6040513d5f823e3d90fd5b905f604051612b9c60208261088e565b52604051630748d63560e31b81526001600160a01b039283166004820152602481019190915290602090829060449082907f0000000000000000000000000000000000000000000000000000000000000000165afa908115611b18575f91612c02575090565b6105de915060203d602011611b1157611b03818361088e565b908160209103126104af575180151581036104af5790565b604051631f33573f60e31b81526001600160a01b03918216600482015290602090829060249082907f0000000000000000000000000000000000000000000000000000000000000000165afa908115611b18575f91612c90575090565b6105de915060203d602011612cb2575b612caa818361088e565b810190612c1b565b503d612ca0565b337f00000000000000000000000000000000000000000000000000000000000000006001600160a01b0316141580612cf2575b6109a857565b506007546001600160a01b0316331415612cec565b600754336001600160a01b0390911603612d7157600754306001600160a01b0390911603612d3157565b612d3a366108cf565b612d47604051918261088e565b3681526020810190365f83375f602036830101525190205b80612d68613922565b03612d5f575b50565b6347096e4760e01b5f523360045260245ffd5b63ffffffff16805f52600f60205260405f2054908115612da2575090565b63f6ff4fb760e01b5f5260045260245ffd5b909182019160a0818403126104af57803560208201356001600160401b0381116104af5784612de49184016109ce565b60408301356001600160401b0381116104af5785612e03918501610a35565b916060840135956001600160401b0387116104af57612e3a6080612e3163ffffffff93612d6e9a8901610a92565b96013596612416565b16817f30d15b7e92a81e472f6ba5aff0c0a81b2f409d1af0e92aa0e20d98ba24f98b415f80a361398e565b6008811015610f8a5760ff600191161b90565b600452606491906008811015610f8a576024525f604452565b612e9a8161307e565b906010612ea683612e65565b1615612eb0575090565b6331b75e4d60e01b5f52600452612ec79150610f8f565b601060445260645ffd5b612eda8161307e565b906002612ee683612e65565b1615612ef0575090565b6331b75e4d60e01b5f52600452612f079150610f8f565b600260445260645ffd5b90612f1b8261307e565b9181612f2684612e65565b1615612f3157505090565b6331b75e4d60e01b5f52600452612f4782610f8f565b60445260645ffd5b6001600160a01b038116612f605750565b7f00000000000000000000000000000000000000000000000000000000000000006001600160a01b0316803b156104af57604051633e4986ef60e11b81526001600160a01b0383166004820152905f908290602490829084905af18015611b185761302f575b50600d54612fdc906001600160a01b0316610d18565b803b156104af5760405163dae21dab60e01b81526001600160a01b039290921660048301525f908290602490829084905af18015611b185761301b5750565b806130295f6108be9361088e565b806104b3565b806130295f61303d9361088e565b5f612fc6565b80518210156126655760209160051b010190565b600e546001600160a01b0316330361306b57565b63118cdaa760e01b5f523360045260245ffd5b61308781613c6f565b9061309182610f80565b60058203613177576130ac91505f52600860205260405f2090565b546007546130c2906001600160a01b0316610d18565b604051632c258a9f60e11b815260048101839052602081602481855afa908115611b18575f91613158575b50156130fa575050600590565b604051632ab0f52960e01b81526004810192909252602090829060249082905afa908115611b18575f91613139575b501561313457600790565b600290565b613152915060203d602011612cb257612caa818361088e565b5f613129565b613171915060203d602011612cb257612caa818361088e565b5f6130ed565b5090565b6040519061318a60408361088e565b601d82527f6d6f64653d626c6f636b6e756d6265722666726f6d3d64656661756c740000006020830152565b604051634bf5d7e960e01b81525f816004817f00000000000000000000000000000000000000000000000000000000000000006001600160a01b03165afa5f918161320a575b506105de57506105de61317b565b9091503d805f833e61321c818361088e565b8101906020818303126104af578051906001600160401b0382116104af570181601f820112156104af57805190613252826108cf565b92613260604051948561088e565b828452602083830101116104af57815f9260208093018386015e83010152905f6131fc565b916105de93916040519361329a60208661088e565b5f855261341d565b6001600160a01b03165f90815260026020526040902080546001810190915590565b6042906132cf613e68565b906040519161190160f01b8352600283015260228201522090565b60041115610f8a57565b9190823b61332f579061330691613f7e565b50613310816132ea565b15918261331c57505090565b6001600160a01b03918216911614919050565b915f9261336561337385946040519283916020830195630b135d3f60e11b875260248401526040604484015260648301906105a9565b03601f19810183528261088e565b51915afa61337f612a57565b816133af575b8161338e575090565b90506133ab630b135d3f60e11b9160208082518301019101613827565b1490565b905060208151101590613385565b93909260ff6133e9936105de97958752166020860152604085015260a0606085015260a08401906105a9565b9160808184039101526105a9565b909260ff6080936105de96958452166020830152604082015281606082015201906105a9565b92919061342984612ed1565b50835f52600460205261344d65ffffffffffff8060405f205460a01c161682613836565b506040516309ab24eb60e41b81526001600160a01b038281166004830152909590602090879060249082907f0000000000000000000000000000000000000000000000000000000000000000165afa958615611b18575f96613604575b506134bd855f52600b60205260405f2090565b6001600160a01b0383165f90815260038201602081905260409091205460ff166135e8576001600160a01b0384165f9081526020919091526040902061350a90805460ff19166001179055565b60ff8416806135a6575061351f878254613672565b90555b805161356a57506135647fb8e138887d0aa13bab447e82de9d5c1777041ecd21ca36ba824ff1e6c07ddda4938660405194859460018060a01b031697856133f7565b0390a290565b613564907fe2babfbac5889a709b63bb7f598b324e08bc5a4fb9ec647fb3cbc9ec07eb8712948760405195869560018060a01b031698866133bd565b600181036135c457506001016135bd878254613672565b9055613522565b6002036135d9576002016135bd878254613672565b6303599be160e11b5f5260045ffd5b6371c6af4960e01b5f526001600160a01b03841660045260245ffd5b61361e91965060203d602011611b1157611b03818361088e565b945f6134aa565b65ffffffffffff811161363d5765ffffffffffff1690565b6306dfcc6560e41b5f52603060045260245260445ffd5b906001820180921161116257565b90620186a0820180921161116257565b9190820180921161116257565b90613689826109b7565b613696604051918261088e565b82815280926136a7601f19916109b7565b01905f5b8281106136b757505050565b8060606020809385010152016136ab565b959998969794939192613709936136fb92885260018060a01b031660208801526101206040880152610120870190612a86565b908582036060870152611786565b968388036080850152815180895260208901906020808260051b8c01019401915f905b82821061376857505050506105de9697509061374f9184820360a0860152612ac2565b9360c083015260e08201526101008184039101526105a9565b909192946020806137866001938f601f1990820301865289516105a9565b97019201920190929161372c565b6040516324776b7d60e21b81526020816004817f00000000000000000000000000000000000000000000000000000000000000006001600160a01b03165afa5f91816137ea575b506105de57506105de43613625565b9091506020813d60201161381f575b816138066020938361088e565b810103126104af57516138188161151f565b905f6137db565b3d91506137f9565b908160209103126104af575190565b604051630748d63560e31b81526001600160a01b0391821660048201526024810192909252602090829060449082907f0000000000000000000000000000000000000000000000000000000000000000165afa908115611b18575f91612c02575090565b600c54806138a757505f90565b805f1981011161116257600c5f527fdf6966c971051c3d54ec59162606531493a51404a002842f56009d7e5cf4a8c6015460301c90565b9091906108be57508051156138f557805190602001fd5b63d6bda27560e01b5f5260045ffd5b811561390e570490565b634e487b7160e01b5f52601260045260245ffd5b6005546001600160801b038116919060801c821461397c575f82815260066020526040808220546001600160801b03808616845291832092909255600580546001600160801b031916600190950190911693909317909255565b634e487b715f5260316020526024601cfd5b9392919063ffffffff7f0000000000000000000000000000000000000000000000000000000000000000164614613a0f577f9a2e42fd6722813d69113e7d0079d3d940171428df7373df9c7f7617cfda2892936129739365ffffffffffff936139f79388613ab0565b60408051868152919092166020820152918291820190565b63aeb80fdf60e01b5f5260045ffd5b949392613a4a608093613a3c613a589460a08a5260a08a0190612a86565b9088820360208a0152611786565b908682036040880152612ac2565b935f60608201520152565b9192613a9260a094613a84613aa0949998979960c0875260c0870190612a86565b908582036020870152611786565b908382036040850152612ac2565b945f606083015260808201520152565b600754909493919290613acb906001600160a01b0316610d18565b60405163793d064960e11b815294602086600481855afa958615611b18575f96613be8575b503060601b6001600160601b03191618956020604051809363b1c5f42760e01b82528180613b248c8a8a8d60048601613a1e565b03915afa918215611b18575f92613bc3575b50613b49905f52600860205260405f2090565b55600754613b5f906001600160a01b0316610d18565b90813b156104af575f8094613b8b87604051998a97889687956308f2a0bb60e41b875260048701613a63565b03925af1908115611b18576105de92613baa92613baf575b5042613672565b613625565b806130295f613bbd9361088e565b5f613ba3565b613b49919250613be19060203d602011611b1157611b03818361088e565b9190613b36565b613c0291965060203d602011611b1157611b03818361088e565b945f613af0565b6005546001608082901c9081016001600160801b039081169392168314613c5d575f90815260066020526040902055600580546001600160801b031660809290921b6001600160801b031916919091179055565b634e487b715f5260416020526024601cfd5b613c81815f52600460205260405f2090565b5460f881901c9060f01c60ff16613d6857613d6257613cae6128a161283f835f52600460205260405f2090565b8015613d4e57613cbf6128a1613794565b80911015613d4857613cd082612a10565b10613cdb5750600190565b613ce7610dce82614722565b8015613d25575b15613cf95750600390565b613d17905f52600460205265ffffffffffff600160405f2001541690565b613d2057600490565b600590565b50613d43610dce825f52600b60205260405f20600181015490541090565b613cee565b50505f90565b636ad0607560e01b5f52600482905260245ffd5b50600290565b5050600790565b90613d7b939291612b1a565b613d86603b82612f11565b50613db1613d9c825f52600460205260405f2090565b80546001600160f81b0316600160f81b179055565b6040518181527f789cf55be980739dad1d0699b93b58e806b51c9d96619bfa8fe0a28abaa7b30c90602090a1613def815f52600860205260405f2090565b5480613df9575090565b600754613e0e906001600160a01b0316610d18565b803b156104af5760405163c4d252f560e01b815260048101929092525f908290602490829084905af18015611b1857613e54575b505f8181526008602052604081205590565b806130295f613e629361088e565b5f613e42565b307f00000000000000000000000000000000000000000000000000000000000000006001600160a01b03161480613f55575b15613ec3577f000000000000000000000000000000000000000000000000000000000000000090565b60405160208101907f8b73c3c69bb8fe3d512ecc4cf759cc79239f7b179b0ffacaa9a75d522b39400f82527f000000000000000000000000000000000000000000000000000000000000000060408201527f000000000000000000000000000000000000000000000000000000000000000060608201524660808201523060a082015260a08152612b7b60c08261088e565b507f00000000000000000000000000000000000000000000000000000000000000004614613e9a565b8151919060418303613fae57613fa79250602082015190606060408401519301515f1a906147f7565b9192909190565b50505f9160029190565b60018111156105de57806001600160801b8210156140d9575b61407f61407561406b61406161405761404d61403c61408697600461408b9a600160401b8110156140cc575b6401000000008110156140bf575b620100008110156140b2575b6101008110156140a5575b6010811015614098575b1015614090575b60030260011c90565b614046818b613904565b0160011c90565b614046818a613904565b6140468189613904565b6140468188613904565b6140468187613904565b6140468186613904565b8093613904565b821190565b900390565b60011b614033565b60041c9160021b9161402c565b60081c9160041b91614022565b60101c9160081b91614017565b60201c9160101b9161400b565b60401c9160201b91613ffd565b505061408b61408661407f61407561406b61406161405761404d61403c6141008a60801c90565b9850600160401b9750613fd19650505050505050565b905b82811061412457505090565b90918082169080831860011c820180921161116257600c5f527fdf6966c971051c3d54ec59162606531493a51404a002842f56009d7e5cf4a8c782015465ffffffffffff908116908516101561417d5750915b90614118565b92915061418990613654565b90614177565b6040519061419c82610853565b5f6020838281520152565b91908260409103126104af576040516141bf81610853565b6020808294805184520151910152565b906040828203126104af576105de916141a7565b906020909392936040835263ffffffff81511660408401528181015160608401526080614237614221604084015160a08488015260e08701906105a9565b6060840151868203603f190160a08801526105a9565b910151151560c08401526001600160a01b03909416910152565b6142b09260409261426061418f565b5061426a83612d84565b6142816142756108c0565b63ffffffff9095168552565b60208401528383015260608201525f6080820152815180938192631bb8518b60e31b83523090600484016141e3565b03817f00000000000000000000000000000000000000000000000000000000000000006001600160a01b03165afa908115611b18575f916142ef575090565b6105de915060403d604011614311575b614309818361088e565b8101906141cf565b503d6142ff565b6040519061432582610873565b815f81525f6020820152604061433961418f565b910152565b6080818303126104af576040519161435583610873565b8151835260208201516001600160401b03811681036104af57602084015261437f916040016141a7565b604082015290565b6143f06080949261440c969461439b614318565b5060206143a8865161486f565b950191825180614474575b506143bd85612d84565b92511515926143d96143cd6108c0565b63ffffffff9097168752565b602086015260408501526060840152151585830152565b6040518095819482936302637a4560e41b8452600484016141e3565b03917f00000000000000000000000000000000000000000000000000000000000000006001600160a01b03165af1908115611b18575f9161444b575090565b6105de915060803d60801161446d575b614465818361088e565b81019061433e565b503d61445b565b61447d9061488c565b5f6143b3565b63ffffffff81116144975763ffffffff1690565b6306dfcc6560e41b5f52602060045260245260445ffd5b60ff81146144f45760ff811690601f82116144e557604051916144d260408461088e565b6020808452838101919036833783525290565b632cd44ac360e21b5f5260045ffd5b506040516105de81614506815f612395565b038261088e565b60ff81146145315760ff811690601f82116144e557604051916144d260408461088e565b506040516105de81614506816001612395565b908154600160401b81101561086e5760018101808455811015612665576108be925f5260205f20019061459465ffffffffffff825116839065ffffffffffff1665ffffffffffff19825416179055565b60200151815465ffffffffffff1660309190911b65ffffffffffff1916179055565b600c54919291801561466d576125cc6145ce91612434565b9081546145ea6145e38265ffffffffffff1690565b9160301c90565b9265ffffffffffff80841692169180831161465e578692036146285761462492509065ffffffffffff82549181199060301b169116179055565b9190565b5050614624906146476146396108af565b65ffffffffffff9092168252565b6001600160d01b03851660208201525b600c614544565b632520601d60e01b5f5260045ffd5b506146919061467d6146396108af565b6001600160d01b0384166020820152614657565b5f9190565b6007549094919391926001600160a01b0390911690813b156104af5760405163e38335e560e01b8152945f948694859384936146e7933060601b6001600160601b0319161892919060048601613a1e565b039134905af18015611b1857614709575b505f90815260086020526040812055565b806147155f809361088e565b8003126104af575f6146f8565b805f52600b60205260405f20905f52600460205265ffffffffffff60405f205460a01c1660405190632394e7a360e21b825280600483015260208260248160018060a01b037f0000000000000000000000000000000000000000000000000000000000000000165afa918215611b18575f926147d2575b506147a390612542565b90818102918183041490151715611162576147cd9060649004916002600182015491015490613672565b101590565b6147a39192506147f09060203d602011611b1157611b03818361088e565b9190614799565b91906fa2a8918ca85bafe22016d0b997e4df60600160ff1b038411614864579160209360809260ff5f9560405194855216868401526040830152606082015282805260015afa15611b18575f516001600160a01b0381161561485a57905f905f90565b505f906001905f90565b5050505f9160039190565b8047106148795790565b476304fb820960e51b5f5260045260245ffd5b60405163393f876560e21b81527f00000000000000000000000000000000000000000000000000000000000000006001600160a01b03169190602081600481865afa908115611b18575f91614907575b506001600160a01b03169182156148f8576108be923390614942565b6329b99a9560e11b5f5260045ffd5b90506020813d60201161493a575b816149226020938361088e565b810103126104af5751614934816106f9565b5f6148dc565b3d9150614915565b6040516323b872dd60e01b60208083019182526001600160a01b039485166024840152949093166044820152606480820195909552938452925f919061498960848261088e565b519082855af115612b81575f513d6149d057506001600160a01b0381163b155b6149b05750565b635274afe760e01b5f9081526001600160a01b0391909116600452602490fd5b600114156149a956fea26469706673582212205a6131c84df4a1d2316c069533897fd39dff8a99569cb706e1307b45a19585b664736f6c634300081c00330553476bf02ef2726e8ce5ced78d63e26e602e4a2257b1f559418e24b4633997",
  "linkReferences": {},
  "deployedLinkReferences": {}
}