{
  "_format": "hh-sol-artifact-1",
  "contractName": "PendlePtOracleArk",
  "sourceName": "src/contracts/arks/PendlePtOracleArk.sol",
  "abi": [
    {
      "inputs": [
        {
          "components": [
            {
              "internalType": "string",
              "name": "name",
              "type": "string"
            },
            {
              "internalType": "address",
              "name": "accessManager",
              "type": "address"
            },
            {
              "internalType": "address",
              "name": "configurationManager",
              "type": "address"
            },
            {
              "internalType": "address",
              "name": "asset",
              "type": "address"
            },
            {
              "internalType": "uint256",
              "name": "depositCap",
              "type": "uint256"
            },
            {
              "internalType": "uint256",
              "name": "maxRebalanceOutflow",
              "type": "uint256"
            },
            {
              "internalType": "uint256",
              "name": "maxRebalanceInflow",
              "type": "uint256"
            },
            {
              "internalType": "bool",
              "name": "requiresKeeperData",
              "type": "bool"
            }
          ],
          "internalType": "struct ArkParams",
          "name": "_params",
          "type": "tuple"
        },
        {
          "components": [
            {
              "internalType": "address",
              "name": "market",
              "type": "address"
            },
            {
              "internalType": "address",
              "name": "oracle",
              "type": "address"
            },
            {
              "internalType": "address",
              "name": "router",
              "type": "address"
            }
          ],
          "internalType": "struct PendlePtOracleArk.PendlePtArkConstructorParams",
          "name": "_pendlePtArkConstructorParams",
          "type": "tuple"
        },
        {
          "components": [
            {
              "internalType": "address",
              "name": "curvePool",
              "type": "address"
            },
            {
              "internalType": "uint256",
              "name": "basePrice",
              "type": "uint256"
            },
            {
              "internalType": "Percentage",
              "name": "lowerPercentageRange",
              "type": "uint256"
            },
            {
              "internalType": "Percentage",
              "name": "upperPercentageRange",
              "type": "uint256"
            }
          ],
          "internalType": "struct PendlePtOracleArk.CurveSwapArkConstructorParams",
          "name": "_curveSwapArkConstructorParams",
          "type": "tuple"
        }
      ],
      "stateMutability": "nonpayable",
      "type": "constructor"
    },
    {
      "inputs": [
        {
          "internalType": "address",
          "name": "caller",
          "type": "address"
        }
      ],
      "name": "CallerIsNotAdmin",
      "type": "error"
    },
    {
      "inputs": [
        {
          "internalType": "address",
          "name": "caller",
          "type": "address"
        }
      ],
      "name": "CallerIsNotAuthorizedToBoard",
      "type": "error"
    },
    {
      "inputs": [
        {
          "internalType": "address",
          "name": "caller",
          "type": "address"
        }
      ],
      "name": "CallerIsNotCommander",
      "type": "error"
    },
    {
      "inputs": [
        {
          "internalType": "address",
          "name": "caller",
          "type": "address"
        },
        {
          "internalType": "bytes32",
          "name": "role",
          "type": "bytes32"
        }
      ],
      "name": "CallerIsNotContractSpecificRole",
      "type": "error"
    },
    {
      "inputs": [
        {
          "internalType": "address",
          "name": "caller",
          "type": "address"
        }
      ],
      "name": "CallerIsNotCurator",
      "type": "error"
    },
    {
      "inputs": [
        {
          "internalType": "address",
          "name": "caller",
          "type": "address"
        }
      ],
      "name": "CallerIsNotGovernor",
      "type": "error"
    },
    {
      "inputs": [
        {
          "internalType": "address",
          "name": "caller",
          "type": "address"
        }
      ],
      "name": "CallerIsNotGuardian",
      "type": "error"
    },
    {
      "inputs": [
        {
          "internalType": "address",
          "name": "caller",
          "type": "address"
        }
      ],
      "name": "CallerIsNotGuardianOrGovernor",
      "type": "error"
    },
    {
      "inputs": [
        {
          "internalType": "address",
          "name": "caller",
          "type": "address"
        }
      ],
      "name": "CallerIsNotKeeper",
      "type": "error"
    },
    {
      "inputs": [
        {
          "internalType": "address",
          "name": "caller",
          "type": "address"
        }
      ],
      "name": "CallerIsNotRaft",
      "type": "error"
    },
    {
      "inputs": [
        {
          "internalType": "address",
          "name": "caller",
          "type": "address"
        }
      ],
      "name": "CallerIsNotRaftOrCommander",
      "type": "error"
    },
    {
      "inputs": [
        {
          "internalType": "address",
          "name": "caller",
          "type": "address"
        }
      ],
      "name": "CallerIsNotSuperKeeper",
      "type": "error"
    },
    {
      "inputs": [],
      "name": "CannotAddCommanderToArkWithCommander",
      "type": "error"
    },
    {
      "inputs": [],
      "name": "CannotDeployArkWithEmptyName",
      "type": "error"
    },
    {
      "inputs": [],
      "name": "CannotDeployArkWithoutConfigurationManager",
      "type": "error"
    },
    {
      "inputs": [],
      "name": "CannotDeployArkWithoutRaft",
      "type": "error"
    },
    {
      "inputs": [],
      "name": "CannotDeployArkWithoutToken",
      "type": "error"
    },
    {
      "inputs": [],
      "name": "CannotRemoveCommanderFromArkWithAssets",
      "type": "error"
    },
    {
      "inputs": [],
      "name": "CannotUseKeeperDataWhenNotRequired",
      "type": "error"
    },
    {
      "inputs": [],
      "name": "ConfigurationManagerZeroAddress",
      "type": "error"
    },
    {
      "inputs": [
        {
          "internalType": "address",
          "name": "caller",
          "type": "address"
        }
      ],
      "name": "DirectGrantIsDisabled",
      "type": "error"
    },
    {
      "inputs": [
        {
          "internalType": "address",
          "name": "caller",
          "type": "address"
        }
      ],
      "name": "DirectRevokeIsDisabled",
      "type": "error"
    },
    {
      "inputs": [],
      "name": "ERC4626AssetMismatch",
      "type": "error"
    },
    {
      "inputs": [],
      "name": "EmaOutOfRange",
      "type": "error"
    },
    {
      "inputs": [
        {
          "internalType": "Percentage",
          "name": "emaRange",
          "type": "uint256"
        }
      ],
      "name": "EmaRangeTooHigh",
      "type": "error"
    },
    {
      "inputs": [],
      "name": "InsufficientOutputAmount",
      "type": "error"
    },
    {
      "inputs": [
        {
          "internalType": "address",
          "name": "invalidAddress",
          "type": "address"
        }
      ],
      "name": "InvalidAccessManagerAddress",
      "type": "error"
    },
    {
      "inputs": [],
      "name": "InvalidAssetForSY",
      "type": "error"
    },
    {
      "inputs": [
        {
          "internalType": "address",
          "name": "baseToken",
          "type": "address"
        }
      ],
      "name": "InvalidBaseToken",
      "type": "error"
    },
    {
      "inputs": [],
      "name": "InvalidBoardData",
      "type": "error"
    },
    {
      "inputs": [],
      "name": "InvalidDisembarkData",
      "type": "error"
    },
    {
      "inputs": [],
      "name": "InvalidFunctionSelector",
      "type": "error"
    },
    {
      "inputs": [],
      "name": "InvalidMarket",
      "type": "error"
    },
    {
      "inputs": [],
      "name": "InvalidMarketExpiry",
      "type": "error"
    },
    {
      "inputs": [],
      "name": "InvalidNextMarket",
      "type": "error"
    },
    {
      "inputs": [],
      "name": "InvalidParamsLength",
      "type": "error"
    },
    {
      "inputs": [],
      "name": "InvalidReceiver",
      "type": "error"
    },
    {
      "inputs": [],
      "name": "InvalidSwapType",
      "type": "error"
    },
    {
      "inputs": [],
      "name": "InvalidVaultAddress",
      "type": "error"
    },
    {
      "inputs": [],
      "name": "KeeperDataRequired",
      "type": "error"
    },
    {
      "inputs": [],
      "name": "LowerEmaNotLessThanUpperEma",
      "type": "error"
    },
    {
      "inputs": [],
      "name": "MarketExpirationTooClose",
      "type": "error"
    },
    {
      "inputs": [],
      "name": "MarketExpired",
      "type": "error"
    },
    {
      "inputs": [
        {
          "internalType": "uint32",
          "name": "oracleDuration",
          "type": "uint32"
        },
        {
          "internalType": "uint256",
          "name": "minOracleDuration",
          "type": "uint256"
        }
      ],
      "name": "OracleDurationTooLow",
      "type": "error"
    },
    {
      "inputs": [],
      "name": "ReentrancyGuardReentrantCall",
      "type": "error"
    },
    {
      "inputs": [
        {
          "internalType": "address",
          "name": "token",
          "type": "address"
        }
      ],
      "name": "SafeERC20FailedOperation",
      "type": "error"
    },
    {
      "inputs": [
        {
          "internalType": "Percentage",
          "name": "slippagePercentage",
          "type": "uint256"
        },
        {
          "internalType": "Percentage",
          "name": "maxSlippagePercentage",
          "type": "uint256"
        }
      ],
      "name": "SlippagePercentageTooHigh",
      "type": "error"
    },
    {
      "inputs": [],
      "name": "UpperEmaNotGreaterThanLowerEma",
      "type": "error"
    },
    {
      "anonymous": false,
      "inputs": [
        {
          "indexed": true,
          "internalType": "address[]",
          "name": "rewardTokens",
          "type": "address[]"
        },
        {
          "indexed": true,
          "internalType": "uint256[]",
          "name": "rewardAmounts",
          "type": "uint256[]"
        }
      ],
      "name": "ArkHarvested",
      "type": "event"
    },
    {
      "anonymous": false,
      "inputs": [
        {
          "indexed": false,
          "internalType": "uint256",
          "name": "currentPrice",
          "type": "uint256"
        },
        {
          "indexed": false,
          "internalType": "uint256",
          "name": "timestamp",
          "type": "uint256"
        }
      ],
      "name": "ArkPoked",
      "type": "event"
    },
    {
      "anonymous": false,
      "inputs": [
        {
          "indexed": true,
          "internalType": "address[]",
          "name": "sweptTokens",
          "type": "address[]"
        },
        {
          "indexed": true,
          "internalType": "uint256[]",
          "name": "sweptAmounts",
          "type": "uint256[]"
        }
      ],
      "name": "ArkSwept",
      "type": "event"
    },
    {
      "anonymous": false,
      "inputs": [
        {
          "indexed": false,
          "internalType": "uint256",
          "name": "basePrice",
          "type": "uint256"
        }
      ],
      "name": "BasePriceUpdated",
      "type": "event"
    },
    {
      "anonymous": false,
      "inputs": [
        {
          "indexed": true,
          "internalType": "address",
          "name": "commander",
          "type": "address"
        },
        {
          "indexed": false,
          "internalType": "address",
          "name": "token",
          "type": "address"
        },
        {
          "indexed": false,
          "internalType": "uint256",
          "name": "amount",
          "type": "uint256"
        }
      ],
      "name": "Boarded",
      "type": "event"
    },
    {
      "anonymous": false,
      "inputs": [
        {
          "indexed": false,
          "internalType": "uint256",
          "name": "newCap",
          "type": "uint256"
        }
      ],
      "name": "DepositCapUpdated",
      "type": "event"
    },
    {
      "anonymous": false,
      "inputs": [
        {
          "indexed": true,
          "internalType": "address",
          "name": "commander",
          "type": "address"
        },
        {
          "indexed": false,
          "internalType": "address",
          "name": "token",
          "type": "address"
        },
        {
          "indexed": false,
          "internalType": "uint256",
          "name": "amount",
          "type": "uint256"
        }
      ],
      "name": "Disembarked",
      "type": "event"
    },
    {
      "anonymous": false,
      "inputs": [
        {
          "indexed": false,
          "internalType": "Percentage",
          "name": "lowerPercentageRange",
          "type": "uint256"
        },
        {
          "indexed": false,
          "internalType": "Percentage",
          "name": "upperPercentageRange",
          "type": "uint256"
        }
      ],
      "name": "EmaRangeUpdated",
      "type": "event"
    },
    {
      "anonymous": false,
      "inputs": [
        {
          "indexed": false,
          "internalType": "address",
          "name": "commander",
          "type": "address"
        }
      ],
      "name": "FleetCommanderRegistered",
      "type": "event"
    },
    {
      "anonymous": false,
      "inputs": [
        {
          "indexed": false,
          "internalType": "address",
          "name": "commander",
          "type": "address"
        }
      ],
      "name": "FleetCommanderUnregistered",
      "type": "event"
    },
    {
      "anonymous": false,
      "inputs": [
        {
          "indexed": false,
          "internalType": "address",
          "name": "newMarket",
          "type": "address"
        }
      ],
      "name": "MarketRolledOver",
      "type": "event"
    },
    {
      "anonymous": false,
      "inputs": [
        {
          "indexed": false,
          "internalType": "uint256",
          "name": "newMaxInflow",
          "type": "uint256"
        }
      ],
      "name": "MaxRebalanceInflowUpdated",
      "type": "event"
    },
    {
      "anonymous": false,
      "inputs": [
        {
          "indexed": false,
          "internalType": "uint256",
          "name": "newMaxOutflow",
          "type": "uint256"
        }
      ],
      "name": "MaxRebalanceOutflowUpdated",
      "type": "event"
    },
    {
      "anonymous": false,
      "inputs": [
        {
          "indexed": true,
          "internalType": "address",
          "name": "from",
          "type": "address"
        },
        {
          "indexed": true,
          "internalType": "address",
          "name": "to",
          "type": "address"
        },
        {
          "indexed": false,
          "internalType": "address",
          "name": "token",
          "type": "address"
        },
        {
          "indexed": false,
          "internalType": "uint256",
          "name": "amount",
          "type": "uint256"
        }
      ],
      "name": "Moved",
      "type": "event"
    },
    {
      "anonymous": false,
      "inputs": [
        {
          "indexed": false,
          "internalType": "uint32",
          "name": "oracleDuration",
          "type": "uint32"
        }
      ],
      "name": "OracleDurationUpdated",
      "type": "event"
    },
    {
      "anonymous": false,
      "inputs": [
        {
          "indexed": false,
          "internalType": "address",
          "name": "newRaft",
          "type": "address"
        }
      ],
      "name": "RaftUpdated",
      "type": "event"
    },
    {
      "anonymous": false,
      "inputs": [
        {
          "indexed": false,
          "internalType": "Percentage",
          "name": "slippagePercentage",
          "type": "uint256"
        }
      ],
      "name": "SlippageUpdated",
      "type": "event"
    },
    {
      "inputs": [],
      "name": "MAX_SLIPPAGE_PERCENTAGE",
      "outputs": [
        {
          "internalType": "Percentage",
          "name": "",
          "type": "uint256"
        }
      ],
      "stateMutability": "view",
      "type": "function"
    },
    {
      "inputs": [],
      "name": "MIN_ORACLE_DURATION",
      "outputs": [
        {
          "internalType": "uint256",
          "name": "",
          "type": "uint256"
        }
      ],
      "stateMutability": "view",
      "type": "function"
    },
    {
      "inputs": [],
      "name": "PT",
      "outputs": [
        {
          "internalType": "contract IPPrincipalToken",
          "name": "",
          "type": "address"
        }
      ],
      "stateMutability": "view",
      "type": "function"
    },
    {
      "inputs": [],
      "name": "SY",
      "outputs": [
        {
          "internalType": "contract IStandardizedYield",
          "name": "",
          "type": "address"
        }
      ],
      "stateMutability": "view",
      "type": "function"
    },
    {
      "inputs": [],
      "name": "YT",
      "outputs": [
        {
          "internalType": "contract IPYieldToken",
          "name": "",
          "type": "address"
        }
      ],
      "stateMutability": "view",
      "type": "function"
    },
    {
      "inputs": [],
      "name": "asset",
      "outputs": [
        {
          "internalType": "contract IERC20",
          "name": "",
          "type": "address"
        }
      ],
      "stateMutability": "view",
      "type": "function"
    },
    {
      "inputs": [],
      "name": "basePrice",
      "outputs": [
        {
          "internalType": "uint256",
          "name": "",
          "type": "uint256"
        }
      ],
      "stateMutability": "view",
      "type": "function"
    },
    {
      "inputs": [],
      "name": "baseToken",
      "outputs": [
        {
          "internalType": "address",
          "name": "",
          "type": "address"
        }
      ],
      "stateMutability": "view",
      "type": "function"
    },
    {
      "inputs": [
        {
          "internalType": "uint256",
          "name": "amount",
          "type": "uint256"
        },
        {
          "internalType": "bytes",
          "name": "boardData",
          "type": "bytes"
        }
      ],
      "name": "board",
      "outputs": [],
      "stateMutability": "nonpayable",
      "type": "function"
    },
    {
      "inputs": [],
      "name": "commander",
      "outputs": [
        {
          "internalType": "address",
          "name": "",
          "type": "address"
        }
      ],
      "stateMutability": "view",
      "type": "function"
    },
    {
      "inputs": [],
      "name": "config",
      "outputs": [
        {
          "internalType": "address",
          "name": "commander",
          "type": "address"
        },
        {
          "internalType": "address",
          "name": "raft",
          "type": "address"
        },
        {
          "internalType": "contract IERC20",
          "name": "asset",
          "type": "address"
        },
        {
          "internalType": "uint256",
          "name": "depositCap",
          "type": "uint256"
        },
        {
          "internalType": "uint256",
          "name": "maxRebalanceOutflow",
          "type": "uint256"
        },
        {
          "internalType": "uint256",
          "name": "maxRebalanceInflow",
          "type": "uint256"
        },
        {
          "internalType": "string",
          "name": "name",
          "type": "string"
        },
        {
          "internalType": "bool",
          "name": "requiresKeeperData",
          "type": "bool"
        }
      ],
      "stateMutability": "view",
      "type": "function"
    },
    {
      "inputs": [],
      "name": "configTokenDecimals",
      "outputs": [
        {
          "internalType": "uint8",
          "name": "",
          "type": "uint8"
        }
      ],
      "stateMutability": "view",
      "type": "function"
    },
    {
      "inputs": [],
      "name": "configurationManager",
      "outputs": [
        {
          "internalType": "contract IConfigurationManager",
          "name": "",
          "type": "address"
        }
      ],
      "stateMutability": "view",
      "type": "function"
    },
    {
      "inputs": [],
      "name": "curveSwap",
      "outputs": [
        {
          "internalType": "contract ICurveSwap",
          "name": "",
          "type": "address"
        }
      ],
      "stateMutability": "view",
      "type": "function"
    },
    {
      "inputs": [],
      "name": "depositCap",
      "outputs": [
        {
          "internalType": "uint256",
          "name": "",
          "type": "uint256"
        }
      ],
      "stateMutability": "view",
      "type": "function"
    },
    {
      "inputs": [
        {
          "internalType": "uint256",
          "name": "amount",
          "type": "uint256"
        },
        {
          "internalType": "bytes",
          "name": "disembarkData",
          "type": "bytes"
        }
      ],
      "name": "disembark",
      "outputs": [],
      "stateMutability": "nonpayable",
      "type": "function"
    },
    {
      "inputs": [],
      "name": "emptySwap",
      "outputs": [
        {
          "internalType": "enum SwapType",
          "name": "swapType",
          "type": "uint8"
        },
        {
          "internalType": "address",
          "name": "extRouter",
          "type": "address"
        },
        {
          "internalType": "bytes",
          "name": "extCalldata",
          "type": "bytes"
        },
        {
          "internalType": "bool",
          "name": "needScale",
          "type": "bool"
        }
      ],
      "stateMutability": "view",
      "type": "function"
    },
    {
      "inputs": [
        {
          "internalType": "enum ContractSpecificRoles",
          "name": "roleName",
          "type": "uint8"
        },
        {
          "internalType": "address",
          "name": "roleTargetContract",
          "type": "address"
        }
      ],
      "name": "generateRole",
      "outputs": [
        {
          "internalType": "bytes32",
          "name": "",
          "type": "bytes32"
        }
      ],
      "stateMutability": "pure",
      "type": "function"
    },
    {
      "inputs": [],
      "name": "getConfig",
      "outputs": [
        {
          "components": [
            {
              "internalType": "address",
              "name": "commander",
              "type": "address"
            },
            {
              "internalType": "address",
              "name": "raft",
              "type": "address"
            },
            {
              "internalType": "contract IERC20",
              "name": "asset",
              "type": "address"
            },
            {
              "internalType": "uint256",
              "name": "depositCap",
              "type": "uint256"
            },
            {
              "internalType": "uint256",
              "name": "maxRebalanceOutflow",
              "type": "uint256"
            },
            {
              "internalType": "uint256",
              "name": "maxRebalanceInflow",
              "type": "uint256"
            },
            {
              "internalType": "string",
              "name": "name",
              "type": "string"
            },
            {
              "internalType": "bool",
              "name": "requiresKeeperData",
              "type": "bool"
            }
          ],
          "internalType": "struct ArkConfig",
          "name": "",
          "type": "tuple"
        }
      ],
      "stateMutability": "view",
      "type": "function"
    },
    {
      "inputs": [],
      "name": "getExchangeRate",
      "outputs": [
        {
          "internalType": "uint256",
          "name": "price",
          "type": "uint256"
        }
      ],
      "stateMutability": "view",
      "type": "function"
    },
    {
      "inputs": [],
      "name": "getExchangeRateEma",
      "outputs": [
        {
          "internalType": "uint256",
          "name": "price",
          "type": "uint256"
        }
      ],
      "stateMutability": "view",
      "type": "function"
    },
    {
      "inputs": [],
      "name": "getLowerBound",
      "outputs": [
        {
          "internalType": "uint256",
          "name": "",
          "type": "uint256"
        }
      ],
      "stateMutability": "view",
      "type": "function"
    },
    {
      "inputs": [],
      "name": "getSafeExchangeRate",
      "outputs": [
        {
          "internalType": "uint256",
          "name": "price",
          "type": "uint256"
        }
      ],
      "stateMutability": "view",
      "type": "function"
    },
    {
      "inputs": [],
      "name": "getSafeExchangeRateEma",
      "outputs": [
        {
          "internalType": "uint256",
          "name": "price",
          "type": "uint256"
        }
      ],
      "stateMutability": "view",
      "type": "function"
    },
    {
      "inputs": [],
      "name": "getUpperBound",
      "outputs": [
        {
          "internalType": "uint256",
          "name": "",
          "type": "uint256"
        }
      ],
      "stateMutability": "view",
      "type": "function"
    },
    {
      "inputs": [],
      "name": "harborCommand",
      "outputs": [
        {
          "internalType": "address",
          "name": "",
          "type": "address"
        }
      ],
      "stateMutability": "view",
      "type": "function"
    },
    {
      "inputs": [
        {
          "internalType": "bytes",
          "name": "additionalData",
          "type": "bytes"
        }
      ],
      "name": "harvest",
      "outputs": [
        {
          "internalType": "address[]",
          "name": "rewardTokens",
          "type": "address[]"
        },
        {
          "internalType": "uint256[]",
          "name": "rewardAmounts",
          "type": "uint256[]"
        }
      ],
      "stateMutability": "nonpayable",
      "type": "function"
    },
    {
      "inputs": [],
      "name": "isMarketExpired",
      "outputs": [
        {
          "internalType": "bool",
          "name": "",
          "type": "bool"
        }
      ],
      "stateMutability": "view",
      "type": "function"
    },
    {
      "inputs": [],
      "name": "lowerPercentageRange",
      "outputs": [
        {
          "internalType": "Percentage",
          "name": "",
          "type": "uint256"
        }
      ],
      "stateMutability": "view",
      "type": "function"
    },
    {
      "inputs": [],
      "name": "market",
      "outputs": [
        {
          "internalType": "address",
          "name": "",
          "type": "address"
        }
      ],
      "stateMutability": "view",
      "type": "function"
    },
    {
      "inputs": [],
      "name": "marketAsset",
      "outputs": [
        {
          "internalType": "address",
          "name": "",
          "type": "address"
        }
      ],
      "stateMutability": "view",
      "type": "function"
    },
    {
      "inputs": [],
      "name": "marketAssetDecimals",
      "outputs": [
        {
          "internalType": "uint8",
          "name": "",
          "type": "uint8"
        }
      ],
      "stateMutability": "view",
      "type": "function"
    },
    {
      "inputs": [],
      "name": "marketExpiry",
      "outputs": [
        {
          "internalType": "uint256",
          "name": "",
          "type": "uint256"
        }
      ],
      "stateMutability": "view",
      "type": "function"
    },
    {
      "inputs": [],
      "name": "maxRebalanceInflow",
      "outputs": [
        {
          "internalType": "uint256",
          "name": "",
          "type": "uint256"
        }
      ],
      "stateMutability": "view",
      "type": "function"
    },
    {
      "inputs": [],
      "name": "maxRebalanceOutflow",
      "outputs": [
        {
          "internalType": "uint256",
          "name": "",
          "type": "uint256"
        }
      ],
      "stateMutability": "view",
      "type": "function"
    },
    {
      "inputs": [
        {
          "internalType": "uint256",
          "name": "amount",
          "type": "uint256"
        },
        {
          "internalType": "address",
          "name": "receiverArk",
          "type": "address"
        },
        {
          "internalType": "bytes",
          "name": "boardData",
          "type": "bytes"
        },
        {
          "internalType": "bytes",
          "name": "disembarkData",
          "type": "bytes"
        }
      ],
      "name": "move",
      "outputs": [],
      "stateMutability": "nonpayable",
      "type": "function"
    },
    {
      "inputs": [],
      "name": "name",
      "outputs": [
        {
          "internalType": "string",
          "name": "",
          "type": "string"
        }
      ],
      "stateMutability": "view",
      "type": "function"
    },
    {
      "inputs": [],
      "name": "nextMarket",
      "outputs": [
        {
          "internalType": "address",
          "name": "",
          "type": "address"
        }
      ],
      "stateMutability": "view",
      "type": "function"
    },
    {
      "inputs": [],
      "name": "oracle",
      "outputs": [
        {
          "internalType": "address",
          "name": "",
          "type": "address"
        }
      ],
      "stateMutability": "view",
      "type": "function"
    },
    {
      "inputs": [],
      "name": "oracleDuration",
      "outputs": [
        {
          "internalType": "uint32",
          "name": "",
          "type": "uint32"
        }
      ],
      "stateMutability": "view",
      "type": "function"
    },
    {
      "inputs": [],
      "name": "ptDecimals",
      "outputs": [
        {
          "internalType": "uint8",
          "name": "",
          "type": "uint8"
        }
      ],
      "stateMutability": "view",
      "type": "function"
    },
    {
      "inputs": [],
      "name": "raft",
      "outputs": [
        {
          "internalType": "address",
          "name": "",
          "type": "address"
        }
      ],
      "stateMutability": "view",
      "type": "function"
    },
    {
      "inputs": [],
      "name": "registerFleetCommander",
      "outputs": [],
      "stateMutability": "nonpayable",
      "type": "function"
    },
    {
      "inputs": [],
      "name": "requiresKeeperData",
      "outputs": [
        {
          "internalType": "bool",
          "name": "",
          "type": "bool"
        }
      ],
      "stateMutability": "view",
      "type": "function"
    },
    {
      "inputs": [],
      "name": "rolloverIfNeeded",
      "outputs": [],
      "stateMutability": "nonpayable",
      "type": "function"
    },
    {
      "inputs": [],
      "name": "router",
      "outputs": [
        {
          "internalType": "address",
          "name": "",
          "type": "address"
        }
      ],
      "stateMutability": "view",
      "type": "function"
    },
    {
      "inputs": [],
      "name": "routerParams",
      "outputs": [
        {
          "internalType": "uint256",
          "name": "guessMin",
          "type": "uint256"
        },
        {
          "internalType": "uint256",
          "name": "guessMax",
          "type": "uint256"
        },
        {
          "internalType": "uint256",
          "name": "guessOffchain",
          "type": "uint256"
        },
        {
          "internalType": "uint256",
          "name": "maxIteration",
          "type": "uint256"
        },
        {
          "internalType": "uint256",
          "name": "eps",
          "type": "uint256"
        }
      ],
      "stateMutability": "view",
      "type": "function"
    },
    {
      "inputs": [
        {
          "internalType": "uint256",
          "name": "_basePrice",
          "type": "uint256"
        }
      ],
      "name": "setBasePrice",
      "outputs": [],
      "stateMutability": "nonpayable",
      "type": "function"
    },
    {
      "inputs": [
        {
          "internalType": "uint256",
          "name": "newDepositCap",
          "type": "uint256"
        }
      ],
      "name": "setDepositCap",
      "outputs": [],
      "stateMutability": "nonpayable",
      "type": "function"
    },
    {
      "inputs": [
        {
          "internalType": "Percentage",
          "name": "_lowerPercentageRange",
          "type": "uint256"
        },
        {
          "internalType": "Percentage",
          "name": "_upperPercentageRange",
          "type": "uint256"
        }
      ],
      "name": "setEmaRange",
      "outputs": [],
      "stateMutability": "nonpayable",
      "type": "function"
    },
    {
      "inputs": [
        {
          "internalType": "uint256",
          "name": "newMaxRebalanceInflow",
          "type": "uint256"
        }
      ],
      "name": "setMaxRebalanceInflow",
      "outputs": [],
      "stateMutability": "nonpayable",
      "type": "function"
    },
    {
      "inputs": [
        {
          "internalType": "uint256",
          "name": "newMaxRebalanceOutflow",
          "type": "uint256"
        }
      ],
      "name": "setMaxRebalanceOutflow",
      "outputs": [],
      "stateMutability": "nonpayable",
      "type": "function"
    },
    {
      "inputs": [
        {
          "internalType": "address",
          "name": "_nextMarket",
          "type": "address"
        }
      ],
      "name": "setNextMarket",
      "outputs": [],
      "stateMutability": "nonpayable",
      "type": "function"
    },
    {
      "inputs": [
        {
          "internalType": "uint32",
          "name": "_oracleDuration",
          "type": "uint32"
        }
      ],
      "name": "setOracleDuration",
      "outputs": [],
      "stateMutability": "nonpayable",
      "type": "function"
    },
    {
      "inputs": [
        {
          "internalType": "Percentage",
          "name": "_slippagePercentage",
          "type": "uint256"
        }
      ],
      "name": "setSlippagePercentage",
      "outputs": [],
      "stateMutability": "nonpayable",
      "type": "function"
    },
    {
      "inputs": [],
      "name": "slippagePercentage",
      "outputs": [
        {
          "internalType": "Percentage",
          "name": "",
          "type": "uint256"
        }
      ],
      "stateMutability": "view",
      "type": "function"
    },
    {
      "inputs": [
        {
          "internalType": "address[]",
          "name": "tokens",
          "type": "address[]"
        }
      ],
      "name": "sweep",
      "outputs": [
        {
          "internalType": "address[]",
          "name": "sweptTokens",
          "type": "address[]"
        },
        {
          "internalType": "uint256[]",
          "name": "sweptAmounts",
          "type": "uint256[]"
        }
      ],
      "stateMutability": "nonpayable",
      "type": "function"
    },
    {
      "inputs": [],
      "name": "tipJar",
      "outputs": [
        {
          "internalType": "address",
          "name": "",
          "type": "address"
        }
      ],
      "stateMutability": "view",
      "type": "function"
    },
    {
      "inputs": [],
      "name": "totalAssets",
      "outputs": [
        {
          "internalType": "uint256",
          "name": "",
          "type": "uint256"
        }
      ],
      "stateMutability": "view",
      "type": "function"
    },
    {
      "inputs": [],
      "name": "totalAssetsNoSlippage",
      "outputs": [
        {
          "internalType": "uint256",
          "name": "",
          "type": "uint256"
        }
      ],
      "stateMutability": "view",
      "type": "function"
    },
    {
      "inputs": [],
      "name": "treasury",
      "outputs": [
        {
          "internalType": "address",
          "name": "",
          "type": "address"
        }
      ],
      "stateMutability": "view",
      "type": "function"
    },
    {
      "inputs": [],
      "name": "unregisterFleetCommander",
      "outputs": [],
      "stateMutability": "nonpayable",
      "type": "function"
    },
    {
      "inputs": [],
      "name": "upperPercentageRange",
      "outputs": [
        {
          "internalType": "Percentage",
          "name": "",
          "type": "uint256"
        }
      ],
      "stateMutability": "view",
      "type": "function"
    },
    {
      "inputs": [
        {
          "internalType": "bytes",
          "name": "params",
          "type": "bytes"
        }
      ],
      "name": "validateAndDecodeSwapForPtParams",
      "outputs": [
        {
          "internalType": "address",
          "name": "receiver",
          "type": "address"
        },
        {
          "internalType": "address",
          "name": "swapMarket",
          "type": "address"
        },
        {
          "internalType": "uint256",
          "name": "minPtOut",
          "type": "uint256"
        },
        {
          "components": [
            {
              "internalType": "uint256",
              "name": "guessMin",
              "type": "uint256"
            },
            {
              "internalType": "uint256",
              "name": "guessMax",
              "type": "uint256"
            },
            {
              "internalType": "uint256",
              "name": "guessOffchain",
              "type": "uint256"
            },
            {
              "internalType": "uint256",
              "name": "maxIteration",
              "type": "uint256"
            },
            {
              "internalType": "uint256",
              "name": "eps",
              "type": "uint256"
            }
          ],
          "internalType": "struct ApproxParams",
          "name": "guessPtOut",
          "type": "tuple"
        },
        {
          "components": [
            {
              "internalType": "address",
              "name": "tokenIn",
              "type": "address"
            },
            {
              "internalType": "uint256",
              "name": "netTokenIn",
              "type": "uint256"
            },
            {
              "internalType": "address",
              "name": "tokenMintSy",
              "type": "address"
            },
            {
              "internalType": "address",
              "name": "pendleSwap",
              "type": "address"
            },
            {
              "components": [
                {
                  "internalType": "enum SwapType",
                  "name": "swapType",
                  "type": "uint8"
                },
                {
                  "internalType": "address",
                  "name": "extRouter",
                  "type": "address"
                },
                {
                  "internalType": "bytes",
                  "name": "extCalldata",
                  "type": "bytes"
                },
                {
                  "internalType": "bool",
                  "name": "needScale",
                  "type": "bool"
                }
              ],
              "internalType": "struct SwapData",
              "name": "swapData",
              "type": "tuple"
            }
          ],
          "internalType": "struct TokenInput",
          "name": "input",
          "type": "tuple"
        },
        {
          "components": [
            {
              "internalType": "address",
              "name": "limitRouter",
              "type": "address"
            },
            {
              "internalType": "uint256",
              "name": "epsSkipMarket",
              "type": "uint256"
            },
            {
              "components": [
                {
                  "components": [
                    {
                      "internalType": "uint256",
                      "name": "salt",
                      "type": "uint256"
                    },
                    {
                      "internalType": "uint256",
                      "name": "expiry",
                      "type": "uint256"
                    },
                    {
                      "internalType": "uint256",
                      "name": "nonce",
                      "type": "uint256"
                    },
                    {
                      "internalType": "enum IPLimitOrderType.OrderType",
                      "name": "orderType",
                      "type": "uint8"
                    },
                    {
                      "internalType": "address",
                      "name": "token",
                      "type": "address"
                    },
                    {
                      "internalType": "address",
                      "name": "YT",
                      "type": "address"
                    },
                    {
                      "internalType": "address",
                      "name": "maker",
                      "type": "address"
                    },
                    {
                      "internalType": "address",
                      "name": "receiver",
                      "type": "address"
                    },
                    {
                      "internalType": "uint256",
                      "name": "makingAmount",
                      "type": "uint256"
                    },
                    {
                      "internalType": "uint256",
                      "name": "lnImpliedRate",
                      "type": "uint256"
                    },
                    {
                      "internalType": "uint256",
                      "name": "failSafeRate",
                      "type": "uint256"
                    },
                    {
                      "internalType": "bytes",
                      "name": "permit",
                      "type": "bytes"
                    }
                  ],
                  "internalType": "struct Order",
                  "name": "order",
                  "type": "tuple"
                },
                {
                  "internalType": "bytes",
                  "name": "signature",
                  "type": "bytes"
                },
                {
                  "internalType": "uint256",
                  "name": "makingAmount",
                  "type": "uint256"
                }
              ],
              "internalType": "struct FillOrderParams[]",
              "name": "normalFills",
              "type": "tuple[]"
            },
            {
              "components": [
                {
                  "components": [
                    {
                      "internalType": "uint256",
                      "name": "salt",
                      "type": "uint256"
                    },
                    {
                      "internalType": "uint256",
                      "name": "expiry",
                      "type": "uint256"
                    },
                    {
                      "internalType": "uint256",
                      "name": "nonce",
                      "type": "uint256"
                    },
                    {
                      "internalType": "enum IPLimitOrderType.OrderType",
                      "name": "orderType",
                      "type": "uint8"
                    },
                    {
                      "internalType": "address",
                      "name": "token",
                      "type": "address"
                    },
                    {
                      "internalType": "address",
                      "name": "YT",
                      "type": "address"
                    },
                    {
                      "internalType": "address",
                      "name": "maker",
                      "type": "address"
                    },
                    {
                      "internalType": "address",
                      "name": "receiver",
                      "type": "address"
                    },
                    {
                      "internalType": "uint256",
                      "name": "makingAmount",
                      "type": "uint256"
                    },
                    {
                      "internalType": "uint256",
                      "name": "lnImpliedRate",
                      "type": "uint256"
                    },
                    {
                      "internalType": "uint256",
                      "name": "failSafeRate",
                      "type": "uint256"
                    },
                    {
                      "internalType": "bytes",
                      "name": "permit",
                      "type": "bytes"
                    }
                  ],
                  "internalType": "struct Order",
                  "name": "order",
                  "type": "tuple"
                },
                {
                  "internalType": "bytes",
                  "name": "signature",
                  "type": "bytes"
                },
                {
                  "internalType": "uint256",
                  "name": "makingAmount",
                  "type": "uint256"
                }
              ],
              "internalType": "struct FillOrderParams[]",
              "name": "flashFills",
              "type": "tuple[]"
            },
            {
              "internalType": "bytes",
              "name": "optData",
              "type": "bytes"
            }
          ],
          "internalType": "struct LimitOrderData",
          "name": "limit",
          "type": "tuple"
        }
      ],
      "stateMutability": "pure",
      "type": "function"
    },
    {
      "inputs": [
        {
          "internalType": "bytes",
          "name": "params",
          "type": "bytes"
        }
      ],
      "name": "validateAndDecodeSwapPtForTokenParams",
      "outputs": [
        {
          "internalType": "address",
          "name": "receiver",
          "type": "address"
        },
        {
          "internalType": "address",
          "name": "swapMarket",
          "type": "address"
        },
        {
          "internalType": "uint256",
          "name": "exactPtIn",
          "type": "uint256"
        },
        {
          "components": [
            {
              "internalType": "address",
              "name": "tokenOut",
              "type": "address"
            },
            {
              "internalType": "uint256",
              "name": "minTokenOut",
              "type": "uint256"
            },
            {
              "internalType": "address",
              "name": "tokenRedeemSy",
              "type": "address"
            },
            {
              "internalType": "address",
              "name": "pendleSwap",
              "type": "address"
            },
            {
              "components": [
                {
                  "internalType": "enum SwapType",
                  "name": "swapType",
                  "type": "uint8"
                },
                {
                  "internalType": "address",
                  "name": "extRouter",
                  "type": "address"
                },
                {
                  "internalType": "bytes",
                  "name": "extCalldata",
                  "type": "bytes"
                },
                {
                  "internalType": "bool",
                  "name": "needScale",
                  "type": "bool"
                }
              ],
              "internalType": "struct SwapData",
              "name": "swapData",
              "type": "tuple"
            }
          ],
          "internalType": "struct TokenOutput",
          "name": "output",
          "type": "tuple"
        },
        {
          "components": [
            {
              "internalType": "address",
              "name": "limitRouter",
              "type": "address"
            },
            {
              "internalType": "uint256",
              "name": "epsSkipMarket",
              "type": "uint256"
            },
            {
              "components": [
                {
                  "components": [
                    {
                      "internalType": "uint256",
                      "name": "salt",
                      "type": "uint256"
                    },
                    {
                      "internalType": "uint256",
                      "name": "expiry",
                      "type": "uint256"
                    },
                    {
                      "internalType": "uint256",
                      "name": "nonce",
                      "type": "uint256"
                    },
                    {
                      "internalType": "enum IPLimitOrderType.OrderType",
                      "name": "orderType",
                      "type": "uint8"
                    },
                    {
                      "internalType": "address",
                      "name": "token",
                      "type": "address"
                    },
                    {
                      "internalType": "address",
                      "name": "YT",
                      "type": "address"
                    },
                    {
                      "internalType": "address",
                      "name": "maker",
                      "type": "address"
                    },
                    {
                      "internalType": "address",
                      "name": "receiver",
                      "type": "address"
                    },
                    {
                      "internalType": "uint256",
                      "name": "makingAmount",
                      "type": "uint256"
                    },
                    {
                      "internalType": "uint256",
                      "name": "lnImpliedRate",
                      "type": "uint256"
                    },
                    {
                      "internalType": "uint256",
                      "name": "failSafeRate",
                      "type": "uint256"
                    },
                    {
                      "internalType": "bytes",
                      "name": "permit",
                      "type": "bytes"
                    }
                  ],
                  "internalType": "struct Order",
                  "name": "order",
                  "type": "tuple"
                },
                {
                  "internalType": "bytes",
                  "name": "signature",
                  "type": "bytes"
                },
                {
                  "internalType": "uint256",
                  "name": "makingAmount",
                  "type": "uint256"
                }
              ],
              "internalType": "struct FillOrderParams[]",
              "name": "normalFills",
              "type": "tuple[]"
            },
            {
              "components": [
                {
                  "components": [
                    {
                      "internalType": "uint256",
                      "name": "salt",
                      "type": "uint256"
                    },
                    {
                      "internalType": "uint256",
                      "name": "expiry",
                      "type": "uint256"
                    },
                    {
                      "internalType": "uint256",
                      "name": "nonce",
                      "type": "uint256"
                    },
                    {
                      "internalType": "enum IPLimitOrderType.OrderType",
                      "name": "orderType",
                      "type": "uint8"
                    },
                    {
                      "internalType": "address",
                      "name": "token",
                      "type": "address"
                    },
                    {
                      "internalType": "address",
                      "name": "YT",
                      "type": "address"
                    },
                    {
                      "internalType": "address",
                      "name": "maker",
                      "type": "address"
                    },
                    {
                      "internalType": "address",
                      "name": "receiver",
                      "type": "address"
                    },
                    {
                      "internalType": "uint256",
                      "name": "makingAmount",
                      "type": "uint256"
                    },
                    {
                      "internalType": "uint256",
                      "name": "lnImpliedRate",
                      "type": "uint256"
                    },
                    {
                      "internalType": "uint256",
                      "name": "failSafeRate",
                      "type": "uint256"
                    },
                    {
                      "internalType": "bytes",
                      "name": "permit",
                      "type": "bytes"
                    }
                  ],
                  "internalType": "struct Order",
                  "name": "order",
                  "type": "tuple"
                },
                {
                  "internalType": "bytes",
                  "name": "signature",
                  "type": "bytes"
                },
                {
                  "internalType": "uint256",
                  "name": "makingAmount",
                  "type": "uint256"
                }
              ],
              "internalType": "struct FillOrderParams[]",
              "name": "flashFills",
              "type": "tuple[]"
            },
            {
              "internalType": "bytes",
              "name": "optData",
              "type": "bytes"
            }
          ],
          "internalType": "struct LimitOrderData",
          "name": "limit",
          "type": "tuple"
        }
      ],
      "stateMutability": "pure",
      "type": "function"
    },
    {
      "inputs": [],
      "name": "withdrawExpiredMarket",
      "outputs": [],
      "stateMutability": "nonpayable",
      "type": "function"
    }
  ],
  "bytecode": "0x60c080604052346106d5576161d5803803809161001c8285610a1c565b833981018181039161010083126106d55780516001600160401b0381116106d557810191610100838203126106d5576040519061005882610a00565b83516001600160401b0381116106d557840181601f820112156106d5578051906001600160401b03821161098e576040519261009e601f8401601f191660200185610a1c565b828452602083830101116106d557815f9260208093018386015e8301015281526100ca60208401610a3f565b92602082019384526100de60408201610a3f565b93604083019485526100f260608301610a3f565b606084019081526080830151956080850196875260a08401519660a0860197885261012b60e060c08701519660c0890197885201610a53565b60e087019081526060601f198b01126106d55760405196606088016001600160401b0381118982101761098e5760405261016760208a01610a3f565b885261017560408a01610a3f565b9660208901978852608061018b60608c01610a3f565b60408b019081529c607f1901126106d5576040519a60808c01966001600160401b0388118d89101761098e578c9760405260808c016101c990610a3f565b885260a08c01516020890190815260c08d015160408a0190815260e0909d015160609099019889528b51909790610208906001600160a01b0316610abd565b9c519851975181519a51909a6001600160a01b03908116911680156109ed575f80546001600160a01b03191691909117905580156109de57608052516001600160a01b0316156109cf5780516001600160a01b0316156109c057835151156109b1576001600160a01b0361027a610bff565b16156109a257516001600160a01b0316610292610bff565b9551915192519351945115159560e0604051916102ae83610a00565b5f83526001600160a01b03166020830181905260408301849052606083018590526080830186905260a0830187905260c083018890529101968752600180546001600160a01b03199081169091556002805482169092179091556003805490911690911790556004556005556006558051906001600160401b03821161098e5760075490600182811c92168015610984575b60208310146109705781601f849311610902575b50602090601f831160011461089c575f92610891575b50508160011b915f199060031b1c1916176007555b51151560ff80196008541691161760085568056bc75e2d6310000080831161087e57811161086c57816040917f8168a7fb0f1fff0693e7681fbfd2a2dbfe563344325f1db3a88498c76a6efeeb9360095580600a5582519182526020820152a1600b55600c546001600160a01b0393909316946001600160a01b031990931692851561085957600d80546001600160a01b03199081169097179055516010805487166001600160a01b039283161790559051811660a0529051600f8054909516908216908117948590556011805463ffffffff60b81b19811660e160bb1b179091556706f05b59d3b2000060155593518216909217600c556004939160609161048782610abd565b16928360018060a01b0319600e541617600e555f19601855610100601a5566038d7ea4c68000601b55600f5560405194858092630b2339af60e21b82525afa9283156106e1575f935f915f91610823575b50601480546001600160a01b039283166001600160a01b03199182161790915560138054938316938216841790556012805496909216951685179055604051637d2d278360e11b815260048101839052909390602081602481855afa9081156106e1575f916107e9575b5015908115610779575b5061076a5760035460405163313ce56760e01b815290602090829060049082906001600160a01b03165afa9081156106e1575f9161072b575b5066ffffffff0000ff60a01b19831660a09190911b60ff60a01b1690811760e160bb1b1760115560405163313ce56760e01b81529091602090829060049082905afa9081156106e1575f916106ec575b5066ffffffff00ffff60a01b1990921681811760a89390931b60ff60a81b1692831760e160bb1b90811760115560405163313ce56760e01b8152911793602090829060049082905afa9081156106e1575f916106a3575b5060ff60b01b19909316171760b09190911b60ff60b01b1617601155610650610b93565b610658610b93565b6040516155689081610c6d8239608051818181610984015281816114ab0152818161210c015281816121b701526138eb015260a0518181816114550152818161455b015261500d0152f35b90506020813d6020116106d9575b816106be60209383610a1c565b810103126106d5576106cf90610aaf565b5f61062c565b5f80fd5b3d91506106b1565b6040513d5f823e3d90fd5b90506020813d602011610723575b8161070760209383610a1c565b810103126106d557602061071c600492610aaf565b91506105d5565b3d91506106fa565b90506020813d602011610762575b8161074660209383610a1c565b810103126106d557602061075b600492610aaf565b9150610585565b3d9150610739565b631bda904d60e31b5f5260045ffd5b6024915060209060405192838092633c21b3eb60e11b82528660048301525afa9081156106e1575f916107af575b50155f61054c565b90506020813d6020116107e1575b816107ca60209383610a1c565b810103126106d5576107db90610a53565b5f6107a7565b3d91506107bd565b90506020813d60201161081b575b8161080460209383610a1c565b810103126106d55761081590610a53565b5f610542565b3d91506107f7565b91505061084991935060603d606011610852575b6108418183610a1c565b810190610a60565b9193915f6104d8565b503d610837565b8563dbea379360e01b5f5260045260245ffd5b63da02d69560e01b5f5260045260245ffd5b8263da02d69560e01b5f5260045260245ffd5b015190505f8061036a565b60075f9081528281209350601f198516905b8181106108ea57509084600195949392106108d2575b505050811b0160075561037f565b01515f1960f88460031b161c191690555f80806108c4565b929360206001819287860151815501950193016108ae565b60075f529091507fa66cc928b5edb82af9bd49922954155ab7b0942694bea4ce44661d9a8736c688601f840160051c81019160208510610966575b90601f859493920160051c01905b8181106109585750610354565b5f815584935060010161094b565b909150819061093d565b634e487b7160e01b5f52602260045260245ffd5b91607f1691610340565b634e487b7160e01b5f52604160045260245ffd5b633a4f9cdb60e21b5f5260045ffd5b63268c072960e01b5f5260045ffd5b637ff57ef160e11b5f5260045ffd5b63b53c493160e01b5f5260045ffd5b63f1634df960e01b5f5260045ffd5b6347bd7c1d60e01b5f525f60045260245ffd5b61010081019081106001600160401b0382111761098e57604052565b601f909101601f19168101906001600160401b0382119082101761098e57604052565b51906001600160a01b03821682036106d557565b519081151582036106d557565b908160609103126106d55780516001600160a01b03811681036106d55760208201519092906001600160a01b03811681036106d557604092909201516001600160a01b03811681036106d55790565b519060ff821682036106d557565b604051630b2339af60e21b815290606090829060049082906001600160a01b03165afa9081156106e1576004916060915f91610b74575b50604051630a40bee560e41b815292839182906001600160a01b03165afa9081156106e1575f91610b23575090565b90506060813d606011610b6c575b81610b3e60609383610a1c565b810103126106d5576002815110156106d557610b686040610b6160208401610a3f565b9201610aaf565b5090565b3d9150610b31565b610b8b9150823d8411610852576108418183610a1c565b50505f610af4565b600f546040516370c264df60e11b815290602090829060049082906001600160a01b03165afa9081156106e1575f91610bcd575b50601655565b90506020813d602011610bf7575b81610be860209383610a1c565b810103126106d557515f610bc7565b3d9150610bdb565b608051604051628bec5760e51b815290602090829060049082906001600160a01b03165afa9081156106e1575f91610c35575090565b90506020813d602011610c64575b81610c5060209383610a1c565b810103126106d557610c6190610a3f565b90565b3d9150610c4356fe6080806040526004361015610012575f80fd5b5f905f3560e01c90816301a7c58c146131b55750806301e1d1141461311c57806303baf0661461302557806306fdde0314612fee578063117d8ae014612fc257806313c408f814612c5d5780631de0f09514612c3c5780631deae8c614612c2057806322c180b514612c0657806322dcc85f14612be6578063256d8a2314612ba75780632db6d3991461266f578063303dbaf31461264d5780633194549e14612630578063326c488e146124c0578063372709361461249857806338d52e0f146124705780634318a726146124565780634452d81c146124395780634c2832651461231f578063552d2e59146122025780635b0f83f31461219257806361d027b3146120e757806361f5cd8b1461208257806364c8d8ef14611dda57806369b3054b14611d785780636df4410014611c47578063780469bb146115fd578063781c18db146115d457806379502c55146115405780637aaceb95146114845780637dc0d1d01461143f57806380f556051461141657806386651203146113c25780638a8b9976146113635780638f1d3f001461134557806392f5e832146112de578063930ec277146112b8578063955c7bc01461129a578063a377d6a514611276578063a968a77614611258578063ad5a356f1461123a578063afd27bf514611211578063b31c3290146111f5578063ba3f4fb2146111d7578063c05bd92d146110a1578063c38a6f0b14610b5f578063c3f909d414610a1e578063c55dae63146109f5578063c64f9f0e146109d1578063c7876ea4146109b3578063c9c667e31461096e578063ce5c7f611461066f578063cefba47414610648578063cf4685c61461062d578063d70ec14a1461060a578063d8fca1ac146105e1578063d94073d4146105b8578063dbd5edc71461059a578063de4b32621461047c578063e6aa216c14610459578063ea1af6e014610430578063ebf31131146103c0578063ec21386514610397578063f66a77491461031f5763f887ea40146102f4575f80fd5b3461031c578060031936011261031c576010546040516001600160a01b039091168152602090f35b80fd5b503461031c578060031936011261031c5760215460ff811660405161034e816103478161379f565b0382613615565b61038b60ff602354169160405194846103678796613259565b855260081c6001600160a01b031660208501526080604085018190528401906131d5565b90151560608301520390f35b503461031c578060031936011261031c576011546040516001600160a01b039091168152602090f35b503461031c578060031936011261031c576103d9614043565b1561041d576001600160601b0360a01b600154166001557f7cb941d7b1708e5b3bcd35ca960d6c6311188cec18886e5b67630552676b04876020604051338152a180f35b631564c0e160e11b815233600452602490fd5b503461031c578060031936011261031c57600e546040516001600160a01b039091168152602090f35b503461031c578060031936011261031c576020610474613fe2565b604051908152f35b503461031c57602036600319011261031c57600154600435906001600160a01b031680159081156104f2575b506104df576020817ffab5bcbec79a8b5888e114fd4b378427aa58d9b237d85056f0ee5b3ea57df8c592600b55604051908152a180f35b6363b52ed760e11b825233600452602482fd5b610537915060209061050d60018060a01b0386541691613e40565b604051632474521560e21b8152600481019190915233602482015292839190829081906044820190565b03915afa90811561058f578391610551575b50155f6104a8565b90506020813d602011610587575b8161056c60209383613615565b810103126105835761057d906138b6565b5f610549565b8280fd5b3d915061055f565b6040513d85823e3d90fd5b503461031c578060031936011261031c576020600454604051908152f35b503461031c578060031936011261031c576013546040516001600160a01b039091168152602090f35b503461031c578060031936011261031c57600c546040516001600160a01b039091168152602090f35b503461031c578060031936011261031c576020610474610628613da3565b6144a4565b503461031c578060031936011261031c576020610474613f29565b503461031c578060031936011261031c57602063ffffffff60115460b81c16604051908152f35b503461031c57602036600319011261031c576004356001600160401b038111610962576106a09036906004016131f9565b5050604051628bec5760e51b8152602081600481305afa908115610877578291610930575b506001600160a01b0316330361091d576106dd6140f8565b600f5460405163c4f59f9b60e01b815291906001600160a01b03168183600481845afa928315610877578293610882575b5091818093602460405180968193639262187b60e01b83523060048401525af19283156108775782936107dd575b50815b81518110156107815760019061077b6001600160a01b036107608386613e73565b511661076a6138d7565b6107748489613e73565b519161417e565b0161073f565b506107d98361078f83613e9b565b9261079982613ede565b946040519586957f3e3e7958121b3e39c7a49392d1aa9cdce870c2a059744f9e15cf66fff78654558380a35f5160206155135f395f51905f525d8361364d565b0390f35b9092503d8083833e6107ef8183613615565b810190602081830312610583578051906001600160401b03821161087357019080601f8301121561058357815161082581613636565b926108336040519485613615565b81845260208085019260051b82010192831161086f57602001905b82821061085f57505050915f61073c565b815181526020918201910161084e565b8480fd5b8380fd5b6040513d84823e3d90fd5b92503d8083853e6108938185613615565b830192602081850312610583578051906001600160401b038211610873570183601f82011215610583578051936108c985613636565b916108d76040519384613615565b85835260208084019660051b82010191821161086f57602001945b818610610905575090935082905061070e565b60208091610912886138c3565b8152019501946108f2565b631184b31b60e21b815233600452602490fd5b90506020813d602011610966575b8161094b60209383613615565b810103126109625761095c906138c3565b5f6106c5565b5080fd5b3d915061093e565b503461031c578060031936011261031c576040517f00000000000000000000000000000000000000000000000000000000000000006001600160a01b03168152602090f35b503461031c578060031936011261031c576020600b54604051908152f35b503461031c578060031936011261031c57602060ff60115460a01c16604051908152f35b503461031c578060031936011261031c57600d546040516001600160a01b039091168152602090f35b503461031c578060031936011261031c5760e0604051610a3d816135c2565b8281528260208201528260408201528260608201528260808201528260a0820152606060c08201520152604051610a73816135c2565b6001546001600160a01b0390811682526002548116602083019081526003549091166040808401918252600454606085019081526005546080860190815260065460a087019081529251949594610b51939092909190610add84610ad681613700565b0385613615565b60c0870193845260ff600854169560e08801961515875260405198899860208a5260018060a01b0390511660208a015260018060a01b03905116604089015260018060a01b0390511660608801525160808701525160a08601525160c08501525161010060e08501526101208401906131d5565b905115156101008301520390f35b503461031c57608036600319011261031c5760043590610b7d61354e565b916044356001600160401b03811161058357610b9d9036906004016131f9565b6064929192356001600160401b03811161086f57610bbf9036906004016131f9565b610bc7614043565b1561108e57610bd6818361412d565b610bde615077565b610be66144dc565b6040516322dcc85f60e01b8152602081600481305afa908115611083578791611045575b5015610d5e575b505060035460405163095ea7b360e01b81526001600160a01b0387811660048301526024820185905295969495939487949092602091839160449183918991165af18015610d5357610d1c575b506001600160a01b031693843b156105835781606484926040519485938492632db6d39960e01b845289600485015260406024850152816044850152848401378181018301859052601f01601f1916810103018183885af1801561087757610d07575b5050600354604080516001600160a01b039092168252602082019290925230917f9f784fc02a186f1c98b2d9f15fda084da27cdd291a3785d978f91911d880516b91a380f35b81610d1191613615565b61058357825f610cc1565b6020813d602011610d4b575b81610d3560209383613615565b8101031261087357610d46906138b6565b610c5e565b3d9150610d28565b6040513d86823e3d90fd5b90610d6b918101906150c4565b946040516322dcc85f60e01b8152602081600481305afa90811561103a578691611000575b50610ff15784610dbd96516040518098819263552d2e5960e01b83526020600484015260248301906131d5565b0381305afa958615610fe657858697879088938991610f51575b50306001600160a01b03841603610f4257600f546001600160a01b03908116908b1603610f335760208401518710610f245760135460105460405163095ea7b360e01b81526001600160a01b039182166004820152602481018590529a9b999a98998c9990929091602091839160449183918e91165af1908115610f19578991610ed6575b50606094610e8c60018060a01b03601054169460405198899788968795631652a23360e21b875260048701613509565b03925af18015610d5357610ea7575b81965094939294610c11565b610ec89060603d606011610ecf575b610ec08183613615565b810190615486565b5050610e9b565b503d610eb6565b90506020813d602011610f11575b81610ef160209383613615565b81010312610f0d57606094610f068a926138b6565b5094610e5c565b8880fd5b3d9150610ee4565b6040513d8b823e3d90fd5b6342301c2360e01b8952600489fd5b639db8d5b160e01b8952600489fd5b631e4ec46b60e01b8952600489fd5b9950505050503d8086883e610f668188613615565b86019560a081880312610fe257610f7c816138c3565b90610f89602082016138c3565b9060408101519860608201516001600160401b038111610fde5781610faf91840161516c565b916080810151906001600160401b038211610fda57610fcf9291016153ed565b92919890925f610dd7565b8a80fd5b8980fd5b8580fd5b6040513d87823e3d90fd5b63b2094b5960e01b8552600485fd5b90506020813d602011611032575b8161101b60209383613615565b81010312610fe25761102c906138b6565b5f610d90565b3d915061100e565b6040513d88823e3d90fd5b90506020813d60201161107b575b8161106060209383613615565b8101031261107757611071906138b6565b5f610c0a565b8680fd5b3d9150611053565b6040513d89823e3d90fd5b631564c0e160e11b865233600452602486fd5b503461031c57602036600319011261031c5760043563ffffffff811690818103610583576001546001600160a01b03168015908115611168575b5061115557610384821061113b576011805463ffffffff60b81b191660b89290921b63ffffffff60b81b169190911790556040519081527f4b3aa5c9fb94258bcc25dd74639341b3baf9771cfb27c62dbc11af634747aa4d90602090a180f35b630d33f2b360e21b83526004829052610384602452604483fd5b6363b52ed760e11b835233600452602483fd5b611183915060209061050d60018060a01b0387541691613e40565b03915afa908115610d5357849161119d575b50155f6110db565b90506020813d6020116111cf575b816111b860209383613615565b81010312610873576111c9906138b6565b5f611195565b3d91506111ab565b503461031c578060031936011261031c576020600a54604051908152f35b503461031c578060031936011261031c5761120e6144dc565b80f35b503461031c578060031936011261031c576012546040516001600160a01b039091168152602090f35b503461031c578060031936011261031c576020600654604051908152f35b503461031c578060031936011261031c576020600954604051908152f35b503461031c578060031936011261031c57602060ff60115460a81c16604051908152f35b503461031c578060031936011261031c576020610474610628613fe2565b503461031c578060031936011261031c5750602068056bc75e2d63100000604051908152f35b503461031c57602036600319011261031c576004356112fb614043565b15611332576020817fb6ac66853c4e59c71e118d25ab494bb847c4e5eb0c8894898c5343e6f61afc1292600655604051908152a180f35b631564c0e160e11b825233600452602482fd5b503461031c578060031936011261031c576020601654604051908152f35b503461031c578060031936011261031c5761137c614043565b1561041d57336001600160601b0360a01b60015416176001557f55489ce0259bd691120d8860861be1c401c7c16a3cd268d21045756af4ecc5ca6020604051338152a180f35b503461031c57602036600319011261031c576004356113df614043565b15611332576020817f333b26cca69716ad4680ddb07663f5bfb4f06045671f336af9a83690a3ae00f992600455604051908152a180f35b503461031c578060031936011261031c57600f546040516001600160a01b039091168152602090f35b503461031c578060031936011261031c576040517f00000000000000000000000000000000000000000000000000000000000000006001600160a01b03168152602090f35b503461031c578060031936011261031c57604051637aaceb9560e01b8152906020826004817f00000000000000000000000000000000000000000000000000000000000000006001600160a01b03165afa9081156115345780916114f7575b6040516001600160a01b0383168152602090f35b90506020823d60201161152c575b8161151260209383613615565b8101031261031c57506115266020916138c3565b5f6114e3565b3d9150611505565b604051903d90823e3d90fd5b503461031c578060031936011261031c576001546002546003546004546005546006546040516001600160a01b0395861696861695909416936115c89390929061158d84610ad681613700565b60ff60085416956040519889988952602089015260408801526060870152608086015260a085015261010060c08501526101008401906131d5565b90151560e08301520390f35b503461031c578060031936011261031c576014546040516001600160a01b039091168152602090f35b503461186b57602036600319011261186b576004356001600160401b03811161186b573660238201121561186b5780600401359061163a82613636565b916116486040519384613615565b8083526024602084019160051b8301019136831161186b57602401905b828210611c2f575050604051628bec5760e51b81529050602081600481305afa908115611a70575f91611bf5575b506001600160a01b03163303611be2576116ab6140f8565b8051906116b782613636565b916116c56040519384613615565b8083526116d4601f1991613636565b013660208401378051916116e783613636565b926116f56040519485613615565b808452611704601f1991613636565b013660208501376003546040516370a0823160e01b81523060048201526001600160a01b0390911690602081602481855afa908115611a70575f91611bb0575b50611903575b50835b82518110156118aa5760249060206001600160a01b0361176d8387613e73565b5116604051938480926370a0823160e01b82523060048301525afa91821561103a578692611877575b50816117a7575b600191500161174d565b6001600160a01b036117b98286613e73565b51169160246117c66138d7565b9360206001600160a01b036117db868a613e73565b5116604051938480926370a0823160e01b82523060048301525afa918215610f1957899261183f575b50906001946118129261417e565b828060a01b036118228387613e73565b511661182e8386613e73565b526118398287613e73565b5261179d565b91506020823d821161186f575b8161185960209383613615565b8101031261186b579051906001611804565b5f80fd5b3d915061184c565b9091506020813d82116118a2575b8161189260209383613615565b8101031261186b5751905f611796565b3d9150611885565b84826107d9866118b983613e9b565b926118c382613ede565b946040519586957f46b8771620f6acf56cb03d3e835ea8024c7dcbcf05fcc3f6ade9e19d1a3e212b8380a35f5160206155135f395f51905f525d8361364d565b6001546040516330fe427560e21b815290608090829060049082906001600160a01b03165afa908115611a70575f91611b3f575b50516040516370a0823160e01b81523060048201526001600160a01b039091169190602081602481855afa908115611a70575f91611b0d575b5060405163095ea7b360e01b60208083019182526001600160a01b03861660248401526044808401949094529282529091905f906119af606485613615565b83519082865af15f513d82611af1575b505015611aad575b50506003546040516370a0823160e01b815230600482015290602090829060249082906001600160a01b03165afa908115611a70575f91611a7b575b50604051611a12602082613615565b5f8152823b1561186b57611a4c925f9283604051809681958294632db6d39960e01b845260048401526040602484015260448301906131d5565b03925af18015611a70571561174a57611a689194505f90613615565b5f925f61174a565b6040513d5f823e3d90fd5b90506020813d602011611aa5575b81611a9660209383613615565b8101031261186b57515f611a03565b3d9150611a89565b611aea91611ae560405163095ea7b360e01b60208201528560248201525f604482015260448152611adf606482613615565b826154a1565b6154a1565b5f806119c7565b909150611b055750813b15155b5f806119bf565b600114611afe565b90506020813d602011611b37575b81611b2860209383613615565b8101031261186b57515f611970565b3d9150611b1b565b90506080813d608011611ba8575b81611b5a60809383613615565b8101031261186b5760405190611b6f826135a7565b8051906001600160a01b038216820361186b5760609183526020810151602084015260408101516040840152015160608201525f611937565b3d9150611b4d565b90506020813d602011611bda575b81611bcb60209383613615565b8101031261186b57515f611744565b3d9150611bbe565b631184b31b60e21b5f523360045260245ffd5b90506020813d602011611c27575b81611c1060209383613615565b8101031261186b57611c21906138c3565b5f611693565b3d9150611c03565b60208091611c3c84613564565b815201910190611665565b3461186b57602036600319011261186b576004356001600160a01b0381169081900361186b575f54604051630ccc574960e41b81526001600160a01b0390911690602081600481855afa908115611a70575f91611d44575b50604051632474521560e21b815260048101919091523360248201529060209082908180604481015b03915afa908115611a70575f91611d0a575b5015611cf7576001600160601b0360a01b60115416176011555f80f35b630ea7d7ed60e21b5f523360045260245ffd5b90506020813d602011611d3c575b81611d2560209383613615565b8101031261186b57611d36906138b6565b82611cda565b3d9150611d18565b90506020813d602011611d70575b81611d5f60209383613615565b8101031261186b5751611cc8611c9f565b3d9150611d52565b3461186b57604036600319011261186b57600435600381101561186b57602090611da061354e565b604051908382019260f81b83526001600160601b03199060601b16602182015260158152611dcf603582613615565b519020604051908152f35b3461186b575f36600319011261186b575f54604051630ccc574960e41b81526001600160a01b0390911690602081600481855afa908115611a70575f9161204e575b50604051632474521560e21b815260048101919091523360248201529060209082908180604481015b03915afa908115611a70575f91612014575b5015611cf7576040516322dcc85f60e01b8152602081600481305afa908115611a70575f91611fda575b50611e8857005b6013546040516370a0823160e01b815230600482015290602090829060249082906001600160a01b03165afa8015611a70575f90611fa6575b611ecc915080614247565b600e546040516370a0823160e01b8152306004820152906001600160a01b0316602082602481845afa918215611a70575f92611f70575b5060405163a9059cbb60e01b815233600482015260248101929092526020908290815f81604481015b03925af18015611a7057611f3c57005b6020813d602011611f68575b81611f5560209383613615565b8101031261186b57611f66906138b6565b005b3d9150611f48565b91506020823d602011611f9e575b81611f8b60209383613615565b8101031261186b57905190611f2c611f03565b3d9150611f7e565b506020813d602011611fd2575b81611fc060209383613615565b8101031261186b57611ecc9051611ec1565b3d9150611fb3565b90506020813d60201161200c575b81611ff560209383613615565b8101031261186b57612006906138b6565b81611e81565b3d9150611fe8565b90506020813d602011612046575b8161202f60209383613615565b8101031261186b57612040906138b6565b81611e57565b3d9150612022565b90506020813d60201161207a575b8161206960209383613615565b8101031261186b5751611e45611e1c565b3d915061205c565b3461186b57602036600319011261186b5760043561209e614043565b156120d4576020817ffbe2d5c01ea8ba5596d6c4e6c82c6d4a0a0ee1128689993a4a5ba0169273d69f92600555604051908152a1005b631564c0e160e11b5f523360045260245ffd5b3461186b575f36600319011261186b576040516361d027b360e01b81526020816004817f00000000000000000000000000000000000000000000000000000000000000006001600160a01b03165afa8015611a70575f90612158575b6040516001600160a01b039091168152602090f35b506020813d60201161218a575b8161217260209383613615565b8101031261186b576121856020916138c3565b612143565b3d9150612165565b3461186b575f36600319011261186b57604051635b0f83f360e01b81526020816004817f00000000000000000000000000000000000000000000000000000000000000006001600160a01b03165afa8015611a70575f90612158576040516001600160a01b039091168152602090f35b3461186b57602036600319011261186b576004356001600160401b03811161186b576122329036906004016131f9565b61223a61399c565b506122436139e8565b5060048110612310578060041161186b5781356001600160e01b031916631652a23360e21b036123015781019060a0818303600319011261186b5761228a60048201613564565b9161229760248301613564565b9260648301356001600160401b03811161186b578260046122ba92860101613a73565b6084840135946001600160401b03861161186b576122e26107d9946004604498880101613cf6565b6040519687969194910135916001600160a01b03908116911686613509565b6342868c9b60e01b5f5260045ffd5b633e5431b160e21b5f5260045ffd5b3461186b57604036600319011261186b5760015460243590600435906001600160a01b031680159081156123ca575b506123b75768056bc75e2d631000008082116123a45782116123a457807f8168a7fb0f1fff0693e7681fbfd2a2dbfe563344325f1db3a88498c76a6efeeb9260409260095580600a5582519182526020820152a1005b5063da02d69560e01b5f5260045260245ffd5b6363b52ed760e11b5f523360045260245ffd5b6123e5915060209061050d60018060a01b035f541691613e40565b03915afa908115611a70575f916123ff575b50158361234e565b90506020813d602011612431575b8161241a60209383613615565b8101031261186b5761242b906138b6565b836123f7565b3d915061240d565b3461186b575f36600319011261186b576020601554604051908152f35b3461186b575f36600319011261186b576020610474613da3565b3461186b575f36600319011261186b576003546040516001600160a01b039091168152602090f35b3461186b575f36600319011261186b576001546040516001600160a01b039091168152602090f35b3461186b57602036600319011261186b576004356001600160401b03811161186b576124f09036906004016131f9565b5f60806040516124ff81613578565b828152826020820152826040820152826060820152015261251e61399c565b506125276139e8565b5060048110612310578060041161186b5781356001600160e01b03191663640fc23d60e11b03612301578101818103919061014060031984011261186b5761257160048301613564565b60a061257f60248501613564565b94606319011261186b5760405161259581613578565b606484013581526084840135602082015260a4840135604082015260c4840135606082015260e484013560808201526101048401356001600160401b03811161186b578360046125e792870101613a73565b90610124850135956001600160401b03871161186b576126116107d9956004604499890101613cf6565b6040519788979195910135916001600160a01b03908116911687613490565b3461186b575f36600319011261186b576020600554604051908152f35b3461186b575f36600319011261186b57602060ff600854166040519015158152f35b3461186b5761267d36613226565b906126866140f8565b604051631b93849b60e11b8152602081600481305afa908115611a70575f91612b6d575b506126b3614043565b15612a70575b506126c4828261412d565b6003546040516323b872dd60e01b602082015233602482015230604482015260648082018690528152612705916001600160a01b0316611ae5608483613615565b61270d6144dc565b612715615077565b601654621a5e00420190814211612a5c571115612a4d57612738918101906150c4565b6040516322dcc85f60e01b8152602081600481305afa908115611a70575f91612a13575b50612a04575f612789915160405180938192631936244760e11b83526020600484015260248301906131d5565b0381305afa908115611a70575f905f905f915f945f925f91612930575b50306001600160a01b0386160361292157600f546001600160a01b03908116908316036129125760035460105460405163095ea7b360e01b81526001600160a01b039182166004820152602481018a905291602091839160449183915f91165af18015611a70576128ce575b506060946128445f9260018060a01b036010541695604051998a988997889663640fc23d60e11b885260048801613490565b03925af18015611a70576128af575b50600354604080516001600160a01b039092168252602082019290925233917fcbaa1442ac205415c9d69643e7b60ec73d1de35dbc807c21ec288c70ddc4207b9190819081015b0390a25f5f5160206155135f395f51905f525d005b6128c79060603d606011610ecf57610ec08183613615565b5050612853565b946020863d60201161290a575b816128e860209383613615565b8101031261186b576128445f926129006060986138b6565b5092505094612812565b3d91506128db565b639db8d5b160e01b5f5260045ffd5b631e4ec46b60e01b5f5260045ffd5b955050505050503d805f833e6129468183613615565b81019080820390610140821261186b5761295f816138c3565b61296b602083016138c3565b9260a0604084015191605f19011261186b576040519261298a84613578565b606081015184526080810151602085015260a0810151604085015260c0810151606085015260e081015160808501526101008101516001600160401b03811161186b57866129d991830161516c565b956101208201516001600160401b03811161186b576129f892016153ed565b919390929491876127a6565b63b2094b5960e01b5f5260045ffd5b90506020813d602011612a45575b81612a2e60209383613615565b8101031261186b57612a3f906138b6565b8361275c565b3d9150612a21565b63eb86c49b60e01b5f5260045ffd5b634e487b7160e01b5f52601160045260245ffd5b604051628bec5760e51b8152602081600481305afa908115611a70575f91612b33575b506001600160a01b031633146126b95760405163d25dd10160e01b815233600482015290602090829060249082906001600160a01b03165afa908115611a70575f91612af9575b5015612ae657836126b9565b638f7a567d60e01b5f523360045260245ffd5b90506020813d602011612b2b575b81612b1460209383613615565b8101031261186b57612b25906138b6565b84612ada565b3d9150612b07565b90506020813d602011612b65575b81612b4e60209383613615565b8101031261186b57612b5f906138c3565b85612a93565b3d9150612b41565b90506020813d602011612b9f575b81612b8860209383613615565b8101031261186b57612b99906138c3565b846126aa565b3d9150612b7b565b3461186b575f36600319011261186b5760a0601754601854601954601a5490601b54926040519485526020850152604084015260608301526080820152f35b3461186b575f36600319011261186b576020601654421015604051908152f35b3461186b575f36600319011261186b57602061047461395a565b3461186b575f36600319011261186b5760206040516103848152f35b3461186b575f36600319011261186b576020610474600b5460095490614026565b3461186b57612c6b36613226565b90612c74614043565b156120d457612c816140f8565b612c8b828261412d565b612c93615077565b612c9b6144dc565b6040516322dcc85f60e01b8152602081600481305afa908115611a70575f91612f88575b5015612d26575b82612cdc813360018060a01b036003541661417e565b600354604080516001600160a01b039092168252602082019290925233917fd5e872c5ecfb1bb8820b2e6a20e31b883682282da886621541f71e31ec11947e91908190810161289a565b612d32918101906150c4565b6040516322dcc85f60e01b8152602081600481305afa908115611a70575f91612f4e575b50612a04575f612d8391516040518093819263552d2e5960e01b83526020600484015260248301906131d5565b0381305afa8015611a70575f905f905f915f945f92612ec6575b50306001600160a01b0385160361292157600f546001600160a01b03908116908216036129125760208501518610612eb75760135460105460405163095ea7b360e01b81526001600160a01b0391821660048201526024810186905291602091839160449183915f91165af18015611a7057612e79575b505f606094612e4560018060a01b03601054169460405198899788968795631652a23360e21b875260048701613509565b03925af18015611a7057612e5a575b80612cc6565b612e729060603d606011610ecf57610ec08183613615565b5050612e54565b6020813d602011612eaf575b81612e9260209383613615565b8101031261186b57606094612ea75f926138b6565b509450612e14565b3d9150612e85565b6342301c2360e01b5f5260045ffd5b9450505050503d805f833e612edb8183613615565b81019060a08183031261186b57612ef1816138c3565b91612efe602083016138c3565b9160408101519060608101516001600160401b03811161186b5783612f2491830161516c565b9260808201516001600160401b03811161186b57612f4292016153ed565b93929091939086612d9d565b90506020813d602011612f80575b81612f6960209383613615565b8101031261186b57612f7a906138b6565b83612d56565b3d9150612f5c565b90506020813d602011612fba575b81612fa360209383613615565b8101031261186b57612fb4906138b6565b84612cbf565b3d9150612f96565b3461186b575f36600319011261186b576020612fdc6138d7565b6040516001600160a01b039091168152f35b3461186b575f36600319011261186b576107d96040516130118161034781613700565b6040519182916020835260208301906131d5565b3461186b57602036600319011261186b57600154600435906001600160a01b031680159081156130ad575b506123b75768056bc75e2d63100000808211613097577ff5a802650e0a86db227cc342f06327d2ca0ff5cf2b12e0084fc5d8a7db2c54fd60208380601555604051908152a1005b906328e9045960e11b5f5260045260245260445ffd5b6130c8915060209061050d60018060a01b035f541691613e40565b03915afa908115611a70575f916130e2575b501582613050565b90506020813d602011613114575b816130fd60209383613615565b8101031261186b5761310e906138b6565b826130da565b3d91506130f0565b3461186b575f36600319011261186b576040516322dcc85f60e01b8152602081600481305afa908115611a70575f9161317b575b5015613160576020610474613f29565b602061317661316d613f29565b60155490614026565b610474565b90506020813d6020116131ad575b8161319660209383613615565b8101031261186b576131a7906138b6565b81613150565b3d9150613189565b3461186b575f36600319011261186b5760209060ff60115460b01c168152f35b805180835260209291819084018484015e5f828201840152601f01601f1916010190565b9181601f8401121561186b578235916001600160401b03831161186b576020838186019501011161186b57565b90604060031983011261186b5760043591602435906001600160401b03821161186b57613255916004016131f9565b9091565b6004111561326357565b634e487b7160e01b5f52602160045260245ffd5b60809060018060a01b0381511683526020810151602084015260018060a01b03604082015116604084015260018060a01b03606082015116606084015201519060a0608082015281516132c981613259565b60a082015260208201516001600160a01b031660c08201526040820151608060e083015261010090606090613303906101208501906131d5565b930151151591015290565b9080602083519182815201916020808360051b8301019401925f915b83831061333957505050505090565b9091929394602080600192601f1985820301865288519060408061341d61340d610160865160608752805160608801528881015160808801528481015160a0880152606081015161338981613259565b60c08801528a8060a01b0360808201511660e08801528a8060a01b0360a0820151166101008801528a8060a01b0360c0820151166101208801528a8060a01b0360e082015116610140880152610100810151828801526101208101516101808801526101408101516101a088015201516101806101c08701526101e08601906131d5565b86860151858203888701526131d5565b9301519101529701930193019193929061332a565b61348d9160018060a01b03825116815260208201516020820152608061347c61346a604085015160a0604086015260a085019061330e565b6060850151848203606086015261330e565b9201519060808184039101526131d5565b90565b9491936134fa9361348d979560809360018060a01b0316885260018060a01b03166020880152604087015280516060870152602081015182870152604081015160a0870152606081015160c0870152015160e0850152610140610100850152610140840190613277565b91610120818403910152613432565b6001600160a01b03918216815291166020820152604081019190915260a06060820181905261348d93919261354091840190613277565b916080818403910152613432565b602435906001600160a01b038216820361186b57565b35906001600160a01b038216820361186b57565b60a081019081106001600160401b0382111761359357604052565b634e487b7160e01b5f52604160045260245ffd5b608081019081106001600160401b0382111761359357604052565b61010081019081106001600160401b0382111761359357604052565b606081019081106001600160401b0382111761359357604052565b61018081019081106001600160401b0382111761359357604052565b90601f801991011681019081106001600160401b0382111761359357604052565b6001600160401b0381116135935760051b60200190565b604081016040825282518091526020606083019301905f5b8181106136a9575050506020818303910152602080835192838152019201905f5b8181106136935750505090565b8251845260209384019390920191600101613686565b82516001600160a01b0316855260209485019490920191600101613665565b90600182811c921680156136f6575b60208310146136e257565b634e487b7160e01b5f52602260045260245ffd5b91607f16916136d7565b6007545f929161370f826136c8565b8082529160018116908115613783575060011461372a575050565b60075f9081529293509091907fa66cc928b5edb82af9bd49922954155ab7b0942694bea4ce44661d9a8736c6885b838310613769575060209250010190565b600181602092949394548385870101520191019190613758565b9050602093945060ff929192191683830152151560051b010190565b6022545f92916137ae826136c8565b808252916001811690811561378357506001146137c9575050565b60225f9081529293509091907f61035b26e3e9eee00e0d72fd1ee8ddca6894550dca6916ea2ac6baa90d11e5105b838310613808575060209250010190565b6001816020929493945483858701015201910191906137f7565b5f9291815491613831836136c8565b8083529260018116908115613886575060011461384d57505050565b5f9081526020812093945091925b83831061386c575060209250010190565b60018160209294939454838587010152019101919061385b565b915050602093945060ff929192191683830152151560051b010190565b81810292918115918404141715612a5c57565b5190811515820361186b57565b51906001600160a01b038216820361186b57565b604051628bec5760e51b81526020816004817f00000000000000000000000000000000000000000000000000000000000000006001600160a01b03165afa908115611a70575f91613926575090565b90506020813d602011613952575b8161394160209383613615565b8101031261186b5761348d906138c3565b3d9150613934565b600b54600a549068056bc75e2d63100000918201808311612a5c5761397e916138a3565b8115613988570490565b634e487b7160e01b5f52601260045260245ffd5b604051906139a982613578565b815f81525f60208201525f60408201525f60608201526080604051916139ce836135a7565b5f83525f6020840152606060408401525f60608401520152565b604051906139f582613578565b60606080835f81525f602082015282604082015282808201520152565b6001600160401b03811161359357601f01601f191660200190565b81601f8201121561186b57803590613a4482613a12565b92613a526040519485613615565b8284526020838301011161186b57815f926020809301838601378301015290565b919060a08382031261186b57604051613a8b81613578565b8093613a9681613564565b825260208101356020830152613aae60408201613564565b6040830152613abf60608201613564565b60608301526080810135906001600160401b03821161186b57019160808382031261186b5760405192613af1846135a7565b8035600481101561186b578452613b0a60208201613564565b602085015260408101356001600160401b03811161186b57606092613b30918301613a2d565b6040850152013590811515820361186b5760809160608401520152565b81601f8201121561186b57803590613b6482613636565b92613b726040519485613615565b82845260208085019360051b8301019181831161186b5760208101935b838510613b9e57505050505090565b84356001600160401b03811161186b5782016060818503601f19011261186b5760405191613bcb836135de565b60208201356001600160401b03811161186b576020908301016101808187031261186b5760405190613bfc826135f9565b8035825260208101356020830152604081013560408301526060810135600481101561186b576060830152613c3360808201613564565b6080830152613c4460a08201613564565b60a0830152613c5560c08201613564565b60c0830152613c6660e08201613564565b60e0830152610100810135610100830152610120810135610120830152610140810135610140830152610160810135906001600160401b03821161186b57613cb091889101613a2d565b61016082015283526040820135926001600160401b03841161186b57606083613ce0886020809881980101613a2d565b8584015201356040820152815201940193613b8f565b919060a08382031261186b5760405190613d0f82613578565b8193613d1a81613564565b83526020810135602084015260408101356001600160401b03811161186b5782613d45918301613b4d565b604084015260608101356001600160401b03811161186b5782613d69918301613b4d565b60608401526080810135916001600160401b03831161186b57608092613d8f9201613a2d565b910152565b9081602091031261186b575190565b600c546040516390d2083760e01b81525f60048201529190602090839060249082906001600160a01b03165afa918215611a70575f92613e0c575b5081613de86141bc565b613def5750565b8091925015613988576ec097ce7bc90715b34b9f10000000000490565b9091506020813d602011613e38575b81613e2860209383613615565b8101031261186b5751905f613dde565b3d9150613e1b565b60405160208101915f83526001600160601b03199060601b16602182015260158152613e6d603582613615565b51902090565b8051821015613e875760209160051b010190565b634e487b7160e01b5f52603260045260245ffd5b6040518091829160208251919201905f5b818110613ebc5750505003902090565b82516001600160a01b0316845285945060209384019390920191600101613eac565b6040518091829160208251919201905f5b818110613eff5750505003902090565b8251845285945060209384019390920191600101613eef565b60ff16604d8111612a5c57600a0a90565b6013546040516370a0823160e01b815230600482015290602090829060249082906001600160a01b03165afa908115611a70575f91613fa8575b50670de0b6b3a7640000613f8261348d92613f7c614fcf565b906138a3565b04613fa3613f91610628613da3565b91613f7c60ff60115460a01c16613f18565b61397e565b90506020813d602011613fda575b81613fc360209383613615565b8101031261186b5751670de0b6b3a7640000613f63565b3d9150613fb6565b600c54604051631c98d5a960e11b81525f60048201529190602090839060249082906001600160a01b03165afa918215611a70575f92613e0c575081613de86141bc565b68056bc75e2d63100000918203828111612a5c5761397e916138a3565b6140af602060018060a01b035f541660405182810190600160f91b82526001600160601b03193060601b16602182015260158152614082603582613615565b519020604051632474521560e21b8152600481019190915233602482015292839190829081906044820190565b03915afa908115611a70575f916140c4575090565b90506020813d6020116140f0575b816140df60209383613615565b8101031261186b5761348d906138b6565b3d91506140d2565b5f5160206155135f395f51905f525c61411e5760015f5160206155135f395f51905f525d565b633ee5aeb560e01b5f5260045ffd5b5015801580614171575b6141625780614156575b61414757565b63332863a960e11b5f5260045ffd5b5060ff60085416614141565b630cd0fdf960e01b5f5260045ffd5b5060ff6008541615614137565b60405163a9059cbb60e01b60208201526001600160a01b039290921660248301526044808301939093529181526141ba91611ae5606483613615565b565b600c5460405163c661065760e01b81526001600482015290602090829060249082906001600160a01b03165afa908115611a70575f9161420d575b50600d546001600160a01b039182169116141590565b90506020813d60201161423f575b8161422860209383613615565b8101031261186b57614239906138c3565b5f6141f7565b3d915061421b565b806143a9575b50506012546040516370a0823160e01b81523060048201526001600160a01b0390911690602081602481855afa908115611a70575f91614377575b5080614292575050565b600e5460405163cbe52ae360e01b81526001600160a01b0390911660048201819052602482018390529091602083604481875afa928315611a70575f93614342575b5060a4905f60209495604051968795869463769f8e5d60e01b86523060048701526024860152604485015260648401528160848401525af18015611a705761431a575b50565b6143179060203d60201161433b575b6143338183613615565b810190613d94565b503d614329565b9092506020813d60201161436f575b8161435e60209383613615565b8101031261186b57519160a46142d4565b3d9150614351565b90506020813d6020116143a1575b8161439260209383613615565b8101031261186b57515f614288565b3d9150614385565b60135460105460405163095ea7b360e01b81526001600160a01b039182166004820152602481018490529291602091849160449183915f91165af18015611a705761446a575b60105460145460405163339748cb60e01b81523060048201526001600160a01b03918216602482015260448101939093526064830194909452909260209250839160849183915f91165af18015611a705761444b575b8061424d565b6144639060203d60201161433b576143338183613615565b505f614445565b6020823d60201161449c575b8161448360209383613615565b8101031261186b576144966020926138b6565b506143ef565b3d9150614476565b6144b3600b5460095490614026565b906144bc61395a565b828210156144c957505090565b8181929350116144d7575090565b905090565b60165442106141ba5760405163ec21386560e01b8152602081600481305afa908115611a70575f91614f95575b506001600160a01b0381169081158015614f81575b614f725760115460405162439f4b60e91b81526001600160a01b03909216600483015260b81c63ffffffff166024820152606081806044810103817f00000000000000000000000000000000000000000000000000000000000000006001600160a01b03165afa908115611a70575f905f92614f1a575b50159081614f12575b5015614317576013546040516370a0823160e01b81523060048201529190602090839060249082906001600160a01b03165afa918215611a70575f92614ede575b506145ea8280614247565b600f80546001600160a01b03191682179055604051630b2339af60e21b8152606081600481855afa908115611a70575f915f915f91614e6c575b50601480546001600160a01b03199081166001600160a01b03938416179091556013805482169383169384179055601280549091169382169384179055600e54604051637d2d278360e11b81529116600482018190529290602081602481855afa908115611a70575f91614e32575b5015908115614dc2575b50614db35760035460405163313ce56760e01b81529190602090839060049082906001600160a01b03165afa918215611a70575f92614d92575b506011549160ff60a01b9060a01b168060ff60a01b1984161760115560405163313ce56760e01b8152602081600481885afa908115611a70576004916020915f91614d75575b5060ff60a81b60a89190911b1661ffff60a01b1986168417811760115560405163313ce56760e01b815290949092839182905afa908115611a70575f91614d46575b5062ffffff60a01b19909316171760b09190911b60ff60b01b161760118190556040516370c264df60e11b8152602081600481875afa908115611a70575f91614d14575b5060165560ff8160b01c166012019060ff8211612a5c5760ff809160a81c1691160360ff8111612a5c5760206147f861316d6147ea6147e46148ac95613f18565b886138a3565b6147f2614fcf565b9061397e565b946040519361480685613578565b80855281838601528060408601525f6060860152604051614826816135a7565b60215460ff811661483681613259565b825260081c6001600160a01b031684820152604051614858816103478161379f565b604082015260ff6023541615156060820152608086015260018060a01b03601054165f60405180968195829463095ea7b360e01b84526004840160209093929193604081019460018060a01b031681520152565b03925af18015611a7057614cdd575b50601054600f5460405163640fc23d60e11b81523060048201526001600160a01b03918216602482015260448101959095526017546064860152601854608486015260195460a4860152601a5460c4860152601b5460e48601526101406101048601521690839061493190610144830190613277565b60031982820301610124830152601c546001600160a01b03168152601d54602082015260a060408201819052601e80549183018290525f90815260c0600583901b8401810193927f50bb669a95c7b50b7e8a6f09454034b2b14cf2b85c730dca9a539ca82cb6e35092909184015b828210614bea57505050508082036060820152601f54808352602083019060208160051b85010193601f5f5260205f20925f915b838310614af957505050505060808183039101525f90602054906149f6826136c8565b8082529160018116908115614ad55750600114614a75575b505091815f8160609503925af1908115611a70577f3b7aba7495f95b008f26fc1548021f2fb059ad26ef38f422178347e2b585989892602092614a56575b50604051908152a1565b614a6e9060603d606011610ecf57610ec08183613615565b5050614a4c565b60205f9081527fc97bfaf2f8ee708c303a06d134f5ecd8389ae0432af62dc132a24118292866bb959350915b808310614ab7575091935001602001815f614a0e565b93509193600181602092548385870101520191019093918693614aa1565b60ff191660208084019190915292151560051b90910190910191508290505f614a0e565b919396509193946020600d600192601f198582030186526060815289546060820152838a0154608082015260028a015460a082015260038a015460ff8116614b4081613259565b60c083015260a085901b859003600891821c811660e084015260048c0154811661010084015260058c0154811661012084015260068c01541661014083015260078b01546101608301528a01546101808083019190915260098b01546101a08301526101c0820152614bcc614bbc6101e08301600a8d01613822565b82810385840152600b8c01613822565b906040600c8c015491015298019301930190928996959492936149d3565b919394600191939650600d602091601f19609f19898303010185526060815288546060820152838901546080820152600289015460a0820152600389015460ff8116614c3581613259565b60c083015260a085901b859003600891821c811660e084015260048b0154811661010084015260058b0154811661012084015260068b01541661014083015260078a01546101608301528901546101808083019190915260098a01546101a08301526101c0820152614cc1614cb16101e08301600a8c01613822565b82810385840152600b8b01613822565b906040600c8b015491015297019201920188959493919261499f565b6020813d602011614d0c575b81614cf660209383613615565b8101031261186b57614d07906138b6565b6148bb565b3d9150614ce9565b90506020813d602011614d3e575b81614d2f60209383613615565b8101031261186b57515f6147a3565b3d9150614d22565b614d68915060203d602011614d6e575b614d608183613615565b8101906154f9565b5f61475f565b503d614d56565b614d8c9150823d8411614d6e57614d608183613615565b5f61471d565b614dac91925060203d602011614d6e57614d608183613615565b905f6146d7565b631bda904d60e31b5f5260045ffd5b6024915060209060405192838092633c21b3eb60e11b82528760048301525afa908115611a70575f91614df8575b50155f61469d565b90506020813d602011614e2a575b81614e1360209383613615565b8101031261186b57614e24906138b6565b5f614df0565b3d9150614e06565b90506020813d602011614e64575b81614e4d60209383613615565b8101031261186b57614e5e906138b6565b5f614693565b3d9150614e40565b925050506060813d606011614ed6575b81614e8960609383613615565b8101031261186b5780516001600160a01b038116810361186b576020820151916001600160a01b038316830361186b5760400151906001600160a01b038216820361186b5791905f614624565b3d9150614e7c565b9091506020813d602011614f0a575b81614efa60209383613615565b8101031261186b5751905f6145df565b3d9150614eed565b90505f61459e565b9150506060813d606011614f6a575b81614f3660609383613615565b8101031261186b57614f47816138b6565b90602081015161ffff81160361186b576040614f6391016138b6565b905f614595565b3d9150614f29565b6301fb70bf60e21b5f5260045ffd5b50600f546001600160a01b0316821461451e565b90506020813d602011614fc7575b81614fb060209383613615565b8101031261186b57614fc1906138c3565b5f614509565b3d9150614fa3565b600f5460115460405163abca0eab60e01b81526001600160a01b0392909216600483015260b81c63ffffffff166024820152602081806044810103817f00000000000000000000000000000000000000000000000000000000000000006001600160a01b03165afa908115611a70575f91615048575090565b90506020813d60201161506f575b8161506360209383613615565b8101031261186b575190565b3d9150615056565b61507f613da3565b61508e600b5460095490614026565b61509661395a565b9082101591826150b9575b5050156150aa57565b638de5208960e01b5f5260045ffd5b111590505f806150a1565b60208183031261186b578035906001600160401b03821161186b570160208183031261186b5760405191602083018381106001600160401b038211176135935760405281356001600160401b03811161186b576151219201613a2d565b815290565b81601f8201121561186b5780519061513d82613a12565b9261514b6040519485613615565b8284526020838301011161186b57815f9260208093018386015e8301015290565b919060a08382031261186b5760405161518481613578565b809361518f816138c3565b8252602081015160208301526151a7604082016138c3565b60408301526151b8606082016138c3565b60608301526080810151906001600160401b03821161186b57019060808284031261186b57604051926151ea846135a7565b8251600481101561186b578452615203602084016138c3565b60208501526040830151906001600160401b03821161186b578361523060609261523b9460809701615126565b6040870152016138b6565b60608401520152565b81601f8201121561186b5780519061525b82613636565b926152696040519485613615565b82845260208085019360051b8301019181831161186b5760208101935b83851061529557505050505090565b84516001600160401b03811161186b5782016060818503601f19011261186b57604051916152c2836135de565b60208201516001600160401b03811161186b576020908301016101808187031261186b57604051906152f3826135f9565b8051825260208101516020830152604081015160408301526060810151600481101561186b57606083015261532a608082016138c3565b608083015261533b60a082016138c3565b60a083015261534c60c082016138c3565b60c083015261535d60e082016138c3565b60e0830152610100810151610100830152610120810151610120830152610140810151610140830152610160810151906001600160401b03821161186b576153a791889101615126565b61016082015283526040820151926001600160401b03841161186b576060836153d7886020809881980101615126565b8584015201516040820152815201940193615286565b919060a08382031261186b576040519061540682613578565b8193615411816138c3565b83526020810151602084015260408101516001600160401b03811161186b578261543c918301615244565b604084015260608101516001600160401b03811161186b5782615460918301615244565b60608401526080810151916001600160401b03831161186b57608092613d8f9201615126565b9081606091031261186b578051916040602083015192015190565b905f602091828151910182855af115611a70575f513d6154f057506001600160a01b0381163b155b6154d05750565b635274afe760e01b5f9081526001600160a01b0391909116600452602490fd5b600114156154c9565b9081602091031261186b575160ff8116810361186b579056fe9b779b17422d0df92223018b32b4d1fa46e071723d6817e2486d003becc55f00a26469706673582212200e82f3ef74a97b8ab05fd9642e3632135cb34c4183d2f5604323bd9c448fa4d164736f6c634300081b0033",
  "linkReferences": {},
  "deployedLinkReferences": {}
}