{
  "_format": "hh-sol-artifact-1",
  "contractName": "CurveSwapPendlePtArk",
  "sourceName": "src/contracts/arks/CurveSwapArk.sol",
  "abi": [
    {
      "inputs": [
        {
          "components": [
            {
              "internalType": "string",
              "name": "name",
              "type": "string"
            },
            {
              "internalType": "address",
              "name": "accessManager",
              "type": "address"
            },
            {
              "internalType": "address",
              "name": "configurationManager",
              "type": "address"
            },
            {
              "internalType": "address",
              "name": "token",
              "type": "address"
            },
            {
              "internalType": "uint256",
              "name": "depositCap",
              "type": "uint256"
            },
            {
              "internalType": "uint256",
              "name": "maxRebalanceOutflow",
              "type": "uint256"
            },
            {
              "internalType": "uint256",
              "name": "maxRebalanceInflow",
              "type": "uint256"
            },
            {
              "internalType": "bool",
              "name": "requiresKeeperData",
              "type": "bool"
            }
          ],
          "internalType": "struct ArkParams",
          "name": "_params",
          "type": "tuple"
        },
        {
          "components": [
            {
              "internalType": "address",
              "name": "market",
              "type": "address"
            },
            {
              "internalType": "address",
              "name": "oracle",
              "type": "address"
            },
            {
              "internalType": "address",
              "name": "router",
              "type": "address"
            }
          ],
          "internalType": "struct PendlePtArkConstructorParams",
          "name": "_pendlePtArkConstructorParams",
          "type": "tuple"
        },
        {
          "components": [
            {
              "internalType": "address",
              "name": "curvePool",
              "type": "address"
            },
            {
              "internalType": "address",
              "name": "marketAsset",
              "type": "address"
            }
          ],
          "internalType": "struct CurveSwapPendlePtArk.CurveSwapArkConstructorParams",
          "name": "_curveSwapArkConstructorParams",
          "type": "tuple"
        }
      ],
      "stateMutability": "nonpayable",
      "type": "constructor"
    },
    {
      "inputs": [
        {
          "internalType": "address",
          "name": "caller",
          "type": "address"
        }
      ],
      "name": "CallerIsNotAdmin",
      "type": "error"
    },
    {
      "inputs": [
        {
          "internalType": "address",
          "name": "caller",
          "type": "address"
        }
      ],
      "name": "CallerIsNotAuthorizedToBoard",
      "type": "error"
    },
    {
      "inputs": [
        {
          "internalType": "address",
          "name": "caller",
          "type": "address"
        }
      ],
      "name": "CallerIsNotCommander",
      "type": "error"
    },
    {
      "inputs": [
        {
          "internalType": "address",
          "name": "caller",
          "type": "address"
        },
        {
          "internalType": "bytes32",
          "name": "role",
          "type": "bytes32"
        }
      ],
      "name": "CallerIsNotContractSpecificRole",
      "type": "error"
    },
    {
      "inputs": [
        {
          "internalType": "address",
          "name": "caller",
          "type": "address"
        }
      ],
      "name": "CallerIsNotCurator",
      "type": "error"
    },
    {
      "inputs": [
        {
          "internalType": "address",
          "name": "caller",
          "type": "address"
        }
      ],
      "name": "CallerIsNotGovernor",
      "type": "error"
    },
    {
      "inputs": [
        {
          "internalType": "address",
          "name": "caller",
          "type": "address"
        }
      ],
      "name": "CallerIsNotGuardian",
      "type": "error"
    },
    {
      "inputs": [
        {
          "internalType": "address",
          "name": "caller",
          "type": "address"
        }
      ],
      "name": "CallerIsNotGuardianOrGovernor",
      "type": "error"
    },
    {
      "inputs": [
        {
          "internalType": "address",
          "name": "caller",
          "type": "address"
        }
      ],
      "name": "CallerIsNotKeeper",
      "type": "error"
    },
    {
      "inputs": [
        {
          "internalType": "address",
          "name": "caller",
          "type": "address"
        }
      ],
      "name": "CallerIsNotRaft",
      "type": "error"
    },
    {
      "inputs": [
        {
          "internalType": "address",
          "name": "caller",
          "type": "address"
        }
      ],
      "name": "CallerIsNotRaftOrCommander",
      "type": "error"
    },
    {
      "inputs": [
        {
          "internalType": "address",
          "name": "caller",
          "type": "address"
        }
      ],
      "name": "CallerIsNotSuperKeeper",
      "type": "error"
    },
    {
      "inputs": [],
      "name": "CannotAddCommanderToArkWithCommander",
      "type": "error"
    },
    {
      "inputs": [],
      "name": "CannotDeployArkWithEmptyName",
      "type": "error"
    },
    {
      "inputs": [],
      "name": "CannotDeployArkWithoutConfigurationManager",
      "type": "error"
    },
    {
      "inputs": [],
      "name": "CannotDeployArkWithoutRaft",
      "type": "error"
    },
    {
      "inputs": [],
      "name": "CannotDeployArkWithoutToken",
      "type": "error"
    },
    {
      "inputs": [],
      "name": "CannotRemoveCommanderFromArkWithAssets",
      "type": "error"
    },
    {
      "inputs": [],
      "name": "CannotUseKeeperDataWhenNotRequired",
      "type": "error"
    },
    {
      "inputs": [],
      "name": "ConfigurationManagerZeroAddress",
      "type": "error"
    },
    {
      "inputs": [
        {
          "internalType": "address",
          "name": "caller",
          "type": "address"
        }
      ],
      "name": "DirectGrantIsDisabled",
      "type": "error"
    },
    {
      "inputs": [
        {
          "internalType": "address",
          "name": "caller",
          "type": "address"
        }
      ],
      "name": "DirectRevokeIsDisabled",
      "type": "error"
    },
    {
      "inputs": [],
      "name": "ERC4626AssetMismatch",
      "type": "error"
    },
    {
      "inputs": [],
      "name": "EmaOutOfRange",
      "type": "error"
    },
    {
      "inputs": [],
      "name": "InsufficientOutputAmount",
      "type": "error"
    },
    {
      "inputs": [
        {
          "internalType": "address",
          "name": "invalidAddress",
          "type": "address"
        }
      ],
      "name": "InvalidAccessManagerAddress",
      "type": "error"
    },
    {
      "inputs": [],
      "name": "InvalidBoardData",
      "type": "error"
    },
    {
      "inputs": [],
      "name": "InvalidDisembarkData",
      "type": "error"
    },
    {
      "inputs": [],
      "name": "InvalidFunctionSelector",
      "type": "error"
    },
    {
      "inputs": [],
      "name": "InvalidMarket",
      "type": "error"
    },
    {
      "inputs": [],
      "name": "InvalidParamsLength",
      "type": "error"
    },
    {
      "inputs": [],
      "name": "InvalidReceiver",
      "type": "error"
    },
    {
      "inputs": [],
      "name": "InvalidSwapType",
      "type": "error"
    },
    {
      "inputs": [],
      "name": "InvalidVaultAddress",
      "type": "error"
    },
    {
      "inputs": [],
      "name": "KeeperDataRequired",
      "type": "error"
    },
    {
      "inputs": [],
      "name": "LowerEmaNotLessThanUpperEma",
      "type": "error"
    },
    {
      "inputs": [],
      "name": "MarketExpirationTooClose",
      "type": "error"
    },
    {
      "inputs": [],
      "name": "MarketExpired",
      "type": "error"
    },
    {
      "inputs": [
        {
          "internalType": "address",
          "name": "token",
          "type": "address"
        }
      ],
      "name": "SafeERC20FailedOperation",
      "type": "error"
    },
    {
      "inputs": [],
      "name": "UpperEmaNotGreaterThanLowerEma",
      "type": "error"
    },
    {
      "anonymous": false,
      "inputs": [
        {
          "indexed": true,
          "internalType": "address[]",
          "name": "rewardTokens",
          "type": "address[]"
        },
        {
          "indexed": true,
          "internalType": "uint256[]",
          "name": "rewardAmounts",
          "type": "uint256[]"
        }
      ],
      "name": "ArkHarvested",
      "type": "event"
    },
    {
      "anonymous": false,
      "inputs": [
        {
          "indexed": false,
          "internalType": "uint256",
          "name": "currentPrice",
          "type": "uint256"
        },
        {
          "indexed": false,
          "internalType": "uint256",
          "name": "timestamp",
          "type": "uint256"
        }
      ],
      "name": "ArkPoked",
      "type": "event"
    },
    {
      "anonymous": false,
      "inputs": [
        {
          "indexed": true,
          "internalType": "address[]",
          "name": "sweptTokens",
          "type": "address[]"
        },
        {
          "indexed": true,
          "internalType": "uint256[]",
          "name": "sweptAmounts",
          "type": "uint256[]"
        }
      ],
      "name": "ArkSwept",
      "type": "event"
    },
    {
      "anonymous": false,
      "inputs": [
        {
          "indexed": true,
          "internalType": "address",
          "name": "commander",
          "type": "address"
        },
        {
          "indexed": false,
          "internalType": "address",
          "name": "token",
          "type": "address"
        },
        {
          "indexed": false,
          "internalType": "uint256",
          "name": "amount",
          "type": "uint256"
        }
      ],
      "name": "Boarded",
      "type": "event"
    },
    {
      "anonymous": false,
      "inputs": [
        {
          "indexed": false,
          "internalType": "uint256",
          "name": "newCap",
          "type": "uint256"
        }
      ],
      "name": "DepositCapUpdated",
      "type": "event"
    },
    {
      "anonymous": false,
      "inputs": [
        {
          "indexed": true,
          "internalType": "address",
          "name": "commander",
          "type": "address"
        },
        {
          "indexed": false,
          "internalType": "address",
          "name": "token",
          "type": "address"
        },
        {
          "indexed": false,
          "internalType": "uint256",
          "name": "amount",
          "type": "uint256"
        }
      ],
      "name": "Disembarked",
      "type": "event"
    },
    {
      "anonymous": false,
      "inputs": [
        {
          "indexed": false,
          "internalType": "address",
          "name": "commander",
          "type": "address"
        }
      ],
      "name": "FleetCommanderRegistered",
      "type": "event"
    },
    {
      "anonymous": false,
      "inputs": [
        {
          "indexed": false,
          "internalType": "address",
          "name": "commander",
          "type": "address"
        }
      ],
      "name": "FleetCommanderUnregistered",
      "type": "event"
    },
    {
      "anonymous": false,
      "inputs": [
        {
          "indexed": false,
          "internalType": "uint256",
          "name": "newMaxInflow",
          "type": "uint256"
        }
      ],
      "name": "MaxRebalanceInflowUpdated",
      "type": "event"
    },
    {
      "anonymous": false,
      "inputs": [
        {
          "indexed": false,
          "internalType": "uint256",
          "name": "newMaxOutflow",
          "type": "uint256"
        }
      ],
      "name": "MaxRebalanceOutflowUpdated",
      "type": "event"
    },
    {
      "anonymous": false,
      "inputs": [
        {
          "indexed": true,
          "internalType": "address",
          "name": "from",
          "type": "address"
        },
        {
          "indexed": true,
          "internalType": "address",
          "name": "to",
          "type": "address"
        },
        {
          "indexed": false,
          "internalType": "address",
          "name": "token",
          "type": "address"
        },
        {
          "indexed": false,
          "internalType": "uint256",
          "name": "amount",
          "type": "uint256"
        }
      ],
      "name": "Moved",
      "type": "event"
    },
    {
      "anonymous": false,
      "inputs": [
        {
          "indexed": false,
          "internalType": "address",
          "name": "newRaft",
          "type": "address"
        }
      ],
      "name": "RaftUpdated",
      "type": "event"
    },
    {
      "inputs": [],
      "name": "MAX_SLIPPAGE_PERCENTAGE",
      "outputs": [
        {
          "internalType": "Percentage",
          "name": "",
          "type": "uint256"
        }
      ],
      "stateMutability": "view",
      "type": "function"
    },
    {
      "inputs": [],
      "name": "MIN_ORACLE_DURATION",
      "outputs": [
        {
          "internalType": "uint256",
          "name": "",
          "type": "uint256"
        }
      ],
      "stateMutability": "view",
      "type": "function"
    },
    {
      "inputs": [],
      "name": "PT",
      "outputs": [
        {
          "internalType": "contract IPPrincipalToken",
          "name": "",
          "type": "address"
        }
      ],
      "stateMutability": "view",
      "type": "function"
    },
    {
      "inputs": [],
      "name": "SY",
      "outputs": [
        {
          "internalType": "contract IStandardizedYield",
          "name": "",
          "type": "address"
        }
      ],
      "stateMutability": "view",
      "type": "function"
    },
    {
      "inputs": [],
      "name": "USDC_INDEX",
      "outputs": [
        {
          "internalType": "int128",
          "name": "",
          "type": "int128"
        }
      ],
      "stateMutability": "view",
      "type": "function"
    },
    {
      "inputs": [],
      "name": "USDE_INDEX",
      "outputs": [
        {
          "internalType": "int128",
          "name": "",
          "type": "int128"
        }
      ],
      "stateMutability": "view",
      "type": "function"
    },
    {
      "inputs": [],
      "name": "YT",
      "outputs": [
        {
          "internalType": "contract IPYieldToken",
          "name": "",
          "type": "address"
        }
      ],
      "stateMutability": "view",
      "type": "function"
    },
    {
      "inputs": [
        {
          "internalType": "uint256",
          "name": "amount",
          "type": "uint256"
        },
        {
          "internalType": "bytes",
          "name": "boardData",
          "type": "bytes"
        }
      ],
      "name": "board",
      "outputs": [],
      "stateMutability": "nonpayable",
      "type": "function"
    },
    {
      "inputs": [],
      "name": "commander",
      "outputs": [
        {
          "internalType": "address",
          "name": "",
          "type": "address"
        }
      ],
      "stateMutability": "view",
      "type": "function"
    },
    {
      "inputs": [],
      "name": "config",
      "outputs": [
        {
          "internalType": "address",
          "name": "commander",
          "type": "address"
        },
        {
          "internalType": "address",
          "name": "raft",
          "type": "address"
        },
        {
          "internalType": "contract IERC20",
          "name": "token",
          "type": "address"
        },
        {
          "internalType": "uint256",
          "name": "depositCap",
          "type": "uint256"
        },
        {
          "internalType": "uint256",
          "name": "maxRebalanceOutflow",
          "type": "uint256"
        },
        {
          "internalType": "uint256",
          "name": "maxRebalanceInflow",
          "type": "uint256"
        },
        {
          "internalType": "string",
          "name": "name",
          "type": "string"
        },
        {
          "internalType": "bool",
          "name": "requiresKeeperData",
          "type": "bool"
        }
      ],
      "stateMutability": "view",
      "type": "function"
    },
    {
      "inputs": [],
      "name": "configurationManager",
      "outputs": [
        {
          "internalType": "contract IConfigurationManager",
          "name": "",
          "type": "address"
        }
      ],
      "stateMutability": "view",
      "type": "function"
    },
    {
      "inputs": [],
      "name": "curveSwap",
      "outputs": [
        {
          "internalType": "contract ICurveSwap",
          "name": "",
          "type": "address"
        }
      ],
      "stateMutability": "view",
      "type": "function"
    },
    {
      "inputs": [],
      "name": "depositCap",
      "outputs": [
        {
          "internalType": "uint256",
          "name": "",
          "type": "uint256"
        }
      ],
      "stateMutability": "view",
      "type": "function"
    },
    {
      "inputs": [
        {
          "internalType": "uint256",
          "name": "amount",
          "type": "uint256"
        },
        {
          "internalType": "bytes",
          "name": "disembarkData",
          "type": "bytes"
        }
      ],
      "name": "disembark",
      "outputs": [],
      "stateMutability": "nonpayable",
      "type": "function"
    },
    {
      "inputs": [],
      "name": "emptySwap",
      "outputs": [
        {
          "internalType": "enum SwapType",
          "name": "swapType",
          "type": "uint8"
        },
        {
          "internalType": "address",
          "name": "extRouter",
          "type": "address"
        },
        {
          "internalType": "bytes",
          "name": "extCalldata",
          "type": "bytes"
        },
        {
          "internalType": "bool",
          "name": "needScale",
          "type": "bool"
        }
      ],
      "stateMutability": "view",
      "type": "function"
    },
    {
      "inputs": [
        {
          "internalType": "enum ContractSpecificRoles",
          "name": "roleName",
          "type": "uint8"
        },
        {
          "internalType": "address",
          "name": "roleTargetContract",
          "type": "address"
        }
      ],
      "name": "generateRole",
      "outputs": [
        {
          "internalType": "bytes32",
          "name": "",
          "type": "bytes32"
        }
      ],
      "stateMutability": "pure",
      "type": "function"
    },
    {
      "inputs": [],
      "name": "getConfig",
      "outputs": [
        {
          "components": [
            {
              "internalType": "address",
              "name": "commander",
              "type": "address"
            },
            {
              "internalType": "address",
              "name": "raft",
              "type": "address"
            },
            {
              "internalType": "contract IERC20",
              "name": "token",
              "type": "address"
            },
            {
              "internalType": "uint256",
              "name": "depositCap",
              "type": "uint256"
            },
            {
              "internalType": "uint256",
              "name": "maxRebalanceOutflow",
              "type": "uint256"
            },
            {
              "internalType": "uint256",
              "name": "maxRebalanceInflow",
              "type": "uint256"
            },
            {
              "internalType": "string",
              "name": "name",
              "type": "string"
            },
            {
              "internalType": "bool",
              "name": "requiresKeeperData",
              "type": "bool"
            }
          ],
          "internalType": "struct ArkConfig",
          "name": "",
          "type": "tuple"
        }
      ],
      "stateMutability": "view",
      "type": "function"
    },
    {
      "inputs": [],
      "name": "getEmaPrice",
      "outputs": [
        {
          "internalType": "uint256",
          "name": "price",
          "type": "uint256"
        }
      ],
      "stateMutability": "view",
      "type": "function"
    },
    {
      "inputs": [],
      "name": "getExchangeRate",
      "outputs": [
        {
          "internalType": "uint256",
          "name": "price",
          "type": "uint256"
        }
      ],
      "stateMutability": "view",
      "type": "function"
    },
    {
      "inputs": [],
      "name": "harborCommand",
      "outputs": [
        {
          "internalType": "address",
          "name": "",
          "type": "address"
        }
      ],
      "stateMutability": "view",
      "type": "function"
    },
    {
      "inputs": [
        {
          "internalType": "bytes",
          "name": "additionalData",
          "type": "bytes"
        }
      ],
      "name": "harvest",
      "outputs": [
        {
          "internalType": "address[]",
          "name": "rewardTokens",
          "type": "address[]"
        },
        {
          "internalType": "uint256[]",
          "name": "rewardAmounts",
          "type": "uint256[]"
        }
      ],
      "stateMutability": "nonpayable",
      "type": "function"
    },
    {
      "inputs": [],
      "name": "lowerEma",
      "outputs": [
        {
          "internalType": "uint256",
          "name": "",
          "type": "uint256"
        }
      ],
      "stateMutability": "view",
      "type": "function"
    },
    {
      "inputs": [],
      "name": "market",
      "outputs": [
        {
          "internalType": "address",
          "name": "",
          "type": "address"
        }
      ],
      "stateMutability": "view",
      "type": "function"
    },
    {
      "inputs": [],
      "name": "marketAsset",
      "outputs": [
        {
          "internalType": "address",
          "name": "",
          "type": "address"
        }
      ],
      "stateMutability": "view",
      "type": "function"
    },
    {
      "inputs": [],
      "name": "marketExpiry",
      "outputs": [
        {
          "internalType": "uint256",
          "name": "",
          "type": "uint256"
        }
      ],
      "stateMutability": "view",
      "type": "function"
    },
    {
      "inputs": [],
      "name": "maxRebalanceInflow",
      "outputs": [
        {
          "internalType": "uint256",
          "name": "",
          "type": "uint256"
        }
      ],
      "stateMutability": "view",
      "type": "function"
    },
    {
      "inputs": [],
      "name": "maxRebalanceOutflow",
      "outputs": [
        {
          "internalType": "uint256",
          "name": "",
          "type": "uint256"
        }
      ],
      "stateMutability": "view",
      "type": "function"
    },
    {
      "inputs": [
        {
          "internalType": "uint256",
          "name": "amount",
          "type": "uint256"
        },
        {
          "internalType": "address",
          "name": "receiverArk",
          "type": "address"
        },
        {
          "internalType": "bytes",
          "name": "boardData",
          "type": "bytes"
        },
        {
          "internalType": "bytes",
          "name": "disembarkData",
          "type": "bytes"
        }
      ],
      "name": "move",
      "outputs": [],
      "stateMutability": "nonpayable",
      "type": "function"
    },
    {
      "inputs": [],
      "name": "name",
      "outputs": [
        {
          "internalType": "string",
          "name": "",
          "type": "string"
        }
      ],
      "stateMutability": "view",
      "type": "function"
    },
    {
      "inputs": [],
      "name": "oracle",
      "outputs": [
        {
          "internalType": "address",
          "name": "",
          "type": "address"
        }
      ],
      "stateMutability": "view",
      "type": "function"
    },
    {
      "inputs": [],
      "name": "oracleDuration",
      "outputs": [
        {
          "internalType": "uint32",
          "name": "",
          "type": "uint32"
        }
      ],
      "stateMutability": "view",
      "type": "function"
    },
    {
      "inputs": [],
      "name": "raft",
      "outputs": [
        {
          "internalType": "address",
          "name": "",
          "type": "address"
        }
      ],
      "stateMutability": "view",
      "type": "function"
    },
    {
      "inputs": [],
      "name": "registerFleetCommander",
      "outputs": [],
      "stateMutability": "nonpayable",
      "type": "function"
    },
    {
      "inputs": [],
      "name": "requiresKeeperData",
      "outputs": [
        {
          "internalType": "bool",
          "name": "",
          "type": "bool"
        }
      ],
      "stateMutability": "view",
      "type": "function"
    },
    {
      "inputs": [
        {
          "internalType": "address",
          "name": "token",
          "type": "address"
        }
      ],
      "name": "rescueToken",
      "outputs": [],
      "stateMutability": "nonpayable",
      "type": "function"
    },
    {
      "inputs": [],
      "name": "router",
      "outputs": [
        {
          "internalType": "address",
          "name": "",
          "type": "address"
        }
      ],
      "stateMutability": "view",
      "type": "function"
    },
    {
      "inputs": [],
      "name": "routerParams",
      "outputs": [
        {
          "internalType": "uint256",
          "name": "guessMin",
          "type": "uint256"
        },
        {
          "internalType": "uint256",
          "name": "guessMax",
          "type": "uint256"
        },
        {
          "internalType": "uint256",
          "name": "guessOffchain",
          "type": "uint256"
        },
        {
          "internalType": "uint256",
          "name": "maxIteration",
          "type": "uint256"
        },
        {
          "internalType": "uint256",
          "name": "eps",
          "type": "uint256"
        }
      ],
      "stateMutability": "view",
      "type": "function"
    },
    {
      "inputs": [
        {
          "internalType": "uint256",
          "name": "newDepositCap",
          "type": "uint256"
        }
      ],
      "name": "setDepositCap",
      "outputs": [],
      "stateMutability": "nonpayable",
      "type": "function"
    },
    {
      "inputs": [
        {
          "internalType": "uint256",
          "name": "_lowerEma",
          "type": "uint256"
        }
      ],
      "name": "setLowerEma",
      "outputs": [],
      "stateMutability": "nonpayable",
      "type": "function"
    },
    {
      "inputs": [
        {
          "internalType": "uint256",
          "name": "newMaxRebalanceInflow",
          "type": "uint256"
        }
      ],
      "name": "setMaxRebalanceInflow",
      "outputs": [],
      "stateMutability": "nonpayable",
      "type": "function"
    },
    {
      "inputs": [
        {
          "internalType": "uint256",
          "name": "newMaxRebalanceOutflow",
          "type": "uint256"
        }
      ],
      "name": "setMaxRebalanceOutflow",
      "outputs": [],
      "stateMutability": "nonpayable",
      "type": "function"
    },
    {
      "inputs": [
        {
          "internalType": "uint256",
          "name": "_upperEma",
          "type": "uint256"
        }
      ],
      "name": "setUpperEma",
      "outputs": [],
      "stateMutability": "nonpayable",
      "type": "function"
    },
    {
      "inputs": [],
      "name": "slippagePercentage",
      "outputs": [
        {
          "internalType": "Percentage",
          "name": "",
          "type": "uint256"
        }
      ],
      "stateMutability": "view",
      "type": "function"
    },
    {
      "inputs": [
        {
          "internalType": "address[]",
          "name": "tokens",
          "type": "address[]"
        }
      ],
      "name": "sweep",
      "outputs": [
        {
          "internalType": "address[]",
          "name": "sweptTokens",
          "type": "address[]"
        },
        {
          "internalType": "uint256[]",
          "name": "sweptAmounts",
          "type": "uint256[]"
        }
      ],
      "stateMutability": "nonpayable",
      "type": "function"
    },
    {
      "inputs": [],
      "name": "tipJar",
      "outputs": [
        {
          "internalType": "address",
          "name": "",
          "type": "address"
        }
      ],
      "stateMutability": "view",
      "type": "function"
    },
    {
      "inputs": [],
      "name": "token",
      "outputs": [
        {
          "internalType": "contract IERC20",
          "name": "",
          "type": "address"
        }
      ],
      "stateMutability": "view",
      "type": "function"
    },
    {
      "inputs": [],
      "name": "totalAssets",
      "outputs": [
        {
          "internalType": "uint256",
          "name": "",
          "type": "uint256"
        }
      ],
      "stateMutability": "view",
      "type": "function"
    },
    {
      "inputs": [],
      "name": "treasury",
      "outputs": [
        {
          "internalType": "address",
          "name": "",
          "type": "address"
        }
      ],
      "stateMutability": "view",
      "type": "function"
    },
    {
      "inputs": [],
      "name": "unregisterFleetCommander",
      "outputs": [],
      "stateMutability": "nonpayable",
      "type": "function"
    },
    {
      "inputs": [],
      "name": "upperEma",
      "outputs": [
        {
          "internalType": "uint256",
          "name": "",
          "type": "uint256"
        }
      ],
      "stateMutability": "view",
      "type": "function"
    },
    {
      "inputs": [
        {
          "internalType": "bytes",
          "name": "params",
          "type": "bytes"
        }
      ],
      "name": "validateAndDecodeSwapForPtParams",
      "outputs": [
        {
          "internalType": "address",
          "name": "receiver",
          "type": "address"
        },
        {
          "internalType": "address",
          "name": "swapMarket",
          "type": "address"
        },
        {
          "internalType": "uint256",
          "name": "minPtOut",
          "type": "uint256"
        },
        {
          "components": [
            {
              "internalType": "uint256",
              "name": "guessMin",
              "type": "uint256"
            },
            {
              "internalType": "uint256",
              "name": "guessMax",
              "type": "uint256"
            },
            {
              "internalType": "uint256",
              "name": "guessOffchain",
              "type": "uint256"
            },
            {
              "internalType": "uint256",
              "name": "maxIteration",
              "type": "uint256"
            },
            {
              "internalType": "uint256",
              "name": "eps",
              "type": "uint256"
            }
          ],
          "internalType": "struct ApproxParams",
          "name": "guessPtOut",
          "type": "tuple"
        },
        {
          "components": [
            {
              "internalType": "address",
              "name": "tokenIn",
              "type": "address"
            },
            {
              "internalType": "uint256",
              "name": "netTokenIn",
              "type": "uint256"
            },
            {
              "internalType": "address",
              "name": "tokenMintSy",
              "type": "address"
            },
            {
              "internalType": "address",
              "name": "pendleSwap",
              "type": "address"
            },
            {
              "components": [
                {
                  "internalType": "enum SwapType",
                  "name": "swapType",
                  "type": "uint8"
                },
                {
                  "internalType": "address",
                  "name": "extRouter",
                  "type": "address"
                },
                {
                  "internalType": "bytes",
                  "name": "extCalldata",
                  "type": "bytes"
                },
                {
                  "internalType": "bool",
                  "name": "needScale",
                  "type": "bool"
                }
              ],
              "internalType": "struct SwapData",
              "name": "swapData",
              "type": "tuple"
            }
          ],
          "internalType": "struct TokenInput",
          "name": "input",
          "type": "tuple"
        },
        {
          "components": [
            {
              "internalType": "address",
              "name": "limitRouter",
              "type": "address"
            },
            {
              "internalType": "uint256",
              "name": "epsSkipMarket",
              "type": "uint256"
            },
            {
              "components": [
                {
                  "components": [
                    {
                      "internalType": "uint256",
                      "name": "salt",
                      "type": "uint256"
                    },
                    {
                      "internalType": "uint256",
                      "name": "expiry",
                      "type": "uint256"
                    },
                    {
                      "internalType": "uint256",
                      "name": "nonce",
                      "type": "uint256"
                    },
                    {
                      "internalType": "enum IPLimitOrderType.OrderType",
                      "name": "orderType",
                      "type": "uint8"
                    },
                    {
                      "internalType": "address",
                      "name": "token",
                      "type": "address"
                    },
                    {
                      "internalType": "address",
                      "name": "YT",
                      "type": "address"
                    },
                    {
                      "internalType": "address",
                      "name": "maker",
                      "type": "address"
                    },
                    {
                      "internalType": "address",
                      "name": "receiver",
                      "type": "address"
                    },
                    {
                      "internalType": "uint256",
                      "name": "makingAmount",
                      "type": "uint256"
                    },
                    {
                      "internalType": "uint256",
                      "name": "lnImpliedRate",
                      "type": "uint256"
                    },
                    {
                      "internalType": "uint256",
                      "name": "failSafeRate",
                      "type": "uint256"
                    },
                    {
                      "internalType": "bytes",
                      "name": "permit",
                      "type": "bytes"
                    }
                  ],
                  "internalType": "struct Order",
                  "name": "order",
                  "type": "tuple"
                },
                {
                  "internalType": "bytes",
                  "name": "signature",
                  "type": "bytes"
                },
                {
                  "internalType": "uint256",
                  "name": "makingAmount",
                  "type": "uint256"
                }
              ],
              "internalType": "struct FillOrderParams[]",
              "name": "normalFills",
              "type": "tuple[]"
            },
            {
              "components": [
                {
                  "components": [
                    {
                      "internalType": "uint256",
                      "name": "salt",
                      "type": "uint256"
                    },
                    {
                      "internalType": "uint256",
                      "name": "expiry",
                      "type": "uint256"
                    },
                    {
                      "internalType": "uint256",
                      "name": "nonce",
                      "type": "uint256"
                    },
                    {
                      "internalType": "enum IPLimitOrderType.OrderType",
                      "name": "orderType",
                      "type": "uint8"
                    },
                    {
                      "internalType": "address",
                      "name": "token",
                      "type": "address"
                    },
                    {
                      "internalType": "address",
                      "name": "YT",
                      "type": "address"
                    },
                    {
                      "internalType": "address",
                      "name": "maker",
                      "type": "address"
                    },
                    {
                      "internalType": "address",
                      "name": "receiver",
                      "type": "address"
                    },
                    {
                      "internalType": "uint256",
                      "name": "makingAmount",
                      "type": "uint256"
                    },
                    {
                      "internalType": "uint256",
                      "name": "lnImpliedRate",
                      "type": "uint256"
                    },
                    {
                      "internalType": "uint256",
                      "name": "failSafeRate",
                      "type": "uint256"
                    },
                    {
                      "internalType": "bytes",
                      "name": "permit",
                      "type": "bytes"
                    }
                  ],
                  "internalType": "struct Order",
                  "name": "order",
                  "type": "tuple"
                },
                {
                  "internalType": "bytes",
                  "name": "signature",
                  "type": "bytes"
                },
                {
                  "internalType": "uint256",
                  "name": "makingAmount",
                  "type": "uint256"
                }
              ],
              "internalType": "struct FillOrderParams[]",
              "name": "flashFills",
              "type": "tuple[]"
            },
            {
              "internalType": "bytes",
              "name": "optData",
              "type": "bytes"
            }
          ],
          "internalType": "struct LimitOrderData",
          "name": "limit",
          "type": "tuple"
        }
      ],
      "stateMutability": "pure",
      "type": "function"
    },
    {
      "inputs": [
        {
          "internalType": "bytes",
          "name": "params",
          "type": "bytes"
        }
      ],
      "name": "validateAndDecodeSwapPtForTokenParams",
      "outputs": [
        {
          "internalType": "address",
          "name": "receiver",
          "type": "address"
        },
        {
          "internalType": "address",
          "name": "swapMarket",
          "type": "address"
        },
        {
          "internalType": "uint256",
          "name": "exactPtIn",
          "type": "uint256"
        },
        {
          "components": [
            {
              "internalType": "address",
              "name": "tokenOut",
              "type": "address"
            },
            {
              "internalType": "uint256",
              "name": "minTokenOut",
              "type": "uint256"
            },
            {
              "internalType": "address",
              "name": "tokenRedeemSy",
              "type": "address"
            },
            {
              "internalType": "address",
              "name": "pendleSwap",
              "type": "address"
            },
            {
              "components": [
                {
                  "internalType": "enum SwapType",
                  "name": "swapType",
                  "type": "uint8"
                },
                {
                  "internalType": "address",
                  "name": "extRouter",
                  "type": "address"
                },
                {
                  "internalType": "bytes",
                  "name": "extCalldata",
                  "type": "bytes"
                },
                {
                  "internalType": "bool",
                  "name": "needScale",
                  "type": "bool"
                }
              ],
              "internalType": "struct SwapData",
              "name": "swapData",
              "type": "tuple"
            }
          ],
          "internalType": "struct TokenOutput",
          "name": "output",
          "type": "tuple"
        },
        {
          "components": [
            {
              "internalType": "address",
              "name": "limitRouter",
              "type": "address"
            },
            {
              "internalType": "uint256",
              "name": "epsSkipMarket",
              "type": "uint256"
            },
            {
              "components": [
                {
                  "components": [
                    {
                      "internalType": "uint256",
                      "name": "salt",
                      "type": "uint256"
                    },
                    {
                      "internalType": "uint256",
                      "name": "expiry",
                      "type": "uint256"
                    },
                    {
                      "internalType": "uint256",
                      "name": "nonce",
                      "type": "uint256"
                    },
                    {
                      "internalType": "enum IPLimitOrderType.OrderType",
                      "name": "orderType",
                      "type": "uint8"
                    },
                    {
                      "internalType": "address",
                      "name": "token",
                      "type": "address"
                    },
                    {
                      "internalType": "address",
                      "name": "YT",
                      "type": "address"
                    },
                    {
                      "internalType": "address",
                      "name": "maker",
                      "type": "address"
                    },
                    {
                      "internalType": "address",
                      "name": "receiver",
                      "type": "address"
                    },
                    {
                      "internalType": "uint256",
                      "name": "makingAmount",
                      "type": "uint256"
                    },
                    {
                      "internalType": "uint256",
                      "name": "lnImpliedRate",
                      "type": "uint256"
                    },
                    {
                      "internalType": "uint256",
                      "name": "failSafeRate",
                      "type": "uint256"
                    },
                    {
                      "internalType": "bytes",
                      "name": "permit",
                      "type": "bytes"
                    }
                  ],
                  "internalType": "struct Order",
                  "name": "order",
                  "type": "tuple"
                },
                {
                  "internalType": "bytes",
                  "name": "signature",
                  "type": "bytes"
                },
                {
                  "internalType": "uint256",
                  "name": "makingAmount",
                  "type": "uint256"
                }
              ],
              "internalType": "struct FillOrderParams[]",
              "name": "normalFills",
              "type": "tuple[]"
            },
            {
              "components": [
                {
                  "components": [
                    {
                      "internalType": "uint256",
                      "name": "salt",
                      "type": "uint256"
                    },
                    {
                      "internalType": "uint256",
                      "name": "expiry",
                      "type": "uint256"
                    },
                    {
                      "internalType": "uint256",
                      "name": "nonce",
                      "type": "uint256"
                    },
                    {
                      "internalType": "enum IPLimitOrderType.OrderType",
                      "name": "orderType",
                      "type": "uint8"
                    },
                    {
                      "internalType": "address",
                      "name": "token",
                      "type": "address"
                    },
                    {
                      "internalType": "address",
                      "name": "YT",
                      "type": "address"
                    },
                    {
                      "internalType": "address",
                      "name": "maker",
                      "type": "address"
                    },
                    {
                      "internalType": "address",
                      "name": "receiver",
                      "type": "address"
                    },
                    {
                      "internalType": "uint256",
                      "name": "makingAmount",
                      "type": "uint256"
                    },
                    {
                      "internalType": "uint256",
                      "name": "lnImpliedRate",
                      "type": "uint256"
                    },
                    {
                      "internalType": "uint256",
                      "name": "failSafeRate",
                      "type": "uint256"
                    },
                    {
                      "internalType": "bytes",
                      "name": "permit",
                      "type": "bytes"
                    }
                  ],
                  "internalType": "struct Order",
                  "name": "order",
                  "type": "tuple"
                },
                {
                  "internalType": "bytes",
                  "name": "signature",
                  "type": "bytes"
                },
                {
                  "internalType": "uint256",
                  "name": "makingAmount",
                  "type": "uint256"
                }
              ],
              "internalType": "struct FillOrderParams[]",
              "name": "flashFills",
              "type": "tuple[]"
            },
            {
              "internalType": "bytes",
              "name": "optData",
              "type": "bytes"
            }
          ],
          "internalType": "struct LimitOrderData",
          "name": "limit",
          "type": "tuple"
        }
      ],
      "stateMutability": "pure",
      "type": "function"
    }
  ],
  "bytecode": "0x60c0806040523461056a5761431b803803809161001c8285610755565b833981018181039060c0821261056a5782516001600160401b03811161056a578301926101008483031261056a576040519161005783610739565b84516001600160401b03811161056a57850181601f8201121561056a578051906001600160401b03821161067b576040519261009d601f8401601f191660200185610755565b8284526020838301011161056a57815f9260208093018386015e8301015282526100c960208501610778565b90602083019182526100dd60408601610778565b93604084019485526100f160608701610778565b93606081019485526080870151906080810191825260a08801519760a0820198895261012b60e060c08301519260c085019384520161078c565b60e08301908152986060601f1986011261056a5760405197606089016001600160401b0381118a82101761067b5760405261016860208801610778565b895261017660408801610778565b9960208a019a8b52604061018c60608a01610778565b8b820190815297607f19011261056a5760408051989089016001600160401b0381118a82101761067b576101d49160a0916040526101cc60808201610778565b8b5201610778565b602089019081528151995190996001600160a01b0390811691168015610726576040516301ffc9a760e01b815263a237592160e01b6004820152602081602481855afa908115610576575f916106ec575b50156106da575f80546001600160a01b03191691909117905580156106cb57608052516001600160a01b0316156106bc5780516001600160a01b0316156106ad578351511561069e576001600160a01b0361027e610805565b161561068f57516001600160a01b0316610296610805565b94519151925193519a5115159460e0604051916102b283610739565b5f83526001600160a01b03166020830181905260408301849052606083018590526080830186905260a0830187905260c083018e90529101958652600180546001600160a01b031990811690915560028054821690921790915560038054909116909117905560045560055560065586516001600160401b03811161067b57600754600181811c91168015610671575b602082101461065d57601f81116105fa575b506020601f821160011461058c57908060609897969594939260049a5f92610581575b50508160011b915f199060031b1c1916176007555b516008805460ff191691151560ff16919091179055670ddeeff45500c000601f55670de43b19fdb7e00060205551600c805495516001600160a01b0390811660a0529451600b805460e160a31b9488166001600160c01b031990991698909817939093179091556706f05b59d3b200006010559151600980549186166001600160a01b03199283161790559251600a80549186169185169190911790555f1960135561010060155566038d7ea4c680006016559216921682179055604051630b2339af60e21b815292839182905afa908115610576575f915f915f91610500575b50600f80546001600160a01b03199081166001600160a01b0393841617909155600e8054821693831693909317909255600d805490921692169190911790556104b4610799565b6104bc610799565b604051613aa89081610873823960805181818161081e01528181610ff6015281816116e5015281816117550152612e19015260a051818181610fa201526126f70152f35b925050506060813d60601161056e575b8161051d60609383610755565b8101031261056a5780516001600160a01b038116810361056a576020820151916001600160a01b038316830361056a5760400151906001600160a01b038216820361056a5791905f61046d565b5f80fd5b3d9150610510565b6040513d5f823e3d90fd5b015190505f80610377565b601f1982169860075f52815f20995f5b8181106105e2575099600192849260609b9a999897969560049d106105ca575b505050811b0160075561038c565b01515f1960f88460031b161c191690555f80806105bc565b838301518c556001909b019a6020938401930161059c565b60075f527fa66cc928b5edb82af9bd49922954155ab7b0942694bea4ce44661d9a8736c688601f830160051c81019160208410610653575b601f0160051c01905b8181106106485750610354565b5f815560010161063b565b9091508190610632565b634e487b7160e01b5f52602260045260245ffd5b90607f1690610342565b634e487b7160e01b5f52604160045260245ffd5b633a4f9cdb60e21b5f5260045ffd5b63268c072960e01b5f5260045ffd5b637ff57ef160e11b5f5260045ffd5b63b53c493160e01b5f5260045ffd5b63f1634df960e01b5f5260045ffd5b6347bd7c1d60e01b5f5260045260245ffd5b90506020813d60201161071e575b8161070760209383610755565b8101031261056a576107189061078c565b5f610225565b3d91506106fa565b6347bd7c1d60e01b5f525f60045260245ffd5b61010081019081106001600160401b0382111761067b57604052565b601f909101601f19168101906001600160401b0382119082101761067b57604052565b51906001600160a01b038216820361056a57565b5190811515820361056a57565b600b546040516370c264df60e11b815290602090829060049082906001600160a01b03165afa908115610576575f916107d3575b50601155565b90506020813d6020116107fd575b816107ee60209383610755565b8101031261056a57515f6107cd565b3d91506107e1565b608051604051628bec5760e51b815290602090829060049082906001600160a01b03165afa908115610576575f9161083b575090565b90506020813d60201161086a575b8161085660209383610755565b8101031261056a5761086790610778565b90565b3d915061084956fe6080806040526004361015610012575f80fd5b5f905f3560e01c90816301e1d114146126ad5750806306fdde031461266f578063117d8ae01461264357806313c408f8146123cd5780631deae8c6146123b1578063256d8a23146123725780632db6d39914611edd5780632f6107a414611dc9578063303dbaf314611da75780633194549e14611d8a578063326c488e14611c1a5780633727093614611bf25780634452d81c14611bd55780634460d3cf14611a0057806345a04257146118d957806351437a24146118bd578063552d2e59146117a05780635b0f83f31461173057806361d027b3146116c057806361d3838f146116a657806361f5cd8b1461165457806369b3054b146115f2578063780469bb14611152578063781c18db1461112a57806379502c55146110975780637a04d4da1461107c5780637aaceb9514610fd15780637dc0d1d014610f8d57806380f5560514610f6557806383ce329014610f485780638665120314610ef65780638a8b997614610e995780638f1d3f0014610e7c57806392f5e83214610e2a578063930ec27714610e07578063ad5a356f14610dea578063afd27bf514610dc2578063c38a6f0b146109aa578063c38cff9a1461098e578063c3f909d41461084d578063c9c667e314610808578063ce5c7f611461051d578063cefba474146104f6578063d8fca1ac146104cd578063d94073d4146104a4578063dbd5edc714610486578063e6aa216c14610463578063ea1af6e01461043a578063ebf31131146103ca578063f66a7749146102ae578063f887ea40146102855763fc0c546a1461025a575f80fd5b346102825780600319360112610282576003546040516001600160a01b039091168152602090f35b80fd5b5034610282578060031936011261028257600c546040516001600160a01b039091168152602090f35b5034610282578060031936011261028257601c549060ff821690604051908181601d54926102db84612d1a565b80845293600181169081156103a85750600114610349575b5061030092500382612c67565b61033d60ff601e541691604051948461031987966128ab565b855260081c6001600160a01b03166020850152608060408501819052840190612827565b90151560608301520390f35b601d8152919290507f6d4407e7be21f808e6509aa9fa9143369579dd7d760fe20a2c09680fc146134f5b81831061038c575050906020610300928201015f6102f3565b6020919350806001915483858801015201910190918392610373565b90506020925061030094915060ff191682840152151560051b8201015f6102f3565b50346102825780600319360112610282576103e36134bd565b15610427576001600160601b0360a01b600154166001557f7cb941d7b1708e5b3bcd35ca960d6c6311188cec18886e5b67630552676b04876020604051338152a180f35b631564c0e160e11b815233600452602490fd5b5034610282578060031936011261028257600a546040516001600160a01b039091168152602090f35b5034610282578060031936011261028257602061047e61343d565b604051908152f35b50346102825780600319360112610282576020600454604051908152f35b5034610282578060031936011261028257600e546040516001600160a01b039091168152602090f35b50346102825780600319360112610282576009546040516001600160a01b039091168152602090f35b5034610282578060031936011261028257602063ffffffff600c5460a01c16604051908152f35b5034610282576020366003190112610282576004356001600160401b0381116107fc5761054e90369060040161284b565b5050604051628bec5760e51b8152602081600481305afa9081156107115782916107ca575b506001600160a01b031633036107b757600b5460405163c4f59f9b60e01b815291906001600160a01b03168183600481845afa92831561071157829361071c575b5091818093602460405180968193639262187b60e01b83523060048401525af1928315610711578293610673575b50815b8151811015610627576001906106216001600160a01b036106068386613398565b5116610610612e05565b61061a8489613398565b51916135c3565b016105e5565b507f3e3e7958121b3e39c7a49392d1aa9cdce870c2a059744f9e15cf66fff78654559261066f91610657816133c0565b61066083613403565b9060405196868897a383612c9f565b0390f35b9092503d8083833e6106858183612c67565b810190602081830312610709578051906001600160401b03821161070d57019080601f830112156107095781516106bb81612c88565b926106c96040519485612c67565b81845260208085019260051b82010192831161070557602001905b8282106106f557505050915f6105e2565b81518152602091820191016106e4565b8480fd5b8280fd5b8380fd5b6040513d84823e3d90fd5b92503d8083853e61072d8185612c67565b830192602081850312610709578051906001600160401b03821161070d570183601f820112156107095780519361076385612c88565b916107716040519384612c67565b85835260208084019660051b82010191821161070557602001945b81861061079f57509093508290506105b4565b602080916107ac88612df1565b81520195019461078c565b631184b31b60e21b815233600452602490fd5b90506020813d602011610800575b816107e560209383612c67565b810103126107fc576107f690612df1565b5f610573565b5080fd5b3d91506107d8565b50346102825780600319360112610282576040517f00000000000000000000000000000000000000000000000000000000000000006001600160a01b03168152602090f35b503461028257806003193601126102825760e060405161086c81612c14565b8281528260208201528260408201528260608201528260808201528260a0820152606060c082015201526040516108a281612c14565b6001546001600160a01b0390811682526002548116602083019081526003549091166040808401918252600454606085019081526005546080860190815260065460a08701908152925194959461098093909290919061090c8461090581612d52565b0385612c67565b60c0870193845260ff600854169560e08801961515875260405198899860208a5260018060a01b0390511660208a015260018060a01b03905116604089015260018060a01b0390511660608801525160808701525160a08601525160c08501525161010060e0850152610120840190612827565b905115156101008301520390f35b5034610282578060031936011261028257602090604051908152f35b5034610c43576080366003190112610c43576004356109c7612b5b565b906044356001600160401b038111610c43576109e790369060040161284b565b90926064356001600160401b038111610c4357610a0890369060040161284b565b90610a116134bd565b15610daf5781610a24610a349383613572565b610a2c613601565b81019061363d565b601154421015610da0575f610a6691516040518093819263552d2e5960e01b8352602060048401526024830190612827565b0381305afa8015610c38575f905f905f915f945f92610d18575b50306001600160a01b03851603610d0957600b546001600160a01b0390811690821603610cfa5760208501518810610ceb57600e54600c5460405163095ea7b360e01b81526001600160a01b0391821660048201526024810186905291602091839160449183915f91165af18015610c3857610cad575b505f606094610b2860018060a01b03600c54169460405198899788968795631652a23360e21b875260048701612b85565b03925af18015610c3857610c7e575b5060035460405163095ea7b360e01b81526001600160a01b038381166004830152602482018690529091602091839160449183915f91165af18015610c3857610c47575b506001600160a01b031692833b15610c43578160645f926040519485938492632db6d39960e01b845288600485015260406024850152816044850152848401378181018301859052601f01601f1916810103018183875af18015610c3857610c23575b50600354604080516001600160a01b039092168252602082019290925230917f9f784fc02a186f1c98b2d9f15fda084da27cdd291a3785d978f91911d880516b91a380f35b610c309193505f90612c67565b5f915f610bde565b6040513d5f823e3d90fd5b5f80fd5b6020813d602011610c76575b81610c6060209383612c67565b81010312610c4357610c7190612e88565b610b7b565b3d9150610c53565b610c9f9060603d606011610ca6575b610c978183612c67565b8101906139ff565b5050610b37565b503d610c8d565b6020813d602011610ce3575b81610cc660209383612c67565b81010312610c4357606094610cdb5f92612e88565b509450610af7565b3d9150610cb9565b6342301c2360e01b5f5260045ffd5b639db8d5b160e01b5f5260045ffd5b631e4ec46b60e01b5f5260045ffd5b9450505050503d805f833e610d2d8183612c67565b81019060a081830312610c4357610d4381612df1565b91610d5060208301612df1565b9160408101519060608101516001600160401b038111610c435783610d769183016136e5565b9260808201516001600160401b038111610c4357610d949201613966565b9392909193905f610a80565b63b2094b5960e01b5f5260045ffd5b631564c0e160e11b5f523360045260245ffd5b34610c43575f366003190112610c4357600d546040516001600160a01b039091168152602090f35b34610c43575f366003190112610c43576020600654604051908152f35b34610c43575f366003190112610c4357602060405168056bc75e2d631000008152f35b34610c43576020366003190112610c4357600435610e466134bd565b15610daf576020817fb6ac66853c4e59c71e118d25ab494bb847c4e5eb0c8894898c5343e6f61afc1292600655604051908152a1005b34610c43575f366003190112610c43576020601154604051908152f35b34610c43575f366003190112610c4357610eb16134bd565b15610daf57336001600160601b0360a01b60015416176001557f55489ce0259bd691120d8860861be1c401c7c16a3cd268d21045756af4ecc5ca6020604051338152a1005b34610c43576020366003190112610c4357600435610f126134bd565b15610daf576020817f333b26cca69716ad4680ddb07663f5bfb4f06045671f336af9a83690a3ae00f992600455604051908152a1005b34610c43575f366003190112610c43576020601f54604051908152f35b34610c43575f366003190112610c4357600b546040516001600160a01b039091168152602090f35b34610c43575f366003190112610c43576040517f00000000000000000000000000000000000000000000000000000000000000006001600160a01b03168152602090f35b34610c43575f366003190112610c4357604051637aaceb9560e01b81526020816004817f00000000000000000000000000000000000000000000000000000000000000006001600160a01b03165afa8015610c38575f90611042575b6040516001600160a01b039091168152602090f35b506020813d602011611074575b8161105c60209383612c67565b81010312610c435761106f602091612df1565b61102d565b3d915061104f565b34610c43575f366003190112610c4357602060405160018152f35b34610c43575f366003190112610c43576001546002546003546004546005546006546040516001600160a01b03958616968616959094169361111e939092906110e38461090581612d52565b60ff60085416956040519889988952602089015260408801526060870152608086015260a085015261010060c0850152610100840190612827565b90151560e08301520390f35b34610c43575f366003190112610c4357600f546040516001600160a01b039091168152602090f35b34610c43576020366003190112610c43576004356001600160401b038111610c435736602382011215610c435780600401359061118e82612c88565b9161119c6040519384612c67565b8083526024602084019160051b83010191368311610c4357602401905b8282106115da57604051628bec5760e51b81528490602081600481305afa908115610c38575f916115a0575b506001600160a01b0316330361158d5780519061120182612c88565b9161120f6040519384612c67565b80835261121e601f1991612c88565b0136602084013780519161123183612c88565b9261123f6040519485612c67565b80845261124e601f1991612c88565b013660208501376003546040516370a0823160e01b81523060048201526001600160a01b0390911690602081602481855afa908115610c38575f9161155b575b50611439575b505f5b82518110156113f05760249060206001600160a01b036112b78387613398565b5116604051938480926370a0823160e01b82523060048301525afa918215610c38575f926113bd575b50816112f1575b6001915001611297565b6001600160a01b036113038286613398565b5116916024611310612e05565b9360206001600160a01b03611325868a613398565b5116604051938480926370a0823160e01b82523060048301525afa918215610c38575f92611389575b509060019461135c926135c3565b828060a01b0361136c8387613398565b51166113788386613398565b526113838287613398565b526112e7565b91506020823d82116113b5575b816113a360209383612c67565b81010312610c4357905190600161134e565b3d9150611396565b9091506020813d82116113e8575b816113d860209383612c67565b81010312610c43575190856112e0565b3d91506113cb565b508261066f6113fe836133c0565b9161140881613403565b936040519485947f46b8771620f6acf56cb03d3e835ea8024c7dcbcf05fcc3f6ade9e19d1a3e212b5f80a383612c9f565b6001546040516330fe427560e21b815290608090829060049082906001600160a01b03165afa908115610c38575f916114ea575b50516040516370a0823160e01b815230600482015291906001600160a01b0316602083602481855afa918215610c38575f926114b4575b6114ae93506135c3565b83611294565b91506020833d6020116114e2575b816114cf60209383612c67565b81010312610c43576114ae9251916114a4565b3d91506114c2565b90506080813d608011611553575b8161150560809383612c67565b81010312610c43576040519061151a82612bf9565b8051906001600160a01b0382168203610c435760609183526020810151602084015260408101516040840152015160608201528561146d565b3d91506114f8565b90506020813d602011611585575b8161157660209383612c67565b81010312610c4357518561128e565b3d9150611569565b631184b31b60e21b5f523360045260245ffd5b90506020813d6020116115d2575b816115bb60209383612c67565b81010312610c43576115cc90612df1565b826111e5565b3d91506115ae565b602080916115e784612b71565b8152019101906111b9565b34610c43576040366003190112610c43576004356003811015610c435760209061161a612b5b565b604051908382019260f81b83526001600160601b03199060601b16602182015260158152611649603582612c67565b519020604051908152f35b34610c43576020366003190112610c43576004356116706134bd565b15610daf576020817ffbe2d5c01ea8ba5596d6c4e6c82c6d4a0a0ee1128689993a4a5ba0169273d69f92600555604051908152a1005b34610c43575f366003190112610c4357602061047e61328d565b34610c43575f366003190112610c43576040516361d027b360e01b81526020816004817f00000000000000000000000000000000000000000000000000000000000000006001600160a01b03165afa8015610c38575f90611042576040516001600160a01b039091168152602090f35b34610c43575f366003190112610c4357604051635b0f83f360e01b81526020816004817f00000000000000000000000000000000000000000000000000000000000000006001600160a01b03165afa8015610c38575f90611042576040516001600160a01b039091168152602090f35b34610c43576020366003190112610c43576004356001600160401b038111610c43576117d090369060040161284b565b6117d8612e95565b506117e1612ee1565b50600481106118ae5780600411610c435781356001600160e01b031916631652a23360e21b0361189f5781019060a08183036003190112610c435761182860048201612b71565b9161183560248301612b71565b9260648301356001600160401b038111610c435782600461185892860101612f6c565b6084840135946001600160401b038611610c435761188061066f9460046044988801016131ef565b6040519687969194910135916001600160a01b03908116911686612b85565b6342868c9b60e01b5f5260045ffd5b633e5431b160e21b5f5260045ffd5b34610c43575f366003190112610c435760208054604051908152f35b34610c43576020366003190112610c43575f54604051630ccc574960e41b815260048035926001600160a01b03169190602090829081855afa908115610c38575f916119cc575b50604051632474521560e21b815260048101919091523360248201529060209082908180604481015b03915afa908115610c38575f91611992575b501561197f5760205481101561197057601f55005b630f8943a560e11b5f5260045ffd5b630ea7d7ed60e21b5f523360045260245ffd5b90506020813d6020116119c4575b816119ad60209383612c67565b81010312610c43576119be90612e88565b8261195b565b3d91506119a0565b90506020813d6020116119f8575b816119e760209383612c67565b81010312610c435751611949611920565b3d91506119da565b34610c43576020366003190112610c43576004356001600160a01b03811690819003610c43575f54604051630ccc574960e41b81526001600160a01b0390911690602081600481855afa908115610c38575f91611ba1575b50604051632474521560e21b815260048101919091523360248201529060209082908180604481015b03915afa908115610c38575f91611b67575b501561197f576040516370a0823160e01b815230600482015290602082602481845afa918215610c38575f92611b31575b5060405163a9059cbb60e01b815233600482015260248101929092526020908290815f81604481015b03925af18015610c3857611afd57005b6020813d602011611b29575b81611b1660209383612c67565b81010312610c4357611b2790612e88565b005b3d9150611b09565b91506020823d602011611b5f575b81611b4c60209383612c67565b81010312610c4357905190611aed611ac4565b3d9150611b3f565b90506020813d602011611b99575b81611b8260209383612c67565b81010312610c4357611b9390612e88565b82611a93565b3d9150611b75565b90506020813d602011611bcd575b81611bbc60209383612c67565b81010312610c435751611a81611a58565b3d9150611baf565b34610c43575f366003190112610c43576020601054604051908152f35b34610c43575f366003190112610c43576001546040516001600160a01b039091168152602090f35b34610c43576020366003190112610c43576004356001600160401b038111610c4357611c4a90369060040161284b565b5f6080604051611c5981612bca565b8281528260208201528260408201528260608201520152611c78612e95565b50611c81612ee1565b50600481106118ae5780600411610c435781356001600160e01b03191663640fc23d60e11b0361189f5781018181039190610140600319840112610c4357611ccb60048301612b71565b60a0611cd960248501612b71565b946063190112610c4357604051611cef81612bca565b606484013581526084840135602082015260a4840135604082015260c4840135606082015260e484013560808201526101048401356001600160401b038111610c4357836004611d4192870101612f6c565b90610124850135956001600160401b038711610c4357611d6b61066f9560046044998901016131ef565b6040519788979195910135916001600160a01b03908116911687612ae2565b34610c43575f366003190112610c43576020600554604051908152f35b34610c43575f366003190112610c4357602060ff600854166040519015158152f35b34610c43576020366003190112610c43575f54604051630ccc574960e41b815260048035926001600160a01b03169190602090829081855afa908115610c38575f91611ea9575b50604051632474521560e21b815260048101919091523360248201529060209082908180604481015b03915afa908115610c38575f91611e6f575b501561197f57601f54811115611e6057602055005b6311a96e5960e21b5f5260045ffd5b90506020813d602011611ea1575b81611e8a60209383612c67565b81010312610c4357611e9b90612e88565b82611e4b565b3d9150611e7d565b90506020813d602011611ed5575b81611ec460209383612c67565b81010312610c435751611e39611e10565b3d9150611eb7565b34610c4357611eeb36612878565b604051631b93849b60e11b8152602081600481305afa908115610c38575f91612338575b50611f186134bd565b1561223b575b50611f298183613572565b6003546040516323b872dd60e01b602082015233602482015230604482015260648082018690528152611f6f916001600160a01b0316611f6a608483612c67565b613a1a565b611f77613601565b60115491621a5e0042018042116122275783111561221857611f9b9181019061363d565b90421015610da0575f611fcb915160405180938192631936244760e11b8352602060048401526024830190612827565b0381305afa908115610c38575f905f905f915f945f925f91612144575b50306001600160a01b03861603610d0957600b546001600160a01b0390811690831603610cfa57600354600c5460405163095ea7b360e01b81526001600160a01b039182166004820152602481018a905291602091839160449183915f91165af18015610c3857612100575b506060946120865f9260018060a01b03600c541695604051998a988997889663640fc23d60e11b885260048801612ae2565b03925af18015610c38576120e1575b50600354604080516001600160a01b039092168252602082019290925233917fcbaa1442ac205415c9d69643e7b60ec73d1de35dbc807c21ec288c70ddc4207b9190819081015b0390a2005b6120f99060603d606011610ca657610c978183612c67565b5050612095565b946020863d60201161213c575b8161211a60209383612c67565b81010312610c43576120865f92612132606098612e88565b5092505094612054565b3d915061210d565b955050505050503d805f833e61215a8183612c67565b810190808203906101408212610c435761217381612df1565b61217f60208301612df1565b9260a0604084015191605f190112610c43576040519261219e84612bca565b606081015184526080810151602085015260a0810151604085015260c0810151606085015260e081015160808501526101008101516001600160401b038111610c4357866121ed9183016136e5565b956101208201516001600160401b038111610c435761220c9201613966565b91939092949187611fe8565b63eb86c49b60e01b5f5260045ffd5b634e487b7160e01b5f52601160045260245ffd5b604051628bec5760e51b8152602081600481305afa908115610c38575f916122fe575b506001600160a01b03163314611f1e5760405163d25dd10160e01b815233600482015290602090829060249082906001600160a01b03165afa908115610c38575f916122c4575b50156122b15783611f1e565b638f7a567d60e01b5f523360045260245ffd5b90506020813d6020116122f6575b816122df60209383612c67565b81010312610c43576122f090612e88565b846122a5565b3d91506122d2565b90506020813d602011612330575b8161231960209383612c67565b81010312610c435761232a90612df1565b8561225e565b3d915061230c565b90506020813d60201161236a575b8161235360209383612c67565b81010312610c435761236490612df1565b84611f0f565b3d9150612346565b34610c43575f366003190112610c435760a060125460135460145460155490601654926040519485526020850152604084015260608301526080820152f35b34610c43575f366003190112610c435760206040516103848152f35b34610c43576123db36612878565b906123e46134bd565b15610daf5781610a246123f79383613572565b601154421015610da0575f61242991516040518093819263552d2e5960e01b8352602060048401526024830190612827565b0381305afa8015610c38575f905f905f915f945f926125bb575b50306001600160a01b03851603610d0957600b546001600160a01b0390811690821603610cfa5760208501518610610ceb57600e54600c5460405163095ea7b360e01b81526001600160a01b0391821660048201526024810186905291602091839160449183915f91165af18015610c385761257d575b505f6060946124eb60018060a01b03600c54169460405198899788968795631652a23360e21b875260048701612b85565b03925af18015610c385761255e575b5060035461251490829033906001600160a01b03166135c3565b600354604080516001600160a01b039092168252602082019290925233917fd5e872c5ecfb1bb8820b2e6a20e31b883682282da886621541f71e31ec11947e9190819081016120dc565b6125769060603d606011610ca657610c978183612c67565b50506124fa565b6020813d6020116125b3575b8161259660209383612c67565b81010312610c43576060946125ab5f92612e88565b5094506124ba565b3d9150612589565b9450505050503d805f833e6125d08183612c67565b81019060a081830312610c43576125e681612df1565b916125f360208301612df1565b9160408101519060608101516001600160401b038111610c4357836126199183016136e5565b9260808201516001600160401b038111610c43576126379201613966565b93929091939086612443565b34610c43575f366003190112610c4357602061265d612e05565b6040516001600160a01b039091168152f35b34610c43575f366003190112610c435761066f6040516126998161269281612d52565b0382612c67565b604051918291602083526020830190612827565b34610c43575f366003190112610c4357600b54600c5463abca0eab60e01b83526001600160a01b03918216600484015260a01c63ffffffff166024830152602090829060449082907f0000000000000000000000000000000000000000000000000000000000000000165afa908115610c38575f916127f5575b50600e546040516370a0823160e01b815230600482015290602090829060249082906001600160a01b03165afa908115610c38575f916127c3575b5081810291818304149015171561222757670de0b6b3a7640000900461278661343d565b620f4240820291808304620f424014901517156122275780156127af5760209104604051908152f35b634e487b7160e01b5f52601260045260245ffd5b90506020813d6020116127ed575b816127de60209383612c67565b81010312610c43575182612762565b3d91506127d1565b90506020813d60201161281f575b8161281060209383612c67565b81010312610c43575181612727565b3d9150612803565b805180835260209291819084018484015e5f828201840152601f01601f1916010190565b9181601f84011215610c43578235916001600160401b038311610c435760208381860195010111610c4357565b906040600319830112610c435760043591602435906001600160401b038211610c43576128a79160040161284b565b9091565b600411156128b557565b634e487b7160e01b5f52602160045260245ffd5b60809060018060a01b0381511683526020810151602084015260018060a01b03604082015116604084015260018060a01b03606082015116606084015201519060a06080820152815161291b816128ab565b60a082015260208201516001600160a01b031660c08201526040820151608060e08301526101009060609061295590610120850190612827565b930151151591015290565b9080602083519182815201916020808360051b8301019401925f915b83831061298b57505050505090565b9091929394602080600192601f19858203018652885190604080612a6f612a5f610160865160608752805160608801528881015160808801528481015160a088015260608101516129db816128ab565b60c08801528a8060a01b0360808201511660e08801528a8060a01b0360a0820151166101008801528a8060a01b0360c0820151166101208801528a8060a01b0360e082015116610140880152610100810151828801526101208101516101808801526101408101516101a088015201516101806101c08701526101e0860190612827565b8686015185820388870152612827565b9301519101529701930193019193929061297c565b612adf9160018060a01b038251168152602082015160208201526080612ace612abc604085015160a0604086015260a0850190612960565b60608501518482036060860152612960565b920151906080818403910152612827565b90565b949193612b4c93612adf979560809360018060a01b0316885260018060a01b03166020880152604087015280516060870152602081015182870152604081015160a0870152606081015160c0870152015160e08501526101406101008501526101408401906128c9565b91610120818403910152612a84565b602435906001600160a01b0382168203610c4357565b35906001600160a01b0382168203610c4357565b6001600160a01b03918216815291166020820152604081019190915260a060608201819052612adf939192612bbc918401906128c9565b916080818403910152612a84565b60a081019081106001600160401b03821117612be557604052565b634e487b7160e01b5f52604160045260245ffd5b608081019081106001600160401b03821117612be557604052565b61010081019081106001600160401b03821117612be557604052565b606081019081106001600160401b03821117612be557604052565b61018081019081106001600160401b03821117612be557604052565b90601f801991011681019081106001600160401b03821117612be557604052565b6001600160401b038111612be55760051b60200190565b604081016040825282518091526020606083019301905f5b818110612cfb575050506020818303910152602080835192838152019201905f5b818110612ce55750505090565b8251845260209384019390920191600101612cd8565b82516001600160a01b0316855260209485019490920191600101612cb7565b90600182811c92168015612d48575b6020831014612d3457565b634e487b7160e01b5f52602260045260245ffd5b91607f1691612d29565b6007545f9291612d6182612d1a565b8082529160018116908115612dd55750600114612d7c575050565b60075f9081529293509091907fa66cc928b5edb82af9bd49922954155ab7b0942694bea4ce44661d9a8736c6885b838310612dbb575060209250010190565b600181602092949394548385870101520191019190612daa565b9050602093945060ff929192191683830152151560051b010190565b51906001600160a01b0382168203610c4357565b604051628bec5760e51b81526020816004817f00000000000000000000000000000000000000000000000000000000000000006001600160a01b03165afa908115610c38575f91612e54575090565b90506020813d602011612e80575b81612e6f60209383612c67565b81010312610c4357612adf90612df1565b3d9150612e62565b51908115158203610c4357565b60405190612ea282612bca565b815f81525f60208201525f60408201525f6060820152608060405191612ec783612bf9565b5f83525f6020840152606060408401525f60608401520152565b60405190612eee82612bca565b60606080835f81525f602082015282604082015282808201520152565b6001600160401b038111612be557601f01601f191660200190565b81601f82011215610c4357803590612f3d82612f0b565b92612f4b6040519485612c67565b82845260208383010111610c4357815f926020809301838601378301015290565b919060a083820312610c4357604051612f8481612bca565b8093612f8f81612b71565b825260208101356020830152612fa760408201612b71565b6040830152612fb860608201612b71565b60608301526080810135906001600160401b038211610c43570191608083820312610c435760405192612fea84612bf9565b80356004811015610c4357845261300360208201612b71565b602085015260408101356001600160401b038111610c4357606092613029918301612f26565b60408501520135908115158203610c435760809160608401520152565b81601f82011215610c435780359061305d82612c88565b9261306b6040519485612c67565b82845260208085019360051b83010191818311610c435760208101935b83851061309757505050505090565b84356001600160401b038111610c435782016060818503601f190112610c4357604051916130c483612c30565b60208201356001600160401b038111610c435760209083010161018081870312610c4357604051906130f582612c4b565b80358252602081013560208301526040810135604083015260608101356004811015610c4357606083015261312c60808201612b71565b608083015261313d60a08201612b71565b60a083015261314e60c08201612b71565b60c083015261315f60e08201612b71565b60e0830152610100810135610100830152610120810135610120830152610140810135610140830152610160810135906001600160401b038211610c43576131a991889101612f26565b61016082015283526040820135926001600160401b038411610c43576060836131d9886020809881980101612f26565b8584015201356040820152815201940193613088565b919060a083820312610c43576040519061320882612bca565b819361321381612b71565b83526020810135602084015260408101356001600160401b038111610c43578261323e918301613046565b604084015260608101356001600160401b038111610c435782613262918301613046565b60608401526080810135916001600160401b038311610c43576080926132889201612f26565b910152565b6009546040516390d2083760e01b81525f60048201526001600160a01b039091169190602081602481865afa908115610c38575f91613366575b506024602082946040519283809263c661065760e01b8252600160048301525afa908115610c38575f9161332c575b506003546001600160a01b0390811691160361330f5750565b80919250156127af576ec097ce7bc90715b34b9f10000000000490565b90506020813d60201161335e575b8161334760209383612c67565b81010312610c435761335890612df1565b5f6132f6565b3d915061333a565b90506020813d602011613390575b8161338160209383612c67565b81010312610c4357515f6132c7565b3d9150613374565b80518210156133ac5760209160051b010190565b634e487b7160e01b5f52603260045260245ffd5b6040518091829160208251919201905f5b8181106133e15750505003902090565b82516001600160a01b03168452859450602093840193909201916001016133d1565b6040518091829160208251919201905f5b8181106134245750505003902090565b8251845285945060209384019390920191600101613414565b600954604051631c98d5a960e11b81525f60048201526001600160a01b039091169190602081602481865afa908115610c38575f9161336657506024602082946040519283809263c661065760e01b8252600160048301525afa908115610c38575f9161332c57506003546001600160a01b0390811691160361330f5750565b613529602060018060a01b035f541660405182810190600160f91b82526001600160601b03193060601b166021820152601581526134fc603582612c67565b519020604051632474521560e21b8152600481019190915233602482015292839190829081906044820190565b03915afa908115610c38575f9161353e575090565b90506020813d60201161356a575b8161355960209383612c67565b81010312610c4357612adf90612e88565b3d915061354c565b50158015806135b6575b6135a7578061359b575b61358c57565b63332863a960e11b5f5260045ffd5b5060ff60085416613586565b630cd0fdf960e01b5f5260045ffd5b5060ff600854161561357c565b60405163a9059cbb60e01b60208201526001600160a01b039290921660248301526044808301939093529181526135ff91611f6a606483612c67565b565b61360961328d565b601f54602054908210159182613632575b50501561362357565b638de5208960e01b5f5260045ffd5b111590505f8061361a565b602081830312610c43578035906001600160401b038211610c435701602081830312610c435760405191602083018381106001600160401b03821117612be55760405281356001600160401b038111610c435761369a9201612f26565b815290565b81601f82011215610c43578051906136b682612f0b565b926136c46040519485612c67565b82845260208383010111610c4357815f9260208093018386015e8301015290565b919060a083820312610c43576040516136fd81612bca565b809361370881612df1565b82526020810151602083015261372060408201612df1565b604083015261373160608201612df1565b60608301526080810151906001600160401b038211610c43570190608082840312610c43576040519261376384612bf9565b82516004811015610c4357845261377c60208401612df1565b60208501526040830151906001600160401b038211610c4357836137a96060926137b4946080970161369f565b604087015201612e88565b60608401520152565b81601f82011215610c43578051906137d482612c88565b926137e26040519485612c67565b82845260208085019360051b83010191818311610c435760208101935b83851061380e57505050505090565b84516001600160401b038111610c435782016060818503601f190112610c43576040519161383b83612c30565b60208201516001600160401b038111610c435760209083010161018081870312610c43576040519061386c82612c4b565b80518252602081015160208301526040810151604083015260608101516004811015610c435760608301526138a360808201612df1565b60808301526138b460a08201612df1565b60a08301526138c560c08201612df1565b60c08301526138d660e08201612df1565b60e0830152610100810151610100830152610120810151610120830152610140810151610140830152610160810151906001600160401b038211610c43576139209188910161369f565b61016082015283526040820151926001600160401b038411610c435760608361395088602080988198010161369f565b85840152015160408201528152019401936137ff565b919060a083820312610c43576040519061397f82612bca565b819361398a81612df1565b83526020810151602084015260408101516001600160401b038111610c4357826139b59183016137bd565b604084015260608101516001600160401b038111610c4357826139d99183016137bd565b60608401526080810151916001600160401b038311610c4357608092613288920161369f565b90816060910312610c43578051916040602083015192015190565b905f602091828151910182855af115610c38575f513d613a6957506001600160a01b0381163b155b613a495750565b635274afe760e01b5f9081526001600160a01b0391909116600452602490fd5b60011415613a4256fea264697066735822122061463a2a0dfa1d49f4d29361a09987595c2b76fc87c3a3934c9bb9f81c470d0064736f6c634300081b0033",
  "linkReferences": {},
  "deployedLinkReferences": {}
}