{
  "@summerfi/access-contracts/contracts/ProtocolAccessManaged.sol": {
    "ProtocolAccessManaged": {
      "abi": [
        {
          "inputs": [
            {
              "internalType": "address",
              "name": "accessManager",
              "type": "address"
            }
          ],
          "stateMutability": "nonpayable",
          "type": "constructor"
        },
        {
          "inputs": [
            {
              "internalType": "address",
              "name": "caller",
              "type": "address"
            }
          ],
          "name": "CallerIsNotAdmin",
          "type": "error"
        },
        {
          "inputs": [
            {
              "internalType": "address",
              "name": "caller",
              "type": "address"
            }
          ],
          "name": "CallerIsNotAuthorizedToBoard",
          "type": "error"
        },
        {
          "inputs": [
            {
              "internalType": "address",
              "name": "caller",
              "type": "address"
            }
          ],
          "name": "CallerIsNotCommander",
          "type": "error"
        },
        {
          "inputs": [
            {
              "internalType": "address",
              "name": "caller",
              "type": "address"
            },
            {
              "internalType": "bytes32",
              "name": "role",
              "type": "bytes32"
            }
          ],
          "name": "CallerIsNotContractSpecificRole",
          "type": "error"
        },
        {
          "inputs": [
            {
              "internalType": "address",
              "name": "caller",
              "type": "address"
            }
          ],
          "name": "CallerIsNotCurator",
          "type": "error"
        },
        {
          "inputs": [
            {
              "internalType": "address",
              "name": "caller",
              "type": "address"
            }
          ],
          "name": "CallerIsNotDecayController",
          "type": "error"
        },
        {
          "inputs": [
            {
              "internalType": "address",
              "name": "caller",
              "type": "address"
            }
          ],
          "name": "CallerIsNotFoundation",
          "type": "error"
        },
        {
          "inputs": [
            {
              "internalType": "address",
              "name": "caller",
              "type": "address"
            }
          ],
          "name": "CallerIsNotGovernor",
          "type": "error"
        },
        {
          "inputs": [
            {
              "internalType": "address",
              "name": "caller",
              "type": "address"
            }
          ],
          "name": "CallerIsNotGuardian",
          "type": "error"
        },
        {
          "inputs": [
            {
              "internalType": "address",
              "name": "caller",
              "type": "address"
            }
          ],
          "name": "CallerIsNotGuardianOrGovernor",
          "type": "error"
        },
        {
          "inputs": [
            {
              "internalType": "address",
              "name": "caller",
              "type": "address"
            }
          ],
          "name": "CallerIsNotKeeper",
          "type": "error"
        },
        {
          "inputs": [
            {
              "internalType": "address",
              "name": "caller",
              "type": "address"
            }
          ],
          "name": "CallerIsNotRaft",
          "type": "error"
        },
        {
          "inputs": [
            {
              "internalType": "address",
              "name": "caller",
              "type": "address"
            }
          ],
          "name": "CallerIsNotRaftOrCommander",
          "type": "error"
        },
        {
          "inputs": [
            {
              "internalType": "address",
              "name": "caller",
              "type": "address"
            }
          ],
          "name": "CallerIsNotSuperKeeper",
          "type": "error"
        },
        {
          "inputs": [
            {
              "internalType": "address",
              "name": "caller",
              "type": "address"
            }
          ],
          "name": "DirectGrantIsDisabled",
          "type": "error"
        },
        {
          "inputs": [
            {
              "internalType": "address",
              "name": "caller",
              "type": "address"
            }
          ],
          "name": "DirectRevokeIsDisabled",
          "type": "error"
        },
        {
          "inputs": [
            {
              "internalType": "address",
              "name": "invalidAddress",
              "type": "address"
            }
          ],
          "name": "InvalidAccessManagerAddress",
          "type": "error"
        },
        {
          "inputs": [],
          "name": "ADMIRALS_QUARTERS_ROLE",
          "outputs": [
            {
              "internalType": "bytes32",
              "name": "",
              "type": "bytes32"
            }
          ],
          "stateMutability": "view",
          "type": "function"
        },
        {
          "inputs": [],
          "name": "DECAY_CONTROLLER_ROLE",
          "outputs": [
            {
              "internalType": "bytes32",
              "name": "",
              "type": "bytes32"
            }
          ],
          "stateMutability": "view",
          "type": "function"
        },
        {
          "inputs": [],
          "name": "GOVERNOR_ROLE",
          "outputs": [
            {
              "internalType": "bytes32",
              "name": "",
              "type": "bytes32"
            }
          ],
          "stateMutability": "view",
          "type": "function"
        },
        {
          "inputs": [],
          "name": "GUARDIAN_ROLE",
          "outputs": [
            {
              "internalType": "bytes32",
              "name": "",
              "type": "bytes32"
            }
          ],
          "stateMutability": "view",
          "type": "function"
        },
        {
          "inputs": [],
          "name": "SUPER_KEEPER_ROLE",
          "outputs": [
            {
              "internalType": "bytes32",
              "name": "",
              "type": "bytes32"
            }
          ],
          "stateMutability": "view",
          "type": "function"
        },
        {
          "inputs": [
            {
              "internalType": "enum ContractSpecificRoles",
              "name": "roleName",
              "type": "uint8"
            },
            {
              "internalType": "address",
              "name": "roleTargetContract",
              "type": "address"
            }
          ],
          "name": "generateRole",
          "outputs": [
            {
              "internalType": "bytes32",
              "name": "",
              "type": "bytes32"
            }
          ],
          "stateMutability": "pure",
          "type": "function"
        },
        {
          "inputs": [
            {
              "internalType": "address",
              "name": "account",
              "type": "address"
            }
          ],
          "name": "hasAdmiralsQuartersRole",
          "outputs": [
            {
              "internalType": "bool",
              "name": "",
              "type": "bool"
            }
          ],
          "stateMutability": "view",
          "type": "function"
        }
      ],
      "evm": {
        "bytecode": {
          "linkReferences": {},
          "object": "60a080604052346100d857602081610499803803809161001f8285610102565b8339810103126100d857516001600160a01b038116908190036100d85780156100ef576040516301ffc9a760e01b815263261c910560e21b6004820152602081602481855afa9081156100e4575f916100a5575b50156100935760805260405161035f908161013a82396080518160d20152f35b6347bd7c1d60e01b5f5260045260245ffd5b90506020813d6020116100dc575b816100c060209383610102565b810103126100d8575180151581036100d8575f610073565b5f80fd5b3d91506100b3565b6040513d5f823e3d90fd5b6347bd7c1d60e01b5f525f60045260245ffd5b601f909101601f19168101906001600160401b0382119082101761012557604052565b634e487b7160e01b5f52604160045260245ffdfe6080806040526004361015610012575f80fd5b5f3560e01c90816324ea54f4146102bb5750806366e943f11461028157806369b3054b1461020f578063a89f38a3146101d5578063c0b534c21461019b578063ccc57490146101615763ebc136d014610069575f80fd5b3461014a57602036600319011261014a576004356001600160a01b0381169081900361014a57604051632474521560e21b81527fb00be3d6a5434b97b328543d1486d56adcb7e74080170d1cdd7e0306c3d9ba3d600482015260248101919091526020816044817f00000000000000000000000000000000000000000000000000000000000000006001600160a01b03165afa8015610156575f90610116575b6020906040519015158152f35b506020813d60201161014e575b81610130602093836102f3565b8101031261014a5751801515810361014a57602090610109565b5f80fd5b3d9150610123565b6040513d5f823e3d90fd5b3461014a575f36600319011261014a5760206040517f7935bd0ae54bc31f548c14dba4d37c5c64b3f8ca900cb468fb8abd54d5894f558152f35b3461014a575f36600319011261014a5760206040517f025d8bbf3268be680d2605ebf6da15063b9915615bf1087dab336efc1bf970cb8152f35b3461014a575f36600319011261014a5760206040517fb00be3d6a5434b97b328543d1486d56adcb7e74080170d1cdd7e0306c3d9ba3d8152f35b3461014a57604036600319011261014a57600435600381101561014a57602435906001600160a01b038216820361014a5760405160f89190911b602082810191825260609390931b6001600160601b031916602183015260158252906102766035826102f3565b519020604051908152f35b3461014a575f36600319011261014a5760206040517f0d186688925976bbe6755ae984501c8e3e2b103a7af59fd803ab9c6d891ae7e08152f35b3461014a575f36600319011261014a57807f55435dd261a4b9b3364963f7738a7a662ad9c84396d64be3365284bb7f0a504160209252f35b90601f8019910116810190811067ffffffffffffffff82111761031557604052565b634e487b7160e01b5f52604160045260245ffdfea26469706673582212201d7f27d83074e3299edad5535181da3d2d945c9f10d26de5bb4867e3fcb18ec264736f6c634300081c0033",
          "opcodes": "PUSH1 0xA0 DUP1 PUSH1 0x40 MSTORE CALLVALUE PUSH2 0xD8 JUMPI PUSH1 0x20 DUP2 PUSH2 0x499 DUP1 CODESIZE SUB DUP1 SWAP2 PUSH2 0x1F DUP3 DUP6 PUSH2 0x102 JUMP JUMPDEST DUP4 CODECOPY DUP2 ADD SUB SLT PUSH2 0xD8 JUMPI MLOAD PUSH1 0x1 PUSH1 0x1 PUSH1 0xA0 SHL SUB DUP2 AND SWAP1 DUP2 SWAP1 SUB PUSH2 0xD8 JUMPI DUP1 ISZERO PUSH2 0xEF JUMPI PUSH1 0x40 MLOAD PUSH4 0x1FFC9A7 PUSH1 0xE0 SHL DUP2 MSTORE PUSH4 0x261C9105 PUSH1 0xE2 SHL PUSH1 0x4 DUP3 ADD MSTORE PUSH1 0x20 DUP2 PUSH1 0x24 DUP2 DUP6 GAS STATICCALL SWAP1 DUP2 ISZERO PUSH2 0xE4 JUMPI PUSH0 SWAP2 PUSH2 0xA5 JUMPI JUMPDEST POP ISZERO PUSH2 0x93 JUMPI PUSH1 0x80 MSTORE PUSH1 0x40 MLOAD PUSH2 0x35F SWAP1 DUP2 PUSH2 0x13A DUP3 CODECOPY PUSH1 0x80 MLOAD DUP2 PUSH1 0xD2 ADD MSTORE RETURN JUMPDEST PUSH4 0x47BD7C1D PUSH1 0xE0 SHL PUSH0 MSTORE PUSH1 0x4 MSTORE PUSH1 0x24 PUSH0 REVERT JUMPDEST SWAP1 POP PUSH1 0x20 DUP2 RETURNDATASIZE PUSH1 0x20 GT PUSH2 0xDC JUMPI JUMPDEST DUP2 PUSH2 0xC0 PUSH1 0x20 SWAP4 DUP4 PUSH2 0x102 JUMP JUMPDEST DUP2 ADD SUB SLT PUSH2 0xD8 JUMPI MLOAD DUP1 ISZERO ISZERO DUP2 SUB PUSH2 0xD8 JUMPI PUSH0 PUSH2 0x73 JUMP JUMPDEST PUSH0 DUP1 REVERT JUMPDEST RETURNDATASIZE SWAP2 POP PUSH2 0xB3 JUMP JUMPDEST PUSH1 0x40 MLOAD RETURNDATASIZE PUSH0 DUP3 RETURNDATACOPY RETURNDATASIZE SWAP1 REVERT JUMPDEST PUSH4 0x47BD7C1D PUSH1 0xE0 SHL PUSH0 MSTORE PUSH0 PUSH1 0x4 MSTORE PUSH1 0x24 PUSH0 REVERT JUMPDEST PUSH1 0x1F SWAP1 SWAP2 ADD PUSH1 0x1F NOT AND DUP2 ADD SWAP1 PUSH1 0x1 PUSH1 0x1 PUSH1 0x40 SHL SUB DUP3 GT SWAP1 DUP3 LT OR PUSH2 0x125 JUMPI PUSH1 0x40 MSTORE JUMP JUMPDEST PUSH4 0x4E487B71 PUSH1 0xE0 SHL PUSH0 MSTORE PUSH1 0x41 PUSH1 0x4 MSTORE PUSH1 0x24 PUSH0 REVERT INVALID PUSH1 0x80 DUP1 PUSH1 0x40 MSTORE PUSH1 0x4 CALLDATASIZE LT ISZERO PUSH2 0x12 JUMPI PUSH0 DUP1 REVERT JUMPDEST PUSH0 CALLDATALOAD PUSH1 0xE0 SHR SWAP1 DUP2 PUSH4 0x24EA54F4 EQ PUSH2 0x2BB JUMPI POP DUP1 PUSH4 0x66E943F1 EQ PUSH2 0x281 JUMPI DUP1 PUSH4 0x69B3054B EQ PUSH2 0x20F JUMPI DUP1 PUSH4 0xA89F38A3 EQ PUSH2 0x1D5 JUMPI DUP1 PUSH4 0xC0B534C2 EQ PUSH2 0x19B JUMPI DUP1 PUSH4 0xCCC57490 EQ PUSH2 0x161 JUMPI PUSH4 0xEBC136D0 EQ PUSH2 0x69 JUMPI PUSH0 DUP1 REVERT JUMPDEST CALLVALUE PUSH2 0x14A JUMPI PUSH1 0x20 CALLDATASIZE PUSH1 0x3 NOT ADD SLT PUSH2 0x14A JUMPI PUSH1 0x4 CALLDATALOAD PUSH1 0x1 PUSH1 0x1 PUSH1 0xA0 SHL SUB DUP2 AND SWAP1 DUP2 SWAP1 SUB PUSH2 0x14A JUMPI PUSH1 0x40 MLOAD PUSH4 0x24745215 PUSH1 0xE2 SHL DUP2 MSTORE PUSH32 0xB00BE3D6A5434B97B328543D1486D56ADCB7E74080170D1CDD7E0306C3D9BA3D PUSH1 0x4 DUP3 ADD MSTORE PUSH1 0x24 DUP2 ADD SWAP2 SWAP1 SWAP2 MSTORE PUSH1 0x20 DUP2 PUSH1 0x44 DUP2 PUSH32 0x0 PUSH1 0x1 PUSH1 0x1 PUSH1 0xA0 SHL SUB AND GAS STATICCALL DUP1 ISZERO PUSH2 0x156 JUMPI PUSH0 SWAP1 PUSH2 0x116 JUMPI JUMPDEST PUSH1 0x20 SWAP1 PUSH1 0x40 MLOAD SWAP1 ISZERO ISZERO DUP2 MSTORE RETURN JUMPDEST POP PUSH1 0x20 DUP2 RETURNDATASIZE PUSH1 0x20 GT PUSH2 0x14E JUMPI JUMPDEST DUP2 PUSH2 0x130 PUSH1 0x20 SWAP4 DUP4 PUSH2 0x2F3 JUMP JUMPDEST DUP2 ADD SUB SLT PUSH2 0x14A JUMPI MLOAD DUP1 ISZERO ISZERO DUP2 SUB PUSH2 0x14A JUMPI PUSH1 0x20 SWAP1 PUSH2 0x109 JUMP JUMPDEST PUSH0 DUP1 REVERT JUMPDEST RETURNDATASIZE SWAP2 POP PUSH2 0x123 JUMP JUMPDEST PUSH1 0x40 MLOAD RETURNDATASIZE PUSH0 DUP3 RETURNDATACOPY RETURNDATASIZE SWAP1 REVERT JUMPDEST CALLVALUE PUSH2 0x14A JUMPI PUSH0 CALLDATASIZE PUSH1 0x3 NOT ADD SLT PUSH2 0x14A JUMPI PUSH1 0x20 PUSH1 0x40 MLOAD PUSH32 0x7935BD0AE54BC31F548C14DBA4D37C5C64B3F8CA900CB468FB8ABD54D5894F55 DUP2 MSTORE RETURN JUMPDEST CALLVALUE PUSH2 0x14A JUMPI PUSH0 CALLDATASIZE PUSH1 0x3 NOT ADD SLT PUSH2 0x14A JUMPI PUSH1 0x20 PUSH1 0x40 MLOAD PUSH32 0x25D8BBF3268BE680D2605EBF6DA15063B9915615BF1087DAB336EFC1BF970CB DUP2 MSTORE RETURN JUMPDEST CALLVALUE PUSH2 0x14A JUMPI PUSH0 CALLDATASIZE PUSH1 0x3 NOT ADD SLT PUSH2 0x14A JUMPI PUSH1 0x20 PUSH1 0x40 MLOAD PUSH32 0xB00BE3D6A5434B97B328543D1486D56ADCB7E74080170D1CDD7E0306C3D9BA3D DUP2 MSTORE RETURN JUMPDEST CALLVALUE PUSH2 0x14A JUMPI PUSH1 0x40 CALLDATASIZE PUSH1 0x3 NOT ADD SLT PUSH2 0x14A JUMPI PUSH1 0x4 CALLDATALOAD PUSH1 0x3 DUP2 LT ISZERO PUSH2 0x14A JUMPI PUSH1 0x24 CALLDATALOAD SWAP1 PUSH1 0x1 PUSH1 0x1 PUSH1 0xA0 SHL SUB DUP3 AND DUP3 SUB PUSH2 0x14A JUMPI PUSH1 0x40 MLOAD PUSH1 0xF8 SWAP2 SWAP1 SWAP2 SHL PUSH1 0x20 DUP3 DUP2 ADD SWAP2 DUP3 MSTORE PUSH1 0x60 SWAP4 SWAP1 SWAP4 SHL PUSH1 0x1 PUSH1 0x1 PUSH1 0x60 SHL SUB NOT AND PUSH1 0x21 DUP4 ADD MSTORE PUSH1 0x15 DUP3 MSTORE SWAP1 PUSH2 0x276 PUSH1 0x35 DUP3 PUSH2 0x2F3 JUMP JUMPDEST MLOAD SWAP1 KECCAK256 PUSH1 0x40 MLOAD SWAP1 DUP2 MSTORE RETURN JUMPDEST CALLVALUE PUSH2 0x14A JUMPI PUSH0 CALLDATASIZE PUSH1 0x3 NOT ADD SLT PUSH2 0x14A JUMPI PUSH1 0x20 PUSH1 0x40 MLOAD PUSH32 0xD186688925976BBE6755AE984501C8E3E2B103A7AF59FD803AB9C6D891AE7E0 DUP2 MSTORE RETURN JUMPDEST CALLVALUE PUSH2 0x14A JUMPI PUSH0 CALLDATASIZE PUSH1 0x3 NOT ADD SLT PUSH2 0x14A JUMPI DUP1 PUSH32 0x55435DD261A4B9B3364963F7738A7A662AD9C84396D64BE3365284BB7F0A5041 PUSH1 0x20 SWAP3 MSTORE RETURN JUMPDEST SWAP1 PUSH1 0x1F DUP1 NOT SWAP2 ADD AND DUP2 ADD SWAP1 DUP2 LT PUSH8 0xFFFFFFFFFFFFFFFF DUP3 GT OR PUSH2 0x315 JUMPI PUSH1 0x40 MSTORE JUMP JUMPDEST PUSH4 0x4E487B71 PUSH1 0xE0 SHL PUSH0 MSTORE PUSH1 0x41 PUSH1 0x4 MSTORE PUSH1 0x24 PUSH0 REVERT INVALID LOG2 PUSH5 0x6970667358 0x22 SLT KECCAK256 SAR PUSH32 0x27D83074E3299EDAD5535181DA3D2D945C9F10D26DE5BB4867E3FCB18EC26473 PUSH16 0x6C634300081C00330000000000000000 "
        },
        "methodIdentifiers": {
          "ADMIRALS_QUARTERS_ROLE()": "a89f38a3",
          "DECAY_CONTROLLER_ROLE()": "c0b534c2",
          "GOVERNOR_ROLE()": "ccc57490",
          "GUARDIAN_ROLE()": "24ea54f4",
          "SUPER_KEEPER_ROLE()": "66e943f1",
          "generateRole(uint8,address)": "69b3054b",
          "hasAdmiralsQuartersRole(address)": "ebc136d0"
        }
      }
    }
  }
}