{
  "@summerfi/access-contracts/contracts/ProtocolAccessManager.sol": {
    "ProtocolAccessManager": {
      "abi": [
        {
          "inputs": [
            {
              "internalType": "address",
              "name": "governor",
              "type": "address"
            }
          ],
          "stateMutability": "nonpayable",
          "type": "constructor"
        },
        {
          "inputs": [],
          "name": "AccessControlBadConfirmation",
          "type": "error"
        },
        {
          "inputs": [
            {
              "internalType": "address",
              "name": "account",
              "type": "address"
            },
            {
              "internalType": "bytes32",
              "name": "neededRole",
              "type": "bytes32"
            }
          ],
          "name": "AccessControlUnauthorizedAccount",
          "type": "error"
        },
        {
          "inputs": [
            {
              "internalType": "address",
              "name": "caller",
              "type": "address"
            }
          ],
          "name": "CallerIsNotAdmin",
          "type": "error"
        },
        {
          "inputs": [
            {
              "internalType": "address",
              "name": "caller",
              "type": "address"
            }
          ],
          "name": "CallerIsNotAuthorizedToBoard",
          "type": "error"
        },
        {
          "inputs": [
            {
              "internalType": "address",
              "name": "caller",
              "type": "address"
            }
          ],
          "name": "CallerIsNotCommander",
          "type": "error"
        },
        {
          "inputs": [
            {
              "internalType": "address",
              "name": "caller",
              "type": "address"
            },
            {
              "internalType": "bytes32",
              "name": "role",
              "type": "bytes32"
            }
          ],
          "name": "CallerIsNotContractSpecificRole",
          "type": "error"
        },
        {
          "inputs": [
            {
              "internalType": "address",
              "name": "caller",
              "type": "address"
            }
          ],
          "name": "CallerIsNotCurator",
          "type": "error"
        },
        {
          "inputs": [
            {
              "internalType": "address",
              "name": "caller",
              "type": "address"
            }
          ],
          "name": "CallerIsNotDecayController",
          "type": "error"
        },
        {
          "inputs": [
            {
              "internalType": "address",
              "name": "caller",
              "type": "address"
            }
          ],
          "name": "CallerIsNotFoundation",
          "type": "error"
        },
        {
          "inputs": [
            {
              "internalType": "address",
              "name": "caller",
              "type": "address"
            }
          ],
          "name": "CallerIsNotGovernor",
          "type": "error"
        },
        {
          "inputs": [
            {
              "internalType": "address",
              "name": "caller",
              "type": "address"
            }
          ],
          "name": "CallerIsNotGuardian",
          "type": "error"
        },
        {
          "inputs": [
            {
              "internalType": "address",
              "name": "caller",
              "type": "address"
            }
          ],
          "name": "CallerIsNotGuardianOrGovernor",
          "type": "error"
        },
        {
          "inputs": [
            {
              "internalType": "address",
              "name": "caller",
              "type": "address"
            }
          ],
          "name": "CallerIsNotKeeper",
          "type": "error"
        },
        {
          "inputs": [
            {
              "internalType": "address",
              "name": "caller",
              "type": "address"
            }
          ],
          "name": "CallerIsNotRaft",
          "type": "error"
        },
        {
          "inputs": [
            {
              "internalType": "address",
              "name": "caller",
              "type": "address"
            }
          ],
          "name": "CallerIsNotRaftOrCommander",
          "type": "error"
        },
        {
          "inputs": [
            {
              "internalType": "address",
              "name": "caller",
              "type": "address"
            }
          ],
          "name": "CallerIsNotSuperKeeper",
          "type": "error"
        },
        {
          "inputs": [
            {
              "internalType": "address",
              "name": "caller",
              "type": "address"
            }
          ],
          "name": "DirectGrantIsDisabled",
          "type": "error"
        },
        {
          "inputs": [
            {
              "internalType": "address",
              "name": "caller",
              "type": "address"
            }
          ],
          "name": "DirectRevokeIsDisabled",
          "type": "error"
        },
        {
          "inputs": [
            {
              "internalType": "address",
              "name": "invalidAddress",
              "type": "address"
            }
          ],
          "name": "InvalidAccessManagerAddress",
          "type": "error"
        },
        {
          "inputs": [
            {
              "internalType": "uint256",
              "name": "expiryPeriod",
              "type": "uint256"
            },
            {
              "internalType": "uint256",
              "name": "minExpiryPeriod",
              "type": "uint256"
            },
            {
              "internalType": "uint256",
              "name": "maxExpiryPeriod",
              "type": "uint256"
            }
          ],
          "name": "InvalidGuardianExpiryPeriod",
          "type": "error"
        },
        {
          "anonymous": false,
          "inputs": [
            {
              "indexed": true,
              "internalType": "address",
              "name": "account",
              "type": "address"
            },
            {
              "indexed": false,
              "internalType": "uint256",
              "name": "expiration",
              "type": "uint256"
            }
          ],
          "name": "GuardianExpirationSet",
          "type": "event"
        },
        {
          "anonymous": false,
          "inputs": [
            {
              "indexed": true,
              "internalType": "bytes32",
              "name": "role",
              "type": "bytes32"
            },
            {
              "indexed": true,
              "internalType": "bytes32",
              "name": "previousAdminRole",
              "type": "bytes32"
            },
            {
              "indexed": true,
              "internalType": "bytes32",
              "name": "newAdminRole",
              "type": "bytes32"
            }
          ],
          "name": "RoleAdminChanged",
          "type": "event"
        },
        {
          "anonymous": false,
          "inputs": [
            {
              "indexed": true,
              "internalType": "bytes32",
              "name": "role",
              "type": "bytes32"
            },
            {
              "indexed": true,
              "internalType": "address",
              "name": "account",
              "type": "address"
            },
            {
              "indexed": true,
              "internalType": "address",
              "name": "sender",
              "type": "address"
            }
          ],
          "name": "RoleGranted",
          "type": "event"
        },
        {
          "anonymous": false,
          "inputs": [
            {
              "indexed": true,
              "internalType": "bytes32",
              "name": "role",
              "type": "bytes32"
            },
            {
              "indexed": true,
              "internalType": "address",
              "name": "account",
              "type": "address"
            },
            {
              "indexed": true,
              "internalType": "address",
              "name": "sender",
              "type": "address"
            }
          ],
          "name": "RoleRevoked",
          "type": "event"
        },
        {
          "inputs": [],
          "name": "ADMIRALS_QUARTERS_ROLE",
          "outputs": [
            {
              "internalType": "bytes32",
              "name": "",
              "type": "bytes32"
            }
          ],
          "stateMutability": "view",
          "type": "function"
        },
        {
          "inputs": [],
          "name": "DECAY_CONTROLLER_ROLE",
          "outputs": [
            {
              "internalType": "bytes32",
              "name": "",
              "type": "bytes32"
            }
          ],
          "stateMutability": "view",
          "type": "function"
        },
        {
          "inputs": [],
          "name": "DEFAULT_ADMIN_ROLE",
          "outputs": [
            {
              "internalType": "bytes32",
              "name": "",
              "type": "bytes32"
            }
          ],
          "stateMutability": "view",
          "type": "function"
        },
        {
          "inputs": [],
          "name": "FOUNDATION_ROLE",
          "outputs": [
            {
              "internalType": "bytes32",
              "name": "",
              "type": "bytes32"
            }
          ],
          "stateMutability": "view",
          "type": "function"
        },
        {
          "inputs": [],
          "name": "GOVERNOR_ROLE",
          "outputs": [
            {
              "internalType": "bytes32",
              "name": "",
              "type": "bytes32"
            }
          ],
          "stateMutability": "view",
          "type": "function"
        },
        {
          "inputs": [],
          "name": "GUARDIAN_ROLE",
          "outputs": [
            {
              "internalType": "bytes32",
              "name": "",
              "type": "bytes32"
            }
          ],
          "stateMutability": "view",
          "type": "function"
        },
        {
          "inputs": [],
          "name": "MAX_GUARDIAN_EXPIRY",
          "outputs": [
            {
              "internalType": "uint256",
              "name": "",
              "type": "uint256"
            }
          ],
          "stateMutability": "view",
          "type": "function"
        },
        {
          "inputs": [],
          "name": "MIN_GUARDIAN_EXPIRY",
          "outputs": [
            {
              "internalType": "uint256",
              "name": "",
              "type": "uint256"
            }
          ],
          "stateMutability": "view",
          "type": "function"
        },
        {
          "inputs": [],
          "name": "SUPER_KEEPER_ROLE",
          "outputs": [
            {
              "internalType": "bytes32",
              "name": "",
              "type": "bytes32"
            }
          ],
          "stateMutability": "view",
          "type": "function"
        },
        {
          "inputs": [
            {
              "internalType": "enum ContractSpecificRoles",
              "name": "roleName",
              "type": "uint8"
            },
            {
              "internalType": "address",
              "name": "roleTargetContract",
              "type": "address"
            }
          ],
          "name": "generateRole",
          "outputs": [
            {
              "internalType": "bytes32",
              "name": "",
              "type": "bytes32"
            }
          ],
          "stateMutability": "pure",
          "type": "function"
        },
        {
          "inputs": [
            {
              "internalType": "address",
              "name": "account",
              "type": "address"
            }
          ],
          "name": "getGuardianExpiration",
          "outputs": [
            {
              "internalType": "uint256",
              "name": "expiration",
              "type": "uint256"
            }
          ],
          "stateMutability": "view",
          "type": "function"
        },
        {
          "inputs": [
            {
              "internalType": "bytes32",
              "name": "role",
              "type": "bytes32"
            }
          ],
          "name": "getRoleAdmin",
          "outputs": [
            {
              "internalType": "bytes32",
              "name": "",
              "type": "bytes32"
            }
          ],
          "stateMutability": "view",
          "type": "function"
        },
        {
          "inputs": [
            {
              "internalType": "address",
              "name": "account",
              "type": "address"
            }
          ],
          "name": "grantAdmiralsQuartersRole",
          "outputs": [],
          "stateMutability": "nonpayable",
          "type": "function"
        },
        {
          "inputs": [
            {
              "internalType": "address",
              "name": "arkAddress",
              "type": "address"
            },
            {
              "internalType": "address",
              "name": "account",
              "type": "address"
            }
          ],
          "name": "grantCommanderRole",
          "outputs": [],
          "stateMutability": "nonpayable",
          "type": "function"
        },
        {
          "inputs": [
            {
              "internalType": "enum ContractSpecificRoles",
              "name": "roleName",
              "type": "uint8"
            },
            {
              "internalType": "address",
              "name": "roleTargetContract",
              "type": "address"
            },
            {
              "internalType": "address",
              "name": "roleOwner",
              "type": "address"
            }
          ],
          "name": "grantContractSpecificRole",
          "outputs": [],
          "stateMutability": "nonpayable",
          "type": "function"
        },
        {
          "inputs": [
            {
              "internalType": "address",
              "name": "fleetCommanderAddress",
              "type": "address"
            },
            {
              "internalType": "address",
              "name": "account",
              "type": "address"
            }
          ],
          "name": "grantCuratorRole",
          "outputs": [],
          "stateMutability": "nonpayable",
          "type": "function"
        },
        {
          "inputs": [
            {
              "internalType": "address",
              "name": "account",
              "type": "address"
            }
          ],
          "name": "grantDecayControllerRole",
          "outputs": [],
          "stateMutability": "nonpayable",
          "type": "function"
        },
        {
          "inputs": [
            {
              "internalType": "address",
              "name": "account",
              "type": "address"
            }
          ],
          "name": "grantFoundationRole",
          "outputs": [],
          "stateMutability": "nonpayable",
          "type": "function"
        },
        {
          "inputs": [
            {
              "internalType": "address",
              "name": "account",
              "type": "address"
            }
          ],
          "name": "grantGovernorRole",
          "outputs": [],
          "stateMutability": "nonpayable",
          "type": "function"
        },
        {
          "inputs": [
            {
              "internalType": "address",
              "name": "account",
              "type": "address"
            }
          ],
          "name": "grantGuardianRole",
          "outputs": [],
          "stateMutability": "nonpayable",
          "type": "function"
        },
        {
          "inputs": [
            {
              "internalType": "address",
              "name": "fleetCommanderAddress",
              "type": "address"
            },
            {
              "internalType": "address",
              "name": "account",
              "type": "address"
            }
          ],
          "name": "grantKeeperRole",
          "outputs": [],
          "stateMutability": "nonpayable",
          "type": "function"
        },
        {
          "inputs": [
            {
              "internalType": "bytes32",
              "name": "",
              "type": "bytes32"
            },
            {
              "internalType": "address",
              "name": "",
              "type": "address"
            }
          ],
          "name": "grantRole",
          "outputs": [],
          "stateMutability": "view",
          "type": "function"
        },
        {
          "inputs": [
            {
              "internalType": "address",
              "name": "account",
              "type": "address"
            }
          ],
          "name": "grantSuperKeeperRole",
          "outputs": [],
          "stateMutability": "nonpayable",
          "type": "function"
        },
        {
          "inputs": [
            {
              "internalType": "address",
              "name": "guardian",
              "type": "address"
            }
          ],
          "name": "guardianExpirations",
          "outputs": [
            {
              "internalType": "uint256",
              "name": "expirationTimestamp",
              "type": "uint256"
            }
          ],
          "stateMutability": "view",
          "type": "function"
        },
        {
          "inputs": [
            {
              "internalType": "bytes32",
              "name": "role",
              "type": "bytes32"
            },
            {
              "internalType": "address",
              "name": "account",
              "type": "address"
            }
          ],
          "name": "hasRole",
          "outputs": [
            {
              "internalType": "bool",
              "name": "",
              "type": "bool"
            }
          ],
          "stateMutability": "view",
          "type": "function"
        },
        {
          "inputs": [
            {
              "internalType": "address",
              "name": "account",
              "type": "address"
            }
          ],
          "name": "isActiveGuardian",
          "outputs": [
            {
              "internalType": "bool",
              "name": "",
              "type": "bool"
            }
          ],
          "stateMutability": "view",
          "type": "function"
        },
        {
          "inputs": [
            {
              "internalType": "bytes32",
              "name": "role",
              "type": "bytes32"
            },
            {
              "internalType": "address",
              "name": "callerConfirmation",
              "type": "address"
            }
          ],
          "name": "renounceRole",
          "outputs": [],
          "stateMutability": "nonpayable",
          "type": "function"
        },
        {
          "inputs": [
            {
              "internalType": "address",
              "name": "account",
              "type": "address"
            }
          ],
          "name": "revokeAdmiralsQuartersRole",
          "outputs": [],
          "stateMutability": "nonpayable",
          "type": "function"
        },
        {
          "inputs": [
            {
              "internalType": "address",
              "name": "arkAddress",
              "type": "address"
            },
            {
              "internalType": "address",
              "name": "account",
              "type": "address"
            }
          ],
          "name": "revokeCommanderRole",
          "outputs": [],
          "stateMutability": "nonpayable",
          "type": "function"
        },
        {
          "inputs": [
            {
              "internalType": "enum ContractSpecificRoles",
              "name": "roleName",
              "type": "uint8"
            },
            {
              "internalType": "address",
              "name": "roleTargetContract",
              "type": "address"
            },
            {
              "internalType": "address",
              "name": "roleOwner",
              "type": "address"
            }
          ],
          "name": "revokeContractSpecificRole",
          "outputs": [],
          "stateMutability": "nonpayable",
          "type": "function"
        },
        {
          "inputs": [
            {
              "internalType": "address",
              "name": "fleetCommanderAddress",
              "type": "address"
            },
            {
              "internalType": "address",
              "name": "account",
              "type": "address"
            }
          ],
          "name": "revokeCuratorRole",
          "outputs": [],
          "stateMutability": "nonpayable",
          "type": "function"
        },
        {
          "inputs": [
            {
              "internalType": "address",
              "name": "account",
              "type": "address"
            }
          ],
          "name": "revokeDecayControllerRole",
          "outputs": [],
          "stateMutability": "nonpayable",
          "type": "function"
        },
        {
          "inputs": [
            {
              "internalType": "address",
              "name": "account",
              "type": "address"
            }
          ],
          "name": "revokeFoundationRole",
          "outputs": [],
          "stateMutability": "nonpayable",
          "type": "function"
        },
        {
          "inputs": [
            {
              "internalType": "address",
              "name": "account",
              "type": "address"
            }
          ],
          "name": "revokeGovernorRole",
          "outputs": [],
          "stateMutability": "nonpayable",
          "type": "function"
        },
        {
          "inputs": [
            {
              "internalType": "address",
              "name": "account",
              "type": "address"
            }
          ],
          "name": "revokeGuardianRole",
          "outputs": [],
          "stateMutability": "nonpayable",
          "type": "function"
        },
        {
          "inputs": [
            {
              "internalType": "address",
              "name": "fleetCommanderAddress",
              "type": "address"
            },
            {
              "internalType": "address",
              "name": "account",
              "type": "address"
            }
          ],
          "name": "revokeKeeperRole",
          "outputs": [],
          "stateMutability": "nonpayable",
          "type": "function"
        },
        {
          "inputs": [
            {
              "internalType": "bytes32",
              "name": "",
              "type": "bytes32"
            },
            {
              "internalType": "address",
              "name": "",
              "type": "address"
            }
          ],
          "name": "revokeRole",
          "outputs": [],
          "stateMutability": "view",
          "type": "function"
        },
        {
          "inputs": [
            {
              "internalType": "address",
              "name": "account",
              "type": "address"
            }
          ],
          "name": "revokeSuperKeeperRole",
          "outputs": [],
          "stateMutability": "nonpayable",
          "type": "function"
        },
        {
          "inputs": [
            {
              "internalType": "enum ContractSpecificRoles",
              "name": "roleName",
              "type": "uint8"
            },
            {
              "internalType": "address",
              "name": "roleTargetContract",
              "type": "address"
            }
          ],
          "name": "selfRevokeContractSpecificRole",
          "outputs": [],
          "stateMutability": "nonpayable",
          "type": "function"
        },
        {
          "inputs": [
            {
              "internalType": "address",
              "name": "account",
              "type": "address"
            },
            {
              "internalType": "uint256",
              "name": "expiration",
              "type": "uint256"
            }
          ],
          "name": "setGuardianExpiration",
          "outputs": [],
          "stateMutability": "nonpayable",
          "type": "function"
        },
        {
          "inputs": [
            {
              "internalType": "bytes4",
              "name": "interfaceId",
              "type": "bytes4"
            }
          ],
          "name": "supportsInterface",
          "outputs": [
            {
              "internalType": "bool",
              "name": "",
              "type": "bool"
            }
          ],
          "stateMutability": "view",
          "type": "function"
        }
      ],
      "evm": {
        "bytecode": {
          "linkReferences": {},
          "object": "60803461006857601f6119d138819003918201601f19168301916001600160401b0383118484101761006c5780849260209460405283398101031261006857516001600160a01b03811681036100685761005890610080565b50604051611885908161012c8239f35b5f80fd5b634e487b7160e01b5f52604160045260245ffd5b6001600160a01b0381165f9081525f5160206119b15f395f51905f52602052604090205460ff16610126576001600160a01b03165f8181525f5160206119b15f395f51905f5260205260408120805460ff191660011790553391907f7935bd0ae54bc31f548c14dba4d37c5c64b3f8ca900cb468fb8abd54d5894f55907f2f8788117e7eff1d82e926ec794901d17c78024a50270940304540a733656f0d9080a4600190565b505f9056fe6080806040526004361015610012575f80fd5b5f3560e01c90816301ffc9a714610d1a57508063067757ba14610cfd57806310e7b48914610cb85780631981b9a714610c455780631bacdb3414610c005780631deb14aa14610bbb578063248a9ca314610b8f57806324ea54f414610b685780632608871714610b3f578063262a7f7714610b075780632a25d14214610ac55780632da5172214610a805780632f2ff15d14610a5357806336568abe14610a0f5780634b4b5389146109ca5780634cfa61071461095757806353b53813146108e457806366e943f1146108bd57806366ebbf741461084a57806369b3054b1461082f5780636fd6313f146107ea5780637820bd84146107a55780637adac90d14610763578063851ecbfd1461073a57806391d14854146106f2578063a217fddf146106d8578063a89f38a3146106b1578063aef7c5df1461064e578063c0b534c214610627578063ccc5749014610600578063d547741f146105d3578063d55dd62b1461057c578063d6d5f76f1461055f578063daa2f2311461051a578063e4dd1dca146104d5578063e66fd9ef146104ae578063e929666514610436578063e9eea177146103be578063f5d4b6de146102ae578063f99ab9f81461023d5763fb914c39146101df575f80fd5b34610239576020366003190112610239576101f8610d87565b335f9081525f5160206116d05f395f51905f52602052604090205460ff1615610226576102249061155b565b005b630ea7d7ed60e21b5f523360045260245ffd5b5f80fd5b3461023957602036600319011261023957610256610d87565b6001600160a01b0381165f9081525f5160206116b05f395f51905f52602052604090205460ff1680610290575b6020906040519015158152f35b5060018060a01b03165f526001602052602060405f20544210610283565b34610239576040366003190112610239576102c7610d87565b602435906102d3611646565b6001600160a01b0381165f9081525f5160206116b05f395f51905f52602052604090205460ff161561039e5742820382811161038a5762093a808110801561037e575b61035e575060207f194cd3ab6c19dd0ee216a744746f9583ff333b3589faad327e6b1317c9444aec9160018060a01b031692835f52600182528060405f2055604051908152a2005b6383bcaea160e01b5f5260045262093a8060245262ed4e0060445260645ffd5b5062ed4e008111610316565b634e487b7160e01b5f52601160045260245ffd5b635560e16d60e01b5f9081526001600160a01b0391909116600452602490fd5b34610239576040366003190112610239576103d7610d87565b6103df610d9d565b335f9081525f5160206116d05f395f51905f52602052604090205460ff161561022657335f9081525f5160206116d05f395f51905f52602052604090205460ff16156102265761043161022492610ec7565b611270565b346102395760403660031901126102395761044f610d87565b610457610d9d565b335f9081525f5160206116d05f395f51905f52602052604090205460ff161561022657335f9081525f5160206116d05f395f51905f52602052604090205460ff1615610226576104a961022492610ec7565b6115d9565b34610239575f3660031901126102395760206040515f5160206116f05f395f51905f528152f35b34610239576020366003190112610239576104ee610d87565b335f9081525f5160206116d05f395f51905f52602052604090205460ff161561022657610224906111f0565b3461023957602036600319011261023957610533610d87565b335f9081525f5160206116d05f395f51905f52602052604090205460ff16156102265761022490611170565b34610239575f36600319011261023957602060405162093a808152f35b346102395761059361058d36610df6565b90610f0a565b5f8181526020818152604080832033845290915290205460ff16156105bd576102249033906115d9565b633f904edb60e11b5f523360045260245260445ffd5b34610239576040366003190112610239576105ec610d9d565b50636344978560e11b5f523360045260245ffd5b34610239575f3660031901126102395760206040515f5160206117705f395f51905f528152f35b34610239575f3660031901126102395760206040515f5160206117905f395f51905f528152f35b3461023957602036600319011261023957610667610d87565b6001600160a01b0381165f9081525f5160206116b05f395f51905f52602052604090205460ff161561039e5760018060a01b03165f526001602052602060405f2054604051908152f35b34610239575f3660031901126102395760206040515f5160206117105f395f51905f528152f35b34610239575f3660031901126102395760206040515f8152f35b346102395760403660031901126102395761070b610d9d565b6004355f525f60205260405f209060018060a01b03165f52602052602060ff60405f2054166040519015158152f35b3461023957602036600319011261023957610224610756610d87565b61075e611646565b6110f0565b346102395761077136610db3565b335f9081525f5160206116d05f395f51905f5260205260409020549192909160ff161561022657610224926104a991610f0a565b34610239576020366003190112610239576107be610d87565b335f9081525f5160206116d05f395f51905f52602052604090205460ff161561022657610224906114dd565b3461023957602036600319011261023957610803610d87565b335f9081525f5160206116d05f395f51905f52602052604090205460ff1615610226576102249061145f565b3461023957602061084261058d36610df6565b604051908152f35b3461023957604036600319011261023957610863610d87565b61086b610d9d565b335f9081525f5160206116d05f395f51905f52602052604090205460ff161561022657335f9081525f5160206116d05f395f51905f52602052604090205460ff16156102265761043161022492610e80565b34610239575f3660031901126102395760206040515f5160206117d05f395f51905f528152f35b34610239576040366003190112610239576108fd610d87565b610905610d9d565b335f9081525f5160206116d05f395f51905f52602052604090205460ff161561022657335f9081525f5160206116d05f395f51905f52602052604090205460ff1615610226576104a961022492610e25565b3461023957604036600319011261023957610970610d87565b610978610d9d565b335f9081525f5160206116d05f395f51905f52602052604090205460ff161561022657335f9081525f5160206116d05f395f51905f52602052604090205460ff1615610226576104a961022492610e80565b34610239576020366003190112610239576109e3610d87565b335f9081525f5160206116d05f395f51905f52602052604090205460ff161561022657610224906113e1565b3461023957604036600319011261023957610a28610d9d565b336001600160a01b03821603610a4457610224906004356115d9565b63334bd91960e11b5f5260045ffd5b3461023957604036600319011261023957610a6c610d9d565b50630e15200f60e21b5f523360045260245ffd5b3461023957602036600319011261023957610a99610d87565b335f9081525f5160206116d05f395f51905f52602052604090205460ff16156102265761022490611070565b3461023957610ad336610db3565b335f9081525f5160206116d05f395f51905f5260205260409020549192909160ff1615610226576102249261043191610f0a565b34610239576020366003190112610239576001600160a01b03610b28610d87565b165f526001602052602060405f2054604051908152f35b3461023957602036600319011261023957610224610b5b610d87565b610b63611646565b611363565b34610239575f3660031901126102395760206040515f5160206118105f395f51905f528152f35b34610239576020366003190112610239576004355f525f6020526020600160405f200154604051908152f35b3461023957602036600319011261023957610bd4610d87565b335f9081525f5160206116d05f395f51905f52602052604090205460ff16156102265761022490610ff0565b3461023957602036600319011261023957610c19610d87565b335f9081525f5160206116d05f395f51905f52602052604090205460ff161561022657610224906112e5565b3461023957604036600319011261023957610c5e610d87565b610c66610d9d565b335f9081525f5160206116d05f395f51905f52602052604090205460ff161561022657335f9081525f5160206116d05f395f51905f52602052604090205460ff16156102265761043161022492610e25565b3461023957602036600319011261023957610cd1610d87565b335f9081525f5160206116d05f395f51905f52602052604090205460ff16156102265761022490610f6b565b34610239575f36600319011261023957602060405162ed4e008152f35b34610239576020366003190112610239576004359063ffffffff60e01b82168092036102395760209163261c910560e21b8114908115610d5c575b5015158152f35b637965db0b60e01b811491508115610d76575b5083610d55565b6301ffc9a760e01b14905083610d6f565b600435906001600160a01b038216820361023957565b602435906001600160a01b038216820361023957565b606090600319011261023957600435600381101561023957906024356001600160a01b038116810361023957906044356001600160a01b03811681036102395790565b604090600319011261023957600435600381101561023957906024356001600160a01b03811681036102395790565b60408051600160f91b6020820190815260609390931b6001600160601b0319166021820152601581529081016001600160401b03811182821017610e6c5760405251902090565b634e487b7160e01b5f52604160045260245ffd5b60408051600160f81b6020820190815260609390931b6001600160601b0319166021820152601581529081016001600160401b03811182821017610e6c5760405251902090565b604080515f6020820190815260609390931b6001600160601b0319166021820152601581529081016001600160401b03811182821017610e6c5760405251902090565b906040519060208201926003811015610f575760f81b835260601b6001600160601b031916602182015260158152604081016001600160401b03811182821017610e6c5760405251902090565b634e487b7160e01b5f52602160045260245ffd5b6001600160a01b0381165f9081525f5160206116b05f395f51905f52602052604090205460ff16610feb576001600160a01b03165f8181525f5160206116b05f395f51905f5260205260408120805460ff191660011790553391905f5160206118105f395f51905f52905f5160206116905f395f51905f529080a4600190565b505f90565b6001600160a01b0381165f9081525f5160206117b05f395f51905f52602052604090205460ff16610feb576001600160a01b03165f8181525f5160206117b05f395f51905f5260205260408120805460ff191660011790553391905f5160206117905f395f51905f52905f5160206116905f395f51905f529080a4600190565b6001600160a01b0381165f9081525f5160206118305f395f51905f52602052604090205460ff16610feb576001600160a01b03165f8181525f5160206118305f395f51905f5260205260408120805460ff191660011790553391905f5160206117d05f395f51905f52905f5160206116905f395f51905f529080a4600190565b6001600160a01b0381165f9081525f5160206117505f395f51905f52602052604090205460ff16610feb576001600160a01b03165f8181525f5160206117505f395f51905f5260205260408120805460ff191660011790553391905f5160206117105f395f51905f52905f5160206116905f395f51905f529080a4600190565b6001600160a01b0381165f9081525f5160206117305f395f51905f52602052604090205460ff16610feb576001600160a01b03165f8181525f5160206117305f395f51905f5260205260408120805460ff191660011790553391905f5160206116f05f395f51905f52905f5160206116905f395f51905f529080a4600190565b6001600160a01b0381165f9081525f5160206116d05f395f51905f52602052604090205460ff16610feb576001600160a01b03165f8181525f5160206116d05f395f51905f5260205260408120805460ff191660011790553391905f5160206117705f395f51905f52905f5160206116905f395f51905f529080a4600190565b5f818152602081815260408083206001600160a01b038616845290915290205460ff166112df575f818152602081815260408083206001600160a01b0395909516808452949091528120805460ff19166001179055339291905f5160206116905f395f51905f529080a4600190565b50505f90565b6001600160a01b0381165f9081525f5160206118305f395f51905f52602052604090205460ff1615610feb576001600160a01b03165f8181525f5160206118305f395f51905f5260205260408120805460ff191690553391905f5160206117d05f395f51905f52905f5160206117f05f395f51905f529080a4600190565b6001600160a01b0381165f9081525f5160206117505f395f51905f52602052604090205460ff1615610feb576001600160a01b03165f8181525f5160206117505f395f51905f5260205260408120805460ff191690553391905f5160206117105f395f51905f52905f5160206117f05f395f51905f529080a4600190565b6001600160a01b0381165f9081525f5160206116b05f395f51905f52602052604090205460ff1615610feb576001600160a01b03165f8181525f5160206116b05f395f51905f5260205260408120805460ff191690553391905f5160206118105f395f51905f52905f5160206117f05f395f51905f529080a4600190565b6001600160a01b0381165f9081525f5160206117305f395f51905f52602052604090205460ff1615610feb576001600160a01b03165f8181525f5160206117305f395f51905f5260205260408120805460ff191690553391905f5160206116f05f395f51905f52905f5160206117f05f395f51905f529080a4600190565b6001600160a01b0381165f9081525f5160206117b05f395f51905f52602052604090205460ff1615610feb576001600160a01b03165f8181525f5160206117b05f395f51905f5260205260408120805460ff191690553391905f5160206117905f395f51905f52905f5160206117f05f395f51905f529080a4600190565b6001600160a01b0381165f9081525f5160206116d05f395f51905f52602052604090205460ff1615610feb576001600160a01b03165f8181525f5160206116d05f395f51905f5260205260408120805460ff191690553391905f5160206117705f395f51905f52905f5160206117f05f395f51905f529080a4600190565b5f818152602081815260408083206001600160a01b038616845290915290205460ff16156112df575f818152602081815260408083206001600160a01b0395909516808452949091528120805460ff19169055339291905f5160206117f05f395f51905f529080a4600190565b335f9081525f5160206116d05f395f51905f52602052604090205460ff161561166b57565b63e2517d3f60e01b5f52336004525f5160206117705f395f51905f5260245260445ffdfe2f8788117e7eff1d82e926ec794901d17c78024a50270940304540a733656f0d8a40f0b47fdc2a0ce293b772acfc7508c8315a4d462786c1adc3a56f92ca2d056f3b488caa0dc03e5f3d9fd6a25fa8755afcfd62ccffb6e436c696bfa6b866de91f4acb4e22d884ddd51fc71554726ebe920375da6f1520c331da617e4181261b00be3d6a5434b97b328543d1486d56adcb7e74080170d1cdd7e0306c3d9ba3d9f45df04ce01a46fd32f5f8558d04c34e1b7f86b53e6548d626d40d09d0a304a4535dd5013f28fff064e7de1c0ddf5a8936f931a6ee9d5ef728652e316088f3f7935bd0ae54bc31f548c14dba4d37c5c64b3f8ca900cb468fb8abd54d5894f55025d8bbf3268be680d2605ebf6da15063b9915615bf1087dab336efc1bf970cb990669d3503eee76d7d1115bda8b69d54719d289b9aabc08a7ec67ca29331cb60d186688925976bbe6755ae984501c8e3e2b103a7af59fd803ab9c6d891ae7e0f6391f5c32d9c69d2a47ea670b442974b53935d1edc7fd64eb21e047a839171b55435dd261a4b9b3364963f7738a7a662ad9c84396d64be3365284bb7f0a5041c742cb36aa3eadb553c6dfee24901a50d6d8e6a294ddb4de13e076ec7e6d776fa2646970667358221220dc0ed128864c5b7d7e5b822ea6caede5e81fec99cdf56ed07b7e8b04eef51c1364736f6c634300081c00336f3b488caa0dc03e5f3d9fd6a25fa8755afcfd62ccffb6e436c696bfa6b866de",
          "opcodes": "PUSH1 0x80 CALLVALUE PUSH2 0x68 JUMPI PUSH1 0x1F PUSH2 0x19D1 CODESIZE DUP2 SWAP1 SUB SWAP2 DUP3 ADD PUSH1 0x1F NOT AND DUP4 ADD SWAP2 PUSH1 0x1 PUSH1 0x1 PUSH1 0x40 SHL SUB DUP4 GT DUP5 DUP5 LT OR PUSH2 0x6C JUMPI DUP1 DUP5 SWAP3 PUSH1 0x20 SWAP5 PUSH1 0x40 MSTORE DUP4 CODECOPY DUP2 ADD SUB SLT PUSH2 0x68 JUMPI MLOAD PUSH1 0x1 PUSH1 0x1 PUSH1 0xA0 SHL SUB DUP2 AND DUP2 SUB PUSH2 0x68 JUMPI PUSH2 0x58 SWAP1 PUSH2 0x80 JUMP JUMPDEST POP PUSH1 0x40 MLOAD PUSH2 0x1885 SWAP1 DUP2 PUSH2 0x12C DUP3 CODECOPY RETURN JUMPDEST PUSH0 DUP1 REVERT JUMPDEST PUSH4 0x4E487B71 PUSH1 0xE0 SHL PUSH0 MSTORE PUSH1 0x41 PUSH1 0x4 MSTORE PUSH1 0x24 PUSH0 REVERT JUMPDEST PUSH1 0x1 PUSH1 0x1 PUSH1 0xA0 SHL SUB DUP2 AND PUSH0 SWAP1 DUP2 MSTORE PUSH0 MLOAD PUSH1 0x20 PUSH2 0x19B1 PUSH0 CODECOPY PUSH0 MLOAD SWAP1 PUSH0 MSTORE PUSH1 0x20 MSTORE PUSH1 0x40 SWAP1 KECCAK256 SLOAD PUSH1 0xFF AND PUSH2 0x126 JUMPI PUSH1 0x1 PUSH1 0x1 PUSH1 0xA0 SHL SUB AND PUSH0 DUP2 DUP2 MSTORE PUSH0 MLOAD PUSH1 0x20 PUSH2 0x19B1 PUSH0 CODECOPY PUSH0 MLOAD SWAP1 PUSH0 MSTORE PUSH1 0x20 MSTORE PUSH1 0x40 DUP2 KECCAK256 DUP1 SLOAD PUSH1 0xFF NOT AND PUSH1 0x1 OR SWAP1 SSTORE CALLER SWAP2 SWAP1 PUSH32 0x7935BD0AE54BC31F548C14DBA4D37C5C64B3F8CA900CB468FB8ABD54D5894F55 SWAP1 PUSH32 0x2F8788117E7EFF1D82E926EC794901D17C78024A50270940304540A733656F0D SWAP1 DUP1 LOG4 PUSH1 0x1 SWAP1 JUMP JUMPDEST POP PUSH0 SWAP1 JUMP INVALID PUSH1 0x80 DUP1 PUSH1 0x40 MSTORE PUSH1 0x4 CALLDATASIZE LT ISZERO PUSH2 0x12 JUMPI PUSH0 DUP1 REVERT JUMPDEST PUSH0 CALLDATALOAD PUSH1 0xE0 SHR SWAP1 DUP2 PUSH4 0x1FFC9A7 EQ PUSH2 0xD1A JUMPI POP DUP1 PUSH4 0x67757BA EQ PUSH2 0xCFD JUMPI DUP1 PUSH4 0x10E7B489 EQ PUSH2 0xCB8 JUMPI DUP1 PUSH4 0x1981B9A7 EQ PUSH2 0xC45 JUMPI DUP1 PUSH4 0x1BACDB34 EQ PUSH2 0xC00 JUMPI DUP1 PUSH4 0x1DEB14AA EQ PUSH2 0xBBB JUMPI DUP1 PUSH4 0x248A9CA3 EQ PUSH2 0xB8F JUMPI DUP1 PUSH4 0x24EA54F4 EQ PUSH2 0xB68 JUMPI DUP1 PUSH4 0x26088717 EQ PUSH2 0xB3F JUMPI DUP1 PUSH4 0x262A7F77 EQ PUSH2 0xB07 JUMPI DUP1 PUSH4 0x2A25D142 EQ PUSH2 0xAC5 JUMPI DUP1 PUSH4 0x2DA51722 EQ PUSH2 0xA80 JUMPI DUP1 PUSH4 0x2F2FF15D EQ PUSH2 0xA53 JUMPI DUP1 PUSH4 0x36568ABE EQ PUSH2 0xA0F JUMPI DUP1 PUSH4 0x4B4B5389 EQ PUSH2 0x9CA JUMPI DUP1 PUSH4 0x4CFA6107 EQ PUSH2 0x957 JUMPI DUP1 PUSH4 0x53B53813 EQ PUSH2 0x8E4 JUMPI DUP1 PUSH4 0x66E943F1 EQ PUSH2 0x8BD JUMPI DUP1 PUSH4 0x66EBBF74 EQ PUSH2 0x84A JUMPI DUP1 PUSH4 0x69B3054B EQ PUSH2 0x82F JUMPI DUP1 PUSH4 0x6FD6313F EQ PUSH2 0x7EA JUMPI DUP1 PUSH4 0x7820BD84 EQ PUSH2 0x7A5 JUMPI DUP1 PUSH4 0x7ADAC90D EQ PUSH2 0x763 JUMPI DUP1 PUSH4 0x851ECBFD EQ PUSH2 0x73A JUMPI DUP1 PUSH4 0x91D14854 EQ PUSH2 0x6F2 JUMPI DUP1 PUSH4 0xA217FDDF EQ PUSH2 0x6D8 JUMPI DUP1 PUSH4 0xA89F38A3 EQ PUSH2 0x6B1 JUMPI DUP1 PUSH4 0xAEF7C5DF EQ PUSH2 0x64E JUMPI DUP1 PUSH4 0xC0B534C2 EQ PUSH2 0x627 JUMPI DUP1 PUSH4 0xCCC57490 EQ PUSH2 0x600 JUMPI DUP1 PUSH4 0xD547741F EQ PUSH2 0x5D3 JUMPI DUP1 PUSH4 0xD55DD62B EQ PUSH2 0x57C JUMPI DUP1 PUSH4 0xD6D5F76F EQ PUSH2 0x55F JUMPI DUP1 PUSH4 0xDAA2F231 EQ PUSH2 0x51A JUMPI DUP1 PUSH4 0xE4DD1DCA EQ PUSH2 0x4D5 JUMPI DUP1 PUSH4 0xE66FD9EF EQ PUSH2 0x4AE JUMPI DUP1 PUSH4 0xE9296665 EQ PUSH2 0x436 JUMPI DUP1 PUSH4 0xE9EEA177 EQ PUSH2 0x3BE JUMPI DUP1 PUSH4 0xF5D4B6DE EQ PUSH2 0x2AE JUMPI DUP1 PUSH4 0xF99AB9F8 EQ PUSH2 0x23D JUMPI PUSH4 0xFB914C39 EQ PUSH2 0x1DF JUMPI PUSH0 DUP1 REVERT JUMPDEST CALLVALUE PUSH2 0x239 JUMPI PUSH1 0x20 CALLDATASIZE PUSH1 0x3 NOT ADD SLT PUSH2 0x239 JUMPI PUSH2 0x1F8 PUSH2 0xD87 JUMP JUMPDEST CALLER PUSH0 SWAP1 DUP2 MSTORE PUSH0 MLOAD PUSH1 0x20 PUSH2 0x16D0 PUSH0 CODECOPY PUSH0 MLOAD SWAP1 PUSH0 MSTORE PUSH1 0x20 MSTORE PUSH1 0x40 SWAP1 KECCAK256 SLOAD PUSH1 0xFF AND ISZERO PUSH2 0x226 JUMPI PUSH2 0x224 SWAP1 PUSH2 0x155B JUMP JUMPDEST STOP JUMPDEST PUSH4 0xEA7D7ED PUSH1 0xE2 SHL PUSH0 MSTORE CALLER PUSH1 0x4 MSTORE PUSH1 0x24 PUSH0 REVERT JUMPDEST PUSH0 DUP1 REVERT JUMPDEST CALLVALUE PUSH2 0x239 JUMPI PUSH1 0x20 CALLDATASIZE PUSH1 0x3 NOT ADD SLT PUSH2 0x239 JUMPI PUSH2 0x256 PUSH2 0xD87 JUMP JUMPDEST PUSH1 0x1 PUSH1 0x1 PUSH1 0xA0 SHL SUB DUP2 AND PUSH0 SWAP1 DUP2 MSTORE PUSH0 MLOAD PUSH1 0x20 PUSH2 0x16B0 PUSH0 CODECOPY PUSH0 MLOAD SWAP1 PUSH0 MSTORE PUSH1 0x20 MSTORE PUSH1 0x40 SWAP1 KECCAK256 SLOAD PUSH1 0xFF AND DUP1 PUSH2 0x290 JUMPI JUMPDEST PUSH1 0x20 SWAP1 PUSH1 0x40 MLOAD SWAP1 ISZERO ISZERO DUP2 MSTORE RETURN JUMPDEST POP PUSH1 0x1 DUP1 PUSH1 0xA0 SHL SUB AND PUSH0 MSTORE PUSH1 0x1 PUSH1 0x20 MSTORE PUSH1 0x20 PUSH1 0x40 PUSH0 KECCAK256 SLOAD TIMESTAMP LT PUSH2 0x283 JUMP JUMPDEST CALLVALUE PUSH2 0x239 JUMPI PUSH1 0x40 CALLDATASIZE PUSH1 0x3 NOT ADD SLT PUSH2 0x239 JUMPI PUSH2 0x2C7 PUSH2 0xD87 JUMP JUMPDEST PUSH1 0x24 CALLDATALOAD SWAP1 PUSH2 0x2D3 PUSH2 0x1646 JUMP JUMPDEST PUSH1 0x1 PUSH1 0x1 PUSH1 0xA0 SHL SUB DUP2 AND PUSH0 SWAP1 DUP2 MSTORE PUSH0 MLOAD PUSH1 0x20 PUSH2 0x16B0 PUSH0 CODECOPY PUSH0 MLOAD SWAP1 PUSH0 MSTORE PUSH1 0x20 MSTORE PUSH1 0x40 SWAP1 KECCAK256 SLOAD PUSH1 0xFF AND ISZERO PUSH2 0x39E JUMPI TIMESTAMP DUP3 SUB DUP3 DUP2 GT PUSH2 0x38A JUMPI PUSH3 0x93A80 DUP2 LT DUP1 ISZERO PUSH2 0x37E JUMPI JUMPDEST PUSH2 0x35E JUMPI POP PUSH1 0x20 PUSH32 0x194CD3AB6C19DD0EE216A744746F9583FF333B3589FAAD327E6B1317C9444AEC SWAP2 PUSH1 0x1 DUP1 PUSH1 0xA0 SHL SUB AND SWAP3 DUP4 PUSH0 MSTORE PUSH1 0x1 DUP3 MSTORE DUP1 PUSH1 0x40 PUSH0 KECCAK256 SSTORE PUSH1 0x40 MLOAD SWAP1 DUP2 MSTORE LOG2 STOP JUMPDEST PUSH4 0x83BCAEA1 PUSH1 0xE0 SHL PUSH0 MSTORE PUSH1 0x4 MSTORE PUSH3 0x93A80 PUSH1 0x24 MSTORE PUSH3 0xED4E00 PUSH1 0x44 MSTORE PUSH1 0x64 PUSH0 REVERT JUMPDEST POP PUSH3 0xED4E00 DUP2 GT PUSH2 0x316 JUMP JUMPDEST PUSH4 0x4E487B71 PUSH1 0xE0 SHL PUSH0 MSTORE PUSH1 0x11 PUSH1 0x4 MSTORE PUSH1 0x24 PUSH0 REVERT JUMPDEST PUSH4 0x5560E16D PUSH1 0xE0 SHL PUSH0 SWAP1 DUP2 MSTORE PUSH1 0x1 PUSH1 0x1 PUSH1 0xA0 SHL SUB SWAP2 SWAP1 SWAP2 AND PUSH1 0x4 MSTORE PUSH1 0x24 SWAP1 REVERT JUMPDEST CALLVALUE PUSH2 0x239 JUMPI PUSH1 0x40 CALLDATASIZE PUSH1 0x3 NOT ADD SLT PUSH2 0x239 JUMPI PUSH2 0x3D7 PUSH2 0xD87 JUMP JUMPDEST PUSH2 0x3DF PUSH2 0xD9D JUMP JUMPDEST CALLER PUSH0 SWAP1 DUP2 MSTORE PUSH0 MLOAD PUSH1 0x20 PUSH2 0x16D0 PUSH0 CODECOPY PUSH0 MLOAD SWAP1 PUSH0 MSTORE PUSH1 0x20 MSTORE PUSH1 0x40 SWAP1 KECCAK256 SLOAD PUSH1 0xFF AND ISZERO PUSH2 0x226 JUMPI CALLER PUSH0 SWAP1 DUP2 MSTORE PUSH0 MLOAD PUSH1 0x20 PUSH2 0x16D0 PUSH0 CODECOPY PUSH0 MLOAD SWAP1 PUSH0 MSTORE PUSH1 0x20 MSTORE PUSH1 0x40 SWAP1 KECCAK256 SLOAD PUSH1 0xFF AND ISZERO PUSH2 0x226 JUMPI PUSH2 0x431 PUSH2 0x224 SWAP3 PUSH2 0xEC7 JUMP JUMPDEST PUSH2 0x1270 JUMP JUMPDEST CALLVALUE PUSH2 0x239 JUMPI PUSH1 0x40 CALLDATASIZE PUSH1 0x3 NOT ADD SLT PUSH2 0x239 JUMPI PUSH2 0x44F PUSH2 0xD87 JUMP JUMPDEST PUSH2 0x457 PUSH2 0xD9D JUMP JUMPDEST CALLER PUSH0 SWAP1 DUP2 MSTORE PUSH0 MLOAD PUSH1 0x20 PUSH2 0x16D0 PUSH0 CODECOPY PUSH0 MLOAD SWAP1 PUSH0 MSTORE PUSH1 0x20 MSTORE PUSH1 0x40 SWAP1 KECCAK256 SLOAD PUSH1 0xFF AND ISZERO PUSH2 0x226 JUMPI CALLER PUSH0 SWAP1 DUP2 MSTORE PUSH0 MLOAD PUSH1 0x20 PUSH2 0x16D0 PUSH0 CODECOPY PUSH0 MLOAD SWAP1 PUSH0 MSTORE PUSH1 0x20 MSTORE PUSH1 0x40 SWAP1 KECCAK256 SLOAD PUSH1 0xFF AND ISZERO PUSH2 0x226 JUMPI PUSH2 0x4A9 PUSH2 0x224 SWAP3 PUSH2 0xEC7 JUMP JUMPDEST PUSH2 0x15D9 JUMP JUMPDEST CALLVALUE PUSH2 0x239 JUMPI PUSH0 CALLDATASIZE PUSH1 0x3 NOT ADD SLT PUSH2 0x239 JUMPI PUSH1 0x20 PUSH1 0x40 MLOAD PUSH0 MLOAD PUSH1 0x20 PUSH2 0x16F0 PUSH0 CODECOPY PUSH0 MLOAD SWAP1 PUSH0 MSTORE DUP2 MSTORE RETURN JUMPDEST CALLVALUE PUSH2 0x239 JUMPI PUSH1 0x20 CALLDATASIZE PUSH1 0x3 NOT ADD SLT PUSH2 0x239 JUMPI PUSH2 0x4EE PUSH2 0xD87 JUMP JUMPDEST CALLER PUSH0 SWAP1 DUP2 MSTORE PUSH0 MLOAD PUSH1 0x20 PUSH2 0x16D0 PUSH0 CODECOPY PUSH0 MLOAD SWAP1 PUSH0 MSTORE PUSH1 0x20 MSTORE PUSH1 0x40 SWAP1 KECCAK256 SLOAD PUSH1 0xFF AND ISZERO PUSH2 0x226 JUMPI PUSH2 0x224 SWAP1 PUSH2 0x11F0 JUMP JUMPDEST CALLVALUE PUSH2 0x239 JUMPI PUSH1 0x20 CALLDATASIZE PUSH1 0x3 NOT ADD SLT PUSH2 0x239 JUMPI PUSH2 0x533 PUSH2 0xD87 JUMP JUMPDEST CALLER PUSH0 SWAP1 DUP2 MSTORE PUSH0 MLOAD PUSH1 0x20 PUSH2 0x16D0 PUSH0 CODECOPY PUSH0 MLOAD SWAP1 PUSH0 MSTORE PUSH1 0x20 MSTORE PUSH1 0x40 SWAP1 KECCAK256 SLOAD PUSH1 0xFF AND ISZERO PUSH2 0x226 JUMPI PUSH2 0x224 SWAP1 PUSH2 0x1170 JUMP JUMPDEST CALLVALUE PUSH2 0x239 JUMPI PUSH0 CALLDATASIZE PUSH1 0x3 NOT ADD SLT PUSH2 0x239 JUMPI PUSH1 0x20 PUSH1 0x40 MLOAD PUSH3 0x93A80 DUP2 MSTORE RETURN JUMPDEST CALLVALUE PUSH2 0x239 JUMPI PUSH2 0x593 PUSH2 0x58D CALLDATASIZE PUSH2 0xDF6 JUMP JUMPDEST SWAP1 PUSH2 0xF0A JUMP JUMPDEST PUSH0 DUP2 DUP2 MSTORE PUSH1 0x20 DUP2 DUP2 MSTORE PUSH1 0x40 DUP1 DUP4 KECCAK256 CALLER DUP5 MSTORE SWAP1 SWAP2 MSTORE SWAP1 KECCAK256 SLOAD PUSH1 0xFF AND ISZERO PUSH2 0x5BD JUMPI PUSH2 0x224 SWAP1 CALLER SWAP1 PUSH2 0x15D9 JUMP JUMPDEST PUSH4 0x3F904EDB PUSH1 0xE1 SHL PUSH0 MSTORE CALLER PUSH1 0x4 MSTORE PUSH1 0x24 MSTORE PUSH1 0x44 PUSH0 REVERT JUMPDEST CALLVALUE PUSH2 0x239 JUMPI PUSH1 0x40 CALLDATASIZE PUSH1 0x3 NOT ADD SLT PUSH2 0x239 JUMPI PUSH2 0x5EC PUSH2 0xD9D JUMP JUMPDEST POP PUSH4 0x63449785 PUSH1 0xE1 SHL PUSH0 MSTORE CALLER PUSH1 0x4 MSTORE PUSH1 0x24 PUSH0 REVERT JUMPDEST CALLVALUE PUSH2 0x239 JUMPI PUSH0 CALLDATASIZE PUSH1 0x3 NOT ADD SLT PUSH2 0x239 JUMPI PUSH1 0x20 PUSH1 0x40 MLOAD PUSH0 MLOAD PUSH1 0x20 PUSH2 0x1770 PUSH0 CODECOPY PUSH0 MLOAD SWAP1 PUSH0 MSTORE DUP2 MSTORE RETURN JUMPDEST CALLVALUE PUSH2 0x239 JUMPI PUSH0 CALLDATASIZE PUSH1 0x3 NOT ADD SLT PUSH2 0x239 JUMPI PUSH1 0x20 PUSH1 0x40 MLOAD PUSH0 MLOAD PUSH1 0x20 PUSH2 0x1790 PUSH0 CODECOPY PUSH0 MLOAD SWAP1 PUSH0 MSTORE DUP2 MSTORE RETURN JUMPDEST CALLVALUE PUSH2 0x239 JUMPI PUSH1 0x20 CALLDATASIZE PUSH1 0x3 NOT ADD SLT PUSH2 0x239 JUMPI PUSH2 0x667 PUSH2 0xD87 JUMP JUMPDEST PUSH1 0x1 PUSH1 0x1 PUSH1 0xA0 SHL SUB DUP2 AND PUSH0 SWAP1 DUP2 MSTORE PUSH0 MLOAD PUSH1 0x20 PUSH2 0x16B0 PUSH0 CODECOPY PUSH0 MLOAD SWAP1 PUSH0 MSTORE PUSH1 0x20 MSTORE PUSH1 0x40 SWAP1 KECCAK256 SLOAD PUSH1 0xFF AND ISZERO PUSH2 0x39E JUMPI PUSH1 0x1 DUP1 PUSH1 0xA0 SHL SUB AND PUSH0 MSTORE PUSH1 0x1 PUSH1 0x20 MSTORE PUSH1 0x20 PUSH1 0x40 PUSH0 KECCAK256 SLOAD PUSH1 0x40 MLOAD SWAP1 DUP2 MSTORE RETURN JUMPDEST CALLVALUE PUSH2 0x239 JUMPI PUSH0 CALLDATASIZE PUSH1 0x3 NOT ADD SLT PUSH2 0x239 JUMPI PUSH1 0x20 PUSH1 0x40 MLOAD PUSH0 MLOAD PUSH1 0x20 PUSH2 0x1710 PUSH0 CODECOPY PUSH0 MLOAD SWAP1 PUSH0 MSTORE DUP2 MSTORE RETURN JUMPDEST CALLVALUE PUSH2 0x239 JUMPI PUSH0 CALLDATASIZE PUSH1 0x3 NOT ADD SLT PUSH2 0x239 JUMPI PUSH1 0x20 PUSH1 0x40 MLOAD PUSH0 DUP2 MSTORE RETURN JUMPDEST CALLVALUE PUSH2 0x239 JUMPI PUSH1 0x40 CALLDATASIZE PUSH1 0x3 NOT ADD SLT PUSH2 0x239 JUMPI PUSH2 0x70B PUSH2 0xD9D JUMP JUMPDEST PUSH1 0x4 CALLDATALOAD PUSH0 MSTORE PUSH0 PUSH1 0x20 MSTORE PUSH1 0x40 PUSH0 KECCAK256 SWAP1 PUSH1 0x1 DUP1 PUSH1 0xA0 SHL SUB AND PUSH0 MSTORE PUSH1 0x20 MSTORE PUSH1 0x20 PUSH1 0xFF PUSH1 0x40 PUSH0 KECCAK256 SLOAD AND PUSH1 0x40 MLOAD SWAP1 ISZERO ISZERO DUP2 MSTORE RETURN JUMPDEST CALLVALUE PUSH2 0x239 JUMPI PUSH1 0x20 CALLDATASIZE PUSH1 0x3 NOT ADD SLT PUSH2 0x239 JUMPI PUSH2 0x224 PUSH2 0x756 PUSH2 0xD87 JUMP JUMPDEST PUSH2 0x75E PUSH2 0x1646 JUMP JUMPDEST PUSH2 0x10F0 JUMP JUMPDEST CALLVALUE PUSH2 0x239 JUMPI PUSH2 0x771 CALLDATASIZE PUSH2 0xDB3 JUMP JUMPDEST CALLER PUSH0 SWAP1 DUP2 MSTORE PUSH0 MLOAD PUSH1 0x20 PUSH2 0x16D0 PUSH0 CODECOPY PUSH0 MLOAD SWAP1 PUSH0 MSTORE PUSH1 0x20 MSTORE PUSH1 0x40 SWAP1 KECCAK256 SLOAD SWAP2 SWAP3 SWAP1 SWAP2 PUSH1 0xFF AND ISZERO PUSH2 0x226 JUMPI PUSH2 0x224 SWAP3 PUSH2 0x4A9 SWAP2 PUSH2 0xF0A JUMP JUMPDEST CALLVALUE PUSH2 0x239 JUMPI PUSH1 0x20 CALLDATASIZE PUSH1 0x3 NOT ADD SLT PUSH2 0x239 JUMPI PUSH2 0x7BE PUSH2 0xD87 JUMP JUMPDEST CALLER PUSH0 SWAP1 DUP2 MSTORE PUSH0 MLOAD PUSH1 0x20 PUSH2 0x16D0 PUSH0 CODECOPY PUSH0 MLOAD SWAP1 PUSH0 MSTORE PUSH1 0x20 MSTORE PUSH1 0x40 SWAP1 KECCAK256 SLOAD PUSH1 0xFF AND ISZERO PUSH2 0x226 JUMPI PUSH2 0x224 SWAP1 PUSH2 0x14DD JUMP JUMPDEST CALLVALUE PUSH2 0x239 JUMPI PUSH1 0x20 CALLDATASIZE PUSH1 0x3 NOT ADD SLT PUSH2 0x239 JUMPI PUSH2 0x803 PUSH2 0xD87 JUMP JUMPDEST CALLER PUSH0 SWAP1 DUP2 MSTORE PUSH0 MLOAD PUSH1 0x20 PUSH2 0x16D0 PUSH0 CODECOPY PUSH0 MLOAD SWAP1 PUSH0 MSTORE PUSH1 0x20 MSTORE PUSH1 0x40 SWAP1 KECCAK256 SLOAD PUSH1 0xFF AND ISZERO PUSH2 0x226 JUMPI PUSH2 0x224 SWAP1 PUSH2 0x145F JUMP JUMPDEST CALLVALUE PUSH2 0x239 JUMPI PUSH1 0x20 PUSH2 0x842 PUSH2 0x58D CALLDATASIZE PUSH2 0xDF6 JUMP JUMPDEST PUSH1 0x40 MLOAD SWAP1 DUP2 MSTORE RETURN JUMPDEST CALLVALUE PUSH2 0x239 JUMPI PUSH1 0x40 CALLDATASIZE PUSH1 0x3 NOT ADD SLT PUSH2 0x239 JUMPI PUSH2 0x863 PUSH2 0xD87 JUMP JUMPDEST PUSH2 0x86B PUSH2 0xD9D JUMP JUMPDEST CALLER PUSH0 SWAP1 DUP2 MSTORE PUSH0 MLOAD PUSH1 0x20 PUSH2 0x16D0 PUSH0 CODECOPY PUSH0 MLOAD SWAP1 PUSH0 MSTORE PUSH1 0x20 MSTORE PUSH1 0x40 SWAP1 KECCAK256 SLOAD PUSH1 0xFF AND ISZERO PUSH2 0x226 JUMPI CALLER PUSH0 SWAP1 DUP2 MSTORE PUSH0 MLOAD PUSH1 0x20 PUSH2 0x16D0 PUSH0 CODECOPY PUSH0 MLOAD SWAP1 PUSH0 MSTORE PUSH1 0x20 MSTORE PUSH1 0x40 SWAP1 KECCAK256 SLOAD PUSH1 0xFF AND ISZERO PUSH2 0x226 JUMPI PUSH2 0x431 PUSH2 0x224 SWAP3 PUSH2 0xE80 JUMP JUMPDEST CALLVALUE PUSH2 0x239 JUMPI PUSH0 CALLDATASIZE PUSH1 0x3 NOT ADD SLT PUSH2 0x239 JUMPI PUSH1 0x20 PUSH1 0x40 MLOAD PUSH0 MLOAD PUSH1 0x20 PUSH2 0x17D0 PUSH0 CODECOPY PUSH0 MLOAD SWAP1 PUSH0 MSTORE DUP2 MSTORE RETURN JUMPDEST CALLVALUE PUSH2 0x239 JUMPI PUSH1 0x40 CALLDATASIZE PUSH1 0x3 NOT ADD SLT PUSH2 0x239 JUMPI PUSH2 0x8FD PUSH2 0xD87 JUMP JUMPDEST PUSH2 0x905 PUSH2 0xD9D JUMP JUMPDEST CALLER PUSH0 SWAP1 DUP2 MSTORE PUSH0 MLOAD PUSH1 0x20 PUSH2 0x16D0 PUSH0 CODECOPY PUSH0 MLOAD SWAP1 PUSH0 MSTORE PUSH1 0x20 MSTORE PUSH1 0x40 SWAP1 KECCAK256 SLOAD PUSH1 0xFF AND ISZERO PUSH2 0x226 JUMPI CALLER PUSH0 SWAP1 DUP2 MSTORE PUSH0 MLOAD PUSH1 0x20 PUSH2 0x16D0 PUSH0 CODECOPY PUSH0 MLOAD SWAP1 PUSH0 MSTORE PUSH1 0x20 MSTORE PUSH1 0x40 SWAP1 KECCAK256 SLOAD PUSH1 0xFF AND ISZERO PUSH2 0x226 JUMPI PUSH2 0x4A9 PUSH2 0x224 SWAP3 PUSH2 0xE25 JUMP JUMPDEST CALLVALUE PUSH2 0x239 JUMPI PUSH1 0x40 CALLDATASIZE PUSH1 0x3 NOT ADD SLT PUSH2 0x239 JUMPI PUSH2 0x970 PUSH2 0xD87 JUMP JUMPDEST PUSH2 0x978 PUSH2 0xD9D JUMP JUMPDEST CALLER PUSH0 SWAP1 DUP2 MSTORE PUSH0 MLOAD PUSH1 0x20 PUSH2 0x16D0 PUSH0 CODECOPY PUSH0 MLOAD SWAP1 PUSH0 MSTORE PUSH1 0x20 MSTORE PUSH1 0x40 SWAP1 KECCAK256 SLOAD PUSH1 0xFF AND ISZERO PUSH2 0x226 JUMPI CALLER PUSH0 SWAP1 DUP2 MSTORE PUSH0 MLOAD PUSH1 0x20 PUSH2 0x16D0 PUSH0 CODECOPY PUSH0 MLOAD SWAP1 PUSH0 MSTORE PUSH1 0x20 MSTORE PUSH1 0x40 SWAP1 KECCAK256 SLOAD PUSH1 0xFF AND ISZERO PUSH2 0x226 JUMPI PUSH2 0x4A9 PUSH2 0x224 SWAP3 PUSH2 0xE80 JUMP JUMPDEST CALLVALUE PUSH2 0x239 JUMPI PUSH1 0x20 CALLDATASIZE PUSH1 0x3 NOT ADD SLT PUSH2 0x239 JUMPI PUSH2 0x9E3 PUSH2 0xD87 JUMP JUMPDEST CALLER PUSH0 SWAP1 DUP2 MSTORE PUSH0 MLOAD PUSH1 0x20 PUSH2 0x16D0 PUSH0 CODECOPY PUSH0 MLOAD SWAP1 PUSH0 MSTORE PUSH1 0x20 MSTORE PUSH1 0x40 SWAP1 KECCAK256 SLOAD PUSH1 0xFF AND ISZERO PUSH2 0x226 JUMPI PUSH2 0x224 SWAP1 PUSH2 0x13E1 JUMP JUMPDEST CALLVALUE PUSH2 0x239 JUMPI PUSH1 0x40 CALLDATASIZE PUSH1 0x3 NOT ADD SLT PUSH2 0x239 JUMPI PUSH2 0xA28 PUSH2 0xD9D JUMP JUMPDEST CALLER PUSH1 0x1 PUSH1 0x1 PUSH1 0xA0 SHL SUB DUP3 AND SUB PUSH2 0xA44 JUMPI PUSH2 0x224 SWAP1 PUSH1 0x4 CALLDATALOAD PUSH2 0x15D9 JUMP JUMPDEST PUSH4 0x334BD919 PUSH1 0xE1 SHL PUSH0 MSTORE PUSH1 0x4 PUSH0 REVERT JUMPDEST CALLVALUE PUSH2 0x239 JUMPI PUSH1 0x40 CALLDATASIZE PUSH1 0x3 NOT ADD SLT PUSH2 0x239 JUMPI PUSH2 0xA6C PUSH2 0xD9D JUMP JUMPDEST POP PUSH4 0xE15200F PUSH1 0xE2 SHL PUSH0 MSTORE CALLER PUSH1 0x4 MSTORE PUSH1 0x24 PUSH0 REVERT JUMPDEST CALLVALUE PUSH2 0x239 JUMPI PUSH1 0x20 CALLDATASIZE PUSH1 0x3 NOT ADD SLT PUSH2 0x239 JUMPI PUSH2 0xA99 PUSH2 0xD87 JUMP JUMPDEST CALLER PUSH0 SWAP1 DUP2 MSTORE PUSH0 MLOAD PUSH1 0x20 PUSH2 0x16D0 PUSH0 CODECOPY PUSH0 MLOAD SWAP1 PUSH0 MSTORE PUSH1 0x20 MSTORE PUSH1 0x40 SWAP1 KECCAK256 SLOAD PUSH1 0xFF AND ISZERO PUSH2 0x226 JUMPI PUSH2 0x224 SWAP1 PUSH2 0x1070 JUMP JUMPDEST CALLVALUE PUSH2 0x239 JUMPI PUSH2 0xAD3 CALLDATASIZE PUSH2 0xDB3 JUMP JUMPDEST CALLER PUSH0 SWAP1 DUP2 MSTORE PUSH0 MLOAD PUSH1 0x20 PUSH2 0x16D0 PUSH0 CODECOPY PUSH0 MLOAD SWAP1 PUSH0 MSTORE PUSH1 0x20 MSTORE PUSH1 0x40 SWAP1 KECCAK256 SLOAD SWAP2 SWAP3 SWAP1 SWAP2 PUSH1 0xFF AND ISZERO PUSH2 0x226 JUMPI PUSH2 0x224 SWAP3 PUSH2 0x431 SWAP2 PUSH2 0xF0A JUMP JUMPDEST CALLVALUE PUSH2 0x239 JUMPI PUSH1 0x20 CALLDATASIZE PUSH1 0x3 NOT ADD SLT PUSH2 0x239 JUMPI PUSH1 0x1 PUSH1 0x1 PUSH1 0xA0 SHL SUB PUSH2 0xB28 PUSH2 0xD87 JUMP JUMPDEST AND PUSH0 MSTORE PUSH1 0x1 PUSH1 0x20 MSTORE PUSH1 0x20 PUSH1 0x40 PUSH0 KECCAK256 SLOAD PUSH1 0x40 MLOAD SWAP1 DUP2 MSTORE RETURN JUMPDEST CALLVALUE PUSH2 0x239 JUMPI PUSH1 0x20 CALLDATASIZE PUSH1 0x3 NOT ADD SLT PUSH2 0x239 JUMPI PUSH2 0x224 PUSH2 0xB5B PUSH2 0xD87 JUMP JUMPDEST PUSH2 0xB63 PUSH2 0x1646 JUMP JUMPDEST PUSH2 0x1363 JUMP JUMPDEST CALLVALUE PUSH2 0x239 JUMPI PUSH0 CALLDATASIZE PUSH1 0x3 NOT ADD SLT PUSH2 0x239 JUMPI PUSH1 0x20 PUSH1 0x40 MLOAD PUSH0 MLOAD PUSH1 0x20 PUSH2 0x1810 PUSH0 CODECOPY PUSH0 MLOAD SWAP1 PUSH0 MSTORE DUP2 MSTORE RETURN JUMPDEST CALLVALUE PUSH2 0x239 JUMPI PUSH1 0x20 CALLDATASIZE PUSH1 0x3 NOT ADD SLT PUSH2 0x239 JUMPI PUSH1 0x4 CALLDATALOAD PUSH0 MSTORE PUSH0 PUSH1 0x20 MSTORE PUSH1 0x20 PUSH1 0x1 PUSH1 0x40 PUSH0 KECCAK256 ADD SLOAD PUSH1 0x40 MLOAD SWAP1 DUP2 MSTORE RETURN JUMPDEST CALLVALUE PUSH2 0x239 JUMPI PUSH1 0x20 CALLDATASIZE PUSH1 0x3 NOT ADD SLT PUSH2 0x239 JUMPI PUSH2 0xBD4 PUSH2 0xD87 JUMP JUMPDEST CALLER PUSH0 SWAP1 DUP2 MSTORE PUSH0 MLOAD PUSH1 0x20 PUSH2 0x16D0 PUSH0 CODECOPY PUSH0 MLOAD SWAP1 PUSH0 MSTORE PUSH1 0x20 MSTORE PUSH1 0x40 SWAP1 KECCAK256 SLOAD PUSH1 0xFF AND ISZERO PUSH2 0x226 JUMPI PUSH2 0x224 SWAP1 PUSH2 0xFF0 JUMP JUMPDEST CALLVALUE PUSH2 0x239 JUMPI PUSH1 0x20 CALLDATASIZE PUSH1 0x3 NOT ADD SLT PUSH2 0x239 JUMPI PUSH2 0xC19 PUSH2 0xD87 JUMP JUMPDEST CALLER PUSH0 SWAP1 DUP2 MSTORE PUSH0 MLOAD PUSH1 0x20 PUSH2 0x16D0 PUSH0 CODECOPY PUSH0 MLOAD SWAP1 PUSH0 MSTORE PUSH1 0x20 MSTORE PUSH1 0x40 SWAP1 KECCAK256 SLOAD PUSH1 0xFF AND ISZERO PUSH2 0x226 JUMPI PUSH2 0x224 SWAP1 PUSH2 0x12E5 JUMP JUMPDEST CALLVALUE PUSH2 0x239 JUMPI PUSH1 0x40 CALLDATASIZE PUSH1 0x3 NOT ADD SLT PUSH2 0x239 JUMPI PUSH2 0xC5E PUSH2 0xD87 JUMP JUMPDEST PUSH2 0xC66 PUSH2 0xD9D JUMP JUMPDEST CALLER PUSH0 SWAP1 DUP2 MSTORE PUSH0 MLOAD PUSH1 0x20 PUSH2 0x16D0 PUSH0 CODECOPY PUSH0 MLOAD SWAP1 PUSH0 MSTORE PUSH1 0x20 MSTORE PUSH1 0x40 SWAP1 KECCAK256 SLOAD PUSH1 0xFF AND ISZERO PUSH2 0x226 JUMPI CALLER PUSH0 SWAP1 DUP2 MSTORE PUSH0 MLOAD PUSH1 0x20 PUSH2 0x16D0 PUSH0 CODECOPY PUSH0 MLOAD SWAP1 PUSH0 MSTORE PUSH1 0x20 MSTORE PUSH1 0x40 SWAP1 KECCAK256 SLOAD PUSH1 0xFF AND ISZERO PUSH2 0x226 JUMPI PUSH2 0x431 PUSH2 0x224 SWAP3 PUSH2 0xE25 JUMP JUMPDEST CALLVALUE PUSH2 0x239 JUMPI PUSH1 0x20 CALLDATASIZE PUSH1 0x3 NOT ADD SLT PUSH2 0x239 JUMPI PUSH2 0xCD1 PUSH2 0xD87 JUMP JUMPDEST CALLER PUSH0 SWAP1 DUP2 MSTORE PUSH0 MLOAD PUSH1 0x20 PUSH2 0x16D0 PUSH0 CODECOPY PUSH0 MLOAD SWAP1 PUSH0 MSTORE PUSH1 0x20 MSTORE PUSH1 0x40 SWAP1 KECCAK256 SLOAD PUSH1 0xFF AND ISZERO PUSH2 0x226 JUMPI PUSH2 0x224 SWAP1 PUSH2 0xF6B JUMP JUMPDEST CALLVALUE PUSH2 0x239 JUMPI PUSH0 CALLDATASIZE PUSH1 0x3 NOT ADD SLT PUSH2 0x239 JUMPI PUSH1 0x20 PUSH1 0x40 MLOAD PUSH3 0xED4E00 DUP2 MSTORE RETURN JUMPDEST CALLVALUE PUSH2 0x239 JUMPI PUSH1 0x20 CALLDATASIZE PUSH1 0x3 NOT ADD SLT PUSH2 0x239 JUMPI PUSH1 0x4 CALLDATALOAD SWAP1 PUSH4 0xFFFFFFFF PUSH1 0xE0 SHL DUP3 AND DUP1 SWAP3 SUB PUSH2 0x239 JUMPI PUSH1 0x20 SWAP2 PUSH4 0x261C9105 PUSH1 0xE2 SHL DUP2 EQ SWAP1 DUP2 ISZERO PUSH2 0xD5C JUMPI JUMPDEST POP ISZERO ISZERO DUP2 MSTORE RETURN JUMPDEST PUSH4 0x7965DB0B PUSH1 0xE0 SHL DUP2 EQ SWAP2 POP DUP2 ISZERO PUSH2 0xD76 JUMPI JUMPDEST POP DUP4 PUSH2 0xD55 JUMP JUMPDEST PUSH4 0x1FFC9A7 PUSH1 0xE0 SHL EQ SWAP1 POP DUP4 PUSH2 0xD6F JUMP JUMPDEST PUSH1 0x4 CALLDATALOAD SWAP1 PUSH1 0x1 PUSH1 0x1 PUSH1 0xA0 SHL SUB DUP3 AND DUP3 SUB PUSH2 0x239 JUMPI JUMP JUMPDEST PUSH1 0x24 CALLDATALOAD SWAP1 PUSH1 0x1 PUSH1 0x1 PUSH1 0xA0 SHL SUB DUP3 AND DUP3 SUB PUSH2 0x239 JUMPI JUMP JUMPDEST PUSH1 0x60 SWAP1 PUSH1 0x3 NOT ADD SLT PUSH2 0x239 JUMPI PUSH1 0x4 CALLDATALOAD PUSH1 0x3 DUP2 LT ISZERO PUSH2 0x239 JUMPI SWAP1 PUSH1 0x24 CALLDATALOAD PUSH1 0x1 PUSH1 0x1 PUSH1 0xA0 SHL SUB DUP2 AND DUP2 SUB PUSH2 0x239 JUMPI SWAP1 PUSH1 0x44 CALLDATALOAD PUSH1 0x1 PUSH1 0x1 PUSH1 0xA0 SHL SUB DUP2 AND DUP2 SUB PUSH2 0x239 JUMPI SWAP1 JUMP JUMPDEST PUSH1 0x40 SWAP1 PUSH1 0x3 NOT ADD SLT PUSH2 0x239 JUMPI PUSH1 0x4 CALLDATALOAD PUSH1 0x3 DUP2 LT ISZERO PUSH2 0x239 JUMPI SWAP1 PUSH1 0x24 CALLDATALOAD PUSH1 0x1 PUSH1 0x1 PUSH1 0xA0 SHL SUB DUP2 AND DUP2 SUB PUSH2 0x239 JUMPI SWAP1 JUMP JUMPDEST PUSH1 0x40 DUP1 MLOAD PUSH1 0x1 PUSH1 0xF9 SHL PUSH1 0x20 DUP3 ADD SWAP1 DUP2 MSTORE PUSH1 0x60 SWAP4 SWAP1 SWAP4 SHL PUSH1 0x1 PUSH1 0x1 PUSH1 0x60 SHL SUB NOT AND PUSH1 0x21 DUP3 ADD MSTORE PUSH1 0x15 DUP2 MSTORE SWAP1 DUP2 ADD PUSH1 0x1 PUSH1 0x1 PUSH1 0x40 SHL SUB DUP2 GT DUP3 DUP3 LT OR PUSH2 0xE6C JUMPI PUSH1 0x40 MSTORE MLOAD SWAP1 KECCAK256 SWAP1 JUMP JUMPDEST PUSH4 0x4E487B71 PUSH1 0xE0 SHL PUSH0 MSTORE PUSH1 0x41 PUSH1 0x4 MSTORE PUSH1 0x24 PUSH0 REVERT JUMPDEST PUSH1 0x40 DUP1 MLOAD PUSH1 0x1 PUSH1 0xF8 SHL PUSH1 0x20 DUP3 ADD SWAP1 DUP2 MSTORE PUSH1 0x60 SWAP4 SWAP1 SWAP4 SHL PUSH1 0x1 PUSH1 0x1 PUSH1 0x60 SHL SUB NOT AND PUSH1 0x21 DUP3 ADD MSTORE PUSH1 0x15 DUP2 MSTORE SWAP1 DUP2 ADD PUSH1 0x1 PUSH1 0x1 PUSH1 0x40 SHL SUB DUP2 GT DUP3 DUP3 LT OR PUSH2 0xE6C JUMPI PUSH1 0x40 MSTORE MLOAD SWAP1 KECCAK256 SWAP1 JUMP JUMPDEST PUSH1 0x40 DUP1 MLOAD PUSH0 PUSH1 0x20 DUP3 ADD SWAP1 DUP2 MSTORE PUSH1 0x60 SWAP4 SWAP1 SWAP4 SHL PUSH1 0x1 PUSH1 0x1 PUSH1 0x60 SHL SUB NOT AND PUSH1 0x21 DUP3 ADD MSTORE PUSH1 0x15 DUP2 MSTORE SWAP1 DUP2 ADD PUSH1 0x1 PUSH1 0x1 PUSH1 0x40 SHL SUB DUP2 GT DUP3 DUP3 LT OR PUSH2 0xE6C JUMPI PUSH1 0x40 MSTORE MLOAD SWAP1 KECCAK256 SWAP1 JUMP JUMPDEST SWAP1 PUSH1 0x40 MLOAD SWAP1 PUSH1 0x20 DUP3 ADD SWAP3 PUSH1 0x3 DUP2 LT ISZERO PUSH2 0xF57 JUMPI PUSH1 0xF8 SHL DUP4 MSTORE PUSH1 0x60 SHL PUSH1 0x1 PUSH1 0x1 PUSH1 0x60 SHL SUB NOT AND PUSH1 0x21 DUP3 ADD MSTORE PUSH1 0x15 DUP2 MSTORE PUSH1 0x40 DUP2 ADD PUSH1 0x1 PUSH1 0x1 PUSH1 0x40 SHL SUB DUP2 GT DUP3 DUP3 LT OR PUSH2 0xE6C JUMPI PUSH1 0x40 MSTORE MLOAD SWAP1 KECCAK256 SWAP1 JUMP JUMPDEST PUSH4 0x4E487B71 PUSH1 0xE0 SHL PUSH0 MSTORE PUSH1 0x21 PUSH1 0x4 MSTORE PUSH1 0x24 PUSH0 REVERT JUMPDEST PUSH1 0x1 PUSH1 0x1 PUSH1 0xA0 SHL SUB DUP2 AND PUSH0 SWAP1 DUP2 MSTORE PUSH0 MLOAD PUSH1 0x20 PUSH2 0x16B0 PUSH0 CODECOPY PUSH0 MLOAD SWAP1 PUSH0 MSTORE PUSH1 0x20 MSTORE PUSH1 0x40 SWAP1 KECCAK256 SLOAD PUSH1 0xFF AND PUSH2 0xFEB JUMPI PUSH1 0x1 PUSH1 0x1 PUSH1 0xA0 SHL SUB AND PUSH0 DUP2 DUP2 MSTORE PUSH0 MLOAD PUSH1 0x20 PUSH2 0x16B0 PUSH0 CODECOPY PUSH0 MLOAD SWAP1 PUSH0 MSTORE PUSH1 0x20 MSTORE PUSH1 0x40 DUP2 KECCAK256 DUP1 SLOAD PUSH1 0xFF NOT AND PUSH1 0x1 OR SWAP1 SSTORE CALLER SWAP2 SWAP1 PUSH0 MLOAD PUSH1 0x20 PUSH2 0x1810 PUSH0 CODECOPY PUSH0 MLOAD SWAP1 PUSH0 MSTORE SWAP1 PUSH0 MLOAD PUSH1 0x20 PUSH2 0x1690 PUSH0 CODECOPY PUSH0 MLOAD SWAP1 PUSH0 MSTORE SWAP1 DUP1 LOG4 PUSH1 0x1 SWAP1 JUMP JUMPDEST POP PUSH0 SWAP1 JUMP JUMPDEST PUSH1 0x1 PUSH1 0x1 PUSH1 0xA0 SHL SUB DUP2 AND PUSH0 SWAP1 DUP2 MSTORE PUSH0 MLOAD PUSH1 0x20 PUSH2 0x17B0 PUSH0 CODECOPY PUSH0 MLOAD SWAP1 PUSH0 MSTORE PUSH1 0x20 MSTORE PUSH1 0x40 SWAP1 KECCAK256 SLOAD PUSH1 0xFF AND PUSH2 0xFEB JUMPI PUSH1 0x1 PUSH1 0x1 PUSH1 0xA0 SHL SUB AND PUSH0 DUP2 DUP2 MSTORE PUSH0 MLOAD PUSH1 0x20 PUSH2 0x17B0 PUSH0 CODECOPY PUSH0 MLOAD SWAP1 PUSH0 MSTORE PUSH1 0x20 MSTORE PUSH1 0x40 DUP2 KECCAK256 DUP1 SLOAD PUSH1 0xFF NOT AND PUSH1 0x1 OR SWAP1 SSTORE CALLER SWAP2 SWAP1 PUSH0 MLOAD PUSH1 0x20 PUSH2 0x1790 PUSH0 CODECOPY PUSH0 MLOAD SWAP1 PUSH0 MSTORE SWAP1 PUSH0 MLOAD PUSH1 0x20 PUSH2 0x1690 PUSH0 CODECOPY PUSH0 MLOAD SWAP1 PUSH0 MSTORE SWAP1 DUP1 LOG4 PUSH1 0x1 SWAP1 JUMP JUMPDEST PUSH1 0x1 PUSH1 0x1 PUSH1 0xA0 SHL SUB DUP2 AND PUSH0 SWAP1 DUP2 MSTORE PUSH0 MLOAD PUSH1 0x20 PUSH2 0x1830 PUSH0 CODECOPY PUSH0 MLOAD SWAP1 PUSH0 MSTORE PUSH1 0x20 MSTORE PUSH1 0x40 SWAP1 KECCAK256 SLOAD PUSH1 0xFF AND PUSH2 0xFEB JUMPI PUSH1 0x1 PUSH1 0x1 PUSH1 0xA0 SHL SUB AND PUSH0 DUP2 DUP2 MSTORE PUSH0 MLOAD PUSH1 0x20 PUSH2 0x1830 PUSH0 CODECOPY PUSH0 MLOAD SWAP1 PUSH0 MSTORE PUSH1 0x20 MSTORE PUSH1 0x40 DUP2 KECCAK256 DUP1 SLOAD PUSH1 0xFF NOT AND PUSH1 0x1 OR SWAP1 SSTORE CALLER SWAP2 SWAP1 PUSH0 MLOAD PUSH1 0x20 PUSH2 0x17D0 PUSH0 CODECOPY PUSH0 MLOAD SWAP1 PUSH0 MSTORE SWAP1 PUSH0 MLOAD PUSH1 0x20 PUSH2 0x1690 PUSH0 CODECOPY PUSH0 MLOAD SWAP1 PUSH0 MSTORE SWAP1 DUP1 LOG4 PUSH1 0x1 SWAP1 JUMP JUMPDEST PUSH1 0x1 PUSH1 0x1 PUSH1 0xA0 SHL SUB DUP2 AND PUSH0 SWAP1 DUP2 MSTORE PUSH0 MLOAD PUSH1 0x20 PUSH2 0x1750 PUSH0 CODECOPY PUSH0 MLOAD SWAP1 PUSH0 MSTORE PUSH1 0x20 MSTORE PUSH1 0x40 SWAP1 KECCAK256 SLOAD PUSH1 0xFF AND PUSH2 0xFEB JUMPI PUSH1 0x1 PUSH1 0x1 PUSH1 0xA0 SHL SUB AND PUSH0 DUP2 DUP2 MSTORE PUSH0 MLOAD PUSH1 0x20 PUSH2 0x1750 PUSH0 CODECOPY PUSH0 MLOAD SWAP1 PUSH0 MSTORE PUSH1 0x20 MSTORE PUSH1 0x40 DUP2 KECCAK256 DUP1 SLOAD PUSH1 0xFF NOT AND PUSH1 0x1 OR SWAP1 SSTORE CALLER SWAP2 SWAP1 PUSH0 MLOAD PUSH1 0x20 PUSH2 0x1710 PUSH0 CODECOPY PUSH0 MLOAD SWAP1 PUSH0 MSTORE SWAP1 PUSH0 MLOAD PUSH1 0x20 PUSH2 0x1690 PUSH0 CODECOPY PUSH0 MLOAD SWAP1 PUSH0 MSTORE SWAP1 DUP1 LOG4 PUSH1 0x1 SWAP1 JUMP JUMPDEST PUSH1 0x1 PUSH1 0x1 PUSH1 0xA0 SHL SUB DUP2 AND PUSH0 SWAP1 DUP2 MSTORE PUSH0 MLOAD PUSH1 0x20 PUSH2 0x1730 PUSH0 CODECOPY PUSH0 MLOAD SWAP1 PUSH0 MSTORE PUSH1 0x20 MSTORE PUSH1 0x40 SWAP1 KECCAK256 SLOAD PUSH1 0xFF AND PUSH2 0xFEB JUMPI PUSH1 0x1 PUSH1 0x1 PUSH1 0xA0 SHL SUB AND PUSH0 DUP2 DUP2 MSTORE PUSH0 MLOAD PUSH1 0x20 PUSH2 0x1730 PUSH0 CODECOPY PUSH0 MLOAD SWAP1 PUSH0 MSTORE PUSH1 0x20 MSTORE PUSH1 0x40 DUP2 KECCAK256 DUP1 SLOAD PUSH1 0xFF NOT AND PUSH1 0x1 OR SWAP1 SSTORE CALLER SWAP2 SWAP1 PUSH0 MLOAD PUSH1 0x20 PUSH2 0x16F0 PUSH0 CODECOPY PUSH0 MLOAD SWAP1 PUSH0 MSTORE SWAP1 PUSH0 MLOAD PUSH1 0x20 PUSH2 0x1690 PUSH0 CODECOPY PUSH0 MLOAD SWAP1 PUSH0 MSTORE SWAP1 DUP1 LOG4 PUSH1 0x1 SWAP1 JUMP JUMPDEST PUSH1 0x1 PUSH1 0x1 PUSH1 0xA0 SHL SUB DUP2 AND PUSH0 SWAP1 DUP2 MSTORE PUSH0 MLOAD PUSH1 0x20 PUSH2 0x16D0 PUSH0 CODECOPY PUSH0 MLOAD SWAP1 PUSH0 MSTORE PUSH1 0x20 MSTORE PUSH1 0x40 SWAP1 KECCAK256 SLOAD PUSH1 0xFF AND PUSH2 0xFEB JUMPI PUSH1 0x1 PUSH1 0x1 PUSH1 0xA0 SHL SUB AND PUSH0 DUP2 DUP2 MSTORE PUSH0 MLOAD PUSH1 0x20 PUSH2 0x16D0 PUSH0 CODECOPY PUSH0 MLOAD SWAP1 PUSH0 MSTORE PUSH1 0x20 MSTORE PUSH1 0x40 DUP2 KECCAK256 DUP1 SLOAD PUSH1 0xFF NOT AND PUSH1 0x1 OR SWAP1 SSTORE CALLER SWAP2 SWAP1 PUSH0 MLOAD PUSH1 0x20 PUSH2 0x1770 PUSH0 CODECOPY PUSH0 MLOAD SWAP1 PUSH0 MSTORE SWAP1 PUSH0 MLOAD PUSH1 0x20 PUSH2 0x1690 PUSH0 CODECOPY PUSH0 MLOAD SWAP1 PUSH0 MSTORE SWAP1 DUP1 LOG4 PUSH1 0x1 SWAP1 JUMP JUMPDEST PUSH0 DUP2 DUP2 MSTORE PUSH1 0x20 DUP2 DUP2 MSTORE PUSH1 0x40 DUP1 DUP4 KECCAK256 PUSH1 0x1 PUSH1 0x1 PUSH1 0xA0 SHL SUB DUP7 AND DUP5 MSTORE SWAP1 SWAP2 MSTORE SWAP1 KECCAK256 SLOAD PUSH1 0xFF AND PUSH2 0x12DF JUMPI PUSH0 DUP2 DUP2 MSTORE PUSH1 0x20 DUP2 DUP2 MSTORE PUSH1 0x40 DUP1 DUP4 KECCAK256 PUSH1 0x1 PUSH1 0x1 PUSH1 0xA0 SHL SUB SWAP6 SWAP1 SWAP6 AND DUP1 DUP5 MSTORE SWAP5 SWAP1 SWAP2 MSTORE DUP2 KECCAK256 DUP1 SLOAD PUSH1 0xFF NOT AND PUSH1 0x1 OR SWAP1 SSTORE CALLER SWAP3 SWAP2 SWAP1 PUSH0 MLOAD PUSH1 0x20 PUSH2 0x1690 PUSH0 CODECOPY PUSH0 MLOAD SWAP1 PUSH0 MSTORE SWAP1 DUP1 LOG4 PUSH1 0x1 SWAP1 JUMP JUMPDEST POP POP PUSH0 SWAP1 JUMP JUMPDEST PUSH1 0x1 PUSH1 0x1 PUSH1 0xA0 SHL SUB DUP2 AND PUSH0 SWAP1 DUP2 MSTORE PUSH0 MLOAD PUSH1 0x20 PUSH2 0x1830 PUSH0 CODECOPY PUSH0 MLOAD SWAP1 PUSH0 MSTORE PUSH1 0x20 MSTORE PUSH1 0x40 SWAP1 KECCAK256 SLOAD PUSH1 0xFF AND ISZERO PUSH2 0xFEB JUMPI PUSH1 0x1 PUSH1 0x1 PUSH1 0xA0 SHL SUB AND PUSH0 DUP2 DUP2 MSTORE PUSH0 MLOAD PUSH1 0x20 PUSH2 0x1830 PUSH0 CODECOPY PUSH0 MLOAD SWAP1 PUSH0 MSTORE PUSH1 0x20 MSTORE PUSH1 0x40 DUP2 KECCAK256 DUP1 SLOAD PUSH1 0xFF NOT AND SWAP1 SSTORE CALLER SWAP2 SWAP1 PUSH0 MLOAD PUSH1 0x20 PUSH2 0x17D0 PUSH0 CODECOPY PUSH0 MLOAD SWAP1 PUSH0 MSTORE SWAP1 PUSH0 MLOAD PUSH1 0x20 PUSH2 0x17F0 PUSH0 CODECOPY PUSH0 MLOAD SWAP1 PUSH0 MSTORE SWAP1 DUP1 LOG4 PUSH1 0x1 SWAP1 JUMP JUMPDEST PUSH1 0x1 PUSH1 0x1 PUSH1 0xA0 SHL SUB DUP2 AND PUSH0 SWAP1 DUP2 MSTORE PUSH0 MLOAD PUSH1 0x20 PUSH2 0x1750 PUSH0 CODECOPY PUSH0 MLOAD SWAP1 PUSH0 MSTORE PUSH1 0x20 MSTORE PUSH1 0x40 SWAP1 KECCAK256 SLOAD PUSH1 0xFF AND ISZERO PUSH2 0xFEB JUMPI PUSH1 0x1 PUSH1 0x1 PUSH1 0xA0 SHL SUB AND PUSH0 DUP2 DUP2 MSTORE PUSH0 MLOAD PUSH1 0x20 PUSH2 0x1750 PUSH0 CODECOPY PUSH0 MLOAD SWAP1 PUSH0 MSTORE PUSH1 0x20 MSTORE PUSH1 0x40 DUP2 KECCAK256 DUP1 SLOAD PUSH1 0xFF NOT AND SWAP1 SSTORE CALLER SWAP2 SWAP1 PUSH0 MLOAD PUSH1 0x20 PUSH2 0x1710 PUSH0 CODECOPY PUSH0 MLOAD SWAP1 PUSH0 MSTORE SWAP1 PUSH0 MLOAD PUSH1 0x20 PUSH2 0x17F0 PUSH0 CODECOPY PUSH0 MLOAD SWAP1 PUSH0 MSTORE SWAP1 DUP1 LOG4 PUSH1 0x1 SWAP1 JUMP JUMPDEST PUSH1 0x1 PUSH1 0x1 PUSH1 0xA0 SHL SUB DUP2 AND PUSH0 SWAP1 DUP2 MSTORE PUSH0 MLOAD PUSH1 0x20 PUSH2 0x16B0 PUSH0 CODECOPY PUSH0 MLOAD SWAP1 PUSH0 MSTORE PUSH1 0x20 MSTORE PUSH1 0x40 SWAP1 KECCAK256 SLOAD PUSH1 0xFF AND ISZERO PUSH2 0xFEB JUMPI PUSH1 0x1 PUSH1 0x1 PUSH1 0xA0 SHL SUB AND PUSH0 DUP2 DUP2 MSTORE PUSH0 MLOAD PUSH1 0x20 PUSH2 0x16B0 PUSH0 CODECOPY PUSH0 MLOAD SWAP1 PUSH0 MSTORE PUSH1 0x20 MSTORE PUSH1 0x40 DUP2 KECCAK256 DUP1 SLOAD PUSH1 0xFF NOT AND SWAP1 SSTORE CALLER SWAP2 SWAP1 PUSH0 MLOAD PUSH1 0x20 PUSH2 0x1810 PUSH0 CODECOPY PUSH0 MLOAD SWAP1 PUSH0 MSTORE SWAP1 PUSH0 MLOAD PUSH1 0x20 PUSH2 0x17F0 PUSH0 CODECOPY PUSH0 MLOAD SWAP1 PUSH0 MSTORE SWAP1 DUP1 LOG4 PUSH1 0x1 SWAP1 JUMP JUMPDEST PUSH1 0x1 PUSH1 0x1 PUSH1 0xA0 SHL SUB DUP2 AND PUSH0 SWAP1 DUP2 MSTORE PUSH0 MLOAD PUSH1 0x20 PUSH2 0x1730 PUSH0 CODECOPY PUSH0 MLOAD SWAP1 PUSH0 MSTORE PUSH1 0x20 MSTORE PUSH1 0x40 SWAP1 KECCAK256 SLOAD PUSH1 0xFF AND ISZERO PUSH2 0xFEB JUMPI PUSH1 0x1 PUSH1 0x1 PUSH1 0xA0 SHL SUB AND PUSH0 DUP2 DUP2 MSTORE PUSH0 MLOAD PUSH1 0x20 PUSH2 0x1730 PUSH0 CODECOPY PUSH0 MLOAD SWAP1 PUSH0 MSTORE PUSH1 0x20 MSTORE PUSH1 0x40 DUP2 KECCAK256 DUP1 SLOAD PUSH1 0xFF NOT AND SWAP1 SSTORE CALLER SWAP2 SWAP1 PUSH0 MLOAD PUSH1 0x20 PUSH2 0x16F0 PUSH0 CODECOPY PUSH0 MLOAD SWAP1 PUSH0 MSTORE SWAP1 PUSH0 MLOAD PUSH1 0x20 PUSH2 0x17F0 PUSH0 CODECOPY PUSH0 MLOAD SWAP1 PUSH0 MSTORE SWAP1 DUP1 LOG4 PUSH1 0x1 SWAP1 JUMP JUMPDEST PUSH1 0x1 PUSH1 0x1 PUSH1 0xA0 SHL SUB DUP2 AND PUSH0 SWAP1 DUP2 MSTORE PUSH0 MLOAD PUSH1 0x20 PUSH2 0x17B0 PUSH0 CODECOPY PUSH0 MLOAD SWAP1 PUSH0 MSTORE PUSH1 0x20 MSTORE PUSH1 0x40 SWAP1 KECCAK256 SLOAD PUSH1 0xFF AND ISZERO PUSH2 0xFEB JUMPI PUSH1 0x1 PUSH1 0x1 PUSH1 0xA0 SHL SUB AND PUSH0 DUP2 DUP2 MSTORE PUSH0 MLOAD PUSH1 0x20 PUSH2 0x17B0 PUSH0 CODECOPY PUSH0 MLOAD SWAP1 PUSH0 MSTORE PUSH1 0x20 MSTORE PUSH1 0x40 DUP2 KECCAK256 DUP1 SLOAD PUSH1 0xFF NOT AND SWAP1 SSTORE CALLER SWAP2 SWAP1 PUSH0 MLOAD PUSH1 0x20 PUSH2 0x1790 PUSH0 CODECOPY PUSH0 MLOAD SWAP1 PUSH0 MSTORE SWAP1 PUSH0 MLOAD PUSH1 0x20 PUSH2 0x17F0 PUSH0 CODECOPY PUSH0 MLOAD SWAP1 PUSH0 MSTORE SWAP1 DUP1 LOG4 PUSH1 0x1 SWAP1 JUMP JUMPDEST PUSH1 0x1 PUSH1 0x1 PUSH1 0xA0 SHL SUB DUP2 AND PUSH0 SWAP1 DUP2 MSTORE PUSH0 MLOAD PUSH1 0x20 PUSH2 0x16D0 PUSH0 CODECOPY PUSH0 MLOAD SWAP1 PUSH0 MSTORE PUSH1 0x20 MSTORE PUSH1 0x40 SWAP1 KECCAK256 SLOAD PUSH1 0xFF AND ISZERO PUSH2 0xFEB JUMPI PUSH1 0x1 PUSH1 0x1 PUSH1 0xA0 SHL SUB AND PUSH0 DUP2 DUP2 MSTORE PUSH0 MLOAD PUSH1 0x20 PUSH2 0x16D0 PUSH0 CODECOPY PUSH0 MLOAD SWAP1 PUSH0 MSTORE PUSH1 0x20 MSTORE PUSH1 0x40 DUP2 KECCAK256 DUP1 SLOAD PUSH1 0xFF NOT AND SWAP1 SSTORE CALLER SWAP2 SWAP1 PUSH0 MLOAD PUSH1 0x20 PUSH2 0x1770 PUSH0 CODECOPY PUSH0 MLOAD SWAP1 PUSH0 MSTORE SWAP1 PUSH0 MLOAD PUSH1 0x20 PUSH2 0x17F0 PUSH0 CODECOPY PUSH0 MLOAD SWAP1 PUSH0 MSTORE SWAP1 DUP1 LOG4 PUSH1 0x1 SWAP1 JUMP JUMPDEST PUSH0 DUP2 DUP2 MSTORE PUSH1 0x20 DUP2 DUP2 MSTORE PUSH1 0x40 DUP1 DUP4 KECCAK256 PUSH1 0x1 PUSH1 0x1 PUSH1 0xA0 SHL SUB DUP7 AND DUP5 MSTORE SWAP1 SWAP2 MSTORE SWAP1 KECCAK256 SLOAD PUSH1 0xFF AND ISZERO PUSH2 0x12DF JUMPI PUSH0 DUP2 DUP2 MSTORE PUSH1 0x20 DUP2 DUP2 MSTORE PUSH1 0x40 DUP1 DUP4 KECCAK256 PUSH1 0x1 PUSH1 0x1 PUSH1 0xA0 SHL SUB SWAP6 SWAP1 SWAP6 AND DUP1 DUP5 MSTORE SWAP5 SWAP1 SWAP2 MSTORE DUP2 KECCAK256 DUP1 SLOAD PUSH1 0xFF NOT AND SWAP1 SSTORE CALLER SWAP3 SWAP2 SWAP1 PUSH0 MLOAD PUSH1 0x20 PUSH2 0x17F0 PUSH0 CODECOPY PUSH0 MLOAD SWAP1 PUSH0 MSTORE SWAP1 DUP1 LOG4 PUSH1 0x1 SWAP1 JUMP JUMPDEST CALLER PUSH0 SWAP1 DUP2 MSTORE PUSH0 MLOAD PUSH1 0x20 PUSH2 0x16D0 PUSH0 CODECOPY PUSH0 MLOAD SWAP1 PUSH0 MSTORE PUSH1 0x20 MSTORE PUSH1 0x40 SWAP1 KECCAK256 SLOAD PUSH1 0xFF AND ISZERO PUSH2 0x166B JUMPI JUMP JUMPDEST PUSH4 0xE2517D3F PUSH1 0xE0 SHL PUSH0 MSTORE CALLER PUSH1 0x4 MSTORE PUSH0 MLOAD PUSH1 0x20 PUSH2 0x1770 PUSH0 CODECOPY PUSH0 MLOAD SWAP1 PUSH0 MSTORE PUSH1 0x24 MSTORE PUSH1 0x44 PUSH0 REVERT INVALID 0x2F DUP8 DUP9 GT PUSH31 0x7EFF1D82E926EC794901D17C78024A50270940304540A733656F0D8A40F0B4 PUSH32 0xDC2A0CE293B772ACFC7508C8315A4D462786C1ADC3A56F92CA2D056F3B488CAA 0xD 0xC0 RETURNDATACOPY PUSH0 RETURNDATASIZE SWAP16 0xD6 LOG2 PUSH0 0xA8 PUSH22 0x5AFCFD62CCFFB6E436C696BFA6B866DE91F4ACB4E22D DUP9 0x4D 0xDD MLOAD 0xFC PUSH18 0x554726EBE920375DA6F1520C331DA617E418 SLT PUSH2 0xB00B 0xE3 0xD6 0xA5 NUMBER 0x4B SWAP8 0xB3 0x28 SLOAD RETURNDATASIZE EQ DUP7 0xD5 PUSH11 0xDCB7E74080170D1CDD7E03 MOD 0xC3 0xD9 0xBA RETURNDATASIZE SWAP16 GASLIMIT 0xDF DIV 0xCE ADD LOG4 PUSH16 0xD32F5F8558D04C34E1B7F86B53E6548D PUSH3 0x6D40D0 SWAP14 EXP ADDRESS BLOBBASEFEE GASLIMIT CALLDATALOAD 0xDD POP SGT CALLCODE DUP16 SELFDESTRUCT MOD 0x4E PUSH30 0xE1C0DDF5A8936F931A6EE9D5EF728652E316088F3F7935BD0AE54BC31F54 DUP13 EQ 0xDB LOG4 0xD3 PUSH29 0x5C64B3F8CA900CB468FB8ABD54D5894F55025D8BBF3268BE680D2605EB 0xF6 0xDA ISZERO MOD EXTCODESIZE SWAP10 ISZERO PUSH2 0x5BF1 ADDMOD PUSH30 0xAB336EFC1BF970CB990669D3503EEE76D7D1115BDA8B69D54719D289B9AA 0xBC ADDMOD 0xA7 0xEC PUSH8 0xCA29331CB60D1866 DUP9 SWAP3 MSIZE PUSH23 0xBBE6755AE984501C8E3E2B103A7AF59FD803AB9C6D891A 0xE7 0xE0 0xF6 CODECOPY 0x1F TLOAD ORIGIN 0xD9 0xC6 SWAP14 0x2A SELFBALANCE 0xEA PUSH8 0xB442974B53935D1 0xED 0xC7 REVERT PUSH5 0xEB21E047A8 CODECOPY OR SHL SSTORE NUMBER TSTORE 0xD2 PUSH2 0xA4B9 0xB3 CALLDATASIZE BLOBHASH PUSH4 0xF7738A7A PUSH7 0x2AD9C84396D64B 0xE3 CALLDATASIZE MSTORE DUP5 0xBB PUSH32 0xA5041C742CB36AA3EADB553C6DFEE24901A50D6D8E6A294DDB4DE13E076EC7E PUSH14 0x776FA2646970667358221220DC0E 0xD1 0x28 DUP7 0x4C JUMPDEST PUSH30 0x7E5B822EA6CAEDE5E81FEC99CDF56ED07B7E8B04EEF51C1364736F6C6343 STOP ADDMOD SHR STOP CALLER PUSH16 0x3B488CAA0DC03E5F3D9FD6A25FA8755A 0xFC REVERT PUSH3 0xCCFFB6 0xE4 CALLDATASIZE 0xC6 SWAP7 0xBF 0xA6 0xB8 PUSH7 0xDE000000000000 "
        },
        "methodIdentifiers": {
          "ADMIRALS_QUARTERS_ROLE()": "a89f38a3",
          "DECAY_CONTROLLER_ROLE()": "c0b534c2",
          "DEFAULT_ADMIN_ROLE()": "a217fddf",
          "FOUNDATION_ROLE()": "e66fd9ef",
          "GOVERNOR_ROLE()": "ccc57490",
          "GUARDIAN_ROLE()": "24ea54f4",
          "MAX_GUARDIAN_EXPIRY()": "067757ba",
          "MIN_GUARDIAN_EXPIRY()": "d6d5f76f",
          "SUPER_KEEPER_ROLE()": "66e943f1",
          "generateRole(uint8,address)": "69b3054b",
          "getGuardianExpiration(address)": "aef7c5df",
          "getRoleAdmin(bytes32)": "248a9ca3",
          "grantAdmiralsQuartersRole(address)": "851ecbfd",
          "grantCommanderRole(address,address)": "1981b9a7",
          "grantContractSpecificRole(uint8,address,address)": "2a25d142",
          "grantCuratorRole(address,address)": "e9eea177",
          "grantDecayControllerRole(address)": "1deb14aa",
          "grantFoundationRole(address)": "daa2f231",
          "grantGovernorRole(address)": "e4dd1dca",
          "grantGuardianRole(address)": "10e7b489",
          "grantKeeperRole(address,address)": "66ebbf74",
          "grantRole(bytes32,address)": "2f2ff15d",
          "grantSuperKeeperRole(address)": "2da51722",
          "guardianExpirations(address)": "262a7f77",
          "hasRole(bytes32,address)": "91d14854",
          "isActiveGuardian(address)": "f99ab9f8",
          "renounceRole(bytes32,address)": "36568abe",
          "revokeAdmiralsQuartersRole(address)": "26088717",
          "revokeCommanderRole(address,address)": "53b53813",
          "revokeContractSpecificRole(uint8,address,address)": "7adac90d",
          "revokeCuratorRole(address,address)": "e9296665",
          "revokeDecayControllerRole(address)": "7820bd84",
          "revokeFoundationRole(address)": "6fd6313f",
          "revokeGovernorRole(address)": "fb914c39",
          "revokeGuardianRole(address)": "4b4b5389",
          "revokeKeeperRole(address,address)": "4cfa6107",
          "revokeRole(bytes32,address)": "d547741f",
          "revokeSuperKeeperRole(address)": "1bacdb34",
          "selfRevokeContractSpecificRole(uint8,address)": "d55dd62b",
          "setGuardianExpiration(address,uint256)": "f5d4b6de",
          "supportsInterface(bytes4)": "01ffc9a7"
        }
      }
    }
  }
}