{
  "_format": "hh-sol-artifact-1",
  "contractName": "FleetCommanderRewardsManagerFactory",
  "sourceName": "src/contracts/FleetCommanderRewardsManagerFactory.sol",
  "abi": [
    {
      "inputs": [],
      "stateMutability": "nonpayable",
      "type": "constructor"
    },
    {
      "anonymous": false,
      "inputs": [
        {
          "indexed": true,
          "internalType": "address",
          "name": "rewardsManager",
          "type": "address"
        },
        {
          "indexed": true,
          "internalType": "address",
          "name": "fleetCommander",
          "type": "address"
        }
      ],
      "name": "RewardsManagerCreated",
      "type": "event"
    },
    {
      "inputs": [
        {
          "internalType": "address",
          "name": "accessManager",
          "type": "address"
        },
        {
          "internalType": "address",
          "name": "fleetCommander",
          "type": "address"
        }
      ],
      "name": "createRewardsManager",
      "outputs": [
        {
          "internalType": "address",
          "name": "",
          "type": "address"
        }
      ],
      "stateMutability": "nonpayable",
      "type": "function"
    }
  ],
  "bytecode": "0x60808060405234601557611deb908161001a8239f35b5f80fdfe60808060405260043610156011575f80fd5b5f3560e01c630f07f829146023575f80fd5b3460e857604036600319011260e8576004356001600160a01b038116919082900360e8576024356001600160a01b038116929083900360e857611cc980830183811067ffffffffffffffff82111760d45760409284926100ed843981528460208201520301905ff090811560c95760209160018060a01b031660405191817f0b3397f9446e8b85cf96fe3194aeec84e2fd23ab014cf85f82805b36aef207aa5f80a38152f35b6040513d5f823e3d90fd5b634e487b7160e01b5f52604160045260245ffd5b5f80fdfe60e0806040523461013957604081611cc9803803809161001f8285610163565b8339810103126101395761003e60206100378361019a565b920161019a565b906001600160a01b03168015610150576040516301ffc9a760e01b815263261c910560e21b6004820152602081602481855afa908115610145575f91610106575b50156100f45760805260c08190526001600160a01b031660a052604051611b1a90816101af82396080518181816105dc01528181610d68015281816110c2015261144b015260a05181818161062e015281816108c901528181611710015261177a015260c05181818161031e0152610a9c0152f35b6347bd7c1d60e01b5f5260045260245ffd5b90506020813d60201161013d575b8161012160209383610163565b8101031261013957518015158103610139575f61007f565b5f80fd5b3d9150610114565b6040513d5f823e3d90fd5b6347bd7c1d60e01b5f525f60045260245ffd5b601f909101601f19168101906001600160401b0382119082101761018657604052565b634e487b7160e01b5f52604160045260245ffd5b51906001600160a01b03821682036101395756fe60806040526004361015610011575f80fd5b5f3560e01c8063055de275146111e057806318160ddd146111c3578063211dc32d146111975780632378bea61461107457806324ea54f41461103a5780632e17de78146110135780633d18b91214610f515780633d509c9714610d2157806348e5d9f814610cbd5780635eeb2e0f14610be2578063638634ee14610bbf578063647654b414610a1b57806366e943f1146109e157806369b3054b146109805780637035ab981461093057806370a08231146108f857806372f702f3146108b45780637bb7bed114610864578063a3cd8ac414610586578063a694fc3a1461055f578063a89f38a314610525578063b5fd73f8146104ed578063bcd11014146104ca578063bf199e62146104ae578063c00007b0146103dd578063c0b534c2146103a3578063ccc574901461037c578063cecc238f1461034d578063e24bf4fe14610309578063e70b9e27146102b9578063e9fad8ee146101e0578063ebc136d0146101b35763f122977714610184575f80fd5b346101af5760203660031901126101af5760206101a76101a26112b6565b6114a7565b604051908152f35b5f80fd5b346101af5760203660031901126101af5760206101d66101d16112b6565b6113fb565b6040519015158152f35b346101af575f3660031901126101af576101f8611535565b5f805433915b81811061022e575f5f516020611ac55f395f51905f525d335f52600660205261022c60405f205433336116af565b005b8061023a600192611840565b838060a01b0391549060031b1c16610251336115f6565b805f52600460205260405f20855f5260205260405f205480610276575b5050016101fe565b815f52600460205260405f20865f526020525f604081205561029981338461187f565b6040519081525f516020611a855f395f51905f5260203392a3848061026e565b346101af5760403660031901126101af576102d26112b6565b6102da6112cc565b6001600160a01b039182165f908152600460209081526040808320949093168252928352819020549051908152f35b346101af575f3660031901126101af576040517f00000000000000000000000000000000000000000000000000000000000000006001600160a01b03168152602090f35b346101af5760403660031901126101af5761022c6103696112b6565b610372816115f6565b602435903361175f565b346101af575f3660031901126101af5760206040515f516020611aa55f395f51905f528152f35b346101af575f3660031901126101af5760206040517f025d8bbf3268be680d2605ebf6da15063b9915615bf1087dab336efc1bf970cb8152f35b346101af5760203660031901126101af576103f66112b6565b6103fe611535565b6001600160a01b03165f818152600160205260409020541561049f57610423336115f6565b5f81815260046020908152604080832033845290915290205480610454575b5f5f516020611ac55f395f51905f525d005b815f52600460205260405f2060018060a01b0333165f526020525f604081205561047f81338461187f565b6040519081525f516020611a855f395f51905f5260203392a38080610442565b63064fed9960e31b5f5260045ffd5b346101af575f3660031901126101af5760205f54604051908152f35b346101af5760203660031901126101af5760206101a76104e86112b6565b6113a0565b346101af5760203660031901126101af5760206101d66001600160a01b036105136112b6565b165f52600160205260405f2054151590565b346101af575f3660031901126101af5760206040517fb00be3d6a5434b97b328543d1486d56adcb7e74080170d1cdd7e0306c3d9ba3d8152f35b346101af5760203660031901126101af57610579336115f6565b61022c600435333361175f565b346101af5760603660031901126101af5761059f6112b6565b6024359060443591604051632474521560e21b81525f516020611aa55f395f51905f52600482015233602482015260208160448160018060a01b037f0000000000000000000000000000000000000000000000000000000000000000165afa908115610859575f9161082a575b5015610817575f545f5b8181106107cf5750506001600160a01b0382811693907f00000000000000000000000000000000000000000000000000000000000000001684146107c057835f52600260205260405f209281156107b1576301da9c0082116107a257610687855f52600160205260405f2054151590565b1561073b575060028301540361072c575b6106a481303386611997565b670de0b6b3a7640000810290808204670de0b6b3a76400001481151715610718578261070d6020936106fc60027fac24935fd910bc682b5ccb1a07b718cadf8cf2f6d1404c4f3ddc3662dae40e299701548092611375565b60018401554260038401554261149a565b9055604051908152a2005b634e487b7160e01b5f52601160045260245ffd5b6333fec8c760e21b5f5260045ffd5b9061074585611a33565b156107935760028401819055604080516001600160a01b0393909316835260208301919091527f68e3e9397770d9dfa88c0953a34e1a70a05416b3895957f5b689787a920791c491a1610698565b632b3d7ad960e01b5f5260045ffd5b631fb7569160e21b5f5260045ffd5b637ffcfc9f60e11b5f5260045ffd5b6303b66bab60e31b5f5260045ffd5b806107db600192611840565b838060a01b0391549060031b1c16805f526002602052600361080e60405f2092610804816114a7565b6004850155611330565b91015501610616565b630ea7d7ed60e21b5f523360045260245ffd5b61084c915060203d602011610852575b61084481836112e2565b810190611318565b8461060c565b503d61083a565b6040513d5f823e3d90fd5b346101af5760203660031901126101af576004355f548110156108a55761088c602091611840565b905460405160039290921b1c6001600160a01b03168152f35b634e23d03560e01b5f5260045ffd5b346101af575f3660031901126101af576040517f00000000000000000000000000000000000000000000000000000000000000006001600160a01b03168152602090f35b346101af5760203660031901126101af576001600160a01b036109196112b6565b165f526006602052602060405f2054604051908152f35b346101af5760403660031901126101af576109496112b6565b6109516112cc565b6001600160a01b039182165f908152600360209081526040808320949093168252928352819020549051908152f35b346101af5760403660031901126101af5760043560038110156101af576020906109a86112cc565b604051908382019260f81b835260018060601b03199060601b166021820152601581526109d66035826112e2565b519020604051908152f35b346101af575f3660031901126101af5760206040517f0d186688925976bbe6755ae984501c8e3e2b103a7af59fd803ab9c6d891ae7e08152f35b346101af5760603660031901126101af57610a346112b6565b6024359060443580151581036101af57610a4d826115f6565b6001600160a01b038216923384141580610baf575b610ba057610a718130856116af565b604051635d043b2960e11b81526004810191909152602481018490523060448201526020816064815f7f00000000000000000000000000000000000000000000000000000000000000006001600160a01b03165af1801561085957610b71575b50610ad857005b5f54905f5b828110610ae657005b80610af2600192611840565b838060a01b0391549060031b1c16610b09846115f6565b805f52600460205260405f20865f526020528560405f205480610b30575b50505001610add565b60205f516020611a855f395f51905f5291845f526004825260405f20845f5282525f6040812055610b6281898761187f565b604051908152a3858581610b27565b6020813d602011610b98575b81610b8a602093836112e2565b810103126101af5751610ad1565b3d9150610b7d565b638e866cef60e01b5f5260045ffd5b50610bb9336113fb565b15610a62565b346101af5760203660031901126101af5760206101a7610bdd6112b6565b611330565b346101af5760403660031901126101af57610bfb6112b6565b610c036112cc565b610c0b611535565b6001600160a01b03165f818152600160205260409020549091901561049f57610c33816115f6565b815f52600460205260405f2060018060a01b0382165f5260205260405f20549081610c6a575f5f516020611ac55f395f51905f525d005b60205f516020611a855f395f51905f5291845f526004825260405f2060018060a01b0382165f5282525f6040812055610ca484828761187f565b6040519384526001600160a01b031692a3808080610442565b346101af5760203660031901126101af576001600160a01b03610cde6112b6565b165f52600260205260a060405f20805490600181015490600281015460046003830154920154926040519485526020850152604084015260608301526080820152f35b346101af5760203660031901126101af57610d3a6112b6565b604051632474521560e21b81525f516020611aa55f395f51905f5260048201523360248201526020816044817f00000000000000000000000000000000000000000000000000000000000000006001600160a01b03165afa908115610859575f91610f32575b5015610817576001600160a01b03165f818152600160205260409020541561049f57805f52600260205260405f2054421115610f23576040516370a0823160e01b8152306004820152602081602481855afa908115610859575f91610ef1575b5060405163313ce56760e01b8152602081600481865afa5f9181610eb3575b50610e815750655af3107a40005b8111610e6f5750610e3d816118c2565b1561049f5760207f66257bcef574219c04f7c05f7a1c78d599da10491294c92a5805c48b4cdf500991604051908152a1005b633007cea360e01b5f5260045260245ffd5b60ff1660048111610e9457506001610e2d565b6003190160ff81116107185760ff16604d811161071857600a0a610e2d565b9091506020813d602011610ee9575b81610ecf602093836112e2565b810103126101af575160ff811681036101af579084610e1f565b3d9150610ec2565b90506020813d602011610f1b575b81610f0c602093836112e2565b810103126101af575182610e00565b3d9150610eff565b63d9ba1add60e01b5f5260045ffd5b610f4b915060203d6020116108525761084481836112e2565b82610da0565b346101af575f3660031901126101af57610f69611535565b5f805433915b818110610f88575f5f516020611ac55f395f51905f525d005b80610f94600192611840565b838060a01b0391549060031b1c16610fab336115f6565b805f52600460205260405f20855f5260205260405f205480610fd0575b505001610f6f565b815f52600460205260405f20865f526020525f6040812055610ff381338461187f565b6040519081525f516020611a855f395f51905f5260203392a38480610fc8565b346101af5760203660031901126101af5761102d336115f6565b61022c60043533336116af565b346101af575f3660031901126101af5760206040517f55435dd261a4b9b3364963f7738a7a662ad9c84396d64be3365284bb7f0a50418152f35b346101af5760403660031901126101af5761108d6112b6565b604051632474521560e21b81525f516020611aa55f395f51905f526004820152336024828101919091523591906020816044817f00000000000000000000000000000000000000000000000000000000000000006001600160a01b03165afa908115610859575f91611178575b5015610817576001600160a01b03165f818152600160205260409020549091901561049f5780156107b1576301da9c0081116107a257815f52600260205260405f208054421115610f2357817fad2f86b01ed93b4b3a150d448c61a4f5d8d38075d3c0c64cc0a26fd6e1f495459260026020930155604051908152a2005b611191915060203d6020116108525761084481836112e2565b836110fa565b346101af5760403660031901126101af5760206101a76111b56112b6565b6111bd6112cc565b9061156a565b346101af575f3660031901126101af576020600554604051908152f35b346101af5760203660031901126101af576111f96112b6565b611201611535565b5f80546001600160a01b0383169290915b82811061122b575f5f516020611ac55f395f51905f525d005b80611237600192611840565b838060a01b0391549060031b1c1661124e846115f6565b805f52600460205260405f20865f526020528560405f205480611275575b50505001611212565b60205f516020611a855f395f51905f5291845f526004825260405f20845f5282525f60408120556112a781898761187f565b604051908152a385858161126c565b600435906001600160a01b03821682036101af57565b602435906001600160a01b03821682036101af57565b90601f8019910116810190811067ffffffffffffffff82111761130457604052565b634e487b7160e01b5f52604160045260245ffd5b908160209103126101af575180151581036101af5790565b6001600160a01b03165f8181526002602052604090205442101561135357504290565b5f52600260205260405f205490565b8181029291811591840414171561071857565b811561137f570490565b634e487b7160e01b5f52601260045260245ffd5b9190820391821161071857565b6001600160a01b03165f9081526002602052604090208054670de0b6b3a764000091428211156113e65760016113da6113e2934290611393565b910154611362565b0490565b6113e291506002600182015491015490611362565b604051632474521560e21b81527fb00be3d6a5434b97b328543d1486d56adcb7e74080170d1cdd7e0306c3d9ba3d60048201526001600160a01b03918216602482015290602090829060449082907f0000000000000000000000000000000000000000000000000000000000000000165afa908115610859575f9161147e575090565b611497915060203d6020116108525761084481836112e2565b90565b9190820180921161071857565b600554801561151757906115116114979261150c60018060a01b038416805f5260026020526114f66114e0600460405f20015496611330565b825f526002602052600360405f20015490611393565b905f526002602052600160405f20015490611362565b611375565b9061149a565b506001600160a01b03165f9081526002602052604090206004015490565b5f516020611ac55f395f51905f525c61155b5760015f516020611ac55f395f51905f525d565b633ee5aeb560e01b5f5260045ffd5b906114979160018060a01b0381165f526006602052670de0b6b3a76400006115d060405f20546115ca61159c866114a7565b6001600160a01b039687165f8181526003602090815260408083209a8a168352999052979097205490611393565b90611362565b04915f52600460205260405f209060018060a01b03165f5260205260405f20549061149a565b5f54905f5b82811061160757505050565b80611613600192611840565b838060a01b0391549060031b1c16805f52600260205260405f20611636826114a7565b9060048101918255600361164984611330565b910155838060a01b038516611661575b5050016115fb565b61166b828661156a565b825f52600460205260405f20858060a01b0387165f5260205260405f205554905f52600360205260405f20838060a01b0385165f5260205260405f20555f80611659565b82156117505760207fd8654fcc8cf5b36d30b3f5e4688fc78118e6d68de60b9994e09902268b57c3e3916116e585600554611393565b60055560018060a01b031692835f526006825260405f20611707868254611393565b905561173d85827f00000000000000000000000000000000000000000000000000000000000000006001600160a01b031661187f565b6040519485526001600160a01b031693a3565b6310356e5960e21b5f5260045ffd5b6001600160a01b0390911691908215611831578115611822577f00000000000000000000000000000000000000000000000000000000000000006001600160a01b03168015611813577f5dac0c1b1112564a045ba943c9d50270893e8e826c49be8e7073adc713ab7bd791611800846020936117dd8260055461149a565b600555875f526006855260405f206117f683825461149a565b9055833091611997565b6040519384526001600160a01b031692a3565b63417198d360e01b5f5260045ffd5b636a76ff9f60e01b5f5260045ffd5b63da52720960e01b5f5260045ffd5b5f54811015611856575f805260205f2001905f90565b634e487b7160e01b5f52603260045260245ffd5b8054821015611856575f5260205f2001905f90565b60405163a9059cbb60e01b60208201526001600160a01b039290921660248301526044808301939093529181526118c0916118bb6064836112e2565b6119db565b565b5f818152600160205260409020548015611991575f198101818111610718575f545f1981019190821161071857818103611945575b5050505f548015611931575f190161190f815f61186a565b8154905f199060031b1b191690555f555f5260016020525f6040812055600190565b634e487b7160e01b5f52603160045260245ffd5b61197b611955611965935f61186a565b90549060031b1c9283925f61186a565b819391549060031b91821b915f19901b19161790565b90555f52600160205260405f20555f80806118f7565b50505f90565b6040516323b872dd60e01b60208201526001600160a01b0392831660248201529290911660448301526064808301939093529181526118c0916118bb6084836112e2565b905f602091828151910182855af115610859575f513d611a2a57506001600160a01b0381163b155b611a0a5750565b635274afe760e01b5f9081526001600160a01b0391909116600452602490fd5b60011415611a03565b805f52600160205260405f2054155f14611a7f575f54600160401b81101561130457611a696119658260018594015f555f61186a565b90555f54905f52600160205260405f2055600190565b505f9056fe540798df468d7b23d11f156fdb954cb19ad414d150722a7b6d55ba369dea792e7935bd0ae54bc31f548c14dba4d37c5c64b3f8ca900cb468fb8abd54d5894f559b779b17422d0df92223018b32b4d1fa46e071723d6817e2486d003becc55f00a26469706673582212205cefa826478424526656b628e969a6398067d157451f039937e52f031cb2632f64736f6c634300081c0033a2646970667358221220a47cd46281d81bf6a87e31c660716891d5cf2064acd13522dde82d032dcf3b6564736f6c634300081c0033",
  "linkReferences": {},
  "deployedLinkReferences": {}
}