{
  "_format": "hh-sol-artifact-1",
  "contractName": "SummerToken",
  "sourceName": "src/contracts/SummerToken.sol",
  "abi": [
    {
      "inputs": [
        {
          "components": [
            {
              "internalType": "string",
              "name": "name",
              "type": "string"
            },
            {
              "internalType": "string",
              "name": "symbol",
              "type": "string"
            },
            {
              "internalType": "address",
              "name": "lzEndpoint",
              "type": "address"
            },
            {
              "internalType": "address",
              "name": "initialOwner",
              "type": "address"
            },
            {
              "internalType": "address",
              "name": "accessManager",
              "type": "address"
            },
            {
              "internalType": "uint256",
              "name": "maxSupply",
              "type": "uint256"
            },
            {
              "internalType": "uint256",
              "name": "transferEnableDate",
              "type": "uint256"
            },
            {
              "internalType": "uint32",
              "name": "hubChainId",
              "type": "uint32"
            }
          ],
          "internalType": "struct ISummerToken.ConstructorParams",
          "name": "params",
          "type": "tuple"
        }
      ],
      "stateMutability": "nonpayable",
      "type": "constructor"
    },
    {
      "inputs": [],
      "name": "AlreadyInitialized",
      "type": "error"
    },
    {
      "inputs": [
        {
          "internalType": "address",
          "name": "caller",
          "type": "address"
        }
      ],
      "name": "CallerIsNotAdmin",
      "type": "error"
    },
    {
      "inputs": [
        {
          "internalType": "address",
          "name": "caller",
          "type": "address"
        }
      ],
      "name": "CallerIsNotAuthorized",
      "type": "error"
    },
    {
      "inputs": [
        {
          "internalType": "address",
          "name": "caller",
          "type": "address"
        }
      ],
      "name": "CallerIsNotAuthorizedToBoard",
      "type": "error"
    },
    {
      "inputs": [
        {
          "internalType": "address",
          "name": "caller",
          "type": "address"
        }
      ],
      "name": "CallerIsNotCommander",
      "type": "error"
    },
    {
      "inputs": [
        {
          "internalType": "address",
          "name": "caller",
          "type": "address"
        },
        {
          "internalType": "bytes32",
          "name": "role",
          "type": "bytes32"
        }
      ],
      "name": "CallerIsNotContractSpecificRole",
      "type": "error"
    },
    {
      "inputs": [
        {
          "internalType": "address",
          "name": "caller",
          "type": "address"
        }
      ],
      "name": "CallerIsNotCurator",
      "type": "error"
    },
    {
      "inputs": [
        {
          "internalType": "address",
          "name": "caller",
          "type": "address"
        }
      ],
      "name": "CallerIsNotDecayController",
      "type": "error"
    },
    {
      "inputs": [
        {
          "internalType": "address",
          "name": "caller",
          "type": "address"
        }
      ],
      "name": "CallerIsNotDecayManager",
      "type": "error"
    },
    {
      "inputs": [
        {
          "internalType": "address",
          "name": "caller",
          "type": "address"
        }
      ],
      "name": "CallerIsNotFoundation",
      "type": "error"
    },
    {
      "inputs": [
        {
          "internalType": "address",
          "name": "caller",
          "type": "address"
        }
      ],
      "name": "CallerIsNotGovernor",
      "type": "error"
    },
    {
      "inputs": [
        {
          "internalType": "address",
          "name": "caller",
          "type": "address"
        }
      ],
      "name": "CallerIsNotGuardian",
      "type": "error"
    },
    {
      "inputs": [
        {
          "internalType": "address",
          "name": "caller",
          "type": "address"
        }
      ],
      "name": "CallerIsNotGuardianOrGovernor",
      "type": "error"
    },
    {
      "inputs": [
        {
          "internalType": "address",
          "name": "caller",
          "type": "address"
        }
      ],
      "name": "CallerIsNotKeeper",
      "type": "error"
    },
    {
      "inputs": [
        {
          "internalType": "address",
          "name": "caller",
          "type": "address"
        }
      ],
      "name": "CallerIsNotRaft",
      "type": "error"
    },
    {
      "inputs": [
        {
          "internalType": "address",
          "name": "caller",
          "type": "address"
        }
      ],
      "name": "CallerIsNotRaftOrCommander",
      "type": "error"
    },
    {
      "inputs": [
        {
          "internalType": "address",
          "name": "caller",
          "type": "address"
        }
      ],
      "name": "CallerIsNotSuperKeeper",
      "type": "error"
    },
    {
      "inputs": [],
      "name": "CannotUndelegateWhileStaked",
      "type": "error"
    },
    {
      "inputs": [],
      "name": "CheckpointUnorderedInsertion",
      "type": "error"
    },
    {
      "inputs": [],
      "name": "DecayController__RewardsManagerAlreadySet",
      "type": "error"
    },
    {
      "inputs": [],
      "name": "DecayController__ZeroAddress",
      "type": "error"
    },
    {
      "inputs": [
        {
          "internalType": "uint256",
          "name": "rate",
          "type": "uint256"
        }
      ],
      "name": "DecayRateTooHigh",
      "type": "error"
    },
    {
      "inputs": [
        {
          "internalType": "address",
          "name": "caller",
          "type": "address"
        }
      ],
      "name": "DirectGrantIsDisabled",
      "type": "error"
    },
    {
      "inputs": [
        {
          "internalType": "address",
          "name": "caller",
          "type": "address"
        }
      ],
      "name": "DirectRevokeIsDisabled",
      "type": "error"
    },
    {
      "inputs": [],
      "name": "ECDSAInvalidSignature",
      "type": "error"
    },
    {
      "inputs": [
        {
          "internalType": "uint256",
          "name": "length",
          "type": "uint256"
        }
      ],
      "name": "ECDSAInvalidSignatureLength",
      "type": "error"
    },
    {
      "inputs": [
        {
          "internalType": "bytes32",
          "name": "s",
          "type": "bytes32"
        }
      ],
      "name": "ECDSAInvalidSignatureS",
      "type": "error"
    },
    {
      "inputs": [
        {
          "internalType": "uint256",
          "name": "increasedSupply",
          "type": "uint256"
        },
        {
          "internalType": "uint256",
          "name": "cap",
          "type": "uint256"
        }
      ],
      "name": "ERC20ExceededCap",
      "type": "error"
    },
    {
      "inputs": [
        {
          "internalType": "uint256",
          "name": "increasedSupply",
          "type": "uint256"
        },
        {
          "internalType": "uint256",
          "name": "cap",
          "type": "uint256"
        }
      ],
      "name": "ERC20ExceededSafeSupply",
      "type": "error"
    },
    {
      "inputs": [
        {
          "internalType": "address",
          "name": "spender",
          "type": "address"
        },
        {
          "internalType": "uint256",
          "name": "allowance",
          "type": "uint256"
        },
        {
          "internalType": "uint256",
          "name": "needed",
          "type": "uint256"
        }
      ],
      "name": "ERC20InsufficientAllowance",
      "type": "error"
    },
    {
      "inputs": [
        {
          "internalType": "address",
          "name": "sender",
          "type": "address"
        },
        {
          "internalType": "uint256",
          "name": "balance",
          "type": "uint256"
        },
        {
          "internalType": "uint256",
          "name": "needed",
          "type": "uint256"
        }
      ],
      "name": "ERC20InsufficientBalance",
      "type": "error"
    },
    {
      "inputs": [
        {
          "internalType": "address",
          "name": "approver",
          "type": "address"
        }
      ],
      "name": "ERC20InvalidApprover",
      "type": "error"
    },
    {
      "inputs": [
        {
          "internalType": "uint256",
          "name": "cap",
          "type": "uint256"
        }
      ],
      "name": "ERC20InvalidCap",
      "type": "error"
    },
    {
      "inputs": [
        {
          "internalType": "address",
          "name": "receiver",
          "type": "address"
        }
      ],
      "name": "ERC20InvalidReceiver",
      "type": "error"
    },
    {
      "inputs": [
        {
          "internalType": "address",
          "name": "sender",
          "type": "address"
        }
      ],
      "name": "ERC20InvalidSender",
      "type": "error"
    },
    {
      "inputs": [
        {
          "internalType": "address",
          "name": "spender",
          "type": "address"
        }
      ],
      "name": "ERC20InvalidSpender",
      "type": "error"
    },
    {
      "inputs": [
        {
          "internalType": "uint256",
          "name": "deadline",
          "type": "uint256"
        }
      ],
      "name": "ERC2612ExpiredSignature",
      "type": "error"
    },
    {
      "inputs": [
        {
          "internalType": "address",
          "name": "signer",
          "type": "address"
        },
        {
          "internalType": "address",
          "name": "owner",
          "type": "address"
        }
      ],
      "name": "ERC2612InvalidSigner",
      "type": "error"
    },
    {
      "inputs": [
        {
          "internalType": "uint256",
          "name": "timepoint",
          "type": "uint256"
        },
        {
          "internalType": "uint48",
          "name": "clock",
          "type": "uint48"
        }
      ],
      "name": "ERC5805FutureLookup",
      "type": "error"
    },
    {
      "inputs": [],
      "name": "ERC6372InconsistentClock",
      "type": "error"
    },
    {
      "inputs": [
        {
          "internalType": "address",
          "name": "invalidAddress",
          "type": "address"
        }
      ],
      "name": "InvalidAccessManagerAddress",
      "type": "error"
    },
    {
      "inputs": [
        {
          "internalType": "address",
          "name": "account",
          "type": "address"
        },
        {
          "internalType": "uint256",
          "name": "currentNonce",
          "type": "uint256"
        }
      ],
      "name": "InvalidAccountNonce",
      "type": "error"
    },
    {
      "inputs": [],
      "name": "InvalidAddressLength",
      "type": "error"
    },
    {
      "inputs": [
        {
          "internalType": "uint40",
          "name": "window",
          "type": "uint40"
        }
      ],
      "name": "InvalidDecayFreeWindow",
      "type": "error"
    },
    {
      "inputs": [],
      "name": "InvalidDecayRate",
      "type": "error"
    },
    {
      "inputs": [],
      "name": "InvalidDecayType",
      "type": "error"
    },
    {
      "inputs": [],
      "name": "InvalidDelegate",
      "type": "error"
    },
    {
      "inputs": [],
      "name": "InvalidEndpointCall",
      "type": "error"
    },
    {
      "inputs": [],
      "name": "InvalidLocalDecimals",
      "type": "error"
    },
    {
      "inputs": [
        {
          "internalType": "bytes",
          "name": "options",
          "type": "bytes"
        }
      ],
      "name": "InvalidOptions",
      "type": "error"
    },
    {
      "inputs": [],
      "name": "InvalidShortString",
      "type": "error"
    },
    {
      "inputs": [
        {
          "internalType": "enum ISummerVestingWallet.VestingType",
          "name": "invalidType",
          "type": "uint8"
        }
      ],
      "name": "InvalidVestingType",
      "type": "error"
    },
    {
      "inputs": [],
      "name": "LzTokenUnavailable",
      "type": "error"
    },
    {
      "inputs": [
        {
          "internalType": "uint32",
          "name": "eid",
          "type": "uint32"
        }
      ],
      "name": "NoPeer",
      "type": "error"
    },
    {
      "inputs": [
        {
          "internalType": "uint256",
          "name": "msgValue",
          "type": "uint256"
        }
      ],
      "name": "NotEnoughNative",
      "type": "error"
    },
    {
      "inputs": [
        {
          "internalType": "uint256",
          "name": "chainId",
          "type": "uint256"
        },
        {
          "internalType": "uint256",
          "name": "hubChainId",
          "type": "uint256"
        }
      ],
      "name": "NotHubChain",
      "type": "error"
    },
    {
      "inputs": [
        {
          "internalType": "address",
          "name": "addr",
          "type": "address"
        }
      ],
      "name": "OnlyEndpoint",
      "type": "error"
    },
    {
      "inputs": [
        {
          "internalType": "uint32",
          "name": "eid",
          "type": "uint32"
        },
        {
          "internalType": "bytes32",
          "name": "sender",
          "type": "bytes32"
        }
      ],
      "name": "OnlyPeer",
      "type": "error"
    },
    {
      "inputs": [],
      "name": "OnlySelf",
      "type": "error"
    },
    {
      "inputs": [
        {
          "internalType": "address",
          "name": "owner",
          "type": "address"
        }
      ],
      "name": "OwnableInvalidOwner",
      "type": "error"
    },
    {
      "inputs": [
        {
          "internalType": "address",
          "name": "account",
          "type": "address"
        }
      ],
      "name": "OwnableUnauthorizedAccount",
      "type": "error"
    },
    {
      "inputs": [
        {
          "internalType": "uint256",
          "name": "x",
          "type": "uint256"
        },
        {
          "internalType": "uint256",
          "name": "y",
          "type": "uint256"
        }
      ],
      "name": "PRBMath_MulDiv18_Overflow",
      "type": "error"
    },
    {
      "inputs": [
        {
          "internalType": "uint256",
          "name": "x",
          "type": "uint256"
        },
        {
          "internalType": "uint256",
          "name": "y",
          "type": "uint256"
        },
        {
          "internalType": "uint256",
          "name": "denominator",
          "type": "uint256"
        }
      ],
      "name": "PRBMath_MulDiv_Overflow",
      "type": "error"
    },
    {
      "inputs": [
        {
          "internalType": "uint8",
          "name": "bits",
          "type": "uint8"
        },
        {
          "internalType": "uint256",
          "name": "value",
          "type": "uint256"
        }
      ],
      "name": "SafeCastOverflowedUintDowncast",
      "type": "error"
    },
    {
      "inputs": [
        {
          "internalType": "address",
          "name": "token",
          "type": "address"
        }
      ],
      "name": "SafeERC20FailedOperation",
      "type": "error"
    },
    {
      "inputs": [
        {
          "internalType": "bytes",
          "name": "result",
          "type": "bytes"
        }
      ],
      "name": "SimulationResult",
      "type": "error"
    },
    {
      "inputs": [
        {
          "internalType": "uint256",
          "name": "amountLD",
          "type": "uint256"
        },
        {
          "internalType": "uint256",
          "name": "minAmountLD",
          "type": "uint256"
        }
      ],
      "name": "SlippageExceeded",
      "type": "error"
    },
    {
      "inputs": [
        {
          "internalType": "string",
          "name": "str",
          "type": "string"
        }
      ],
      "name": "StringTooLong",
      "type": "error"
    },
    {
      "inputs": [],
      "name": "SummerTokenInvalidPeerArrays",
      "type": "error"
    },
    {
      "inputs": [],
      "name": "TransferNotAllowed",
      "type": "error"
    },
    {
      "inputs": [],
      "name": "TransfersAlreadyEnabled",
      "type": "error"
    },
    {
      "inputs": [],
      "name": "TransfersCannotBeEnabledYet",
      "type": "error"
    },
    {
      "inputs": [
        {
          "internalType": "uint256",
          "name": "expiry",
          "type": "uint256"
        }
      ],
      "name": "VotesExpiredSignature",
      "type": "error"
    },
    {
      "anonymous": false,
      "inputs": [
        {
          "indexed": false,
          "internalType": "address",
          "name": "account",
          "type": "address"
        }
      ],
      "name": "AccountInitialized",
      "type": "event"
    },
    {
      "anonymous": false,
      "inputs": [
        {
          "indexed": true,
          "internalType": "address",
          "name": "account",
          "type": "address"
        }
      ],
      "name": "AddressRemovedFromWhitelist",
      "type": "event"
    },
    {
      "anonymous": false,
      "inputs": [
        {
          "indexed": true,
          "internalType": "address",
          "name": "account",
          "type": "address"
        }
      ],
      "name": "AddressWhitelisted",
      "type": "event"
    },
    {
      "anonymous": false,
      "inputs": [
        {
          "indexed": true,
          "internalType": "address",
          "name": "owner",
          "type": "address"
        },
        {
          "indexed": true,
          "internalType": "address",
          "name": "spender",
          "type": "address"
        },
        {
          "indexed": false,
          "internalType": "uint256",
          "name": "value",
          "type": "uint256"
        }
      ],
      "name": "Approval",
      "type": "event"
    },
    {
      "anonymous": false,
      "inputs": [
        {
          "indexed": false,
          "internalType": "uint40",
          "name": "newWindow",
          "type": "uint40"
        }
      ],
      "name": "DecayFreeWindowSet",
      "type": "event"
    },
    {
      "anonymous": false,
      "inputs": [
        {
          "indexed": false,
          "internalType": "uint8",
          "name": "newFunction",
          "type": "uint8"
        }
      ],
      "name": "DecayFunctionSet",
      "type": "event"
    },
    {
      "anonymous": false,
      "inputs": [
        {
          "indexed": false,
          "internalType": "uint256",
          "name": "newRate",
          "type": "uint256"
        }
      ],
      "name": "DecayRateSet",
      "type": "event"
    },
    {
      "anonymous": false,
      "inputs": [
        {
          "indexed": false,
          "internalType": "address",
          "name": "account",
          "type": "address"
        },
        {
          "indexed": false,
          "internalType": "uint256",
          "name": "newDecayFactor",
          "type": "uint256"
        }
      ],
      "name": "DecayUpdated",
      "type": "event"
    },
    {
      "anonymous": false,
      "inputs": [
        {
          "indexed": true,
          "internalType": "address",
          "name": "delegator",
          "type": "address"
        },
        {
          "indexed": true,
          "internalType": "address",
          "name": "fromDelegate",
          "type": "address"
        },
        {
          "indexed": true,
          "internalType": "address",
          "name": "toDelegate",
          "type": "address"
        }
      ],
      "name": "DelegateChanged",
      "type": "event"
    },
    {
      "anonymous": false,
      "inputs": [
        {
          "indexed": true,
          "internalType": "address",
          "name": "delegate",
          "type": "address"
        },
        {
          "indexed": false,
          "internalType": "uint256",
          "name": "previousVotes",
          "type": "uint256"
        },
        {
          "indexed": false,
          "internalType": "uint256",
          "name": "newVotes",
          "type": "uint256"
        }
      ],
      "name": "DelegateVotesChanged",
      "type": "event"
    },
    {
      "anonymous": false,
      "inputs": [],
      "name": "EIP712DomainChanged",
      "type": "event"
    },
    {
      "anonymous": false,
      "inputs": [
        {
          "components": [
            {
              "internalType": "uint32",
              "name": "eid",
              "type": "uint32"
            },
            {
              "internalType": "uint16",
              "name": "msgType",
              "type": "uint16"
            },
            {
              "internalType": "bytes",
              "name": "options",
              "type": "bytes"
            }
          ],
          "indexed": false,
          "internalType": "struct EnforcedOptionParam[]",
          "name": "_enforcedOptions",
          "type": "tuple[]"
        }
      ],
      "name": "EnforcedOptionSet",
      "type": "event"
    },
    {
      "anonymous": false,
      "inputs": [
        {
          "indexed": false,
          "internalType": "address",
          "name": "inspector",
          "type": "address"
        }
      ],
      "name": "MsgInspectorSet",
      "type": "event"
    },
    {
      "anonymous": false,
      "inputs": [
        {
          "indexed": true,
          "internalType": "bytes32",
          "name": "guid",
          "type": "bytes32"
        },
        {
          "indexed": false,
          "internalType": "uint32",
          "name": "srcEid",
          "type": "uint32"
        },
        {
          "indexed": true,
          "internalType": "address",
          "name": "toAddress",
          "type": "address"
        },
        {
          "indexed": false,
          "internalType": "uint256",
          "name": "amountReceivedLD",
          "type": "uint256"
        }
      ],
      "name": "OFTReceived",
      "type": "event"
    },
    {
      "anonymous": false,
      "inputs": [
        {
          "indexed": true,
          "internalType": "bytes32",
          "name": "guid",
          "type": "bytes32"
        },
        {
          "indexed": false,
          "internalType": "uint32",
          "name": "dstEid",
          "type": "uint32"
        },
        {
          "indexed": true,
          "internalType": "address",
          "name": "fromAddress",
          "type": "address"
        },
        {
          "indexed": false,
          "internalType": "uint256",
          "name": "amountSentLD",
          "type": "uint256"
        },
        {
          "indexed": false,
          "internalType": "uint256",
          "name": "amountReceivedLD",
          "type": "uint256"
        }
      ],
      "name": "OFTSent",
      "type": "event"
    },
    {
      "anonymous": false,
      "inputs": [
        {
          "indexed": true,
          "internalType": "address",
          "name": "previousOwner",
          "type": "address"
        },
        {
          "indexed": true,
          "internalType": "address",
          "name": "newOwner",
          "type": "address"
        }
      ],
      "name": "OwnershipTransferred",
      "type": "event"
    },
    {
      "anonymous": false,
      "inputs": [
        {
          "indexed": false,
          "internalType": "uint32",
          "name": "eid",
          "type": "uint32"
        },
        {
          "indexed": false,
          "internalType": "bytes32",
          "name": "peer",
          "type": "bytes32"
        }
      ],
      "name": "PeerSet",
      "type": "event"
    },
    {
      "anonymous": false,
      "inputs": [
        {
          "indexed": false,
          "internalType": "address",
          "name": "preCrimeAddress",
          "type": "address"
        }
      ],
      "name": "PreCrimeSet",
      "type": "event"
    },
    {
      "anonymous": false,
      "inputs": [
        {
          "indexed": true,
          "internalType": "address",
          "name": "from",
          "type": "address"
        },
        {
          "indexed": true,
          "internalType": "address",
          "name": "to",
          "type": "address"
        },
        {
          "indexed": false,
          "internalType": "uint256",
          "name": "value",
          "type": "uint256"
        }
      ],
      "name": "Transfer",
      "type": "event"
    },
    {
      "anonymous": false,
      "inputs": [],
      "name": "TransfersEnabled",
      "type": "event"
    },
    {
      "inputs": [],
      "name": "ADMIRALS_QUARTERS_ROLE",
      "outputs": [
        {
          "internalType": "bytes32",
          "name": "",
          "type": "bytes32"
        }
      ],
      "stateMutability": "view",
      "type": "function"
    },
    {
      "inputs": [],
      "name": "CLOCK_MODE",
      "outputs": [
        {
          "internalType": "string",
          "name": "",
          "type": "string"
        }
      ],
      "stateMutability": "pure",
      "type": "function"
    },
    {
      "inputs": [],
      "name": "DECAY_CONTROLLER_ROLE",
      "outputs": [
        {
          "internalType": "bytes32",
          "name": "",
          "type": "bytes32"
        }
      ],
      "stateMutability": "view",
      "type": "function"
    },
    {
      "inputs": [],
      "name": "DOMAIN_SEPARATOR",
      "outputs": [
        {
          "internalType": "bytes32",
          "name": "",
          "type": "bytes32"
        }
      ],
      "stateMutability": "view",
      "type": "function"
    },
    {
      "inputs": [],
      "name": "GOVERNOR_ROLE",
      "outputs": [
        {
          "internalType": "bytes32",
          "name": "",
          "type": "bytes32"
        }
      ],
      "stateMutability": "view",
      "type": "function"
    },
    {
      "inputs": [],
      "name": "GUARDIAN_ROLE",
      "outputs": [
        {
          "internalType": "bytes32",
          "name": "",
          "type": "bytes32"
        }
      ],
      "stateMutability": "view",
      "type": "function"
    },
    {
      "inputs": [],
      "name": "SEND",
      "outputs": [
        {
          "internalType": "uint16",
          "name": "",
          "type": "uint16"
        }
      ],
      "stateMutability": "view",
      "type": "function"
    },
    {
      "inputs": [],
      "name": "SEND_AND_CALL",
      "outputs": [
        {
          "internalType": "uint16",
          "name": "",
          "type": "uint16"
        }
      ],
      "stateMutability": "view",
      "type": "function"
    },
    {
      "inputs": [],
      "name": "SUPER_KEEPER_ROLE",
      "outputs": [
        {
          "internalType": "bytes32",
          "name": "",
          "type": "bytes32"
        }
      ],
      "stateMutability": "view",
      "type": "function"
    },
    {
      "inputs": [
        {
          "internalType": "address",
          "name": "account",
          "type": "address"
        }
      ],
      "name": "addToWhitelist",
      "outputs": [],
      "stateMutability": "nonpayable",
      "type": "function"
    },
    {
      "inputs": [
        {
          "components": [
            {
              "internalType": "uint32",
              "name": "srcEid",
              "type": "uint32"
            },
            {
              "internalType": "bytes32",
              "name": "sender",
              "type": "bytes32"
            },
            {
              "internalType": "uint64",
              "name": "nonce",
              "type": "uint64"
            }
          ],
          "internalType": "struct Origin",
          "name": "origin",
          "type": "tuple"
        }
      ],
      "name": "allowInitializePath",
      "outputs": [
        {
          "internalType": "bool",
          "name": "",
          "type": "bool"
        }
      ],
      "stateMutability": "view",
      "type": "function"
    },
    {
      "inputs": [
        {
          "internalType": "address",
          "name": "owner",
          "type": "address"
        },
        {
          "internalType": "address",
          "name": "spender",
          "type": "address"
        }
      ],
      "name": "allowance",
      "outputs": [
        {
          "internalType": "uint256",
          "name": "",
          "type": "uint256"
        }
      ],
      "stateMutability": "view",
      "type": "function"
    },
    {
      "inputs": [],
      "name": "approvalRequired",
      "outputs": [
        {
          "internalType": "bool",
          "name": "",
          "type": "bool"
        }
      ],
      "stateMutability": "pure",
      "type": "function"
    },
    {
      "inputs": [
        {
          "internalType": "address",
          "name": "spender",
          "type": "address"
        },
        {
          "internalType": "uint256",
          "name": "value",
          "type": "uint256"
        }
      ],
      "name": "approve",
      "outputs": [
        {
          "internalType": "bool",
          "name": "",
          "type": "bool"
        }
      ],
      "stateMutability": "nonpayable",
      "type": "function"
    },
    {
      "inputs": [
        {
          "internalType": "address",
          "name": "account",
          "type": "address"
        }
      ],
      "name": "balanceOf",
      "outputs": [
        {
          "internalType": "uint256",
          "name": "",
          "type": "uint256"
        }
      ],
      "stateMutability": "view",
      "type": "function"
    },
    {
      "inputs": [
        {
          "internalType": "uint256",
          "name": "value",
          "type": "uint256"
        }
      ],
      "name": "burn",
      "outputs": [],
      "stateMutability": "nonpayable",
      "type": "function"
    },
    {
      "inputs": [
        {
          "internalType": "address",
          "name": "account",
          "type": "address"
        },
        {
          "internalType": "uint256",
          "name": "value",
          "type": "uint256"
        }
      ],
      "name": "burnFrom",
      "outputs": [],
      "stateMutability": "nonpayable",
      "type": "function"
    },
    {
      "inputs": [],
      "name": "cap",
      "outputs": [
        {
          "internalType": "uint256",
          "name": "",
          "type": "uint256"
        }
      ],
      "stateMutability": "view",
      "type": "function"
    },
    {
      "inputs": [
        {
          "internalType": "address",
          "name": "account",
          "type": "address"
        },
        {
          "internalType": "uint32",
          "name": "pos",
          "type": "uint32"
        }
      ],
      "name": "checkpoints",
      "outputs": [
        {
          "components": [
            {
              "internalType": "uint48",
              "name": "_key",
              "type": "uint48"
            },
            {
              "internalType": "uint208",
              "name": "_value",
              "type": "uint208"
            }
          ],
          "internalType": "struct Checkpoints.Checkpoint208",
          "name": "",
          "type": "tuple"
        }
      ],
      "stateMutability": "view",
      "type": "function"
    },
    {
      "inputs": [],
      "name": "clock",
      "outputs": [
        {
          "internalType": "uint48",
          "name": "",
          "type": "uint48"
        }
      ],
      "stateMutability": "view",
      "type": "function"
    },
    {
      "inputs": [
        {
          "internalType": "uint32",
          "name": "_eid",
          "type": "uint32"
        },
        {
          "internalType": "uint16",
          "name": "_msgType",
          "type": "uint16"
        },
        {
          "internalType": "bytes",
          "name": "_extraOptions",
          "type": "bytes"
        }
      ],
      "name": "combineOptions",
      "outputs": [
        {
          "internalType": "bytes",
          "name": "",
          "type": "bytes"
        }
      ],
      "stateMutability": "view",
      "type": "function"
    },
    {
      "inputs": [],
      "name": "decimalConversionRate",
      "outputs": [
        {
          "internalType": "uint256",
          "name": "",
          "type": "uint256"
        }
      ],
      "stateMutability": "view",
      "type": "function"
    },
    {
      "inputs": [],
      "name": "decimals",
      "outputs": [
        {
          "internalType": "uint8",
          "name": "",
          "type": "uint8"
        }
      ],
      "stateMutability": "view",
      "type": "function"
    },
    {
      "inputs": [
        {
          "internalType": "address",
          "name": "delegatee",
          "type": "address"
        }
      ],
      "name": "delegate",
      "outputs": [],
      "stateMutability": "nonpayable",
      "type": "function"
    },
    {
      "inputs": [
        {
          "internalType": "address",
          "name": "delegatee",
          "type": "address"
        },
        {
          "internalType": "uint256",
          "name": "nonce",
          "type": "uint256"
        },
        {
          "internalType": "uint256",
          "name": "expiry",
          "type": "uint256"
        },
        {
          "internalType": "uint8",
          "name": "v",
          "type": "uint8"
        },
        {
          "internalType": "bytes32",
          "name": "r",
          "type": "bytes32"
        },
        {
          "internalType": "bytes32",
          "name": "s",
          "type": "bytes32"
        }
      ],
      "name": "delegateBySig",
      "outputs": [],
      "stateMutability": "nonpayable",
      "type": "function"
    },
    {
      "inputs": [
        {
          "internalType": "address",
          "name": "account",
          "type": "address"
        }
      ],
      "name": "delegates",
      "outputs": [
        {
          "internalType": "address",
          "name": "",
          "type": "address"
        }
      ],
      "stateMutability": "view",
      "type": "function"
    },
    {
      "inputs": [],
      "name": "eip712Domain",
      "outputs": [
        {
          "internalType": "bytes1",
          "name": "fields",
          "type": "bytes1"
        },
        {
          "internalType": "string",
          "name": "name",
          "type": "string"
        },
        {
          "internalType": "string",
          "name": "version",
          "type": "string"
        },
        {
          "internalType": "uint256",
          "name": "chainId",
          "type": "uint256"
        },
        {
          "internalType": "address",
          "name": "verifyingContract",
          "type": "address"
        },
        {
          "internalType": "bytes32",
          "name": "salt",
          "type": "bytes32"
        },
        {
          "internalType": "uint256[]",
          "name": "extensions",
          "type": "uint256[]"
        }
      ],
      "stateMutability": "view",
      "type": "function"
    },
    {
      "inputs": [],
      "name": "enableTransfers",
      "outputs": [],
      "stateMutability": "nonpayable",
      "type": "function"
    },
    {
      "inputs": [],
      "name": "endpoint",
      "outputs": [
        {
          "internalType": "contract ILayerZeroEndpointV2",
          "name": "",
          "type": "address"
        }
      ],
      "stateMutability": "view",
      "type": "function"
    },
    {
      "inputs": [
        {
          "internalType": "uint32",
          "name": "eid",
          "type": "uint32"
        },
        {
          "internalType": "uint16",
          "name": "msgType",
          "type": "uint16"
        }
      ],
      "name": "enforcedOptions",
      "outputs": [
        {
          "internalType": "bytes",
          "name": "enforcedOption",
          "type": "bytes"
        }
      ],
      "stateMutability": "view",
      "type": "function"
    },
    {
      "inputs": [
        {
          "internalType": "enum ContractSpecificRoles",
          "name": "roleName",
          "type": "uint8"
        },
        {
          "internalType": "address",
          "name": "roleTargetContract",
          "type": "address"
        }
      ],
      "name": "generateRole",
      "outputs": [
        {
          "internalType": "bytes32",
          "name": "",
          "type": "bytes32"
        }
      ],
      "stateMutability": "pure",
      "type": "function"
    },
    {
      "inputs": [
        {
          "internalType": "address",
          "name": "account",
          "type": "address"
        }
      ],
      "name": "getDecayFactor",
      "outputs": [
        {
          "internalType": "uint256",
          "name": "",
          "type": "uint256"
        }
      ],
      "stateMutability": "view",
      "type": "function"
    },
    {
      "inputs": [],
      "name": "getDecayFreeWindow",
      "outputs": [
        {
          "internalType": "uint40",
          "name": "",
          "type": "uint40"
        }
      ],
      "stateMutability": "view",
      "type": "function"
    },
    {
      "inputs": [],
      "name": "getDecayRatePerYear",
      "outputs": [
        {
          "internalType": "Percentage",
          "name": "",
          "type": "uint256"
        }
      ],
      "stateMutability": "view",
      "type": "function"
    },
    {
      "inputs": [
        {
          "internalType": "address",
          "name": "account",
          "type": "address"
        }
      ],
      "name": "getDelegationChainLength",
      "outputs": [
        {
          "internalType": "uint256",
          "name": "",
          "type": "uint256"
        }
      ],
      "stateMutability": "view",
      "type": "function"
    },
    {
      "inputs": [
        {
          "internalType": "address",
          "name": "account",
          "type": "address"
        },
        {
          "internalType": "uint256",
          "name": "timepoint",
          "type": "uint256"
        }
      ],
      "name": "getPastDecayFactor",
      "outputs": [
        {
          "internalType": "uint256",
          "name": "",
          "type": "uint256"
        }
      ],
      "stateMutability": "view",
      "type": "function"
    },
    {
      "inputs": [
        {
          "internalType": "uint256",
          "name": "timepoint",
          "type": "uint256"
        }
      ],
      "name": "getPastTotalSupply",
      "outputs": [
        {
          "internalType": "uint256",
          "name": "",
          "type": "uint256"
        }
      ],
      "stateMutability": "view",
      "type": "function"
    },
    {
      "inputs": [
        {
          "internalType": "address",
          "name": "account",
          "type": "address"
        },
        {
          "internalType": "uint256",
          "name": "timepoint",
          "type": "uint256"
        }
      ],
      "name": "getPastVotes",
      "outputs": [
        {
          "internalType": "uint256",
          "name": "",
          "type": "uint256"
        }
      ],
      "stateMutability": "view",
      "type": "function"
    },
    {
      "inputs": [
        {
          "internalType": "address",
          "name": "account",
          "type": "address"
        },
        {
          "internalType": "uint256",
          "name": "timestamp",
          "type": "uint256"
        }
      ],
      "name": "getRawVotesAt",
      "outputs": [
        {
          "internalType": "uint256",
          "name": "",
          "type": "uint256"
        }
      ],
      "stateMutability": "view",
      "type": "function"
    },
    {
      "inputs": [
        {
          "internalType": "address",
          "name": "account",
          "type": "address"
        }
      ],
      "name": "getVotes",
      "outputs": [
        {
          "internalType": "uint256",
          "name": "",
          "type": "uint256"
        }
      ],
      "stateMutability": "view",
      "type": "function"
    },
    {
      "inputs": [
        {
          "internalType": "address",
          "name": "account",
          "type": "address"
        }
      ],
      "name": "hasAdmiralsQuartersRole",
      "outputs": [
        {
          "internalType": "bool",
          "name": "",
          "type": "bool"
        }
      ],
      "stateMutability": "view",
      "type": "function"
    },
    {
      "inputs": [],
      "name": "hubChainId",
      "outputs": [
        {
          "internalType": "uint32",
          "name": "",
          "type": "uint32"
        }
      ],
      "stateMutability": "view",
      "type": "function"
    },
    {
      "inputs": [
        {
          "components": [
            {
              "internalType": "uint256",
              "name": "initialSupply",
              "type": "uint256"
            },
            {
              "internalType": "uint40",
              "name": "initialDecayFreeWindow",
              "type": "uint40"
            },
            {
              "internalType": "Percentage",
              "name": "initialYearlyDecayRate",
              "type": "uint256"
            },
            {
              "internalType": "enum VotingDecayLibrary.DecayFunction",
              "name": "initialDecayFunction",
              "type": "uint8"
            },
            {
              "internalType": "address",
              "name": "vestingWalletFactory",
              "type": "address"
            }
          ],
          "internalType": "struct ISummerToken.InitializeParams",
          "name": "params",
          "type": "tuple"
        }
      ],
      "name": "initialize",
      "outputs": [],
      "stateMutability": "nonpayable",
      "type": "function"
    },
    {
      "inputs": [
        {
          "components": [
            {
              "internalType": "uint32",
              "name": "srcEid",
              "type": "uint32"
            },
            {
              "internalType": "bytes32",
              "name": "sender",
              "type": "bytes32"
            },
            {
              "internalType": "uint64",
              "name": "nonce",
              "type": "uint64"
            }
          ],
          "internalType": "struct Origin",
          "name": "",
          "type": "tuple"
        },
        {
          "internalType": "bytes",
          "name": "",
          "type": "bytes"
        },
        {
          "internalType": "address",
          "name": "_sender",
          "type": "address"
        }
      ],
      "name": "isComposeMsgSender",
      "outputs": [
        {
          "internalType": "bool",
          "name": "",
          "type": "bool"
        }
      ],
      "stateMutability": "view",
      "type": "function"
    },
    {
      "inputs": [
        {
          "internalType": "uint32",
          "name": "_eid",
          "type": "uint32"
        },
        {
          "internalType": "bytes32",
          "name": "_peer",
          "type": "bytes32"
        }
      ],
      "name": "isPeer",
      "outputs": [
        {
          "internalType": "bool",
          "name": "",
          "type": "bool"
        }
      ],
      "stateMutability": "view",
      "type": "function"
    },
    {
      "inputs": [
        {
          "components": [
            {
              "internalType": "uint32",
              "name": "srcEid",
              "type": "uint32"
            },
            {
              "internalType": "bytes32",
              "name": "sender",
              "type": "bytes32"
            },
            {
              "internalType": "uint64",
              "name": "nonce",
              "type": "uint64"
            }
          ],
          "internalType": "struct Origin",
          "name": "_origin",
          "type": "tuple"
        },
        {
          "internalType": "bytes32",
          "name": "_guid",
          "type": "bytes32"
        },
        {
          "internalType": "bytes",
          "name": "_message",
          "type": "bytes"
        },
        {
          "internalType": "address",
          "name": "_executor",
          "type": "address"
        },
        {
          "internalType": "bytes",
          "name": "_extraData",
          "type": "bytes"
        }
      ],
      "name": "lzReceive",
      "outputs": [],
      "stateMutability": "payable",
      "type": "function"
    },
    {
      "inputs": [
        {
          "components": [
            {
              "components": [
                {
                  "internalType": "uint32",
                  "name": "srcEid",
                  "type": "uint32"
                },
                {
                  "internalType": "bytes32",
                  "name": "sender",
                  "type": "bytes32"
                },
                {
                  "internalType": "uint64",
                  "name": "nonce",
                  "type": "uint64"
                }
              ],
              "internalType": "struct Origin",
              "name": "origin",
              "type": "tuple"
            },
            {
              "internalType": "uint32",
              "name": "dstEid",
              "type": "uint32"
            },
            {
              "internalType": "address",
              "name": "receiver",
              "type": "address"
            },
            {
              "internalType": "bytes32",
              "name": "guid",
              "type": "bytes32"
            },
            {
              "internalType": "uint256",
              "name": "value",
              "type": "uint256"
            },
            {
              "internalType": "address",
              "name": "executor",
              "type": "address"
            },
            {
              "internalType": "bytes",
              "name": "message",
              "type": "bytes"
            },
            {
              "internalType": "bytes",
              "name": "extraData",
              "type": "bytes"
            }
          ],
          "internalType": "struct InboundPacket[]",
          "name": "_packets",
          "type": "tuple[]"
        }
      ],
      "name": "lzReceiveAndRevert",
      "outputs": [],
      "stateMutability": "payable",
      "type": "function"
    },
    {
      "inputs": [
        {
          "components": [
            {
              "internalType": "uint32",
              "name": "srcEid",
              "type": "uint32"
            },
            {
              "internalType": "bytes32",
              "name": "sender",
              "type": "bytes32"
            },
            {
              "internalType": "uint64",
              "name": "nonce",
              "type": "uint64"
            }
          ],
          "internalType": "struct Origin",
          "name": "_origin",
          "type": "tuple"
        },
        {
          "internalType": "bytes32",
          "name": "_guid",
          "type": "bytes32"
        },
        {
          "internalType": "bytes",
          "name": "_message",
          "type": "bytes"
        },
        {
          "internalType": "address",
          "name": "_executor",
          "type": "address"
        },
        {
          "internalType": "bytes",
          "name": "_extraData",
          "type": "bytes"
        }
      ],
      "name": "lzReceiveSimulate",
      "outputs": [],
      "stateMutability": "payable",
      "type": "function"
    },
    {
      "inputs": [],
      "name": "msgInspector",
      "outputs": [
        {
          "internalType": "address",
          "name": "",
          "type": "address"
        }
      ],
      "stateMutability": "view",
      "type": "function"
    },
    {
      "inputs": [],
      "name": "name",
      "outputs": [
        {
          "internalType": "string",
          "name": "",
          "type": "string"
        }
      ],
      "stateMutability": "view",
      "type": "function"
    },
    {
      "inputs": [
        {
          "internalType": "uint32",
          "name": "",
          "type": "uint32"
        },
        {
          "internalType": "bytes32",
          "name": "",
          "type": "bytes32"
        }
      ],
      "name": "nextNonce",
      "outputs": [
        {
          "internalType": "uint64",
          "name": "nonce",
          "type": "uint64"
        }
      ],
      "stateMutability": "view",
      "type": "function"
    },
    {
      "inputs": [
        {
          "internalType": "address",
          "name": "owner",
          "type": "address"
        }
      ],
      "name": "nonces",
      "outputs": [
        {
          "internalType": "uint256",
          "name": "",
          "type": "uint256"
        }
      ],
      "stateMutability": "view",
      "type": "function"
    },
    {
      "inputs": [
        {
          "internalType": "address",
          "name": "account",
          "type": "address"
        }
      ],
      "name": "numCheckpoints",
      "outputs": [
        {
          "internalType": "uint32",
          "name": "",
          "type": "uint32"
        }
      ],
      "stateMutability": "view",
      "type": "function"
    },
    {
      "inputs": [],
      "name": "oApp",
      "outputs": [
        {
          "internalType": "address",
          "name": "",
          "type": "address"
        }
      ],
      "stateMutability": "view",
      "type": "function"
    },
    {
      "inputs": [],
      "name": "oAppVersion",
      "outputs": [
        {
          "internalType": "uint64",
          "name": "senderVersion",
          "type": "uint64"
        },
        {
          "internalType": "uint64",
          "name": "receiverVersion",
          "type": "uint64"
        }
      ],
      "stateMutability": "pure",
      "type": "function"
    },
    {
      "inputs": [],
      "name": "oftVersion",
      "outputs": [
        {
          "internalType": "bytes4",
          "name": "interfaceId",
          "type": "bytes4"
        },
        {
          "internalType": "uint64",
          "name": "version",
          "type": "uint64"
        }
      ],
      "stateMutability": "pure",
      "type": "function"
    },
    {
      "inputs": [],
      "name": "owner",
      "outputs": [
        {
          "internalType": "address",
          "name": "",
          "type": "address"
        }
      ],
      "stateMutability": "view",
      "type": "function"
    },
    {
      "inputs": [
        {
          "internalType": "uint32",
          "name": "eid",
          "type": "uint32"
        }
      ],
      "name": "peers",
      "outputs": [
        {
          "internalType": "bytes32",
          "name": "peer",
          "type": "bytes32"
        }
      ],
      "stateMutability": "view",
      "type": "function"
    },
    {
      "inputs": [
        {
          "internalType": "address",
          "name": "owner",
          "type": "address"
        },
        {
          "internalType": "address",
          "name": "spender",
          "type": "address"
        },
        {
          "internalType": "uint256",
          "name": "value",
          "type": "uint256"
        },
        {
          "internalType": "uint256",
          "name": "deadline",
          "type": "uint256"
        },
        {
          "internalType": "uint8",
          "name": "v",
          "type": "uint8"
        },
        {
          "internalType": "bytes32",
          "name": "r",
          "type": "bytes32"
        },
        {
          "internalType": "bytes32",
          "name": "s",
          "type": "bytes32"
        }
      ],
      "name": "permit",
      "outputs": [],
      "stateMutability": "nonpayable",
      "type": "function"
    },
    {
      "inputs": [],
      "name": "preCrime",
      "outputs": [
        {
          "internalType": "address",
          "name": "",
          "type": "address"
        }
      ],
      "stateMutability": "view",
      "type": "function"
    },
    {
      "inputs": [
        {
          "components": [
            {
              "internalType": "uint32",
              "name": "dstEid",
              "type": "uint32"
            },
            {
              "internalType": "bytes32",
              "name": "to",
              "type": "bytes32"
            },
            {
              "internalType": "uint256",
              "name": "amountLD",
              "type": "uint256"
            },
            {
              "internalType": "uint256",
              "name": "minAmountLD",
              "type": "uint256"
            },
            {
              "internalType": "bytes",
              "name": "extraOptions",
              "type": "bytes"
            },
            {
              "internalType": "bytes",
              "name": "composeMsg",
              "type": "bytes"
            },
            {
              "internalType": "bytes",
              "name": "oftCmd",
              "type": "bytes"
            }
          ],
          "internalType": "struct SendParam",
          "name": "_sendParam",
          "type": "tuple"
        }
      ],
      "name": "quoteOFT",
      "outputs": [
        {
          "components": [
            {
              "internalType": "uint256",
              "name": "minAmountLD",
              "type": "uint256"
            },
            {
              "internalType": "uint256",
              "name": "maxAmountLD",
              "type": "uint256"
            }
          ],
          "internalType": "struct OFTLimit",
          "name": "oftLimit",
          "type": "tuple"
        },
        {
          "components": [
            {
              "internalType": "int256",
              "name": "feeAmountLD",
              "type": "int256"
            },
            {
              "internalType": "string",
              "name": "description",
              "type": "string"
            }
          ],
          "internalType": "struct OFTFeeDetail[]",
          "name": "oftFeeDetails",
          "type": "tuple[]"
        },
        {
          "components": [
            {
              "internalType": "uint256",
              "name": "amountSentLD",
              "type": "uint256"
            },
            {
              "internalType": "uint256",
              "name": "amountReceivedLD",
              "type": "uint256"
            }
          ],
          "internalType": "struct OFTReceipt",
          "name": "oftReceipt",
          "type": "tuple"
        }
      ],
      "stateMutability": "view",
      "type": "function"
    },
    {
      "inputs": [
        {
          "components": [
            {
              "internalType": "uint32",
              "name": "dstEid",
              "type": "uint32"
            },
            {
              "internalType": "bytes32",
              "name": "to",
              "type": "bytes32"
            },
            {
              "internalType": "uint256",
              "name": "amountLD",
              "type": "uint256"
            },
            {
              "internalType": "uint256",
              "name": "minAmountLD",
              "type": "uint256"
            },
            {
              "internalType": "bytes",
              "name": "extraOptions",
              "type": "bytes"
            },
            {
              "internalType": "bytes",
              "name": "composeMsg",
              "type": "bytes"
            },
            {
              "internalType": "bytes",
              "name": "oftCmd",
              "type": "bytes"
            }
          ],
          "internalType": "struct SendParam",
          "name": "_sendParam",
          "type": "tuple"
        },
        {
          "internalType": "bool",
          "name": "_payInLzToken",
          "type": "bool"
        }
      ],
      "name": "quoteSend",
      "outputs": [
        {
          "components": [
            {
              "internalType": "uint256",
              "name": "nativeFee",
              "type": "uint256"
            },
            {
              "internalType": "uint256",
              "name": "lzTokenFee",
              "type": "uint256"
            }
          ],
          "internalType": "struct MessagingFee",
          "name": "msgFee",
          "type": "tuple"
        }
      ],
      "stateMutability": "view",
      "type": "function"
    },
    {
      "inputs": [
        {
          "internalType": "address",
          "name": "account",
          "type": "address"
        }
      ],
      "name": "removeFromWhitelist",
      "outputs": [],
      "stateMutability": "nonpayable",
      "type": "function"
    },
    {
      "inputs": [],
      "name": "renounceOwnership",
      "outputs": [],
      "stateMutability": "nonpayable",
      "type": "function"
    },
    {
      "inputs": [],
      "name": "rewardsManager",
      "outputs": [
        {
          "internalType": "address",
          "name": "",
          "type": "address"
        }
      ],
      "stateMutability": "view",
      "type": "function"
    },
    {
      "inputs": [
        {
          "components": [
            {
              "internalType": "uint32",
              "name": "dstEid",
              "type": "uint32"
            },
            {
              "internalType": "bytes32",
              "name": "to",
              "type": "bytes32"
            },
            {
              "internalType": "uint256",
              "name": "amountLD",
              "type": "uint256"
            },
            {
              "internalType": "uint256",
              "name": "minAmountLD",
              "type": "uint256"
            },
            {
              "internalType": "bytes",
              "name": "extraOptions",
              "type": "bytes"
            },
            {
              "internalType": "bytes",
              "name": "composeMsg",
              "type": "bytes"
            },
            {
              "internalType": "bytes",
              "name": "oftCmd",
              "type": "bytes"
            }
          ],
          "internalType": "struct SendParam",
          "name": "_sendParam",
          "type": "tuple"
        },
        {
          "components": [
            {
              "internalType": "uint256",
              "name": "nativeFee",
              "type": "uint256"
            },
            {
              "internalType": "uint256",
              "name": "lzTokenFee",
              "type": "uint256"
            }
          ],
          "internalType": "struct MessagingFee",
          "name": "_fee",
          "type": "tuple"
        },
        {
          "internalType": "address",
          "name": "_refundAddress",
          "type": "address"
        }
      ],
      "name": "send",
      "outputs": [
        {
          "components": [
            {
              "internalType": "bytes32",
              "name": "guid",
              "type": "bytes32"
            },
            {
              "internalType": "uint64",
              "name": "nonce",
              "type": "uint64"
            },
            {
              "components": [
                {
                  "internalType": "uint256",
                  "name": "nativeFee",
                  "type": "uint256"
                },
                {
                  "internalType": "uint256",
                  "name": "lzTokenFee",
                  "type": "uint256"
                }
              ],
              "internalType": "struct MessagingFee",
              "name": "fee",
              "type": "tuple"
            }
          ],
          "internalType": "struct MessagingReceipt",
          "name": "msgReceipt",
          "type": "tuple"
        },
        {
          "components": [
            {
              "internalType": "uint256",
              "name": "amountSentLD",
              "type": "uint256"
            },
            {
              "internalType": "uint256",
              "name": "amountReceivedLD",
              "type": "uint256"
            }
          ],
          "internalType": "struct OFTReceipt",
          "name": "oftReceipt",
          "type": "tuple"
        }
      ],
      "stateMutability": "payable",
      "type": "function"
    },
    {
      "inputs": [
        {
          "internalType": "uint40",
          "name": "newWindow",
          "type": "uint40"
        }
      ],
      "name": "setDecayFreeWindow",
      "outputs": [],
      "stateMutability": "nonpayable",
      "type": "function"
    },
    {
      "inputs": [
        {
          "internalType": "enum VotingDecayLibrary.DecayFunction",
          "name": "newFunction",
          "type": "uint8"
        }
      ],
      "name": "setDecayFunction",
      "outputs": [],
      "stateMutability": "nonpayable",
      "type": "function"
    },
    {
      "inputs": [
        {
          "internalType": "Percentage",
          "name": "newYearlyRate",
          "type": "uint256"
        }
      ],
      "name": "setDecayRatePerYear",
      "outputs": [],
      "stateMutability": "nonpayable",
      "type": "function"
    },
    {
      "inputs": [
        {
          "internalType": "address",
          "name": "_delegate",
          "type": "address"
        }
      ],
      "name": "setDelegate",
      "outputs": [],
      "stateMutability": "nonpayable",
      "type": "function"
    },
    {
      "inputs": [
        {
          "components": [
            {
              "internalType": "uint32",
              "name": "eid",
              "type": "uint32"
            },
            {
              "internalType": "uint16",
              "name": "msgType",
              "type": "uint16"
            },
            {
              "internalType": "bytes",
              "name": "options",
              "type": "bytes"
            }
          ],
          "internalType": "struct EnforcedOptionParam[]",
          "name": "_enforcedOptions",
          "type": "tuple[]"
        }
      ],
      "name": "setEnforcedOptions",
      "outputs": [],
      "stateMutability": "nonpayable",
      "type": "function"
    },
    {
      "inputs": [
        {
          "internalType": "address",
          "name": "_msgInspector",
          "type": "address"
        }
      ],
      "name": "setMsgInspector",
      "outputs": [],
      "stateMutability": "nonpayable",
      "type": "function"
    },
    {
      "inputs": [
        {
          "internalType": "uint32",
          "name": "_eid",
          "type": "uint32"
        },
        {
          "internalType": "bytes32",
          "name": "_peer",
          "type": "bytes32"
        }
      ],
      "name": "setPeer",
      "outputs": [],
      "stateMutability": "nonpayable",
      "type": "function"
    },
    {
      "inputs": [
        {
          "internalType": "address",
          "name": "_preCrime",
          "type": "address"
        }
      ],
      "name": "setPreCrime",
      "outputs": [],
      "stateMutability": "nonpayable",
      "type": "function"
    },
    {
      "inputs": [],
      "name": "sharedDecimals",
      "outputs": [
        {
          "internalType": "uint8",
          "name": "",
          "type": "uint8"
        }
      ],
      "stateMutability": "view",
      "type": "function"
    },
    {
      "inputs": [],
      "name": "symbol",
      "outputs": [
        {
          "internalType": "string",
          "name": "",
          "type": "string"
        }
      ],
      "stateMutability": "view",
      "type": "function"
    },
    {
      "inputs": [],
      "name": "token",
      "outputs": [
        {
          "internalType": "address",
          "name": "",
          "type": "address"
        }
      ],
      "stateMutability": "view",
      "type": "function"
    },
    {
      "inputs": [],
      "name": "totalSupply",
      "outputs": [
        {
          "internalType": "uint256",
          "name": "",
          "type": "uint256"
        }
      ],
      "stateMutability": "view",
      "type": "function"
    },
    {
      "inputs": [
        {
          "internalType": "address",
          "name": "to",
          "type": "address"
        },
        {
          "internalType": "uint256",
          "name": "value",
          "type": "uint256"
        }
      ],
      "name": "transfer",
      "outputs": [
        {
          "internalType": "bool",
          "name": "",
          "type": "bool"
        }
      ],
      "stateMutability": "nonpayable",
      "type": "function"
    },
    {
      "inputs": [],
      "name": "transferEnableDate",
      "outputs": [
        {
          "internalType": "uint256",
          "name": "",
          "type": "uint256"
        }
      ],
      "stateMutability": "view",
      "type": "function"
    },
    {
      "inputs": [
        {
          "internalType": "address",
          "name": "from",
          "type": "address"
        },
        {
          "internalType": "address",
          "name": "to",
          "type": "address"
        },
        {
          "internalType": "uint256",
          "name": "value",
          "type": "uint256"
        }
      ],
      "name": "transferFrom",
      "outputs": [
        {
          "internalType": "bool",
          "name": "",
          "type": "bool"
        }
      ],
      "stateMutability": "nonpayable",
      "type": "function"
    },
    {
      "inputs": [
        {
          "internalType": "address",
          "name": "newOwner",
          "type": "address"
        }
      ],
      "name": "transferOwnership",
      "outputs": [],
      "stateMutability": "nonpayable",
      "type": "function"
    },
    {
      "inputs": [],
      "name": "transfersEnabled",
      "outputs": [
        {
          "internalType": "bool",
          "name": "",
          "type": "bool"
        }
      ],
      "stateMutability": "view",
      "type": "function"
    },
    {
      "inputs": [
        {
          "internalType": "address",
          "name": "account",
          "type": "address"
        }
      ],
      "name": "updateDecayFactor",
      "outputs": [],
      "stateMutability": "nonpayable",
      "type": "function"
    },
    {
      "inputs": [],
      "name": "vestingWalletFactory",
      "outputs": [
        {
          "internalType": "address",
          "name": "",
          "type": "address"
        }
      ],
      "stateMutability": "view",
      "type": "function"
    },
    {
      "inputs": [
        {
          "internalType": "address",
          "name": "account",
          "type": "address"
        }
      ],
      "name": "whitelistedAddresses",
      "outputs": [
        {
          "internalType": "bool",
          "name": "isWhitelisted",
          "type": "bool"
        }
      ],
      "stateMutability": "view",
      "type": "function"
    }
  ],
  "bytecode": "0x6102408060405234610808575f90619aff803803809161001f8285610833565b8339810190602081830312610808578051906001600160401b038211610808570161010081830312610808576040519161010083016001600160401b0381118482101761081f5760405281516001600160401b0381116108085781610085918401610856565b83526020820151906001600160401b038211610808576100a6918301610856565b918260208201526100b9604083016108ab565b908160408201526100cc606084016108ab565b908160608201526100df608085016108ab565b92608082019284845260a0860151918260a085015260e060c08801519760c0860198895201519563ffffffff871687036108085760e0850196875293516040805190996001600160a01b039687169691948216939091166101408b86610833565b600185526020850193603160f81b8552801561080c575f80546001600160a01b03198116831782558d51939183916001600160a01b0316907f8be0079c531659141344cd1fd0a4f28419497f9722a3daafe3b4186f6b6457e09080a380608052803b15610808576024835f8193819563ca5eb5e160e01b845260048401525af180156107fe576107e9575b5064e8d4a5100060a05281516001600160401b0381116106f657600854600181811c911680156107df575b60208210146106d857601f8111610777575b508060208d601f8311600114610715579161070a575b508160011b915f199060031b1c1916176008555b8051906001600160401b0382116106f657600954600181811c911680156106ec575b60208210146106d8579081601f849311610667575b506020908d601f841160011461060357926105f8575b50508160011b915f199060031b1c1916176009555b61029d816108bf565b610160526102aa83610a5a565b610180526020815191012091826101205251902080610140524660e05287519060208201927f8b73c3c69bb8fe3d512ecc4cf759cc79239f7b179b0ffacaa9a75d522b39400f84528983015260608201524660808201523060a082015260a0815261031660c082610833565b51902060c052306101005280156105e4576101a05280156105d05784516301ffc9a760e01b815263261c910560e21b6004820152602081602481855afa9081156105c6578791610587575b5015610575576101c052301561054557306101e05251835190612f80808301916001600160a01b0316906001600160401b03831184841017610561579183918793616b7f8439308252602082015203019085f0801561055457601280546001600160a01b0319166001600160a01b039290921691821790558015610545576010546001600160a01b038116610536576001600160a01b031916176010555163ffffffff1661020052516102205251615fec9081610b938239608051818181610a0a01528181610b2a01528181610fa00152818161147301528181612837015281816147ae01526152c0015260a051818181610ef001528181611e350152818161383501528181613dd4015281816146b501526148d4015260c05181613ac8015260e05181613b8501526101005181613a9201526101205181613b1701526101405181613b3d015261016051816118d4015261018051816118fd01526101a051818181610ded015261418d01526101c05181818161174f01528181611a1f01528181611ca801528181611fb5015281816120d701528181612b4801528181612bf90152612cf001526101e0518161137e015261020051818181611c150152612fcb0152610220518181816108ee01526134120152f35b6336f62bb160e01b8652600486fd5b6334566e4b60e21b8552600485fd5b50505051903d90823e3d90fd5b634e487b7160e01b88526041600452602488fd5b6347bd7c1d60e01b8652600452602485fd5b90506020813d6020116105be575b816105a260209383610833565b810103126105ba575180151581036105ba575f610361565b8680fd5b3d9150610595565b86513d89823e3d90fd5b6347bd7c1d60e01b86526004869052602486fd5b63392e1e2760e01b87526004879052602487fd5b015190505f8061027f565b600981528281209350601f198516905b81811061064f5750908460019594939210610637575b505050811b01600955610294565b01515f1960f88460031b161c191690555f8080610629565b92936020600181928786015181550195019301610613565b60098e529091507f6e1540171b6c0c960b71a7020d9f60077f6af931a8bbf590da0223dacf75c7af601f840160051c810191602085106106ce575b849392918f91601f0160051c0191905b8282106106c0575050610269565b81558493506001018e6106b2565b90915081906106a2565b634e487b7160e01b8d52602260045260248dfd5b90607f1690610254565b634e487b7160e01b8c52604160045260248cfd5b90508301515f61021e565b600881528181209250601f198416905b81811061075f57509083600194939210610747575b5050811b01600855610232565b8501515f1960f88460031b161c191690555f8061073a565b9192602060018192868a015181550194019201610725565b60088d527ff3f7a9fe364faab93b216da50a3214154f22a0a2b415b23a84c8169e8b636ee3601f830160051c810191602084106107d5575b601f0160051c01908d905b8281106107c8575050610208565b6001918155018d906107ba565b90915081906107af565b90607f16906101f6565b6107f6919b505f90610833565b5f995f6101cb565b8b513d5f823e3d90fd5b5f80fd5b631e4fbdf760e01b5f525f60045260245ffd5b634e487b7160e01b5f52604160045260245ffd5b601f909101601f19168101906001600160401b0382119082101761081f57604052565b81601f82011215610808578051906001600160401b03821161081f576040519261088a601f8401601f191660200185610833565b8284526020838301011161080857815f9260208093018386015e8301015290565b51906001600160a01b038216820361080857565b908151602081105f14610939575090601f8151116108f95760208151910151602082106108ea571790565b5f198260200360031b1b161790565b604460209160405192839163305a27a960e01b83528160048401528051918291826024860152018484015e5f828201840152601f01601f19168101030190fd5b6001600160401b03811161081f57600a54600181811c91168015610a50575b6020821014610a3c57601f8111610a09575b50602092601f82116001146109a857928192935f9261099d575b50508160011b915f199060031b1c191617600a5560ff90565b015190505f80610984565b601f19821693600a5f52805f20915f5b8681106109f157508360019596106109d9575b505050811b01600a5560ff90565b01515f1960f88460031b161c191690555f80806109cb565b919260206001819286850151815501940192016109b8565b600a5f52601f60205f20910160051c810190601f830160051c015b818110610a31575061096a565b5f8155600101610a24565b634e487b7160e01b5f52602260045260245ffd5b90607f1690610958565b908151602081105f14610a85575090601f8151116108f95760208151910151602082106108ea571790565b6001600160401b03811161081f57600b54600181811c91168015610b88575b6020821014610a3c57601f8111610b55575b50602092601f8211600114610af457928192935f92610ae9575b50508160011b915f199060031b1c191617600b5560ff90565b015190505f80610ad0565b601f19821693600b5f52805f20915f5b868110610b3d5750836001959610610b25575b505050811b01600b5560ff90565b01515f1960f88460031b161c191690555f8080610b17565b91926020600181928685015181550194019201610b04565b600b5f52601f60205f20910160051c810190601f830160051c015b818110610b7d5750610ab6565b5f8155600101610b70565b90607f1690610aa456fe60806040526004361015610011575f80fd5b5f3560e01c806306c933d81461056f57806306fdde031461056a578063095ea7b3146105655780630d35b415146105605780630dce88f41461055b578063111ecdad1461055657806313137d6514610551578063134d4f251461054c578063156a0d0f1461054757806317442b701461054257806318160ddd1461053d5780631f5e13341461053857806323b872dd1461053357806324ea54f41461052e578063313ce567146105295780633400288b14610524578063355274ea1461051f5780633644e5151461051a5780633a46b1a8146105155780633b6f743b14610510578063412290811461050b57806342966c68146105065780634bf5d7e91461050157806352ae2879146103d05780635535d461146104fc578063587cde1e146104f75780635a0dfe4d146104f25780635c19a95c146104ed5780635e280f11146104e857806366e943f1146104e357806369b3054b146104de5780636fc1b31e146104d95780636fcfff45146104d457806370a08231146104cf578063715018a6146104ca57806379cc6790146104c55780637c930dde146104c05780637d25a05e146104bb5780637ecebe00146104b657806382413eac146104b157806382c4e4ca146104ac57806384b0196e146104a7578063857749b0146104a25780638ab1d6811461049d5780638da5cb5b146104985780638e539e8c1461049357806391ddadf41461048e578063929f58401461048957806392a525d514610484578063934cc3101461047f57806395d89b411461047a578063963efcaa146104755780639ab24eb0146104705780639db6468c1461046b5780639de048dc146104665780639f68b96414610461578063a89f38a31461045c578063a9059cbb14610457578063af35c6c714610452578063b5e86d4f1461044d578063b731ea0a14610448578063b98bd07014610443578063bb0b6a531461043e578063bc70b35414610439578063bd815db014610434578063bef97c871461042f578063c0b534c21461042a578063c3cda52014610425578063c7c7f5b314610420578063ca5eb5e11461041b578063ccc5749014610416578063d045a0dc14610411578063d42438851461040c578063d505accf14610407578063dd62ed3e14610402578063defe2053146103fd578063e0cf01ae146103f8578063e43252d7146103f3578063ea4ebdca146103ee578063ebc136d0146103e9578063f1127ed8146103e4578063f2fde38b146103df578063f3cc0393146103da578063f56a47a5146103d5578063fc0c546a146103d05763ff7bd03d146103cb575f80fd5b612ee6565b6110d6565b612eb9565b612e8e565b612e05565b612d55565b612c83565b612c5f565b612bae565b612b01565b612ad9565b612a87565b612974565b612904565b6128d3565b6128ac565b61280f565b61267a565b61252d565b6124d3565b6124b1565b61235d565b612309565b6122d0565b6121ed565b612173565b61213c565b612099565b61206f565b612035565b61201b565b611f73565b611efe565b611e58565b611e1e565b611d79565b611d0e565b611c61565b611bf9565b611bd7565b611abf565b611a98565b6119d4565b6119b9565b6118bc565b61188f565b611831565b6117f6565b6117d0565b6116e9565b6116b5565b61165e565b611623565b6115bb565b61154b565b6114dc565b6114a2565b61145e565b611350565b61130a565b6112c7565b61124c565b611086565b611067565b61103f565b610e8c565b610e32565b610e10565b610dd6565b610d51565b610d28565b610cee565b610cae565b610c93565b610c76565b610c55565b610c2f565b610c14565b6109f7565b610924565b6108d7565b6107f6565b610713565b610639565b6105b7565b6001600160a01b0381160361058557565b5f80fd5b6001600160a01b03165f90815260056020526040902090565b9060018060a01b03165f5260205260405f2090565b34610585576020366003190112610585576004356105d481610574565b60018060a01b03165f526019602052602060ff60405f2054166040519015158152f35b5f91031261058557565b805180835260209291819084018484015e5f828201840152601f01601f1916010190565b906020610636928181520190610601565b90565b34610585575f366003190112610585576040515f60085461065981611123565b80845290600181169081156106ef5750600114610691575b61068d836106818185038261122b565b60405191829182610625565b0390f35b60085f9081527ff3f7a9fe364faab93b216da50a3214154f22a0a2b415b23a84c8169e8b636ee3939250905b8082106106d557509091508101602001610681610671565b9192600181602092548385880101520191019092916106bd565b60ff191660208086019190915291151560051b840190910191506106819050610671565b346105855760403660031901126105855761073d60043561073381610574565b6024359033614843565b602060405160018152f35b908160e09103126105855790565b939291906107728560a081019260208091805184520151910152565b60a06040860152815180915260c0850190602060c08260051b8801019301915f905b8282106107ba57505050509060606107b89294019060208091805184520151910152565b565b909192936020806107e860019360bf198c82030186526040838a518051845201519181858201520190610601565b960192019201909291610794565b34610585576020366003190112610585576004356001600160401b03811161058557610826903690600401610748565b61082e612f2b565b50610837612f2b565b50604051610844816111f0565b5f81526001600160401b036020820152602060405192610864828561122b565b5f8452601f1982015f5b8181106108b45750509061089861068d926040810135610892606083013592612f5a565b5061382c565b90916108a2611ec2565b92835282015260405193849384610756565b83906040516108c2816111f0565b5f81526060838201528282890101520161086e565b34610585575f3660031901126105855760206040517f00000000000000000000000000000000000000000000000000000000000000008152f35b6001600160a01b03909116815260200190565b34610585575f366003190112610585576004546040516001600160a01b039091168152602090f35b606090600319011261058557600490565b9181601f84011215610585578235916001600160401b038311610585576020838186019501011161058557565b90600319820160e081126105855760601361058557600491606435916084356001600160401b03811161058557826109c49160040161095d565b9290929160a4356109d481610574565b9160c435906001600160401b038211610585576109f39160040161095d565b9091565b610a003661098a565b50919492915050337f00000000000000000000000000000000000000000000000000000000000000006001600160a01b031603610c01578135610a4281610d43565b610a4b8161387e565b906020840135809203610bdc575050610a73610a6785836148a8565b6001600160a01b031690565b93610a99610a89610a8483856148b4565b6148c6565b610a9285612f5a565b50866148fa565b91610aa48260281090565b610afc575b5050610ad57fefed6d3500546b29533b128a29e3a94d70788727f0507505ac12eaf2e578fd9c92612f5a565b6040805163ffffffff92909216825260208201929092526001600160a01b039490941693a3005b9082610b2792610b21610b11604088016138ae565b93610b1b88612f5a565b9261491e565b9261493a565b917f00000000000000000000000000000000000000000000000000000000000000006001600160a01b0316803b1561058557604051633e5ac80960e11b8152935f918591829084908290610b80908b8d600485016138b8565b03925af1908115610bd7577fefed6d3500546b29533b128a29e3a94d70788727f0507505ac12eaf2e578fd9c93610ad592610bbd575b5092610aa9565b80610bcb5f610bd19361122b565b806105f7565b5f610bb6565b6130fe565b80610beb63ffffffff92610d43565b63309afaf360e21b5f521660045260245260445ffd5b6391ac5e4f60e01b5f523360045260245ffd5b34610585575f36600319011261058557602060405160028152f35b34610585575f366003190112610585576040805162b9270b60e21b815260016020820152f35b34610585575f36600319011261058557604080516001815260026020820152f35b34610585575f366003190112610585576020600754604051908152f35b34610585575f36600319011261058557602060405160018152f35b346105855760603660031901126105855761073d600435610cce81610574565b602435610cda81610574565b60443591610ce98333836138e2565b61399a565b34610585575f3660031901126105855760206040517f55435dd261a4b9b3364963f7738a7a662ad9c84396d64be3365284bb7f0a50418152f35b34610585575f36600319011261058557602060405160128152f35b63ffffffff81160361058557565b34610585576040366003190112610585577f238399d427b947898edb290f5ff0f9109849b1c3ba196a42e35f00c50a54b98b600435610d8f81610d43565b60243590610d9b613a69565b63ffffffff81165f5260016020528160405f2055610dd1604051928392836020909392919363ffffffff60408201951681520152565b0390a1005b34610585575f3660031901126105855760206040517f00000000000000000000000000000000000000000000000000000000000000008152f35b34610585575f366003190112610585576020610e2a613a8f565b604051908152f35b34610585576040366003190112610585576020670de0b6b3a7640000610e79600435610e5d81610574565b610e73602435610e6d8184613bab565b92613caa565b90612f78565b04604051908152f35b8015150361058557565b34610585576040366003190112610585576004356001600160401b03811161058557610ebc903690600401610748565b602435610ec881610e82565b610ed0612f2b565b50813591606081013590610f1b6040820135610eeb86610d43565b610f167f00000000000000000000000000000000000000000000000000000000000000008092612f8b565b612f78565b9180831061102957610f9c604086610f8187610f378888613dbd565b90610f4185610d43565b610f49612f2b565b50610f538561387e565b610f6a610f5e611ed1565b63ffffffff9097168752565b602086015285850152606084015215156080830152565b815180938192631bb8518b60e31b8352309060048401613ef8565b03817f00000000000000000000000000000000000000000000000000000000000000006001600160a01b03165afa8015610bd75761068d915f91610ffa575b5060405191829182815181526020918201519181019190915260400190565b61101c915060403d604011611022575b611014818361122b565b810190613ee4565b82610fdb565b503d61100a565b826371c4efed60e01b5f5260045260245260445ffd5b34610585575f366003190112610585576011546040516001600160a01b039091168152602090f35b346105855760203660031901126105855761108460043533613f66565b005b34610585575f3660031901126105855761068d6040516110a760408261122b565b600e81526d06d6f64653d74696d657374616d760941b6020820152604051918291602083526020830190610601565b34610585575f366003190112610585576020604051308152f35b6024359061ffff8216820361058557565b359061ffff8216820361058557565b634e487b7160e01b5f525f60045260245ffd5b90600182811c92168015611151575b602083101461113d57565b634e487b7160e01b5f52602260045260245ffd5b91607f1691611132565b5f929181549161116a83611123565b80835292600181169081156111bf575060011461118657505050565b5f9081526020812093945091925b8383106111a5575060209250010190565b600181602092949394548385870101520191019190611194565b915050602093945060ff929192191683830152151560051b010190565b634e487b7160e01b5f52604160045260245ffd5b604081019081106001600160401b0382111761120b57604052565b6111dc565b606081019081106001600160401b0382111761120b57604052565b90601f801991011681019081106001600160401b0382111761120b57604052565b346105855760403660031901126105855761068d6112ac6112b36112a060043561127581610d43565b63ffffffff6112826110f0565b91165f52600360205260405f209061ffff165f5260205260405f2090565b6040519283809261115b565b038261122b565b604051918291602083526020830190610601565b34610585576020366003190112610585576004356112e481610574565b60018060a01b03165f52600d602052602060018060a01b0360405f205416604051908152f35b3461058557604036600319011261058557602061134660043561132c81610d43565b6024359063ffffffff165f52600160205260405f20541490565b6040519015158152f35b346105855760203660031901126105855760043561136d81610574565b3361137c575b61108490612fc4565b7f00000000000000000000000000000000000000000000000000000000000000006001600160a01b0316803b15610585575f6040518092633e4986ef60e11b82528183816113cd3360048301610911565b03925af18015610bd75761144a575b506010546113f2906001600160a01b0316610a67565b90813b15610585575f604051809363dae21dab60e01b825281838161141a3360048301610911565b03925af1918215610bd75761108492611436575b509050611373565b80610bcb5f6114449361122b565b5f61142e565b80610bcb5f6114589361122b565b5f6113dc565b34610585575f366003190112610585576040517f00000000000000000000000000000000000000000000000000000000000000006001600160a01b03168152602090f35b34610585575f3660031901126105855760206040517f0d186688925976bbe6755ae984501c8e3e2b103a7af59fd803ab9c6d891ae7e08152f35b346105855760403660031901126105855760043560038110156105855761068d9060243561150981610574565b60405190602082019260f81b835260018060601b03199060601b1660218201526015815261153860358261122b565b5190206040519081529081906020820190565b34610585576020366003190112610585577ff0be4f1e87349231d80c36b33f9e8639658eeaf474014dee15a3e6a4d4414197602060043561158b81610574565b611593613a69565b600480546001600160a01b0319166001600160a01b03929092169182179055604051908152a1005b34610585576020366003190112610585576004356115d881610574565b6001600160a01b03165f908152600e602052604090205463ffffffff811161160c5760405163ffffffff9091168152602090f35b6306dfcc6560e41b5f52602060045260245260445ffd5b346105855760203660031901126105855760043561164081610574565b60018060a01b03165f526005602052602060405f2054604051908152f35b34610585575f36600319011261058557611676613a69565b5f80546001600160a01b0319811682556001600160a01b03167f8be0079c531659141344cd1fd0a4f28419497f9722a3daafe3b4186f6b6457e08280a3005b34610585576040366003190112610585576110846004356116d581610574565b602435906116e48233836138e2565b613f66565b346105855760203660031901126105855760043561170681610574565b604051632474521560e21b81527f025d8bbf3268be680d2605ebf6da15063b9915615bf1087dab336efc1bf970cb60048201523360248201526020816044816001600160a01b037f0000000000000000000000000000000000000000000000000000000000000000165afa908115610bd7575f916117a1575b501561178e5761108490613132565b630a4510f960e31b5f523360045260245ffd5b6117c3915060203d6020116117c9575b6117bb818361122b565b81019061311d565b5f61177f565b503d6117b1565b34610585576040366003190112610585576117ec600435610d43565b60206040515f8152f35b346105855760203660031901126105855760043561181381610574565b60018060a01b03165f52600c602052602060405f2054604051908152f35b346105855760a03660031901126105855761184b3661094c565b506064356001600160401b0381116105855761186b90369060040161095d565b5050602060843561187b81610574565b6040516001600160a01b0390911630148152f35b34610585576020366003190112610585576020610e2a60036004356118b381610574565b5f816013614d6c565b34610585575f366003190112610585576119606118f87f0000000000000000000000000000000000000000000000000000000000000000614deb565b6119217f0000000000000000000000000000000000000000000000000000000000000000614e44565b6020604051611930828261122b565b5f81528161196e81830194601f198301368737604051978897600f60f81b895260e0858a015260e0890190610601565b908782036040890152610601565b914660608701523060808701525f60a087015285830360c087015251918281520192915f5b8281106119a257505050500390f35b835185528695509381019392810192600101611993565b34610585575f36600319011261058557602060405160068152f35b34610585576020366003190112610585576004356119f181610574565b604051632474521560e21b81525f516020615f775f395f51905f5260048201523360248201526020816044817f00000000000000000000000000000000000000000000000000000000000000006001600160a01b03165afa908115610bd7575f91611a79575b5015611a66576110849061324b565b630ea7d7ed60e21b5f523360045260245ffd5b611a92915060203d6020116117c9576117bb818361122b565b5f611a57565b34610585575f366003190112610585575f546040516001600160a01b039091168152602090f35b34610585576020366003190112610585574265ffffffffffff1660043581811015611bc257611aed9061401a565b600f54905f829160058411611b69575b611b099350600f614fd9565b80611b2e575061068d5f5b6040516001600160d01b0390911681529081906020820190565b611b3a61068d91613c8f565b600f5f527f8d1108e10bcb7c27dddfc02ed9d693a074039d026cf4ea4240b40f7d581ac802015460301c611b14565b9192611b7481614e7b565b8103908111611bbd57611b0993600f5f5265ffffffffffff8260205f2001541665ffffffffffff8516105f14611bab575091611afd565b929150611bb790614049565b90611afd565b612f64565b637669fc0f60e11b5f5260045260245260445ffd5b34610585575f36600319011261058557602060405165ffffffffffff42168152f35b34610585575f36600319011261058557602060405163ffffffff7f0000000000000000000000000000000000000000000000000000000000000000168152f35b6004359064ffffffffff8216820361058557565b6024359064ffffffffff8216820361058557565b3461058557602036600319011261058557611c7a611c39565b604051632474521560e21b81525f516020615f775f395f51905f5260048201523360248201526020816044817f00000000000000000000000000000000000000000000000000000000000000006001600160a01b03165afa908115610bd7575f91611cef575b5015611a66576110849061328f565b611d08915060203d6020116117c9576117bb818361122b565b5f611ce0565b3461058557604036600319011261058557600435611d2b81610574565b60243580611d6857506001600160a01b03165f908152600e602090815260409091206001600160d01b0390611d5f90615035565b16604051908152f35b611d7490602092613bab565b610e2a565b34610585575f366003190112610585576040515f600954611d9981611123565b80845290600181169081156106ef5750600114611dc05761068d836106818185038261122b565b60095f9081527f6e1540171b6c0c960b71a7020d9f60077f6af931a8bbf590da0223dacf75c7af939250905b808210611e0457509091508101602001610681610671565b919260018160209254838588010152019101909291611dec565b34610585575f3660031901126105855760206040517f00000000000000000000000000000000000000000000000000000000000000008152f35b34610585576020366003190112610585576020610e2a611ebd600435611e7d81610574565b611eb76003611ea4611e9f8460018060a01b03165f52600e60205260405f2090565b615035565b6001600160d01b0316925f8160136153c3565b9061597d565b615a12565b604051906107b860408361122b565b604051906107b860a08361122b565b60643590600282101561058557565b60043590600282101561058557565b346105855760a03660031901126105855760405160a08101908082106001600160401b0383111761120b5761108491604052611f3960043590565b8152611f43611c4d565b60208201526044356040820152611f58611ee0565b6060820152608435611f6981610574565b60808201526132dc565b3461058557602036600319011261058557600435604051632474521560e21b81525f516020615f775f395f51905f5260048201523360248201526020816044817f00000000000000000000000000000000000000000000000000000000000000006001600160a01b03165afa908115610bd7575f91611ffc575b5015611a6657611084906133a6565b612015915060203d6020116117c9576117bb818361122b565b5f611fed565b34610585575f3660031901126105855760206040515f8152f35b34610585575f3660031901126105855760206040517fb00be3d6a5434b97b328543d1486d56adcb7e74080170d1cdd7e0306c3d9ba3d8152f35b346105855760403660031901126105855761073d60043561208f81610574565b602435903361399a565b34610585575f36600319011261058557604051632474521560e21b81525f516020615f775f395f51905f5260048201523360248201526020816044817f00000000000000000000000000000000000000000000000000000000000000006001600160a01b03165afa908115610bd7575f9161211d575b5015611a6657611084613405565b612136915060203d6020116117c9576117bb818361122b565b5f61210f565b34610585575f366003190112610585576015546301e187e08102908082046301e187e01490151715611bbd57602090604051908152f35b34610585575f366003190112610585576002546040516001600160a01b039091168152602090f35b906020600319830112610585576004356001600160401b0381116105855760040182601f82011215610585578035926001600160401b038411610585576020808301928560051b010111610585579190565b34610585576121fb3661219b565b90612204613a69565b61220d82612f43565b9061221b604051928361122b565b828252602082019260051b8101903682116105855780935b8285106122435761108484614398565b84356001600160401b03811161058557820190606082360312610585576040519161226d83611210565b803561227881610d43565b835261228660208201611101565b60208401526040810135906001600160401b03821161058557019036601f83011215610585576020926122c0849336908581359101613485565b6040820152815201940193612233565b346105855760203660031901126105855763ffffffff6004356122f281610d43565b165f526001602052602060405f2054604051908152f35b346105855760603660031901126105855760043561232681610d43565b61232e6110f0565b604435906001600160401b0382116105855761068d926123556112b393369060040161095d565b92909161354a565b6123663661219b565b5f5b8181106123d557604051638e9e709960e01b81525f81600481335afa8015610bd7576123af915f916123b3575b50604051638351eea760e01b815291829160048301610625565b0390fd5b6123cf91503d805f833e6123c7818361122b565b8101906136ef565b82612395565b6123e0818385613600565b9061241061240c6123f084612f5a565b60208501359063ffffffff165f52600160205260405f20541490565b1590565b6124a85760c08201359160a081013561242d610100830183613628565b94909161243c60e0850161365a565b9361244b610120820182613628565b959095303b15610585575f96612478926040519a8b9889978897633411683760e21b895260048901613675565b0391305af1918215610bd757600192612494575b505b01612368565b80610bcb5f6124a29361122b565b5f61248c565b6001915061248e565b34610585575f36600319011261058557602060ff601854166040519015158152f35b34610585575f3660031901126105855760206040517f025d8bbf3268be680d2605ebf6da15063b9915615bf1087dab336efc1bf970cb8152f35b6064359060ff8216820361058557565b6084359060ff8216820361058557565b346105855760c03660031901126105855760043561254a81610574565b6024359060443561255961250d565b6084359060a4359280421161261757916125de93916125d06125d59460405160208101917fe48329057bfd03d55e49b547132e39cffd9c1820ad7b9d4c5307691425d15adf835260018060a01b038a1660408301528a60608301526080820152608081526125c860a08261122b565b51902061448d565b61505f565b909291926150e1565b6125e781614821565b8093036125f85761108492506144c2565b90506301d4b62360e61b5f5260018060a01b031660045260245260445ffd5b632341d78760e11b5f5260045260245ffd5b9160806107b8929493612669604060c0830197805184526001600160401b0360208201511660208501520151604083019060208091805184520151910152565b019060208091805184520151910152565b6080366003190112610585576004356001600160401b038111610585576126a5903690600401610748565b604036602319011261058557606435906126be82610574565b6126c6613751565b506126cf612f2b565b506126e66001600160a01b03602083013516610a67565b6126f561240c60185460ff1690565b90816127e0575b816127cc575b506127bd5761274e916127286040830135606084013561272185612f5a565b91336146a8565b9390916127358585613dbd565b61273e86612f5a565b9161274836613777565b92614731565b917f85496b760a4b7f8d66384b9df21b381f5d1b1e79f229a47aaf4c232edc2fe59a612778611ec2565b9483865280602087015261278d855193612f5a565b6040805163ffffffff9290921682526020820195909552938401523392606090a361068d60405192839283612629565b638cd22d1960e01b5f5260045ffd5b6001600160a01b031633141590505f612702565b905061280961240c6128028360018060a01b03165f52601960205260405f2090565b5460ff1690565b906126fc565b34610585575f60203660031901126105855760043561282d81610574565b612835613a69565b7f00000000000000000000000000000000000000000000000000000000000000006001600160a01b031690813b156105855760405163ca5eb5e160e01b81526001600160a01b039091166004820152905f908290602490829084905af18015610bd7576128a0575080f35b61108491505f9061122b565b34610585575f3660031901126105855760206040515f516020615f775f395f51905f528152f35b6128dc3661098a565b50505092903033036128f557610a73610a6785836148a8565b63029a949d60e31b5f5260045ffd5b34610585576020366003190112610585577fd48d879cef83a1c0bdda516f27b13ddb1b3f8bbac1c9e1511bb2a659c2427760602060043561294481610574565b61294c613a69565b600280546001600160a01b0319166001600160a01b03929092169182179055604051908152a1005b346105855760e03660031901126105855760043561299181610574565b60243561299d81610574565b60443590606435926129ad61251d565b60a43560c43590864211612a7457612a3992612a346129cb86614821565b9860405160208101917f6e71edae12b1b97f4d1f60370fef10105fa2faae0126114a169c64845d6126c9835260018060a01b0389169b8c604084015260018060a01b038b1660608401528b608084015260a083015260c082015260c081526125c860e08261122b565b6144b3565b936001600160a01b03851603612a53576110849350614843565b6325c0072360e11b5f526001600160a01b038085166004521660245260445ffd5b8663313c898160e11b5f5260045260245ffd5b34610585576040366003190112610585576020612ad0600435612aa981610574565b60243590612ab682610574565b6001600160a01b03165f90815260068452604090206105a2565b54604051908152f35b34610585575f366003190112610585576012546040516001600160a01b039091168152602090f35b3461058557602036600319011261058557612b1a611eef565b604051632474521560e21b81525f516020615f775f395f51905f5260048201523360248201526020816044817f00000000000000000000000000000000000000000000000000000000000000006001600160a01b03165afa908115610bd7575f91612b8f575b5015611a66576110849061379f565b612ba8915060203d6020116117c9576117bb818361122b565b5f612b80565b3461058557602036600319011261058557600435612bcb81610574565b604051632474521560e21b81525f516020615f775f395f51905f5260048201523360248201526020816044817f00000000000000000000000000000000000000000000000000000000000000006001600160a01b03165afa908115610bd7575f91612c40575b5015611a6657611084906137e5565b612c59915060203d6020116117c9576117bb818361122b565b5f612c31565b34610585575f36600319011261058557602064ffffffffff60145416604051908152f35b3461058557602036600319011261058557600435612ca081610574565b604051632474521560e21b81527fb00be3d6a5434b97b328543d1486d56adcb7e74080170d1cdd7e0306c3d9ba3d60048201526001600160a01b03918216602482015290602090829060449082907f0000000000000000000000000000000000000000000000000000000000000000165afa8015610bd75761068d915f91612d36575b5060405190151581529081906020820190565b612d4f915060203d6020116117c9576117bb818361122b565b5f612d23565b346105855760403660031901126105855761068d612dbb600435612d7881610574565b60243590612d8582610d43565b612d8d612f2b565b50612d96612f2b565b506001600160a01b03165f908152600e60205260409020612db5612f2b565b506153ae565b5060405190612dc9826111f0565b5465ffffffffffff811680835260309190911c60209283019081526040805192835290516001600160d01b031692820192909252918291820190565b3461058557602036600319011261058557600435612e2281610574565b612e2a613a69565b6001600160a01b03168015612e7b575f80546001600160a01b03198116831782556001600160a01b0316907f8be0079c531659141344cd1fd0a4f28419497f9722a3daafe3b4186f6b6457e09080a3005b631e4fbdf760e01b5f525f60045260245ffd5b34610585576040366003190112610585576020610e2a600435612eb081610574565b60243590613caa565b34610585576020366003190112610585576020610e2a6003600435612edd81610574565b5f8160136153c3565b34610585576060366003190112610585576020612f023661094c565b63ffffffff8135612f1281610d43565b165f52600182528160405f205491013560405191148152f35b60405190612f38826111f0565b5f6020838281520152565b6001600160401b03811161120b5760051b60200190565b3561063681610d43565b634e487b7160e01b5f52601160045260245ffd5b81810292918115918404141715611bbd57565b8115612f95570490565b634e487b7160e01b5f52601260045260245ffd5b6001600160401b03811161120b57601f01601f191660200190565b63ffffffff7f0000000000000000000000000000000000000000000000000000000000000000168046036130d957506001600160a01b03811615908161304c575b6107b8911580613023575b156140105761301e81614c9f565b614010565b506001600160a01b0381165f9081526013602052604090206001015464ffffffffff1615613010565b60125461306390610a67906001600160a01b031681565b602060405180926370a0823160e01b825281806130833360048301610911565b03915afa908115610bd7575f916130aa575b501561300557630e7ae57960e01b5f5260045ffd5b6130cc915060203d6020116130d2575b6130c4818361122b565b8101906130ef565b5f613095565b503d6130ba565b6322a45b8960e21b5f524660045260245260445ffd5b90816020910312610585575190565b6040513d5f823e3d90fd5b634e487b7160e01b5f52602160045260245ffd5b90816020910312610585575161063681610e82565b7f7d4f30fa682bd557f547a1f7245a280525fd183bdb54917c56ec7ef22e5b532a9061315d81614c9f565b6001600160a01b0381165f90815260136020526040902060018101805491929161318e9064ffffffffff1642613c9d565b928054936131af6131a560145464ffffffffff1690565b64ffffffffff1690565b1061322d575b6001600160a01b0383165f908152601760205260409020613209929185916131ef906001600160e01b038416904263ffffffff16906156ea565b505055805464ffffffffff19164264ffffffffff16179055565b604080516001600160a01b039092168252602082019290925290819081015b0390a1565b9250613209906132426003845f8160136153c3565b939091506131b5565b6001600160a01b03165f818152601960205260408120805460ff191690557f535611fb62fa2a833988f283b779e417e996813e44046f521d76c17b5943b08c9080a2565b602064ffffffffff7f9ec539ec1ff2fdcda111a25f0c7d902ff0205d74dfaa05f434eecc8cdea9e8b1926132c281614064565b168064ffffffffff196014541617601455604051908152a1565b6132e4613a69565b60ff601a5416613389578061337060406133779301613303815161409e565b61335b61334f602085019261331f64ffffffffff855116614064565b6080860151601180546001600160a01b0319166001600160a01b0392909216919091179055516301e187e0900490565b915164ffffffffff1690565b9060608401519161336b83613397565b6140c2565b513361410c565b6107b8600160ff19601a541617601a55565b62dc149f60e41b5f5260045ffd5b600211156133a157565b613109565b6301e187e0906133b58161409e565b04670de0b6b3a764000081116133f6576020817f179ae38251712f92ada204166c624f1fd16102c85f82e13348393a898b04e9d292601555604051908152a1565b630678582160e51b5f5260045ffd5b60185460ff8116613476577f000000000000000000000000000000000000000000000000000000000000000042106134675760ff19166001176018557feadb24812ab3c9a55c774958184293ebdb6c7f6a2dbab11f397d80c86feb65d35f80a1565b63be5fb0cb60e01b5f5260045ffd5b6385e1a58160e01b5f5260045ffd5b92919261349182612fa9565b9161349f604051938461122b565b829481845281830111610585578281602093845f960137010152565b909291928360021161058557831161058557600201916001190190565b805191908290602001825e015f815290565b61350493926107b8928160405196879460208601906134d8565b918237015f815203601f19810184528361122b565b908060209392818452848401375f828201840152601f01601f1916010190565b916020610636938181520191613519565b6112a06112ac9263ffffffff61357b9397959697165f52600360205260405f209061ffff165f5260205260405f2090565b8051156135de5783156135d85760028410156135af5750506123af604051928392639a6d49cd60e01b845260048401613539565b9092806135d291610636946135cd6135c8368484613485565b614455565b6134bb565b916134ea565b92509050565b509190610636913691613485565b634e487b7160e01b5f52603260045260245ffd5b91908110156136235760051b8101359061013e1981360301821215610585570190565b6135ec565b903590601e198136030182121561058557018035906001600160401b0382116105855760200191813603831361058557565b3561063681610574565b6001600160401b0381160361058557565b9290936136d1926001600160401b0360406106369a98999763ffffffff813561369d81610d43565b1688526020810135602089015201356136b581613664565b166040860152606085015260e0608085015260e0840191613519565b6001600160a01b0390941660a082015280840360c090910152613519565b602081830312610585578051906001600160401b038211610585570181601f820112156105855780519061372282612fa9565b92613730604051948561122b565b8284526020838301011161058557815f9260208093018386015e8301015290565b6040519061375e82611210565b815f81525f60208201526040613772612f2b565b910152565b60409060231901126105855760405190613790826111f0565b60243582526044356020830152565b60028110156133a15760207f7b7c2a74bf19219346c0b038bc25beb1372ff76eb0b6fe50ba0433b4ac9842799160ff8019601654169116809117601655604051908152a1565b6001600160a01b03165f818152601960205260408120805460ff191660011790557f4f783c179409b4127238bc9c990bc99b9a651666a0d20b51d6c42849eb88466d9080a2565b61385b90610f167f00000000000000000000000000000000000000000000000000000000000000008092612f8b565b9182918084106138685750565b836371c4efed60e01b5f5260045260245260445ffd5b63ffffffff16805f52600160205260405f205490811561389c575090565b63f6ff4fb760e01b5f5260045260245ffd5b3561063681613664565b610636939260809260018060a01b0316825260208201525f60408201528160608201520190610601565b6001600160a01b03165f818152600660205260409020919290916139079084906105a2565b5460018101613917575b50505050565b818110613979578215613966576001600160a01b0384161561395357613949925f526006602052039160405f206105a2565b555f808080613911565b634a1406b160e11b5f525f60045260245ffd5b63e602df0560e01b5f525f60045260245ffd5b83637dc7a0d960e11b5f5260018060a01b031660045260245260445260645ffd5b6001600160a01b038116939291908415613a56576001600160a01b0382168015613a43576139c883836154de565b156127bd576139d682610589565b5495848710613a1d57846107b89697036139ef84610589565b556139f984610589565b8054860190556040518581525f516020615f975f395f51905f5290602090a3615b80565b63391434e360e21b5f526001600160a01b0383166004526024879052604485905260645ffd5b63ec442f0560e01b5f525f60045260245ffd5b634b637e8f60e11b5f525f60045260245ffd5b5f546001600160a01b03163303613a7c57565b63118cdaa760e01b5f523360045260245ffd5b307f00000000000000000000000000000000000000000000000000000000000000006001600160a01b03161480613b82575b15613aea577f000000000000000000000000000000000000000000000000000000000000000090565b60405160208101907f8b73c3c69bb8fe3d512ecc4cf759cc79239f7b179b0ffacaa9a75d522b39400f82527f000000000000000000000000000000000000000000000000000000000000000060408201527f000000000000000000000000000000000000000000000000000000000000000060608201524660808201523060a082015260a08152613b7c60c08261122b565b51902090565b507f00000000000000000000000000000000000000000000000000000000000000004614613ac1565b65ffffffffffff421680831015613c7957506001600160a01b03165f908152600e6020526040902090613bdd9061401a565b8154905f829160058411613c26575b613bf7935084614fd9565b80613c0c5750505f5b6001600160d01b031690565b613c1590613c8f565b905f5260205f20015460301c613c00565b9192613c3181614e7b565b8103908111611bbd57613bf793855f5265ffffffffffff8260205f2001541665ffffffffffff8516105f14613c67575091613bec565b929150613c7390614049565b90613bec565b82637669fc0f60e11b5f5260045260245260445ffd5b5f19810191908211611bbd57565b91908203918211611bbd57565b60165490613cc2600883901c64ffffffffff166131a5565b90818410613d9057613cd59060176105a2565b6001600160e01b0390613cef9063ffffffff861690614992565b169283613d8a57613d01929350613c9d565b613d146131a560145464ffffffffff1690565b9182821115613d7b5760ff16613d2981613397565b80613d455750613d3f6106369260155492613c9d565b90614b25565b80613d51600192613397565b03613d6c57613d666106369260155492613c9d565b90614a0c565b6346b2fddf60e11b5f5260045ffd5b505050670de0b6b3a764000090565b50505090565b505050505f90565b9091613daf61063693604084526040840190610601565b916020818403910152610601565b9091613e22613e4893613e05613df96020860135927f000000000000000000000000000000000000000000000000000000000000000090612f8b565b6001600160401b031690565b613e1c613e1560a0870187613628565b3691613485565b91614c30565b93909283945f14613eb4576002905b612355613e3d82612f5a565b916080810190613628565b60045490926001600160a01b03909116908382613e6457505050565b60405163043a78eb60e01b815292602092849283918291613e889160048401613d98565b03915afa8015610bd757613e995750565b613eb19060203d6020116117c9576117bb818361122b565b50565b600190613e31565b919082604091031261058557604051613ed4816111f0565b6020808294805184520151910152565b906040828203126105855761063691613ebc565b906020909392936040835263ffffffff81511660408401528181015160608401526080613f4c613f36604084015160a08488015260e0870190610601565b6060840151868203603f190160a0880152610601565b910151151560c08401526001600160a01b03909416910152565b6001600160a01b0381168015613a5657613f805f836154de565b156127bd57613f8e82610589565b54838110613fd257915f8092856107b8969503613faa84610589565b556007805486900390556040518581525f516020615f975f395f51905f5290602090a3615b80565b63391434e360e21b5f526001600160a01b038316600452602452604483905260645ffd5b61400864ffffffffff926001926105a2565b015416151590565b6107b890336144c2565b65ffffffffffff81116140325765ffffffffffff1690565b6306dfcc6560e41b5f52603060045260245260445ffd5b9060018201809211611bbd57565b91908201809211611bbd57565b64ffffffffff1662278d0081108015614091575b61407f5750565b6344aa7c4560e01b5f5260045260245ffd5b506301e187e08111614078565b6706f05b59d3b2000081116140b05750565b6306f18fc760e31b5f5260045260245ffd5b64ffffffffff1664ffffffffff19601454161760145560155560028110156133a1576016805465ffffffffffff191660ff92909216919091174260081b65ffffffffff0016179055565b91906001600160a01b0383168015613a4357614128845f6154de565b156127bd5761414161413c83600754614057565b600755565b61414a84610589565b8054830190556040518281525f905f516020615f975f395f51905f5290602090a3600754926001600160d01b038085116141cf575061418b9293505f615b80565b7f00000000000000000000000000000000000000000000000000000000000000006007548181116141ba575050565b63279e7e1560e21b5f5260045260245260445ffd5b630e58ae9360e11b5f52600485905260245260445ffd5b80518210156136235760209160051b010190565b601f821161420757505050565b5f5260205f20906020601f840160051c8301931061423f575b601f0160051c01905b818110614234575050565b5f8155600101614229565b9091508190614220565b91909182516001600160401b03811161120b576142708161426a8454611123565b846141fa565b6020601f82116001146142af5781906142a09394955f926142a4575b50508160011b915f199060031b1c19161790565b9055565b015190505f8061428c565b601f198216906142c2845f5260205f2090565b915f5b8181106142fc575095836001959697106142e4575b505050811b019055565b01515f1960f88460031b161c191690555f80806142da565b9192602060018192868b0151815501940192016142c5565b602081016020825282518091526040820191602060408360051b8301019401925f915b83831061434657505050505090565b9091929394602080614389600193603f19868203018752606060408b5163ffffffff815116845261ffff8682015116868501520151918160408201520190610601565b97019301930191939290614337565b5f5b815181101561442357806143bd60406143b5600194866141e6565b510151614455565b61441d60406143cc83866141e6565b51015163ffffffff6143de84876141e6565b5151165f52600360205261441860405f2061440860206143fe878a6141e6565b51015161ffff1690565b61ffff165f5260205260405f2090565b614249565b0161439a565b506132287fbe4864a8e820971c0247f5992e2da559595f7bf076a21cb5928d443d2a13b6749160405191829182614314565b600361ffff600283015116036144685750565b604051639a6d49cd60e01b8152602060048201529081906123af906024830190610601565b604290614498613a8f565b906040519161190160f01b8352600283015260228201522090565b9161063693916125d59361505f565b6001600160a01b038181165f818152600d6020526040812080548685166001600160a01b03198216811790925594959490931693929184917f3134e8a2e6d97e929a7e54011ea5485d7d196dd5f0ba4d4ef95803e8e3fc257f9080a461452783610589565b5460125461453f90610a67906001600160a01b031681565b93602060405180966370a0823160e01b825281806145608660048301610911565b03915afa948515610bd7575f95614687575b5060115461458a90610a67906001600160a01b031681565b60405163baf3510760e01b8152602081806145a88660048301610911565b0381855afa908115610bd7575f91614668575b506001600160a01b031615614654576145ed9291602091604051808096819463baf3510760e01b835260048301610911565b03915afa8015610bd7576107b89561461361461a9261461f955f91614625575b50610589565b5492614057565b614057565b91615172565b614647915060203d60201161464d575b61463f818361122b565b81019061515d565b5f61460d565b503d614635565b505061461f9061461a6107b8955f92614057565b614681915060203d60201161464d5761463f818361122b565b5f6145bb565b6146a191955060203d6020116130d2576130c4818361122b565b935f614572565b939192506146db90610f167f00000000000000000000000000000000000000000000000000000000000000008092612f8b565b9180831061102957506107b8828094613f66565b906080828203126105855761472990604080519361470c85611210565b80518552602081015161471e81613664565b602086015201613ebc565b604082015290565b61478e608094926147aa9694614745613751565b5060206147528651615294565b950191825180614812575b506147678561387e565b9251151592614777610f5e611ed1565b602086015260408501526060840152151585830152565b6040518095819482936302637a4560e41b845260048401613ef8565b03917f00000000000000000000000000000000000000000000000000000000000000006001600160a01b03165af1908115610bd7575f916147e9575090565b610636915060803d60801161480b575b614803818361122b565b8101906146ef565b503d6147f9565b61481b906152b1565b5f61475d565b6001600160a01b03165f908152600c6020526040902080546001810190915590565b6001600160a01b0316908115613966576001600160a01b038116928315613953578061489b7f8c5be1e5ebec7d5bd14f71427d1e84f3dd0314c0f7b2291e5b200ac8c7c3b92593855f52600660205260405f206105a2565b55604051908152602090a3565b90602011610585573590565b90602811610585576020013560c01c90565b610636906001600160401b037f00000000000000000000000000000000000000000000000000000000000000009116612f78565b816001600160a01b03821615614914575b6106369161410c565b61dead915061490b565b9080602811610585576106369136916027190190602801613485565b60405160c09190911b6001600160c01b031916602082015260e09190911b6001600160e01b0319166028820152602c8101919091529061063690829061498490604c8301906134d8565b03601f19810183528261122b565b9081549063ffffffff5f91165b8282106149cb575050806149b35750505f90565b6149bc90613c8f565b905f5260205f20015460201c90565b90916149d7818461579f565b90845f528263ffffffff8360205f20015416115f146149f95750915b9061499f565b925060018101809111156149f357612f64565b9080158015614aa0575b614a9257670de0b6b3a7640000821015614a7f5781670de0b6b3a7640000148015614a85575b614a7f57614a5391670de0b6b3a76400000361555c565b8015614a7a57614a6b90670de0b6b3a764000061597d565b8015614a7a57610636906155b5565b505f90565b50505f90565b5063ffffffff8111614a3c565b5050670de0b6b3a764000090565b508115614a16565b9180158015614b1d575b614b1857670de0b6b3a7640000821015614b04578215614b045781670de0b6b3a7640000148015614b0b575b614b0457614af591670de0b6b3a76400000361555c565b8015614a7f57614a6b9161597d565b5050505f90565b5063ffffffff8111614ade565b505090565b508115614ab2565b81158015614ba9575b614a9257670de0b6b3a7640000811015614a7f57801580159081614b90575b50614a7f5702670de0b6b3a7640000811015614a7a57614b8261063691670de0b6b3a764000003670de0b6b3a7640000612f78565b670de0b6b3a7640000900490565b9050612f955780670de0b6b3a76400000482115f614b4d565b508015614b2e565b919081158015614c28575b614b1857670de0b6b3a7640000811015614b04578215614b0457801580159081614c0f575b50614b045702670de0b6b3a7640000811015614a7f5761063691614b8291670de0b6b3a76400000390612f78565b9050612f955780670de0b6b3a76400000482115f614be1565b508015614bbc565b82511580159390614c735790614984614c7092604051948593602085015260018060c01b03199060c01b16604084015233604884015260688301906134d8565b91565b509060405191602083015260018060c01b03199060c01b16604082015260288152614c7060488261122b565b6001600160a01b0381165f9081526013602052604090206001015464ffffffffff1615614cc95750565b6132287f9b44a2c7f9f0b5aa4e7da60d8a2325796c57f93a45559d66515743ffbd8a610391614d43604051614cfd816111f0565b670de0b6b3a76400008152600164ffffffffff602083018142168152614d248660136105a2565b93518455511691019064ffffffffff1664ffffffffff19825416179055565b614d5e614d518260176105a2565b63ffffffff421690615610565b505060405191829182610911565b939291906001600160a01b038116908115614de157614d8b9085615f3e565b906001600160a01b03808316919085168214614dd7578115918215614dcd575b5050614dc55760018201809211611bbd5761063694614d6c565b509250505090565b1490505f80614dab565b5050509250505090565b5050505050505f90565b60ff8114614e315760ff811690601f8211614e225760405191614e0f60408461122b565b6020808452838101919036833783525290565b632cd44ac360e21b5f5260045ffd5b50604051610636816112ac81600a61115b565b60ff8114614e685760ff811690601f8211614e225760405191614e0f60408461122b565b50604051610636816112ac81600b61115b565b600181111561063657806001600160801b821015614f9c575b614f42614f38614f2e614f24614f1a614f10614eff614f49976004614f4e9a600160401b811015614f8f575b640100000000811015614f82575b62010000811015614f75575b610100811015614f68575b6010811015614f5b575b1015614f53575b60030260011c90565b614f09818b612f8b565b0160011c90565b614f09818a612f8b565b614f098189612f8b565b614f098188612f8b565b614f098187612f8b565b614f098186612f8b565b8093612f8b565b821190565b900390565b60011b614ef6565b60041c9160021b91614eef565b60081c9160041b91614ee5565b60101c9160081b91614eda565b60201c9160101b91614ece565b60401c9160201b91614ec0565b5050614f4e614f49614f42614f38614f2e614f24614f1a614f10614eff614fc38a60801c90565b9850600160401b9750614e949650505050505050565b905b838310614fe85750505090565b909192614ff5818561579f565b90835f5265ffffffffffff8260205f2001541665ffffffffffff8416105f146150225750925b9190614fdb565b9350600181018091111561501b57612f64565b805490816150435750505f90565b815f19810111611bbd575f525f199060205f2001015460301c90565b91906fa2a8918ca85bafe22016d0b997e4df60600160ff1b0384116150cc579160209360809260ff5f9560405194855216868401526040830152606082015282805260015afa15610bd7575f516001600160a01b038116156150c257905f905f90565b505f906001905f90565b5050505f9160039190565b600411156133a157565b6150ea816150d7565b806150f3575050565b6150fc816150d7565b600181036151135763f645eedf60e01b5f5260045ffd5b61511c816150d7565b60028103615137575063fce698f760e01b5f5260045260245ffd5b806151436003926150d7565b1461514b5750565b6335e2f38360e21b5f5260045260245ffd5b90816020910312610585575161063681610574565b6001600160a01b0380831693929190811690818514158061528b575b61519a575b5050505050565b8161521e575b5050826151af575b8080615193565b6001600160a01b03165f908152600e602052604090207fdec2bacdd2f05b59de34da9b523dff8be42e5e38e818c82fdb0bae774387a724916151fb916151f590916157b4565b90615818565b604080516001600160d01b039384168152919092166020820152a25f80806151a8565b6001600160a01b03165f908152600e602052604090207fdec2bacdd2f05b59de34da9b523dff8be42e5e38e818c82fdb0bae774387a7249061526990615263866157b4565b906157e5565b604080516001600160d01b039384168152919092166020820152a25f806151a0565b5083151561518e565b80340361529e5790565b6304fb820960e51b5f523460045260245ffd5b60405163393f876560e21b81527f00000000000000000000000000000000000000000000000000000000000000006001600160a01b031690602081600481855afa908115610bd7575f9161538f575b506001600160a01b0316918215615380576020915f9160405190848201926323b872dd60e01b8452336024840152604483015260648201526064815261534760848261122b565b519082855af1156130fe575f513d6153775750803b155b6153655750565b635274afe760e01b5f5260045260245ffd5b6001141561535e565b6329b99a9560e11b5f5260045ffd5b6153a8915060203d60201161464d5761463f818361122b565b5f615300565b8054821015613623575f5260205f2001905f90565b93909290916001600160a01b038416908115614de1576002811015614de1576153ec8585615f3e565b916001600160a01b03808416919085168214806154d5575b6154c55781151591826154ba575b5050806154aa575b615493575050505061542f61240c8284613ff6565b61543c576106369161587f565b5060038101546106369161546361545d600884901c64ffffffffff166131a5565b42613c9d565b9064ffffffffff61548b6154846001600285015494015464ffffffffff1690565b9460ff1690565b9316916158c7565b61063695929394506154a490614049565b916153c3565b506154b58287613ff6565b61541a565b141590505f80615412565b505050509150506106369161587f565b50821515615404565b6001600160a01b03168015801561554b575b6155445760ff60185416615544575f52601960205260ff60405f205416908115615523575b5061551e575f90565b600190565b6001600160a01b03165f9081526019602052604081205460ff169150615515565b5050600190565b506001600160a01b038216156154f0565b8060018316156155a6575b9160011c90815b61557757505090565b806155819161597d565b9060018116615595575b60011c908161556e565b91816155a09161597d565b9161558b565b50670de0b6b3a7640000615567565b670de0b6b3a764000061063691615ac2565b8054600160401b81101561120b576155e4916001820181556153ae565b61560b57815160209283015190921b63ffffffff191663ffffffff92909216919091179055565b611110565b805490919080156156cc5761562761563291613c8f565b835f5260205f200190565b9081549261564d6156468563ffffffff1690565b9460201c90565b9363ffffffff80841691168181116156bd5703615689575050805463ffffffff166503782dace9d960321b1790555b90670de0b6b3a764000090565b6156b892506156a5615699611ec2565b63ffffffff9093168352565b670de0b6b3a764000060208301526155c7565b61567c565b632520601d60e01b5f5260045ffd5b506156dc916156a5615699611ec2565b5f90670de0b6b3a764000090565b805492939280156157755761570161570c91613c8f565b825f5260205f200190565b8054602081901c9363ffffffff918216929181168084116156bd5787930361574f575061574b92509063ffffffff82549181199060201b169116179055565b9190565b91505061574b91615761615699611ec2565b6001600160e01b03861660208301526155c7565b509061579a91615786615699611ec2565b6001600160e01b03851660208301526155c7565b5f9190565b90808216911860011c8101809111611bbd5790565b6001600160d01b0381116157ce576001600160d01b031690565b6306dfcc6560e41b5f5260d060045260245260445ffd5b906157ef82615035565b6001600160d01b0391821690821603908111611bbd576109f39165ffffffffffff421690615c04565b9061582282615035565b6001600160d01b0391821690821601908111611bbd576109f39165ffffffffffff421690615c04565b615855600f615035565b6001600160d01b0391821690821603908111611bbd576109f3904265ffffffffffff16600f615c04565b9061588a90826105a2565b9064ffffffffff600183015416420390428211611bbd5761063692549160028201549060ff600364ffffffffff6001860154169401541693615930565b9192909280831115615920578203918211611bbd5760028110156133a157806158fd575061063691670de0b6b3a7640000614bb1565b80615909600192613397565b03613d6c5761063691670de0b6b3a7640000614aa8565b50505050670de0b6b3a764000090565b93909280841115615976578303928311611bbd5760028110156133a1578061595c575061063692614bb1565b80615968600192613397565b03613d6c5761063692614aa8565b5050505090565b9091905f1983820983820291828083109203918083039214615a0157670de0b6b3a76400008210156159ea577faccb18165bd6fe31ae1cf318dc5b51eee0e1ba569b88cd74c1773b91fac106699394670de0b6b3a7640000910990828211900360ee1b910360121c170290565b8490635173648d60e01b5f5260045260245260445ffd5b5050670de0b6b3a764000090049150565b905f19670de0b6b3a76400008309670de0b6b3a7640000830290818082109103908082039114615ab257670de0b6b3a7640000811015615a8d57670de0b6b3a7640000807faccb18165bd6fe31ae1cf318dc5b51eee0e1ba569b88cd74c1773b91fac1066994950990828211900360ee1b910360121c170290565b630c740aef60e31b5f526004849052670de0b6b3a7640000602481905260445260645ffd5b50670de0b6b3a764000090049150565b5f19670de0b6b3a7640000820991670de0b6b3a7640000820291828085109403938085039414615b745781841015615b5357670de0b6b3a7640000829109600182190182168092046002816003021880820260020302808202600203028082026002030280820260020302808202600203028091026002030293600183805f03040190848311900302920304170290565b630c740aef60e31b5f52600452670de0b6b3a764000060245260445260645ffd5b50906106369250612f8b565b9190615b8c8184615cb7565b615b97838386615d3e565b90159081615bb3575b50615baa57505050565b6107b892615e8b565b9050155f615ba0565b8054600160401b81101561120b57615bd9916001820181556153ae565b61560b57815160209092015160301b65ffffffffffff191665ffffffffffff92909216919091179055565b80549293928015615c9257615701615c1b91613c8f565b8054603081901c9365ffffffffffff918216929181168084116156bd57879303615c5e575061574b92509065ffffffffffff82549181199060301b169116179055565b91505061574b91615c7e615c70611ec2565b65ffffffffffff9093168352565b6001600160d01b0386166020830152615bbc565b509061579a91615ca3615c70611ec2565b6001600160d01b0385166020830152615bbc565b6012546040516376de574360e01b81526001600160a01b039091169190602081600481865afa908115610bd7575f91615d1f575b506001600160a01b03918216911614918215615d0c575b505061551e575f90565b6001600160a01b03161490505f80615d02565b615d38915060203d60201161464d5761463f818361122b565b5f615ceb565b60115490929190615d5990610a67906001600160a01b031681565b602060405180926305e5f31960e21b82528180615d798760048301610911565b03915afa908115610bd7575f91615e6c575b506001600160a01b03811680615e41575050601154615dd693602091615dbb90610a67906001600160a01b031681565b60405180809781946305e5f31960e21b835260048301610911565b03915afa928315610bd7575f93615e20575b506001600160a01b03831680615e0057505050505f90565b6001600160a01b03821614615e185761551e92615e8b565b505050600190565b615e3a91935060203d60201161464d5761463f818361122b565b915f615de8565b9091506001600160a01b03841603615e5b57505050600190565b615e6492615e8b565b5f8080615e18565b615e85915060203d60201161464d5761463f818361122b565b5f615d8b565b9091906001600160a01b03168015615ef2575b6107b8926001600160a01b0316908115615eda575b5f908152600d6020526040808220549282529020546001600160a01b039081169116615172565b615eeb615ee6846157b4565b61584b565b5050615eb3565b615efb826157b4565b615f05600f615035565b6001600160d01b039182169082160193908411611bbd576107b893615f34904265ffffffffffff16600f615c04565b9050509250615e9e565b600314615f5957634e487b7160e01b5f52605160045260245ffd5b6001600160a01b039081165f908152600d6020526040902054169056fe7935bd0ae54bc31f548c14dba4d37c5c64b3f8ca900cb468fb8abd54d5894f55ddf252ad1be2c89b69c2b068fc378daa952ba7f163c4a11628f55a4df523b3efa2646970667358221220ae5238dc818e8db06a027ff7118af608ea4972536e77bc0dfc25f89cab2d232b64736f6c634300081c003361010080604052346101fc57604081612f808038038091610020828561021b565b8339810103126101fc576100338161023e565b906001600160a01b03906100499060200161023e565b168015610208576040516301ffc9a760e01b815263261c910560e21b6004820152602081602481855afa908115610198575f916101c9575b50156101b7576080526001600160a01b0381169081156101895760c082905260a05260405190610d0c8083016001600160401b038111848210176101a3576020928492612274843981520301905ff08015610198576001600160a01b031660e0523015610189576007546001600160a01b03811661017a576001600160a01b0319163017600755604051612021908161025382396080518181816102530152818161047901528181610a39015281816110fd015261147a015260a05181818161077901528181610d54015281816119650152611c44015260c05181611b03015260e05181818161081601528181610d100152611cda0152f35b6336f62bb160e01b5f5260045ffd5b6334566e4b60e21b5f5260045ffd5b6040513d5f823e3d90fd5b634e487b7160e01b5f52604160045260245ffd5b6347bd7c1d60e01b5f5260045260245ffd5b90506020813d602011610200575b816101e46020938361021b565b810103126101fc575180151581036101fc575f610081565b5f80fd5b3d91506101d7565b6347bd7c1d60e01b5f525f60045260245ffd5b601f909101601f19168101906001600160401b038211908210176101a357604052565b51906001600160a01b03821682036101fc5756fe60806040526004361015610011575f80fd5b5f3560e01c8063055de2751461159857806318160ddd1461157b578063211dc32d1461154f5780632378bea61461142c57806324ea54f4146113f25780632e17de78146113c25780633d18b912146112e65780633d509c97146110b657806348e5d9f8146110525780635336e38e1461102f5780635eeb2e0f14610f35578063638634ee14610f12578063647654b414610ede57806366e943f114610ea457806369b3054b14610e435780637035ab9814610df3578063705b504a14610dbb57806370a0823114610d8357806372f702f314610d3f57806376de574314610cfb57806377df7b6a14610cd85780637bb7bed114610c88578063a2f1b4c914610c66578063a3cd8ac4146109e3578063a694fc3a14610745578063a89f38a31461070b578063b5fd73f8146106c9578063bcd11014146106a6578063bf199e621461068a578063c00007b01461059f578063c0b534c214610565578063ccc574901461053e578063cecc238f14610515578063dae21dab1461041f578063e70b9e27146103cf578063e9fad8ee146102c8578063ebc136d0146101ea5763f1229777146101bb575f80fd5b346101e65760203660031901126101e65760206101de6101d9611687565b611872565b604051908152f35b5f80fd5b346101e65760203660031901126101e657610203611687565b604051632474521560e21b81527fb00be3d6a5434b97b328543d1486d56adcb7e74080170d1cdd7e0306c3d9ba3d60048201526001600160a01b03918216602482015290602090829060449082907f0000000000000000000000000000000000000000000000000000000000000000165afa80156102bd576020915f91610290575b506040519015158152f35b6102b09150823d84116102b6575b6102a88183611781565b8101906117b7565b82610285565b503d61029e565b6040513d5f823e3d90fd5b346101e6575f3660031901126101e6576102e0611903565b5f805433915b818110610316575f5f516020611fcc5f395f51905f525d335f52600660205261031460405f20543333611c10565b005b80610322600192611d88565b838060a01b0391549060031b1c1661033933611a34565b805f52600460205260405f20855f5260205260405f20548061035e575b5050016102e6565b815f52600460205260405f20865f526020525f60408120556103af60405163a9059cbb60e01b60208201526103a98161039b853360248401611bf5565b03601f198101835282611781565b83611ee2565b6040519081525f516020611f8c5f395f51905f5260203392a38480610356565b346101e65760403660031901126101e6576103e8611687565b6103f061169d565b6001600160a01b039182165f908152600460209081526040808320949093168252928352819020549051908152f35b346101e65760203660031901126101e657610438611687565b604051632474521560e21b81527f025d8bbf3268be680d2605ebf6da15063b9915615bf1087dab336efc1bf970cb60048201523360248201526020816044817f00000000000000000000000000000000000000000000000000000000000000006001600160a01b03165afa9081156102bd575f916104f6575b50156104e3576001600160a01b03811690816104c957005b6104d290611938565b905f52600860205260405f20555f80f35b630a4510f960e31b5f523360045260245ffd5b61050f915060203d6020116102b6576102a88183611781565b826104b1565b346101e65760403660031901126101e65761052e611687565b5063f8b964a760e01b5f5260045ffd5b346101e6575f3660031901126101e65760206040515f516020611fac5f395f51905f528152f35b346101e6575f3660031901126101e65760206040517f025d8bbf3268be680d2605ebf6da15063b9915615bf1087dab336efc1bf970cb8152f35b346101e65760203660031901126101e6576105b8611687565b6105c0611903565b6001600160a01b03165f818152600160205260409020541561067b576105e533611a34565b5f81815260046020908152604080832033845290915290205480610616575b5f5f516020611fcc5f395f51905f525d005b815f52600460205260405f2060018060a01b0333165f526020525f604081205561065b60405163a9059cbb60e01b60208201526103a98161039b853360248401611bf5565b6040519081525f516020611f8c5f395f51905f5260203392a38080610604565b63064fed9960e31b5f5260045ffd5b346101e6575f3660031901126101e65760205f54604051908152f35b346101e65760203660031901126101e65760206101de6106c4611687565b61180e565b346101e65760203660031901126101e65760206107016001600160a01b036106ef611687565b165f52600160205260405f2054151590565b6040519015158152f35b346101e6575f3660031901126101e65760206040517fb00be3d6a5434b97b328543d1486d56adcb7e74080170d1cdd7e0306c3d9ba3d8152f35b346101e65760203660031901126101e65760043561076233611aed565b61076b33611a34565b33156109d45780156109c5577f00000000000000000000000000000000000000000000000000000000000000006001600160a01b031680156109b657604051632c3e6f0f60e11b8152336004820152602081602481855afa9081156102bd575f91610987575b506001600160a01b031615610978576107ec82600554611865565b600555335f52600660205260405f20610806838254611865565b905561081482303384611e9c565b7f00000000000000000000000000000000000000000000000000000000000000009060405160205f81830163095ea7b360e01b81526108698461085b898960248401611bf5565b03601f198101865285611781565b83519082865af15f513d8261095c575b50501561090b575b5050602060405180926317a790f160e11b8252815f816108a5883060048401611bf5565b03926001600160a01b03165af180156102bd576108ee575b5060405190815233907f5dac0c1b1112564a045ba943c9d50270893e8e826c49be8e7073adc713ab7bd760203392a3005b6109069060203d6020116102b6576102a88183611781565b6108bd565b60405163095ea7b360e01b60208201526001600160a01b03841660248201525f604480830191909152815261095592906109509061094a606482611781565b82611ee2565b611ee2565b8280610881565b9091506109705750813b15155b8580610879565b600114610969565b634e66b6bb60e11b5f5260045ffd5b6109a9915060203d6020116109af575b6109a18183611781565b810190611bd6565b836107d1565b503d610997565b63417198d360e01b5f5260045ffd5b636a76ff9f60e01b5f5260045ffd5b63da52720960e01b5f5260045ffd5b346101e65760603660031901126101e6576109fc611687565b6024359060443591604051632474521560e21b81525f516020611fac5f395f51905f52600482015233602482015260208160448160018060a01b037f0000000000000000000000000000000000000000000000000000000000000000165afa9081156102bd575f91610c47575b5015610c34575f545f5b818110610bec5750506001600160a01b0382165f818152600260205260409020909390928115610bdd576301da9c008211610bce57610abd855f52600160205260405f2054151590565b15610b715750600283015403610b62575b610ada81303386611e9c565b670de0b6b3a7640000810290808204670de0b6b3a76400001481151715610b4e5782610b43602093610b3260027fac24935fd910bc682b5ccb1a07b718cadf8cf2f6d1404c4f3ddc3662dae40e2997015480926116b3565b600184015542600384015542611865565b9055604051908152a2005b634e487b7160e01b5f52601160045260245ffd5b6333fec8c760e21b5f5260045ffd5b90610b7b85611f3a565b15610bbf577f68e3e9397770d9dfa88c0953a34e1a70a05416b3895957f5b689787a920791c491816002860155610bb760405192839283611bf5565b0390a1610ace565b632b3d7ad960e01b5f5260045ffd5b631fb7569160e21b5f5260045ffd5b637ffcfc9f60e11b5f5260045ffd5b80610bf8600192611d88565b838060a01b0391549060031b1c16805f5260026020526003610c2b60405f2092610c2181611872565b60048501556117cf565b91015501610a73565b630ea7d7ed60e21b5f523360045260245ffd5b610c60915060203d6020116102b6576102a88183611781565b84610a69565b346101e6575f3660031901126101e6576020604051670de0b6b3a76400008152f35b346101e65760203660031901126101e6576004355f54811015610cc957610cb0602091611d88565b905460405160039290921b1c6001600160a01b03168152f35b634e23d03560e01b5f5260045ffd5b346101e6575f3660031901126101e65760206702c68af0bb140000604051908152f35b346101e6575f3660031901126101e6576040517f00000000000000000000000000000000000000000000000000000000000000006001600160a01b03168152602090f35b346101e6575f3660031901126101e6576040517f00000000000000000000000000000000000000000000000000000000000000006001600160a01b03168152602090f35b346101e65760203660031901126101e6576001600160a01b03610da4611687565b165f526006602052602060405f2054604051908152f35b346101e65760203660031901126101e6576001600160a01b03610ddc611687565b165f526008602052602060405f2054604051908152f35b346101e65760403660031901126101e657610e0c611687565b610e1461169d565b6001600160a01b039182165f908152600360209081526040808320949093168252928352819020549051908152f35b346101e65760403660031901126101e65760043560038110156101e657602090610e6b61169d565b604051908382019260f81b835260018060601b03199060601b16602182015260158152610e99603582611781565b519020604051908152f35b346101e6575f3660031901126101e65760206040517f0d186688925976bbe6755ae984501c8e3e2b103a7af59fd803ab9c6d891ae7e08152f35b346101e65760603660031901126101e657610ef7611687565b50604435801515036101e657635f6cc16b60e01b5f5260045ffd5b346101e65760203660031901126101e65760206101de610f30611687565b6117cf565b346101e65760403660031901126101e657610f4e611687565b610f5661169d565b610f5e611903565b6001600160a01b03165f818152600160205260409020549091901561067b57610f8681611a34565b815f52600460205260405f2060018060a01b0382165f5260205260405f20549081610fbd575f5f516020611fcc5f395f51905f525d005b60205f516020611f8c5f395f51905f5291845f526004825260405f2060018060a01b0382165f5282525f604081205561101660405163a9059cbb60e01b848201526110108161039b888660248401611bf5565b86611ee2565b6040519384526001600160a01b031692a3808080610604565b346101e65760203660031901126101e65760206101de61104d611687565b611938565b346101e65760203660031901126101e6576001600160a01b03611073611687565b165f52600260205260a060405f20805490600181015490600281015460046003830154920154926040519485526020850152604084015260608301526080820152f35b346101e65760203660031901126101e6576110cf611687565b604051632474521560e21b81525f516020611fac5f395f51905f5260048201523360248201526020816044817f00000000000000000000000000000000000000000000000000000000000000006001600160a01b03165afa9081156102bd575f916112c7575b5015610c34576001600160a01b03165f818152600160205260409020541561067b57805f52600260205260405f20544211156112b8576040516370a0823160e01b8152306004820152602081602481855afa9081156102bd575f91611286575b5060405163313ce56760e01b8152602081600481865afa5f9181611248575b506112165750655af3107a40005b811161120457506111d281611dc7565b1561067b5760207f66257bcef574219c04f7c05f7a1c78d599da10491294c92a5805c48b4cdf500991604051908152a1005b633007cea360e01b5f5260045260245ffd5b60ff1660048111611229575060016111c2565b6003190160ff8111610b4e5760ff16604d8111610b4e57600a0a6111c2565b9091506020813d60201161127e575b8161126460209383611781565b810103126101e6575160ff811681036101e65790846111b4565b3d9150611257565b90506020813d6020116112b0575b816112a160209383611781565b810103126101e6575182611195565b3d9150611294565b63d9ba1add60e01b5f5260045ffd5b6112e0915060203d6020116102b6576102a88183611781565b82611135565b346101e6575f3660031901126101e6576112fe611903565b5f805433915b81811061131d575f5f516020611fcc5f395f51905f525d005b80611329600192611d88565b838060a01b0391549060031b1c1661134033611a34565b805f52600460205260405f20855f5260205260405f205480611365575b505001611304565b815f52600460205260405f20865f526020525f60408120556113a260405163a9059cbb60e01b60208201526103a98161039b853360248401611bf5565b6040519081525f516020611f8c5f395f51905f5260203392a3848061135d565b346101e65760203660031901126101e6576113dc33611a34565b6113e533611aed565b6103146004353333611c10565b346101e6575f3660031901126101e65760206040517f55435dd261a4b9b3364963f7738a7a662ad9c84396d64be3365284bb7f0a50418152f35b346101e65760403660031901126101e657611445611687565b604051632474521560e21b81525f516020611fac5f395f51905f526004820152336024828101919091523591906020816044817f00000000000000000000000000000000000000000000000000000000000000006001600160a01b03165afa9081156102bd575f91611530575b5015610c34576001600160a01b03165f818152600160205260409020549091901561067b578015610bdd576301da9c008111610bce57815f52600260205260405f2080544211156112b857817fad2f86b01ed93b4b3a150d448c61a4f5d8d38075d3c0c64cc0a26fd6e1f495459260026020930155604051908152a2005b611549915060203d6020116102b6576102a88183611781565b836114b2565b346101e65760403660031901126101e65760206101de61156d611687565b61157561169d565b906116e4565b346101e6575f3660031901126101e6576020600554604051908152f35b346101e65760203660031901126101e6576115b1611687565b6115b9611903565b5f80546001600160a01b0383169290915b8281106115e3575f5f516020611fcc5f395f51905f525d005b806115ef600192611d88565b838060a01b0391549060031b1c1661160684611a34565b805f52600460205260405f20865f526020528560405f20548061162d575b505050016115ca565b60205f516020611f8c5f395f51905f5291845f526004825260405f20845f5282525f604081205561167860405163a9059cbb60e01b848201526110108161039b858d60248401611bf5565b604051908152a3858581611624565b600435906001600160a01b03821682036101e657565b602435906001600160a01b03821682036101e657565b81156116bd570490565b634e487b7160e01b5f52601260045260245ffd5b81810292918115918404141715610b4e57565b61177d9061174b611777670de0b6b3a76400009460018060a01b0384165f5260066020528561175160405f205461174b61171d85611872565b6001600160a01b039586165f818152600360209081526040808320998d168352989052969096205490611801565b906116d1565b04905f52600460205260405f2060018060a01b0385165f5260205260405f205490611865565b91611938565b0490565b90601f8019910116810190811067ffffffffffffffff8211176117a357604052565b634e487b7160e01b5f52604160045260245ffd5b908160209103126101e6575180151581036101e65790565b6001600160a01b03165f818152600260205260409020544210156117f257504290565b5f52600260205260405f205490565b91908203918211610b4e57565b6001600160a01b03165f9081526002602052604090208054670de0b6b3a7640000914282111561185057600161184861177d934290611801565b9101546116d1565b61177d915060026001820154910154906116d1565b91908201809211610b4e57565b60055480156118e557906118dc6118e2926118d760018060a01b038416805f5260026020526118c16118ab600460405f200154966117cf565b825f526002602052600360405f20015490611801565b905f526002602052600160405f200154906116d1565b6116b3565b90611865565b90565b506001600160a01b03165f9081526002602052604090206004015490565b5f516020611fcc5f395f51905f525c6119295760015f516020611fcc5f395f51905f525d565b633ee5aeb560e01b5f5260045ffd5b60405163f56a47a560e01b81526001600160a01b03918216600482018190529091602090839060249082907f0000000000000000000000000000000000000000000000000000000000000000165afa9182156102bd575f92611a00575b50805f52600860205260405f2054156119fc576702c68af0bb14000091828102928184041490151715610b4e575f52600860205260405f205490670b1a2bc2ec50000091828102928184041490151715610b4e57670de0b6b3a76400009161177d91611865565b5090565b9091506020813d602011611a2c575b81611a1c60209383611781565b810103126101e65751905f611995565b3d9150611a0f565b5f54905f5b828110611a4557505050565b80611a51600192611d88565b838060a01b0391549060031b1c16805f52600260205260405f20611a7482611872565b90600481019182556003611a87846117cf565b910155838060a01b038516611a9f575b505001611a39565b611aa982866116e4565b825f52600460205260405f20858060a01b0387165f5260205260405f205554905f52600360205260405f20838060a01b0385165f5260205260405f20555f80611a97565b5f906001600160a01b031680611b01575050565b7f00000000000000000000000000000000000000000000000000000000000000006001600160a01b0316803b156101e6575f8091602460405180948193633e4986ef60e11b83528760048401525af180156102bd57611bc1575b506007546001600160a01b031690813b15611bbd57829160248392604051948593849263dae21dab60e01b845260048401525af18015611bb257611b9d575050565b611ba8828092611781565b611baf5750565b80fd5b6040513d84823e3d90fd5b8280fd5b611bce9192505f90611781565b5f905f611b5b565b908160209103126101e657516001600160a01b03811681036101e65790565b6001600160a01b039091168152602081019190915260400190565b8215611d7957604051632c3e6f0f60e11b81526001600160a01b0383811660048301819052949190602090829060249082907f0000000000000000000000000000000000000000000000000000000000000000165afa9081156102bd575f91611d5a575b506001600160a01b03161561097857602081611cd593611c9682600554611801565b60055560018060a01b031694855f526006835260405f20611cb8838254611801565b905560405163040b850f60e31b8152948592839260048401611bf5565b03815f7f00000000000000000000000000000000000000000000000000000000000000006001600160a01b03165af19081156102bd577fd8654fcc8cf5b36d30b3f5e4688fc78118e6d68de60b9994e09902268b57c3e392602092611d3f575b50604051908152a3565b611d5590833d85116102b6576102a88183611781565b611d35565b611d73915060203d6020116109af576109a18183611781565b5f611c74565b6310356e5960e21b5f5260045ffd5b5f54811015611d9e575f805260205f2001905f90565b634e487b7160e01b5f52603260045260245ffd5b8054821015611d9e575f5260205f2001905f90565b5f818152600160205260409020548015611e96575f198101818111610b4e575f545f19810191908211610b4e57818103611e4a575b5050505f548015611e36575f1901611e14815f611db2565b8154905f199060031b1b191690555f555f5260016020525f6040812055600190565b634e487b7160e01b5f52603160045260245ffd5b611e80611e5a611e6a935f611db2565b90549060031b1c9283925f611db2565b819391549060031b91821b915f19901b19161790565b90555f52600160205260405f20555f8080611dfc565b50505f90565b6040516323b872dd60e01b60208201526001600160a01b039283166024820152929091166044830152606480830193909352918152611ee091610950608483611781565b565b905f602091828151910182855af1156102bd575f513d611f3157506001600160a01b0381163b155b611f115750565b635274afe760e01b5f9081526001600160a01b0391909116600452602490fd5b60011415611f0a565b805f52600160205260405f2054155f14611f86575f54600160401b8110156117a357611f70611e6a8260018594015f555f611db2565b90555f54905f52600160205260405f2055600190565b505f9056fe540798df468d7b23d11f156fdb954cb19ad414d150722a7b6d55ba369dea792e7935bd0ae54bc31f548c14dba4d37c5c64b3f8ca900cb468fb8abd54d5894f559b779b17422d0df92223018b32b4d1fa46e071723d6817e2486d003becc55f00a2646970667358221220b524491f21fce77ebd055b2f250942de09b9c3293355e54b7894dc038b80e6ea64736f6c634300081c003360a0806040523461037b57602081610d0c803803809161001f828561037f565b83398101031261037b57516001600160a01b0381169081900361037b57604051906702bb930b83832b2160c51b60208301526529bab6b6b2b960d11b6028830152600e825261006f602e8361037f565b60405190607760f81b60208301526329aaa6a960e11b60218301526005825261009960258361037f565b82516001600160401b03811161028c57600354600181811c91168015610371575b602082101461026e57601f811161030e575b506020601f82116001146102ab57819293945f926102a0575b50508160011b915f199060031b1c1916176003555b81516001600160401b03811161028c57600454600181811c91168015610282575b602082101461026e57601f811161020b575b50602092601f82116001146101aa57928192935f9261019f575b50508160011b915f199060031b1c1916176004555b30811461018c5760805260405161096990816103a382396080518181816102750152818161033401526107ae0152f35b63438d6fe360e01b5f523060045260245ffd5b015190505f80610147565b601f1982169360045f52805f20915f5b8681106101f357508360019596106101db575b505050811b0160045561015c565b01515f1960f88460031b161c191690555f80806101cd565b919260206001819286850151815501940192016101ba565b60045f527f8a35acfbc15ff81a39ae7d344fd709f28e8600b4aa8c65c6b64bfe7fe36bd19b601f830160051c81019160208410610264575b601f0160051c01905b818110610259575061012d565b5f815560010161024c565b9091508190610243565b634e487b7160e01b5f52602260045260245ffd5b90607f169061011b565b634e487b7160e01b5f52604160045260245ffd5b015190505f806100e5565b601f1982169060035f52805f20915f5b8181106102f6575095836001959697106102de575b505050811b016003556100fa565b01515f1960f88460031b161c191690555f80806102d0565b9192602060018192868b0151815501940192016102bb565b60035f527fc2575a0e9e593c00f959f8c92f12db2869c3395a3b0502d05e2516446f71f85b601f830160051c81019160208410610367575b601f0160051c01905b81811061035c57506100cc565b5f815560010161034f565b9091508190610346565b90607f16906100ba565b5f80fd5b601f909101601f19168101906001600160401b0382119082101761028c5760405256fe6080806040526004361015610012575f80fd5b5f3560e01c90816306fdde031461065557508063095ea7b3146105d357806318160ddd146105b6578063205c2878146104d157806323b872dd146103f15780632f4f21e2146102c9578063313ce567146102a45780636f307dc31461026057806370a082311461022957806395d89b4114610125578063a9059cbb146100f45763dd62ed3e146100a0575f80fd5b346100f05760403660031901126100f0576100b9610737565b6100c161074d565b6001600160a01b039182165f908152600160209081526040808320949093168252928352819020549051908152f35b5f80fd5b346100f05760403660031901126100f05761011a610110610737565b602435903361082c565b602060405160018152f35b346100f0575f3660031901126100f0576040515f6004548060011c9060018116801561021f575b60208310811461020b578285529081156101e75750600114610189575b6101858361017981850382610763565b6040519182918261070d565b0390f35b60045f9081527f8a35acfbc15ff81a39ae7d344fd709f28e8600b4aa8c65c6b64bfe7fe36bd19b939250905b8082106101cd57509091508101602001610179610169565b9192600181602092548385880101520191019092916101b5565b60ff191660208086019190915291151560051b840190910191506101799050610169565b634e487b7160e01b5f52602260045260245ffd5b91607f169161014c565b346100f05760203660031901126100f0576001600160a01b0361024a610737565b165f525f602052602060405f2054604051908152f35b346100f0575f3660031901126100f0576040517f00000000000000000000000000000000000000000000000000000000000000006001600160a01b03168152602090f35b346100f0575f3660031901126100f05760206102be610799565b60ff60405191168152f35b346100f05760403660031901126100f0576102e2610737565b602435903033146103de576001600160a01b0316903082146103cb576103586040516323b872dd60e01b602082015233602482015230604482015282606482015260648152610332608482610763565b7f00000000000000000000000000000000000000000000000000000000000000006108b0565b81156103b857600254908082018092116103a45760205f5160206109145f395f51905f52915f9360025584845283825260408420818154019055604051908152a3602060405160018152f35b634e487b7160e01b5f52601160045260245ffd5b63ec442f0560e01b5f525f60045260245ffd5b5063ec442f0560e01b5f5260045260245ffd5b634b637e8f60e11b5f523060045260245ffd5b346100f05760603660031901126100f05761040a610737565b61041261074d565b6001600160a01b0382165f818152600160208181526040808420338552909152909120549193604435939290918101610451575b5061011a935061082c565b8381106104b65784156104a35733156104905761011a945f52600160205260405f2060018060a01b0333165f526020528360405f209103905584610446565b634a1406b160e11b5f525f60045260245ffd5b63e602df0560e01b5f525f60045260245ffd5b8390637dc7a0d960e11b5f523360045260245260445260645ffd5b346100f05760403660031901126100f0576104ea610737565b602435906001600160a01b03163081146105a457331561059157335f525f60205260405f205482811061057657918061011a93335f525f6020520360405f205580600254036002555f6040518281525f5160206109145f395f51905f5260203392a36040519163a9059cbb60e01b60208401526024830152604482015260448152610332606482610763565b905063391434e360e21b5f523360045260245260445260645ffd5b634b637e8f60e11b5f525f60045260245ffd5b63ec442f0560e01b5f5260045260245ffd5b346100f0575f3660031901126100f0576020600254604051908152f35b346100f05760403660031901126100f0576105ec610737565b6024359033156104a3576001600160a01b031690811561049057335f52600160205260405f20825f526020528060405f20556040519081527f8c5be1e5ebec7d5bd14f71427d1e84f3dd0314c0f7b2291e5b200ac8c7c3b92560203392a3602060405160018152f35b346100f0575f3660031901126100f0575f6003548060011c90600181168015610703575b60208310811461020b578285529081156101e757506001146106a5576101858361017981850382610763565b60035f9081527fc2575a0e9e593c00f959f8c92f12db2869c3395a3b0502d05e2516446f71f85b939250905b8082106106e957509091508101602001610179610169565b9192600181602092548385880101520191019092916106d1565b91607f1691610679565b602060409281835280519182918282860152018484015e5f828201840152601f01601f1916010190565b600435906001600160a01b03821682036100f057565b602435906001600160a01b03821682036100f057565b90601f8019910116810190811067ffffffffffffffff82111761078557604052565b634e487b7160e01b5f52604160045260245ffd5b60405163313ce56760e01b81526020816004817f00000000000000000000000000000000000000000000000000000000000000006001600160a01b03165afa5f91816107ee575b506107eb5750601290565b90565b9091506020813d602011610824575b8161080a60209383610763565b810103126100f0575160ff811681036100f057905f6107e0565b3d91506107fd565b6001600160a01b0316908115610591576001600160a01b03169182156103b857815f525f60205260405f205481811061089757815f5160206109145f395f51905f5292602092855f525f84520360405f2055845f525f825260405f20818154019055604051908152a3565b8263391434e360e21b5f5260045260245260445260645ffd5b905f602091828151910182855af115610908575f513d6108ff57506001600160a01b0381163b155b6108df5750565b635274afe760e01b5f9081526001600160a01b0391909116600452602490fd5b600114156108d8565b6040513d5f823e3d90fdfeddf252ad1be2c89b69c2b068fc378daa952ba7f163c4a11628f55a4df523b3efa2646970667358221220262c1e8f42bd9cb42e703818be875d71500d533988631afe0dc244d33ca615cb64736f6c634300081c0033",
  "linkReferences": {},
  "deployedLinkReferences": {}
}