{
  "_format": "hh-sol-artifact-1",
  "contractName": "SummerTimelockController",
  "sourceName": "src/contracts/SummerTimelockController.sol",
  "abi": [
    {
      "inputs": [
        {
          "internalType": "uint256",
          "name": "minDelay",
          "type": "uint256"
        },
        {
          "internalType": "address[]",
          "name": "proposers",
          "type": "address[]"
        },
        {
          "internalType": "address[]",
          "name": "executors",
          "type": "address[]"
        },
        {
          "internalType": "address",
          "name": "admin",
          "type": "address"
        },
        {
          "internalType": "address",
          "name": "_accessManager",
          "type": "address"
        }
      ],
      "stateMutability": "nonpayable",
      "type": "constructor"
    },
    {
      "inputs": [],
      "name": "AccessControlBadConfirmation",
      "type": "error"
    },
    {
      "inputs": [
        {
          "internalType": "address",
          "name": "account",
          "type": "address"
        },
        {
          "internalType": "bytes32",
          "name": "neededRole",
          "type": "bytes32"
        }
      ],
      "name": "AccessControlUnauthorizedAccount",
      "type": "error"
    },
    {
      "inputs": [],
      "name": "FailedCall",
      "type": "error"
    },
    {
      "inputs": [
        {
          "internalType": "uint256",
          "name": "delay",
          "type": "uint256"
        },
        {
          "internalType": "uint256",
          "name": "minDelay",
          "type": "uint256"
        }
      ],
      "name": "TimelockInsufficientDelay",
      "type": "error"
    },
    {
      "inputs": [
        {
          "internalType": "uint256",
          "name": "targets",
          "type": "uint256"
        },
        {
          "internalType": "uint256",
          "name": "payloads",
          "type": "uint256"
        },
        {
          "internalType": "uint256",
          "name": "values",
          "type": "uint256"
        }
      ],
      "name": "TimelockInvalidOperationLength",
      "type": "error"
    },
    {
      "inputs": [
        {
          "internalType": "address",
          "name": "caller",
          "type": "address"
        }
      ],
      "name": "TimelockUnauthorizedCaller",
      "type": "error"
    },
    {
      "inputs": [
        {
          "internalType": "bytes32",
          "name": "predecessorId",
          "type": "bytes32"
        }
      ],
      "name": "TimelockUnexecutedPredecessor",
      "type": "error"
    },
    {
      "inputs": [
        {
          "internalType": "bytes32",
          "name": "operationId",
          "type": "bytes32"
        },
        {
          "internalType": "bytes32",
          "name": "expectedStates",
          "type": "bytes32"
        }
      ],
      "name": "TimelockUnexpectedOperationState",
      "type": "error"
    },
    {
      "anonymous": false,
      "inputs": [
        {
          "indexed": true,
          "internalType": "bytes32",
          "name": "id",
          "type": "bytes32"
        },
        {
          "indexed": true,
          "internalType": "uint256",
          "name": "index",
          "type": "uint256"
        },
        {
          "indexed": false,
          "internalType": "address",
          "name": "target",
          "type": "address"
        },
        {
          "indexed": false,
          "internalType": "uint256",
          "name": "value",
          "type": "uint256"
        },
        {
          "indexed": false,
          "internalType": "bytes",
          "name": "data",
          "type": "bytes"
        }
      ],
      "name": "CallExecuted",
      "type": "event"
    },
    {
      "anonymous": false,
      "inputs": [
        {
          "indexed": true,
          "internalType": "bytes32",
          "name": "id",
          "type": "bytes32"
        },
        {
          "indexed": false,
          "internalType": "bytes32",
          "name": "salt",
          "type": "bytes32"
        }
      ],
      "name": "CallSalt",
      "type": "event"
    },
    {
      "anonymous": false,
      "inputs": [
        {
          "indexed": true,
          "internalType": "bytes32",
          "name": "id",
          "type": "bytes32"
        },
        {
          "indexed": true,
          "internalType": "uint256",
          "name": "index",
          "type": "uint256"
        },
        {
          "indexed": false,
          "internalType": "address",
          "name": "target",
          "type": "address"
        },
        {
          "indexed": false,
          "internalType": "uint256",
          "name": "value",
          "type": "uint256"
        },
        {
          "indexed": false,
          "internalType": "bytes",
          "name": "data",
          "type": "bytes"
        },
        {
          "indexed": false,
          "internalType": "bytes32",
          "name": "predecessor",
          "type": "bytes32"
        },
        {
          "indexed": false,
          "internalType": "uint256",
          "name": "delay",
          "type": "uint256"
        }
      ],
      "name": "CallScheduled",
      "type": "event"
    },
    {
      "anonymous": false,
      "inputs": [
        {
          "indexed": true,
          "internalType": "bytes32",
          "name": "id",
          "type": "bytes32"
        }
      ],
      "name": "Cancelled",
      "type": "event"
    },
    {
      "anonymous": false,
      "inputs": [
        {
          "indexed": false,
          "internalType": "uint256",
          "name": "oldDuration",
          "type": "uint256"
        },
        {
          "indexed": false,
          "internalType": "uint256",
          "name": "newDuration",
          "type": "uint256"
        }
      ],
      "name": "MinDelayChange",
      "type": "event"
    },
    {
      "anonymous": false,
      "inputs": [
        {
          "indexed": true,
          "internalType": "bytes32",
          "name": "role",
          "type": "bytes32"
        },
        {
          "indexed": true,
          "internalType": "bytes32",
          "name": "previousAdminRole",
          "type": "bytes32"
        },
        {
          "indexed": true,
          "internalType": "bytes32",
          "name": "newAdminRole",
          "type": "bytes32"
        }
      ],
      "name": "RoleAdminChanged",
      "type": "event"
    },
    {
      "anonymous": false,
      "inputs": [
        {
          "indexed": true,
          "internalType": "bytes32",
          "name": "role",
          "type": "bytes32"
        },
        {
          "indexed": true,
          "internalType": "address",
          "name": "account",
          "type": "address"
        },
        {
          "indexed": true,
          "internalType": "address",
          "name": "sender",
          "type": "address"
        }
      ],
      "name": "RoleGranted",
      "type": "event"
    },
    {
      "anonymous": false,
      "inputs": [
        {
          "indexed": true,
          "internalType": "bytes32",
          "name": "role",
          "type": "bytes32"
        },
        {
          "indexed": true,
          "internalType": "address",
          "name": "account",
          "type": "address"
        },
        {
          "indexed": true,
          "internalType": "address",
          "name": "sender",
          "type": "address"
        }
      ],
      "name": "RoleRevoked",
      "type": "event"
    },
    {
      "inputs": [],
      "name": "CANCELLER_ROLE",
      "outputs": [
        {
          "internalType": "bytes32",
          "name": "",
          "type": "bytes32"
        }
      ],
      "stateMutability": "view",
      "type": "function"
    },
    {
      "inputs": [],
      "name": "DEFAULT_ADMIN_ROLE",
      "outputs": [
        {
          "internalType": "bytes32",
          "name": "",
          "type": "bytes32"
        }
      ],
      "stateMutability": "view",
      "type": "function"
    },
    {
      "inputs": [],
      "name": "EXECUTOR_ROLE",
      "outputs": [
        {
          "internalType": "bytes32",
          "name": "",
          "type": "bytes32"
        }
      ],
      "stateMutability": "view",
      "type": "function"
    },
    {
      "inputs": [],
      "name": "PROPOSER_ROLE",
      "outputs": [
        {
          "internalType": "bytes32",
          "name": "",
          "type": "bytes32"
        }
      ],
      "stateMutability": "view",
      "type": "function"
    },
    {
      "inputs": [],
      "name": "accessManager",
      "outputs": [
        {
          "internalType": "contract IProtocolAccessManager",
          "name": "",
          "type": "address"
        }
      ],
      "stateMutability": "view",
      "type": "function"
    },
    {
      "inputs": [
        {
          "internalType": "bytes32",
          "name": "id",
          "type": "bytes32"
        }
      ],
      "name": "cancel",
      "outputs": [],
      "stateMutability": "nonpayable",
      "type": "function"
    },
    {
      "inputs": [
        {
          "internalType": "address",
          "name": "target",
          "type": "address"
        },
        {
          "internalType": "uint256",
          "name": "value",
          "type": "uint256"
        },
        {
          "internalType": "bytes",
          "name": "payload",
          "type": "bytes"
        },
        {
          "internalType": "bytes32",
          "name": "predecessor",
          "type": "bytes32"
        },
        {
          "internalType": "bytes32",
          "name": "salt",
          "type": "bytes32"
        }
      ],
      "name": "execute",
      "outputs": [],
      "stateMutability": "payable",
      "type": "function"
    },
    {
      "inputs": [
        {
          "internalType": "address[]",
          "name": "targets",
          "type": "address[]"
        },
        {
          "internalType": "uint256[]",
          "name": "values",
          "type": "uint256[]"
        },
        {
          "internalType": "bytes[]",
          "name": "payloads",
          "type": "bytes[]"
        },
        {
          "internalType": "bytes32",
          "name": "predecessor",
          "type": "bytes32"
        },
        {
          "internalType": "bytes32",
          "name": "salt",
          "type": "bytes32"
        }
      ],
      "name": "executeBatch",
      "outputs": [],
      "stateMutability": "payable",
      "type": "function"
    },
    {
      "inputs": [],
      "name": "getMinDelay",
      "outputs": [
        {
          "internalType": "uint256",
          "name": "",
          "type": "uint256"
        }
      ],
      "stateMutability": "view",
      "type": "function"
    },
    {
      "inputs": [
        {
          "internalType": "bytes32",
          "name": "id",
          "type": "bytes32"
        }
      ],
      "name": "getOperationState",
      "outputs": [
        {
          "internalType": "enum TimelockController.OperationState",
          "name": "",
          "type": "uint8"
        }
      ],
      "stateMutability": "view",
      "type": "function"
    },
    {
      "inputs": [
        {
          "internalType": "bytes32",
          "name": "role",
          "type": "bytes32"
        }
      ],
      "name": "getRoleAdmin",
      "outputs": [
        {
          "internalType": "bytes32",
          "name": "",
          "type": "bytes32"
        }
      ],
      "stateMutability": "view",
      "type": "function"
    },
    {
      "inputs": [
        {
          "internalType": "bytes32",
          "name": "id",
          "type": "bytes32"
        }
      ],
      "name": "getTimestamp",
      "outputs": [
        {
          "internalType": "uint256",
          "name": "",
          "type": "uint256"
        }
      ],
      "stateMutability": "view",
      "type": "function"
    },
    {
      "inputs": [
        {
          "internalType": "bytes32",
          "name": "role",
          "type": "bytes32"
        },
        {
          "internalType": "address",
          "name": "account",
          "type": "address"
        }
      ],
      "name": "grantRole",
      "outputs": [],
      "stateMutability": "nonpayable",
      "type": "function"
    },
    {
      "inputs": [
        {
          "internalType": "bytes32",
          "name": "role",
          "type": "bytes32"
        },
        {
          "internalType": "address",
          "name": "account",
          "type": "address"
        }
      ],
      "name": "hasRole",
      "outputs": [
        {
          "internalType": "bool",
          "name": "",
          "type": "bool"
        }
      ],
      "stateMutability": "view",
      "type": "function"
    },
    {
      "inputs": [
        {
          "internalType": "address",
          "name": "target",
          "type": "address"
        },
        {
          "internalType": "uint256",
          "name": "value",
          "type": "uint256"
        },
        {
          "internalType": "bytes",
          "name": "data",
          "type": "bytes"
        },
        {
          "internalType": "bytes32",
          "name": "predecessor",
          "type": "bytes32"
        },
        {
          "internalType": "bytes32",
          "name": "salt",
          "type": "bytes32"
        }
      ],
      "name": "hashOperation",
      "outputs": [
        {
          "internalType": "bytes32",
          "name": "",
          "type": "bytes32"
        }
      ],
      "stateMutability": "pure",
      "type": "function"
    },
    {
      "inputs": [
        {
          "internalType": "address[]",
          "name": "targets",
          "type": "address[]"
        },
        {
          "internalType": "uint256[]",
          "name": "values",
          "type": "uint256[]"
        },
        {
          "internalType": "bytes[]",
          "name": "payloads",
          "type": "bytes[]"
        },
        {
          "internalType": "bytes32",
          "name": "predecessor",
          "type": "bytes32"
        },
        {
          "internalType": "bytes32",
          "name": "salt",
          "type": "bytes32"
        }
      ],
      "name": "hashOperationBatch",
      "outputs": [
        {
          "internalType": "bytes32",
          "name": "",
          "type": "bytes32"
        }
      ],
      "stateMutability": "pure",
      "type": "function"
    },
    {
      "inputs": [
        {
          "internalType": "bytes32",
          "name": "id",
          "type": "bytes32"
        }
      ],
      "name": "isOperation",
      "outputs": [
        {
          "internalType": "bool",
          "name": "",
          "type": "bool"
        }
      ],
      "stateMutability": "view",
      "type": "function"
    },
    {
      "inputs": [
        {
          "internalType": "bytes32",
          "name": "id",
          "type": "bytes32"
        }
      ],
      "name": "isOperationDone",
      "outputs": [
        {
          "internalType": "bool",
          "name": "",
          "type": "bool"
        }
      ],
      "stateMutability": "view",
      "type": "function"
    },
    {
      "inputs": [
        {
          "internalType": "bytes32",
          "name": "id",
          "type": "bytes32"
        }
      ],
      "name": "isOperationPending",
      "outputs": [
        {
          "internalType": "bool",
          "name": "",
          "type": "bool"
        }
      ],
      "stateMutability": "view",
      "type": "function"
    },
    {
      "inputs": [
        {
          "internalType": "bytes32",
          "name": "id",
          "type": "bytes32"
        }
      ],
      "name": "isOperationReady",
      "outputs": [
        {
          "internalType": "bool",
          "name": "",
          "type": "bool"
        }
      ],
      "stateMutability": "view",
      "type": "function"
    },
    {
      "inputs": [
        {
          "internalType": "address",
          "name": "",
          "type": "address"
        },
        {
          "internalType": "address",
          "name": "",
          "type": "address"
        },
        {
          "internalType": "uint256[]",
          "name": "",
          "type": "uint256[]"
        },
        {
          "internalType": "uint256[]",
          "name": "",
          "type": "uint256[]"
        },
        {
          "internalType": "bytes",
          "name": "",
          "type": "bytes"
        }
      ],
      "name": "onERC1155BatchReceived",
      "outputs": [
        {
          "internalType": "bytes4",
          "name": "",
          "type": "bytes4"
        }
      ],
      "stateMutability": "nonpayable",
      "type": "function"
    },
    {
      "inputs": [
        {
          "internalType": "address",
          "name": "",
          "type": "address"
        },
        {
          "internalType": "address",
          "name": "",
          "type": "address"
        },
        {
          "internalType": "uint256",
          "name": "",
          "type": "uint256"
        },
        {
          "internalType": "uint256",
          "name": "",
          "type": "uint256"
        },
        {
          "internalType": "bytes",
          "name": "",
          "type": "bytes"
        }
      ],
      "name": "onERC1155Received",
      "outputs": [
        {
          "internalType": "bytes4",
          "name": "",
          "type": "bytes4"
        }
      ],
      "stateMutability": "nonpayable",
      "type": "function"
    },
    {
      "inputs": [
        {
          "internalType": "address",
          "name": "",
          "type": "address"
        },
        {
          "internalType": "address",
          "name": "",
          "type": "address"
        },
        {
          "internalType": "uint256",
          "name": "",
          "type": "uint256"
        },
        {
          "internalType": "bytes",
          "name": "",
          "type": "bytes"
        }
      ],
      "name": "onERC721Received",
      "outputs": [
        {
          "internalType": "bytes4",
          "name": "",
          "type": "bytes4"
        }
      ],
      "stateMutability": "nonpayable",
      "type": "function"
    },
    {
      "inputs": [
        {
          "internalType": "bytes32",
          "name": "role",
          "type": "bytes32"
        },
        {
          "internalType": "address",
          "name": "callerConfirmation",
          "type": "address"
        }
      ],
      "name": "renounceRole",
      "outputs": [],
      "stateMutability": "nonpayable",
      "type": "function"
    },
    {
      "inputs": [
        {
          "internalType": "bytes32",
          "name": "role",
          "type": "bytes32"
        },
        {
          "internalType": "address",
          "name": "account",
          "type": "address"
        }
      ],
      "name": "revokeRole",
      "outputs": [],
      "stateMutability": "nonpayable",
      "type": "function"
    },
    {
      "inputs": [
        {
          "internalType": "address",
          "name": "target",
          "type": "address"
        },
        {
          "internalType": "uint256",
          "name": "value",
          "type": "uint256"
        },
        {
          "internalType": "bytes",
          "name": "data",
          "type": "bytes"
        },
        {
          "internalType": "bytes32",
          "name": "predecessor",
          "type": "bytes32"
        },
        {
          "internalType": "bytes32",
          "name": "salt",
          "type": "bytes32"
        },
        {
          "internalType": "uint256",
          "name": "delay",
          "type": "uint256"
        }
      ],
      "name": "schedule",
      "outputs": [],
      "stateMutability": "nonpayable",
      "type": "function"
    },
    {
      "inputs": [
        {
          "internalType": "address[]",
          "name": "targets",
          "type": "address[]"
        },
        {
          "internalType": "uint256[]",
          "name": "values",
          "type": "uint256[]"
        },
        {
          "internalType": "bytes[]",
          "name": "payloads",
          "type": "bytes[]"
        },
        {
          "internalType": "bytes32",
          "name": "predecessor",
          "type": "bytes32"
        },
        {
          "internalType": "bytes32",
          "name": "salt",
          "type": "bytes32"
        },
        {
          "internalType": "uint256",
          "name": "delay",
          "type": "uint256"
        }
      ],
      "name": "scheduleBatch",
      "outputs": [],
      "stateMutability": "nonpayable",
      "type": "function"
    },
    {
      "inputs": [
        {
          "internalType": "bytes4",
          "name": "interfaceId",
          "type": "bytes4"
        }
      ],
      "name": "supportsInterface",
      "outputs": [
        {
          "internalType": "bool",
          "name": "",
          "type": "bool"
        }
      ],
      "stateMutability": "view",
      "type": "function"
    },
    {
      "inputs": [
        {
          "internalType": "uint256",
          "name": "newDelay",
          "type": "uint256"
        }
      ],
      "name": "updateDelay",
      "outputs": [],
      "stateMutability": "nonpayable",
      "type": "function"
    },
    {
      "stateMutability": "payable",
      "type": "receive"
    }
  ],
  "bytecode": "0x60a06040523461019b57611f53803803806100198161019f565b92833981019060a08183031261019b57805160208201516001600160401b03811161019b578361004a9184016101ec565b604083015190936001600160401b03821161019b5761006a9184016101ec565b90610083608061007c606086016101d8565b94016101d8565b9261008d3061027e565b506001600160a01b03811661018b575b505f5b84518110156100ea576001906100c86001600160a01b036100c18389610256565b51166102f4565b506100e3828060a01b036100dc8389610256565b5116610387565b50016100a0565b50825f5b835181101561011d576001906101166001600160a01b0361010f8388610256565b511661041a565b50016100ee565b507f11c24f4ead16507c69ac467fbd5e4eed5fb5c699626d2cc6d66421df253886d5604083806002558151905f82526020820152a16001600160a01b0316608052604051611a0590816104ae823960805181818161017201528181611261015281816112f201526113d50152f35b6101949061027e565b505f61009d565b5f80fd5b6040519190601f01601f191682016001600160401b038111838210176101c457604052565b634e487b7160e01b5f52604160045260245ffd5b51906001600160a01b038216820361019b57565b9080601f8301121561019b578151916001600160401b0383116101c4578260051b9060208061021c81850161019f565b80968152019282010192831161019b57602001905b82821061023e5750505090565b6020809161024b846101d8565b815201910190610231565b805182101561026a5760209160051b010190565b634e487b7160e01b5f52603260045260245ffd5b6001600160a01b0381165f9081525f516020611f335f395f51905f52602052604090205460ff166102ef576001600160a01b03165f8181525f516020611f335f395f51905f5260205260408120805460ff191660011790553391905f516020611eb35f395f51905f528180a4600190565b505f90565b6001600160a01b0381165f9081525f516020611ed35f395f51905f52602052604090205460ff166102ef576001600160a01b03165f8181525f516020611ed35f395f51905f5260205260408120805460ff191660011790553391907fb09aa5aeb3702cfd50b6b62bc4532604938f21248a27a1d5ca736082b6819cc1905f516020611eb35f395f51905f529080a4600190565b6001600160a01b0381165f9081525f516020611f135f395f51905f52602052604090205460ff166102ef576001600160a01b03165f8181525f516020611f135f395f51905f5260205260408120805460ff191660011790553391907ffd643c72710c63c0180259aba6b2d05451e3591a24e58b62239378085726f783905f516020611eb35f395f51905f529080a4600190565b6001600160a01b0381165f9081525f516020611ef35f395f51905f52602052604090205460ff166102ef576001600160a01b03165f8181525f516020611ef35f395f51905f5260205260408120805460ff191660011790553391907fd8aa0f3194971a2a116679f7c2090f6939c8d4e01a2a8d7e41d55e5351469e63905f516020611eb35f395f51905f529080a460019056fe6080604052600436101561001a575b3615610018575f80fd5b005b5f3560e01c806301d5062a14610aff57806301ffc9a714610a8f57806307bd026514610a68578063134008d3146109c857806313bc9f20146109aa578063150b7a0214610955578063248a9ca31461092b5780632ab0f5291461090d5780632f2ff15d146108d057806331d50750146108b257806336568abe1461086e578063584b153e1461084657806364d62353146107e15780637958004c1461079e5780638065657f1461077f5780638f2a0bb0146105825780638f61f4f51461054857806391d1485414610500578063a217fddf146104e6578063b08e51c0146104ac578063b1c5f42714610482578063bc197c81146103ed578063c4d252f5146103d1578063d45c4435146103a7578063d547741f14610363578063e38335e514610217578063f23a6e61146101c2578063f27a0c92146101a55763fdcb60680361000e57346101a1575f3660031901126101a1576040517f00000000000000000000000000000000000000000000000000000000000000006001600160a01b03168152602090f35b5f80fd5b346101a1575f3660031901126101a1576020600254604051908152f35b346101a15760a03660031901126101a1576101db610c00565b506101e4610c16565b506084356001600160401b0381116101a157610204903690600401610cf7565b5060405163f23a6e6160e01b8152602090f35b61022036610d6d565b5f80527fdae2aa361dfd1ca020a396615627d436107c35eff9fe7738a3512819782d70696020527f5ba6852781629bcdcd4bdaa6de76d786f1c64b16acdac474e55bebc0ea1579515492979196919593949260ff1615610355575b82821480159061034b575b6103305761029d6102a491888a888789888d611011565b9687611723565b5f5b8181106102b657610018876117ce565b8080887fc2617efa69bab66782fa219543714338489c4e9e178271560a91b82c3f612b58888861032761030e8f986001998f828e6103018f836102fc9161030796611513565b611523565b97611513565b3595610fbc565b9061031b8282878761177b565b60405194859485610e98565b0390a3016102a6565b50869063ffb0321160e01b5f5260045260245260445260645ffd5b5087821415610286565b61035e336115f5565b61027b565b346101a15760403660031901126101a157610018600435610382610c16565b906103a261039b825f525f602052600160405f20015490565b33906116db565b611874565b346101a15760203660031901126101a1576004355f526001602052602060405f2054604051908152f35b346101a15760203660031901126101a15761001860043561117b565b346101a15760a03660031901126101a157610406610c00565b5061040f610c16565b506044356001600160401b0381116101a15761042f903690600401610ddb565b506064356001600160401b0381116101a15761044f903690600401610ddb565b506084356001600160401b0381116101a15761046f903690600401610cf7565b5060405163bc197c8160e01b8152602090f35b346101a15760206104a461049536610d6d565b96959095949194939293611011565b604051908152f35b346101a1575f3660031901126101a15760206040517ffd643c72710c63c0180259aba6b2d05451e3591a24e58b62239378085726f7838152f35b346101a1575f3660031901126101a15760206040515f8152f35b346101a15760403660031901126101a157610519610c16565b6004355f525f60205260405f209060018060a01b03165f52602052602060ff60405f2054166040519015158152f35b346101a1575f3660031901126101a15760206040517fb09aa5aeb3702cfd50b6b62bc4532604938f21248a27a1d5ca736082b6819cc18152f35b346101a15760c03660031901126101a1576004356001600160401b0381116101a1576105b2903690600401610d3d565b906024356001600160401b0381116101a1576105d2903690600401610d3d565b6044929192356001600160401b0381116101a157826105f685923690600401610d3d565b6064949194359161061d89848489856084359d8e9560a4359b6106183361156f565b611011565b5f5b83811061072d5750506106313361156f565b808914801590610723575b6107095761065088848489858a8f8e611011565b9861065b858b6118f4565b895f5b82811061069b5750898061066e57005b60207f20fda5fd27a1ea7bf5b9567f143ac5470bb059374a27e8f67cb44f946f6d038791604051908152a2005b806001927f4cf4410cc57040e44862ef0f45f3dd5a5e02db8eb8add648d4b0e236f1d07dca8b8b6106fe8f8c6106f18f928e6106ea8f8f906106e46102fc8f8097948195611513565b99611513565b3597610fbc565b9060405196879687611537565b0390a3018a9061065e565b908863ffb0321160e01b5f5260045260245260445260645ffd5b508189141561063c565b8061073b600192868b610fbc565b637aea5b6f60e11b916001600160e01b03199161075791610e42565b1614610764575b0161061f565b825f52600360205260405f208260ff1982541617905561075e565b346101a15760206104a461079236610c59565b94939093929192610f67565b346101a15760203660031901126101a1576107ba600435610f2f565b60405160048210156107cd576020918152f35b634e487b7160e01b5f52602160045260245ffd5b346101a15760203660031901126101a157600435303303610833577f11c24f4ead16507c69ac467fbd5e4eed5fb5c699626d2cc6d66421df253886d560406002548151908152836020820152a1600255005b63e2850c5960e01b5f523360045260245ffd5b346101a15760203660031901126101a1576020610864600435610f06565b6040519015158152f35b346101a15760403660031901126101a157610887610c16565b336001600160a01b038216036108a35761001890600435611874565b63334bd91960e11b5f5260045ffd5b346101a15760203660031901126101a1576020610864600435610eef565b346101a15760403660031901126101a1576100186004356108ef610c16565b9061090861039b825f525f602052600160405f20015490565b6117ec565b346101a15760203660031901126101a1576020610864600435610ed7565b346101a15760203660031901126101a15760206104a46004355f525f602052600160405f20015490565b346101a15760803660031901126101a15761096e610c00565b50610977610c16565b506064356001600160401b0381116101a157610997903690600401610cf7565b50604051630a85bd0160e11b8152602090f35b346101a15760203660031901126101a1576020610864600435610ebf565b610018610a465f610a527fc2617efa69bab66782fa219543714338489c4e9e178271560a91b82c3f612b58610a3d6109ff36610c59565b5f5160206119b05f395f51905f528a9995979299949394528960205260408a208a805260205260ff60408b20541615610a5a575b8884848989610f67565b98899788611723565b61031b8282878761177b565b0390a36117ce565b610a63336115f5565b610a33565b346101a1575f3660031901126101a15760206040515f5160206119b05f395f51905f528152f35b346101a15760203660031901126101a15760043563ffffffff60e01b81168091036101a157602090630271189760e51b8114908115610ad4575b506040519015158152f35b637965db0b60e01b811491508115610aee575b5082610ac9565b6301ffc9a760e01b14905082610ae7565b346101a15760c03660031901126101a157610b18610c00565b602435906044356001600160401b0381116101a1577f4cf4410cc57040e44862ef0f45f3dd5a5e02db8eb8add648d4b0e236f1d07dca92610b5e5f923690600401610c2c565b94909160643594610bda6084359660a43590610b793361156f565b610b8789828c8a8989610f67565b637aea5b6f60e11b6001600160e01b0319610ba28d8b610e42565b1614610be4575b50610bb33361156f565b610bc189828c8a8989610f67565b998a97610bce848a6118f4565b60405196879687611537565b0390a38061066e57005b8852600360205260408820805460ff191660011790558a610ba9565b600435906001600160a01b03821682036101a157565b602435906001600160a01b03821682036101a157565b9181601f840112156101a1578235916001600160401b0383116101a157602083818601950101116101a157565b60a06003198201126101a1576004356001600160a01b03811681036101a1579160243591604435906001600160401b0382116101a157610c9b91600401610c2c565b90916064359060843590565b90601f801991011681019081106001600160401b03821117610cc857604052565b634e487b7160e01b5f52604160045260245ffd5b6001600160401b038111610cc857601f01601f191660200190565b81601f820112156101a157803590610d0e82610cdc565b92610d1c6040519485610ca7565b828452602083830101116101a157815f926020809301838601378301015290565b9181601f840112156101a1578235916001600160401b0383116101a1576020808501948460051b0101116101a157565b60a06003198201126101a1576004356001600160401b0381116101a15781610d9791600401610d3d565b929092916024356001600160401b0381116101a15781610db991600401610d3d565b92909291604435906001600160401b0382116101a157610c9b91600401610d3d565b9080601f830112156101a1578135916001600160401b038311610cc8578260051b9060405193610e0e6020840186610ca7565b84526020808501928201019283116101a157602001905b828210610e325750505090565b8135815260209182019101610e25565b356001600160e01b0319811692919060048210610e5d575050565b6001600160e01b031960049290920360031b82901b16169150565b908060209392818452848401375f828201840152601f01601f1916010190565b610ebc949260609260018060a01b0316825260208201528160408201520191610e78565b90565b610ec890610f2f565b60048110156107cd5760021490565b610ee090610f2f565b60048110156107cd5760031490565b610ef890610f2f565b60048110156107cd57151590565b610f0f90610f2f565b60048110156107cd5760018114908115610f27575090565b600291501490565b5f52600160205260405f205480155f14610f4857505f90565b60018103610f565750600390565b421015610f6257600190565b600290565b94610f9d610fb694959293604051968795602087019960018060a01b03168a52604087015260a0606087015260c0860191610e78565b91608084015260a083015203601f198101835282610ca7565b51902090565b9190811015610ffd5760051b81013590601e19813603018212156101a15701908135916001600160401b0383116101a15760200182360381136101a1579190565b634e487b7160e01b5f52603260045260245ffd5b9693949190969592956040519660208801988060c08a0160a08c525260e0890192905f905b80821061112d57505050878203601f190160408901528082526001600160fb1b0381116101a1579087959394929160051b8092602083013701848103606086015260208101849052600584901b8101604090810194908201915f90889036829003601e1901905b8484106110c757505050505050610fb69450608084015260a083015203601f198101835282610ca7565b91939597909294969850601f19601f19838303010187528935838112156101a157840190602082359201916001600160401b0381116101a15780360383136101a1576111196020928392600195610e78565b9b0197019401918a9896999795939161109d565b91939091908435906001600160a01b03821682036101a1576001600160a01b039091168152602090810194019160010190611036565b908160209103126101a1575180151581036101a15790565b805f52600360205260ff60405f2054166113c657335f9081525f5160206119905f395f51905f52602052604090205460ff16806112e2575b6112d957335f9081525f5160206119905f395f51905f52602052604090205460ff1680611245575b15610833576111e933611668565b6111f281610f06565b1561122b57805f5260016020525f60408120557fbaa1eb22f2a492ba1a5fea61b8df4d27c6c8b5f3971e63bb58fa14ff72eedb705f80a2565b635ead8eb560e01b5f52600452600460021760245260445ffd5b50604051631f33573f60e31b81523360048201526020816024817f00000000000000000000000000000000000000000000000000000000000000006001600160a01b03165afa9081156112ce575f9161129f575b506111db565b6112c1915060203d6020116112c7575b6112b98183610ca7565b810190611163565b5f611299565b503d6112af565b6040513d5f823e3d90fd5b6111e933611668565b50604051630ccc574960e41b81527f00000000000000000000000000000000000000000000000000000000000000006001600160a01b031690602081600481855afa9081156112ce575f91611392575b50604051632474521560e21b815260048101919091523360248201529060209082908180604481015b03915afa9081156112ce575f91611373575b506111b3565b61138c915060203d6020116112c7576112b98183610ca7565b5f61136d565b90506020813d6020116113be575b816113ad60209383610ca7565b810103126101a1575161135b611332565b3d91506113a0565b604051630ccc574960e41b81527f00000000000000000000000000000000000000000000000000000000000000006001600160a01b031690602081600481855afa9081156112ce575f916114df575b50604051632474521560e21b815260048101919091523360248201529060209082908180604481015b03915afa9081156112ce575f916114c0575b501561145f576111e933611668565b60405162461bcd60e51b815260206004820152603360248201527f4f6e6c7920676f7665726e6f72732063616e2063616e63656c20677561726469604482015272616e206578706972792070726f706f73616c7360681b6064820152608490fd5b6114d9915060203d6020116112c7576112b98183610ca7565b5f611450565b90506020813d60201161150b575b816114fa60209383610ca7565b810103126101a1575161143e611415565b3d91506114ed565b9190811015610ffd5760051b0190565b356001600160a01b03811681036101a15790565b929093611565926080959897969860018060a01b03168552602085015260a0604085015260a0840191610e78565b9460608201520152565b6001600160a01b0381165f9081527f3412d5605ac6cd444957cedb533e5dacad6378b4bc819ebe3652188a665066d5602052604090205460ff16156115b15750565b63e2517d3f60e01b5f9081526001600160a01b03919091166004527fb09aa5aeb3702cfd50b6b62bc4532604938f21248a27a1d5ca736082b6819cc1602452604490fd5b6001600160a01b0381165f9081527fdae2aa361dfd1ca020a396615627d436107c35eff9fe7738a3512819782d7069602052604090205460ff16156116375750565b63e2517d3f60e01b5f9081526001600160a01b03919091166004525f5160206119b05f395f51905f52602452604490fd5b6001600160a01b0381165f9081525f5160206119905f395f51905f52602052604090205460ff16156116975750565b63e2517d3f60e01b5f9081526001600160a01b03919091166004527ffd643c72710c63c0180259aba6b2d05451e3591a24e58b62239378085726f783602452604490fd5b90815f525f60205260405f2060018060a01b0382165f5260205260ff60405f20541615611706575050565b63e2517d3f60e01b5f5260018060a01b031660045260245260445ffd5b61172c81610ebf565b15611764575080151580611754575b6117425750565b63121534c360e31b5f5260045260245ffd5b5061175e81610ed7565b1561173b565b635ead8eb560e01b5f52600452600460245260445ffd5b6117c3935f93928493826040519384928337810185815203925af13d156117c6573d906117a782610cdc565b916117b56040519384610ca7565b82523d5f602084013e611967565b50565b606090611967565b6117d781610ebf565b15611764575f526001602052600160405f2055565b5f818152602081815260408083206001600160a01b038616845290915290205460ff1661186e575f818152602081815260408083206001600160a01b0395909516808452949091528120805460ff19166001179055339291907f2f8788117e7eff1d82e926ec794901d17c78024a50270940304540a733656f0d9080a4600190565b50505f90565b5f818152602081815260408083206001600160a01b038616845290915290205460ff161561186e575f818152602081815260408083206001600160a01b0395909516808452949091528120805460ff19169055339291907ff6391f5c32d9c69d2a47ea670b442974b53935d1edc7fd64eb21e047a839171b9080a4600190565b906118fe82610eef565b61194f576002548082106119395750420190814211611925575f52600160205260405f2055565b634e487b7160e01b5f52601160045260245ffd5b90635433660960e01b5f5260045260245260445ffd5b50635ead8eb560e01b5f52600452600160245260445ffd5b90919061198d575080511561197e57805190602001fd5b63d6bda27560e01b5f5260045ffd5b56fec3ad33e20b0c56a223ad5104fff154aa010f8715b9c981fd38fdc60a4d1a52fbd8aa0f3194971a2a116679f7c2090f6939c8d4e01a2a8d7e41d55e5351469e63a26469706673582212208a78996a7bb2e465906601bda20884f8355b89fad97777460276d534dff1b47264736f6c634300081c00332f8788117e7eff1d82e926ec794901d17c78024a50270940304540a733656f0d3412d5605ac6cd444957cedb533e5dacad6378b4bc819ebe3652188a665066d5dae2aa361dfd1ca020a396615627d436107c35eff9fe7738a3512819782d7069c3ad33e20b0c56a223ad5104fff154aa010f8715b9c981fd38fdc60a4d1a52fbad3228b676f7d3cd4284a5443f17f1962b36e491b30a40b2405849e597ba5fb5",
  "linkReferences": {},
  "deployedLinkReferences": {}
}