{
  "_format": "hh-sol-artifact-1",
  "contractName": "SummerVestingWalletFactory",
  "sourceName": "src/contracts/SummerVestingWalletFactory.sol",
  "abi": [
    {
      "inputs": [
        {
          "internalType": "address",
          "name": "_token",
          "type": "address"
        },
        {
          "internalType": "address",
          "name": "_accessManager",
          "type": "address"
        }
      ],
      "stateMutability": "nonpayable",
      "type": "constructor"
    },
    {
      "inputs": [
        {
          "internalType": "address",
          "name": "caller",
          "type": "address"
        }
      ],
      "name": "CallerIsNotAdmin",
      "type": "error"
    },
    {
      "inputs": [
        {
          "internalType": "address",
          "name": "caller",
          "type": "address"
        }
      ],
      "name": "CallerIsNotAuthorizedToBoard",
      "type": "error"
    },
    {
      "inputs": [
        {
          "internalType": "address",
          "name": "caller",
          "type": "address"
        }
      ],
      "name": "CallerIsNotCommander",
      "type": "error"
    },
    {
      "inputs": [
        {
          "internalType": "address",
          "name": "caller",
          "type": "address"
        },
        {
          "internalType": "bytes32",
          "name": "role",
          "type": "bytes32"
        }
      ],
      "name": "CallerIsNotContractSpecificRole",
      "type": "error"
    },
    {
      "inputs": [
        {
          "internalType": "address",
          "name": "caller",
          "type": "address"
        }
      ],
      "name": "CallerIsNotCurator",
      "type": "error"
    },
    {
      "inputs": [
        {
          "internalType": "address",
          "name": "caller",
          "type": "address"
        }
      ],
      "name": "CallerIsNotDecayController",
      "type": "error"
    },
    {
      "inputs": [
        {
          "internalType": "address",
          "name": "caller",
          "type": "address"
        }
      ],
      "name": "CallerIsNotFoundation",
      "type": "error"
    },
    {
      "inputs": [
        {
          "internalType": "address",
          "name": "caller",
          "type": "address"
        }
      ],
      "name": "CallerIsNotGovernor",
      "type": "error"
    },
    {
      "inputs": [
        {
          "internalType": "address",
          "name": "caller",
          "type": "address"
        }
      ],
      "name": "CallerIsNotGuardian",
      "type": "error"
    },
    {
      "inputs": [
        {
          "internalType": "address",
          "name": "caller",
          "type": "address"
        }
      ],
      "name": "CallerIsNotGuardianOrGovernor",
      "type": "error"
    },
    {
      "inputs": [
        {
          "internalType": "address",
          "name": "caller",
          "type": "address"
        }
      ],
      "name": "CallerIsNotKeeper",
      "type": "error"
    },
    {
      "inputs": [
        {
          "internalType": "address",
          "name": "caller",
          "type": "address"
        }
      ],
      "name": "CallerIsNotRaft",
      "type": "error"
    },
    {
      "inputs": [
        {
          "internalType": "address",
          "name": "caller",
          "type": "address"
        }
      ],
      "name": "CallerIsNotRaftOrCommander",
      "type": "error"
    },
    {
      "inputs": [
        {
          "internalType": "address",
          "name": "caller",
          "type": "address"
        }
      ],
      "name": "CallerIsNotSuperKeeper",
      "type": "error"
    },
    {
      "inputs": [
        {
          "internalType": "address",
          "name": "caller",
          "type": "address"
        }
      ],
      "name": "DirectGrantIsDisabled",
      "type": "error"
    },
    {
      "inputs": [
        {
          "internalType": "address",
          "name": "caller",
          "type": "address"
        }
      ],
      "name": "DirectRevokeIsDisabled",
      "type": "error"
    },
    {
      "inputs": [
        {
          "internalType": "uint256",
          "name": "required",
          "type": "uint256"
        },
        {
          "internalType": "uint256",
          "name": "actual",
          "type": "uint256"
        }
      ],
      "name": "InsufficientAllowance",
      "type": "error"
    },
    {
      "inputs": [
        {
          "internalType": "uint256",
          "name": "required",
          "type": "uint256"
        },
        {
          "internalType": "uint256",
          "name": "actual",
          "type": "uint256"
        }
      ],
      "name": "InsufficientBalance",
      "type": "error"
    },
    {
      "inputs": [
        {
          "internalType": "address",
          "name": "invalidAddress",
          "type": "address"
        }
      ],
      "name": "InvalidAccessManagerAddress",
      "type": "error"
    },
    {
      "inputs": [
        {
          "internalType": "address",
          "name": "token",
          "type": "address"
        }
      ],
      "name": "SafeERC20FailedOperation",
      "type": "error"
    },
    {
      "inputs": [
        {
          "internalType": "uint256",
          "name": "expected",
          "type": "uint256"
        },
        {
          "internalType": "uint256",
          "name": "actual",
          "type": "uint256"
        }
      ],
      "name": "TransferAmountMismatch",
      "type": "error"
    },
    {
      "inputs": [
        {
          "internalType": "address",
          "name": "beneficiary",
          "type": "address"
        }
      ],
      "name": "VestingWalletAlreadyExists",
      "type": "error"
    },
    {
      "inputs": [],
      "name": "ZeroTokenAddress",
      "type": "error"
    },
    {
      "anonymous": false,
      "inputs": [
        {
          "indexed": true,
          "internalType": "address",
          "name": "beneficiary",
          "type": "address"
        },
        {
          "indexed": true,
          "internalType": "address",
          "name": "vestingWallet",
          "type": "address"
        },
        {
          "indexed": false,
          "internalType": "uint256",
          "name": "timeBasedAmount",
          "type": "uint256"
        },
        {
          "indexed": false,
          "internalType": "uint256[]",
          "name": "goalAmounts",
          "type": "uint256[]"
        },
        {
          "indexed": false,
          "internalType": "enum ISummerVestingWallet.VestingType",
          "name": "vestingType",
          "type": "uint8"
        }
      ],
      "name": "VestingWalletCreated",
      "type": "event"
    },
    {
      "inputs": [],
      "name": "ADMIRALS_QUARTERS_ROLE",
      "outputs": [
        {
          "internalType": "bytes32",
          "name": "",
          "type": "bytes32"
        }
      ],
      "stateMutability": "view",
      "type": "function"
    },
    {
      "inputs": [],
      "name": "DECAY_CONTROLLER_ROLE",
      "outputs": [
        {
          "internalType": "bytes32",
          "name": "",
          "type": "bytes32"
        }
      ],
      "stateMutability": "view",
      "type": "function"
    },
    {
      "inputs": [],
      "name": "GOVERNOR_ROLE",
      "outputs": [
        {
          "internalType": "bytes32",
          "name": "",
          "type": "bytes32"
        }
      ],
      "stateMutability": "view",
      "type": "function"
    },
    {
      "inputs": [],
      "name": "GUARDIAN_ROLE",
      "outputs": [
        {
          "internalType": "bytes32",
          "name": "",
          "type": "bytes32"
        }
      ],
      "stateMutability": "view",
      "type": "function"
    },
    {
      "inputs": [],
      "name": "SUPER_KEEPER_ROLE",
      "outputs": [
        {
          "internalType": "bytes32",
          "name": "",
          "type": "bytes32"
        }
      ],
      "stateMutability": "view",
      "type": "function"
    },
    {
      "inputs": [
        {
          "internalType": "address",
          "name": "beneficiary",
          "type": "address"
        },
        {
          "internalType": "uint256",
          "name": "timeBasedAmount",
          "type": "uint256"
        },
        {
          "internalType": "uint256[]",
          "name": "goalAmounts",
          "type": "uint256[]"
        },
        {
          "internalType": "enum ISummerVestingWallet.VestingType",
          "name": "vestingType",
          "type": "uint8"
        }
      ],
      "name": "createVestingWallet",
      "outputs": [
        {
          "internalType": "address",
          "name": "newVestingWallet",
          "type": "address"
        }
      ],
      "stateMutability": "nonpayable",
      "type": "function"
    },
    {
      "inputs": [
        {
          "internalType": "enum ContractSpecificRoles",
          "name": "roleName",
          "type": "uint8"
        },
        {
          "internalType": "address",
          "name": "roleTargetContract",
          "type": "address"
        }
      ],
      "name": "generateRole",
      "outputs": [
        {
          "internalType": "bytes32",
          "name": "",
          "type": "bytes32"
        }
      ],
      "stateMutability": "pure",
      "type": "function"
    },
    {
      "inputs": [
        {
          "internalType": "address",
          "name": "account",
          "type": "address"
        }
      ],
      "name": "hasAdmiralsQuartersRole",
      "outputs": [
        {
          "internalType": "bool",
          "name": "",
          "type": "bool"
        }
      ],
      "stateMutability": "view",
      "type": "function"
    },
    {
      "inputs": [],
      "name": "token",
      "outputs": [
        {
          "internalType": "address",
          "name": "",
          "type": "address"
        }
      ],
      "stateMutability": "view",
      "type": "function"
    },
    {
      "inputs": [
        {
          "internalType": "address",
          "name": "vestingWallet",
          "type": "address"
        }
      ],
      "name": "vestingWalletOwners",
      "outputs": [
        {
          "internalType": "address",
          "name": "beneficiary",
          "type": "address"
        }
      ],
      "stateMutability": "view",
      "type": "function"
    },
    {
      "inputs": [
        {
          "internalType": "address",
          "name": "beneficiary",
          "type": "address"
        }
      ],
      "name": "vestingWallets",
      "outputs": [
        {
          "internalType": "address",
          "name": "vestingWallet",
          "type": "address"
        }
      ],
      "stateMutability": "view",
      "type": "function"
    }
  ],
  "bytecode": "0x60c0806040523461011d576040816123fe803803809161001f8285610147565b83398101031261011d576100328161017e565b906001600160a01b03906100489060200161017e565b168015610134576040516301ffc9a760e01b815263261c910560e21b6004820152602081602481855afa908115610129575f916100ea575b50156100d8576080526001600160a01b038116156100c95760a05260405161226b908161019382396080518181816101460152610349015260a05181818160aa015261042a0152f35b636b093aad60e01b5f5260045ffd5b6347bd7c1d60e01b5f5260045260245ffd5b90506020813d602011610121575b8161010560209383610147565b8101031261011d5751801515810361011d575f610080565b5f80fd5b3d91506100f8565b6040513d5f823e3d90fd5b6347bd7c1d60e01b5f525f60045260245ffd5b601f909101601f19168101906001600160401b0382119082101761016a57604052565b634e487b7160e01b5f52604160045260245ffd5b51906001600160a01b038216820361011d5756fe6080806040526004361015610012575f80fd5b5f3560e01c9081631797cc641461092f5750806324ea54f4146108f557806366e943f1146108bb57806369b3054b1461084957806392f1d24f146102a8578063a89f38a31461026e578063baf351071461022f578063c0b534c2146101f5578063ccc57490146101bb578063ebc136d0146100dd5763fc0c546a14610095575f80fd5b346100d9575f3660031901126100d9576040517f00000000000000000000000000000000000000000000000000000000000000006001600160a01b03168152602090f35b5f80fd5b346100d95760203660031901126100d9576100f661096e565b604051632474521560e21b81527fb00be3d6a5434b97b328543d1486d56adcb7e74080170d1cdd7e0306c3d9ba3d60048201526001600160a01b03918216602482015290602090829060449082907f0000000000000000000000000000000000000000000000000000000000000000165afa80156101b0576020915f91610183575b506040519015158152f35b6101a39150823d84116101a9575b61019b8183610984565b8101906109a5565b82610178565b503d610191565b6040513d5f823e3d90fd5b346100d9575f3660031901126100d95760206040517f7935bd0ae54bc31f548c14dba4d37c5c64b3f8ca900cb468fb8abd54d5894f558152f35b346100d9575f3660031901126100d95760206040517f025d8bbf3268be680d2605ebf6da15063b9915615bf1087dab336efc1bf970cb8152f35b346100d95760203660031901126100d9576001600160a01b0361025061096e565b165f525f602052602060018060a01b0360405f205416604051908152f35b346100d9575f3660031901126100d95760206040517fb00be3d6a5434b97b328543d1486d56adcb7e74080170d1cdd7e0306c3d9ba3d8152f35b346100d95760803660031901126100d9576102c161096e565b602435906044356001600160401b0381116100d957366023820112156100d9578060040135906001600160401b03821161071e578160051b6040519261030a6020830185610984565b835260246020840191830101913683116100d957602401905b828210610839575050506064359160028310156100d95760405163e66fd9ef60e01b81527f00000000000000000000000000000000000000000000000000000000000000006001600160a01b03169190602081600481865afa9081156101b0575f91610807575b50604051632474521560e21b81526004810191909152336024820152602081604481865afa9081156101b0575f916107e8575b50156107d5576001600160a01b039081165f81815260208190526040902054909291166107c257845f955b845187101561040f5761040760019160208960051b88010151906109bd565b9601956103e8565b604051636eb1769f60e11b81523360048201523060248201527f00000000000000000000000000000000000000000000000000000000000000006001600160a01b03169386939288929091906020816044818a5afa9081156101b0575f91610790575b5082811061077a57506040516370a0823160e01b81523360048201526020816024818a5afa9081156101b0575f91610748575b5082811061073257506040519061180390818301908382106001600160401b0383111761071e578392610a3384398882528960208301526001600160401b03421660408301526104f860608301876109de565b86608083015260e060a083015260c061051460e084018a6109ff565b92015203905ff080156101b0575f8781526020818152604080832080546001600160a01b03199081166001600160a01b0396909616958617909155848452600183529281902080549093168a1790925590516370a0823160e01b81526004810183905291969082602481845afa9182156101b0575f926106ea575b5060205f604051828101906323b872dd60e01b82523360248201528a6044820152866064820152606481526105c5608482610984565b519082855af1156101b0575f513d6106e15750803b155b6106cf5790602060249392604051948580926370a0823160e01b82528b60048301525afa9283156101b0575f9361069b575b5061061982826109bd565b830361067c57602087808a7fa24f0c282d4a63b2f7e3712da4fab41eaf78fcd5ff348ea189f9d6e5430054de8a8a8a610671610666604051948594855260608b86015260608501906109ff565b9160408401906109de565b0390a3604051908152f35b90610686916109bd565b632daa6d9560e21b5f5260045260245260445ffd5b9092506020813d6020116106c7575b816106b760209383610984565b810103126100d95751918861060e565b3d91506106aa565b635274afe760e01b5f5260045260245ffd5b600114156105dc565b9091506020813d602011610716575b8161070660209383610984565b810103126100d95751908861058f565b3d91506106f9565b634e487b7160e01b5f52604160045260245ffd5b8263cf47918160e01b5f5260045260245260445ffd5b90506020813d602011610772575b8161076360209383610984565b810103126100d95751886104a5565b3d9150610756565b8263054365bb60e31b5f5260045260245260445ffd5b90506020813d6020116107ba575b816107ab60209383610984565b810103126100d9575188610472565b3d915061079e565b50630f7b254960e21b5f5260045260245ffd5b636078547360e11b5f523360045260245ffd5b610801915060203d6020116101a95761019b8183610984565b866103bd565b90506020813d602011610831575b8161082260209383610984565b810103126100d957518661038a565b3d9150610815565b8135815260209182019101610323565b346100d95760403660031901126100d95760043560038110156100d957602435906001600160a01b03821682036100d95760405160f89190911b602082810191825260609390931b6001600160601b031916602183015260158252906108b0603582610984565b519020604051908152f35b346100d9575f3660031901126100d95760206040517f0d186688925976bbe6755ae984501c8e3e2b103a7af59fd803ab9c6d891ae7e08152f35b346100d9575f3660031901126100d95760206040517f55435dd261a4b9b3364963f7738a7a662ad9c84396d64be3365284bb7f0a50418152f35b346100d95760203660031901126100d9576020906001600160a01b0361095361096e565b165f9081526001835260409020546001600160a01b03168152f35b600435906001600160a01b03821682036100d957565b90601f801991011681019081106001600160401b0382111761071e57604052565b908160209103126100d9575180151581036100d95790565b919082018092116109ca57565b634e487b7160e01b5f52601160045260245ffd5b9060028210156109eb5752565b634e487b7160e01b5f52602160045260245ffd5b90602080835192838152019201905f5b818110610a1c5750505090565b8251845260209384019390920191600101610a0f56fe61014080604052346103c557611803803803809161001d8285610412565b8339810160e0828203126103c55761003482610435565b9161004160208201610435565b60408201519091906001600160401b03811681036103c55760608201519260028410156103c557608083015160a08401519093906001600160401b0381116103c55781019580601f880112156103c5578651966001600160401b038811610292578760051b90604051986100b8602084018b610412565b89526020808a01928201019283116103c557602001905b8282106104025750505060c06100e59101610435565b6001600160a01b039091169182156103ef575f80546001600160a01b031981168517825560405194916001600160a01b03909116907f8be0079c531659141344cd1fd0a4f28419497f9722a3daafe3b4186f6b6457e09080a36080526303c2670060a0526001600160a01b03169081156103dc576301ffc9a760e01b815263261c910560e21b6004820152602081602481855afa9081156103d1575f91610392575b50156103805760c0528160e05261012052155f1461036b575f5b81518110156102a65760208160051b83010151906003546801000000000000000081101561029257600181018060035581101561027e5760035f527fc2575a0e9e593c00f959f8c92f12db2869c3395a3b0502d05e2516446f71f85b01829055600454916801000000000000000083101561029257600183018060045583101561027e5760407f314a43cc84323145dcbc0d75c7e5350dc6a6def246c48e0f30a001924f5261399160019460045f5260205f208160051c019060ff60f883549260031b161b1916905560035482519182526020820152a1016101a1565b634e487b7160e01b5f52603260045260245ffd5b634e487b7160e01b5f52604160045260245ffd5b50505b6101008190526001600160a01b03168015610359576040516113b9908161044a82396080518181816102f60152818161065e01526111dc015260a0518181816102cc0152610f82015260c05181818161038401528181610490015281816106a701526109cb015260e05181818161072601528181610a4a01528181610fb801526112b10152610100518181816101720152818161081c0152610afb015261012051818181610e56015261122c0152f35b63961c9a4f60e01b5f5260045260245ffd5b51156102a957632d09888560e11b5f5260045ffd5b6347bd7c1d60e01b5f5260045260245ffd5b90506020813d6020116103c9575b816103ad60209383610412565b810103126103c5575180151581036103c5575f610187565b5f80fd5b3d91506103a0565b6040513d5f823e3d90fd5b6347bd7c1d60e01b5f525f60045260245ffd5b631e4fbdf760e01b5f525f60045260245ffd5b81518152602091820191016100cf565b601f909101601f19168101906001600160401b0382119082101761029257604052565b51906001600160a01b03821682036103c55756fe6080604052600436101561001a575b3615610018575f80fd5b005b5f3560e01c80630a17b06b14610fea5780630e17454c14610fa65780630fb5a6b414610f635780631916558714610eb357806324ea54f414610e795780633306094414610e3f57806366e943f114610e0557806369b3054b14610d93578063715018a614610d3c578063810ec23b14610d0357806386d1a69f14610c0c57806388fb1502146109ac5780638da5cb5b1461098557806396132521146109685780639852595c14610930578063a3f8eace1461090d578063a89f38a3146108d3578063aa5ef02b14610682578063be9a65551461063f578063c0b534c214610605578063c2a5b0be1461046b578063c9514c9b14610433578063ccc57490146103f9578063ebc136d01461031b578063efbe1c1c146102ad578063f2fde38b14610228578063f8d870c8146101eb578063fbccedae146101a55763fc0c546a0361000e57346101a1575f3660031901126101a1576040517f00000000000000000000000000000000000000000000000000000000000000006001600160a01b03168152602090f35b5f80fd5b346101a1575f3660031901126101a1576101c247600154906110a6565b5060206101e36101da6001600160401b0342166111d2565b6001549061118f565b604051908152f35b346101a15760203660031901126101a1576004356004548110156101a15760ff610216602092611069565b90549060031b1c166040519015158152f35b346101a15760203660031901126101a157610241611027565b610249611289565b6001600160a01b0316801561029a575f80546001600160a01b03198116831782556001600160a01b0316907f8be0079c531659141344cd1fd0a4f28419497f9722a3daafe3b4186f6b6457e09080a3005b631e4fbdf760e01b5f525f60045260245ffd5b346101a1575f3660031901126101a15760206101e36001600160401b037f0000000000000000000000000000000000000000000000000000000000000000166001600160401b037f0000000000000000000000000000000000000000000000000000000000000000166110a6565b346101a15760203660031901126101a157610334611027565b604051632474521560e21b81527fb00be3d6a5434b97b328543d1486d56adcb7e74080170d1cdd7e0306c3d9ba3d60048201526001600160a01b03918216602482015290602090829060449082907f0000000000000000000000000000000000000000000000000000000000000000165afa80156103ee576020915f916103c1575b506040519015158152f35b6103e19150823d84116103e7575b6103d981836110b3565b81019061115e565b826103b6565b503d6103cf565b6040513d5f823e3d90fd5b346101a1575f3660031901126101a15760206040517f7935bd0ae54bc31f548c14dba4d37c5c64b3f8ca900cb468fb8abd54d5894f558152f35b346101a15760203660031901126101a1576004356003548110156101a15761045c60209161103d565b90549060031b1c604051908152f35b346101a15760203660031901126101a15760405163e66fd9ef60e01b815260048035917f00000000000000000000000000000000000000000000000000000000000000006001600160a01b031691602090829081855afa9081156103ee575f916105d1575b506020906104f5926040518080958194632474521560e21b8352339060048401611176565b03915afa9081156103ee575f916105b2575b501561059f57600181108015610594575b610585575f198101818111610571577ffbfd8ab7c24300fa9888cd721c8565a7da56759384781283684dcf7c7c4a846b91610554602092611069565b81549060031b9060ff6001831b921b1916179055604051908152a1005b634e487b7160e01b5f52601160045260245ffd5b630d8a8dc160e21b5f5260045ffd5b506003548111610518565b636078547360e11b5f523360045260245ffd5b6105cb915060203d6020116103e7576103d981836110b3565b82610507565b90506020813d6020116105fd575b816105ec602093836110b3565b810103126101a157516104f56104d0565b3d91506105df565b346101a1575f3660031901126101a15760206040517f025d8bbf3268be680d2605ebf6da15063b9915615bf1087dab336efc1bf970cb8152f35b346101a1575f3660031901126101a15760206040516001600160401b037f0000000000000000000000000000000000000000000000000000000000000000168152f35b346101a15760203660031901126101a15760405163e66fd9ef60e01b815260048035917f00000000000000000000000000000000000000000000000000000000000000006001600160a01b031691602090829081855afa9081156103ee575f9161089f575b5060209061070c926040518080958194632474521560e21b8352339060048401611176565b03915afa9081156103ee575f91610880575b501561059f577f0000000000000000000000000000000000000000000000000000000000000000600281101561086c5761085d57600354600160401b81101561084957806001610771920160035561103d565b81545f1960039290921b91821b19169083901b17905560045490600160401b821015610849576107aa8260016100189401600455611069565b60ff82549160031b1b191690557f314a43cc84323145dcbc0d75c7e5350dc6a6def246c48e0f30a001924f52613960406003548151908482526020820152a1604051906323b872dd60e01b602083015233602483015230604483015260648201526064815261081a6084826110b3565b7f00000000000000000000000000000000000000000000000000000000000000006001600160a01b031661132b565b634e487b7160e01b5f52604160045260245ffd5b632d09888560e11b5f5260045ffd5b634e487b7160e01b5f52602160045260245ffd5b610899915060203d6020116103e7576103d981836110b3565b8261071e565b90506020813d6020116108cb575b816108ba602093836110b3565b810103126101a1575161070c6106e7565b3d91506108ad565b346101a1575f3660031901126101a15760206040517fb00be3d6a5434b97b328543d1486d56adcb7e74080170d1cdd7e0306c3d9ba3d8152f35b346101a15760203660031901126101a15760206101e361092b611027565b61119c565b346101a15760203660031901126101a1576001600160a01b03610951611027565b165f526002602052602060405f2054604051908152f35b346101a1575f3660031901126101a1576020600154604051908152f35b346101a1575f3660031901126101a1575f546040516001600160a01b039091168152602090f35b346101a1575f3660031901126101a15760405163e66fd9ef60e01b81527f00000000000000000000000000000000000000000000000000000000000000006001600160a01b031690602081600481855afa9081156103ee575f91610bd8575b50602090610a30926040518080958194632474521560e21b8352339060048401611176565b03915afa9081156103ee575f91610bb9575b501561059f577f0000000000000000000000000000000000000000000000000000000000000000600281101561086c5761085d575f6003545f5b818110610b7357825f5b600354811015610ace578060ff610a9e600193611069565b90549060031b1c1615610ab2575b01610a86565b610abb8161103d565b8154905f199060031b1b19169055610aac565b5060405163a9059cbb60e01b815233600482015260248101829052906020826044815f6001600160a01b037f0000000000000000000000000000000000000000000000000000000000000000165af19081156103ee577f646dccc228123fd14a7623a401dec2e05c198af8a02a568df7c11ff7a04a123092602092610b58575b50604051908152a1005b610b6e90833d85116103e7576103d981836110b3565b610b4e565b60ff610b7e82611069565b90549060031b1c1615610b94575b600101610a7c565b91610bb1600191610ba48561103d565b90549060031b1c906110a6565b929050610b8c565b610bd2915060203d6020116103e7576103d981836110b3565b81610a42565b90506020813d602011610c04575b81610bf3602093836110b3565b810103126101a15751610a30610a0b565b3d9150610be6565b346101a1575f3660031901126101a157610c2947600154906110a6565b50610c3c6001600160401b0342166111d2565b610c53610c4c600154809361118f565b80926110a6565b6001557fda9d4e5f101b8b9b1c5b76d0c5a9f7923571acfc02376aa076b75a8c080c956b6020604051838152a15f546001600160a01b0316478211610cec575f80809381935af13d15610ce7573d6001600160401b0381116108495760405190610cc7601f8201601f1916602001836110b3565b81525f60203d92013e5b15610cd857005b63d6bda27560e01b5f5260045ffd5b610cd1565b504763cf47918160e01b5f5260045260245260445ffd5b346101a15760403660031901126101a157610d1c611027565b602435906001600160401b03821682036101a1576020916101e3916110d4565b346101a1575f3660031901126101a157610d54611289565b5f80546001600160a01b0319811682556001600160a01b03167f8be0079c531659141344cd1fd0a4f28419497f9722a3daafe3b4186f6b6457e08280a3005b346101a15760403660031901126101a15760043560038110156101a157602435906001600160a01b03821682036101a15760405160f89190911b602082810191825260609390931b6001600160601b03191660218301526015825290610dfa6035826110b3565b519020604051908152f35b346101a1575f3660031901126101a15760206040517f0d186688925976bbe6755ae984501c8e3e2b103a7af59fd803ab9c6d891ae7e08152f35b346101a1575f3660031901126101a15760206040517f00000000000000000000000000000000000000000000000000000000000000008152f35b346101a1575f3660031901126101a15760206040517f55435dd261a4b9b3364963f7738a7a662ad9c84396d64be3365284bb7f0a50418152f35b346101a15760203660031901126101a157610018610ecf611027565b610ed88161119c565b9060018060a01b0316805f52600260205260405f20610ef88382546110a6565b9055807fc0e523490dd523c33b1878c9eb14ff46991e3f5b2cd33710918618f2a39cba1b6020604051858152a25f5460405163a9059cbb60e01b60208201526001600160a01b039091166024820152604480820193909352918252610f5e6064836110b3565b61132b565b346101a1575f3660031901126101a15760206040516001600160401b037f0000000000000000000000000000000000000000000000000000000000000000168152f35b346101a1575f3660031901126101a1577f0000000000000000000000000000000000000000000000000000000000000000604051600282101561086c576020918152f35b346101a15760203660031901126101a1576004356001600160401b03811681036101a1576101e360209161102147600154906110a6565b506111d2565b600435906001600160a01b03821682036101a157565b6003548110156110555760035f5260205f2001905f90565b634e487b7160e01b5f52603260045260245ffd5b906004548210156110555760045f52600582901c7f8a35acfbc15ff81a39ae7d344fd709f28e8600b4aa8c65c6b64bfe7fe36bd19b0191601f1690565b9190820180921161057157565b90601f801991011681019081106001600160401b0382111761084957604052565b6040516370a0823160e01b81523060048201526001600160a01b03919091169190602081602481865afa9081156103ee575f9161112a575b5061102190611127935f52600260205260405f2054906110a6565b90565b90506020813d602011611156575b81611145602093836110b3565b810103126101a1575161112761110c565b3d9150611138565b908160209103126101a1575180151581036101a15790565b9081526001600160a01b03909116602082015260400190565b9190820391821161057157565b611127906111b36001600160401b034216826110d4565b6001600160a01b039091165f908152600260205260409020549061118f565b6001600160401b037f0000000000000000000000000000000000000000000000000000000000000000169062ed4e00820190818311610571576001600160401b03169081106112835762278d00916112299161118f565b047f00000000000000000000000000000000000000000000000000000000000000008181029181830414811517156105715760186111279204908082105f1461127c57505b6112766112af565b906110a6565b905061126e565b50505f90565b5f546001600160a01b0316330361129c57565b63118cdaa760e01b5f523360045260245ffd5b7f0000000000000000000000000000000000000000000000000000000000000000600281101561086c57611327575f6003545f5b8181106112ef57505090565b60ff6112fa82611069565b90549060031b1c1661130f575b6001016112e3565b9161131f600191610ba48561103d565b929050611307565b5f90565b905f602091828151910182855af1156103ee575f513d61137a57506001600160a01b0381163b155b61135a5750565b635274afe760e01b5f9081526001600160a01b0391909116600452602490fd5b6001141561135356fea2646970667358221220ffeebf0581a3a0b9de99d2c04507f88de3bd9ec13f54f718a575fe2a1f79a18664736f6c634300081c0033a2646970667358221220cd7446cd9cbf5c0a85a22101c7ad1cc404b05d241943e5a864bcacba8945455264736f6c634300081c0033",
  "linkReferences": {},
  "deployedLinkReferences": {}
}