{
  "_format": "hh-sol-artifact-1",
  "contractName": "AdmiralsQuarters",
  "sourceName": "src/contracts/AdmiralsQuarters.sol",
  "abi": [
    {
      "inputs": [
        {
          "internalType": "address",
          "name": "_oneInchRouter",
          "type": "address"
        },
        {
          "internalType": "address",
          "name": "_configurationManager",
          "type": "address"
        },
        {
          "internalType": "address",
          "name": "_wrappedNative",
          "type": "address"
        }
      ],
      "stateMutability": "nonpayable",
      "type": "constructor"
    },
    {
      "inputs": [
        {
          "internalType": "address",
          "name": "target",
          "type": "address"
        }
      ],
      "name": "AddressEmptyCode",
      "type": "error"
    },
    {
      "inputs": [],
      "name": "AssetMismatch",
      "type": "error"
    },
    {
      "inputs": [],
      "name": "ConfigurationManagerZeroAddress",
      "type": "error"
    },
    {
      "inputs": [],
      "name": "ETHTransferFailed",
      "type": "error"
    },
    {
      "inputs": [],
      "name": "FailedCall",
      "type": "error"
    },
    {
      "inputs": [],
      "name": "InsufficientOutputAmount",
      "type": "error"
    },
    {
      "inputs": [],
      "name": "InvalidFleetCommander",
      "type": "error"
    },
    {
      "inputs": [],
      "name": "InvalidNativeAmount",
      "type": "error"
    },
    {
      "inputs": [],
      "name": "InvalidNativeTokenAddress",
      "type": "error"
    },
    {
      "inputs": [],
      "name": "InvalidRewardsManager",
      "type": "error"
    },
    {
      "inputs": [],
      "name": "InvalidRewardsRedeemer",
      "type": "error"
    },
    {
      "inputs": [],
      "name": "InvalidRouterAddress",
      "type": "error"
    },
    {
      "inputs": [],
      "name": "InvalidToken",
      "type": "error"
    },
    {
      "inputs": [],
      "name": "MulticallAlreadyInProgress",
      "type": "error"
    },
    {
      "inputs": [],
      "name": "NativeTokenNotAllowed",
      "type": "error"
    },
    {
      "inputs": [],
      "name": "NotMulticall",
      "type": "error"
    },
    {
      "inputs": [
        {
          "internalType": "address",
          "name": "owner",
          "type": "address"
        }
      ],
      "name": "OwnableInvalidOwner",
      "type": "error"
    },
    {
      "inputs": [
        {
          "internalType": "address",
          "name": "account",
          "type": "address"
        }
      ],
      "name": "OwnableUnauthorizedAccount",
      "type": "error"
    },
    {
      "inputs": [],
      "name": "ReentrancyGuard",
      "type": "error"
    },
    {
      "inputs": [],
      "name": "ReentrancyGuardReentrantCall",
      "type": "error"
    },
    {
      "inputs": [
        {
          "internalType": "address",
          "name": "token",
          "type": "address"
        }
      ],
      "name": "SafeERC20FailedOperation",
      "type": "error"
    },
    {
      "inputs": [],
      "name": "SwapAmountMismatch",
      "type": "error"
    },
    {
      "inputs": [],
      "name": "SwapFailed",
      "type": "error"
    },
    {
      "inputs": [],
      "name": "TokenMismatch",
      "type": "error"
    },
    {
      "inputs": [],
      "name": "UnsupportedSwapFunction",
      "type": "error"
    },
    {
      "inputs": [],
      "name": "ZeroAmount",
      "type": "error"
    },
    {
      "anonymous": false,
      "inputs": [
        {
          "indexed": true,
          "internalType": "address",
          "name": "user",
          "type": "address"
        },
        {
          "indexed": true,
          "internalType": "address",
          "name": "aToken",
          "type": "address"
        },
        {
          "indexed": false,
          "internalType": "uint256",
          "name": "amount",
          "type": "uint256"
        }
      ],
      "name": "AavePositionImported",
      "type": "event"
    },
    {
      "anonymous": false,
      "inputs": [
        {
          "indexed": true,
          "internalType": "address",
          "name": "user",
          "type": "address"
        },
        {
          "indexed": true,
          "internalType": "address",
          "name": "cToken",
          "type": "address"
        },
        {
          "indexed": false,
          "internalType": "uint256",
          "name": "amount",
          "type": "uint256"
        }
      ],
      "name": "CompoundPositionImported",
      "type": "event"
    },
    {
      "anonymous": false,
      "inputs": [
        {
          "indexed": true,
          "internalType": "address",
          "name": "user",
          "type": "address"
        },
        {
          "indexed": true,
          "internalType": "address",
          "name": "vault",
          "type": "address"
        },
        {
          "indexed": false,
          "internalType": "uint256",
          "name": "amount",
          "type": "uint256"
        }
      ],
      "name": "ERC4626PositionImported",
      "type": "event"
    },
    {
      "anonymous": false,
      "inputs": [
        {
          "indexed": true,
          "internalType": "address",
          "name": "user",
          "type": "address"
        },
        {
          "indexed": true,
          "internalType": "address",
          "name": "fleetCommander",
          "type": "address"
        },
        {
          "indexed": false,
          "internalType": "uint256",
          "name": "inputAmount",
          "type": "uint256"
        },
        {
          "indexed": false,
          "internalType": "uint256",
          "name": "sharesReceived",
          "type": "uint256"
        }
      ],
      "name": "FleetEntered",
      "type": "event"
    },
    {
      "anonymous": false,
      "inputs": [
        {
          "indexed": true,
          "internalType": "address",
          "name": "user",
          "type": "address"
        },
        {
          "indexed": true,
          "internalType": "address",
          "name": "fleetCommander",
          "type": "address"
        },
        {
          "indexed": false,
          "internalType": "uint256",
          "name": "withdrawnAmount",
          "type": "uint256"
        },
        {
          "indexed": false,
          "internalType": "uint256",
          "name": "outputAmount",
          "type": "uint256"
        }
      ],
      "name": "FleetExited",
      "type": "event"
    },
    {
      "anonymous": false,
      "inputs": [
        {
          "indexed": true,
          "internalType": "address",
          "name": "user",
          "type": "address"
        },
        {
          "indexed": true,
          "internalType": "address",
          "name": "fleetCommander",
          "type": "address"
        },
        {
          "indexed": false,
          "internalType": "uint256",
          "name": "amount",
          "type": "uint256"
        }
      ],
      "name": "FleetSharesStaked",
      "type": "event"
    },
    {
      "anonymous": false,
      "inputs": [
        {
          "indexed": true,
          "internalType": "address",
          "name": "user",
          "type": "address"
        },
        {
          "indexed": true,
          "internalType": "address",
          "name": "fleetCommander",
          "type": "address"
        },
        {
          "indexed": false,
          "internalType": "uint256",
          "name": "amount",
          "type": "uint256"
        }
      ],
      "name": "FleetSharesUnstaked",
      "type": "event"
    },
    {
      "anonymous": false,
      "inputs": [
        {
          "indexed": true,
          "internalType": "address",
          "name": "previousOwner",
          "type": "address"
        },
        {
          "indexed": true,
          "internalType": "address",
          "name": "newOwner",
          "type": "address"
        }
      ],
      "name": "OwnershipTransferred",
      "type": "event"
    },
    {
      "anonymous": false,
      "inputs": [
        {
          "indexed": true,
          "internalType": "address",
          "name": "user",
          "type": "address"
        },
        {
          "indexed": true,
          "internalType": "address",
          "name": "fromToken",
          "type": "address"
        },
        {
          "indexed": true,
          "internalType": "address",
          "name": "toToken",
          "type": "address"
        },
        {
          "indexed": false,
          "internalType": "uint256",
          "name": "fromAmount",
          "type": "uint256"
        },
        {
          "indexed": false,
          "internalType": "uint256",
          "name": "toAmount",
          "type": "uint256"
        }
      ],
      "name": "Swapped",
      "type": "event"
    },
    {
      "anonymous": false,
      "inputs": [
        {
          "indexed": true,
          "internalType": "address",
          "name": "user",
          "type": "address"
        },
        {
          "indexed": true,
          "internalType": "address",
          "name": "token",
          "type": "address"
        },
        {
          "indexed": false,
          "internalType": "uint256",
          "name": "amount",
          "type": "uint256"
        }
      ],
      "name": "TokensDeposited",
      "type": "event"
    },
    {
      "anonymous": false,
      "inputs": [
        {
          "indexed": true,
          "internalType": "address",
          "name": "token",
          "type": "address"
        },
        {
          "indexed": true,
          "internalType": "address",
          "name": "to",
          "type": "address"
        },
        {
          "indexed": false,
          "internalType": "uint256",
          "name": "amount",
          "type": "uint256"
        }
      ],
      "name": "TokensRescued",
      "type": "event"
    },
    {
      "anonymous": false,
      "inputs": [
        {
          "indexed": true,
          "internalType": "address",
          "name": "user",
          "type": "address"
        },
        {
          "indexed": true,
          "internalType": "address",
          "name": "token",
          "type": "address"
        },
        {
          "indexed": false,
          "internalType": "uint256",
          "name": "amount",
          "type": "uint256"
        }
      ],
      "name": "TokensWithdrawn",
      "type": "event"
    },
    {
      "inputs": [],
      "name": "NATIVE_PSEUDO_ADDRESS",
      "outputs": [
        {
          "internalType": "address",
          "name": "",
          "type": "address"
        }
      ],
      "stateMutability": "view",
      "type": "function"
    },
    {
      "inputs": [],
      "name": "ONE_INCH_ROUTER",
      "outputs": [
        {
          "internalType": "address",
          "name": "",
          "type": "address"
        }
      ],
      "stateMutability": "view",
      "type": "function"
    },
    {
      "inputs": [],
      "name": "WRAPPED_NATIVE",
      "outputs": [
        {
          "internalType": "address",
          "name": "",
          "type": "address"
        }
      ],
      "stateMutability": "view",
      "type": "function"
    },
    {
      "inputs": [
        {
          "internalType": "address[]",
          "name": "fleetCommanders",
          "type": "address[]"
        },
        {
          "internalType": "address",
          "name": "rewardToken",
          "type": "address"
        }
      ],
      "name": "claimFleetRewards",
      "outputs": [],
      "stateMutability": "nonpayable",
      "type": "function"
    },
    {
      "inputs": [
        {
          "internalType": "address",
          "name": "govRewardsManager",
          "type": "address"
        },
        {
          "internalType": "address",
          "name": "rewardToken",
          "type": "address"
        }
      ],
      "name": "claimGovernanceRewards",
      "outputs": [],
      "stateMutability": "nonpayable",
      "type": "function"
    },
    {
      "inputs": [
        {
          "internalType": "address",
          "name": "user",
          "type": "address"
        },
        {
          "internalType": "uint256[]",
          "name": "indices",
          "type": "uint256[]"
        },
        {
          "internalType": "uint256[]",
          "name": "amounts",
          "type": "uint256[]"
        },
        {
          "internalType": "bytes32[][]",
          "name": "proofs",
          "type": "bytes32[][]"
        },
        {
          "internalType": "address",
          "name": "rewardsRedeemer",
          "type": "address"
        }
      ],
      "name": "claimMerkleRewards",
      "outputs": [],
      "stateMutability": "nonpayable",
      "type": "function"
    },
    {
      "inputs": [],
      "name": "configurationManager",
      "outputs": [
        {
          "internalType": "contract IConfigurationManager",
          "name": "",
          "type": "address"
        }
      ],
      "stateMutability": "view",
      "type": "function"
    },
    {
      "inputs": [
        {
          "internalType": "contract IERC20",
          "name": "asset",
          "type": "address"
        },
        {
          "internalType": "uint256",
          "name": "amount",
          "type": "uint256"
        }
      ],
      "name": "depositTokens",
      "outputs": [],
      "stateMutability": "payable",
      "type": "function"
    },
    {
      "inputs": [
        {
          "internalType": "address",
          "name": "fleetCommander",
          "type": "address"
        },
        {
          "internalType": "uint256",
          "name": "assets",
          "type": "uint256"
        },
        {
          "internalType": "address",
          "name": "receiver",
          "type": "address"
        }
      ],
      "name": "enterFleet",
      "outputs": [
        {
          "internalType": "uint256",
          "name": "shares",
          "type": "uint256"
        }
      ],
      "stateMutability": "payable",
      "type": "function"
    },
    {
      "inputs": [
        {
          "internalType": "address",
          "name": "fleetCommander",
          "type": "address"
        },
        {
          "internalType": "uint256",
          "name": "assets",
          "type": "uint256"
        }
      ],
      "name": "exitFleet",
      "outputs": [
        {
          "internalType": "uint256",
          "name": "shares",
          "type": "uint256"
        }
      ],
      "stateMutability": "payable",
      "type": "function"
    },
    {
      "inputs": [],
      "name": "fleetCommanderRewardsManagerFactory",
      "outputs": [
        {
          "internalType": "address",
          "name": "",
          "type": "address"
        }
      ],
      "stateMutability": "view",
      "type": "function"
    },
    {
      "inputs": [],
      "name": "harborCommand",
      "outputs": [
        {
          "internalType": "address",
          "name": "",
          "type": "address"
        }
      ],
      "stateMutability": "view",
      "type": "function"
    },
    {
      "inputs": [
        {
          "internalType": "address",
          "name": "aToken",
          "type": "address"
        },
        {
          "internalType": "uint256",
          "name": "assets",
          "type": "uint256"
        }
      ],
      "name": "moveFromAaveToAdmiralsQuarters",
      "outputs": [],
      "stateMutability": "nonpayable",
      "type": "function"
    },
    {
      "inputs": [
        {
          "internalType": "address",
          "name": "cToken",
          "type": "address"
        },
        {
          "internalType": "uint256",
          "name": "assets",
          "type": "uint256"
        }
      ],
      "name": "moveFromCompoundToAdmiralsQuarters",
      "outputs": [],
      "stateMutability": "nonpayable",
      "type": "function"
    },
    {
      "inputs": [
        {
          "internalType": "address",
          "name": "vault",
          "type": "address"
        },
        {
          "internalType": "uint256",
          "name": "shares",
          "type": "uint256"
        }
      ],
      "name": "moveFromERC4626ToAdmiralsQuarters",
      "outputs": [],
      "stateMutability": "nonpayable",
      "type": "function"
    },
    {
      "inputs": [
        {
          "internalType": "bytes[]",
          "name": "data",
          "type": "bytes[]"
        }
      ],
      "name": "multicall",
      "outputs": [
        {
          "internalType": "bytes[]",
          "name": "results",
          "type": "bytes[]"
        }
      ],
      "stateMutability": "payable",
      "type": "function"
    },
    {
      "inputs": [],
      "name": "owner",
      "outputs": [
        {
          "internalType": "address",
          "name": "",
          "type": "address"
        }
      ],
      "stateMutability": "view",
      "type": "function"
    },
    {
      "inputs": [],
      "name": "raft",
      "outputs": [
        {
          "internalType": "address",
          "name": "",
          "type": "address"
        }
      ],
      "stateMutability": "view",
      "type": "function"
    },
    {
      "inputs": [],
      "name": "renounceOwnership",
      "outputs": [],
      "stateMutability": "nonpayable",
      "type": "function"
    },
    {
      "inputs": [
        {
          "internalType": "contract IERC20",
          "name": "token",
          "type": "address"
        },
        {
          "internalType": "address",
          "name": "to",
          "type": "address"
        },
        {
          "internalType": "uint256",
          "name": "amount",
          "type": "uint256"
        }
      ],
      "name": "rescueTokens",
      "outputs": [],
      "stateMutability": "nonpayable",
      "type": "function"
    },
    {
      "inputs": [
        {
          "internalType": "address",
          "name": "fleetCommander",
          "type": "address"
        },
        {
          "internalType": "uint256",
          "name": "shares",
          "type": "uint256"
        }
      ],
      "name": "stake",
      "outputs": [],
      "stateMutability": "payable",
      "type": "function"
    },
    {
      "inputs": [
        {
          "internalType": "contract IERC20",
          "name": "fromToken",
          "type": "address"
        },
        {
          "internalType": "contract IERC20",
          "name": "toToken",
          "type": "address"
        },
        {
          "internalType": "uint256",
          "name": "assets",
          "type": "uint256"
        },
        {
          "internalType": "uint256",
          "name": "minTokensReceived",
          "type": "uint256"
        },
        {
          "internalType": "bytes",
          "name": "swapCalldata",
          "type": "bytes"
        }
      ],
      "name": "swap",
      "outputs": [
        {
          "internalType": "uint256",
          "name": "swappedAmount",
          "type": "uint256"
        }
      ],
      "stateMutability": "payable",
      "type": "function"
    },
    {
      "inputs": [],
      "name": "tipJar",
      "outputs": [
        {
          "internalType": "address",
          "name": "",
          "type": "address"
        }
      ],
      "stateMutability": "view",
      "type": "function"
    },
    {
      "inputs": [
        {
          "internalType": "address",
          "name": "newOwner",
          "type": "address"
        }
      ],
      "name": "transferOwnership",
      "outputs": [],
      "stateMutability": "nonpayable",
      "type": "function"
    },
    {
      "inputs": [],
      "name": "treasury",
      "outputs": [
        {
          "internalType": "address",
          "name": "",
          "type": "address"
        }
      ],
      "stateMutability": "view",
      "type": "function"
    },
    {
      "inputs": [
        {
          "internalType": "address",
          "name": "fleetCommander",
          "type": "address"
        },
        {
          "internalType": "uint256",
          "name": "shares",
          "type": "uint256"
        },
        {
          "internalType": "bool",
          "name": "claimRewards",
          "type": "bool"
        }
      ],
      "name": "unstakeAndWithdrawAssets",
      "outputs": [],
      "stateMutability": "nonpayable",
      "type": "function"
    },
    {
      "inputs": [
        {
          "internalType": "contract IERC20",
          "name": "asset",
          "type": "address"
        },
        {
          "internalType": "uint256",
          "name": "amount",
          "type": "uint256"
        }
      ],
      "name": "withdrawTokens",
      "outputs": [],
      "stateMutability": "payable",
      "type": "function"
    },
    {
      "stateMutability": "payable",
      "type": "receive"
    }
  ],
  "bytecode": "0x610100346101c157601f61284438819003918201601f19168301916001600160401b038311848410176101c5578084926060946040528339810103126101c157610048816101d9565b6100606040610059602085016101d9565b93016101d9565b9033156101ae575f8054336001600160a01b0319821681178355604051959290916001600160a01b0316907f8be0079c531659141344cd1fd0a4f28419497f9722a3daafe3b4186f6b6457e09080a36001600160a01b0316801561019f5760805273eeeeeeeeeeeeeeeeeeeeeeeeeeeeeeeeeeeeeeee60c0526001600160a01b038116156101905760a0526001600160a01b038116156101815760e05261265690816101ee82396080518181816101bc015281816107440152818161113c015281816114e001528181611bbc0152612172015260a0518181816102ed015261184d015260c0518181816101630152818161064c015281816113a70152611e23015260e051818181610332015281816113e001528181611e540152611f4b0152f35b63ecb7bc6f60e01b5f5260045ffd5b6314203b4b60e01b5f5260045ffd5b63f1634df960e01b5f5260045ffd5b631e4fbdf760e01b5f525f60045260245ffd5b5f80fd5b634e487b7160e01b5f52604160045260245ffd5b51906001600160a01b03821682036101c15756fe6080604052600436101561001a575b3615610018575f80fd5b005b5f5f3560e01c806306b091f914611dca5780630dedddbf14611c07578063117d8ae014611b965780631dddf9fa146119d85780632506c0181461175e578063557c1c65146115585780635b0f83f31461152b57806361d027b3146114b957806366168bd714611349578063715018a6146112ef57806376b119b9146111875780637aaceb951461111557806388bcf98314610ecb5780638da5cb5b14610ea457806396bca53714610dbc5780639cf61a5214610b63578063ac9650d81461095d578063adc9772e14610773578063c9c667e31461072e578063cea9d26f14610614578063cf87c38f14610498578063d7f8e9a514610361578063d999984d1461031c578063dd3fd925146102d7578063f2fde38b14610251578063f7e533ec146101955763fa1b884c1461014e575061000e565b346101925780600319360112610192576040517f00000000000000000000000000000000000000000000000000000000000000006001600160a01b03168152602090f35b80fd5b5034610192578060031936011261019257604051633df94cfb60e21b8152906020826004817f00000000000000000000000000000000000000000000000000000000000000006001600160a01b03165afa908115610245578091610208575b6040516001600160a01b0383168152602090f35b90506020823d60201161023d575b81610223602093836120a5565b8101031261019257506102376020916120da565b5f6101f4565b3d9150610216565b604051903d90823e3d90fd5b50346101925760203660031901126101925761026b612049565b6102736123ee565b6001600160a01b031680156102c35781546001600160a01b03198116821783556001600160a01b03167f8be0079c531659141344cd1fd0a4f28419497f9722a3daafe3b4186f6b6457e08380a380f35b631e4fbdf760e01b82526004829052602482fd5b50346101925780600319360112610192576040517f00000000000000000000000000000000000000000000000000000000000000006001600160a01b03168152602090f35b50346101925780600319360112610192576040517f00000000000000000000000000000000000000000000000000000000000000006001600160a01b03168152602090f35b50604036600319011261019257610376612049565b6024359190336001600160a01b035f5160206125e15f395f51905f525c1603610489576103a161225d565b6103aa816122ed565b6001600160a01b0316918061048357505f19905b604051632d182be560e21b815292602084806103df3330886004850161223d565b038185855af192831561047857829361043f575b6020945060405190815283858201527f3018bc84615a588f3485d554ded6943344a7f25f8b758b14b6e9677378c1c68b60403392a35f5160206126015f395f51905f525d604051908152f35b92506020843d602011610470575b8161045a602093836120a5565b8101031261046c5760209351926103f3565b5f80fd5b3d915061044d565b6040513d84823e3d90fd5b906103be565b633128ce5560e01b8252600482fd5b5034610192576040366003190112610192576104b2612049565b60243590336001600160a01b035f5160206125e15f395f51905f525c1603610605576104dc61225d565b6001600160a01b0316908061060057506040516370a0823160e01b8152336004820152602081602481855afa9081156105f55783916105c3575b505b604051635d043b2960e11b8152602081806105383330876004850161223d565b038187875af180156105b857610589575b506040519081527f915b71c589595289d233b271db8454f447949848ecdd456a109e3f2559c0d50960203392a3805f5160206126015f395f51905f525d80f35b6020813d6020116105b0575b816105a2602093836120a5565b8101031261046c5751610549565b3d9150610595565b6040513d86823e3d90fd5b90506020813d6020116105ed575b816105de602093836120a5565b8101031261046c57515f610516565b3d91506105d1565b6040513d85823e3d90fd5b610518565b633128ce5560e01b8352600483fd5b50346101925760603660031901126101925761062e612049565b61063661205f565b906044356106426123ee565b6001600160a01b037f0000000000000000000000000000000000000000000000000000000000000000811692908116908382036106e7575050806106e1575047915b6001600160a01b0316918380808084875af161069e6121ff565b50156106d25760207f77023e19c7343ad491fd706c36335ca0e738340a91f29b1fd81e2673d44896c491604051908152a380f35b63b12d13eb60e01b8452600484fd5b91610684565b60209193509361071a83827f77023e19c7343ad491fd706c36335ca0e738340a91f29b1fd81e2673d44896c495976122b1565b6040519485526001600160a01b031693a380f35b50346101925780600319360112610192576040517f00000000000000000000000000000000000000000000000000000000000000006001600160a01b03168152602090f35b50604036600319011261019257610788612049565b60243590336001600160a01b035f5160206125e15f395f51905f525c1603610605576107b261225d565b6107bb816122ed565b6040516330fe427560e21b81526001600160a01b0391909116919060a081600481865afa9081156105b857849161092e575b50608001516040516370a0823160e01b8152306004820152916001600160a01b0390911690602083602481875afa9283156109235785936108ef575b50806108e95750815b82116108da57806108458386938661242e565b803b156108d65781604051809263cecc238f60e01b825281838161086d8933600484016121e4565b03925af18015610478576108bd575b50506040519081527f229b6242f243935a5ba03689948a442635f9fd7ed35555146349f51316c1f28e60203392a3805f5160206126015f395f51905f525d80f35b816108c7916120a5565b6108d257825f61087c565b8280fd5b5080fd5b6342301c2360e01b8452600484fd5b91610832565b9092506020813d60201161091b575b8161090b602093836120a5565b8101031261046c5751915f610829565b3d91506108fe565b6040513d87823e3d90fd5b610950915060a03d60a011610956575b61094881836120a5565b8101906120ee565b5f6107ed565b503d61093e565b506020366003190112610192576004356001600160401b0381116108d657610989903690600401612075565b5f5160206125e15f395f51905f525c6001600160a01b0316610b545790335f5160206125e15f395f51905f525d60206040516109c582826120a5565b84815281810191601f1981013684376109dd856124eb565b936109eb60405195866120a5565b858552601f196109fa876124eb565b01875b818110610b4557505036819003601e190190875b87811015610abd578060051b82013583811215610ab9578201908135916001600160401b038311610ab55785018a83360382136101925780610a999289610a856001978b8e6040519483869484860198893784019083820190898252519283915e010185815203601f1981018352826120a5565b5190305af4610a926121ff565b9030612582565b610aa3828a612502565b52610aae8189612502565b5001610a11565b8a80fd5b8980fd5b888488825f5160206125e15f395f51905f525d60405191808301818452825180915260408401918060408360051b870101940192865b838810610b005786860387f35b9091929394838080600193603f198b8203018752818a518051918291828552018484015e86838284010152601f80199101160101970193019701969093929193610af3565b606087820185015283016109fd565b6339082a3960e11b8352600483fd5b50606036600319011261019257610b78612049565b6044356001600160a01b03811692602435929091908482036108d257336001600160a01b035f5160206125e15f395f51905f525c160361060557610bba61225d565b610bc3816122ed565b6040516338d52e0f60e01b81526001600160a01b03919091169190602081600481865afa9081156105b8578491610d7e575b506040516370a0823160e01b8152306004820152946001600160a01b03919091169190602086602481865afa958615610923578596610d4a575b5080610d44575084955b610d3e575033935b8511610d2f578482610c529261242e565b604051636e553f6560e01b8152600481018590526001600160a01b039093166024840181905260208460448186865af19384156105f5578394610cd9575b507fd584e570678d099262db4ba972df2e63e3618dadc6179677a6a2b18360c4a657604060209681519081528688820152a35f5160206126015f395f51905f525d604051908152f35b9493506020853d602011610d27575b81610cf5602093836120a5565b8101031261046c57935192937fd584e570678d099262db4ba972df2e63e3618dadc6179677a6a2b18360c4a657610c90565b3d9150610ce8565b6342301c2360e01b8352600483fd5b93610c41565b95610c39565b9095506020813d602011610d76575b81610d66602093836120a5565b8101031261046c5751945f610c2f565b3d9150610d59565b90506020813d602011610db4575b81610d99602093836120a5565b81010312610db057610daa906120da565b5f610bf5565b8380fd5b3d9150610d8c565b503461019257604036600319011261019257610dd6612049565b90610ddf61205f565b91336001600160a01b035f5160206125e15f395f51905f525c160361048957610e0661225d565b6001600160a01b0316918215610e95579091829190610e2d6001600160a01b038316612292565b803b15610e9157604051635eeb2e0f60e01b81529183918391829084908290610e5a903360048401612414565b03925af1801561047857610e7c575b505f5160206126015f395f51905f525d80f35b81610e86916120a5565b61019257805f610e69565b5050fd5b63913a247f60e01b8252600482fd5b5034610192578060031936011261019257546040516001600160a01b039091168152602090f35b503461019257604036600319011261019257610ee5612049565b60243590336001600160a01b035f5160206125e15f395f51905f525c160361060557610f0f61225d565b604051633a9ae92360e11b81526001600160a01b039190911691908390602081600481875afa9081156104785782916110db575b506040516358b50cef60e11b815292602084600481885afa9384156105f557839461109f575b508061109357506040516370a0823160e01b8152336004820152602081602481885afa9081156105f557839161105b575b50906064602092945b610faf8630338a6123aa565b604051631a4ca37b60e21b81526001600160a01b039182166004820152602481018790523060448201529485938492165af180156105b85761102c575b506040519081527fd269ddb991eeb6ceaf84849c22783248bd97ffea53842ccfc04dc943729b19e360203392a3805f5160206126015f395f51905f525d80f35b6020813d602011611053575b81611045602093836120a5565b8101031261046c5751610fec565b3d9150611038565b919250506020813d60201161108b575b81611078602093836120a5565b8101031261046c57518491906064610f9a565b3d915061106b565b90606460209294610fa3565b9093506020813d6020116110d3575b816110bb602093836120a5565b810103126108d2576110cc906120da565b925f610f69565b3d91506110ae565b90506020813d60201161110d575b816110f6602093836120a5565b810103126108d657611107906120da565b5f610f43565b3d91506110e9565b5034610192578060031936011261019257604051637aaceb9560e01b8152906020826004817f00000000000000000000000000000000000000000000000000000000000000006001600160a01b03165afa908115610245578091610208576040516001600160a01b0383168152602090f35b5034610192576040366003190112610192576004356001600160401b0381116108d6576111b8903690600401612075565b906111c161205f565b90336001600160a01b035f5160206125e15f395f51905f525c16036112e0579083916111eb61225d565b825b848110156112cc57600581901b8201356001600160a01b038116908181036112c85760049161121d60a0926122ed565b6040516330fe427560e21b815292839182905afa9081156109235785916112aa575b50608001516001600160a01b0316803b156112a657846040518092635eeb2e0f60e01b82528183816112758a3360048401612414565b03925af1908115610923578591611291575b50506001016111ed565b8161129b916120a5565b610db057835f611287565b8480fd5b6112c2915060a03d81116109565761094881836120a5565b5f61123f565b8580fd5b83805f5160206126015f395f51905f525d80f35b633128ce5560e01b8452600484fd5b50346101925780600319360112610192576113086123ee565b80546001600160a01b03198116825581906001600160a01b03167f8be0079c531659141344cd1fd0a4f28419497f9722a3daafe3b4186f6b6457e08280a380f35b5060403660031901126101925761135e612049565b602435336001600160a01b035f5160206125e15f395f51905f525c16036106055761138761225d565b61139082612292565b80156114aa576001600160a01b03828116929082907f00000000000000000000000000000000000000000000000000000000000000001684036114985750503481036114895747341161148957827f00000000000000000000000000000000000000000000000000000000000000006001600160a01b0316803b156108d657818391600460405180948193630d0e30db60e41b83525af1801561047857611474575b50505b6040519081527fcbc4a4091b012bb1329c38bbbb15455f5cac5aa3673da0a7f38cd61a4f49551760203392a3805f5160206126015f395f51905f525d80f35b8161147e916120a5565b6108d257825f611432565b63113a2f4b60e21b8352600483fd5b6114a591309033906123aa565b611435565b631f2a200560e01b8352600483fd5b50346101925780600319360112610192576040516361d027b360e01b8152906020826004817f00000000000000000000000000000000000000000000000000000000000000006001600160a01b03165afa908115610245578091610208576040516001600160a01b0383168152602090f35b5034610192578060031936011261019257602061154661215d565b6040516001600160a01b039091168152f35b50346101925760a036600319011261019257611572612049565b906024356001600160401b0381116108d657611592903690600401612075565b92906044356001600160401b038111610db0576115b3903690600401612075565b906064356001600160401b0381116112c8576115d3903690600401612075565b9290936084359760018060a01b03891680990361173c57336001600160a01b035f5160206125e15f395f51905f525c160361174f5761161061225d565b881561174057883b1561173c57604051630fafc94b60e41b81526001600160a01b0390971660048801526080602488015293949361166a939291611658916084890191612386565b86810360031901604488015291612386565b91600319848403016064850152808352602083019060208160051b85010193838791601e1982360301905b8484106116dd575088808981818e8183818f03925af18015610478576116c857505f5160206126015f395f51905f525d80f35b816116d2916120a5565b610192578082610e69565b90919293949596601f19828203018752873583811215610ab55784016020813591016001600160401b038211611738578160051b36038113611738576117296001936020938493612386565b99019701959401929190611695565b8b80fd5b8780fd5b630690aab160e11b8852600488fd5b633128ce5560e01b8852600488fd5b5060a036600319011261019257611773612049565b61177b61205f565b9160443592608435906001600160401b0382116108d257366023830112156108d2578160040135936001600160401b038511610db0573660248685010111610db057336001600160a01b035f5160206125e15f395f51905f525c16036112e0576117e361225d565b6117ec81612292565b6117f582612292565b85156119c9576001600160a01b0391821692918116918383146119ba576040516370a0823160e01b815230600482015295602087602481885afa9687156119af578697611974575b509160248680949381946118738c7f0000000000000000000000000000000000000000000000000000000000000000809761242e565b80604051948593018337810182815203925af161188e6121ff565b5015611965576040516370a0823160e01b815230600482015293602085602481865afa9485156105b8578495611931575b50840393841161191d576064358410610d2f5760209460405190815284868201527f6782190c91d4a7e8ad2a867deed6ec0a970cab8ff137ae2bd4abd92b3810f4d360403392a45f5160206126015f395f51905f525d604051908152f35b634e487b7160e01b83526011600452602483fd5b9094506020813d60201161195d575b8161194d602093836120a5565b8101031261046c5751935f6118bf565b3d9150611940565b63081ceff360e41b8352600483fd5b91929096506020823d6020116119a7575b81611992602093836120a5565b8101031261046c57905195909190602461183d565b3d9150611985565b6040513d88823e3d90fd5b6341e0808560e11b8552600485fd5b631f2a200560e01b8452600484fd5b5034610192576060366003190112610192576119f2612049565b6024359060443590811515809203610db057336001600160a01b035f5160206125e15f395f51905f525c16036112e0578390611a2c61225d565b611a35816122ed565b6040516330fe427560e21b81526001600160a01b0391909116939060a081600481885afa9081156105f5578391611b77575b50608001516001600160a01b03169080611b7157506040516370a0823160e01b8152336004820152602081602481855afa9081156105f5578391611b3c575b50925b813b156108d257829160648392604051948593849263191d952d60e21b845233600485015289602485015260448401525af1801561047857611b27575b50506040519081527f700c68e6e49e104bb8288f3d6ffb4723d8c8fa31695662535a9c6980d44eee2060203392a3805f5160206126015f395f51905f525d80f35b81611b31916120a5565b6108d257825f611ae6565b9250506020823d602011611b69575b81611b58602093836120a5565b8101031261046c578491515f611aa6565b3d9150611b4b565b92611aa9565b611b90915060a03d60a0116109565761094881836120a5565b5f611a67565b5034610192578060031936011261019257604051628bec5760e51b8152906020826004817f00000000000000000000000000000000000000000000000000000000000000006001600160a01b03165afa908115610245578091610208576040516001600160a01b0383168152602090f35b503461019257604036600319011261019257611c21612049565b60243590336001600160a01b035f5160206125e15f395f51905f525c160361060557611c4b61225d565b60405163c55dae6360e01b81526001600160a01b0391909116918390602083600481875afa928315610478578293611d8e575b5080611d8857506040516370a0823160e01b8152336004820152602081602481875afa908115610478578291611d53575b50915b833b156108d6576040516304c8826360e31b81523360048201523060248201526001600160a01b03909116604482015260648101839052818160848183885af1801561047857611d3e575b50506040519081527f2bb776770e69df4d29d3c5d4c6c05ec4c32f7be119d35604fbba0e8f86d152f960203392a3805f5160206126015f395f51905f525d80f35b81611d48916120a5565b6108d257825f611cfd565b9150506020813d602011611d80575b81611d6f602093836120a5565b8101031261046c578390515f611caf565b3d9150611d62565b91611cb2565b9092506020813d602011611dc2575b81611daa602093836120a5565b810103126108d657611dbb906120da565b915f611c7e565b3d9150611d9d565b50604036600319011261046c57611ddf612049565b60243590336001600160a01b035f5160206125e15f395f51905f525c160361203a57611e0961225d565b8190611e1481612292565b6001600160a01b0381811693907f0000000000000000000000000000000000000000000000000000000000000000168403611fbb5750508015611f2f575b7f00000000000000000000000000000000000000000000000000000000000000006001600160a01b0316803b1561046c575f8091602460405180948193632e1a7d4d60e01b83528760048401525af18015611f2457611f0f575b508280828015611f05575b8280929181923390f115610478575b6040519081527f6337ed398c0e8467698c581374fdce4db14922df487b5a39483079f5f59b60a460203392a3805f5160206126015f395f51905f525d80f35b6108fc9150611eb7565b611f1c9193505f906120a5565b5f915f611eac565b6040513d5f823e3d90fd5b506040516370a0823160e01b81523060048201526020816024817f00000000000000000000000000000000000000000000000000000000000000006001600160a01b03165afa908115611f24575f91611f89575b50611e52565b90506020813d602011611fb3575b81611fa4602093836120a5565b8101031261046c57515f611f83565b3d9150611f97565b15611fd2575b81611fcd9133906122b1565b611ec6565b6040516370a0823160e01b8152306004820152909150602081602481865afa8015611f24575f90612006575b919050611fc1565b506020813d602011612032575b81612020602093836120a5565b8101031261046c57611fcd9051611ffe565b3d9150612013565b633128ce5560e01b5f5260045ffd5b600435906001600160a01b038216820361046c57565b602435906001600160a01b038216820361046c57565b9181601f8401121561046c578235916001600160401b03831161046c576020808501948460051b01011161046c57565b90601f801991011681019081106001600160401b038211176120c657604052565b634e487b7160e01b5f52604160045260245ffd5b51906001600160a01b038216820361046c57565b908160a091031261046c576040519060a082018281106001600160401b038211176120c65760405280516001600160a01b038116810361046c57612155916080918452602081015160208501526040810151604085015260608101516060850152016120da565b608082015290565b604051635b0f83f360e01b81526020816004817f00000000000000000000000000000000000000000000000000000000000000006001600160a01b03165afa908115611f24575f916121ad575090565b90506020813d6020116121dc575b816121c8602093836120a5565b8101031261046c576121d9906120da565b90565b3d91506121bb565b6001600160a01b039091168152602081019190915260400190565b3d15612238573d906001600160401b0382116120c6576040519161222d601f8201601f1916602001846120a5565b82523d5f602084013e565b606090565b9081526001600160a01b0391821660208201529116604082015260600190565b5f5160206126015f395f51905f525c6122835760015f5160206126015f395f51905f525d565b633ee5aeb560e01b5f5260045ffd5b6001600160a01b0316156122a257565b63c1ab6dc160e01b5f5260045ffd5b6122e66122eb93926122d860405194859263a9059cbb60e01b6020850152602484016121e4565b03601f1981018452836120a5565b61252a565b565b60206001600160a01b036122ff61215d565b6040516374e806ab60e11b81526001600160a01b03909416600485015283916024918391165afa908115611f24575f9161234b575b501561233c57565b6317b9ea1760e11b5f5260045ffd5b90506020813d60201161237e575b81612366602093836120a5565b8101031261046c5751801515810361046c575f612334565b3d9150612359565b81835290916001600160fb1b03831161046c5760209260051b809284830137010190565b6040516323b872dd60e01b60208201526001600160a01b0392831660248201529290911660448301526064808301939093529181526122eb916122e66084836120a5565b5f546001600160a01b0316330361240157565b63118cdaa760e01b5f523360045260245ffd5b6001600160a01b0391821681529116602082015260400190565b91909160205f60405193612465856124578582019363095ea7b360e01b855289602484016121e4565b03601f1981018752866120a5565b84519082855af15f513d826124c6575b50501561248157505050565b60405163095ea7b360e01b60208201526001600160a01b0390931660248401525f60448085019190915283526122eb926122e6906124c06064826120a5565b8261252a565b9091506124e357506001600160a01b0381163b15155b5f80612475565b6001146124dc565b6001600160401b0381116120c65760051b60200190565b80518210156125165760209160051b010190565b634e487b7160e01b5f52603260045260245ffd5b905f602091828151910182855af115611f24575f513d61257957506001600160a01b0381163b155b6125595750565b635274afe760e01b5f9081526001600160a01b0391909116600452602490fd5b60011415612552565b906125a6575080511561259757805190602001fd5b63d6bda27560e01b5f5260045ffd5b815115806125d7575b6125b7575090565b639996b31560e01b5f9081526001600160a01b0391909116600452602490fd5b50803b156125af56fe4047f0417aa4905ca06b566a01340d0e510e7af6b560e81d10e0ea24404f597b9b779b17422d0df92223018b32b4d1fa46e071723d6817e2486d003becc55f00a2646970667358221220de621893f08ed7a15698647d6ed4fbd340cfb12ea3704c8d8c85b0564c9ff25964736f6c634300081c0033",
  "linkReferences": {},
  "deployedLinkReferences": {}
}