{
  "_format": "hh-sol-artifact-1",
  "contractName": "AdmiralsQuarters",
  "sourceName": "src/contracts/AdmiralsQuarters.sol",
  "abi": [
    {
      "inputs": [
        {
          "internalType": "address",
          "name": "_oneInchRouter",
          "type": "address"
        },
        {
          "internalType": "address",
          "name": "_configurationManager",
          "type": "address"
        },
        {
          "internalType": "address",
          "name": "_wrappedNative",
          "type": "address"
        }
      ],
      "stateMutability": "nonpayable",
      "type": "constructor"
    },
    {
      "inputs": [
        {
          "internalType": "address",
          "name": "target",
          "type": "address"
        }
      ],
      "name": "AddressEmptyCode",
      "type": "error"
    },
    {
      "inputs": [],
      "name": "AssetMismatch",
      "type": "error"
    },
    {
      "inputs": [],
      "name": "ConfigurationManagerZeroAddress",
      "type": "error"
    },
    {
      "inputs": [],
      "name": "FailedCall",
      "type": "error"
    },
    {
      "inputs": [],
      "name": "InsufficientOutputAmount",
      "type": "error"
    },
    {
      "inputs": [],
      "name": "InvalidFleetCommander",
      "type": "error"
    },
    {
      "inputs": [],
      "name": "InvalidNativeAmount",
      "type": "error"
    },
    {
      "inputs": [],
      "name": "InvalidNativeTokenAddress",
      "type": "error"
    },
    {
      "inputs": [],
      "name": "InvalidRewardsManager",
      "type": "error"
    },
    {
      "inputs": [],
      "name": "InvalidRewardsRedeemer",
      "type": "error"
    },
    {
      "inputs": [],
      "name": "InvalidRouterAddress",
      "type": "error"
    },
    {
      "inputs": [],
      "name": "InvalidToken",
      "type": "error"
    },
    {
      "inputs": [],
      "name": "MulticallAlreadyInProgress",
      "type": "error"
    },
    {
      "inputs": [],
      "name": "NativeTokenNotAllowed",
      "type": "error"
    },
    {
      "inputs": [],
      "name": "NotMulticall",
      "type": "error"
    },
    {
      "inputs": [
        {
          "internalType": "address",
          "name": "owner",
          "type": "address"
        }
      ],
      "name": "OwnableInvalidOwner",
      "type": "error"
    },
    {
      "inputs": [
        {
          "internalType": "address",
          "name": "account",
          "type": "address"
        }
      ],
      "name": "OwnableUnauthorizedAccount",
      "type": "error"
    },
    {
      "inputs": [],
      "name": "ReentrancyGuard",
      "type": "error"
    },
    {
      "inputs": [],
      "name": "ReentrancyGuardReentrantCall",
      "type": "error"
    },
    {
      "inputs": [
        {
          "internalType": "address",
          "name": "token",
          "type": "address"
        }
      ],
      "name": "SafeERC20FailedOperation",
      "type": "error"
    },
    {
      "inputs": [],
      "name": "SwapAmountMismatch",
      "type": "error"
    },
    {
      "inputs": [],
      "name": "SwapFailed",
      "type": "error"
    },
    {
      "inputs": [],
      "name": "TokenMismatch",
      "type": "error"
    },
    {
      "inputs": [],
      "name": "UnsupportedSwapFunction",
      "type": "error"
    },
    {
      "inputs": [],
      "name": "ZeroAmount",
      "type": "error"
    },
    {
      "anonymous": false,
      "inputs": [
        {
          "indexed": true,
          "internalType": "address",
          "name": "user",
          "type": "address"
        },
        {
          "indexed": true,
          "internalType": "address",
          "name": "aToken",
          "type": "address"
        },
        {
          "indexed": false,
          "internalType": "uint256",
          "name": "amount",
          "type": "uint256"
        }
      ],
      "name": "AavePositionImported",
      "type": "event"
    },
    {
      "anonymous": false,
      "inputs": [
        {
          "indexed": true,
          "internalType": "address",
          "name": "user",
          "type": "address"
        },
        {
          "indexed": true,
          "internalType": "address",
          "name": "cToken",
          "type": "address"
        },
        {
          "indexed": false,
          "internalType": "uint256",
          "name": "amount",
          "type": "uint256"
        }
      ],
      "name": "CompoundPositionImported",
      "type": "event"
    },
    {
      "anonymous": false,
      "inputs": [
        {
          "indexed": true,
          "internalType": "address",
          "name": "user",
          "type": "address"
        },
        {
          "indexed": true,
          "internalType": "address",
          "name": "vault",
          "type": "address"
        },
        {
          "indexed": false,
          "internalType": "uint256",
          "name": "amount",
          "type": "uint256"
        }
      ],
      "name": "ERC4626PositionImported",
      "type": "event"
    },
    {
      "anonymous": false,
      "inputs": [
        {
          "indexed": true,
          "internalType": "address",
          "name": "user",
          "type": "address"
        },
        {
          "indexed": true,
          "internalType": "address",
          "name": "fleetCommander",
          "type": "address"
        },
        {
          "indexed": false,
          "internalType": "uint256",
          "name": "inputAmount",
          "type": "uint256"
        },
        {
          "indexed": false,
          "internalType": "uint256",
          "name": "sharesReceived",
          "type": "uint256"
        }
      ],
      "name": "FleetEntered",
      "type": "event"
    },
    {
      "anonymous": false,
      "inputs": [
        {
          "indexed": true,
          "internalType": "address",
          "name": "user",
          "type": "address"
        },
        {
          "indexed": true,
          "internalType": "address",
          "name": "fleetCommander",
          "type": "address"
        },
        {
          "indexed": false,
          "internalType": "uint256",
          "name": "withdrawnAmount",
          "type": "uint256"
        },
        {
          "indexed": false,
          "internalType": "uint256",
          "name": "outputAmount",
          "type": "uint256"
        }
      ],
      "name": "FleetExited",
      "type": "event"
    },
    {
      "anonymous": false,
      "inputs": [
        {
          "indexed": true,
          "internalType": "address",
          "name": "user",
          "type": "address"
        },
        {
          "indexed": true,
          "internalType": "address",
          "name": "fleetCommander",
          "type": "address"
        },
        {
          "indexed": false,
          "internalType": "uint256",
          "name": "amount",
          "type": "uint256"
        }
      ],
      "name": "FleetSharesStaked",
      "type": "event"
    },
    {
      "anonymous": false,
      "inputs": [
        {
          "indexed": true,
          "internalType": "address",
          "name": "user",
          "type": "address"
        },
        {
          "indexed": true,
          "internalType": "address",
          "name": "fleetCommander",
          "type": "address"
        },
        {
          "indexed": false,
          "internalType": "uint256",
          "name": "amount",
          "type": "uint256"
        }
      ],
      "name": "FleetSharesUnstaked",
      "type": "event"
    },
    {
      "anonymous": false,
      "inputs": [
        {
          "indexed": true,
          "internalType": "address",
          "name": "previousOwner",
          "type": "address"
        },
        {
          "indexed": true,
          "internalType": "address",
          "name": "newOwner",
          "type": "address"
        }
      ],
      "name": "OwnershipTransferred",
      "type": "event"
    },
    {
      "anonymous": false,
      "inputs": [
        {
          "indexed": true,
          "internalType": "address",
          "name": "user",
          "type": "address"
        },
        {
          "indexed": true,
          "internalType": "address",
          "name": "fromToken",
          "type": "address"
        },
        {
          "indexed": true,
          "internalType": "address",
          "name": "toToken",
          "type": "address"
        },
        {
          "indexed": false,
          "internalType": "uint256",
          "name": "fromAmount",
          "type": "uint256"
        },
        {
          "indexed": false,
          "internalType": "uint256",
          "name": "toAmount",
          "type": "uint256"
        }
      ],
      "name": "Swapped",
      "type": "event"
    },
    {
      "anonymous": false,
      "inputs": [
        {
          "indexed": true,
          "internalType": "address",
          "name": "user",
          "type": "address"
        },
        {
          "indexed": true,
          "internalType": "address",
          "name": "token",
          "type": "address"
        },
        {
          "indexed": false,
          "internalType": "uint256",
          "name": "amount",
          "type": "uint256"
        }
      ],
      "name": "TokensDeposited",
      "type": "event"
    },
    {
      "anonymous": false,
      "inputs": [
        {
          "indexed": true,
          "internalType": "address",
          "name": "token",
          "type": "address"
        },
        {
          "indexed": true,
          "internalType": "address",
          "name": "to",
          "type": "address"
        },
        {
          "indexed": false,
          "internalType": "uint256",
          "name": "amount",
          "type": "uint256"
        }
      ],
      "name": "TokensRescued",
      "type": "event"
    },
    {
      "anonymous": false,
      "inputs": [
        {
          "indexed": true,
          "internalType": "address",
          "name": "user",
          "type": "address"
        },
        {
          "indexed": true,
          "internalType": "address",
          "name": "token",
          "type": "address"
        },
        {
          "indexed": false,
          "internalType": "uint256",
          "name": "amount",
          "type": "uint256"
        }
      ],
      "name": "TokensWithdrawn",
      "type": "event"
    },
    {
      "inputs": [],
      "name": "NATIVE_PSEUDO_ADDRESS",
      "outputs": [
        {
          "internalType": "address",
          "name": "",
          "type": "address"
        }
      ],
      "stateMutability": "view",
      "type": "function"
    },
    {
      "inputs": [],
      "name": "ONE_INCH_ROUTER",
      "outputs": [
        {
          "internalType": "address",
          "name": "",
          "type": "address"
        }
      ],
      "stateMutability": "view",
      "type": "function"
    },
    {
      "inputs": [],
      "name": "WRAPPED_NATIVE",
      "outputs": [
        {
          "internalType": "address",
          "name": "",
          "type": "address"
        }
      ],
      "stateMutability": "view",
      "type": "function"
    },
    {
      "inputs": [
        {
          "internalType": "address[]",
          "name": "fleetCommanders",
          "type": "address[]"
        },
        {
          "internalType": "address",
          "name": "rewardToken",
          "type": "address"
        }
      ],
      "name": "claimFleetRewards",
      "outputs": [],
      "stateMutability": "nonpayable",
      "type": "function"
    },
    {
      "inputs": [
        {
          "internalType": "address",
          "name": "govRewardsManager",
          "type": "address"
        },
        {
          "internalType": "address",
          "name": "rewardToken",
          "type": "address"
        }
      ],
      "name": "claimGovernanceRewards",
      "outputs": [],
      "stateMutability": "nonpayable",
      "type": "function"
    },
    {
      "inputs": [
        {
          "internalType": "address",
          "name": "user",
          "type": "address"
        },
        {
          "internalType": "uint256[]",
          "name": "indices",
          "type": "uint256[]"
        },
        {
          "internalType": "uint256[]",
          "name": "amounts",
          "type": "uint256[]"
        },
        {
          "internalType": "bytes32[][]",
          "name": "proofs",
          "type": "bytes32[][]"
        },
        {
          "internalType": "address",
          "name": "rewardsRedeemer",
          "type": "address"
        }
      ],
      "name": "claimMerkleRewards",
      "outputs": [],
      "stateMutability": "nonpayable",
      "type": "function"
    },
    {
      "inputs": [],
      "name": "configurationManager",
      "outputs": [
        {
          "internalType": "contract IConfigurationManager",
          "name": "",
          "type": "address"
        }
      ],
      "stateMutability": "view",
      "type": "function"
    },
    {
      "inputs": [
        {
          "internalType": "contract IERC20",
          "name": "asset",
          "type": "address"
        },
        {
          "internalType": "uint256",
          "name": "amount",
          "type": "uint256"
        }
      ],
      "name": "depositTokens",
      "outputs": [],
      "stateMutability": "payable",
      "type": "function"
    },
    {
      "inputs": [
        {
          "internalType": "address",
          "name": "fleetCommander",
          "type": "address"
        },
        {
          "internalType": "uint256",
          "name": "assets",
          "type": "uint256"
        },
        {
          "internalType": "address",
          "name": "receiver",
          "type": "address"
        }
      ],
      "name": "enterFleet",
      "outputs": [
        {
          "internalType": "uint256",
          "name": "shares",
          "type": "uint256"
        }
      ],
      "stateMutability": "payable",
      "type": "function"
    },
    {
      "inputs": [
        {
          "internalType": "address",
          "name": "fleetCommander",
          "type": "address"
        },
        {
          "internalType": "uint256",
          "name": "assets",
          "type": "uint256"
        }
      ],
      "name": "exitFleet",
      "outputs": [
        {
          "internalType": "uint256",
          "name": "shares",
          "type": "uint256"
        }
      ],
      "stateMutability": "payable",
      "type": "function"
    },
    {
      "inputs": [],
      "name": "fleetCommanderRewardsManagerFactory",
      "outputs": [
        {
          "internalType": "address",
          "name": "",
          "type": "address"
        }
      ],
      "stateMutability": "view",
      "type": "function"
    },
    {
      "inputs": [],
      "name": "harborCommand",
      "outputs": [
        {
          "internalType": "address",
          "name": "",
          "type": "address"
        }
      ],
      "stateMutability": "view",
      "type": "function"
    },
    {
      "inputs": [
        {
          "internalType": "address",
          "name": "aToken",
          "type": "address"
        },
        {
          "internalType": "uint256",
          "name": "assets",
          "type": "uint256"
        }
      ],
      "name": "moveFromAaveToAdmiralsQuarters",
      "outputs": [],
      "stateMutability": "nonpayable",
      "type": "function"
    },
    {
      "inputs": [
        {
          "internalType": "address",
          "name": "cToken",
          "type": "address"
        },
        {
          "internalType": "uint256",
          "name": "assets",
          "type": "uint256"
        }
      ],
      "name": "moveFromCompoundToAdmiralsQuarters",
      "outputs": [],
      "stateMutability": "nonpayable",
      "type": "function"
    },
    {
      "inputs": [
        {
          "internalType": "address",
          "name": "vault",
          "type": "address"
        },
        {
          "internalType": "uint256",
          "name": "shares",
          "type": "uint256"
        }
      ],
      "name": "moveFromERC4626ToAdmiralsQuarters",
      "outputs": [],
      "stateMutability": "nonpayable",
      "type": "function"
    },
    {
      "inputs": [
        {
          "internalType": "bytes[]",
          "name": "data",
          "type": "bytes[]"
        }
      ],
      "name": "multicall",
      "outputs": [
        {
          "internalType": "bytes[]",
          "name": "results",
          "type": "bytes[]"
        }
      ],
      "stateMutability": "payable",
      "type": "function"
    },
    {
      "inputs": [],
      "name": "owner",
      "outputs": [
        {
          "internalType": "address",
          "name": "",
          "type": "address"
        }
      ],
      "stateMutability": "view",
      "type": "function"
    },
    {
      "inputs": [],
      "name": "raft",
      "outputs": [
        {
          "internalType": "address",
          "name": "",
          "type": "address"
        }
      ],
      "stateMutability": "view",
      "type": "function"
    },
    {
      "inputs": [],
      "name": "renounceOwnership",
      "outputs": [],
      "stateMutability": "nonpayable",
      "type": "function"
    },
    {
      "inputs": [
        {
          "internalType": "contract IERC20",
          "name": "token",
          "type": "address"
        },
        {
          "internalType": "address",
          "name": "to",
          "type": "address"
        },
        {
          "internalType": "uint256",
          "name": "amount",
          "type": "uint256"
        }
      ],
      "name": "rescueTokens",
      "outputs": [],
      "stateMutability": "nonpayable",
      "type": "function"
    },
    {
      "inputs": [
        {
          "internalType": "address",
          "name": "fleetCommander",
          "type": "address"
        },
        {
          "internalType": "uint256",
          "name": "shares",
          "type": "uint256"
        }
      ],
      "name": "stake",
      "outputs": [],
      "stateMutability": "payable",
      "type": "function"
    },
    {
      "inputs": [
        {
          "internalType": "contract IERC20",
          "name": "fromToken",
          "type": "address"
        },
        {
          "internalType": "contract IERC20",
          "name": "toToken",
          "type": "address"
        },
        {
          "internalType": "uint256",
          "name": "assets",
          "type": "uint256"
        },
        {
          "internalType": "uint256",
          "name": "minTokensReceived",
          "type": "uint256"
        },
        {
          "internalType": "bytes",
          "name": "swapCalldata",
          "type": "bytes"
        }
      ],
      "name": "swap",
      "outputs": [
        {
          "internalType": "uint256",
          "name": "swappedAmount",
          "type": "uint256"
        }
      ],
      "stateMutability": "payable",
      "type": "function"
    },
    {
      "inputs": [],
      "name": "tipJar",
      "outputs": [
        {
          "internalType": "address",
          "name": "",
          "type": "address"
        }
      ],
      "stateMutability": "view",
      "type": "function"
    },
    {
      "inputs": [
        {
          "internalType": "address",
          "name": "newOwner",
          "type": "address"
        }
      ],
      "name": "transferOwnership",
      "outputs": [],
      "stateMutability": "nonpayable",
      "type": "function"
    },
    {
      "inputs": [],
      "name": "treasury",
      "outputs": [
        {
          "internalType": "address",
          "name": "",
          "type": "address"
        }
      ],
      "stateMutability": "view",
      "type": "function"
    },
    {
      "inputs": [
        {
          "internalType": "address",
          "name": "fleetCommander",
          "type": "address"
        },
        {
          "internalType": "uint256",
          "name": "shares",
          "type": "uint256"
        },
        {
          "internalType": "bool",
          "name": "claimRewards",
          "type": "bool"
        }
      ],
      "name": "unstakeAndWithdrawAssets",
      "outputs": [],
      "stateMutability": "nonpayable",
      "type": "function"
    },
    {
      "inputs": [
        {
          "internalType": "contract IERC20",
          "name": "asset",
          "type": "address"
        },
        {
          "internalType": "uint256",
          "name": "amount",
          "type": "uint256"
        }
      ],
      "name": "withdrawTokens",
      "outputs": [],
      "stateMutability": "payable",
      "type": "function"
    },
    {
      "stateMutability": "payable",
      "type": "receive"
    }
  ],
  "bytecode": "0x610100346101ba57601f6127f738819003918201601f19168301916001600160401b038311848410176101be578084926060946040528339810103126101ba57610048816101d2565b6100606040610059602085016101d2565b93016101d2565b9033156101a7575f8054336001600160a01b0319821681178355604051959290916001600160a01b0316907f8be0079c531659141344cd1fd0a4f28419497f9722a3daafe3b4186f6b6457e09080a36001600160a01b031680156101985760805273eeeeeeeeeeeeeeeeeeeeeeeeeeeeeeeeeeeeeeee60c0526001600160a01b038116156101895760a0526001600160a01b0381161561017a5760e05261261090816101e782396080518181816101bc015281816106b2015281816110c30152818161147201528181611b62015261212c015260a0518181816102ed01526117e4015260c0518181816101630152818161132c0152611dce015260e0518181816103320152818161135e01528181611dff0152611ef60152f35b63ecb7bc6f60e01b5f5260045ffd5b6314203b4b60e01b5f5260045ffd5b63f1634df960e01b5f5260045ffd5b631e4fbdf760e01b5f525f60045260245ffd5b5f80fd5b634e487b7160e01b5f52604160045260245ffd5b51906001600160a01b03821682036101ba5756fe6080604052600436101561001a575b3615610018575f80fd5b005b5f5f3560e01c806306b091f914611d705780630dedddbf14611bad578063117d8ae014611b3c5780631dddf9fa1461197e5780632506c018146116f0578063557c1c65146114ea5780635b0f83f3146114bd57806361d027b31461144b57806366168bd7146112d0578063715018a61461127657806376b119b91461110e5780637aaceb951461109c57806388bcf98314610e525780638da5cb5b14610e2b57806396bca53714610d435780639cf61a5214610ae5578063ac9650d8146108df578063adc9772e146106e1578063c9c667e31461069c578063cea9d26f14610628578063cf87c38f146104ac578063d7f8e9a514610361578063d999984d1461031c578063dd3fd925146102d7578063f2fde38b14610251578063f7e533ec146101955763fa1b884c1461014e575061000e565b346101925780600319360112610192576040517f00000000000000000000000000000000000000000000000000000000000000006001600160a01b03168152602090f35b80fd5b5034610192578060031936011261019257604051633df94cfb60e21b8152906020826004817f00000000000000000000000000000000000000000000000000000000000000006001600160a01b03165afa908115610245578091610208575b6040516001600160a01b0383168152602090f35b90506020823d60201161023d575b816102236020938361205f565b810103126101925750610237602091612094565b5f6101f4565b3d9150610216565b604051903d90823e3d90fd5b50346101925760203660031901126101925761026b612003565b6102736123a8565b6001600160a01b031680156102c35781546001600160a01b03198116821783556001600160a01b03167f8be0079c531659141344cd1fd0a4f28419497f9722a3daafe3b4186f6b6457e08380a380f35b631e4fbdf760e01b82526004829052602482fd5b50346101925780600319360112610192576040517f00000000000000000000000000000000000000000000000000000000000000006001600160a01b03168152602090f35b50346101925780600319360112610192576040517f00000000000000000000000000000000000000000000000000000000000000006001600160a01b03168152602090f35b50604036600319011261019257610376612003565b6024359190336001600160a01b035f51602061259b5f395f51905f525c160361049d576103a16121d9565b4761048e576103af81612269565b6001600160a01b0316918061048857505f19905b604051632d182be560e21b815292602084806103e4333088600485016121b9565b038185855af192831561047d578293610444575b6020945060405190815283858201527f3018bc84615a588f3485d554ded6943344a7f25f8b758b14b6e9677378c1c68b60403392a35f5160206125bb5f395f51905f525d604051908152f35b92506020843d602011610475575b8161045f6020938361205f565b810103126104715760209351926103f8565b5f80fd5b3d9150610452565b6040513d84823e3d90fd5b906103c3565b63544b91f560e11b8252600482fd5b633128ce5560e01b8252600482fd5b5034610192576040366003190112610192576104c6612003565b60243590336001600160a01b035f51602061259b5f395f51905f525c1603610619576104f06121d9565b6001600160a01b0316908061061457506040516370a0823160e01b8152336004820152602081602481855afa9081156106095783916105d7575b505b604051635d043b2960e11b81526020818061054c333087600485016121b9565b038187875af180156105cc5761059d575b506040519081527f915b71c589595289d233b271db8454f447949848ecdd456a109e3f2559c0d50960203392a3805f5160206125bb5f395f51905f525d80f35b6020813d6020116105c4575b816105b66020938361205f565b81010312610471575161055d565b3d91506105a9565b6040513d86823e3d90fd5b90506020813d602011610601575b816105f26020938361205f565b8101031261047157515f61052a565b3d91506105e5565b6040513d85823e3d90fd5b61052c565b633128ce5560e01b8352600483fd5b503461019257606036600319011261019257610642612003565b61064a612019565b7f77023e19c7343ad491fd706c36335ca0e738340a91f29b1fd81e2673d44896c46020604435926106796123a8565b61068484828761222d565b6040519384526001600160a01b03908116941692a380f35b50346101925780600319360112610192576040517f00000000000000000000000000000000000000000000000000000000000000006001600160a01b03168152602090f35b506040366003190112610192576106f6612003565b60243590336001600160a01b035f51602061259b5f395f51905f525c1603610619576107206121d9565b476108d05761072e81612269565b6040516330fe427560e21b81526001600160a01b0391909116919060a081600481865afa9081156105cc5784916108a1575b50608001516040516370a0823160e01b8152306004820152916001600160a01b0390911690602083602481875afa928315610896578593610862575b508061085c5750815b821161084d57806107b8838693866123e8565b803b156108495781604051809263cecc238f60e01b82528183816107e089336004840161219e565b03925af1801561047d57610830575b50506040519081527f229b6242f243935a5ba03689948a442635f9fd7ed35555146349f51316c1f28e60203392a3805f5160206125bb5f395f51905f525d80f35b8161083a9161205f565b61084557825f6107ef565b8280fd5b5080fd5b6342301c2360e01b8452600484fd5b916107a5565b9092506020813d60201161088e575b8161087e6020938361205f565b810103126104715751915f61079c565b3d9150610871565b6040513d87823e3d90fd5b6108c3915060a03d60a0116108c9575b6108bb818361205f565b8101906120a8565b5f610760565b503d6108b1565b63544b91f560e11b8352600483fd5b506020366003190112610192576004356001600160401b0381116108495761090b90369060040161202f565b5f51602061259b5f395f51905f525c6001600160a01b0316610ad65790335f51602061259b5f395f51905f525d6020604051610947828261205f565b84815281810191601f19810136843761095f856124a5565b9361096d604051958661205f565b858552601f1961097c876124a5565b01875b818110610ac757505036819003601e190190875b87811015610a3f578060051b82013583811215610a3b578201908135916001600160401b038311610a375785018a83360382136101925780610a1b9289610a076001978b8e6040519483869484860198893784019083820190898252519283915e010185815203601f19810183528261205f565b5190305af4610a14612302565b903061253c565b610a25828a6124bc565b52610a3081896124bc565b5001610993565b8a80fd5b8980fd5b888488825f51602061259b5f395f51905f525d60405191808301818452825180915260408401918060408360051b870101940192865b838810610a825786860387f35b9091929394838080600193603f198b8203018752818a518051918291828552018484015e86838284010152601f80199101160101970193019701969093929193610a75565b6060878201850152830161097f565b6339082a3960e11b8352600483fd5b50606036600319011261019257610afa612003565b6044356001600160a01b038116926024359290919084820361084557336001600160a01b035f51602061259b5f395f51905f525c160361061957610b3c6121d9565b476108d057610b4a81612269565b6040516338d52e0f60e01b81526001600160a01b03919091169190602081600481865afa9081156105cc578491610d05575b506040516370a0823160e01b8152306004820152946001600160a01b03919091169190602086602481865afa958615610896578596610cd1575b5080610ccb575084955b610cc5575033935b8511610cb6578482610bd9926123e8565b604051636e553f6560e01b8152600481018590526001600160a01b039093166024840181905260208460448186865af1938415610609578394610c60575b507fd584e570678d099262db4ba972df2e63e3618dadc6179677a6a2b18360c4a657604060209681519081528688820152a35f5160206125bb5f395f51905f525d604051908152f35b9493506020853d602011610cae575b81610c7c6020938361205f565b8101031261047157935192937fd584e570678d099262db4ba972df2e63e3618dadc6179677a6a2b18360c4a657610c17565b3d9150610c6f565b6342301c2360e01b8352600483fd5b93610bc8565b95610bc0565b9095506020813d602011610cfd575b81610ced6020938361205f565b810103126104715751945f610bb6565b3d9150610ce0565b90506020813d602011610d3b575b81610d206020938361205f565b81010312610d3757610d3190612094565b5f610b7c565b8380fd5b3d9150610d13565b503461019257604036600319011261019257610d5d612003565b90610d66612019565b91336001600160a01b035f51602061259b5f395f51905f525c160361049d57610d8d6121d9565b6001600160a01b0316918215610e1c579091829190610db46001600160a01b03831661220e565b803b15610e1857604051635eeb2e0f60e01b81529183918391829084908290610de19033600484016123ce565b03925af1801561047d57610e03575b505f5160206125bb5f395f51905f525d80f35b81610e0d9161205f565b61019257805f610df0565b5050fd5b63913a247f60e01b8252600482fd5b5034610192578060031936011261019257546040516001600160a01b039091168152602090f35b503461019257604036600319011261019257610e6c612003565b60243590336001600160a01b035f51602061259b5f395f51905f525c160361061957610e966121d9565b604051633a9ae92360e11b81526001600160a01b039190911691908390602081600481875afa90811561047d578291611062575b506040516358b50cef60e11b815292602084600481885afa938415610609578394611026575b508061101a57506040516370a0823160e01b8152336004820152602081602481885afa908115610609578391610fe2575b50906064602092945b610f368630338a612364565b604051631a4ca37b60e21b81526001600160a01b039182166004820152602481018790523060448201529485938492165af180156105cc57610fb3575b506040519081527fd269ddb991eeb6ceaf84849c22783248bd97ffea53842ccfc04dc943729b19e360203392a3805f5160206125bb5f395f51905f525d80f35b6020813d602011610fda575b81610fcc6020938361205f565b810103126104715751610f73565b3d9150610fbf565b919250506020813d602011611012575b81610fff6020938361205f565b8101031261047157518491906064610f21565b3d9150610ff2565b90606460209294610f2a565b9093506020813d60201161105a575b816110426020938361205f565b810103126108455761105390612094565b925f610ef0565b3d9150611035565b90506020813d602011611094575b8161107d6020938361205f565b810103126108495761108e90612094565b5f610eca565b3d9150611070565b5034610192578060031936011261019257604051637aaceb9560e01b8152906020826004817f00000000000000000000000000000000000000000000000000000000000000006001600160a01b03165afa908115610245578091610208576040516001600160a01b0383168152602090f35b5034610192576040366003190112610192576004356001600160401b0381116108495761113f90369060040161202f565b90611148612019565b90336001600160a01b035f51602061259b5f395f51905f525c1603611267579083916111726121d9565b825b8481101561125357600581901b8201356001600160a01b0381169081810361124f576004916111a460a092612269565b6040516330fe427560e21b815292839182905afa908115610896578591611231575b50608001516001600160a01b0316803b1561122d57846040518092635eeb2e0f60e01b82528183816111fc8a33600484016123ce565b03925af1908115610896578591611218575b5050600101611174565b816112229161205f565b610d3757835f61120e565b8480fd5b611249915060a03d81116108c9576108bb818361205f565b5f6111c6565b8580fd5b83805f5160206125bb5f395f51905f525d80f35b633128ce5560e01b8452600484fd5b503461019257806003193601126101925761128f6123a8565b80546001600160a01b03198116825581906001600160a01b03167f8be0079c531659141344cd1fd0a4f28419497f9722a3daafe3b4186f6b6457e08280a380f35b506040366003190112610192576112e5612003565b602435336001600160a01b035f51602061259b5f395f51905f525c16036106195761130e6121d9565b6113178261220e565b801561143c576001600160a01b0382811692907f000000000000000000000000000000000000000000000000000000000000000016830361141557504781036114065782477f00000000000000000000000000000000000000000000000000000000000000006001600160a01b0316803b15610845578290600460405180948193630d0e30db60e41b83525af1801561047d576113f1575b50505b6040519081527fcbc4a4091b012bb1329c38bbbb15455f5cac5aa3673da0a7f38cd61a4f49551760203392a3805f5160206125bb5f395f51905f525d80f35b816113fb9161205f565b61084557825f6113af565b63113a2f4b60e21b8352600483fd5b4761142d57816114289130903390612364565b6113b2565b63113a2f4b60e21b8452600484fd5b631f2a200560e01b8352600483fd5b50346101925780600319360112610192576040516361d027b360e01b8152906020826004817f00000000000000000000000000000000000000000000000000000000000000006001600160a01b03165afa908115610245578091610208576040516001600160a01b0383168152602090f35b503461019257806003193601126101925760206114d8612117565b6040516001600160a01b039091168152f35b50346101925760a036600319011261019257611504612003565b906024356001600160401b0381116108495761152490369060040161202f565b92906044356001600160401b038111610d375761154590369060040161202f565b906064356001600160401b03811161124f5761156590369060040161202f565b9290936084359760018060a01b0389168099036116ce57336001600160a01b035f51602061259b5f395f51905f525c16036116e1576115a26121d9565b88156116d257883b156116ce57604051630fafc94b60e41b81526001600160a01b039097166004880152608060248801529394936115fc9392916115ea916084890191612340565b86810360031901604488015291612340565b91600319848403016064850152808352602083019060208160051b85010193838791601e1982360301905b84841061166f575088808981818e8183818f03925af1801561047d5761165a57505f5160206125bb5f395f51905f525d80f35b816116649161205f565b610192578082610df0565b90919293949596601f19828203018752873583811215610a375784016020813591016001600160401b0382116116ca578160051b360381136116ca576116bb6001936020938493612340565b99019701959401929190611627565b8b80fd5b8780fd5b630690aab160e11b8852600488fd5b633128ce5560e01b8852600488fd5b5060a036600319011261019257611705612003565b61170d612019565b9160443592608435906001600160401b0382116108455736602383011215610845578160040135936001600160401b038511610d37573660248685010111610d3757336001600160a01b035f51602061259b5f395f51905f525c1603611267576117756121d9565b4761196f576117838161220e565b61178c8261220e565b8515611960576001600160a01b039182169291811691838314611951576040516370a0823160e01b815230600482015295602087602481885afa96871561194657869761190b575b5091602486809493819461180a8c7f000000000000000000000000000000000000000000000000000000000000000080976123e8565b80604051948593018337810182815203925af1611825612302565b50156118fc576040516370a0823160e01b815230600482015293602085602481865afa9485156105cc5784956118c8575b5084039384116118b4576064358410610cb65760209460405190815284868201527f6782190c91d4a7e8ad2a867deed6ec0a970cab8ff137ae2bd4abd92b3810f4d360403392a45f5160206125bb5f395f51905f525d604051908152f35b634e487b7160e01b83526011600452602483fd5b9094506020813d6020116118f4575b816118e46020938361205f565b810103126104715751935f611856565b3d91506118d7565b63081ceff360e41b8352600483fd5b91929096506020823d60201161193e575b816119296020938361205f565b810103126104715790519590919060246117d4565b3d915061191c565b6040513d88823e3d90fd5b6341e0808560e11b8552600485fd5b631f2a200560e01b8452600484fd5b63544b91f560e11b8452600484fd5b503461019257606036600319011261019257611998612003565b6024359060443590811515809203610d3757336001600160a01b035f51602061259b5f395f51905f525c16036112675783906119d26121d9565b6119db81612269565b6040516330fe427560e21b81526001600160a01b0391909116939060a081600481885afa908115610609578391611b1d575b50608001516001600160a01b03169080611b1757506040516370a0823160e01b8152336004820152602081602481855afa908115610609578391611ae2575b50925b813b1561084557829160648392604051948593849263191d952d60e21b845233600485015289602485015260448401525af1801561047d57611acd575b50506040519081527f700c68e6e49e104bb8288f3d6ffb4723d8c8fa31695662535a9c6980d44eee2060203392a3805f5160206125bb5f395f51905f525d80f35b81611ad79161205f565b61084557825f611a8c565b9250506020823d602011611b0f575b81611afe6020938361205f565b81010312610471578491515f611a4c565b3d9150611af1565b92611a4f565b611b36915060a03d60a0116108c9576108bb818361205f565b5f611a0d565b5034610192578060031936011261019257604051628bec5760e51b8152906020826004817f00000000000000000000000000000000000000000000000000000000000000006001600160a01b03165afa908115610245578091610208576040516001600160a01b0383168152602090f35b503461019257604036600319011261019257611bc7612003565b60243590336001600160a01b035f51602061259b5f395f51905f525c160361061957611bf16121d9565b60405163c55dae6360e01b81526001600160a01b0391909116918390602083600481875afa92831561047d578293611d34575b5080611d2e57506040516370a0823160e01b8152336004820152602081602481875afa90811561047d578291611cf9575b50915b833b15610849576040516304c8826360e31b81523360048201523060248201526001600160a01b03909116604482015260648101839052818160848183885af1801561047d57611ce4575b50506040519081527f2bb776770e69df4d29d3c5d4c6c05ec4c32f7be119d35604fbba0e8f86d152f960203392a3805f5160206125bb5f395f51905f525d80f35b81611cee9161205f565b61084557825f611ca3565b9150506020813d602011611d26575b81611d156020938361205f565b81010312610471578390515f611c55565b3d9150611d08565b91611c58565b9092506020813d602011611d68575b81611d506020938361205f565b8101031261084957611d6190612094565b915f611c24565b3d9150611d43565b50604036600319011261047157611d85612003565b60243590336001600160a01b035f51602061259b5f395f51905f525c1603611ff457611daf6121d9565b47611fe5578190611dbf8161220e565b6001600160a01b0381811693907f0000000000000000000000000000000000000000000000000000000000000000168403611f665750508015611eda575b7f00000000000000000000000000000000000000000000000000000000000000006001600160a01b0316803b15610471575f8091602460405180948193632e1a7d4d60e01b83528760048401525af18015611ecf57611eba575b508280828015611eb0575b8280929181923390f11561047d575b6040519081527f6337ed398c0e8467698c581374fdce4db14922df487b5a39483079f5f59b60a460203392a3805f5160206125bb5f395f51905f525d80f35b6108fc9150611e62565b611ec79193505f9061205f565b5f915f611e57565b6040513d5f823e3d90fd5b506040516370a0823160e01b81523060048201526020816024817f00000000000000000000000000000000000000000000000000000000000000006001600160a01b03165afa908115611ecf575f91611f34575b50611dfd565b90506020813d602011611f5e575b81611f4f6020938361205f565b8101031261047157515f611f2e565b3d9150611f42565b15611f7d575b81611f7891339061222d565b611e71565b6040516370a0823160e01b8152306004820152909150602081602481865afa8015611ecf575f90611fb1575b919050611f6c565b506020813d602011611fdd575b81611fcb6020938361205f565b8101031261047157611f789051611fa9565b3d9150611fbe565b63544b91f560e11b5f5260045ffd5b633128ce5560e01b5f5260045ffd5b600435906001600160a01b038216820361047157565b602435906001600160a01b038216820361047157565b9181601f84011215610471578235916001600160401b038311610471576020808501948460051b01011161047157565b90601f801991011681019081106001600160401b0382111761208057604052565b634e487b7160e01b5f52604160045260245ffd5b51906001600160a01b038216820361047157565b908160a0910312610471576040519060a082018281106001600160401b038211176120805760405280516001600160a01b03811681036104715761210f91608091845260208101516020850152604081015160408501526060810151606085015201612094565b608082015290565b604051635b0f83f360e01b81526020816004817f00000000000000000000000000000000000000000000000000000000000000006001600160a01b03165afa908115611ecf575f91612167575090565b90506020813d602011612196575b816121826020938361205f565b810103126104715761219390612094565b90565b3d9150612175565b6001600160a01b039091168152602081019190915260400190565b9081526001600160a01b0391821660208201529116604082015260600190565b5f5160206125bb5f395f51905f525c6121ff5760015f5160206125bb5f395f51905f525d565b633ee5aeb560e01b5f5260045ffd5b6001600160a01b03161561221e57565b63c1ab6dc160e01b5f5260045ffd5b612262612267939261225460405194859263a9059cbb60e01b60208501526024840161219e565b03601f19810184528361205f565b6124e4565b565b60206001600160a01b0361227b612117565b6040516374e806ab60e11b81526001600160a01b03909416600485015283916024918391165afa908115611ecf575f916122c7575b50156122b857565b6317b9ea1760e11b5f5260045ffd5b90506020813d6020116122fa575b816122e26020938361205f565b8101031261047157518015158103610471575f6122b0565b3d91506122d5565b3d1561233b573d906001600160401b0382116120805760405191612330601f8201601f19166020018461205f565b82523d5f602084013e565b606090565b81835290916001600160fb1b0383116104715760209260051b809284830137010190565b6040516323b872dd60e01b60208201526001600160a01b0392831660248201529290911660448301526064808301939093529181526122679161226260848361205f565b5f546001600160a01b031633036123bb57565b63118cdaa760e01b5f523360045260245ffd5b6001600160a01b0391821681529116602082015260400190565b91909160205f6040519361241f856124118582019363095ea7b360e01b8552896024840161219e565b03601f19810187528661205f565b84519082855af15f513d82612480575b50501561243b57505050565b60405163095ea7b360e01b60208201526001600160a01b0390931660248401525f6044808501919091528352612267926122629061247a60648261205f565b826124e4565b90915061249d57506001600160a01b0381163b15155b5f8061242f565b600114612496565b6001600160401b0381116120805760051b60200190565b80518210156124d05760209160051b010190565b634e487b7160e01b5f52603260045260245ffd5b905f602091828151910182855af115611ecf575f513d61253357506001600160a01b0381163b155b6125135750565b635274afe760e01b5f9081526001600160a01b0391909116600452602490fd5b6001141561250c565b90612560575080511561255157805190602001fd5b63d6bda27560e01b5f5260045ffd5b81511580612591575b612571575090565b639996b31560e01b5f9081526001600160a01b0391909116600452602490fd5b50803b1561256956fe4047f0417aa4905ca06b566a01340d0e510e7af6b560e81d10e0ea24404f597b9b779b17422d0df92223018b32b4d1fa46e071723d6817e2486d003becc55f00a2646970667358221220cabe67bc861881a629fc067c8f037bb370112ece6e24363b81b16cc7655c207064736f6c634300081c0033",
  "linkReferences": {},
  "deployedLinkReferences": {}
}