{
  "_format": "hh-sol-artifact-1",
  "contractName": "FleetCommander",
  "sourceName": "src/contracts/FleetCommander.sol",
  "abi": [
    {
      "inputs": [
        {
          "components": [
            {
              "internalType": "string",
              "name": "name",
              "type": "string"
            },
            {
              "internalType": "string",
              "name": "details",
              "type": "string"
            },
            {
              "internalType": "string",
              "name": "symbol",
              "type": "string"
            },
            {
              "internalType": "address",
              "name": "configurationManager",
              "type": "address"
            },
            {
              "internalType": "address",
              "name": "accessManager",
              "type": "address"
            },
            {
              "internalType": "address",
              "name": "asset",
              "type": "address"
            },
            {
              "internalType": "uint256",
              "name": "initialMinimumBufferBalance",
              "type": "uint256"
            },
            {
              "internalType": "uint256",
              "name": "initialRebalanceCooldown",
              "type": "uint256"
            },
            {
              "internalType": "uint256",
              "name": "depositCap",
              "type": "uint256"
            },
            {
              "internalType": "Percentage",
              "name": "initialTipRate",
              "type": "uint256"
            }
          ],
          "internalType": "struct FleetCommanderParams",
          "name": "params",
          "type": "tuple"
        }
      ],
      "stateMutability": "nonpayable",
      "type": "constructor"
    },
    {
      "inputs": [
        {
          "internalType": "address",
          "name": "caller",
          "type": "address"
        }
      ],
      "name": "CallerIsNotAdmin",
      "type": "error"
    },
    {
      "inputs": [
        {
          "internalType": "address",
          "name": "caller",
          "type": "address"
        }
      ],
      "name": "CallerIsNotAuthorizedToBoard",
      "type": "error"
    },
    {
      "inputs": [
        {
          "internalType": "address",
          "name": "caller",
          "type": "address"
        }
      ],
      "name": "CallerIsNotCommander",
      "type": "error"
    },
    {
      "inputs": [
        {
          "internalType": "address",
          "name": "caller",
          "type": "address"
        },
        {
          "internalType": "bytes32",
          "name": "role",
          "type": "bytes32"
        }
      ],
      "name": "CallerIsNotContractSpecificRole",
      "type": "error"
    },
    {
      "inputs": [
        {
          "internalType": "address",
          "name": "caller",
          "type": "address"
        }
      ],
      "name": "CallerIsNotCurator",
      "type": "error"
    },
    {
      "inputs": [
        {
          "internalType": "address",
          "name": "caller",
          "type": "address"
        }
      ],
      "name": "CallerIsNotDecayController",
      "type": "error"
    },
    {
      "inputs": [
        {
          "internalType": "address",
          "name": "caller",
          "type": "address"
        }
      ],
      "name": "CallerIsNotFoundation",
      "type": "error"
    },
    {
      "inputs": [
        {
          "internalType": "address",
          "name": "caller",
          "type": "address"
        }
      ],
      "name": "CallerIsNotGovernor",
      "type": "error"
    },
    {
      "inputs": [
        {
          "internalType": "address",
          "name": "caller",
          "type": "address"
        }
      ],
      "name": "CallerIsNotGuardian",
      "type": "error"
    },
    {
      "inputs": [
        {
          "internalType": "address",
          "name": "caller",
          "type": "address"
        }
      ],
      "name": "CallerIsNotGuardianOrGovernor",
      "type": "error"
    },
    {
      "inputs": [
        {
          "internalType": "address",
          "name": "caller",
          "type": "address"
        }
      ],
      "name": "CallerIsNotKeeper",
      "type": "error"
    },
    {
      "inputs": [
        {
          "internalType": "address",
          "name": "caller",
          "type": "address"
        }
      ],
      "name": "CallerIsNotRaft",
      "type": "error"
    },
    {
      "inputs": [
        {
          "internalType": "address",
          "name": "caller",
          "type": "address"
        }
      ],
      "name": "CallerIsNotRaftOrCommander",
      "type": "error"
    },
    {
      "inputs": [
        {
          "internalType": "address",
          "name": "caller",
          "type": "address"
        }
      ],
      "name": "CallerIsNotSuperKeeper",
      "type": "error"
    },
    {
      "inputs": [],
      "name": "ConfigurationManagerZeroAddress",
      "type": "error"
    },
    {
      "inputs": [],
      "name": "CooldownEnforcerCooldownTooLong",
      "type": "error"
    },
    {
      "inputs": [],
      "name": "CooldownEnforcerCooldownTooShort",
      "type": "error"
    },
    {
      "inputs": [
        {
          "internalType": "uint256",
          "name": "lastActionTimestamp",
          "type": "uint256"
        },
        {
          "internalType": "uint256",
          "name": "cooldown",
          "type": "uint256"
        },
        {
          "internalType": "uint256",
          "name": "currentTimestamp",
          "type": "uint256"
        }
      ],
      "name": "CooldownNotElapsed",
      "type": "error"
    },
    {
      "inputs": [
        {
          "internalType": "address",
          "name": "caller",
          "type": "address"
        }
      ],
      "name": "DirectGrantIsDisabled",
      "type": "error"
    },
    {
      "inputs": [
        {
          "internalType": "address",
          "name": "caller",
          "type": "address"
        }
      ],
      "name": "DirectRevokeIsDisabled",
      "type": "error"
    },
    {
      "inputs": [
        {
          "internalType": "address",
          "name": "spender",
          "type": "address"
        },
        {
          "internalType": "uint256",
          "name": "allowance",
          "type": "uint256"
        },
        {
          "internalType": "uint256",
          "name": "needed",
          "type": "uint256"
        }
      ],
      "name": "ERC20InsufficientAllowance",
      "type": "error"
    },
    {
      "inputs": [
        {
          "internalType": "address",
          "name": "sender",
          "type": "address"
        },
        {
          "internalType": "uint256",
          "name": "balance",
          "type": "uint256"
        },
        {
          "internalType": "uint256",
          "name": "needed",
          "type": "uint256"
        }
      ],
      "name": "ERC20InsufficientBalance",
      "type": "error"
    },
    {
      "inputs": [
        {
          "internalType": "address",
          "name": "approver",
          "type": "address"
        }
      ],
      "name": "ERC20InvalidApprover",
      "type": "error"
    },
    {
      "inputs": [
        {
          "internalType": "address",
          "name": "receiver",
          "type": "address"
        }
      ],
      "name": "ERC20InvalidReceiver",
      "type": "error"
    },
    {
      "inputs": [
        {
          "internalType": "address",
          "name": "sender",
          "type": "address"
        }
      ],
      "name": "ERC20InvalidSender",
      "type": "error"
    },
    {
      "inputs": [
        {
          "internalType": "address",
          "name": "spender",
          "type": "address"
        }
      ],
      "name": "ERC20InvalidSpender",
      "type": "error"
    },
    {
      "inputs": [
        {
          "internalType": "address",
          "name": "receiver",
          "type": "address"
        },
        {
          "internalType": "uint256",
          "name": "assets",
          "type": "uint256"
        },
        {
          "internalType": "uint256",
          "name": "max",
          "type": "uint256"
        }
      ],
      "name": "ERC4626ExceededMaxDeposit",
      "type": "error"
    },
    {
      "inputs": [
        {
          "internalType": "address",
          "name": "receiver",
          "type": "address"
        },
        {
          "internalType": "uint256",
          "name": "shares",
          "type": "uint256"
        },
        {
          "internalType": "uint256",
          "name": "max",
          "type": "uint256"
        }
      ],
      "name": "ERC4626ExceededMaxMint",
      "type": "error"
    },
    {
      "inputs": [
        {
          "internalType": "address",
          "name": "owner",
          "type": "address"
        },
        {
          "internalType": "uint256",
          "name": "shares",
          "type": "uint256"
        },
        {
          "internalType": "uint256",
          "name": "max",
          "type": "uint256"
        }
      ],
      "name": "ERC4626ExceededMaxRedeem",
      "type": "error"
    },
    {
      "inputs": [
        {
          "internalType": "address",
          "name": "owner",
          "type": "address"
        },
        {
          "internalType": "uint256",
          "name": "assets",
          "type": "uint256"
        },
        {
          "internalType": "uint256",
          "name": "max",
          "type": "uint256"
        }
      ],
      "name": "ERC4626ExceededMaxWithdraw",
      "type": "error"
    },
    {
      "inputs": [],
      "name": "EnforcedPause",
      "type": "error"
    },
    {
      "inputs": [],
      "name": "ExpectedPause",
      "type": "error"
    },
    {
      "inputs": [
        {
          "internalType": "address",
          "name": "ark",
          "type": "address"
        }
      ],
      "name": "FleetCommanderArkAlreadyExists",
      "type": "error"
    },
    {
      "inputs": [
        {
          "internalType": "address",
          "name": "ark",
          "type": "address"
        }
      ],
      "name": "FleetCommanderArkAssetsNotZero",
      "type": "error"
    },
    {
      "inputs": [
        {
          "internalType": "address",
          "name": "ark",
          "type": "address"
        }
      ],
      "name": "FleetCommanderArkDepositCapGreaterThanZero",
      "type": "error"
    },
    {
      "inputs": [
        {
          "internalType": "address",
          "name": "ark",
          "type": "address"
        }
      ],
      "name": "FleetCommanderArkDepositCapZero",
      "type": "error"
    },
    {
      "inputs": [
        {
          "internalType": "address",
          "name": "ark",
          "type": "address"
        }
      ],
      "name": "FleetCommanderArkNotActive",
      "type": "error"
    },
    {
      "inputs": [
        {
          "internalType": "address",
          "name": "ark",
          "type": "address"
        }
      ],
      "name": "FleetCommanderArkNotFound",
      "type": "error"
    },
    {
      "inputs": [],
      "name": "FleetCommanderAssetMismatch",
      "type": "error"
    },
    {
      "inputs": [],
      "name": "FleetCommanderCantUseMaxUintMovingFromBuffer",
      "type": "error"
    },
    {
      "inputs": [],
      "name": "FleetCommanderCantUseRebalanceOnBufferArk",
      "type": "error"
    },
    {
      "inputs": [
        {
          "internalType": "address",
          "name": "ark",
          "type": "address"
        },
        {
          "internalType": "uint256",
          "name": "amount",
          "type": "uint256"
        },
        {
          "internalType": "uint256",
          "name": "effectiveDepositCap",
          "type": "uint256"
        }
      ],
      "name": "FleetCommanderEffectiveDepositCapExceeded",
      "type": "error"
    },
    {
      "inputs": [
        {
          "internalType": "address",
          "name": "fromArk",
          "type": "address"
        },
        {
          "internalType": "uint256",
          "name": "amount",
          "type": "uint256"
        },
        {
          "internalType": "uint256",
          "name": "maxRebalanceInflow",
          "type": "uint256"
        }
      ],
      "name": "FleetCommanderExceedsMaxInflow",
      "type": "error"
    },
    {
      "inputs": [
        {
          "internalType": "address",
          "name": "fromArk",
          "type": "address"
        },
        {
          "internalType": "uint256",
          "name": "amount",
          "type": "uint256"
        },
        {
          "internalType": "uint256",
          "name": "maxRebalanceOutflow",
          "type": "uint256"
        }
      ],
      "name": "FleetCommanderExceedsMaxOutflow",
      "type": "error"
    },
    {
      "inputs": [],
      "name": "FleetCommanderInsufficientBuffer",
      "type": "error"
    },
    {
      "inputs": [],
      "name": "FleetCommanderInvalidArkAddress",
      "type": "error"
    },
    {
      "inputs": [
        {
          "internalType": "address",
          "name": "ark",
          "type": "address"
        }
      ],
      "name": "FleetCommanderInvalidSourceArk",
      "type": "error"
    },
    {
      "inputs": [],
      "name": "FleetCommanderInvalidStakingRewardsManager",
      "type": "error"
    },
    {
      "inputs": [
        {
          "internalType": "uint256",
          "name": "newMaxRebalanceOperations",
          "type": "uint256"
        }
      ],
      "name": "FleetCommanderMaxRebalanceOperationsTooHigh",
      "type": "error"
    },
    {
      "inputs": [],
      "name": "FleetCommanderMovedMoreThanAvailable",
      "type": "error"
    },
    {
      "inputs": [],
      "name": "FleetCommanderNoExcessFunds",
      "type": "error"
    },
    {
      "inputs": [],
      "name": "FleetCommanderNoFundsMoved",
      "type": "error"
    },
    {
      "inputs": [],
      "name": "FleetCommanderPausableMinimumPauseTimeNotElapsed",
      "type": "error"
    },
    {
      "inputs": [],
      "name": "FleetCommanderPausableMinimumPauseTimeTooShort",
      "type": "error"
    },
    {
      "inputs": [
        {
          "internalType": "address",
          "name": "ark",
          "type": "address"
        }
      ],
      "name": "FleetCommanderRebalanceAmountZero",
      "type": "error"
    },
    {
      "inputs": [],
      "name": "FleetCommanderRebalanceNoOperations",
      "type": "error"
    },
    {
      "inputs": [
        {
          "internalType": "uint256",
          "name": "operationsCount",
          "type": "uint256"
        }
      ],
      "name": "FleetCommanderRebalanceTooManyOperations",
      "type": "error"
    },
    {
      "inputs": [],
      "name": "FleetCommanderStakingRewardsManagerNotSet",
      "type": "error"
    },
    {
      "inputs": [],
      "name": "FleetCommanderTransfersDisabled",
      "type": "error"
    },
    {
      "inputs": [
        {
          "internalType": "address",
          "name": "caller",
          "type": "address"
        },
        {
          "internalType": "address",
          "name": "owner",
          "type": "address"
        }
      ],
      "name": "FleetCommanderUnauthorizedRedemption",
      "type": "error"
    },
    {
      "inputs": [
        {
          "internalType": "address",
          "name": "caller",
          "type": "address"
        },
        {
          "internalType": "address",
          "name": "owner",
          "type": "address"
        }
      ],
      "name": "FleetCommanderUnauthorizedWithdrawal",
      "type": "error"
    },
    {
      "inputs": [],
      "name": "FleetCommanderZeroAmount",
      "type": "error"
    },
    {
      "inputs": [
        {
          "internalType": "address",
          "name": "invalidAddress",
          "type": "address"
        }
      ],
      "name": "InvalidAccessManagerAddress",
      "type": "error"
    },
    {
      "inputs": [],
      "name": "InvalidFleetCommanderAddress",
      "type": "error"
    },
    {
      "inputs": [],
      "name": "InvalidTipJarAddress",
      "type": "error"
    },
    {
      "inputs": [
        {
          "internalType": "address",
          "name": "token",
          "type": "address"
        }
      ],
      "name": "SafeERC20FailedOperation",
      "type": "error"
    },
    {
      "inputs": [],
      "name": "TipRateCannotExceedFivePercent",
      "type": "error"
    },
    {
      "inputs": [],
      "name": "WithdrawalAmountExceedsMaxBufferLimit",
      "type": "error"
    },
    {
      "anonymous": false,
      "inputs": [
        {
          "indexed": true,
          "internalType": "address",
          "name": "owner",
          "type": "address"
        },
        {
          "indexed": true,
          "internalType": "address",
          "name": "spender",
          "type": "address"
        },
        {
          "indexed": false,
          "internalType": "uint256",
          "name": "value",
          "type": "uint256"
        }
      ],
      "name": "Approval",
      "type": "event"
    },
    {
      "anonymous": false,
      "inputs": [
        {
          "indexed": true,
          "internalType": "address",
          "name": "ark",
          "type": "address"
        }
      ],
      "name": "ArkAdded",
      "type": "event"
    },
    {
      "anonymous": false,
      "inputs": [
        {
          "indexed": true,
          "internalType": "address",
          "name": "ark",
          "type": "address"
        }
      ],
      "name": "ArkRemoved",
      "type": "event"
    },
    {
      "anonymous": false,
      "inputs": [
        {
          "indexed": false,
          "internalType": "uint256",
          "name": "previousCooldown",
          "type": "uint256"
        },
        {
          "indexed": false,
          "internalType": "uint256",
          "name": "newCooldown",
          "type": "uint256"
        }
      ],
      "name": "CooldownUpdated",
      "type": "event"
    },
    {
      "anonymous": false,
      "inputs": [
        {
          "indexed": true,
          "internalType": "address",
          "name": "sender",
          "type": "address"
        },
        {
          "indexed": true,
          "internalType": "address",
          "name": "owner",
          "type": "address"
        },
        {
          "indexed": false,
          "internalType": "uint256",
          "name": "assets",
          "type": "uint256"
        },
        {
          "indexed": false,
          "internalType": "uint256",
          "name": "shares",
          "type": "uint256"
        }
      ],
      "name": "Deposit",
      "type": "event"
    },
    {
      "anonymous": false,
      "inputs": [
        {
          "indexed": false,
          "internalType": "address",
          "name": "newAddress",
          "type": "address"
        }
      ],
      "name": "FeeAddressUpdated",
      "type": "event"
    },
    {
      "anonymous": false,
      "inputs": [
        {
          "indexed": false,
          "internalType": "uint256",
          "name": "newCap",
          "type": "uint256"
        }
      ],
      "name": "FleetCommanderDepositCapUpdated",
      "type": "event"
    },
    {
      "anonymous": false,
      "inputs": [
        {
          "indexed": false,
          "internalType": "uint256",
          "name": "newMaxRebalanceOperations",
          "type": "uint256"
        }
      ],
      "name": "FleetCommanderMaxRebalanceOperationsUpdated",
      "type": "event"
    },
    {
      "anonymous": false,
      "inputs": [
        {
          "indexed": true,
          "internalType": "address",
          "name": "owner",
          "type": "address"
        },
        {
          "indexed": false,
          "internalType": "address",
          "name": "receiver",
          "type": "address"
        },
        {
          "indexed": false,
          "internalType": "uint256",
          "name": "totalRedeemed",
          "type": "uint256"
        }
      ],
      "name": "FleetCommanderRedeemedFromArks",
      "type": "event"
    },
    {
      "anonymous": false,
      "inputs": [
        {
          "indexed": true,
          "internalType": "address",
          "name": "referee",
          "type": "address"
        },
        {
          "indexed": true,
          "internalType": "bytes",
          "name": "referralCode",
          "type": "bytes"
        }
      ],
      "name": "FleetCommanderReferral",
      "type": "event"
    },
    {
      "anonymous": false,
      "inputs": [
        {
          "indexed": false,
          "internalType": "address",
          "name": "newStakingRewards",
          "type": "address"
        }
      ],
      "name": "FleetCommanderStakingRewardsUpdated",
      "type": "event"
    },
    {
      "anonymous": false,
      "inputs": [
        {
          "indexed": true,
          "internalType": "address",
          "name": "owner",
          "type": "address"
        },
        {
          "indexed": false,
          "internalType": "address",
          "name": "receiver",
          "type": "address"
        },
        {
          "indexed": false,
          "internalType": "uint256",
          "name": "totalWithdrawn",
          "type": "uint256"
        }
      ],
      "name": "FleetCommanderWithdrawnFromArks",
      "type": "event"
    },
    {
      "anonymous": false,
      "inputs": [
        {
          "indexed": false,
          "internalType": "uint256",
          "name": "newBalance",
          "type": "uint256"
        }
      ],
      "name": "FleetCommanderminimumBufferBalanceUpdated",
      "type": "event"
    },
    {
      "anonymous": false,
      "inputs": [
        {
          "indexed": true,
          "internalType": "address",
          "name": "user",
          "type": "address"
        },
        {
          "indexed": false,
          "internalType": "uint256",
          "name": "prevBalance",
          "type": "uint256"
        },
        {
          "indexed": false,
          "internalType": "uint256",
          "name": "newBalance",
          "type": "uint256"
        }
      ],
      "name": "FundsBufferBalanceUpdated",
      "type": "event"
    },
    {
      "anonymous": false,
      "inputs": [
        {
          "indexed": true,
          "internalType": "address",
          "name": "keeper",
          "type": "address"
        },
        {
          "indexed": false,
          "internalType": "uint256",
          "name": "prevBalance",
          "type": "uint256"
        },
        {
          "indexed": false,
          "internalType": "uint256",
          "name": "newBalance",
          "type": "uint256"
        }
      ],
      "name": "FundsQueueRefilled",
      "type": "event"
    },
    {
      "anonymous": false,
      "inputs": [
        {
          "indexed": true,
          "internalType": "address",
          "name": "keeper",
          "type": "address"
        },
        {
          "indexed": false,
          "internalType": "uint256",
          "name": "newBalance",
          "type": "uint256"
        }
      ],
      "name": "MinFundsQueueBalanceUpdated",
      "type": "event"
    },
    {
      "anonymous": false,
      "inputs": [
        {
          "indexed": false,
          "internalType": "uint256",
          "name": "newMinimumPauseTime",
          "type": "uint256"
        }
      ],
      "name": "MinimumPauseTimeUpdated",
      "type": "event"
    },
    {
      "anonymous": false,
      "inputs": [
        {
          "indexed": false,
          "internalType": "address",
          "name": "account",
          "type": "address"
        }
      ],
      "name": "Paused",
      "type": "event"
    },
    {
      "anonymous": false,
      "inputs": [
        {
          "indexed": true,
          "internalType": "address",
          "name": "keeper",
          "type": "address"
        },
        {
          "indexed": false,
          "internalType": "uint256",
          "name": "prevBalance",
          "type": "uint256"
        },
        {
          "indexed": false,
          "internalType": "uint256",
          "name": "newBalance",
          "type": "uint256"
        }
      ],
      "name": "QueuedFundsCommitted",
      "type": "event"
    },
    {
      "anonymous": false,
      "inputs": [
        {
          "indexed": true,
          "internalType": "address",
          "name": "keeper",
          "type": "address"
        },
        {
          "components": [
            {
              "internalType": "address",
              "name": "fromArk",
              "type": "address"
            },
            {
              "internalType": "address",
              "name": "toArk",
              "type": "address"
            },
            {
              "internalType": "uint256",
              "name": "amount",
              "type": "uint256"
            },
            {
              "internalType": "bytes",
              "name": "boardData",
              "type": "bytes"
            },
            {
              "internalType": "bytes",
              "name": "disembarkData",
              "type": "bytes"
            }
          ],
          "indexed": false,
          "internalType": "struct RebalanceData[]",
          "name": "rebalances",
          "type": "tuple[]"
        }
      ],
      "name": "Rebalanced",
      "type": "event"
    },
    {
      "anonymous": false,
      "inputs": [
        {
          "indexed": false,
          "internalType": "uint256",
          "name": "tipAmount",
          "type": "uint256"
        }
      ],
      "name": "TipAccrued",
      "type": "event"
    },
    {
      "anonymous": false,
      "inputs": [
        {
          "indexed": false,
          "internalType": "address",
          "name": "newTipJar",
          "type": "address"
        }
      ],
      "name": "TipJarUpdated",
      "type": "event"
    },
    {
      "anonymous": false,
      "inputs": [
        {
          "indexed": false,
          "internalType": "Percentage",
          "name": "newTipRate",
          "type": "uint256"
        }
      ],
      "name": "TipRateUpdated",
      "type": "event"
    },
    {
      "anonymous": false,
      "inputs": [
        {
          "indexed": true,
          "internalType": "address",
          "name": "from",
          "type": "address"
        },
        {
          "indexed": true,
          "internalType": "address",
          "name": "to",
          "type": "address"
        },
        {
          "indexed": false,
          "internalType": "uint256",
          "name": "value",
          "type": "uint256"
        }
      ],
      "name": "Transfer",
      "type": "event"
    },
    {
      "anonymous": false,
      "inputs": [],
      "name": "TransfersEnabled",
      "type": "event"
    },
    {
      "anonymous": false,
      "inputs": [
        {
          "indexed": false,
          "internalType": "address",
          "name": "account",
          "type": "address"
        }
      ],
      "name": "Unpaused",
      "type": "event"
    },
    {
      "anonymous": false,
      "inputs": [
        {
          "indexed": true,
          "internalType": "address",
          "name": "sender",
          "type": "address"
        },
        {
          "indexed": true,
          "internalType": "address",
          "name": "receiver",
          "type": "address"
        },
        {
          "indexed": true,
          "internalType": "address",
          "name": "owner",
          "type": "address"
        },
        {
          "indexed": false,
          "internalType": "uint256",
          "name": "assets",
          "type": "uint256"
        },
        {
          "indexed": false,
          "internalType": "uint256",
          "name": "shares",
          "type": "uint256"
        }
      ],
      "name": "Withdraw",
      "type": "event"
    },
    {
      "inputs": [],
      "name": "ADMIRALS_QUARTERS_ROLE",
      "outputs": [
        {
          "internalType": "bytes32",
          "name": "",
          "type": "bytes32"
        }
      ],
      "stateMutability": "view",
      "type": "function"
    },
    {
      "inputs": [],
      "name": "DECAY_CONTROLLER_ROLE",
      "outputs": [
        {
          "internalType": "bytes32",
          "name": "",
          "type": "bytes32"
        }
      ],
      "stateMutability": "view",
      "type": "function"
    },
    {
      "inputs": [],
      "name": "GOVERNOR_ROLE",
      "outputs": [
        {
          "internalType": "bytes32",
          "name": "",
          "type": "bytes32"
        }
      ],
      "stateMutability": "view",
      "type": "function"
    },
    {
      "inputs": [],
      "name": "GUARDIAN_ROLE",
      "outputs": [
        {
          "internalType": "bytes32",
          "name": "",
          "type": "bytes32"
        }
      ],
      "stateMutability": "view",
      "type": "function"
    },
    {
      "inputs": [],
      "name": "INITIAL_MINIMUM_PAUSE_TIME",
      "outputs": [
        {
          "internalType": "uint256",
          "name": "",
          "type": "uint256"
        }
      ],
      "stateMutability": "view",
      "type": "function"
    },
    {
      "inputs": [],
      "name": "MAX_REBALANCE_OPERATIONS",
      "outputs": [
        {
          "internalType": "uint256",
          "name": "",
          "type": "uint256"
        }
      ],
      "stateMutability": "view",
      "type": "function"
    },
    {
      "inputs": [],
      "name": "SUPER_KEEPER_ROLE",
      "outputs": [
        {
          "internalType": "bytes32",
          "name": "",
          "type": "bytes32"
        }
      ],
      "stateMutability": "view",
      "type": "function"
    },
    {
      "inputs": [
        {
          "internalType": "address",
          "name": "ark",
          "type": "address"
        }
      ],
      "name": "addArk",
      "outputs": [],
      "stateMutability": "nonpayable",
      "type": "function"
    },
    {
      "inputs": [
        {
          "internalType": "address",
          "name": "owner",
          "type": "address"
        },
        {
          "internalType": "address",
          "name": "spender",
          "type": "address"
        }
      ],
      "name": "allowance",
      "outputs": [
        {
          "internalType": "uint256",
          "name": "",
          "type": "uint256"
        }
      ],
      "stateMutability": "view",
      "type": "function"
    },
    {
      "inputs": [
        {
          "internalType": "address",
          "name": "spender",
          "type": "address"
        },
        {
          "internalType": "uint256",
          "name": "value",
          "type": "uint256"
        }
      ],
      "name": "approve",
      "outputs": [
        {
          "internalType": "bool",
          "name": "",
          "type": "bool"
        }
      ],
      "stateMutability": "nonpayable",
      "type": "function"
    },
    {
      "inputs": [
        {
          "internalType": "uint256",
          "name": "index",
          "type": "uint256"
        }
      ],
      "name": "arks",
      "outputs": [
        {
          "internalType": "address",
          "name": "",
          "type": "address"
        }
      ],
      "stateMutability": "view",
      "type": "function"
    },
    {
      "inputs": [],
      "name": "asset",
      "outputs": [
        {
          "internalType": "address",
          "name": "",
          "type": "address"
        }
      ],
      "stateMutability": "view",
      "type": "function"
    },
    {
      "inputs": [
        {
          "internalType": "address",
          "name": "account",
          "type": "address"
        }
      ],
      "name": "balanceOf",
      "outputs": [
        {
          "internalType": "uint256",
          "name": "",
          "type": "uint256"
        }
      ],
      "stateMutability": "view",
      "type": "function"
    },
    {
      "inputs": [],
      "name": "bufferArk",
      "outputs": [
        {
          "internalType": "address",
          "name": "",
          "type": "address"
        }
      ],
      "stateMutability": "view",
      "type": "function"
    },
    {
      "inputs": [],
      "name": "config",
      "outputs": [
        {
          "internalType": "contract IArk",
          "name": "bufferArk",
          "type": "address"
        },
        {
          "internalType": "uint256",
          "name": "minimumBufferBalance",
          "type": "uint256"
        },
        {
          "internalType": "uint256",
          "name": "depositCap",
          "type": "uint256"
        },
        {
          "internalType": "uint256",
          "name": "maxRebalanceOperations",
          "type": "uint256"
        },
        {
          "internalType": "address",
          "name": "stakingRewardsManager",
          "type": "address"
        }
      ],
      "stateMutability": "view",
      "type": "function"
    },
    {
      "inputs": [],
      "name": "configurationManager",
      "outputs": [
        {
          "internalType": "contract IConfigurationManager",
          "name": "",
          "type": "address"
        }
      ],
      "stateMutability": "view",
      "type": "function"
    },
    {
      "inputs": [
        {
          "internalType": "uint256",
          "name": "shares",
          "type": "uint256"
        }
      ],
      "name": "convertToAssets",
      "outputs": [
        {
          "internalType": "uint256",
          "name": "",
          "type": "uint256"
        }
      ],
      "stateMutability": "view",
      "type": "function"
    },
    {
      "inputs": [
        {
          "internalType": "uint256",
          "name": "assets",
          "type": "uint256"
        }
      ],
      "name": "convertToShares",
      "outputs": [
        {
          "internalType": "uint256",
          "name": "",
          "type": "uint256"
        }
      ],
      "stateMutability": "view",
      "type": "function"
    },
    {
      "inputs": [],
      "name": "decimals",
      "outputs": [
        {
          "internalType": "uint8",
          "name": "",
          "type": "uint8"
        }
      ],
      "stateMutability": "view",
      "type": "function"
    },
    {
      "inputs": [
        {
          "internalType": "uint256",
          "name": "assets",
          "type": "uint256"
        },
        {
          "internalType": "address",
          "name": "receiver",
          "type": "address"
        }
      ],
      "name": "deposit",
      "outputs": [
        {
          "internalType": "uint256",
          "name": "shares",
          "type": "uint256"
        }
      ],
      "stateMutability": "nonpayable",
      "type": "function"
    },
    {
      "inputs": [
        {
          "internalType": "uint256",
          "name": "assets",
          "type": "uint256"
        },
        {
          "internalType": "address",
          "name": "receiver",
          "type": "address"
        },
        {
          "internalType": "bytes",
          "name": "referralCode",
          "type": "bytes"
        }
      ],
      "name": "deposit",
      "outputs": [
        {
          "internalType": "uint256",
          "name": "",
          "type": "uint256"
        }
      ],
      "stateMutability": "nonpayable",
      "type": "function"
    },
    {
      "inputs": [],
      "name": "details",
      "outputs": [
        {
          "internalType": "string",
          "name": "",
          "type": "string"
        }
      ],
      "stateMutability": "view",
      "type": "function"
    },
    {
      "inputs": [],
      "name": "fleetCommanderRewardsManagerFactory",
      "outputs": [
        {
          "internalType": "address",
          "name": "",
          "type": "address"
        }
      ],
      "stateMutability": "view",
      "type": "function"
    },
    {
      "inputs": [
        {
          "components": [
            {
              "internalType": "address",
              "name": "fromArk",
              "type": "address"
            },
            {
              "internalType": "address",
              "name": "toArk",
              "type": "address"
            },
            {
              "internalType": "uint256",
              "name": "amount",
              "type": "uint256"
            },
            {
              "internalType": "bytes",
              "name": "boardData",
              "type": "bytes"
            },
            {
              "internalType": "bytes",
              "name": "disembarkData",
              "type": "bytes"
            }
          ],
          "internalType": "struct RebalanceData[]",
          "name": "rebalanceData",
          "type": "tuple[]"
        }
      ],
      "name": "forceRebalance",
      "outputs": [],
      "stateMutability": "nonpayable",
      "type": "function"
    },
    {
      "inputs": [
        {
          "internalType": "enum ContractSpecificRoles",
          "name": "roleName",
          "type": "uint8"
        },
        {
          "internalType": "address",
          "name": "roleTargetContract",
          "type": "address"
        }
      ],
      "name": "generateRole",
      "outputs": [
        {
          "internalType": "bytes32",
          "name": "",
          "type": "bytes32"
        }
      ],
      "stateMutability": "pure",
      "type": "function"
    },
    {
      "inputs": [],
      "name": "getActiveArks",
      "outputs": [
        {
          "internalType": "address[]",
          "name": "",
          "type": "address[]"
        }
      ],
      "stateMutability": "view",
      "type": "function"
    },
    {
      "inputs": [],
      "name": "getConfig",
      "outputs": [
        {
          "components": [
            {
              "internalType": "contract IArk",
              "name": "bufferArk",
              "type": "address"
            },
            {
              "internalType": "uint256",
              "name": "minimumBufferBalance",
              "type": "uint256"
            },
            {
              "internalType": "uint256",
              "name": "depositCap",
              "type": "uint256"
            },
            {
              "internalType": "uint256",
              "name": "maxRebalanceOperations",
              "type": "uint256"
            },
            {
              "internalType": "address",
              "name": "stakingRewardsManager",
              "type": "address"
            }
          ],
          "internalType": "struct FleetConfig",
          "name": "",
          "type": "tuple"
        }
      ],
      "stateMutability": "view",
      "type": "function"
    },
    {
      "inputs": [],
      "name": "getCooldown",
      "outputs": [
        {
          "internalType": "uint256",
          "name": "",
          "type": "uint256"
        }
      ],
      "stateMutability": "view",
      "type": "function"
    },
    {
      "inputs": [
        {
          "internalType": "contract IArk",
          "name": "ark",
          "type": "address"
        }
      ],
      "name": "getEffectiveArkDepositCap",
      "outputs": [
        {
          "internalType": "uint256",
          "name": "",
          "type": "uint256"
        }
      ],
      "stateMutability": "view",
      "type": "function"
    },
    {
      "inputs": [],
      "name": "getLastActionTimestamp",
      "outputs": [
        {
          "internalType": "uint256",
          "name": "",
          "type": "uint256"
        }
      ],
      "stateMutability": "view",
      "type": "function"
    },
    {
      "inputs": [],
      "name": "harborCommand",
      "outputs": [
        {
          "internalType": "address",
          "name": "",
          "type": "address"
        }
      ],
      "stateMutability": "view",
      "type": "function"
    },
    {
      "inputs": [
        {
          "internalType": "address",
          "name": "account",
          "type": "address"
        }
      ],
      "name": "hasAdmiralsQuartersRole",
      "outputs": [
        {
          "internalType": "bool",
          "name": "",
          "type": "bool"
        }
      ],
      "stateMutability": "view",
      "type": "function"
    },
    {
      "inputs": [
        {
          "internalType": "address",
          "name": "arkAddress",
          "type": "address"
        }
      ],
      "name": "isArkActiveOrBufferArk",
      "outputs": [
        {
          "internalType": "bool",
          "name": "",
          "type": "bool"
        }
      ],
      "stateMutability": "view",
      "type": "function"
    },
    {
      "inputs": [],
      "name": "lastTipTimestamp",
      "outputs": [
        {
          "internalType": "uint256",
          "name": "",
          "type": "uint256"
        }
      ],
      "stateMutability": "view",
      "type": "function"
    },
    {
      "inputs": [
        {
          "internalType": "address",
          "name": "owner",
          "type": "address"
        }
      ],
      "name": "maxBufferRedeem",
      "outputs": [
        {
          "internalType": "uint256",
          "name": "_maxBufferRedeem",
          "type": "uint256"
        }
      ],
      "stateMutability": "view",
      "type": "function"
    },
    {
      "inputs": [
        {
          "internalType": "address",
          "name": "owner",
          "type": "address"
        }
      ],
      "name": "maxBufferWithdraw",
      "outputs": [
        {
          "internalType": "uint256",
          "name": "_maxBufferWithdraw",
          "type": "uint256"
        }
      ],
      "stateMutability": "view",
      "type": "function"
    },
    {
      "inputs": [
        {
          "internalType": "address",
          "name": "owner",
          "type": "address"
        }
      ],
      "name": "maxDeposit",
      "outputs": [
        {
          "internalType": "uint256",
          "name": "_maxDeposit",
          "type": "uint256"
        }
      ],
      "stateMutability": "view",
      "type": "function"
    },
    {
      "inputs": [
        {
          "internalType": "address",
          "name": "owner",
          "type": "address"
        }
      ],
      "name": "maxMint",
      "outputs": [
        {
          "internalType": "uint256",
          "name": "_maxMint",
          "type": "uint256"
        }
      ],
      "stateMutability": "view",
      "type": "function"
    },
    {
      "inputs": [
        {
          "internalType": "address",
          "name": "owner",
          "type": "address"
        }
      ],
      "name": "maxRedeem",
      "outputs": [
        {
          "internalType": "uint256",
          "name": "_maxRedeem",
          "type": "uint256"
        }
      ],
      "stateMutability": "view",
      "type": "function"
    },
    {
      "inputs": [
        {
          "internalType": "address",
          "name": "owner",
          "type": "address"
        }
      ],
      "name": "maxWithdraw",
      "outputs": [
        {
          "internalType": "uint256",
          "name": "_maxWithdraw",
          "type": "uint256"
        }
      ],
      "stateMutability": "view",
      "type": "function"
    },
    {
      "inputs": [],
      "name": "minimumPauseTime",
      "outputs": [
        {
          "internalType": "uint256",
          "name": "",
          "type": "uint256"
        }
      ],
      "stateMutability": "view",
      "type": "function"
    },
    {
      "inputs": [
        {
          "internalType": "uint256",
          "name": "shares",
          "type": "uint256"
        },
        {
          "internalType": "address",
          "name": "receiver",
          "type": "address"
        }
      ],
      "name": "mint",
      "outputs": [
        {
          "internalType": "uint256",
          "name": "assets",
          "type": "uint256"
        }
      ],
      "stateMutability": "nonpayable",
      "type": "function"
    },
    {
      "inputs": [],
      "name": "name",
      "outputs": [
        {
          "internalType": "string",
          "name": "",
          "type": "string"
        }
      ],
      "stateMutability": "view",
      "type": "function"
    },
    {
      "inputs": [],
      "name": "pause",
      "outputs": [],
      "stateMutability": "nonpayable",
      "type": "function"
    },
    {
      "inputs": [],
      "name": "pauseStartTime",
      "outputs": [
        {
          "internalType": "uint256",
          "name": "",
          "type": "uint256"
        }
      ],
      "stateMutability": "view",
      "type": "function"
    },
    {
      "inputs": [],
      "name": "paused",
      "outputs": [
        {
          "internalType": "bool",
          "name": "",
          "type": "bool"
        }
      ],
      "stateMutability": "view",
      "type": "function"
    },
    {
      "inputs": [
        {
          "internalType": "uint256",
          "name": "assets",
          "type": "uint256"
        }
      ],
      "name": "previewDeposit",
      "outputs": [
        {
          "internalType": "uint256",
          "name": "",
          "type": "uint256"
        }
      ],
      "stateMutability": "view",
      "type": "function"
    },
    {
      "inputs": [
        {
          "internalType": "uint256",
          "name": "shares",
          "type": "uint256"
        }
      ],
      "name": "previewMint",
      "outputs": [
        {
          "internalType": "uint256",
          "name": "",
          "type": "uint256"
        }
      ],
      "stateMutability": "view",
      "type": "function"
    },
    {
      "inputs": [
        {
          "internalType": "uint256",
          "name": "shares",
          "type": "uint256"
        }
      ],
      "name": "previewRedeem",
      "outputs": [
        {
          "internalType": "uint256",
          "name": "",
          "type": "uint256"
        }
      ],
      "stateMutability": "view",
      "type": "function"
    },
    {
      "inputs": [
        {
          "internalType": "address",
          "name": "tipJar",
          "type": "address"
        },
        {
          "internalType": "uint256",
          "name": "totalSupply",
          "type": "uint256"
        }
      ],
      "name": "previewTip",
      "outputs": [
        {
          "internalType": "uint256",
          "name": "tippedShares",
          "type": "uint256"
        }
      ],
      "stateMutability": "view",
      "type": "function"
    },
    {
      "inputs": [
        {
          "internalType": "uint256",
          "name": "assets",
          "type": "uint256"
        }
      ],
      "name": "previewWithdraw",
      "outputs": [
        {
          "internalType": "uint256",
          "name": "",
          "type": "uint256"
        }
      ],
      "stateMutability": "view",
      "type": "function"
    },
    {
      "inputs": [],
      "name": "raft",
      "outputs": [
        {
          "internalType": "address",
          "name": "",
          "type": "address"
        }
      ],
      "stateMutability": "view",
      "type": "function"
    },
    {
      "inputs": [
        {
          "components": [
            {
              "internalType": "address",
              "name": "fromArk",
              "type": "address"
            },
            {
              "internalType": "address",
              "name": "toArk",
              "type": "address"
            },
            {
              "internalType": "uint256",
              "name": "amount",
              "type": "uint256"
            },
            {
              "internalType": "bytes",
              "name": "boardData",
              "type": "bytes"
            },
            {
              "internalType": "bytes",
              "name": "disembarkData",
              "type": "bytes"
            }
          ],
          "internalType": "struct RebalanceData[]",
          "name": "rebalanceData",
          "type": "tuple[]"
        }
      ],
      "name": "rebalance",
      "outputs": [],
      "stateMutability": "nonpayable",
      "type": "function"
    },
    {
      "inputs": [
        {
          "internalType": "uint256",
          "name": "shares",
          "type": "uint256"
        },
        {
          "internalType": "address",
          "name": "receiver",
          "type": "address"
        },
        {
          "internalType": "address",
          "name": "owner",
          "type": "address"
        }
      ],
      "name": "redeem",
      "outputs": [
        {
          "internalType": "uint256",
          "name": "assets",
          "type": "uint256"
        }
      ],
      "stateMutability": "nonpayable",
      "type": "function"
    },
    {
      "inputs": [
        {
          "internalType": "uint256",
          "name": "shares",
          "type": "uint256"
        },
        {
          "internalType": "address",
          "name": "receiver",
          "type": "address"
        },
        {
          "internalType": "address",
          "name": "owner",
          "type": "address"
        }
      ],
      "name": "redeemFromArks",
      "outputs": [
        {
          "internalType": "uint256",
          "name": "totalAssetsToWithdraw",
          "type": "uint256"
        }
      ],
      "stateMutability": "nonpayable",
      "type": "function"
    },
    {
      "inputs": [
        {
          "internalType": "uint256",
          "name": "shares",
          "type": "uint256"
        },
        {
          "internalType": "address",
          "name": "receiver",
          "type": "address"
        },
        {
          "internalType": "address",
          "name": "owner",
          "type": "address"
        }
      ],
      "name": "redeemFromBuffer",
      "outputs": [
        {
          "internalType": "uint256",
          "name": "assets",
          "type": "uint256"
        }
      ],
      "stateMutability": "nonpayable",
      "type": "function"
    },
    {
      "inputs": [
        {
          "internalType": "address",
          "name": "ark",
          "type": "address"
        }
      ],
      "name": "removeArk",
      "outputs": [],
      "stateMutability": "nonpayable",
      "type": "function"
    },
    {
      "inputs": [
        {
          "internalType": "address",
          "name": "ark",
          "type": "address"
        },
        {
          "internalType": "uint256",
          "name": "newDepositCap",
          "type": "uint256"
        }
      ],
      "name": "setArkDepositCap",
      "outputs": [],
      "stateMutability": "nonpayable",
      "type": "function"
    },
    {
      "inputs": [
        {
          "internalType": "address",
          "name": "ark",
          "type": "address"
        },
        {
          "internalType": "Percentage",
          "name": "newMaxDepositPercentageOfTVL",
          "type": "uint256"
        }
      ],
      "name": "setArkMaxDepositPercentageOfTVL",
      "outputs": [],
      "stateMutability": "nonpayable",
      "type": "function"
    },
    {
      "inputs": [
        {
          "internalType": "address",
          "name": "ark",
          "type": "address"
        },
        {
          "internalType": "uint256",
          "name": "newMaxRebalanceInflow",
          "type": "uint256"
        }
      ],
      "name": "setArkMaxRebalanceInflow",
      "outputs": [],
      "stateMutability": "nonpayable",
      "type": "function"
    },
    {
      "inputs": [
        {
          "internalType": "address",
          "name": "ark",
          "type": "address"
        },
        {
          "internalType": "uint256",
          "name": "newMaxRebalanceOutflow",
          "type": "uint256"
        }
      ],
      "name": "setArkMaxRebalanceOutflow",
      "outputs": [],
      "stateMutability": "nonpayable",
      "type": "function"
    },
    {
      "inputs": [
        {
          "internalType": "uint256",
          "name": "newCap",
          "type": "uint256"
        }
      ],
      "name": "setFleetDepositCap",
      "outputs": [],
      "stateMutability": "nonpayable",
      "type": "function"
    },
    {
      "inputs": [],
      "name": "setFleetTokenTransferability",
      "outputs": [],
      "stateMutability": "nonpayable",
      "type": "function"
    },
    {
      "inputs": [
        {
          "internalType": "uint256",
          "name": "newMaxRebalanceOperations",
          "type": "uint256"
        }
      ],
      "name": "setMaxRebalanceOperations",
      "outputs": [],
      "stateMutability": "nonpayable",
      "type": "function"
    },
    {
      "inputs": [
        {
          "internalType": "uint256",
          "name": "newMinimumBalance",
          "type": "uint256"
        }
      ],
      "name": "setMinimumBufferBalance",
      "outputs": [],
      "stateMutability": "nonpayable",
      "type": "function"
    },
    {
      "inputs": [
        {
          "internalType": "uint256",
          "name": "_newMinimumPauseTime",
          "type": "uint256"
        }
      ],
      "name": "setMinimumPauseTime",
      "outputs": [],
      "stateMutability": "nonpayable",
      "type": "function"
    },
    {
      "inputs": [
        {
          "internalType": "Percentage",
          "name": "newTipRate",
          "type": "uint256"
        }
      ],
      "name": "setTipRate",
      "outputs": [],
      "stateMutability": "nonpayable",
      "type": "function"
    },
    {
      "inputs": [],
      "name": "symbol",
      "outputs": [
        {
          "internalType": "string",
          "name": "",
          "type": "string"
        }
      ],
      "stateMutability": "view",
      "type": "function"
    },
    {
      "inputs": [],
      "name": "tip",
      "outputs": [
        {
          "internalType": "uint256",
          "name": "",
          "type": "uint256"
        }
      ],
      "stateMutability": "nonpayable",
      "type": "function"
    },
    {
      "inputs": [],
      "name": "tipJar",
      "outputs": [
        {
          "internalType": "address",
          "name": "",
          "type": "address"
        }
      ],
      "stateMutability": "view",
      "type": "function"
    },
    {
      "inputs": [],
      "name": "tipRate",
      "outputs": [
        {
          "internalType": "Percentage",
          "name": "",
          "type": "uint256"
        }
      ],
      "stateMutability": "view",
      "type": "function"
    },
    {
      "inputs": [],
      "name": "totalAssets",
      "outputs": [
        {
          "internalType": "uint256",
          "name": "",
          "type": "uint256"
        }
      ],
      "stateMutability": "view",
      "type": "function"
    },
    {
      "inputs": [],
      "name": "totalSupply",
      "outputs": [
        {
          "internalType": "uint256",
          "name": "",
          "type": "uint256"
        }
      ],
      "stateMutability": "view",
      "type": "function"
    },
    {
      "inputs": [
        {
          "internalType": "address",
          "name": "to",
          "type": "address"
        },
        {
          "internalType": "uint256",
          "name": "amount",
          "type": "uint256"
        }
      ],
      "name": "transfer",
      "outputs": [
        {
          "internalType": "bool",
          "name": "",
          "type": "bool"
        }
      ],
      "stateMutability": "nonpayable",
      "type": "function"
    },
    {
      "inputs": [
        {
          "internalType": "address",
          "name": "from",
          "type": "address"
        },
        {
          "internalType": "address",
          "name": "to",
          "type": "address"
        },
        {
          "internalType": "uint256",
          "name": "amount",
          "type": "uint256"
        }
      ],
      "name": "transferFrom",
      "outputs": [
        {
          "internalType": "bool",
          "name": "",
          "type": "bool"
        }
      ],
      "stateMutability": "nonpayable",
      "type": "function"
    },
    {
      "inputs": [],
      "name": "transfersEnabled",
      "outputs": [
        {
          "internalType": "bool",
          "name": "",
          "type": "bool"
        }
      ],
      "stateMutability": "view",
      "type": "function"
    },
    {
      "inputs": [],
      "name": "treasury",
      "outputs": [
        {
          "internalType": "address",
          "name": "",
          "type": "address"
        }
      ],
      "stateMutability": "view",
      "type": "function"
    },
    {
      "inputs": [],
      "name": "unpause",
      "outputs": [],
      "stateMutability": "nonpayable",
      "type": "function"
    },
    {
      "inputs": [
        {
          "internalType": "uint256",
          "name": "newCooldown",
          "type": "uint256"
        }
      ],
      "name": "updateRebalanceCooldown",
      "outputs": [],
      "stateMutability": "nonpayable",
      "type": "function"
    },
    {
      "inputs": [],
      "name": "updateStakingRewardsManager",
      "outputs": [],
      "stateMutability": "nonpayable",
      "type": "function"
    },
    {
      "inputs": [
        {
          "internalType": "uint256",
          "name": "assets",
          "type": "uint256"
        },
        {
          "internalType": "address",
          "name": "receiver",
          "type": "address"
        },
        {
          "internalType": "address",
          "name": "owner",
          "type": "address"
        }
      ],
      "name": "withdraw",
      "outputs": [
        {
          "internalType": "uint256",
          "name": "shares",
          "type": "uint256"
        }
      ],
      "stateMutability": "nonpayable",
      "type": "function"
    },
    {
      "inputs": [
        {
          "internalType": "uint256",
          "name": "assets",
          "type": "uint256"
        },
        {
          "internalType": "address",
          "name": "receiver",
          "type": "address"
        },
        {
          "internalType": "address",
          "name": "owner",
          "type": "address"
        }
      ],
      "name": "withdrawFromArks",
      "outputs": [
        {
          "internalType": "uint256",
          "name": "totalSharesToRedeem",
          "type": "uint256"
        }
      ],
      "stateMutability": "nonpayable",
      "type": "function"
    },
    {
      "inputs": [
        {
          "internalType": "uint256",
          "name": "assets",
          "type": "uint256"
        },
        {
          "internalType": "address",
          "name": "receiver",
          "type": "address"
        },
        {
          "internalType": "address",
          "name": "owner",
          "type": "address"
        }
      ],
      "name": "withdrawFromBuffer",
      "outputs": [
        {
          "internalType": "uint256",
          "name": "shares",
          "type": "uint256"
        }
      ],
      "stateMutability": "nonpayable",
      "type": "function"
    },
    {
      "inputs": [],
      "name": "withdrawableTotalAssets",
      "outputs": [
        {
          "internalType": "uint256",
          "name": "",
          "type": "uint256"
        }
      ],
      "stateMutability": "view",
      "type": "function"
    }
  ],
  "bytecode": "0x610120806040523461085257619317803803809161001d8285610b18565b8339810190602081830312610852578051906001600160401b03821161085257019061014082820312610852576040519061005782610afc565b82516001600160401b0381116108525781610073918501610b56565b825260208301516001600160401b0381116108525781610094918501610b56565b60208301908152604084015190916001600160401b038211610852576100bb918501610b56565b918260408201526100ce60608501610b9c565b9160608201928084526100e360808701610b9c565b9560808401948786526100f860a08301610b9c565b9560a0860198878a5260c08401519460c0880195865260e0850151998a60e08a0152610120610100870151966101008b019788520151998a6101208b015260018060a01b031698519160018060a01b03169260018060a01b03169180519060018060401b03821161080a5760035490600182811c92168015610af2575b60208310146107ec5781601f849311610a84575b50602090601f8311600114610a1e575f92610a13575b50508160011b915f199060031b1c1916176003555b8051906001600160401b03821161080a5760045490600182811c92168015610a09575b60208310146107ec5781601f84931161099b575b50602090601f8311600114610935575f9261092a575b50508160011b915f199060031b1c1916176004555b8015610917576040516301ffc9a760e01b815263261c910560e21b6004820152602081602481855afa90811561090c575f916108d1575b50156108bf5760805260ff19600554166005556202a3006006557f3cf175d91d8c5823f3729423b5a64130e40d4b09e88c6dc1925a260f26818c2560206040516202a3008152a180156108b05760a0525197519051604051986001600160a01b039283169291821691166102c08a610afc565b6040998a9283516102d18582610b18565b600981526842756666657241726b60b81b602082015282528351946102f68587610b18565b601186527042756666657241726b2064657461696c7360781b602087015260208301958652848301938452606083019182526080830190815260a083015f19815260c084015f19815260e08501915f1983526101008601935f855261012087019568056bc75e2d63100000875289519a6126bf90818d01998d8b1060018060401b038c111761080a578c6101408f9e928f938e6103ba976103a796616c5890395251918d01526101808c0190610bb0565b90518a8203603f190160608c0152610bb0565b98516001600160a01b0390811660808a01529051811660a089015290511660c08701525160e08601525161010085015251610120840152511515610140830152516101608201523060209091015203905ff080156108a65760018060a01b031690875192827fcb4a29d359e86f179111dcba8714def1a859612f729f2d224d13efeac51b36bc5f80a25190519160208460048160018060a01b0360a05116633df94cfb60e21b82525afa93841561085e575f94610868575b506080518951630f07f82960e01b81526001600160a01b03918216600482015230602482015294602091869160449183915f91165af193841561085e575f9461081e575b50885160a08101946001600160401b0386118287101761080a576080958b52828252836020830152848b8301526032606083015260018060a01b0316948591015260018060a01b03196008541617600855600955600a556032600b5560018060a01b0319600c541617600c555180519060018060401b03821161080a57600d5490600182811c92168015610800575b60208310146107ec5781601f84931161077e575b50602090601f8311600114610718575f9261070d575b50508160011b915f199060031b1c191617600d555b61058d81610bd4565b9015610705575b60e05260c052674563918244f4000061010052674563918244f4000081116106f65760115542601255603c81106106e7576201518081116106d85760135551615fe09081610c78823960805181818161090201528181610b6c01528181610c9601528181610e0801528181610fcd01528181611383015281816114c0015281816117eb01528181611a4001528181611c1801528181611e9e01528181611f610152818161202301528181612125015281816121d6015281816122ca0152818161239d0152818161248b01528181612614015281816131d2015261333d015260a0518181816108040152818161106b0152818161113301528181611db1015281816130360152613e1f015260c051818181610bdf01528181612c040152818161365c015281816145c00152614a9a015260e05181610ace01526101005181612cd40152f35b637092ddf560e01b5f5260045ffd5b63d93a8d8760e01b5f5260045ffd5b63ab9a408f60e01b5f5260045ffd5b506012610594565b015190505f8061056f565b600d5f9081528281209350601f198516905b818110610766575090846001959493921061074e575b505050811b01600d55610584565b01515f1960f88460031b161c191690555f8080610740565b9293602060018192878601518155019501930161072a565b600d5f529091507fd7b6990105719101dabeb77144f2a3385c8033acd3af97e9423a695e81ad1eb5601f840160051c810191602085106107e2575b90601f859493920160051c01905b8181106107d45750610559565b5f81558493506001016107c7565b90915081906107b9565b634e487b7160e01b5f52602260045260245ffd5b91607f1691610545565b634e487b7160e01b5f52604160045260245ffd5b9093506020813d602011610856575b8161083a60209383610b18565b810103126108525761084b90610b9c565b925f6104b6565b5f80fd5b3d915061082d565b89513d5f823e3d90fd5b93506020843d60201161089e575b8161088360209383610b18565b810103126108525760206108975f95610b9c565b9450610472565b3d9150610876565b87513d5f823e3d90fd5b63f1634df960e01b5f5260045ffd5b6347bd7c1d60e01b5f5260045260245ffd5b90506020813d602011610904575b816108ec60209383610b18565b8101031261085257518015158103610852575f61024d565b3d91506108df565b6040513d5f823e3d90fd5b6347bd7c1d60e01b5f525f60045260245ffd5b015190505f80610201565b60045f9081528281209350601f198516905b818110610983575090846001959493921061096b575b505050811b01600455610216565b01515f1960f88460031b161c191690555f808061095d565b92936020600181928786015181550195019301610947565b60045f529091507f8a35acfbc15ff81a39ae7d344fd709f28e8600b4aa8c65c6b64bfe7fe36bd19b601f840160051c810191602085106109ff575b90601f859493920160051c01905b8181106109f157506101eb565b5f81558493506001016109e4565b90915081906109d6565b91607f16916101d7565b015190505f8061019f565b60035f9081528281209350601f198516905b818110610a6c5750908460019594939210610a54575b505050811b016003556101b4565b01515f1960f88460031b161c191690555f8080610a46565b92936020600181928786015181550195019301610a30565b60035f529091507fc2575a0e9e593c00f959f8c92f12db2869c3395a3b0502d05e2516446f71f85b601f840160051c81019160208510610ae8575b90601f859493920160051c01905b818110610ada5750610189565b5f8155849350600101610acd565b9091508190610abf565b91607f1691610175565b61014081019081106001600160401b0382111761080a57604052565b601f909101601f19168101906001600160401b0382119082101761080a57604052565b6001600160401b03811161080a57601f01601f191660200190565b81601f8201121561085257805190610b6d82610b3b565b92610b7b6040519485610b18565b8284526020838301011161085257815f9260208093018386015e8301015290565b51906001600160a01b038216820361085257565b805180835260209291819084018484015e5f828201840152601f01601f1916010190565b5f8091604051602081019063313ce56760e01b825260048152610bf8602482610b18565b51916001600160a01b03165afa3d15610c6f573d90610c1682610b3b565b91610c246040519384610b18565b82523d5f602084013e5b80610c63575b610c40575b505f905f90565b602081805181010312610852576020015160ff8111610c39579060ff6001921690565b50602081511015610c34565b606090610c2e56fe60806040526004361015610011575f80fd5b5f3560e01c806301e1d1141461054a57806306fdde031461054557806307a2d13a146104e1578063095ea7b3146105405780630a28a4771461053b578063117d8ae014610536578063133ab5791461053157806318160ddd1461052c578063218e4a151461052757806323b872dd14610522578063240ecd601461051d57806324ea54f4146105185780632755cd2d14610513578063313ce5671461050e5780633152d5d114610509578063340505601461050457806338d52e0f146104ff5780633a7c9f0e146104fa5780633e314c76146104f55780633f4ba83a146104f0578063402d267d146104eb578063498e76a0146104e65780634cdad506146104e15780634daecb9c146104dc578063565974d3146104d75780635822198f146104d25780635b0f83f3146104cd5780635c975abb146104c85780635ed975e5146104c35780635f538f6f146104be57806361d027b3146104b957806366e943f1146104b4578063680e57ab146104af57806369b3054b146104aa5780636e553f65146104a557806370a08231146104a057806371aedbc11461049b57806379502c55146104965780637aaceb951461049157806383cf3d4a1461048c5780638456cb59146104875780639265b76e14610482578063934170521461047d57806394bf804d1461047857806394d7eaa41461047357806395d89b411461046e57806396c25a3814610469578063a039e94414610464578063a0506f0b1461045f578063a89f38a31461045a578063a9059cbb14610455578063b3d7f6b914610450578063b460af941461044b578063b637766c14610446578063ba08765214610441578063bef97c871461043c578063c0b534c214610437578063c37007c214610432578063c3f909d41461042d578063c63d75b614610428578063c6e6f592146103d3578063c8169aa114610423578063c9c667e31461041e578063ccc5749014610419578063ce96cb7714610414578063d206a0591461040f578063d45a07a11461040a578063d570ee4714610405578063d902d41a14610400578063d905777e146103fb578063dc9de0a8146103f6578063dd62ed3e146103f1578063e193858f146103ec578063e37d5b7f146103e7578063e7b20e5b146103e2578063ebc136d0146103dd578063ef2fc472146103d8578063ef8b30f7146103d3578063f3577816146103ce578063f3ba553e146103c9578063f7e533ec146103c4578063faa9bce9146103bf578063fcf2849f146103ba5763ff32a42a146103b5575f80fd5b612722565b612604565b612573565b6124e9565b612442565b612429565b611d56565b612402565b612330565b61228e565b61218b565b6120e3565b612081565b611fe6565b611fbf565b611f24565b611efc565b611e55565b611e2e565b611e07565b611de0565b611d9c565b611d74565b611d2f565b611c7d565b611bda565b611ba0565b611b7e565b611a9e565b6119f7565b61190a565b6118ec565b6118c1565b611887565b61186a565b611851565b6117a0565b6116eb565b6116ce565b61151e565b611488565b611461565b611364565b611339565b61130d565b6112bd565b6112a0565b611266565b61123c565b6111d7565b6111ba565b611180565b61110e565b6110f5565b6110da565b6110b8565b611046565b610f8b565b610ed6565b610dcb565b6106b8565b610dae565b610d87565b610c77565b610c50565b610c37565b610bca565b610b23565b610b06565b610aba565b610a87565b610a4d565b6109e8565b6109a7565b61098a565b610970565b610886565b6107e0565b6107b1565b6106f4565b6105c5565b61055d565b5f91031261055957565b5f80fd5b34610559575f36600319011261055957600854602090610585906001600160a01b0316613f22565b604051908152f35b805180835260209291819084018484015e5f828201840152601f01601f1916010190565b9060206105c292818152019061058d565b90565b34610559575f366003190112610559576040515f6003548060011c90600181169081156106ae575b60208310821461069a578285526020850191908115610681575060011461062f575b61062b8461061f81860382610eb5565b604051918291826105b1565b0390f35b60035f9081529250907fc2575a0e9e593c00f959f8c92f12db2869c3395a3b0502d05e2516446f71f85b5b81841061066d5750500161061f8261060f565b80548484015260209093019260010161065a565b60ff191682525090151560051b01905061061f8261060f565b634e487b7160e01b5f52602260045260245ffd5b91607f16916105ed565b34610559576020366003190112610559576020610585600435613fdc565b6001600160a01b0381160361055957565b35906106f2826106d6565b565b3461055957604036600319011261055957600435610711816106d6565b602435331561079e576001600160a01b03821691821561078b576107518291335f52600160205260405f209060018060a01b03165f5260205260405f2090565b5560405190815233907f8c5be1e5ebec7d5bd14f71427d1e84f3dd0314c0f7b2291e5b200ac8c7c3b92590602090a3602060405160018152f35b634a1406b160e11b5f525f60045260245ffd5b63e602df0560e01b5f525f60045260245ffd5b3461055957602036600319011261055957602061058560043561405b565b6001600160a01b0316600452602490565b34610559575f36600319011261055957604051628bec5760e51b81526020816004817f00000000000000000000000000000000000000000000000000000000000000006001600160a01b03165afa908115610881575f91610852575b506040516001600160a01b039091168152602090f35b610874915060203d60201161087a575b61086c8183610eb5565b810190612781565b5f61083c565b503d610862565b612796565b3461055957602036600319011261055957600435301580156108c8575b6108b2576108b090612818565b005b6363b52ed760e11b5f526108c5336107cf565b5ffd5b506108fe60206108d730612e75565b604051632474521560e21b8152600481019190915233602482015291829081906044820190565b03817f00000000000000000000000000000000000000000000000000000000000000006001600160a01b03165afa908115610881575f91610941575b50156108a3565b610963915060203d602011610969575b61095b8183610eb5565b8101906127a1565b5f61093a565b503d610951565b34610559575f36600319011261055957602061058561289a565b34610559575f366003190112610559576020601354604051908152f35b346105595760603660031901126105595760206109de6004356109c9816106d6565b6024356109d5816106d6565b604435916128cd565b6040519015158152f35b34610559575f36600319011261055957610a0061531d565b6040518091602082016020835281518091526020604084019201905f5b818110610a2b575050500390f35b82516001600160a01b0316845285945060209384019390920191600101610a1d565b34610559575f3660031901126105595760206040517f55435dd261a4b9b3364963f7738a7a662ad9c84396d64be3365284bb7f0a50418152f35b34610559575f36600319011261055957610a9f6140ad565b6020610585610aac613021565b610ab461289a565b90614101565b34610559575f3660031901126105595760ff7f00000000000000000000000000000000000000000000000000000000000000001660ff8111610b0157602090604051908152f35b61286b565b34610559575f366003190112610559576020601454604051908152f35b3461055957604036600319011261055957600435610b40816106d6565b60243530158015610b59575b6108b2576108b09161291c565b50610b6860206108d730612e75565b03817f00000000000000000000000000000000000000000000000000000000000000006001600160a01b03165afa908115610881575f91610bab575b5015610b4c565b610bc4915060203d6020116109695761095b8183610eb5565b5f610ba4565b34610559575f366003190112610559576040517f00000000000000000000000000000000000000000000000000000000000000006001600160a01b03168152602090f35b60609060031901126105595760043590602435610c2a816106d6565b906044356105c2816106d6565b34610559576020610585610c4a36610c0e565b91612993565b34610559576020366003190112610559576020610585600435610c72816106d6565b612b21565b34610559575f36600319011261055957604051632474521560e21b81527f00000000000000000000000000000000000000000000000000000000000000006001600160a01b03169060208180610cd033600483016127b9565b0381855afa908115610881575f91610d68575b50159081610d0c575b50610cf9576108b0614681565b636b2a758d60e01b5f526108c5336107cf565b604051632474521560e21b8152915060209082908180610d2f33600483016127f2565b03915afa908115610881575f91610d49575b50155f610cec565b610d62915060203d6020116109695761095b8183610eb5565b5f610d41565b610d81915060203d6020116109695761095b8183610eb5565b5f610ce3565b34610559576020366003190112610559576020610585600435610da9816106d6565b612bab565b34610559575f366003190112610559576020601154604051908152f35b346105595760203660031901126105595760043530158015610df5575b6108b2576108b090612c7f565b50610e0460206108d730612e75565b03817f00000000000000000000000000000000000000000000000000000000000000006001600160a01b03165afa908115610881575f91610e47575b5015610de8565b610e60915060203d6020116109695761095b8183610eb5565b5f610e40565b634e487b7160e01b5f52604160045260245ffd5b60a081019081106001600160401b03821117610e9557604052565b610e66565b604081019081106001600160401b03821117610e9557604052565b90601f801991011681019081106001600160401b03821117610e9557604052565b34610559575f366003190112610559576040515f600d548060011c9060018116908115610f81575b60208310821461069a5782855260208501919081156106815750600114610f2f5761062b8461061f81860382610eb5565b600d5f9081529250907fd7b6990105719101dabeb77144f2a3385c8033acd3af97e9423a695e81ad1eb55b818410610f6d5750500161061f8261060f565b805484840152602090930192600101610f5a565b91607f1691610efe565b3461055957602036600319011261055957600435604051632474521560e21b81525f516020615f6b5f395f51905f5260048201523360248201526020816044817f00000000000000000000000000000000000000000000000000000000000000006001600160a01b03165afa908115610881575f91611027575b5015611014576108b090612cb8565b630ea7d7ed60e21b5f526108c5336107cf565b611040915060203d6020116109695761095b8183610eb5565b5f611005565b34610559575f36600319011261055957604051635b0f83f360e01b81526020816004817f00000000000000000000000000000000000000000000000000000000000000006001600160a01b03165afa908115610881575f9161085257506040516001600160a01b039091168152602090f35b34610559575f36600319011261055957602060ff600554166040519015158152f35b34610559575f36600319011261055957602060405160328152f35b3461055957602061058561110836610c0e565b91612d43565b34610559575f366003190112610559576040516361d027b360e01b81526020816004817f00000000000000000000000000000000000000000000000000000000000000006001600160a01b03165afa908115610881575f9161085257506040516001600160a01b039091168152602090f35b34610559575f3660031901126105595760206040517f0d186688925976bbe6755ae984501c8e3e2b103a7af59fd803ab9c6d891ae7e08152f35b34610559575f366003190112610559576020600654604051908152f35b3461055957604036600319011261055957600435600381101561055957602090602435611203816106d6565b604051908382019260f81b835260018060601b03199060601b16602182015260158152611231603582610eb5565b519020604051908152f35b34610559576040366003190112610559576020610585602435600435611261826106d6565b612edd565b3461055957602036600319011261055957600435611283816106d6565b60018060a01b03165f525f602052602060405f2054604051908152f35b34610559575f366003190112610559576020601254604051908152f35b34610559575f36600319011261055957600854600954600a54600b54600c54604080516001600160a01b03968716815260208101959095528401929092526060830152909116608082015260a090f35b34610559575f366003190112610559576020611327613021565b6040516001600160a01b039091168152f35b3461055957604036600319011261055957602061058560043561135b816106d6565b6024359061308a565b34610559575f36600319011261055957604051632474521560e21b81527f00000000000000000000000000000000000000000000000000000000000000006001600160a01b031690602081806113bd33600483016127b9565b0381855afa908115610881575f91611442575b501590816113e6575b50610cf9576108b0614c3d565b604051632474521560e21b815291506020908290818061140933600483016127f2565b03915afa908115610881575f91611423575b50155f6113d9565b61143c915060203d6020116109695761095b8183610eb5565b5f61141b565b61145b915060203d6020116109695761095b8183610eb5565b5f6113d0565b34610559576020366003190112610559576020610585600435611483816106d6565b613125565b34610559575f36600319011261055957301580156114ad575b6108b2576108b06131a0565b506114bc60206108d730612e75565b03817f00000000000000000000000000000000000000000000000000000000000000006001600160a01b03165afa908115610881575f916114ff575b50156114a1565b611518915060203d6020116109695761095b8183610eb5565b5f6114f8565b34610559576040366003190112610559576004602435813561153f826106d6565b60016115496140c8565b5d611555610aac613021565b5060085460209061159590611589906115766001600160a01b0382166146f3565b5061157f6140ad565b6115893386614c82565b6001600160a01b031690565b6040516278744560e21b815294859182905afa908115610881576004935f926116a9575b50806115c76115cf9261401b565b8094336149f8565b6008546115ef9083906115ea906001600160a01b0316611589565b614a85565b600854602090611607906001600160a01b0316611589565b6040516278744560e21b815294859182905afa8015610881576116575f516020615f4b5f395f51905f529161062b955f9161167a575b506040805194855260208501919091523393918291820190565b0390a26116626143d9565b61166a613a31565b6040519081529081906020820190565b61169c915060203d6020116116a2575b6116948183610eb5565b810190612b12565b5f61163d565b503d61168a565b6115cf9192506116c79060203d6020116116a2576116948183610eb5565b91906115b9565b34610559575f366003190112610559576020600754604051908152f35b34610559575f366003190112610559576040515f6004548060011c9060018116908115611796575b60208310821461069a57828552602085019190811561068157506001146117445761062b8461061f81860382610eb5565b60045f9081529250907f8a35acfbc15ff81a39ae7d344fd709f28e8600b4aa8c65c6b64bfe7fe36bd19b5b8184106117825750500161061f8261060f565b80548484015260209093019260010161176f565b91607f1691611713565b34610559576020366003190112610559576004356117bd816106d6565b604051632474521560e21b81525f516020615f6b5f395f51905f5260048201523360248201526020816044817f00000000000000000000000000000000000000000000000000000000000000006001600160a01b03165afa908115610881575f91611832575b5015611014576108b0906132c6565b61184b915060203d6020116109695761095b8183610eb5565b5f611823565b3461055957602061058561186436610c0e565b916133fe565b34610559575f3660031901126105595760206040516202a3008152f35b34610559575f3660031901126105595760206040517fb00be3d6a5434b97b328543d1486d56adcb7e74080170d1cdd7e0306c3d9ba3d8152f35b346105595760403660031901126105595760206109de6004356118e3816106d6565b60243590613524565b3461055957602036600319011261055957602061058560043561401b565b3461055957600461191a36610c0e565b9060016119256140c8565b5d611931610aac613021565b50600854926119486001600160a01b0385166146f3565b506119516140ad565b928390602090611969906001600160a01b0316611589565b6040516278744560e21b815296879182905afa9081156108815761062b955f926119d6575b505f19146119bc575b83116119ae576119a692612d43565b6116626143d9565b6119b7926133fe565b6119a6565b92506119d06119ca83613008565b54613fdc565b92611997565b6119f091925060203d6020116116a2576116948183610eb5565b905f61198e565b3461055957604036600319011261055957600435611a14816106d6565b60243530158015611a2d575b6108b2576108b091613563565b50611a3c60206108d730612e75565b03817f00000000000000000000000000000000000000000000000000000000000000006001600160a01b03165afa908115610881575f91611a7f575b5015611a20565b611a98915060203d6020116109695761095b8183610eb5565b5f611a78565b34610559576004611aae36610c0e565b906001611ab96140c8565b5d611ac5610aac613021565b5060085492611adc6001600160a01b0385166146f3565b50611ae56140ad565b928390602090611afd906001600160a01b0316611589565b6040516278744560e21b815296879182905afa9485156108815761062b95611b2c915f91611b5f575b50614084565b905f1914611b4d575b8311611b44576119a692613d04565b6119b792612993565b9250611b5882613008565b5492611b35565b611b78915060203d6020116116a2576116948183610eb5565b5f611b26565b34610559575f36600319011261055957602060ff601054166040519015158152f35b34610559575f3660031901126105595760206040517f025d8bbf3268be680d2605ebf6da15063b9915615bf1087dab336efc1bf970cb8152f35b34610559575f36600319011261055957604051632474521560e21b81525f516020615f6b5f395f51905f5260048201523360248201526020816044817f00000000000000000000000000000000000000000000000000000000000000006001600160a01b03165afa908115610881575f91611c5e575b5015611014576108b06135bd565b611c77915060203d6020116109695761095b8183610eb5565b5f611c50565b34610559575f366003190112610559575f6080604051611c9c81610e7a565b828152826020820152826040820152826060820152015261062b604051611cc281610e7a565b6008546001600160a01b039081168083526009546020808501918252600a546040808701918252600b546060808901918252600c5488166080998a0190815283519788529551948701949094529151908501525190830152519091169181019190915290819060a0820190565b34610559576020366003190112610559576020610585600435611d51816106d6565b613604565b34610559576020366003190112610559576020610585600435614084565b34610559575f366003190112610559576008546040516001600160a01b039091168152602090f35b34610559575f366003190112610559576040517f00000000000000000000000000000000000000000000000000000000000000006001600160a01b03168152602090f35b34610559575f3660031901126105595760206040515f516020615f6b5f395f51905f528152f35b34610559576020366003190112610559576020610585600435611e29816106d6565b6136c0565b346105595760203660031901126105595760206109de600435611e50816106d6565b6136f1565b3461055957604036600319011261055957600435611e72816106d6565b60243530158015611e8b575b6108b2576108b091613727565b50611e9a60206108d730612e75565b03817f00000000000000000000000000000000000000000000000000000000000000006001600160a01b03165afa908115610881575f91611edd575b5015611e7e565b611ef6915060203d6020116109695761095b8183610eb5565b5f611ed6565b34610559575f36600319011261055957600854602090610585906001600160a01b0316614cf7565b346105595760203660031901126105595760043530158015611f4e575b6108b2576108b090613781565b50611f5d60206108d730612e75565b03817f00000000000000000000000000000000000000000000000000000000000000006001600160a01b03165afa908115610881575f91611fa0575b5015611f41565b611fb9915060203d6020116109695761095b8183610eb5565b5f611f99565b34610559576020366003190112610559576020610585600435611fe1816106d6565b6137ba565b346105595760203660031901126105595760043530158015612010575b6108b2576108b0906137d3565b5061201f60206108d730612e75565b03817f00000000000000000000000000000000000000000000000000000000000000006001600160a01b03165afa908115610881575f91612062575b5015612003565b61207b915060203d6020116109695761095b8183610eb5565b5f61205b565b346105595760403660031901126105595760206120da6004356120a3816106d6565b602435906120b0826106d6565b6001600160a01b03165f90815260018452604090209060018060a01b03165f5260205260405f2090565b54604051908152f35b3461055957602036600319011261055957600435604051632474521560e21b81525f516020615f6b5f395f51905f5260048201523360248201526020816044817f00000000000000000000000000000000000000000000000000000000000000006001600160a01b03165afa908115610881575f9161216c575b5015611014576108b090613844565b612185915060203d6020116109695761095b8183610eb5565b5f61215d565b34610559576020366003190112610559576004356121a8816106d6565b604051632474521560e21b81525f516020615f6b5f395f51905f5260048201523360248201526020816044817f00000000000000000000000000000000000000000000000000000000000000006001600160a01b03165afa908115610881575f9161221d575b5015611014576108b090613896565b612236915060203d6020116109695761095b8183610eb5565b5f61220e565b906020600319830112610559576004356001600160401b0381116105595782602382011215610559578060040135926001600160401b0384116105595760248460051b83010111610559576024019190565b346105595761229c3661223c565b604051632474521560e21b81525f516020615f6b5f395f51905f5260048201523360248201526020816044817f00000000000000000000000000000000000000000000000000000000000000006001600160a01b03165afa908115610881575f91612311575b5015611014576108b091613a08565b61232a915060203d6020116109695761095b8183610eb5565b5f612302565b346105595760203660031901126105595760043561234d816106d6565b604051632474521560e21b81527fb00be3d6a5434b97b328543d1486d56adcb7e74080170d1cdd7e0306c3d9ba3d60048201526001600160a01b03918216602482015290602090829060449082907f0000000000000000000000000000000000000000000000000000000000000000165afa80156108815761062b915f916123e3575b5060405190151581529081906020820190565b6123fc915060203d6020116109695761095b8183610eb5565b5f6123d0565b34610559576020366003190112610559576020610585600435612424816106d6565b613c2c565b3461055957602061058561243c36610c0e565b91613d04565b346105595760403660031901126105595760043561245f816106d6565b60243530158015612478575b6108b2576108b091613db0565b5061248760206108d730612e75565b03817f00000000000000000000000000000000000000000000000000000000000000006001600160a01b03165afa908115610881575f916124ca575b501561246b565b6124e3915060203d6020116109695761095b8183610eb5565b5f6124c3565b34610559575f366003190112610559576020611327613e0a565b604051906106f2604083610eb5565b6001600160401b038111610e9557601f01601f191660200190565b81601f820112156105595780359061254482612512565b926125526040519485610eb5565b8284526020838301011161055957815f926020809301838601378301015290565b3461055957606036600319011261055957600435602435612593816106d6565b604435906001600160401b0382116105595761062b9260206125bc61166a94369060040161252d565b604051918183925191829101835e81015f815203902060018060a01b0383167f38383a2eb7bd8ee888f12fb942a2e22e84f2d7240f1f8541ad4bbddace6e34425f80a3612edd565b34610559576126123661223c565b7f00000000000000000000000000000000000000000000000000000000000000006001600160a01b031661264a60206108d730612eaa565b0381855afa908115610881575f91612703575b50159081612687575b50612674576108b091613e5a565b6329068e8160e21b5f526108c5336107cf565b604051632474521560e21b81527f0d186688925976bbe6755ae984501c8e3e2b103a7af59fd803ab9c6d891ae7e060048201523360248201529150602090829060449082905afa908115610881575f916126e4575b50155f612666565b6126fd915060203d6020116109695761095b8183610eb5565b5f6126dc565b61271c915060203d6020116109695761095b8183610eb5565b5f61265d565b3461055957602036600319011261055957600435600e5481101561277c57600e5f527fbb7b4a454dc3493923482f07822329ed19e8244eff582cc204f8554c3620c3fd01546040516001600160a01b039091168152602090f35b61420e565b9081602091031261055957516105c2816106d6565b6040513d5f823e3d90fd5b90816020910312610559575180151581036105595790565b7f55435dd261a4b9b3364963f7738a7a662ad9c84396d64be3365284bb7f0a504181526001600160a01b03909116602082015260400190565b5f516020615f6b5f395f51905f5281526001600160a01b03909116602082015260400190565b6128206140ad565b60328111612859576020817f4f4bedc5354096786a0fb857b12fdd6488cc973b2348cedb78088bdceaa906b592600b55604051908152a1565b631c94cf1160e11b5f5260045260245ffd5b634e487b7160e01b5f52601160045260245ffd5b9060018201809211610b0157565b91908201809211610b0157565b6128a26140c8565b5c6128c7576002546128bb816128b6613021565b61308a565b8101809111610b015790565b60025490565b919060ff601054168015612908575b6128ef5763ec47ea8b60e01b5f5260045ffd5b612903926128fe8333836151ee565b61529e565b600190565b50600c546001600160a01b031633146128dc565b6001600160a01b03165f818152600f602052604090205490919015612980576129436140ad565b813b15610559575f91602483926040519485938492638665120360e01b845260048401525af18015610881576129765750565b5f6106f291610eb5565b50632767039f60e01b5f5260045260245ffd5b600161299d6140c8565b5d6129a9610aac613021565b506008546129bf906001600160a01b0316614244565b6129c76140ad565b8015612ae8576001600160a01b038316913383141580612a8e575b612a7a576129ef846137ba565b808311612a655750907f09fbb654e02253d6c37ecb473c5ed6f4557cac3fe5abc1d559523f6e257ee18591612a3982612a2781613fdc565b8097612a3282614417565b8433614505565b612a425f601455565b612a5160405192839283612af7565b0390a2612a5c6143d9565b906106f2613a31565b632e52afbb60e21b5f526108c5908386614400565b630c849df760e41b5f526108c58433613295565b50604051636eb1769f60e11b815260208180612aae3389600484016132ac565b0381305afa80156108815783915f91612ac9575b50106129e2565b612ae2915060203d6020116116a2576116948183610eb5565b5f612ac2565b632334425960e21b5f5260045ffd5b6001600160a01b039091168152602081019190915260400190565b90816020910312610559575190565b6008546040516278744560e21b81529190602090839060049082906001600160a01b03165afa918215610881575f92612b7d575b5060018060a01b03165f525f602052612b7160405f2054613fdc565b90818082109118021890565b612b9791925060203d6020116116a2576116948183610eb5565b905f612b55565b91908203918211610b0157565b600854612c009190612bc5906001600160a01b0316613f22565b600a5480821115612c6d57505060205f915b6040516370a0823160e01b81526001600160a01b03909116600482015292839081906024820190565b03817f00000000000000000000000000000000000000000000000000000000000000006001600160a01b03165afa908115610881576105c2925f92612c4c575b50808218908211021890565b612c6691925060203d6020116116a2576116948183610eb5565b905f612c40565b602091612c7991612b9e565b91612bd7565b60207f3ba130ec8df44f0a71243af1b7f9f4239616bafda97ae766b3c40a9d202b21a491612cab6140ad565b80600955604051908152a1565b612cc06140ad565b612cc8613021565b90612cd161289a565b907f00000000000000000000000000000000000000000000000000000000000000008111612d3457612d266020927f186e864438b783eec69fd7ce4871c28accfc0b45558ea08c48540f76094fecde94614101565b5080601155604051908152a1565b63ab9a408f60e01b5f5260045ffd5b90612d4c6140ad565b6001612d566140c8565b5d612d62610aac613021565b5060085492612d796001600160a01b0385166146f3565b50612d95611589612d898561405b565b95611589848888614882565b92604051916278744560e21b8352602083600481885afa9384156108815786935f95612e4c575b50612dcb83612dd19697614967565b33614505565b600854600490602090612dec906001600160a01b0316611589565b6040516278744560e21b815292839182905afa908115610881575f516020615f4b5f395f51905f5291612e39915f9161167a57506040805194855260208501919091523393918291820190565b0390a2612e446143d9565b6105c2613a31565b612dd1955083612e6d612dcb9260203d6020116116a2576116948183610eb5565b965050612dbc565b6040515f6020820190815260609290921b6001600160601b031916602182015260158152612ea4603582610eb5565b51902090565b604051600160f81b6020820190815260609290921b6001600160601b031916602182015260158152612ea4603582610eb5565b906001612ee86140c8565b5d612ef4610aac613021565b5060046020612f26611589600854612f1360018060a01b0382166146f3565b50612f1c6140ad565b61158933886149bc565b6040516278744560e21b815292839182905afa9081156108815783905f92612fe1575b50612f64612f799293612f5b83614084565b958691336149f8565b6008546115ea906001600160a01b0316611589565b600854600490602090612f94906001600160a01b0316611589565b6040516278744560e21b815292839182905afa908115610881575f516020615f4b5f395f51905f5291612a51915f9161167a57506040805194855260208501919091523393918291820190565b612f799250613001612f649160203d6020116116a2576116948183610eb5565b9250612f49565b6001600160a01b03165f90815260208190526040902090565b604051637aaceb9560e01b81526020816004817f00000000000000000000000000000000000000000000000000000000000000006001600160a01b03165afa908115610881575f91613071575090565b6105c2915060203d60201161087a5761086c8183610eb5565b61309660125442612b9e565b90811561311e576011546130b1670de0b6b3a7640000614bce565b1461311e576040516370a0823160e01b81526001600160a01b03919091166004820152602081602481305afa8015610881576105c2936130f8925f926130fd575b50612b9e565b614c12565b61311791925060203d6020116116a2576116948183610eb5565b905f6130f2565b5050505f90565b6008546040516278744560e21b815290602090829060049082906001600160a01b03165afa801561088157613161915f91613181575b5061405b565b9060018060a01b03165f525f60205260405f205490818082109118021890565b61319a915060203d6020116116a2576116948183610eb5565b5f61315b565b6131a86140ad565b6131b6611589611589613e0a565b604051630f07f82960e01b8152906020908290815f81613203307f00000000000000000000000000000000000000000000000000000000000000006001600160a01b0316600484016132ac565b03925af180156108815761323b915f91613276575b50600c80546001600160a01b0319166001600160a01b0392909216919091179055565b600c546040516001600160a01b0390911681527f8f407169a2fff9de40408b8d482b293eff9e2dbc448da0593fa9a39d428a410490602090a1565b61328f915060203d60201161087a5761086c8183610eb5565b5f613218565b6001600160a01b0390811660045216602452604490565b6001600160a01b0391821681529116602082015260400190565b6132ce6140ad565b6001600160a01b0381165f818152600f602052604090205490919015612980576132f781615602565b61331161330c6001600160a01b038316611589565b615a30565b50813b156105595760405163ebf3113160e01b81525f8160048183875af18015610881576133ea575b507f00000000000000000000000000000000000000000000000000000000000000006001600160a01b0316803b156105595760405163d55dd62b60e01b8152600260048201526001600160a01b039290921660248301525f908290604490829084905af18015610881576133d0575b507f66d72a91b52f63fb063c4f672763d7ef15ce4d7c9a268a7f9b5133e41c1709a55f80a2565b806133de5f6133e493610eb5565b8061054f565b5f6133a9565b806133de5f6133f893610eb5565b5f61333a565b919091600161340b6140c8565b5d613417610aac613021565b5060085461342d906001600160a01b0316614244565b6134356140ad565b61343e8161405b565b928315612ae8576001600160a01b0383169233841415806134ca575b6134b657613467816136c0565b8084116134a1575090612a3985848094612a327fd4383faec5079b2ec7ac0ff240326baa0d584b03d51b9742f7c1a034f6fc015b97614417565b633fa733bb60e21b5f526108c5918490614400565b638b27f8ed60e01b5f526108c59033613295565b50604051636eb1769f60e11b8152602081806134ea3386600484016132ac565b0381305afa80156108815786915f91613505575b501061345a565b61351e915060203d6020116116a2576116948183610eb5565b5f6134fe565b9060ff60105416801561354f575b6135455763ec47ea8b60e01b5f5260045ffd5b612903913361529e565b50600c546001600160a01b03163314613532565b6001600160a01b03165f818152600f6020526040902054909190156129805761358a6140ad565b813b15610559575f916024839260405194859384926361f5cd8b60e01b845260048401525af18015610881576129765750565b6135c56140ad565b60105460ff8116156135d45750565b60ff19166001176010557feadb24812ab3c9a55c774958184293ebdb6c7f6a2dbab11f397d80c86feb65d35f80a1565b600854613619906001600160a01b0316613f22565b600a5490818111156136ab57505061365860205f925b6040516370a0823160e01b81526001600160a01b03909116600482015291829081906024820190565b03817f00000000000000000000000000000000000000000000000000000000000000006001600160a01b03165afa8015610881576105c2926136a6925f92612c4c5750808218908211021890565b614084565b6136ba60209161365893612b9e565b9261362f565b6008546136d5906001600160a01b0316614cf7565b9060018060a01b03165f525f602052612b7160405f2054613fdc565b6001600160a01b03165f818152600f60205260409020541515908115613715575090565b6008546001600160a01b031614919050565b6001600160a01b03165f818152600f6020526040902054909190156129805761374e6140ad565b813b15610559575f9160248392604051948593849263497af41960e11b845260048401525af18015610881576129765750565b60207f4faeac5aec9fa2e6f82ae7ccfef27a03ca3ff9d8c5356fea9acb2caad1c4c344916137ad6140ad565b80600a55604051908152a1565b600854613161906136a6906001600160a01b0316614cf7565b6137db6140ad565b603c8110613835576201518081116138265760135460408051918252602082018390527f5953b565c074c2cce1866b4e69c9efc4908556bb6fca70f735907c94d940551591a1601355565b637092ddf560e01b5f5260045ffd5b63d93a8d8760e01b5f5260045ffd5b61384c6140ad565b6202a3008110613887576020817f3cf175d91d8c5823f3729423b5a64130e40d4b09e88c6dc1925a260f26818c2592600655604051908152a1565b63f710d83560e01b5f5260045ffd5b61389e6140ad565b6001600160a01b0381169081156139f9576138b8816136f1565b6139e6576040516338d52e0f60e01b8152602081600481865afa908115610881575f916139c7575b506040516338d52e0f60e01b8152602081600481305afa908115610881575f916139a8575b506001600160a01b0390811691160361399957813b1561055957604051634545ccbb60e11b81525f8160048183875af180156108815761395e926139599261158992613985575b506001600160a01b031690565b615ad1565b507fcb4a29d359e86f179111dcba8714def1a859612f729f2d224d13efeac51b36bc5f80a2565b806133de5f61399393610eb5565b5f61394c565b631692ea4f60e31b5f5260045ffd5b6139c1915060203d60201161087a5761086c8183610eb5565b5f613905565b6139e0915060203d60201161087a5761086c8183610eb5565b5f6138e0565b637eadea0960e11b5f526108c5906107cf565b63210e96cb60e01b5f5260045ffd5b90613a31916001613a176140c8565b5d613a23610aac613021565b50613a2c6140ad565b613a3d565b5f613a3a6140c8565b5d565b9190600b548111613c1a578015613c0b57600854613a63906001600160a01b0316611589565b926040516278744560e21b8152602081600481885afa908115610881575f91613bec575b506001600160a01b03909416935f90815b848110613ace57506106f29495505f8212613ab5575b5050614f46565b613ac1613ac792614e04565b906156c7565b5f80613aae565b86613ae86115896020613ae2858a8a614da5565b01614dc7565b148015613bd3575b613afd575b600101613a98565b9186613b126115896020613ae2878a8a614da5565b14906040613b21858888614da5565b01355f198114613b55575b60019215613b4657613b3d91614de9565b925b9050613af5565b613b4f91614dd1565b92613b3f565b508115613bc4576004916020613b7a611589611589613b75898c8c614da5565b614dc7565b6040516278744560e21b815294859182905afa8015610881576001935f91613ba6575b50909250613b2c565b613bbe915060203d81116116a2576116948183610eb5565b5f613b9d565b63055bb2a160e41b5f5260045ffd5b5086613be6611589613b75848989614da5565b14613af0565b613c05915060203d6020116116a2576116948183610eb5565b5f613a87565b6304dcdcd560e31b5f5260045ffd5b63899a5d8160e01b5f5260045260245ffd5b6040516278744560e21b815290602082600481305afa918215610881575f92613ce3575b50604051635ee6ec4160e11b8152916001600160a01b039190911690602083600481855afa92831561088157600493602092613c93925f92613cc4575b5061502f565b916040519384809263dbd5edc760e01b82525afa908115610881576105c2925f92612c4c5750808218908211021890565b613cdc919250843d86116116a2576116948183610eb5565b905f613c8d565b613cfd91925060203d6020116116a2576116948183610eb5565b905f613c50565b916001613d0f6140c8565b5d613d1b610aac613021565b50600854613d4c9061158990613d396001600160a01b0382166146f3565b50613d426140ad565b6115898487615043565b6040516278744560e21b81529390602085600481845afa92831561088157612dcb955f94613d8d575b50612f799394613d8484613fdc565b96878094614967565b612f799450613daa9060203d6020116116a2576116948183610eb5565b93613d75565b6001600160a01b03165f818152600f60205260409020549091901561298057613dd76140ad565b813b15610559575f91602483926040519485938492634fc7fac360e01b845260048401525af18015610881576129765750565b604051633df94cfb60e21b81526020816004817f00000000000000000000000000000000000000000000000000000000000000006001600160a01b03165afa908115610881575f91613071575090565b91906014549283420393428511610b0157601354809510613e8a5750613a31929350426014556001613a176140c8565b8490630924dbf160e21b5f526004526024524260445260645ffd5b604051602081017fa44c7cc604645fc9d906e0a5aeb821ecf76e473a1a4d03393ebd52161430e41a815260208252613ede604083610eb5565b9051902060ff191690565b604051602081017fa9898051640582db44f19359a5df62a03dbff55353a9f388ea332d75dfa80fa0815260208252613ede604083610eb5565b613f2a613ea5565b5c613fcf57613f4090613f3b61531d565b6150f8565b5f9190825b8151841015613fca5760046020613f756001600160a01b03613f678887614222565b51166001600160a01b031690565b6040516278744560e21b815292839182905afa801561088157600192613fa2925f92613faa575b5061288d565b930192613f45565b613fc391925060203d81116116a2576116948183610eb5565b905f613f9c565b925050565b50613fd8613ee9565b5c90565b600854613ff1906001600160a01b0316613f22565b9060018201809211610b015761400561289a565b60018101809111610b01576105c2925f92615190565b600854614030906001600160a01b0316613f22565b9060018201809211610b015761404461289a565b60018101809111610b01576105c292600192615190565b61406361289a565b9060018201809211610b0157600854614044906001600160a01b0316613f22565b61408c61289a565b9060018201809211610b0157600854614005906001600160a01b0316613f22565b60ff600554166140b957565b63d93c066560e01b5f5260045ffd5b604051602081017f4e71cabede5261c2c661c1a41d0d13331711e62f0548c4fdf8ade97c9c524d41815260208252613ede604083610eb5565b91906011541561415957614115908361308a565b918280614120575050565b61412d91426012556155b4565b7f698f29fe990d4e7770f7e74cd309da261dd03ca828f7bb3c2ea8b8c9adcc0ecd6020604051848152a1565b50426012555f9150565b604051602081017f98932279f8646d348f86cf154406d1fab3c6a0c52686d604c7d4a6a140038108815260208252613ede604083610eb5565b6001600160401b038111610e955760051b60200190565b906141bd8261419c565b6141ca6040519182610eb5565b82815280926141db601f199161419c565b01905f5b8281106141eb57505050565b6020906040516141fa81610e9a565b5f81525f83820152828285010152016141df565b634e487b7160e01b5f52603260045260245ffd5b805182101561277c5760209160051b010190565b5f198114610b015760010190565b61424c614163565b5c6143645761425a906146f3565b61426481516141b3565b905f915f905f5b8351811015614344576004602061429961158961158961428b868a614222565b51516001600160a01b031690565b60405163d570ee4760e01b815292839182905afa908115610881575f91614326575b50806142cb575b5060010161426b565b61431961431f918395976142e461428b6001968a614222565b6142fe6142ef612503565b6001600160a01b039092168252565b82602082015261430e8a88614222565b52613f9c8987614222565b95614236565b92906142c2565b61433e915060203d81116116a2576116948183610eb5565b5f6142bb565b5091506106f292614356918352615365565b61435f81615378565b61547a565b50565b604051602081017f410d83ac3c7a0c2a0669e43e3a5ca6694ee49455f748efa9954a95c3752e9fc8815260208252613ede604083610eb5565b604051602081017f2e756c3932ba771b80f1bae53d1177d9f7a4ced0ce66d74053b09f874cec6ffe815260208252613ede604083610eb5565b5f6143e2613ea5565b5d5f6143ec614163565b5d5f6143f6614367565b5d5f613a3a6143a0565b6001600160a01b0316600452602452604452606490565b61441f614367565b5c614429816141b3565b905f5b8181106144ac575050905f5b82518110156144a757602061444d8285614222565b51015182811061446d575061428b614468916106f294614222565b614967565b80939293614482575b50600101919091614438565b80829461449b6144a09361446861428b60019789614222565b612b9e565b9290614476565b505050565b806144c06001926144bb615441565b615960565b5c6144cd826144bb615408565b5c604051916144db83610e9a565b848060a01b0316825260208201526144f38286614222565b526144fe8185614222565b500161442c565b6001600160a01b03808416959082169390929183878603614670575b5050851561465d578561460057509060025491818301809311610b01577ffbde797d201c681b91056529119e0b02407c7bb96a4a2c75c01fc9667232c8db926002555b81600254036002555f865f516020615f8b5f395f51905f5260405180602081018782520390a360405163a9059cbb60e01b60208201526145e4906145be816145b0898660248401612af7565b03601f198101835282610eb5565b7f0000000000000000000000000000000000000000000000000000000000000000615980565b6040805195865260208601929092526001600160a01b031693a4565b61460981613008565b548381106146475790614641847ffbde797d201c681b91056529119e0b02407c7bb96a4a2c75c01fc9667232c8db9594930391613008565b55614564565b63391434e360e21b5f526108c591849190614400565b634b637e8f60e11b5f525f60045260245ffd5b61467a91836151ee565b5f83614521565b6007546006548101809111610b015742106146e45760055460ff8116156146d55760ff19166005557f5db9ee0a495bf2e6ff9c91a7834c1ba4fdd244a5e8aa4e537bd38aeae4b073aa6020604051338152a1565b638dfc202b60e01b5f5260045ffd5b6304a59e3b60e01b5f5260045ffd5b6146fb613ea5565b5c6148795761470861531d565b61471a614715825161287f565b6141b3565b925f90815b83518310156147cf576004602061474c61158961158961473f888a614222565b516001600160a01b031690565b6040516278744560e21b815292839182905afa8015610881576001926147a7925f926147af575b5061478161473f8789614222565b61478c6142ef612503565b82602082015261479c878b614222565b52613f9c868a614222565b92019161471f565b6147c891925060203d81116116a2576116948183610eb5565b905f614773565b6040516278744560e21b815291949192506001600160a01b0390911690602083600481855afa9182156108815761484994614844945f94614852575b5090613f9c9161482b61481c612503565b6001600160a01b039093168352565b846020830152519061483d828a614222565b5287614222565b615584565b6106f282615597565b613f9c929194506148719060203d6020116116a2576116948183610eb5565b93909161480b565b506105c261550f565b908015612ae857336001600160a01b038416141590816148e0575b506148cc576148ab82612b21565b918282116148b857505050565b633fa733bb60e21b5f526108c59350614400565b638b27f8ed60e01b5f526108c58233613295565b604051636eb1769f60e11b8152909150602081806149023388600484016132ac565b0381305afa908115610881575f9161491d575b50105f61489d565b614936915060203d6020116116a2576116948183610eb5565b5f614915565b6040519061494b602083610eb5565b5f8252565b6040906105c293928152816020820152019061058d565b60018060a01b03169060405161497e602082610eb5565b5f8152823b15610559576149ab925f9283604051809681958294630278811f60e31b845260048401614950565b03925af18015610881576129765750565b8015612ae8576149cb82612bab565b918282116149d857505050565b633c8097d960e11b5f5260018060a01b031660045260245260445260645ffd5b6040516323b872dd60e01b60208201526001600160a01b03909116602482018190523060448301526064808301859052825292937fdcbc1c05240f31ff3ad067ef1ee35ce4997762752e3a095284754544f4c709d7929091614a5f906145be608482610eb5565b614a6982826155b4565b6040805195865260208601929092526001600160a01b031693a3565b60405163095ea7b360e01b60208083019182527f00000000000000000000000000000000000000000000000000000000000000006001600160a01b031692915f90614ae684614ad8898960248401612af7565b03601f198101865285610eb5565b83519082865af15f51903d81614bab575b501590505b614b5e575b50506001600160a01b031690614b1561493c565b823b1561055957614b3f925f9283604051809681958294632db6d39960e01b845260048401614950565b03925af1801561088157614b505750565b806133de5f6106f293610eb5565b60405163095ea7b360e01b60208201526001600160a01b03841660248201525f6044820152614ba49290614b9f90614b9981606481016145b0565b82615980565b615980565b5f80614b01565b15159050614bc25750614afc823b15155b5f614af7565b6001614afc9114614bbc565b905f911560011715610b0157565b81810292918115918404141715610b0157565b634e487b7160e01b5f52601260045260245ffd5b8115614c0d570490565b614bef565b614c39906301e13380614c3268056bc75e2d631000009460115490614bdc565b0490614bdc565b0490565b614c456140ad565b600160ff1960055416176005557f62e78cea01bee320cd4e420270b5ea74000d11b0c9f74754ebdbfc544b05a2586020604051338152a142600755565b8015612ae857614c9182613604565b91828211614c9e57505050565b63284ff66760e01b5f5260018060a01b031660045260245260445260645ffd5b604051602081017f3d5fcbe10cf86b117683d0d4967b64a0c0fa4bdda7d07499d3c9dc5e388b6940815260208252613ede604083610eb5565b905f91614d02614163565b5c614d9a57614d1390613f3b61531d565b5f5b8151811015614d965760046020614d3261158961473f8587614222565b60405163d570ee4760e01b815292839182905afa908115610881575f91614d78575b5080614d64575b50600101614d15565b614d71906001929561288d565b9390614d5b565b614d90915060203d81116116a2576116948183610eb5565b5f614d54565b5050565b509050613fd8614cbe565b919081101561277c5760051b81013590609e1981360301821215610559570190565b356105c2816106d6565b81810392915f138015828513169184121617610b0157565b9190915f8382019384129112908015821691151617610b0157565b600160ff1b8114610b01575f0390565b9035601e19823603018112156105595701602081359101916001600160401b03821161055957813603831361055957565b908060209392818452848401375f828201840152601f01601f1916010190565b82602082016020835252604081019260408160051b83010193835f91609e1982360301945b848410614e9b575050505050505090565b90919293949596603f19828203018352873587811215610559576020614f3560019387839401908135614ecd816106d6565b868060a01b0316815283820135614ee3816106d6565b868060a01b03168482015260408201356040820152614f27614f1c614f0b6060850185614e14565b60a0606086015260a0850191614e45565b926080810190614e14565b916080818503910152614e45565b990193019401929195949390614e8a565b905f5b818110614f895750614f847f507d790d4c0157977bb25bd8941f5f91c3118eab68b257c1d1c0825cb0051fd991604051918291339583614e65565b0390a2565b614f94818385614da5565b9060a0823603126105595760405191614fac83610e7a565b8035614fb7816106d6565b8352614fc5602082016106e7565b60208401526040810135604084015260608101356001600160401b03811161055957614ff4903690830161252d565b60608401526080810135926001600160401b0384116105595761501f6150299260019536910161252d565b6080820152615701565b01614f49565b68056bc75e2d6310000091614c3991614bdc565b8015612ae857336001600160a01b03831614158061509e575b61508a5761506982613125565b9182821161507657505050565b632e52afbb60e21b5f526108c59350614400565b630c849df760e41b5f526108c58233613295565b50604051636eb1769f60e11b8152602081806150be3387600484016132ac565b0381305afa80156108815782915f916150d9575b501061505c565b6150f2915060203d6020116116a2576116948183610eb5565b5f6150d2565b9182519060018201809211610b01576151108261419c565b9161511e6040519384610eb5565b80835261512d601f199161419c565b013660208401375f5b8451811015615170576001906001600160a01b036151548288614222565b51166151608286614222565b90838060a01b0316905201615136565b5092615180909291925183614222565b6001600160a01b03909116905290565b919061519d828285615875565b9360048110156151da5760018091161492836151c5575b50505015158101809111610b015790565b909180935015614c0d570915155f80806151b4565b634e487b7160e01b5f52602160045260245ffd5b6001600160a01b03165f81815260016020526040902091929091615221908460018060a01b03165f5260205260405f2090565b5460018101615231575b50505050565b81811061527d57821561079e576001600160a01b0384161561078b57615273925f526001602052039160405f209060018060a01b03165f5260205260405f2090565b555f80808061522b565b83637dc7a0d960e11b5f5260018060a01b031660045260245260445260645ffd5b916001600160a01b03831691821561465d576001600160a01b03811693841561530a576152ca81613008565b5483811061464757916152f8916152f2855f516020615f8b5f395f51905f5296950391613008565b55613008565b805482019055604051908152602090a3565b63ec442f0560e01b5f525f60045260245ffd5b60405190600e548083528260208101600e5f5260205f20925f5b81811061534c5750506106f292500383610eb5565b8454835260019485019487945060209093019201615337565b61536d614cbe565b5d6001613a3a614163565b905f905b82518210156154035760018201808311610b01575b83518110156153f85760019060206153a98587614222565b51015160206153b88388614222565b510151106153c7575b01615391565b6153d18186614222565b516153dc8587614222565b516153e78388614222565b526153f28587614222565b526153c1565b50906001019061537c565b915050565b604051602081017f8f2b8f2fcb6f2e256bfd8c09fcca564574482705250cb5c8dbe56c4f4fce37c8815260208252613ede604083610eb5565b604051602081017f05abb041f8dc8945baa4f2792e2109e9d9e22dea3aa665ccf2f030209c7415ad815260208252613ede604083610eb5565b6106f290615486615408565b61548e615441565b90615497614367565b92615907565b604051602081017fb4b00da68d43fac77a22bb187c63cb88989e294cfebeb79b3789ae1629639d98815260208252613ede604083610eb5565b604051602081017f5720a3c83eb8242bbe1a4159c3b45ed663cd9e207a02bdea64844c6c583da9dd815260208252613ede604083610eb5565b6155176143a0565b5c90615522826141b3565b915f5b818110615530575050565b8061553f6001926144bb61549d565b5c61554c826144bb6154d6565b5c6040519161555a83610e9a565b848060a01b0316825260208201526155728287614222565b5261557d8186614222565b5001615525565b61558c613ee9565b5d6001613a3a613ea5565b6106f2906155a36154d6565b6155ab61549d565b906154976143a0565b6001600160a01b0381169190821561530a5760025490828201809211610b01575f926155f36020925f516020615f8b5f395f51905f5294600255613008565b818154019055604051908152a3565b60405163dbd5edc760e01b81526001600160a01b03821690602081600481855afa908115610881575f916156a8575b50615695576020600491604051928380926278744560e21b82525afa908115610881575f91615676575b506156635750565b63ca4a18b360e01b5f526108c5906107cf565b61568f915060203d6020116116a2576116948183610eb5565b5f61565b565b632a4d8fbb60e01b5f526108c5826107cf565b6156c1915060203d6020116116a2576116948183610eb5565b5f615631565b90600954808311156156f2578203918211610b0157116156e357565b633b5391f960e01b5f5260045ffd5b63ff105df960e01b5f5260045ffd5b60208101805191929161571c906001600160a01b0316611589565b8351909390615733906001600160a01b0316611589565b9160408201515f1981145f1461585557506040516278744560e21b81526020816004816001600160a01b0388165afa80156108815761579a915f91615836575b5080925b8451615794906001600160a01b031691516001600160a01b031690565b90615b3a565b6157a385613c2c565b6040516278744560e21b81526001600160a01b03909616956020816004818a5afa801561088157836157dd9184935f91615817575061288d565b116158035750606082015160809092015193946106f294936001600160a01b0316615c90565b6316e05b4760e21b5f526108c59186614400565b615830915060203d6020116116a2576116948183610eb5565b5f613f9c565b61584f915060203d6020116116a2576116948183610eb5565b5f615773565b61579a908092615777565b805482101561277c575f5260205f2001905f90565b91818302915f19818509938380861095039480860395146158fa57848311156158ed5790829109815f0382168092046002816003021880820260020302808202600203028082026002030280820260020302808202600203028091026002030293600183805f03040190848311900302920304170290565b6011600384150218615d1d565b5050906105c29250614c03565b91935f5b8351811015615957578061592160019285615960565b602061592d8388614222565b510151905d61593c8188615960565b828060a01b0361594c8388614222565b515116905d0161590b565b5093505051905d565b906040519060208201928352604082015260408152612ea4606082610eb5565b905f602091828151910182855af115612796575f513d6159cf57506001600160a01b0381163b155b6159af5750565b635274afe760e01b5f9081526001600160a01b0391909116600452602490fd5b600114156159a8565b916159f19183549060031b91821b915f19901b19161790565b9055565b80548015615a1c575f190190615a0b8282615860565b8154905f199060031b1b1916905555565b634e487b7160e01b5f52603160045260245ffd5b5f818152600f6020526040902054908115615acb575f19820190828211610b0157600e545f19810193908411610b015783835f95615a8a9503615a90575b505050615a7b600e6159f5565b600f905f5260205260405f2090565b55600190565b615a7b615abc91615ab2615aa8615ac295600e615860565b90549060031b1c90565b928391600e615860565b906159d8565b555f8080615a6e565b50505f90565b5f818152600f6020526040902054615b3557600e54600160401b811015610e9557615b1e615b08826001859401600e55600e615860565b819391549060031b91821b915f19901b19161790565b9055600e54905f52600f60205260405f2055600190565b505f90565b90918015615c7d576001600160a01b0383168015615c6a576001600160a01b03831615615c5757615b71615b6d856136f1565b1590565b615c4457615b81615b6d846136f1565b615c315760206004916040519283809263dbd5edc760e01b82525afa908115610881575f91615c12575b5015615bff57615bbc908383615e11565b9190949293828211615beb57505050828211615bd757505050565b63016b606760e21b5f526108c59350614400565b637d7bf8e160e01b5f526108c59350614400565b630b9cb3f960e11b5f526108c5836107cf565b615c2b915060203d6020116116a2576116948183610eb5565b5f615bab565b63c80e655f60e01b5f526108c5836107cf565b63c80e655f60e01b5f526108c5846107cf565b632767039f60e01b5f526108c5836107cf565b632767039f60e01b5f526108c5846107cf565b630a16952b60e21b5f526108c5836107cf565b9192916001600160a01b031690813b15610559575f8094615cf7615ce5976040519889978896879563c38a6f0b60e01b8752600487015260018060a01b0316602486015260806044860152608485019061058d565b8381036003190160648501529061058d565b03925af1801561088157615d085750565b80615d145f8093610eb5565b80031261055957565b634e487b715f526020526024601cfd5b604051602081017fd6ca653d633b7805e7a09d886857226f949d3ea7294700814274fe35008a00e0815260208252613ede604083610eb5565b604051602081017f546815194d984b29286d5b6f432093bc0b41f225a5a8e27984a1c97f6c2c975e815260208252613ede604083610eb5565b604051602081017fd06b3f94ec7e002c6893cd0c8991bb46b1dd8a8de8b084874f6c9702acf78346815260208252613ede604083610eb5565b604051602081017f880bdf4b1569fe9025df88e4aa4034209a7b27fcb16c5e9fc1f6231643aa93e4815260208252613ede604083610eb5565b9290615e31615e1e615d2d565b6001600160a01b03909216918290615960565b91615e50615e3d615d66565b6001600160a01b03909616958690615960565b92615e5d836144bb615d9f565b93615e6a876144bb615dd8565b855c95815c958715615ef6575b50508415615ea2575b50615e9b9650615e9186835c61288d565b968796825c61288d565b9586925d5d565b93506020600497604051988980926318ca2a4f60e11b82525afa801561088157615e9b975f91615ed7575b5080945d5f615e80565b615ef0915060203d6020116116a2576116948183610eb5565b5f615ecd565b60405163ad5a356f60e01b8152919750602090829060049082905afa908115610881575f91615f2b575b5080965d5f80615e77565b615f44915060203d6020116116a2576116948183610eb5565b5f615f2056fee68a55afda2dca8343871fe0e5575a383291a40ae7d53e4dee12faf79cde144e7935bd0ae54bc31f548c14dba4d37c5c64b3f8ca900cb468fb8abd54d5894f55ddf252ad1be2c89b69c2b068fc378daa952ba7f163c4a11628f55a4df523b3efa2646970667358221220d563a2e3f9454f46904bc4f371a96bf90293273ee439ff551b1f2450eb1c948664736f6c634300081c003360c0806040523461062e576126bf803803809161001c8285610674565b8339810160408282031261062e5781516001600160401b03811161062e5782016101408183031261062e576040519161005483610658565b81516001600160401b03811161062e5781610070918401610697565b83526020820151906001600160401b03821161062e57610091918301610697565b90602083019182526100a5604082016106ec565b918260408501526100b8606083016106ec565b938460608201526100cb608084016106ec565b936080820194855260a08401519460a0830195865260c08501519060c0840191825260e08601519260e08501938452610129602061012061010f6101008b01610700565b9961010089019a8b5201519b61012088019c8d52016106ec565b986001600160a01b0390811691168015610645576040516301ffc9a760e01b815263261c910560e21b6004820152602081602481855afa90811561063a575f916105fc575b50156105ea5760805280156105db5760a05280516001600160a01b0316156105cc57835151156105bd576001600160a01b036101a861070d565b16156105ae5768056bc75e2d6310000089511161059f57516001600160a01b03166101d161070d565b9651915192519351945195511515985196610120604051916101f283610658565b5f8084526001600160a01b03919091166020840181905260408401859052606084018690526080840187905260a0840188905260c0840189905260e08401998a5261010084019c8d529190920198895281546001600160a01b031990811690925560018054831690911790556002805490911690911790556003556004556005558051906001600160401b0382116104a25760065490600182811c92168015610595575b60208310146104845781601f849311610527575b50602090601f83116001146104c1575f926104b6575b50508160011b915f199060031b1c1916176006555b5180519093906001600160401b0381116104a257600754600181811c91168015610498575b602082101461048457601f8111610421575b50602094601f82116001146103be579481929394955f926103b3575b50508160011b915f199060031b1c1916176007555b51151560ff8019600854169116176008555160095560018060a01b031660018060a01b03195f5416175f55604051611f44908161077b82396080518181816103350152610aa0015260a0518181816101d60152818161060901528181610bed0152818161145e015281816114ec0152611c510152f35b015190505f80610328565b601f1982169560075f52805f20915f5b888110610409575083600195969798106103f1575b505050811b0160075561033d565b01515f1960f88460031b161c191690555f80806103e3565b919260206001819286850151815501940192016103ce565b60075f527fa66cc928b5edb82af9bd49922954155ab7b0942694bea4ce44661d9a8736c688601f830160051c8101916020841061047a575b601f0160051c01905b81811061046f575061030c565b5f8155600101610462565b9091508190610459565b634e487b7160e01b5f52602260045260245ffd5b90607f16906102fa565b634e487b7160e01b5f52604160045260245ffd5b015190505f806102c0565b60065f9081528281209350601f198516905b81811061050f57509084600195949392106104f7575b505050811b016006556102d5565b01515f1960f88460031b161c191690555f80806104e9565b929360206001819287860151815501950193016104d3565b60065f529091507ff652222313e28459528d920b65115c16c04f3efc82aaedc97be59f3f377c0d3f601f840160051c8101916020851061058b575b90601f859493920160051c01905b81811061057d57506102aa565b5f8155849350600101610570565b9091508190610562565b91607f1691610296565b634ef9dfe360e01b5f5260045ffd5b633a4f9cdb60e21b5f5260045ffd5b63268c072960e01b5f5260045ffd5b637ff57ef160e11b5f5260045ffd5b63f1634df960e01b5f5260045ffd5b6347bd7c1d60e01b5f5260045260245ffd5b90506020813d602011610632575b8161061760209383610674565b8101031261062e5761062890610700565b5f61016e565b5f80fd5b3d915061060a565b6040513d5f823e3d90fd5b6347bd7c1d60e01b5f525f60045260245ffd5b61014081019081106001600160401b038211176104a257604052565b601f909101601f19168101906001600160401b038211908210176104a257604052565b81601f8201121561062e578051906001600160401b0382116104a257604051926106cb601f8401601f191660200185610674565b8284526020838301011161062e57815f9260208093018386015e8301015290565b51906001600160a01b038216820361062e57565b5190811515820361062e57565b60a051604051628bec5760e51b815290602090829060049082906001600160a01b03165afa90811561063a575f91610743575090565b90506020813d602011610772575b8161075e60209383610674565b8101031261062e5761076f906106ec565b90565b3d915061075156fe60806040526004361015610011575f80fd5b5f5f3560e01c806301e1d1141461191c57806306fdde0314611901578063117d8ae0146118d557806313c408f81461186757806324ea54f41461182d5780632db6d3991461166f578063303dbaf31461164d5780633194549e14611630578063372709361461160957806338d52e0f146115e15780634fc7fac31461156b578063565974d3146115385780635b0f83f3146114c757806361d027b31461143957806361f5cd8b146113cf57806366e943f11461139557806369b3054b14611334578063780469bb14610cea57806379502c5514610c395780637aaceb9514610bc75780638665120314610b6e5780638a8b997614610a3757806392f5e832146109cb578063a89f38a314610990578063ad5a356f14610972578063bdcdd88214610954578063c0b534c214610919578063c38a6f0b146107b2578063c3f909d414610638578063c9c667e3146105f3578063ccc57490146105b8578063ce5c7f61146103ec578063d570ee47146103c9578063dbd5edc7146103ab578063ebc136d0146102cb578063ebf311311461025e5763f7e533ec146101b1575f80fd5b3461025b578060031936011261025b57604051633df94cfb60e21b81526020816004817f00000000000000000000000000000000000000000000000000000000000000006001600160a01b03165afa9081156102505760209291610223575b506040516001600160a01b039091168152f35b6102439150823d8411610249575b61023b81836119ec565b810190611c1e565b5f610210565b503d610231565b6040513d84823e3d90fd5b80fd5b503461025b578060031936011261025b5780546001600160a01b03811633036102bc576001600160a01b03191681556040513381527f7cb941d7b1708e5b3bcd35ca960d6c6311188cec18886e5b67630552676b048790602090a180f35b63430da47160e01b8252600482fd5b503461025b57602036600319011261025b576004356001600160a01b038116908190036103a757604051632474521560e21b81527fb00be3d6a5434b97b328543d1486d56adcb7e74080170d1cdd7e0306c3d9ba3d600482015260248101919091526020816044817f00000000000000000000000000000000000000000000000000000000000000006001600160a01b03165afa908115610250576020929161037a575b506040519015158152f35b61039a9150823d84116103a0575b61039281836119ec565b810190611cc3565b5f61036f565b503d610388565b5080fd5b503461025b578060031936011261025b576020600354604051908152f35b503461025b578060031936011261025b5760206103e4611d03565b604051908152f35b503461025b57602036600319011261025b576004356001600160401b0381116103a75761041d90369060040161195a565b5050604051628bec5760e51b8152602081600481305afa908115610250578291610599575b506001600160a01b031633036105865761045a611d19565b604051808091606051608090855b8181106105645750505003902060405180606051608090855b81811061054e575050508190039020916040519283927f3e3e7958121b3e39c7a49392d1aa9cdce870c2a059744f9e15cf66fff78654558380a3805f516020611eef5f395f51905f525d6040820190604083526060518092526060830191608090825b81811061052c57505050828203602084015260206060519283815201916080915b818110610513575050500390f35b8251845285945060209384019390920191600101610505565b82516001600160a01b03168552869550602094850194909201916001016104e4565b8251845260209384019390920191600101610481565b82516001600160a01b0316845285945060209384019390920191600101610468565b631184b31b60e21b815233600452602490fd5b6105b2915060203d6020116102495761023b81836119ec565b5f610442565b503461025b578060031936011261025b5760206040517f7935bd0ae54bc31f548c14dba4d37c5c64b3f8ca900cb468fb8abd54d5894f558152f35b503461025b578060031936011261025b576040517f00000000000000000000000000000000000000000000000000000000000000006001600160a01b03168152602090f35b503461025b578060031936011261025b5780610120604051610659816119d0565b8281528260208201528260408201528260608201528260808201528260a0820152606060c0820152606060e08201528261010082015201526040519061069e826119d0565b546001600160a01b03908116825260015481166020830190815260025490911660408301908152600354606084019081526004546080850190815260055460a0860190815293949391929161079d9190610789906106fa611a24565b9060c0880191825261070a611b06565b60e089810191825260085460ff1615156101008b019081526009546101208c019081526040805160208082529d516001600160a01b039081169e82019e909e529d518d16908e01529851909a1660608c0152975160808b0152935160a08a01525160c08901525161014095880195909552869594610160870190611936565b9051858203601f1901610100870152611936565b91511515610120840152516101408301520390f35b503461025b57608036600319011261025b576004356107cf6119ba565b6044356001600160401b0381116108fa576107ee90369060040161195a565b6064939193356001600160401b0381116109155761081090369060040161195a565b86549091906001600160a01b031633036109025786929161083091611d4e565b6002546001600160a01b031693610848848287611dd9565b6001600160a01b031694853b156108fe5781606484926040519485938492632db6d39960e01b845289600485015260406024850152816044850152848401378181018301859052601f01601f1916810103018183895af18015610250576108e5575b50506108df7f9f784fc02a186f1c98b2d9f15fda084da27cdd291a3785d978f91911d880516b91604051918291309583611ca8565b0390a380f35b816108ef916119ec565b6108fa57835f6108aa565b8380fd5b8280fd5b631564c0e160e11b875233600452602487fd5b8580fd5b503461025b578060031936011261025b5760206040517f025d8bbf3268be680d2605ebf6da15063b9915615bf1087dab336efc1bf970cb8152f35b503461025b578060031936011261025b576020600954604051908152f35b503461025b578060031936011261025b576020600554604051908152f35b503461025b578060031936011261025b5760206040517fb00be3d6a5434b97b328543d1486d56adcb7e74080170d1cdd7e0306c3d9ba3d8152f35b503461025b57602036600319011261025b578054600435906001600160a01b03163303610a24576020817fb6ac66853c4e59c71e118d25ab494bb847c4e5eb0c8894898c5343e6f61afc1292600555604051908152a180f35b631564c0e160e11b825233600452602482fd5b503461025b578060031936011261025b57604051600160f91b602082019081523060601b6001600160601b03191660218301526015825290610a7a6035826119ec565b519020604051632474521560e21b815260048101919091523360248201526020816044817f00000000000000000000000000000000000000000000000000000000000000006001600160a01b03165afa908115610250578291610b4f575b5015610b3c5780546001600160a01b038116610b2d576001600160a01b0319163390811782556040519081527f55489ce0259bd691120d8860861be1c401c7c16a3cd268d21045756af4ecc5ca90602090a180f35b636a79b97d60e11b8252600482fd5b631564c0e160e11b815233600452602490fd5b610b68915060203d6020116103a05761039281836119ec565b5f610ad8565b503461025b57602036600319011261025b578054600435906001600160a01b03163303610a24576020817f333b26cca69716ad4680ddb07663f5bfb4f06045671f336af9a83690a3ae00f992600355604051908152a180f35b503461025b578060031936011261025b57604051637aaceb9560e01b81526020816004817f00000000000000000000000000000000000000000000000000000000000000006001600160a01b03165afa908115610250576020929161022357506040516001600160a01b039091168152f35b503461025b578060031936011261025b57546001546002546003546004546005546001600160a01b0394851695851694929390921691610cd79190610cc990610c80611a24565b90610c89611b06565b9360ff6008541697600954976040519b8c9b8c5260208c015260408b015260608a0152608089015260a088015261014060c0880152610140870190611936565b9085820360e0870152611936565b9115156101008401526101208301520390f35b5034610f8f576020366003190112610f8f576004356001600160401b038111610f8f5736602382011215610f8f578060040135610d2681611a0d565b91610d3460405193846119ec565b8183526024602084019260051b82010190368211610f8f57602401915b818310611314575050604051628bec5760e51b81529050602081600481305afa9081156111fa575f916112f5575b506001600160a01b031633036112e257610d97611d19565b8051610dbb610da582611a0d565b91610db360405193846119ec565b808352611a0d565b602082019290601f1901368437805193610ded610dd786611a0d565b95610de560405197886119ec565b808752611a0d565b6020860190601f19013682376002545f5460405163c8169aa160e01b81526001600160a01b0392831692909160209183916004918391165afa9081156111fa575f916112c3575b506040516370a0823160e01b8152306004820152602081602481865afa9081156111fa575f91611291575b5015158061127e575b611108575b5050815b8351811015610fe45760249060206001600160a01b03610e918388611cdb565b5116604051938480926370a0823160e01b82523060048301525afa918215610fd9578492610fa6575b5081610ecb575b6001915001610e71565b6001600160a01b03610edd8287611cdb565b5116916024610eea611c3d565b9360206001600160a01b03610eff868b611cdb565b5116604051938480926370a0823160e01b82523060048301525afa918215610f9b578792610f63575b5090600194610f3692611d9f565b828060a01b03610f468388611cdb565b5116610f528389611cdb565b52610f5d828a611cdb565b52610ec1565b91506020823d8211610f93575b81610f7d602093836119ec565b81010312610f8f579051906001610f28565b5f80fd5b3d9150610f70565b6040513d89823e3d90fd5b9091506020813d8211610fd1575b81610fc1602093836119ec565b81010312610f8f5751905f610eba565b3d9150610fb4565b6040513d86823e3d90fd5b5085908492866040518086518390855b8181106110e9575050508190039020936040518082518690865b8181106110d3575050508190039020956040519687967f46b8771620f6acf56cb03d3e835ea8024c7dcbcf05fcc3f6ade9e19d1a3e212b8680a3835f516020611eef5f395f51905f525d60408601906040875251809152606086019290845b8181106110b1575050506020908583038287015251918281520192915b818110611098575050500390f35b825184528594506020938401939092019160010161108a565b82516001600160a01b031685528897506020948501949092019160010161106d565b825184526020938401939092019160010161100e565b82516001600160a01b0316845260209384019390920191600101610ff4565b6040516370a0823160e01b8152306004820152602081602481865afa9081156111fa575f9161124b575b508161114360209260249486611dd9565b6040516370a0823160e01b81523060048201526001600160a01b0391909116939092839182905afa9081156111fa575f91611219575b50604051602081018181106001600160401b03821117611205576040525f8152823b15610f8f576111d0925f9283604051809681958294632db6d39960e01b84526004840152604060248401526044830190611936565b03925af180156111fa576111e5575b80610e6d565b6111f29192505f906119ec565b5f905f6111df565b6040513d5f823e3d90fd5b634e487b7160e01b5f52604160045260245ffd5b90506020813d602011611243575b81611234602093836119ec565b81010312610f8f57515f611179565b3d9150611227565b90506020813d602011611276575b81611266602093836119ec565b81010312610f8f57516024611132565b3d9150611259565b50306001600160a01b0382161415610e68565b90506020813d6020116112bb575b816112ac602093836119ec565b81010312610f8f57515f610e5f565b3d915061129f565b6112dc915060203d6020116102495761023b81836119ec565b5f610e34565b631184b31b60e21b5f523360045260245ffd5b61130e915060203d6020116102495761023b81836119ec565b5f610d7f565b82356001600160a01b0381168103610f8f57815260209283019201610d51565b34610f8f576040366003190112610f8f576004356003811015610f8f5760209061135c6119ba565b604051908382019260f81b835260018060601b03199060601b1660218201526015815261138a6035826119ec565b519020604051908152f35b34610f8f575f366003190112610f8f5760206040517f0d186688925976bbe6755ae984501c8e3e2b103a7af59fd803ab9c6d891ae7e08152f35b34610f8f576020366003190112610f8f575f54600435906001600160a01b03163303611426576020817ffbe2d5c01ea8ba5596d6c4e6c82c6d4a0a0ee1128689993a4a5ba0169273d69f92600455604051908152a1005b631564c0e160e11b5f523360045260245ffd5b34610f8f575f366003190112610f8f576040516361d027b360e01b81526020816004817f00000000000000000000000000000000000000000000000000000000000000006001600160a01b03165afa80156111fa576020915f916114aa57506040516001600160a01b039091168152f35b6114c19150823d84116102495761023b81836119ec565b82610210565b34610f8f575f366003190112610f8f57604051635b0f83f360e01b81526020816004817f00000000000000000000000000000000000000000000000000000000000000006001600160a01b03165afa80156111fa576020915f916114aa57506040516001600160a01b039091168152f35b34610f8f575f366003190112610f8f57611567611553611b06565b604051918291602083526020830190611936565b0390f35b34610f8f576020366003190112610f8f575f54600435906001600160a01b031633036114265768056bc75e2d6310000081116115d2576020817fd3c6d0ab315f2f1352f036cd9f401b49e38e1b90907e195225e8105f9a0b6f0292600955604051908152a1005b634ef9dfe360e01b5f5260045ffd5b34610f8f575f366003190112610f8f576002546040516001600160a01b039091168152602090f35b34610f8f575f366003190112610f8f575f546040516001600160a01b039091168152602090f35b34610f8f575f366003190112610f8f576020600454604051908152f35b34610f8f575f366003190112610f8f57602060ff600854166040519015158152f35b34610f8f5761167d36611987565b611685611d19565b604051631b93849b60e11b8152602081600481305afa9081156111fa575f9161180e575b506001600160a01b0316338103611752575b506116c591611d4e565b7fcbaa1442ac205415c9d69643e7b60ec73d1de35dbc807c21ec288c70ddc4207b61173d60018060a01b03600254169261172f6040516323b872dd60e01b6020820152336024820152306044820152826064820152606481526117296084826119ec565b85611e96565b604051918291339583611ca8565b0390a25f5f516020611eef5f395f51905f525d005b604051628bec5760e51b8152602081600481305afa9081156111fa575f916117ef575b506001600160a01b031633146116bb5760206024916040519283809263d206a05960e01b82523360048301525afa9081156111fa575f916117d0575b50156117bd57836116bb565b638f7a567d60e01b5f523360045260245ffd5b6117e9915060203d6020116103a05761039281836119ec565b846117b1565b611808915060203d6020116102495761023b81836119ec565b85611775565b611827915060203d6020116102495761023b81836119ec565b846116a9565b34610f8f575f366003190112610f8f5760206040517f55435dd261a4b9b3364963f7738a7a662ad9c84396d64be3365284bb7f0a50418152f35b34610f8f5761187536611987565b5f546001600160a01b031633036114265761189791611892611d19565b611d4e565b6002546001600160a01b0316907fd5e872c5ecfb1bb8820b2e6a20e31b883682282da886621541f71e31ec11947e9061173d9061172f813386611d9f565b34610f8f575f366003190112610f8f5760206118ef611c3d565b6040516001600160a01b039091168152f35b34610f8f575f366003190112610f8f57611567611553611a24565b34610f8f575f366003190112610f8f5760206103e4611bb2565b805180835260209291819084018484015e5f828201840152601f01601f1916010190565b9181601f84011215610f8f578235916001600160401b038311610f8f5760208381860195010111610f8f57565b906040600319830112610f8f5760043591602435906001600160401b038211610f8f576119b69160040161195a565b9091565b602435906001600160a01b0382168203610f8f57565b61014081019081106001600160401b0382111761120557604052565b90601f801991011681019081106001600160401b0382111761120557604052565b6001600160401b0381116112055760051b60200190565b604051905f6006548060011c9160018216918215611afc575b602084108314611ae8578386528592908115611ac95750600114611a6a575b611a68925003836119ec565b565b5060065f90815290917ff652222313e28459528d920b65115c16c04f3efc82aaedc97be59f3f377c0d3f5b818310611aad575050906020611a6892820101611a5c565b6020919350806001915483858901015201910190918492611a95565b60209250611a6894915060ff191682840152151560051b820101611a5c565b634e487b7160e01b5f52602260045260245ffd5b92607f1692611a3d565b604051905f6007548060011c9160018216918215611ba8575b602084108314611ae8578386528592908115611ac95750600114611b4957611a68925003836119ec565b5060075f90815290917fa66cc928b5edb82af9bd49922954155ab7b0942694bea4ce44661d9a8736c6885b818310611b8c575050906020611a6892820101611a5c565b6020919350806001915483858901015201910190918492611b74565b92607f1692611b1f565b6002546040516370a0823160e01b815230600482015290602090829060249082906001600160a01b03165afa9081156111fa575f91611bef575090565b90506020813d602011611c16575b81611c0a602093836119ec565b81010312610f8f575190565b3d9150611bfd565b90816020910312610f8f57516001600160a01b0381168103610f8f5790565b604051628bec5760e51b81526020816004817f00000000000000000000000000000000000000000000000000000000000000006001600160a01b03165afa9081156111fa575f91611c8c575090565b611ca5915060203d6020116102495761023b81836119ec565b90565b6001600160a01b039091168152602081019190915260400190565b90816020910312610f8f57518015158103610f8f5790565b8051821015611cef5760209160051b010190565b634e487b7160e01b5f52603260045260245ffd5b60ff60085416611d1557611ca5611bb2565b5f90565b5f516020611eef5f395f51905f525c611d3f5760015f516020611eef5f395f51905f525d565b633ee5aeb560e01b5f5260045ffd5b5015801580611d92575b611d835780611d77575b611d6857565b63332863a960e11b5f5260045ffd5b5060ff60085416611d62565b630cd0fdf960e01b5f5260045ffd5b5060ff6008541615611d58565b611dd4611a689392611dc660405194859263a9059cbb60e01b602085015260248401611ca8565b03601f1981018452836119ec565b611e96565b91909160205f60405193611e1085611e028582019363095ea7b360e01b85528960248401611ca8565b03601f1981018752866119ec565b84519082855af15f513d82611e71575b505015611e2c57505050565b60405163095ea7b360e01b60208201526001600160a01b0390931660248401525f6044808501919091528352611a6892611dd490611e6b6064826119ec565b82611e96565b909150611e8e57506001600160a01b0381163b15155b5f80611e20565b600114611e87565b905f602091828151910182855af1156111fa575f513d611ee557506001600160a01b0381163b155b611ec55750565b635274afe760e01b5f9081526001600160a01b0391909116600452602490fd5b60011415611ebe56fe9b779b17422d0df92223018b32b4d1fa46e071723d6817e2486d003becc55f00a264697066735822122054ddf3d4771a74f0b6684b7ac7baee7b57a6084c3771651207f6771659c1aea864736f6c634300081c0033",
  "linkReferences": {},
  "deployedLinkReferences": {}
}