{
  "_format": "hh-sol-artifact-1",
  "contractName": "SummerRewardsRedeemer",
  "sourceName": "src/contracts/SummerRewardsRedeemer.sol",
  "abi": [
    {
      "inputs": [
        {
          "internalType": "address",
          "name": "_rewardsToken",
          "type": "address"
        },
        {
          "internalType": "address",
          "name": "_accessManager",
          "type": "address"
        }
      ],
      "stateMutability": "nonpayable",
      "type": "constructor"
    },
    {
      "inputs": [
        {
          "internalType": "address",
          "name": "caller",
          "type": "address"
        }
      ],
      "name": "CallerIsNotAdmin",
      "type": "error"
    },
    {
      "inputs": [
        {
          "internalType": "address",
          "name": "caller",
          "type": "address"
        }
      ],
      "name": "CallerIsNotAuthorizedToBoard",
      "type": "error"
    },
    {
      "inputs": [
        {
          "internalType": "address",
          "name": "caller",
          "type": "address"
        }
      ],
      "name": "CallerIsNotCommander",
      "type": "error"
    },
    {
      "inputs": [
        {
          "internalType": "address",
          "name": "caller",
          "type": "address"
        },
        {
          "internalType": "bytes32",
          "name": "role",
          "type": "bytes32"
        }
      ],
      "name": "CallerIsNotContractSpecificRole",
      "type": "error"
    },
    {
      "inputs": [
        {
          "internalType": "address",
          "name": "caller",
          "type": "address"
        }
      ],
      "name": "CallerIsNotCurator",
      "type": "error"
    },
    {
      "inputs": [
        {
          "internalType": "address",
          "name": "caller",
          "type": "address"
        }
      ],
      "name": "CallerIsNotDecayController",
      "type": "error"
    },
    {
      "inputs": [
        {
          "internalType": "address",
          "name": "caller",
          "type": "address"
        }
      ],
      "name": "CallerIsNotFoundation",
      "type": "error"
    },
    {
      "inputs": [
        {
          "internalType": "address",
          "name": "caller",
          "type": "address"
        }
      ],
      "name": "CallerIsNotGovernor",
      "type": "error"
    },
    {
      "inputs": [
        {
          "internalType": "address",
          "name": "caller",
          "type": "address"
        }
      ],
      "name": "CallerIsNotGuardian",
      "type": "error"
    },
    {
      "inputs": [
        {
          "internalType": "address",
          "name": "caller",
          "type": "address"
        }
      ],
      "name": "CallerIsNotGuardianOrGovernor",
      "type": "error"
    },
    {
      "inputs": [
        {
          "internalType": "address",
          "name": "caller",
          "type": "address"
        }
      ],
      "name": "CallerIsNotKeeper",
      "type": "error"
    },
    {
      "inputs": [
        {
          "internalType": "address",
          "name": "caller",
          "type": "address"
        }
      ],
      "name": "CallerIsNotRaft",
      "type": "error"
    },
    {
      "inputs": [
        {
          "internalType": "address",
          "name": "caller",
          "type": "address"
        }
      ],
      "name": "CallerIsNotRaftOrCommander",
      "type": "error"
    },
    {
      "inputs": [
        {
          "internalType": "address",
          "name": "caller",
          "type": "address"
        }
      ],
      "name": "CallerIsNotSuperKeeper",
      "type": "error"
    },
    {
      "inputs": [],
      "name": "CallerNotAdmiralsQuarters",
      "type": "error"
    },
    {
      "inputs": [
        {
          "internalType": "uint256[]",
          "name": "indices",
          "type": "uint256[]"
        },
        {
          "internalType": "uint256[]",
          "name": "amounts",
          "type": "uint256[]"
        },
        {
          "internalType": "bytes32[][]",
          "name": "proofs",
          "type": "bytes32[][]"
        }
      ],
      "name": "ClaimMultipleEmpty",
      "type": "error"
    },
    {
      "inputs": [
        {
          "internalType": "uint256[]",
          "name": "indices",
          "type": "uint256[]"
        },
        {
          "internalType": "uint256[]",
          "name": "amounts",
          "type": "uint256[]"
        },
        {
          "internalType": "bytes32[][]",
          "name": "proofs",
          "type": "bytes32[][]"
        }
      ],
      "name": "ClaimMultipleLengthMismatch",
      "type": "error"
    },
    {
      "inputs": [
        {
          "internalType": "address",
          "name": "caller",
          "type": "address"
        }
      ],
      "name": "DirectGrantIsDisabled",
      "type": "error"
    },
    {
      "inputs": [
        {
          "internalType": "address",
          "name": "caller",
          "type": "address"
        }
      ],
      "name": "DirectRevokeIsDisabled",
      "type": "error"
    },
    {
      "inputs": [
        {
          "internalType": "address",
          "name": "invalidAddress",
          "type": "address"
        }
      ],
      "name": "InvalidAccessManagerAddress",
      "type": "error"
    },
    {
      "inputs": [
        {
          "internalType": "address",
          "name": "token",
          "type": "address"
        }
      ],
      "name": "InvalidRewardsToken",
      "type": "error"
    },
    {
      "inputs": [
        {
          "internalType": "uint256",
          "name": "index",
          "type": "uint256"
        },
        {
          "internalType": "bytes32",
          "name": "root",
          "type": "bytes32"
        }
      ],
      "name": "RootAlreadyAdded",
      "type": "error"
    },
    {
      "inputs": [
        {
          "internalType": "address",
          "name": "token",
          "type": "address"
        }
      ],
      "name": "SafeERC20FailedOperation",
      "type": "error"
    },
    {
      "inputs": [
        {
          "internalType": "address",
          "name": "user",
          "type": "address"
        },
        {
          "internalType": "uint256",
          "name": "index",
          "type": "uint256"
        },
        {
          "internalType": "uint256",
          "name": "amount",
          "type": "uint256"
        },
        {
          "internalType": "bytes32[]",
          "name": "proof",
          "type": "bytes32[]"
        }
      ],
      "name": "UserAlreadyClaimed",
      "type": "error"
    },
    {
      "inputs": [
        {
          "internalType": "address",
          "name": "user",
          "type": "address"
        },
        {
          "internalType": "uint256",
          "name": "index",
          "type": "uint256"
        },
        {
          "internalType": "uint256",
          "name": "amount",
          "type": "uint256"
        },
        {
          "internalType": "bytes32[]",
          "name": "proof",
          "type": "bytes32[]"
        }
      ],
      "name": "UserCannotClaim",
      "type": "error"
    },
    {
      "anonymous": false,
      "inputs": [
        {
          "indexed": true,
          "internalType": "address",
          "name": "user",
          "type": "address"
        },
        {
          "indexed": true,
          "internalType": "uint256",
          "name": "index",
          "type": "uint256"
        },
        {
          "indexed": false,
          "internalType": "uint256",
          "name": "amount",
          "type": "uint256"
        }
      ],
      "name": "Claimed",
      "type": "event"
    },
    {
      "anonymous": false,
      "inputs": [
        {
          "indexed": true,
          "internalType": "uint256",
          "name": "index",
          "type": "uint256"
        },
        {
          "indexed": false,
          "internalType": "bytes32",
          "name": "root",
          "type": "bytes32"
        }
      ],
      "name": "RootAdded",
      "type": "event"
    },
    {
      "anonymous": false,
      "inputs": [
        {
          "indexed": true,
          "internalType": "uint256",
          "name": "index",
          "type": "uint256"
        }
      ],
      "name": "RootRemoved",
      "type": "event"
    },
    {
      "inputs": [],
      "name": "ADMIRALS_QUARTERS_ROLE",
      "outputs": [
        {
          "internalType": "bytes32",
          "name": "",
          "type": "bytes32"
        }
      ],
      "stateMutability": "view",
      "type": "function"
    },
    {
      "inputs": [],
      "name": "DECAY_CONTROLLER_ROLE",
      "outputs": [
        {
          "internalType": "bytes32",
          "name": "",
          "type": "bytes32"
        }
      ],
      "stateMutability": "view",
      "type": "function"
    },
    {
      "inputs": [],
      "name": "GOVERNOR_ROLE",
      "outputs": [
        {
          "internalType": "bytes32",
          "name": "",
          "type": "bytes32"
        }
      ],
      "stateMutability": "view",
      "type": "function"
    },
    {
      "inputs": [],
      "name": "GUARDIAN_ROLE",
      "outputs": [
        {
          "internalType": "bytes32",
          "name": "",
          "type": "bytes32"
        }
      ],
      "stateMutability": "view",
      "type": "function"
    },
    {
      "inputs": [],
      "name": "SUPER_KEEPER_ROLE",
      "outputs": [
        {
          "internalType": "bytes32",
          "name": "",
          "type": "bytes32"
        }
      ],
      "stateMutability": "view",
      "type": "function"
    },
    {
      "inputs": [
        {
          "internalType": "uint256",
          "name": "index",
          "type": "uint256"
        },
        {
          "internalType": "bytes32",
          "name": "root",
          "type": "bytes32"
        }
      ],
      "name": "addRoot",
      "outputs": [],
      "stateMutability": "nonpayable",
      "type": "function"
    },
    {
      "inputs": [
        {
          "internalType": "address",
          "name": "user",
          "type": "address"
        },
        {
          "internalType": "uint256",
          "name": "index",
          "type": "uint256"
        },
        {
          "internalType": "uint256",
          "name": "amount",
          "type": "uint256"
        },
        {
          "internalType": "bytes32[]",
          "name": "proof",
          "type": "bytes32[]"
        }
      ],
      "name": "canClaim",
      "outputs": [
        {
          "internalType": "bool",
          "name": "",
          "type": "bool"
        }
      ],
      "stateMutability": "view",
      "type": "function"
    },
    {
      "inputs": [
        {
          "internalType": "address",
          "name": "user",
          "type": "address"
        },
        {
          "internalType": "uint256",
          "name": "index",
          "type": "uint256"
        },
        {
          "internalType": "uint256",
          "name": "amount",
          "type": "uint256"
        },
        {
          "internalType": "bytes32[]",
          "name": "proof",
          "type": "bytes32[]"
        }
      ],
      "name": "claim",
      "outputs": [],
      "stateMutability": "nonpayable",
      "type": "function"
    },
    {
      "inputs": [
        {
          "internalType": "uint256[]",
          "name": "indices",
          "type": "uint256[]"
        },
        {
          "internalType": "uint256[]",
          "name": "amounts",
          "type": "uint256[]"
        },
        {
          "internalType": "bytes32[][]",
          "name": "proofs",
          "type": "bytes32[][]"
        }
      ],
      "name": "claimMultiple",
      "outputs": [],
      "stateMutability": "nonpayable",
      "type": "function"
    },
    {
      "inputs": [
        {
          "internalType": "address",
          "name": "user",
          "type": "address"
        },
        {
          "internalType": "uint256[]",
          "name": "indices",
          "type": "uint256[]"
        },
        {
          "internalType": "uint256[]",
          "name": "amounts",
          "type": "uint256[]"
        },
        {
          "internalType": "bytes32[][]",
          "name": "proofs",
          "type": "bytes32[][]"
        }
      ],
      "name": "claimMultiple",
      "outputs": [],
      "stateMutability": "nonpayable",
      "type": "function"
    },
    {
      "inputs": [],
      "name": "deployedAt",
      "outputs": [
        {
          "internalType": "uint256",
          "name": "",
          "type": "uint256"
        }
      ],
      "stateMutability": "view",
      "type": "function"
    },
    {
      "inputs": [
        {
          "internalType": "address",
          "name": "token",
          "type": "address"
        },
        {
          "internalType": "address",
          "name": "to",
          "type": "address"
        },
        {
          "internalType": "uint256",
          "name": "amount",
          "type": "uint256"
        }
      ],
      "name": "emergencyWithdraw",
      "outputs": [],
      "stateMutability": "nonpayable",
      "type": "function"
    },
    {
      "inputs": [
        {
          "internalType": "enum ContractSpecificRoles",
          "name": "roleName",
          "type": "uint8"
        },
        {
          "internalType": "address",
          "name": "roleTargetContract",
          "type": "address"
        }
      ],
      "name": "generateRole",
      "outputs": [
        {
          "internalType": "bytes32",
          "name": "",
          "type": "bytes32"
        }
      ],
      "stateMutability": "pure",
      "type": "function"
    },
    {
      "inputs": [
        {
          "internalType": "uint256",
          "name": "index",
          "type": "uint256"
        }
      ],
      "name": "getRoot",
      "outputs": [
        {
          "internalType": "bytes32",
          "name": "",
          "type": "bytes32"
        }
      ],
      "stateMutability": "view",
      "type": "function"
    },
    {
      "inputs": [
        {
          "internalType": "address",
          "name": "account",
          "type": "address"
        }
      ],
      "name": "hasAdmiralsQuartersRole",
      "outputs": [
        {
          "internalType": "bool",
          "name": "",
          "type": "bool"
        }
      ],
      "stateMutability": "view",
      "type": "function"
    },
    {
      "inputs": [
        {
          "internalType": "address",
          "name": "user",
          "type": "address"
        },
        {
          "internalType": "uint256",
          "name": "index",
          "type": "uint256"
        }
      ],
      "name": "hasClaimed",
      "outputs": [
        {
          "internalType": "bool",
          "name": "",
          "type": "bool"
        }
      ],
      "stateMutability": "view",
      "type": "function"
    },
    {
      "inputs": [
        {
          "internalType": "uint256",
          "name": "index",
          "type": "uint256"
        }
      ],
      "name": "removeRoot",
      "outputs": [],
      "stateMutability": "nonpayable",
      "type": "function"
    },
    {
      "inputs": [],
      "name": "rewardsToken",
      "outputs": [
        {
          "internalType": "contract IERC20",
          "name": "",
          "type": "address"
        }
      ],
      "stateMutability": "view",
      "type": "function"
    },
    {
      "inputs": [
        {
          "internalType": "uint256",
          "name": "index",
          "type": "uint256"
        }
      ],
      "name": "roots",
      "outputs": [
        {
          "internalType": "bytes32",
          "name": "rootHash",
          "type": "bytes32"
        }
      ],
      "stateMutability": "view",
      "type": "function"
    }
  ],
  "bytecode": "0x60c08060405234610139576040816110d7803803809161001f8285610163565b833981010312610139576100328161019a565b906001600160a01b03906100489060200161019a565b168015610150576040516301ffc9a760e01b815263261c910560e21b6004820152602081602481855afa908115610145575f91610106575b50156100f4576080526001600160a01b031680156100e25760a052425f55604051610f2890816101af82396080518181816101dd015281816102c00152818161055b0152610787015260a05181818161035b015281816108b80152610cd80152f35b632484d91d60e01b5f5260045260245ffd5b6347bd7c1d60e01b5f5260045260245ffd5b90506020813d60201161013d575b8161012160209383610163565b8101031261013957518015158103610139575f610080565b5f80fd5b3d9150610114565b6040513d5f823e3d90fd5b6347bd7c1d60e01b5f525f60045260245ffd5b601f909101601f19168101906001600160401b0382119082101761018657604052565b634e487b7160e01b5f52604160045260245ffd5b51906001600160a01b03821682036101395756fe60806040526004361015610011575f80fd5b5f3560e01c8063172bd6de1461085257806324ea54f41461081857806338af30b01461074257806366e943f11461070857806369b3054b146106a757806371a5855c14610611578063731d829a1461050f5780639b24b3b0146103b1578063a89f38a3146104d5578063b293109614610491578063c0b09e5b14610415578063c0b534c2146103db578063c2b40ae4146103b1578063ccc574901461038a578063d1af0c7d14610346578063e63ea4081461026e578063eae4c19f14610252578063ebc136d0146101745763fafc94b0146100ea575f80fd5b34610170576080366003190112610170576101036108dc565b6024356001600160401b03811161017057610122903690600401610908565b916044356001600160401b03811161017057610142903690600401610908565b90606435946001600160401b0386116101705761016661016e963690600401610908565b959094610c84565b005b5f80fd5b346101705760203660031901126101705761018d6108dc565b604051632474521560e21b81527fb00be3d6a5434b97b328543d1486d56adcb7e74080170d1cdd7e0306c3d9ba3d60048201526001600160a01b03918216602482015290602090829060449082907f0000000000000000000000000000000000000000000000000000000000000000165afa8015610247576020915f9161021a575b506040519015158152f35b61023a9150823d8411610240575b6102328183610938565b8101906109c2565b8261020f565b503d610228565b6040513d5f823e3d90fd5b34610170575f3660031901126101705760205f54604051908152f35b34610170576060366003190112610170576102876108dc565b61028f6108f2565b604051632474521560e21b81525f516020610ed35f395f51905f5260048201523360248201529091906020816044817f00000000000000000000000000000000000000000000000000000000000000006001600160a01b03165afa908115610247575f91610327575b50156103145761016e91604435916001600160a01b0316610df3565b630ea7d7ed60e21b5f523360045260245ffd5b610340915060203d602011610240576102328183610938565b836102f8565b34610170575f366003190112610170576040517f00000000000000000000000000000000000000000000000000000000000000006001600160a01b03168152602090f35b34610170575f3660031901126101705760206040515f516020610ed35f395f51905f528152f35b34610170576020366003190112610170576004355f526001602052602060405f2054604051908152f35b34610170575f3660031901126101705760206040517f025d8bbf3268be680d2605ebf6da15063b9915615bf1087dab336efc1bf970cb8152f35b34610170576060366003190112610170576004356001600160401b03811161017057610445903690600401610908565b6024356001600160401b03811161017057610464903690600401610908565b60443593916001600160401b0385116101705761048861016e953690600401610908565b94909333610c84565b34610170576040366003190112610170576001600160a01b036104b26108dc565b165f52600260205260206104cb60243560405f20610b63565b6040519015158152f35b34610170575f3660031901126101705760206040517fb00be3d6a5434b97b328543d1486d56adcb7e74080170d1cdd7e0306c3d9ba3d8152f35b3461017057604036600319011261017057600435602435604051632474521560e21b81525f516020610ed35f395f51905f52600482015233602482015260208160448160018060a01b037f0000000000000000000000000000000000000000000000000000000000000000165afa908115610247575f916105f2575b501561031457815f52600160205260405f20546105dc5760207f47e13ec4cc37e31e3a4f25115640068ffbe4bee53b32f0953fa593388e69fc0f91835f52600182528060405f2055604051908152a2005b90630ddce93f60e31b5f5260045260245260445ffd5b61060b915060203d602011610240576102328183610938565b8361058b565b346101705760803660031901126101705761062a6108dc565b606435906024356001600160401b03831161017057366023840112156101705761066d610663602094369060248160040135910161096d565b6044358385610aad565b9182610680575b50506040519015158152f35b6001600160a01b03165f908152600284526040902061069f9250610b63565b158280610674565b34610170576040366003190112610170576004356003811015610170576020906106cf6108f2565b604051908382019260f81b835260018060601b03199060601b166021820152601581526106fd603582610938565b519020604051908152f35b34610170575f3660031901126101705760206040517f0d186688925976bbe6755ae984501c8e3e2b103a7af59fd803ab9c6d891ae7e08152f35b3461017057602036600319011261017057604051632474521560e21b81525f516020610ed35f395f51905f5260048281019190915233602483015235906020816044817f00000000000000000000000000000000000000000000000000000000000000006001600160a01b03165afa908115610247575f916107f9575b501561031457805f5260016020525f60408120557f405489853c45b03e4598e22168171787ed885bb2adc17e43efa1f5b9b3dae06e5f80a2005b610812915060203d602011610240576102328183610938565b826107bf565b34610170575f3660031901126101705760206040517f55435dd261a4b9b3364963f7738a7a662ad9c84396d64be3365284bb7f0a50418152f35b346101705760803660031901126101705761086b6108dc565b604435606435916001600160401b038311610170576108b661089461016e943690600401610908565b6001600160a01b0384165f9081526002602052604090209185602435866109da565b7f0000000000000000000000000000000000000000000000000000000000000000610df3565b600435906001600160a01b038216820361017057565b602435906001600160a01b038216820361017057565b9181601f84011215610170578235916001600160401b038311610170576020808501948460051b01011161017057565b90601f801991011681019081106001600160401b0382111761095957604052565b634e487b7160e01b5f52604160045260245ffd5b929190926001600160401b038411610959578360051b90602060405161099582850182610938565b809681520191810192831161017057905b8282106109b257505050565b81358152602091820191016109a6565b90816020910312610170575180151581036101705790565b93926109ea91959293369161096d565b926109f784848784610aad565b15610a8c5760018060a01b03811693845f526002602052610a1b8660405f20610b63565b610a675750507f987d620f307ff6b94d58743cb7a7509f24071586a77759b77c2d4e29f75a2f9a916020918560081c5f52825260405f20600160ff87161b8154179055604051908152a3565b604051638c9ce75160e01b8152918291610a88918690899060048601610e7f565b0390fd5b60405163be612e7560e01b8152948594610a88949093509160048601610e7f565b604080516001600160a01b03909216602083019081529082019390935292939092909190610ae881606081015b03601f198101835282610938565b5190206040516020810191825260208152610b04604082610938565b519020915f52600160205260405f205491905f915b8451831015610b5b5760208360051b86010151908181105f14610b4a575f52602052600160405f205b920191610b19565b905f52602052600160405f20610b42565b915092501490565b60019160ff918160081c5f52602052161b60405f205416151590565b81835290916001600160fb1b0383116101705760209260051b809284830137010190565b959390610bbd90610bcb9493606089526060890191610b7f565b918683036020880152610b7f565b926040818503910152808352602083019060208160051b85010193835f91601e1982360301905b848410610c03575050505050505090565b90919293949596601f1982820301875287358381121561017057840190602082359201916001600160401b038111610170578060051b3603831361017057610c516020928392600195610b7f565b99019701959401929190610bf2565b9190811015610c705760051b0190565b634e487b7160e01b5f52603260045260245ffd5b9390969592949194818614801590610de9575b610dc9578515610da9576001600160a01b0385165f9081526002602052604081209096879594939291905b808710610cfe5750505050505050610cfc9293507f0000000000000000000000000000000000000000000000000000000000000000610df3565b565b90919293949597610d1089838d610c60565b35610d1c8a8787610c60565b3590888b1015610c70578a60051b880135601e19893603018112156101705788018035906001600160401b038211610170576020018160051b3603811361017057610d699387938d6109da565b610d74898686610c60565b358101809111610d95579760018101809111610d9557959493929190610cc2565b634e487b7160e01b5f52601160045260245ffd5b60405163d70ed69960e01b815296508695610a8895508860048801610ba3565b60405163184e777360e11b815296508695610a8895508860048801610ba3565b5083821415610c97565b60405163a9059cbb60e01b60208281019182526001600160a01b039094166024830152604482019490945290925f91610e2f8160648101610ada565b519082855af115610247575f513d610e7657506001600160a01b0381163b155b610e565750565b635274afe760e01b5f9081526001600160a01b0391909116600452602490fd5b60011415610e4f565b60a091936020936080830195600180861b03168352848301526040820152608060608201528451809452019201905f5b818110610ebc5750505090565b8251845260209384019390920191600101610eaf56fe7935bd0ae54bc31f548c14dba4d37c5c64b3f8ca900cb468fb8abd54d5894f55a2646970667358221220974b139608ec30fc24d3381f1708a85c4e2decda7741559e22182553d471710b64736f6c634300081c0033",
  "linkReferences": {},
  "deployedLinkReferences": {}
}