{
  "_format": "hh-sol-artifact-1",
  "contractName": "MorphoVaultArk",
  "sourceName": "src/contracts/arks/MorphoVaultArk.sol",
  "abi": [
    {
      "inputs": [
        {
          "internalType": "address",
          "name": "_metaMorpho",
          "type": "address"
        },
        {
          "internalType": "address",
          "name": "_urdFactory",
          "type": "address"
        },
        {
          "components": [
            {
              "internalType": "string",
              "name": "name",
              "type": "string"
            },
            {
              "internalType": "string",
              "name": "details",
              "type": "string"
            },
            {
              "internalType": "address",
              "name": "accessManager",
              "type": "address"
            },
            {
              "internalType": "address",
              "name": "configurationManager",
              "type": "address"
            },
            {
              "internalType": "address",
              "name": "asset",
              "type": "address"
            },
            {
              "internalType": "uint256",
              "name": "depositCap",
              "type": "uint256"
            },
            {
              "internalType": "uint256",
              "name": "maxRebalanceOutflow",
              "type": "uint256"
            },
            {
              "internalType": "uint256",
              "name": "maxRebalanceInflow",
              "type": "uint256"
            },
            {
              "internalType": "bool",
              "name": "requiresKeeperData",
              "type": "bool"
            },
            {
              "internalType": "Percentage",
              "name": "maxDepositPercentageOfTVL",
              "type": "uint256"
            }
          ],
          "internalType": "struct ArkParams",
          "name": "_params",
          "type": "tuple"
        }
      ],
      "stateMutability": "nonpayable",
      "type": "constructor"
    },
    {
      "inputs": [
        {
          "internalType": "address",
          "name": "caller",
          "type": "address"
        }
      ],
      "name": "CallerIsNotAdmin",
      "type": "error"
    },
    {
      "inputs": [
        {
          "internalType": "address",
          "name": "caller",
          "type": "address"
        }
      ],
      "name": "CallerIsNotAuthorizedToBoard",
      "type": "error"
    },
    {
      "inputs": [
        {
          "internalType": "address",
          "name": "caller",
          "type": "address"
        }
      ],
      "name": "CallerIsNotCommander",
      "type": "error"
    },
    {
      "inputs": [
        {
          "internalType": "address",
          "name": "caller",
          "type": "address"
        },
        {
          "internalType": "bytes32",
          "name": "role",
          "type": "bytes32"
        }
      ],
      "name": "CallerIsNotContractSpecificRole",
      "type": "error"
    },
    {
      "inputs": [
        {
          "internalType": "address",
          "name": "caller",
          "type": "address"
        }
      ],
      "name": "CallerIsNotCurator",
      "type": "error"
    },
    {
      "inputs": [
        {
          "internalType": "address",
          "name": "caller",
          "type": "address"
        }
      ],
      "name": "CallerIsNotDecayController",
      "type": "error"
    },
    {
      "inputs": [
        {
          "internalType": "address",
          "name": "caller",
          "type": "address"
        }
      ],
      "name": "CallerIsNotFoundation",
      "type": "error"
    },
    {
      "inputs": [
        {
          "internalType": "address",
          "name": "caller",
          "type": "address"
        }
      ],
      "name": "CallerIsNotGovernor",
      "type": "error"
    },
    {
      "inputs": [
        {
          "internalType": "address",
          "name": "caller",
          "type": "address"
        }
      ],
      "name": "CallerIsNotGuardian",
      "type": "error"
    },
    {
      "inputs": [
        {
          "internalType": "address",
          "name": "caller",
          "type": "address"
        }
      ],
      "name": "CallerIsNotGuardianOrGovernor",
      "type": "error"
    },
    {
      "inputs": [
        {
          "internalType": "address",
          "name": "caller",
          "type": "address"
        }
      ],
      "name": "CallerIsNotKeeper",
      "type": "error"
    },
    {
      "inputs": [
        {
          "internalType": "address",
          "name": "caller",
          "type": "address"
        }
      ],
      "name": "CallerIsNotRaft",
      "type": "error"
    },
    {
      "inputs": [
        {
          "internalType": "address",
          "name": "caller",
          "type": "address"
        }
      ],
      "name": "CallerIsNotRaftOrCommander",
      "type": "error"
    },
    {
      "inputs": [
        {
          "internalType": "address",
          "name": "caller",
          "type": "address"
        }
      ],
      "name": "CallerIsNotSuperKeeper",
      "type": "error"
    },
    {
      "inputs": [],
      "name": "CannotAddCommanderToArkWithCommander",
      "type": "error"
    },
    {
      "inputs": [],
      "name": "CannotDeployArkWithEmptyName",
      "type": "error"
    },
    {
      "inputs": [],
      "name": "CannotDeployArkWithoutConfigurationManager",
      "type": "error"
    },
    {
      "inputs": [],
      "name": "CannotDeployArkWithoutRaft",
      "type": "error"
    },
    {
      "inputs": [],
      "name": "CannotDeployArkWithoutToken",
      "type": "error"
    },
    {
      "inputs": [],
      "name": "CannotRemoveCommanderFromArkWithAssets",
      "type": "error"
    },
    {
      "inputs": [],
      "name": "CannotUseKeeperDataWhenNotRequired",
      "type": "error"
    },
    {
      "inputs": [],
      "name": "ConfigurationManagerZeroAddress",
      "type": "error"
    },
    {
      "inputs": [
        {
          "internalType": "address",
          "name": "caller",
          "type": "address"
        }
      ],
      "name": "DirectGrantIsDisabled",
      "type": "error"
    },
    {
      "inputs": [
        {
          "internalType": "address",
          "name": "caller",
          "type": "address"
        }
      ],
      "name": "DirectRevokeIsDisabled",
      "type": "error"
    },
    {
      "inputs": [],
      "name": "ERC4626AssetMismatch",
      "type": "error"
    },
    {
      "inputs": [],
      "name": "FleetCommanderAlreadyRegistered",
      "type": "error"
    },
    {
      "inputs": [],
      "name": "FleetCommanderNotRegistered",
      "type": "error"
    },
    {
      "inputs": [
        {
          "internalType": "address",
          "name": "invalidAddress",
          "type": "address"
        }
      ],
      "name": "InvalidAccessManagerAddress",
      "type": "error"
    },
    {
      "inputs": [],
      "name": "InvalidBoardData",
      "type": "error"
    },
    {
      "inputs": [],
      "name": "InvalidDisembarkData",
      "type": "error"
    },
    {
      "inputs": [],
      "name": "InvalidUrdAddress",
      "type": "error"
    },
    {
      "inputs": [],
      "name": "InvalidUrdFactoryAddress",
      "type": "error"
    },
    {
      "inputs": [],
      "name": "InvalidVaultAddress",
      "type": "error"
    },
    {
      "inputs": [],
      "name": "KeeperDataRequired",
      "type": "error"
    },
    {
      "inputs": [],
      "name": "MaxDepositPercentageOfTVLTooHigh",
      "type": "error"
    },
    {
      "inputs": [],
      "name": "ReentrancyGuardReentrantCall",
      "type": "error"
    },
    {
      "inputs": [
        {
          "internalType": "address",
          "name": "token",
          "type": "address"
        }
      ],
      "name": "SafeERC20FailedOperation",
      "type": "error"
    },
    {
      "anonymous": false,
      "inputs": [
        {
          "indexed": true,
          "internalType": "address[]",
          "name": "rewardTokens",
          "type": "address[]"
        },
        {
          "indexed": true,
          "internalType": "uint256[]",
          "name": "rewardAmounts",
          "type": "uint256[]"
        }
      ],
      "name": "ArkHarvested",
      "type": "event"
    },
    {
      "anonymous": false,
      "inputs": [
        {
          "indexed": false,
          "internalType": "uint256",
          "name": "currentPrice",
          "type": "uint256"
        },
        {
          "indexed": false,
          "internalType": "uint256",
          "name": "timestamp",
          "type": "uint256"
        }
      ],
      "name": "ArkPoked",
      "type": "event"
    },
    {
      "anonymous": false,
      "inputs": [
        {
          "indexed": true,
          "internalType": "address[]",
          "name": "sweptTokens",
          "type": "address[]"
        },
        {
          "indexed": true,
          "internalType": "uint256[]",
          "name": "sweptAmounts",
          "type": "uint256[]"
        }
      ],
      "name": "ArkSwept",
      "type": "event"
    },
    {
      "anonymous": false,
      "inputs": [
        {
          "indexed": true,
          "internalType": "address",
          "name": "commander",
          "type": "address"
        },
        {
          "indexed": false,
          "internalType": "address",
          "name": "token",
          "type": "address"
        },
        {
          "indexed": false,
          "internalType": "uint256",
          "name": "amount",
          "type": "uint256"
        }
      ],
      "name": "Boarded",
      "type": "event"
    },
    {
      "anonymous": false,
      "inputs": [
        {
          "indexed": false,
          "internalType": "uint256",
          "name": "newCap",
          "type": "uint256"
        }
      ],
      "name": "DepositCapUpdated",
      "type": "event"
    },
    {
      "anonymous": false,
      "inputs": [
        {
          "indexed": true,
          "internalType": "address",
          "name": "commander",
          "type": "address"
        },
        {
          "indexed": false,
          "internalType": "address",
          "name": "token",
          "type": "address"
        },
        {
          "indexed": false,
          "internalType": "uint256",
          "name": "amount",
          "type": "uint256"
        }
      ],
      "name": "Disembarked",
      "type": "event"
    },
    {
      "anonymous": false,
      "inputs": [
        {
          "indexed": false,
          "internalType": "address",
          "name": "commander",
          "type": "address"
        }
      ],
      "name": "FleetCommanderRegistered",
      "type": "event"
    },
    {
      "anonymous": false,
      "inputs": [
        {
          "indexed": false,
          "internalType": "address",
          "name": "commander",
          "type": "address"
        }
      ],
      "name": "FleetCommanderUnregistered",
      "type": "event"
    },
    {
      "anonymous": false,
      "inputs": [
        {
          "indexed": false,
          "internalType": "Percentage",
          "name": "newMaxDepositPercentageOfTVL",
          "type": "uint256"
        }
      ],
      "name": "MaxDepositPercentageOfTVLUpdated",
      "type": "event"
    },
    {
      "anonymous": false,
      "inputs": [
        {
          "indexed": false,
          "internalType": "uint256",
          "name": "newMaxInflow",
          "type": "uint256"
        }
      ],
      "name": "MaxRebalanceInflowUpdated",
      "type": "event"
    },
    {
      "anonymous": false,
      "inputs": [
        {
          "indexed": false,
          "internalType": "uint256",
          "name": "newMaxOutflow",
          "type": "uint256"
        }
      ],
      "name": "MaxRebalanceOutflowUpdated",
      "type": "event"
    },
    {
      "anonymous": false,
      "inputs": [
        {
          "indexed": true,
          "internalType": "address",
          "name": "from",
          "type": "address"
        },
        {
          "indexed": true,
          "internalType": "address",
          "name": "to",
          "type": "address"
        },
        {
          "indexed": false,
          "internalType": "address",
          "name": "token",
          "type": "address"
        },
        {
          "indexed": false,
          "internalType": "uint256",
          "name": "amount",
          "type": "uint256"
        }
      ],
      "name": "Moved",
      "type": "event"
    },
    {
      "anonymous": false,
      "inputs": [
        {
          "indexed": false,
          "internalType": "address",
          "name": "newRaft",
          "type": "address"
        }
      ],
      "name": "RaftUpdated",
      "type": "event"
    },
    {
      "inputs": [],
      "name": "ADMIRALS_QUARTERS_ROLE",
      "outputs": [
        {
          "internalType": "bytes32",
          "name": "",
          "type": "bytes32"
        }
      ],
      "stateMutability": "view",
      "type": "function"
    },
    {
      "inputs": [],
      "name": "DECAY_CONTROLLER_ROLE",
      "outputs": [
        {
          "internalType": "bytes32",
          "name": "",
          "type": "bytes32"
        }
      ],
      "stateMutability": "view",
      "type": "function"
    },
    {
      "inputs": [],
      "name": "GOVERNOR_ROLE",
      "outputs": [
        {
          "internalType": "bytes32",
          "name": "",
          "type": "bytes32"
        }
      ],
      "stateMutability": "view",
      "type": "function"
    },
    {
      "inputs": [],
      "name": "GUARDIAN_ROLE",
      "outputs": [
        {
          "internalType": "bytes32",
          "name": "",
          "type": "bytes32"
        }
      ],
      "stateMutability": "view",
      "type": "function"
    },
    {
      "inputs": [],
      "name": "SUPER_KEEPER_ROLE",
      "outputs": [
        {
          "internalType": "bytes32",
          "name": "",
          "type": "bytes32"
        }
      ],
      "stateMutability": "view",
      "type": "function"
    },
    {
      "inputs": [],
      "name": "URD_FACTORY",
      "outputs": [
        {
          "internalType": "contract IUrdFactory",
          "name": "",
          "type": "address"
        }
      ],
      "stateMutability": "view",
      "type": "function"
    },
    {
      "inputs": [],
      "name": "asset",
      "outputs": [
        {
          "internalType": "contract IERC20",
          "name": "",
          "type": "address"
        }
      ],
      "stateMutability": "view",
      "type": "function"
    },
    {
      "inputs": [
        {
          "internalType": "uint256",
          "name": "amount",
          "type": "uint256"
        },
        {
          "internalType": "bytes",
          "name": "boardData",
          "type": "bytes"
        }
      ],
      "name": "board",
      "outputs": [],
      "stateMutability": "nonpayable",
      "type": "function"
    },
    {
      "inputs": [],
      "name": "commander",
      "outputs": [
        {
          "internalType": "address",
          "name": "",
          "type": "address"
        }
      ],
      "stateMutability": "view",
      "type": "function"
    },
    {
      "inputs": [],
      "name": "config",
      "outputs": [
        {
          "internalType": "address",
          "name": "commander",
          "type": "address"
        },
        {
          "internalType": "address",
          "name": "raft",
          "type": "address"
        },
        {
          "internalType": "contract IERC20",
          "name": "asset",
          "type": "address"
        },
        {
          "internalType": "uint256",
          "name": "depositCap",
          "type": "uint256"
        },
        {
          "internalType": "uint256",
          "name": "maxRebalanceOutflow",
          "type": "uint256"
        },
        {
          "internalType": "uint256",
          "name": "maxRebalanceInflow",
          "type": "uint256"
        },
        {
          "internalType": "string",
          "name": "name",
          "type": "string"
        },
        {
          "internalType": "string",
          "name": "details",
          "type": "string"
        },
        {
          "internalType": "bool",
          "name": "requiresKeeperData",
          "type": "bool"
        },
        {
          "internalType": "Percentage",
          "name": "maxDepositPercentageOfTVL",
          "type": "uint256"
        }
      ],
      "stateMutability": "view",
      "type": "function"
    },
    {
      "inputs": [],
      "name": "configurationManager",
      "outputs": [
        {
          "internalType": "contract IConfigurationManager",
          "name": "",
          "type": "address"
        }
      ],
      "stateMutability": "view",
      "type": "function"
    },
    {
      "inputs": [],
      "name": "depositCap",
      "outputs": [
        {
          "internalType": "uint256",
          "name": "",
          "type": "uint256"
        }
      ],
      "stateMutability": "view",
      "type": "function"
    },
    {
      "inputs": [],
      "name": "details",
      "outputs": [
        {
          "internalType": "string",
          "name": "",
          "type": "string"
        }
      ],
      "stateMutability": "view",
      "type": "function"
    },
    {
      "inputs": [
        {
          "internalType": "uint256",
          "name": "amount",
          "type": "uint256"
        },
        {
          "internalType": "bytes",
          "name": "disembarkData",
          "type": "bytes"
        }
      ],
      "name": "disembark",
      "outputs": [],
      "stateMutability": "nonpayable",
      "type": "function"
    },
    {
      "inputs": [],
      "name": "fleetCommanderRewardsManagerFactory",
      "outputs": [
        {
          "internalType": "address",
          "name": "",
          "type": "address"
        }
      ],
      "stateMutability": "view",
      "type": "function"
    },
    {
      "inputs": [
        {
          "internalType": "enum ContractSpecificRoles",
          "name": "roleName",
          "type": "uint8"
        },
        {
          "internalType": "address",
          "name": "roleTargetContract",
          "type": "address"
        }
      ],
      "name": "generateRole",
      "outputs": [
        {
          "internalType": "bytes32",
          "name": "",
          "type": "bytes32"
        }
      ],
      "stateMutability": "pure",
      "type": "function"
    },
    {
      "inputs": [],
      "name": "getConfig",
      "outputs": [
        {
          "components": [
            {
              "internalType": "address",
              "name": "commander",
              "type": "address"
            },
            {
              "internalType": "address",
              "name": "raft",
              "type": "address"
            },
            {
              "internalType": "contract IERC20",
              "name": "asset",
              "type": "address"
            },
            {
              "internalType": "uint256",
              "name": "depositCap",
              "type": "uint256"
            },
            {
              "internalType": "uint256",
              "name": "maxRebalanceOutflow",
              "type": "uint256"
            },
            {
              "internalType": "uint256",
              "name": "maxRebalanceInflow",
              "type": "uint256"
            },
            {
              "internalType": "string",
              "name": "name",
              "type": "string"
            },
            {
              "internalType": "string",
              "name": "details",
              "type": "string"
            },
            {
              "internalType": "bool",
              "name": "requiresKeeperData",
              "type": "bool"
            },
            {
              "internalType": "Percentage",
              "name": "maxDepositPercentageOfTVL",
              "type": "uint256"
            }
          ],
          "internalType": "struct ArkConfig",
          "name": "",
          "type": "tuple"
        }
      ],
      "stateMutability": "view",
      "type": "function"
    },
    {
      "inputs": [],
      "name": "harborCommand",
      "outputs": [
        {
          "internalType": "address",
          "name": "",
          "type": "address"
        }
      ],
      "stateMutability": "view",
      "type": "function"
    },
    {
      "inputs": [
        {
          "internalType": "bytes",
          "name": "additionalData",
          "type": "bytes"
        }
      ],
      "name": "harvest",
      "outputs": [
        {
          "internalType": "address[]",
          "name": "rewardTokens",
          "type": "address[]"
        },
        {
          "internalType": "uint256[]",
          "name": "rewardAmounts",
          "type": "uint256[]"
        }
      ],
      "stateMutability": "nonpayable",
      "type": "function"
    },
    {
      "inputs": [
        {
          "internalType": "address",
          "name": "account",
          "type": "address"
        }
      ],
      "name": "hasAdmiralsQuartersRole",
      "outputs": [
        {
          "internalType": "bool",
          "name": "",
          "type": "bool"
        }
      ],
      "stateMutability": "view",
      "type": "function"
    },
    {
      "inputs": [],
      "name": "maxDepositPercentageOfTVL",
      "outputs": [
        {
          "internalType": "Percentage",
          "name": "",
          "type": "uint256"
        }
      ],
      "stateMutability": "view",
      "type": "function"
    },
    {
      "inputs": [],
      "name": "maxRebalanceInflow",
      "outputs": [
        {
          "internalType": "uint256",
          "name": "",
          "type": "uint256"
        }
      ],
      "stateMutability": "view",
      "type": "function"
    },
    {
      "inputs": [],
      "name": "maxRebalanceOutflow",
      "outputs": [
        {
          "internalType": "uint256",
          "name": "",
          "type": "uint256"
        }
      ],
      "stateMutability": "view",
      "type": "function"
    },
    {
      "inputs": [],
      "name": "metaMorpho",
      "outputs": [
        {
          "internalType": "contract IMetaMorpho",
          "name": "",
          "type": "address"
        }
      ],
      "stateMutability": "view",
      "type": "function"
    },
    {
      "inputs": [
        {
          "internalType": "uint256",
          "name": "amount",
          "type": "uint256"
        },
        {
          "internalType": "address",
          "name": "receiverArk",
          "type": "address"
        },
        {
          "internalType": "bytes",
          "name": "boardData",
          "type": "bytes"
        },
        {
          "internalType": "bytes",
          "name": "disembarkData",
          "type": "bytes"
        }
      ],
      "name": "move",
      "outputs": [],
      "stateMutability": "nonpayable",
      "type": "function"
    },
    {
      "inputs": [],
      "name": "name",
      "outputs": [
        {
          "internalType": "string",
          "name": "",
          "type": "string"
        }
      ],
      "stateMutability": "view",
      "type": "function"
    },
    {
      "inputs": [],
      "name": "raft",
      "outputs": [
        {
          "internalType": "address",
          "name": "",
          "type": "address"
        }
      ],
      "stateMutability": "view",
      "type": "function"
    },
    {
      "inputs": [],
      "name": "registerFleetCommander",
      "outputs": [],
      "stateMutability": "nonpayable",
      "type": "function"
    },
    {
      "inputs": [],
      "name": "requiresKeeperData",
      "outputs": [
        {
          "internalType": "bool",
          "name": "",
          "type": "bool"
        }
      ],
      "stateMutability": "view",
      "type": "function"
    },
    {
      "inputs": [
        {
          "internalType": "uint256",
          "name": "newDepositCap",
          "type": "uint256"
        }
      ],
      "name": "setDepositCap",
      "outputs": [],
      "stateMutability": "nonpayable",
      "type": "function"
    },
    {
      "inputs": [
        {
          "internalType": "Percentage",
          "name": "newMaxDepositPercentageOfTVL",
          "type": "uint256"
        }
      ],
      "name": "setMaxDepositPercentageOfTVL",
      "outputs": [],
      "stateMutability": "nonpayable",
      "type": "function"
    },
    {
      "inputs": [
        {
          "internalType": "uint256",
          "name": "newMaxRebalanceInflow",
          "type": "uint256"
        }
      ],
      "name": "setMaxRebalanceInflow",
      "outputs": [],
      "stateMutability": "nonpayable",
      "type": "function"
    },
    {
      "inputs": [
        {
          "internalType": "uint256",
          "name": "newMaxRebalanceOutflow",
          "type": "uint256"
        }
      ],
      "name": "setMaxRebalanceOutflow",
      "outputs": [],
      "stateMutability": "nonpayable",
      "type": "function"
    },
    {
      "inputs": [
        {
          "internalType": "address[]",
          "name": "tokens",
          "type": "address[]"
        }
      ],
      "name": "sweep",
      "outputs": [
        {
          "internalType": "address[]",
          "name": "sweptTokens",
          "type": "address[]"
        },
        {
          "internalType": "uint256[]",
          "name": "sweptAmounts",
          "type": "uint256[]"
        }
      ],
      "stateMutability": "nonpayable",
      "type": "function"
    },
    {
      "inputs": [],
      "name": "tipJar",
      "outputs": [
        {
          "internalType": "address",
          "name": "",
          "type": "address"
        }
      ],
      "stateMutability": "view",
      "type": "function"
    },
    {
      "inputs": [],
      "name": "totalAssets",
      "outputs": [
        {
          "internalType": "uint256",
          "name": "assets",
          "type": "uint256"
        }
      ],
      "stateMutability": "view",
      "type": "function"
    },
    {
      "inputs": [],
      "name": "treasury",
      "outputs": [
        {
          "internalType": "address",
          "name": "",
          "type": "address"
        }
      ],
      "stateMutability": "view",
      "type": "function"
    },
    {
      "inputs": [],
      "name": "unregisterFleetCommander",
      "outputs": [],
      "stateMutability": "nonpayable",
      "type": "function"
    },
    {
      "inputs": [],
      "name": "withdrawableTotalAssets",
      "outputs": [
        {
          "internalType": "uint256",
          "name": "",
          "type": "uint256"
        }
      ],
      "stateMutability": "view",
      "type": "function"
    }
  ],
  "bytecode": "0x61010080604052346106af57612fcb803803809161001d82856106f5565b833981016060828203126106af5761003482610718565b9061004160208401610718565b604084015190936001600160401b0382116106af570190610140828203126106af5760405190610070826106d9565b82516001600160401b0381116106af578161008c91850161072c565b82526020830151906001600160401b0382116106af576100ad91840161072c565b91602082019283526100c160408201610718565b928360408401526100d460608301610718565b928360608201526100e760808401610718565b946080820195865260a08401519560a0830196875260c08501519060c0840191825260e08601519260e085019384526101206101266101008901610781565b61010087019081529701516101208601908152976001600160a01b03908116911680156106c6576040516301ffc9a760e01b815263261c910560e21b6004820152602081602481855afa9081156106bb575f9161067d575b501561066b57608052801561065c5760a05280516001600160a01b03161561064d578351511561063e576001600160a01b036101b861078e565b161561062f5768056bc75e2d6310000087511161062057516001600160a01b03166101e161078e565b975191519251935194519551151596519761012060405191610202836106d9565b5f8084526001600160a01b03919091166020840181905260408401859052606084018690526080840187905260a0840188905260c0840189905260e08401998a5261010084019a8b5291909201998a5281546001600160a01b031990811690925560018054831690911790556002805490911690911790556003556004556005558051906001600160401b0382116105235760065490600182811c92168015610616575b60208310146105055781601f8493116105a8575b50602090601f8311600114610542575f92610537575b50508160011b915f199060031b1c1916176006555b518051906001600160401b0382116105235760075490600182811c92168015610519575b60208310146105055781601f849311610497575b50602090601f8311600114610431575f92610426575b50508160011b915f199060031b1c1916176007555b51151560ff8019600854169116176008555160095560018060a01b0316908115610417576001600160a01b031680156104085760e05260c0526040516127cf90816107fc823960805181818161034f015261106e015260a0518181816101f001528181610a2c015281816111bb015281816118b2015281816119400152612342015260c051818181610d5501528181610f1101528181611b6c01528181611db701528181611ead01526124c4015260e0518181816103f901526106300152f35b6302fe89d560e11b5f5260045ffd5b630306120160e01b5f5260045ffd5b015190505f80610333565b60075f9081528281209350601f198516905b81811061047f5750908460019594939210610467575b505050811b01600755610348565b01515f1960f88460031b161c191690555f8080610459565b92936020600181928786015181550195019301610443565b60075f529091507fa66cc928b5edb82af9bd49922954155ab7b0942694bea4ce44661d9a8736c688601f840160051c810191602085106104fb575b90601f859493920160051c01905b8181106104ed575061031d565b5f81558493506001016104e0565b90915081906104d2565b634e487b7160e01b5f52602260045260245ffd5b91607f1691610309565b634e487b7160e01b5f52604160045260245ffd5b015190505f806102d0565b60065f9081528281209350601f198516905b8181106105905750908460019594939210610578575b505050811b016006556102e5565b01515f1960f88460031b161c191690555f808061056a565b92936020600181928786015181550195019301610554565b60065f529091507ff652222313e28459528d920b65115c16c04f3efc82aaedc97be59f3f377c0d3f601f840160051c8101916020851061060c575b90601f859493920160051c01905b8181106105fe57506102ba565b5f81558493506001016105f1565b90915081906105e3565b91607f16916102a6565b634ef9dfe360e01b5f5260045ffd5b633a4f9cdb60e21b5f5260045ffd5b63268c072960e01b5f5260045ffd5b637ff57ef160e11b5f5260045ffd5b63f1634df960e01b5f5260045ffd5b6347bd7c1d60e01b5f5260045260245ffd5b90506020813d6020116106b3575b81610698602093836106f5565b810103126106af576106a990610781565b5f61017e565b5f80fd5b3d915061068b565b6040513d5f823e3d90fd5b6347bd7c1d60e01b5f525f60045260245ffd5b61014081019081106001600160401b0382111761052357604052565b601f909101601f19168101906001600160401b0382119082101761052357604052565b51906001600160a01b03821682036106af57565b81601f820112156106af578051906001600160401b0382116105235760405192610760601f8401601f1916602001856106f5565b828452602083830101116106af57815f9260208093018386015e8301015290565b519081151582036106af57565b60a051604051628bec5760e51b815290602090829060049082906001600160a01b03165afa9081156106bb575f916107c4575090565b90506020813d6020116107f3575b816107df602093836106f5565b810103126106af576107f090610718565b90565b3d91506107d256fe6080806040526004361015610012575f80fd5b5f905f3560e01c90816301e1d11414611e8b5750806306fdde0314611e70578063117d8ae014611e4457806313c408f814611d4757806324ea54f414611d0d5780632db6d39914611abf578063303dbaf314611a9d5780633194549e14611a805780633727093614611a5957806338d52e0f14611a315780634fc7fac3146119bb578063565974d31461198c5780635b0f83f31461191b57806361d027b31461188d57806361f5cd8b1461182357806366e943f1146117e957806369b3054b14611788578063780469bb146112b857806379502c55146112075780637aaceb9514611195578063866512031461113c5780638a8b99761461100557806392f5e83214610f99578063a89f38a314610f5e578063ad5a356f14610f40578063b6042b3414610efb578063bdcdd88214610edd578063c0b534c214610ea2578063c38a6f0b14610cad578063c3f909d414610a5b578063c9c667e314610a16578063ccc57490146109db578063ce5c7f611461044b578063d570ee4714610428578063dbb7cbc5146103e3578063dbd5edc7146103c5578063ebc136d0146102e5578063ebf31131146102785763f7e533ec146101cb575f80fd5b34610275578060031936011261027557604051633df94cfb60e21b81526020816004817f00000000000000000000000000000000000000000000000000000000000000006001600160a01b03165afa90811561026a576020929161023d575b506040516001600160a01b039091168152f35b61025d9150823d8411610263575b6102558183612051565b81019061230f565b5f61022a565b503d61024b565b6040513d84823e3d90fd5b80fd5b503461027557806003193601126102755780546001600160a01b03811633036102d6576001600160a01b03191681556040513381527f7cb941d7b1708e5b3bcd35ca960d6c6311188cec18886e5b67630552676b048790602090a180f35b63430da47160e01b8252600482fd5b5034610275576020366003190112610275576004356001600160a01b038116908190036103c157604051632474521560e21b81527fb00be3d6a5434b97b328543d1486d56adcb7e74080170d1cdd7e0306c3d9ba3d600482015260248101919091526020816044817f00000000000000000000000000000000000000000000000000000000000000006001600160a01b03165afa90811561026a5760209291610394575b506040519015158152f35b6103b49150823d84116103ba575b6103ac8183612051565b8101906123b4565b5f610389565b503d6103a2565b5080fd5b50346102755780600319360112610275576020600354604051908152f35b50346102755780600319360112610275576040517f00000000000000000000000000000000000000000000000000000000000000006001600160a01b03168152602090f35b503461027557806003193601126102755760206104436124a3565b604051908152f35b5034610275576020366003190112610275576004356001600160401b0381116103c15761047c903690600401611fbf565b604051628bec5760e51b8152602081600481305afa9081156107fa5784916109bc575b506001600160a01b031633036109a9576104b76125a4565b8101906020818303126109a1578035906001600160401b0382116109a55701906080828203126109a15760405191608083018381106001600160401b0382111761098d5760405280356001600160401b038111610989578261051a918301612089565b835260208101356001600160401b038111610989578261053b918301612089565b916020840192835260408201356001600160401b0381116109715782019181601f840112156109715782359261057084612072565b9361057e6040519586612051565b80855260208086019160051b8301019184831161096d57602001905b82821061097957505050604085019283526060810135906001600160401b03821161097557019080601f83011215610971578135916105d883612072565b926105e66040519485612051565b80845260208085019160051b8301019183831161096d5760208101915b8383106108e5575050505050606084019081526106218351516123cc565b9061062d8451516123cc565b957f00000000000000000000000000000000000000000000000000000000000000006001600160a01b031695815b8651518110156108515781516001600160a01b039061067b9083906123fe565b516040516309bf142360e01b8152911660048201526020816024818c5afa9081156107fa578491610833575b50156108245781516001600160a01b03906106c39083906123fe565b51169060018060a01b036106d8828a516123fe565b5116916106e68289516123fe565b516106f28388516123fe565b519186604051958693637d5f6a0960e11b8552608485019130600487015260248601526044850152608060648501528451809152602060a4850195019082905b8082106108055750505082908160209503925af180156107fa576107c5575b8751600192506001600160a01b039061076b9083906123fe565b511661077782886123fe565b526107838188516123fe565b5161078e828c6123fe565b526107bf828060a01b036107a3838b516123fe565b51168b6107b8846107b261232e565b926123fe565b519161262a565b0161065b565b6020823d82116107f2575b816107dd60209383612051565b810103126107ee5760019150610751565b5f80fd5b3d91506107d0565b6040513d86823e3d90fd5b825187526020968701968996508b945090920191600190910190610732565b63a953048960e01b8352600483fd5b61084b915060203d81116103ba576103ac8183612051565b5f6106a7565b82856108e18b61086083612426565b61086982612469565b907f3e3e7958121b3e39c7a49392d1aa9cdce870c2a059744f9e15cf66fff78654558680a361089783612426565b926108a182612469565b946040519586957f3e3e7958121b3e39c7a49392d1aa9cdce870c2a059744f9e15cf66fff78654558380a35f51602061277a5f395f51905f525d836120f7565b0390f35b82356001600160401b03811161096957820185603f820112156109695760208101359061091182612072565b9161091f6040519384612051565b8083526020808085019260051b840101019188831161096557604001905b82821061095557505050815260209283019201610603565b813581526020918201910161093d565b8d80fd5b8a80fd5b8880fd5b8580fd5b8680fd5b813581526020918201910161059a565b8480fd5b634e487b7160e01b85526041600452602485fd5b8280fd5b8380fd5b631184b31b60e21b835233600452602483fd5b6109d5915060203d602011610263576102558183612051565b5f61049f565b503461027557806003193601126102755760206040517f7935bd0ae54bc31f548c14dba4d37c5c64b3f8ca900cb468fb8abd54d5894f558152f35b50346102755780600319360112610275576040517f00000000000000000000000000000000000000000000000000000000000000006001600160a01b03168152602090f35b503461027557806003193601126102755780610120604051610a7c81612035565b8281528260208201528260408201528260608201528260808201528260a0820152606060c0820152606060e0820152826101008201520152604051610ac081612035565b81546001600160a01b03908116825260015481166020830190815260025490911660408301908152600354606084019081526004546080850190815260055460a0860190815293959193610b12612172565b9160c087019283526040519380600754908160011c91600181168015610ca3575b602084108114610c8f57838952908115610c685750600114610c0f575b505091849391610b68610bfa96610be6950386612051565b60e089810195865260085460ff1615156101008b019081526009546101208c019081526040805160208082529d516001600160a01b039081169e82019e909e529d518d16908e01529851909a1660608c0152975160808b01525160a08a01525160c08901525161014095880195909552869594610160870190611f9b565b9051858203601f1901610100870152611f9b565b91511515610120840152516101408301520390f35b6007815291507fa66cc928b5edb82af9bd49922954155ab7b0942694bea4ce44661d9a8736c6885b818310610c4e575050840160200181610b68610b50565b6001816020929493945483858b0101520191019190610c37565b60ff19166020808a019190915292151560051b88019092019250839150610b689050610b50565b634e487b7160e01b83526022600452602483fd5b92607f1692610b33565b503461027557608036600319011261027557600435610cca61201f565b6044356001600160401b0381116109a557610ce9903690600401611fbf565b6064939193356001600160401b03811161097157610d0b903690600401611fbf565b86549091906001600160a01b03163303610e8f57869291610d2b916125d9565b604051632d182be560e21b81526004810184905230602482018190526044820152602081606481867f00000000000000000000000000000000000000000000000000000000000000006001600160a01b03165af18015610e8457610e55575b506002546001600160a01b031693610da3848287612664565b6001600160a01b031694853b156109a15781606484926040519485938492632db6d39960e01b845289600485015260406024850152816044850152848401378181018301859052601f01601f1916810103018183895af1801561026a57610e40575b5050610e3a7f9f784fc02a186f1c98b2d9f15fda084da27cdd291a3785d978f91911d880516b91604051918291309583612399565b0390a380f35b81610e4a91612051565b6109a557835f610e05565b610e769060203d602011610e7d575b610e6e8183612051565b810190612300565b505f610d8a565b503d610e64565b6040513d85823e3d90fd5b631564c0e160e11b875233600452602487fd5b503461027557806003193601126102755760206040517f025d8bbf3268be680d2605ebf6da15063b9915615bf1087dab336efc1bf970cb8152f35b50346102755780600319360112610275576020600954604051908152f35b50346102755780600319360112610275576040517f00000000000000000000000000000000000000000000000000000000000000006001600160a01b03168152602090f35b50346102755780600319360112610275576020600554604051908152f35b503461027557806003193601126102755760206040517fb00be3d6a5434b97b328543d1486d56adcb7e74080170d1cdd7e0306c3d9ba3d8152f35b5034610275576020366003190112610275578054600435906001600160a01b03163303610ff2576020817fb6ac66853c4e59c71e118d25ab494bb847c4e5eb0c8894898c5343e6f61afc1292600555604051908152a180f35b631564c0e160e11b825233600452602482fd5b5034610275578060031936011261027557604051600160f91b602082019081523060601b6001600160601b03191660218301526015825290611048603582612051565b519020604051632474521560e21b815260048101919091523360248201526020816044817f00000000000000000000000000000000000000000000000000000000000000006001600160a01b03165afa90811561026a57829161111d575b501561110a5780546001600160a01b0381166110fb576001600160a01b0319163390811782556040519081527f55489ce0259bd691120d8860861be1c401c7c16a3cd268d21045756af4ecc5ca90602090a180f35b636a79b97d60e11b8252600482fd5b631564c0e160e11b815233600452602490fd5b611136915060203d6020116103ba576103ac8183612051565b5f6110a6565b5034610275576020366003190112610275578054600435906001600160a01b03163303610ff2576020817f333b26cca69716ad4680ddb07663f5bfb4f06045671f336af9a83690a3ae00f992600355604051908152a180f35b5034610275578060031936011261027557604051637aaceb9560e01b81526020816004817f00000000000000000000000000000000000000000000000000000000000000006001600160a01b03165afa90811561026a576020929161023d57506040516001600160a01b039091168152f35b5034610275578060031936011261027557546001546002546003546004546005546001600160a01b03948516958516949293909216916112a591906112979061124e612172565b90611257612254565b9360ff6008541697600954976040519b8c9b8c5260208c015260408b015260608a0152608089015260a088015261014060c0880152610140870190611f9b565b9085820360e0870152611f9b565b9115156101008401526101208301520390f35b50346107ee5760203660031901126107ee576004356001600160401b0381116107ee576112e9903690600401612089565b604051628bec5760e51b8152602081600481305afa90811561166e575f91611769575b506001600160a01b03163303611756576113246125a4565b61132e81516123cc565b9061133981516123cc565b6002545f5460405163c8169aa160e01b81529294926001600160a01b0392831692909160209183916004918391165afa90811561166e575f91611737575b506040516370a0823160e01b8152306004820152602081602481865afa90811561166e575f91611705575b501515806116f2575b61157c575b5050835b82518110156115235760249060206001600160a01b036113d483876123fe565b5116604051938480926370a0823160e01b82523060048301525afa9182156115185786926114e5575b508161140e575b60019150016113b4565b6001600160a01b0361142082866123fe565b511691602461142d61232e565b9360206001600160a01b03611442868a6123fe565b5116604051938480926370a0823160e01b82523060048301525afa9182156114da5789926114a6575b50906001946114799261262a565b828060a01b0361148983876123fe565b511661149583866123fe565b526114a082876123fe565b52611404565b91506020823d82116114d2575b816114c060209383612051565b810103126107ee57905190600161146b565b3d91506114b3565b6040513d8b823e3d90fd5b9091506020813d8211611510575b8161150060209383612051565b810103126107ee5751905f6113fd565b3d91506114f3565b6040513d88823e3d90fd5b84826108e18661153283612426565b9261153c82612469565b946040519586957f46b8771620f6acf56cb03d3e835ea8024c7dcbcf05fcc3f6ade9e19d1a3e212b8380a35f51602061277a5f395f51905f525d836120f7565b6040516370a0823160e01b8152306004820152602081602481865afa90811561166e575f916116bf575b50816115b760209260249486612664565b6040516370a0823160e01b81523060048201526001600160a01b0391909116939092839182905afa90811561166e575f9161168d575b50604051602081018181106001600160401b03821117611679576040525f8152823b156107ee57611644925f9283604051809681958294632db6d39960e01b84526004840152604060248401526044830190611f9b565b03925af1801561166e57611659575b806113b0565b6116669194505f90612051565b5f925f611653565b6040513d5f823e3d90fd5b634e487b7160e01b5f52604160045260245ffd5b90506020813d6020116116b7575b816116a860209383612051565b810103126107ee57515f6115ed565b3d915061169b565b90506020813d6020116116ea575b816116da60209383612051565b810103126107ee575160246115a6565b3d91506116cd565b50306001600160a01b03821614156113ab565b90506020813d60201161172f575b8161172060209383612051565b810103126107ee57515f6113a2565b3d9150611713565b611750915060203d602011610263576102558183612051565b5f611377565b631184b31b60e21b5f523360045260245ffd5b611782915060203d602011610263576102558183612051565b5f61130c565b346107ee5760403660031901126107ee5760043560038110156107ee576020906117b061201f565b604051908382019260f81b835260018060601b03199060601b166021820152601581526117de603582612051565b519020604051908152f35b346107ee575f3660031901126107ee5760206040517f0d186688925976bbe6755ae984501c8e3e2b103a7af59fd803ab9c6d891ae7e08152f35b346107ee5760203660031901126107ee575f54600435906001600160a01b0316330361187a576020817ffbe2d5c01ea8ba5596d6c4e6c82c6d4a0a0ee1128689993a4a5ba0169273d69f92600455604051908152a1005b631564c0e160e11b5f523360045260245ffd5b346107ee575f3660031901126107ee576040516361d027b360e01b81526020816004817f00000000000000000000000000000000000000000000000000000000000000006001600160a01b03165afa801561166e576020915f916118fe57506040516001600160a01b039091168152f35b6119159150823d8411610263576102558183612051565b8261022a565b346107ee575f3660031901126107ee57604051635b0f83f360e01b81526020816004817f00000000000000000000000000000000000000000000000000000000000000006001600160a01b03165afa801561166e576020915f916118fe57506040516001600160a01b039091168152f35b346107ee575f3660031901126107ee576108e16119a7612254565b604051918291602083526020830190611f9b565b346107ee5760203660031901126107ee575f54600435906001600160a01b0316330361187a5768056bc75e2d631000008111611a22576020817fd3c6d0ab315f2f1352f036cd9f401b49e38e1b90907e195225e8105f9a0b6f0292600955604051908152a1005b634ef9dfe360e01b5f5260045ffd5b346107ee575f3660031901126107ee576002546040516001600160a01b039091168152602090f35b346107ee575f3660031901126107ee575f546040516001600160a01b039091168152602090f35b346107ee575f3660031901126107ee576020600454604051908152f35b346107ee575f3660031901126107ee57602060ff600854166040519015158152f35b346107ee57611acd36611fec565b611ad56125a4565b604051631b93849b60e11b8152602081600481305afa90811561166e575f91611cee575b506001600160a01b0316338103611c32575b50611b15916125d9565b5f60018060a01b036002541691611b5c6040516323b872dd60e01b602082015233602482015230604482015282606482015260648152611b56608482612051565b84612721565b6002546020906001600160a01b037f0000000000000000000000000000000000000000000000000000000000000000811691611b9c918591849116612664565b604460405180958193636e553f6560e01b83528660048401523060248401525af190811561166e577fcbaa1442ac205415c9d69643e7b60ec73d1de35dbc807c21ec288c70ddc4207b92611bfe92611c13575b50604051918291339583612399565b0390a25f5f51602061277a5f395f51905f525d005b611c2b9060203d602011610e7d57610e6e8183612051565b5084611bef565b604051628bec5760e51b8152602081600481305afa90811561166e575f91611ccf575b506001600160a01b03163314611b0b5760206024916040519283809263d206a05960e01b82523360048301525afa90811561166e575f91611cb0575b5015611c9d5783611b0b565b638f7a567d60e01b5f523360045260245ffd5b611cc9915060203d6020116103ba576103ac8183612051565b84611c91565b611ce8915060203d602011610263576102558183612051565b85611c55565b611d07915060203d602011610263576102558183612051565b84611af9565b346107ee575f3660031901126107ee5760206040517f55435dd261a4b9b3364963f7738a7a662ad9c84396d64be3365284bb7f0a50418152f35b346107ee57611d5536611fec565b5f546001600160a01b0316330361187a57611d7791611d726125a4565b6125d9565b600254604051632d182be560e21b815260048101839052306024820181905260448201526001600160a01b03918216929091602090839060649082905f907f0000000000000000000000000000000000000000000000000000000000000000165af190811561166e577fd5e872c5ecfb1bb8820b2e6a20e31b883682282da886621541f71e31ec11947e92611bfe92611e25575b50611e1781338661262a565b604051918291339583612399565b611e3d9060203d602011610e7d57610e6e8183612051565b5084611e0b565b346107ee575f3660031901126107ee576020611e5e61232e565b6040516001600160a01b039091168152f35b346107ee575f3660031901126107ee576108e16119a7612172565b346107ee575f3660031901126107ee576370a0823160e01b81523060048201527f00000000000000000000000000000000000000000000000000000000000000006001600160a01b0316905f90602081602481865afa90811561166e575f91611f69575b5080611f01575b602082604051908152f35b602091506024604051809481936303d1689d60e11b835260048301525afa801561166e575f90611f36575b6020915082611ef6565b506020813d602011611f61575b81611f5060209383612051565b810103126107ee5760209051611f2c565b3d9150611f43565b90506020813d602011611f93575b81611f8460209383612051565b810103126107ee575183611eef565b3d9150611f77565b805180835260209291819084018484015e5f828201840152601f01601f1916010190565b9181601f840112156107ee578235916001600160401b0383116107ee57602083818601950101116107ee57565b9060406003198301126107ee5760043591602435906001600160401b0382116107ee5761201b91600401611fbf565b9091565b602435906001600160a01b03821682036107ee57565b61014081019081106001600160401b0382111761167957604052565b90601f801991011681019081106001600160401b0382111761167957604052565b6001600160401b0381116116795760051b60200190565b9080601f830112156107ee578135906120a182612072565b926120af6040519485612051565b82845260208085019360051b8201019182116107ee57602001915b8183106120d75750505090565b82356001600160a01b03811681036107ee578152602092830192016120ca565b604081016040825282518091526020606083019301905f5b818110612153575050506020818303910152602080835192838152019201905f5b81811061213d5750505090565b8251845260209384019390920191600101612130565b82516001600160a01b031685526020948501949092019160010161210f565b604051905f6006548060011c916001821691821561224a575b60208410831461223657838652859290811561221757506001146121b8575b6121b692500383612051565b565b5060065f90815290917ff652222313e28459528d920b65115c16c04f3efc82aaedc97be59f3f377c0d3f5b8183106121fb5750509060206121b6928201016121aa565b60209193508060019154838589010152019101909184926121e3565b602092506121b694915060ff191682840152151560051b8201016121aa565b634e487b7160e01b5f52602260045260245ffd5b92607f169261218b565b604051905f6007548060011c91600182169182156122f6575b6020841083146122365783865285929081156122175750600114612297576121b692500383612051565b5060075f90815290917fa66cc928b5edb82af9bd49922954155ab7b0942694bea4ce44661d9a8736c6885b8183106122da5750509060206121b6928201016121aa565b60209193508060019154838589010152019101909184926122c2565b92607f169261226d565b908160209103126107ee575190565b908160209103126107ee57516001600160a01b03811681036107ee5790565b604051628bec5760e51b81526020816004817f00000000000000000000000000000000000000000000000000000000000000006001600160a01b03165afa90811561166e575f9161237d575090565b612396915060203d602011610263576102558183612051565b90565b6001600160a01b039091168152602081019190915260400190565b908160209103126107ee575180151581036107ee5790565b906123d682612072565b6123e36040519182612051565b82815280926123f4601f1991612072565b0190602036910137565b80518210156124125760209160051b010190565b634e487b7160e01b5f52603260045260245ffd5b6040518091829160208251919201905f5b8181106124475750505003902090565b82516001600160a01b0316845285945060209384019390920191600101612437565b6040518091829160208251919201905f5b81811061248a5750505003902090565b825184528594506020938401939092019160010161247a565b60ff600854166125a0576040516370a0823160e01b81523060048201525f907f00000000000000000000000000000000000000000000000000000000000000006001600160a01b031690602081602481855afa90811561166e575f9161256e575b5061250d575090565b60405163ce96cb7760e01b81523060048201529150602090829060249082905afa90811561166e575f9161253f575090565b90506020813d602011612566575b8161255a60209383612051565b810103126107ee575190565b3d915061254d565b90506020813d602011612598575b8161258960209383612051565b810103126107ee57515f612504565b3d915061257c565b5f90565b5f51602061277a5f395f51905f525c6125ca5760015f51602061277a5f395f51905f525d565b633ee5aeb560e01b5f5260045ffd5b501580158061261d575b61260e5780612602575b6125f357565b63332863a960e11b5f5260045ffd5b5060ff600854166125ed565b630cd0fdf960e01b5f5260045ffd5b5060ff60085416156125e3565b61265f6121b6939261265160405194859263a9059cbb60e01b602085015260248401612399565b03601f198101845283612051565b612721565b91909160205f6040519361269b8561268d8582019363095ea7b360e01b85528960248401612399565b03601f198101875286612051565b84519082855af15f513d826126fc575b5050156126b757505050565b60405163095ea7b360e01b60208201526001600160a01b0390931660248401525f60448085019190915283526121b69261265f906126f6606482612051565b82612721565b90915061271957506001600160a01b0381163b15155b5f806126ab565b600114612712565b905f602091828151910182855af11561166e575f513d61277057506001600160a01b0381163b155b6127505750565b635274afe760e01b5f9081526001600160a01b0391909116600452602490fd5b6001141561274956fe9b779b17422d0df92223018b32b4d1fa46e071723d6817e2486d003becc55f00a26469706673582212205ab7a70d36207d2b0b9892545dd48f50789caf1bdd039882e6c1daadc5c261ec64736f6c634300081c0033",
  "linkReferences": {},
  "deployedLinkReferences": {}
}