{
  "_format": "hh-sol-artifact-1",
  "contractName": "MorphoVaultArk",
  "sourceName": "src/contracts/arks/MorphoVaultArk.sol",
  "abi": [
    {
      "inputs": [
        {
          "internalType": "address",
          "name": "_metaMorpho",
          "type": "address"
        },
        {
          "internalType": "address",
          "name": "_urdFactory",
          "type": "address"
        },
        {
          "components": [
            {
              "internalType": "string",
              "name": "name",
              "type": "string"
            },
            {
              "internalType": "string",
              "name": "details",
              "type": "string"
            },
            {
              "internalType": "address",
              "name": "accessManager",
              "type": "address"
            },
            {
              "internalType": "address",
              "name": "configurationManager",
              "type": "address"
            },
            {
              "internalType": "address",
              "name": "asset",
              "type": "address"
            },
            {
              "internalType": "uint256",
              "name": "depositCap",
              "type": "uint256"
            },
            {
              "internalType": "uint256",
              "name": "maxRebalanceOutflow",
              "type": "uint256"
            },
            {
              "internalType": "uint256",
              "name": "maxRebalanceInflow",
              "type": "uint256"
            },
            {
              "internalType": "bool",
              "name": "requiresKeeperData",
              "type": "bool"
            },
            {
              "internalType": "Percentage",
              "name": "maxDepositPercentageOfTVL",
              "type": "uint256"
            }
          ],
          "internalType": "struct ArkParams",
          "name": "_params",
          "type": "tuple"
        }
      ],
      "stateMutability": "nonpayable",
      "type": "constructor"
    },
    {
      "inputs": [
        {
          "internalType": "address",
          "name": "caller",
          "type": "address"
        }
      ],
      "name": "CallerIsNotAdmin",
      "type": "error"
    },
    {
      "inputs": [
        {
          "internalType": "address",
          "name": "caller",
          "type": "address"
        }
      ],
      "name": "CallerIsNotAuthorizedToBoard",
      "type": "error"
    },
    {
      "inputs": [
        {
          "internalType": "address",
          "name": "caller",
          "type": "address"
        }
      ],
      "name": "CallerIsNotCommander",
      "type": "error"
    },
    {
      "inputs": [
        {
          "internalType": "address",
          "name": "caller",
          "type": "address"
        },
        {
          "internalType": "bytes32",
          "name": "role",
          "type": "bytes32"
        }
      ],
      "name": "CallerIsNotContractSpecificRole",
      "type": "error"
    },
    {
      "inputs": [
        {
          "internalType": "address",
          "name": "caller",
          "type": "address"
        }
      ],
      "name": "CallerIsNotCurator",
      "type": "error"
    },
    {
      "inputs": [
        {
          "internalType": "address",
          "name": "caller",
          "type": "address"
        }
      ],
      "name": "CallerIsNotDecayController",
      "type": "error"
    },
    {
      "inputs": [
        {
          "internalType": "address",
          "name": "caller",
          "type": "address"
        }
      ],
      "name": "CallerIsNotFoundation",
      "type": "error"
    },
    {
      "inputs": [
        {
          "internalType": "address",
          "name": "caller",
          "type": "address"
        }
      ],
      "name": "CallerIsNotGovernor",
      "type": "error"
    },
    {
      "inputs": [
        {
          "internalType": "address",
          "name": "caller",
          "type": "address"
        }
      ],
      "name": "CallerIsNotGuardian",
      "type": "error"
    },
    {
      "inputs": [
        {
          "internalType": "address",
          "name": "caller",
          "type": "address"
        }
      ],
      "name": "CallerIsNotGuardianOrGovernor",
      "type": "error"
    },
    {
      "inputs": [
        {
          "internalType": "address",
          "name": "caller",
          "type": "address"
        }
      ],
      "name": "CallerIsNotKeeper",
      "type": "error"
    },
    {
      "inputs": [
        {
          "internalType": "address",
          "name": "caller",
          "type": "address"
        }
      ],
      "name": "CallerIsNotRaft",
      "type": "error"
    },
    {
      "inputs": [
        {
          "internalType": "address",
          "name": "caller",
          "type": "address"
        }
      ],
      "name": "CallerIsNotRaftOrCommander",
      "type": "error"
    },
    {
      "inputs": [
        {
          "internalType": "address",
          "name": "caller",
          "type": "address"
        }
      ],
      "name": "CallerIsNotSuperKeeper",
      "type": "error"
    },
    {
      "inputs": [],
      "name": "CannotAddCommanderToArkWithCommander",
      "type": "error"
    },
    {
      "inputs": [],
      "name": "CannotDeployArkWithEmptyName",
      "type": "error"
    },
    {
      "inputs": [],
      "name": "CannotDeployArkWithoutConfigurationManager",
      "type": "error"
    },
    {
      "inputs": [],
      "name": "CannotDeployArkWithoutRaft",
      "type": "error"
    },
    {
      "inputs": [],
      "name": "CannotDeployArkWithoutToken",
      "type": "error"
    },
    {
      "inputs": [],
      "name": "CannotRemoveCommanderFromArkWithAssets",
      "type": "error"
    },
    {
      "inputs": [],
      "name": "CannotUseKeeperDataWhenNotRequired",
      "type": "error"
    },
    {
      "inputs": [],
      "name": "ConfigurationManagerZeroAddress",
      "type": "error"
    },
    {
      "inputs": [
        {
          "internalType": "address",
          "name": "caller",
          "type": "address"
        }
      ],
      "name": "DirectGrantIsDisabled",
      "type": "error"
    },
    {
      "inputs": [
        {
          "internalType": "address",
          "name": "caller",
          "type": "address"
        }
      ],
      "name": "DirectRevokeIsDisabled",
      "type": "error"
    },
    {
      "inputs": [],
      "name": "ERC4626AssetMismatch",
      "type": "error"
    },
    {
      "inputs": [],
      "name": "FleetCommanderAlreadyRegistered",
      "type": "error"
    },
    {
      "inputs": [],
      "name": "FleetCommanderNotRegistered",
      "type": "error"
    },
    {
      "inputs": [
        {
          "internalType": "address",
          "name": "invalidAddress",
          "type": "address"
        }
      ],
      "name": "InvalidAccessManagerAddress",
      "type": "error"
    },
    {
      "inputs": [],
      "name": "InvalidBoardData",
      "type": "error"
    },
    {
      "inputs": [],
      "name": "InvalidDisembarkData",
      "type": "error"
    },
    {
      "inputs": [],
      "name": "InvalidUrdAddress",
      "type": "error"
    },
    {
      "inputs": [],
      "name": "InvalidUrdFactoryAddress",
      "type": "error"
    },
    {
      "inputs": [],
      "name": "InvalidVaultAddress",
      "type": "error"
    },
    {
      "inputs": [],
      "name": "KeeperDataRequired",
      "type": "error"
    },
    {
      "inputs": [],
      "name": "MaxDepositPercentageOfTVLTooHigh",
      "type": "error"
    },
    {
      "inputs": [],
      "name": "ReentrancyGuardReentrantCall",
      "type": "error"
    },
    {
      "inputs": [
        {
          "internalType": "address",
          "name": "token",
          "type": "address"
        }
      ],
      "name": "SafeERC20FailedOperation",
      "type": "error"
    },
    {
      "anonymous": false,
      "inputs": [
        {
          "indexed": true,
          "internalType": "address[]",
          "name": "rewardTokens",
          "type": "address[]"
        },
        {
          "indexed": true,
          "internalType": "uint256[]",
          "name": "rewardAmounts",
          "type": "uint256[]"
        }
      ],
      "name": "ArkHarvested",
      "type": "event"
    },
    {
      "anonymous": false,
      "inputs": [
        {
          "indexed": false,
          "internalType": "uint256",
          "name": "currentPrice",
          "type": "uint256"
        },
        {
          "indexed": false,
          "internalType": "uint256",
          "name": "timestamp",
          "type": "uint256"
        }
      ],
      "name": "ArkPoked",
      "type": "event"
    },
    {
      "anonymous": false,
      "inputs": [
        {
          "indexed": true,
          "internalType": "address[]",
          "name": "sweptTokens",
          "type": "address[]"
        },
        {
          "indexed": true,
          "internalType": "uint256[]",
          "name": "sweptAmounts",
          "type": "uint256[]"
        }
      ],
      "name": "ArkSwept",
      "type": "event"
    },
    {
      "anonymous": false,
      "inputs": [
        {
          "indexed": true,
          "internalType": "address",
          "name": "commander",
          "type": "address"
        },
        {
          "indexed": false,
          "internalType": "address",
          "name": "token",
          "type": "address"
        },
        {
          "indexed": false,
          "internalType": "uint256",
          "name": "amount",
          "type": "uint256"
        }
      ],
      "name": "Boarded",
      "type": "event"
    },
    {
      "anonymous": false,
      "inputs": [
        {
          "indexed": false,
          "internalType": "uint256",
          "name": "newCap",
          "type": "uint256"
        }
      ],
      "name": "DepositCapUpdated",
      "type": "event"
    },
    {
      "anonymous": false,
      "inputs": [
        {
          "indexed": true,
          "internalType": "address",
          "name": "commander",
          "type": "address"
        },
        {
          "indexed": false,
          "internalType": "address",
          "name": "token",
          "type": "address"
        },
        {
          "indexed": false,
          "internalType": "uint256",
          "name": "amount",
          "type": "uint256"
        }
      ],
      "name": "Disembarked",
      "type": "event"
    },
    {
      "anonymous": false,
      "inputs": [
        {
          "indexed": false,
          "internalType": "address",
          "name": "commander",
          "type": "address"
        }
      ],
      "name": "FleetCommanderRegistered",
      "type": "event"
    },
    {
      "anonymous": false,
      "inputs": [
        {
          "indexed": false,
          "internalType": "address",
          "name": "commander",
          "type": "address"
        }
      ],
      "name": "FleetCommanderUnregistered",
      "type": "event"
    },
    {
      "anonymous": false,
      "inputs": [
        {
          "indexed": false,
          "internalType": "Percentage",
          "name": "newMaxDepositPercentageOfTVL",
          "type": "uint256"
        }
      ],
      "name": "MaxDepositPercentageOfTVLUpdated",
      "type": "event"
    },
    {
      "anonymous": false,
      "inputs": [
        {
          "indexed": false,
          "internalType": "uint256",
          "name": "newMaxInflow",
          "type": "uint256"
        }
      ],
      "name": "MaxRebalanceInflowUpdated",
      "type": "event"
    },
    {
      "anonymous": false,
      "inputs": [
        {
          "indexed": false,
          "internalType": "uint256",
          "name": "newMaxOutflow",
          "type": "uint256"
        }
      ],
      "name": "MaxRebalanceOutflowUpdated",
      "type": "event"
    },
    {
      "anonymous": false,
      "inputs": [
        {
          "indexed": true,
          "internalType": "address",
          "name": "from",
          "type": "address"
        },
        {
          "indexed": true,
          "internalType": "address",
          "name": "to",
          "type": "address"
        },
        {
          "indexed": false,
          "internalType": "address",
          "name": "token",
          "type": "address"
        },
        {
          "indexed": false,
          "internalType": "uint256",
          "name": "amount",
          "type": "uint256"
        }
      ],
      "name": "Moved",
      "type": "event"
    },
    {
      "anonymous": false,
      "inputs": [
        {
          "indexed": false,
          "internalType": "address",
          "name": "newRaft",
          "type": "address"
        }
      ],
      "name": "RaftUpdated",
      "type": "event"
    },
    {
      "inputs": [],
      "name": "ADMIRALS_QUARTERS_ROLE",
      "outputs": [
        {
          "internalType": "bytes32",
          "name": "",
          "type": "bytes32"
        }
      ],
      "stateMutability": "view",
      "type": "function"
    },
    {
      "inputs": [],
      "name": "DECAY_CONTROLLER_ROLE",
      "outputs": [
        {
          "internalType": "bytes32",
          "name": "",
          "type": "bytes32"
        }
      ],
      "stateMutability": "view",
      "type": "function"
    },
    {
      "inputs": [],
      "name": "GOVERNOR_ROLE",
      "outputs": [
        {
          "internalType": "bytes32",
          "name": "",
          "type": "bytes32"
        }
      ],
      "stateMutability": "view",
      "type": "function"
    },
    {
      "inputs": [],
      "name": "GUARDIAN_ROLE",
      "outputs": [
        {
          "internalType": "bytes32",
          "name": "",
          "type": "bytes32"
        }
      ],
      "stateMutability": "view",
      "type": "function"
    },
    {
      "inputs": [],
      "name": "SUPER_KEEPER_ROLE",
      "outputs": [
        {
          "internalType": "bytes32",
          "name": "",
          "type": "bytes32"
        }
      ],
      "stateMutability": "view",
      "type": "function"
    },
    {
      "inputs": [],
      "name": "URD_FACTORY",
      "outputs": [
        {
          "internalType": "contract IUrdFactory",
          "name": "",
          "type": "address"
        }
      ],
      "stateMutability": "view",
      "type": "function"
    },
    {
      "inputs": [],
      "name": "asset",
      "outputs": [
        {
          "internalType": "contract IERC20",
          "name": "",
          "type": "address"
        }
      ],
      "stateMutability": "view",
      "type": "function"
    },
    {
      "inputs": [
        {
          "internalType": "uint256",
          "name": "amount",
          "type": "uint256"
        },
        {
          "internalType": "bytes",
          "name": "boardData",
          "type": "bytes"
        }
      ],
      "name": "board",
      "outputs": [],
      "stateMutability": "nonpayable",
      "type": "function"
    },
    {
      "inputs": [],
      "name": "commander",
      "outputs": [
        {
          "internalType": "address",
          "name": "",
          "type": "address"
        }
      ],
      "stateMutability": "view",
      "type": "function"
    },
    {
      "inputs": [],
      "name": "config",
      "outputs": [
        {
          "internalType": "address",
          "name": "commander",
          "type": "address"
        },
        {
          "internalType": "address",
          "name": "raft",
          "type": "address"
        },
        {
          "internalType": "contract IERC20",
          "name": "asset",
          "type": "address"
        },
        {
          "internalType": "uint256",
          "name": "depositCap",
          "type": "uint256"
        },
        {
          "internalType": "uint256",
          "name": "maxRebalanceOutflow",
          "type": "uint256"
        },
        {
          "internalType": "uint256",
          "name": "maxRebalanceInflow",
          "type": "uint256"
        },
        {
          "internalType": "string",
          "name": "name",
          "type": "string"
        },
        {
          "internalType": "string",
          "name": "details",
          "type": "string"
        },
        {
          "internalType": "bool",
          "name": "requiresKeeperData",
          "type": "bool"
        },
        {
          "internalType": "Percentage",
          "name": "maxDepositPercentageOfTVL",
          "type": "uint256"
        }
      ],
      "stateMutability": "view",
      "type": "function"
    },
    {
      "inputs": [],
      "name": "configurationManager",
      "outputs": [
        {
          "internalType": "contract IConfigurationManager",
          "name": "",
          "type": "address"
        }
      ],
      "stateMutability": "view",
      "type": "function"
    },
    {
      "inputs": [],
      "name": "depositCap",
      "outputs": [
        {
          "internalType": "uint256",
          "name": "",
          "type": "uint256"
        }
      ],
      "stateMutability": "view",
      "type": "function"
    },
    {
      "inputs": [],
      "name": "details",
      "outputs": [
        {
          "internalType": "string",
          "name": "",
          "type": "string"
        }
      ],
      "stateMutability": "view",
      "type": "function"
    },
    {
      "inputs": [
        {
          "internalType": "uint256",
          "name": "amount",
          "type": "uint256"
        },
        {
          "internalType": "bytes",
          "name": "disembarkData",
          "type": "bytes"
        }
      ],
      "name": "disembark",
      "outputs": [],
      "stateMutability": "nonpayable",
      "type": "function"
    },
    {
      "inputs": [],
      "name": "fleetCommanderRewardsManagerFactory",
      "outputs": [
        {
          "internalType": "address",
          "name": "",
          "type": "address"
        }
      ],
      "stateMutability": "view",
      "type": "function"
    },
    {
      "inputs": [
        {
          "internalType": "enum ContractSpecificRoles",
          "name": "roleName",
          "type": "uint8"
        },
        {
          "internalType": "address",
          "name": "roleTargetContract",
          "type": "address"
        }
      ],
      "name": "generateRole",
      "outputs": [
        {
          "internalType": "bytes32",
          "name": "",
          "type": "bytes32"
        }
      ],
      "stateMutability": "pure",
      "type": "function"
    },
    {
      "inputs": [],
      "name": "getConfig",
      "outputs": [
        {
          "components": [
            {
              "internalType": "address",
              "name": "commander",
              "type": "address"
            },
            {
              "internalType": "address",
              "name": "raft",
              "type": "address"
            },
            {
              "internalType": "contract IERC20",
              "name": "asset",
              "type": "address"
            },
            {
              "internalType": "uint256",
              "name": "depositCap",
              "type": "uint256"
            },
            {
              "internalType": "uint256",
              "name": "maxRebalanceOutflow",
              "type": "uint256"
            },
            {
              "internalType": "uint256",
              "name": "maxRebalanceInflow",
              "type": "uint256"
            },
            {
              "internalType": "string",
              "name": "name",
              "type": "string"
            },
            {
              "internalType": "string",
              "name": "details",
              "type": "string"
            },
            {
              "internalType": "bool",
              "name": "requiresKeeperData",
              "type": "bool"
            },
            {
              "internalType": "Percentage",
              "name": "maxDepositPercentageOfTVL",
              "type": "uint256"
            }
          ],
          "internalType": "struct ArkConfig",
          "name": "",
          "type": "tuple"
        }
      ],
      "stateMutability": "view",
      "type": "function"
    },
    {
      "inputs": [],
      "name": "harborCommand",
      "outputs": [
        {
          "internalType": "address",
          "name": "",
          "type": "address"
        }
      ],
      "stateMutability": "view",
      "type": "function"
    },
    {
      "inputs": [
        {
          "internalType": "bytes",
          "name": "additionalData",
          "type": "bytes"
        }
      ],
      "name": "harvest",
      "outputs": [
        {
          "internalType": "address[]",
          "name": "rewardTokens",
          "type": "address[]"
        },
        {
          "internalType": "uint256[]",
          "name": "rewardAmounts",
          "type": "uint256[]"
        }
      ],
      "stateMutability": "nonpayable",
      "type": "function"
    },
    {
      "inputs": [
        {
          "internalType": "address",
          "name": "account",
          "type": "address"
        }
      ],
      "name": "hasAdmiralsQuartersRole",
      "outputs": [
        {
          "internalType": "bool",
          "name": "",
          "type": "bool"
        }
      ],
      "stateMutability": "view",
      "type": "function"
    },
    {
      "inputs": [],
      "name": "maxDepositPercentageOfTVL",
      "outputs": [
        {
          "internalType": "Percentage",
          "name": "",
          "type": "uint256"
        }
      ],
      "stateMutability": "view",
      "type": "function"
    },
    {
      "inputs": [],
      "name": "maxRebalanceInflow",
      "outputs": [
        {
          "internalType": "uint256",
          "name": "",
          "type": "uint256"
        }
      ],
      "stateMutability": "view",
      "type": "function"
    },
    {
      "inputs": [],
      "name": "maxRebalanceOutflow",
      "outputs": [
        {
          "internalType": "uint256",
          "name": "",
          "type": "uint256"
        }
      ],
      "stateMutability": "view",
      "type": "function"
    },
    {
      "inputs": [],
      "name": "metaMorpho",
      "outputs": [
        {
          "internalType": "contract IMetaMorpho",
          "name": "",
          "type": "address"
        }
      ],
      "stateMutability": "view",
      "type": "function"
    },
    {
      "inputs": [
        {
          "internalType": "uint256",
          "name": "amount",
          "type": "uint256"
        },
        {
          "internalType": "address",
          "name": "receiverArk",
          "type": "address"
        },
        {
          "internalType": "bytes",
          "name": "boardData",
          "type": "bytes"
        },
        {
          "internalType": "bytes",
          "name": "disembarkData",
          "type": "bytes"
        }
      ],
      "name": "move",
      "outputs": [],
      "stateMutability": "nonpayable",
      "type": "function"
    },
    {
      "inputs": [],
      "name": "name",
      "outputs": [
        {
          "internalType": "string",
          "name": "",
          "type": "string"
        }
      ],
      "stateMutability": "view",
      "type": "function"
    },
    {
      "inputs": [],
      "name": "raft",
      "outputs": [
        {
          "internalType": "address",
          "name": "",
          "type": "address"
        }
      ],
      "stateMutability": "view",
      "type": "function"
    },
    {
      "inputs": [],
      "name": "registerFleetCommander",
      "outputs": [],
      "stateMutability": "nonpayable",
      "type": "function"
    },
    {
      "inputs": [],
      "name": "requiresKeeperData",
      "outputs": [
        {
          "internalType": "bool",
          "name": "",
          "type": "bool"
        }
      ],
      "stateMutability": "view",
      "type": "function"
    },
    {
      "inputs": [
        {
          "internalType": "uint256",
          "name": "newDepositCap",
          "type": "uint256"
        }
      ],
      "name": "setDepositCap",
      "outputs": [],
      "stateMutability": "nonpayable",
      "type": "function"
    },
    {
      "inputs": [
        {
          "internalType": "Percentage",
          "name": "newMaxDepositPercentageOfTVL",
          "type": "uint256"
        }
      ],
      "name": "setMaxDepositPercentageOfTVL",
      "outputs": [],
      "stateMutability": "nonpayable",
      "type": "function"
    },
    {
      "inputs": [
        {
          "internalType": "uint256",
          "name": "newMaxRebalanceInflow",
          "type": "uint256"
        }
      ],
      "name": "setMaxRebalanceInflow",
      "outputs": [],
      "stateMutability": "nonpayable",
      "type": "function"
    },
    {
      "inputs": [
        {
          "internalType": "uint256",
          "name": "newMaxRebalanceOutflow",
          "type": "uint256"
        }
      ],
      "name": "setMaxRebalanceOutflow",
      "outputs": [],
      "stateMutability": "nonpayable",
      "type": "function"
    },
    {
      "inputs": [
        {
          "internalType": "address[]",
          "name": "tokens",
          "type": "address[]"
        }
      ],
      "name": "sweep",
      "outputs": [
        {
          "internalType": "address[]",
          "name": "sweptTokens",
          "type": "address[]"
        },
        {
          "internalType": "uint256[]",
          "name": "sweptAmounts",
          "type": "uint256[]"
        }
      ],
      "stateMutability": "nonpayable",
      "type": "function"
    },
    {
      "inputs": [],
      "name": "tipJar",
      "outputs": [
        {
          "internalType": "address",
          "name": "",
          "type": "address"
        }
      ],
      "stateMutability": "view",
      "type": "function"
    },
    {
      "inputs": [],
      "name": "totalAssets",
      "outputs": [
        {
          "internalType": "uint256",
          "name": "assets",
          "type": "uint256"
        }
      ],
      "stateMutability": "view",
      "type": "function"
    },
    {
      "inputs": [],
      "name": "treasury",
      "outputs": [
        {
          "internalType": "address",
          "name": "",
          "type": "address"
        }
      ],
      "stateMutability": "view",
      "type": "function"
    },
    {
      "inputs": [],
      "name": "unregisterFleetCommander",
      "outputs": [],
      "stateMutability": "nonpayable",
      "type": "function"
    },
    {
      "inputs": [],
      "name": "withdrawableTotalAssets",
      "outputs": [
        {
          "internalType": "uint256",
          "name": "",
          "type": "uint256"
        }
      ],
      "stateMutability": "view",
      "type": "function"
    }
  ],
  "bytecode": "0x61010080604052346106bd576130fa803803809161001d8285610703565b833981016060828203126106bd5761003482610726565b9061004160208401610726565b604084015190936001600160401b0382116106bd570190610140828203126106bd5760405190610070826106e7565b82516001600160401b0381116106bd578161008c91850161073a565b82526020830151906001600160401b0382116106bd576100ad91840161073a565b91602082019283526100c160408201610726565b928360408401526100d460608301610726565b928360608201526100e760808401610726565b946080820195865260a08401519560a0830196875260c08501519060c0840191825260e08601519260e08501938452610120610126610100890161078f565b61010087019081529701516101208601908152976001600160a01b03908116911680156106d4576040516301ffc9a760e01b815263261c910560e21b6004820152602081602481855afa9081156106c9575f9161068b575b501561067957608052801561066a5760a05280516001600160a01b03161561065b578351511561064c576001600160a01b036101b861079c565b161561063d5768056bc75e2d6310000087511161062e57516001600160a01b03166101e161079c565b975191519251935194519551151596519761012060405191610202836106e7565b5f8084526001600160a01b03919091166020840181905260408401859052606084018690526080840187905260a0840188905260c0840189905260e08401998a5261010084019a8b5291909201998a5281546001600160a01b031990811690925560018054831690911790556002805490911690911790556003556004556005558051906001600160401b0382116105315760065490600182811c92168015610624575b60208310146105135781601f8493116105b6575b50602090601f8311600114610550575f92610545575b50508160011b915f199060031b1c1916176006555b518051906001600160401b0382116105315760075490600182811c92168015610527575b60208310146105135781601f8493116104a5575b50602090601f831160011461043f575f92610434575b50508160011b915f199060031b1c1916176007555b51151560ff8019600854169116176008555160095560018060a01b0316908115610425576001600160a01b031680156104165760e05260c0526040516128f0908161080a823960805181818161034b0152611087015260a0518181816101ec01528181610a28015281816111d4015281816118cb015281816119590152612472015260c051818181610c7201528181610e4e01528181610f2a01528181611b8501528181611dc101528181611ef50152818161236301526125f4015260e0518181816103f5015261062c0152f35b6302fe89d560e11b5f5260045ffd5b630306120160e01b5f5260045ffd5b015190505f80610333565b60075f9081528281209350601f198516905b81811061048d5750908460019594939210610475575b505050811b01600755610348565b01515f1960f88460031b161c191690555f8080610467565b92936020600181928786015181550195019301610451565b60075f529091507fa66cc928b5edb82af9bd49922954155ab7b0942694bea4ce44661d9a8736c688601f840160051c81019160208510610509575b90601f859493920160051c01905b8181106104fb575061031d565b5f81558493506001016104ee565b90915081906104e0565b634e487b7160e01b5f52602260045260245ffd5b91607f1691610309565b634e487b7160e01b5f52604160045260245ffd5b015190505f806102d0565b60065f9081528281209350601f198516905b81811061059e5750908460019594939210610586575b505050811b016006556102e5565b01515f1960f88460031b161c191690555f8080610578565b92936020600181928786015181550195019301610562565b60065f529091507ff652222313e28459528d920b65115c16c04f3efc82aaedc97be59f3f377c0d3f601f840160051c8101916020851061061a575b90601f859493920160051c01905b81811061060c57506102ba565b5f81558493506001016105ff565b90915081906105f1565b91607f16916102a6565b634ef9dfe360e01b5f5260045ffd5b633a4f9cdb60e21b5f5260045ffd5b63268c072960e01b5f5260045ffd5b637ff57ef160e11b5f5260045ffd5b63f1634df960e01b5f5260045ffd5b6347bd7c1d60e01b5f5260045260245ffd5b90506020813d6020116106c1575b816106a660209383610703565b810103126106bd576106b79061078f565b5f61017e565b5f80fd5b3d9150610699565b6040513d5f823e3d90fd5b6347bd7c1d60e01b5f525f60045260245ffd5b61014081019081106001600160401b0382111761053157604052565b601f909101601f19168101906001600160401b0382119082101761053157604052565b51906001600160a01b03821682036106bd57565b81601f820112156106bd578051906001600160401b038211610531576040519261076e601f8401601f191660200185610703565b828452602083830101116106bd57815f9260208093018386015e8301015290565b519081151582036106bd57565b60a051604051628bec5760e51b815290602090829060049082906001600160a01b03165afa9081156106c9575f916107d2575090565b90506020813d602011610801575b816107ed60209383610703565b810103126106bd576107fe90610726565b90565b3d91506107e056fe60806040526004361015610011575f80fd5b5f5f3560e01c806301e1d11414611fbd57806306fdde0314611fa2578063117d8ae014611f7657806313c408f814611d6057806324ea54f414611d265780632db6d39914611ad8578063303dbaf314611ab65780633194549e14611a995780633727093614611a7257806338d52e0f14611a4a5780634fc7fac3146119d4578063565974d3146119a55780635b0f83f31461193457806361d027b3146118a657806361f5cd8b1461183c57806366e943f11461180257806369b3054b146117a1578063780469bb146112d157806379502c55146112205780637aaceb95146111ae57806386651203146111555780638a8b99761461101e57806392f5e83214610fb2578063a89f38a314610f77578063ad5a356f14610f59578063b6042b3414610f14578063bdcdd88214610ef6578063c0b534c214610ebb578063c38a6f0b14610bd1578063c3f909d414610a57578063c9c667e314610a12578063ccc57490146109d7578063ce5c7f6114610447578063d570ee4714610424578063dbb7cbc5146103df578063dbd5edc7146103c1578063ebc136d0146102e1578063ebf31131146102745763f7e533ec146101c7575f80fd5b34610271578060031936011261027157604051633df94cfb60e21b81526020816004817f00000000000000000000000000000000000000000000000000000000000000006001600160a01b03165afa9081156102665760209291610239575b506040516001600160a01b039091168152f35b6102599150823d841161025f575b610251818361208d565b81019061243f565b5f610226565b503d610247565b6040513d84823e3d90fd5b80fd5b503461027157806003193601126102715780546001600160a01b03811633036102d2576001600160a01b03191681556040513381527f7cb941d7b1708e5b3bcd35ca960d6c6311188cec18886e5b67630552676b048790602090a180f35b63430da47160e01b8252600482fd5b5034610271576020366003190112610271576004356001600160a01b038116908190036103bd57604051632474521560e21b81527fb00be3d6a5434b97b328543d1486d56adcb7e74080170d1cdd7e0306c3d9ba3d600482015260248101919091526020816044817f00000000000000000000000000000000000000000000000000000000000000006001600160a01b03165afa9081156102665760209291610390575b506040519015158152f35b6103b09150823d84116103b6575b6103a8818361208d565b8101906124e4565b5f610385565b503d61039e565b5080fd5b50346102715780600319360112610271576020600354604051908152f35b50346102715780600319360112610271576040517f00000000000000000000000000000000000000000000000000000000000000006001600160a01b03168152602090f35b5034610271578060031936011261027157602061043f6125d3565b604051908152f35b5034610271576020366003190112610271576004356001600160401b0381116103bd57610478903690600401611ffb565b604051628bec5760e51b8152602081600481305afa9081156107f65784916109b8575b506001600160a01b031633036109a5576104b36126a5565b81019060208183031261099d578035906001600160401b0382116109a157019060808282031261099d5760405191608083018381106001600160401b038211176109895760405280356001600160401b03811161098557826105169183016120c5565b835260208101356001600160401b03811161098557826105379183016120c5565b916020840192835260408201356001600160401b03811161096d5782019181601f8401121561096d5782359261056c846120ae565b9361057a604051958661208d565b80855260208086019160051b8301019184831161096957602001905b82821061097557505050604085019283526060810135906001600160401b03821161097157019080601f8301121561096d578135916105d4836120ae565b926105e2604051948561208d565b80845260208085019160051b830101918383116109695760208101915b8383106108e15750505050506060840190815261061d8351516124fc565b906106298451516124fc565b957f00000000000000000000000000000000000000000000000000000000000000006001600160a01b031695815b86515181101561084d5781516001600160a01b039061067790839061252e565b516040516309bf142360e01b8152911660048201526020816024818c5afa9081156107f657849161082f575b50156108205781516001600160a01b03906106bf90839061252e565b51169060018060a01b036106d4828a5161252e565b5116916106e282895161252e565b516106ee83885161252e565b519186604051958693637d5f6a0960e11b8552608485019130600487015260248601526044850152608060648501528451809152602060a4850195019082905b8082106108015750505082908160209503925af180156107f6576107c1575b8751600192506001600160a01b039061076790839061252e565b5116610773828861252e565b5261077f81885161252e565b5161078a828c61252e565b526107bb828060a01b0361079f838b5161252e565b51168b6107b4846107ae61245e565b9261252e565b519161274b565b01610657565b6020823d82116107ee575b816107d96020938361208d565b810103126107ea576001915061074d565b5f80fd5b3d91506107cc565b6040513d86823e3d90fd5b825187526020968701968996508b94509092019160019091019061072e565b63a953048960e01b8352600483fd5b610847915060203d81116103b6576103a8818361208d565b5f6106a3565b82856108dd8b61085c83612556565b61086582612599565b907f3e3e7958121b3e39c7a49392d1aa9cdce870c2a059744f9e15cf66fff78654558680a361089383612556565b9261089d82612599565b946040519586957f3e3e7958121b3e39c7a49392d1aa9cdce870c2a059744f9e15cf66fff78654558380a35f51602061289b5f395f51905f525d83612133565b0390f35b82356001600160401b03811161096557820185603f820112156109655760208101359061090d826120ae565b9161091b604051938461208d565b8083526020808085019260051b840101019188831161096157604001905b828210610951575050508152602092830192016105ff565b8135815260209182019101610939565b8d80fd5b8a80fd5b8880fd5b8580fd5b8680fd5b8135815260209182019101610596565b8480fd5b634e487b7160e01b85526041600452602485fd5b8280fd5b8380fd5b631184b31b60e21b835233600452602483fd5b6109d1915060203d60201161025f57610251818361208d565b5f61049b565b503461027157806003193601126102715760206040517f7935bd0ae54bc31f548c14dba4d37c5c64b3f8ca900cb468fb8abd54d5894f558152f35b50346102715780600319360112610271576040517f00000000000000000000000000000000000000000000000000000000000000006001600160a01b03168152602090f35b503461027157806003193601126102715780610120604051610a7881612071565b8281528260208201528260408201528260608201528260808201528260a0820152606060c0820152606060e082015282610100820152015260405190610abd82612071565b546001600160a01b03908116825260015481166020830190815260025490911660408301908152600354606084019081526004546080850190815260055460a08601908152939493919291610bbc9190610ba890610b196121ae565b9060c08801918252610b29612290565b60e089810191825260085460ff1615156101008b019081526009546101208c019081526040805160208082529d516001600160a01b039081169e82019e909e529d518d16908e01529851909a1660608c0152975160808b0152935160a08a01525160c08901525161014095880195909552869594610160870190611fd7565b9051858203601f1901610100870152611fd7565b91511515610120840152516101408301520390f35b503461027157608036600319011261027157600435610bee61205b565b6044356001600160401b0381116109a157610c0d903690600401611ffb565b6064939193356001600160401b03811161096d57610c2f903690600401611ffb565b86549091906001600160a01b03163303610ea857869291610c4f916126da565b610c5761234b565b8303610e29576040516370a0823160e01b81523060048201527f00000000000000000000000000000000000000000000000000000000000000006001600160a01b031690602081602481855afa9081156107f6578491610df0575b50610cdb8492602092604051948580948193635d043b2960e11b8352309030906004850161272b565b03925af18015610de557610db6575b505b6002546001600160a01b031693610d04848287612785565b6001600160a01b031694853b1561099d5781606484926040519485938492632db6d39960e01b845289600485015260406024850152816044850152848401378181018301859052601f01601f1916810103018183895af1801561026657610da1575b5050610d9b7f9f784fc02a186f1c98b2d9f15fda084da27cdd291a3785d978f91911d880516b916040519182913095836124c9565b0390a380f35b81610dab9161208d565b6109a157835f610d66565b610dd79060203d602011610dde575b610dcf818361208d565b81019061233c565b505f610cea565b503d610dc5565b6040513d85823e3d90fd5b919350506020813d602011610e21575b81610e0d6020938361208d565b810103126107ea5751869290610cdb610cb2565b3d9150610e00565b604051632d182be560e21b815260208180610e493080896004850161272b565b0381867f00000000000000000000000000000000000000000000000000000000000000006001600160a01b03165af18015610de557610e89575b50610cec565b610ea19060203d602011610dde57610dcf818361208d565b505f610e83565b631564c0e160e11b875233600452602487fd5b503461027157806003193601126102715760206040517f025d8bbf3268be680d2605ebf6da15063b9915615bf1087dab336efc1bf970cb8152f35b50346102715780600319360112610271576020600954604051908152f35b50346102715780600319360112610271576040517f00000000000000000000000000000000000000000000000000000000000000006001600160a01b03168152602090f35b50346102715780600319360112610271576020600554604051908152f35b503461027157806003193601126102715760206040517fb00be3d6a5434b97b328543d1486d56adcb7e74080170d1cdd7e0306c3d9ba3d8152f35b5034610271576020366003190112610271578054600435906001600160a01b0316330361100b576020817fb6ac66853c4e59c71e118d25ab494bb847c4e5eb0c8894898c5343e6f61afc1292600555604051908152a180f35b631564c0e160e11b825233600452602482fd5b5034610271578060031936011261027157604051600160f91b602082019081523060601b6001600160601b0319166021830152601582529061106160358261208d565b519020604051632474521560e21b815260048101919091523360248201526020816044817f00000000000000000000000000000000000000000000000000000000000000006001600160a01b03165afa908115610266578291611136575b50156111235780546001600160a01b038116611114576001600160a01b0319163390811782556040519081527f55489ce0259bd691120d8860861be1c401c7c16a3cd268d21045756af4ecc5ca90602090a180f35b636a79b97d60e11b8252600482fd5b631564c0e160e11b815233600452602490fd5b61114f915060203d6020116103b6576103a8818361208d565b5f6110bf565b5034610271576020366003190112610271578054600435906001600160a01b0316330361100b576020817f333b26cca69716ad4680ddb07663f5bfb4f06045671f336af9a83690a3ae00f992600355604051908152a180f35b5034610271578060031936011261027157604051637aaceb9560e01b81526020816004817f00000000000000000000000000000000000000000000000000000000000000006001600160a01b03165afa908115610266576020929161023957506040516001600160a01b039091168152f35b5034610271578060031936011261027157546001546002546003546004546005546001600160a01b03948516958516949293909216916112be91906112b0906112676121ae565b90611270612290565b9360ff6008541697600954976040519b8c9b8c5260208c015260408b015260608a0152608089015260a088015261014060c0880152610140870190611fd7565b9085820360e0870152611fd7565b9115156101008401526101208301520390f35b50346107ea5760203660031901126107ea576004356001600160401b0381116107ea576113029036906004016120c5565b604051628bec5760e51b8152602081600481305afa908115611687575f91611782575b506001600160a01b0316330361176f5761133d6126a5565b61134781516124fc565b9061135281516124fc565b6002545f5460405163c8169aa160e01b81529294926001600160a01b0392831692909160209183916004918391165afa908115611687575f91611750575b506040516370a0823160e01b8152306004820152602081602481865afa908115611687575f9161171e575b5015158061170b575b611595575b5050835b825181101561153c5760249060206001600160a01b036113ed838761252e565b5116604051938480926370a0823160e01b82523060048301525afa9182156115315786926114fe575b5081611427575b60019150016113cd565b6001600160a01b03611439828661252e565b511691602461144661245e565b9360206001600160a01b0361145b868a61252e565b5116604051938480926370a0823160e01b82523060048301525afa9182156114f35789926114bf575b50906001946114929261274b565b828060a01b036114a2838761252e565b51166114ae838661252e565b526114b9828761252e565b5261141d565b91506020823d82116114eb575b816114d96020938361208d565b810103126107ea579051906001611484565b3d91506114cc565b6040513d8b823e3d90fd5b9091506020813d8211611529575b816115196020938361208d565b810103126107ea5751905f611416565b3d915061150c565b6040513d88823e3d90fd5b84826108dd8661154b83612556565b9261155582612599565b946040519586957f46b8771620f6acf56cb03d3e835ea8024c7dcbcf05fcc3f6ade9e19d1a3e212b8380a35f51602061289b5f395f51905f525d83612133565b6040516370a0823160e01b8152306004820152602081602481865afa908115611687575f916116d8575b50816115d060209260249486612785565b6040516370a0823160e01b81523060048201526001600160a01b0391909116939092839182905afa908115611687575f916116a6575b50604051602081018181106001600160401b03821117611692576040525f8152823b156107ea5761165d925f9283604051809681958294632db6d39960e01b84526004840152604060248401526044830190611fd7565b03925af1801561168757611672575b806113c9565b61167f9194505f9061208d565b5f925f61166c565b6040513d5f823e3d90fd5b634e487b7160e01b5f52604160045260245ffd5b90506020813d6020116116d0575b816116c16020938361208d565b810103126107ea57515f611606565b3d91506116b4565b90506020813d602011611703575b816116f36020938361208d565b810103126107ea575160246115bf565b3d91506116e6565b50306001600160a01b03821614156113c4565b90506020813d602011611748575b816117396020938361208d565b810103126107ea57515f6113bb565b3d915061172c565b611769915060203d60201161025f57610251818361208d565b5f611390565b631184b31b60e21b5f523360045260245ffd5b61179b915060203d60201161025f57610251818361208d565b5f611325565b346107ea5760403660031901126107ea5760043560038110156107ea576020906117c961205b565b604051908382019260f81b835260018060601b03199060601b166021820152601581526117f760358261208d565b519020604051908152f35b346107ea575f3660031901126107ea5760206040517f0d186688925976bbe6755ae984501c8e3e2b103a7af59fd803ab9c6d891ae7e08152f35b346107ea5760203660031901126107ea575f54600435906001600160a01b03163303611893576020817ffbe2d5c01ea8ba5596d6c4e6c82c6d4a0a0ee1128689993a4a5ba0169273d69f92600455604051908152a1005b631564c0e160e11b5f523360045260245ffd5b346107ea575f3660031901126107ea576040516361d027b360e01b81526020816004817f00000000000000000000000000000000000000000000000000000000000000006001600160a01b03165afa8015611687576020915f9161191757506040516001600160a01b039091168152f35b61192e9150823d841161025f57610251818361208d565b82610226565b346107ea575f3660031901126107ea57604051635b0f83f360e01b81526020816004817f00000000000000000000000000000000000000000000000000000000000000006001600160a01b03165afa8015611687576020915f9161191757506040516001600160a01b039091168152f35b346107ea575f3660031901126107ea576108dd6119c0612290565b604051918291602083526020830190611fd7565b346107ea5760203660031901126107ea575f54600435906001600160a01b031633036118935768056bc75e2d631000008111611a3b576020817fd3c6d0ab315f2f1352f036cd9f401b49e38e1b90907e195225e8105f9a0b6f0292600955604051908152a1005b634ef9dfe360e01b5f5260045ffd5b346107ea575f3660031901126107ea576002546040516001600160a01b039091168152602090f35b346107ea575f3660031901126107ea575f546040516001600160a01b039091168152602090f35b346107ea575f3660031901126107ea576020600454604051908152f35b346107ea575f3660031901126107ea57602060ff600854166040519015158152f35b346107ea57611ae636612028565b611aee6126a5565b604051631b93849b60e11b8152602081600481305afa908115611687575f91611d07575b506001600160a01b0316338103611c4b575b50611b2e916126da565b5f60018060a01b036002541691611b756040516323b872dd60e01b602082015233602482015230604482015282606482015260648152611b6f60848261208d565b84612842565b6002546020906001600160a01b037f0000000000000000000000000000000000000000000000000000000000000000811691611bb5918591849116612785565b604460405180958193636e553f6560e01b83528660048401523060248401525af1908115611687577fcbaa1442ac205415c9d69643e7b60ec73d1de35dbc807c21ec288c70ddc4207b92611c1792611c2c575b506040519182913395836124c9565b0390a25f5f51602061289b5f395f51905f525d005b611c449060203d602011610dde57610dcf818361208d565b5084611c08565b604051628bec5760e51b8152602081600481305afa908115611687575f91611ce8575b506001600160a01b03163314611b245760206024916040519283809263d206a05960e01b82523360048301525afa908115611687575f91611cc9575b5015611cb65783611b24565b638f7a567d60e01b5f523360045260245ffd5b611ce2915060203d6020116103b6576103a8818361208d565b84611caa565b611d01915060203d60201161025f57610251818361208d565b85611c6e565b611d20915060203d60201161025f57610251818361208d565b84611b12565b346107ea575f3660031901126107ea5760206040517f55435dd261a4b9b3364963f7738a7a662ad9c84396d64be3365284bb7f0a50418152f35b346107ea57611d6e36612028565b5f546001600160a01b0316330361189357611d9091611d8b6126a5565b6126da565b6002546001600160a01b031690611da561234b565b8103611ecf576040516370a0823160e01b8152306004820152907f00000000000000000000000000000000000000000000000000000000000000006001600160a01b0316602083602481845afa928315611687575f93611e99575b50611e296020915f94604051958680948193635d043b2960e11b8352309030906004850161272b565b03925af1908115611687577fd5e872c5ecfb1bb8820b2e6a20e31b883682282da886621541f71e31ec11947e92611c1792611e7a575b505b611e6c81338661274b565b6040519182913395836124c9565b611e929060203d602011610dde57610dcf818361208d565b5084611e5f565b92506020833d602011611ec7575b81611eb46020938361208d565b810103126107ea57915191611e29611e00565b3d9150611ea7565b604051632d182be560e21b81529060208280611ef03080866004850161272b565b03815f7f00000000000000000000000000000000000000000000000000000000000000006001600160a01b03165af1908115611687577fd5e872c5ecfb1bb8820b2e6a20e31b883682282da886621541f71e31ec11947e92611c1792611f57575b50611e61565b611f6f9060203d602011610dde57610dcf818361208d565b5084611f51565b346107ea575f3660031901126107ea576020611f9061245e565b6040516001600160a01b039091168152f35b346107ea575f3660031901126107ea576108dd6119c06121ae565b346107ea575f3660031901126107ea57602061043f61234b565b805180835260209291819084018484015e5f828201840152601f01601f1916010190565b9181601f840112156107ea578235916001600160401b0383116107ea57602083818601950101116107ea57565b9060406003198301126107ea5760043591602435906001600160401b0382116107ea5761205791600401611ffb565b9091565b602435906001600160a01b03821682036107ea57565b61014081019081106001600160401b0382111761169257604052565b90601f801991011681019081106001600160401b0382111761169257604052565b6001600160401b0381116116925760051b60200190565b9080601f830112156107ea578135906120dd826120ae565b926120eb604051948561208d565b82845260208085019360051b8201019182116107ea57602001915b8183106121135750505090565b82356001600160a01b03811681036107ea57815260209283019201612106565b604081016040825282518091526020606083019301905f5b81811061218f575050506020818303910152602080835192838152019201905f5b8181106121795750505090565b825184526020938401939092019160010161216c565b82516001600160a01b031685526020948501949092019160010161214b565b604051905f6006548060011c9160018216918215612286575b60208410831461227257838652859290811561225357506001146121f4575b6121f29250038361208d565b565b5060065f90815290917ff652222313e28459528d920b65115c16c04f3efc82aaedc97be59f3f377c0d3f5b8183106122375750509060206121f2928201016121e6565b602091935080600191548385890101520191019091849261221f565b602092506121f294915060ff191682840152151560051b8201016121e6565b634e487b7160e01b5f52602260045260245ffd5b92607f16926121c7565b604051905f6007548060011c9160018216918215612332575b60208410831461227257838652859290811561225357506001146122d3576121f29250038361208d565b5060075f90815290917fa66cc928b5edb82af9bd49922954155ab7b0942694bea4ce44661d9a8736c6885b8183106123165750509060206121f2928201016121e6565b60209193508060019154838589010152019101909184926122fe565b92607f16926122a9565b908160209103126107ea575190565b6040516370a0823160e01b81523060048201525f91907f00000000000000000000000000000000000000000000000000000000000000006001600160a01b031690602081602481855afa908115611687575f9161240d575b50806123ad575050565b6020919293506024604051809481936303d1689d60e11b835260048301525afa908115611687575f916123de575090565b90506020813d602011612405575b816123f96020938361208d565b810103126107ea575190565b3d91506123ec565b90506020813d602011612437575b816124286020938361208d565b810103126107ea57515f6123a3565b3d915061241b565b908160209103126107ea57516001600160a01b03811681036107ea5790565b604051628bec5760e51b81526020816004817f00000000000000000000000000000000000000000000000000000000000000006001600160a01b03165afa908115611687575f916124ad575090565b6124c6915060203d60201161025f57610251818361208d565b90565b6001600160a01b039091168152602081019190915260400190565b908160209103126107ea575180151581036107ea5790565b90612506826120ae565b612513604051918261208d565b8281528092612524601f19916120ae565b0190602036910137565b80518210156125425760209160051b010190565b634e487b7160e01b5f52603260045260245ffd5b6040518091829160208251919201905f5b8181106125775750505003902090565b82516001600160a01b0316845285945060209384019390920191600101612567565b6040518091829160208251919201905f5b8181106125ba5750505003902090565b82518452859450602093840193909201916001016125aa565b60ff600854166126a1576040516370a0823160e01b81523060048201525f907f00000000000000000000000000000000000000000000000000000000000000006001600160a01b031690602081602481855afa908115611687575f9161266f575b5061263d575090565b60405163ce96cb7760e01b81523060048201529150602090829060249082905afa908115611687575f916123de575090565b90506020813d602011612699575b8161268a6020938361208d565b810103126107ea57515f612634565b3d915061267d565b5f90565b5f51602061289b5f395f51905f525c6126cb5760015f51602061289b5f395f51905f525d565b633ee5aeb560e01b5f5260045ffd5b501580158061271e575b61270f5780612703575b6126f457565b63332863a960e11b5f5260045ffd5b5060ff600854166126ee565b630cd0fdf960e01b5f5260045ffd5b5060ff60085416156126e4565b9081526001600160a01b0391821660208201529116604082015260600190565b6127806121f2939261277260405194859263a9059cbb60e01b6020850152602484016124c9565b03601f19810184528361208d565b612842565b91909160205f604051936127bc856127ae8582019363095ea7b360e01b855289602484016124c9565b03601f19810187528661208d565b84519082855af15f513d8261281d575b5050156127d857505050565b60405163095ea7b360e01b60208201526001600160a01b0390931660248401525f60448085019190915283526121f2926127809061281760648261208d565b82612842565b90915061283a57506001600160a01b0381163b15155b5f806127cc565b600114612833565b905f602091828151910182855af115611687575f513d61289157506001600160a01b0381163b155b6128715750565b635274afe760e01b5f9081526001600160a01b0391909116600452602490fd5b6001141561286a56fe9b779b17422d0df92223018b32b4d1fa46e071723d6817e2486d003becc55f00a264697066735822122012ee3b09104fd05f91142535b0b525185b749c3acf1f93e8f89946c562cb3d8164736f6c634300081c0033",
  "linkReferences": {},
  "deployedLinkReferences": {}
}