{
  "_format": "hh-sol-artifact-1",
  "contractName": "SkyUsdsArk",
  "sourceName": "src/contracts/arks/SkyUsdsArk.sol",
  "abi": [
    {
      "inputs": [
        {
          "internalType": "address",
          "name": "_litePsm",
          "type": "address"
        },
        {
          "internalType": "address",
          "name": "_usds",
          "type": "address"
        },
        {
          "internalType": "address",
          "name": "_stakedUsds",
          "type": "address"
        },
        {
          "components": [
            {
              "internalType": "string",
              "name": "name",
              "type": "string"
            },
            {
              "internalType": "string",
              "name": "details",
              "type": "string"
            },
            {
              "internalType": "address",
              "name": "accessManager",
              "type": "address"
            },
            {
              "internalType": "address",
              "name": "configurationManager",
              "type": "address"
            },
            {
              "internalType": "address",
              "name": "asset",
              "type": "address"
            },
            {
              "internalType": "uint256",
              "name": "depositCap",
              "type": "uint256"
            },
            {
              "internalType": "uint256",
              "name": "maxRebalanceOutflow",
              "type": "uint256"
            },
            {
              "internalType": "uint256",
              "name": "maxRebalanceInflow",
              "type": "uint256"
            },
            {
              "internalType": "bool",
              "name": "requiresKeeperData",
              "type": "bool"
            },
            {
              "internalType": "Percentage",
              "name": "maxDepositPercentageOfTVL",
              "type": "uint256"
            }
          ],
          "internalType": "struct ArkParams",
          "name": "_params",
          "type": "tuple"
        }
      ],
      "stateMutability": "nonpayable",
      "type": "constructor"
    },
    {
      "inputs": [
        {
          "internalType": "address",
          "name": "caller",
          "type": "address"
        }
      ],
      "name": "CallerIsNotAdmin",
      "type": "error"
    },
    {
      "inputs": [
        {
          "internalType": "address",
          "name": "caller",
          "type": "address"
        }
      ],
      "name": "CallerIsNotAuthorizedToBoard",
      "type": "error"
    },
    {
      "inputs": [
        {
          "internalType": "address",
          "name": "caller",
          "type": "address"
        }
      ],
      "name": "CallerIsNotCommander",
      "type": "error"
    },
    {
      "inputs": [
        {
          "internalType": "address",
          "name": "caller",
          "type": "address"
        },
        {
          "internalType": "bytes32",
          "name": "role",
          "type": "bytes32"
        }
      ],
      "name": "CallerIsNotContractSpecificRole",
      "type": "error"
    },
    {
      "inputs": [
        {
          "internalType": "address",
          "name": "caller",
          "type": "address"
        }
      ],
      "name": "CallerIsNotCurator",
      "type": "error"
    },
    {
      "inputs": [
        {
          "internalType": "address",
          "name": "caller",
          "type": "address"
        }
      ],
      "name": "CallerIsNotDecayController",
      "type": "error"
    },
    {
      "inputs": [
        {
          "internalType": "address",
          "name": "caller",
          "type": "address"
        }
      ],
      "name": "CallerIsNotFoundation",
      "type": "error"
    },
    {
      "inputs": [
        {
          "internalType": "address",
          "name": "caller",
          "type": "address"
        }
      ],
      "name": "CallerIsNotGovernor",
      "type": "error"
    },
    {
      "inputs": [
        {
          "internalType": "address",
          "name": "caller",
          "type": "address"
        }
      ],
      "name": "CallerIsNotGuardian",
      "type": "error"
    },
    {
      "inputs": [
        {
          "internalType": "address",
          "name": "caller",
          "type": "address"
        }
      ],
      "name": "CallerIsNotGuardianOrGovernor",
      "type": "error"
    },
    {
      "inputs": [
        {
          "internalType": "address",
          "name": "caller",
          "type": "address"
        }
      ],
      "name": "CallerIsNotKeeper",
      "type": "error"
    },
    {
      "inputs": [
        {
          "internalType": "address",
          "name": "caller",
          "type": "address"
        }
      ],
      "name": "CallerIsNotRaft",
      "type": "error"
    },
    {
      "inputs": [
        {
          "internalType": "address",
          "name": "caller",
          "type": "address"
        }
      ],
      "name": "CallerIsNotRaftOrCommander",
      "type": "error"
    },
    {
      "inputs": [
        {
          "internalType": "address",
          "name": "caller",
          "type": "address"
        }
      ],
      "name": "CallerIsNotSuperKeeper",
      "type": "error"
    },
    {
      "inputs": [],
      "name": "CannotAddCommanderToArkWithCommander",
      "type": "error"
    },
    {
      "inputs": [],
      "name": "CannotDeployArkWithEmptyName",
      "type": "error"
    },
    {
      "inputs": [],
      "name": "CannotDeployArkWithoutConfigurationManager",
      "type": "error"
    },
    {
      "inputs": [],
      "name": "CannotDeployArkWithoutRaft",
      "type": "error"
    },
    {
      "inputs": [],
      "name": "CannotDeployArkWithoutToken",
      "type": "error"
    },
    {
      "inputs": [],
      "name": "CannotRemoveCommanderFromArkWithAssets",
      "type": "error"
    },
    {
      "inputs": [],
      "name": "CannotUseKeeperDataWhenNotRequired",
      "type": "error"
    },
    {
      "inputs": [],
      "name": "ConfigurationManagerZeroAddress",
      "type": "error"
    },
    {
      "inputs": [
        {
          "internalType": "address",
          "name": "caller",
          "type": "address"
        }
      ],
      "name": "DirectGrantIsDisabled",
      "type": "error"
    },
    {
      "inputs": [
        {
          "internalType": "address",
          "name": "caller",
          "type": "address"
        }
      ],
      "name": "DirectRevokeIsDisabled",
      "type": "error"
    },
    {
      "inputs": [],
      "name": "ERC4626AssetMismatch",
      "type": "error"
    },
    {
      "inputs": [],
      "name": "FleetCommanderAlreadyRegistered",
      "type": "error"
    },
    {
      "inputs": [],
      "name": "FleetCommanderNotRegistered",
      "type": "error"
    },
    {
      "inputs": [
        {
          "internalType": "address",
          "name": "invalidAddress",
          "type": "address"
        }
      ],
      "name": "InvalidAccessManagerAddress",
      "type": "error"
    },
    {
      "inputs": [],
      "name": "InvalidBoardData",
      "type": "error"
    },
    {
      "inputs": [],
      "name": "InvalidDisembarkData",
      "type": "error"
    },
    {
      "inputs": [],
      "name": "InvalidVaultAddress",
      "type": "error"
    },
    {
      "inputs": [],
      "name": "KeeperDataRequired",
      "type": "error"
    },
    {
      "inputs": [],
      "name": "MaxDepositPercentageOfTVLTooHigh",
      "type": "error"
    },
    {
      "inputs": [],
      "name": "ReentrancyGuardReentrantCall",
      "type": "error"
    },
    {
      "inputs": [
        {
          "internalType": "address",
          "name": "token",
          "type": "address"
        }
      ],
      "name": "SafeERC20FailedOperation",
      "type": "error"
    },
    {
      "anonymous": false,
      "inputs": [
        {
          "indexed": true,
          "internalType": "address[]",
          "name": "rewardTokens",
          "type": "address[]"
        },
        {
          "indexed": true,
          "internalType": "uint256[]",
          "name": "rewardAmounts",
          "type": "uint256[]"
        }
      ],
      "name": "ArkHarvested",
      "type": "event"
    },
    {
      "anonymous": false,
      "inputs": [
        {
          "indexed": false,
          "internalType": "uint256",
          "name": "currentPrice",
          "type": "uint256"
        },
        {
          "indexed": false,
          "internalType": "uint256",
          "name": "timestamp",
          "type": "uint256"
        }
      ],
      "name": "ArkPoked",
      "type": "event"
    },
    {
      "anonymous": false,
      "inputs": [
        {
          "indexed": true,
          "internalType": "address[]",
          "name": "sweptTokens",
          "type": "address[]"
        },
        {
          "indexed": true,
          "internalType": "uint256[]",
          "name": "sweptAmounts",
          "type": "uint256[]"
        }
      ],
      "name": "ArkSwept",
      "type": "event"
    },
    {
      "anonymous": false,
      "inputs": [
        {
          "indexed": true,
          "internalType": "address",
          "name": "commander",
          "type": "address"
        },
        {
          "indexed": false,
          "internalType": "address",
          "name": "token",
          "type": "address"
        },
        {
          "indexed": false,
          "internalType": "uint256",
          "name": "amount",
          "type": "uint256"
        }
      ],
      "name": "Boarded",
      "type": "event"
    },
    {
      "anonymous": false,
      "inputs": [
        {
          "indexed": false,
          "internalType": "uint256",
          "name": "newCap",
          "type": "uint256"
        }
      ],
      "name": "DepositCapUpdated",
      "type": "event"
    },
    {
      "anonymous": false,
      "inputs": [
        {
          "indexed": true,
          "internalType": "address",
          "name": "commander",
          "type": "address"
        },
        {
          "indexed": false,
          "internalType": "address",
          "name": "token",
          "type": "address"
        },
        {
          "indexed": false,
          "internalType": "uint256",
          "name": "amount",
          "type": "uint256"
        }
      ],
      "name": "Disembarked",
      "type": "event"
    },
    {
      "anonymous": false,
      "inputs": [
        {
          "indexed": false,
          "internalType": "address",
          "name": "commander",
          "type": "address"
        }
      ],
      "name": "FleetCommanderRegistered",
      "type": "event"
    },
    {
      "anonymous": false,
      "inputs": [
        {
          "indexed": false,
          "internalType": "address",
          "name": "commander",
          "type": "address"
        }
      ],
      "name": "FleetCommanderUnregistered",
      "type": "event"
    },
    {
      "anonymous": false,
      "inputs": [
        {
          "indexed": false,
          "internalType": "Percentage",
          "name": "newMaxDepositPercentageOfTVL",
          "type": "uint256"
        }
      ],
      "name": "MaxDepositPercentageOfTVLUpdated",
      "type": "event"
    },
    {
      "anonymous": false,
      "inputs": [
        {
          "indexed": false,
          "internalType": "uint256",
          "name": "newMaxInflow",
          "type": "uint256"
        }
      ],
      "name": "MaxRebalanceInflowUpdated",
      "type": "event"
    },
    {
      "anonymous": false,
      "inputs": [
        {
          "indexed": false,
          "internalType": "uint256",
          "name": "newMaxOutflow",
          "type": "uint256"
        }
      ],
      "name": "MaxRebalanceOutflowUpdated",
      "type": "event"
    },
    {
      "anonymous": false,
      "inputs": [
        {
          "indexed": true,
          "internalType": "address",
          "name": "from",
          "type": "address"
        },
        {
          "indexed": true,
          "internalType": "address",
          "name": "to",
          "type": "address"
        },
        {
          "indexed": false,
          "internalType": "address",
          "name": "token",
          "type": "address"
        },
        {
          "indexed": false,
          "internalType": "uint256",
          "name": "amount",
          "type": "uint256"
        }
      ],
      "name": "Moved",
      "type": "event"
    },
    {
      "anonymous": false,
      "inputs": [
        {
          "indexed": false,
          "internalType": "address",
          "name": "newRaft",
          "type": "address"
        }
      ],
      "name": "RaftUpdated",
      "type": "event"
    },
    {
      "inputs": [],
      "name": "ADMIRALS_QUARTERS_ROLE",
      "outputs": [
        {
          "internalType": "bytes32",
          "name": "",
          "type": "bytes32"
        }
      ],
      "stateMutability": "view",
      "type": "function"
    },
    {
      "inputs": [],
      "name": "DECAY_CONTROLLER_ROLE",
      "outputs": [
        {
          "internalType": "bytes32",
          "name": "",
          "type": "bytes32"
        }
      ],
      "stateMutability": "view",
      "type": "function"
    },
    {
      "inputs": [],
      "name": "GOVERNOR_ROLE",
      "outputs": [
        {
          "internalType": "bytes32",
          "name": "",
          "type": "bytes32"
        }
      ],
      "stateMutability": "view",
      "type": "function"
    },
    {
      "inputs": [],
      "name": "GUARDIAN_ROLE",
      "outputs": [
        {
          "internalType": "bytes32",
          "name": "",
          "type": "bytes32"
        }
      ],
      "stateMutability": "view",
      "type": "function"
    },
    {
      "inputs": [],
      "name": "SUPER_KEEPER_ROLE",
      "outputs": [
        {
          "internalType": "bytes32",
          "name": "",
          "type": "bytes32"
        }
      ],
      "stateMutability": "view",
      "type": "function"
    },
    {
      "inputs": [],
      "name": "TO_18_DECIMALS_CONVERSION_FACTOR",
      "outputs": [
        {
          "internalType": "uint256",
          "name": "",
          "type": "uint256"
        }
      ],
      "stateMutability": "view",
      "type": "function"
    },
    {
      "inputs": [],
      "name": "asset",
      "outputs": [
        {
          "internalType": "contract IERC20",
          "name": "",
          "type": "address"
        }
      ],
      "stateMutability": "view",
      "type": "function"
    },
    {
      "inputs": [
        {
          "internalType": "uint256",
          "name": "amount",
          "type": "uint256"
        },
        {
          "internalType": "bytes",
          "name": "boardData",
          "type": "bytes"
        }
      ],
      "name": "board",
      "outputs": [],
      "stateMutability": "nonpayable",
      "type": "function"
    },
    {
      "inputs": [],
      "name": "commander",
      "outputs": [
        {
          "internalType": "address",
          "name": "",
          "type": "address"
        }
      ],
      "stateMutability": "view",
      "type": "function"
    },
    {
      "inputs": [],
      "name": "config",
      "outputs": [
        {
          "internalType": "address",
          "name": "commander",
          "type": "address"
        },
        {
          "internalType": "address",
          "name": "raft",
          "type": "address"
        },
        {
          "internalType": "contract IERC20",
          "name": "asset",
          "type": "address"
        },
        {
          "internalType": "uint256",
          "name": "depositCap",
          "type": "uint256"
        },
        {
          "internalType": "uint256",
          "name": "maxRebalanceOutflow",
          "type": "uint256"
        },
        {
          "internalType": "uint256",
          "name": "maxRebalanceInflow",
          "type": "uint256"
        },
        {
          "internalType": "string",
          "name": "name",
          "type": "string"
        },
        {
          "internalType": "string",
          "name": "details",
          "type": "string"
        },
        {
          "internalType": "bool",
          "name": "requiresKeeperData",
          "type": "bool"
        },
        {
          "internalType": "Percentage",
          "name": "maxDepositPercentageOfTVL",
          "type": "uint256"
        }
      ],
      "stateMutability": "view",
      "type": "function"
    },
    {
      "inputs": [],
      "name": "configurationManager",
      "outputs": [
        {
          "internalType": "contract IConfigurationManager",
          "name": "",
          "type": "address"
        }
      ],
      "stateMutability": "view",
      "type": "function"
    },
    {
      "inputs": [],
      "name": "depositCap",
      "outputs": [
        {
          "internalType": "uint256",
          "name": "",
          "type": "uint256"
        }
      ],
      "stateMutability": "view",
      "type": "function"
    },
    {
      "inputs": [],
      "name": "details",
      "outputs": [
        {
          "internalType": "string",
          "name": "",
          "type": "string"
        }
      ],
      "stateMutability": "view",
      "type": "function"
    },
    {
      "inputs": [
        {
          "internalType": "uint256",
          "name": "amount",
          "type": "uint256"
        },
        {
          "internalType": "bytes",
          "name": "disembarkData",
          "type": "bytes"
        }
      ],
      "name": "disembark",
      "outputs": [],
      "stateMutability": "nonpayable",
      "type": "function"
    },
    {
      "inputs": [],
      "name": "fleetCommanderRewardsManagerFactory",
      "outputs": [
        {
          "internalType": "address",
          "name": "",
          "type": "address"
        }
      ],
      "stateMutability": "view",
      "type": "function"
    },
    {
      "inputs": [
        {
          "internalType": "enum ContractSpecificRoles",
          "name": "roleName",
          "type": "uint8"
        },
        {
          "internalType": "address",
          "name": "roleTargetContract",
          "type": "address"
        }
      ],
      "name": "generateRole",
      "outputs": [
        {
          "internalType": "bytes32",
          "name": "",
          "type": "bytes32"
        }
      ],
      "stateMutability": "pure",
      "type": "function"
    },
    {
      "inputs": [],
      "name": "getConfig",
      "outputs": [
        {
          "components": [
            {
              "internalType": "address",
              "name": "commander",
              "type": "address"
            },
            {
              "internalType": "address",
              "name": "raft",
              "type": "address"
            },
            {
              "internalType": "contract IERC20",
              "name": "asset",
              "type": "address"
            },
            {
              "internalType": "uint256",
              "name": "depositCap",
              "type": "uint256"
            },
            {
              "internalType": "uint256",
              "name": "maxRebalanceOutflow",
              "type": "uint256"
            },
            {
              "internalType": "uint256",
              "name": "maxRebalanceInflow",
              "type": "uint256"
            },
            {
              "internalType": "string",
              "name": "name",
              "type": "string"
            },
            {
              "internalType": "string",
              "name": "details",
              "type": "string"
            },
            {
              "internalType": "bool",
              "name": "requiresKeeperData",
              "type": "bool"
            },
            {
              "internalType": "Percentage",
              "name": "maxDepositPercentageOfTVL",
              "type": "uint256"
            }
          ],
          "internalType": "struct ArkConfig",
          "name": "",
          "type": "tuple"
        }
      ],
      "stateMutability": "view",
      "type": "function"
    },
    {
      "inputs": [],
      "name": "harborCommand",
      "outputs": [
        {
          "internalType": "address",
          "name": "",
          "type": "address"
        }
      ],
      "stateMutability": "view",
      "type": "function"
    },
    {
      "inputs": [
        {
          "internalType": "bytes",
          "name": "additionalData",
          "type": "bytes"
        }
      ],
      "name": "harvest",
      "outputs": [
        {
          "internalType": "address[]",
          "name": "rewardTokens",
          "type": "address[]"
        },
        {
          "internalType": "uint256[]",
          "name": "rewardAmounts",
          "type": "uint256[]"
        }
      ],
      "stateMutability": "nonpayable",
      "type": "function"
    },
    {
      "inputs": [
        {
          "internalType": "address",
          "name": "account",
          "type": "address"
        }
      ],
      "name": "hasAdmiralsQuartersRole",
      "outputs": [
        {
          "internalType": "bool",
          "name": "",
          "type": "bool"
        }
      ],
      "stateMutability": "view",
      "type": "function"
    },
    {
      "inputs": [],
      "name": "litePsm",
      "outputs": [
        {
          "internalType": "contract ILitePSM",
          "name": "",
          "type": "address"
        }
      ],
      "stateMutability": "view",
      "type": "function"
    },
    {
      "inputs": [],
      "name": "maxDepositPercentageOfTVL",
      "outputs": [
        {
          "internalType": "Percentage",
          "name": "",
          "type": "uint256"
        }
      ],
      "stateMutability": "view",
      "type": "function"
    },
    {
      "inputs": [],
      "name": "maxRebalanceInflow",
      "outputs": [
        {
          "internalType": "uint256",
          "name": "",
          "type": "uint256"
        }
      ],
      "stateMutability": "view",
      "type": "function"
    },
    {
      "inputs": [],
      "name": "maxRebalanceOutflow",
      "outputs": [
        {
          "internalType": "uint256",
          "name": "",
          "type": "uint256"
        }
      ],
      "stateMutability": "view",
      "type": "function"
    },
    {
      "inputs": [
        {
          "internalType": "uint256",
          "name": "amount",
          "type": "uint256"
        },
        {
          "internalType": "address",
          "name": "receiverArk",
          "type": "address"
        },
        {
          "internalType": "bytes",
          "name": "boardData",
          "type": "bytes"
        },
        {
          "internalType": "bytes",
          "name": "disembarkData",
          "type": "bytes"
        }
      ],
      "name": "move",
      "outputs": [],
      "stateMutability": "nonpayable",
      "type": "function"
    },
    {
      "inputs": [],
      "name": "name",
      "outputs": [
        {
          "internalType": "string",
          "name": "",
          "type": "string"
        }
      ],
      "stateMutability": "view",
      "type": "function"
    },
    {
      "inputs": [],
      "name": "raft",
      "outputs": [
        {
          "internalType": "address",
          "name": "",
          "type": "address"
        }
      ],
      "stateMutability": "view",
      "type": "function"
    },
    {
      "inputs": [],
      "name": "registerFleetCommander",
      "outputs": [],
      "stateMutability": "nonpayable",
      "type": "function"
    },
    {
      "inputs": [],
      "name": "requiresKeeperData",
      "outputs": [
        {
          "internalType": "bool",
          "name": "",
          "type": "bool"
        }
      ],
      "stateMutability": "view",
      "type": "function"
    },
    {
      "inputs": [
        {
          "internalType": "uint256",
          "name": "newDepositCap",
          "type": "uint256"
        }
      ],
      "name": "setDepositCap",
      "outputs": [],
      "stateMutability": "nonpayable",
      "type": "function"
    },
    {
      "inputs": [
        {
          "internalType": "Percentage",
          "name": "newMaxDepositPercentageOfTVL",
          "type": "uint256"
        }
      ],
      "name": "setMaxDepositPercentageOfTVL",
      "outputs": [],
      "stateMutability": "nonpayable",
      "type": "function"
    },
    {
      "inputs": [
        {
          "internalType": "uint256",
          "name": "newMaxRebalanceInflow",
          "type": "uint256"
        }
      ],
      "name": "setMaxRebalanceInflow",
      "outputs": [],
      "stateMutability": "nonpayable",
      "type": "function"
    },
    {
      "inputs": [
        {
          "internalType": "uint256",
          "name": "newMaxRebalanceOutflow",
          "type": "uint256"
        }
      ],
      "name": "setMaxRebalanceOutflow",
      "outputs": [],
      "stateMutability": "nonpayable",
      "type": "function"
    },
    {
      "inputs": [],
      "name": "stakedUsds",
      "outputs": [
        {
          "internalType": "contract IERC4626",
          "name": "",
          "type": "address"
        }
      ],
      "stateMutability": "view",
      "type": "function"
    },
    {
      "inputs": [
        {
          "internalType": "address[]",
          "name": "tokens",
          "type": "address[]"
        }
      ],
      "name": "sweep",
      "outputs": [
        {
          "internalType": "address[]",
          "name": "sweptTokens",
          "type": "address[]"
        },
        {
          "internalType": "uint256[]",
          "name": "sweptAmounts",
          "type": "uint256[]"
        }
      ],
      "stateMutability": "nonpayable",
      "type": "function"
    },
    {
      "inputs": [],
      "name": "tipJar",
      "outputs": [
        {
          "internalType": "address",
          "name": "",
          "type": "address"
        }
      ],
      "stateMutability": "view",
      "type": "function"
    },
    {
      "inputs": [],
      "name": "totalAssets",
      "outputs": [
        {
          "internalType": "uint256",
          "name": "assets",
          "type": "uint256"
        }
      ],
      "stateMutability": "view",
      "type": "function"
    },
    {
      "inputs": [],
      "name": "treasury",
      "outputs": [
        {
          "internalType": "address",
          "name": "",
          "type": "address"
        }
      ],
      "stateMutability": "view",
      "type": "function"
    },
    {
      "inputs": [],
      "name": "unregisterFleetCommander",
      "outputs": [],
      "stateMutability": "nonpayable",
      "type": "function"
    },
    {
      "inputs": [],
      "name": "usds",
      "outputs": [
        {
          "internalType": "contract IERC20",
          "name": "",
          "type": "address"
        }
      ],
      "stateMutability": "view",
      "type": "function"
    },
    {
      "inputs": [],
      "name": "withdrawableTotalAssets",
      "outputs": [
        {
          "internalType": "uint256",
          "name": "",
          "type": "uint256"
        }
      ],
      "stateMutability": "view",
      "type": "function"
    }
  ],
  "bytecode": "0x61014080604052346104ba57612f17803803809161001d828561078c565b833981016080828203126104ba57610034826107af565b610040602084016107af565b9161004d604085016107af565b606085015190946001600160401b0382116104ba570190610140828203126104ba576040519061007c82610770565b82516001600160401b0381116104ba57816100989185016107c3565b82526020830151906001600160401b0382116104ba576100b99184016107c3565b91602082019283526100cd604082016107af565b928360408401526100e0606083016107af565b928360608201526100f3608084016107af565b946080820195865260a08401519560a0830196875260c08501519060c0840191825260e08601519260e085019384526101206101326101008901610818565b61010087019081529701516101208601908152976001600160a01b039081169116801561075d576040516301ffc9a760e01b815263261c910560e21b6004820152602081602481855afa9081156104c6575f91610723575b50156107115760805280156107025760a05280516001600160a01b0316156106f357835151156106e4576001600160a01b036101c4610825565b16156106d55768056bc75e2d631000008751116106c657516001600160a01b03166101ed610825565b97519151925193519451955115159651976101206040519161020e83610770565b5f8084526001600160a01b03919091166020840181905260408401859052606084018690526080840187905260a0840188905260c0840189905260e08401998a5261010084019a8b5291909201998a5281546001600160a01b031990811690925560018054831690911790556002805490911690911790556003556004556005558051906001600160401b0382116105c95760065490600182811c921680156106bc575b60208310146105ab5781601f84931161064e575b50602090601f83116001146105e8575f926105dd575b50508160011b915f199060031b1c1916176006555b518051906001600160401b0382116105c957600754600181811c911680156105bf575b60208210146105ab57601f8111610548575b50602090601f83116001146104dc5791806004969492602096945f926104d1575b50508160011b915f199060031b1c1916176007555b51151560ff8019600854169116176008555160095560018060a01b03168060e05260405192838092634010f77760e01b82525afa9081156104c6575f91610490575b5060c0526001600160a01b03908116610100521661012052604051612684908161089382396080518181816103aa0152610c57015260a05181818161024e015281816105f701528181610da401528181611540015281816115ce0152612196015260c05181818161082301528181610bcb01528181611b1e01528181611dae01526123a3015260e0518181816108aa015281816113e70152818161183a0152611ba80152610100518181816108da015281816116d4015281816118da0152611bd80152610120518181816101f601528181610872015281816118a701528181611b7001528181611d2501526123250152f35b90506020813d6020116104be575b816104ab6020938361078c565b810103126104ba57515f61039e565b5f80fd5b3d915061049e565b6040513d5f823e3d90fd5b015190505f80610347565b90601f1983169160075f52815f20925f5b81811061053057509260019285926020989660049a989610610518575b505050811b0160075561035c565b01515f1960f88460031b161c191690555f808061050a565b929360206001819287860151815501950193016104ed565b60075f527fa66cc928b5edb82af9bd49922954155ab7b0942694bea4ce44661d9a8736c688601f840160051c810191602085106105a1575b601f0160051c01905b8181106105965750610326565b5f8155600101610589565b9091508190610580565b634e487b7160e01b5f52602260045260245ffd5b90607f1690610314565b634e487b7160e01b5f52604160045260245ffd5b015190505f806102dc565b60065f9081528281209350601f198516905b818110610636575090846001959493921061061e575b505050811b016006556102f1565b01515f1960f88460031b161c191690555f8080610610565b929360206001819287860151815501950193016105fa565b60065f529091507ff652222313e28459528d920b65115c16c04f3efc82aaedc97be59f3f377c0d3f601f840160051c810191602085106106b2575b90601f859493920160051c01905b8181106106a457506102c6565b5f8155849350600101610697565b9091508190610689565b91607f16916102b2565b634ef9dfe360e01b5f5260045ffd5b633a4f9cdb60e21b5f5260045ffd5b63268c072960e01b5f5260045ffd5b637ff57ef160e11b5f5260045ffd5b63f1634df960e01b5f5260045ffd5b6347bd7c1d60e01b5f5260045260245ffd5b90506020813d602011610755575b8161073e6020938361078c565b810103126104ba5761074f90610818565b5f61018a565b3d9150610731565b6347bd7c1d60e01b5f525f60045260245ffd5b61014081019081106001600160401b038211176105c957604052565b601f909101601f19168101906001600160401b038211908210176105c957604052565b51906001600160a01b03821682036104ba57565b81601f820112156104ba578051906001600160401b0382116105c957604051926107f7601f8401601f19166020018561078c565b828452602083830101116104ba57815f9260208093018386015e8301015290565b519081151582036104ba57565b60a051604051628bec5760e51b815290602090829060049082906001600160a01b03165afa9081156104c6575f9161085b575090565b90506020813d60201161088a575b816108766020938361078c565b810103126104ba57610887906107af565b90565b3d915061086956fe6080806040526004361015610012575f80fd5b5f905f3560e01c90816301e1d11414611d035750806306fdde0314611ce8578063117d8ae014611cbc57806313c408f814611adc57806324ea54f414611aa25780632db6d39914611791578063303dbaf31461176f5780633194549e14611752578063372709361461172b57806338d52e0f146117035780634cf282fb146116bf5780634fc7fac314611649578063565974d31461161a5780635b0f83f3146115a957806361d027b31461151b57806361f5cd8b146114b157806366e943f11461147757806369b3054b146114165780636c88ec69146113d2578063780469bb14610ea157806379502c5514610df05780637aaceb9514610d7e5780638665120314610d255780638a8b997614610bee5780638ef47be614610bb357806392f5e83214610b47578063a89f38a314610b0c578063ad5a356f14610aee578063bdcdd88214610ad0578063c0b534c214610a95578063c38a6f0b146107a0578063c3f909d414610626578063c9c667e3146105e1578063ccc57490146105a6578063ce5c7f6114610461578063d570ee471461043e578063dbd5edc714610420578063ebc136d014610340578063ebf31131146102d3578063f7e533ec146102285763fc4e8459146101e1575f80fd5b346102255780600319360112610225576040517f00000000000000000000000000000000000000000000000000000000000000006001600160a01b03168152602090f35b80fd5b5034610225578060031936011261022557604051633df94cfb60e21b81526020816004817f00000000000000000000000000000000000000000000000000000000000000006001600160a01b03165afa9081156102c8576020929161029b575b506040516001600160a01b039091168152f35b6102bb9150823d84116102c1575b6102b38183611ef5565b810190612163565b5f610288565b503d6102a9565b6040513d84823e3d90fd5b503461022557806003193601126102255780546001600160a01b0381163303610331576001600160a01b03191681556040513381527f7cb941d7b1708e5b3bcd35ca960d6c6311188cec18886e5b67630552676b048790602090a180f35b63430da47160e01b8252600482fd5b5034610225576020366003190112610225576004356001600160a01b0381169081900361041c57604051632474521560e21b81527fb00be3d6a5434b97b328543d1486d56adcb7e74080170d1cdd7e0306c3d9ba3d600482015260248101919091526020816044817f00000000000000000000000000000000000000000000000000000000000000006001600160a01b03165afa9081156102c857602092916103ef575b506040519015158152f35b61040f9150823d8411610415575b6104078183611ef5565b810190612208565b5f6103e4565b503d6103fd565b5080fd5b50346102255780600319360112610225576020600354604051908152f35b50346102255780600319360112610225576020610459612304565b604051908152f35b5034610225576020366003190112610225576004356001600160401b03811161041c57610492903690600401611e63565b5050604051628bec5760e51b8152602081600481305afa9081156102c8578291610587575b506001600160a01b03163303610574576104cf612432565b60409061057082516104e18482611ef5565b60018152601f19840190813660208301378451916104ff8684611ef5565b600183523660208401378361051382612252565b528361051e83612252565b5261052881612287565b93610532836122ca565b95519586957f3e3e7958121b3e39c7a49392d1aa9cdce870c2a059744f9e15cf66fff78654558380a35f51602061262f5f395f51905f525d83611f2d565b0390f35b631184b31b60e21b815233600452602490fd5b6105a0915060203d6020116102c1576102b38183611ef5565b5f6104b7565b503461022557806003193601126102255760206040517f7935bd0ae54bc31f548c14dba4d37c5c64b3f8ca900cb468fb8abd54d5894f558152f35b50346102255780600319360112610225576040517f00000000000000000000000000000000000000000000000000000000000000006001600160a01b03168152602090f35b50346102255780600319360112610225578061012060405161064781611ed9565b8281528260208201528260408201528260608201528260808201528260a0820152606060c0820152606060e08201528261010082015201526040519061068c82611ed9565b546001600160a01b03908116825260015481166020830190815260025490911660408301908152600354606084019081526004546080850190815260055460a0860190815293949391929161078b9190610777906106e8611fa8565b9060c088019182526106f861208a565b60e089810191825260085460ff1615156101008b019081526009546101208c019081526040805160208082529d516001600160a01b039081169e82019e909e529d518d16908e01529851909a1660608c0152975160808b0152935160a08a01525160c08901525161014095880195909552869594610160870190611e3f565b9051858203601f1901610100870152611e3f565b91511515610120840152516101408301520390f35b5034610225576080366003190112610225576004356107bd611ec3565b6044356001600160401b0381116109fa576107dc903690600401611e63565b6064939193356001600160401b038111610a91576107fe903690600401611e63565b86549091906001600160a01b03163303610a7e5786929161081e91612467565b6108487f0000000000000000000000000000000000000000000000000000000000000000846124b8565b604051632d182be560e21b81526004810182905230602482018190526044820152602081606481877f00000000000000000000000000000000000000000000000000000000000000006001600160a01b03165af18015610a7357610a3c575b507f00000000000000000000000000000000000000000000000000000000000000006001600160a01b0316906108fe90827f0000000000000000000000000000000000000000000000000000000000000000612519565b60206040518092638d7ef9bb60e01b82528186816109208a30600484016121ed565b03925af18015610a3157610a02575b506002546001600160a01b031693610948848287612519565b6001600160a01b031694853b156109fe5781606484926040519485938492632db6d39960e01b845289600485015260406024850152816044850152848401378181018301859052601f01601f1916810103018183895af180156102c8576109e5575b50506109df7f9f784fc02a186f1c98b2d9f15fda084da27cdd291a3785d978f91911d880516b916040519182913095836121ed565b0390a380f35b816109ef91611ef5565b6109fa57835f6109aa565b8380fd5b8280fd5b610a239060203d602011610a2a575b610a1b8183611ef5565b810190612136565b505f61092f565b503d610a11565b6040513d85823e3d90fd5b92506020833d602011610a6b575b81610a5760209383611ef5565b81010312610a67578692516108a7565b5f80fd5b3d9150610a4a565b6040513d86823e3d90fd5b631564c0e160e11b875233600452602487fd5b8580fd5b503461022557806003193601126102255760206040517f025d8bbf3268be680d2605ebf6da15063b9915615bf1087dab336efc1bf970cb8152f35b50346102255780600319360112610225576020600954604051908152f35b50346102255780600319360112610225576020600554604051908152f35b503461022557806003193601126102255760206040517fb00be3d6a5434b97b328543d1486d56adcb7e74080170d1cdd7e0306c3d9ba3d8152f35b5034610225576020366003190112610225578054600435906001600160a01b03163303610ba0576020817fb6ac66853c4e59c71e118d25ab494bb847c4e5eb0c8894898c5343e6f61afc1292600555604051908152a180f35b631564c0e160e11b825233600452602482fd5b503461022557806003193601126102255760206040517f00000000000000000000000000000000000000000000000000000000000000008152f35b5034610225578060031936011261022557604051600160f91b602082019081523060601b6001600160601b03191660218301526015825290610c31603582611ef5565b519020604051632474521560e21b815260048101919091523360248201526020816044817f00000000000000000000000000000000000000000000000000000000000000006001600160a01b03165afa9081156102c8578291610d06575b5015610cf35780546001600160a01b038116610ce4576001600160a01b0319163390811782556040519081527f55489ce0259bd691120d8860861be1c401c7c16a3cd268d21045756af4ecc5ca90602090a180f35b636a79b97d60e11b8252600482fd5b631564c0e160e11b815233600452602490fd5b610d1f915060203d602011610415576104078183611ef5565b5f610c8f565b5034610225576020366003190112610225578054600435906001600160a01b03163303610ba0576020817f333b26cca69716ad4680ddb07663f5bfb4f06045671f336af9a83690a3ae00f992600355604051908152a180f35b5034610225578060031936011261022557604051637aaceb9560e01b81526020816004817f00000000000000000000000000000000000000000000000000000000000000006001600160a01b03165afa9081156102c8576020929161029b57506040516001600160a01b039091168152f35b5034610225578060031936011261022557546001546002546003546004546005546001600160a01b0394851695851694929390921691610e8e9190610e8090610e37611fa8565b90610e4061208a565b9360ff6008541697600954976040519b8c9b8c5260208c015260408b015260608a0152608089015260a088015261014060c0880152610140870190611e3f565b9085820360e0870152611e3f565b9115156101008401526101208301520390f35b5034610a67576020366003190112610a67576004356001600160401b038111610a675736602382011215610a67578060040135610edd81611f16565b91610eeb6040519384611ef5565b8183526024602084019260051b82010190368211610a6757602401915b8183106113b2575050604051628bec5760e51b81529050602081600481305afa908115611298575f91611393575b506001600160a01b0316330361138057610f4e612432565b610f588151612220565b90610f638151612220565b6002545f5460405163c8169aa160e01b81529294926001600160a01b0392831692909160209183916004918391165afa908115611298575f91611361575b506040516370a0823160e01b8152306004820152602081602481865afa908115611298575f9161132f575b5015158061131c575b6111a6575b5050835b825181101561114d5760249060206001600160a01b03610ffe8387612273565b5116604051938480926370a0823160e01b82523060048301525afa91821561114257869261110f575b5081611038575b6001915001610fde565b6001600160a01b0361104a8286612273565b5116916024611057612182565b9360206001600160a01b0361106c868a612273565b5116604051938480926370a0823160e01b82523060048301525afa9182156111045789926110d0575b50906001946110a3926124df565b828060a01b036110b38387612273565b51166110bf8386612273565b526110ca8287612273565b5261102e565b91506020823d82116110fc575b816110ea60209383611ef5565b81010312610a67579051906001611095565b3d91506110dd565b6040513d8b823e3d90fd5b9091506020813d821161113a575b8161112a60209383611ef5565b81010312610a675751905f611027565b3d915061111d565b6040513d88823e3d90fd5b84826105708661115c83612287565b92611166826122ca565b946040519586957f46b8771620f6acf56cb03d3e835ea8024c7dcbcf05fcc3f6ade9e19d1a3e212b8380a35f51602061262f5f395f51905f525d83611f2d565b6040516370a0823160e01b8152306004820152602081602481865afa908115611298575f916112e9575b50816111e160209260249486612519565b6040516370a0823160e01b81523060048201526001600160a01b0391909116939092839182905afa908115611298575f916112b7575b50604051602081018181106001600160401b038211176112a3576040525f8152823b15610a675761126e925f9283604051809681958294632db6d39960e01b84526004840152604060248401526044830190611e3f565b03925af1801561129857611283575b80610fda565b6112909194505f90611ef5565b5f925f61127d565b6040513d5f823e3d90fd5b634e487b7160e01b5f52604160045260245ffd5b90506020813d6020116112e1575b816112d260209383611ef5565b81010312610a6757515f611217565b3d91506112c5565b90506020813d602011611314575b8161130460209383611ef5565b81010312610a67575160246111d0565b3d91506112f7565b50306001600160a01b0382161415610fd5565b90506020813d602011611359575b8161134a60209383611ef5565b81010312610a6757515f610fcc565b3d915061133d565b61137a915060203d6020116102c1576102b38183611ef5565b5f610fa1565b631184b31b60e21b5f523360045260245ffd5b6113ac915060203d6020116102c1576102b38183611ef5565b5f610f36565b82356001600160a01b0381168103610a6757815260209283019201610f08565b34610a67575f366003190112610a67576040517f00000000000000000000000000000000000000000000000000000000000000006001600160a01b03168152602090f35b34610a67576040366003190112610a67576004356003811015610a675760209061143e611ec3565b604051908382019260f81b835260018060601b03199060601b1660218201526015815261146c603582611ef5565b519020604051908152f35b34610a67575f366003190112610a675760206040517f0d186688925976bbe6755ae984501c8e3e2b103a7af59fd803ab9c6d891ae7e08152f35b34610a67576020366003190112610a67575f54600435906001600160a01b03163303611508576020817ffbe2d5c01ea8ba5596d6c4e6c82c6d4a0a0ee1128689993a4a5ba0169273d69f92600455604051908152a1005b631564c0e160e11b5f523360045260245ffd5b34610a67575f366003190112610a67576040516361d027b360e01b81526020816004817f00000000000000000000000000000000000000000000000000000000000000006001600160a01b03165afa8015611298576020915f9161158c57506040516001600160a01b039091168152f35b6115a39150823d84116102c1576102b38183611ef5565b82610288565b34610a67575f366003190112610a6757604051635b0f83f360e01b81526020816004817f00000000000000000000000000000000000000000000000000000000000000006001600160a01b03165afa8015611298576020915f9161158c57506040516001600160a01b039091168152f35b34610a67575f366003190112610a675761057061163561208a565b604051918291602083526020830190611e3f565b34610a67576020366003190112610a67575f54600435906001600160a01b031633036115085768056bc75e2d6310000081116116b0576020817fd3c6d0ab315f2f1352f036cd9f401b49e38e1b90907e195225e8105f9a0b6f0292600955604051908152a1005b634ef9dfe360e01b5f5260045ffd5b34610a67575f366003190112610a67576040517f00000000000000000000000000000000000000000000000000000000000000006001600160a01b03168152602090f35b34610a67575f366003190112610a67576002546040516001600160a01b039091168152602090f35b34610a67575f366003190112610a67575f546040516001600160a01b039091168152602090f35b34610a67575f366003190112610a67576020600454604051908152f35b34610a67575f366003190112610a6757602060ff600854166040519015158152f35b34610a675761179f36611e90565b6117a7612432565b604051631b93849b60e11b8152602081600481305afa908115611298575f91611a83575b506001600160a01b03163381036119c7575b506117e791612467565b60018060a01b03600254169061182d6040516323b872dd60e01b602082015233602482015230604482015282606482015260648152611827608482611ef5565b836125d6565b6002546001600160a01b037f00000000000000000000000000000000000000000000000000000000000000008116929161186b918391859116612519565b60206040518093634acc893b60e11b8252815f8161188d8730600484016121ed565b03925af1918215611298575f92611992575b505f916020907f00000000000000000000000000000000000000000000000000000000000000006001600160a01b0316906044906118fe81847f0000000000000000000000000000000000000000000000000000000000000000612519565b6040519586938492636e553f6560e01b845260048401523060248401525af1908115611298577fcbaa1442ac205415c9d69643e7b60ec73d1de35dbc807c21ec288c70ddc4207b9261195e92611973575b506040519182913395836121ed565b0390a25f5f51602061262f5f395f51905f525d005b61198b9060203d602011610a2a57610a1b8183611ef5565b508461194f565b91506020823d6020116119bf575b816119ad60209383611ef5565b81010312610a6757905190602061189f565b3d91506119a0565b604051628bec5760e51b8152602081600481305afa908115611298575f91611a64575b506001600160a01b031633146117dd5760206024916040519283809263d206a05960e01b82523360048301525afa908115611298575f91611a45575b5015611a3257836117dd565b638f7a567d60e01b5f523360045260245ffd5b611a5e915060203d602011610415576104078183611ef5565b84611a26565b611a7d915060203d6020116102c1576102b38183611ef5565b856119ea565b611a9c915060203d6020116102c1576102b38183611ef5565b846117cb565b34610a67575f366003190112610a675760206040517f55435dd261a4b9b3364963f7738a7a662ad9c84396d64be3365284bb7f0a50418152f35b34610a6757611aea36611e90565b5f546001600160a01b0316330361150857611b0c91611b07612432565b612467565b6002546001600160a01b031690611b437f0000000000000000000000000000000000000000000000000000000000000000826124b8565b604051632d182be560e21b815260048101829052306024820181905260448201529091906020816064815f7f00000000000000000000000000000000000000000000000000000000000000006001600160a01b03165af1801561129857611c8d575b507f00000000000000000000000000000000000000000000000000000000000000006001600160a01b031691611bfc90837f0000000000000000000000000000000000000000000000000000000000000000612519565b60206040518093638d7ef9bb60e01b8252815f81611c1e8730600484016121ed565b03925af1908115611298577fd5e872c5ecfb1bb8820b2e6a20e31b883682282da886621541f71e31ec11947e9261195e92611c6e575b50611c608133866124df565b6040519182913395836121ed565b611c869060203d602011610a2a57610a1b8183611ef5565b5084611c54565b6020813d602011611cb4575b81611ca660209383611ef5565b81010312610a675751611ba5565b3d9150611c99565b34610a67575f366003190112610a67576020611cd6612182565b6040516001600160a01b039091168152f35b34610a67575f366003190112610a6757610570611635611fa8565b34610a67575f366003190112610a67576370a0823160e01b81523060048201527f00000000000000000000000000000000000000000000000000000000000000006001600160a01b0316905f90602081602481865afa908115611298575f91611e0d575b5080611d79575b602082604051908152f35b602091506024604051809481936303d1689d60e11b835260048301525afa908115611298575f91611dd9575b50611dd36020917f000000000000000000000000000000000000000000000000000000000000000090612145565b82611d6e565b90506020813d602011611e05575b81611df460209383611ef5565b81010312610a675751611dd3611da5565b3d9150611de7565b90506020813d602011611e37575b81611e2860209383611ef5565b81010312610a67575183611d67565b3d9150611e1b565b805180835260209291819084018484015e5f828201840152601f01601f1916010190565b9181601f84011215610a67578235916001600160401b038311610a675760208381860195010111610a6757565b906040600319830112610a675760043591602435906001600160401b038211610a6757611ebf91600401611e63565b9091565b602435906001600160a01b0382168203610a6757565b61014081019081106001600160401b038211176112a357604052565b90601f801991011681019081106001600160401b038211176112a357604052565b6001600160401b0381116112a35760051b60200190565b604081016040825282518091526020606083019301905f5b818110611f89575050506020818303910152602080835192838152019201905f5b818110611f735750505090565b8251845260209384019390920191600101611f66565b82516001600160a01b0316855260209485019490920191600101611f45565b604051905f6006548060011c9160018216918215612080575b60208410831461206c57838652859290811561204d5750600114611fee575b611fec92500383611ef5565b565b5060065f90815290917ff652222313e28459528d920b65115c16c04f3efc82aaedc97be59f3f377c0d3f5b818310612031575050906020611fec92820101611fe0565b6020919350806001915483858901015201910190918492612019565b60209250611fec94915060ff191682840152151560051b820101611fe0565b634e487b7160e01b5f52602260045260245ffd5b92607f1692611fc1565b604051905f6007548060011c916001821691821561212c575b60208410831461206c57838652859290811561204d57506001146120cd57611fec92500383611ef5565b5060075f90815290917fa66cc928b5edb82af9bd49922954155ab7b0942694bea4ce44661d9a8736c6885b818310612110575050906020611fec92820101611fe0565b60209193508060019154838589010152019101909184926120f8565b92607f16926120a3565b90816020910312610a67575190565b811561214f570490565b634e487b7160e01b5f52601260045260245ffd5b90816020910312610a6757516001600160a01b0381168103610a675790565b604051628bec5760e51b81526020816004817f00000000000000000000000000000000000000000000000000000000000000006001600160a01b03165afa908115611298575f916121d1575090565b6121ea915060203d6020116102c1576102b38183611ef5565b90565b6001600160a01b039091168152602081019190915260400190565b90816020910312610a6757518015158103610a675790565b9061222a82611f16565b6122376040519182611ef5565b8281528092612248601f1991611f16565b0190602036910137565b80511561225f5760200190565b634e487b7160e01b5f52603260045260245ffd5b805182101561225f5760209160051b010190565b6040518091829160208251919201905f5b8181106122a85750505003902090565b82516001600160a01b0316845285945060209384019390920191600101612298565b6040518091829160208251919201905f5b8181106122eb5750505003902090565b82518452859450602093840193909201916001016122db565b60ff6008541661242e576040516370a0823160e01b81523060048201525f907f00000000000000000000000000000000000000000000000000000000000000006001600160a01b031690602081602481855afa908115611298575f916123fc575b5061236e575090565b60405163ce96cb7760e01b81523060048201529150602090829060249082905afa8015611298575f906123c8575b6121ea91507f000000000000000000000000000000000000000000000000000000000000000090612145565b506020813d6020116123f4575b816123e260209383611ef5565b81010312610a67576121ea905161239c565b3d91506123d5565b90506020813d602011612426575b8161241760209383611ef5565b81010312610a6757515f612365565b3d915061240a565b5f90565b5f51602061262f5f395f51905f525c6124585760015f51602061262f5f395f51905f525d565b633ee5aeb560e01b5f5260045ffd5b50158015806124ab575b61249c5780612490575b61248157565b63332863a960e11b5f5260045ffd5b5060ff6008541661247b565b630cd0fdf960e01b5f5260045ffd5b5060ff6008541615612471565b818102929181159184041417156124cb57565b634e487b7160e01b5f52601160045260245ffd5b612514611fec939261250660405194859263a9059cbb60e01b6020850152602484016121ed565b03601f198101845283611ef5565b6125d6565b91909160205f60405193612550856125428582019363095ea7b360e01b855289602484016121ed565b03601f198101875286611ef5565b84519082855af15f513d826125b1575b50501561256c57505050565b60405163095ea7b360e01b60208201526001600160a01b0390931660248401525f6044808501919091528352611fec92612514906125ab606482611ef5565b826125d6565b9091506125ce57506001600160a01b0381163b15155b5f80612560565b6001146125c7565b905f602091828151910182855af115611298575f513d61262557506001600160a01b0381163b155b6126055750565b635274afe760e01b5f9081526001600160a01b0391909116600452602490fd5b600114156125fe56fe9b779b17422d0df92223018b32b4d1fa46e071723d6817e2486d003becc55f00a26469706673582212205dcea6ed6d26cf0edd14eeb7d59a323c655b93785998f9ee4bad4818945ce22864736f6c634300081c0033",
  "linkReferences": {},
  "deployedLinkReferences": {}
}