{
  "_format": "hh-sol-artifact-1",
  "contractName": "AaveV3Ark",
  "sourceName": "src/contracts/arks/AaveV3Ark.sol",
  "abi": [
    {
      "inputs": [
        {
          "internalType": "address",
          "name": "_aaveV3Pool",
          "type": "address"
        },
        {
          "internalType": "address",
          "name": "_rewardsController",
          "type": "address"
        },
        {
          "components": [
            {
              "internalType": "string",
              "name": "name",
              "type": "string"
            },
            {
              "internalType": "string",
              "name": "details",
              "type": "string"
            },
            {
              "internalType": "address",
              "name": "accessManager",
              "type": "address"
            },
            {
              "internalType": "address",
              "name": "configurationManager",
              "type": "address"
            },
            {
              "internalType": "address",
              "name": "asset",
              "type": "address"
            },
            {
              "internalType": "uint256",
              "name": "depositCap",
              "type": "uint256"
            },
            {
              "internalType": "uint256",
              "name": "maxRebalanceOutflow",
              "type": "uint256"
            },
            {
              "internalType": "uint256",
              "name": "maxRebalanceInflow",
              "type": "uint256"
            },
            {
              "internalType": "bool",
              "name": "requiresKeeperData",
              "type": "bool"
            },
            {
              "internalType": "Percentage",
              "name": "maxDepositPercentageOfTVL",
              "type": "uint256"
            }
          ],
          "internalType": "struct ArkParams",
          "name": "_params",
          "type": "tuple"
        }
      ],
      "stateMutability": "nonpayable",
      "type": "constructor"
    },
    {
      "inputs": [
        {
          "internalType": "address",
          "name": "caller",
          "type": "address"
        }
      ],
      "name": "CallerIsNotAdmin",
      "type": "error"
    },
    {
      "inputs": [
        {
          "internalType": "address",
          "name": "caller",
          "type": "address"
        }
      ],
      "name": "CallerIsNotAuthorizedToBoard",
      "type": "error"
    },
    {
      "inputs": [
        {
          "internalType": "address",
          "name": "caller",
          "type": "address"
        }
      ],
      "name": "CallerIsNotCommander",
      "type": "error"
    },
    {
      "inputs": [
        {
          "internalType": "address",
          "name": "caller",
          "type": "address"
        },
        {
          "internalType": "bytes32",
          "name": "role",
          "type": "bytes32"
        }
      ],
      "name": "CallerIsNotContractSpecificRole",
      "type": "error"
    },
    {
      "inputs": [
        {
          "internalType": "address",
          "name": "caller",
          "type": "address"
        }
      ],
      "name": "CallerIsNotCurator",
      "type": "error"
    },
    {
      "inputs": [
        {
          "internalType": "address",
          "name": "caller",
          "type": "address"
        }
      ],
      "name": "CallerIsNotDecayController",
      "type": "error"
    },
    {
      "inputs": [
        {
          "internalType": "address",
          "name": "caller",
          "type": "address"
        }
      ],
      "name": "CallerIsNotGovernor",
      "type": "error"
    },
    {
      "inputs": [
        {
          "internalType": "address",
          "name": "caller",
          "type": "address"
        }
      ],
      "name": "CallerIsNotGuardian",
      "type": "error"
    },
    {
      "inputs": [
        {
          "internalType": "address",
          "name": "caller",
          "type": "address"
        }
      ],
      "name": "CallerIsNotGuardianOrGovernor",
      "type": "error"
    },
    {
      "inputs": [
        {
          "internalType": "address",
          "name": "caller",
          "type": "address"
        }
      ],
      "name": "CallerIsNotKeeper",
      "type": "error"
    },
    {
      "inputs": [
        {
          "internalType": "address",
          "name": "caller",
          "type": "address"
        }
      ],
      "name": "CallerIsNotRaft",
      "type": "error"
    },
    {
      "inputs": [
        {
          "internalType": "address",
          "name": "caller",
          "type": "address"
        }
      ],
      "name": "CallerIsNotRaftOrCommander",
      "type": "error"
    },
    {
      "inputs": [
        {
          "internalType": "address",
          "name": "caller",
          "type": "address"
        }
      ],
      "name": "CallerIsNotSuperKeeper",
      "type": "error"
    },
    {
      "inputs": [],
      "name": "CannotAddCommanderToArkWithCommander",
      "type": "error"
    },
    {
      "inputs": [],
      "name": "CannotDeployArkWithEmptyName",
      "type": "error"
    },
    {
      "inputs": [],
      "name": "CannotDeployArkWithoutConfigurationManager",
      "type": "error"
    },
    {
      "inputs": [],
      "name": "CannotDeployArkWithoutRaft",
      "type": "error"
    },
    {
      "inputs": [],
      "name": "CannotDeployArkWithoutToken",
      "type": "error"
    },
    {
      "inputs": [],
      "name": "CannotRemoveCommanderFromArkWithAssets",
      "type": "error"
    },
    {
      "inputs": [],
      "name": "CannotUseKeeperDataWhenNotRequired",
      "type": "error"
    },
    {
      "inputs": [],
      "name": "ConfigurationManagerZeroAddress",
      "type": "error"
    },
    {
      "inputs": [
        {
          "internalType": "address",
          "name": "caller",
          "type": "address"
        }
      ],
      "name": "DirectGrantIsDisabled",
      "type": "error"
    },
    {
      "inputs": [
        {
          "internalType": "address",
          "name": "caller",
          "type": "address"
        }
      ],
      "name": "DirectRevokeIsDisabled",
      "type": "error"
    },
    {
      "inputs": [],
      "name": "ERC4626AssetMismatch",
      "type": "error"
    },
    {
      "inputs": [
        {
          "internalType": "address",
          "name": "invalidAddress",
          "type": "address"
        }
      ],
      "name": "InvalidAccessManagerAddress",
      "type": "error"
    },
    {
      "inputs": [],
      "name": "InvalidBoardData",
      "type": "error"
    },
    {
      "inputs": [],
      "name": "InvalidDisembarkData",
      "type": "error"
    },
    {
      "inputs": [],
      "name": "InvalidVaultAddress",
      "type": "error"
    },
    {
      "inputs": [],
      "name": "KeeperDataRequired",
      "type": "error"
    },
    {
      "inputs": [],
      "name": "ReentrancyGuardReentrantCall",
      "type": "error"
    },
    {
      "inputs": [
        {
          "internalType": "address",
          "name": "token",
          "type": "address"
        }
      ],
      "name": "SafeERC20FailedOperation",
      "type": "error"
    },
    {
      "anonymous": false,
      "inputs": [
        {
          "indexed": true,
          "internalType": "address[]",
          "name": "rewardTokens",
          "type": "address[]"
        },
        {
          "indexed": true,
          "internalType": "uint256[]",
          "name": "rewardAmounts",
          "type": "uint256[]"
        }
      ],
      "name": "ArkHarvested",
      "type": "event"
    },
    {
      "anonymous": false,
      "inputs": [
        {
          "indexed": false,
          "internalType": "uint256",
          "name": "currentPrice",
          "type": "uint256"
        },
        {
          "indexed": false,
          "internalType": "uint256",
          "name": "timestamp",
          "type": "uint256"
        }
      ],
      "name": "ArkPoked",
      "type": "event"
    },
    {
      "anonymous": false,
      "inputs": [
        {
          "indexed": true,
          "internalType": "address[]",
          "name": "sweptTokens",
          "type": "address[]"
        },
        {
          "indexed": true,
          "internalType": "uint256[]",
          "name": "sweptAmounts",
          "type": "uint256[]"
        }
      ],
      "name": "ArkSwept",
      "type": "event"
    },
    {
      "anonymous": false,
      "inputs": [
        {
          "indexed": true,
          "internalType": "address",
          "name": "commander",
          "type": "address"
        },
        {
          "indexed": false,
          "internalType": "address",
          "name": "token",
          "type": "address"
        },
        {
          "indexed": false,
          "internalType": "uint256",
          "name": "amount",
          "type": "uint256"
        }
      ],
      "name": "Boarded",
      "type": "event"
    },
    {
      "anonymous": false,
      "inputs": [
        {
          "indexed": false,
          "internalType": "uint256",
          "name": "newCap",
          "type": "uint256"
        }
      ],
      "name": "DepositCapUpdated",
      "type": "event"
    },
    {
      "anonymous": false,
      "inputs": [
        {
          "indexed": true,
          "internalType": "address",
          "name": "commander",
          "type": "address"
        },
        {
          "indexed": false,
          "internalType": "address",
          "name": "token",
          "type": "address"
        },
        {
          "indexed": false,
          "internalType": "uint256",
          "name": "amount",
          "type": "uint256"
        }
      ],
      "name": "Disembarked",
      "type": "event"
    },
    {
      "anonymous": false,
      "inputs": [
        {
          "indexed": false,
          "internalType": "address",
          "name": "commander",
          "type": "address"
        }
      ],
      "name": "FleetCommanderRegistered",
      "type": "event"
    },
    {
      "anonymous": false,
      "inputs": [
        {
          "indexed": false,
          "internalType": "address",
          "name": "commander",
          "type": "address"
        }
      ],
      "name": "FleetCommanderUnregistered",
      "type": "event"
    },
    {
      "anonymous": false,
      "inputs": [
        {
          "indexed": false,
          "internalType": "Percentage",
          "name": "newMaxDepositPercentageOfTVL",
          "type": "uint256"
        }
      ],
      "name": "MaxDepositPercentageOfTVLUpdated",
      "type": "event"
    },
    {
      "anonymous": false,
      "inputs": [
        {
          "indexed": false,
          "internalType": "uint256",
          "name": "newMaxInflow",
          "type": "uint256"
        }
      ],
      "name": "MaxRebalanceInflowUpdated",
      "type": "event"
    },
    {
      "anonymous": false,
      "inputs": [
        {
          "indexed": false,
          "internalType": "uint256",
          "name": "newMaxOutflow",
          "type": "uint256"
        }
      ],
      "name": "MaxRebalanceOutflowUpdated",
      "type": "event"
    },
    {
      "anonymous": false,
      "inputs": [
        {
          "indexed": true,
          "internalType": "address",
          "name": "from",
          "type": "address"
        },
        {
          "indexed": true,
          "internalType": "address",
          "name": "to",
          "type": "address"
        },
        {
          "indexed": false,
          "internalType": "address",
          "name": "token",
          "type": "address"
        },
        {
          "indexed": false,
          "internalType": "uint256",
          "name": "amount",
          "type": "uint256"
        }
      ],
      "name": "Moved",
      "type": "event"
    },
    {
      "anonymous": false,
      "inputs": [
        {
          "indexed": false,
          "internalType": "address",
          "name": "newRaft",
          "type": "address"
        }
      ],
      "name": "RaftUpdated",
      "type": "event"
    },
    {
      "inputs": [],
      "name": "aToken",
      "outputs": [
        {
          "internalType": "address",
          "name": "",
          "type": "address"
        }
      ],
      "stateMutability": "view",
      "type": "function"
    },
    {
      "inputs": [],
      "name": "aaveV3Pool",
      "outputs": [
        {
          "internalType": "contract IPoolV3",
          "name": "",
          "type": "address"
        }
      ],
      "stateMutability": "view",
      "type": "function"
    },
    {
      "inputs": [],
      "name": "asset",
      "outputs": [
        {
          "internalType": "contract IERC20",
          "name": "",
          "type": "address"
        }
      ],
      "stateMutability": "view",
      "type": "function"
    },
    {
      "inputs": [
        {
          "internalType": "uint256",
          "name": "amount",
          "type": "uint256"
        },
        {
          "internalType": "bytes",
          "name": "boardData",
          "type": "bytes"
        }
      ],
      "name": "board",
      "outputs": [],
      "stateMutability": "nonpayable",
      "type": "function"
    },
    {
      "inputs": [],
      "name": "commander",
      "outputs": [
        {
          "internalType": "address",
          "name": "",
          "type": "address"
        }
      ],
      "stateMutability": "view",
      "type": "function"
    },
    {
      "inputs": [],
      "name": "config",
      "outputs": [
        {
          "internalType": "address",
          "name": "commander",
          "type": "address"
        },
        {
          "internalType": "address",
          "name": "raft",
          "type": "address"
        },
        {
          "internalType": "contract IERC20",
          "name": "asset",
          "type": "address"
        },
        {
          "internalType": "uint256",
          "name": "depositCap",
          "type": "uint256"
        },
        {
          "internalType": "uint256",
          "name": "maxRebalanceOutflow",
          "type": "uint256"
        },
        {
          "internalType": "uint256",
          "name": "maxRebalanceInflow",
          "type": "uint256"
        },
        {
          "internalType": "string",
          "name": "name",
          "type": "string"
        },
        {
          "internalType": "string",
          "name": "details",
          "type": "string"
        },
        {
          "internalType": "bool",
          "name": "requiresKeeperData",
          "type": "bool"
        },
        {
          "internalType": "Percentage",
          "name": "maxDepositPercentageOfTVL",
          "type": "uint256"
        }
      ],
      "stateMutability": "view",
      "type": "function"
    },
    {
      "inputs": [],
      "name": "configurationManager",
      "outputs": [
        {
          "internalType": "contract IConfigurationManager",
          "name": "",
          "type": "address"
        }
      ],
      "stateMutability": "view",
      "type": "function"
    },
    {
      "inputs": [],
      "name": "depositCap",
      "outputs": [
        {
          "internalType": "uint256",
          "name": "",
          "type": "uint256"
        }
      ],
      "stateMutability": "view",
      "type": "function"
    },
    {
      "inputs": [
        {
          "internalType": "uint256",
          "name": "amount",
          "type": "uint256"
        },
        {
          "internalType": "bytes",
          "name": "disembarkData",
          "type": "bytes"
        }
      ],
      "name": "disembark",
      "outputs": [],
      "stateMutability": "nonpayable",
      "type": "function"
    },
    {
      "inputs": [],
      "name": "fleetCommanderRewardsManagerFactory",
      "outputs": [
        {
          "internalType": "address",
          "name": "",
          "type": "address"
        }
      ],
      "stateMutability": "view",
      "type": "function"
    },
    {
      "inputs": [
        {
          "internalType": "enum ContractSpecificRoles",
          "name": "roleName",
          "type": "uint8"
        },
        {
          "internalType": "address",
          "name": "roleTargetContract",
          "type": "address"
        }
      ],
      "name": "generateRole",
      "outputs": [
        {
          "internalType": "bytes32",
          "name": "",
          "type": "bytes32"
        }
      ],
      "stateMutability": "pure",
      "type": "function"
    },
    {
      "inputs": [],
      "name": "getConfig",
      "outputs": [
        {
          "components": [
            {
              "internalType": "address",
              "name": "commander",
              "type": "address"
            },
            {
              "internalType": "address",
              "name": "raft",
              "type": "address"
            },
            {
              "internalType": "contract IERC20",
              "name": "asset",
              "type": "address"
            },
            {
              "internalType": "uint256",
              "name": "depositCap",
              "type": "uint256"
            },
            {
              "internalType": "uint256",
              "name": "maxRebalanceOutflow",
              "type": "uint256"
            },
            {
              "internalType": "uint256",
              "name": "maxRebalanceInflow",
              "type": "uint256"
            },
            {
              "internalType": "string",
              "name": "name",
              "type": "string"
            },
            {
              "internalType": "string",
              "name": "details",
              "type": "string"
            },
            {
              "internalType": "bool",
              "name": "requiresKeeperData",
              "type": "bool"
            },
            {
              "internalType": "Percentage",
              "name": "maxDepositPercentageOfTVL",
              "type": "uint256"
            }
          ],
          "internalType": "struct ArkConfig",
          "name": "",
          "type": "tuple"
        }
      ],
      "stateMutability": "view",
      "type": "function"
    },
    {
      "inputs": [],
      "name": "harborCommand",
      "outputs": [
        {
          "internalType": "address",
          "name": "",
          "type": "address"
        }
      ],
      "stateMutability": "view",
      "type": "function"
    },
    {
      "inputs": [
        {
          "internalType": "bytes",
          "name": "additionalData",
          "type": "bytes"
        }
      ],
      "name": "harvest",
      "outputs": [
        {
          "internalType": "address[]",
          "name": "rewardTokens",
          "type": "address[]"
        },
        {
          "internalType": "uint256[]",
          "name": "rewardAmounts",
          "type": "uint256[]"
        }
      ],
      "stateMutability": "nonpayable",
      "type": "function"
    },
    {
      "inputs": [],
      "name": "maxDepositPercentageOfTVL",
      "outputs": [
        {
          "internalType": "Percentage",
          "name": "",
          "type": "uint256"
        }
      ],
      "stateMutability": "view",
      "type": "function"
    },
    {
      "inputs": [],
      "name": "maxRebalanceInflow",
      "outputs": [
        {
          "internalType": "uint256",
          "name": "",
          "type": "uint256"
        }
      ],
      "stateMutability": "view",
      "type": "function"
    },
    {
      "inputs": [],
      "name": "maxRebalanceOutflow",
      "outputs": [
        {
          "internalType": "uint256",
          "name": "",
          "type": "uint256"
        }
      ],
      "stateMutability": "view",
      "type": "function"
    },
    {
      "inputs": [
        {
          "internalType": "uint256",
          "name": "amount",
          "type": "uint256"
        },
        {
          "internalType": "address",
          "name": "receiverArk",
          "type": "address"
        },
        {
          "internalType": "bytes",
          "name": "boardData",
          "type": "bytes"
        },
        {
          "internalType": "bytes",
          "name": "disembarkData",
          "type": "bytes"
        }
      ],
      "name": "move",
      "outputs": [],
      "stateMutability": "nonpayable",
      "type": "function"
    },
    {
      "inputs": [],
      "name": "name",
      "outputs": [
        {
          "internalType": "string",
          "name": "",
          "type": "string"
        }
      ],
      "stateMutability": "view",
      "type": "function"
    },
    {
      "inputs": [],
      "name": "raft",
      "outputs": [
        {
          "internalType": "address",
          "name": "",
          "type": "address"
        }
      ],
      "stateMutability": "view",
      "type": "function"
    },
    {
      "inputs": [],
      "name": "registerFleetCommander",
      "outputs": [],
      "stateMutability": "nonpayable",
      "type": "function"
    },
    {
      "inputs": [],
      "name": "requiresKeeperData",
      "outputs": [
        {
          "internalType": "bool",
          "name": "",
          "type": "bool"
        }
      ],
      "stateMutability": "view",
      "type": "function"
    },
    {
      "inputs": [],
      "name": "rewardsController",
      "outputs": [
        {
          "internalType": "contract IRewardsController",
          "name": "",
          "type": "address"
        }
      ],
      "stateMutability": "view",
      "type": "function"
    },
    {
      "inputs": [
        {
          "internalType": "uint256",
          "name": "newDepositCap",
          "type": "uint256"
        }
      ],
      "name": "setDepositCap",
      "outputs": [],
      "stateMutability": "nonpayable",
      "type": "function"
    },
    {
      "inputs": [
        {
          "internalType": "Percentage",
          "name": "newMaxDepositPercentageOfTVL",
          "type": "uint256"
        }
      ],
      "name": "setMaxDepositPercentageOfTVL",
      "outputs": [],
      "stateMutability": "nonpayable",
      "type": "function"
    },
    {
      "inputs": [
        {
          "internalType": "uint256",
          "name": "newMaxRebalanceInflow",
          "type": "uint256"
        }
      ],
      "name": "setMaxRebalanceInflow",
      "outputs": [],
      "stateMutability": "nonpayable",
      "type": "function"
    },
    {
      "inputs": [
        {
          "internalType": "uint256",
          "name": "newMaxRebalanceOutflow",
          "type": "uint256"
        }
      ],
      "name": "setMaxRebalanceOutflow",
      "outputs": [],
      "stateMutability": "nonpayable",
      "type": "function"
    },
    {
      "inputs": [
        {
          "internalType": "address[]",
          "name": "tokens",
          "type": "address[]"
        }
      ],
      "name": "sweep",
      "outputs": [
        {
          "internalType": "address[]",
          "name": "sweptTokens",
          "type": "address[]"
        },
        {
          "internalType": "uint256[]",
          "name": "sweptAmounts",
          "type": "uint256[]"
        }
      ],
      "stateMutability": "nonpayable",
      "type": "function"
    },
    {
      "inputs": [],
      "name": "tipJar",
      "outputs": [
        {
          "internalType": "address",
          "name": "",
          "type": "address"
        }
      ],
      "stateMutability": "view",
      "type": "function"
    },
    {
      "inputs": [],
      "name": "totalAssets",
      "outputs": [
        {
          "internalType": "uint256",
          "name": "",
          "type": "uint256"
        }
      ],
      "stateMutability": "view",
      "type": "function"
    },
    {
      "inputs": [],
      "name": "treasury",
      "outputs": [
        {
          "internalType": "address",
          "name": "",
          "type": "address"
        }
      ],
      "stateMutability": "view",
      "type": "function"
    },
    {
      "inputs": [],
      "name": "unregisterFleetCommander",
      "outputs": [],
      "stateMutability": "nonpayable",
      "type": "function"
    }
  ],
  "bytecode": "0x61010080604052346105c057612cb5803803809161001d8285610896565b833981016060828203126105c057610034826108b9565b90610041602084016108b9565b604084015190936001600160401b0382116105c0570190610140828203126105c057604051906100708261087a565b82516001600160401b0381116105c0578161008c9185016108cd565b82526020830151906001600160401b0382116105c0576100ad9184016108cd565b91602082019283526100c1604082016108b9565b928360408401526100d4606083016108b9565b9260608101948486526100e9608085016108b9565b956080830196875260a08501519660a0840197885260c08601519160c0850192835260e08701519360e086019485526101206101286101008a01610922565b61010088019081529801516101208701908152986001600160a01b0390811691168015610867576040516301ffc9a760e01b8152639bd1803160e01b6004820152602081602481855afa9081156105df575f9161082d575b501561081b575f80546001600160a01b031916919091179055801561080c57608052516001600160a01b0316156107fd5780516001600160a01b0316156107ee57835151156107df576001600160a01b036101d9610943565b16156107d057516001600160a01b03166101f1610943565b9751915192519351945195511515965197610120604051916102128361087a565b5f83526001600160a01b03166020830181905260408301849052606083018590526080830186905260a0830187905260c0830188905260e083019889526101008301998a529101988952600180546001600160a01b03199081169091556002805482169092179091556003805490911690911790556004556005556006558051906001600160401b0382116105c45760075490600182811c921680156107c6575b60208310146106c95781601f849311610758575b50602090601f83116001146106f2575f926106e7575b50508160011b915f199060031b1c1916176007555b518051906001600160401b0382116105c45760085490600182811c921680156106dd575b60208310146106c95781601f84931161065b575b50602090601f83116001146105f5575f926105ea575b50508160011b915f199060031b1c1916176008555b51151560ff80196009541691161760095551600a5560018060a01b03168060c0526101e060018060a01b03600354166024604051809481936335ea6a7560e01b835260048301525afa9081156105df575f91610444575b5061010001516001600160a01b0390811660a0521660e05260405161230490816109b182396080518181816101a4015281816105e801528181610ce201528181611538015281816115aa0152611f7f015260a0518181816103cd01528181610b300152611b8a015260c05181818161092501528181610c380152818161178b0152611a3a015260e05181818161043301526114240152f35b8091506101e03d81116105d8575b61045c8183610896565b810103906101e082126105c057604051916101e08301906001600160401b038211848310176105c457602091604052126105c057604051602081016001600160401b038111828210176105c4576040528151815282526104be6020820161092f565b60208301526104cf6040820161092f565b60408301526104e06060820161092f565b60608301526104f16080820161092f565b608083015261050260a0820161092f565b60a083015260c081015164ffffffffff811681036105c05760c083015260e081015161ffff811681036105c0576105b4916101c09160e085015261054961010082016108b9565b61010085015261055c61012082016108b9565b61012085015261056f61014082016108b9565b61014085015261058261016082016108b9565b610160850152610595610180820161092f565b6101808501526105a86101a0820161092f565b6101a08501520161092f565b6101c08201525f6103ac565b5f80fd5b634e487b7160e01b5f52604160045260245ffd5b503d610452565b6040513d5f823e3d90fd5b015190505f80610340565b60085f9081528281209350601f198516905b818110610643575090846001959493921061062b575b505050811b01600855610355565b01515f1960f88460031b161c191690555f808061061d565b92936020600181928786015181550195019301610607565b60085f529091507ff3f7a9fe364faab93b216da50a3214154f22a0a2b415b23a84c8169e8b636ee3601f840160051c810191602085106106bf575b90601f859493920160051c01905b8181106106b1575061032a565b5f81558493506001016106a4565b9091508190610696565b634e487b7160e01b5f52602260045260245ffd5b91607f1691610316565b015190505f806102dd565b60075f9081528281209350601f198516905b8181106107405750908460019594939210610728575b505050811b016007556102f2565b01515f1960f88460031b161c191690555f808061071a565b92936020600181928786015181550195019301610704565b60075f529091507fa66cc928b5edb82af9bd49922954155ab7b0942694bea4ce44661d9a8736c688601f840160051c810191602085106107bc575b90601f859493920160051c01905b8181106107ae57506102c7565b5f81558493506001016107a1565b9091508190610793565b91607f16916102b3565b633a4f9cdb60e21b5f5260045ffd5b63268c072960e01b5f5260045ffd5b637ff57ef160e11b5f5260045ffd5b63b53c493160e01b5f5260045ffd5b63f1634df960e01b5f5260045ffd5b6347bd7c1d60e01b5f5260045260245ffd5b90506020813d60201161085f575b8161084860209383610896565b810103126105c05761085990610922565b5f610180565b3d915061083b565b6347bd7c1d60e01b5f525f60045260245ffd5b61014081019081106001600160401b038211176105c457604052565b601f909101601f19168101906001600160401b038211908210176105c457604052565b51906001600160a01b03821682036105c057565b81601f820112156105c0578051906001600160401b0382116105c45760405192610901601f8401601f191660200185610896565b828452602083830101116105c057815f9260208093018386015e8301015290565b519081151582036105c057565b51906001600160801b03821682036105c057565b608051604051628bec5760e51b815290602090829060049082906001600160a01b03165afa9081156105df575f91610979575090565b90506020813d6020116109a8575b8161099460209383610896565b810103126105c0576109a5906108b9565b90565b3d915061098756fe6080806040526004361015610012575f80fd5b5f905f3560e01c90816301e1d11414611b625750806306fdde0314611b33578063117d8ae014611b0757806313c408f8146119d25780632db6d399146116dc578063303dbaf3146116b95780633194549e1461169b578063372709361461167257806338d52e0f146116495780634fc7fac3146115f55780635b0f83f31461158357806361d027b31461151157806361f5cd8b146114bd57806369b3054b146114535780636bb65f531461140e578063780469bb14610de057806379502c5514610d2d5780637aaceb9514610cbb5780638665120314610c6757806386a06ff014610c225780638a8b997614610bc657806392f5e83214610b5f578063a0c1f15e14610b1a578063ad5a356f14610afc578063bdcdd88214610ade578063c38a6f0b14610870578063c3f909d414610617578063c9c667e3146105d2578063ce5c7f61146102ca578063dbd5edc7146102ac578063ebf311311461023c5763f7e533ec1461017e575f80fd5b34610225578060031936011261022557604051633df94cfb60e21b8152906020826004817f00000000000000000000000000000000000000000000000000000000000000006001600160a01b03165afa9081156102305780916101f0575b6040516001600160a01b0383168152602090f35b90506020823d602011610228575b8161020b60209383611cf8565b81010312610225575061021f602091611f57565b5f6101dc565b80fd5b3d91506101fe565b604051903d90823e3d90fd5b5034610225578060031936011261022557610255612108565b1561029957600180546001600160a01b03191690556040513381527f7cb941d7b1708e5b3bcd35ca960d6c6311188cec18886e5b67630552676b048790602090a180f35b631564c0e160e11b815233600452602490fd5b50346102255780600319360112610225576020600454604051908152f35b5034610225576020366003190112610225576004356001600160401b0381116105ce576102fb903690600401611c23565b9190604051628bec5760e51b8152602081600481305afa9081156105c3578391610585575b506001600160a01b031633036105725761033861219b565b60409283516103478582611cf8565b60018152601f198501803660208401376020848751946103678987611cf8565b600186528336848801378101031261056e5761038d86519461038886611cad565b611c99565b8085526001600160a01b03166103a283612056565b528551906103b08783611cf8565b600182523660208301376103c381612056565b6001600160a01b037f00000000000000000000000000000000000000000000000000000000000000008116909152845187516357b8988360e01b815260606004820152926020928492839291169061041f906064840190611d30565b5f19602484015260448301919091520381887f00000000000000000000000000000000000000000000000000000000000000006001600160a01b03165af190811561056457859161052c575b50610528936104a09161047d85612056565b52516001600160a01b0316610490611f6b565b61049985612056565b5191612221565b6104a98161208b565b6104b2836120ce565b907f3e3e7958121b3e39c7a49392d1aa9cdce870c2a059744f9e15cf66fff78654558680a36104e08161208b565b936104ea836120ce565b95519586957f3e3e7958121b3e39c7a49392d1aa9cdce870c2a059744f9e15cf66fff78654558380a35f5160206122af5f395f51905f525d83611d6c565b0390f35b90506020813d60201161055c575b8161054760209383611cf8565b81010312610558575161052861046b565b5f80fd5b3d915061053a565b86513d87823e3d90fd5b8480fd5b631184b31b60e21b825233600452602482fd5b90506020813d6020116105bb575b816105a060209383611cf8565b810103126105b7576105b190611f57565b5f610320565b8280fd5b3d9150610593565b6040513d85823e3d90fd5b5080fd5b50346102255780600319360112610225576040517f00000000000000000000000000000000000000000000000000000000000000006001600160a01b03168152602090f35b50346102255780600319360112610225578061012060405161063881611cdc565b8281528260208201528260408201528260608201528260808201528260a0820152606060c0820152606060e082015282610100820152015260405161067c81611cdc565b60018060a01b0360015416815260018060a01b0360025416916020820192835260018060a01b0360035416604083019081526004549160608401928352600554906080850191825260065460a086019081526040519180600754908160011c91600181168015610866575b6020841081146108525783875290811561082b57506001146107d2575b5050916107a99161071b826107bd96950383611cf8565b60c0880191825261072a611e9c565b60e089810191825260095460ff1615156101008b01908152600a546101208c019081526040805160208082529d516001600160a01b039081169e82019e909e529d518d16908e01529851909a1660608c0152975160808b0152935160a08a01525160c08901525161014095880195909552869594610160870190611bff565b9051858203601f1901610100870152611bff565b91511515610120840152516101408301520390f35b6007815291507fa66cc928b5edb82af9bd49922954155ab7b0942694bea4ce44661d9a8736c6885b81831061081157505082016020018161071b610704565b6001816020929493945483858901015201910191906107fa565b60ff191660208088019190915292151560051b8601909201925083915061071b9050610704565b634e487b7160e01b83526022600452602483fd5b92607f16926106e7565b50346102255760803660031901126102255760043561088d611c83565b906044356001600160401b038111610ada576108ad903690600401611c23565b90926064356001600160401b038111610ad6576108ce903690600401611c23565b906108d7612108565b15610ac357869392916108e9916121d0565b600354604051631a4ca37b60e21b81526001600160a01b03918216600482015260248101869052306044820152906020908290606490829088907f0000000000000000000000000000000000000000000000000000000000000000165af18015610a8957610a94575b5060035460405163095ea7b360e01b81529060209082906001600160a01b03168187816109838b8960048401611ff1565b03925af18015610a8957610a5c575b506001600160a01b031693843b156105b75781606484926040519485938492632db6d39960e01b845289600485015260406024850152816044850152848401378181018301859052601f01601f1916810103018183885af18015610a5157610a3c575b505060035460405130927f9f784fc02a186f1c98b2d9f15fda084da27cdd291a3785d978f91911d880516b928291610a36916001600160a01b031683611ff1565b0390a380f35b81610a4691611cf8565b6105b757825f6109f5565b6040513d84823e3d90fd5b610a7d9060203d602011610a82575b610a758183611cf8565b81019061200c565b610992565b503d610a6b565b6040513d86823e3d90fd5b610ab59060203d602011610abc575b610aad8183611cf8565b810190611f48565b505f610952565b503d610aa3565b631564c0e160e11b875233600452602487fd5b8580fd5b8380fd5b50346102255780600319360112610225576020600a54604051908152f35b50346102255780600319360112610225576020600654604051908152f35b50346102255780600319360112610225576040517f00000000000000000000000000000000000000000000000000000000000000006001600160a01b03168152602090f35b503461022557602036600319011261022557600435610b7c612108565b15610bb3576020817fb6ac66853c4e59c71e118d25ab494bb847c4e5eb0c8894898c5343e6f61afc1292600655604051908152a180f35b631564c0e160e11b825233600452602482fd5b5034610225578060031936011261022557610bdf612108565b15610299573360018060a01b031960015416176001557f55489ce0259bd691120d8860861be1c401c7c16a3cd268d21045756af4ecc5ca6020604051338152a180f35b50346102255780600319360112610225576040517f00000000000000000000000000000000000000000000000000000000000000006001600160a01b03168152602090f35b503461022557602036600319011261022557600435610c84612108565b15610bb3576020817f333b26cca69716ad4680ddb07663f5bfb4f06045671f336af9a83690a3ae00f992600455604051908152a180f35b5034610225578060031936011261022557604051637aaceb9560e01b8152906020826004817f00000000000000000000000000000000000000000000000000000000000000006001600160a01b03165afa9081156102305780916101f0576040516001600160a01b0383168152602090f35b50346102255780600319360112610225576001546002546003546004546005546006546001600160a01b0394851695851694929390921691610dcd9190610dbf90610d76611dba565b90610d7f611e9c565b9360ff6009541697600a54976040519b8c9b8c5260208c015260408b015260608a0152608089015260a088015261014060c0880152610140870190611bff565b9085820360e0870152611bff565b9115156101008401526101208301520390f35b5034610225576020366003190112610225576004356001600160401b0381116105ce57366023820112156105ce57806004013590610e1d82611d19565b91610e2b6040519384611cf8565b8083526024602084019160051b8301019136831161056e57602401905b8282106113f6575050604051628bec5760e51b81529050602081600481305afa9081156105c35783916113bc575b506001600160a01b0316330361057257610e8e61219b565b610e988151612024565b90610ea38151612024565b6003546040516370a0823160e01b815230600482015291939185916001600160a01b031690602081602481855afa9081156105c3578391611387575b506110af575b505b82518110156110565760249060206001600160a01b03610f078387612077565b5116604051938480926370a0823160e01b82523060048301525afa91821561104b578692611018575b5081610f41575b6001915001610ee7565b6001600160a01b03610f538286612077565b5116916024610f60611f6b565b9360206001600160a01b03610f75868a612077565b5116604051938480926370a0823160e01b82523060048301525afa91821561100d578992610fd9575b5090600194610fac92612221565b828060a01b03610fbc8387612077565b5116610fc88386612077565b52610fd38287612077565b52610f37565b91506020823d8211611005575b81610ff360209383611cf8565b81010312610558579051906001610f9e565b3d9150610fe6565b6040513d8b823e3d90fd5b9091506020813d8211611043575b8161103360209383611cf8565b810103126105585751905f610f30565b3d9150611026565b6040513d88823e3d90fd5b8482610528866110658361208b565b9261106f826120ce565b946040519586957f46b8771620f6acf56cb03d3e835ea8024c7dcbcf05fcc3f6ade9e19d1a3e212b8380a35f5160206122af5f395f51905f525d83611d6c565b6001546040516330fe427560e21b81529060a090829060049082906001600160a01b03165afa9081156105c35783916112da575b50516040516370a0823160e01b81523060048201526001600160a01b039091169190602081602481855afa908115610a895784916112a5575b5060208460405192611151846111438582019363095ea7b360e01b85528960248401611ff1565b03601f198101865285611cf8565b83519082865af184513d82611289575b505015611245575b50506003546040516370a0823160e01b815230600482015290602090829060249082906001600160a01b03165afa9081156105c3578391611210575b506040516111b281611cad565b838152823b15610ada576111ec92849283604051809681958294632db6d39960e01b84526004840152604060248401526044830190611bff565b03925af18015610a515715610ee5578161120591611cf8565b610ada57835f610ee5565b9250506020823d60201161123d575b8161122c60209383611cf8565b81010312610558578591515f6111a5565b3d915061121f565b6112829161127d60405163095ea7b360e01b602082015285602482015286604482015260448152611277606482611cf8565b82612256565b612256565b5f80611169565b90915061129d5750813b15155b5f80611161565b600114611296565b9350506020833d6020116112d2575b816112c160209383611cf8565b81010312610558578692515f61111c565b3d91506112b4565b9192505060a0813d60a01161137f575b816112f760a09383611cf8565b81010312610ad6576040519060a082018281106001600160401b0382111761136b57604052805187939291906001600160a01b038116810361056e5761136091608091845260208101516020850152604081015160408501526060810151606085015201611f57565b60808201525f6110e3565b634e487b7160e01b88526041600452602488fd5b3d91506112ea565b9250506020823d6020116113b4575b816113a360209383611cf8565b81010312610558578591515f610edf565b3d9150611396565b90506020813d6020116113ee575b816113d760209383611cf8565b810103126105b7576113e890611f57565b5f610e76565b3d91506113ca565b6020809161140384611c99565b815201910190610e48565b50346102255780600319360112610225576040517f00000000000000000000000000000000000000000000000000000000000000006001600160a01b03168152602090f35b50346102255760403660031901126102255760043560038110156105ce5760209161147c611c83565b9050604051908382019260f81b83526bffffffffffffffffffffffff199060601b166021820152601581526114b2603582611cf8565b519020604051908152f35b5034610225576020366003190112610225576004356114da612108565b15610bb3576020817ffbe2d5c01ea8ba5596d6c4e6c82c6d4a0a0ee1128689993a4a5ba0169273d69f92600555604051908152a180f35b50346102255780600319360112610225576040516361d027b360e01b8152906020826004817f00000000000000000000000000000000000000000000000000000000000000006001600160a01b03165afa9081156102305780916101f0576040516001600160a01b0383168152602090f35b5034610225578060031936011261022557604051635b0f83f360e01b8152906020826004817f00000000000000000000000000000000000000000000000000000000000000006001600160a01b03165afa9081156102305780916101f0576040516001600160a01b0383168152602090f35b503461022557602036600319011261022557600435611612612108565b15610bb3576020817fd3c6d0ab315f2f1352f036cd9f401b49e38e1b90907e195225e8105f9a0b6f0292600a55604051908152a180f35b50346102255780600319360112610225576003546040516001600160a01b039091168152602090f35b50346102255780600319360112610225576001546040516001600160a01b039091168152602090f35b50346102255780600319360112610225576020600554604051908152f35b5034610225578060031936011261022557602060ff600954166040519015158152f35b5034610558576116eb36611c50565b6116f361219b565b604051631b93849b60e11b8152602081600481305afa90811561188e575f91611998575b50611720612108565b156118b6575b50611730916121d0565b6003546040516323b872dd60e01b602082015233602482015230604482015260648082018490528152611771916001600160a01b031661127d608483611cf8565b60035460405163095ea7b360e01b81526001600160a01b037f0000000000000000000000000000000000000000000000000000000000000000811692602091839116815f816117c4898960048401611ff1565b03925af1801561188e57611899575b506003546001600160a01b0316813b15610558575f9160848392604051948593849263617ba03760e01b845260048401528760248401523060448401528160648401525af1801561188e57611879575b5060035460405133927fcbaa1442ac205415c9d69643e7b60ec73d1de35dbc807c21ec288c70ddc4207b928291611863916001600160a01b031683611ff1565b0390a2805f5160206122af5f395f51905f525d80f35b6118869192505f90611cf8565b5f905f611823565b6040513d5f823e3d90fd5b6118b19060203d602011610a8257610a758183611cf8565b6117d3565b604051628bec5760e51b8152602081600481305afa90811561188e575f9161195e575b506001600160a01b031633146117265760405163d25dd10160e01b815233600482015290602090829060249082906001600160a01b03165afa90811561188e575f9161193f575b501561192c575f611726565b638f7a567d60e01b5f523360045260245ffd5b611958915060203d602011610a8257610a758183611cf8565b5f611920565b90506020813d602011611990575b8161197960209383611cf8565b810103126105585761198a90611f57565b5f6118d9565b3d915061196c565b90506020813d6020116119ca575b816119b360209383611cf8565b81010312610558576119c490611f57565b5f611717565b3d91506119a6565b34610558576119e036611c50565b6119e8612108565b15611af4576119fe916119f961219b565b6121d0565b600354604051631a4ca37b60e21b81526001600160a01b0391821660048201526024810183905230604482015290602090829060649082905f907f0000000000000000000000000000000000000000000000000000000000000000165af1801561188e57611ad5575b50600354611a8190829033906001600160a01b0316612221565b60035460405133927fd5e872c5ecfb1bb8820b2e6a20e31b883682282da886621541f71e31ec11947e928291611ac0916001600160a01b031683611ff1565b0390a25f5f5160206122af5f395f51905f525d005b611aed9060203d602011610abc57610aad8183611cf8565b5081611a67565b631564c0e160e11b5f523360045260245ffd5b34610558575f366003190112610558576020611b21611f6b565b6040516001600160a01b039091168152f35b34610558575f36600319011261055857610528611b4e611dba565b604051918291602083526020830190611bff565b34610558575f366003190112610558576370a0823160e01b81523060048201526020816024817f00000000000000000000000000000000000000000000000000000000000000006001600160a01b03165afa801561188e575f90611bcc575b602090604051908152f35b506020813d602011611bf7575b81611be660209383611cf8565b810103126105585760209051611bc1565b3d9150611bd9565b805180835260209291819084018484015e5f828201840152601f01601f1916010190565b9181601f84011215610558578235916001600160401b038311610558576020838186019501011161055857565b9060406003198301126105585760043591602435906001600160401b03821161055857611c7f91600401611c23565b9091565b602435906001600160a01b038216820361055857565b35906001600160a01b038216820361055857565b602081019081106001600160401b03821117611cc857604052565b634e487b7160e01b5f52604160045260245ffd5b61014081019081106001600160401b03821117611cc857604052565b90601f801991011681019081106001600160401b03821117611cc857604052565b6001600160401b038111611cc85760051b60200190565b90602080835192838152019201905f5b818110611d4d5750505090565b82516001600160a01b0316845260209384019390920191600101611d40565b90611d7f90604083526040830190611d30565b906020818303910152602080835192838152019201905f5b818110611da45750505090565b8251845260209384019390920191600101611d97565b604051905f6007548060011c9160018216918215611e92575b602084108314611e7e578386528592908115611e5f5750600114611e00575b611dfe92500383611cf8565b565b5060075f90815290917fa66cc928b5edb82af9bd49922954155ab7b0942694bea4ce44661d9a8736c6885b818310611e43575050906020611dfe92820101611df2565b6020919350806001915483858901015201910190918492611e2b565b60209250611dfe94915060ff191682840152151560051b820101611df2565b634e487b7160e01b5f52602260045260245ffd5b92607f1692611dd3565b604051905f6008548060011c9160018216918215611f3e575b602084108314611e7e578386528592908115611e5f5750600114611edf57611dfe92500383611cf8565b5060085f90815290917ff3f7a9fe364faab93b216da50a3214154f22a0a2b415b23a84c8169e8b636ee35b818310611f22575050906020611dfe92820101611df2565b6020919350806001915483858901015201910190918492611f0a565b92607f1692611eb5565b90816020910312610558575190565b51906001600160a01b038216820361055857565b604051628bec5760e51b81526020816004817f00000000000000000000000000000000000000000000000000000000000000006001600160a01b03165afa90811561188e575f91611fba575090565b90506020813d602011611fe9575b81611fd560209383611cf8565b8101031261055857611fe690611f57565b90565b3d9150611fc8565b6001600160a01b039091168152602081019190915260400190565b90816020910312610558575180151581036105585790565b9061202e82611d19565b61203b6040519182611cf8565b828152809261204c601f1991611d19565b0190602036910137565b8051156120635760200190565b634e487b7160e01b5f52603260045260245ffd5b80518210156120635760209160051b010190565b6040518091829160208251919201905f5b8181106120ac5750505003902090565b82516001600160a01b031684528594506020938401939092019160010161209c565b6040518091829160208251919201905f5b8181106120ef5750505003902090565b82518452859450602093840193909201916001016120df565b5f54604051600160f91b60208083019182526bffffffffffffffffffffffff193060601b166021840152601583526001600160a01b03909316929161214e603582611cf8565b519020604460405180948193632474521560e21b835260048301523360248301525afa90811561188e575f91612182575090565b611fe6915060203d602011610a8257610a758183611cf8565b5f5160206122af5f395f51905f525c6121c15760015f5160206122af5f395f51905f525d565b633ee5aeb560e01b5f5260045ffd5b5015801580612214575b61220557806121f9575b6121ea57565b63332863a960e11b5f5260045ffd5b5060ff600954166121e4565b630cd0fdf960e01b5f5260045ffd5b5060ff60095416156121da565b61127d611dfe939261224860405194859263a9059cbb60e01b602085015260248401611ff1565b03601f198101845283611cf8565b905f602091828151910182855af11561188e575f513d6122a557506001600160a01b0381163b155b6122855750565b635274afe760e01b5f9081526001600160a01b0391909116600452602490fd5b6001141561227e56fe9b779b17422d0df92223018b32b4d1fa46e071723d6817e2486d003becc55f00a2646970667358221220520b27181342c5f8cf9cbee8c73947d5174e2fe6ef9f41427fb74e6d19f91dd864736f6c634300081c0033",
  "linkReferences": {},
  "deployedLinkReferences": {}
}