{
  "_format": "hh-sol-artifact-1",
  "contractName": "AaveV3Ark",
  "sourceName": "src/contracts/arks/AaveV3Ark.sol",
  "abi": [
    {
      "inputs": [
        {
          "internalType": "address",
          "name": "_aaveV3Pool",
          "type": "address"
        },
        {
          "internalType": "address",
          "name": "_rewardsController",
          "type": "address"
        },
        {
          "components": [
            {
              "internalType": "string",
              "name": "name",
              "type": "string"
            },
            {
              "internalType": "string",
              "name": "details",
              "type": "string"
            },
            {
              "internalType": "address",
              "name": "accessManager",
              "type": "address"
            },
            {
              "internalType": "address",
              "name": "configurationManager",
              "type": "address"
            },
            {
              "internalType": "address",
              "name": "asset",
              "type": "address"
            },
            {
              "internalType": "uint256",
              "name": "depositCap",
              "type": "uint256"
            },
            {
              "internalType": "uint256",
              "name": "maxRebalanceOutflow",
              "type": "uint256"
            },
            {
              "internalType": "uint256",
              "name": "maxRebalanceInflow",
              "type": "uint256"
            },
            {
              "internalType": "bool",
              "name": "requiresKeeperData",
              "type": "bool"
            },
            {
              "internalType": "Percentage",
              "name": "maxDepositPercentageOfTVL",
              "type": "uint256"
            }
          ],
          "internalType": "struct ArkParams",
          "name": "_params",
          "type": "tuple"
        }
      ],
      "stateMutability": "nonpayable",
      "type": "constructor"
    },
    {
      "inputs": [
        {
          "internalType": "address",
          "name": "caller",
          "type": "address"
        }
      ],
      "name": "CallerIsNotAdmin",
      "type": "error"
    },
    {
      "inputs": [
        {
          "internalType": "address",
          "name": "caller",
          "type": "address"
        }
      ],
      "name": "CallerIsNotAuthorizedToBoard",
      "type": "error"
    },
    {
      "inputs": [
        {
          "internalType": "address",
          "name": "caller",
          "type": "address"
        }
      ],
      "name": "CallerIsNotCommander",
      "type": "error"
    },
    {
      "inputs": [
        {
          "internalType": "address",
          "name": "caller",
          "type": "address"
        },
        {
          "internalType": "bytes32",
          "name": "role",
          "type": "bytes32"
        }
      ],
      "name": "CallerIsNotContractSpecificRole",
      "type": "error"
    },
    {
      "inputs": [
        {
          "internalType": "address",
          "name": "caller",
          "type": "address"
        }
      ],
      "name": "CallerIsNotCurator",
      "type": "error"
    },
    {
      "inputs": [
        {
          "internalType": "address",
          "name": "caller",
          "type": "address"
        }
      ],
      "name": "CallerIsNotDecayController",
      "type": "error"
    },
    {
      "inputs": [
        {
          "internalType": "address",
          "name": "caller",
          "type": "address"
        }
      ],
      "name": "CallerIsNotGovernor",
      "type": "error"
    },
    {
      "inputs": [
        {
          "internalType": "address",
          "name": "caller",
          "type": "address"
        }
      ],
      "name": "CallerIsNotGuardian",
      "type": "error"
    },
    {
      "inputs": [
        {
          "internalType": "address",
          "name": "caller",
          "type": "address"
        }
      ],
      "name": "CallerIsNotGuardianOrGovernor",
      "type": "error"
    },
    {
      "inputs": [
        {
          "internalType": "address",
          "name": "caller",
          "type": "address"
        }
      ],
      "name": "CallerIsNotKeeper",
      "type": "error"
    },
    {
      "inputs": [
        {
          "internalType": "address",
          "name": "caller",
          "type": "address"
        }
      ],
      "name": "CallerIsNotRaft",
      "type": "error"
    },
    {
      "inputs": [
        {
          "internalType": "address",
          "name": "caller",
          "type": "address"
        }
      ],
      "name": "CallerIsNotRaftOrCommander",
      "type": "error"
    },
    {
      "inputs": [
        {
          "internalType": "address",
          "name": "caller",
          "type": "address"
        }
      ],
      "name": "CallerIsNotSuperKeeper",
      "type": "error"
    },
    {
      "inputs": [],
      "name": "CannotAddCommanderToArkWithCommander",
      "type": "error"
    },
    {
      "inputs": [],
      "name": "CannotDeployArkWithEmptyName",
      "type": "error"
    },
    {
      "inputs": [],
      "name": "CannotDeployArkWithoutConfigurationManager",
      "type": "error"
    },
    {
      "inputs": [],
      "name": "CannotDeployArkWithoutRaft",
      "type": "error"
    },
    {
      "inputs": [],
      "name": "CannotDeployArkWithoutToken",
      "type": "error"
    },
    {
      "inputs": [],
      "name": "CannotRemoveCommanderFromArkWithAssets",
      "type": "error"
    },
    {
      "inputs": [],
      "name": "CannotUseKeeperDataWhenNotRequired",
      "type": "error"
    },
    {
      "inputs": [],
      "name": "ConfigurationManagerZeroAddress",
      "type": "error"
    },
    {
      "inputs": [
        {
          "internalType": "address",
          "name": "caller",
          "type": "address"
        }
      ],
      "name": "DirectGrantIsDisabled",
      "type": "error"
    },
    {
      "inputs": [
        {
          "internalType": "address",
          "name": "caller",
          "type": "address"
        }
      ],
      "name": "DirectRevokeIsDisabled",
      "type": "error"
    },
    {
      "inputs": [],
      "name": "ERC4626AssetMismatch",
      "type": "error"
    },
    {
      "inputs": [
        {
          "internalType": "address",
          "name": "invalidAddress",
          "type": "address"
        }
      ],
      "name": "InvalidAccessManagerAddress",
      "type": "error"
    },
    {
      "inputs": [],
      "name": "InvalidBoardData",
      "type": "error"
    },
    {
      "inputs": [],
      "name": "InvalidDisembarkData",
      "type": "error"
    },
    {
      "inputs": [],
      "name": "InvalidVaultAddress",
      "type": "error"
    },
    {
      "inputs": [],
      "name": "KeeperDataRequired",
      "type": "error"
    },
    {
      "inputs": [],
      "name": "ReentrancyGuardReentrantCall",
      "type": "error"
    },
    {
      "inputs": [
        {
          "internalType": "address",
          "name": "token",
          "type": "address"
        }
      ],
      "name": "SafeERC20FailedOperation",
      "type": "error"
    },
    {
      "anonymous": false,
      "inputs": [
        {
          "indexed": true,
          "internalType": "address[]",
          "name": "rewardTokens",
          "type": "address[]"
        },
        {
          "indexed": true,
          "internalType": "uint256[]",
          "name": "rewardAmounts",
          "type": "uint256[]"
        }
      ],
      "name": "ArkHarvested",
      "type": "event"
    },
    {
      "anonymous": false,
      "inputs": [
        {
          "indexed": false,
          "internalType": "uint256",
          "name": "currentPrice",
          "type": "uint256"
        },
        {
          "indexed": false,
          "internalType": "uint256",
          "name": "timestamp",
          "type": "uint256"
        }
      ],
      "name": "ArkPoked",
      "type": "event"
    },
    {
      "anonymous": false,
      "inputs": [
        {
          "indexed": true,
          "internalType": "address[]",
          "name": "sweptTokens",
          "type": "address[]"
        },
        {
          "indexed": true,
          "internalType": "uint256[]",
          "name": "sweptAmounts",
          "type": "uint256[]"
        }
      ],
      "name": "ArkSwept",
      "type": "event"
    },
    {
      "anonymous": false,
      "inputs": [
        {
          "indexed": true,
          "internalType": "address",
          "name": "commander",
          "type": "address"
        },
        {
          "indexed": false,
          "internalType": "address",
          "name": "token",
          "type": "address"
        },
        {
          "indexed": false,
          "internalType": "uint256",
          "name": "amount",
          "type": "uint256"
        }
      ],
      "name": "Boarded",
      "type": "event"
    },
    {
      "anonymous": false,
      "inputs": [
        {
          "indexed": false,
          "internalType": "uint256",
          "name": "newCap",
          "type": "uint256"
        }
      ],
      "name": "DepositCapUpdated",
      "type": "event"
    },
    {
      "anonymous": false,
      "inputs": [
        {
          "indexed": true,
          "internalType": "address",
          "name": "commander",
          "type": "address"
        },
        {
          "indexed": false,
          "internalType": "address",
          "name": "token",
          "type": "address"
        },
        {
          "indexed": false,
          "internalType": "uint256",
          "name": "amount",
          "type": "uint256"
        }
      ],
      "name": "Disembarked",
      "type": "event"
    },
    {
      "anonymous": false,
      "inputs": [
        {
          "indexed": false,
          "internalType": "address",
          "name": "commander",
          "type": "address"
        }
      ],
      "name": "FleetCommanderRegistered",
      "type": "event"
    },
    {
      "anonymous": false,
      "inputs": [
        {
          "indexed": false,
          "internalType": "address",
          "name": "commander",
          "type": "address"
        }
      ],
      "name": "FleetCommanderUnregistered",
      "type": "event"
    },
    {
      "anonymous": false,
      "inputs": [
        {
          "indexed": false,
          "internalType": "Percentage",
          "name": "newMaxDepositPercentageOfTVL",
          "type": "uint256"
        }
      ],
      "name": "MaxDepositPercentageOfTVLUpdated",
      "type": "event"
    },
    {
      "anonymous": false,
      "inputs": [
        {
          "indexed": false,
          "internalType": "uint256",
          "name": "newMaxInflow",
          "type": "uint256"
        }
      ],
      "name": "MaxRebalanceInflowUpdated",
      "type": "event"
    },
    {
      "anonymous": false,
      "inputs": [
        {
          "indexed": false,
          "internalType": "uint256",
          "name": "newMaxOutflow",
          "type": "uint256"
        }
      ],
      "name": "MaxRebalanceOutflowUpdated",
      "type": "event"
    },
    {
      "anonymous": false,
      "inputs": [
        {
          "indexed": true,
          "internalType": "address",
          "name": "from",
          "type": "address"
        },
        {
          "indexed": true,
          "internalType": "address",
          "name": "to",
          "type": "address"
        },
        {
          "indexed": false,
          "internalType": "address",
          "name": "token",
          "type": "address"
        },
        {
          "indexed": false,
          "internalType": "uint256",
          "name": "amount",
          "type": "uint256"
        }
      ],
      "name": "Moved",
      "type": "event"
    },
    {
      "anonymous": false,
      "inputs": [
        {
          "indexed": false,
          "internalType": "address",
          "name": "newRaft",
          "type": "address"
        }
      ],
      "name": "RaftUpdated",
      "type": "event"
    },
    {
      "inputs": [],
      "name": "aToken",
      "outputs": [
        {
          "internalType": "address",
          "name": "",
          "type": "address"
        }
      ],
      "stateMutability": "view",
      "type": "function"
    },
    {
      "inputs": [],
      "name": "aaveV3Pool",
      "outputs": [
        {
          "internalType": "contract IPoolV3",
          "name": "",
          "type": "address"
        }
      ],
      "stateMutability": "view",
      "type": "function"
    },
    {
      "inputs": [],
      "name": "asset",
      "outputs": [
        {
          "internalType": "contract IERC20",
          "name": "",
          "type": "address"
        }
      ],
      "stateMutability": "view",
      "type": "function"
    },
    {
      "inputs": [
        {
          "internalType": "uint256",
          "name": "amount",
          "type": "uint256"
        },
        {
          "internalType": "bytes",
          "name": "boardData",
          "type": "bytes"
        }
      ],
      "name": "board",
      "outputs": [],
      "stateMutability": "nonpayable",
      "type": "function"
    },
    {
      "inputs": [],
      "name": "commander",
      "outputs": [
        {
          "internalType": "address",
          "name": "",
          "type": "address"
        }
      ],
      "stateMutability": "view",
      "type": "function"
    },
    {
      "inputs": [],
      "name": "config",
      "outputs": [
        {
          "internalType": "address",
          "name": "commander",
          "type": "address"
        },
        {
          "internalType": "address",
          "name": "raft",
          "type": "address"
        },
        {
          "internalType": "contract IERC20",
          "name": "asset",
          "type": "address"
        },
        {
          "internalType": "uint256",
          "name": "depositCap",
          "type": "uint256"
        },
        {
          "internalType": "uint256",
          "name": "maxRebalanceOutflow",
          "type": "uint256"
        },
        {
          "internalType": "uint256",
          "name": "maxRebalanceInflow",
          "type": "uint256"
        },
        {
          "internalType": "string",
          "name": "name",
          "type": "string"
        },
        {
          "internalType": "string",
          "name": "details",
          "type": "string"
        },
        {
          "internalType": "bool",
          "name": "requiresKeeperData",
          "type": "bool"
        },
        {
          "internalType": "Percentage",
          "name": "maxDepositPercentageOfTVL",
          "type": "uint256"
        }
      ],
      "stateMutability": "view",
      "type": "function"
    },
    {
      "inputs": [],
      "name": "configurationManager",
      "outputs": [
        {
          "internalType": "contract IConfigurationManager",
          "name": "",
          "type": "address"
        }
      ],
      "stateMutability": "view",
      "type": "function"
    },
    {
      "inputs": [],
      "name": "depositCap",
      "outputs": [
        {
          "internalType": "uint256",
          "name": "",
          "type": "uint256"
        }
      ],
      "stateMutability": "view",
      "type": "function"
    },
    {
      "inputs": [
        {
          "internalType": "uint256",
          "name": "amount",
          "type": "uint256"
        },
        {
          "internalType": "bytes",
          "name": "disembarkData",
          "type": "bytes"
        }
      ],
      "name": "disembark",
      "outputs": [],
      "stateMutability": "nonpayable",
      "type": "function"
    },
    {
      "inputs": [],
      "name": "fleetCommanderRewardsManagerFactory",
      "outputs": [
        {
          "internalType": "address",
          "name": "",
          "type": "address"
        }
      ],
      "stateMutability": "view",
      "type": "function"
    },
    {
      "inputs": [
        {
          "internalType": "enum ContractSpecificRoles",
          "name": "roleName",
          "type": "uint8"
        },
        {
          "internalType": "address",
          "name": "roleTargetContract",
          "type": "address"
        }
      ],
      "name": "generateRole",
      "outputs": [
        {
          "internalType": "bytes32",
          "name": "",
          "type": "bytes32"
        }
      ],
      "stateMutability": "pure",
      "type": "function"
    },
    {
      "inputs": [],
      "name": "getConfig",
      "outputs": [
        {
          "components": [
            {
              "internalType": "address",
              "name": "commander",
              "type": "address"
            },
            {
              "internalType": "address",
              "name": "raft",
              "type": "address"
            },
            {
              "internalType": "contract IERC20",
              "name": "asset",
              "type": "address"
            },
            {
              "internalType": "uint256",
              "name": "depositCap",
              "type": "uint256"
            },
            {
              "internalType": "uint256",
              "name": "maxRebalanceOutflow",
              "type": "uint256"
            },
            {
              "internalType": "uint256",
              "name": "maxRebalanceInflow",
              "type": "uint256"
            },
            {
              "internalType": "string",
              "name": "name",
              "type": "string"
            },
            {
              "internalType": "string",
              "name": "details",
              "type": "string"
            },
            {
              "internalType": "bool",
              "name": "requiresKeeperData",
              "type": "bool"
            },
            {
              "internalType": "Percentage",
              "name": "maxDepositPercentageOfTVL",
              "type": "uint256"
            }
          ],
          "internalType": "struct ArkConfig",
          "name": "",
          "type": "tuple"
        }
      ],
      "stateMutability": "view",
      "type": "function"
    },
    {
      "inputs": [],
      "name": "harborCommand",
      "outputs": [
        {
          "internalType": "address",
          "name": "",
          "type": "address"
        }
      ],
      "stateMutability": "view",
      "type": "function"
    },
    {
      "inputs": [
        {
          "internalType": "bytes",
          "name": "additionalData",
          "type": "bytes"
        }
      ],
      "name": "harvest",
      "outputs": [
        {
          "internalType": "address[]",
          "name": "rewardTokens",
          "type": "address[]"
        },
        {
          "internalType": "uint256[]",
          "name": "rewardAmounts",
          "type": "uint256[]"
        }
      ],
      "stateMutability": "nonpayable",
      "type": "function"
    },
    {
      "inputs": [
        {
          "internalType": "address",
          "name": "account",
          "type": "address"
        }
      ],
      "name": "hasAdmiralsQuartersRole",
      "outputs": [
        {
          "internalType": "bool",
          "name": "",
          "type": "bool"
        }
      ],
      "stateMutability": "view",
      "type": "function"
    },
    {
      "inputs": [],
      "name": "maxDepositPercentageOfTVL",
      "outputs": [
        {
          "internalType": "Percentage",
          "name": "",
          "type": "uint256"
        }
      ],
      "stateMutability": "view",
      "type": "function"
    },
    {
      "inputs": [],
      "name": "maxRebalanceInflow",
      "outputs": [
        {
          "internalType": "uint256",
          "name": "",
          "type": "uint256"
        }
      ],
      "stateMutability": "view",
      "type": "function"
    },
    {
      "inputs": [],
      "name": "maxRebalanceOutflow",
      "outputs": [
        {
          "internalType": "uint256",
          "name": "",
          "type": "uint256"
        }
      ],
      "stateMutability": "view",
      "type": "function"
    },
    {
      "inputs": [
        {
          "internalType": "uint256",
          "name": "amount",
          "type": "uint256"
        },
        {
          "internalType": "address",
          "name": "receiverArk",
          "type": "address"
        },
        {
          "internalType": "bytes",
          "name": "boardData",
          "type": "bytes"
        },
        {
          "internalType": "bytes",
          "name": "disembarkData",
          "type": "bytes"
        }
      ],
      "name": "move",
      "outputs": [],
      "stateMutability": "nonpayable",
      "type": "function"
    },
    {
      "inputs": [],
      "name": "name",
      "outputs": [
        {
          "internalType": "string",
          "name": "",
          "type": "string"
        }
      ],
      "stateMutability": "view",
      "type": "function"
    },
    {
      "inputs": [],
      "name": "raft",
      "outputs": [
        {
          "internalType": "address",
          "name": "",
          "type": "address"
        }
      ],
      "stateMutability": "view",
      "type": "function"
    },
    {
      "inputs": [],
      "name": "registerFleetCommander",
      "outputs": [],
      "stateMutability": "nonpayable",
      "type": "function"
    },
    {
      "inputs": [],
      "name": "requiresKeeperData",
      "outputs": [
        {
          "internalType": "bool",
          "name": "",
          "type": "bool"
        }
      ],
      "stateMutability": "view",
      "type": "function"
    },
    {
      "inputs": [],
      "name": "rewardsController",
      "outputs": [
        {
          "internalType": "contract IRewardsController",
          "name": "",
          "type": "address"
        }
      ],
      "stateMutability": "view",
      "type": "function"
    },
    {
      "inputs": [
        {
          "internalType": "uint256",
          "name": "newDepositCap",
          "type": "uint256"
        }
      ],
      "name": "setDepositCap",
      "outputs": [],
      "stateMutability": "nonpayable",
      "type": "function"
    },
    {
      "inputs": [
        {
          "internalType": "Percentage",
          "name": "newMaxDepositPercentageOfTVL",
          "type": "uint256"
        }
      ],
      "name": "setMaxDepositPercentageOfTVL",
      "outputs": [],
      "stateMutability": "nonpayable",
      "type": "function"
    },
    {
      "inputs": [
        {
          "internalType": "uint256",
          "name": "newMaxRebalanceInflow",
          "type": "uint256"
        }
      ],
      "name": "setMaxRebalanceInflow",
      "outputs": [],
      "stateMutability": "nonpayable",
      "type": "function"
    },
    {
      "inputs": [
        {
          "internalType": "uint256",
          "name": "newMaxRebalanceOutflow",
          "type": "uint256"
        }
      ],
      "name": "setMaxRebalanceOutflow",
      "outputs": [],
      "stateMutability": "nonpayable",
      "type": "function"
    },
    {
      "inputs": [
        {
          "internalType": "address[]",
          "name": "tokens",
          "type": "address[]"
        }
      ],
      "name": "sweep",
      "outputs": [
        {
          "internalType": "address[]",
          "name": "sweptTokens",
          "type": "address[]"
        },
        {
          "internalType": "uint256[]",
          "name": "sweptAmounts",
          "type": "uint256[]"
        }
      ],
      "stateMutability": "nonpayable",
      "type": "function"
    },
    {
      "inputs": [],
      "name": "tipJar",
      "outputs": [
        {
          "internalType": "address",
          "name": "",
          "type": "address"
        }
      ],
      "stateMutability": "view",
      "type": "function"
    },
    {
      "inputs": [],
      "name": "totalAssets",
      "outputs": [
        {
          "internalType": "uint256",
          "name": "",
          "type": "uint256"
        }
      ],
      "stateMutability": "view",
      "type": "function"
    },
    {
      "inputs": [],
      "name": "treasury",
      "outputs": [
        {
          "internalType": "address",
          "name": "",
          "type": "address"
        }
      ],
      "stateMutability": "view",
      "type": "function"
    },
    {
      "inputs": [],
      "name": "unregisterFleetCommander",
      "outputs": [],
      "stateMutability": "nonpayable",
      "type": "function"
    }
  ],
  "bytecode": "0x61010080604052346105c057612ce7803803809161001d8285610896565b833981016060828203126105c057610034826108b9565b90610041602084016108b9565b604084015190936001600160401b0382116105c0570190610140828203126105c057604051906100708261087a565b82516001600160401b0381116105c0578161008c9185016108cd565b82526020830151906001600160401b0382116105c0576100ad9184016108cd565b91602082019283526100c1604082016108b9565b928360408401526100d4606083016108b9565b9260608101948486526100e9608085016108b9565b956080830196875260a08501519660a0840197885260c08601519160c0850192835260e08701519360e086019485526101206101286101008a01610922565b61010088019081529801516101208701908152986001600160a01b0390811691168015610867576040516301ffc9a760e01b81526338c7ccdb60e01b6004820152602081602481855afa9081156105df575f9161082d575b501561081b575f80546001600160a01b031916919091179055801561080c57608052516001600160a01b0316156107fd5780516001600160a01b0316156107ee57835151156107df576001600160a01b036101d9610943565b16156107d057516001600160a01b03166101f1610943565b9751915192519351945195511515965197610120604051916102128361087a565b5f83526001600160a01b03166020830181905260408301849052606083018590526080830186905260a0830187905260c0830188905260e083019889526101008301998a529101988952600180546001600160a01b03199081169091556002805482169092179091556003805490911690911790556004556005556006558051906001600160401b0382116105c45760075490600182811c921680156107c6575b60208310146106c95781601f849311610758575b50602090601f83116001146106f2575f926106e7575b50508160011b915f199060031b1c1916176007555b518051906001600160401b0382116105c45760085490600182811c921680156106dd575b60208310146106c95781601f84931161065b575b50602090601f83116001146105f5575f926105ea575b50508160011b915f199060031b1c1916176008555b51151560ff80196009541691161760095551600a5560018060a01b03168060c0526101e060018060a01b03600354166024604051809481936335ea6a7560e01b835260048301525afa9081156105df575f91610444575b5061010001516001600160a01b0390811660a0521660e05260405161233690816109b182396080518181816101af0152818161071a01528181610d0b0152818161155b015281816115cd0152611fa2015260a05181818161050301528181610b590152611bad015260c05181818161097801528181610c61015281816117ae0152611a5d015260e051818181610569015261144d0152f35b8091506101e03d81116105d8575b61045c8183610896565b810103906101e082126105c057604051916101e08301906001600160401b038211848310176105c457602091604052126105c057604051602081016001600160401b038111828210176105c4576040528151815282526104be6020820161092f565b60208301526104cf6040820161092f565b60408301526104e06060820161092f565b60608301526104f16080820161092f565b608083015261050260a0820161092f565b60a083015260c081015164ffffffffff811681036105c05760c083015260e081015161ffff811681036105c0576105b4916101c09160e085015261054961010082016108b9565b61010085015261055c61012082016108b9565b61012085015261056f61014082016108b9565b61014085015261058261016082016108b9565b610160850152610595610180820161092f565b6101808501526105a86101a0820161092f565b6101a08501520161092f565b6101c08201525f6103ac565b5f80fd5b634e487b7160e01b5f52604160045260245ffd5b503d610452565b6040513d5f823e3d90fd5b015190505f80610340565b60085f9081528281209350601f198516905b818110610643575090846001959493921061062b575b505050811b01600855610355565b01515f1960f88460031b161c191690555f808061061d565b92936020600181928786015181550195019301610607565b60085f529091507ff3f7a9fe364faab93b216da50a3214154f22a0a2b415b23a84c8169e8b636ee3601f840160051c810191602085106106bf575b90601f859493920160051c01905b8181106106b1575061032a565b5f81558493506001016106a4565b9091508190610696565b634e487b7160e01b5f52602260045260245ffd5b91607f1691610316565b015190505f806102dd565b60075f9081528281209350601f198516905b8181106107405750908460019594939210610728575b505050811b016007556102f2565b01515f1960f88460031b161c191690555f808061071a565b92936020600181928786015181550195019301610704565b60075f529091507fa66cc928b5edb82af9bd49922954155ab7b0942694bea4ce44661d9a8736c688601f840160051c810191602085106107bc575b90601f859493920160051c01905b8181106107ae57506102c7565b5f81558493506001016107a1565b9091508190610793565b91607f16916102b3565b633a4f9cdb60e21b5f5260045ffd5b63268c072960e01b5f5260045ffd5b637ff57ef160e11b5f5260045ffd5b63b53c493160e01b5f5260045ffd5b63f1634df960e01b5f5260045ffd5b6347bd7c1d60e01b5f5260045260245ffd5b90506020813d60201161085f575b8161084860209383610896565b810103126105c05761085990610922565b5f610180565b3d915061083b565b6347bd7c1d60e01b5f525f60045260245ffd5b61014081019081106001600160401b038211176105c457604052565b601f909101601f19168101906001600160401b038211908210176105c457604052565b51906001600160a01b03821682036105c057565b81601f820112156105c0578051906001600160401b0382116105c45760405192610901601f8401601f191660200185610896565b828452602083830101116105c057815f9260208093018386015e8301015290565b519081151582036105c057565b51906001600160801b03821682036105c057565b608051604051628bec5760e51b815290602090829060049082906001600160a01b03165afa9081156105df575f91610979575090565b90506020813d6020116109a8575b8161099460209383610896565b810103126105c0576109a5906108b9565b90565b3d915061098756fe6080806040526004361015610012575f80fd5b5f905f3560e01c90816301e1d11414611b855750806306fdde0314611b56578063117d8ae014611b2a57806313c408f8146119f55780632db6d399146116ff578063303dbaf3146116dc5780633194549e146116be578063372709361461169557806338d52e0f1461166c5780634fc7fac3146116185780635b0f83f3146115a657806361d027b31461153457806361f5cd8b146114e057806369b3054b1461147c5780636bb65f5314611437578063780469bb14610e0957806379502c5514610d565780637aaceb9514610ce45780638665120314610c9057806386a06ff014610c4b5780638a8b997614610bef57806392f5e83214610b88578063a0c1f15e14610b43578063ad5a356f14610b25578063bdcdd88214610b07578063c38a6f0b146108c3578063c3f909d414610749578063c9c667e314610704578063ce5c7f6114610400578063dbd5edc7146103e2578063ebc136d0146102b7578063ebf31131146102475763f7e533ec14610189575f80fd5b34610230578060031936011261023057604051633df94cfb60e21b8152906020826004817f00000000000000000000000000000000000000000000000000000000000000006001600160a01b03165afa90811561023b5780916101fb575b6040516001600160a01b0383168152602090f35b90506020823d602011610233575b8161021660209383611d1b565b81010312610230575061022a602091611f7a565b5f6101e7565b80fd5b3d9150610209565b604051903d90823e3d90fd5b503461023057806003193601126102305761026061212b565b156102a457600180546001600160a01b03191690556040513381527f7cb941d7b1708e5b3bcd35ca960d6c6311188cec18886e5b67630552676b048790602090a180f35b631564c0e160e11b815233600452602490fd5b5034610230576020366003190112610230576004356001600160a01b03811681036103de57815460405163a89f38a360e01b81526001600160a01b039091169190602081600481865afa9081156103d3578491610399575b50604051632474521560e21b815260048101919091526001600160a01b0390911660248201529060209082908180604481015b03915afa90811561038e5760209291610361575b506040519015158152f35b6103819150823d8411610387575b6103798183611d1b565b81019061202f565b5f610356565b503d61036f565b6040513d84823e3d90fd5b9190506020823d6020116103cb575b816103b560209383611d1b565b810103126103c757905161034261030f565b8380fd5b3d91506103a8565b6040513d86823e3d90fd5b5080fd5b50346102305780600319360112610230576020600454604051908152f35b5034610230576020366003190112610230576004356001600160401b0381116103de57610431903690600401611c46565b9190604051628bec5760e51b8152602081600481305afa9081156106f95783916106bb575b506001600160a01b031633036106a85761046e6121cd565b604092835161047d8582611d1b565b60018152601f1985018036602084013760208487519461049d8987611d1b565b60018652833684880137810103126106a4576104c38651946104be86611cd0565b611cbc565b8085526001600160a01b03166104d883612079565b528551906104e68783611d1b565b600182523660208301376104f981612079565b6001600160a01b037f00000000000000000000000000000000000000000000000000000000000000008116909152845187516357b8988360e01b8152606060048201529260209284928392911690610555906064840190611d53565b5f19602484015260448301919091520381887f00000000000000000000000000000000000000000000000000000000000000006001600160a01b03165af190811561069a578591610662575b5061065e936105d6916105b385612079565b52516001600160a01b03166105c6611f8e565b6105cf85612079565b5191612253565b6105df816120ae565b6105e8836120f1565b907f3e3e7958121b3e39c7a49392d1aa9cdce870c2a059744f9e15cf66fff78654558680a3610616816120ae565b93610620836120f1565b95519586957f3e3e7958121b3e39c7a49392d1aa9cdce870c2a059744f9e15cf66fff78654558380a35f5160206122e15f395f51905f525d83611d8f565b0390f35b90506020813d602011610692575b8161067d60209383611d1b565b8101031261068e575161065e6105a1565b5f80fd5b3d9150610670565b86513d87823e3d90fd5b8480fd5b631184b31b60e21b825233600452602482fd5b90506020813d6020116106f1575b816106d660209383611d1b565b810103126106ed576106e790611f7a565b5f610456565b8280fd5b3d91506106c9565b6040513d85823e3d90fd5b50346102305780600319360112610230576040517f00000000000000000000000000000000000000000000000000000000000000006001600160a01b03168152602090f35b503461023057806003193601126102305761012060405161076981611cff565b8281528260208201528260408201528260608201528260808201528260a0820152606060c0820152606060e08201528261010082015201526040516107ad81611cff565b6001546001600160a01b03908116825260025481166020830190815260035490911660408301908152600454606084019081526005546080850190815260065460a086019081529394939192916108ae919061089a9061080b611ddd565b9060c0880191825261081b611ebf565b60e089810191825260095460ff1615156101008b01908152600a546101208c019081526040805160208082529d516001600160a01b039081169e82019e909e529d518d16908e01529851909a1660608c0152975160808b0152935160a08a01525160c08901525161014095880195909552869594610160870190611c22565b9051858203601f1901610100870152611c22565b91511515610120840152516101408301520390f35b5034610230576080366003190112610230576004356108e0611ca6565b906044356001600160401b0381116103c757610900903690600401611c46565b90926064356001600160401b038111610b0357610921903690600401611c46565b9061092a61212b565b15610af0578693929161093c91612202565b600354604051631a4ca37b60e21b81526001600160a01b03918216600482015260248101869052306044820152906020908290606490829088907f0000000000000000000000000000000000000000000000000000000000000000165af180156103d357610ac1575b5060035460405163095ea7b360e01b81529060209082906001600160a01b03168187816109d68b8960048401612014565b03925af180156103d357610aa4575b506001600160a01b031693843b156106ed5781606484926040519485938492632db6d39960e01b845289600485015260406024850152816044850152848401378181018301859052601f01601f1916810103018183885af1801561038e57610a8f575b505060035460405130927f9f784fc02a186f1c98b2d9f15fda084da27cdd291a3785d978f91911d880516b928291610a89916001600160a01b031683612014565b0390a380f35b81610a9991611d1b565b6106ed57825f610a48565b610abc9060203d602011610387576103798183611d1b565b6109e5565b610ae29060203d602011610ae9575b610ada8183611d1b565b810190611f6b565b505f6109a5565b503d610ad0565b631564c0e160e11b875233600452602487fd5b8580fd5b50346102305780600319360112610230576020600a54604051908152f35b50346102305780600319360112610230576020600654604051908152f35b50346102305780600319360112610230576040517f00000000000000000000000000000000000000000000000000000000000000006001600160a01b03168152602090f35b503461023057602036600319011261023057600435610ba561212b565b15610bdc576020817fb6ac66853c4e59c71e118d25ab494bb847c4e5eb0c8894898c5343e6f61afc1292600655604051908152a180f35b631564c0e160e11b825233600452602482fd5b5034610230578060031936011261023057610c0861212b565b156102a4573360018060a01b031960015416176001557f55489ce0259bd691120d8860861be1c401c7c16a3cd268d21045756af4ecc5ca6020604051338152a180f35b50346102305780600319360112610230576040517f00000000000000000000000000000000000000000000000000000000000000006001600160a01b03168152602090f35b503461023057602036600319011261023057600435610cad61212b565b15610bdc576020817f333b26cca69716ad4680ddb07663f5bfb4f06045671f336af9a83690a3ae00f992600455604051908152a180f35b5034610230578060031936011261023057604051637aaceb9560e01b8152906020826004817f00000000000000000000000000000000000000000000000000000000000000006001600160a01b03165afa90811561023b5780916101fb576040516001600160a01b0383168152602090f35b50346102305780600319360112610230576001546002546003546004546005546006546001600160a01b0394851695851694929390921691610df69190610de890610d9f611ddd565b90610da8611ebf565b9360ff6009541697600a54976040519b8c9b8c5260208c015260408b015260608a0152608089015260a088015261014060c0880152610140870190611c22565b9085820360e0870152611c22565b9115156101008401526101208301520390f35b5034610230576020366003190112610230576004356001600160401b0381116103de57366023820112156103de57806004013590610e4682611d3c565b91610e546040519384611d1b565b8083526024602084019160051b830101913683116106a457602401905b82821061141f575050604051628bec5760e51b81529050602081600481305afa9081156106f95783916113e5575b506001600160a01b031633036106a857610eb76121cd565b610ec18151612047565b90610ecc8151612047565b6003546040516370a0823160e01b815230600482015291939185916001600160a01b031690602081602481855afa9081156106f95783916113b0575b506110d8575b505b825181101561107f5760249060206001600160a01b03610f30838761209a565b5116604051938480926370a0823160e01b82523060048301525afa918215611074578692611041575b5081610f6a575b6001915001610f10565b6001600160a01b03610f7c828661209a565b5116916024610f89611f8e565b9360206001600160a01b03610f9e868a61209a565b5116604051938480926370a0823160e01b82523060048301525afa918215611036578992611002575b5090600194610fd592612253565b828060a01b03610fe5838761209a565b5116610ff1838661209a565b52610ffc828761209a565b52610f60565b91506020823d821161102e575b8161101c60209383611d1b565b8101031261068e579051906001610fc7565b3d915061100f565b6040513d8b823e3d90fd5b9091506020813d821161106c575b8161105c60209383611d1b565b8101031261068e5751905f610f59565b3d915061104f565b6040513d88823e3d90fd5b848261065e8661108e836120ae565b92611098826120f1565b946040519586957f46b8771620f6acf56cb03d3e835ea8024c7dcbcf05fcc3f6ade9e19d1a3e212b8380a35f5160206122e15f395f51905f525d83611d8f565b6001546040516330fe427560e21b81529060a090829060049082906001600160a01b03165afa9081156106f9578391611303575b50516040516370a0823160e01b81523060048201526001600160a01b039091169190602081602481855afa9081156103d35784916112ce575b506020846040519261117a8461116c8582019363095ea7b360e01b85528960248401612014565b03601f198101865285611d1b565b83519082865af184513d826112b2575b50501561126e575b50506003546040516370a0823160e01b815230600482015290602090829060249082906001600160a01b03165afa9081156106f9578391611239575b506040516111db81611cd0565b838152823b156103c75761121592849283604051809681958294632db6d39960e01b84526004840152604060248401526044830190611c22565b03925af1801561038e5715610f0e578161122e91611d1b565b6103c757835f610f0e565b9250506020823d602011611266575b8161125560209383611d1b565b8101031261068e578591515f6111ce565b3d9150611248565b6112ab916112a660405163095ea7b360e01b6020820152856024820152866044820152604481526112a0606482611d1b565b82612288565b612288565b5f80611192565b9091506112c65750813b15155b5f8061118a565b6001146112bf565b9350506020833d6020116112fb575b816112ea60209383611d1b565b8101031261068e578692515f611145565b3d91506112dd565b9192505060a0813d60a0116113a8575b8161132060a09383611d1b565b81010312610b03576040519060a082018281106001600160401b0382111761139457604052805187939291906001600160a01b03811681036106a45761138991608091845260208101516020850152604081015160408501526060810151606085015201611f7a565b60808201525f61110c565b634e487b7160e01b88526041600452602488fd5b3d9150611313565b9250506020823d6020116113dd575b816113cc60209383611d1b565b8101031261068e578591515f610f08565b3d91506113bf565b90506020813d602011611417575b8161140060209383611d1b565b810103126106ed5761141190611f7a565b5f610e9f565b3d91506113f3565b6020809161142c84611cbc565b815201910190610e71565b50346102305780600319360112610230576040517f00000000000000000000000000000000000000000000000000000000000000006001600160a01b03168152602090f35b50346102305760403660031901126102305760043560038110156103de576020916114a5611ca6565b9050604051908382019260f81b835260018060601b03199060601b166021820152601581526114d5603582611d1b565b519020604051908152f35b5034610230576020366003190112610230576004356114fd61212b565b15610bdc576020817ffbe2d5c01ea8ba5596d6c4e6c82c6d4a0a0ee1128689993a4a5ba0169273d69f92600555604051908152a180f35b50346102305780600319360112610230576040516361d027b360e01b8152906020826004817f00000000000000000000000000000000000000000000000000000000000000006001600160a01b03165afa90811561023b5780916101fb576040516001600160a01b0383168152602090f35b5034610230578060031936011261023057604051635b0f83f360e01b8152906020826004817f00000000000000000000000000000000000000000000000000000000000000006001600160a01b03165afa90811561023b5780916101fb576040516001600160a01b0383168152602090f35b50346102305760203660031901126102305760043561163561212b565b15610bdc576020817fd3c6d0ab315f2f1352f036cd9f401b49e38e1b90907e195225e8105f9a0b6f0292600a55604051908152a180f35b50346102305780600319360112610230576003546040516001600160a01b039091168152602090f35b50346102305780600319360112610230576001546040516001600160a01b039091168152602090f35b50346102305780600319360112610230576020600554604051908152f35b5034610230578060031936011261023057602060ff600954166040519015158152f35b503461068e5761170e36611c73565b6117166121cd565b604051631b93849b60e11b8152602081600481305afa9081156118b1575f916119bb575b5061174361212b565b156118d9575b5061175391612202565b6003546040516323b872dd60e01b602082015233602482015230604482015260648082018490528152611794916001600160a01b03166112a6608483611d1b565b60035460405163095ea7b360e01b81526001600160a01b037f0000000000000000000000000000000000000000000000000000000000000000811692602091839116815f816117e7898960048401612014565b03925af180156118b1576118bc575b506003546001600160a01b0316813b1561068e575f9160848392604051948593849263617ba03760e01b845260048401528760248401523060448401528160648401525af180156118b15761189c575b5060035460405133927fcbaa1442ac205415c9d69643e7b60ec73d1de35dbc807c21ec288c70ddc4207b928291611886916001600160a01b031683612014565b0390a2805f5160206122e15f395f51905f525d80f35b6118a99192505f90611d1b565b5f905f611846565b6040513d5f823e3d90fd5b6118d49060203d602011610387576103798183611d1b565b6117f6565b604051628bec5760e51b8152602081600481305afa9081156118b1575f91611981575b506001600160a01b031633146117495760405163d25dd10160e01b815233600482015290602090829060249082906001600160a01b03165afa9081156118b1575f91611962575b501561194f575f611749565b638f7a567d60e01b5f523360045260245ffd5b61197b915060203d602011610387576103798183611d1b565b5f611943565b90506020813d6020116119b3575b8161199c60209383611d1b565b8101031261068e576119ad90611f7a565b5f6118fc565b3d915061198f565b90506020813d6020116119ed575b816119d660209383611d1b565b8101031261068e576119e790611f7a565b5f61173a565b3d91506119c9565b3461068e57611a0336611c73565b611a0b61212b565b15611b1757611a2191611a1c6121cd565b612202565b600354604051631a4ca37b60e21b81526001600160a01b0391821660048201526024810183905230604482015290602090829060649082905f907f0000000000000000000000000000000000000000000000000000000000000000165af180156118b157611af8575b50600354611aa490829033906001600160a01b0316612253565b60035460405133927fd5e872c5ecfb1bb8820b2e6a20e31b883682282da886621541f71e31ec11947e928291611ae3916001600160a01b031683612014565b0390a25f5f5160206122e15f395f51905f525d005b611b109060203d602011610ae957610ada8183611d1b565b5081611a8a565b631564c0e160e11b5f523360045260245ffd5b3461068e575f36600319011261068e576020611b44611f8e565b6040516001600160a01b039091168152f35b3461068e575f36600319011261068e5761065e611b71611ddd565b604051918291602083526020830190611c22565b3461068e575f36600319011261068e576370a0823160e01b81523060048201526020816024817f00000000000000000000000000000000000000000000000000000000000000006001600160a01b03165afa80156118b1575f90611bef575b602090604051908152f35b506020813d602011611c1a575b81611c0960209383611d1b565b8101031261068e5760209051611be4565b3d9150611bfc565b805180835260209291819084018484015e5f828201840152601f01601f1916010190565b9181601f8401121561068e578235916001600160401b03831161068e576020838186019501011161068e57565b90604060031983011261068e5760043591602435906001600160401b03821161068e57611ca291600401611c46565b9091565b602435906001600160a01b038216820361068e57565b35906001600160a01b038216820361068e57565b602081019081106001600160401b03821117611ceb57604052565b634e487b7160e01b5f52604160045260245ffd5b61014081019081106001600160401b03821117611ceb57604052565b90601f801991011681019081106001600160401b03821117611ceb57604052565b6001600160401b038111611ceb5760051b60200190565b90602080835192838152019201905f5b818110611d705750505090565b82516001600160a01b0316845260209384019390920191600101611d63565b90611da290604083526040830190611d53565b906020818303910152602080835192838152019201905f5b818110611dc75750505090565b8251845260209384019390920191600101611dba565b604051905f6007548060011c9160018216918215611eb5575b602084108314611ea1578386528592908115611e825750600114611e23575b611e2192500383611d1b565b565b5060075f90815290917fa66cc928b5edb82af9bd49922954155ab7b0942694bea4ce44661d9a8736c6885b818310611e66575050906020611e2192820101611e15565b6020919350806001915483858901015201910190918492611e4e565b60209250611e2194915060ff191682840152151560051b820101611e15565b634e487b7160e01b5f52602260045260245ffd5b92607f1692611df6565b604051905f6008548060011c9160018216918215611f61575b602084108314611ea1578386528592908115611e825750600114611f0257611e2192500383611d1b565b5060085f90815290917ff3f7a9fe364faab93b216da50a3214154f22a0a2b415b23a84c8169e8b636ee35b818310611f45575050906020611e2192820101611e15565b6020919350806001915483858901015201910190918492611f2d565b92607f1692611ed8565b9081602091031261068e575190565b51906001600160a01b038216820361068e57565b604051628bec5760e51b81526020816004817f00000000000000000000000000000000000000000000000000000000000000006001600160a01b03165afa9081156118b1575f91611fdd575090565b90506020813d60201161200c575b81611ff860209383611d1b565b8101031261068e5761200990611f7a565b90565b3d9150611feb565b6001600160a01b039091168152602081019190915260400190565b9081602091031261068e5751801515810361068e5790565b9061205182611d3c565b61205e6040519182611d1b565b828152809261206f601f1991611d3c565b0190602036910137565b8051156120865760200190565b634e487b7160e01b5f52603260045260245ffd5b80518210156120865760209160051b010190565b6040518091829160208251919201905f5b8181106120cf5750505003902090565b82516001600160a01b03168452859450602093840193909201916001016120bf565b6040518091829160208251919201905f5b8181106121125750505003902090565b8251845285945060209384019390920191600101612102565b5f54604051600160f91b60208083019182526001600160601b03193060601b1660218401526015835261219f9390926001600160a01b039091169190612172603582611d1b565b519020604051632474521560e21b8152600481019190915233602482015292839190829081906044820190565b03915afa9081156118b1575f916121b4575090565b612009915060203d602011610387576103798183611d1b565b5f5160206122e15f395f51905f525c6121f35760015f5160206122e15f395f51905f525d565b633ee5aeb560e01b5f5260045ffd5b5015801580612246575b612237578061222b575b61221c57565b63332863a960e11b5f5260045ffd5b5060ff60095416612216565b630cd0fdf960e01b5f5260045ffd5b5060ff600954161561220c565b6112a6611e21939261227a60405194859263a9059cbb60e01b602085015260248401612014565b03601f198101845283611d1b565b905f602091828151910182855af1156118b1575f513d6122d757506001600160a01b0381163b155b6122b75750565b635274afe760e01b5f9081526001600160a01b0391909116600452602490fd5b600114156122b056fe9b779b17422d0df92223018b32b4d1fa46e071723d6817e2486d003becc55f00a26469706673582212202026e0ba2b8163c056c8fb387e0cddc1c1694d0bc9a611f6a571105af8768bc564736f6c634300081c0033",
  "linkReferences": {},
  "deployedLinkReferences": {}
}