{
  "_format": "hh-sol-artifact-1",
  "contractName": "ProtocolAccessManager",
  "sourceName": "src/contracts/ProtocolAccessManager.sol",
  "abi": [
    {
      "inputs": [
        {
          "internalType": "address",
          "name": "governor",
          "type": "address"
        }
      ],
      "stateMutability": "nonpayable",
      "type": "constructor"
    },
    {
      "inputs": [],
      "name": "AccessControlBadConfirmation",
      "type": "error"
    },
    {
      "inputs": [
        {
          "internalType": "address",
          "name": "account",
          "type": "address"
        },
        {
          "internalType": "bytes32",
          "name": "neededRole",
          "type": "bytes32"
        }
      ],
      "name": "AccessControlUnauthorizedAccount",
      "type": "error"
    },
    {
      "inputs": [
        {
          "internalType": "address",
          "name": "caller",
          "type": "address"
        }
      ],
      "name": "CallerIsNotAdmin",
      "type": "error"
    },
    {
      "inputs": [
        {
          "internalType": "address",
          "name": "caller",
          "type": "address"
        }
      ],
      "name": "CallerIsNotAuthorizedToBoard",
      "type": "error"
    },
    {
      "inputs": [
        {
          "internalType": "address",
          "name": "caller",
          "type": "address"
        }
      ],
      "name": "CallerIsNotCommander",
      "type": "error"
    },
    {
      "inputs": [
        {
          "internalType": "address",
          "name": "caller",
          "type": "address"
        },
        {
          "internalType": "bytes32",
          "name": "role",
          "type": "bytes32"
        }
      ],
      "name": "CallerIsNotContractSpecificRole",
      "type": "error"
    },
    {
      "inputs": [
        {
          "internalType": "address",
          "name": "caller",
          "type": "address"
        }
      ],
      "name": "CallerIsNotCurator",
      "type": "error"
    },
    {
      "inputs": [
        {
          "internalType": "address",
          "name": "caller",
          "type": "address"
        }
      ],
      "name": "CallerIsNotGovernor",
      "type": "error"
    },
    {
      "inputs": [
        {
          "internalType": "address",
          "name": "caller",
          "type": "address"
        }
      ],
      "name": "CallerIsNotGuardian",
      "type": "error"
    },
    {
      "inputs": [
        {
          "internalType": "address",
          "name": "caller",
          "type": "address"
        }
      ],
      "name": "CallerIsNotGuardianOrGovernor",
      "type": "error"
    },
    {
      "inputs": [
        {
          "internalType": "address",
          "name": "caller",
          "type": "address"
        }
      ],
      "name": "CallerIsNotKeeper",
      "type": "error"
    },
    {
      "inputs": [
        {
          "internalType": "address",
          "name": "caller",
          "type": "address"
        }
      ],
      "name": "CallerIsNotRaft",
      "type": "error"
    },
    {
      "inputs": [
        {
          "internalType": "address",
          "name": "caller",
          "type": "address"
        }
      ],
      "name": "CallerIsNotRaftOrCommander",
      "type": "error"
    },
    {
      "inputs": [
        {
          "internalType": "address",
          "name": "caller",
          "type": "address"
        }
      ],
      "name": "CallerIsNotSuperKeeper",
      "type": "error"
    },
    {
      "inputs": [
        {
          "internalType": "address",
          "name": "caller",
          "type": "address"
        }
      ],
      "name": "DirectGrantIsDisabled",
      "type": "error"
    },
    {
      "inputs": [
        {
          "internalType": "address",
          "name": "caller",
          "type": "address"
        }
      ],
      "name": "DirectRevokeIsDisabled",
      "type": "error"
    },
    {
      "inputs": [
        {
          "internalType": "address",
          "name": "invalidAddress",
          "type": "address"
        }
      ],
      "name": "InvalidAccessManagerAddress",
      "type": "error"
    },
    {
      "anonymous": false,
      "inputs": [
        {
          "indexed": true,
          "internalType": "bytes32",
          "name": "role",
          "type": "bytes32"
        },
        {
          "indexed": true,
          "internalType": "bytes32",
          "name": "previousAdminRole",
          "type": "bytes32"
        },
        {
          "indexed": true,
          "internalType": "bytes32",
          "name": "newAdminRole",
          "type": "bytes32"
        }
      ],
      "name": "RoleAdminChanged",
      "type": "event"
    },
    {
      "anonymous": false,
      "inputs": [
        {
          "indexed": true,
          "internalType": "bytes32",
          "name": "role",
          "type": "bytes32"
        },
        {
          "indexed": true,
          "internalType": "address",
          "name": "account",
          "type": "address"
        },
        {
          "indexed": true,
          "internalType": "address",
          "name": "sender",
          "type": "address"
        }
      ],
      "name": "RoleGranted",
      "type": "event"
    },
    {
      "anonymous": false,
      "inputs": [
        {
          "indexed": true,
          "internalType": "bytes32",
          "name": "role",
          "type": "bytes32"
        },
        {
          "indexed": true,
          "internalType": "address",
          "name": "account",
          "type": "address"
        },
        {
          "indexed": true,
          "internalType": "address",
          "name": "sender",
          "type": "address"
        }
      ],
      "name": "RoleRevoked",
      "type": "event"
    },
    {
      "inputs": [],
      "name": "DEFAULT_ADMIN_ROLE",
      "outputs": [
        {
          "internalType": "bytes32",
          "name": "",
          "type": "bytes32"
        }
      ],
      "stateMutability": "view",
      "type": "function"
    },
    {
      "inputs": [],
      "name": "GOVERNOR_ROLE",
      "outputs": [
        {
          "internalType": "bytes32",
          "name": "",
          "type": "bytes32"
        }
      ],
      "stateMutability": "view",
      "type": "function"
    },
    {
      "inputs": [],
      "name": "GUARDIAN_ROLE",
      "outputs": [
        {
          "internalType": "bytes32",
          "name": "",
          "type": "bytes32"
        }
      ],
      "stateMutability": "view",
      "type": "function"
    },
    {
      "inputs": [],
      "name": "SUPER_KEEPER_ROLE",
      "outputs": [
        {
          "internalType": "bytes32",
          "name": "",
          "type": "bytes32"
        }
      ],
      "stateMutability": "view",
      "type": "function"
    },
    {
      "inputs": [
        {
          "internalType": "enum ContractSpecificRoles",
          "name": "roleName",
          "type": "uint8"
        },
        {
          "internalType": "address",
          "name": "roleTargetContract",
          "type": "address"
        }
      ],
      "name": "generateRole",
      "outputs": [
        {
          "internalType": "bytes32",
          "name": "",
          "type": "bytes32"
        }
      ],
      "stateMutability": "pure",
      "type": "function"
    },
    {
      "inputs": [
        {
          "internalType": "bytes32",
          "name": "role",
          "type": "bytes32"
        }
      ],
      "name": "getRoleAdmin",
      "outputs": [
        {
          "internalType": "bytes32",
          "name": "",
          "type": "bytes32"
        }
      ],
      "stateMutability": "view",
      "type": "function"
    },
    {
      "inputs": [
        {
          "internalType": "address",
          "name": "account",
          "type": "address"
        }
      ],
      "name": "grantAdminRole",
      "outputs": [],
      "stateMutability": "nonpayable",
      "type": "function"
    },
    {
      "inputs": [
        {
          "internalType": "address",
          "name": "arkAddress",
          "type": "address"
        },
        {
          "internalType": "address",
          "name": "account",
          "type": "address"
        }
      ],
      "name": "grantCommanderRole",
      "outputs": [],
      "stateMutability": "nonpayable",
      "type": "function"
    },
    {
      "inputs": [
        {
          "internalType": "enum ContractSpecificRoles",
          "name": "roleName",
          "type": "uint8"
        },
        {
          "internalType": "address",
          "name": "roleTargetContract",
          "type": "address"
        },
        {
          "internalType": "address",
          "name": "roleOwner",
          "type": "address"
        }
      ],
      "name": "grantContractSpecificRole",
      "outputs": [],
      "stateMutability": "nonpayable",
      "type": "function"
    },
    {
      "inputs": [
        {
          "internalType": "address",
          "name": "fleetAddress",
          "type": "address"
        },
        {
          "internalType": "address",
          "name": "account",
          "type": "address"
        }
      ],
      "name": "grantCuratorRole",
      "outputs": [],
      "stateMutability": "nonpayable",
      "type": "function"
    },
    {
      "inputs": [
        {
          "internalType": "address",
          "name": "account",
          "type": "address"
        }
      ],
      "name": "grantGovernorRole",
      "outputs": [],
      "stateMutability": "nonpayable",
      "type": "function"
    },
    {
      "inputs": [
        {
          "internalType": "address",
          "name": "account",
          "type": "address"
        }
      ],
      "name": "grantGuardianRole",
      "outputs": [],
      "stateMutability": "nonpayable",
      "type": "function"
    },
    {
      "inputs": [
        {
          "internalType": "address",
          "name": "fleetAddress",
          "type": "address"
        },
        {
          "internalType": "address",
          "name": "account",
          "type": "address"
        }
      ],
      "name": "grantKeeperRole",
      "outputs": [],
      "stateMutability": "nonpayable",
      "type": "function"
    },
    {
      "inputs": [
        {
          "internalType": "bytes32",
          "name": "",
          "type": "bytes32"
        },
        {
          "internalType": "address",
          "name": "",
          "type": "address"
        }
      ],
      "name": "grantRole",
      "outputs": [],
      "stateMutability": "view",
      "type": "function"
    },
    {
      "inputs": [
        {
          "internalType": "address",
          "name": "account",
          "type": "address"
        }
      ],
      "name": "grantSuperKeeperRole",
      "outputs": [],
      "stateMutability": "nonpayable",
      "type": "function"
    },
    {
      "inputs": [
        {
          "internalType": "bytes32",
          "name": "role",
          "type": "bytes32"
        },
        {
          "internalType": "address",
          "name": "account",
          "type": "address"
        }
      ],
      "name": "hasRole",
      "outputs": [
        {
          "internalType": "bool",
          "name": "",
          "type": "bool"
        }
      ],
      "stateMutability": "view",
      "type": "function"
    },
    {
      "inputs": [
        {
          "internalType": "bytes32",
          "name": "role",
          "type": "bytes32"
        },
        {
          "internalType": "address",
          "name": "callerConfirmation",
          "type": "address"
        }
      ],
      "name": "renounceRole",
      "outputs": [],
      "stateMutability": "nonpayable",
      "type": "function"
    },
    {
      "inputs": [
        {
          "internalType": "address",
          "name": "account",
          "type": "address"
        }
      ],
      "name": "revokeAdminRole",
      "outputs": [],
      "stateMutability": "nonpayable",
      "type": "function"
    },
    {
      "inputs": [
        {
          "internalType": "address",
          "name": "arkAddress",
          "type": "address"
        },
        {
          "internalType": "address",
          "name": "account",
          "type": "address"
        }
      ],
      "name": "revokeCommanderRole",
      "outputs": [],
      "stateMutability": "nonpayable",
      "type": "function"
    },
    {
      "inputs": [
        {
          "internalType": "enum ContractSpecificRoles",
          "name": "roleName",
          "type": "uint8"
        },
        {
          "internalType": "address",
          "name": "roleTargetContract",
          "type": "address"
        },
        {
          "internalType": "address",
          "name": "roleOwner",
          "type": "address"
        }
      ],
      "name": "revokeContractSpecificRole",
      "outputs": [],
      "stateMutability": "nonpayable",
      "type": "function"
    },
    {
      "inputs": [
        {
          "internalType": "address",
          "name": "fleetAddress",
          "type": "address"
        },
        {
          "internalType": "address",
          "name": "account",
          "type": "address"
        }
      ],
      "name": "revokeCuratorRole",
      "outputs": [],
      "stateMutability": "nonpayable",
      "type": "function"
    },
    {
      "inputs": [
        {
          "internalType": "address",
          "name": "account",
          "type": "address"
        }
      ],
      "name": "revokeGovernorRole",
      "outputs": [],
      "stateMutability": "nonpayable",
      "type": "function"
    },
    {
      "inputs": [
        {
          "internalType": "address",
          "name": "account",
          "type": "address"
        }
      ],
      "name": "revokeGuardianRole",
      "outputs": [],
      "stateMutability": "nonpayable",
      "type": "function"
    },
    {
      "inputs": [
        {
          "internalType": "address",
          "name": "fleetAddress",
          "type": "address"
        },
        {
          "internalType": "address",
          "name": "account",
          "type": "address"
        }
      ],
      "name": "revokeKeeperRole",
      "outputs": [],
      "stateMutability": "nonpayable",
      "type": "function"
    },
    {
      "inputs": [
        {
          "internalType": "bytes32",
          "name": "",
          "type": "bytes32"
        },
        {
          "internalType": "address",
          "name": "",
          "type": "address"
        }
      ],
      "name": "revokeRole",
      "outputs": [],
      "stateMutability": "view",
      "type": "function"
    },
    {
      "inputs": [
        {
          "internalType": "address",
          "name": "account",
          "type": "address"
        }
      ],
      "name": "revokeSuperKeeperRole",
      "outputs": [],
      "stateMutability": "nonpayable",
      "type": "function"
    },
    {
      "inputs": [
        {
          "internalType": "enum ContractSpecificRoles",
          "name": "roleName",
          "type": "uint8"
        },
        {
          "internalType": "address",
          "name": "roleTargetContract",
          "type": "address"
        }
      ],
      "name": "selfRevokeContractSpecificRole",
      "outputs": [],
      "stateMutability": "nonpayable",
      "type": "function"
    },
    {
      "inputs": [
        {
          "internalType": "bytes4",
          "name": "interfaceId",
          "type": "bytes4"
        }
      ],
      "name": "supportsInterface",
      "outputs": [
        {
          "internalType": "bool",
          "name": "",
          "type": "bool"
        }
      ],
      "stateMutability": "view",
      "type": "function"
    }
  ],
  "bytecode": "0x60803461007c57601f61145e38819003918201601f19168301916001600160401b038311848410176100805780849260209460405283398101031261007c57516001600160a01b038116810361007c578061005c61006c92610094565b506100668161010a565b5061019d565b506040516111ad90816102318239f35b5f80fd5b634e487b7160e01b5f52604160045260245ffd5b6001600160a01b0381165f9081525f51602061143e5f395f51905f52602052604090205460ff16610105576001600160a01b03165f8181525f51602061143e5f395f51905f5260205260408120805460ff191660011790553391905f5160206113de5f395f51905f528180a4600190565b505f90565b6001600160a01b0381165f9081525f51602061141e5f395f51905f52602052604090205460ff16610105576001600160a01b03165f8181525f51602061141e5f395f51905f5260205260408120805460ff191660011790553391907f7935bd0ae54bc31f548c14dba4d37c5c64b3f8ca900cb468fb8abd54d5894f55905f5160206113de5f395f51905f529080a4600190565b6001600160a01b0381165f9081525f5160206113fe5f395f51905f52602052604090205460ff16610105576001600160a01b03165f8181525f5160206113fe5f395f51905f5260205260408120805460ff191660011790553391907f55435dd261a4b9b3364963f7738a7a662ad9c84396d64be3365284bb7f0a5041905f5160206113de5f395f51905f529080a460019056fe6080806040526004361015610012575f80fd5b5f3560e01c90816301ffc9a7146109305750806310e7b489146108eb5780631981b9a7146108785780631bacdb3414610833578063248a9ca31461080757806324ea54f4146107cd5780632a25d1421461078b5780632da51722146107465780632f2ff15d1461071957806336568abe146106d55780634b4b5389146106905780634cfa61071461061d57806353b53813146105aa57806366e943f11461057057806366ebbf74146104fd57806369b3054b146104e25780637adac90d146104a057806391d14854146104585780639a19c7b014610413578063a217fddf146103f9578063c634b78e146103b4578063ccc574901461037a578063d547741f1461034d578063d55dd62b146102f6578063e4dd1dca146102b1578063e929666514610239578063e9eea177146101ae5763fb914c3914610150575f80fd5b346101aa5760203660031901126101aa5761016961099d565b335f9081525f5160206111385f395f51905f52602052604090205460ff16156101975761019590610fb9565b005b6376660ab760e11b5f523360045260245ffd5b5f80fd5b346101aa5760403660031901126101aa576101c761099d565b6101cf6109b3565b335f9081525f5160206110f85f395f51905f52602052604090205460ff161561022657335f9081525f5160206110f85f395f51905f52602052604090205460ff16156102265761022161019592610adb565b610db3565b630ea7d7ed60e21b5f523360045260245ffd5b346101aa5760403660031901126101aa5761025261099d565b61025a6109b3565b335f9081525f5160206110f85f395f51905f52602052604090205460ff161561022657335f9081525f5160206110f85f395f51905f52602052604090205460ff1615610226576102ac61019592610adb565b61104a565b346101aa5760203660031901126101aa576102ca61099d565b335f9081525f5160206111385f395f51905f52602052604090205460ff16156101975761019590610d20565b346101aa5761030d61030736610a0c565b90610b1d565b5f8181526020818152604080832033845290915290205460ff16156103375761019590339061104a565b633f904edb60e11b5f523360045260245260445ffd5b346101aa5760403660031901126101aa576103666109b3565b50636344978560e11b5f523360045260245ffd5b346101aa575f3660031901126101aa5760206040517f7935bd0ae54bc31f548c14dba4d37c5c64b3f8ca900cb468fb8abd54d5894f558152f35b346101aa5760203660031901126101aa576103cd61099d565b335f9081525f5160206111385f395f51905f52602052604090205460ff16156101975761019590610caf565b346101aa575f3660031901126101aa5760206040515f8152f35b346101aa5760203660031901126101aa5761042c61099d565b335f9081525f5160206111385f395f51905f52602052604090205460ff16156101975761019590610f4a565b346101aa5760403660031901126101aa576104716109b3565b6004355f525f60205260405f209060018060a01b03165f52602052602060ff60405f2054166040519015158152f35b346101aa576104ae366109c9565b335f9081525f5160206110f85f395f51905f5260205260409020549192909160ff161561022657610195926102ac91610b1d565b346101aa5760206104f561030736610a0c565b604051908152f35b346101aa5760403660031901126101aa5761051661099d565b61051e6109b3565b335f9081525f5160206110f85f395f51905f52602052604090205460ff161561022657335f9081525f5160206110f85f395f51905f52602052604090205460ff16156102265761022161019592610a95565b346101aa575f3660031901126101aa5760206040517f0d186688925976bbe6755ae984501c8e3e2b103a7af59fd803ab9c6d891ae7e08152f35b346101aa5760403660031901126101aa576105c361099d565b6105cb6109b3565b335f9081525f5160206110f85f395f51905f52602052604090205460ff161561022657335f9081525f5160206110f85f395f51905f52602052604090205460ff1615610226576102ac61019592610a3b565b346101aa5760403660031901126101aa5761063661099d565b61063e6109b3565b335f9081525f5160206110f85f395f51905f52602052604090205460ff161561022657335f9081525f5160206110f85f395f51905f52602052604090205460ff1615610226576102ac61019592610a95565b346101aa5760203660031901126101aa576106a961099d565b335f9081525f5160206110f85f395f51905f52602052604090205460ff16156102265761019590610eb9565b346101aa5760403660031901126101aa576106ee6109b3565b336001600160a01b0382160361070a576101959060043561104a565b63334bd91960e11b5f5260045ffd5b346101aa5760403660031901126101aa576107326109b3565b50630e15200f60e21b5f523360045260245ffd5b346101aa5760203660031901126101aa5761075f61099d565b335f9081525f5160206110f85f395f51905f52602052604090205460ff16156102265761019590610c1c565b346101aa57610799366109c9565b335f9081525f5160206110f85f395f51905f5260205260409020549192909160ff1615610226576101959261022191610b1d565b346101aa575f3660031901126101aa5760206040517f55435dd261a4b9b3364963f7738a7a662ad9c84396d64be3365284bb7f0a50418152f35b346101aa5760203660031901126101aa576004355f525f6020526020600160405f200154604051908152f35b346101aa5760203660031901126101aa5761084c61099d565b335f9081525f5160206110f85f395f51905f52602052604090205460ff16156102265761019590610e28565b346101aa5760403660031901126101aa5761089161099d565b6108996109b3565b335f9081525f5160206110f85f395f51905f52602052604090205460ff161561022657335f9081525f5160206110f85f395f51905f52602052604090205460ff16156102265761022161019592610a3b565b346101aa5760203660031901126101aa5761090461099d565b335f9081525f5160206110f85f395f51905f52602052604090205460ff16156102265761019590610b84565b346101aa5760203660031901126101aa576004359063ffffffff60e01b82168092036101aa5760209163a237592160e01b8114908115610972575b5015158152f35b637965db0b60e01b81149150811561098c575b508361096b565b6301ffc9a760e01b14905083610985565b600435906001600160a01b03821682036101aa57565b602435906001600160a01b03821682036101aa57565b60609060031901126101aa5760043560038110156101aa57906024356001600160a01b03811681036101aa57906044356001600160a01b03811681036101aa5790565b60409060031901126101aa5760043560038110156101aa57906024356001600160a01b03811681036101aa5790565b6040516020810191600160f91b83526001600160601b03199060601b166021820152601581526040810181811067ffffffffffffffff821117610a815760405251902090565b634e487b7160e01b5f52604160045260245ffd5b6040516020810191600160f81b83526001600160601b03199060601b166021820152601581526040810181811067ffffffffffffffff821117610a815760405251902090565b60405160208101915f83526001600160601b03199060601b166021820152601581526040810181811067ffffffffffffffff821117610a815760405251902090565b906040519060208201926003811015610b705760f81b835260601b6bffffffffffffffffffffffff19166021820152601581526040810167ffffffffffffffff811182821017610a815760405251902090565b634e487b7160e01b5f52602160045260245ffd5b6001600160a01b0381165f9081525f5160206110d85f395f51905f52602052604090205460ff16610c17576001600160a01b03165f8181525f5160206110d85f395f51905f5260205260408120805460ff191660011790553391907f55435dd261a4b9b3364963f7738a7a662ad9c84396d64be3365284bb7f0a5041905f5160206110b85f395f51905f529080a4600190565b505f90565b6001600160a01b0381165f9081525f5160206111585f395f51905f52602052604090205460ff16610c17576001600160a01b03165f8181525f5160206111585f395f51905f5260205260408120805460ff191660011790553391907f0d186688925976bbe6755ae984501c8e3e2b103a7af59fd803ab9c6d891ae7e0905f5160206110b85f395f51905f529080a4600190565b6001600160a01b0381165f9081525f5160206111385f395f51905f52602052604090205460ff16610c17576001600160a01b03165f8181525f5160206111385f395f51905f5260205260408120805460ff191660011790553391905f5160206110b85f395f51905f528180a4600190565b6001600160a01b0381165f9081525f5160206110f85f395f51905f52602052604090205460ff16610c17576001600160a01b03165f8181525f5160206110f85f395f51905f5260205260408120805460ff191660011790553391907f7935bd0ae54bc31f548c14dba4d37c5c64b3f8ca900cb468fb8abd54d5894f55905f5160206110b85f395f51905f529080a4600190565b5f818152602081815260408083206001600160a01b038616845290915290205460ff16610e22575f818152602081815260408083206001600160a01b0395909516808452949091528120805460ff19166001179055339291905f5160206110b85f395f51905f529080a4600190565b50505f90565b6001600160a01b0381165f9081525f5160206111585f395f51905f52602052604090205460ff1615610c17576001600160a01b03165f8181525f5160206111585f395f51905f5260205260408120805460ff191690553391907f0d186688925976bbe6755ae984501c8e3e2b103a7af59fd803ab9c6d891ae7e0905f5160206111185f395f51905f529080a4600190565b6001600160a01b0381165f9081525f5160206110d85f395f51905f52602052604090205460ff1615610c17576001600160a01b03165f8181525f5160206110d85f395f51905f5260205260408120805460ff191690553391907f55435dd261a4b9b3364963f7738a7a662ad9c84396d64be3365284bb7f0a5041905f5160206111185f395f51905f529080a4600190565b6001600160a01b0381165f9081525f5160206111385f395f51905f52602052604090205460ff1615610c17576001600160a01b03165f8181525f5160206111385f395f51905f5260205260408120805460ff191690553391905f5160206111185f395f51905f528180a4600190565b6001600160a01b0381165f9081525f5160206110f85f395f51905f52602052604090205460ff1615610c17576001600160a01b03165f8181525f5160206110f85f395f51905f5260205260408120805460ff191690553391907f7935bd0ae54bc31f548c14dba4d37c5c64b3f8ca900cb468fb8abd54d5894f55905f5160206111185f395f51905f529080a4600190565b5f818152602081815260408083206001600160a01b038616845290915290205460ff1615610e22575f818152602081815260408083206001600160a01b0395909516808452949091528120805460ff19169055339291905f5160206111185f395f51905f529080a460019056fe2f8788117e7eff1d82e926ec794901d17c78024a50270940304540a733656f0d8a40f0b47fdc2a0ce293b772acfc7508c8315a4d462786c1adc3a56f92ca2d056f3b488caa0dc03e5f3d9fd6a25fa8755afcfd62ccffb6e436c696bfa6b866def6391f5c32d9c69d2a47ea670b442974b53935d1edc7fd64eb21e047a839171bad3228b676f7d3cd4284a5443f17f1962b36e491b30a40b2405849e597ba5fb5c742cb36aa3eadb553c6dfee24901a50d6d8e6a294ddb4de13e076ec7e6d776fa264697066735822122038566a42257e782116a12e34174948b912fd3366c684d27135829458669096fb64736f6c634300081b00332f8788117e7eff1d82e926ec794901d17c78024a50270940304540a733656f0d8a40f0b47fdc2a0ce293b772acfc7508c8315a4d462786c1adc3a56f92ca2d056f3b488caa0dc03e5f3d9fd6a25fa8755afcfd62ccffb6e436c696bfa6b866dead3228b676f7d3cd4284a5443f17f1962b36e491b30a40b2405849e597ba5fb5",
  "linkReferences": {},
  "deployedLinkReferences": {}
}