{
  "_format": "hh-sol-artifact-1",
  "contractName": "Raft",
  "sourceName": "src/contracts/Raft.sol",
  "abi": [
    {
      "inputs": [
        {
          "internalType": "address",
          "name": "_accessManager",
          "type": "address"
        },
        {
          "components": [
            {
              "internalType": "uint40",
              "name": "duration",
              "type": "uint40"
            },
            {
              "internalType": "uint256",
              "name": "startPrice",
              "type": "uint256"
            },
            {
              "internalType": "uint256",
              "name": "endPrice",
              "type": "uint256"
            },
            {
              "internalType": "Percentage",
              "name": "kickerRewardPercentage",
              "type": "uint256"
            },
            {
              "internalType": "enum DecayFunctions.DecayType",
              "name": "decayType",
              "type": "uint8"
            }
          ],
          "internalType": "struct AuctionDefaultParameters",
          "name": "defaultParameters",
          "type": "tuple"
        }
      ],
      "stateMutability": "nonpayable",
      "type": "constructor"
    },
    {
      "inputs": [
        {
          "internalType": "address",
          "name": "target",
          "type": "address"
        }
      ],
      "name": "AddressEmptyCode",
      "type": "error"
    },
    {
      "inputs": [
        {
          "internalType": "address",
          "name": "account",
          "type": "address"
        }
      ],
      "name": "AddressInsufficientBalance",
      "type": "error"
    },
    {
      "inputs": [
        {
          "internalType": "uint256",
          "name": "auctionId",
          "type": "uint256"
        }
      ],
      "name": "AuctionAlreadyFinalized",
      "type": "error"
    },
    {
      "inputs": [
        {
          "internalType": "uint256",
          "name": "auctionId",
          "type": "uint256"
        }
      ],
      "name": "AuctionNotActive",
      "type": "error"
    },
    {
      "inputs": [
        {
          "internalType": "uint256",
          "name": "auctionId",
          "type": "uint256"
        }
      ],
      "name": "AuctionNotEnded",
      "type": "error"
    },
    {
      "inputs": [],
      "name": "AuctionNotFound",
      "type": "error"
    },
    {
      "inputs": [
        {
          "internalType": "address",
          "name": "caller",
          "type": "address"
        }
      ],
      "name": "CallerIsNotAdmin",
      "type": "error"
    },
    {
      "inputs": [
        {
          "internalType": "address",
          "name": "caller",
          "type": "address"
        }
      ],
      "name": "CallerIsNotAuthorizedToBoard",
      "type": "error"
    },
    {
      "inputs": [
        {
          "internalType": "address",
          "name": "caller",
          "type": "address"
        }
      ],
      "name": "CallerIsNotCommander",
      "type": "error"
    },
    {
      "inputs": [
        {
          "internalType": "address",
          "name": "caller",
          "type": "address"
        },
        {
          "internalType": "bytes32",
          "name": "role",
          "type": "bytes32"
        }
      ],
      "name": "CallerIsNotContractSpecificRole",
      "type": "error"
    },
    {
      "inputs": [
        {
          "internalType": "address",
          "name": "caller",
          "type": "address"
        }
      ],
      "name": "CallerIsNotCurator",
      "type": "error"
    },
    {
      "inputs": [
        {
          "internalType": "address",
          "name": "caller",
          "type": "address"
        }
      ],
      "name": "CallerIsNotGovernor",
      "type": "error"
    },
    {
      "inputs": [
        {
          "internalType": "address",
          "name": "caller",
          "type": "address"
        }
      ],
      "name": "CallerIsNotGuardian",
      "type": "error"
    },
    {
      "inputs": [
        {
          "internalType": "address",
          "name": "caller",
          "type": "address"
        }
      ],
      "name": "CallerIsNotGuardianOrGovernor",
      "type": "error"
    },
    {
      "inputs": [
        {
          "internalType": "address",
          "name": "caller",
          "type": "address"
        }
      ],
      "name": "CallerIsNotKeeper",
      "type": "error"
    },
    {
      "inputs": [
        {
          "internalType": "address",
          "name": "caller",
          "type": "address"
        }
      ],
      "name": "CallerIsNotRaft",
      "type": "error"
    },
    {
      "inputs": [
        {
          "internalType": "address",
          "name": "caller",
          "type": "address"
        }
      ],
      "name": "CallerIsNotRaftOrCommander",
      "type": "error"
    },
    {
      "inputs": [
        {
          "internalType": "address",
          "name": "caller",
          "type": "address"
        }
      ],
      "name": "CallerIsNotSuperKeeper",
      "type": "error"
    },
    {
      "inputs": [
        {
          "internalType": "address",
          "name": "caller",
          "type": "address"
        }
      ],
      "name": "DirectGrantIsDisabled",
      "type": "error"
    },
    {
      "inputs": [
        {
          "internalType": "address",
          "name": "caller",
          "type": "address"
        }
      ],
      "name": "DirectRevokeIsDisabled",
      "type": "error"
    },
    {
      "inputs": [],
      "name": "FailedInnerCall",
      "type": "error"
    },
    {
      "inputs": [],
      "name": "InsufficientTokensAvailable",
      "type": "error"
    },
    {
      "inputs": [
        {
          "internalType": "address",
          "name": "invalidAddress",
          "type": "address"
        }
      ],
      "name": "InvalidAccessManagerAddress",
      "type": "error"
    },
    {
      "inputs": [],
      "name": "InvalidDecayType",
      "type": "error"
    },
    {
      "inputs": [
        {
          "internalType": "uint256",
          "name": "x",
          "type": "uint256"
        },
        {
          "internalType": "uint256",
          "name": "y",
          "type": "uint256"
        }
      ],
      "name": "PRBMath_MulDiv18_Overflow",
      "type": "error"
    },
    {
      "inputs": [
        {
          "internalType": "uint256",
          "name": "x",
          "type": "uint256"
        },
        {
          "internalType": "uint256",
          "name": "y",
          "type": "uint256"
        },
        {
          "internalType": "uint256",
          "name": "denominator",
          "type": "uint256"
        }
      ],
      "name": "PRBMath_MulDiv_Overflow",
      "type": "error"
    },
    {
      "inputs": [
        {
          "internalType": "uint256",
          "name": "x",
          "type": "uint256"
        }
      ],
      "name": "PRBMath_UD60x18_Convert_Overflow",
      "type": "error"
    },
    {
      "inputs": [
        {
          "internalType": "address",
          "name": "ark",
          "type": "address"
        }
      ],
      "name": "RaftArkDoesntRequireKeeperData",
      "type": "error"
    },
    {
      "inputs": [
        {
          "internalType": "address",
          "name": "ark",
          "type": "address"
        }
      ],
      "name": "RaftArkRequiresKeeperData",
      "type": "error"
    },
    {
      "inputs": [
        {
          "internalType": "address",
          "name": "ark",
          "type": "address"
        },
        {
          "internalType": "address",
          "name": "rewardToken",
          "type": "address"
        }
      ],
      "name": "RaftAuctionAlreadyRunning",
      "type": "error"
    },
    {
      "inputs": [
        {
          "internalType": "address",
          "name": "token",
          "type": "address"
        }
      ],
      "name": "SafeERC20FailedOperation",
      "type": "error"
    },
    {
      "anonymous": false,
      "inputs": [
        {
          "indexed": true,
          "internalType": "address",
          "name": "ark",
          "type": "address"
        },
        {
          "indexed": true,
          "internalType": "address[]",
          "name": "rewardTokens",
          "type": "address[]"
        },
        {
          "indexed": true,
          "internalType": "uint256[]",
          "name": "rewardAmounts",
          "type": "uint256[]"
        }
      ],
      "name": "ArkHarvested",
      "type": "event"
    },
    {
      "anonymous": false,
      "inputs": [
        {
          "indexed": false,
          "internalType": "uint256",
          "name": "auctionId",
          "type": "uint256"
        },
        {
          "indexed": false,
          "internalType": "address",
          "name": "ark",
          "type": "address"
        },
        {
          "indexed": false,
          "internalType": "address",
          "name": "rewardToken",
          "type": "address"
        },
        {
          "indexed": false,
          "internalType": "uint256",
          "name": "amount",
          "type": "uint256"
        }
      ],
      "name": "ArkRewardTokenAuctionStarted",
      "type": "event"
    },
    {
      "anonymous": false,
      "inputs": [
        {
          "components": [
            {
              "internalType": "uint40",
              "name": "duration",
              "type": "uint40"
            },
            {
              "internalType": "uint256",
              "name": "startPrice",
              "type": "uint256"
            },
            {
              "internalType": "uint256",
              "name": "endPrice",
              "type": "uint256"
            },
            {
              "internalType": "Percentage",
              "name": "kickerRewardPercentage",
              "type": "uint256"
            },
            {
              "internalType": "enum DecayFunctions.DecayType",
              "name": "decayType",
              "type": "uint8"
            }
          ],
          "indexed": false,
          "internalType": "struct AuctionDefaultParameters",
          "name": "newConfig",
          "type": "tuple"
        }
      ],
      "name": "AuctionDefaultParametersUpdated",
      "type": "event"
    },
    {
      "anonymous": false,
      "inputs": [
        {
          "indexed": true,
          "internalType": "uint256",
          "name": "auctionId",
          "type": "uint256"
        },
        {
          "indexed": false,
          "internalType": "uint256",
          "name": "soldTokens",
          "type": "uint256"
        },
        {
          "indexed": false,
          "internalType": "uint256",
          "name": "unsoldTokens",
          "type": "uint256"
        }
      ],
      "name": "AuctionFinalized",
      "type": "event"
    },
    {
      "anonymous": false,
      "inputs": [
        {
          "indexed": true,
          "internalType": "address",
          "name": "ark",
          "type": "address"
        },
        {
          "indexed": true,
          "internalType": "address",
          "name": "fromRewardToken",
          "type": "address"
        },
        {
          "indexed": true,
          "internalType": "address",
          "name": "toFleetToken",
          "type": "address"
        },
        {
          "indexed": false,
          "internalType": "uint256",
          "name": "amountReboarded",
          "type": "uint256"
        }
      ],
      "name": "RewardBoarded",
      "type": "event"
    },
    {
      "anonymous": false,
      "inputs": [
        {
          "indexed": true,
          "internalType": "uint256",
          "name": "auctionId",
          "type": "uint256"
        },
        {
          "indexed": true,
          "internalType": "address",
          "name": "buyer",
          "type": "address"
        },
        {
          "indexed": false,
          "internalType": "uint256",
          "name": "amount",
          "type": "uint256"
        },
        {
          "indexed": false,
          "internalType": "uint256",
          "name": "price",
          "type": "uint256"
        }
      ],
      "name": "TokensPurchased",
      "type": "event"
    },
    {
      "inputs": [],
      "name": "auctionDefaultParameters",
      "outputs": [
        {
          "internalType": "uint40",
          "name": "duration",
          "type": "uint40"
        },
        {
          "internalType": "uint256",
          "name": "startPrice",
          "type": "uint256"
        },
        {
          "internalType": "uint256",
          "name": "endPrice",
          "type": "uint256"
        },
        {
          "internalType": "Percentage",
          "name": "kickerRewardPercentage",
          "type": "uint256"
        },
        {
          "internalType": "enum DecayFunctions.DecayType",
          "name": "decayType",
          "type": "uint8"
        }
      ],
      "stateMutability": "view",
      "type": "function"
    },
    {
      "inputs": [
        {
          "internalType": "address",
          "name": "ark",
          "type": "address"
        },
        {
          "internalType": "address",
          "name": "rewardToken",
          "type": "address"
        }
      ],
      "name": "auctions",
      "outputs": [
        {
          "components": [
            {
              "internalType": "contract IERC20",
              "name": "auctionToken",
              "type": "address"
            },
            {
              "internalType": "contract IERC20",
              "name": "paymentToken",
              "type": "address"
            },
            {
              "internalType": "uint40",
              "name": "startTime",
              "type": "uint40"
            },
            {
              "internalType": "uint40",
              "name": "endTime",
              "type": "uint40"
            },
            {
              "internalType": "uint8",
              "name": "auctionTokenDecimals",
              "type": "uint8"
            },
            {
              "internalType": "uint8",
              "name": "paymentTokenDecimals",
              "type": "uint8"
            },
            {
              "internalType": "address",
              "name": "auctionKicker",
              "type": "address"
            },
            {
              "internalType": "address",
              "name": "unsoldTokensRecipient",
              "type": "address"
            },
            {
              "internalType": "uint40",
              "name": "id",
              "type": "uint40"
            },
            {
              "internalType": "enum DecayFunctions.DecayType",
              "name": "decayType",
              "type": "uint8"
            },
            {
              "internalType": "uint256",
              "name": "startPrice",
              "type": "uint256"
            },
            {
              "internalType": "uint256",
              "name": "endPrice",
              "type": "uint256"
            },
            {
              "internalType": "uint256",
              "name": "totalTokens",
              "type": "uint256"
            },
            {
              "internalType": "uint256",
              "name": "kickerRewardAmount",
              "type": "uint256"
            }
          ],
          "internalType": "struct DutchAuctionLibrary.AuctionConfig",
          "name": "config",
          "type": "tuple"
        },
        {
          "components": [
            {
              "internalType": "uint256",
              "name": "remainingTokens",
              "type": "uint256"
            },
            {
              "internalType": "bool",
              "name": "isFinalized",
              "type": "bool"
            }
          ],
          "internalType": "struct DutchAuctionLibrary.AuctionState",
          "name": "state",
          "type": "tuple"
        }
      ],
      "stateMutability": "view",
      "type": "function"
    },
    {
      "inputs": [
        {
          "internalType": "address",
          "name": "ark",
          "type": "address"
        },
        {
          "internalType": "address",
          "name": "rewardToken",
          "type": "address"
        },
        {
          "internalType": "bytes",
          "name": "data",
          "type": "bytes"
        }
      ],
      "name": "board",
      "outputs": [],
      "stateMutability": "nonpayable",
      "type": "function"
    },
    {
      "inputs": [
        {
          "internalType": "address",
          "name": "ark",
          "type": "address"
        },
        {
          "internalType": "address",
          "name": "rewardToken",
          "type": "address"
        },
        {
          "internalType": "uint256",
          "name": "amount",
          "type": "uint256"
        }
      ],
      "name": "buyTokens",
      "outputs": [
        {
          "internalType": "uint256",
          "name": "paymentAmount",
          "type": "uint256"
        }
      ],
      "stateMutability": "nonpayable",
      "type": "function"
    },
    {
      "inputs": [
        {
          "internalType": "address",
          "name": "ark",
          "type": "address"
        },
        {
          "internalType": "address",
          "name": "rewardToken",
          "type": "address"
        }
      ],
      "name": "finalizeAuction",
      "outputs": [],
      "stateMutability": "nonpayable",
      "type": "function"
    },
    {
      "inputs": [
        {
          "internalType": "enum ContractSpecificRoles",
          "name": "roleName",
          "type": "uint8"
        },
        {
          "internalType": "address",
          "name": "roleTargetContract",
          "type": "address"
        }
      ],
      "name": "generateRole",
      "outputs": [
        {
          "internalType": "bytes32",
          "name": "",
          "type": "bytes32"
        }
      ],
      "stateMutability": "pure",
      "type": "function"
    },
    {
      "inputs": [
        {
          "internalType": "address",
          "name": "ark",
          "type": "address"
        },
        {
          "internalType": "address",
          "name": "rewardToken",
          "type": "address"
        }
      ],
      "name": "getAuctionInfo",
      "outputs": [
        {
          "components": [
            {
              "components": [
                {
                  "internalType": "contract IERC20",
                  "name": "auctionToken",
                  "type": "address"
                },
                {
                  "internalType": "contract IERC20",
                  "name": "paymentToken",
                  "type": "address"
                },
                {
                  "internalType": "uint40",
                  "name": "startTime",
                  "type": "uint40"
                },
                {
                  "internalType": "uint40",
                  "name": "endTime",
                  "type": "uint40"
                },
                {
                  "internalType": "uint8",
                  "name": "auctionTokenDecimals",
                  "type": "uint8"
                },
                {
                  "internalType": "uint8",
                  "name": "paymentTokenDecimals",
                  "type": "uint8"
                },
                {
                  "internalType": "address",
                  "name": "auctionKicker",
                  "type": "address"
                },
                {
                  "internalType": "address",
                  "name": "unsoldTokensRecipient",
                  "type": "address"
                },
                {
                  "internalType": "uint40",
                  "name": "id",
                  "type": "uint40"
                },
                {
                  "internalType": "enum DecayFunctions.DecayType",
                  "name": "decayType",
                  "type": "uint8"
                },
                {
                  "internalType": "uint256",
                  "name": "startPrice",
                  "type": "uint256"
                },
                {
                  "internalType": "uint256",
                  "name": "endPrice",
                  "type": "uint256"
                },
                {
                  "internalType": "uint256",
                  "name": "totalTokens",
                  "type": "uint256"
                },
                {
                  "internalType": "uint256",
                  "name": "kickerRewardAmount",
                  "type": "uint256"
                }
              ],
              "internalType": "struct DutchAuctionLibrary.AuctionConfig",
              "name": "config",
              "type": "tuple"
            },
            {
              "components": [
                {
                  "internalType": "uint256",
                  "name": "remainingTokens",
                  "type": "uint256"
                },
                {
                  "internalType": "bool",
                  "name": "isFinalized",
                  "type": "bool"
                }
              ],
              "internalType": "struct DutchAuctionLibrary.AuctionState",
              "name": "state",
              "type": "tuple"
            }
          ],
          "internalType": "struct DutchAuctionLibrary.Auction",
          "name": "",
          "type": "tuple"
        }
      ],
      "stateMutability": "view",
      "type": "function"
    },
    {
      "inputs": [
        {
          "internalType": "address",
          "name": "ark",
          "type": "address"
        },
        {
          "internalType": "address",
          "name": "rewardToken",
          "type": "address"
        }
      ],
      "name": "getCurrentPrice",
      "outputs": [
        {
          "internalType": "uint256",
          "name": "",
          "type": "uint256"
        }
      ],
      "stateMutability": "view",
      "type": "function"
    },
    {
      "inputs": [
        {
          "internalType": "address",
          "name": "ark",
          "type": "address"
        },
        {
          "internalType": "address",
          "name": "rewardToken",
          "type": "address"
        }
      ],
      "name": "getObtainedTokens",
      "outputs": [
        {
          "internalType": "uint256",
          "name": "",
          "type": "uint256"
        }
      ],
      "stateMutability": "view",
      "type": "function"
    },
    {
      "inputs": [
        {
          "internalType": "address",
          "name": "ark",
          "type": "address"
        },
        {
          "internalType": "bytes",
          "name": "rewardData",
          "type": "bytes"
        }
      ],
      "name": "harvest",
      "outputs": [],
      "stateMutability": "nonpayable",
      "type": "function"
    },
    {
      "inputs": [
        {
          "internalType": "address",
          "name": "ark",
          "type": "address"
        },
        {
          "internalType": "address",
          "name": "paymentToken",
          "type": "address"
        },
        {
          "internalType": "bytes",
          "name": "rewardData",
          "type": "bytes"
        }
      ],
      "name": "harvestAndStartAuction",
      "outputs": [],
      "stateMutability": "nonpayable",
      "type": "function"
    },
    {
      "inputs": [],
      "name": "nextAuctionId",
      "outputs": [
        {
          "internalType": "uint256",
          "name": "",
          "type": "uint256"
        }
      ],
      "stateMutability": "view",
      "type": "function"
    },
    {
      "inputs": [
        {
          "internalType": "address",
          "name": "ark",
          "type": "address"
        },
        {
          "internalType": "address",
          "name": "rewardToken",
          "type": "address"
        }
      ],
      "name": "obtainedTokens",
      "outputs": [
        {
          "internalType": "uint256",
          "name": "harvestedAmount",
          "type": "uint256"
        }
      ],
      "stateMutability": "view",
      "type": "function"
    },
    {
      "inputs": [
        {
          "internalType": "address",
          "name": "ark",
          "type": "address"
        },
        {
          "internalType": "address",
          "name": "rewardToken",
          "type": "address"
        }
      ],
      "name": "paymentTokensToBoard",
      "outputs": [
        {
          "internalType": "uint256",
          "name": "paymentTokensToBoard",
          "type": "uint256"
        }
      ],
      "stateMutability": "view",
      "type": "function"
    },
    {
      "inputs": [
        {
          "internalType": "address",
          "name": "ark",
          "type": "address"
        },
        {
          "internalType": "address",
          "name": "rewardToken",
          "type": "address"
        },
        {
          "internalType": "address",
          "name": "paymentToken",
          "type": "address"
        }
      ],
      "name": "startAuction",
      "outputs": [],
      "stateMutability": "nonpayable",
      "type": "function"
    },
    {
      "inputs": [
        {
          "internalType": "address",
          "name": "ark",
          "type": "address"
        },
        {
          "internalType": "address[]",
          "name": "tokens",
          "type": "address[]"
        }
      ],
      "name": "sweep",
      "outputs": [
        {
          "internalType": "address[]",
          "name": "sweptTokens",
          "type": "address[]"
        },
        {
          "internalType": "uint256[]",
          "name": "sweptAmounts",
          "type": "uint256[]"
        }
      ],
      "stateMutability": "nonpayable",
      "type": "function"
    },
    {
      "inputs": [
        {
          "internalType": "address",
          "name": "ark",
          "type": "address"
        },
        {
          "internalType": "address[]",
          "name": "tokens",
          "type": "address[]"
        },
        {
          "internalType": "address",
          "name": "paymentToken",
          "type": "address"
        }
      ],
      "name": "sweepAndStartAuction",
      "outputs": [],
      "stateMutability": "nonpayable",
      "type": "function"
    },
    {
      "inputs": [
        {
          "internalType": "address",
          "name": "ark",
          "type": "address"
        },
        {
          "internalType": "address",
          "name": "rewardToken",
          "type": "address"
        }
      ],
      "name": "unsoldTokens",
      "outputs": [
        {
          "internalType": "uint256",
          "name": "remainingTokens",
          "type": "uint256"
        }
      ],
      "stateMutability": "view",
      "type": "function"
    },
    {
      "inputs": [
        {
          "components": [
            {
              "internalType": "uint40",
              "name": "duration",
              "type": "uint40"
            },
            {
              "internalType": "uint256",
              "name": "startPrice",
              "type": "uint256"
            },
            {
              "internalType": "uint256",
              "name": "endPrice",
              "type": "uint256"
            },
            {
              "internalType": "Percentage",
              "name": "kickerRewardPercentage",
              "type": "uint256"
            },
            {
              "internalType": "enum DecayFunctions.DecayType",
              "name": "decayType",
              "type": "uint8"
            }
          ],
          "internalType": "struct AuctionDefaultParameters",
          "name": "newConfig",
          "type": "tuple"
        }
      ],
      "name": "updateAuctionDefaultParameters",
      "outputs": [],
      "stateMutability": "nonpayable",
      "type": "function"
    }
  ],
  "bytecode": "0x608080604052346101a857806128c0803803809161001d82856101e6565b83398101039060c082126101a85780516001600160a01b03811692908390036101a85760a090601f1901126101a85760405160a081016001600160401b038111828210176101d257604052602082015164ffffffffff811681036101a85781526040820151602082019081526060830151916040810192835260a06080850151946060830195865201519460028610156101a8576080820195865280156101bf576040516301ffc9a760e01b815263a237592160e01b6004820152602081602481855afa9081156101b4575f91610175575b5015610163579064ffffffffff9160018060a01b03195f5416175f55511664ffffffffff19600154161760015551600255516003555160045551600281101561014f5760ff8019600554169116176005556040516126b6908161020a8239f35b634e487b7160e01b5f52602160045260245ffd5b6347bd7c1d60e01b5f5260045260245ffd5b90506020813d6020116101ac575b81610190602093836101e6565b810103126101a8575180151581036101a8575f6100ef565b5f80fd5b3d9150610183565b6040513d5f823e3d90fd5b6347bd7c1d60e01b5f525f60045260245ffd5b634e487b7160e01b5f52604160045260245ffd5b601f909101601f19168101906001600160401b038211908210176101d25760405256fe60806040526004361015610011575f80fd5b5f3560e01c80631824294114610ee85780633beef0ce14610e98578063672d226414610e2057806369b3054b14610db95780636e91edf8146100ea5780637399bfe814610d775780638a179be414610cac5780638dc385a314610b02578063953790b1146109f25780639b05e3c314610928578063a11a912114610796578063a30215e114610746578063b3924cd0146106bf578063c2f8b5261461066e578063d526b80b1461052d578063db16a55514610431578063dcefa5381461015b578063fc5284821461013e5763fe7f25b4146100ea575f80fd5b3461013a57604036600319011261013a57610103610f6d565b61010b610f83565b6001600160a01b039182165f908152600760209081526040808320949093168252928352819020549051908152f35b5f80fd5b3461013a575f36600319011261013a576020600654604051908152f35b3461013a57606036600319011261013a57610174610f6d565b61017c610f83565b6001600160a01b038281165f818152600860209081526040808320858716845290915290208054919460443594919390921615610422576008830160ff6009850154166104015760018401549564ffffffffff8760c81c164210156103e0578154958681116103d1576101ee86611307565b9761020564ffffffffff60408b51015116426120de565b98805164ffffffffff6040816060840151169201511690039964ffffffffff8b116103bd57610120825101519160028310156103a95760209b6102e79361026c9364ffffffffff935161014081015160ff60a06101608401519301511695869516936121dc565b916102a6846102a08360f81c61029b6102858289612335565b61029560ff8860f01c1686612335565b90612449565b61237d565b9b6120de565b86556040516323b872dd60e01b8c82015233602482015230604482015260648082018c90528152906102d9608483611006565b6001600160a01b03166123ae565b86546102ff90839033906001600160a01b031661219b565b64ffffffffff600388015460a01c1690604051928352898301527fe8d7e55108ae7ddb60173461d2950c7a8e22a7ac7f442825564fe84c8c6f9a3860403393a381541561039b575b5f52600a865260405f2060018060a01b0383165f52865260405f2061036d8682546113c1565b90555415610381575b505050604051908152f35b61038d61039393611307565b9161201e565b828080610376565b6103a48561210b565b610347565b634e487b7160e01b5f52602160045260245ffd5b634e487b7160e01b5f52601160045260245ffd5b632783839d60e01b5f5260045ffd5b64ffffffffff600386015460a01c1663aff5aad960e01b5f5260045260245ffd5b64ffffffffff600385015460a01c1663d9e3dd8360e01b5f5260045260245ffd5b6307145c5f60e11b5f5260045ffd5b3461013a57604036600319011261013a5761044a610f6d565b610452610f83565b9060018060a01b03165f52600860205260405f209060018060a01b03165f5260205261048060405f20611307565b6104b96020604051926370d8532160e11b84526104a160048501825161112f565b015180516101c48401526020015115156101e4830152565b6020816102048173__$b8c3546f85ba417973fa0ec6511a339d39$__5af48015610522575f906104ef575b602090604051908152f35b506020813d60201161051a575b8161050960209383611006565b8101031261013a57602090516104e4565b3d91506104fc565b6040513d5f823e3d90fd5b3461013a5761053b36611261565b5f54604051630ccc574960e41b81526001600160a01b0390911690602081600481855afa908115610522575f9161063a575b50604051632474521560e21b815260048101919091523360248201529060209082908180604481015b03915afa908115610522575f91610600575b50156105ed576105b89184611c7d565b505f5b81518110156105eb576001906105e5846001600160a01b036105dd84876112b7565b5116876116e7565b016105bb565b005b630ea7d7ed60e21b5f523360045260245ffd5b90506020813d602011610632575b8161061b60209383611006565b8101031261013a5761062c906112df565b856105a8565b3d915061060e565b90506020813d602011610666575b8161065560209383611006565b8101031261013a575161059661056d565b3d9150610648565b3461013a575f36600319011261013a5760a064ffffffffff600154166106bd6002546003546004549060ff60055416926040519586526020860152604085015260608401526080830190611122565bf35b3461013a57604036600319011261013a576106d8610f6d565b6106e0610f83565b906106e9611333565b5060018060a01b03165f52600860205260405f209060018060a01b03165f5260205261020061071a60405f20611307565b6106bd60206040519261072e84825161112f565b015180516101c08401526020015115156101e0830152565b3461013a57604036600319011261013a5761075f610f6d565b610767610f83565b6001600160a01b039182165f908152600a60209081526040808320949093168252928352819020549051908152f35b3461013a5760a036600319011261013a575f54604051630ccc574960e41b81526001600160a01b0390911690602081600481855afa908115610522575f916108f4575b50604051632474521560e21b815260048101919091523360248201529060209082908180604481015b03915afa908115610522575f916108ba575b50156105ed5760043564ffffffffff811680910361013a578064ffffffffff196001541617600155602435908160025560443590816003556064359283600455608435600281101561013a577fe9d5a90069e830741fa6df4fbb146dc3c0918e85d57eb372c70e743198179c799460a0946108b79360ff196005541660ff8516176005556040519586526020860152604085015260608401526080830190611122565ba1005b90506020813d6020116108ec575b816108d560209383611006565b8101031261013a576108e6906112df565b81610814565b3d91506108c8565b90506020813d602011610920575b8161090f60209383611006565b8101031261013a57516108026107d9565b3d9150610902565b3461013a57604036600319011261013a57610941610f6d565b610949610f83565b6001600160a01b038083165f9081526008602090815260408083208486168452909152902080549093929116156104225760ff6009840154166109d15764ffffffffff600184015460c81c1642106109b05761038d836109ab6105eb9561210b565b611307565b64ffffffffff600384015460a01c1663e30e8d4760e01b5f5260045260245ffd5b64ffffffffff600384015460a01c1663d9e3dd8360e01b5f5260045260245ffd5b3461013a57606036600319011261013a57610a0b610f6d565b610a13610f83565b610a1b610f99565b9060018060a01b035f5416604051630ccc574960e41b8152602081600481855afa908115610522575f91610ace575b50604051632474521560e21b815260048101919091523360248201529060209082908180604481015b03915afa908115610522575f91610a94575b50156105ed576105eb926116e7565b90506020813d602011610ac6575b81610aaf60209383611006565b8101031261013a57610ac0906112df565b84610a85565b3d9150610aa2565b90506020813d602011610afa575b81610ae960209383611006565b8101031261013a5751610a73610a4a565b3d9150610adc565b3461013a57610b1036611261565b9160018060a09593951b035f5416604051630ccc574960e41b8152602081600481855afa908115610522575f91610c78575b50604051632474521560e21b815260048101919091523360248201529060209082908180604481015b03915afa908115610522575f91610c3e575b50156105ed5760405163303dbaf360e01b81526001600160a01b03831690602081600481855afa908115610522575f91610c04575b5015610bf25750610bc2836112ec565b92610bd06040519485611006565b808452368186011161013a576020815f926105eb978388013785010152611dfd565b63b616b3c160e01b5f5260045260245ffd5b90506020813d602011610c36575b81610c1f60209383611006565b8101031261013a57610c30906112df565b86610bb2565b3d9150610c12565b90506020813d602011610c70575b81610c5960209383611006565b8101031261013a57610c6a906112df565b85610b7d565b3d9150610c4c565b90506020813d602011610ca4575b81610c9360209383611006565b8101031261013a5751610b6b610b42565b3d9150610c86565b3461013a57604036600319011261013a57610cc5610f6d565b602435906001600160401b03821161013a57610ce8610cee923690600401611204565b916114ed565b90604051918291604083016040845281518091526020606085019201905f5b818110610d55575050508281036020840152602080835192838152019201905f5b818110610d3c575050500390f35b8251845285945060209384019390920191600101610d2e565b82516001600160a01b0316845286955060209384019390920191600101610d0d565b3461013a57604036600319011261013a57610d90610f6d565b602435906001600160401b03821161013a57610db36105eb923690600401611234565b91611c7d565b3461013a57604036600319011261013a57600435600381101561013a57602090610de1610f83565b604051908382019260f81b83526bffffffffffffffffffffffff199060601b16602182015260158152610e15603582611006565b519020604051908152f35b3461013a57606036600319011261013a57610e39610f6d565b6024356001600160401b03811161013a57610e5b610e6d913690600401611204565b610e66929192610f99565b92846114ed565b505f5b81518110156105eb57600190610e92846001600160a01b036105dd84876112b7565b01610e70565b3461013a57604036600319011261013a57610eb1610f6d565b610eb9610f83565b6001600160a01b039182165f908152600960209081526040808320949093168252928352819020549051908152f35b3461013a57604036600319011261013a57610f01610f6d565b610f09610f83565b9060018060a01b03165f52600860205260405f209060018060a01b03165f5260205261020060405f206106bd610f4a6008610f4384611027565b93016110ff565b610f57604051809461112f565b80516101c08401526020015115156101e0830152565b600435906001600160a01b038216820361013a57565b602435906001600160a01b038216820361013a57565b604435906001600160a01b038216820361013a57565b60028210156103a95752565b6101c081019081106001600160401b03821117610fd757604052565b634e487b7160e01b5f52604160045260245ffd5b604081019081106001600160401b03821117610fd757604052565b90601f801991011681019081106001600160401b03821117610fd757604052565b9060405161103481610fbb565b6101a06007829460018060a01b038154168452600181015460018060a01b038116602086015264ffffffffff8160a01c16604086015264ffffffffff8160c81c16606086015260ff8160f01c16608086015260f81c60a085015260018060a01b0360028201541660c08501526110d760ff600383015460018060a01b03811660e088015264ffffffffff8160a01c1661010088015260c81c166101208601610faf565b6004810154610140850152600581015461016085015260068101546101808501520154910152565b9060405161110c81610feb565b602060ff60018395805485520154161515910152565b9060028210156103a95752565b6101a0809160018060a01b03815116845260018060a01b03602082015116602085015264ffffffffff604082015116604085015264ffffffffff606082015116606085015260ff608082015116608085015260ff60a08201511660a085015260018060a01b0360c08201511660c085015260018060a01b0360e08201511660e085015264ffffffffff610100820151166101008501526111d9610120820151610120860190611122565b6101408101516101408501526101608101516101608501526101808101516101808501520151910152565b9181601f8401121561013a578235916001600160401b03831161013a576020808501948460051b01011161013a57565b9181601f8401121561013a578235916001600160401b03831161013a576020838186019501011161013a57565b606060031982011261013a576004356001600160a01b038116810361013a57916024356001600160a01b038116810361013a5791604435906001600160401b03821161013a576112b391600401611234565b9091565b80518210156112cb5760209160051b010190565b634e487b7160e01b5f52603260045260245ffd5b5190811515820361013a57565b6001600160401b038111610fd757601f01601f191660200190565b9060405161131481610feb565b602061132e6008839561132681611027565b8552016110ff565b910152565b6040519061134082610feb565b8160405161134d81610fbb565b5f81525f60208201525f60408201525f60608201525f60808201525f60a08201525f60c08201525f60e08201525f6101008201525f6101208201525f6101408201525f6101608201525f6101808201525f6101a082015281526020604051916113b583610feb565b5f83525f828401520152565b919082018092116103bd57565b6001600160401b038111610fd75760051b60200190565b51906001600160a01b038216820361013a57565b919060408382031261013a5782516001600160401b03811161013a57830181601f8201121561013a5780519061142e826113ce565b9161143c6040519384611006565b80835260208084019160051b8301019184831161013a57602001905b8282106114d557505050926020810151906001600160401b03821161013a57019080601f8301121561013a57815161148f816113ce565b9261149d6040519485611006565b81845260208085019260051b82010192831161013a57602001905b8282106114c55750505090565b81518152602091820191016114b8565b602080916114e2846113e5565b815201910190611458565b5f54604051630ccc574960e41b81529394936001600160a01b0390911690602081600481855afa908115610522575f916116b3575b50604051632474521560e21b815260048101919091523360248201529060209082908180604481015b03915afa908115610522575f91611679575b50156105ed5760405163780469bb60e01b81526020600482015260248101859052936001600160a01b03919091169184916044830191905f905b8082106116445750505090805f92038183855af1928315610522575f905f9461161d575b505f5b815181101561161657806115d4600192876112b7565b51845f52600760205260405f20838060a01b036115f184876112b7565b5116848060a01b03165f5260205261160e60405f209182546113c1565b9055016115be565b5090509190565b905061163c9193503d805f833e6116348183611006565b8101906113f9565b92905f6115bb565b919350918335906001600160a01b038216820361013a5760208091600193848060a01b03168152019401920186939291611597565b90506020813d6020116116ab575b8161169460209383611006565b8101031261013a576116a5906112df565b5f61155d565b3d9150611687565b90506020813d6020116116df575b816116ce60209383611006565b8101031261013a575161154b611522565b3d91506116c1565b6001600160a01b039081165f81815260086020908152604080832085871684529091529020805493949391929190911615159081611c6d575b50611c4e575f8181526007602090815260408083206001600160a01b0387168085529083528184205485855260098452828520918552925290912054611765916113c1565b6001600160a01b0390931692611779611333565b506006545f1981146103bd57600101928360065564ffffffffff600154169060025490600354926004549060ff6005541694604051986101608a018a81106001600160401b03821117610fd757604052895260208901948a865260408a0194600160a01b6001900316855260608a0192835260808a0190815260a08a0191825260c08a019288845260e08b019485526101008b01953387526101208c01973089526101408d019961182a908b610faf565b604051631bd590b960e11b81529c5160048e0152516001600160a01b0390811660248e01529051811660448d0152905164ffffffffff1660648c0152905160848b0152905160a48a0152905160c4890152905160e488015290518116610104870152905116610124850152516118a590610144850190611122565b828073__$b8c3546f85ba417973fa0ec6511a339d39$__5a926101649161020094f4928315610522575f93611ae2575b505f8281526008602090815260408083208784528252918290208551805182546001600160a01b0319166001600160a01b0391821617835592810151600183018054958301516001600160c81b0319909616919094161760a09490941b64ffffffffff60a01b1693909317825595919060608201518154608084015160a0808601516001600160c81b0390931660c89490941b64ffffffffff60c81b169390931760f09190911b60ff60f01b161760f89190911b6001600160f81b0319161790915560c08201516002880180546001600160a01b0319166001600160a01b0392831617905560e08301516003890180546101008601516001600160c81b031990911692909316919091179190921b64ffffffffff60a01b161781556101208201519560028710156103a9577f5b66543d3d25b638d45065504e7ba2610119c2ce1a07781059cd1dfd67f483c6976101a064ffffffffff946101009460809a81549060ff60c81b9060c81b169060ff60c81b1916179055610140810151600484015561016081015160058401556101808101516006840155015160078201556020600981840151928351600882015501910151151560ff80198354169116179055855f52600760205260405f20845f526020525f6040812055855f52600960205260405f20845f526020525f60408120555101511692604051938452602084015260408301526060820152a1565b809193506102003d8111611c47575b611afb8183611006565b81010390610200821261013a5760405191611b1583610feb565b6101c0811261013a5760405190611b2b82610fbb565b611b34836113e5565b8252611b42602084016113e5565b6020830152611b53604084016120eb565b6040830152611b64606084016120eb565b6060830152611b75608084016120fd565b6080830152611b8660a084016120fd565b60a0830152611b9760c084016113e5565b60c0830152611ba860e084016113e5565b60e0830152611bba61010084016120eb565b61010083015261012083015191600283101561013a576040926101208201526101408401516101408201526101608401516101608201526101808401516101808201526101a08401516101a082015284526101bf19011261013a57611c366101e060405192611c2884610feb565b6101c08101518452016112df565b60208201526020820152915f6118d5565b503d611af1565b905063ef83e9dd60e01b5f5260045260018060a01b031660245260445ffd5b60ff91506009015416155f611720565b60405163ce5c7f6160e01b8152602060048201526024810184905293926001600160a01b03909116915f91859160449183918190838501378181018301859052601f01601f1916810103018183855af1928315610522575f905f94611dde575b508381945f5b8351811015611d3b5780611cf9600192856112b7565b51865f52600760205260405f20838060a01b03611d1684896112b7565b5116848060a01b03165f52602052611d3360405f209182546113c1565b905501611ce3565b509392916040518091829160208251919201905f5b818110611dbc57505050039020906040518091829160208251919201905f5b818110611da357505050039020917ff7904a549ceee39edb99c75ebe3dd4fef55faded4684ab7963232e23fcfd3f4c5f80a4565b8251845285945060209384019390920191600101611d6f565b82516001600160a01b0316845285945060209384019390920191600101611d50565b9050611df59193503d805f833e6116348183611006565b92905f611cdd565b6001600160a01b038083165f8181526008602090815260408083208587168452825282209196949592949391611e3290611307565b5101511691835f52600a60205260405f2060018060a01b0386165f5260205260405f20549182611e66575b50505050505050565b60405163303dbaf360e01b815290602082600481895afa918215610522578492611fda575b5060405163095ea7b360e01b81526001600160a01b039091166004820152602481019190915260208180604481015b03815f885af1801561052257611fa3575b50833b1561013a575f602091606460405180948193632db6d39960e01b8352876004840152604060248401528051918291826044860152018484015e8181018301859052601f01601f1916810103018183885af1801561052257611f8e575b506040519081526001600160a01b0384169083907f902a3a8d6e4938f8d990a89084a4ac52bd8d18e234aba1615f333643282fca9890602090a48252600a602052604082209060018060a01b03165f5260205260405f20555f808080808080611e5d565b611f9b9195505f90611006565b5f935f611f2a565b6020813d602011611fd2575b81611fbc60209383611006565b8101031261013a57611fcd906112df565b611ecb565b3d9150611faf565b91506020823d602011612016575b81611ff560209383611006565b8101031261013a578360209161200d611eba946112df565b50915091611e8b565b3d9150611fe8565b9160208060049201515160018060a01b03851690815f526009835260405f2060018060a01b0386165f52835261205960405f209182546113c1565b905560405163303dbaf360e01b815292839182905afa908115610522575f916120a4575b5015612087575050565b6120a2916040519161209a602084611006565b5f8352611dfd565b565b90506020813d6020116120d6575b816120bf60209383611006565b8101031261013a576120d0906112df565b5f61207d565b3d91506120b2565b919082039182116103bd57565b519064ffffffffff8216820361013a57565b519060ff8216820361013a57565b7fd11fb103f8d5c913b9e132f165c0cfa304fc230f10796a7a5d63bc3d8de4d3c36040600683015464ffffffffff6003600886019561214c875480956120de565b60098201805460ff191660011790559380612178575b50015460a01c16935482519182526020820152a2565b81548383015461219592916001600160a01b03918216911661219b565b5f612162565b60405163a9059cbb60e01b60208201526001600160a01b039290921660248301526044808301939093529181526120a2916121d7606483611006565b6123ae565b959495939193828410156122c55760028110156103a9578061224b57509161223d6122429261223761223161222b6122258b61221f6122489d61029b9c9b612335565b99612335565b886120de565b946124de565b916124de565b92612449565b612564565b906120de565b90565b91939290916001036122b65761223d61029b946122376122aa6122a461229e61229961229261228b8e6122489f612285906122b09d612335565b9c612335565b809b6120de565b97866120de565b6124de565b936124de565b9261251d565b9161251d565b906113c1565b6346b2fddf60e11b5f5260045ffd5b5050505091505090565b60ff6011199116019060ff82116103bd57565b60ff166012039060ff82116103bd57565b60ff16604d81116103bd57600a0a90565b811561230e570490565b634e487b7160e01b5f52601260045260245ffd5b818102929181159184041417156103bd57565b60ff821660128114612377576012106123625761235c612357612248936122e2565b6122f3565b90612322565b612371612357612248936122cf565b90612304565b50905090565b60ff8216601281146123775760121061239f57612371612357612248936122e2565b61235c612357612248936122cf565b5f806123f69260018060a01b03169360208151910182865af13d15612441573d906123d8826112ec565b916123e66040519384611006565b82523d5f602084013e5b83612622565b805190811515918261241e575b505061240c5750565b635274afe760e01b5f5260045260245ffd5b819250906020918101031261013a57602061243991016112df565b155f80612403565b6060906123f0565b9091905f19838209838202918280831092039180830392146124cd57670de0b6b3a76400008210156124b6577faccb18165bd6fe31ae1cf318dc5b51eee0e1ba569b88cd74c1773b91fac106699394670de0b6b3a7640000910990828211900360ee1b910360121c170290565b8490635173648d60e01b5f5260045260245260445ffd5b5050670de0b6b3a764000090049150565b7812725dd1d243aba0e75fe645cc4873f9e65afe688c928e1f21811161250b57670de0b6b3a76400000290565b631cd951a760e01b5f5260045260245ffd5b670de0b6b3a764000090600190815b61253557505090565b8061253f91612449565b9060018116612553575b60011c908161252c565b918161255e91612449565b91612549565b5f19670de0b6b3a7640000820991670de0b6b3a764000082029182808510940393808503941461261657818410156125f557670de0b6b3a7640000829109600182190182168092046002816003021880820260020302808202600203028082026002030280820260020302808202600203028091026002030293600183805f03040190848311900302920304170290565b630c740aef60e31b5f52600452670de0b6b3a764000060245260445260645ffd5b50906122489250612304565b90612646575080511561263757805190602001fd5b630a12f52160e11b5f5260045ffd5b81511580612677575b612657575090565b639996b31560e01b5f9081526001600160a01b0391909116600452602490fd5b50803b1561264f56fea26469706673582212201035e293de1ca8108fc648e606c38e0ad226de4729b82e807b440cd383d96e6664736f6c634300081b0033",
  "linkReferences": {
    "@summerfi/dutch-auction/src/DutchAuctionLibrary.sol": {
      "DutchAuctionLibrary": [
        {
          "length": 20,
          "start": 1740
        },
        {
          "length": 20,
          "start": 6835
        }
      ]
    }
  },
  "deployedLinkReferences": {
    "@summerfi/dutch-auction/src/DutchAuctionLibrary.sol": {
      "DutchAuctionLibrary": [
        {
          "length": 20,
          "start": 1218
        },
        {
          "length": 20,
          "start": 6313
        }
      ]
    }
  }
}