{
  "_format": "hh-sol-artifact-1",
  "contractName": "HarborCommand",
  "sourceName": "src/contracts/HarborCommand.sol",
  "abi": [
    {
      "inputs": [
        {
          "internalType": "address",
          "name": "_accessManager",
          "type": "address"
        }
      ],
      "stateMutability": "nonpayable",
      "type": "constructor"
    },
    {
      "inputs": [
        {
          "internalType": "address",
          "name": "caller",
          "type": "address"
        }
      ],
      "name": "CallerIsNotAdmin",
      "type": "error"
    },
    {
      "inputs": [
        {
          "internalType": "address",
          "name": "caller",
          "type": "address"
        }
      ],
      "name": "CallerIsNotAuthorizedToBoard",
      "type": "error"
    },
    {
      "inputs": [
        {
          "internalType": "address",
          "name": "caller",
          "type": "address"
        }
      ],
      "name": "CallerIsNotCommander",
      "type": "error"
    },
    {
      "inputs": [
        {
          "internalType": "address",
          "name": "caller",
          "type": "address"
        },
        {
          "internalType": "bytes32",
          "name": "role",
          "type": "bytes32"
        }
      ],
      "name": "CallerIsNotContractSpecificRole",
      "type": "error"
    },
    {
      "inputs": [
        {
          "internalType": "address",
          "name": "caller",
          "type": "address"
        }
      ],
      "name": "CallerIsNotCurator",
      "type": "error"
    },
    {
      "inputs": [
        {
          "internalType": "address",
          "name": "caller",
          "type": "address"
        }
      ],
      "name": "CallerIsNotDecayController",
      "type": "error"
    },
    {
      "inputs": [
        {
          "internalType": "address",
          "name": "caller",
          "type": "address"
        }
      ],
      "name": "CallerIsNotGovernor",
      "type": "error"
    },
    {
      "inputs": [
        {
          "internalType": "address",
          "name": "caller",
          "type": "address"
        }
      ],
      "name": "CallerIsNotGuardian",
      "type": "error"
    },
    {
      "inputs": [
        {
          "internalType": "address",
          "name": "caller",
          "type": "address"
        }
      ],
      "name": "CallerIsNotGuardianOrGovernor",
      "type": "error"
    },
    {
      "inputs": [
        {
          "internalType": "address",
          "name": "caller",
          "type": "address"
        }
      ],
      "name": "CallerIsNotKeeper",
      "type": "error"
    },
    {
      "inputs": [
        {
          "internalType": "address",
          "name": "caller",
          "type": "address"
        }
      ],
      "name": "CallerIsNotRaft",
      "type": "error"
    },
    {
      "inputs": [
        {
          "internalType": "address",
          "name": "caller",
          "type": "address"
        }
      ],
      "name": "CallerIsNotRaftOrCommander",
      "type": "error"
    },
    {
      "inputs": [
        {
          "internalType": "address",
          "name": "caller",
          "type": "address"
        }
      ],
      "name": "CallerIsNotSuperKeeper",
      "type": "error"
    },
    {
      "inputs": [
        {
          "internalType": "address",
          "name": "caller",
          "type": "address"
        }
      ],
      "name": "DirectGrantIsDisabled",
      "type": "error"
    },
    {
      "inputs": [
        {
          "internalType": "address",
          "name": "caller",
          "type": "address"
        }
      ],
      "name": "DirectRevokeIsDisabled",
      "type": "error"
    },
    {
      "inputs": [
        {
          "internalType": "address",
          "name": "fleetCommander",
          "type": "address"
        }
      ],
      "name": "FleetCommanderAlreadyEnlisted",
      "type": "error"
    },
    {
      "inputs": [
        {
          "internalType": "address",
          "name": "fleetCommander",
          "type": "address"
        }
      ],
      "name": "FleetCommanderNotEnlisted",
      "type": "error"
    },
    {
      "inputs": [
        {
          "internalType": "address",
          "name": "invalidAddress",
          "type": "address"
        }
      ],
      "name": "InvalidAccessManagerAddress",
      "type": "error"
    },
    {
      "anonymous": false,
      "inputs": [
        {
          "indexed": true,
          "internalType": "address",
          "name": "fleetCommander",
          "type": "address"
        }
      ],
      "name": "FleetCommanderDecommissioned",
      "type": "event"
    },
    {
      "anonymous": false,
      "inputs": [
        {
          "indexed": true,
          "internalType": "address",
          "name": "fleetCommander",
          "type": "address"
        }
      ],
      "name": "FleetCommanderEnlisted",
      "type": "event"
    },
    {
      "inputs": [
        {
          "internalType": "address",
          "name": "_fleetCommander",
          "type": "address"
        }
      ],
      "name": "activeFleetCommanders",
      "outputs": [
        {
          "internalType": "bool",
          "name": "",
          "type": "bool"
        }
      ],
      "stateMutability": "view",
      "type": "function"
    },
    {
      "inputs": [
        {
          "internalType": "address",
          "name": "_fleetCommander",
          "type": "address"
        }
      ],
      "name": "decommissionFleetCommander",
      "outputs": [],
      "stateMutability": "nonpayable",
      "type": "function"
    },
    {
      "inputs": [
        {
          "internalType": "address",
          "name": "_fleetCommander",
          "type": "address"
        }
      ],
      "name": "enlistFleetCommander",
      "outputs": [],
      "stateMutability": "nonpayable",
      "type": "function"
    },
    {
      "inputs": [
        {
          "internalType": "uint256",
          "name": "index",
          "type": "uint256"
        }
      ],
      "name": "fleetCommandersList",
      "outputs": [
        {
          "internalType": "address",
          "name": "",
          "type": "address"
        }
      ],
      "stateMutability": "view",
      "type": "function"
    },
    {
      "inputs": [
        {
          "internalType": "enum ContractSpecificRoles",
          "name": "roleName",
          "type": "uint8"
        },
        {
          "internalType": "address",
          "name": "roleTargetContract",
          "type": "address"
        }
      ],
      "name": "generateRole",
      "outputs": [
        {
          "internalType": "bytes32",
          "name": "",
          "type": "bytes32"
        }
      ],
      "stateMutability": "pure",
      "type": "function"
    },
    {
      "inputs": [],
      "name": "getActiveFleetCommanders",
      "outputs": [
        {
          "internalType": "address[]",
          "name": "",
          "type": "address[]"
        }
      ],
      "stateMutability": "view",
      "type": "function"
    },
    {
      "inputs": [
        {
          "internalType": "address",
          "name": "account",
          "type": "address"
        }
      ],
      "name": "hasAdmiralsQuartersRole",
      "outputs": [
        {
          "internalType": "bool",
          "name": "",
          "type": "bool"
        }
      ],
      "stateMutability": "view",
      "type": "function"
    }
  ],
  "bytecode": "0x608080604052346100e0576020816108d9803803809161001f828561010a565b8339810103126100e057516001600160a01b038116908190036100e05780156100f7576040516301ffc9a760e01b81526338c7ccdb60e01b6004820152602081602481855afa9081156100ec575f916100ad575b501561009b575f80546001600160a01b03191691909117905560405161079790816101428239f35b6347bd7c1d60e01b5f5260045260245ffd5b90506020813d6020116100e4575b816100c86020938361010a565b810103126100e0575180151581036100e0575f610073565b5f80fd5b3d91506100bb565b6040513d5f823e3d90fd5b6347bd7c1d60e01b5f525f60045260245ffd5b601f909101601f19168101906001600160401b0382119082101761012d57604052565b634e487b7160e01b5f52604160045260245ffdfe6080806040526004361015610012575f80fd5b5f3560e01c908163588b97c7146104775750806369b3054b146104045780638e3d569314610396578063ab4ba0f7146102f4578063b912d58c146101b3578063e9d00d56146101795763ebc136d014610069575f80fd5b3461016d57602036600319011261016d576100826105a4565b5f5460405163a89f38a360e01b81526001600160a01b039091169190602081600481865afa908115610134575f9161013f575b50604051632474521560e21b815260048101919091526001600160a01b0390911660248201529060209082908180604481015b03915afa8015610134576020915f91610107575b506040519015158152f35b6101279150823d841161012d575b61011f81836105ba565b8101906105f0565b5f6100fc565b503d610115565b6040513d5f823e3d90fd5b9190506020823d602011610171575b8161015b602093836105ba565b8101031261016d5790516100e86100b5565b5f80fd5b3d915061014e565b3461016d57602036600319011261016d576001600160a01b0361019a6105a4565b165f526002602052602060405f20541515604051908152f35b3461016d57602036600319011261016d576101cc6105a4565b5f54604051630ccc574960e41b81526001600160a01b0390911690602081600481855afa908115610134575f916102c0575b50604051632474521560e21b815260048101919091523360248201529060209082908180604481015b03915afa908115610134575f916102a1575b501561028e576001600160a01b031661025181610688565b1561027c577f1e34673d1d14c032c95f75eeaf38870b6123c81b82b1ea97cccc7442d06ef6115f80a2005b630349cba160e61b5f5260045260245ffd5b630ea7d7ed60e21b5f523360045260245ffd5b6102ba915060203d60201161012d5761011f81836105ba565b82610239565b90506020813d6020116102ec575b816102db602093836105ba565b8101031261016d57516102276101fe565b3d91506102ce565b3461016d575f36600319011261016d576040518060206001549283815201809260015f5260205f20905f5b81811061038057505050816103359103826105ba565b604051918291602083019060208452518091526040830191905f5b81811061035e575050500390f35b82516001600160a01b0316845285945060209384019390920191600101610350565b825484526020909301926001928301920161031f565b3461016d57602036600319011261016d576004356001548110156103f05760015f527fb10e2d527612073b26eecdfd717e6a320cf44b4afac2b0732d9fcbe2b7fa0cf601546040516001600160a01b039091168152602090f35b634e487b7160e01b5f52603260045260245ffd5b3461016d57604036600319011261016d57600435600381101561016d57602435906001600160a01b038216820361016d57602091604051908382019260f81b83526bffffffffffffffffffffffff199060601b1660218201526015815261046c6035826105ba565b519020604051908152f35b3461016d57602036600319011261016d576104906105a4565b5f54630ccc574960e41b835290916001600160a01b0390911690602081600481855afa908115610134575f91610570575b50604051632474521560e21b815260048101919091523360248201529060209082908180604481015b03915afa908115610134575f91610551575b501561028e576001600160a01b03166105148161061d565b1561053f577f8962d9675f6e694d83eac853fc2c4cdac912219afd6e7aaa4f1ba35ff622af2f5f80a2005b63e12abecb60e01b5f5260045260245ffd5b61056a915060203d60201161012d5761011f81836105ba565b826104fc565b90506020813d60201161059c575b8161058b602093836105ba565b8101031261016d57516104ea6104c1565b3d915061057e565b600435906001600160a01b038216820361016d57565b90601f8019910116810190811067ffffffffffffffff8211176105dc57604052565b634e487b7160e01b5f52604160045260245ffd5b9081602091031261016d5751801515810361016d5790565b80548210156103f0575f5260205f2001905f90565b805f52600260205260405f2054155f1461068357600154600160401b8110156105dc5761066c6106568260018594016001556001610608565b819391549060031b91821b915f19901b19161790565b9055600154905f52600260205260405f2055600190565b505f90565b5f81815260026020526040902054801561075b575f198101818111610747576001545f198101919082116107475781810361070f575b50505060015480156106fb575f19016106d8816001610608565b8154905f199060031b1b191690556001555f5260026020525f6040812055600190565b634e487b7160e01b5f52603160045260245ffd5b610731610720610656936001610608565b90549060031b1c9283926001610608565b90555f52600260205260405f20555f80806106be565b634e487b7160e01b5f52601160045260245ffd5b50505f9056fea26469706673582212209afb682e37216160a27dd6181e3b736205a686ba90dfcd84cd73a5bc3acdd42864736f6c634300081c0033",
  "linkReferences": {},
  "deployedLinkReferences": {}
}