{
  "_format": "hh-sol-artifact-1",
  "contractName": "AdmiralsQuarters",
  "sourceName": "src/contracts/AdmiralsQuarters.sol",
  "abi": [
    {
      "inputs": [
        {
          "internalType": "address",
          "name": "_oneInchRouter",
          "type": "address"
        },
        {
          "internalType": "address",
          "name": "_configurationManager",
          "type": "address"
        }
      ],
      "stateMutability": "nonpayable",
      "type": "constructor"
    },
    {
      "inputs": [
        {
          "internalType": "address",
          "name": "target",
          "type": "address"
        }
      ],
      "name": "AddressEmptyCode",
      "type": "error"
    },
    {
      "inputs": [],
      "name": "AssetMismatch",
      "type": "error"
    },
    {
      "inputs": [],
      "name": "ConfigurationManagerZeroAddress",
      "type": "error"
    },
    {
      "inputs": [],
      "name": "FailedCall",
      "type": "error"
    },
    {
      "inputs": [],
      "name": "InsufficientOutputAmount",
      "type": "error"
    },
    {
      "inputs": [],
      "name": "InvalidFleetCommander",
      "type": "error"
    },
    {
      "inputs": [],
      "name": "InvalidRewardsManager",
      "type": "error"
    },
    {
      "inputs": [],
      "name": "InvalidRouterAddress",
      "type": "error"
    },
    {
      "inputs": [],
      "name": "InvalidToken",
      "type": "error"
    },
    {
      "inputs": [
        {
          "internalType": "address",
          "name": "owner",
          "type": "address"
        }
      ],
      "name": "OwnableInvalidOwner",
      "type": "error"
    },
    {
      "inputs": [
        {
          "internalType": "address",
          "name": "account",
          "type": "address"
        }
      ],
      "name": "OwnableUnauthorizedAccount",
      "type": "error"
    },
    {
      "inputs": [],
      "name": "ReentrancyGuard",
      "type": "error"
    },
    {
      "inputs": [],
      "name": "ReentrancyGuardReentrantCall",
      "type": "error"
    },
    {
      "inputs": [
        {
          "internalType": "address",
          "name": "token",
          "type": "address"
        }
      ],
      "name": "SafeERC20FailedOperation",
      "type": "error"
    },
    {
      "inputs": [],
      "name": "SwapAmountMismatch",
      "type": "error"
    },
    {
      "inputs": [],
      "name": "SwapFailed",
      "type": "error"
    },
    {
      "inputs": [],
      "name": "TokenMismatch",
      "type": "error"
    },
    {
      "inputs": [],
      "name": "UnsupportedSwapFunction",
      "type": "error"
    },
    {
      "inputs": [],
      "name": "ZeroAmount",
      "type": "error"
    },
    {
      "anonymous": false,
      "inputs": [
        {
          "indexed": true,
          "internalType": "address",
          "name": "user",
          "type": "address"
        },
        {
          "indexed": true,
          "internalType": "address",
          "name": "fleetCommander",
          "type": "address"
        },
        {
          "indexed": false,
          "internalType": "uint256",
          "name": "inputAmount",
          "type": "uint256"
        },
        {
          "indexed": false,
          "internalType": "uint256",
          "name": "sharesReceived",
          "type": "uint256"
        }
      ],
      "name": "FleetEntered",
      "type": "event"
    },
    {
      "anonymous": false,
      "inputs": [
        {
          "indexed": true,
          "internalType": "address",
          "name": "user",
          "type": "address"
        },
        {
          "indexed": true,
          "internalType": "address",
          "name": "fleetCommander",
          "type": "address"
        },
        {
          "indexed": false,
          "internalType": "uint256",
          "name": "withdrawnAmount",
          "type": "uint256"
        },
        {
          "indexed": false,
          "internalType": "uint256",
          "name": "outputAmount",
          "type": "uint256"
        }
      ],
      "name": "FleetExited",
      "type": "event"
    },
    {
      "anonymous": false,
      "inputs": [
        {
          "indexed": true,
          "internalType": "address",
          "name": "user",
          "type": "address"
        },
        {
          "indexed": true,
          "internalType": "address",
          "name": "fleetCommander",
          "type": "address"
        },
        {
          "indexed": false,
          "internalType": "uint256",
          "name": "amount",
          "type": "uint256"
        }
      ],
      "name": "FleetSharesStaked",
      "type": "event"
    },
    {
      "anonymous": false,
      "inputs": [
        {
          "indexed": true,
          "internalType": "address",
          "name": "user",
          "type": "address"
        },
        {
          "indexed": true,
          "internalType": "address",
          "name": "fleetCommander",
          "type": "address"
        },
        {
          "indexed": false,
          "internalType": "uint256",
          "name": "amount",
          "type": "uint256"
        }
      ],
      "name": "FleetSharesUnstaked",
      "type": "event"
    },
    {
      "anonymous": false,
      "inputs": [
        {
          "indexed": true,
          "internalType": "address",
          "name": "previousOwner",
          "type": "address"
        },
        {
          "indexed": true,
          "internalType": "address",
          "name": "newOwner",
          "type": "address"
        }
      ],
      "name": "OwnershipTransferred",
      "type": "event"
    },
    {
      "anonymous": false,
      "inputs": [
        {
          "indexed": true,
          "internalType": "address",
          "name": "user",
          "type": "address"
        },
        {
          "indexed": true,
          "internalType": "address",
          "name": "fromToken",
          "type": "address"
        },
        {
          "indexed": true,
          "internalType": "address",
          "name": "toToken",
          "type": "address"
        },
        {
          "indexed": false,
          "internalType": "uint256",
          "name": "fromAmount",
          "type": "uint256"
        },
        {
          "indexed": false,
          "internalType": "uint256",
          "name": "toAmount",
          "type": "uint256"
        }
      ],
      "name": "Swapped",
      "type": "event"
    },
    {
      "anonymous": false,
      "inputs": [
        {
          "indexed": true,
          "internalType": "address",
          "name": "user",
          "type": "address"
        },
        {
          "indexed": true,
          "internalType": "address",
          "name": "token",
          "type": "address"
        },
        {
          "indexed": false,
          "internalType": "uint256",
          "name": "amount",
          "type": "uint256"
        }
      ],
      "name": "TokensDeposited",
      "type": "event"
    },
    {
      "anonymous": false,
      "inputs": [
        {
          "indexed": true,
          "internalType": "address",
          "name": "token",
          "type": "address"
        },
        {
          "indexed": true,
          "internalType": "address",
          "name": "to",
          "type": "address"
        },
        {
          "indexed": false,
          "internalType": "uint256",
          "name": "amount",
          "type": "uint256"
        }
      ],
      "name": "TokensRescued",
      "type": "event"
    },
    {
      "anonymous": false,
      "inputs": [
        {
          "indexed": true,
          "internalType": "address",
          "name": "user",
          "type": "address"
        },
        {
          "indexed": true,
          "internalType": "address",
          "name": "token",
          "type": "address"
        },
        {
          "indexed": false,
          "internalType": "uint256",
          "name": "amount",
          "type": "uint256"
        }
      ],
      "name": "TokensWithdrawn",
      "type": "event"
    },
    {
      "inputs": [],
      "name": "configurationManager",
      "outputs": [
        {
          "internalType": "contract IConfigurationManager",
          "name": "",
          "type": "address"
        }
      ],
      "stateMutability": "view",
      "type": "function"
    },
    {
      "inputs": [
        {
          "internalType": "contract IERC20",
          "name": "asset",
          "type": "address"
        },
        {
          "internalType": "uint256",
          "name": "amount",
          "type": "uint256"
        }
      ],
      "name": "depositTokens",
      "outputs": [],
      "stateMutability": "nonpayable",
      "type": "function"
    },
    {
      "inputs": [
        {
          "internalType": "address",
          "name": "fleetCommander",
          "type": "address"
        },
        {
          "internalType": "contract IERC20",
          "name": "inputToken",
          "type": "address"
        },
        {
          "internalType": "uint256",
          "name": "amount",
          "type": "uint256"
        },
        {
          "internalType": "address",
          "name": "receiver",
          "type": "address"
        }
      ],
      "name": "enterFleet",
      "outputs": [
        {
          "internalType": "uint256",
          "name": "shares",
          "type": "uint256"
        }
      ],
      "stateMutability": "nonpayable",
      "type": "function"
    },
    {
      "inputs": [
        {
          "internalType": "address",
          "name": "fleetCommander",
          "type": "address"
        },
        {
          "internalType": "uint256",
          "name": "amount",
          "type": "uint256"
        }
      ],
      "name": "exitFleet",
      "outputs": [
        {
          "internalType": "uint256",
          "name": "shares",
          "type": "uint256"
        }
      ],
      "stateMutability": "nonpayable",
      "type": "function"
    },
    {
      "inputs": [],
      "name": "fleetCommanderRewardsManagerFactory",
      "outputs": [
        {
          "internalType": "address",
          "name": "",
          "type": "address"
        }
      ],
      "stateMutability": "view",
      "type": "function"
    },
    {
      "inputs": [],
      "name": "harborCommand",
      "outputs": [
        {
          "internalType": "address",
          "name": "",
          "type": "address"
        }
      ],
      "stateMutability": "view",
      "type": "function"
    },
    {
      "inputs": [
        {
          "internalType": "bytes[]",
          "name": "data",
          "type": "bytes[]"
        }
      ],
      "name": "multicall",
      "outputs": [
        {
          "internalType": "bytes[]",
          "name": "results",
          "type": "bytes[]"
        }
      ],
      "stateMutability": "nonpayable",
      "type": "function"
    },
    {
      "inputs": [],
      "name": "oneInchRouter",
      "outputs": [
        {
          "internalType": "address",
          "name": "",
          "type": "address"
        }
      ],
      "stateMutability": "view",
      "type": "function"
    },
    {
      "inputs": [],
      "name": "owner",
      "outputs": [
        {
          "internalType": "address",
          "name": "",
          "type": "address"
        }
      ],
      "stateMutability": "view",
      "type": "function"
    },
    {
      "inputs": [],
      "name": "raft",
      "outputs": [
        {
          "internalType": "address",
          "name": "",
          "type": "address"
        }
      ],
      "stateMutability": "view",
      "type": "function"
    },
    {
      "inputs": [],
      "name": "renounceOwnership",
      "outputs": [],
      "stateMutability": "nonpayable",
      "type": "function"
    },
    {
      "inputs": [
        {
          "internalType": "contract IERC20",
          "name": "token",
          "type": "address"
        },
        {
          "internalType": "address",
          "name": "to",
          "type": "address"
        },
        {
          "internalType": "uint256",
          "name": "amount",
          "type": "uint256"
        }
      ],
      "name": "rescueTokens",
      "outputs": [],
      "stateMutability": "nonpayable",
      "type": "function"
    },
    {
      "inputs": [
        {
          "internalType": "address",
          "name": "fleetCommander",
          "type": "address"
        },
        {
          "internalType": "uint256",
          "name": "amount",
          "type": "uint256"
        }
      ],
      "name": "stakeFleetShares",
      "outputs": [],
      "stateMutability": "nonpayable",
      "type": "function"
    },
    {
      "inputs": [
        {
          "internalType": "contract IERC20",
          "name": "fromToken",
          "type": "address"
        },
        {
          "internalType": "contract IERC20",
          "name": "toToken",
          "type": "address"
        },
        {
          "internalType": "uint256",
          "name": "amount",
          "type": "uint256"
        },
        {
          "internalType": "uint256",
          "name": "minTokensReceived",
          "type": "uint256"
        },
        {
          "internalType": "bytes",
          "name": "swapCalldata",
          "type": "bytes"
        }
      ],
      "name": "swap",
      "outputs": [
        {
          "internalType": "uint256",
          "name": "swappedAmount",
          "type": "uint256"
        }
      ],
      "stateMutability": "nonpayable",
      "type": "function"
    },
    {
      "inputs": [],
      "name": "tipJar",
      "outputs": [
        {
          "internalType": "address",
          "name": "",
          "type": "address"
        }
      ],
      "stateMutability": "view",
      "type": "function"
    },
    {
      "inputs": [
        {
          "internalType": "address",
          "name": "newOwner",
          "type": "address"
        }
      ],
      "name": "transferOwnership",
      "outputs": [],
      "stateMutability": "nonpayable",
      "type": "function"
    },
    {
      "inputs": [],
      "name": "treasury",
      "outputs": [
        {
          "internalType": "address",
          "name": "",
          "type": "address"
        }
      ],
      "stateMutability": "view",
      "type": "function"
    },
    {
      "inputs": [
        {
          "internalType": "contract IERC20",
          "name": "asset",
          "type": "address"
        },
        {
          "internalType": "uint256",
          "name": "amount",
          "type": "uint256"
        }
      ],
      "name": "withdrawTokens",
      "outputs": [],
      "stateMutability": "nonpayable",
      "type": "function"
    }
  ],
  "bytecode": "0x60c03461013e57601f6116a638819003918201601f19168301916001600160401b0383118484101761014257808492604094855283398101031261013e57610052602061004b83610156565b9201610156565b90331561012b575f8054336001600160a01b0319821681178355604051949290916001600160a01b0316907f8be0079c531659141344cd1fd0a4f28419497f9722a3daafe3b4186f6b6457e09080a36001600160a01b0316801561011c576080526001600160a01b0381161561010d5760a05261153b908161016b82396080518181816105c00152818161085301528181610af001528181610c7e01528181610f80015261113a015260a051818181610a750152610dca0152f35b6314203b4b60e01b5f5260045ffd5b63f1634df960e01b5f5260045ffd5b631e4fbdf760e01b5f525f60045260245ffd5b5f80fd5b634e487b7160e01b5f52604160045260245ffd5b51906001600160a01b038216820361013e5756fe60806040526004361015610011575f80fd5b5f5f3560e01c806306b091f914610fcb578063117d8ae014610f5c5780632506c01814610cf55780635b0f83f314610cc957806361d027b314610c5957806366168bd714610b92578063715018a614610b3b5780637aaceb9514610acb5780638da5cb5b14610aa4578063ac3af20814610a60578063ac9650d814610882578063c9c667e31461083e578063cea9d26f146107cc578063d7f8e9a5146106cb578063f2fde38b14610646578063f7e533ec1461059b578063fbebe11a146103495763ff993eb5146100e0575f80fd5b34610346576080366003190112610346576100f96110c4565b6101016110da565b91604435926064359260018060a01b038416809403610344576101226111eb565b61012b816112d7565b61013482611220565b6040516338d52e0f60e01b81526001600160a01b03919091169190602081600481865afa9081156102ec578491610306575b506001600160a01b03918216959116908186036102f7576020602496604051978880926370a0823160e01b82523060048301525afa9586156102ec5784966102b8575b50806102b25750845b85116102a35784826101c392611370565b60405192636e553f6560e01b845284600485015280602485015260208460448186865af193841561029857839461023e575b507fd584e570678d099262db4ba972df2e63e3618dadc6179677a6a2b18360c4a657604060209681519081528688820152a35f5160206114e65f395f51905f525d604051908152f35b9493506020853d602011610290575b8161025a602093836110f0565b8101031261028c57935192937fd584e570678d099262db4ba972df2e63e3618dadc6179677a6a2b18360c4a6576101f5565b5f80fd5b3d915061024d565b6040513d85823e3d90fd5b6342301c2360e01b8352600483fd5b946101b2565b9095506020813d6020116102e4575b816102d4602093836110f0565b8101031261028c5751945f6101a9565b3d91506102c7565b6040513d86823e3d90fd5b63936bb5ad60e01b8452600484fd5b90506020813d60201161033c575b81610321602093836110f0565b810103126103385761033290611111565b5f610166565b8380fd5b3d9150610314565b825b80fd5b503461028c57604036600319011261028c576103636110c4565b6024359061036f6111eb565b610378816112d7565b6040516330fe427560e21b81526001600160a01b0391909116919060a081600481865afa908115610492575f916104f5575b50608001516001600160a01b031680156104e6576040516370a0823160e01b815230600482015291602083602481875afa928315610492575f936104b2575b50806104ac5750815b821161049d57610403828285611370565b803b1561028c5760405163cecc238f60e01b815233600482015260248101839052905f908290604490829084905af180156104925761047d575b506040519081527f229b6242f243935a5ba03689948a442635f9fd7ed35555146349f51316c1f28e60203392a3805f5160206114e65f395f51905f525d80f35b61048a9193505f906110f0565b5f915f61043d565b6040513d5f823e3d90fd5b6342301c2360e01b5f5260045ffd5b916103f2565b9092506020813d6020116104de575b816104ce602093836110f0565b8101031261028c5751915f6103e9565b3d91506104c1565b63913a247f60e01b5f5260045ffd5b905060a0813d60a011610593575b8161051060a093836110f0565b8101031261028c576040519060a082018281106001600160401b0382111761057f5760405280516001600160a01b038116810361028c5761057491608091845260208101516020850152604081015160408501526060810151606085015201611111565b60808201525f6103aa565b634e487b7160e01b5f52604160045260245ffd5b3d9150610503565b3461028c575f36600319011261028c57604051633df94cfb60e21b81526020816004817f00000000000000000000000000000000000000000000000000000000000000006001600160a01b03165afa8015610492575f9061060c575b6040516001600160a01b039091168152602090f35b506020813d60201161063e575b81610626602093836110f0565b8101031261028c57610639602091611111565b6105f7565b3d9150610619565b3461028c57602036600319011261028c5761065f6110c4565b6106676112b1565b6001600160a01b031680156106b8575f80546001600160a01b03198116831782556001600160a01b0316907f8be0079c531659141344cd1fd0a4f28419497f9722a3daafe3b4186f6b6457e09080a3005b631e4fbdf760e01b5f525f60045260245ffd5b3461028c57604036600319011261028c576106e46110c4565b602435906106f06111eb565b6106f9816112d7565b6001600160a01b031690806107c757505f195b604051632d182be560e21b815260048101829052306024820152336044820152916020836064815f855af1918215610492575f92610792575b6020935060405190815282848201527f3018bc84615a588f3485d554ded6943344a7f25f8b758b14b6e9677378c1c68b60403392a35f5f5160206114e65f395f51905f525d604051908152f35b91506020833d6020116107bf575b816107ad602093836110f0565b8101031261028c576020925191610745565b3d91506107a0565b61070c565b3461028c57606036600319011261028c576107e56110c4565b6107ed6110da565b7f77023e19c7343ad491fd706c36335ca0e738340a91f29b1fd81e2673d44896c460206044359261081c6112b1565b610827848287611230565b6040519384526001600160a01b03908116941692a3005b3461028c575f36600319011261028c576040517f00000000000000000000000000000000000000000000000000000000000000006001600160a01b03168152602090f35b3461028c57602036600319011261028c576004356001600160401b03811161028c573660238201121561028c578060040135906001600160401b03821161028c573660248360051b8301011161028c57906020916040516108e384826110f0565b5f815283810191601f1985013684376108fb846111ac565b9061090960405192836110f0565b848252601f19610918866111ac565b01865f5b828110610a51575050503681900360421901905f5b868110156109dd5760248160051b830101358381121561028c578201906024820135916001600160401b03831161028c5760440191803603831361028c575f80600194896109ad6109c1958f8e6040519483869484860198893784019083820190898252519283915e010185815203601f1981018352826110f0565b5190305af46109ba611273565b9030611487565b6109cb82876111c3565b526109d681866111c3565b5001610931565b604080518981528551818b018190525f92600582901b8301810191888d01918d9085015b828710610a0e5785850386f35b90919293828080600193603f198a82030186528189518051918291828552018484015e5f838284010152601f801991011601019601920196019592919092610a01565b6060858201830152810161091c565b3461028c575f36600319011261028c576040517f00000000000000000000000000000000000000000000000000000000000000006001600160a01b03168152602090f35b3461028c575f36600319011261028c575f546040516001600160a01b039091168152602090f35b3461028c575f36600319011261028c57604051637aaceb9560e01b81526020816004817f00000000000000000000000000000000000000000000000000000000000000006001600160a01b03165afa8015610492575f9061060c576040516001600160a01b039091168152602090f35b3461028c575f36600319011261028c57610b536112b1565b5f80546001600160a01b0319811682556001600160a01b03167f8be0079c531659141344cd1fd0a4f28419497f9722a3daafe3b4186f6b6457e08280a3005b3461028c57604036600319011261028c57610bab6110c4565b60243590610bb76111eb565b610bc081611220565b8115610c4a57610c006040516323b872dd60e01b602082015233602482015230604482015283606482015260648152610bfa6084826110f0565b8261142f565b6040519182526001600160a01b03169033907fcbc4a4091b012bb1329c38bbbb15455f5cac5aa3673da0a7f38cd61a4f49551790602090a35f5f5160206114e65f395f51905f525d005b631f2a200560e01b5f5260045ffd5b3461028c575f36600319011261028c576040516361d027b360e01b81526020816004817f00000000000000000000000000000000000000000000000000000000000000006001600160a01b03165afa8015610492575f9061060c576040516001600160a01b039091168152602090f35b3461028c575f36600319011261028c576020610ce3611125565b6040516001600160a01b039091168152f35b3461028c5760a036600319011261028c57610d0e6110c4565b610d166110da565b9060443591608435906001600160401b03821161028c573660238301121561028c578160040135926001600160401b03841161028c57366024858501011161028c57610d606111eb565b6001600160a01b0381169182158015610f4b575b610f3c578515610c4a576001600160a01b031692828414610f2d576040516370a0823160e01b815230600482015294602086602481885afa958615610492575f96610ef2575b509160245f8094938194610df08b7f00000000000000000000000000000000000000000000000000000000000000008097611370565b80604051948593018337810182815203925af1610e0b611273565b5015610ee3576040516370a0823160e01b815230600482015292602084602481865afa938415610492575f94610eaf575b508303928311610e9b57606435831061049d5760209360405190815283858201527f6782190c91d4a7e8ad2a867deed6ec0a970cab8ff137ae2bd4abd92b3810f4d360403392a45f5f5160206114e65f395f51905f525d604051908152f35b634e487b7160e01b5f52601160045260245ffd5b9093506020813d602011610edb575b81610ecb602093836110f0565b8101031261028c57519285610e3c565b3d9150610ebe565b63081ceff360e41b5f5260045ffd5b91929095506020823d602011610f25575b81610f10602093836110f0565b8101031261028c579051949091906024610dba565b3d9150610f03565b6341e0808560e11b5f5260045ffd5b63c1ab6dc160e01b5f5260045ffd5b506001600160a01b03811615610d74565b3461028c575f36600319011261028c57604051628bec5760e51b81526020816004817f00000000000000000000000000000000000000000000000000000000000000006001600160a01b03165afa8015610492575f9061060c576040516001600160a01b039091168152602090f35b3461028c57604036600319011261028c57610fe46110c4565b60243590610ff06111eb565b81610ffa82611220565b15611055575b61100b823383611230565b6040519182526001600160a01b03169033907f6337ed398c0e8467698c581374fdce4db14922df487b5a39483079f5f59b60a490602090a35f5f5160206114e65f395f51905f525d005b6040516370a0823160e01b81523060048201529091506020816024816001600160a01b0386165afa908115610492575f91611092575b5090611000565b90506020813d6020116110bc575b816110ad602093836110f0565b8101031261028c57518261108b565b3d91506110a0565b600435906001600160a01b038216820361028c57565b602435906001600160a01b038216820361028c57565b90601f801991011681019081106001600160401b0382111761057f57604052565b51906001600160a01b038216820361028c57565b604051635b0f83f360e01b81526020816004817f00000000000000000000000000000000000000000000000000000000000000006001600160a01b03165afa908115610492575f91611175575090565b90506020813d6020116111a4575b81611190602093836110f0565b8101031261028c576111a190611111565b90565b3d9150611183565b6001600160401b03811161057f5760051b60200190565b80518210156111d75760209160051b010190565b634e487b7160e01b5f52603260045260245ffd5b5f5160206114e65f395f51905f525c6112115760015f5160206114e65f395f51905f525d565b633ee5aeb560e01b5f5260045ffd5b6001600160a01b031615610f3c57565b60405163a9059cbb60e01b60208201526001600160a01b039290921660248301526044808301939093529181526112719161126c6064836110f0565b61142f565b565b3d156112ac573d906001600160401b03821161057f57604051916112a1601f8201601f1916602001846110f0565b82523d5f602084013e565b606090565b5f546001600160a01b031633036112c457565b63118cdaa760e01b5f523360045260245ffd5b60206001600160a01b036112e9611125565b6040516374e806ab60e11b81526001600160a01b03909416600485015283916024918391165afa908115610492575f91611335575b501561132657565b6317b9ea1760e11b5f5260045ffd5b90506020813d602011611368575b81611350602093836110f0565b8101031261028c5751801515810361028c575f61131e565b3d9150611343565b60405163095ea7b360e01b60208083019182526001600160a01b0385166024840152604480840196909652948252929390925f906113af6064866110f0565b84519082855af15f513d8261140a575b5050156113cb57505050565b60405163095ea7b360e01b60208201526001600160a01b0390931660248401525f60448085019190915283526112719261126c90610bfa6064826110f0565b90915061142757506001600160a01b0381163b15155b5f806113bf565b600114611420565b905f602091828151910182855af115610492575f513d61147e57506001600160a01b0381163b155b61145e5750565b635274afe760e01b5f9081526001600160a01b0391909116600452602490fd5b60011415611457565b906114ab575080511561149c57805190602001fd5b63d6bda27560e01b5f5260045ffd5b815115806114dc575b6114bc575090565b639996b31560e01b5f9081526001600160a01b0391909116600452602490fd5b50803b156114b456fe9b779b17422d0df92223018b32b4d1fa46e071723d6817e2486d003becc55f00a2646970667358221220687bae185c83ea6097fd42296d0f17d34118a351d22f5b105295014850d0e9e964736f6c634300081c0033",
  "linkReferences": {},
  "deployedLinkReferences": {}
}