{
  "_format": "hh-sol-artifact-1",
  "contractName": "TipJar",
  "sourceName": "src/contracts/TipJar.sol",
  "abi": [
    {
      "inputs": [
        {
          "internalType": "address",
          "name": "_accessManager",
          "type": "address"
        },
        {
          "internalType": "address",
          "name": "_configurationManager",
          "type": "address"
        }
      ],
      "stateMutability": "nonpayable",
      "type": "constructor"
    },
    {
      "inputs": [
        {
          "internalType": "address",
          "name": "caller",
          "type": "address"
        }
      ],
      "name": "CallerIsNotAdmin",
      "type": "error"
    },
    {
      "inputs": [
        {
          "internalType": "address",
          "name": "caller",
          "type": "address"
        }
      ],
      "name": "CallerIsNotAuthorizedToBoard",
      "type": "error"
    },
    {
      "inputs": [
        {
          "internalType": "address",
          "name": "caller",
          "type": "address"
        }
      ],
      "name": "CallerIsNotCommander",
      "type": "error"
    },
    {
      "inputs": [
        {
          "internalType": "address",
          "name": "caller",
          "type": "address"
        },
        {
          "internalType": "bytes32",
          "name": "role",
          "type": "bytes32"
        }
      ],
      "name": "CallerIsNotContractSpecificRole",
      "type": "error"
    },
    {
      "inputs": [
        {
          "internalType": "address",
          "name": "caller",
          "type": "address"
        }
      ],
      "name": "CallerIsNotCurator",
      "type": "error"
    },
    {
      "inputs": [
        {
          "internalType": "address",
          "name": "caller",
          "type": "address"
        }
      ],
      "name": "CallerIsNotDecayController",
      "type": "error"
    },
    {
      "inputs": [
        {
          "internalType": "address",
          "name": "caller",
          "type": "address"
        }
      ],
      "name": "CallerIsNotGovernor",
      "type": "error"
    },
    {
      "inputs": [
        {
          "internalType": "address",
          "name": "caller",
          "type": "address"
        }
      ],
      "name": "CallerIsNotGuardian",
      "type": "error"
    },
    {
      "inputs": [
        {
          "internalType": "address",
          "name": "caller",
          "type": "address"
        }
      ],
      "name": "CallerIsNotGuardianOrGovernor",
      "type": "error"
    },
    {
      "inputs": [
        {
          "internalType": "address",
          "name": "caller",
          "type": "address"
        }
      ],
      "name": "CallerIsNotKeeper",
      "type": "error"
    },
    {
      "inputs": [
        {
          "internalType": "address",
          "name": "caller",
          "type": "address"
        }
      ],
      "name": "CallerIsNotRaft",
      "type": "error"
    },
    {
      "inputs": [
        {
          "internalType": "address",
          "name": "caller",
          "type": "address"
        }
      ],
      "name": "CallerIsNotRaftOrCommander",
      "type": "error"
    },
    {
      "inputs": [
        {
          "internalType": "address",
          "name": "caller",
          "type": "address"
        }
      ],
      "name": "CallerIsNotSuperKeeper",
      "type": "error"
    },
    {
      "inputs": [],
      "name": "ConfigurationManagerZeroAddress",
      "type": "error"
    },
    {
      "inputs": [
        {
          "internalType": "address",
          "name": "caller",
          "type": "address"
        }
      ],
      "name": "DirectGrantIsDisabled",
      "type": "error"
    },
    {
      "inputs": [
        {
          "internalType": "address",
          "name": "caller",
          "type": "address"
        }
      ],
      "name": "DirectRevokeIsDisabled",
      "type": "error"
    },
    {
      "inputs": [],
      "name": "EnforcedPause",
      "type": "error"
    },
    {
      "inputs": [],
      "name": "ExpectedPause",
      "type": "error"
    },
    {
      "inputs": [
        {
          "internalType": "address",
          "name": "invalidAddress",
          "type": "address"
        }
      ],
      "name": "InvalidAccessManagerAddress",
      "type": "error"
    },
    {
      "inputs": [],
      "name": "InvalidFleetCommanderAddress",
      "type": "error"
    },
    {
      "inputs": [],
      "name": "InvalidRecipientAddress",
      "type": "error"
    },
    {
      "inputs": [
        {
          "internalType": "Percentage",
          "name": "invalidAllocation",
          "type": "uint256"
        }
      ],
      "name": "InvalidTipStreamAllocation",
      "type": "error"
    },
    {
      "inputs": [],
      "name": "InvalidTreasuryAddress",
      "type": "error"
    },
    {
      "inputs": [],
      "name": "NoAssetsToDistribute",
      "type": "error"
    },
    {
      "inputs": [],
      "name": "NoSharesToRedeem",
      "type": "error"
    },
    {
      "inputs": [
        {
          "internalType": "address",
          "name": "recipient",
          "type": "address"
        }
      ],
      "name": "TipStreamAlreadyExists",
      "type": "error"
    },
    {
      "inputs": [
        {
          "internalType": "address",
          "name": "recipient",
          "type": "address"
        }
      ],
      "name": "TipStreamDoesNotExist",
      "type": "error"
    },
    {
      "inputs": [
        {
          "internalType": "address",
          "name": "recipient",
          "type": "address"
        }
      ],
      "name": "TipStreamLocked",
      "type": "error"
    },
    {
      "inputs": [],
      "name": "TotalAllocationExceedsOneHundredPercent",
      "type": "error"
    },
    {
      "anonymous": false,
      "inputs": [
        {
          "indexed": false,
          "internalType": "address",
          "name": "account",
          "type": "address"
        }
      ],
      "name": "Paused",
      "type": "event"
    },
    {
      "anonymous": false,
      "inputs": [
        {
          "indexed": true,
          "internalType": "address",
          "name": "account",
          "type": "address"
        }
      ],
      "name": "TipJarPaused",
      "type": "event"
    },
    {
      "anonymous": false,
      "inputs": [
        {
          "indexed": true,
          "internalType": "address",
          "name": "fleetCommander",
          "type": "address"
        },
        {
          "indexed": false,
          "internalType": "uint256",
          "name": "totalDistributed",
          "type": "uint256"
        }
      ],
      "name": "TipJarShaken",
      "type": "event"
    },
    {
      "anonymous": false,
      "inputs": [
        {
          "indexed": true,
          "internalType": "address",
          "name": "account",
          "type": "address"
        }
      ],
      "name": "TipJarUnpaused",
      "type": "event"
    },
    {
      "anonymous": false,
      "inputs": [
        {
          "components": [
            {
              "internalType": "address",
              "name": "recipient",
              "type": "address"
            },
            {
              "internalType": "Percentage",
              "name": "allocation",
              "type": "uint256"
            },
            {
              "internalType": "uint256",
              "name": "lockedUntilEpoch",
              "type": "uint256"
            }
          ],
          "indexed": false,
          "internalType": "struct ITipJar.TipStream",
          "name": "tipStream",
          "type": "tuple"
        }
      ],
      "name": "TipStreamAdded",
      "type": "event"
    },
    {
      "anonymous": false,
      "inputs": [
        {
          "indexed": true,
          "internalType": "address",
          "name": "recipient",
          "type": "address"
        }
      ],
      "name": "TipStreamRemoved",
      "type": "event"
    },
    {
      "anonymous": false,
      "inputs": [
        {
          "components": [
            {
              "internalType": "address",
              "name": "recipient",
              "type": "address"
            },
            {
              "internalType": "Percentage",
              "name": "allocation",
              "type": "uint256"
            },
            {
              "internalType": "uint256",
              "name": "lockedUntilEpoch",
              "type": "uint256"
            }
          ],
          "indexed": false,
          "internalType": "struct ITipJar.TipStream",
          "name": "oldTipStream",
          "type": "tuple"
        },
        {
          "components": [
            {
              "internalType": "address",
              "name": "recipient",
              "type": "address"
            },
            {
              "internalType": "Percentage",
              "name": "allocation",
              "type": "uint256"
            },
            {
              "internalType": "uint256",
              "name": "lockedUntilEpoch",
              "type": "uint256"
            }
          ],
          "indexed": false,
          "internalType": "struct ITipJar.TipStream",
          "name": "newTipStream",
          "type": "tuple"
        }
      ],
      "name": "TipStreamUpdated",
      "type": "event"
    },
    {
      "anonymous": false,
      "inputs": [
        {
          "indexed": false,
          "internalType": "address",
          "name": "account",
          "type": "address"
        }
      ],
      "name": "Unpaused",
      "type": "event"
    },
    {
      "inputs": [
        {
          "components": [
            {
              "internalType": "address",
              "name": "recipient",
              "type": "address"
            },
            {
              "internalType": "Percentage",
              "name": "allocation",
              "type": "uint256"
            },
            {
              "internalType": "uint256",
              "name": "lockedUntilEpoch",
              "type": "uint256"
            }
          ],
          "internalType": "struct ITipJar.TipStream",
          "name": "tipStream",
          "type": "tuple"
        }
      ],
      "name": "addTipStream",
      "outputs": [
        {
          "internalType": "uint256",
          "name": "lockedUntilEpoch",
          "type": "uint256"
        }
      ],
      "stateMutability": "nonpayable",
      "type": "function"
    },
    {
      "inputs": [],
      "name": "configurationManager",
      "outputs": [
        {
          "internalType": "contract IConfigurationManager",
          "name": "",
          "type": "address"
        }
      ],
      "stateMutability": "view",
      "type": "function"
    },
    {
      "inputs": [],
      "name": "fleetCommanderRewardsManagerFactory",
      "outputs": [
        {
          "internalType": "address",
          "name": "",
          "type": "address"
        }
      ],
      "stateMutability": "view",
      "type": "function"
    },
    {
      "inputs": [
        {
          "internalType": "enum ContractSpecificRoles",
          "name": "roleName",
          "type": "uint8"
        },
        {
          "internalType": "address",
          "name": "roleTargetContract",
          "type": "address"
        }
      ],
      "name": "generateRole",
      "outputs": [
        {
          "internalType": "bytes32",
          "name": "",
          "type": "bytes32"
        }
      ],
      "stateMutability": "pure",
      "type": "function"
    },
    {
      "inputs": [],
      "name": "getAllTipStreams",
      "outputs": [
        {
          "components": [
            {
              "internalType": "address",
              "name": "recipient",
              "type": "address"
            },
            {
              "internalType": "Percentage",
              "name": "allocation",
              "type": "uint256"
            },
            {
              "internalType": "uint256",
              "name": "lockedUntilEpoch",
              "type": "uint256"
            }
          ],
          "internalType": "struct ITipJar.TipStream[]",
          "name": "allStreams",
          "type": "tuple[]"
        }
      ],
      "stateMutability": "view",
      "type": "function"
    },
    {
      "inputs": [
        {
          "internalType": "address",
          "name": "recipient",
          "type": "address"
        }
      ],
      "name": "getTipStream",
      "outputs": [
        {
          "components": [
            {
              "internalType": "address",
              "name": "recipient",
              "type": "address"
            },
            {
              "internalType": "Percentage",
              "name": "allocation",
              "type": "uint256"
            },
            {
              "internalType": "uint256",
              "name": "lockedUntilEpoch",
              "type": "uint256"
            }
          ],
          "internalType": "struct ITipJar.TipStream",
          "name": "",
          "type": "tuple"
        }
      ],
      "stateMutability": "view",
      "type": "function"
    },
    {
      "inputs": [],
      "name": "getTotalAllocation",
      "outputs": [
        {
          "internalType": "Percentage",
          "name": "total",
          "type": "uint256"
        }
      ],
      "stateMutability": "view",
      "type": "function"
    },
    {
      "inputs": [],
      "name": "harborCommand",
      "outputs": [
        {
          "internalType": "address",
          "name": "",
          "type": "address"
        }
      ],
      "stateMutability": "view",
      "type": "function"
    },
    {
      "inputs": [
        {
          "internalType": "address",
          "name": "account",
          "type": "address"
        }
      ],
      "name": "hasAdmiralsQuartersRole",
      "outputs": [
        {
          "internalType": "bool",
          "name": "",
          "type": "bool"
        }
      ],
      "stateMutability": "view",
      "type": "function"
    },
    {
      "inputs": [],
      "name": "pause",
      "outputs": [],
      "stateMutability": "nonpayable",
      "type": "function"
    },
    {
      "inputs": [],
      "name": "paused",
      "outputs": [
        {
          "internalType": "bool",
          "name": "",
          "type": "bool"
        }
      ],
      "stateMutability": "view",
      "type": "function"
    },
    {
      "inputs": [],
      "name": "raft",
      "outputs": [
        {
          "internalType": "address",
          "name": "",
          "type": "address"
        }
      ],
      "stateMutability": "view",
      "type": "function"
    },
    {
      "inputs": [
        {
          "internalType": "address",
          "name": "recipient",
          "type": "address"
        }
      ],
      "name": "removeTipStream",
      "outputs": [],
      "stateMutability": "nonpayable",
      "type": "function"
    },
    {
      "inputs": [
        {
          "internalType": "address",
          "name": "fleetCommander_",
          "type": "address"
        }
      ],
      "name": "shake",
      "outputs": [],
      "stateMutability": "nonpayable",
      "type": "function"
    },
    {
      "inputs": [],
      "name": "shakeAll",
      "outputs": [],
      "stateMutability": "nonpayable",
      "type": "function"
    },
    {
      "inputs": [
        {
          "internalType": "address[]",
          "name": "fleetCommanders",
          "type": "address[]"
        }
      ],
      "name": "shakeMultiple",
      "outputs": [],
      "stateMutability": "nonpayable",
      "type": "function"
    },
    {
      "inputs": [],
      "name": "tipJar",
      "outputs": [
        {
          "internalType": "address",
          "name": "",
          "type": "address"
        }
      ],
      "stateMutability": "view",
      "type": "function"
    },
    {
      "inputs": [
        {
          "internalType": "uint256",
          "name": "",
          "type": "uint256"
        }
      ],
      "name": "tipStreamRecipients",
      "outputs": [
        {
          "internalType": "address",
          "name": "",
          "type": "address"
        }
      ],
      "stateMutability": "view",
      "type": "function"
    },
    {
      "inputs": [
        {
          "internalType": "address",
          "name": "recipient",
          "type": "address"
        }
      ],
      "name": "tipStreams",
      "outputs": [
        {
          "internalType": "address",
          "name": "recipient",
          "type": "address"
        },
        {
          "internalType": "Percentage",
          "name": "allocation",
          "type": "uint256"
        },
        {
          "internalType": "uint256",
          "name": "lockedUntilEpoch",
          "type": "uint256"
        }
      ],
      "stateMutability": "view",
      "type": "function"
    },
    {
      "inputs": [],
      "name": "treasury",
      "outputs": [
        {
          "internalType": "address",
          "name": "",
          "type": "address"
        }
      ],
      "stateMutability": "view",
      "type": "function"
    },
    {
      "inputs": [],
      "name": "unpause",
      "outputs": [],
      "stateMutability": "nonpayable",
      "type": "function"
    },
    {
      "inputs": [
        {
          "components": [
            {
              "internalType": "address",
              "name": "recipient",
              "type": "address"
            },
            {
              "internalType": "Percentage",
              "name": "allocation",
              "type": "uint256"
            },
            {
              "internalType": "uint256",
              "name": "lockedUntilEpoch",
              "type": "uint256"
            }
          ],
          "internalType": "struct ITipJar.TipStream",
          "name": "tipStream",
          "type": "tuple"
        },
        {
          "internalType": "bool",
          "name": "shakeAllFleetCommanders",
          "type": "bool"
        }
      ],
      "name": "updateTipStream",
      "outputs": [],
      "stateMutability": "nonpayable",
      "type": "function"
    }
  ],
  "bytecode": "0x60a0806040523461013957604081611ac7803803809161001f8285610163565b8339810103126101395761003e60206100378361019a565b920161019a565b6001600160a01b03909116908115610150576040516301ffc9a760e01b81526338c7ccdb60e01b6004820152602081602481865afa908115610145575f91610106575b50156100f3575f54906001600160a01b031680156100e4576080526001600160a81b031916175f5560405161191890816101af82396080518181816101510152818161043301528181610b67015281816110350152818161120901526112900152f35b63f1634df960e01b5f5260045ffd5b506347bd7c1d60e01b5f5260045260245ffd5b90506020813d60201161013d575b8161012160209383610163565b8101031261013957518015158103610139575f610081565b5f80fd5b3d9150610114565b6040513d5f823e3d90fd5b6347bd7c1d60e01b5f525f60045260245ffd5b601f909101601f19168101906001600160401b0382119082101761018657604052565b634e487b7160e01b5f52604160045260245ffd5b51906001600160a01b03821682036101395756fe6080806040526004361015610012575f80fd5b5f3560e01c908163117d8ae0146110145750806315d3b5d814610ff257806319d8b41c14610e195780633f4ba83a14610cd1578063407f25fb14610c8f5780635b0f83f314610c755780635c975abb14610c5157806361d027b314610c2557806369b3054b14610bb25780637aaceb9514610b42578063839b088514610a9d5780638456cb591461094f578063908cbdc6146108dd578063908fb02d146106e2578063b2cdc7db1461068b578063bf7c1cc114610462578063c9c667e31461041e578063ebc136d01461032a578063efffce611461020b578063f5abfe5e146101e2578063f7e533ec1461012c5763fffa445e1461010e575f80fd5b34610128575f36600319011261012857610126611322565b005b5f80fd5b34610128575f36600319011261012857604051633df94cfb60e21b81526020816004817f00000000000000000000000000000000000000000000000000000000000000006001600160a01b03165afa80156101d7575f9061019d575b6040516001600160a01b039091168152602090f35b506020813d6020116101cf575b816101b76020938361109c565b81010312610128576101ca602091611163565b610188565b3d91506101aa565b6040513d5f823e3d90fd5b34610128576020366003190112610128576101266101fe6110be565b61020661150c565b611529565b34610128575f36600319011261012857600254610227816112cb565b90610235604051928361109c565b808252601f19610244826112cb565b015f5b8181106103135750505f5b8181106102a957826040518091602082016020835281518091526020604084019201905f5b818110610285575050500390f35b91935091602060608261029b6001948851611141565b019401910191849392610277565b806102b5600192611115565b838060a01b0391549060031b1c165f528160205260405f206002604051916102dc83611080565b848060a01b03815416835284810154602084015201546040820152610301828661130e565b5261030c818561130e565b5001610252565b60209061031e6112e3565b82828701015201610247565b34610128576020366003190112610128576103436110be565b5f5460405163a89f38a360e01b81526001600160a01b039091169190602081600481865afa9081156101d7575f916103e8575b50604051632474521560e21b81529260209284928391829161039c9190600484016111db565b03915afa80156101d7576020915f916103bb575b506040519015158152f35b6103db9150823d84116103e1575b6103d3818361109c565b8101906111c3565b826103b0565b503d6103c9565b9190506020823d602011610416575b816104046020938361109c565b8101031261012857905161039c610376565b3d91506103f7565b34610128575f366003190112610128576040517f00000000000000000000000000000000000000000000000000000000000000006001600160a01b03168152602090f35b346101285760203660031901126101285761047b6110be565b5f54604051630ccc574960e41b81526001600160a01b0390911690602081600481855afa9081156101d7575f91610657575b506020906104d2926040518080958194632474521560e21b83523390600484016111db565b03915afa9081156101d7575f91610638575b5015610625576104f38161140a565b60018060a01b0316805f5260016020525f60026040822082815582600182015501555f5b600254908181101561061e578261052d82611115565b905460039190911b1c6001600160a01b03161461054e576001915001610517565b5f19820191821161060a576105806105686105a493611115565b905460039190911b1c6001600160a01b031691611115565b81546001600160a01b0393841660039290921b91821b9390911b1916919091179055565b60025480156105f6575f19016105b981611115565b81549060018060a01b039060031b1b191690556002555b7f27d83e91c23e8d23e65c7096fcf662b306a1b459d3f1f2451462ad9817449e985f80a2005b634e487b7160e01b5f52603160045260245ffd5b634e487b7160e01b5f52601160045260245ffd5b50506105d0565b630ea7d7ed60e21b5f523360045260245ffd5b610651915060203d6020116103e1576103d3818361109c565b826104e4565b90506020813d602011610683575b816106726020938361109c565b8101031261012857516104d26104ad565b3d9150610665565b34610128576020366003190112610128576001600160a01b036106ac6110be565b165f526001602052606060405f2060018060a01b0381541690600260018201549101549060405192835260208301526040820152f35b34610128576060366003190112610128576106fc366110d4565b5f54604051630ccc574960e41b81526001600160a01b0390911690602081600481855afa9081156101d7575f916108a9575b50602090610753926040518080958194632474521560e21b83523390600484016111db565b03915afa9081156101d7575f9161088a575b50156106255780516001600160a01b039081165f908152600160205260409020541661086a57602081016107b3815160018060a01b038451165f526001602052600160405f20015490611468565b81516001600160a01b039081165f90815260016020819052604091829020855181546001600160a01b0319169416938417815593519084015583018051600293840155915490600160401b8210156108565760209361083f6060926105808560017fc74f22a7864325ef73181ac12dffdb2376c8c1ae1a55c09314bb85c3cb547e2c9701600255611115565b61084c6040518092611141565ba151604051908152f35b634e487b7160e01b5f52604160045260245ffd5b5163ca86ad5f60e01b5f9081526001600160a01b03909116600452602490fd5b6108a3915060203d6020116103e1576103d3818361109c565b82610765565b90506020813d6020116108d5575b816108c46020938361109c565b81010312610128575161075361072e565b3d91506108b7565b34610128576020366003190112610128576108f66110be565b6108fe6112e3565b5060018060a01b03165f526001602052606060405f2060026040519161092383611080565b60018060a01b038154168352600181015460208401520154604082015261094d6040518092611141565bf35b34610128575f366003190112610128575f5460405163093a953d60e21b81526001600160a01b03821690602081600481855afa9081156101d7575f91610a69575b506020906109b5926040518080958194632474521560e21b83523390600484016111db565b03915afa9081156101d7575f91610a4a575b5015610a37576109d561150c565b60ff60a01b1916600160a01b175f556040513381527f62e78cea01bee320cd4e420270b5ea74000d11b0c9f74754ebdbfc544b05a25890602090a1337f14d52775fdf448adb1590a213d36c4b16e90211feebaace272ba2d196bd7c9625f80a2005b635560e16d60e01b5f523360045260245ffd5b610a63915060203d6020116103e1576103d3818361109c565b826109c7565b90506020813d602011610a95575b81610a846020938361109c565b8101031261012857516109b5610990565b3d9150610a77565b346101285760203660031901126101285760043567ffffffffffffffff8111610128573660238201121561012857806004013567ffffffffffffffff81116101285760248160051b83010136811161012857610af8826112cb565b91610b06604051938461109c565b82526024602083019301925b818410610b2257610126836114d6565b83356001600160a01b038116810361012857815260209384019301610b12565b34610128575f36600319011261012857604051637aaceb9560e01b81526020816004817f00000000000000000000000000000000000000000000000000000000000000006001600160a01b03165afa80156101d7575f9061019d576040516001600160a01b039091168152602090f35b3461012857604036600319011261012857600435600381101561012857602435906001600160a01b038216820361012857602091604051908382019260f81b83526bffffffffffffffffffffffff199060601b16602182015260158152610c1a60358261109c565b519020604051908152f35b34610128575f366003190112610128576020610c3f61127b565b6040516001600160a01b039091168152f35b34610128575f36600319011261012857602060ff5f5460a01c166040519015158152f35b34610128575f366003190112610128576020610c3f6111f4565b346101285760203660031901126101285760043560025481101561012857610cb8602091611115565b905460405160039290921b1c6001600160a01b03168152f35b34610128575f366003190112610128575f54604051630ccc574960e41b81526001600160a01b03821690602081600481855afa9081156101d7575f91610de5575b50602090610d37926040518080958194632474521560e21b83523390600484016111db565b03915afa9081156101d7575f91610dc6575b50156106255760ff8160a01c1615610db75760ff60a01b19165f556040513381527f5db9ee0a495bf2e6ff9c91a7834c1ba4fdd244a5e8aa4e537bd38aeae4b073aa90602090a1337fd57b21780f69067eafb3fc443fd50132e616575b1143938eb3e43a56047c85475f80a2005b638dfc202b60e01b5f5260045ffd5b610ddf915060203d6020116103e1576103d3818361109c565b82610d49565b90506020813d602011610e11575b81610e006020938361109c565b810103126101285751610d37610d12565b3d9150610df3565b3461012857608036600319011261012857610e33366110d4565b606435908115158203610128575f54604051630ccc574960e41b81526001600160a01b0390911690602081600481855afa9081156101d7575f91610fbe575b50602090610e97926040518080958194632474521560e21b83523390600484016111db565b03915afa9081156101d7575f91610f9f575b5015610625577ff98da2985cf0f5057e1736402dc428a8e3b5e75cbb807bfd12fc7a438e0c33e291610f8f60c092610ee960018060a01b0382511661140a565b60018060a01b038151165f52600160205260405f2060405193610f0b85611080565b60018060a01b038254168552600260018301549283602088015201546040860152610f3b60208401928351611468565b610f92575b5160018060a01b038251165f526001602052600160405f200155604081015160018060a01b038251165f526001602052600260405f200155610f856040518094611141565b6060830190611141565ba1005b610f9a611322565b610f40565b610fb8915060203d6020116103e1576103d3818361109c565b83610ea9565b90506020813d602011610fea575b81610fd96020938361109c565b810103126101285751610e97610e72565b3d9150610fcc565b34610128575f36600319011261012857602061100c611177565b604051908152f35b34610128575f36600319011261012857628bec5760e51b81526020816004817f00000000000000000000000000000000000000000000000000000000000000006001600160a01b03165afa80156101d7575f9061019d576040516001600160a01b039091168152602090f35b6060810190811067ffffffffffffffff82111761085657604052565b90601f8019910116810190811067ffffffffffffffff82111761085657604052565b600435906001600160a01b038216820361012857565b606090600319011261012857604051906110ed82611080565b816004356001600160a01b038116810361012857815260243560208201526040604435910152565b60025481101561112d5760025f5260205f2001905f90565b634e487b7160e01b5f52603260045260245ffd5b80516001600160a01b0316825260208082015190830152604090810151910152565b51906001600160a01b038216820361012857565b5f905f6002545b808210611189575050565b90926111bb60019161119a86611115565b848060a01b0391549060031b1c165f52826020528260405f200154906113fd565b93019061117e565b90816020910312610128575180151581036101285790565b9081526001600160a01b03909116602082015260400190565b604051635b0f83f360e01b81526020816004817f00000000000000000000000000000000000000000000000000000000000000006001600160a01b03165afa9081156101d7575f91611244575090565b90506020813d602011611273575b8161125f6020938361109c565b810103126101285761127090611163565b90565b3d9150611252565b6040516361d027b360e01b81526020816004817f00000000000000000000000000000000000000000000000000000000000000006001600160a01b03165afa9081156101d7575f91611244575090565b67ffffffffffffffff81116108565760051b60200190565b604051906112f082611080565b5f6040838281528260208201520152565b9190820391821161060a57565b805182101561112d5760209160051b010190565b60045f6001600160a01b036113356111f4565b166040519283809263ab4ba0f760e01b82525afa80156101d7575f90611362575b61136091506114d6565b565b503d805f833e611372818361109c565b8101906020818303126101285780519067ffffffffffffffff821161012857019080601f830112156101285781516113a9816112cb565b926113b7604051948561109c565b81845260208085019260051b82010192831161012857602001905b8282106113e55750505061136090611356565b602080916113f284611163565b8152019101906113d2565b9190820180921161060a57565b6001600160a01b039081165f818152600160205260409020549091161561145657805f526001602052600260405f20015442106114445750565b63214b419b60e21b5f5260045260245ffd5b63b295314d60e01b5f5260045260245ffd5b9190821580156114c4575b6114b15761148c6114919293611487611177565b6113fd565b611301565b68056bc75e2d63100000106114a257565b63b12ff28560e01b5f5260045ffd5b8263354436e360e01b5f5260045260245ffd5b5068056bc75e2d631000008311611473565b905f5b8251811015611507576001906115016001600160a01b036114fa838761130e565b5116611529565b016114d9565b509050565b60ff5f5460a01c1661151a57565b63d93c066560e01b5f5260045ffd5b602460206001600160a01b0361153d6111f4565b6040516374e806ab60e11b81526001600160a01b03909516600486018190529493849290918391165afa9081156101d7575f916118c3575b50156118b4576040516370a0823160e01b815230600482015291602083602481855afa9283156101d7575f93611880575b5082156118715760405192635d043b2960e11b845260048401523060248401523060448401526020836064815f865af19283156101d7575f9361183d575b50821561182e576040516338d52e0f60e01b8152602081600481865afa9081156101d7575f916117f4575b506001600160a01b0316925f918290815b60025481101561170f5761163381611115565b60018060a01b0391549060031b1c16805f52600160205261165c600160405f20015480956113fd565b9368056bc75e2d63100000908186036116fc57505061167b8686611301565b905b8161168d575b5050600101611620565b60405163a9059cbb60e01b81526001600160a01b03919091166004820152602481018290529195906020836044815f8d5af19182156101d7576001936116d8936116e0575b506113fd565b94905f611683565b6116f79060203d81116103e1576103d3818361109c565b6116d2565b808702908782040361060a57049061167d565b5094919261171e915083611301565b9081611754575b505060207fd3f5fdad4c895ab394f249ba2c358f247600664c003b17a0f4ee80309c41a3ae91604051908152a2565b61179b929160209161176461127b565b60405163a9059cbb60e01b81526001600160a01b0390911660048201526024810192909252909384919082905f9082906044820190565b03925af19081156101d7577fd3f5fdad4c895ab394f249ba2c358f247600664c003b17a0f4ee80309c41a3ae926020926117d7575b5091611725565b6117ed90833d85116103e1576103d3818361109c565b505f6117d0565b90506020813d602011611826575b8161180f6020938361109c565b810103126101285761182090611163565b5f61160f565b3d9150611802565b63319f812560e21b5f5260045ffd5b9092506020813d602011611869575b816118596020938361109c565b810103126101285751915f6115e4565b3d915061184c565b63f10cc93760e01b5f5260045ffd5b9092506020813d6020116118ac575b8161189c6020938361109c565b810103126101285751915f6115a6565b3d915061188f565b635ec4fa1360e11b5f5260045ffd5b6118dc915060203d6020116103e1576103d3818361109c565b5f61157556fea26469706673582212200609719c701487c1e714477878d7af259c21d91d82d7c2405b0ef94373275c5764736f6c634300081c0033",
  "linkReferences": {},
  "deployedLinkReferences": {}
}