{
  "_format": "hh-sol-artifact-1",
  "contractName": "FleetCommanderRewardsManagerFactory",
  "sourceName": "src/contracts/FleetCommanderRewardsManagerFactory.sol",
  "abi": [
    {
      "inputs": [],
      "stateMutability": "nonpayable",
      "type": "constructor"
    },
    {
      "anonymous": false,
      "inputs": [
        {
          "indexed": true,
          "internalType": "address",
          "name": "rewardsManager",
          "type": "address"
        },
        {
          "indexed": true,
          "internalType": "address",
          "name": "fleetCommander",
          "type": "address"
        }
      ],
      "name": "RewardsManagerCreated",
      "type": "event"
    },
    {
      "inputs": [
        {
          "internalType": "address",
          "name": "accessManager",
          "type": "address"
        },
        {
          "internalType": "address",
          "name": "fleetCommander",
          "type": "address"
        }
      ],
      "name": "createRewardsManager",
      "outputs": [
        {
          "internalType": "address",
          "name": "",
          "type": "address"
        }
      ],
      "stateMutability": "nonpayable",
      "type": "function"
    }
  ],
  "bytecode": "0x608080604052346015576116a6908161001a8239f35b5f80fdfe60808060405260043610156011575f80fd5b5f3560e01c630f07f829146023575f80fd5b3460e857604036600319011260e8576004356001600160a01b038116919082900360e8576024356001600160a01b038116929083900360e85761158480830183811067ffffffffffffffff82111760d45760409284926100ed843981528460208201520301905ff090811560c95760209160018060a01b031660405191817f0b3397f9446e8b85cf96fe3194aeec84e2fd23ab014cf85f82805b36aef207aa5f80a38152f35b6040513d5f823e3d90fd5b634e487b7160e01b5f52604160045260245ffd5b5f80fdfe6080806040523461013e57604081611584803803809161001f8285610168565b83398101031261013e5761003e60206100378361019f565b920161019f565b6001600160a01b03909116908115610155576040516301ffc9a760e01b8152639bd1803160e01b6004820152602081602481865afa90811561014a575f9161010b575b50156100f8575f80546001600160a01b031990811690931790556009805483166001600160a01b0390921691821790556003805490921681179091556040519081527ffbed9b88bd11cf6ebffbe6fe489ac5bf7a88b31de62cf9bbc5e63e6eb017600390602090a16040516113d090816101b48239f35b506347bd7c1d60e01b5f5260045260245ffd5b90506020813d602011610142575b8161012660209383610168565b8101031261013e5751801515810361013e575f610081565b5f80fd5b3d9150610119565b6040513d5f823e3d90fd5b6347bd7c1d60e01b5f525f60045260245ffd5b601f909101601f19168101906001600160401b0382119082101761018b57604052565b634e487b7160e01b5f52604160045260245ffd5b51906001600160a01b038216820361013e5756fe6080806040526004361015610012575f80fd5b5f3560e01c90816318160ddd14610cfb57508063211dc32d14610ccf5780632378bea614610b985780632e17de7814610b725780633d18b91214610a805780633d509c971461088057806348e5d9f81461081c578063638634ee146107f957806369b3054b146107925780637035ab981461074257806370a082311461070a57806372f702f3146106e25780637bb7bed114610691578063a3cd8ac414610359578063a694fc3a14610332578063bcd11014146102e7578063cecc238f146102c1578063e24bf4fe14610299578063e70b9e2714610249578063e9fad8ee146101325763f122977714610103575f80fd5b3461012e57602036600319011261012e576020610126610121610d15565b610e20565b604051908152f35b5f80fd5b3461012e575f36600319011261012e575f51602061137b5f395f51905f525c61023a5760015f51602061137b5f395f51905f525d61016f33610f5d565b60015433905f5b8181106101a5575f5f51602061137b5f395f51905f525d335f5260086020526101a360405f205433611017565b005b806101b16001926111b1565b838060a01b0391549060031b1c16805f52600660205260405f20855f5260205260405f2054806101e4575b505001610176565b815f52600660205260405f20865f526020525f60408120556102078133846110a0565b6040519081527f540798df468d7b23d11f156fdb954cb19ad414d150722a7b6d55ba369dea792e60203392a384806101dc565b633ee5aeb560e01b5f5260045ffd5b3461012e57604036600319011261012e57610262610d15565b61026a610d2b565b6001600160a01b039182165f908152600660209081526040808320949093168252928352819020549051908152f35b3461012e575f36600319011261012e576009546040516001600160a01b039091168152602090f35b3461012e57604036600319011261012e576101a36102dd610d15565b60243590336110e3565b3461012e57602036600319011261012e5760206101266001600160a01b0361030d610d15565b16805f5260048352600160405f200154905f5260048352600260405f20015490610de2565b3461012e57602036600319011261012e5761034c33610f5d565b6101a360043533336110e3565b3461012e57606036600319011261012e57610372610d15565b6024356044359160018060a01b035f5416604051630ccc574960e41b8152602081600481855afa908115610558575f9161065d575b50604051632474521560e21b815260048101919091523360248201529060209082908180604481015b03915afa908115610558575f9161062e575b501561061b576001545f5b8181106105d357505060018060a01b031691825f52600460205260405f20916002830191825480155f146105a857508015610599576104757f68e3e9397770d9dfa88c0953a34e1a70a05416b3895957f5b689787a920791c49161045087611325565b50808555604080516001600160a01b0389168152602081019290925290918291820190565b0390a15b8254428111610563575061048e825482610e02565b60018401555b6040516370a0823160e01b815230600482015291602083602481885afa928315610558575f93610524575b506104d1600185015491548094610e02565b10610515577fac24935fd910bc682b5ccb1a07b718cadf8cf2f6d1404c4f3ddc3662dae40e299261050a60209342600384015542610df5565b9055604051908152a2005b63010ee96f60e31b5f5260045ffd5b9092506020813d602011610550575b8161054060209383610d41565b8101031261012e575191856104bf565b3d9150610533565b6040513d5f823e3d90fd5b61056e904290610dc1565b61059261058a6105846001870193845490610de2565b84610df5565b845490610e02565b9055610494565b637ffcfc9f60e11b5f5260045ffd5b81151591826105c8575b505015610479576333fec8c760e21b5f5260045ffd5b1415905085806105b2565b806105df6001926111b1565b838060a01b0391549060031b1c16805f526004602052600361061260405f209261060881610e20565b6004850155610d8f565b910155016103ed565b630ea7d7ed60e21b5f523360045260245ffd5b610650915060203d602011610656575b6106488183610d41565b810190610d77565b846103e2565b503d61063e565b90506020813d602011610689575b8161067860209383610d41565b8101031261012e57516103d06103a7565b3d915061066b565b3461012e57602036600319011261012e576004356001548110156106d3576106ba6020916111b1565b905460405160039290921b1c6001600160a01b03168152f35b634e23d03560e01b5f5260045ffd5b3461012e575f36600319011261012e576003546040516001600160a01b039091168152602090f35b3461012e57602036600319011261012e576001600160a01b0361072b610d15565b165f526008602052602060405f2054604051908152f35b3461012e57604036600319011261012e5761075b610d15565b610763610d2b565b6001600160a01b039182165f908152600560209081526040808320949093168252928352819020549051908152f35b3461012e57604036600319011261012e57600435600381101561012e576020906107ba610d2b565b604051908382019260f81b83526bffffffffffffffffffffffff199060601b166021820152601581526107ee603582610d41565b519020604051908152f35b3461012e57602036600319011261012e576020610126610817610d15565b610d8f565b3461012e57602036600319011261012e576001600160a01b0361083d610d15565b165f52600460205260a060405f20805490600181015490600281015460046003830154920154926040519485526020850152604084015260608301526080820152f35b3461012e57602036600319011261012e57610899610d15565b5f54604051630ccc574960e41b81526001600160a01b0390911690602081600481855afa908115610558575f91610a4c575b50604051632474521560e21b815260048101919091523360248201529060209082908180604481015b03915afa908115610558575f91610a2d575b501561061b576001600160a01b03165f8181526004602052604090206002015415610a1e57805f52600460205260405f2054421115610a0f576040516370a0823160e01b8152306004820152602081602481855afa908115610558575f916109dd575b50806109cb577f66257bcef574219c04f7c05f7a1c78d599da10491294c92a5805c48b4cdf500960208361099c8161124a565b50805f52600482525f6004604082208281558260018201558260028201558260038201550155604051908152a1005b633007cea360e01b5f5260045260245ffd5b90506020813d602011610a07575b816109f860209383610d41565b8101031261012e575182610969565b3d91506109eb565b63d9ba1add60e01b5f5260045ffd5b63064fed9960e31b5f5260045ffd5b610a46915060203d602011610656576106488183610d41565b82610906565b90506020813d602011610a78575b81610a6760209383610d41565b8101031261012e57516108f46108cb565b3d9150610a5a565b3461012e575f36600319011261012e575f51602061137b5f395f51905f525c61023a5760015f51602061137b5f395f51905f525d610abd33610f5d565b60015433905f5b818110610add575f5f51602061137b5f395f51905f525d005b80610ae96001926111b1565b838060a01b0391549060031b1c16805f52600660205260405f20855f5260205260405f205480610b1c575b505001610ac4565b815f52600660205260405f20865f526020525f6040812055610b3f8133846110a0565b6040519081527f540798df468d7b23d11f156fdb954cb19ad414d150722a7b6d55ba369dea792e60203392a38480610b14565b3461012e57602036600319011261012e57610b8c33610f5d565b6101a360043533611017565b3461012e57604036600319011261012e57610bb1610d15565b5f54604051630ccc574960e41b815260243592916001600160a01b031690602081600481855afa908115610558575f91610c9b575b50604051632474521560e21b815260048101919091523360248201529060209082908180604481015b03915afa908115610558575f91610c7c575b501561061b576001600160a01b03165f8181526004602052604090208054919291421115610a0f57817fad2f86b01ed93b4b3a150d448c61a4f5d8d38075d3c0c64cc0a26fd6e1f495459260026020930155604051908152a2005b610c95915060203d602011610656576106488183610d41565b83610c21565b90506020813d602011610cc7575b81610cb660209383610d41565b8101031261012e5751610c0f610be6565b3d9150610ca9565b3461012e57604036600319011261012e576020610126610ced610d15565b610cf5610d2b565b90610ed1565b3461012e575f36600319011261012e576020906007548152f35b600435906001600160a01b038216820361012e57565b602435906001600160a01b038216820361012e57565b90601f8019910116810190811067ffffffffffffffff821117610d6357604052565b634e487b7160e01b5f52604160045260245ffd5b9081602091031261012e5751801515810361012e5790565b6001600160a01b03165f81815260046020526040902054421015610db257504290565b5f52600460205260405f205490565b91908203918211610dce57565b634e487b7160e01b5f52601160045260245ffd5b81810292918115918404141715610dce57565b91908201809211610dce57565b8115610e0c570490565b634e487b7160e01b5f52601260045260245ffd5b600754908115610eb557610e7e60018060a01b038216805f526004602052610e68610e52600460405f20015494610d8f565b825f526004602052600360405f20015490610dc1565b905f526004602052600160405f20015490610de2565b670de0b6b3a7640000810290808204670de0b6b3a76400001490151715610dce57610eb292610eac91610e02565b90610df5565b90565b905060018060a01b03165f526004602052600460405f20015490565b90610eb29160018060a01b0381165f526008602052670de0b6b3a7640000610f3760405f2054610f31610f0386610e20565b6001600160a01b039687165f8181526005602090815260408083209a8a168352999052979097205490610dc1565b90610de2565b04915f52600660205260405f209060018060a01b03165f5260205260405f205490610df5565b600154905f5b828110610f6f57505050565b80610f7b6001926111b1565b838060a01b0391549060031b1c16805f52600460205260405f20610f9e82610e20565b90600481019182556003610fb184610d8f565b910155838060a01b038516610fc9575b505001610f63565b610fd38286610ed1565b825f52600660205260405f20858060a01b0387165f5260205260405f205554905f52600560205260405f20838060a01b0385165f5260205260405f20555f80610fc1565b9080156110915760208161104e7f0f5bb82176feb1b5e747e28471aa92156a04d9f3ab9f45f28e2d704232b93f7593600754610dc1565b6007556110888160018060a01b03861695865f526008855260405f20611075838254610dc1565b90556003546001600160a01b03166110a0565b604051908152a2565b6310356e5960e21b5f5260045ffd5b60405163a9059cbb60e01b60208201526001600160a01b039290921660248301526044808301939093529181526110e1916110dc606483610d41565b6111f2565b565b919081156111a2576003546001600160a01b03161561119357816110886020926111307f9e71bc8eea02a63969f509818f2dafb9254532904319f9dbda79b67bd34a5f3d95600754610df5565b60075560018060a01b031694855f526008845260405f20611152848254610df5565b90556003546040516323b872dd60e01b868201526001600160a01b0392831660248201523060448201526064808201869052815291166110dc608483610d41565b63417198d360e01b5f5260045ffd5b636a76ff9f60e01b5f5260045ffd5b6001548110156111c95760015f5260205f2001905f90565b634e487b7160e01b5f52603260045260245ffd5b80548210156111c9575f5260205f2001905f90565b905f602091828151910182855af115610558575f513d61124157506001600160a01b0381163b155b6112215750565b635274afe760e01b5f9081526001600160a01b0391909116600452602490fd5b6001141561121a565b5f81815260026020526040902054801561131f575f198101818111610dce576001545f19810191908211610dce578181036112d1575b50505060015480156112bd575f190161129a8160016111dd565b8154905f199060031b1b191690556001555f5260026020525f6040812055600190565b634e487b7160e01b5f52603160045260245ffd5b6113096112e26112f39360016111dd565b90549060031b1c92839260016111dd565b819391549060031b91821b915f19901b19161790565b90555f52600260205260405f20555f8080611280565b50505f90565b805f52600260205260405f2054155f1461137557600154600160401b811015610d635761135e6112f382600185940160015560016111dd565b9055600154905f52600260205260405f2055600190565b505f9056fe9b779b17422d0df92223018b32b4d1fa46e071723d6817e2486d003becc55f00a2646970667358221220dcdd1fc23a1dc6072ba6539c390460aa019823677e61d7bd26d65de34272787864736f6c634300081c0033a26469706673582212207a3e801c09429e20af6ef256f18c26676419a97d9693852f693ea4fe3cc2badf64736f6c634300081c0033",
  "linkReferences": {},
  "deployedLinkReferences": {}
}