{
  "_format": "hh-sol-artifact-1",
  "contractName": "ProtocolAccessManager",
  "sourceName": "@summerfi/access-contracts/contracts/ProtocolAccessManager.sol",
  "abi": [
    {
      "inputs": [
        {
          "internalType": "address",
          "name": "governor",
          "type": "address"
        }
      ],
      "stateMutability": "nonpayable",
      "type": "constructor"
    },
    {
      "inputs": [],
      "name": "AccessControlBadConfirmation",
      "type": "error"
    },
    {
      "inputs": [
        {
          "internalType": "address",
          "name": "account",
          "type": "address"
        },
        {
          "internalType": "bytes32",
          "name": "neededRole",
          "type": "bytes32"
        }
      ],
      "name": "AccessControlUnauthorizedAccount",
      "type": "error"
    },
    {
      "inputs": [
        {
          "internalType": "address",
          "name": "caller",
          "type": "address"
        }
      ],
      "name": "CallerIsNotAdmin",
      "type": "error"
    },
    {
      "inputs": [
        {
          "internalType": "address",
          "name": "caller",
          "type": "address"
        }
      ],
      "name": "CallerIsNotAuthorizedToBoard",
      "type": "error"
    },
    {
      "inputs": [
        {
          "internalType": "address",
          "name": "caller",
          "type": "address"
        }
      ],
      "name": "CallerIsNotCommander",
      "type": "error"
    },
    {
      "inputs": [
        {
          "internalType": "address",
          "name": "caller",
          "type": "address"
        },
        {
          "internalType": "bytes32",
          "name": "role",
          "type": "bytes32"
        }
      ],
      "name": "CallerIsNotContractSpecificRole",
      "type": "error"
    },
    {
      "inputs": [
        {
          "internalType": "address",
          "name": "caller",
          "type": "address"
        }
      ],
      "name": "CallerIsNotCurator",
      "type": "error"
    },
    {
      "inputs": [
        {
          "internalType": "address",
          "name": "caller",
          "type": "address"
        }
      ],
      "name": "CallerIsNotDecayController",
      "type": "error"
    },
    {
      "inputs": [
        {
          "internalType": "address",
          "name": "caller",
          "type": "address"
        }
      ],
      "name": "CallerIsNotGovernor",
      "type": "error"
    },
    {
      "inputs": [
        {
          "internalType": "address",
          "name": "caller",
          "type": "address"
        }
      ],
      "name": "CallerIsNotGuardian",
      "type": "error"
    },
    {
      "inputs": [
        {
          "internalType": "address",
          "name": "caller",
          "type": "address"
        }
      ],
      "name": "CallerIsNotGuardianOrGovernor",
      "type": "error"
    },
    {
      "inputs": [
        {
          "internalType": "address",
          "name": "caller",
          "type": "address"
        }
      ],
      "name": "CallerIsNotKeeper",
      "type": "error"
    },
    {
      "inputs": [
        {
          "internalType": "address",
          "name": "caller",
          "type": "address"
        }
      ],
      "name": "CallerIsNotRaft",
      "type": "error"
    },
    {
      "inputs": [
        {
          "internalType": "address",
          "name": "caller",
          "type": "address"
        }
      ],
      "name": "CallerIsNotRaftOrCommander",
      "type": "error"
    },
    {
      "inputs": [
        {
          "internalType": "address",
          "name": "caller",
          "type": "address"
        }
      ],
      "name": "CallerIsNotSuperKeeper",
      "type": "error"
    },
    {
      "inputs": [
        {
          "internalType": "address",
          "name": "caller",
          "type": "address"
        }
      ],
      "name": "DirectGrantIsDisabled",
      "type": "error"
    },
    {
      "inputs": [
        {
          "internalType": "address",
          "name": "caller",
          "type": "address"
        }
      ],
      "name": "DirectRevokeIsDisabled",
      "type": "error"
    },
    {
      "inputs": [
        {
          "internalType": "address",
          "name": "invalidAddress",
          "type": "address"
        }
      ],
      "name": "InvalidAccessManagerAddress",
      "type": "error"
    },
    {
      "anonymous": false,
      "inputs": [
        {
          "indexed": true,
          "internalType": "bytes32",
          "name": "role",
          "type": "bytes32"
        },
        {
          "indexed": true,
          "internalType": "bytes32",
          "name": "previousAdminRole",
          "type": "bytes32"
        },
        {
          "indexed": true,
          "internalType": "bytes32",
          "name": "newAdminRole",
          "type": "bytes32"
        }
      ],
      "name": "RoleAdminChanged",
      "type": "event"
    },
    {
      "anonymous": false,
      "inputs": [
        {
          "indexed": true,
          "internalType": "bytes32",
          "name": "role",
          "type": "bytes32"
        },
        {
          "indexed": true,
          "internalType": "address",
          "name": "account",
          "type": "address"
        },
        {
          "indexed": true,
          "internalType": "address",
          "name": "sender",
          "type": "address"
        }
      ],
      "name": "RoleGranted",
      "type": "event"
    },
    {
      "anonymous": false,
      "inputs": [
        {
          "indexed": true,
          "internalType": "bytes32",
          "name": "role",
          "type": "bytes32"
        },
        {
          "indexed": true,
          "internalType": "address",
          "name": "account",
          "type": "address"
        },
        {
          "indexed": true,
          "internalType": "address",
          "name": "sender",
          "type": "address"
        }
      ],
      "name": "RoleRevoked",
      "type": "event"
    },
    {
      "inputs": [],
      "name": "ADMIRALS_QUARTERS_ROLE",
      "outputs": [
        {
          "internalType": "bytes32",
          "name": "",
          "type": "bytes32"
        }
      ],
      "stateMutability": "view",
      "type": "function"
    },
    {
      "inputs": [],
      "name": "DECAY_CONTROLLER_ROLE",
      "outputs": [
        {
          "internalType": "bytes32",
          "name": "",
          "type": "bytes32"
        }
      ],
      "stateMutability": "view",
      "type": "function"
    },
    {
      "inputs": [],
      "name": "DEFAULT_ADMIN_ROLE",
      "outputs": [
        {
          "internalType": "bytes32",
          "name": "",
          "type": "bytes32"
        }
      ],
      "stateMutability": "view",
      "type": "function"
    },
    {
      "inputs": [],
      "name": "GOVERNOR_ROLE",
      "outputs": [
        {
          "internalType": "bytes32",
          "name": "",
          "type": "bytes32"
        }
      ],
      "stateMutability": "view",
      "type": "function"
    },
    {
      "inputs": [],
      "name": "GUARDIAN_ROLE",
      "outputs": [
        {
          "internalType": "bytes32",
          "name": "",
          "type": "bytes32"
        }
      ],
      "stateMutability": "view",
      "type": "function"
    },
    {
      "inputs": [],
      "name": "SUPER_KEEPER_ROLE",
      "outputs": [
        {
          "internalType": "bytes32",
          "name": "",
          "type": "bytes32"
        }
      ],
      "stateMutability": "view",
      "type": "function"
    },
    {
      "inputs": [
        {
          "internalType": "enum ContractSpecificRoles",
          "name": "roleName",
          "type": "uint8"
        },
        {
          "internalType": "address",
          "name": "roleTargetContract",
          "type": "address"
        }
      ],
      "name": "generateRole",
      "outputs": [
        {
          "internalType": "bytes32",
          "name": "",
          "type": "bytes32"
        }
      ],
      "stateMutability": "pure",
      "type": "function"
    },
    {
      "inputs": [
        {
          "internalType": "bytes32",
          "name": "role",
          "type": "bytes32"
        }
      ],
      "name": "getRoleAdmin",
      "outputs": [
        {
          "internalType": "bytes32",
          "name": "",
          "type": "bytes32"
        }
      ],
      "stateMutability": "view",
      "type": "function"
    },
    {
      "inputs": [
        {
          "internalType": "address",
          "name": "account",
          "type": "address"
        }
      ],
      "name": "grantAdmiralsQuartersRole",
      "outputs": [],
      "stateMutability": "nonpayable",
      "type": "function"
    },
    {
      "inputs": [
        {
          "internalType": "address",
          "name": "arkAddress",
          "type": "address"
        },
        {
          "internalType": "address",
          "name": "account",
          "type": "address"
        }
      ],
      "name": "grantCommanderRole",
      "outputs": [],
      "stateMutability": "nonpayable",
      "type": "function"
    },
    {
      "inputs": [
        {
          "internalType": "enum ContractSpecificRoles",
          "name": "roleName",
          "type": "uint8"
        },
        {
          "internalType": "address",
          "name": "roleTargetContract",
          "type": "address"
        },
        {
          "internalType": "address",
          "name": "roleOwner",
          "type": "address"
        }
      ],
      "name": "grantContractSpecificRole",
      "outputs": [],
      "stateMutability": "nonpayable",
      "type": "function"
    },
    {
      "inputs": [
        {
          "internalType": "address",
          "name": "fleetCommanderAddress",
          "type": "address"
        },
        {
          "internalType": "address",
          "name": "account",
          "type": "address"
        }
      ],
      "name": "grantCuratorRole",
      "outputs": [],
      "stateMutability": "nonpayable",
      "type": "function"
    },
    {
      "inputs": [
        {
          "internalType": "address",
          "name": "account",
          "type": "address"
        }
      ],
      "name": "grantDecayControllerRole",
      "outputs": [],
      "stateMutability": "nonpayable",
      "type": "function"
    },
    {
      "inputs": [
        {
          "internalType": "address",
          "name": "account",
          "type": "address"
        }
      ],
      "name": "grantGovernorRole",
      "outputs": [],
      "stateMutability": "nonpayable",
      "type": "function"
    },
    {
      "inputs": [
        {
          "internalType": "address",
          "name": "account",
          "type": "address"
        }
      ],
      "name": "grantGuardianRole",
      "outputs": [],
      "stateMutability": "nonpayable",
      "type": "function"
    },
    {
      "inputs": [
        {
          "internalType": "address",
          "name": "fleetCommanderAddress",
          "type": "address"
        },
        {
          "internalType": "address",
          "name": "account",
          "type": "address"
        }
      ],
      "name": "grantKeeperRole",
      "outputs": [],
      "stateMutability": "nonpayable",
      "type": "function"
    },
    {
      "inputs": [
        {
          "internalType": "bytes32",
          "name": "",
          "type": "bytes32"
        },
        {
          "internalType": "address",
          "name": "",
          "type": "address"
        }
      ],
      "name": "grantRole",
      "outputs": [],
      "stateMutability": "view",
      "type": "function"
    },
    {
      "inputs": [
        {
          "internalType": "address",
          "name": "account",
          "type": "address"
        }
      ],
      "name": "grantSuperKeeperRole",
      "outputs": [],
      "stateMutability": "nonpayable",
      "type": "function"
    },
    {
      "inputs": [
        {
          "internalType": "bytes32",
          "name": "role",
          "type": "bytes32"
        },
        {
          "internalType": "address",
          "name": "account",
          "type": "address"
        }
      ],
      "name": "hasRole",
      "outputs": [
        {
          "internalType": "bool",
          "name": "",
          "type": "bool"
        }
      ],
      "stateMutability": "view",
      "type": "function"
    },
    {
      "inputs": [
        {
          "internalType": "bytes32",
          "name": "role",
          "type": "bytes32"
        },
        {
          "internalType": "address",
          "name": "callerConfirmation",
          "type": "address"
        }
      ],
      "name": "renounceRole",
      "outputs": [],
      "stateMutability": "nonpayable",
      "type": "function"
    },
    {
      "inputs": [
        {
          "internalType": "address",
          "name": "account",
          "type": "address"
        }
      ],
      "name": "revokeAdmiralsQuartersRole",
      "outputs": [],
      "stateMutability": "nonpayable",
      "type": "function"
    },
    {
      "inputs": [
        {
          "internalType": "address",
          "name": "arkAddress",
          "type": "address"
        },
        {
          "internalType": "address",
          "name": "account",
          "type": "address"
        }
      ],
      "name": "revokeCommanderRole",
      "outputs": [],
      "stateMutability": "nonpayable",
      "type": "function"
    },
    {
      "inputs": [
        {
          "internalType": "enum ContractSpecificRoles",
          "name": "roleName",
          "type": "uint8"
        },
        {
          "internalType": "address",
          "name": "roleTargetContract",
          "type": "address"
        },
        {
          "internalType": "address",
          "name": "roleOwner",
          "type": "address"
        }
      ],
      "name": "revokeContractSpecificRole",
      "outputs": [],
      "stateMutability": "nonpayable",
      "type": "function"
    },
    {
      "inputs": [
        {
          "internalType": "address",
          "name": "fleetCommanderAddress",
          "type": "address"
        },
        {
          "internalType": "address",
          "name": "account",
          "type": "address"
        }
      ],
      "name": "revokeCuratorRole",
      "outputs": [],
      "stateMutability": "nonpayable",
      "type": "function"
    },
    {
      "inputs": [
        {
          "internalType": "address",
          "name": "account",
          "type": "address"
        }
      ],
      "name": "revokeDecayControllerRole",
      "outputs": [],
      "stateMutability": "nonpayable",
      "type": "function"
    },
    {
      "inputs": [
        {
          "internalType": "address",
          "name": "account",
          "type": "address"
        }
      ],
      "name": "revokeGovernorRole",
      "outputs": [],
      "stateMutability": "nonpayable",
      "type": "function"
    },
    {
      "inputs": [
        {
          "internalType": "address",
          "name": "account",
          "type": "address"
        }
      ],
      "name": "revokeGuardianRole",
      "outputs": [],
      "stateMutability": "nonpayable",
      "type": "function"
    },
    {
      "inputs": [
        {
          "internalType": "address",
          "name": "fleetCommanderAddress",
          "type": "address"
        },
        {
          "internalType": "address",
          "name": "account",
          "type": "address"
        }
      ],
      "name": "revokeKeeperRole",
      "outputs": [],
      "stateMutability": "nonpayable",
      "type": "function"
    },
    {
      "inputs": [
        {
          "internalType": "bytes32",
          "name": "",
          "type": "bytes32"
        },
        {
          "internalType": "address",
          "name": "",
          "type": "address"
        }
      ],
      "name": "revokeRole",
      "outputs": [],
      "stateMutability": "view",
      "type": "function"
    },
    {
      "inputs": [
        {
          "internalType": "address",
          "name": "account",
          "type": "address"
        }
      ],
      "name": "revokeSuperKeeperRole",
      "outputs": [],
      "stateMutability": "nonpayable",
      "type": "function"
    },
    {
      "inputs": [
        {
          "internalType": "enum ContractSpecificRoles",
          "name": "roleName",
          "type": "uint8"
        },
        {
          "internalType": "address",
          "name": "roleTargetContract",
          "type": "address"
        }
      ],
      "name": "selfRevokeContractSpecificRole",
      "outputs": [],
      "stateMutability": "nonpayable",
      "type": "function"
    },
    {
      "inputs": [
        {
          "internalType": "bytes4",
          "name": "interfaceId",
          "type": "bytes4"
        }
      ],
      "name": "supportsInterface",
      "outputs": [
        {
          "internalType": "bool",
          "name": "",
          "type": "bool"
        }
      ],
      "stateMutability": "view",
      "type": "function"
    }
  ],
  "bytecode": "0x60803461006857601f61152c38819003918201601f19168301916001600160401b0383118484101761006c5780849260209460405283398101031261006857516001600160a01b03811681036100685761005890610080565b506040516113e0908161012c8239f35b5f80fd5b634e487b7160e01b5f52604160045260245ffd5b6001600160a01b0381165f9081525f51602061150c5f395f51905f52602052604090205460ff16610126576001600160a01b03165f8181525f51602061150c5f395f51905f5260205260408120805460ff191660011790553391907f7935bd0ae54bc31f548c14dba4d37c5c64b3f8ca900cb468fb8abd54d5894f55907f2f8788117e7eff1d82e926ec794901d17c78024a50270940304540a733656f0d9080a4600190565b505f9056fe6080806040526004361015610012575f80fd5b5f3560e01c90816301ffc9a7146109b05750806310e7b4891461096b5780631981b9a7146108f85780631bacdb34146108b35780631deb14aa1461086e578063248a9ca31461084257806324ea54f41461081b57806326088717146107f25780632a25d142146107b05780632da517221461076b5780632f2ff15d1461073e57806336568abe146106fa5780634b4b5389146106b55780634cfa61071461064257806353b53813146105cf57806366e943f1146105a857806366ebbf741461053557806369b3054b1461051a5780637820bd84146104d55780637adac90d14610493578063851ecbfd1461046a57806391d1485414610422578063a217fddf14610408578063a89f38a3146103e1578063c0b534c2146103ba578063ccc5749014610393578063d547741f14610366578063d55dd62b1461030f578063e4dd1dca146102ca578063e929666514610252578063e9eea177146101da5763fb914c391461017c575f80fd5b346101d65760203660031901126101d657610195610a1d565b335f9081525f51602061126b5f395f51905f52602052604090205460ff16156101c3576101c1906110f6565b005b630ea7d7ed60e21b5f523360045260245ffd5b5f80fd5b346101d65760403660031901126101d6576101f3610a1d565b6101fb610a33565b335f9081525f51602061126b5f395f51905f52602052604090205460ff16156101c357335f9081525f51602061126b5f395f51905f52602052604090205460ff16156101c35761024d6101c192610b5b565b610e89565b346101d65760403660031901126101d65761026b610a1d565b610273610a33565b335f9081525f51602061126b5f395f51905f52602052604090205460ff16156101c357335f9081525f51602061126b5f395f51905f52602052604090205460ff16156101c3576102c56101c192610b5b565b611174565b346101d65760203660031901126101d6576102e3610a1d565b335f9081525f51602061126b5f395f51905f52602052604090205460ff16156101c3576101c190610e09565b346101d65761032661032036610a8c565b90610b9d565b5f8181526020818152604080832033845290915290205460ff1615610350576101c1903390611174565b633f904edb60e11b5f523360045260245260445ffd5b346101d65760403660031901126101d65761037f610a33565b50636344978560e11b5f523360045260245ffd5b346101d6575f3660031901126101d65760206040515f5160206112cb5f395f51905f528152f35b346101d6575f3660031901126101d65760206040515f5160206112eb5f395f51905f528152f35b346101d6575f3660031901126101d65760206040515f51602061128b5f395f51905f528152f35b346101d6575f3660031901126101d65760206040515f8152f35b346101d65760403660031901126101d65761043b610a33565b6004355f525f60205260405f209060018060a01b03165f52602052602060ff60405f2054166040519015158152f35b346101d65760203660031901126101d6576101c1610486610a1d565b61048e6111e1565b610d89565b346101d6576104a136610a49565b335f9081525f51602061126b5f395f51905f5260205260409020549192909160ff16156101c3576101c1926102c591610b9d565b346101d65760203660031901126101d6576104ee610a1d565b335f9081525f51602061126b5f395f51905f52602052604090205460ff16156101c3576101c190611078565b346101d657602061052d61032036610a8c565b604051908152f35b346101d65760403660031901126101d65761054e610a1d565b610556610a33565b335f9081525f51602061126b5f395f51905f52602052604090205460ff16156101c357335f9081525f51602061126b5f395f51905f52602052604090205460ff16156101c35761024d6101c192610b15565b346101d6575f3660031901126101d65760206040515f51602061132b5f395f51905f528152f35b346101d65760403660031901126101d6576105e8610a1d565b6105f0610a33565b335f9081525f51602061126b5f395f51905f52602052604090205460ff16156101c357335f9081525f51602061126b5f395f51905f52602052604090205460ff16156101c3576102c56101c192610abb565b346101d65760403660031901126101d65761065b610a1d565b610663610a33565b335f9081525f51602061126b5f395f51905f52602052604090205460ff16156101c357335f9081525f51602061126b5f395f51905f52602052604090205460ff16156101c3576102c56101c192610b15565b346101d65760203660031901126101d6576106ce610a1d565b335f9081525f51602061126b5f395f51905f52602052604090205460ff16156101c3576101c190610ffa565b346101d65760403660031901126101d657610713610a33565b336001600160a01b0382160361072f576101c190600435611174565b63334bd91960e11b5f5260045ffd5b346101d65760403660031901126101d657610757610a33565b50630e15200f60e21b5f523360045260245ffd5b346101d65760203660031901126101d657610784610a1d565b335f9081525f51602061126b5f395f51905f52602052604090205460ff16156101c3576101c190610d09565b346101d6576107be36610a49565b335f9081525f51602061126b5f395f51905f5260205260409020549192909160ff16156101c3576101c19261024d91610b9d565b346101d65760203660031901126101d6576101c161080e610a1d565b6108166111e1565b610f7c565b346101d6575f3660031901126101d65760206040515f51602061136b5f395f51905f528152f35b346101d65760203660031901126101d6576004355f525f6020526020600160405f200154604051908152f35b346101d65760203660031901126101d657610887610a1d565b335f9081525f51602061126b5f395f51905f52602052604090205460ff16156101c3576101c190610c89565b346101d65760203660031901126101d6576108cc610a1d565b335f9081525f51602061126b5f395f51905f52602052604090205460ff16156101c3576101c190610efe565b346101d65760403660031901126101d657610911610a1d565b610919610a33565b335f9081525f51602061126b5f395f51905f52602052604090205460ff16156101c357335f9081525f51602061126b5f395f51905f52602052604090205460ff16156101c35761024d6101c192610abb565b346101d65760203660031901126101d657610984610a1d565b335f9081525f51602061126b5f395f51905f52602052604090205460ff16156101c3576101c190610c04565b346101d65760203660031901126101d6576004359063ffffffff60e01b82168092036101d6576020916338c7ccdb60e01b81149081156109f2575b5015158152f35b637965db0b60e01b811491508115610a0c575b50836109eb565b6301ffc9a760e01b14905083610a05565b600435906001600160a01b03821682036101d657565b602435906001600160a01b03821682036101d657565b60609060031901126101d65760043560038110156101d657906024356001600160a01b03811681036101d657906044356001600160a01b03811681036101d65790565b60409060031901126101d65760043560038110156101d657906024356001600160a01b03811681036101d65790565b6040516020810191600160f91b83526001600160601b03199060601b166021820152601581526040810181811067ffffffffffffffff821117610b015760405251902090565b634e487b7160e01b5f52604160045260245ffd5b6040516020810191600160f81b83526001600160601b03199060601b166021820152601581526040810181811067ffffffffffffffff821117610b015760405251902090565b60405160208101915f83526001600160601b03199060601b166021820152601581526040810181811067ffffffffffffffff821117610b015760405251902090565b906040519060208201926003811015610bf05760f81b835260601b6bffffffffffffffffffffffff19166021820152601581526040810167ffffffffffffffff811182821017610b015760405251902090565b634e487b7160e01b5f52602160045260245ffd5b6001600160a01b0381165f9081525f51602061124b5f395f51905f52602052604090205460ff16610c84576001600160a01b03165f8181525f51602061124b5f395f51905f5260205260408120805460ff191660011790553391905f51602061136b5f395f51905f52905f51602061122b5f395f51905f529080a4600190565b505f90565b6001600160a01b0381165f9081525f51602061130b5f395f51905f52602052604090205460ff16610c84576001600160a01b03165f8181525f51602061130b5f395f51905f5260205260408120805460ff191660011790553391905f5160206112eb5f395f51905f52905f51602061122b5f395f51905f529080a4600190565b6001600160a01b0381165f9081525f51602061138b5f395f51905f52602052604090205460ff16610c84576001600160a01b03165f8181525f51602061138b5f395f51905f5260205260408120805460ff191660011790553391905f51602061132b5f395f51905f52905f51602061122b5f395f51905f529080a4600190565b6001600160a01b0381165f9081525f5160206112ab5f395f51905f52602052604090205460ff16610c84576001600160a01b03165f8181525f5160206112ab5f395f51905f5260205260408120805460ff191660011790553391905f51602061128b5f395f51905f52905f51602061122b5f395f51905f529080a4600190565b6001600160a01b0381165f9081525f51602061126b5f395f51905f52602052604090205460ff16610c84576001600160a01b03165f8181525f51602061126b5f395f51905f5260205260408120805460ff191660011790553391905f5160206112cb5f395f51905f52905f51602061122b5f395f51905f529080a4600190565b5f818152602081815260408083206001600160a01b038616845290915290205460ff16610ef8575f818152602081815260408083206001600160a01b0395909516808452949091528120805460ff19166001179055339291905f51602061122b5f395f51905f529080a4600190565b50505f90565b6001600160a01b0381165f9081525f51602061138b5f395f51905f52602052604090205460ff1615610c84576001600160a01b03165f8181525f51602061138b5f395f51905f5260205260408120805460ff191690553391905f51602061132b5f395f51905f52905f51602061134b5f395f51905f529080a4600190565b6001600160a01b0381165f9081525f5160206112ab5f395f51905f52602052604090205460ff1615610c84576001600160a01b03165f8181525f5160206112ab5f395f51905f5260205260408120805460ff191690553391905f51602061128b5f395f51905f52905f51602061134b5f395f51905f529080a4600190565b6001600160a01b0381165f9081525f51602061124b5f395f51905f52602052604090205460ff1615610c84576001600160a01b03165f8181525f51602061124b5f395f51905f5260205260408120805460ff191690553391905f51602061136b5f395f51905f52905f51602061134b5f395f51905f529080a4600190565b6001600160a01b0381165f9081525f51602061130b5f395f51905f52602052604090205460ff1615610c84576001600160a01b03165f8181525f51602061130b5f395f51905f5260205260408120805460ff191690553391905f5160206112eb5f395f51905f52905f51602061134b5f395f51905f529080a4600190565b6001600160a01b0381165f9081525f51602061126b5f395f51905f52602052604090205460ff1615610c84576001600160a01b03165f8181525f51602061126b5f395f51905f5260205260408120805460ff191690553391905f5160206112cb5f395f51905f52905f51602061134b5f395f51905f529080a4600190565b5f818152602081815260408083206001600160a01b038616845290915290205460ff1615610ef8575f818152602081815260408083206001600160a01b0395909516808452949091528120805460ff19169055339291905f51602061134b5f395f51905f529080a4600190565b335f9081525f51602061126b5f395f51905f52602052604090205460ff161561120657565b63e2517d3f60e01b5f52336004525f5160206112cb5f395f51905f5260245260445ffdfe2f8788117e7eff1d82e926ec794901d17c78024a50270940304540a733656f0d8a40f0b47fdc2a0ce293b772acfc7508c8315a4d462786c1adc3a56f92ca2d056f3b488caa0dc03e5f3d9fd6a25fa8755afcfd62ccffb6e436c696bfa6b866deb00be3d6a5434b97b328543d1486d56adcb7e74080170d1cdd7e0306c3d9ba3d4535dd5013f28fff064e7de1c0ddf5a8936f931a6ee9d5ef728652e316088f3f7935bd0ae54bc31f548c14dba4d37c5c64b3f8ca900cb468fb8abd54d5894f55025d8bbf3268be680d2605ebf6da15063b9915615bf1087dab336efc1bf970cb990669d3503eee76d7d1115bda8b69d54719d289b9aabc08a7ec67ca29331cb60d186688925976bbe6755ae984501c8e3e2b103a7af59fd803ab9c6d891ae7e0f6391f5c32d9c69d2a47ea670b442974b53935d1edc7fd64eb21e047a839171b55435dd261a4b9b3364963f7738a7a662ad9c84396d64be3365284bb7f0a5041c742cb36aa3eadb553c6dfee24901a50d6d8e6a294ddb4de13e076ec7e6d776fa26469706673582212207c1e0dd333aba4e7a04f64a78e45dda9b9d0bb31ff56581eb87c2c4cf2982eea64736f6c634300081c00336f3b488caa0dc03e5f3d9fd6a25fa8755afcfd62ccffb6e436c696bfa6b866de",
  "linkReferences": {},
  "deployedLinkReferences": {}
}