{
  "_format": "hh-sol-artifact-1",
  "contractName": "TipJar",
  "sourceName": "src/contracts/TipJar.sol",
  "abi": [
    {
      "inputs": [
        {
          "internalType": "address",
          "name": "_accessManager",
          "type": "address"
        },
        {
          "internalType": "address",
          "name": "_configurationManager",
          "type": "address"
        }
      ],
      "stateMutability": "nonpayable",
      "type": "constructor"
    },
    {
      "inputs": [
        {
          "internalType": "address",
          "name": "caller",
          "type": "address"
        }
      ],
      "name": "CallerIsNotAdmin",
      "type": "error"
    },
    {
      "inputs": [
        {
          "internalType": "address",
          "name": "caller",
          "type": "address"
        }
      ],
      "name": "CallerIsNotAuthorizedToBoard",
      "type": "error"
    },
    {
      "inputs": [
        {
          "internalType": "address",
          "name": "caller",
          "type": "address"
        }
      ],
      "name": "CallerIsNotCommander",
      "type": "error"
    },
    {
      "inputs": [
        {
          "internalType": "address",
          "name": "caller",
          "type": "address"
        },
        {
          "internalType": "bytes32",
          "name": "role",
          "type": "bytes32"
        }
      ],
      "name": "CallerIsNotContractSpecificRole",
      "type": "error"
    },
    {
      "inputs": [
        {
          "internalType": "address",
          "name": "caller",
          "type": "address"
        }
      ],
      "name": "CallerIsNotCurator",
      "type": "error"
    },
    {
      "inputs": [
        {
          "internalType": "address",
          "name": "caller",
          "type": "address"
        }
      ],
      "name": "CallerIsNotDecayController",
      "type": "error"
    },
    {
      "inputs": [
        {
          "internalType": "address",
          "name": "caller",
          "type": "address"
        }
      ],
      "name": "CallerIsNotGovernor",
      "type": "error"
    },
    {
      "inputs": [
        {
          "internalType": "address",
          "name": "caller",
          "type": "address"
        }
      ],
      "name": "CallerIsNotGuardian",
      "type": "error"
    },
    {
      "inputs": [
        {
          "internalType": "address",
          "name": "caller",
          "type": "address"
        }
      ],
      "name": "CallerIsNotGuardianOrGovernor",
      "type": "error"
    },
    {
      "inputs": [
        {
          "internalType": "address",
          "name": "caller",
          "type": "address"
        }
      ],
      "name": "CallerIsNotKeeper",
      "type": "error"
    },
    {
      "inputs": [
        {
          "internalType": "address",
          "name": "caller",
          "type": "address"
        }
      ],
      "name": "CallerIsNotRaft",
      "type": "error"
    },
    {
      "inputs": [
        {
          "internalType": "address",
          "name": "caller",
          "type": "address"
        }
      ],
      "name": "CallerIsNotRaftOrCommander",
      "type": "error"
    },
    {
      "inputs": [
        {
          "internalType": "address",
          "name": "caller",
          "type": "address"
        }
      ],
      "name": "CallerIsNotSuperKeeper",
      "type": "error"
    },
    {
      "inputs": [],
      "name": "ConfigurationManagerZeroAddress",
      "type": "error"
    },
    {
      "inputs": [
        {
          "internalType": "address",
          "name": "caller",
          "type": "address"
        }
      ],
      "name": "DirectGrantIsDisabled",
      "type": "error"
    },
    {
      "inputs": [
        {
          "internalType": "address",
          "name": "caller",
          "type": "address"
        }
      ],
      "name": "DirectRevokeIsDisabled",
      "type": "error"
    },
    {
      "inputs": [],
      "name": "EnforcedPause",
      "type": "error"
    },
    {
      "inputs": [],
      "name": "ExpectedPause",
      "type": "error"
    },
    {
      "inputs": [
        {
          "internalType": "address",
          "name": "invalidAddress",
          "type": "address"
        }
      ],
      "name": "InvalidAccessManagerAddress",
      "type": "error"
    },
    {
      "inputs": [],
      "name": "InvalidFleetCommanderAddress",
      "type": "error"
    },
    {
      "inputs": [],
      "name": "InvalidRecipientAddress",
      "type": "error"
    },
    {
      "inputs": [
        {
          "internalType": "Percentage",
          "name": "invalidAllocation",
          "type": "uint256"
        }
      ],
      "name": "InvalidTipStreamAllocation",
      "type": "error"
    },
    {
      "inputs": [],
      "name": "InvalidTreasuryAddress",
      "type": "error"
    },
    {
      "inputs": [],
      "name": "NoAssetsToDistribute",
      "type": "error"
    },
    {
      "inputs": [],
      "name": "NoSharesToRedeem",
      "type": "error"
    },
    {
      "inputs": [
        {
          "internalType": "address",
          "name": "recipient",
          "type": "address"
        }
      ],
      "name": "TipStreamAlreadyExists",
      "type": "error"
    },
    {
      "inputs": [
        {
          "internalType": "address",
          "name": "recipient",
          "type": "address"
        }
      ],
      "name": "TipStreamDoesNotExist",
      "type": "error"
    },
    {
      "inputs": [
        {
          "internalType": "address",
          "name": "recipient",
          "type": "address"
        }
      ],
      "name": "TipStreamLocked",
      "type": "error"
    },
    {
      "inputs": [],
      "name": "TotalAllocationExceedsOneHundredPercent",
      "type": "error"
    },
    {
      "anonymous": false,
      "inputs": [
        {
          "indexed": false,
          "internalType": "address",
          "name": "account",
          "type": "address"
        }
      ],
      "name": "Paused",
      "type": "event"
    },
    {
      "anonymous": false,
      "inputs": [
        {
          "indexed": true,
          "internalType": "address",
          "name": "account",
          "type": "address"
        }
      ],
      "name": "TipJarPaused",
      "type": "event"
    },
    {
      "anonymous": false,
      "inputs": [
        {
          "indexed": true,
          "internalType": "address",
          "name": "fleetCommander",
          "type": "address"
        },
        {
          "indexed": false,
          "internalType": "uint256",
          "name": "totalDistributed",
          "type": "uint256"
        }
      ],
      "name": "TipJarShaken",
      "type": "event"
    },
    {
      "anonymous": false,
      "inputs": [
        {
          "indexed": true,
          "internalType": "address",
          "name": "account",
          "type": "address"
        }
      ],
      "name": "TipJarUnpaused",
      "type": "event"
    },
    {
      "anonymous": false,
      "inputs": [
        {
          "components": [
            {
              "internalType": "address",
              "name": "recipient",
              "type": "address"
            },
            {
              "internalType": "Percentage",
              "name": "allocation",
              "type": "uint256"
            },
            {
              "internalType": "uint256",
              "name": "lockedUntilEpoch",
              "type": "uint256"
            }
          ],
          "indexed": false,
          "internalType": "struct ITipJar.TipStream",
          "name": "tipStream",
          "type": "tuple"
        }
      ],
      "name": "TipStreamAdded",
      "type": "event"
    },
    {
      "anonymous": false,
      "inputs": [
        {
          "indexed": true,
          "internalType": "address",
          "name": "recipient",
          "type": "address"
        }
      ],
      "name": "TipStreamRemoved",
      "type": "event"
    },
    {
      "anonymous": false,
      "inputs": [
        {
          "components": [
            {
              "internalType": "address",
              "name": "recipient",
              "type": "address"
            },
            {
              "internalType": "Percentage",
              "name": "allocation",
              "type": "uint256"
            },
            {
              "internalType": "uint256",
              "name": "lockedUntilEpoch",
              "type": "uint256"
            }
          ],
          "indexed": false,
          "internalType": "struct ITipJar.TipStream",
          "name": "oldTipStream",
          "type": "tuple"
        },
        {
          "components": [
            {
              "internalType": "address",
              "name": "recipient",
              "type": "address"
            },
            {
              "internalType": "Percentage",
              "name": "allocation",
              "type": "uint256"
            },
            {
              "internalType": "uint256",
              "name": "lockedUntilEpoch",
              "type": "uint256"
            }
          ],
          "indexed": false,
          "internalType": "struct ITipJar.TipStream",
          "name": "newTipStream",
          "type": "tuple"
        }
      ],
      "name": "TipStreamUpdated",
      "type": "event"
    },
    {
      "anonymous": false,
      "inputs": [
        {
          "indexed": false,
          "internalType": "address",
          "name": "account",
          "type": "address"
        }
      ],
      "name": "Unpaused",
      "type": "event"
    },
    {
      "inputs": [
        {
          "components": [
            {
              "internalType": "address",
              "name": "recipient",
              "type": "address"
            },
            {
              "internalType": "Percentage",
              "name": "allocation",
              "type": "uint256"
            },
            {
              "internalType": "uint256",
              "name": "lockedUntilEpoch",
              "type": "uint256"
            }
          ],
          "internalType": "struct ITipJar.TipStream",
          "name": "tipStream",
          "type": "tuple"
        }
      ],
      "name": "addTipStream",
      "outputs": [
        {
          "internalType": "uint256",
          "name": "lockedUntilEpoch",
          "type": "uint256"
        }
      ],
      "stateMutability": "nonpayable",
      "type": "function"
    },
    {
      "inputs": [],
      "name": "configurationManager",
      "outputs": [
        {
          "internalType": "contract IConfigurationManager",
          "name": "",
          "type": "address"
        }
      ],
      "stateMutability": "view",
      "type": "function"
    },
    {
      "inputs": [],
      "name": "fleetCommanderRewardsManagerFactory",
      "outputs": [
        {
          "internalType": "address",
          "name": "",
          "type": "address"
        }
      ],
      "stateMutability": "view",
      "type": "function"
    },
    {
      "inputs": [
        {
          "internalType": "enum ContractSpecificRoles",
          "name": "roleName",
          "type": "uint8"
        },
        {
          "internalType": "address",
          "name": "roleTargetContract",
          "type": "address"
        }
      ],
      "name": "generateRole",
      "outputs": [
        {
          "internalType": "bytes32",
          "name": "",
          "type": "bytes32"
        }
      ],
      "stateMutability": "pure",
      "type": "function"
    },
    {
      "inputs": [],
      "name": "getAllTipStreams",
      "outputs": [
        {
          "components": [
            {
              "internalType": "address",
              "name": "recipient",
              "type": "address"
            },
            {
              "internalType": "Percentage",
              "name": "allocation",
              "type": "uint256"
            },
            {
              "internalType": "uint256",
              "name": "lockedUntilEpoch",
              "type": "uint256"
            }
          ],
          "internalType": "struct ITipJar.TipStream[]",
          "name": "allStreams",
          "type": "tuple[]"
        }
      ],
      "stateMutability": "view",
      "type": "function"
    },
    {
      "inputs": [
        {
          "internalType": "address",
          "name": "recipient",
          "type": "address"
        }
      ],
      "name": "getTipStream",
      "outputs": [
        {
          "components": [
            {
              "internalType": "address",
              "name": "recipient",
              "type": "address"
            },
            {
              "internalType": "Percentage",
              "name": "allocation",
              "type": "uint256"
            },
            {
              "internalType": "uint256",
              "name": "lockedUntilEpoch",
              "type": "uint256"
            }
          ],
          "internalType": "struct ITipJar.TipStream",
          "name": "",
          "type": "tuple"
        }
      ],
      "stateMutability": "view",
      "type": "function"
    },
    {
      "inputs": [],
      "name": "getTotalAllocation",
      "outputs": [
        {
          "internalType": "Percentage",
          "name": "total",
          "type": "uint256"
        }
      ],
      "stateMutability": "view",
      "type": "function"
    },
    {
      "inputs": [],
      "name": "harborCommand",
      "outputs": [
        {
          "internalType": "address",
          "name": "",
          "type": "address"
        }
      ],
      "stateMutability": "view",
      "type": "function"
    },
    {
      "inputs": [],
      "name": "pause",
      "outputs": [],
      "stateMutability": "nonpayable",
      "type": "function"
    },
    {
      "inputs": [],
      "name": "paused",
      "outputs": [
        {
          "internalType": "bool",
          "name": "",
          "type": "bool"
        }
      ],
      "stateMutability": "view",
      "type": "function"
    },
    {
      "inputs": [],
      "name": "raft",
      "outputs": [
        {
          "internalType": "address",
          "name": "",
          "type": "address"
        }
      ],
      "stateMutability": "view",
      "type": "function"
    },
    {
      "inputs": [
        {
          "internalType": "address",
          "name": "recipient",
          "type": "address"
        }
      ],
      "name": "removeTipStream",
      "outputs": [],
      "stateMutability": "nonpayable",
      "type": "function"
    },
    {
      "inputs": [
        {
          "internalType": "address",
          "name": "fleetCommander_",
          "type": "address"
        }
      ],
      "name": "shake",
      "outputs": [],
      "stateMutability": "nonpayable",
      "type": "function"
    },
    {
      "inputs": [],
      "name": "shakeAll",
      "outputs": [],
      "stateMutability": "nonpayable",
      "type": "function"
    },
    {
      "inputs": [
        {
          "internalType": "address[]",
          "name": "fleetCommanders",
          "type": "address[]"
        }
      ],
      "name": "shakeMultiple",
      "outputs": [],
      "stateMutability": "nonpayable",
      "type": "function"
    },
    {
      "inputs": [],
      "name": "tipJar",
      "outputs": [
        {
          "internalType": "address",
          "name": "",
          "type": "address"
        }
      ],
      "stateMutability": "view",
      "type": "function"
    },
    {
      "inputs": [
        {
          "internalType": "uint256",
          "name": "",
          "type": "uint256"
        }
      ],
      "name": "tipStreamRecipients",
      "outputs": [
        {
          "internalType": "address",
          "name": "",
          "type": "address"
        }
      ],
      "stateMutability": "view",
      "type": "function"
    },
    {
      "inputs": [
        {
          "internalType": "address",
          "name": "recipient",
          "type": "address"
        }
      ],
      "name": "tipStreams",
      "outputs": [
        {
          "internalType": "address",
          "name": "recipient",
          "type": "address"
        },
        {
          "internalType": "Percentage",
          "name": "allocation",
          "type": "uint256"
        },
        {
          "internalType": "uint256",
          "name": "lockedUntilEpoch",
          "type": "uint256"
        }
      ],
      "stateMutability": "view",
      "type": "function"
    },
    {
      "inputs": [],
      "name": "treasury",
      "outputs": [
        {
          "internalType": "address",
          "name": "",
          "type": "address"
        }
      ],
      "stateMutability": "view",
      "type": "function"
    },
    {
      "inputs": [],
      "name": "unpause",
      "outputs": [],
      "stateMutability": "nonpayable",
      "type": "function"
    },
    {
      "inputs": [
        {
          "components": [
            {
              "internalType": "address",
              "name": "recipient",
              "type": "address"
            },
            {
              "internalType": "Percentage",
              "name": "allocation",
              "type": "uint256"
            },
            {
              "internalType": "uint256",
              "name": "lockedUntilEpoch",
              "type": "uint256"
            }
          ],
          "internalType": "struct ITipJar.TipStream",
          "name": "tipStream",
          "type": "tuple"
        },
        {
          "internalType": "bool",
          "name": "shakeAllFleetCommanders",
          "type": "bool"
        }
      ],
      "name": "updateTipStream",
      "outputs": [],
      "stateMutability": "nonpayable",
      "type": "function"
    }
  ],
  "bytecode": "0x60a08060405234610139576040816119d3803803809161001f8285610163565b8339810103126101395761003e60206100378361019a565b920161019a565b6001600160a01b03909116908115610150576040516301ffc9a760e01b8152639bd1803160e01b6004820152602081602481865afa908115610145575f91610106575b50156100f3575f54906001600160a01b031680156100e4576080526001600160a81b031916175f5560405161182490816101af82396080518181816101460152818161033401528181610a8401528181610f5a01528181611115015261119c0152f35b63f1634df960e01b5f5260045ffd5b506347bd7c1d60e01b5f5260045260245ffd5b90506020813d60201161013d575b8161012160209383610163565b8101031261013957518015158103610139575f610081565b5f80fd5b3d9150610114565b6040513d5f823e3d90fd5b6347bd7c1d60e01b5f525f60045260245ffd5b601f909101601f19168101906001600160401b0382119082101761018657604052565b634e487b7160e01b5f52604160045260245ffd5b51906001600160a01b03821682036101395756fe6080806040526004361015610012575f80fd5b5f3560e01c908163117d8ae014610f395750806315d3b5d814610f1757806319d8b41c14610d3a5780633f4ba83a14610bee578063407f25fb14610bac5780635b0f83f314610b925780635c975abb14610b6e57806361d027b314610b4257806369b3054b14610acf5780637aaceb9514610a5f578063839b0885146109ba5780638456cb5914610868578063908cbdc6146107f6578063908fb02d146105f7578063b2cdc7db146105a0578063bf7c1cc114610363578063c9c667e31461031f578063efffce6114610200578063f5abfe5e146101d7578063f7e533ec146101215763fffa445e14610103575f80fd5b3461011d575f36600319011261011d5761011b61122e565b005b5f80fd5b3461011d575f36600319011261011d57604051633df94cfb60e21b81526020816004817f00000000000000000000000000000000000000000000000000000000000000006001600160a01b03165afa80156101cc575f90610192575b6040516001600160a01b039091168152602090f35b506020813d6020116101c4575b816101ac60209383610fc1565b8101031261011d576101bf602091611088565b61017d565b3d915061019f565b6040513d5f823e3d90fd5b3461011d57602036600319011261011d5761011b6101f3610fe3565b6101fb611418565b611435565b3461011d575f36600319011261011d5760025461021c816111d7565b9061022a6040519283610fc1565b808252601f19610239826111d7565b015f5b8181106103085750505f5b81811061029e57826040518091602082016020835281518091526020604084019201905f5b81811061027a575050500390f35b9193509160206060826102906001948851611066565b01940191019184939261026c565b806102aa60019261103a565b838060a01b0391549060031b1c165f528160205260405f206002604051916102d183610fa5565b848060a01b038154168352848101546020840152015460408201526102f6828661121a565b52610301818561121a565b5001610247565b6020906103136111ef565b8282870101520161023c565b3461011d575f36600319011261011d576040517f00000000000000000000000000000000000000000000000000000000000000006001600160a01b03168152602090f35b3461011d57602036600319011261011d5761037c610fe3565b5f54604051630ccc574960e41b81526001600160a01b0390911690602081600481855afa9081156101cc575f9161056c575b50604051632474521560e21b815260048101919091523360248201529060209082908180604481015b03915afa9081156101cc575f9161053d575b501561052a576103f881611316565b60018060a01b0316805f5260016020525f60026040822082815582600182015501555f5b600254908181101561052357826104328261103a565b905460039190911b1c6001600160a01b03161461045357600191500161041c565b5f19820191821161050f5761048561046d6104a99361103a565b905460039190911b1c6001600160a01b03169161103a565b81546001600160a01b0393841660039290921b91821b9390911b1916919091179055565b60025480156104fb575f19016104be8161103a565b81549060018060a01b039060031b1b191690556002555b7f27d83e91c23e8d23e65c7096fcf662b306a1b459d3f1f2451462ad9817449e985f80a2005b634e487b7160e01b5f52603160045260245ffd5b634e487b7160e01b5f52601160045260245ffd5b50506104d5565b630ea7d7ed60e21b5f523360045260245ffd5b61055f915060203d602011610565575b6105578183610fc1565b8101906110e8565b826103e9565b503d61054d565b90506020813d602011610598575b8161058760209383610fc1565b8101031261011d57516103d76103ae565b3d915061057a565b3461011d57602036600319011261011d576001600160a01b036105c1610fe3565b165f526001602052606060405f2060018060a01b0381541690600260018201549101549060405192835260208301526040820152f35b3461011d57606036600319011261011d5761061136610ff9565b5f54604051630ccc574960e41b81526001600160a01b0390911690602081600481855afa9081156101cc575f916107c2575b50604051632474521560e21b815260048101919091523360248201529060209082908180604481015b03915afa9081156101cc575f916107a3575b501561052a5780516001600160a01b039081165f908152600160205260409020541661078357602081016106cc815160018060a01b038451165f526001602052600160405f20015490611374565b81516001600160a01b039081165f90815260016020819052604091829020855181546001600160a01b0319169416938417815593519084015583018051600293840155915490600160401b82101561076f576020936107586060926104858560017fc74f22a7864325ef73181ac12dffdb2376c8c1ae1a55c09314bb85c3cb547e2c970160025561103a565b6107656040518092611066565ba151604051908152f35b634e487b7160e01b5f52604160045260245ffd5b5163ca86ad5f60e01b5f9081526001600160a01b03909116600452602490fd5b6107bc915060203d602011610565576105578183610fc1565b8261067e565b90506020813d6020116107ee575b816107dd60209383610fc1565b8101031261011d575161066c610643565b3d91506107d0565b3461011d57602036600319011261011d5761080f610fe3565b6108176111ef565b5060018060a01b03165f526001602052606060405f2060026040519161083c83610fa5565b60018060a01b03815416835260018101546020840152015460408201526108666040518092611066565bf35b3461011d575f36600319011261011d575f5460405163093a953d60e21b81526001600160a01b03821690602081600481855afa9081156101cc575f91610986575b50604051632474521560e21b815260048101919091523360248201529060209082908180604481015b03915afa9081156101cc575f91610967575b5015610954576108f2611418565b60ff60a01b1916600160a01b175f556040513381527f62e78cea01bee320cd4e420270b5ea74000d11b0c9f74754ebdbfc544b05a25890602090a1337f14d52775fdf448adb1590a213d36c4b16e90211feebaace272ba2d196bd7c9625f80a2005b635560e16d60e01b5f523360045260245ffd5b610980915060203d602011610565576105578183610fc1565b826108e4565b90506020813d6020116109b2575b816109a160209383610fc1565b8101031261011d57516108d26108a9565b3d9150610994565b3461011d57602036600319011261011d5760043567ffffffffffffffff811161011d573660238201121561011d57806004013567ffffffffffffffff811161011d5760248160051b83010136811161011d57610a15826111d7565b91610a236040519384610fc1565b82526024602083019301925b818410610a3f5761011b836113e2565b83356001600160a01b038116810361011d57815260209384019301610a2f565b3461011d575f36600319011261011d57604051637aaceb9560e01b81526020816004817f00000000000000000000000000000000000000000000000000000000000000006001600160a01b03165afa80156101cc575f90610192576040516001600160a01b039091168152602090f35b3461011d57604036600319011261011d57600435600381101561011d57602435906001600160a01b038216820361011d57602091604051908382019260f81b83526bffffffffffffffffffffffff199060601b16602182015260158152610b37603582610fc1565b519020604051908152f35b3461011d575f36600319011261011d576020610b5c611187565b6040516001600160a01b039091168152f35b3461011d575f36600319011261011d57602060ff5f5460a01c166040519015158152f35b3461011d575f36600319011261011d576020610b5c611100565b3461011d57602036600319011261011d5760043560025481101561011d57610bd560209161103a565b905460405160039290921b1c6001600160a01b03168152f35b3461011d575f36600319011261011d575f54604051630ccc574960e41b81526001600160a01b03821690602081600481855afa9081156101cc575f91610d06575b50604051632474521560e21b815260048101919091523360248201529060209082908180604481015b03915afa9081156101cc575f91610ce7575b501561052a5760ff8160a01c1615610cd85760ff60a01b19165f556040513381527f5db9ee0a495bf2e6ff9c91a7834c1ba4fdd244a5e8aa4e537bd38aeae4b073aa90602090a1337fd57b21780f69067eafb3fc443fd50132e616575b1143938eb3e43a56047c85475f80a2005b638dfc202b60e01b5f5260045ffd5b610d00915060203d602011610565576105578183610fc1565b82610c6a565b90506020813d602011610d32575b81610d2160209383610fc1565b8101031261011d5751610c58610c2f565b3d9150610d14565b3461011d57608036600319011261011d57610d5436610ff9565b60643590811515820361011d575f54604051630ccc574960e41b81526001600160a01b0390911690602081600481855afa9081156101cc575f91610ee3575b50604051632474521560e21b815260048101919091523360248201529060209082908180604481015b03915afa9081156101cc575f91610ec4575b501561052a577ff98da2985cf0f5057e1736402dc428a8e3b5e75cbb807bfd12fc7a438e0c33e291610eb460c092610e0e60018060a01b03825116611316565b60018060a01b038151165f52600160205260405f2060405193610e3085610fa5565b60018060a01b038254168552600260018301549283602088015201546040860152610e6060208401928351611374565b610eb7575b5160018060a01b038251165f526001602052600160405f200155604081015160018060a01b038251165f526001602052600260405f200155610eaa6040518094611066565b6060830190611066565ba1005b610ebf61122e565b610e65565b610edd915060203d602011610565576105578183610fc1565b83610dce565b90506020813d602011610f0f575b81610efe60209383610fc1565b8101031261011d5751610dbc610d93565b3d9150610ef1565b3461011d575f36600319011261011d576020610f3161109c565b604051908152f35b3461011d575f36600319011261011d57628bec5760e51b81526020816004817f00000000000000000000000000000000000000000000000000000000000000006001600160a01b03165afa80156101cc575f90610192576040516001600160a01b039091168152602090f35b6060810190811067ffffffffffffffff82111761076f57604052565b90601f8019910116810190811067ffffffffffffffff82111761076f57604052565b600435906001600160a01b038216820361011d57565b606090600319011261011d576040519061101282610fa5565b816004356001600160a01b038116810361011d57815260243560208201526040604435910152565b6002548110156110525760025f5260205f2001905f90565b634e487b7160e01b5f52603260045260245ffd5b80516001600160a01b0316825260208082015190830152604090810151910152565b51906001600160a01b038216820361011d57565b5f905f6002545b8082106110ae575050565b90926110e06001916110bf8661103a565b848060a01b0391549060031b1c165f52826020528260405f20015490611309565b9301906110a3565b9081602091031261011d5751801515810361011d5790565b604051635b0f83f360e01b81526020816004817f00000000000000000000000000000000000000000000000000000000000000006001600160a01b03165afa9081156101cc575f91611150575090565b90506020813d60201161117f575b8161116b60209383610fc1565b8101031261011d5761117c90611088565b90565b3d915061115e565b6040516361d027b360e01b81526020816004817f00000000000000000000000000000000000000000000000000000000000000006001600160a01b03165afa9081156101cc575f91611150575090565b67ffffffffffffffff811161076f5760051b60200190565b604051906111fc82610fa5565b5f6040838281528260208201520152565b9190820391821161050f57565b80518210156110525760209160051b010190565b60045f6001600160a01b03611241611100565b166040519283809263ab4ba0f760e01b82525afa80156101cc575f9061126e575b61126c91506113e2565b565b503d805f833e61127e8183610fc1565b81019060208183031261011d5780519067ffffffffffffffff821161011d57019080601f8301121561011d5781516112b5816111d7565b926112c36040519485610fc1565b81845260208085019260051b82010192831161011d57602001905b8282106112f15750505061126c90611262565b602080916112fe84611088565b8152019101906112de565b9190820180921161050f57565b6001600160a01b039081165f818152600160205260409020549091161561136257805f526001602052600260405f20015442106113505750565b63214b419b60e21b5f5260045260245ffd5b63b295314d60e01b5f5260045260245ffd5b9190821580156113d0575b6113bd5761139861139d929361139361109c565b611309565b61120d565b68056bc75e2d63100000106113ae57565b63b12ff28560e01b5f5260045ffd5b8263354436e360e01b5f5260045260245ffd5b5068056bc75e2d63100000831161137f565b905f5b82518110156114135760019061140d6001600160a01b03611406838761121a565b5116611435565b016113e5565b509050565b60ff5f5460a01c1661142657565b63d93c066560e01b5f5260045ffd5b602460206001600160a01b03611449611100565b6040516374e806ab60e11b81526001600160a01b03909516600486018190529493849290918391165afa9081156101cc575f916117cf575b50156117c0576040516370a0823160e01b815230600482015291602083602481855afa9283156101cc575f9361178c575b50821561177d5760405192635d043b2960e11b845260048401523060248401523060448401526020836064815f865af19283156101cc575f93611749575b50821561173a576040516338d52e0f60e01b8152602081600481865afa9081156101cc575f91611700575b506001600160a01b0316925f918290815b60025481101561161b5761153f8161103a565b60018060a01b0391549060031b1c16805f526001602052611568600160405f2001548095611309565b9368056bc75e2d6310000090818603611608575050611587868661120d565b905b81611599575b505060010161152c565b60405163a9059cbb60e01b81526001600160a01b03919091166004820152602481018290529195906020836044815f8d5af19182156101cc576001936115e4936115ec575b50611309565b94905f61158f565b6116039060203d8111610565576105578183610fc1565b6115de565b808702908782040361050f570490611589565b5094919261162a91508361120d565b9081611660575b505060207fd3f5fdad4c895ab394f249ba2c358f247600664c003b17a0f4ee80309c41a3ae91604051908152a2565b6116a79291602091611670611187565b60405163a9059cbb60e01b81526001600160a01b0390911660048201526024810192909252909384919082905f9082906044820190565b03925af19081156101cc577fd3f5fdad4c895ab394f249ba2c358f247600664c003b17a0f4ee80309c41a3ae926020926116e3575b5091611631565b6116f990833d8511610565576105578183610fc1565b505f6116dc565b90506020813d602011611732575b8161171b60209383610fc1565b8101031261011d5761172c90611088565b5f61151b565b3d915061170e565b63319f812560e21b5f5260045ffd5b9092506020813d602011611775575b8161176560209383610fc1565b8101031261011d5751915f6114f0565b3d9150611758565b63f10cc93760e01b5f5260045ffd5b9092506020813d6020116117b8575b816117a860209383610fc1565b8101031261011d5751915f6114b2565b3d915061179b565b635ec4fa1360e11b5f5260045ffd5b6117e8915060203d602011610565576105578183610fc1565b5f61148156fea2646970667358221220c9b91d0f9cbb4f0fc71aea1ecdf9041df9ea8eb0d91de39db72f572153f45fd164736f6c634300081c0033",
  "linkReferences": {},
  "deployedLinkReferences": {}
}