{
  "_format": "hh-sol-artifact-1",
  "contractName": "AdmiralsQuarters",
  "sourceName": "src/contracts/AdmiralsQuarters.sol",
  "abi": [
    {
      "inputs": [
        {
          "internalType": "address",
          "name": "_oneInchRouter",
          "type": "address"
        },
        {
          "internalType": "address",
          "name": "_configurationManager",
          "type": "address"
        }
      ],
      "stateMutability": "nonpayable",
      "type": "constructor"
    },
    {
      "inputs": [
        {
          "internalType": "address",
          "name": "target",
          "type": "address"
        }
      ],
      "name": "AddressEmptyCode",
      "type": "error"
    },
    {
      "inputs": [],
      "name": "AssetMismatch",
      "type": "error"
    },
    {
      "inputs": [],
      "name": "ConfigurationManagerZeroAddress",
      "type": "error"
    },
    {
      "inputs": [],
      "name": "FailedCall",
      "type": "error"
    },
    {
      "inputs": [],
      "name": "InsufficientOutputAmount",
      "type": "error"
    },
    {
      "inputs": [],
      "name": "InvalidFleetCommander",
      "type": "error"
    },
    {
      "inputs": [],
      "name": "InvalidRewardsManager",
      "type": "error"
    },
    {
      "inputs": [],
      "name": "InvalidRouterAddress",
      "type": "error"
    },
    {
      "inputs": [],
      "name": "InvalidToken",
      "type": "error"
    },
    {
      "inputs": [],
      "name": "MulticallAlreadyInProgress",
      "type": "error"
    },
    {
      "inputs": [],
      "name": "NotMulticall",
      "type": "error"
    },
    {
      "inputs": [
        {
          "internalType": "address",
          "name": "owner",
          "type": "address"
        }
      ],
      "name": "OwnableInvalidOwner",
      "type": "error"
    },
    {
      "inputs": [
        {
          "internalType": "address",
          "name": "account",
          "type": "address"
        }
      ],
      "name": "OwnableUnauthorizedAccount",
      "type": "error"
    },
    {
      "inputs": [],
      "name": "ReentrancyGuard",
      "type": "error"
    },
    {
      "inputs": [],
      "name": "ReentrancyGuardReentrantCall",
      "type": "error"
    },
    {
      "inputs": [
        {
          "internalType": "address",
          "name": "token",
          "type": "address"
        }
      ],
      "name": "SafeERC20FailedOperation",
      "type": "error"
    },
    {
      "inputs": [],
      "name": "SwapAmountMismatch",
      "type": "error"
    },
    {
      "inputs": [],
      "name": "SwapFailed",
      "type": "error"
    },
    {
      "inputs": [],
      "name": "TokenMismatch",
      "type": "error"
    },
    {
      "inputs": [],
      "name": "UnsupportedSwapFunction",
      "type": "error"
    },
    {
      "inputs": [],
      "name": "ZeroAmount",
      "type": "error"
    },
    {
      "anonymous": false,
      "inputs": [
        {
          "indexed": true,
          "internalType": "address",
          "name": "user",
          "type": "address"
        },
        {
          "indexed": true,
          "internalType": "address",
          "name": "aToken",
          "type": "address"
        },
        {
          "indexed": false,
          "internalType": "uint256",
          "name": "amount",
          "type": "uint256"
        }
      ],
      "name": "AavePositionImported",
      "type": "event"
    },
    {
      "anonymous": false,
      "inputs": [
        {
          "indexed": true,
          "internalType": "address",
          "name": "user",
          "type": "address"
        },
        {
          "indexed": true,
          "internalType": "address",
          "name": "cToken",
          "type": "address"
        },
        {
          "indexed": false,
          "internalType": "uint256",
          "name": "amount",
          "type": "uint256"
        }
      ],
      "name": "CompoundPositionImported",
      "type": "event"
    },
    {
      "anonymous": false,
      "inputs": [
        {
          "indexed": true,
          "internalType": "address",
          "name": "user",
          "type": "address"
        },
        {
          "indexed": true,
          "internalType": "address",
          "name": "vault",
          "type": "address"
        },
        {
          "indexed": false,
          "internalType": "uint256",
          "name": "amount",
          "type": "uint256"
        }
      ],
      "name": "ERC4626PositionImported",
      "type": "event"
    },
    {
      "anonymous": false,
      "inputs": [
        {
          "indexed": true,
          "internalType": "address",
          "name": "user",
          "type": "address"
        },
        {
          "indexed": true,
          "internalType": "address",
          "name": "fleetCommander",
          "type": "address"
        },
        {
          "indexed": false,
          "internalType": "uint256",
          "name": "inputAmount",
          "type": "uint256"
        },
        {
          "indexed": false,
          "internalType": "uint256",
          "name": "sharesReceived",
          "type": "uint256"
        }
      ],
      "name": "FleetEntered",
      "type": "event"
    },
    {
      "anonymous": false,
      "inputs": [
        {
          "indexed": true,
          "internalType": "address",
          "name": "user",
          "type": "address"
        },
        {
          "indexed": true,
          "internalType": "address",
          "name": "fleetCommander",
          "type": "address"
        },
        {
          "indexed": false,
          "internalType": "uint256",
          "name": "withdrawnAmount",
          "type": "uint256"
        },
        {
          "indexed": false,
          "internalType": "uint256",
          "name": "outputAmount",
          "type": "uint256"
        }
      ],
      "name": "FleetExited",
      "type": "event"
    },
    {
      "anonymous": false,
      "inputs": [
        {
          "indexed": true,
          "internalType": "address",
          "name": "user",
          "type": "address"
        },
        {
          "indexed": true,
          "internalType": "address",
          "name": "fleetCommander",
          "type": "address"
        },
        {
          "indexed": false,
          "internalType": "uint256",
          "name": "amount",
          "type": "uint256"
        }
      ],
      "name": "FleetSharesStaked",
      "type": "event"
    },
    {
      "anonymous": false,
      "inputs": [
        {
          "indexed": true,
          "internalType": "address",
          "name": "user",
          "type": "address"
        },
        {
          "indexed": true,
          "internalType": "address",
          "name": "fleetCommander",
          "type": "address"
        },
        {
          "indexed": false,
          "internalType": "uint256",
          "name": "amount",
          "type": "uint256"
        }
      ],
      "name": "FleetSharesUnstaked",
      "type": "event"
    },
    {
      "anonymous": false,
      "inputs": [
        {
          "indexed": true,
          "internalType": "address",
          "name": "previousOwner",
          "type": "address"
        },
        {
          "indexed": true,
          "internalType": "address",
          "name": "newOwner",
          "type": "address"
        }
      ],
      "name": "OwnershipTransferred",
      "type": "event"
    },
    {
      "anonymous": false,
      "inputs": [
        {
          "indexed": true,
          "internalType": "address",
          "name": "user",
          "type": "address"
        },
        {
          "indexed": true,
          "internalType": "address",
          "name": "fromToken",
          "type": "address"
        },
        {
          "indexed": true,
          "internalType": "address",
          "name": "toToken",
          "type": "address"
        },
        {
          "indexed": false,
          "internalType": "uint256",
          "name": "fromAmount",
          "type": "uint256"
        },
        {
          "indexed": false,
          "internalType": "uint256",
          "name": "toAmount",
          "type": "uint256"
        }
      ],
      "name": "Swapped",
      "type": "event"
    },
    {
      "anonymous": false,
      "inputs": [
        {
          "indexed": true,
          "internalType": "address",
          "name": "user",
          "type": "address"
        },
        {
          "indexed": true,
          "internalType": "address",
          "name": "token",
          "type": "address"
        },
        {
          "indexed": false,
          "internalType": "uint256",
          "name": "amount",
          "type": "uint256"
        }
      ],
      "name": "TokensDeposited",
      "type": "event"
    },
    {
      "anonymous": false,
      "inputs": [
        {
          "indexed": true,
          "internalType": "address",
          "name": "token",
          "type": "address"
        },
        {
          "indexed": true,
          "internalType": "address",
          "name": "to",
          "type": "address"
        },
        {
          "indexed": false,
          "internalType": "uint256",
          "name": "amount",
          "type": "uint256"
        }
      ],
      "name": "TokensRescued",
      "type": "event"
    },
    {
      "anonymous": false,
      "inputs": [
        {
          "indexed": true,
          "internalType": "address",
          "name": "user",
          "type": "address"
        },
        {
          "indexed": true,
          "internalType": "address",
          "name": "token",
          "type": "address"
        },
        {
          "indexed": false,
          "internalType": "uint256",
          "name": "amount",
          "type": "uint256"
        }
      ],
      "name": "TokensWithdrawn",
      "type": "event"
    },
    {
      "inputs": [],
      "name": "configurationManager",
      "outputs": [
        {
          "internalType": "contract IConfigurationManager",
          "name": "",
          "type": "address"
        }
      ],
      "stateMutability": "view",
      "type": "function"
    },
    {
      "inputs": [
        {
          "internalType": "contract IERC20",
          "name": "asset",
          "type": "address"
        },
        {
          "internalType": "uint256",
          "name": "amount",
          "type": "uint256"
        }
      ],
      "name": "depositTokens",
      "outputs": [],
      "stateMutability": "nonpayable",
      "type": "function"
    },
    {
      "inputs": [
        {
          "internalType": "address",
          "name": "fleetCommander",
          "type": "address"
        },
        {
          "internalType": "contract IERC20",
          "name": "inputToken",
          "type": "address"
        },
        {
          "internalType": "uint256",
          "name": "assets",
          "type": "uint256"
        },
        {
          "internalType": "address",
          "name": "receiver",
          "type": "address"
        }
      ],
      "name": "enterFleet",
      "outputs": [
        {
          "internalType": "uint256",
          "name": "shares",
          "type": "uint256"
        }
      ],
      "stateMutability": "nonpayable",
      "type": "function"
    },
    {
      "inputs": [
        {
          "internalType": "address",
          "name": "fleetCommander",
          "type": "address"
        },
        {
          "internalType": "uint256",
          "name": "assets",
          "type": "uint256"
        }
      ],
      "name": "exitFleet",
      "outputs": [
        {
          "internalType": "uint256",
          "name": "shares",
          "type": "uint256"
        }
      ],
      "stateMutability": "nonpayable",
      "type": "function"
    },
    {
      "inputs": [],
      "name": "fleetCommanderRewardsManagerFactory",
      "outputs": [
        {
          "internalType": "address",
          "name": "",
          "type": "address"
        }
      ],
      "stateMutability": "view",
      "type": "function"
    },
    {
      "inputs": [],
      "name": "harborCommand",
      "outputs": [
        {
          "internalType": "address",
          "name": "",
          "type": "address"
        }
      ],
      "stateMutability": "view",
      "type": "function"
    },
    {
      "inputs": [
        {
          "internalType": "address",
          "name": "aToken",
          "type": "address"
        },
        {
          "internalType": "uint256",
          "name": "assets",
          "type": "uint256"
        }
      ],
      "name": "moveFromAaveToAdmiralsQuarters",
      "outputs": [],
      "stateMutability": "nonpayable",
      "type": "function"
    },
    {
      "inputs": [
        {
          "internalType": "address",
          "name": "cToken",
          "type": "address"
        },
        {
          "internalType": "uint256",
          "name": "assets",
          "type": "uint256"
        }
      ],
      "name": "moveFromCompoundToAdmiralsQuarters",
      "outputs": [],
      "stateMutability": "nonpayable",
      "type": "function"
    },
    {
      "inputs": [
        {
          "internalType": "address",
          "name": "vault",
          "type": "address"
        },
        {
          "internalType": "uint256",
          "name": "shares",
          "type": "uint256"
        }
      ],
      "name": "moveFromERC4626ToAdmiralsQuarters",
      "outputs": [],
      "stateMutability": "nonpayable",
      "type": "function"
    },
    {
      "inputs": [
        {
          "internalType": "bytes[]",
          "name": "data",
          "type": "bytes[]"
        }
      ],
      "name": "multicall",
      "outputs": [
        {
          "internalType": "bytes[]",
          "name": "results",
          "type": "bytes[]"
        }
      ],
      "stateMutability": "nonpayable",
      "type": "function"
    },
    {
      "inputs": [],
      "name": "oneInchRouter",
      "outputs": [
        {
          "internalType": "address",
          "name": "",
          "type": "address"
        }
      ],
      "stateMutability": "view",
      "type": "function"
    },
    {
      "inputs": [],
      "name": "owner",
      "outputs": [
        {
          "internalType": "address",
          "name": "",
          "type": "address"
        }
      ],
      "stateMutability": "view",
      "type": "function"
    },
    {
      "inputs": [],
      "name": "raft",
      "outputs": [
        {
          "internalType": "address",
          "name": "",
          "type": "address"
        }
      ],
      "stateMutability": "view",
      "type": "function"
    },
    {
      "inputs": [],
      "name": "renounceOwnership",
      "outputs": [],
      "stateMutability": "nonpayable",
      "type": "function"
    },
    {
      "inputs": [
        {
          "internalType": "contract IERC20",
          "name": "token",
          "type": "address"
        },
        {
          "internalType": "address",
          "name": "to",
          "type": "address"
        },
        {
          "internalType": "uint256",
          "name": "amount",
          "type": "uint256"
        }
      ],
      "name": "rescueTokens",
      "outputs": [],
      "stateMutability": "nonpayable",
      "type": "function"
    },
    {
      "inputs": [
        {
          "internalType": "address",
          "name": "fleetCommander",
          "type": "address"
        },
        {
          "internalType": "uint256",
          "name": "shares",
          "type": "uint256"
        }
      ],
      "name": "stake",
      "outputs": [],
      "stateMutability": "nonpayable",
      "type": "function"
    },
    {
      "inputs": [
        {
          "internalType": "contract IERC20",
          "name": "fromToken",
          "type": "address"
        },
        {
          "internalType": "contract IERC20",
          "name": "toToken",
          "type": "address"
        },
        {
          "internalType": "uint256",
          "name": "assets",
          "type": "uint256"
        },
        {
          "internalType": "uint256",
          "name": "minTokensReceived",
          "type": "uint256"
        },
        {
          "internalType": "bytes",
          "name": "swapCalldata",
          "type": "bytes"
        }
      ],
      "name": "swap",
      "outputs": [
        {
          "internalType": "uint256",
          "name": "swappedAmount",
          "type": "uint256"
        }
      ],
      "stateMutability": "nonpayable",
      "type": "function"
    },
    {
      "inputs": [],
      "name": "tipJar",
      "outputs": [
        {
          "internalType": "address",
          "name": "",
          "type": "address"
        }
      ],
      "stateMutability": "view",
      "type": "function"
    },
    {
      "inputs": [
        {
          "internalType": "address",
          "name": "newOwner",
          "type": "address"
        }
      ],
      "name": "transferOwnership",
      "outputs": [],
      "stateMutability": "nonpayable",
      "type": "function"
    },
    {
      "inputs": [],
      "name": "treasury",
      "outputs": [
        {
          "internalType": "address",
          "name": "",
          "type": "address"
        }
      ],
      "stateMutability": "view",
      "type": "function"
    },
    {
      "inputs": [
        {
          "internalType": "address",
          "name": "fleetCommander",
          "type": "address"
        },
        {
          "internalType": "uint256",
          "name": "shares",
          "type": "uint256"
        }
      ],
      "name": "unstakeAndWithdrawAssets",
      "outputs": [],
      "stateMutability": "nonpayable",
      "type": "function"
    },
    {
      "inputs": [
        {
          "internalType": "contract IERC20",
          "name": "asset",
          "type": "address"
        },
        {
          "internalType": "uint256",
          "name": "amount",
          "type": "uint256"
        }
      ],
      "name": "withdrawTokens",
      "outputs": [],
      "stateMutability": "nonpayable",
      "type": "function"
    }
  ],
  "bytecode": "0x60c03461013e57601f6120f838819003918201601f19168301916001600160401b0383118484101761014257808492604094855283398101031261013e57610052602061004b83610156565b9201610156565b90331561012b575f8054336001600160a01b0319821681178355604051949290916001600160a01b0316907f8be0079c531659141344cd1fd0a4f28419497f9722a3daafe3b4186f6b6457e09080a36001600160a01b0316801561011c576080526001600160a01b0381161561010d5760a052611f8d908161016b82396080518181816103e901528181610894015281816111db015281816113600152818161169d0152611a60015260a051818181610f1401526114cc0152f35b6314203b4b60e01b5f5260045ffd5b63f1634df960e01b5f5260045ffd5b631e4fbdf760e01b5f525f60045260245ffd5b5f80fd5b634e487b7160e01b5f52604160045260245ffd5b51906001600160a01b038216820361013e5756fe60806040526004361015610011575f80fd5b5f5f3560e01c806306b091f9146118bf5780630dedddbf146116e8578063117d8ae0146116775780632506c018146113d85780635b0f83f3146113ab57806361d027b31461133957806366168bd714611280578063715018a6146112265780637aaceb95146111b457806388bcf98314610f6a5780638da5cb5b14610f43578063ac3af20814610efe578063ac9650d814610ccd578063adc9772e14610af8578063bec93aa7146108c3578063c9c667e31461087e578063cea9d26f1461080a578063cf87c38f1461063c578063d7f8e9a514610504578063f2fde38b1461047e578063f7e533ec146103c25763ff993eb51461010c575f80fd5b346103bf5760803660031901126103bf576101256119d6565b61012d6119ec565b604435926064356001600160a01b03811693919290918483036103bd57336001600160a01b035f516020611f185f395f51905f525c16036103ae57610170611b61565b61017981611ce4565b61018282611b96565b6040516338d52e0f60e01b81526001600160a01b03919091169290602081600481875afa908115610356578591610370575b506001600160a01b039283169692169182870361036157602060249697604051978880926370a0823160e01b82523060048301525afa958615610356578596610322575b508061031c575084955b610316575033935b851161030757848261021b92611d9c565b604051636e553f6560e01b8152600481018590526001600160a01b039093166024840181905260208460448186865af19384156102fc5783946102a2575b507fd584e570678d099262db4ba972df2e63e3618dadc6179677a6a2b18360c4a657604060209681519081528688820152a35f516020611f385f395f51905f525d604051908152f35b9493506020853d6020116102f4575b816102be60209383611a02565b810103126102f057935192937fd584e570678d099262db4ba972df2e63e3618dadc6179677a6a2b18360c4a657610259565b5f80fd5b3d91506102b1565b6040513d85823e3d90fd5b6342301c2360e01b8352600483fd5b9361020a565b95610202565b9095506020813d60201161034e575b8161033e60209383611a02565b810103126102f05751945f6101f8565b3d9150610331565b6040513d87823e3d90fd5b63936bb5ad60e01b8552600485fd5b90506020813d6020116103a6575b8161038b60209383611a02565b810103126103a25761039c90611a37565b5f6101b4565b8480fd5b3d915061037e565b633128ce5560e01b8452600484fd5b835b80fd5b50346103bf57806003193601126103bf57604051633df94cfb60e21b8152906020826004817f00000000000000000000000000000000000000000000000000000000000000006001600160a01b03165afa908115610472578091610435575b6040516001600160a01b0383168152602090f35b90506020823d60201161046a575b8161045060209383611a02565b810103126103bf5750610464602091611a37565b5f610421565b3d9150610443565b604051903d90823e3d90fd5b50346103bf5760203660031901126103bf576104986119d6565b6104a0611c7f565b6001600160a01b031680156104f05781546001600160a01b03198116821783556001600160a01b03167f8be0079c531659141344cd1fd0a4f28419497f9722a3daafe3b4186f6b6457e08380a380f35b631e4fbdf760e01b82526004829052602482fd5b50346103bf5760403660031901126103bf5761051e6119d6565b6024359190336001600160a01b035f516020611f185f395f51905f525c160361062d57610549611b61565b61055281611ce4565b6001600160a01b0316918061062757505f19905b604051632d182be560e21b8152926020848061058733308860048501611b41565b038185855af192831561061c5782936105e7575b6020945060405190815283858201527f3018bc84615a588f3485d554ded6943344a7f25f8b758b14b6e9677378c1c68b60403392a35f516020611f385f395f51905f525d604051908152f35b92506020843d602011610614575b8161060260209383611a02565b810103126102f057602093519261059b565b3d91506105f5565b6040513d84823e3d90fd5b90610566565b633128ce5560e01b8252600482fd5b50346103bf5760403660031901126103bf576106566119d6565b60243590336001600160a01b035f516020611f185f395f51905f525c16036107fb57610680611b61565b6040516338d52e0f60e01b81526001600160a01b03919091169190602081600481865afa8015610782576107c4575b50806107bf57506040516370a0823160e01b8152336004820152602081602481855afa9081156102fc57839161078d575b505b604051635d043b2960e11b81526020818061070233308760048501611b41565b038187875af1801561078257610753575b506040519081527f915b71c589595289d233b271db8454f447949848ecdd456a109e3f2559c0d50960203392a3805f516020611f385f395f51905f525d80f35b6020813d60201161077a575b8161076c60209383611a02565b810103126102f05751610713565b3d915061075f565b6040513d86823e3d90fd5b90506020813d6020116107b7575b816107a860209383611a02565b810103126102f057515f6106e0565b3d915061079b565b6106e2565b6020813d6020116107f3575b816107dd60209383611a02565b810103126103bd576107ee90611a37565b6106af565b3d91506107d0565b633128ce5560e01b8352600483fd5b50346103bf5760603660031901126103bf576108246119d6565b61082c6119ec565b7f77023e19c7343ad491fd706c36335ca0e738340a91f29b1fd81e2673d44896c460206044359261085b611c7f565b610866848287611bb5565b6040519384526001600160a01b03908116941692a380f35b50346103bf57806003193601126103bf576040517f00000000000000000000000000000000000000000000000000000000000000006001600160a01b03168152602090f35b50346103bf5760403660031901126103bf576108dd6119d6565b60243590336001600160a01b035f516020611f185f395f51905f525c16036107fb57610907611b61565b61091081611ce4565b6040516330fe427560e21b81526001600160a01b03919091169190839060a081600481875afa90811561061c578291610ac9575b50608001516001600160a01b03169161095c83611d7d565b80610ac357506040516370a0823160e01b8152336004820152602081602481865afa90811561061c578291610a8e575b50915b803b15610a8a5760405163c7ec362360e01b8152336004820152306024820152604481018490529082908290606490829084905af1801561061c57610a71575b5050604051632d182be560e21b8152602081806109f130338760048501611b41565b038187875af1801561078257610a42575b506040519081527f700c68e6e49e104bb8288f3d6ffb4723d8c8fa31695662535a9c6980d44eee2060203392a3805f516020611f385f395f51905f525d80f35b6020813d602011610a69575b81610a5b60209383611a02565b810103126102f05751610a02565b3d9150610a4e565b81610a7b91611a02565b610a8657825f6109cf565b8280fd5b5080fd5b9150506020813d602011610abb575b81610aaa60209383611a02565b810103126102f0578390515f61098c565b3d9150610a9d565b9161098f565b610aeb915060a03d60a011610af1575b610ae38183611a02565b810190611ad2565b5f610944565b503d610ad9565b50346103bf5760403660031901126103bf57610b126119d6565b60243590336001600160a01b035f516020611f185f395f51905f525c16036107fb57610b3c611b61565b610b4581611ce4565b6040516330fe427560e21b81526001600160a01b0391909116919060a081600481865afa908115610782578491610cae575b50608001516001600160a01b0316610b8e81611d7d565b6040516370a0823160e01b815230600482015291602083602481875afa928315610356578593610c7a575b5080610c745750815b8211610c655780610bd583869386611d9c565b803b15610a8a5760405163cecc238f60e01b8152336004820152602481018490529082908290604490829084905af1801561061c57610c50575b50506040519081527f229b6242f243935a5ba03689948a442635f9fd7ed35555146349f51316c1f28e60203392a3805f516020611f385f395f51905f525d80f35b81610c5a91611a02565b610a8657825f610c0f565b6342301c2360e01b8452600484fd5b91610bc2565b9092506020813d602011610ca6575b81610c9660209383611a02565b810103126102f05751915f610bb9565b3d9150610c89565b610cc7915060a03d60a011610af157610ae38183611a02565b5f610b77565b50346103bf5760203660031901126103bf576004356001600160401b038111610a8a5736602382011215610a8a5780600401356001600160401b038111610a86573660248260051b84010111610a86575f516020611f185f395f51905f525c6001600160a01b0316610eef5790335f516020611f185f395f51905f525d6020604051610d598282611a02565b84815281810191601f198101368437610d7185611ca5565b93610d7f6040519586611a02565b858552601f19610d8e87611ca5565b01875b818110610ee0575050368190036042190190875b87811015610e585760248160051b8301013583811215610e54578201906024820135916001600160401b038311610e50576044018a83360382136103bf5780610e349289610e206001978b8e6040519483869484860198893784019083820190898252519283915e010185815203601f198101835282611a02565b5190305af4610e2d611bff565b9030611eb9565b610e3e828a611cbc565b52610e498189611cbc565b5001610da5565b8a80fd5b8980fd5b888488825f516020611f185f395f51905f525d60405191808301818452825180915260408401918060408360051b870101940192865b838810610e9b5786860387f35b9091929394838080600193603f198b8203018752818a518051918291828552018484015e86838284010152601f80199101160101970193019701969093929193610e8e565b60608782018501528301610d91565b6339082a3960e11b8352600483fd5b50346103bf57806003193601126103bf576040517f00000000000000000000000000000000000000000000000000000000000000006001600160a01b03168152602090f35b50346103bf57806003193601126103bf57546040516001600160a01b039091168152602090f35b50346103bf5760403660031901126103bf57610f846119d6565b60243590336001600160a01b035f516020611f185f395f51905f525c16036107fb57610fae611b61565b604051633a9ae92360e11b81526001600160a01b039190911691908390602081600481875afa90811561061c57829161117a575b506040516358b50cef60e11b815292602084600481885afa9384156102fc57839461113e575b508061113257506040516370a0823160e01b8152336004820152602081602481885afa9081156102fc5783916110fa575b50906064602092945b61104e8630338a611c3d565b604051631a4ca37b60e21b81526001600160a01b039182166004820152602481018790523060448201529485938492165af18015610782576110cb575b506040519081527fd269ddb991eeb6ceaf84849c22783248bd97ffea53842ccfc04dc943729b19e360203392a3805f516020611f385f395f51905f525d80f35b6020813d6020116110f2575b816110e460209383611a02565b810103126102f0575161108b565b3d91506110d7565b919250506020813d60201161112a575b8161111760209383611a02565b810103126102f057518491906064611039565b3d915061110a565b90606460209294611042565b9093506020813d602011611172575b8161115a60209383611a02565b81010312610a865761116b90611a37565b925f611008565b3d915061114d565b90506020813d6020116111ac575b8161119560209383611a02565b81010312610a8a576111a690611a37565b5f610fe2565b3d9150611188565b50346103bf57806003193601126103bf57604051637aaceb9560e01b8152906020826004817f00000000000000000000000000000000000000000000000000000000000000006001600160a01b03165afa908115610472578091610435576040516001600160a01b0383168152602090f35b50346103bf57806003193601126103bf5761123f611c7f565b80546001600160a01b03198116825581906001600160a01b03167f8be0079c531659141344cd1fd0a4f28419497f9722a3daafe3b4186f6b6457e08280a380f35b50346103bf5760403660031901126103bf5761129a6119d6565b60243590336001600160a01b035f516020611f185f395f51905f525c16036107fb576112c4611b61565b6112cd81611b96565b811561132a576112df82303384611c3d565b6040519182526001600160a01b03169033907fcbc4a4091b012bb1329c38bbbb15455f5cac5aa3673da0a7f38cd61a4f49551790602090a3805f516020611f385f395f51905f525d80f35b631f2a200560e01b8352600483fd5b50346103bf57806003193601126103bf576040516361d027b360e01b8152906020826004817f00000000000000000000000000000000000000000000000000000000000000006001600160a01b03165afa908115610472578091610435576040516001600160a01b0383168152602090f35b50346103bf57806003193601126103bf5760206113c6611a4b565b6040516001600160a01b039091168152f35b50346103bf5760a03660031901126103bf576113f26119d6565b6113fa6119ec565b9160443592608435906001600160401b038211610a865736602383011215610a86578160040135936001600160401b0385116103bd5736602486850101116103bd57336001600160a01b035f516020611f185f395f51905f525c16036103ae57611462611b61565b6001600160a01b0381169182158015611666575b611657578615611648576001600160a01b031692828414611639576040516370a0823160e01b815230600482015295602087602481885afa96871561162e5786976115f3575b509160248680949381946114f28c7f00000000000000000000000000000000000000000000000000000000000000008097611d9c565b80604051948593018337810182815203925af161150d611bff565b50156115e4576040516370a0823160e01b815230600482015293602085602481865afa9485156107825784956115b0575b50840393841161159c5760643584106103075760209460405190815284868201527f6782190c91d4a7e8ad2a867deed6ec0a970cab8ff137ae2bd4abd92b3810f4d360403392a45f516020611f385f395f51905f525d604051908152f35b634e487b7160e01b83526011600452602483fd5b9094506020813d6020116115dc575b816115cc60209383611a02565b810103126102f05751935f61153e565b3d91506115bf565b63081ceff360e41b8352600483fd5b91929096506020823d602011611626575b8161161160209383611a02565b810103126102f05790519590919060246114bc565b3d9150611604565b6040513d88823e3d90fd5b6341e0808560e11b8552600485fd5b631f2a200560e01b8552600485fd5b63c1ab6dc160e01b8552600485fd5b506001600160a01b03811615611476565b50346103bf57806003193601126103bf57604051628bec5760e51b8152906020826004817f00000000000000000000000000000000000000000000000000000000000000006001600160a01b03165afa908115610472578091610435576040516001600160a01b0383168152602090f35b50346102f05760403660031901126102f0576117026119d6565b60243590336001600160a01b035f516020611f185f395f51905f525c16036118b05761172c611b61565b60405163c55dae6360e01b81526001600160a01b039190911691602082600481865afa918215611831575f92611874575b508061186e57506040516370a0823160e01b8152336004820152602081602481865afa908115611831575f9161183c575b50905b823b156102f0576040516304c8826360e31b81523360048201523060248201526001600160a01b039091166044820152606481018290525f8160848183875af180156118315761181c575b506040519081527f2bb776770e69df4d29d3c5d4c6c05ec4c32f7be119d35604fbba0e8f86d152f960203392a3805f516020611f385f395f51905f525d80f35b6118299193505f90611a02565b5f915f6117dc565b6040513d5f823e3d90fd5b90506020813d602011611866575b8161185760209383611a02565b810103126102f057515f61178e565b3d915061184a565b90611791565b9091506020813d6020116118a8575b8161189060209383611a02565b810103126102f0576118a190611a37565b905f61175d565b3d9150611883565b633128ce5560e01b5f5260045ffd5b346102f05760403660031901126102f0576118d86119d6565b60243590336001600160a01b035f516020611f185f395f51905f525c16036118b057611902611b61565b8161190c82611b96565b15611967575b61191d823383611bb5565b6040519182526001600160a01b03169033907f6337ed398c0e8467698c581374fdce4db14922df487b5a39483079f5f59b60a490602090a35f5f516020611f385f395f51905f525d005b6040516370a0823160e01b81523060048201529091506020816024816001600160a01b0386165afa908115611831575f916119a4575b5090611912565b90506020813d6020116119ce575b816119bf60209383611a02565b810103126102f057518261199d565b3d91506119b2565b600435906001600160a01b03821682036102f057565b602435906001600160a01b03821682036102f057565b90601f801991011681019081106001600160401b03821117611a2357604052565b634e487b7160e01b5f52604160045260245ffd5b51906001600160a01b03821682036102f057565b604051635b0f83f360e01b81526020816004817f00000000000000000000000000000000000000000000000000000000000000006001600160a01b03165afa908115611831575f91611a9b575090565b90506020813d602011611aca575b81611ab660209383611a02565b810103126102f057611ac790611a37565b90565b3d9150611aa9565b908160a09103126102f0576040519060a082018281106001600160401b03821117611a235760405280516001600160a01b03811681036102f057611b3991608091845260208101516020850152604081015160408501526060810151606085015201611a37565b608082015290565b9081526001600160a01b0391821660208201529116604082015260600190565b5f516020611f385f395f51905f525c611b875760015f516020611f385f395f51905f525d565b633ee5aeb560e01b5f5260045ffd5b6001600160a01b031615611ba657565b63c1ab6dc160e01b5f5260045ffd5b60405163a9059cbb60e01b60208201526001600160a01b0390921660248301526044820192909252611bfd91611bf882606481015b03601f198101845283611a02565b611e61565b565b3d15611c38573d906001600160401b038211611a235760405191611c2d601f8201601f191660200184611a02565b82523d5f602084013e565b606090565b6040516323b872dd60e01b60208201526001600160a01b0392831660248201529290911660448301526064820192909252611bfd91611bf88260848101611bea565b5f546001600160a01b03163303611c9257565b63118cdaa760e01b5f523360045260245ffd5b6001600160401b038111611a235760051b60200190565b8051821015611cd05760209160051b010190565b634e487b7160e01b5f52603260045260245ffd5b60206001600160a01b03611cf6611a4b565b6040516374e806ab60e11b81526001600160a01b03909416600485015283916024918391165afa908115611831575f91611d42575b5015611d3357565b6317b9ea1760e11b5f5260045ffd5b90506020813d602011611d75575b81611d5d60209383611a02565b810103126102f0575180151581036102f0575f611d2b565b3d9150611d50565b6001600160a01b031615611d8d57565b63913a247f60e01b5f5260045ffd5b60405163095ea7b360e01b60208083019182526001600160a01b0385166024840152604480840196909652948252929390925f90611ddb606486611a02565b84519082855af15f513d82611e3c575b505015611df757505050565b60405163095ea7b360e01b60208201526001600160a01b0390931660248401525f6044808501919091528352611bfd92611bf890611e36606482611a02565b82611e61565b909150611e5957506001600160a01b0381163b15155b5f80611deb565b600114611e52565b905f602091828151910182855af115611831575f513d611eb057506001600160a01b0381163b155b611e905750565b635274afe760e01b5f9081526001600160a01b0391909116600452602490fd5b60011415611e89565b90611edd5750805115611ece57805190602001fd5b63d6bda27560e01b5f5260045ffd5b81511580611f0e575b611eee575090565b639996b31560e01b5f9081526001600160a01b0391909116600452602490fd5b50803b15611ee656fe4047f0417aa4905ca06b566a01340d0e510e7af6b560e81d10e0ea24404f597b9b779b17422d0df92223018b32b4d1fa46e071723d6817e2486d003becc55f00a264697066735822122027471a7dd4db7f7aa9ddb8fc9be91b31c8b16e586a3fc39627696ff91f76738964736f6c634300081c0033",
  "linkReferences": {},
  "deployedLinkReferences": {}
}