{
  "_format": "hh-sol-artifact-1",
  "contractName": "ConfigurationManager",
  "sourceName": "src/contracts/ConfigurationManager.sol",
  "abi": [
    {
      "inputs": [
        {
          "internalType": "address",
          "name": "_accessManager",
          "type": "address"
        }
      ],
      "stateMutability": "nonpayable",
      "type": "constructor"
    },
    {
      "inputs": [],
      "name": "AddressZero",
      "type": "error"
    },
    {
      "inputs": [
        {
          "internalType": "address",
          "name": "caller",
          "type": "address"
        }
      ],
      "name": "CallerIsNotAdmin",
      "type": "error"
    },
    {
      "inputs": [
        {
          "internalType": "address",
          "name": "caller",
          "type": "address"
        }
      ],
      "name": "CallerIsNotAuthorizedToBoard",
      "type": "error"
    },
    {
      "inputs": [
        {
          "internalType": "address",
          "name": "caller",
          "type": "address"
        }
      ],
      "name": "CallerIsNotCommander",
      "type": "error"
    },
    {
      "inputs": [
        {
          "internalType": "address",
          "name": "caller",
          "type": "address"
        },
        {
          "internalType": "bytes32",
          "name": "role",
          "type": "bytes32"
        }
      ],
      "name": "CallerIsNotContractSpecificRole",
      "type": "error"
    },
    {
      "inputs": [
        {
          "internalType": "address",
          "name": "caller",
          "type": "address"
        }
      ],
      "name": "CallerIsNotCurator",
      "type": "error"
    },
    {
      "inputs": [
        {
          "internalType": "address",
          "name": "caller",
          "type": "address"
        }
      ],
      "name": "CallerIsNotDecayController",
      "type": "error"
    },
    {
      "inputs": [
        {
          "internalType": "address",
          "name": "caller",
          "type": "address"
        }
      ],
      "name": "CallerIsNotGovernor",
      "type": "error"
    },
    {
      "inputs": [
        {
          "internalType": "address",
          "name": "caller",
          "type": "address"
        }
      ],
      "name": "CallerIsNotGuardian",
      "type": "error"
    },
    {
      "inputs": [
        {
          "internalType": "address",
          "name": "caller",
          "type": "address"
        }
      ],
      "name": "CallerIsNotGuardianOrGovernor",
      "type": "error"
    },
    {
      "inputs": [
        {
          "internalType": "address",
          "name": "caller",
          "type": "address"
        }
      ],
      "name": "CallerIsNotKeeper",
      "type": "error"
    },
    {
      "inputs": [
        {
          "internalType": "address",
          "name": "caller",
          "type": "address"
        }
      ],
      "name": "CallerIsNotRaft",
      "type": "error"
    },
    {
      "inputs": [
        {
          "internalType": "address",
          "name": "caller",
          "type": "address"
        }
      ],
      "name": "CallerIsNotRaftOrCommander",
      "type": "error"
    },
    {
      "inputs": [
        {
          "internalType": "address",
          "name": "caller",
          "type": "address"
        }
      ],
      "name": "CallerIsNotSuperKeeper",
      "type": "error"
    },
    {
      "inputs": [],
      "name": "ConfigurationManagerAlreadyInitialized",
      "type": "error"
    },
    {
      "inputs": [
        {
          "internalType": "address",
          "name": "caller",
          "type": "address"
        }
      ],
      "name": "DirectGrantIsDisabled",
      "type": "error"
    },
    {
      "inputs": [
        {
          "internalType": "address",
          "name": "caller",
          "type": "address"
        }
      ],
      "name": "DirectRevokeIsDisabled",
      "type": "error"
    },
    {
      "inputs": [],
      "name": "HarborCommandNotSet",
      "type": "error"
    },
    {
      "inputs": [
        {
          "internalType": "address",
          "name": "invalidAddress",
          "type": "address"
        }
      ],
      "name": "InvalidAccessManagerAddress",
      "type": "error"
    },
    {
      "inputs": [],
      "name": "RaftNotSet",
      "type": "error"
    },
    {
      "inputs": [],
      "name": "TipJarNotSet",
      "type": "error"
    },
    {
      "inputs": [],
      "name": "TreasuryNotSet",
      "type": "error"
    },
    {
      "inputs": [],
      "name": "ZeroAddress",
      "type": "error"
    },
    {
      "anonymous": false,
      "inputs": [
        {
          "indexed": false,
          "internalType": "address",
          "name": "oldFleetCommanderRewardsManagerFactory",
          "type": "address"
        },
        {
          "indexed": false,
          "internalType": "address",
          "name": "newFleetCommanderRewardsManagerFactory",
          "type": "address"
        }
      ],
      "name": "FleetCommanderRewardsManagerFactoryUpdated",
      "type": "event"
    },
    {
      "anonymous": false,
      "inputs": [
        {
          "indexed": false,
          "internalType": "address",
          "name": "oldHarborCommand",
          "type": "address"
        },
        {
          "indexed": false,
          "internalType": "address",
          "name": "newHarborCommand",
          "type": "address"
        }
      ],
      "name": "HarborCommandUpdated",
      "type": "event"
    },
    {
      "anonymous": false,
      "inputs": [
        {
          "indexed": false,
          "internalType": "address",
          "name": "oldRaft",
          "type": "address"
        },
        {
          "indexed": false,
          "internalType": "address",
          "name": "newRaft",
          "type": "address"
        }
      ],
      "name": "RaftUpdated",
      "type": "event"
    },
    {
      "anonymous": false,
      "inputs": [
        {
          "indexed": false,
          "internalType": "address",
          "name": "oldTipJar",
          "type": "address"
        },
        {
          "indexed": false,
          "internalType": "address",
          "name": "newTipJar",
          "type": "address"
        }
      ],
      "name": "TipJarUpdated",
      "type": "event"
    },
    {
      "anonymous": false,
      "inputs": [
        {
          "indexed": false,
          "internalType": "uint8",
          "name": "oldTipRate",
          "type": "uint8"
        },
        {
          "indexed": false,
          "internalType": "uint8",
          "name": "newTipRate",
          "type": "uint8"
        }
      ],
      "name": "TipRateUpdated",
      "type": "event"
    },
    {
      "anonymous": false,
      "inputs": [
        {
          "indexed": false,
          "internalType": "address",
          "name": "oldTreasury",
          "type": "address"
        },
        {
          "indexed": false,
          "internalType": "address",
          "name": "newTreasury",
          "type": "address"
        }
      ],
      "name": "TreasuryUpdated",
      "type": "event"
    },
    {
      "inputs": [],
      "name": "fleetCommanderRewardsManagerFactory",
      "outputs": [
        {
          "internalType": "address",
          "name": "",
          "type": "address"
        }
      ],
      "stateMutability": "view",
      "type": "function"
    },
    {
      "inputs": [
        {
          "internalType": "enum ContractSpecificRoles",
          "name": "roleName",
          "type": "uint8"
        },
        {
          "internalType": "address",
          "name": "roleTargetContract",
          "type": "address"
        }
      ],
      "name": "generateRole",
      "outputs": [
        {
          "internalType": "bytes32",
          "name": "",
          "type": "bytes32"
        }
      ],
      "stateMutability": "pure",
      "type": "function"
    },
    {
      "inputs": [],
      "name": "harborCommand",
      "outputs": [
        {
          "internalType": "address",
          "name": "",
          "type": "address"
        }
      ],
      "stateMutability": "view",
      "type": "function"
    },
    {
      "inputs": [
        {
          "components": [
            {
              "internalType": "address",
              "name": "raft",
              "type": "address"
            },
            {
              "internalType": "address",
              "name": "tipJar",
              "type": "address"
            },
            {
              "internalType": "address",
              "name": "treasury",
              "type": "address"
            },
            {
              "internalType": "address",
              "name": "harborCommand",
              "type": "address"
            },
            {
              "internalType": "address",
              "name": "fleetCommanderRewardsManagerFactory",
              "type": "address"
            }
          ],
          "internalType": "struct ConfigurationManagerParams",
          "name": "params",
          "type": "tuple"
        }
      ],
      "name": "initializeConfiguration",
      "outputs": [],
      "stateMutability": "nonpayable",
      "type": "function"
    },
    {
      "inputs": [],
      "name": "initialized",
      "outputs": [
        {
          "internalType": "bool",
          "name": "",
          "type": "bool"
        }
      ],
      "stateMutability": "view",
      "type": "function"
    },
    {
      "inputs": [],
      "name": "raft",
      "outputs": [
        {
          "internalType": "address",
          "name": "",
          "type": "address"
        }
      ],
      "stateMutability": "view",
      "type": "function"
    },
    {
      "inputs": [
        {
          "internalType": "address",
          "name": "newFleetCommanderRewardsManagerFactory",
          "type": "address"
        }
      ],
      "name": "setFleetCommanderRewardsManagerFactory",
      "outputs": [],
      "stateMutability": "nonpayable",
      "type": "function"
    },
    {
      "inputs": [
        {
          "internalType": "address",
          "name": "newHarborCommand",
          "type": "address"
        }
      ],
      "name": "setHarborCommand",
      "outputs": [],
      "stateMutability": "nonpayable",
      "type": "function"
    },
    {
      "inputs": [
        {
          "internalType": "address",
          "name": "newRaft",
          "type": "address"
        }
      ],
      "name": "setRaft",
      "outputs": [],
      "stateMutability": "nonpayable",
      "type": "function"
    },
    {
      "inputs": [
        {
          "internalType": "address",
          "name": "newTipJar",
          "type": "address"
        }
      ],
      "name": "setTipJar",
      "outputs": [],
      "stateMutability": "nonpayable",
      "type": "function"
    },
    {
      "inputs": [
        {
          "internalType": "address",
          "name": "newTreasury",
          "type": "address"
        }
      ],
      "name": "setTreasury",
      "outputs": [],
      "stateMutability": "nonpayable",
      "type": "function"
    },
    {
      "inputs": [],
      "name": "tipJar",
      "outputs": [
        {
          "internalType": "address",
          "name": "",
          "type": "address"
        }
      ],
      "stateMutability": "view",
      "type": "function"
    },
    {
      "inputs": [],
      "name": "treasury",
      "outputs": [
        {
          "internalType": "address",
          "name": "",
          "type": "address"
        }
      ],
      "stateMutability": "view",
      "type": "function"
    }
  ],
  "bytecode": "0x608080604052346100e057602081610df8803803809161001f828561010a565b8339810103126100e057516001600160a01b038116908190036100e05780156100f7576040516301ffc9a760e01b8152639bd1803160e01b6004820152602081602481855afa9081156100ec575f916100ad575b501561009b575f80546001600160a01b031916919091179055604051610cb690816101428239f35b6347bd7c1d60e01b5f5260045260245ffd5b90506020813d6020116100e4575b816100c86020938361010a565b810103126100e0575180151581036100e0575f610073565b5f80fd5b3d91506100bb565b6040513d5f823e3d90fd5b6347bd7c1d60e01b5f525f60045260245ffd5b601f909101601f19168101906001600160401b0382119082101761012d57604052565b634e487b7160e01b5f52604160045260245ffdfe6080806040526004361015610012575f80fd5b5f3560e01c908163117d8ae014610bc457508063158ef93e14610ba05780631fcb6ee61461083357806344ee0605146106f35780635b0f83f3146106cb5780635c66e3da1461058b57806361d027b31461056357806369b3054b146104fc578063788d8366146103bc5780637aaceb9514610394578063d6c953c614610254578063f0f44260146100d75763f7e533ec146100ab575f80fd5b346100d3575f3660031901126100d3576005546040516001600160a01b039091168152602090f35b5f80fd5b346100d35760203660031901126100d3576100f0610c09565b5f54604051630ccc574960e41b81526001600160a01b0390911690602081600481855afa908115610215575f91610220575b50602090610147926040518080958194632474521560e21b8352339060048401610c4d565b03915afa908115610215575f916101e6575b50156101d3576001600160a01b0381169081156101c45760035460405190917f4ab5be82436d353e61ca18726e984e561f5c1cc7c6d38b29d2553c790434705a919081906101b1906001600160a01b03861683610c66565b0390a16001600160a01b03191617600355005b639fabe1c160e01b5f5260045ffd5b630ea7d7ed60e21b5f523360045260245ffd5b610208915060203d60201161020e575b6102008183610be7565b810190610c35565b82610159565b503d6101f6565b6040513d5f823e3d90fd5b90506020813d60201161024c575b8161023b60209383610be7565b810103126100d35751610147610122565b3d915061022e565b346100d35760203660031901126100d35761026d610c09565b5f54604051630ccc574960e41b81526001600160a01b0390911690602081600481855afa908115610215575f91610360575b506020906102c4926040518080958194632474521560e21b8352339060048401610c4d565b03915afa908115610215575f91610341575b50156101d3576001600160a01b0381169081156101c45760055460405190917ffdc61a171cf2fa6f226e1e76e7a1769cfab9da2ff86bad6060c7d77ee62e19259190819061032e906001600160a01b03861683610c66565b0390a16001600160a01b03191617600555005b61035a915060203d60201161020e576102008183610be7565b826102d6565b90506020813d60201161038c575b8161037b60209383610be7565b810103126100d357516102c461029f565b3d915061036e565b346100d3575f3660031901126100d3576002546040516001600160a01b039091168152602090f35b346100d35760203660031901126100d3576103d5610c09565b5f54604051630ccc574960e41b81526001600160a01b0390911690602081600481855afa908115610215575f916104c8575b5060209061042c926040518080958194632474521560e21b8352339060048401610c4d565b03915afa908115610215575f916104a9575b50156101d3576001600160a01b0381169081156101c45760045460405190917f5da6b94665bf1ffea8956b1bfd3424ac4e5879083197059f23e5181df77c361991908190610496906001600160a01b03861683610c66565b0390a16001600160a01b03191617600455005b6104c2915060203d60201161020e576102008183610be7565b8261043e565b90506020813d6020116104f4575b816104e360209383610be7565b810103126100d3575161042c610407565b3d91506104d6565b346100d35760403660031901126100d35760043560038110156100d357602090610524610c1f565b604051908382019260f81b83526bffffffffffffffffffffffff199060601b16602182015260158152610558603582610be7565b519020604051908152f35b346100d3575f3660031901126100d3576003546040516001600160a01b039091168152602090f35b346100d35760203660031901126100d3576105a4610c09565b5f54604051630ccc574960e41b81526001600160a01b0390911690602081600481855afa908115610215575f91610697575b506020906105fb926040518080958194632474521560e21b8352339060048401610c4d565b03915afa908115610215575f91610678575b50156101d3576001600160a01b0381169081156101c45760025460405190917ff6305c18a40cde2556a61871b17cd0a86d780832dc0e3e05a43c1d2ff8a53ac491908190610665906001600160a01b03861683610c66565b0390a16001600160a01b03191617600255005b610691915060203d60201161020e576102008183610be7565b8261060d565b90506020813d6020116106c3575b816106b260209383610be7565b810103126100d357516105fb6105d6565b3d91506106a5565b346100d3575f3660031901126100d3576004546040516001600160a01b039091168152602090f35b346100d35760203660031901126100d35761070c610c09565b5f54604051630ccc574960e41b81526001600160a01b0390911690602081600481855afa908115610215575f916107ff575b50602090610763926040518080958194632474521560e21b8352339060048401610c4d565b03915afa908115610215575f916107e0575b50156101d3576001600160a01b0381169081156101c45760015460405190917fffe0a81e9fcc7a42c05a5b4b763ffb4ca50ddd532d824b476298bb1264194545919081906107cd906001600160a01b03861683610c66565b0390a16001600160a01b03191617600155005b6107f9915060203d60201161020e576102008183610be7565b82610775565b90506020813d60201161082b575b8161081a60209383610be7565b810103126100d3575161076361073e565b3d915061080d565b346100d35760a03660031901126100d35760405160a0810181811067ffffffffffffffff821117610b8c57604052610869610c09565b8152610873610c1f565b6020820190815260443591906001600160a01b03831683036100d35760408201928352606435916001600160a01b03831683036100d35760608101928352608435906001600160a01b03821682036100d357608081019182525f54604051630ccc574960e41b81529095906001600160a01b03871690602081600481855afa908115610215575f91610b58575b50602090610925926040518080958194632474521560e21b8352339060048401610c4d565b03915afa908115610215575f91610b39575b50156101d35760ff8660a01c16610b2a5781516001600160a01b0316158015610b18575b8015610b06575b8015610af4575b8015610ae2575b6101c4579051600180546001600160a01b03199081166001600160a01b03938416908117909255855160028054831691851691909117905583516003805483169185169190911790558651600480548316918516919091179055845160058054909216931692909217909155604080515f815260208101929092527ffdc61a171cf2fa6f226e1e76e7a1769cfab9da2ff86bad6060c7d77ee62e192595610ace957f5da6b94665bf1ffea8956b1bfd3424ac4e5879083197059f23e5181df77c361994610aaa9492937f4ab5be82436d353e61ca18726e984e561f5c1cc7c6d38b29d2553c790434705a9386937ff6305c18a40cde2556a61871b17cd0a86d780832dc0e3e05a43c1d2ff8a53ac49285927fffe0a81e9fcc7a42c05a5b4b763ffb4ca50ddd532d824b476298bb1264194545918190810185565b0390a151604080515f81526001600160a01b03909216602083015290918291820190565b0390a160ff60a01b1916600160a01b175f55005b5082516001600160a01b031615610970565b5084516001600160a01b031615610969565b5080516001600160a01b031615610962565b5083516001600160a01b03161561095b565b63485ed86d60e01b5f5260045ffd5b610b52915060203d60201161020e576102008183610be7565b87610937565b90506020813d602011610b84575b81610b7360209383610be7565b810103126100d35751610925610900565b3d9150610b66565b634e487b7160e01b5f52604160045260245ffd5b346100d3575f3660031901126100d357602060ff5f5460a01c166040519015158152f35b346100d3575f3660031901126100d3576001546001600160a01b03168152602090f35b90601f8019910116810190811067ffffffffffffffff821117610b8c57604052565b600435906001600160a01b03821682036100d357565b602435906001600160a01b03821682036100d357565b908160209103126100d3575180151581036100d35790565b9081526001600160a01b03909116602082015260400190565b6001600160a01b039182168152911660208201526040019056fea2646970667358221220d00203f08b73159267a8107e70d5607b65e88453658b5b2f81c37f4ca9be8df864736f6c634300081c0033",
  "linkReferences": {},
  "deployedLinkReferences": {}
}