{
  "_format": "hh-sol-artifact-1",
  "contractName": "ERC4626Ark",
  "sourceName": "src/contracts/arks/ERC4626Ark.sol",
  "abi": [
    {
      "inputs": [
        {
          "internalType": "address",
          "name": "_vault",
          "type": "address"
        },
        {
          "components": [
            {
              "internalType": "string",
              "name": "name",
              "type": "string"
            },
            {
              "internalType": "string",
              "name": "details",
              "type": "string"
            },
            {
              "internalType": "address",
              "name": "accessManager",
              "type": "address"
            },
            {
              "internalType": "address",
              "name": "configurationManager",
              "type": "address"
            },
            {
              "internalType": "address",
              "name": "asset",
              "type": "address"
            },
            {
              "internalType": "uint256",
              "name": "depositCap",
              "type": "uint256"
            },
            {
              "internalType": "uint256",
              "name": "maxRebalanceOutflow",
              "type": "uint256"
            },
            {
              "internalType": "uint256",
              "name": "maxRebalanceInflow",
              "type": "uint256"
            },
            {
              "internalType": "bool",
              "name": "requiresKeeperData",
              "type": "bool"
            },
            {
              "internalType": "Percentage",
              "name": "maxDepositPercentageOfTVL",
              "type": "uint256"
            }
          ],
          "internalType": "struct ArkParams",
          "name": "_params",
          "type": "tuple"
        }
      ],
      "stateMutability": "nonpayable",
      "type": "constructor"
    },
    {
      "inputs": [
        {
          "internalType": "address",
          "name": "caller",
          "type": "address"
        }
      ],
      "name": "CallerIsNotAdmin",
      "type": "error"
    },
    {
      "inputs": [
        {
          "internalType": "address",
          "name": "caller",
          "type": "address"
        }
      ],
      "name": "CallerIsNotAuthorizedToBoard",
      "type": "error"
    },
    {
      "inputs": [
        {
          "internalType": "address",
          "name": "caller",
          "type": "address"
        }
      ],
      "name": "CallerIsNotCommander",
      "type": "error"
    },
    {
      "inputs": [
        {
          "internalType": "address",
          "name": "caller",
          "type": "address"
        },
        {
          "internalType": "bytes32",
          "name": "role",
          "type": "bytes32"
        }
      ],
      "name": "CallerIsNotContractSpecificRole",
      "type": "error"
    },
    {
      "inputs": [
        {
          "internalType": "address",
          "name": "caller",
          "type": "address"
        }
      ],
      "name": "CallerIsNotCurator",
      "type": "error"
    },
    {
      "inputs": [
        {
          "internalType": "address",
          "name": "caller",
          "type": "address"
        }
      ],
      "name": "CallerIsNotDecayController",
      "type": "error"
    },
    {
      "inputs": [
        {
          "internalType": "address",
          "name": "caller",
          "type": "address"
        }
      ],
      "name": "CallerIsNotGovernor",
      "type": "error"
    },
    {
      "inputs": [
        {
          "internalType": "address",
          "name": "caller",
          "type": "address"
        }
      ],
      "name": "CallerIsNotGuardian",
      "type": "error"
    },
    {
      "inputs": [
        {
          "internalType": "address",
          "name": "caller",
          "type": "address"
        }
      ],
      "name": "CallerIsNotGuardianOrGovernor",
      "type": "error"
    },
    {
      "inputs": [
        {
          "internalType": "address",
          "name": "caller",
          "type": "address"
        }
      ],
      "name": "CallerIsNotKeeper",
      "type": "error"
    },
    {
      "inputs": [
        {
          "internalType": "address",
          "name": "caller",
          "type": "address"
        }
      ],
      "name": "CallerIsNotRaft",
      "type": "error"
    },
    {
      "inputs": [
        {
          "internalType": "address",
          "name": "caller",
          "type": "address"
        }
      ],
      "name": "CallerIsNotRaftOrCommander",
      "type": "error"
    },
    {
      "inputs": [
        {
          "internalType": "address",
          "name": "caller",
          "type": "address"
        }
      ],
      "name": "CallerIsNotSuperKeeper",
      "type": "error"
    },
    {
      "inputs": [],
      "name": "CannotAddCommanderToArkWithCommander",
      "type": "error"
    },
    {
      "inputs": [],
      "name": "CannotDeployArkWithEmptyName",
      "type": "error"
    },
    {
      "inputs": [],
      "name": "CannotDeployArkWithoutConfigurationManager",
      "type": "error"
    },
    {
      "inputs": [],
      "name": "CannotDeployArkWithoutRaft",
      "type": "error"
    },
    {
      "inputs": [],
      "name": "CannotDeployArkWithoutToken",
      "type": "error"
    },
    {
      "inputs": [],
      "name": "CannotRemoveCommanderFromArkWithAssets",
      "type": "error"
    },
    {
      "inputs": [],
      "name": "CannotUseKeeperDataWhenNotRequired",
      "type": "error"
    },
    {
      "inputs": [],
      "name": "ConfigurationManagerZeroAddress",
      "type": "error"
    },
    {
      "inputs": [
        {
          "internalType": "address",
          "name": "caller",
          "type": "address"
        }
      ],
      "name": "DirectGrantIsDisabled",
      "type": "error"
    },
    {
      "inputs": [
        {
          "internalType": "address",
          "name": "caller",
          "type": "address"
        }
      ],
      "name": "DirectRevokeIsDisabled",
      "type": "error"
    },
    {
      "inputs": [],
      "name": "ERC4626AssetMismatch",
      "type": "error"
    },
    {
      "inputs": [
        {
          "internalType": "address",
          "name": "invalidAddress",
          "type": "address"
        }
      ],
      "name": "InvalidAccessManagerAddress",
      "type": "error"
    },
    {
      "inputs": [],
      "name": "InvalidBoardData",
      "type": "error"
    },
    {
      "inputs": [],
      "name": "InvalidDisembarkData",
      "type": "error"
    },
    {
      "inputs": [],
      "name": "InvalidVaultAddress",
      "type": "error"
    },
    {
      "inputs": [],
      "name": "KeeperDataRequired",
      "type": "error"
    },
    {
      "inputs": [],
      "name": "ReentrancyGuardReentrantCall",
      "type": "error"
    },
    {
      "inputs": [
        {
          "internalType": "address",
          "name": "token",
          "type": "address"
        }
      ],
      "name": "SafeERC20FailedOperation",
      "type": "error"
    },
    {
      "anonymous": false,
      "inputs": [
        {
          "indexed": true,
          "internalType": "address[]",
          "name": "rewardTokens",
          "type": "address[]"
        },
        {
          "indexed": true,
          "internalType": "uint256[]",
          "name": "rewardAmounts",
          "type": "uint256[]"
        }
      ],
      "name": "ArkHarvested",
      "type": "event"
    },
    {
      "anonymous": false,
      "inputs": [
        {
          "indexed": false,
          "internalType": "uint256",
          "name": "currentPrice",
          "type": "uint256"
        },
        {
          "indexed": false,
          "internalType": "uint256",
          "name": "timestamp",
          "type": "uint256"
        }
      ],
      "name": "ArkPoked",
      "type": "event"
    },
    {
      "anonymous": false,
      "inputs": [
        {
          "indexed": true,
          "internalType": "address[]",
          "name": "sweptTokens",
          "type": "address[]"
        },
        {
          "indexed": true,
          "internalType": "uint256[]",
          "name": "sweptAmounts",
          "type": "uint256[]"
        }
      ],
      "name": "ArkSwept",
      "type": "event"
    },
    {
      "anonymous": false,
      "inputs": [
        {
          "indexed": true,
          "internalType": "address",
          "name": "commander",
          "type": "address"
        },
        {
          "indexed": false,
          "internalType": "address",
          "name": "token",
          "type": "address"
        },
        {
          "indexed": false,
          "internalType": "uint256",
          "name": "amount",
          "type": "uint256"
        }
      ],
      "name": "Boarded",
      "type": "event"
    },
    {
      "anonymous": false,
      "inputs": [
        {
          "indexed": false,
          "internalType": "uint256",
          "name": "newCap",
          "type": "uint256"
        }
      ],
      "name": "DepositCapUpdated",
      "type": "event"
    },
    {
      "anonymous": false,
      "inputs": [
        {
          "indexed": true,
          "internalType": "address",
          "name": "commander",
          "type": "address"
        },
        {
          "indexed": false,
          "internalType": "address",
          "name": "token",
          "type": "address"
        },
        {
          "indexed": false,
          "internalType": "uint256",
          "name": "amount",
          "type": "uint256"
        }
      ],
      "name": "Disembarked",
      "type": "event"
    },
    {
      "anonymous": false,
      "inputs": [
        {
          "indexed": false,
          "internalType": "address",
          "name": "commander",
          "type": "address"
        }
      ],
      "name": "FleetCommanderRegistered",
      "type": "event"
    },
    {
      "anonymous": false,
      "inputs": [
        {
          "indexed": false,
          "internalType": "address",
          "name": "commander",
          "type": "address"
        }
      ],
      "name": "FleetCommanderUnregistered",
      "type": "event"
    },
    {
      "anonymous": false,
      "inputs": [
        {
          "indexed": false,
          "internalType": "Percentage",
          "name": "newMaxDepositPercentageOfTVL",
          "type": "uint256"
        }
      ],
      "name": "MaxDepositPercentageOfTVLUpdated",
      "type": "event"
    },
    {
      "anonymous": false,
      "inputs": [
        {
          "indexed": false,
          "internalType": "uint256",
          "name": "newMaxInflow",
          "type": "uint256"
        }
      ],
      "name": "MaxRebalanceInflowUpdated",
      "type": "event"
    },
    {
      "anonymous": false,
      "inputs": [
        {
          "indexed": false,
          "internalType": "uint256",
          "name": "newMaxOutflow",
          "type": "uint256"
        }
      ],
      "name": "MaxRebalanceOutflowUpdated",
      "type": "event"
    },
    {
      "anonymous": false,
      "inputs": [
        {
          "indexed": true,
          "internalType": "address",
          "name": "from",
          "type": "address"
        },
        {
          "indexed": true,
          "internalType": "address",
          "name": "to",
          "type": "address"
        },
        {
          "indexed": false,
          "internalType": "address",
          "name": "token",
          "type": "address"
        },
        {
          "indexed": false,
          "internalType": "uint256",
          "name": "amount",
          "type": "uint256"
        }
      ],
      "name": "Moved",
      "type": "event"
    },
    {
      "anonymous": false,
      "inputs": [
        {
          "indexed": false,
          "internalType": "address",
          "name": "newRaft",
          "type": "address"
        }
      ],
      "name": "RaftUpdated",
      "type": "event"
    },
    {
      "inputs": [],
      "name": "asset",
      "outputs": [
        {
          "internalType": "contract IERC20",
          "name": "",
          "type": "address"
        }
      ],
      "stateMutability": "view",
      "type": "function"
    },
    {
      "inputs": [
        {
          "internalType": "uint256",
          "name": "amount",
          "type": "uint256"
        },
        {
          "internalType": "bytes",
          "name": "boardData",
          "type": "bytes"
        }
      ],
      "name": "board",
      "outputs": [],
      "stateMutability": "nonpayable",
      "type": "function"
    },
    {
      "inputs": [],
      "name": "commander",
      "outputs": [
        {
          "internalType": "address",
          "name": "",
          "type": "address"
        }
      ],
      "stateMutability": "view",
      "type": "function"
    },
    {
      "inputs": [],
      "name": "config",
      "outputs": [
        {
          "internalType": "address",
          "name": "commander",
          "type": "address"
        },
        {
          "internalType": "address",
          "name": "raft",
          "type": "address"
        },
        {
          "internalType": "contract IERC20",
          "name": "asset",
          "type": "address"
        },
        {
          "internalType": "uint256",
          "name": "depositCap",
          "type": "uint256"
        },
        {
          "internalType": "uint256",
          "name": "maxRebalanceOutflow",
          "type": "uint256"
        },
        {
          "internalType": "uint256",
          "name": "maxRebalanceInflow",
          "type": "uint256"
        },
        {
          "internalType": "string",
          "name": "name",
          "type": "string"
        },
        {
          "internalType": "string",
          "name": "details",
          "type": "string"
        },
        {
          "internalType": "bool",
          "name": "requiresKeeperData",
          "type": "bool"
        },
        {
          "internalType": "Percentage",
          "name": "maxDepositPercentageOfTVL",
          "type": "uint256"
        }
      ],
      "stateMutability": "view",
      "type": "function"
    },
    {
      "inputs": [],
      "name": "configurationManager",
      "outputs": [
        {
          "internalType": "contract IConfigurationManager",
          "name": "",
          "type": "address"
        }
      ],
      "stateMutability": "view",
      "type": "function"
    },
    {
      "inputs": [],
      "name": "depositCap",
      "outputs": [
        {
          "internalType": "uint256",
          "name": "",
          "type": "uint256"
        }
      ],
      "stateMutability": "view",
      "type": "function"
    },
    {
      "inputs": [
        {
          "internalType": "uint256",
          "name": "amount",
          "type": "uint256"
        },
        {
          "internalType": "bytes",
          "name": "disembarkData",
          "type": "bytes"
        }
      ],
      "name": "disembark",
      "outputs": [],
      "stateMutability": "nonpayable",
      "type": "function"
    },
    {
      "inputs": [],
      "name": "fleetCommanderRewardsManagerFactory",
      "outputs": [
        {
          "internalType": "address",
          "name": "",
          "type": "address"
        }
      ],
      "stateMutability": "view",
      "type": "function"
    },
    {
      "inputs": [
        {
          "internalType": "enum ContractSpecificRoles",
          "name": "roleName",
          "type": "uint8"
        },
        {
          "internalType": "address",
          "name": "roleTargetContract",
          "type": "address"
        }
      ],
      "name": "generateRole",
      "outputs": [
        {
          "internalType": "bytes32",
          "name": "",
          "type": "bytes32"
        }
      ],
      "stateMutability": "pure",
      "type": "function"
    },
    {
      "inputs": [],
      "name": "getConfig",
      "outputs": [
        {
          "components": [
            {
              "internalType": "address",
              "name": "commander",
              "type": "address"
            },
            {
              "internalType": "address",
              "name": "raft",
              "type": "address"
            },
            {
              "internalType": "contract IERC20",
              "name": "asset",
              "type": "address"
            },
            {
              "internalType": "uint256",
              "name": "depositCap",
              "type": "uint256"
            },
            {
              "internalType": "uint256",
              "name": "maxRebalanceOutflow",
              "type": "uint256"
            },
            {
              "internalType": "uint256",
              "name": "maxRebalanceInflow",
              "type": "uint256"
            },
            {
              "internalType": "string",
              "name": "name",
              "type": "string"
            },
            {
              "internalType": "string",
              "name": "details",
              "type": "string"
            },
            {
              "internalType": "bool",
              "name": "requiresKeeperData",
              "type": "bool"
            },
            {
              "internalType": "Percentage",
              "name": "maxDepositPercentageOfTVL",
              "type": "uint256"
            }
          ],
          "internalType": "struct ArkConfig",
          "name": "",
          "type": "tuple"
        }
      ],
      "stateMutability": "view",
      "type": "function"
    },
    {
      "inputs": [],
      "name": "harborCommand",
      "outputs": [
        {
          "internalType": "address",
          "name": "",
          "type": "address"
        }
      ],
      "stateMutability": "view",
      "type": "function"
    },
    {
      "inputs": [
        {
          "internalType": "bytes",
          "name": "additionalData",
          "type": "bytes"
        }
      ],
      "name": "harvest",
      "outputs": [
        {
          "internalType": "address[]",
          "name": "rewardTokens",
          "type": "address[]"
        },
        {
          "internalType": "uint256[]",
          "name": "rewardAmounts",
          "type": "uint256[]"
        }
      ],
      "stateMutability": "nonpayable",
      "type": "function"
    },
    {
      "inputs": [
        {
          "internalType": "address",
          "name": "account",
          "type": "address"
        }
      ],
      "name": "hasAdmiralsQuartersRole",
      "outputs": [
        {
          "internalType": "bool",
          "name": "",
          "type": "bool"
        }
      ],
      "stateMutability": "view",
      "type": "function"
    },
    {
      "inputs": [],
      "name": "maxDepositPercentageOfTVL",
      "outputs": [
        {
          "internalType": "Percentage",
          "name": "",
          "type": "uint256"
        }
      ],
      "stateMutability": "view",
      "type": "function"
    },
    {
      "inputs": [],
      "name": "maxRebalanceInflow",
      "outputs": [
        {
          "internalType": "uint256",
          "name": "",
          "type": "uint256"
        }
      ],
      "stateMutability": "view",
      "type": "function"
    },
    {
      "inputs": [],
      "name": "maxRebalanceOutflow",
      "outputs": [
        {
          "internalType": "uint256",
          "name": "",
          "type": "uint256"
        }
      ],
      "stateMutability": "view",
      "type": "function"
    },
    {
      "inputs": [
        {
          "internalType": "uint256",
          "name": "amount",
          "type": "uint256"
        },
        {
          "internalType": "address",
          "name": "receiverArk",
          "type": "address"
        },
        {
          "internalType": "bytes",
          "name": "boardData",
          "type": "bytes"
        },
        {
          "internalType": "bytes",
          "name": "disembarkData",
          "type": "bytes"
        }
      ],
      "name": "move",
      "outputs": [],
      "stateMutability": "nonpayable",
      "type": "function"
    },
    {
      "inputs": [],
      "name": "name",
      "outputs": [
        {
          "internalType": "string",
          "name": "",
          "type": "string"
        }
      ],
      "stateMutability": "view",
      "type": "function"
    },
    {
      "inputs": [],
      "name": "raft",
      "outputs": [
        {
          "internalType": "address",
          "name": "",
          "type": "address"
        }
      ],
      "stateMutability": "view",
      "type": "function"
    },
    {
      "inputs": [],
      "name": "registerFleetCommander",
      "outputs": [],
      "stateMutability": "nonpayable",
      "type": "function"
    },
    {
      "inputs": [],
      "name": "requiresKeeperData",
      "outputs": [
        {
          "internalType": "bool",
          "name": "",
          "type": "bool"
        }
      ],
      "stateMutability": "view",
      "type": "function"
    },
    {
      "inputs": [
        {
          "internalType": "uint256",
          "name": "newDepositCap",
          "type": "uint256"
        }
      ],
      "name": "setDepositCap",
      "outputs": [],
      "stateMutability": "nonpayable",
      "type": "function"
    },
    {
      "inputs": [
        {
          "internalType": "Percentage",
          "name": "newMaxDepositPercentageOfTVL",
          "type": "uint256"
        }
      ],
      "name": "setMaxDepositPercentageOfTVL",
      "outputs": [],
      "stateMutability": "nonpayable",
      "type": "function"
    },
    {
      "inputs": [
        {
          "internalType": "uint256",
          "name": "newMaxRebalanceInflow",
          "type": "uint256"
        }
      ],
      "name": "setMaxRebalanceInflow",
      "outputs": [],
      "stateMutability": "nonpayable",
      "type": "function"
    },
    {
      "inputs": [
        {
          "internalType": "uint256",
          "name": "newMaxRebalanceOutflow",
          "type": "uint256"
        }
      ],
      "name": "setMaxRebalanceOutflow",
      "outputs": [],
      "stateMutability": "nonpayable",
      "type": "function"
    },
    {
      "inputs": [
        {
          "internalType": "address[]",
          "name": "tokens",
          "type": "address[]"
        }
      ],
      "name": "sweep",
      "outputs": [
        {
          "internalType": "address[]",
          "name": "sweptTokens",
          "type": "address[]"
        },
        {
          "internalType": "uint256[]",
          "name": "sweptAmounts",
          "type": "uint256[]"
        }
      ],
      "stateMutability": "nonpayable",
      "type": "function"
    },
    {
      "inputs": [],
      "name": "tipJar",
      "outputs": [
        {
          "internalType": "address",
          "name": "",
          "type": "address"
        }
      ],
      "stateMutability": "view",
      "type": "function"
    },
    {
      "inputs": [],
      "name": "totalAssets",
      "outputs": [
        {
          "internalType": "uint256",
          "name": "",
          "type": "uint256"
        }
      ],
      "stateMutability": "view",
      "type": "function"
    },
    {
      "inputs": [],
      "name": "treasury",
      "outputs": [
        {
          "internalType": "address",
          "name": "",
          "type": "address"
        }
      ],
      "stateMutability": "view",
      "type": "function"
    },
    {
      "inputs": [],
      "name": "unregisterFleetCommander",
      "outputs": [],
      "stateMutability": "nonpayable",
      "type": "function"
    },
    {
      "inputs": [],
      "name": "vault",
      "outputs": [
        {
          "internalType": "contract IERC4626",
          "name": "",
          "type": "address"
        }
      ],
      "stateMutability": "view",
      "type": "function"
    }
  ],
  "bytecode": "0x60c080604052346104745761294f803803809161001c8285610797565b833981019060408183031261047457610034816107ba565b602082015190916001600160401b03821161047457016101408184031261047457604051926100628461077b565b81516001600160401b038111610474578161007e9184016107ce565b84526020820151906001600160401b0382116104745761009f9183016107ce565b90602084019182526100b3604082016107ba565b918260408601526100c6606083016107ba565b9460608101938685526100db608085016107ba565b946080830195865260a08501519560a0840196875260c08601519160c0850192835260e08701519360e0860194855261012061011a6101008a01610823565b610100880190815298015161012087019081529a6001600160a01b0390811691168015610768576040516301ffc9a760e01b81526338c7ccdb60e01b6004820152602081602481855afa908115610480575f9161072e575b501561071c575f80546001600160a01b031916919091179055801561070d57608052516001600160a01b0316156106fe5780516001600160a01b0316156106ef57835151156106e0576001600160a01b036101cb610830565b16156106d157516001600160a01b03166101e3610830565b9651915192519351945195511515985196610120604051916102048361077b565b5f83526001600160a01b03166020830181905260408301849052606083018590526080830186905260a0830187905260c0830188905260e0830198895261010083019b8c529101978852600180546001600160a01b03199081169091556002805482169092179091556003805490911690911790556004556005556006558051906001600160401b0382116105d45760075490600182811c921680156106c7575b60208310146105b65781601f849311610659575b50602090601f83116001146105f3575f926105e8575b50508160011b915f199060031b1c1916176007555b5180519093906001600160401b0381116105d457600854600181811c911680156105ca575b60208210146105b657601f8111610553575b50602094601f82116001146104f0579481929394955f926104e5575b50508160011b915f199060031b1c1916176008555b51151560ff80196009541691161760095551600a5560018060a01b031680156104d65760a08190526040516338d52e0f60e01b815290602082600481845afa918215610480575f9261049a575b506003546001600160a01b03908116921682900361048b575f916044602092604051948593849263095ea7b360e01b84526004840152811960248401525af1801561048057610443575b6040516120b1908161089e82396080518181816101e1015281816105a501528181610b0601528181611341015281816113ec0152611d1d015260a051818181610188015281816107f1015281816115cf015281816117ea01526119140152f35b6020813d602011610478575b8161045c60209383610797565b810103126104745761046d90610823565b505f6103e3565b5f80fd5b3d915061044f565b6040513d5f823e3d90fd5b632df548ff60e11b5f5260045ffd5b9091506020813d6020116104ce575b816104b660209383610797565b81010312610474576104c7906107ba565b905f610399565b3d91506104a9565b630306120160e01b5f5260045ffd5b015190505f80610337565b601f1982169560085f52805f20915f5b88811061053b57508360019596979810610523575b505050811b0160085561034c565b01515f1960f88460031b161c191690555f8080610515565b91926020600181928685015181550194019201610500565b60085f527ff3f7a9fe364faab93b216da50a3214154f22a0a2b415b23a84c8169e8b636ee3601f830160051c810191602084106105ac575b601f0160051c01905b8181106105a1575061031b565b5f8155600101610594565b909150819061058b565b634e487b7160e01b5f52602260045260245ffd5b90607f1690610309565b634e487b7160e01b5f52604160045260245ffd5b015190505f806102cf565b60075f9081528281209350601f198516905b8181106106415750908460019594939210610629575b505050811b016007556102e4565b01515f1960f88460031b161c191690555f808061061b565b92936020600181928786015181550195019301610605565b60075f529091507fa66cc928b5edb82af9bd49922954155ab7b0942694bea4ce44661d9a8736c688601f840160051c810191602085106106bd575b90601f859493920160051c01905b8181106106af57506102b9565b5f81558493506001016106a2565b9091508190610694565b91607f16916102a5565b633a4f9cdb60e21b5f5260045ffd5b63268c072960e01b5f5260045ffd5b637ff57ef160e11b5f5260045ffd5b63b53c493160e01b5f5260045ffd5b63f1634df960e01b5f5260045ffd5b6347bd7c1d60e01b5f5260045260245ffd5b90506020813d602011610760575b8161074960209383610797565b810103126104745761075a90610823565b5f610172565b3d915061073c565b6347bd7c1d60e01b5f525f60045260245ffd5b61014081019081106001600160401b038211176105d457604052565b601f909101601f19168101906001600160401b038211908210176105d457604052565b51906001600160a01b038216820361047457565b81601f82011215610474578051906001600160401b0382116105d45760405192610802601f8401601f191660200185610797565b8284526020838301011161047457815f9260208093018386015e8301015290565b5190811515820361047457565b608051604051628bec5760e51b815290602090829060049082906001600160a01b03165afa908115610480575f91610866575090565b90506020813d602011610895575b8161088160209383610797565b8101031261047457610892906107ba565b90565b3d915061087456fe6080806040526004361015610012575f80fd5b5f905f3560e01c90816301e1d114146118f25750806306fdde03146118c3578063117d8ae01461189757806313c408f8146117945780632db6d39914611518578063303dbaf3146114f65780633194549e146114d957806337270936146114b157806338d52e0f146114895780634fc7fac3146114375780635b0f83f3146113c757806361d027b31461131c57806361f5cd8b146112b757806369b3054b14611256578063780469bb14610c0457806379502c5514610b515780637aaceb9514610adf5780638665120314610a8b5780638a8b997614610a2f57806392f5e832146109c8578063ad5a356f146109aa578063bdcdd8821461098c578063c38a6f0b1461074e578063c3f909d4146105d4578063c9c667e31461058f578063ce5c7f611461042f578063dbd5edc714610411578063ebc136d0146102e6578063ebf3113114610276578063f7e533ec146101ba5763fbfa77cf14610173575f80fd5b346101b757806003193601126101b7576040517f00000000000000000000000000000000000000000000000000000000000000006001600160a01b03168152602090f35b80fd5b50346101b757806003193601126101b757604051633df94cfb60e21b8152906020826004817f00000000000000000000000000000000000000000000000000000000000000006001600160a01b03165afa90811561026a57809161022d575b6040516001600160a01b0383168152602090f35b90506020823d602011610262575b8161024860209383611aa5565b810103126101b7575061025c602091611cf5565b5f610219565b3d915061023b565b604051903d90823e3d90fd5b50346101b757806003193601126101b75761028f611ea6565b156102d357600180546001600160a01b03191690556040513381527f7cb941d7b1708e5b3bcd35ca960d6c6311188cec18886e5b67630552676b048790602090a180f35b631564c0e160e11b815233600452602490fd5b50346101b75760203660031901126101b7576004356001600160a01b038116810361040d57815460405163a89f38a360e01b81526001600160a01b039091169190602081600481865afa9081156104025784916103c8575b50604051632474521560e21b815260048101919091526001600160a01b0390911660248201529060209082908180604481015b03915afa9081156103bd5760209291610390575b506040519015158152f35b6103b09150823d84116103b6575b6103a88183611aa5565b810190611daa565b5f610385565b503d61039e565b6040513d84823e3d90fd5b9190506020823d6020116103fa575b816103e460209383611aa5565b810103126103f657905161037161033e565b8380fd5b3d91506103d7565b6040513d86823e3d90fd5b5080fd5b50346101b757806003193601126101b7576020600454604051908152f35b50346101b75760203660031901126101b7576004356001600160401b03811161040d57610460903690600401611a13565b5050604051628bec5760e51b8152602081600481305afa9081156103bd578291610555575b506001600160a01b031633036105425761049d611f48565b60409061053e82516104af8482611aa5565b60018152601f19840190813660208301378451916104cd8684611aa5565b60018352366020840137836104e182611df4565b52836104ec83611df4565b526104f681611e29565b9361050083611e6c565b95519586957f3e3e7958121b3e39c7a49392d1aa9cdce870c2a059744f9e15cf66fff78654558380a35f51602061205c5f395f51905f525d83611add565b0390f35b631184b31b60e21b815233600452602490fd5b90506020813d602011610587575b8161057060209383611aa5565b8101031261040d5761058190611cf5565b5f610485565b3d9150610563565b50346101b757806003193601126101b7576040517f00000000000000000000000000000000000000000000000000000000000000006001600160a01b03168152602090f35b50346101b757806003193601126101b7576101206040516105f481611a89565b8281528260208201528260408201528260608201528260808201528260a0820152606060c0820152606060e082015282610100820152015260405161063881611a89565b6001546001600160a01b03908116825260025481166020830190815260035490911660408301908152600454606084019081526005546080850190815260065460a08601908152939493919291610739919061072590610696611b58565b9060c088019182526106a6611c3a565b60e089810191825260095460ff1615156101008b01908152600a546101208c019081526040805160208082529d516001600160a01b039081169e82019e909e529d518d16908e01529851909a1660608c0152975160808b0152935160a08a01525160c089015251610140958801959095528695946101608701906119ef565b9051858203601f19016101008701526119ef565b91511515610120840152516101408301520390f35b50346101b75760803660031901126101b75760043561076b611a73565b906044356001600160401b0381116103f65761078b903690600401611a13565b90926064356001600160401b038111610988576107ac903690600401611a13565b906107b5611ea6565b1561097557869392916107c791611f7d565b604051632d182be560e21b81526004810185905230602482018190526044820152602081606481877f00000000000000000000000000000000000000000000000000000000000000006001600160a01b03165af1801561040257610946575b5060035460405163095ea7b360e01b81529060209082906001600160a01b03168187816108578b8960048401611d8f565b03925af1801561040257610929575b506001600160a01b031693843b156109255781606484926040519485938492632db6d39960e01b845289600485015260406024850152816044850152848401378181018301859052601f01601f1916810103018183885af180156103bd57610910575b505060035460405130927f9f784fc02a186f1c98b2d9f15fda084da27cdd291a3785d978f91911d880516b92829161090a916001600160a01b031683611d8f565b0390a380f35b8161091a91611aa5565b61092557825f6108c9565b8280fd5b6109419060203d6020116103b6576103a88183611aa5565b610866565b6109679060203d60201161096e575b61095f8183611aa5565b810190611ce6565b505f610826565b503d610955565b631564c0e160e11b875233600452602487fd5b8580fd5b50346101b757806003193601126101b7576020600a54604051908152f35b50346101b757806003193601126101b7576020600654604051908152f35b50346101b75760203660031901126101b7576004356109e5611ea6565b15610a1c576020817fb6ac66853c4e59c71e118d25ab494bb847c4e5eb0c8894898c5343e6f61afc1292600655604051908152a180f35b631564c0e160e11b825233600452602482fd5b50346101b757806003193601126101b757610a48611ea6565b156102d3573360018060a01b031960015416176001557f55489ce0259bd691120d8860861be1c401c7c16a3cd268d21045756af4ecc5ca6020604051338152a180f35b50346101b75760203660031901126101b757600435610aa8611ea6565b15610a1c576020817f333b26cca69716ad4680ddb07663f5bfb4f06045671f336af9a83690a3ae00f992600455604051908152a180f35b50346101b757806003193601126101b757604051637aaceb9560e01b8152906020826004817f00000000000000000000000000000000000000000000000000000000000000006001600160a01b03165afa90811561026a57809161022d576040516001600160a01b0383168152602090f35b50346101b757806003193601126101b7576001546002546003546004546005546006546001600160a01b0394851695851694929390921691610bf19190610be390610b9a611b58565b90610ba3611c3a565b9360ff6009541697600a54976040519b8c9b8c5260208c015260408b015260608a0152608089015260a088015261014060c08801526101408701906119ef565b9085820360e08701526119ef565b9115156101008401526101208301520390f35b5034610e23576020366003190112610e23576004356001600160401b038111610e235736602382011215610e23578060040135610c4081611ac6565b91610c4e6040519384611aa5565b8183526024602084019260051b82010190368211610e2357602401915b818310611236575050604051628bec5760e51b81529050602081600481305afa908115611042575f916111fc575b506001600160a01b031633036111e957610cb1611f48565b610cbb8151611dc2565b90610cc68151611dc2565b9160018060a01b03600354166040516370a0823160e01b8152306004820152602081602481855afa908115611042575f916111b7575b50610ed1575b50835b8251811015610e785760249060206001600160a01b03610d258387611e15565b5116604051938480926370a0823160e01b82523060048301525afa918215610e6d578692610e3a575b5081610d5f575b6001915001610d05565b6001600160a01b03610d718286611e15565b5116916024610d7e611d09565b9360206001600160a01b03610d93868a611e15565b5116604051938480926370a0823160e01b82523060048301525afa918215610e2f578992610df7575b5090600194610dca92611fce565b828060a01b03610dda8387611e15565b5116610de68386611e15565b52610df18287611e15565b52610d55565b91506020823d8211610e27575b81610e1160209383611aa5565b81010312610e23579051906001610dbc565b5f80fd5b3d9150610e04565b6040513d8b823e3d90fd5b9091506020813d8211610e65575b81610e5560209383611aa5565b81010312610e235751905f610d4e565b3d9150610e48565b6040513d88823e3d90fd5b848261053e86610e8783611e29565b92610e9182611e6c565b946040519586957f46b8771620f6acf56cb03d3e835ea8024c7dcbcf05fcc3f6ade9e19d1a3e212b8380a35f51602061205c5f395f51905f525d83611add565b6001546040516330fe427560e21b81529060a090829060049082906001600160a01b03165afa908115611042575f91611125575b50516040516370a0823160e01b81523060048201526001600160a01b039091169190602081602481855afa908115611042575f916110f3575b5060205f60405192610f7384610f658582019363095ea7b360e01b85528960248401611d8f565b03601f198101865285611aa5565b83519082865af15f513d826110d7575b505015611093575b50506003546040516370a0823160e01b815230600482015290602090829060249082906001600160a01b03165afa908115611042575f91611061575b50604051602081018181106001600160401b0382111761104d576040525f8152823b15610e235761101e925f9283604051809681958294632db6d39960e01b845260048401526040602484015260448301906119ef565b03925af180156110425715610d025761103a9194505f90611aa5565b5f925f610d02565b6040513d5f823e3d90fd5b634e487b7160e01b5f52604160045260245ffd5b90506020813d60201161108b575b8161107c60209383611aa5565b81010312610e2357515f610fc7565b3d915061106f565b6110d0916110cb60405163095ea7b360e01b60208201528560248201525f6044820152604481526110c5606482611aa5565b82612003565b612003565b5f80610f8b565b9091506110eb5750813b15155b5f80610f83565b6001146110e4565b90506020813d60201161111d575b8161110e60209383611aa5565b81010312610e2357515f610f3e565b3d9150611101565b905060a0813d60a0116111af575b8161114060a09383611aa5565b81010312610e23576040519060a082018281106001600160401b0382111761104d5760405280516001600160a01b0381168103610e23576111a491608091845260208101516020850152604081015160408501526060810151606085015201611cf5565b60808201525f610f05565b3d9150611133565b90506020813d6020116111e1575b816111d260209383611aa5565b81010312610e2357515f610cfc565b3d91506111c5565b631184b31b60e21b5f523360045260245ffd5b90506020813d60201161122e575b8161121760209383611aa5565b81010312610e235761122890611cf5565b5f610c99565b3d915061120a565b82356001600160a01b0381168103610e2357815260209283019201610c6b565b34610e23576040366003190112610e23576004356003811015610e235760209061127e611a73565b604051908382019260f81b835260018060601b03199060601b166021820152601581526112ac603582611aa5565b519020604051908152f35b34610e23576020366003190112610e23576004356112d3611ea6565b15611309576020817ffbe2d5c01ea8ba5596d6c4e6c82c6d4a0a0ee1128689993a4a5ba0169273d69f92600555604051908152a1005b631564c0e160e11b5f523360045260245ffd5b34610e23575f366003190112610e23576040516361d027b360e01b81526020816004817f00000000000000000000000000000000000000000000000000000000000000006001600160a01b03165afa8015611042575f9061138d575b6040516001600160a01b039091168152602090f35b506020813d6020116113bf575b816113a760209383611aa5565b81010312610e23576113ba602091611cf5565b611378565b3d915061139a565b34610e23575f366003190112610e2357604051635b0f83f360e01b81526020816004817f00000000000000000000000000000000000000000000000000000000000000006001600160a01b03165afa8015611042575f9061138d576040516001600160a01b039091168152602090f35b34610e23576020366003190112610e2357600435611453611ea6565b15611309576020817fd3c6d0ab315f2f1352f036cd9f401b49e38e1b90907e195225e8105f9a0b6f0292600a55604051908152a1005b34610e23575f366003190112610e23576003546040516001600160a01b039091168152602090f35b34610e23575f366003190112610e23576001546040516001600160a01b039091168152602090f35b34610e23575f366003190112610e23576020600554604051908152f35b34610e23575f366003190112610e2357602060ff600954166040519015158152f35b34610e235761152636611a40565b61152e611f48565b604051631b93849b60e11b8152602081600481305afa908115611042575f9161175a575b5061155b611ea6565b15611678575b5061156b91611f7d565b6003546040516323b872dd60e01b6020820152336024820152306044820152606480820184905281526115ac916001600160a01b03166110cb608483611aa5565b604051636e553f6560e01b8152600481018290523060248201526020816044815f7f00000000000000000000000000000000000000000000000000000000000000006001600160a01b03165af1801561104257611659575b5060035460405133927fcbaa1442ac205415c9d69643e7b60ec73d1de35dbc807c21ec288c70ddc4207b928291611644916001600160a01b031683611d8f565b0390a25f5f51602061205c5f395f51905f525d005b6116719060203d60201161096e5761095f8183611aa5565b5081611604565b604051628bec5760e51b8152602081600481305afa908115611042575f91611720575b506001600160a01b031633146115615760405163d25dd10160e01b815233600482015290602090829060249082906001600160a01b03165afa908115611042575f91611701575b50156116ee5783611561565b638f7a567d60e01b5f523360045260245ffd5b61171a915060203d6020116103b6576103a88183611aa5565b846116e2565b90506020813d602011611752575b8161173b60209383611aa5565b81010312610e235761174c90611cf5565b8561169b565b3d915061172e565b90506020813d60201161178c575b8161177560209383611aa5565b81010312610e235761178690611cf5565b84611552565b3d9150611768565b34610e23576117a236611a40565b6117aa611ea6565b15611309576117c0916117bb611f48565b611f7d565b604051632d182be560e21b815260048101829052306024820181905260448201526020816064815f7f00000000000000000000000000000000000000000000000000000000000000006001600160a01b03165af1801561104257611878575b5060035461183990829033906001600160a01b0316611fce565b60035460405133927fd5e872c5ecfb1bb8820b2e6a20e31b883682282da886621541f71e31ec11947e928291611644916001600160a01b031683611d8f565b6118909060203d60201161096e5761095f8183611aa5565b508161181f565b34610e23575f366003190112610e235760206118b1611d09565b6040516001600160a01b039091168152f35b34610e23575f366003190112610e235761053e6118de611b58565b6040519182916020835260208301906119ef565b34610e23575f366003190112610e23576370a0823160e01b81523060048201527f00000000000000000000000000000000000000000000000000000000000000006001600160a01b031690602081602481855afa8015611042575f906119bc575b602091506024604051809481936303d1689d60e11b835260048301525afa8015611042575f90611989575b602090604051908152f35b506020813d6020116119b4575b816119a360209383611aa5565b81010312610e23576020905161197e565b3d9150611996565b506020813d6020116119e7575b816119d660209383611aa5565b81010312610e235760209051611953565b3d91506119c9565b805180835260209291819084018484015e5f828201840152601f01601f1916010190565b9181601f84011215610e23578235916001600160401b038311610e235760208381860195010111610e2357565b906040600319830112610e235760043591602435906001600160401b038211610e2357611a6f91600401611a13565b9091565b602435906001600160a01b0382168203610e2357565b61014081019081106001600160401b0382111761104d57604052565b90601f801991011681019081106001600160401b0382111761104d57604052565b6001600160401b03811161104d5760051b60200190565b604081016040825282518091526020606083019301905f5b818110611b39575050506020818303910152602080835192838152019201905f5b818110611b235750505090565b8251845260209384019390920191600101611b16565b82516001600160a01b0316855260209485019490920191600101611af5565b604051905f6007548060011c9160018216918215611c30575b602084108314611c1c578386528592908115611bfd5750600114611b9e575b611b9c92500383611aa5565b565b5060075f90815290917fa66cc928b5edb82af9bd49922954155ab7b0942694bea4ce44661d9a8736c6885b818310611be1575050906020611b9c92820101611b90565b6020919350806001915483858901015201910190918492611bc9565b60209250611b9c94915060ff191682840152151560051b820101611b90565b634e487b7160e01b5f52602260045260245ffd5b92607f1692611b71565b604051905f6008548060011c9160018216918215611cdc575b602084108314611c1c578386528592908115611bfd5750600114611c7d57611b9c92500383611aa5565b5060085f90815290917ff3f7a9fe364faab93b216da50a3214154f22a0a2b415b23a84c8169e8b636ee35b818310611cc0575050906020611b9c92820101611b90565b6020919350806001915483858901015201910190918492611ca8565b92607f1692611c53565b90816020910312610e23575190565b51906001600160a01b0382168203610e2357565b604051628bec5760e51b81526020816004817f00000000000000000000000000000000000000000000000000000000000000006001600160a01b03165afa908115611042575f91611d58575090565b90506020813d602011611d87575b81611d7360209383611aa5565b81010312610e2357611d8490611cf5565b90565b3d9150611d66565b6001600160a01b039091168152602081019190915260400190565b90816020910312610e2357518015158103610e235790565b90611dcc82611ac6565b611dd96040519182611aa5565b8281528092611dea601f1991611ac6565b0190602036910137565b805115611e015760200190565b634e487b7160e01b5f52603260045260245ffd5b8051821015611e015760209160051b010190565b6040518091829160208251919201905f5b818110611e4a5750505003902090565b82516001600160a01b0316845285945060209384019390920191600101611e3a565b6040518091829160208251919201905f5b818110611e8d5750505003902090565b8251845285945060209384019390920191600101611e7d565b5f54604051600160f91b60208083019182526001600160601b03193060601b16602184015260158352611f1a9390926001600160a01b039091169190611eed603582611aa5565b519020604051632474521560e21b8152600481019190915233602482015292839190829081906044820190565b03915afa908115611042575f91611f2f575090565b611d84915060203d6020116103b6576103a88183611aa5565b5f51602061205c5f395f51905f525c611f6e5760015f51602061205c5f395f51905f525d565b633ee5aeb560e01b5f5260045ffd5b5015801580611fc1575b611fb25780611fa6575b611f9757565b63332863a960e11b5f5260045ffd5b5060ff60095416611f91565b630cd0fdf960e01b5f5260045ffd5b5060ff6009541615611f87565b6110cb611b9c9392611ff560405194859263a9059cbb60e01b602085015260248401611d8f565b03601f198101845283611aa5565b905f602091828151910182855af115611042575f513d61205257506001600160a01b0381163b155b6120325750565b635274afe760e01b5f9081526001600160a01b0391909116600452602490fd5b6001141561202b56fe9b779b17422d0df92223018b32b4d1fa46e071723d6817e2486d003becc55f00a26469706673582212205515507fbf2663b5b76dc9887c949ad0e76fc7035c826a87d011090da8430c7464736f6c634300081c0033",
  "linkReferences": {},
  "deployedLinkReferences": {}
}