{
  "_format": "hh-sol-artifact-1",
  "contractName": "ERC4626Ark",
  "sourceName": "src/contracts/arks/ERC4626Ark.sol",
  "abi": [
    {
      "inputs": [
        {
          "internalType": "address",
          "name": "_vault",
          "type": "address"
        },
        {
          "components": [
            {
              "internalType": "string",
              "name": "name",
              "type": "string"
            },
            {
              "internalType": "string",
              "name": "details",
              "type": "string"
            },
            {
              "internalType": "address",
              "name": "accessManager",
              "type": "address"
            },
            {
              "internalType": "address",
              "name": "configurationManager",
              "type": "address"
            },
            {
              "internalType": "address",
              "name": "asset",
              "type": "address"
            },
            {
              "internalType": "uint256",
              "name": "depositCap",
              "type": "uint256"
            },
            {
              "internalType": "uint256",
              "name": "maxRebalanceOutflow",
              "type": "uint256"
            },
            {
              "internalType": "uint256",
              "name": "maxRebalanceInflow",
              "type": "uint256"
            },
            {
              "internalType": "bool",
              "name": "requiresKeeperData",
              "type": "bool"
            },
            {
              "internalType": "Percentage",
              "name": "maxDepositPercentageOfTVL",
              "type": "uint256"
            }
          ],
          "internalType": "struct ArkParams",
          "name": "_params",
          "type": "tuple"
        }
      ],
      "stateMutability": "nonpayable",
      "type": "constructor"
    },
    {
      "inputs": [
        {
          "internalType": "address",
          "name": "caller",
          "type": "address"
        }
      ],
      "name": "CallerIsNotAdmin",
      "type": "error"
    },
    {
      "inputs": [
        {
          "internalType": "address",
          "name": "caller",
          "type": "address"
        }
      ],
      "name": "CallerIsNotAuthorizedToBoard",
      "type": "error"
    },
    {
      "inputs": [
        {
          "internalType": "address",
          "name": "caller",
          "type": "address"
        }
      ],
      "name": "CallerIsNotCommander",
      "type": "error"
    },
    {
      "inputs": [
        {
          "internalType": "address",
          "name": "caller",
          "type": "address"
        },
        {
          "internalType": "bytes32",
          "name": "role",
          "type": "bytes32"
        }
      ],
      "name": "CallerIsNotContractSpecificRole",
      "type": "error"
    },
    {
      "inputs": [
        {
          "internalType": "address",
          "name": "caller",
          "type": "address"
        }
      ],
      "name": "CallerIsNotCurator",
      "type": "error"
    },
    {
      "inputs": [
        {
          "internalType": "address",
          "name": "caller",
          "type": "address"
        }
      ],
      "name": "CallerIsNotDecayController",
      "type": "error"
    },
    {
      "inputs": [
        {
          "internalType": "address",
          "name": "caller",
          "type": "address"
        }
      ],
      "name": "CallerIsNotGovernor",
      "type": "error"
    },
    {
      "inputs": [
        {
          "internalType": "address",
          "name": "caller",
          "type": "address"
        }
      ],
      "name": "CallerIsNotGuardian",
      "type": "error"
    },
    {
      "inputs": [
        {
          "internalType": "address",
          "name": "caller",
          "type": "address"
        }
      ],
      "name": "CallerIsNotGuardianOrGovernor",
      "type": "error"
    },
    {
      "inputs": [
        {
          "internalType": "address",
          "name": "caller",
          "type": "address"
        }
      ],
      "name": "CallerIsNotKeeper",
      "type": "error"
    },
    {
      "inputs": [
        {
          "internalType": "address",
          "name": "caller",
          "type": "address"
        }
      ],
      "name": "CallerIsNotRaft",
      "type": "error"
    },
    {
      "inputs": [
        {
          "internalType": "address",
          "name": "caller",
          "type": "address"
        }
      ],
      "name": "CallerIsNotRaftOrCommander",
      "type": "error"
    },
    {
      "inputs": [
        {
          "internalType": "address",
          "name": "caller",
          "type": "address"
        }
      ],
      "name": "CallerIsNotSuperKeeper",
      "type": "error"
    },
    {
      "inputs": [],
      "name": "CannotAddCommanderToArkWithCommander",
      "type": "error"
    },
    {
      "inputs": [],
      "name": "CannotDeployArkWithEmptyName",
      "type": "error"
    },
    {
      "inputs": [],
      "name": "CannotDeployArkWithoutConfigurationManager",
      "type": "error"
    },
    {
      "inputs": [],
      "name": "CannotDeployArkWithoutRaft",
      "type": "error"
    },
    {
      "inputs": [],
      "name": "CannotDeployArkWithoutToken",
      "type": "error"
    },
    {
      "inputs": [],
      "name": "CannotRemoveCommanderFromArkWithAssets",
      "type": "error"
    },
    {
      "inputs": [],
      "name": "CannotUseKeeperDataWhenNotRequired",
      "type": "error"
    },
    {
      "inputs": [],
      "name": "ConfigurationManagerZeroAddress",
      "type": "error"
    },
    {
      "inputs": [
        {
          "internalType": "address",
          "name": "caller",
          "type": "address"
        }
      ],
      "name": "DirectGrantIsDisabled",
      "type": "error"
    },
    {
      "inputs": [
        {
          "internalType": "address",
          "name": "caller",
          "type": "address"
        }
      ],
      "name": "DirectRevokeIsDisabled",
      "type": "error"
    },
    {
      "inputs": [],
      "name": "ERC4626AssetMismatch",
      "type": "error"
    },
    {
      "inputs": [
        {
          "internalType": "address",
          "name": "invalidAddress",
          "type": "address"
        }
      ],
      "name": "InvalidAccessManagerAddress",
      "type": "error"
    },
    {
      "inputs": [],
      "name": "InvalidBoardData",
      "type": "error"
    },
    {
      "inputs": [],
      "name": "InvalidDisembarkData",
      "type": "error"
    },
    {
      "inputs": [],
      "name": "InvalidVaultAddress",
      "type": "error"
    },
    {
      "inputs": [],
      "name": "KeeperDataRequired",
      "type": "error"
    },
    {
      "inputs": [],
      "name": "ReentrancyGuardReentrantCall",
      "type": "error"
    },
    {
      "inputs": [
        {
          "internalType": "address",
          "name": "token",
          "type": "address"
        }
      ],
      "name": "SafeERC20FailedOperation",
      "type": "error"
    },
    {
      "anonymous": false,
      "inputs": [
        {
          "indexed": true,
          "internalType": "address[]",
          "name": "rewardTokens",
          "type": "address[]"
        },
        {
          "indexed": true,
          "internalType": "uint256[]",
          "name": "rewardAmounts",
          "type": "uint256[]"
        }
      ],
      "name": "ArkHarvested",
      "type": "event"
    },
    {
      "anonymous": false,
      "inputs": [
        {
          "indexed": false,
          "internalType": "uint256",
          "name": "currentPrice",
          "type": "uint256"
        },
        {
          "indexed": false,
          "internalType": "uint256",
          "name": "timestamp",
          "type": "uint256"
        }
      ],
      "name": "ArkPoked",
      "type": "event"
    },
    {
      "anonymous": false,
      "inputs": [
        {
          "indexed": true,
          "internalType": "address[]",
          "name": "sweptTokens",
          "type": "address[]"
        },
        {
          "indexed": true,
          "internalType": "uint256[]",
          "name": "sweptAmounts",
          "type": "uint256[]"
        }
      ],
      "name": "ArkSwept",
      "type": "event"
    },
    {
      "anonymous": false,
      "inputs": [
        {
          "indexed": true,
          "internalType": "address",
          "name": "commander",
          "type": "address"
        },
        {
          "indexed": false,
          "internalType": "address",
          "name": "token",
          "type": "address"
        },
        {
          "indexed": false,
          "internalType": "uint256",
          "name": "amount",
          "type": "uint256"
        }
      ],
      "name": "Boarded",
      "type": "event"
    },
    {
      "anonymous": false,
      "inputs": [
        {
          "indexed": false,
          "internalType": "uint256",
          "name": "newCap",
          "type": "uint256"
        }
      ],
      "name": "DepositCapUpdated",
      "type": "event"
    },
    {
      "anonymous": false,
      "inputs": [
        {
          "indexed": true,
          "internalType": "address",
          "name": "commander",
          "type": "address"
        },
        {
          "indexed": false,
          "internalType": "address",
          "name": "token",
          "type": "address"
        },
        {
          "indexed": false,
          "internalType": "uint256",
          "name": "amount",
          "type": "uint256"
        }
      ],
      "name": "Disembarked",
      "type": "event"
    },
    {
      "anonymous": false,
      "inputs": [
        {
          "indexed": false,
          "internalType": "address",
          "name": "commander",
          "type": "address"
        }
      ],
      "name": "FleetCommanderRegistered",
      "type": "event"
    },
    {
      "anonymous": false,
      "inputs": [
        {
          "indexed": false,
          "internalType": "address",
          "name": "commander",
          "type": "address"
        }
      ],
      "name": "FleetCommanderUnregistered",
      "type": "event"
    },
    {
      "anonymous": false,
      "inputs": [
        {
          "indexed": false,
          "internalType": "Percentage",
          "name": "newMaxDepositPercentageOfTVL",
          "type": "uint256"
        }
      ],
      "name": "MaxDepositPercentageOfTVLUpdated",
      "type": "event"
    },
    {
      "anonymous": false,
      "inputs": [
        {
          "indexed": false,
          "internalType": "uint256",
          "name": "newMaxInflow",
          "type": "uint256"
        }
      ],
      "name": "MaxRebalanceInflowUpdated",
      "type": "event"
    },
    {
      "anonymous": false,
      "inputs": [
        {
          "indexed": false,
          "internalType": "uint256",
          "name": "newMaxOutflow",
          "type": "uint256"
        }
      ],
      "name": "MaxRebalanceOutflowUpdated",
      "type": "event"
    },
    {
      "anonymous": false,
      "inputs": [
        {
          "indexed": true,
          "internalType": "address",
          "name": "from",
          "type": "address"
        },
        {
          "indexed": true,
          "internalType": "address",
          "name": "to",
          "type": "address"
        },
        {
          "indexed": false,
          "internalType": "address",
          "name": "token",
          "type": "address"
        },
        {
          "indexed": false,
          "internalType": "uint256",
          "name": "amount",
          "type": "uint256"
        }
      ],
      "name": "Moved",
      "type": "event"
    },
    {
      "anonymous": false,
      "inputs": [
        {
          "indexed": false,
          "internalType": "address",
          "name": "newRaft",
          "type": "address"
        }
      ],
      "name": "RaftUpdated",
      "type": "event"
    },
    {
      "inputs": [],
      "name": "asset",
      "outputs": [
        {
          "internalType": "contract IERC20",
          "name": "",
          "type": "address"
        }
      ],
      "stateMutability": "view",
      "type": "function"
    },
    {
      "inputs": [
        {
          "internalType": "uint256",
          "name": "amount",
          "type": "uint256"
        },
        {
          "internalType": "bytes",
          "name": "boardData",
          "type": "bytes"
        }
      ],
      "name": "board",
      "outputs": [],
      "stateMutability": "nonpayable",
      "type": "function"
    },
    {
      "inputs": [],
      "name": "commander",
      "outputs": [
        {
          "internalType": "address",
          "name": "",
          "type": "address"
        }
      ],
      "stateMutability": "view",
      "type": "function"
    },
    {
      "inputs": [],
      "name": "config",
      "outputs": [
        {
          "internalType": "address",
          "name": "commander",
          "type": "address"
        },
        {
          "internalType": "address",
          "name": "raft",
          "type": "address"
        },
        {
          "internalType": "contract IERC20",
          "name": "asset",
          "type": "address"
        },
        {
          "internalType": "uint256",
          "name": "depositCap",
          "type": "uint256"
        },
        {
          "internalType": "uint256",
          "name": "maxRebalanceOutflow",
          "type": "uint256"
        },
        {
          "internalType": "uint256",
          "name": "maxRebalanceInflow",
          "type": "uint256"
        },
        {
          "internalType": "string",
          "name": "name",
          "type": "string"
        },
        {
          "internalType": "string",
          "name": "details",
          "type": "string"
        },
        {
          "internalType": "bool",
          "name": "requiresKeeperData",
          "type": "bool"
        },
        {
          "internalType": "Percentage",
          "name": "maxDepositPercentageOfTVL",
          "type": "uint256"
        }
      ],
      "stateMutability": "view",
      "type": "function"
    },
    {
      "inputs": [],
      "name": "configurationManager",
      "outputs": [
        {
          "internalType": "contract IConfigurationManager",
          "name": "",
          "type": "address"
        }
      ],
      "stateMutability": "view",
      "type": "function"
    },
    {
      "inputs": [],
      "name": "depositCap",
      "outputs": [
        {
          "internalType": "uint256",
          "name": "",
          "type": "uint256"
        }
      ],
      "stateMutability": "view",
      "type": "function"
    },
    {
      "inputs": [
        {
          "internalType": "uint256",
          "name": "amount",
          "type": "uint256"
        },
        {
          "internalType": "bytes",
          "name": "disembarkData",
          "type": "bytes"
        }
      ],
      "name": "disembark",
      "outputs": [],
      "stateMutability": "nonpayable",
      "type": "function"
    },
    {
      "inputs": [],
      "name": "fleetCommanderRewardsManagerFactory",
      "outputs": [
        {
          "internalType": "address",
          "name": "",
          "type": "address"
        }
      ],
      "stateMutability": "view",
      "type": "function"
    },
    {
      "inputs": [
        {
          "internalType": "enum ContractSpecificRoles",
          "name": "roleName",
          "type": "uint8"
        },
        {
          "internalType": "address",
          "name": "roleTargetContract",
          "type": "address"
        }
      ],
      "name": "generateRole",
      "outputs": [
        {
          "internalType": "bytes32",
          "name": "",
          "type": "bytes32"
        }
      ],
      "stateMutability": "pure",
      "type": "function"
    },
    {
      "inputs": [],
      "name": "getConfig",
      "outputs": [
        {
          "components": [
            {
              "internalType": "address",
              "name": "commander",
              "type": "address"
            },
            {
              "internalType": "address",
              "name": "raft",
              "type": "address"
            },
            {
              "internalType": "contract IERC20",
              "name": "asset",
              "type": "address"
            },
            {
              "internalType": "uint256",
              "name": "depositCap",
              "type": "uint256"
            },
            {
              "internalType": "uint256",
              "name": "maxRebalanceOutflow",
              "type": "uint256"
            },
            {
              "internalType": "uint256",
              "name": "maxRebalanceInflow",
              "type": "uint256"
            },
            {
              "internalType": "string",
              "name": "name",
              "type": "string"
            },
            {
              "internalType": "string",
              "name": "details",
              "type": "string"
            },
            {
              "internalType": "bool",
              "name": "requiresKeeperData",
              "type": "bool"
            },
            {
              "internalType": "Percentage",
              "name": "maxDepositPercentageOfTVL",
              "type": "uint256"
            }
          ],
          "internalType": "struct ArkConfig",
          "name": "",
          "type": "tuple"
        }
      ],
      "stateMutability": "view",
      "type": "function"
    },
    {
      "inputs": [],
      "name": "harborCommand",
      "outputs": [
        {
          "internalType": "address",
          "name": "",
          "type": "address"
        }
      ],
      "stateMutability": "view",
      "type": "function"
    },
    {
      "inputs": [
        {
          "internalType": "bytes",
          "name": "additionalData",
          "type": "bytes"
        }
      ],
      "name": "harvest",
      "outputs": [
        {
          "internalType": "address[]",
          "name": "rewardTokens",
          "type": "address[]"
        },
        {
          "internalType": "uint256[]",
          "name": "rewardAmounts",
          "type": "uint256[]"
        }
      ],
      "stateMutability": "nonpayable",
      "type": "function"
    },
    {
      "inputs": [],
      "name": "maxDepositPercentageOfTVL",
      "outputs": [
        {
          "internalType": "Percentage",
          "name": "",
          "type": "uint256"
        }
      ],
      "stateMutability": "view",
      "type": "function"
    },
    {
      "inputs": [],
      "name": "maxRebalanceInflow",
      "outputs": [
        {
          "internalType": "uint256",
          "name": "",
          "type": "uint256"
        }
      ],
      "stateMutability": "view",
      "type": "function"
    },
    {
      "inputs": [],
      "name": "maxRebalanceOutflow",
      "outputs": [
        {
          "internalType": "uint256",
          "name": "",
          "type": "uint256"
        }
      ],
      "stateMutability": "view",
      "type": "function"
    },
    {
      "inputs": [
        {
          "internalType": "uint256",
          "name": "amount",
          "type": "uint256"
        },
        {
          "internalType": "address",
          "name": "receiverArk",
          "type": "address"
        },
        {
          "internalType": "bytes",
          "name": "boardData",
          "type": "bytes"
        },
        {
          "internalType": "bytes",
          "name": "disembarkData",
          "type": "bytes"
        }
      ],
      "name": "move",
      "outputs": [],
      "stateMutability": "nonpayable",
      "type": "function"
    },
    {
      "inputs": [],
      "name": "name",
      "outputs": [
        {
          "internalType": "string",
          "name": "",
          "type": "string"
        }
      ],
      "stateMutability": "view",
      "type": "function"
    },
    {
      "inputs": [],
      "name": "raft",
      "outputs": [
        {
          "internalType": "address",
          "name": "",
          "type": "address"
        }
      ],
      "stateMutability": "view",
      "type": "function"
    },
    {
      "inputs": [],
      "name": "registerFleetCommander",
      "outputs": [],
      "stateMutability": "nonpayable",
      "type": "function"
    },
    {
      "inputs": [],
      "name": "requiresKeeperData",
      "outputs": [
        {
          "internalType": "bool",
          "name": "",
          "type": "bool"
        }
      ],
      "stateMutability": "view",
      "type": "function"
    },
    {
      "inputs": [
        {
          "internalType": "uint256",
          "name": "newDepositCap",
          "type": "uint256"
        }
      ],
      "name": "setDepositCap",
      "outputs": [],
      "stateMutability": "nonpayable",
      "type": "function"
    },
    {
      "inputs": [
        {
          "internalType": "Percentage",
          "name": "newMaxDepositPercentageOfTVL",
          "type": "uint256"
        }
      ],
      "name": "setMaxDepositPercentageOfTVL",
      "outputs": [],
      "stateMutability": "nonpayable",
      "type": "function"
    },
    {
      "inputs": [
        {
          "internalType": "uint256",
          "name": "newMaxRebalanceInflow",
          "type": "uint256"
        }
      ],
      "name": "setMaxRebalanceInflow",
      "outputs": [],
      "stateMutability": "nonpayable",
      "type": "function"
    },
    {
      "inputs": [
        {
          "internalType": "uint256",
          "name": "newMaxRebalanceOutflow",
          "type": "uint256"
        }
      ],
      "name": "setMaxRebalanceOutflow",
      "outputs": [],
      "stateMutability": "nonpayable",
      "type": "function"
    },
    {
      "inputs": [
        {
          "internalType": "address[]",
          "name": "tokens",
          "type": "address[]"
        }
      ],
      "name": "sweep",
      "outputs": [
        {
          "internalType": "address[]",
          "name": "sweptTokens",
          "type": "address[]"
        },
        {
          "internalType": "uint256[]",
          "name": "sweptAmounts",
          "type": "uint256[]"
        }
      ],
      "stateMutability": "nonpayable",
      "type": "function"
    },
    {
      "inputs": [],
      "name": "tipJar",
      "outputs": [
        {
          "internalType": "address",
          "name": "",
          "type": "address"
        }
      ],
      "stateMutability": "view",
      "type": "function"
    },
    {
      "inputs": [],
      "name": "totalAssets",
      "outputs": [
        {
          "internalType": "uint256",
          "name": "",
          "type": "uint256"
        }
      ],
      "stateMutability": "view",
      "type": "function"
    },
    {
      "inputs": [],
      "name": "treasury",
      "outputs": [
        {
          "internalType": "address",
          "name": "",
          "type": "address"
        }
      ],
      "stateMutability": "view",
      "type": "function"
    },
    {
      "inputs": [],
      "name": "unregisterFleetCommander",
      "outputs": [],
      "stateMutability": "nonpayable",
      "type": "function"
    },
    {
      "inputs": [],
      "name": "vault",
      "outputs": [
        {
          "internalType": "contract IERC4626",
          "name": "",
          "type": "address"
        }
      ],
      "stateMutability": "view",
      "type": "function"
    }
  ],
  "bytecode": "0x60c080604052346104745761283e803803809161001c8285610797565b833981019060408183031261047457610034816107ba565b602082015190916001600160401b03821161047457016101408184031261047457604051926100628461077b565b81516001600160401b038111610474578161007e9184016107ce565b84526020820151906001600160401b0382116104745761009f9183016107ce565b90602084019182526100b3604082016107ba565b918260408601526100c6606083016107ba565b9460608101938685526100db608085016107ba565b946080830195865260a08501519560a0840196875260c08601519160c0850192835260e08701519360e0860194855261012061011a6101008a01610823565b610100880190815298015161012087019081529a6001600160a01b0390811691168015610768576040516301ffc9a760e01b8152639bd1803160e01b6004820152602081602481855afa908115610480575f9161072e575b501561071c575f80546001600160a01b031916919091179055801561070d57608052516001600160a01b0316156106fe5780516001600160a01b0316156106ef57835151156106e0576001600160a01b036101cb610830565b16156106d157516001600160a01b03166101e3610830565b9651915192519351945195511515985196610120604051916102048361077b565b5f83526001600160a01b03166020830181905260408301849052606083018590526080830186905260a0830187905260c0830188905260e0830198895261010083019b8c529101978852600180546001600160a01b03199081169091556002805482169092179091556003805490911690911790556004556005556006558051906001600160401b0382116105d45760075490600182811c921680156106c7575b60208310146105b65781601f849311610659575b50602090601f83116001146105f3575f926105e8575b50508160011b915f199060031b1c1916176007555b5180519093906001600160401b0381116105d457600854600181811c911680156105ca575b60208210146105b657601f8111610553575b50602094601f82116001146104f0579481929394955f926104e5575b50508160011b915f199060031b1c1916176008555b51151560ff80196009541691161760095551600a5560018060a01b031680156104d65760a08190526040516338d52e0f60e01b815290602082600481845afa918215610480575f9261049a575b506003546001600160a01b03908116921682900361048b575f916044602092604051948593849263095ea7b360e01b84526004840152811960248401525af1801561048057610443575b604051611fa0908161089e82396080518181816101d60152818161047e015281816109fe0152818161123f015281816112ea0152611c1b015260a05181818161017d015281816106ca015281816114cd015281816116e801526118120152f35b6020813d602011610478575b8161045c60209383610797565b810103126104745761046d90610823565b505f6103e3565b5f80fd5b3d915061044f565b6040513d5f823e3d90fd5b632df548ff60e11b5f5260045ffd5b9091506020813d6020116104ce575b816104b660209383610797565b81010312610474576104c7906107ba565b905f610399565b3d91506104a9565b630306120160e01b5f5260045ffd5b015190505f80610337565b601f1982169560085f52805f20915f5b88811061053b57508360019596979810610523575b505050811b0160085561034c565b01515f1960f88460031b161c191690555f8080610515565b91926020600181928685015181550194019201610500565b60085f527ff3f7a9fe364faab93b216da50a3214154f22a0a2b415b23a84c8169e8b636ee3601f830160051c810191602084106105ac575b601f0160051c01905b8181106105a1575061031b565b5f8155600101610594565b909150819061058b565b634e487b7160e01b5f52602260045260245ffd5b90607f1690610309565b634e487b7160e01b5f52604160045260245ffd5b015190505f806102cf565b60075f9081528281209350601f198516905b8181106106415750908460019594939210610629575b505050811b016007556102e4565b01515f1960f88460031b161c191690555f808061061b565b92936020600181928786015181550195019301610605565b60075f529091507fa66cc928b5edb82af9bd49922954155ab7b0942694bea4ce44661d9a8736c688601f840160051c810191602085106106bd575b90601f859493920160051c01905b8181106106af57506102b9565b5f81558493506001016106a2565b9091508190610694565b91607f16916102a5565b633a4f9cdb60e21b5f5260045ffd5b63268c072960e01b5f5260045ffd5b637ff57ef160e11b5f5260045ffd5b63b53c493160e01b5f5260045ffd5b63f1634df960e01b5f5260045ffd5b6347bd7c1d60e01b5f5260045260245ffd5b90506020813d602011610760575b8161074960209383610797565b810103126104745761075a90610823565b5f610172565b3d915061073c565b6347bd7c1d60e01b5f525f60045260245ffd5b61014081019081106001600160401b038211176105d457604052565b601f909101601f19168101906001600160401b038211908210176105d457604052565b51906001600160a01b038216820361047457565b81601f82011215610474578051906001600160401b0382116105d45760405192610802601f8401601f191660200185610797565b8284526020838301011161047457815f9260208093018386015e8301015290565b5190811515820361047457565b608051604051628bec5760e51b815290602090829060049082906001600160a01b03165afa908115610480575f91610866575090565b90506020813d602011610895575b8161088160209383610797565b8101031261047457610892906107ba565b90565b3d915061087456fe6080806040526004361015610012575f80fd5b5f905f3560e01c90816301e1d114146117f05750806306fdde03146117c1578063117d8ae01461179557806313c408f8146116925780632db6d39914611416578063303dbaf3146113f45780633194549e146113d757806337270936146113af57806338d52e0f146113875780634fc7fac3146113355780635b0f83f3146112c557806361d027b31461121a57806361f5cd8b146111b557806369b3054b1461114e578063780469bb14610afc57806379502c5514610a495780637aaceb95146109d757806386651203146109835780638a8b99761461092757806392f5e832146108c0578063ad5a356f146108a2578063bdcdd88214610884578063c38a6f0b14610627578063c3f909d4146104ad578063c9c667e314610468578063ce5c7f61146102f9578063dbd5edc7146102db578063ebf311311461026b578063f7e533ec146101af5763fbfa77cf14610168575f80fd5b346101ac57806003193601126101ac576040517f00000000000000000000000000000000000000000000000000000000000000006001600160a01b03168152602090f35b80fd5b50346101ac57806003193601126101ac57604051633df94cfb60e21b8152906020826004817f00000000000000000000000000000000000000000000000000000000000000006001600160a01b03165afa90811561025f578091610222575b6040516001600160a01b0383168152602090f35b90506020823d602011610257575b8161023d602093836119a3565b810103126101ac5750610251602091611bf3565b5f61020e565b3d9150610230565b604051903d90823e3d90fd5b50346101ac57806003193601126101ac57610284611da4565b156102c857600180546001600160a01b03191690556040513381527f7cb941d7b1708e5b3bcd35ca960d6c6311188cec18886e5b67630552676b048790602090a180f35b631564c0e160e11b815233600452602490fd5b50346101ac57806003193601126101ac576020600454604051908152f35b50346101ac5760203660031901126101ac576004356001600160401b0381116104515761032a903690600401611911565b5050604051628bec5760e51b8152602081600481305afa90811561045d57829161041f575b506001600160a01b0316330361040c57610367611e37565b604090610408825161037984826119a3565b60018152601f198401908136602083013784519161039786846119a3565b60018352366020840137836103ab82611cf2565b52836103b683611cf2565b526103c081611d27565b936103ca83611d6a565b95519586957f3e3e7958121b3e39c7a49392d1aa9cdce870c2a059744f9e15cf66fff78654558380a35f516020611f4b5f395f51905f525d836119db565b0390f35b631184b31b60e21b815233600452602490fd5b90506020813d602011610455575b8161043a602093836119a3565b810103126104515761044b90611bf3565b5f61034f565b5080fd5b3d915061042d565b6040513d84823e3d90fd5b50346101ac57806003193601126101ac576040517f00000000000000000000000000000000000000000000000000000000000000006001600160a01b03168152602090f35b50346101ac57806003193601126101ac576101206040516104cd81611987565b8281528260208201528260408201528260608201528260808201528260a0820152606060c0820152606060e082015282610100820152015260405161051181611987565b6001546001600160a01b03908116825260025481166020830190815260035490911660408301908152600454606084019081526005546080850190815260065460a0860190815293949391929161061291906105fe9061056f611a56565b9060c0880191825261057f611b38565b60e089810191825260095460ff1615156101008b01908152600a546101208c019081526040805160208082529d516001600160a01b039081169e82019e909e529d518d16908e01529851909a1660608c0152975160808b0152935160a08a01525160c089015251610140958801959095528695946101608701906118ed565b9051858203601f19016101008701526118ed565b91511515610120840152516101408301520390f35b50346101ac5760803660031901126101ac57600435610644611971565b906044356001600160401b03811161088057610664903690600401611911565b90926064356001600160401b03811161087c57610685903690600401611911565b9061068e611da4565b1561086957869392916106a091611e6c565b604051632d182be560e21b81526004810185905230602482018190526044820152602081606481877f00000000000000000000000000000000000000000000000000000000000000006001600160a01b03165af1801561082f5761083a575b5060035460405163095ea7b360e01b81529060209082906001600160a01b03168187816107308b8960048401611c8d565b03925af1801561082f57610802575b506001600160a01b031693843b156107fe5781606484926040519485938492632db6d39960e01b845289600485015260406024850152816044850152848401378181018301859052601f01601f1916810103018183885af1801561045d576107e9575b505060035460405130927f9f784fc02a186f1c98b2d9f15fda084da27cdd291a3785d978f91911d880516b9282916107e3916001600160a01b031683611c8d565b0390a380f35b816107f3916119a3565b6107fe57825f6107a2565b8280fd5b6108239060203d602011610828575b61081b81836119a3565b810190611ca8565b61073f565b503d610811565b6040513d86823e3d90fd5b61085b9060203d602011610862575b61085381836119a3565b810190611be4565b505f6106ff565b503d610849565b631564c0e160e11b875233600452602487fd5b8580fd5b8380fd5b50346101ac57806003193601126101ac576020600a54604051908152f35b50346101ac57806003193601126101ac576020600654604051908152f35b50346101ac5760203660031901126101ac576004356108dd611da4565b15610914576020817fb6ac66853c4e59c71e118d25ab494bb847c4e5eb0c8894898c5343e6f61afc1292600655604051908152a180f35b631564c0e160e11b825233600452602482fd5b50346101ac57806003193601126101ac57610940611da4565b156102c8573360018060a01b031960015416176001557f55489ce0259bd691120d8860861be1c401c7c16a3cd268d21045756af4ecc5ca6020604051338152a180f35b50346101ac5760203660031901126101ac576004356109a0611da4565b15610914576020817f333b26cca69716ad4680ddb07663f5bfb4f06045671f336af9a83690a3ae00f992600455604051908152a180f35b50346101ac57806003193601126101ac57604051637aaceb9560e01b8152906020826004817f00000000000000000000000000000000000000000000000000000000000000006001600160a01b03165afa90811561025f578091610222576040516001600160a01b0383168152602090f35b50346101ac57806003193601126101ac576001546002546003546004546005546006546001600160a01b0394851695851694929390921691610ae99190610adb90610a92611a56565b90610a9b611b38565b9360ff6009541697600a54976040519b8c9b8c5260208c015260408b015260608a0152608089015260a088015261014060c08801526101408701906118ed565b9085820360e08701526118ed565b9115156101008401526101208301520390f35b5034610d1b576020366003190112610d1b576004356001600160401b038111610d1b5736602382011215610d1b578060040135610b38816119c4565b91610b4660405193846119a3565b8183526024602084019260051b82010190368211610d1b57602401915b81831061112e575050604051628bec5760e51b81529050602081600481305afa908115610f3a575f916110f4575b506001600160a01b031633036110e157610ba9611e37565b610bb38151611cc0565b90610bbe8151611cc0565b9160018060a01b03600354166040516370a0823160e01b8152306004820152602081602481855afa908115610f3a575f916110af575b50610dc9575b50835b8251811015610d705760249060206001600160a01b03610c1d8387611d13565b5116604051938480926370a0823160e01b82523060048301525afa918215610d65578692610d32575b5081610c57575b6001915001610bfd565b6001600160a01b03610c698286611d13565b5116916024610c76611c07565b9360206001600160a01b03610c8b868a611d13565b5116604051938480926370a0823160e01b82523060048301525afa918215610d27578992610cef575b5090600194610cc292611ebd565b828060a01b03610cd28387611d13565b5116610cde8386611d13565b52610ce98287611d13565b52610c4d565b91506020823d8211610d1f575b81610d09602093836119a3565b81010312610d1b579051906001610cb4565b5f80fd5b3d9150610cfc565b6040513d8b823e3d90fd5b9091506020813d8211610d5d575b81610d4d602093836119a3565b81010312610d1b5751905f610c46565b3d9150610d40565b6040513d88823e3d90fd5b848261040886610d7f83611d27565b92610d8982611d6a565b946040519586957f46b8771620f6acf56cb03d3e835ea8024c7dcbcf05fcc3f6ade9e19d1a3e212b8380a35f516020611f4b5f395f51905f525d836119db565b6001546040516330fe427560e21b81529060a090829060049082906001600160a01b03165afa908115610f3a575f9161101d575b50516040516370a0823160e01b81523060048201526001600160a01b039091169190602081602481855afa908115610f3a575f91610feb575b5060205f60405192610e6b84610e5d8582019363095ea7b360e01b85528960248401611c8d565b03601f1981018652856119a3565b83519082865af15f513d82610fcf575b505015610f8b575b50506003546040516370a0823160e01b815230600482015290602090829060249082906001600160a01b03165afa908115610f3a575f91610f59575b50604051602081018181106001600160401b03821117610f45576040525f8152823b15610d1b57610f16925f9283604051809681958294632db6d39960e01b845260048401526040602484015260448301906118ed565b03925af18015610f3a5715610bfa57610f329194505f906119a3565b5f925f610bfa565b6040513d5f823e3d90fd5b634e487b7160e01b5f52604160045260245ffd5b90506020813d602011610f83575b81610f74602093836119a3565b81010312610d1b57515f610ebf565b3d9150610f67565b610fc891610fc360405163095ea7b360e01b60208201528560248201525f604482015260448152610fbd6064826119a3565b82611ef2565b611ef2565b5f80610e83565b909150610fe35750813b15155b5f80610e7b565b600114610fdc565b90506020813d602011611015575b81611006602093836119a3565b81010312610d1b57515f610e36565b3d9150610ff9565b905060a0813d60a0116110a7575b8161103860a093836119a3565b81010312610d1b576040519060a082018281106001600160401b03821117610f455760405280516001600160a01b0381168103610d1b5761109c91608091845260208101516020850152604081015160408501526060810151606085015201611bf3565b60808201525f610dfd565b3d915061102b565b90506020813d6020116110d9575b816110ca602093836119a3565b81010312610d1b57515f610bf4565b3d91506110bd565b631184b31b60e21b5f523360045260245ffd5b90506020813d602011611126575b8161110f602093836119a3565b81010312610d1b5761112090611bf3565b5f610b91565b3d9150611102565b82356001600160a01b0381168103610d1b57815260209283019201610b63565b34610d1b576040366003190112610d1b576004356003811015610d1b57602090611176611971565b604051908382019260f81b83526bffffffffffffffffffffffff199060601b166021820152601581526111aa6035826119a3565b519020604051908152f35b34610d1b576020366003190112610d1b576004356111d1611da4565b15611207576020817ffbe2d5c01ea8ba5596d6c4e6c82c6d4a0a0ee1128689993a4a5ba0169273d69f92600555604051908152a1005b631564c0e160e11b5f523360045260245ffd5b34610d1b575f366003190112610d1b576040516361d027b360e01b81526020816004817f00000000000000000000000000000000000000000000000000000000000000006001600160a01b03165afa8015610f3a575f9061128b575b6040516001600160a01b039091168152602090f35b506020813d6020116112bd575b816112a5602093836119a3565b81010312610d1b576112b8602091611bf3565b611276565b3d9150611298565b34610d1b575f366003190112610d1b57604051635b0f83f360e01b81526020816004817f00000000000000000000000000000000000000000000000000000000000000006001600160a01b03165afa8015610f3a575f9061128b576040516001600160a01b039091168152602090f35b34610d1b576020366003190112610d1b57600435611351611da4565b15611207576020817fd3c6d0ab315f2f1352f036cd9f401b49e38e1b90907e195225e8105f9a0b6f0292600a55604051908152a1005b34610d1b575f366003190112610d1b576003546040516001600160a01b039091168152602090f35b34610d1b575f366003190112610d1b576001546040516001600160a01b039091168152602090f35b34610d1b575f366003190112610d1b576020600554604051908152f35b34610d1b575f366003190112610d1b57602060ff600954166040519015158152f35b34610d1b576114243661193e565b61142c611e37565b604051631b93849b60e11b8152602081600481305afa908115610f3a575f91611658575b50611459611da4565b15611576575b5061146991611e6c565b6003546040516323b872dd60e01b6020820152336024820152306044820152606480820184905281526114aa916001600160a01b0316610fc36084836119a3565b604051636e553f6560e01b8152600481018290523060248201526020816044815f7f00000000000000000000000000000000000000000000000000000000000000006001600160a01b03165af18015610f3a57611557575b5060035460405133927fcbaa1442ac205415c9d69643e7b60ec73d1de35dbc807c21ec288c70ddc4207b928291611542916001600160a01b031683611c8d565b0390a25f5f516020611f4b5f395f51905f525d005b61156f9060203d6020116108625761085381836119a3565b5081611502565b604051628bec5760e51b8152602081600481305afa908115610f3a575f9161161e575b506001600160a01b0316331461145f5760405163d25dd10160e01b815233600482015290602090829060249082906001600160a01b03165afa908115610f3a575f916115ff575b50156115ec578361145f565b638f7a567d60e01b5f523360045260245ffd5b611618915060203d6020116108285761081b81836119a3565b846115e0565b90506020813d602011611650575b81611639602093836119a3565b81010312610d1b5761164a90611bf3565b85611599565b3d915061162c565b90506020813d60201161168a575b81611673602093836119a3565b81010312610d1b5761168490611bf3565b84611450565b3d9150611666565b34610d1b576116a03661193e565b6116a8611da4565b15611207576116be916116b9611e37565b611e6c565b604051632d182be560e21b815260048101829052306024820181905260448201526020816064815f7f00000000000000000000000000000000000000000000000000000000000000006001600160a01b03165af18015610f3a57611776575b5060035461173790829033906001600160a01b0316611ebd565b60035460405133927fd5e872c5ecfb1bb8820b2e6a20e31b883682282da886621541f71e31ec11947e928291611542916001600160a01b031683611c8d565b61178e9060203d6020116108625761085381836119a3565b508161171d565b34610d1b575f366003190112610d1b5760206117af611c07565b6040516001600160a01b039091168152f35b34610d1b575f366003190112610d1b576104086117dc611a56565b6040519182916020835260208301906118ed565b34610d1b575f366003190112610d1b576370a0823160e01b81523060048201527f00000000000000000000000000000000000000000000000000000000000000006001600160a01b031690602081602481855afa8015610f3a575f906118ba575b602091506024604051809481936303d1689d60e11b835260048301525afa8015610f3a575f90611887575b602090604051908152f35b506020813d6020116118b2575b816118a1602093836119a3565b81010312610d1b576020905161187c565b3d9150611894565b506020813d6020116118e5575b816118d4602093836119a3565b81010312610d1b5760209051611851565b3d91506118c7565b805180835260209291819084018484015e5f828201840152601f01601f1916010190565b9181601f84011215610d1b578235916001600160401b038311610d1b5760208381860195010111610d1b57565b906040600319830112610d1b5760043591602435906001600160401b038211610d1b5761196d91600401611911565b9091565b602435906001600160a01b0382168203610d1b57565b61014081019081106001600160401b03821117610f4557604052565b90601f801991011681019081106001600160401b03821117610f4557604052565b6001600160401b038111610f455760051b60200190565b604081016040825282518091526020606083019301905f5b818110611a37575050506020818303910152602080835192838152019201905f5b818110611a215750505090565b8251845260209384019390920191600101611a14565b82516001600160a01b03168552602094850194909201916001016119f3565b604051905f6007548060011c9160018216918215611b2e575b602084108314611b1a578386528592908115611afb5750600114611a9c575b611a9a925003836119a3565b565b5060075f90815290917fa66cc928b5edb82af9bd49922954155ab7b0942694bea4ce44661d9a8736c6885b818310611adf575050906020611a9a92820101611a8e565b6020919350806001915483858901015201910190918492611ac7565b60209250611a9a94915060ff191682840152151560051b820101611a8e565b634e487b7160e01b5f52602260045260245ffd5b92607f1692611a6f565b604051905f6008548060011c9160018216918215611bda575b602084108314611b1a578386528592908115611afb5750600114611b7b57611a9a925003836119a3565b5060085f90815290917ff3f7a9fe364faab93b216da50a3214154f22a0a2b415b23a84c8169e8b636ee35b818310611bbe575050906020611a9a92820101611a8e565b6020919350806001915483858901015201910190918492611ba6565b92607f1692611b51565b90816020910312610d1b575190565b51906001600160a01b0382168203610d1b57565b604051628bec5760e51b81526020816004817f00000000000000000000000000000000000000000000000000000000000000006001600160a01b03165afa908115610f3a575f91611c56575090565b90506020813d602011611c85575b81611c71602093836119a3565b81010312610d1b57611c8290611bf3565b90565b3d9150611c64565b6001600160a01b039091168152602081019190915260400190565b90816020910312610d1b57518015158103610d1b5790565b90611cca826119c4565b611cd760405191826119a3565b8281528092611ce8601f19916119c4565b0190602036910137565b805115611cff5760200190565b634e487b7160e01b5f52603260045260245ffd5b8051821015611cff5760209160051b010190565b6040518091829160208251919201905f5b818110611d485750505003902090565b82516001600160a01b0316845285945060209384019390920191600101611d38565b6040518091829160208251919201905f5b818110611d8b5750505003902090565b8251845285945060209384019390920191600101611d7b565b5f54604051600160f91b60208083019182526bffffffffffffffffffffffff193060601b166021840152601583526001600160a01b039093169291611dea6035826119a3565b519020604460405180948193632474521560e21b835260048301523360248301525afa908115610f3a575f91611e1e575090565b611c82915060203d6020116108285761081b81836119a3565b5f516020611f4b5f395f51905f525c611e5d5760015f516020611f4b5f395f51905f525d565b633ee5aeb560e01b5f5260045ffd5b5015801580611eb0575b611ea15780611e95575b611e8657565b63332863a960e11b5f5260045ffd5b5060ff60095416611e80565b630cd0fdf960e01b5f5260045ffd5b5060ff6009541615611e76565b610fc3611a9a9392611ee460405194859263a9059cbb60e01b602085015260248401611c8d565b03601f1981018452836119a3565b905f602091828151910182855af115610f3a575f513d611f4157506001600160a01b0381163b155b611f215750565b635274afe760e01b5f9081526001600160a01b0391909116600452602490fd5b60011415611f1a56fe9b779b17422d0df92223018b32b4d1fa46e071723d6817e2486d003becc55f00a2646970667358221220343d29d82fcde7c344b2e49905906423e2093194cce8da798da42047c29ee30b64736f6c634300081c0033",
  "linkReferences": {},
  "deployedLinkReferences": {}
}