{
  "_format": "hh-sol-artifact-1",
  "contractName": "FleetCommander",
  "sourceName": "src/contracts/FleetCommander.sol",
  "abi": [
    {
      "inputs": [
        {
          "components": [
            {
              "internalType": "string",
              "name": "name",
              "type": "string"
            },
            {
              "internalType": "string",
              "name": "symbol",
              "type": "string"
            },
            {
              "internalType": "address",
              "name": "configurationManager",
              "type": "address"
            },
            {
              "internalType": "address",
              "name": "accessManager",
              "type": "address"
            },
            {
              "internalType": "address",
              "name": "asset",
              "type": "address"
            },
            {
              "internalType": "uint256",
              "name": "initialMinimumBufferBalance",
              "type": "uint256"
            },
            {
              "internalType": "uint256",
              "name": "initialRebalanceCooldown",
              "type": "uint256"
            },
            {
              "internalType": "uint256",
              "name": "depositCap",
              "type": "uint256"
            },
            {
              "internalType": "Percentage",
              "name": "initialTipRate",
              "type": "uint256"
            }
          ],
          "internalType": "struct FleetCommanderParams",
          "name": "params",
          "type": "tuple"
        }
      ],
      "stateMutability": "nonpayable",
      "type": "constructor"
    },
    {
      "inputs": [
        {
          "internalType": "address",
          "name": "caller",
          "type": "address"
        }
      ],
      "name": "CallerIsNotAdmin",
      "type": "error"
    },
    {
      "inputs": [
        {
          "internalType": "address",
          "name": "caller",
          "type": "address"
        }
      ],
      "name": "CallerIsNotAuthorizedToBoard",
      "type": "error"
    },
    {
      "inputs": [
        {
          "internalType": "address",
          "name": "caller",
          "type": "address"
        }
      ],
      "name": "CallerIsNotCommander",
      "type": "error"
    },
    {
      "inputs": [
        {
          "internalType": "address",
          "name": "caller",
          "type": "address"
        },
        {
          "internalType": "bytes32",
          "name": "role",
          "type": "bytes32"
        }
      ],
      "name": "CallerIsNotContractSpecificRole",
      "type": "error"
    },
    {
      "inputs": [
        {
          "internalType": "address",
          "name": "caller",
          "type": "address"
        }
      ],
      "name": "CallerIsNotCurator",
      "type": "error"
    },
    {
      "inputs": [
        {
          "internalType": "address",
          "name": "caller",
          "type": "address"
        }
      ],
      "name": "CallerIsNotGovernor",
      "type": "error"
    },
    {
      "inputs": [
        {
          "internalType": "address",
          "name": "caller",
          "type": "address"
        }
      ],
      "name": "CallerIsNotGuardian",
      "type": "error"
    },
    {
      "inputs": [
        {
          "internalType": "address",
          "name": "caller",
          "type": "address"
        }
      ],
      "name": "CallerIsNotGuardianOrGovernor",
      "type": "error"
    },
    {
      "inputs": [
        {
          "internalType": "address",
          "name": "caller",
          "type": "address"
        }
      ],
      "name": "CallerIsNotKeeper",
      "type": "error"
    },
    {
      "inputs": [
        {
          "internalType": "address",
          "name": "caller",
          "type": "address"
        }
      ],
      "name": "CallerIsNotRaft",
      "type": "error"
    },
    {
      "inputs": [
        {
          "internalType": "address",
          "name": "caller",
          "type": "address"
        }
      ],
      "name": "CallerIsNotRaftOrCommander",
      "type": "error"
    },
    {
      "inputs": [
        {
          "internalType": "address",
          "name": "caller",
          "type": "address"
        }
      ],
      "name": "CallerIsNotSuperKeeper",
      "type": "error"
    },
    {
      "inputs": [],
      "name": "ConfigurationManagerZeroAddress",
      "type": "error"
    },
    {
      "inputs": [
        {
          "internalType": "uint256",
          "name": "lastActionTimestamp",
          "type": "uint256"
        },
        {
          "internalType": "uint256",
          "name": "cooldown",
          "type": "uint256"
        },
        {
          "internalType": "uint256",
          "name": "currentTimestamp",
          "type": "uint256"
        }
      ],
      "name": "CooldownNotElapsed",
      "type": "error"
    },
    {
      "inputs": [
        {
          "internalType": "address",
          "name": "caller",
          "type": "address"
        }
      ],
      "name": "DirectGrantIsDisabled",
      "type": "error"
    },
    {
      "inputs": [
        {
          "internalType": "address",
          "name": "caller",
          "type": "address"
        }
      ],
      "name": "DirectRevokeIsDisabled",
      "type": "error"
    },
    {
      "inputs": [
        {
          "internalType": "address",
          "name": "spender",
          "type": "address"
        },
        {
          "internalType": "uint256",
          "name": "allowance",
          "type": "uint256"
        },
        {
          "internalType": "uint256",
          "name": "needed",
          "type": "uint256"
        }
      ],
      "name": "ERC20InsufficientAllowance",
      "type": "error"
    },
    {
      "inputs": [
        {
          "internalType": "address",
          "name": "sender",
          "type": "address"
        },
        {
          "internalType": "uint256",
          "name": "balance",
          "type": "uint256"
        },
        {
          "internalType": "uint256",
          "name": "needed",
          "type": "uint256"
        }
      ],
      "name": "ERC20InsufficientBalance",
      "type": "error"
    },
    {
      "inputs": [
        {
          "internalType": "address",
          "name": "approver",
          "type": "address"
        }
      ],
      "name": "ERC20InvalidApprover",
      "type": "error"
    },
    {
      "inputs": [
        {
          "internalType": "address",
          "name": "receiver",
          "type": "address"
        }
      ],
      "name": "ERC20InvalidReceiver",
      "type": "error"
    },
    {
      "inputs": [
        {
          "internalType": "address",
          "name": "sender",
          "type": "address"
        }
      ],
      "name": "ERC20InvalidSender",
      "type": "error"
    },
    {
      "inputs": [
        {
          "internalType": "address",
          "name": "spender",
          "type": "address"
        }
      ],
      "name": "ERC20InvalidSpender",
      "type": "error"
    },
    {
      "inputs": [
        {
          "internalType": "address",
          "name": "receiver",
          "type": "address"
        },
        {
          "internalType": "uint256",
          "name": "assets",
          "type": "uint256"
        },
        {
          "internalType": "uint256",
          "name": "max",
          "type": "uint256"
        }
      ],
      "name": "ERC4626ExceededMaxDeposit",
      "type": "error"
    },
    {
      "inputs": [
        {
          "internalType": "address",
          "name": "receiver",
          "type": "address"
        },
        {
          "internalType": "uint256",
          "name": "shares",
          "type": "uint256"
        },
        {
          "internalType": "uint256",
          "name": "max",
          "type": "uint256"
        }
      ],
      "name": "ERC4626ExceededMaxMint",
      "type": "error"
    },
    {
      "inputs": [
        {
          "internalType": "address",
          "name": "owner",
          "type": "address"
        },
        {
          "internalType": "uint256",
          "name": "shares",
          "type": "uint256"
        },
        {
          "internalType": "uint256",
          "name": "max",
          "type": "uint256"
        }
      ],
      "name": "ERC4626ExceededMaxRedeem",
      "type": "error"
    },
    {
      "inputs": [
        {
          "internalType": "address",
          "name": "owner",
          "type": "address"
        },
        {
          "internalType": "uint256",
          "name": "assets",
          "type": "uint256"
        },
        {
          "internalType": "uint256",
          "name": "max",
          "type": "uint256"
        }
      ],
      "name": "ERC4626ExceededMaxWithdraw",
      "type": "error"
    },
    {
      "inputs": [],
      "name": "EnforcedPause",
      "type": "error"
    },
    {
      "inputs": [],
      "name": "ExpectedPause",
      "type": "error"
    },
    {
      "inputs": [
        {
          "internalType": "address",
          "name": "ark",
          "type": "address"
        }
      ],
      "name": "FleetCommanderArkAlreadyExists",
      "type": "error"
    },
    {
      "inputs": [],
      "name": "FleetCommanderArkAlreadyHasCommander",
      "type": "error"
    },
    {
      "inputs": [
        {
          "internalType": "address",
          "name": "ark",
          "type": "address"
        }
      ],
      "name": "FleetCommanderArkAssetsNotZero",
      "type": "error"
    },
    {
      "inputs": [
        {
          "internalType": "address",
          "name": "ark",
          "type": "address"
        }
      ],
      "name": "FleetCommanderArkDepositCapGreaterThanZero",
      "type": "error"
    },
    {
      "inputs": [
        {
          "internalType": "address",
          "name": "ark",
          "type": "address"
        }
      ],
      "name": "FleetCommanderArkDepositCapZero",
      "type": "error"
    },
    {
      "inputs": [
        {
          "internalType": "address",
          "name": "ark",
          "type": "address"
        }
      ],
      "name": "FleetCommanderArkNotActive",
      "type": "error"
    },
    {
      "inputs": [
        {
          "internalType": "address",
          "name": "ark",
          "type": "address"
        }
      ],
      "name": "FleetCommanderArkNotFound",
      "type": "error"
    },
    {
      "inputs": [
        {
          "internalType": "address",
          "name": "ark",
          "type": "address"
        }
      ],
      "name": "FleetCommanderCantRebalanceToArk",
      "type": "error"
    },
    {
      "inputs": [],
      "name": "FleetCommanderCantUseMaxUintForBufferAdjustement",
      "type": "error"
    },
    {
      "inputs": [],
      "name": "FleetCommanderCantUseRebalanceOnBufferArk",
      "type": "error"
    },
    {
      "inputs": [
        {
          "internalType": "address",
          "name": "fromArk",
          "type": "address"
        },
        {
          "internalType": "uint256",
          "name": "amount",
          "type": "uint256"
        },
        {
          "internalType": "uint256",
          "name": "maxRebalanceInflow",
          "type": "uint256"
        }
      ],
      "name": "FleetCommanderExceedsMaxInflow",
      "type": "error"
    },
    {
      "inputs": [
        {
          "internalType": "address",
          "name": "fromArk",
          "type": "address"
        },
        {
          "internalType": "uint256",
          "name": "amount",
          "type": "uint256"
        },
        {
          "internalType": "uint256",
          "name": "maxRebalanceOutflow",
          "type": "uint256"
        }
      ],
      "name": "FleetCommanderExceedsMaxOutflow",
      "type": "error"
    },
    {
      "inputs": [],
      "name": "FleetCommanderInsufficientBuffer",
      "type": "error"
    },
    {
      "inputs": [],
      "name": "FleetCommanderInvalidArkAddress",
      "type": "error"
    },
    {
      "inputs": [],
      "name": "FleetCommanderInvalidBufferAdjustment",
      "type": "error"
    },
    {
      "inputs": [
        {
          "internalType": "address",
          "name": "ark",
          "type": "address"
        }
      ],
      "name": "FleetCommanderInvalidSourceArk",
      "type": "error"
    },
    {
      "inputs": [],
      "name": "FleetCommanderMovedMoreThanAvailable",
      "type": "error"
    },
    {
      "inputs": [],
      "name": "FleetCommanderNoExcessFunds",
      "type": "error"
    },
    {
      "inputs": [],
      "name": "FleetCommanderNoFundsMoved",
      "type": "error"
    },
    {
      "inputs": [],
      "name": "FleetCommanderPausableMinimumPauseTimeNotElapsed",
      "type": "error"
    },
    {
      "inputs": [
        {
          "internalType": "address",
          "name": "ark",
          "type": "address"
        }
      ],
      "name": "FleetCommanderRebalanceAmountZero",
      "type": "error"
    },
    {
      "inputs": [],
      "name": "FleetCommanderRebalanceNoOperations",
      "type": "error"
    },
    {
      "inputs": [
        {
          "internalType": "uint256",
          "name": "operationsCount",
          "type": "uint256"
        }
      ],
      "name": "FleetCommanderRebalanceTooManyOperations",
      "type": "error"
    },
    {
      "inputs": [],
      "name": "FleetCommanderTransfersDisabled",
      "type": "error"
    },
    {
      "inputs": [
        {
          "internalType": "address",
          "name": "caller",
          "type": "address"
        },
        {
          "internalType": "address",
          "name": "owner",
          "type": "address"
        }
      ],
      "name": "FleetCommanderUnauthorizedRedemption",
      "type": "error"
    },
    {
      "inputs": [
        {
          "internalType": "address",
          "name": "caller",
          "type": "address"
        },
        {
          "internalType": "address",
          "name": "owner",
          "type": "address"
        }
      ],
      "name": "FleetCommanderUnauthorizedWithdrawal",
      "type": "error"
    },
    {
      "inputs": [
        {
          "internalType": "address",
          "name": "invalidAddress",
          "type": "address"
        }
      ],
      "name": "InvalidAccessManagerAddress",
      "type": "error"
    },
    {
      "inputs": [],
      "name": "InvalidFleetCommanderAddress",
      "type": "error"
    },
    {
      "inputs": [],
      "name": "InvalidTipJarAddress",
      "type": "error"
    },
    {
      "inputs": [
        {
          "internalType": "address",
          "name": "token",
          "type": "address"
        }
      ],
      "name": "SafeERC20FailedOperation",
      "type": "error"
    },
    {
      "inputs": [],
      "name": "TipRateCannotExceedOneHundredPercent",
      "type": "error"
    },
    {
      "inputs": [],
      "name": "WithdrawalAmountExceedsMaxBufferLimit",
      "type": "error"
    },
    {
      "anonymous": false,
      "inputs": [
        {
          "indexed": true,
          "internalType": "address",
          "name": "owner",
          "type": "address"
        },
        {
          "indexed": true,
          "internalType": "address",
          "name": "spender",
          "type": "address"
        },
        {
          "indexed": false,
          "internalType": "uint256",
          "name": "value",
          "type": "uint256"
        }
      ],
      "name": "Approval",
      "type": "event"
    },
    {
      "anonymous": false,
      "inputs": [
        {
          "indexed": true,
          "internalType": "address",
          "name": "ark",
          "type": "address"
        }
      ],
      "name": "ArkAdded",
      "type": "event"
    },
    {
      "anonymous": false,
      "inputs": [
        {
          "indexed": true,
          "internalType": "address",
          "name": "ark",
          "type": "address"
        }
      ],
      "name": "ArkRemoved",
      "type": "event"
    },
    {
      "anonymous": false,
      "inputs": [
        {
          "indexed": false,
          "internalType": "uint256",
          "name": "previousCooldown",
          "type": "uint256"
        },
        {
          "indexed": false,
          "internalType": "uint256",
          "name": "newCooldown",
          "type": "uint256"
        }
      ],
      "name": "CooldownUpdated",
      "type": "event"
    },
    {
      "anonymous": false,
      "inputs": [
        {
          "indexed": true,
          "internalType": "address",
          "name": "sender",
          "type": "address"
        },
        {
          "indexed": true,
          "internalType": "address",
          "name": "owner",
          "type": "address"
        },
        {
          "indexed": false,
          "internalType": "uint256",
          "name": "assets",
          "type": "uint256"
        },
        {
          "indexed": false,
          "internalType": "uint256",
          "name": "shares",
          "type": "uint256"
        }
      ],
      "name": "Deposit",
      "type": "event"
    },
    {
      "anonymous": false,
      "inputs": [
        {
          "indexed": false,
          "internalType": "address",
          "name": "newAddress",
          "type": "address"
        }
      ],
      "name": "FeeAddressUpdated",
      "type": "event"
    },
    {
      "anonymous": false,
      "inputs": [
        {
          "indexed": true,
          "internalType": "address",
          "name": "keeper",
          "type": "address"
        },
        {
          "indexed": false,
          "internalType": "uint256",
          "name": "totalMoved",
          "type": "uint256"
        }
      ],
      "name": "FleetCommanderBufferAdjusted",
      "type": "event"
    },
    {
      "anonymous": false,
      "inputs": [
        {
          "indexed": false,
          "internalType": "uint256",
          "name": "newCap",
          "type": "uint256"
        }
      ],
      "name": "FleetCommanderDepositCapUpdated",
      "type": "event"
    },
    {
      "anonymous": false,
      "inputs": [
        {
          "indexed": false,
          "internalType": "uint256",
          "name": "newMaxRebalanceOperations",
          "type": "uint256"
        }
      ],
      "name": "FleetCommanderMaxRebalanceOperationsUpdated",
      "type": "event"
    },
    {
      "anonymous": false,
      "inputs": [
        {
          "indexed": true,
          "internalType": "address",
          "name": "owner",
          "type": "address"
        },
        {
          "indexed": false,
          "internalType": "address",
          "name": "receiver",
          "type": "address"
        },
        {
          "indexed": false,
          "internalType": "uint256",
          "name": "totalRedeemed",
          "type": "uint256"
        }
      ],
      "name": "FleetCommanderRedeemedFromArks",
      "type": "event"
    },
    {
      "anonymous": false,
      "inputs": [
        {
          "indexed": true,
          "internalType": "address",
          "name": "referee",
          "type": "address"
        },
        {
          "indexed": true,
          "internalType": "bytes",
          "name": "referralCode",
          "type": "bytes"
        }
      ],
      "name": "FleetCommanderReferral",
      "type": "event"
    },
    {
      "anonymous": false,
      "inputs": [
        {
          "indexed": true,
          "internalType": "address",
          "name": "owner",
          "type": "address"
        },
        {
          "indexed": false,
          "internalType": "address",
          "name": "receiver",
          "type": "address"
        },
        {
          "indexed": false,
          "internalType": "uint256",
          "name": "totalWithdrawn",
          "type": "uint256"
        }
      ],
      "name": "FleetCommanderWithdrawnFromArks",
      "type": "event"
    },
    {
      "anonymous": false,
      "inputs": [
        {
          "indexed": false,
          "internalType": "uint256",
          "name": "newBalance",
          "type": "uint256"
        }
      ],
      "name": "FleetCommanderminimumBufferBalanceUpdated",
      "type": "event"
    },
    {
      "anonymous": false,
      "inputs": [
        {
          "indexed": true,
          "internalType": "address",
          "name": "user",
          "type": "address"
        },
        {
          "indexed": false,
          "internalType": "uint256",
          "name": "prevBalance",
          "type": "uint256"
        },
        {
          "indexed": false,
          "internalType": "uint256",
          "name": "newBalance",
          "type": "uint256"
        }
      ],
      "name": "FundsBufferBalanceUpdated",
      "type": "event"
    },
    {
      "anonymous": false,
      "inputs": [
        {
          "indexed": true,
          "internalType": "address",
          "name": "keeper",
          "type": "address"
        },
        {
          "indexed": false,
          "internalType": "uint256",
          "name": "prevBalance",
          "type": "uint256"
        },
        {
          "indexed": false,
          "internalType": "uint256",
          "name": "newBalance",
          "type": "uint256"
        }
      ],
      "name": "FundsQueueRefilled",
      "type": "event"
    },
    {
      "anonymous": false,
      "inputs": [
        {
          "indexed": true,
          "internalType": "address",
          "name": "keeper",
          "type": "address"
        },
        {
          "indexed": false,
          "internalType": "uint256",
          "name": "newBalance",
          "type": "uint256"
        }
      ],
      "name": "MinFundsQueueBalanceUpdated",
      "type": "event"
    },
    {
      "anonymous": false,
      "inputs": [
        {
          "indexed": false,
          "internalType": "uint256",
          "name": "newMinimumPauseTime",
          "type": "uint256"
        }
      ],
      "name": "MinimumPauseTimeUpdated",
      "type": "event"
    },
    {
      "anonymous": false,
      "inputs": [
        {
          "indexed": false,
          "internalType": "address",
          "name": "account",
          "type": "address"
        }
      ],
      "name": "Paused",
      "type": "event"
    },
    {
      "anonymous": false,
      "inputs": [
        {
          "indexed": true,
          "internalType": "address",
          "name": "keeper",
          "type": "address"
        },
        {
          "indexed": false,
          "internalType": "uint256",
          "name": "prevBalance",
          "type": "uint256"
        },
        {
          "indexed": false,
          "internalType": "uint256",
          "name": "newBalance",
          "type": "uint256"
        }
      ],
      "name": "QueuedFundsCommitted",
      "type": "event"
    },
    {
      "anonymous": false,
      "inputs": [
        {
          "indexed": true,
          "internalType": "address",
          "name": "keeper",
          "type": "address"
        },
        {
          "components": [
            {
              "internalType": "address",
              "name": "fromArk",
              "type": "address"
            },
            {
              "internalType": "address",
              "name": "toArk",
              "type": "address"
            },
            {
              "internalType": "uint256",
              "name": "amount",
              "type": "uint256"
            },
            {
              "internalType": "bytes",
              "name": "boardData",
              "type": "bytes"
            },
            {
              "internalType": "bytes",
              "name": "disembarkData",
              "type": "bytes"
            }
          ],
          "indexed": false,
          "internalType": "struct RebalanceData[]",
          "name": "rebalances",
          "type": "tuple[]"
        }
      ],
      "name": "Rebalanced",
      "type": "event"
    },
    {
      "anonymous": false,
      "inputs": [
        {
          "indexed": false,
          "internalType": "uint256",
          "name": "tipAmount",
          "type": "uint256"
        }
      ],
      "name": "TipAccrued",
      "type": "event"
    },
    {
      "anonymous": false,
      "inputs": [
        {
          "indexed": false,
          "internalType": "address",
          "name": "newTipJar",
          "type": "address"
        }
      ],
      "name": "TipJarUpdated",
      "type": "event"
    },
    {
      "anonymous": false,
      "inputs": [
        {
          "indexed": false,
          "internalType": "Percentage",
          "name": "newTipRate",
          "type": "uint256"
        }
      ],
      "name": "TipRateUpdated",
      "type": "event"
    },
    {
      "anonymous": false,
      "inputs": [
        {
          "indexed": true,
          "internalType": "address",
          "name": "from",
          "type": "address"
        },
        {
          "indexed": true,
          "internalType": "address",
          "name": "to",
          "type": "address"
        },
        {
          "indexed": false,
          "internalType": "uint256",
          "name": "value",
          "type": "uint256"
        }
      ],
      "name": "Transfer",
      "type": "event"
    },
    {
      "anonymous": false,
      "inputs": [
        {
          "indexed": false,
          "internalType": "address",
          "name": "account",
          "type": "address"
        }
      ],
      "name": "Unpaused",
      "type": "event"
    },
    {
      "anonymous": false,
      "inputs": [
        {
          "indexed": true,
          "internalType": "address",
          "name": "sender",
          "type": "address"
        },
        {
          "indexed": true,
          "internalType": "address",
          "name": "receiver",
          "type": "address"
        },
        {
          "indexed": true,
          "internalType": "address",
          "name": "owner",
          "type": "address"
        },
        {
          "indexed": false,
          "internalType": "uint256",
          "name": "assets",
          "type": "uint256"
        },
        {
          "indexed": false,
          "internalType": "uint256",
          "name": "shares",
          "type": "uint256"
        }
      ],
      "name": "Withdraw",
      "type": "event"
    },
    {
      "inputs": [],
      "name": "DEFAULT_MAX_REBALANCE_OPERATIONS",
      "outputs": [
        {
          "internalType": "uint256",
          "name": "",
          "type": "uint256"
        }
      ],
      "stateMutability": "view",
      "type": "function"
    },
    {
      "inputs": [],
      "name": "INITIAL_MINIMUM_PAUSE_TIME",
      "outputs": [
        {
          "internalType": "uint256",
          "name": "",
          "type": "uint256"
        }
      ],
      "stateMutability": "view",
      "type": "function"
    },
    {
      "inputs": [],
      "name": "MAX_REBALANCE_OPERATIONS",
      "outputs": [
        {
          "internalType": "uint256",
          "name": "",
          "type": "uint256"
        }
      ],
      "stateMutability": "view",
      "type": "function"
    },
    {
      "inputs": [
        {
          "internalType": "address",
          "name": "ark",
          "type": "address"
        }
      ],
      "name": "addArk",
      "outputs": [],
      "stateMutability": "nonpayable",
      "type": "function"
    },
    {
      "inputs": [
        {
          "internalType": "address[]",
          "name": "_arkAddresses",
          "type": "address[]"
        }
      ],
      "name": "addArks",
      "outputs": [],
      "stateMutability": "nonpayable",
      "type": "function"
    },
    {
      "inputs": [
        {
          "components": [
            {
              "internalType": "address",
              "name": "fromArk",
              "type": "address"
            },
            {
              "internalType": "address",
              "name": "toArk",
              "type": "address"
            },
            {
              "internalType": "uint256",
              "name": "amount",
              "type": "uint256"
            },
            {
              "internalType": "bytes",
              "name": "boardData",
              "type": "bytes"
            },
            {
              "internalType": "bytes",
              "name": "disembarkData",
              "type": "bytes"
            }
          ],
          "internalType": "struct RebalanceData[]",
          "name": "rebalanceData",
          "type": "tuple[]"
        }
      ],
      "name": "adjustBuffer",
      "outputs": [],
      "stateMutability": "nonpayable",
      "type": "function"
    },
    {
      "inputs": [
        {
          "internalType": "address",
          "name": "owner",
          "type": "address"
        },
        {
          "internalType": "address",
          "name": "spender",
          "type": "address"
        }
      ],
      "name": "allowance",
      "outputs": [
        {
          "internalType": "uint256",
          "name": "",
          "type": "uint256"
        }
      ],
      "stateMutability": "view",
      "type": "function"
    },
    {
      "inputs": [
        {
          "internalType": "address",
          "name": "spender",
          "type": "address"
        },
        {
          "internalType": "uint256",
          "name": "value",
          "type": "uint256"
        }
      ],
      "name": "approve",
      "outputs": [
        {
          "internalType": "bool",
          "name": "",
          "type": "bool"
        }
      ],
      "stateMutability": "nonpayable",
      "type": "function"
    },
    {
      "inputs": [
        {
          "internalType": "uint256",
          "name": "",
          "type": "uint256"
        }
      ],
      "name": "arks",
      "outputs": [
        {
          "internalType": "address",
          "name": "",
          "type": "address"
        }
      ],
      "stateMutability": "view",
      "type": "function"
    },
    {
      "inputs": [],
      "name": "asset",
      "outputs": [
        {
          "internalType": "address",
          "name": "",
          "type": "address"
        }
      ],
      "stateMutability": "view",
      "type": "function"
    },
    {
      "inputs": [
        {
          "internalType": "address",
          "name": "account",
          "type": "address"
        }
      ],
      "name": "balanceOf",
      "outputs": [
        {
          "internalType": "uint256",
          "name": "",
          "type": "uint256"
        }
      ],
      "stateMutability": "view",
      "type": "function"
    },
    {
      "inputs": [],
      "name": "bufferArk",
      "outputs": [
        {
          "internalType": "address",
          "name": "",
          "type": "address"
        }
      ],
      "stateMutability": "view",
      "type": "function"
    },
    {
      "inputs": [],
      "name": "config",
      "outputs": [
        {
          "internalType": "contract IArk",
          "name": "bufferArk",
          "type": "address"
        },
        {
          "internalType": "uint256",
          "name": "minimumBufferBalance",
          "type": "uint256"
        },
        {
          "internalType": "uint256",
          "name": "depositCap",
          "type": "uint256"
        },
        {
          "internalType": "uint256",
          "name": "maxRebalanceOperations",
          "type": "uint256"
        }
      ],
      "stateMutability": "view",
      "type": "function"
    },
    {
      "inputs": [],
      "name": "configurationManager",
      "outputs": [
        {
          "internalType": "contract IConfigurationManager",
          "name": "",
          "type": "address"
        }
      ],
      "stateMutability": "view",
      "type": "function"
    },
    {
      "inputs": [
        {
          "internalType": "uint256",
          "name": "shares",
          "type": "uint256"
        }
      ],
      "name": "convertToAssets",
      "outputs": [
        {
          "internalType": "uint256",
          "name": "",
          "type": "uint256"
        }
      ],
      "stateMutability": "view",
      "type": "function"
    },
    {
      "inputs": [
        {
          "internalType": "uint256",
          "name": "assets",
          "type": "uint256"
        }
      ],
      "name": "convertToShares",
      "outputs": [
        {
          "internalType": "uint256",
          "name": "",
          "type": "uint256"
        }
      ],
      "stateMutability": "view",
      "type": "function"
    },
    {
      "inputs": [],
      "name": "decimals",
      "outputs": [
        {
          "internalType": "uint8",
          "name": "",
          "type": "uint8"
        }
      ],
      "stateMutability": "view",
      "type": "function"
    },
    {
      "inputs": [
        {
          "internalType": "uint256",
          "name": "assets",
          "type": "uint256"
        },
        {
          "internalType": "address",
          "name": "receiver",
          "type": "address"
        }
      ],
      "name": "deposit",
      "outputs": [
        {
          "internalType": "uint256",
          "name": "shares",
          "type": "uint256"
        }
      ],
      "stateMutability": "nonpayable",
      "type": "function"
    },
    {
      "inputs": [
        {
          "internalType": "uint256",
          "name": "assets",
          "type": "uint256"
        },
        {
          "internalType": "address",
          "name": "receiver",
          "type": "address"
        },
        {
          "internalType": "bytes",
          "name": "referralCode",
          "type": "bytes"
        }
      ],
      "name": "deposit",
      "outputs": [
        {
          "internalType": "uint256",
          "name": "",
          "type": "uint256"
        }
      ],
      "stateMutability": "nonpayable",
      "type": "function"
    },
    {
      "inputs": [],
      "name": "estimateAccruedTip",
      "outputs": [
        {
          "internalType": "uint256",
          "name": "",
          "type": "uint256"
        }
      ],
      "stateMutability": "view",
      "type": "function"
    },
    {
      "inputs": [
        {
          "components": [
            {
              "internalType": "address",
              "name": "fromArk",
              "type": "address"
            },
            {
              "internalType": "address",
              "name": "toArk",
              "type": "address"
            },
            {
              "internalType": "uint256",
              "name": "amount",
              "type": "uint256"
            },
            {
              "internalType": "bytes",
              "name": "boardData",
              "type": "bytes"
            },
            {
              "internalType": "bytes",
              "name": "disembarkData",
              "type": "bytes"
            }
          ],
          "internalType": "struct RebalanceData[]",
          "name": "rebalanceData",
          "type": "tuple[]"
        }
      ],
      "name": "forceRebalance",
      "outputs": [],
      "stateMutability": "nonpayable",
      "type": "function"
    },
    {
      "inputs": [
        {
          "internalType": "enum ContractSpecificRoles",
          "name": "roleName",
          "type": "uint8"
        },
        {
          "internalType": "address",
          "name": "roleTargetContract",
          "type": "address"
        }
      ],
      "name": "generateRole",
      "outputs": [
        {
          "internalType": "bytes32",
          "name": "",
          "type": "bytes32"
        }
      ],
      "stateMutability": "pure",
      "type": "function"
    },
    {
      "inputs": [],
      "name": "getArks",
      "outputs": [
        {
          "internalType": "address[]",
          "name": "",
          "type": "address[]"
        }
      ],
      "stateMutability": "view",
      "type": "function"
    },
    {
      "inputs": [],
      "name": "getConfig",
      "outputs": [
        {
          "components": [
            {
              "internalType": "contract IArk",
              "name": "bufferArk",
              "type": "address"
            },
            {
              "internalType": "uint256",
              "name": "minimumBufferBalance",
              "type": "uint256"
            },
            {
              "internalType": "uint256",
              "name": "depositCap",
              "type": "uint256"
            },
            {
              "internalType": "uint256",
              "name": "maxRebalanceOperations",
              "type": "uint256"
            }
          ],
          "internalType": "struct FleetConfig",
          "name": "",
          "type": "tuple"
        }
      ],
      "stateMutability": "view",
      "type": "function"
    },
    {
      "inputs": [],
      "name": "getCooldown",
      "outputs": [
        {
          "internalType": "uint256",
          "name": "",
          "type": "uint256"
        }
      ],
      "stateMutability": "view",
      "type": "function"
    },
    {
      "inputs": [],
      "name": "getLastActionTimestamp",
      "outputs": [
        {
          "internalType": "uint256",
          "name": "",
          "type": "uint256"
        }
      ],
      "stateMutability": "view",
      "type": "function"
    },
    {
      "inputs": [],
      "name": "harborCommand",
      "outputs": [
        {
          "internalType": "address",
          "name": "",
          "type": "address"
        }
      ],
      "stateMutability": "view",
      "type": "function"
    },
    {
      "inputs": [
        {
          "internalType": "address",
          "name": "",
          "type": "address"
        }
      ],
      "name": "isArkActive",
      "outputs": [
        {
          "internalType": "bool",
          "name": "",
          "type": "bool"
        }
      ],
      "stateMutability": "view",
      "type": "function"
    },
    {
      "inputs": [
        {
          "internalType": "address",
          "name": "",
          "type": "address"
        }
      ],
      "name": "isArkWithdrawable",
      "outputs": [
        {
          "internalType": "bool",
          "name": "",
          "type": "bool"
        }
      ],
      "stateMutability": "view",
      "type": "function"
    },
    {
      "inputs": [],
      "name": "lastTipTimestamp",
      "outputs": [
        {
          "internalType": "uint256",
          "name": "",
          "type": "uint256"
        }
      ],
      "stateMutability": "view",
      "type": "function"
    },
    {
      "inputs": [
        {
          "internalType": "address",
          "name": "owner",
          "type": "address"
        }
      ],
      "name": "maxBufferRedeem",
      "outputs": [
        {
          "internalType": "uint256",
          "name": "_maxBufferRedeem",
          "type": "uint256"
        }
      ],
      "stateMutability": "view",
      "type": "function"
    },
    {
      "inputs": [
        {
          "internalType": "address",
          "name": "owner",
          "type": "address"
        }
      ],
      "name": "maxBufferWithdraw",
      "outputs": [
        {
          "internalType": "uint256",
          "name": "_maxBufferWithdraw",
          "type": "uint256"
        }
      ],
      "stateMutability": "view",
      "type": "function"
    },
    {
      "inputs": [
        {
          "internalType": "address",
          "name": "owner",
          "type": "address"
        }
      ],
      "name": "maxDeposit",
      "outputs": [
        {
          "internalType": "uint256",
          "name": "_maxDeposit",
          "type": "uint256"
        }
      ],
      "stateMutability": "view",
      "type": "function"
    },
    {
      "inputs": [
        {
          "internalType": "address",
          "name": "owner",
          "type": "address"
        }
      ],
      "name": "maxMint",
      "outputs": [
        {
          "internalType": "uint256",
          "name": "_maxMint",
          "type": "uint256"
        }
      ],
      "stateMutability": "view",
      "type": "function"
    },
    {
      "inputs": [
        {
          "internalType": "address",
          "name": "owner",
          "type": "address"
        }
      ],
      "name": "maxRedeem",
      "outputs": [
        {
          "internalType": "uint256",
          "name": "_maxRedeem",
          "type": "uint256"
        }
      ],
      "stateMutability": "view",
      "type": "function"
    },
    {
      "inputs": [
        {
          "internalType": "address",
          "name": "owner",
          "type": "address"
        }
      ],
      "name": "maxWithdraw",
      "outputs": [
        {
          "internalType": "uint256",
          "name": "_maxWithdraw",
          "type": "uint256"
        }
      ],
      "stateMutability": "view",
      "type": "function"
    },
    {
      "inputs": [],
      "name": "minimumPauseTime",
      "outputs": [
        {
          "internalType": "uint256",
          "name": "",
          "type": "uint256"
        }
      ],
      "stateMutability": "view",
      "type": "function"
    },
    {
      "inputs": [
        {
          "internalType": "uint256",
          "name": "shares",
          "type": "uint256"
        },
        {
          "internalType": "address",
          "name": "receiver",
          "type": "address"
        }
      ],
      "name": "mint",
      "outputs": [
        {
          "internalType": "uint256",
          "name": "assets",
          "type": "uint256"
        }
      ],
      "stateMutability": "nonpayable",
      "type": "function"
    },
    {
      "inputs": [],
      "name": "name",
      "outputs": [
        {
          "internalType": "string",
          "name": "",
          "type": "string"
        }
      ],
      "stateMutability": "view",
      "type": "function"
    },
    {
      "inputs": [],
      "name": "pause",
      "outputs": [],
      "stateMutability": "nonpayable",
      "type": "function"
    },
    {
      "inputs": [],
      "name": "pauseStartTime",
      "outputs": [
        {
          "internalType": "uint256",
          "name": "",
          "type": "uint256"
        }
      ],
      "stateMutability": "view",
      "type": "function"
    },
    {
      "inputs": [],
      "name": "paused",
      "outputs": [
        {
          "internalType": "bool",
          "name": "",
          "type": "bool"
        }
      ],
      "stateMutability": "view",
      "type": "function"
    },
    {
      "inputs": [
        {
          "internalType": "uint256",
          "name": "assets",
          "type": "uint256"
        }
      ],
      "name": "previewDeposit",
      "outputs": [
        {
          "internalType": "uint256",
          "name": "",
          "type": "uint256"
        }
      ],
      "stateMutability": "view",
      "type": "function"
    },
    {
      "inputs": [
        {
          "internalType": "uint256",
          "name": "shares",
          "type": "uint256"
        }
      ],
      "name": "previewMint",
      "outputs": [
        {
          "internalType": "uint256",
          "name": "",
          "type": "uint256"
        }
      ],
      "stateMutability": "view",
      "type": "function"
    },
    {
      "inputs": [
        {
          "internalType": "uint256",
          "name": "shares",
          "type": "uint256"
        }
      ],
      "name": "previewRedeem",
      "outputs": [
        {
          "internalType": "uint256",
          "name": "",
          "type": "uint256"
        }
      ],
      "stateMutability": "view",
      "type": "function"
    },
    {
      "inputs": [
        {
          "internalType": "uint256",
          "name": "assets",
          "type": "uint256"
        }
      ],
      "name": "previewWithdraw",
      "outputs": [
        {
          "internalType": "uint256",
          "name": "",
          "type": "uint256"
        }
      ],
      "stateMutability": "view",
      "type": "function"
    },
    {
      "inputs": [],
      "name": "raft",
      "outputs": [
        {
          "internalType": "address",
          "name": "",
          "type": "address"
        }
      ],
      "stateMutability": "view",
      "type": "function"
    },
    {
      "inputs": [
        {
          "components": [
            {
              "internalType": "address",
              "name": "fromArk",
              "type": "address"
            },
            {
              "internalType": "address",
              "name": "toArk",
              "type": "address"
            },
            {
              "internalType": "uint256",
              "name": "amount",
              "type": "uint256"
            },
            {
              "internalType": "bytes",
              "name": "boardData",
              "type": "bytes"
            },
            {
              "internalType": "bytes",
              "name": "disembarkData",
              "type": "bytes"
            }
          ],
          "internalType": "struct RebalanceData[]",
          "name": "rebalanceData",
          "type": "tuple[]"
        }
      ],
      "name": "rebalance",
      "outputs": [],
      "stateMutability": "nonpayable",
      "type": "function"
    },
    {
      "inputs": [
        {
          "internalType": "uint256",
          "name": "shares",
          "type": "uint256"
        },
        {
          "internalType": "address",
          "name": "receiver",
          "type": "address"
        },
        {
          "internalType": "address",
          "name": "owner",
          "type": "address"
        }
      ],
      "name": "redeem",
      "outputs": [
        {
          "internalType": "uint256",
          "name": "assets",
          "type": "uint256"
        }
      ],
      "stateMutability": "nonpayable",
      "type": "function"
    },
    {
      "inputs": [
        {
          "internalType": "uint256",
          "name": "shares",
          "type": "uint256"
        },
        {
          "internalType": "address",
          "name": "receiver",
          "type": "address"
        },
        {
          "internalType": "address",
          "name": "owner",
          "type": "address"
        }
      ],
      "name": "redeemFromArks",
      "outputs": [
        {
          "internalType": "uint256",
          "name": "totalAssetsToWithdraw",
          "type": "uint256"
        }
      ],
      "stateMutability": "nonpayable",
      "type": "function"
    },
    {
      "inputs": [
        {
          "internalType": "uint256",
          "name": "shares",
          "type": "uint256"
        },
        {
          "internalType": "address",
          "name": "receiver",
          "type": "address"
        },
        {
          "internalType": "address",
          "name": "owner",
          "type": "address"
        }
      ],
      "name": "redeemFromBuffer",
      "outputs": [
        {
          "internalType": "uint256",
          "name": "assets",
          "type": "uint256"
        }
      ],
      "stateMutability": "nonpayable",
      "type": "function"
    },
    {
      "inputs": [
        {
          "internalType": "address",
          "name": "ark",
          "type": "address"
        }
      ],
      "name": "removeArk",
      "outputs": [],
      "stateMutability": "nonpayable",
      "type": "function"
    },
    {
      "inputs": [
        {
          "internalType": "address",
          "name": "ark",
          "type": "address"
        },
        {
          "internalType": "uint256",
          "name": "newDepositCap",
          "type": "uint256"
        }
      ],
      "name": "setArkDepositCap",
      "outputs": [],
      "stateMutability": "nonpayable",
      "type": "function"
    },
    {
      "inputs": [
        {
          "internalType": "address",
          "name": "ark",
          "type": "address"
        },
        {
          "internalType": "uint256",
          "name": "newMaxRebalanceInflow",
          "type": "uint256"
        }
      ],
      "name": "setArkMaxRebalanceInflow",
      "outputs": [],
      "stateMutability": "nonpayable",
      "type": "function"
    },
    {
      "inputs": [
        {
          "internalType": "address",
          "name": "ark",
          "type": "address"
        },
        {
          "internalType": "uint256",
          "name": "newMaxRebalanceOutflow",
          "type": "uint256"
        }
      ],
      "name": "setArkMaxRebalanceOutflow",
      "outputs": [],
      "stateMutability": "nonpayable",
      "type": "function"
    },
    {
      "inputs": [
        {
          "internalType": "uint256",
          "name": "newCap",
          "type": "uint256"
        }
      ],
      "name": "setFleetDepositCap",
      "outputs": [],
      "stateMutability": "nonpayable",
      "type": "function"
    },
    {
      "inputs": [
        {
          "internalType": "uint256",
          "name": "newMaxRebalanceOperations",
          "type": "uint256"
        }
      ],
      "name": "setMaxRebalanceOperations",
      "outputs": [],
      "stateMutability": "nonpayable",
      "type": "function"
    },
    {
      "inputs": [
        {
          "internalType": "uint256",
          "name": "newMinimumBalance",
          "type": "uint256"
        }
      ],
      "name": "setMinimumBufferBalance",
      "outputs": [],
      "stateMutability": "nonpayable",
      "type": "function"
    },
    {
      "inputs": [
        {
          "internalType": "uint256",
          "name": "_newMinimumPauseTime",
          "type": "uint256"
        }
      ],
      "name": "setMinimumPauseTime",
      "outputs": [],
      "stateMutability": "nonpayable",
      "type": "function"
    },
    {
      "inputs": [
        {
          "internalType": "Percentage",
          "name": "newTipRate",
          "type": "uint256"
        }
      ],
      "name": "setTipRate",
      "outputs": [],
      "stateMutability": "nonpayable",
      "type": "function"
    },
    {
      "inputs": [],
      "name": "symbol",
      "outputs": [
        {
          "internalType": "string",
          "name": "",
          "type": "string"
        }
      ],
      "stateMutability": "view",
      "type": "function"
    },
    {
      "inputs": [],
      "name": "tip",
      "outputs": [
        {
          "internalType": "uint256",
          "name": "",
          "type": "uint256"
        }
      ],
      "stateMutability": "nonpayable",
      "type": "function"
    },
    {
      "inputs": [],
      "name": "tipJar",
      "outputs": [
        {
          "internalType": "address",
          "name": "",
          "type": "address"
        }
      ],
      "stateMutability": "view",
      "type": "function"
    },
    {
      "inputs": [],
      "name": "tipRate",
      "outputs": [
        {
          "internalType": "Percentage",
          "name": "",
          "type": "uint256"
        }
      ],
      "stateMutability": "view",
      "type": "function"
    },
    {
      "inputs": [],
      "name": "totalAssets",
      "outputs": [
        {
          "internalType": "uint256",
          "name": "",
          "type": "uint256"
        }
      ],
      "stateMutability": "view",
      "type": "function"
    },
    {
      "inputs": [],
      "name": "totalSupply",
      "outputs": [
        {
          "internalType": "uint256",
          "name": "",
          "type": "uint256"
        }
      ],
      "stateMutability": "view",
      "type": "function"
    },
    {
      "inputs": [
        {
          "internalType": "address",
          "name": "",
          "type": "address"
        },
        {
          "internalType": "uint256",
          "name": "",
          "type": "uint256"
        }
      ],
      "name": "transfer",
      "outputs": [
        {
          "internalType": "bool",
          "name": "",
          "type": "bool"
        }
      ],
      "stateMutability": "pure",
      "type": "function"
    },
    {
      "inputs": [
        {
          "internalType": "address",
          "name": "",
          "type": "address"
        },
        {
          "internalType": "address",
          "name": "",
          "type": "address"
        },
        {
          "internalType": "uint256",
          "name": "",
          "type": "uint256"
        }
      ],
      "name": "transferFrom",
      "outputs": [
        {
          "internalType": "bool",
          "name": "",
          "type": "bool"
        }
      ],
      "stateMutability": "pure",
      "type": "function"
    },
    {
      "inputs": [],
      "name": "treasury",
      "outputs": [
        {
          "internalType": "address",
          "name": "",
          "type": "address"
        }
      ],
      "stateMutability": "view",
      "type": "function"
    },
    {
      "inputs": [],
      "name": "unpause",
      "outputs": [],
      "stateMutability": "nonpayable",
      "type": "function"
    },
    {
      "inputs": [
        {
          "internalType": "uint256",
          "name": "newCooldown",
          "type": "uint256"
        }
      ],
      "name": "updateRebalanceCooldown",
      "outputs": [],
      "stateMutability": "nonpayable",
      "type": "function"
    },
    {
      "inputs": [
        {
          "internalType": "uint256",
          "name": "assets",
          "type": "uint256"
        },
        {
          "internalType": "address",
          "name": "receiver",
          "type": "address"
        },
        {
          "internalType": "address",
          "name": "owner",
          "type": "address"
        }
      ],
      "name": "withdraw",
      "outputs": [
        {
          "internalType": "uint256",
          "name": "shares",
          "type": "uint256"
        }
      ],
      "stateMutability": "nonpayable",
      "type": "function"
    },
    {
      "inputs": [
        {
          "internalType": "uint256",
          "name": "assets",
          "type": "uint256"
        },
        {
          "internalType": "address",
          "name": "receiver",
          "type": "address"
        },
        {
          "internalType": "address",
          "name": "owner",
          "type": "address"
        }
      ],
      "name": "withdrawFromArks",
      "outputs": [
        {
          "internalType": "uint256",
          "name": "totalSharesToRedeem",
          "type": "uint256"
        }
      ],
      "stateMutability": "nonpayable",
      "type": "function"
    },
    {
      "inputs": [
        {
          "internalType": "uint256",
          "name": "assets",
          "type": "uint256"
        },
        {
          "internalType": "address",
          "name": "receiver",
          "type": "address"
        },
        {
          "internalType": "address",
          "name": "owner",
          "type": "address"
        }
      ],
      "name": "withdrawFromBuffer",
      "outputs": [
        {
          "internalType": "uint256",
          "name": "shares",
          "type": "uint256"
        }
      ],
      "stateMutability": "nonpayable",
      "type": "function"
    },
    {
      "inputs": [],
      "name": "withdrawableTotalAssets",
      "outputs": [
        {
          "internalType": "uint256",
          "name": "",
          "type": "uint256"
        }
      ],
      "stateMutability": "view",
      "type": "function"
    }
  ],
  "bytecode": "0x60e0806040523461052b57617f85803803809161001c828561073b565b833981019060208183031261052b578051906001600160401b03821161052b5701906101208282031261052b576040519061012082016001600160401b038111838210176104c85760405282516001600160401b03811161052b5781610083918501610779565b82526020830151906001600160401b03821161052b576100a4918401610779565b908160208201526100b7604084016107bf565b9060408101908282526100cc606086016107bf565b60608201958187526100e0608082016107bf565b93608084019785895260a08301519360a0860194855260c0840151988960c088015261010060e08601519560e089019687520151988961010089015260018060a01b03169760018060a01b031696519160018060a01b03169180519060018060401b0382116104c85760035490600182811c92168015610731575b60208310146106345781601f8493116106c3575b50602090601f831160011461065d575f92610652575b50508160011b915f199060031b1c1916176003555b8051906001600160401b0382116104c85760045490600182811c92168015610648575b60208310146106345781601f8493116105c6575b50602090601f8311600114610560575f92610555575b50508160011b915f199060031b1c1916176004555b8015610542576040516301ffc9a760e01b815263a237592160e01b6004820152602081602481855afa908115610537575f916104f8575b50156104e657600580546001600160a81b0319169190911790556201fa4060065551975190516040516001600160a01b03998a16999283169290911661010082016001600160401b038111838210176104c8576040526040998a92835161029a858261073b565b600981526842756666657241726b60b81b602082015281526020810191825283810192835260608101948552608081015f19815260a082015f19815260c08301905f19825260e08401925f8452875198611df097888b01978b891060018060401b038a11176104c8576101609a6101006020998e9c8d6161959039828c5251918b01528051988991826101408d0152018c8b015e5f8b898b01015260018060a01b03905116606089015260018060a01b03905116608088015260018060a01b0390511660a08701525160c08601525160e085015251610100840152511515610120830152306020830152601f8019910116010301905ff080156104dc579151905187516001600160a01b0390931692909190608081018181106001600160401b038211176104c857600a916060918b52858152836020820152848b82015201528260018060a01b03196008541617600855600955600a55600a600b55805f52600d602052855f20600160ff198254161790555f52600e602052845f20600160ff1982541617905561042a816107d3565b90156104c0575b60a05260805280156104b15760c052600f55426010556011555161591e90816108778239608051818181610a49015281816129700152818161326e01528181613ea101528181614391015261440b015260a05181610963015260c05181818161075001528181610e7c01528181610f2c015281816119db0152612d590152f35b63f1634df960e01b5f5260045ffd5b506012610431565b634e487b7160e01b5f52604160045260245ffd5b87513d5f823e3d90fd5b6347bd7c1d60e01b5f5260045260245ffd5b90506020813d60201161052f575b816105136020938361073b565b8101031261052b5751801515810361052b575f610233565b5f80fd5b3d9150610506565b6040513d5f823e3d90fd5b6347bd7c1d60e01b5f525f60045260245ffd5b015190505f806101e7565b60045f9081528281209350601f198516905b8181106105ae5750908460019594939210610596575b505050811b016004556101fc565b01515f1960f88460031b161c191690555f8080610588565b92936020600181928786015181550195019301610572565b60045f529091507f8a35acfbc15ff81a39ae7d344fd709f28e8600b4aa8c65c6b64bfe7fe36bd19b601f840160051c8101916020851061062a575b90601f859493920160051c01905b81811061061c57506101d1565b5f815584935060010161060f565b9091508190610601565b634e487b7160e01b5f52602260045260245ffd5b91607f16916101bd565b015190505f80610185565b60035f9081528281209350601f198516905b8181106106ab5750908460019594939210610693575b505050811b0160035561019a565b01515f1960f88460031b161c191690555f8080610685565b9293602060018192878601518155019501930161066f565b60035f529091507fc2575a0e9e593c00f959f8c92f12db2869c3395a3b0502d05e2516446f71f85b601f840160051c81019160208510610727575b90601f859493920160051c01905b818110610719575061016f565b5f815584935060010161070c565b90915081906106fe565b91607f169161015b565b601f909101601f19168101906001600160401b038211908210176104c857604052565b6001600160401b0381116104c857601f01601f191660200190565b81601f8201121561052b578051906107908261075e565b9261079e604051948561073b565b8284526020838301011161052b57815f9260208093018386015e8301015290565b51906001600160a01b038216820361052b57565b5f8091604051602081019063313ce56760e01b8252600481526107f760248261073b565b51916001600160a01b03165afa3d1561086e573d906108158261075e565b91610823604051938461073b565b82523d5f602084013e5b80610862575b61083f575b505f905f90565b60208180518101031261052b576020015160ff8111610838579060ff6001921690565b50602081511015610833565b60609061082d56fe60806040526004361015610011575f80fd5b5f3560e01c806301e1d114146104b557806306fdde03146104b057806307a2d13a14610456578063095ea7b3146104ab5780630a28a477146104a6578063117d8ae0146104a1578063133ab5791461049c578063168b813a1461043857806318160ddd14610497578063218e4a151461049257806323b872dd1461048d5780632755cd2d14610488578063313ce567146104835780633152d5d11461047e578063340505601461047957806338d52e0f146104745780633a7c9f0e1461046f5780633e314c761461046a5780633f4ba83a14610465578063402d267d14610460578063498e76a01461045b5780634cdad506146104565780634daecb9c146104515780635340c0121461044c5780635822198f146104475780635b0f83f3146104425780635c975abb1461043d5780635ed975e5146104385780635f538f6f1461043357806361d027b31461042e578063680e57ab14610429578063684826261461042457806369b3054b1461041f5780636e553f651461041a57806370a082311461041557806371aedbc11461041057806379502c551461040b5780637aaceb95146104065780638456cb59146104015780639265b76e146103fc57806394bf804d146103f757806394d7eaa4146103f257806395d89b41146103ed57806396c25a38146103e8578063a039e944146103e3578063a0506f0b146103de578063a9059cbb146103d9578063b3d7f6b9146103d4578063b460af94146103cf578063b637766c146103ca578063ba087652146103c5578063c3f909d4146103c0578063c63d75b6146103bb578063c6e6f5921461036b578063c8169aa1146103b6578063c9c667e3146103b1578063cada5143146103ac578063cc5b1e55146103a7578063ce96cb77146103a2578063d25dd1011461039d578063d45a07a114610398578063d570ee4714610393578063d902d41a1461038e578063d905777e14610389578063dc9de0a814610384578063dd62ed3e1461037f578063e193858f1461037a578063e37d5b7f14610375578063e7b20e5b14610370578063ef8b30f71461036b578063f1cd665b14610366578063f357781614610361578063faa9bce91461035c578063fcf2849f146103575763ff32a42a14610352575f80fd5b6124a5565b612369565b6122d0565b6121ac565b612147565b611980565b61208f565b611fc8565b611f0a565b611eab565b611ded565b611dc6565b611d56565b611d3c565b611cc0565b611c80565b611c59565b611ba1565b611a5c565b6119c6565b61199e565b611959565b6118c5565b6117e4565b611768565b611672565b611654565b611638565b61161b565b611602565b61153b565b611486565b611469565b6112e0565b6112b9565b611169565b61113d565b6110ff565b6110e2565b6110a8565b61107e565b611013565b610f96565b610f79565b610f07565b610eee565b6108a2565b610ec9565b610e57565b610d86565b610d46565b610cd6565b610615565b610cb9565b610c92565b610ae1565b610aba565b610aa1565b610a34565b6109b8565b61099b565b61094f565b61092d565b6108f7565b6108da565b6108bd565b6107d2565b61072c565b61070e565b610651565b610522565b6104c8565b5f9103126104c457565b5f80fd5b346104c4575f3660031901126104c45760206104e2612550565b604051908152f35b805180835260209291819084018484015e5f828201840152601f01601f1916010190565b90602061051f9281815201906104ea565b90565b346104c4575f3660031901126104c4576040515f6003548060011c906001811690811561060b575b6020831082146105f75782855260208501919081156105de575060011461058c575b6105888461057c8186038261222f565b6040519182918261050e565b0390f35b60035f9081529250907fc2575a0e9e593c00f959f8c92f12db2869c3395a3b0502d05e2516446f71f85b5b8184106105ca5750500161057c8261056c565b8054848401526020909301926001016105b7565b60ff191682525090151560051b01905061057c8261056c565b634e487b7160e01b5f52602260045260245ffd5b91607f169161054a565b346104c45760203660031901126104c45760206104e2600435613976565b6001600160a01b038116036104c457565b359061064f82610633565b565b346104c45760403660031901126104c45760043561066e81610633565b60243533156106fb576001600160a01b0382169182156106e8576106ae8291335f52600160205260405f209060018060a01b03165f5260205260405f2090565b5560405190815233907f8c5be1e5ebec7d5bd14f71427d1e84f3dd0314c0f7b2291e5b200ac8c7c3b92590602090a3602060405160018152f35b634a1406b160e11b5f525f60045260245ffd5b63e602df0560e01b5f525f60045260245ffd5b346104c45760203660031901126104c45760206104e26004356139d1565b346104c4575f3660031901126104c457604051628bec5760e51b81526020816004817f00000000000000000000000000000000000000000000000000000000000000006001600160a01b03165afa9081156107cd575f9161079e575b506040516001600160a01b039091168152602090f35b6107c0915060203d6020116107c6575b6107b8818361222f565b810190612578565b5f610788565b503d6107ae565b61258d565b346104c45760203660031901126104c45760043560055461083d9060209061080a906001600160a01b03165b6001600160a01b031690565b61081330612ba1565b604051632474521560e21b8152600481019190915233602482015292839190829081906044820190565b03915afa9081156107cd575f91610873575b50156108605761085e906125b9565b005b6363b52ed760e11b5f523360045260245ffd5b610895915060203d60201161089b575b61088d818361222f565b8101906125a5565b5f61084f565b503d610883565b346104c4575f3660031901126104c4576020604051600a8152f35b346104c4575f3660031901126104c4576020600254604051908152f35b346104c4575f3660031901126104c4576020601154604051908152f35b346104c45760603660031901126104c457610913600435610633565b61091e602435610633565b63ec47ea8b60e01b5f5260045ffd5b346104c4575f3660031901126104c457610945613a2c565b60206104e2613a4a565b346104c4575f3660031901126104c45760ff7f00000000000000000000000000000000000000000000000000000000000000001660ff811161099657602090604051908152f35b6125f2565b346104c4575f3660031901126104c4576020601254604051908152f35b346104c45760403660031901126104c4576004356109d581610633565b6024356005546109f49060209061080a906001600160a01b03166107fe565b03915afa9081156107cd575f91610a15575b50156108605761085e91612606565b610a2e915060203d60201161089b5761088d818361222f565b5f610a06565b346104c4575f3660031901126104c4576040517f00000000000000000000000000000000000000000000000000000000000000006001600160a01b03168152602090f35b60609060031901126104c45760043590602435610a9481610633565b9060443561051f81610633565b346104c45760206104e2610ab436610a78565b916126a2565b346104c45760203660031901126104c45760206104e2600435610adc81610633565b61281e565b346104c4575f3660031901126104c457600554610b06906001600160a01b03166107fe565b60405163093a953d60e21b8152602081600481855afa9081156107cd57610b59916020915f91610c75575b50604051632474521560e21b8152600481019190915233602482015291829081906044820190565b0381855afa9081156107cd575f91610c56575b50159081610b95575b50610b825761085e61289b565b636b2a758d60e01b5f523360045260245ffd5b604051630ccc574960e41b8152909150602081600481855afa80156107cd57610bee926020925f92610c27575b50604051632474521560e21b815260048101929092523360248301529092839190829081906044820190565b03915afa9081156107cd575f91610c08575b50155f610b75565b610c21915060203d60201161089b5761088d818361222f565b5f610c00565b610c48919250833d8511610c4f575b610c40818361222f565b81019061280f565b905f610bc2565b503d610c36565b610c6f915060203d60201161089b5761088d818361222f565b5f610b6c565b610c8c9150823d8411610c4f57610c40818361222f565b5f610b31565b346104c45760203660031901126104c45760206104e2600435610cb481610633565b612923565b346104c4575f3660031901126104c4576020600f54604051908152f35b346104c45760203660031901126104c457600435600554610d069060209061080a906001600160a01b03166107fe565b03915afa9081156107cd575f91610d27575b50156108605761085e906129ee565b610d40915060203d60201161089b5761088d818361222f565b5f610d18565b346104c45760203660031901126104c457600435610d6381610633565b60018060a01b03165f52600e602052602060ff60405f2054166040519015158152f35b346104c45760203660031901126104c457600435600554610daf906001600160a01b03166107fe565b604051630ccc574960e41b8152602081600481855afa80156107cd57610e04926020925f92610c275750604051632474521560e21b815260048101929092523360248301529092839190829081906044820190565b03915afa9081156107cd575f91610e38575b5015610e255761085e90612a27565b630ea7d7ed60e21b5f523360045260245ffd5b610e51915060203d60201161089b5761088d818361222f565b5f610e16565b346104c4575f3660031901126104c457604051635b0f83f360e01b81526020816004817f00000000000000000000000000000000000000000000000000000000000000006001600160a01b03165afa9081156107cd575f9161079e57506040516001600160a01b039091168152602090f35b346104c4575f3660031901126104c457602060ff60055460a01c166040519015158152f35b346104c45760206104e2610f0136610a78565b91612a88565b346104c4575f3660031901126104c4576040516361d027b360e01b81526020816004817f00000000000000000000000000000000000000000000000000000000000000006001600160a01b03165afa9081156107cd575f9161079e57506040516001600160a01b039091168152602090f35b346104c4575f3660031901126104c4576020600654604051908152f35b346104c4575f3660031901126104c4576010544203428111610996576040516318160ddd60e01b8152602081600481305afa9182156107cd5761058892610fe4925f91610ff4575b50614121565b6040519081529081906020820190565b61100d915060203d602011610c4f57610c40818361222f565b5f610fde565b346104c45760403660031901126104c45760043560038110156104c45760209060243561103f81610633565b604051908382019260f81b83526bffffffffffffffffffffffff199060601b1660218201526015815261107360358261222f565b519020604051908152f35b346104c45760403660031901126104c45760206104e26024356004356110a382610633565b612c11565b346104c45760203660031901126104c4576004356110c581610633565b60018060a01b03165f525f602052602060405f2054604051908152f35b346104c4575f3660031901126104c4576020601054604051908152f35b346104c4575f3660031901126104c457608060018060a01b0360085416600954600a54600b5491604051938452602084015260408301526060820152f35b346104c4575f3660031901126104c4576020611157612d44565b6040516001600160a01b039091168152f35b346104c4575f3660031901126104c45760055461118e906001600160a01b03166107fe565b60405163093a953d60e21b8152602081600481855afa9081156107cd576111e0916020915f91610c755750604051632474521560e21b8152600481019190915233602482015291829081906044820190565b0381855afa9081156107cd575f9161129a575b50159081611209575b50610b825761085e612dad565b604051630ccc574960e41b8152909150602081600481855afa80156107cd57611261926020925f92610c275750604051632474521560e21b815260048101929092523360248301529092839190829081906044820190565b03915afa9081156107cd575f9161127b575b50155f6111fc565b611294915060203d60201161089b5761088d818361222f565b5f611273565b6112b3915060203d60201161089b5761088d818361222f565b5f6111f3565b346104c45760203660031901126104c45760206104e26004356112db81610633565b612e02565b346104c45760403660031901126104c4576004602435813561130182610633565b611309613a4a565b50600854602090611345906107fe906113326001600160a01b03821661132d6124ff565b614169565b5061133b613a2c565b6107fe33866144b9565b6040516278744560e21b815294859182905afa9081156107cd576004935f92611444575b508061137761137f926139a3565b809433614328565b60085461139f90839061139a906001600160a01b03166107fe565b6143db565b6008546020906113b7906001600160a01b03166107fe565b6040516278744560e21b815294859182905afa80156107cd5761141a7fe68a55afda2dca8343871fe0e5575a383291a40ae7d53e4dee12faf79cde144e91610588955f91611425575b506040805194855260208501919091523393918291820190565b0390a2610fe4613d39565b61143e915060203d602011610c4f57610c40818361222f565b5f611400565b61137f9192506114629060203d602011610c4f57610c40818361222f565b9190611369565b346104c4575f3660031901126104c4576020600754604051908152f35b346104c4575f3660031901126104c4576040515f6004548060011c9060018116908115611531575b6020831082146105f75782855260208501919081156105de57506001146114df576105888461057c8186038261222f565b60045f9081529250907f8a35acfbc15ff81a39ae7d344fd709f28e8600b4aa8c65c6b64bfe7fe36bd19b5b81841061151d5750500161057c8261056c565b80548484015260209093019260010161150a565b91607f16916114ae565b346104c45760203660031901126104c45760043561155881610633565b60055461156d906001600160a01b03166107fe565b604051630ccc574960e41b8152602081600481855afa80156107cd576115c2926020925f92610c275750604051632474521560e21b815260048101929092523360248301529092839190829081906044820190565b03915afa9081156107cd575f916115e3575b5015610e255761085e90612e7d565b6115fc915060203d60201161089b5761088d818361222f565b5f6115d4565b346104c45760206104e261161536610a78565b91613085565b346104c4575f3660031901126104c45760206040516201fa408152f35b346104c45760403660031901126104c45761091e600435610633565b346104c45760203660031901126104c45760206104e26004356139a3565b346104c457600461168236610a78565b9061168b613a4a565b50600854926116aa6001600160a01b0385166116a56124ff565b613b98565b6116b2613a2c565b9283906020906116ca906001600160a01b03166107fe565b6040516278744560e21b815296879182905afa9081156107cd57610588955f92611747575b505f191461171d575b831161170f5761170792612a88565b610fe4613d39565b61171892613085565b611707565b925061174161173b8360018060a01b03165f525f60205260405f2090565b54613976565b926116f8565b61176191925060203d602011610c4f57610c40818361222f565b905f6116ef565b346104c45760403660031901126104c45760043561178581610633565b6024356005546117a49060209061080a906001600160a01b03166107fe565b03915afa9081156107cd575f916117c5575b50156108605761085e916131bc565b6117de915060203d60201161089b5761088d818361222f565b5f6117b6565b346104c45760046117f436610a78565b906117fd613a4a565b50600854926118176001600160a01b0385166116a56124ff565b61181f613a2c565b928390602090611837906001600160a01b03166107fe565b6040516278744560e21b815296879182905afa9485156107cd5761058895611866915f916118a6575b506139ff565b905f1914611887575b831161187e5761170792613741565b611718926126a2565b6001600160a01b0383165f90815260208190526040902054935061186f565b6118bf915060203d602011610c4f57610c40818361222f565b5f611860565b346104c4575f3660031901126104c4575f60606040516118e4816121d9565b8281528260208201528260408201520152610588604051611904816121d9565b6008546001600160a01b03168082526009546020808401918252600a546040808601918252600b5460609687019081528151958652935192850192909252519083015251918101919091529081906080820190565b346104c45760203660031901126104c45760206104e260043561197b81610633565b613223565b346104c45760203660031901126104c45760206104e26004356139ff565b346104c4575f3660031901126104c4576008546040516001600160a01b039091168152602090f35b346104c4575f3660031901126104c4576040517f00000000000000000000000000000000000000000000000000000000000000006001600160a01b03168152602090f35b9060206003198301126104c4576004356001600160401b0381116104c45760040182601f820112156104c4578035926001600160401b0384116104c4576020808301928560051b0101116104c4579190565b346104c457611a6a36611a0a565b600554611a7f906001600160a01b03166107fe565b611ab46020611a8d30612bd9565b604051632474521560e21b8152600481019190915233602482015291829081906044820190565b0381855afa9081156107cd575f91611b82575b50159081611af1575b50611ade5761085e916132d2565b6329068e8160e21b5f523360045260245ffd5b6040516366e943f160e01b8152909150602081600481855afa80156107cd57611b49926020925f92610c275750604051632474521560e21b815260048101929092523360248301529092839190829081906044820190565b03915afa9081156107cd575f91611b63575b50155f611ad0565b611b7c915060203d60201161089b5761088d818361222f565b5f611b5b565b611b9b915060203d60201161089b5761088d818361222f565b5f611ac7565b346104c457611baf36611a0a565b600554611bc4906001600160a01b03166107fe565b604051630ccc574960e41b8152602081600481855afa80156107cd57611c19926020925f92610c275750604051632474521560e21b815260048101929092523360248301529092839190829081906044820190565b03915afa9081156107cd575f91611c3a575b5015610e255761085e916134e6565b611c53915060203d60201161089b5761088d818361222f565b5f611c2b565b346104c45760203660031901126104c45760206104e2600435611c7b81610633565b61352a565b346104c45760203660031901126104c457600435611c9d81610633565b60018060a01b03165f52600d602052602060ff60405f2054166040519015158152f35b346104c45760403660031901126104c457600435611cdd81610633565b602435600554611cfc9060209061080a906001600160a01b03166107fe565b03915afa9081156107cd575f91611d1d575b50156108605761085e9161354e565b611d36915060203d60201161089b5761088d818361222f565b5f611d0e565b346104c4575f3660031901126104c45760206104e26135b5565b346104c45760203660031901126104c457600435600554611d869060209061080a906001600160a01b03166107fe565b03915afa9081156107cd575f91611da7575b50156108605761085e906135d2565b611dc0915060203d60201161089b5761088d818361222f565b5f611d98565b346104c45760203660031901126104c45760206104e2600435611de881610633565b61360b565b346104c45760203660031901126104c457600435600554611e16906001600160a01b03166107fe565b604051630ccc574960e41b8152602081600481855afa80156107cd57611e6b926020925f92610c275750604051632474521560e21b815260048101929092523360248301529092839190829081906044820190565b03915afa9081156107cd575f91611e8c575b5015610e255761085e90613616565b611ea5915060203d60201161089b5761088d818361222f565b5f611e7d565b346104c45760403660031901126104c4576020611f01600435611ecd81610633565b60243590611eda82610633565b60018060a01b03165f526001835260405f209060018060a01b03165f5260205260405f2090565b54604051908152f35b346104c45760203660031901126104c457600435600554611f33906001600160a01b03166107fe565b604051630ccc574960e41b8152602081600481855afa80156107cd57611f88926020925f92610c275750604051632474521560e21b815260048101929092523360248301529092839190829081906044820190565b03915afa9081156107cd575f91611fa9575b5015610e255761085e90613657565b611fc2915060203d60201161089b5761088d818361222f565b5f611f9a565b346104c45760203660031901126104c457600435611fe581610633565b600554611ffa906001600160a01b03166107fe565b604051630ccc574960e41b8152602081600481855afa80156107cd5761204f926020925f92610c275750604051632474521560e21b815260048101929092523360248301529092839190829081906044820190565b03915afa9081156107cd575f91612070575b5015610e255761085e90613690565b612089915060203d60201161089b5761088d818361222f565b5f612061565b346104c45761209d36611a0a565b6005546120b2906001600160a01b03166107fe565b604051630ccc574960e41b8152602081600481855afa80156107cd57612107926020925f92610c275750604051632474521560e21b815260048101929092523360248301529092839190829081906044820190565b03915afa9081156107cd575f91612128575b5015610e255761085e9161369c565b612141915060203d60201161089b5761088d818361222f565b5f612119565b346104c4575f3660031901126104c45761215f6124ff565b6040518091602082016020835281518091526020604084019201905f5b81811061218a575050500390f35b82516001600160a01b031684528594506020938401939092019160010161217c565b346104c45760206104e26121bf36610a78565b91613741565b634e487b7160e01b5f52604160045260245ffd5b608081019081106001600160401b038211176121f457604052565b6121c5565b604081019081106001600160401b038211176121f457604052565b60a081019081106001600160401b038211176121f457604052565b90601f801991011681019081106001600160401b038211176121f457604052565b6040519061064f60408361222f565b6040519061064f6101008361222f565b6001600160401b0381116121f457601f01601f191660200190565b81601f820112156104c4578035906122a18261226f565b926122af604051948561222f565b828452602083830101116104c457815f926020809301838601378301015290565b346104c45760603660031901126104c4576004356024356122f081610633565b604435906001600160401b0382116104c457610588926020612319610fe494369060040161228a565b612321613a2c565b604051918183925191829101835e81015f815203902060018060a01b0383167f38383a2eb7bd8ee888f12fb942a2e22e84f2d7240f1f8541ad4bbddace6e34425f80a3612c11565b346104c45761237736611a0a565b60055461238c906001600160a01b03166107fe565b61239a6020611a8d30612bd9565b0381855afa9081156107cd575f91612455575b501590816123c4575b50611ade5761085e916137e1565b6040516366e943f160e01b8152909150602081600481855afa80156107cd5761241c926020925f92610c275750604051632474521560e21b815260048101929092523360248301529092839190829081906044820190565b03915afa9081156107cd575f91612436575b50155f6123b6565b61244f915060203d60201161089b5761088d818361222f565b5f61242e565b61246e915060203d60201161089b5761088d818361222f565b5f6123ad565b634e487b7160e01b5f52603260045260245ffd5b600c548110156124a057600c5f5260205f2001905f90565b612474565b346104c45760203660031901126104c457600435600c548110156104c457600c5f527fdf6966c971051c3d54ec59162606531493a51404a002842f56009d7e5cf4a8c701546040516001600160a01b039091168152602090f35b60405190600c548083528260208101600c5f5260205f20925f5b81811061252e57505061064f9250038361222f565b84546001600160a01b0316835260019485019487945060209093019201612519565b60085461051f906001600160a01b03166125686124ff565b6138a7565b519061064f82610633565b908160209103126104c4575161051f81610633565b6040513d5f823e3d90fd5b519081151582036104c457565b908160209103126104c45761051f90612598565b60207f4f4bedc5354096786a0fb857b12fdd6488cc973b2348cedb78088bdceaa906b5916125e5613a2c565b80600b55604051908152a1565b634e487b7160e01b5f52601160045260245ffd5b61260e613a2c565b6001600160a01b0381165f908152600d602052604090205460ff1615612682576001600160a01b0316803b156104c457604051638665120360e01b815260048101929092525f908290602490829084905af180156107cd5761266d5750565b806126795f809361222f565b8003126104c457565b632767039f60e01b5f9081526001600160a01b0391909116600452602490fd5b6126aa613a4a565b506008546126c3906001600160a01b03166116a56124ff565b6126cb613a2c565b6001600160a01b0383169133831415806127ae575b61278e576126ed8461360b565b80831161276a5750907f09fbb654e02253d6c37ecb473c5ed6f4557cac3fe5abc1d559523f6e257ee185916127378261272581613976565b809761273082613d63565b8433613e51565b6127405f601255565b604080516001600160a01b039092168252602082019290925290819081015b0390a261051f613d39565b632e52afbb60e21b5f526001600160a01b038516600452602483905260445260645ffd5b630c849df760e41b5f52336004526001600160a01b03841660245260445ffd5b50604051636eb1769f60e11b81526001600160a01b0385166004820152336024820152602081604481305afa80156107cd5783915f916127f0575b50106126e0565b612809915060203d602011610c4f57610c40818361222f565b5f6127e9565b908160209103126104c4575190565b6008546040516278744560e21b81529190602090839060049082906001600160a01b03165afa9182156107cd575f9261287a575b5060018060a01b03165f525f60205261286e60405f2054613976565b90818082109118021890565b61289491925060203d602011610c4f57610c40818361222f565b905f612852565b6128a3613f73565b60075460065481018091116109965742106128f9576128c0613f73565b60ff60a01b19600554166005557f5db9ee0a495bf2e6ff9c91a7834c1ba4fdd244a5e8aa4e537bd38aeae4b073aa6020604051338152a1565b6304a59e3b60e01b5f5260045ffd5b5f1981019190821161099657565b9190820391821161099657565b61292b612550565b600a549190828111156129d9575061296c915060205f915b6040516370a0823160e01b81526001600160a01b03909116600482015292839081906024820190565b03817f00000000000000000000000000000000000000000000000000000000000000006001600160a01b03165afa9081156107cd5761051f925f926129b8575b50808218908211021890565b6129d291925060203d602011610c4f57610c40818361222f565b905f6129ac565b820391821161099657602061296c9291612943565b60207f3ba130ec8df44f0a71243af1b7f9f4239616bafda97ae766b3c40a9d202b21a491612a1a613a2c565b80600955604051908152a1565b612a2f613a2c565b68056bc75e2d631000008111612a795760207f186e864438b783eec69fd7ce4871c28accfc0b45558ea08c48540f76094fecde91612a6b613a4a565b5080600f55604051908152a1565b6319ecf1a560e31b5f5260045ffd5b90612a91613a2c565b612a9a826139d1565b92612aa6818585613f92565b600854612abb906001600160a01b03166107fe565b92604051916278744560e21b8352602083600481885afa9384156107cd5786935f95612b78575b50612af183612af79697614091565b33613e51565b600854600490602090612b12906001600160a01b03166107fe565b6040516278744560e21b815292839182905afa9081156107cd577fe68a55afda2dca8343871fe0e5575a383291a40ae7d53e4dee12faf79cde144e91612b72915f9161142557506040805194855260208501919091523393918291820190565b0390a290565b612af7955083612b99612af19260203d602011610c4f57610c40818361222f565b965050612ae2565b60405160208101915f83526bffffffffffffffffffffffff199060601b16602182015260158152612bd360358261222f565b51902090565b604051600160f81b6020820190815260609290921b6bffffffffffffffffffffffff1916602182015260158152612bd360358261222f565b90612c1a613a4a565b5060046020612c4f6107fe600854612c3c60018060a01b03821661132d6124ff565b50612c45613a2c565b6107fe33886142f2565b6040516278744560e21b815292839182905afa9081156107cd5783905f92612d1d575b50612c8d612ca29293612c84836139ff565b95869133614328565b60085461139a906001600160a01b03166107fe565b600854600490602090612cbd906001600160a01b03166107fe565b6040516278744560e21b815292839182905afa9081156107cd577fe68a55afda2dca8343871fe0e5575a383291a40ae7d53e4dee12faf79cde144e9161275f915f9161142557506040805194855260208501919091523393918291820190565b612ca29250612d3d612c8d9160203d602011610c4f57610c40818361222f565b9250612c72565b604051637aaceb9560e01b81526020816004817f00000000000000000000000000000000000000000000000000000000000000006001600160a01b03165afa9081156107cd575f91612d94575090565b61051f915060203d6020116107c6576107b8818361222f565b612db5613a2c565b612dbd613a2c565b6005805460ff60a01b1916600160a01b1790556040513381527f62e78cea01bee320cd4e420270b5ea74000d11b0c9f74754ebdbfc544b05a25890602090a142600755565b6008546040516278744560e21b815290602090829060049082906001600160a01b03165afa80156107cd57612e3e915f91612e5e575b506139d1565b9060018060a01b03165f525f60205260405f205490818082109118021890565b612e77915060203d602011610c4f57610c40818361222f565b5f612e38565b612e85613a2c565b6001600160a01b0381165f908152600d60205260409020612eb090612eac905b5460ff1690565b1590565b61306a575f906001600160a01b0381165b600c5492838110156130625781612ef1612eda83612488565b90546001600160a01b039260039290921b1c821690565b1614612f01576001019250612ec1565b612f40612f3a612f25612f20612f649597612f1b88615584565b612908565b612488565b905460039190911b1c6001600160a01b031690565b91612488565b81546001600160a01b0393841660039290921b91821b9390911b1916919091179055565b612f6c6144ef565b6001600160a01b0381165f908152600d60205260409020805460ff19169055813b156104c45760405163ebf3113160e01b81525f8160048183875af180156107cd5761304e575b50600554612fc9906001600160a01b03166107fe565b803b156104c45760405163d55dd62b60e01b8152600260048201526001600160a01b039290921660248301525f908290604490829084905af180156107cd57613034575b507f66d72a91b52f63fb063c4f672763d7ef15ce4d7c9a268a7f9b5133e41c1709a55f80a2565b806130425f6130489361222f565b806104ba565b5f61300d565b806130425f61305c9361222f565b5f612fb3565b509150612f6c565b632767039f60e01b5f526001600160a01b031660045260245ffd5b919091613090613a4a565b506008546130a9906001600160a01b03166116a56124ff565b6130b1613a2c565b6130ba816139d1565b926001600160a01b03831692338414158061315b575b61313c576130dd8161352a565b808411613117575090612737858480946127307fd4383faec5079b2ec7ac0ff240326baa0d584b03d51b9742f7c1a034f6fc015b97613d63565b633fa733bb60e21b5f526001600160a01b03909116600452602483905260445260645ffd5b638b27f8ed60e01b5f52336004526001600160a01b031660245260445ffd5b50604051636eb1769f60e11b81526001600160a01b0382166004820152336024820152602081604481305afa80156107cd5786915f9161319d575b50106130d0565b6131b6915060203d602011610c4f57610c40818361222f565b5f613196565b6131c4613a2c565b6001600160a01b0381165f908152600d602052604090205460ff1615612682576001600160a01b0316803b156104c4576040516361f5cd8b60e01b815260048101929092525f908290602490829084905af180156107cd5761266d5750565b61322b612550565b600a5490818111156132bd57505061326a60205f925b6040516370a0823160e01b81526001600160a01b03909116600482015291829081906024820190565b03817f00000000000000000000000000000000000000000000000000000000000000006001600160a01b03165afa80156107cd5761051f926132b8925f926129b85750808218908211021890565b6139ff565b810390811161099657602061326a9192613241565b9060125480420390428211610996576011548092106134cd575050426012556132f9613a4a565b50613302613a2c565b61330c8183614593565b613321602061331b8385614556565b01613520565b600854600490613339906001600160a01b03166107fe565b6040516278744560e21b81526001600160a01b038281169491939116841491602091849182905afa9182156107cd575f926134ac575b505f925f905b858210613402575050156133c4575b505061338f91614a24565b60405190815233907f4bd1a9dd6e8410a6d85178f9a75d601cb7b266e228771c213fe39ffffad2d3299080602081015b0390a2565b600954808211156133f3576133d891612916565b106133e4575f80613384565b633b5391f960e01b5f5260045ffd5b63ff105df960e01b5f5260045ffd5b9093604061341186888a614571565b01355f191461349d5761343390604061342b87898b614571565b013590613969565b93821561347357816001600160a01b03613453602061331b858b8d614571565b1603613464576001905b0190613375565b633abef25360e21b5f5260045ffd5b816001600160a01b0361348f61348a848a8c614571565b613520565b16036134645760019061345d565b63cf7ab75360e01b5f5260045ffd5b6134c691925060203d602011610c4f57610c40818361222f565b905f61336f565b630924dbf160e21b5f526004526024524260445260645ffd5b916134ef613a2c565b5f5b8281101561351a576001906135148160051b86013561350f81610633565b614d5b565b016134f1565b50915050565b3561051f81610633565b6135326135b5565b9060018060a01b03165f525f60205261286e60405f2054613976565b613556613a2c565b6001600160a01b0381165f908152600d602052604090205460ff1615612682576001600160a01b0316803b156104c45760405163497af41960e11b815260048101929092525f908290602490829084905af180156107cd5761266d5750565b60085461051f906001600160a01b03166135cd6124ff565b614f67565b60207f4faeac5aec9fa2e6f82ae7ccfef27a03ca3ff9d8c5356fea9acb2caad1c4c344916135fe613a2c565b80600a55604051908152a1565b612e3e6132b86135b5565b61361e613a2c565b60115460408051918252602082018390527f5953b565c074c2cce1866b4e69c9efc4908556bb6fca70f735907c94d940551591a1601155565b60207f3cf175d91d8c5823f3729423b5a64130e40d4b09e88c6dc1925a260f26818c2591613683613a2c565b80600655604051908152a1565b61064f9061350f613a2c565b9061064f916136a9613a4a565b506136b2613a2c565b91906136be8184614593565b6008546001600160a01b0316925f5b8281106136e357506136e0929350614a24565b50565b6136f66136f1828585614571565b614866565b60208101516001600160a01b03168614908690821561372d575b505061371e576001016136cd565b630394d1d160e21b5f5260045ffd5b516001600160a01b0316149050855f613710565b9161374a613a4a565b5060085461377d906107fe9061376b6001600160a01b0382166116a56124ff565b613773613a2c565b6107fe848761501e565b6040516278744560e21b81529390602085600481845afa9283156107cd57612af1955f946137be575b50612ca293946137b584613976565b96878094614091565b612ca294506137db9060203d602011610c4f57610c40818361222f565b936137a6565b919060125492834203934285116109965760115480951061380f575061064f929350426012556136a9613a4a565b8490630924dbf160e21b5f526004526024524260445260645ffd5b604051602081017fa44c7cc604645fc9d906e0a5aeb821ecf76e473a1a4d03393ebd52161430e41a81526020825261386360408361222f565b9051902060ff191690565b604051602081017fa9898051640582db44f19359a5df62a03dbff55353a9f388ea332d75dfa80fa081526020825261386360408361222f565b906138b061382a565b5c61394d576138be916150ed565b5f9190825b815184101561394857600460206138f36001600160a01b036138e58887613b76565b51166001600160a01b031690565b6040516278744560e21b815292839182905afa80156107cd57600192613920925f92613928575b50613969565b9301926138c3565b61394191925060203d8111610c4f57610c40818361222f565b905f61391a565b925050565b505061395761386e565b5c90565b906001820180921161099657565b9190820180921161099657565b61397e612550565b906001820180921161099657600254600181018091116109965761051f925f92615185565b6139ab612550565b906001820180921161099657600254600181018091116109965761051f92600192615185565b6002549060018201809211610996576139e8612550565b600181018091116109965761051f92600192615185565b600254906001820180921161099657613a16612550565b600181018091116109965761051f925f92615185565b60ff60055460a01c16613a3b57565b63d93c066560e01b5f5260045ffd5b600f54613a5e670de0b6b3a7640000614113565b14613af757613a6f60105442612916565b8015613af2576040516318160ddd60e01b815290602082600481305afa80156107cd57613aa2925f91610ff45750614121565b9081613aaa57565b613abb82613ab6612d44565b615502565b613ac442601055565b6040518281527f698f29fe990d4e7770f7e74cd309da261dd03ca828f7bb3c2ea8b8c9adcc0ecd90602090a1565b505f90565b613b0042601055565b5f90565b6001600160401b0381116121f45760051b60200190565b90613b2582613b04565b613b32604051918261222f565b8281528092613b43601f1991613b04565b01905f5b828110613b5357505050565b602090604051613b62816121f9565b5f81525f8382015282828501015201613b47565b80518210156124a05760209160051b010190565b5f1981146109965760010190565b90613ba291614169565b90613bad8251613b1b565b5f915f905f5b855180821015613c6d575f1981019081116109965781148015613c2d575b613bde575b600101613bb3565b9193613c25613c1f600192613bf3868a613b76565b51613bfe8989613b76565b52613c098888613b76565b506020613c16878b613b76565b51015190613969565b95613b8a565b929050613bd6565b50613c68612ea5613c4f613c41848a613b76565b51516001600160a01b031690565b6001600160a01b03165f908152600e6020526040902090565b613bd1565b5050935061064f92613c80918352615229565b613c898161523c565b61533e565b604051602081017f98932279f8646d348f86cf154406d1fab3c6a0c52686d604c7d4a6a14003810881526020825261386360408361222f565b604051602081017f410d83ac3c7a0c2a0669e43e3a5ca6694ee49455f748efa9954a95c3752e9fc881526020825261386360408361222f565b604051602081017f2e756c3932ba771b80f1bae53d1177d9f7a4ced0ce66d74053b09f874cec6ffe81526020825261386360408361222f565b5f613d4261382a565b5d5f613d4c613c8e565b5d5f613d56613cc7565b5d5f613d60613d00565b5d565b613d6b613cc7565b5c613d7581613b1b565b905f5b818110613df8575050905f5b8251811015613df3576020613d998285613b76565b510151828110613db95750613c41613db49161064f94613b76565b614091565b80939293613dce575b50600101919091613d84565b808294613de7613dec93613db4613c4160019789613b76565b612916565b9290613dc2565b505050565b80613e0c600192613e07615305565b615745565b5c613e1982613e076152cc565b5c60405191613e27836121f9565b848060a01b031682526020820152613e3f8286613b76565b52613e4a8185613b76565b5001613d78565b6001600160a01b038084169590821693909291868503613ee1575b5090613e9a837ffbde797d201c681b91056529119e0b02407c7bb96a4a2c75c01fc9667232c8db9493615361565b613ec585827f000000000000000000000000000000000000000000000000000000000000000061541f565b6040805195865260208601929092526001600160a01b031693a4565b5f8781526001602090815260408083206001600160a01b038516845290915290205460018101613f12575b50613e6c565b848110613f585793809392613f4f613e9a93837ffbde797d201c681b91056529119e0b02407c7bb96a4a2c75c01fc9667232c8db980390836151e3565b92939450613f0c565b849086637dc7a0d960e11b5f5260045260245260445260645ffd5b60ff60055460a01c1615613f8357565b638dfc202b60e01b5f5260045ffd5b90336001600160a01b03841614159081614003575b50613fe357613fb58261281e565b91828211613fc257505050565b633fa733bb60e21b5f526001600160a01b031660045260245260445260645ffd5b638b27f8ed60e01b5f52336004526001600160a01b03821660245260445ffd5b604051636eb1769f60e11b81526001600160a01b0385166004820152336024820152909150602081604481305afa9081156107cd575f91614047575b50105f613fa7565b614060915060203d602011610c4f57610c40818361222f565b5f61403f565b6040519061407560208361222f565b5f8252565b60409061051f9392815281602082015201906104ea565b60018060a01b0316906040516140a860208261222f565b5f8152823b156104c4576140d5925f9283604051809681958294630278811f60e31b84526004840161407a565b03925af180156107cd576140e65750565b5f61064f9161222f565b634e487b7160e01b5f52601260045260245ffd5b811561410e570490565b6140f0565b905f91156001171561099657565b906301e13380600f54049068056bc75e2d631000009182018083116109965761414b9183916157bd565b80830290838204148315171561099657049081039081116109965790565b61417b614176825161395b565b613b1b565b925f90815b835183101561423f57600460206141ad6107fe6107fe6141a0888a613b76565b516001600160a01b031690565b6040516278744560e21b815292839182905afa80156107cd57600192614217925f9261421f575b506141e26141a08789613b76565b6141fc6141ed612250565b6001600160a01b039092168252565b82602082015261420c878b613b76565b5261391a868a613b76565b920191614180565b61423891925060203d8111610c4f57610c40818361222f565b905f6141d4565b6040516278744560e21b815291949192506001600160a01b0390911690602083600481855afa9182156107cd576142c2946142b4945f946142cb575b509061391a9161429b61428c612250565b6001600160a01b039093168352565b84602083015251906142ad828a613b76565b5287613b76565b6142bd8461523c565b615460565b61064f82615473565b61391a929194506142ea9060203d602011610c4f57610c40818361222f565b93909161427b565b6142fb82612923565b9182821161430857505050565b633c8097d960e11b5f5260018060a01b031660045260245260445260645ffd5b6040516323b872dd60e01b60208201526001600160a01b03909116602482018190523060448301526064808301859052825292937fdcbc1c05240f31ff3ad067ef1ee35ce4997762752e3a095284754544f4c709d79290916143b59061438f60848261222f565b7f0000000000000000000000000000000000000000000000000000000000000000615765565b6143bf8282615502565b6040805195865260208601929092526001600160a01b031693a3565b60405163095ea7b360e01b81526001600160a01b038216600482015260248101839052602081806044810103815f7f00000000000000000000000000000000000000000000000000000000000000006001600160a01b03165af180156107cd5761449c575b506001600160a01b031690614453614066565b823b156104c45761447d925f9283604051809681958294632db6d39960e01b84526004840161407a565b03925af180156107cd5761448e5750565b806130425f61064f9361222f565b6144b49060203d60201161089b5761088d818361222f565b614440565b6144c282613223565b918282116144cf57505050565b63284ff66760e01b5f5260018060a01b031660045260245260445260645ffd5b600c548015614542575f19810190600c548210156124a057600c5f8190527fdf6966c971051c3d54ec59162606531493a51404a002842f56009d7e5cf4a8c690910180546001600160a01b031916905555565b634e487b7160e01b5f52603160045260245ffd5b90156124a057803590609e19813603018212156104c4570190565b91908110156124a05760051b81013590609e19813603018212156104c4570190565b600b548211614853578115614844575f5b8281106145b057505050565b6145bb818484614571565b356145c581610633565b60206145d2838686614571565b0135906145de82610633565b60406145eb848787614571565b01358015614828576001600160a01b03831691821561480c576001600160a01b03811680156147f0576001600160a01b0385165f908152600d6020526040902061463890612eac90612ea5565b6147d4576001600160a01b0382165f908152600d6020526040902061466090612eac90612ea5565b6147b857906020600492604051938480926318ca2a4f60e11b82525afa9182156107cd575f92614798575b5081831161477457505060405163ad5a356f60e01b815290602082600481865afa9182156107cd575f92614754575b5081811161473257505060206004916040519283809263dbd5edc760e01b82525afa9081156107cd575f91614714575b50156146f957506001016145a4565b630b9cb3f960e11b5f526001600160a01b031660045260245ffd5b61472c915060203d8111610c4f57610c40818361222f565b5f6146ea565b63016b606760e21b5f526001600160a01b03841660045260245260445260645ffd5b61476d91925060203d8111610c4f57610c40818361222f565b905f6146ba565b637d7bf8e160e01b5f526001600160a01b031660045260249190915260445260645ffd5b6147b191925060203d8111610c4f57610c40818361222f565b905f61468b565b63c80e655f60e01b5f526001600160a01b03821660045260245ffd5b63c80e655f60e01b5f526001600160a01b03851660045260245ffd5b632767039f60e01b5f526001600160a01b03821660045260245ffd5b632767039f60e01b5f526001600160a01b03841660045260245ffd5b630a16952b60e21b5f526001600160a01b03831660045260245ffd5b6304dcdcd560e31b5f5260045ffd5b5063899a5d8160e01b5f5260045260245ffd5b60a0813603126104c4576040519061487d82612214565b803561488881610633565b825261489660208201610644565b60208301526040810135604083015260608101356001600160401b0381116104c4576148c5903690830161228a565b60608301526080810135906001600160401b0382116104c4576148ea9136910161228a565b608082015290565b9035601e19823603018112156104c45701602081359101916001600160401b0382116104c45781360383136104c457565b908060209392818452848401375f828201840152601f01601f1916010190565b82602082016020835252604081019260408160051b83010193835f91609e1982360301945b848410614979575050505050505090565b90919293949596603f198282030183528735878112156104c4576020614a13600193878394019081356149ab81610633565b868060a01b03168152838201356149c181610633565b868060a01b03168482015260408201356040820152614a056149fa6149e960608501856148f2565b60a0606086015260a0850191614923565b9260808101906148f2565b916080818503910152614923565b990193019401929195949390614968565b5f9291835b818110614a6457506133bf7f507d790d4c0157977bb25bd8941f5f91c3118eab68b257c1d1c0825cb0051fd991604051918291339583614943565b93614a736136f1868486614571565b6020810151909190614a8d906001600160a01b03166107fe565b8251909290614aa4906001600160a01b03166107fe565b9060408101515f1981145f14614bef57506040516278744560e21b81526020816004816001600160a01b0387165afa9081156107cd575f91614bd1575b50935b60405163dbd5edc760e01b81526001600160a01b039190911690602081600481855afa9081156107cd575f91614bb3575b506040516278744560e21b8152602081600481865afa9081156107cd57614b449188915f91614b955750613969565b11614b7a57849282600196614b6e9360806060614b739997015193015193898060a01b0316615860565b613969565b9401614a29565b63077fc1ab60e51b5f526001600160a01b031660045260245ffd5b614bad915060203d8111610c4f57610c40818361222f565b5f61391a565b614bcb915060203d8111610c4f57610c40818361222f565b5f614b15565b614be9915060203d8111610c4f57610c40818361222f565b5f614ae1565b93614ae4565b81601f820112156104c457805190614c0c8261226f565b92614c1a604051948561222f565b828452602083830101116104c457815f9260208093018386015e8301015290565b6020818303126104c4578051906001600160401b0382116104c45701610100818303126104c457614c6a61225f565b91614c748261256d565b8352614c826020830161256d565b6020840152614c936040830161256d565b6040840152606082015160608401526080820151608084015260a082015160a084015260c0820151916001600160401b0383116104c457614cdb60e092614ce6948301614bf5565b60c085015201612598565b60e082015290565b600c5490680100000000000000008210156121f45760018201600c55600c548210156124a057600c5f527fdf6966c971051c3d54ec59162606531493a51404a002842f56009d7e5cf4a8c790910180546001600160a01b0319166001600160a01b03909216919091179055565b6001600160a01b038116908115614f1f576001600160a01b0381165f908152600d60205260409020614d8c90612ea5565b614f04576001600160a01b0381165f908152600d60205260409020614db890805460ff19166001179055565b60405163303dbaf360e01b8152602081600481865afa80156107cd57614e09915f91614ee5575b506001600160a01b0383165f908152600e60205260409020901560ff801983541691151516179055565b6040516330fe427560e21b81525f81600481865afa9081156107cd57614e42916107fe915f91614ec3575b50516001600160a01b031690565b614eb457813b156104c457604051634545ccbb60e11b8152905f8260048183875af19182156107cd57614e7a92614ea0575b50614cee565b7fcb4a29d359e86f179111dcba8714def1a859612f729f2d224d13efeac51b36bc5f80a2565b806130425f614eae9361222f565b5f614e74565b631089e45f60e21b5f5260045ffd5b614edf91503d805f833e614ed7818361222f565b810190614c3b565b5f614e34565b614efe915060203d60201161089b5761088d818361222f565b5f614ddf565b637eadea0960e11b5f526001600160a01b031660045260245ffd5b63210e96cb60e01b5f5260045ffd5b604051602081017f3d5fcbe10cf86b117683d0d4967b64a0c0fa4bdda7d07499d3c9dc5e388b694081526020825261386360408361222f565b91905f92614f73613c8e565b5c6150125790614f82916150ed565b5f5b815180821015613df357614f9790612908565b81148015614ff6575b614fad575b600101614f84565b9260046020614fc26107fe6141a08887613b76565b6040516278744560e21b815292839182905afa80156107cd57600192614fee925f926139285750613969565b939050614fa5565b5061500d612ea5613c4f6107fe6141a08587613b76565b614fa0565b50509050613957614f2e565b336001600160a01b03831614158061508c575b61506c5761503e82612e02565b9182821161504b57505050565b632e52afbb60e21b5f526001600160a01b031660045260245260445260645ffd5b630c849df760e41b5f52336004526001600160a01b03821660245260445ffd5b50604051636eb1769f60e11b81526001600160a01b0383166004820152336024820152602081604481305afa80156107cd5782915f916150ce575b5010615031565b6150e7915060203d602011610c4f57610c40818361222f565b5f6150c7565b91825190600182018092116109965761510582613b04565b91615113604051938461222f565b808352615122601f1991613b04565b013660208401375f5b8451811015615165576001906001600160a01b036151498288613b76565b51166151558286613b76565b90838060a01b031690520161512b565b5092615175909291925183613b76565b6001600160a01b03909116905290565b919061519282828561565a565b9360048110156151cf5760018091161492836151ba575b505050151581018091116109965790565b90918093501561410e570915155f80806151a9565b634e487b7160e01b5f52602160045260245ffd5b6001600160a01b03169081156106fb576001600160a01b038116156106e857615226915f52600160205260405f209060018060a01b03165f5260205260405f2090565b55565b615231614f2e565b5d6001613d60613c8e565b905f905b82518210156152c75760018201808311610996575b83518110156152bc57600190602061526d8587613b76565b510151602061527c8388613b76565b5101511061528b575b01615255565b6152958186613b76565b516152a08587613b76565b516152ab8388613b76565b526152b68587613b76565b52615285565b509060010190615240565b915050565b604051602081017f8f2b8f2fcb6f2e256bfd8c09fcca564574482705250cb5c8dbe56c4f4fce37c881526020825261386360408361222f565b604051602081017f05abb041f8dc8945baa4f2792e2109e9d9e22dea3aa665ccf2f030209c7415ad81526020825261386360408361222f565b61064f9061534a6152cc565b615352615305565b9061535b613cc7565b926156ec565b6001600160a01b0381169190821561540c576001600160a01b0381165f908152602081905260409020548281106153e957917fddf252ad1be2c89b69c2b068fc378daa952ba7f163c4a11628f55a4df523b3ef916153d3825f9695039160018060a01b03165f525f60205260405f2090565b55600280548290039055604051908152602090a3565b63391434e360e21b5f526001600160a01b0390911660045260245260445260645ffd5b634b637e8f60e11b5f525f60045260245ffd5b60405163a9059cbb60e01b60208201526001600160a01b0392909216602483015260448083019390935291815261064f9161545b60648361222f565b615765565b61546861386e565b5d6001613d6061382a565b61064f90604051602081017f5720a3c83eb8242bbe1a4159c3b45ed663cd9e207a02bdea64844c6c583da9dd8152602082526154b060408361222f565b60ff199151902016604051602081017fb4b00da68d43fac77a22bb187c63cb88989e294cfebeb79b3789ae1629639d988152602082526154f160408361222f565b9051902060ff19169061535b613d00565b6001600160a01b038116919082156155715760025490828201809211610996576002919091556001600160a01b03165f90815260208181526040822091927fddf252ad1be2c89b69c2b068fc378daa952ba7f163c4a11628f55a4df523b3ef92818154019055604051908152a3565b63ec442f0560e01b5f525f60045260245ffd5b60405163dbd5edc760e01b81526001600160a01b03821690602081600481855afa9081156107cd575f9161563b575b5061561f576020600491604051928380926278744560e21b82525afa9081156107cd575f91615600575b506155e55750565b63ca4a18b360e01b5f526001600160a01b031660045260245ffd5b615619915060203d602011610c4f57610c40818361222f565b5f6155dd565b632a4d8fbb60e01b5f526001600160a01b03821660045260245ffd5b615654915060203d602011610c4f57610c40818361222f565b5f6155b3565b91818302915f19818509938380861095039480860395146156df57848311156156d25790829109815f0382168092046002816003021880820260020302808202600203028082026002030280820260020302808202600203028091026002030293600183805f03040190848311900302920304170290565b60116003841502186158d8565b50509061051f9250614104565b91935f5b835181101561573c578061570660019285615745565b60206157128388613b76565b510151905d6157218188615745565b828060a01b036157318388613b76565b515116905d016156f0565b5093505051905d565b906040519060208201928352604082015260408152612bd360608261222f565b905f602091828151910182855af11561258d575f513d6157b457506001600160a01b0381163b155b6157945750565b635274afe760e01b5f9081526001600160a01b0391909116600452602490fd5b6001141561578d565b90929181158015615858575b61584b576001841661584557805b936157e28260011c90565b9060011c92835b6157f35750505050565b80800290808204036104c4578181019081106104c4578290049260018116615820575b60011c92836157e9565b94838102908482041415841515166104c4578181019081106104c45782900494615816565b816157d7565b919215159050613af25790565b5083156157c9565b9192916001600160a01b031690813b156104c4575f80946158c76158b5976040519889978896879563c38a6f0b60e01b8752600487015260018060a01b031660248601526080604486015260848501906104ea565b838103600319016064850152906104ea565b03925af180156107cd5761266d5750565b634e487b715f526020526024601cfdfea264697066735822122080a22fce7297ab64829177a6a230cd907e0751a7373d0428e29233e6844f63a264736f6c634300081b003360a080604052346104cc57611df0803803809161001c8285610512565b833981016040828203126104cc5781516001600160401b0381116104cc57820190610100828203126104cc5760405190610055826104f6565b82516001600160401b0381116104cc57830181601f820112156104cc578051906001600160401b038211610429576040519261009b601f8401601f191660200185610512565b828452602083830101116104cc57815f9260208093018386015e8301015281526100c760208301610535565b908160208201526100da60408401610535565b9260408201928484526100ef60608301610535565b606084019081526080830151946080850195865260a08401519260a0860193845261013b602061012d60e060c08901519860c08b01998a5201610549565b9a60e089019b8c5201610535565b976001600160a01b03908116911680156104e3576040516301ffc9a760e01b815263a237592160e01b6004820152602081602481855afa9081156104d8575f9161049a575b5015610488575f80546001600160a01b031916919091179055801561047957608052516001600160a01b03161561046a5780516001600160a01b03161561045b578351511561044c576001600160a01b036101d9610556565b161561043d57516001600160a01b03166101f1610556565b9451915192519351965115159460e06040519161020d836104f6565b5f83526001600160a01b03166020830181905260408301849052606083018590526080830186905260a0830187905260c083018a90529101958652600180546001600160a01b031990811690915560028054821690921790915560038054909116909117905560045560055560065582516001600160401b03811161042957600754600181811c9116801561041f575b602082101461040b57601f81116103a8575b506020601f821160011461034557819293945f9261033a575b50508160011b915f199060031b1c1916176007555b51151560ff80196008541691161760085560018060a01b031660018060a01b0319600154161760015560405161182c90816105c482396080518181816103df0152818161084501528181610f900152818161100101526115e70152f35b015190505f806102c8565b601f1982169060075f52805f20915f5b81811061039057509583600195969710610378575b505050811b016007556102dd565b01515f1960f88460031b161c191690555f808061036a565b9192602060018192868b015181550194019201610355565b60075f527fa66cc928b5edb82af9bd49922954155ab7b0942694bea4ce44661d9a8736c688601f830160051c81019160208410610401575b601f0160051c01905b8181106103f657506102af565b5f81556001016103e9565b90915081906103e0565b634e487b7160e01b5f52602260045260245ffd5b90607f169061029d565b634e487b7160e01b5f52604160045260245ffd5b633a4f9cdb60e21b5f5260045ffd5b63268c072960e01b5f5260045ffd5b637ff57ef160e11b5f5260045ffd5b63b53c493160e01b5f5260045ffd5b63f1634df960e01b5f5260045ffd5b6347bd7c1d60e01b5f5260045260245ffd5b90506020813d6020116104d0575b816104b560209383610512565b810103126104cc576104c690610549565b5f610180565b5f80fd5b3d91506104a8565b6040513d5f823e3d90fd5b6347bd7c1d60e01b5f525f60045260245ffd5b61010081019081106001600160401b0382111761042957604052565b601f909101601f19168101906001600160401b0382119082101761042957604052565b51906001600160a01b03821682036104cc57565b519081151582036104cc57565b608051604051628bec5760e51b815290602090829060049082906001600160a01b03165afa9081156104d8575f9161058c575090565b90506020813d6020116105bb575b816105a760209383610512565b810103126104cc576105b890610535565b90565b3d915061059a56fe6080806040526004361015610012575f80fd5b5f905f3560e01c90816301e1d1141461135c5750806306fdde0314611329578063117d8ae0146112fd57806313c408f8146112765780632db6d399146110b4578063303dbaf3146110925780633194549e14611075578063372709361461104d5780635b0f83f314610fdc57806361d027b314610f6b57806361f5cd8b14610f1957806369b3054b14610eb7578063780469bb1461093957806379502c55146108af5780637aaceb951461082057806386651203146107ce5780638a8b99761461077157806392f5e8321461071f578063ad5a356f14610702578063c38a6f0b1461053d578063c3f909d41461040e578063c9c667e3146103c9578063ce5c7f61146101f5578063dbd5edc7146101d7578063ebf31131146101675763fc0c546a1461013c575f80fd5b346101645780600319360112610164576003546040516001600160a01b039091168152602090f35b80fd5b503461016457806003193601126101645761018061167e565b156101c4576001600160601b0360a01b600154166001557f7cb941d7b1708e5b3bcd35ca960d6c6311188cec18886e5b67630552676b04876020604051338152a180f35b631564c0e160e11b815233600452602490fd5b50346101645780600319360112610164576020600454604051908152f35b50346101645760203660031901126101645760043567ffffffffffffffff81116103c557610227903690600401611403565b5050604051628bec5760e51b8152602081600481305afa9081156103ba57829161038b575b506001600160a01b0316330361037857604051808091606051608090855b8181106103565750505003902060405180606051608090855b818110610340575050508190039020916040519283927f3e3e7958121b3e39c7a49392d1aa9cdce870c2a059744f9e15cf66fff78654558380a36040820190604083526060518092526060830191608090825b81811061031e57505050828203602084015260206060519283815201916080915b818110610305575050500390f35b82518452859450602093840193909201916001016102f7565b82516001600160a01b03168552869550602094850194909201916001016102d6565b8251845260209384019390920191600101610283565b82516001600160a01b031684528594506020938401939092019160010161026a565b631184b31b60e21b815233600452602490fd5b6103ad915060203d6020116103b3575b6103a58183611498565b8101906115b4565b5f61024c565b503d61039b565b6040513d84823e3d90fd5b5080fd5b50346101645780600319360112610164576040517f00000000000000000000000000000000000000000000000000000000000000006001600160a01b03168152602090f35b503461016457806003193601126101645760e060405161042d8161147b565b8281528260208201528260408201528260608201528260808201528260a0820152606060c082015201526040516104638161147b565b6001546001600160a01b03908116825260025481166020830190815260035490911660408301908152600454606084019081526005546080850190815260065460a0860190815293949361052f92916104ba6114d2565b9260c0870193845260ff600854169560e08801961515875260405198899860208a5260018060a01b0390511660208a015260018060a01b03905116604089015260018060a01b0390511660608801525160808701525160a08601525160c08501525161010060e08501526101208401906113df565b905115156101008301520390f35b50346106be5760803660031901126106be5760043561055a611465565b9060443567ffffffffffffffff81116106be5761057b903690600401611403565b909260643567ffffffffffffffff81116106be5761059d903690600401611403565b6105a561167e565b156106ef576105b391611711565b60035460405163095ea7b360e01b81526001600160a01b038381166004830152602482018690529091602091839160449183915f91165af180156106b3576106c2575b506001600160a01b031692833b156106be578160645f926040519485938492632db6d39960e01b845288600485015260406024850152816044850152848401378181018301859052601f01601f1916810103018183875af180156106b35761069e575b50600354604080516001600160a01b039092168252602082019290925230917f9f784fc02a186f1c98b2d9f15fda084da27cdd291a3785d978f91911d880516b91a380f35b6106ab9193505f90611498565b5f915f610659565b6040513d5f823e3d90fd5b5f80fd5b6106e39060203d6020116106e8575b6106db8183611498565b81019061163e565b6105f6565b503d6106d1565b631564c0e160e11b5f523360045260245ffd5b346106be575f3660031901126106be576020600654604051908152f35b346106be5760203660031901126106be5760043561073b61167e565b156106ef576020817fb6ac66853c4e59c71e118d25ab494bb847c4e5eb0c8894898c5343e6f61afc1292600655604051908152a1005b346106be575f3660031901126106be5761078961167e565b156106ef57336001600160601b0360a01b60015416176001557f55489ce0259bd691120d8860861be1c401c7c16a3cd268d21045756af4ecc5ca6020604051338152a1005b346106be5760203660031901126106be576004356107ea61167e565b156106ef576020817f333b26cca69716ad4680ddb07663f5bfb4f06045671f336af9a83690a3ae00f992600455604051908152a1005b346106be575f3660031901126106be57604051637aaceb9560e01b81526020816004817f00000000000000000000000000000000000000000000000000000000000000006001600160a01b03165afa80156106b3576020915f91610892575b506040516001600160a01b039091168152f35b6108a99150823d84116103b3576103a58183611498565b8261087f565b346106be575f3660031901126106be576001546002546003546004546005546006546001600160a01b03948516958516949093169261092d92916108f16114d2565b9260ff60085416956040519889988952602089015260408801526060870152608086015260a085015261010060c08501526101008401906113df565b90151560e08301520390f35b346106be5760203660031901126106be5760043567ffffffffffffffff81116106be57366023820112156106be578060040135610975816114ba565b916109836040519384611498565b8183526024602084019260051b820101903682116106be57602401915b818310610e9757604051628bec5760e51b81528490602081600481305afa9081156106b3575f91610e78575b506001600160a01b03163303610e65578051610a006109ea826114ba565b916109f86040519384611498565b8083526114ba565b602082019190601f1901368337825192610a32610a1c856114ba565b94610a2a6040519687611498565b8086526114ba565b6020850190601f19013682376003546040516370a0823160e01b81523060048201526001600160a01b0390911690602081602481855afa9081156106b3575f91610e33575b50610cec575b505f5b8251811015610bd95760249060206001600160a01b03610aa08387611656565b5116604051938480926370a0823160e01b82523060048301525afa9182156106b3575f92610ba6575b5081610ada575b6001915001610a80565b6001600160a01b03610aec8286611656565b5116916024610af96115d3565b9360206001600160a01b03610b0e868a611656565b5116604051938480926370a0823160e01b82523060048301525afa9182156106b3575f92610b72575b5090600194610b4592611762565b828060a01b03610b558387611656565b5116610b618388611656565b52610b6c8289611656565b52610ad0565b91506020823d8211610b9e575b81610b8c60209383611498565b810103126106be579051906001610b37565b3d9150610b7f565b9091506020813d8211610bd1575b81610bc160209383611498565b810103126106be57519087610ac9565b3d9150610bb4565b8386838760405180855183905f5b818110610ccd5750505081900390209260405180825185905f5b818110610cb7575050508190039020946040519586957f46b8771620f6acf56cb03d3e835ea8024c7dcbcf05fcc3f6ade9e19d1a3e212b5f80a3604085019060408652518091526060850192905f5b818110610c95575050506020908483038286015251918281520191905f5b818110610c7c575050500390f35b8251845285945060209384019390920191600101610c6e565b82516001600160a01b0316855287965060209485019490920191600101610c50565b8251845260209384019390920191600101610c01565b82516001600160a01b0316845260209384019390920191600101610be7565b6001546040516330fe427560e21b815290608090829060049082906001600160a01b03165afa9081156106b3575f91610d9d575b50516040516370a0823160e01b815230600482015291906001600160a01b0316602083602481855afa9182156106b3575f92610d67575b610d619350611762565b85610a7d565b91506020833d602011610d95575b81610d8260209383611498565b810103126106be57610d61925191610d57565b3d9150610d75565b90506080813d608011610e2b575b81610db860809383611498565b810103126106be57604051906080820182811067ffffffffffffffff821117610e17576040528051906001600160a01b03821682036106be57606091835260208101516020840152604081015160408401520151606082015287610d20565b634e487b7160e01b5f52604160045260245ffd5b3d9150610dab565b90506020813d602011610e5d575b81610e4e60209383611498565b810103126106be575187610a77565b3d9150610e41565b631184b31b60e21b5f523360045260245ffd5b610e91915060203d6020116103b3576103a58183611498565b826109cc565b82356001600160a01b03811681036106be578152602092830192016109a0565b346106be5760403660031901126106be5760043560038110156106be57602090610edf611465565b604051908382019260f81b83526001600160601b03199060601b16602182015260158152610f0e603582611498565b519020604051908152f35b346106be5760203660031901126106be57600435610f3561167e565b156106ef576020817ffbe2d5c01ea8ba5596d6c4e6c82c6d4a0a0ee1128689993a4a5ba0169273d69f92600555604051908152a1005b346106be575f3660031901126106be576040516361d027b360e01b81526020816004817f00000000000000000000000000000000000000000000000000000000000000006001600160a01b03165afa80156106b3576020915f9161089257506040516001600160a01b039091168152f35b346106be575f3660031901126106be57604051635b0f83f360e01b81526020816004817f00000000000000000000000000000000000000000000000000000000000000006001600160a01b03165afa80156106b3576020915f9161089257506040516001600160a01b039091168152f35b346106be575f3660031901126106be576001546040516001600160a01b039091168152602090f35b346106be575f3660031901126106be576020600554604051908152f35b346106be575f3660031901126106be57602060ff600854166040519015158152f35b346106be576110c236611431565b604051631b93849b60e11b8152602081600481305afa9081156106b3575f91611257575b506110ef61167e565b15611190575b506110ff91611711565b6003546040516323b872dd60e01b602082015233602482015230604482015260648082018490528152611145916001600160a01b0316611140608483611498565b61179e565b600354604080516001600160a01b039092168252602082019290925233917fcbaa1442ac205415c9d69643e7b60ec73d1de35dbc807c21ec288c70ddc4207b9190819081015b0390a2005b604051628bec5760e51b8152602081600481305afa9081156106b3575f91611238575b506001600160a01b031633146110f55760405163d25dd10160e01b815233600482015290602090829060249082906001600160a01b03165afa9081156106b3575f91611219575b501561120657836110f5565b638f7a567d60e01b5f523360045260245ffd5b611232915060203d6020116106e8576106db8183611498565b846111fa565b611251915060203d6020116103b3576103a58183611498565b856111b3565b611270915060203d6020116103b3576103a58183611498565b846110e6565b346106be5761128436611431565b61128c61167e565b156106ef5761129a91611711565b6003546112b390829033906001600160a01b0316611762565b600354604080516001600160a01b039092168252602082019290925233917fd5e872c5ecfb1bb8820b2e6a20e31b883682282da886621541f71e31ec11947e91908190810161118b565b346106be575f3660031901126106be5760206113176115d3565b6040516001600160a01b039091168152f35b346106be575f3660031901126106be576113586113446114d2565b6040519182916020835260208301906113df565b0390f35b346106be575f3660031901126106be576003546370a0823160e01b8252306004830152602090829060249082906001600160a01b03165afa80156106b3575f906113ac575b602090604051908152f35b506020813d6020116113d7575b816113c660209383611498565b810103126106be57602090516113a1565b3d91506113b9565b805180835260209291819084018484015e5f828201840152601f01601f1916010190565b9181601f840112156106be5782359167ffffffffffffffff83116106be57602083818601950101116106be57565b9060406003198301126106be57600435916024359067ffffffffffffffff82116106be5761146191600401611403565b9091565b602435906001600160a01b03821682036106be57565b610100810190811067ffffffffffffffff821117610e1757604052565b90601f8019910116810190811067ffffffffffffffff821117610e1757604052565b67ffffffffffffffff8111610e175760051b60200190565b604051905f6007548060011c91600182169182156115aa575b6020841083146115965783865285929081156115775750600114611518575b61151692500383611498565b565b5060075f90815290917fa66cc928b5edb82af9bd49922954155ab7b0942694bea4ce44661d9a8736c6885b81831061155b5750509060206115169282010161150a565b6020919350806001915483858901015201910190918492611543565b6020925061151694915060ff191682840152151560051b82010161150a565b634e487b7160e01b5f52602260045260245ffd5b92607f16926114eb565b908160209103126106be57516001600160a01b03811681036106be5790565b604051628bec5760e51b81526020816004817f00000000000000000000000000000000000000000000000000000000000000006001600160a01b03165afa9081156106b3575f91611622575090565b61163b915060203d6020116103b3576103a58183611498565b90565b908160209103126106be575180151581036106be5790565b805182101561166a5760209160051b010190565b634e487b7160e01b5f52603260045260245ffd5b5f54604051600160f91b60208083019182526bffffffffffffffffffffffff193060601b166021840152601583526001600160a01b0390931692916116c4603582611498565b519020604460405180948193632474521560e21b835260048301523360248301525afa9081156106b3575f916116f8575090565b61163b915060203d6020116106e8576106db8183611498565b5015801580611755575b611746578061173a575b61172b57565b63332863a960e11b5f5260045ffd5b5060ff60085416611725565b630cd0fdf960e01b5f5260045ffd5b5060ff600854161561171b565b60405163a9059cbb60e01b60208201526001600160a01b0392909216602483015260448083019390935291815261151691611140606483611498565b905f602091828151910182855af1156106b3575f513d6117ed57506001600160a01b0381163b155b6117cd5750565b635274afe760e01b5f9081526001600160a01b0391909116600452602490fd5b600114156117c656fea2646970667358221220703d5682045398971e614c53767de023aca7d45fc449557ff5f6cdd069c40eae64736f6c634300081b0033",
  "linkReferences": {},
  "deployedLinkReferences": {}
}