{
  "_format": "hh-sol-artifact-1",
  "contractName": "SummerToken",
  "sourceName": "src/contracts/SummerToken.sol",
  "abi": [
    {
      "inputs": [
        {
          "components": [
            {
              "internalType": "string",
              "name": "name",
              "type": "string"
            },
            {
              "internalType": "string",
              "name": "symbol",
              "type": "string"
            },
            {
              "internalType": "address",
              "name": "lzEndpoint",
              "type": "address"
            },
            {
              "internalType": "address",
              "name": "owner",
              "type": "address"
            },
            {
              "internalType": "address",
              "name": "accessManager",
              "type": "address"
            },
            {
              "internalType": "uint40",
              "name": "initialDecayFreeWindow",
              "type": "uint40"
            },
            {
              "internalType": "uint256",
              "name": "initialDecayRate",
              "type": "uint256"
            },
            {
              "internalType": "enum VotingDecayLibrary.DecayFunction",
              "name": "initialDecayFunction",
              "type": "uint8"
            },
            {
              "internalType": "uint256",
              "name": "transferEnableDate",
              "type": "uint256"
            },
            {
              "internalType": "uint256",
              "name": "maxSupply",
              "type": "uint256"
            },
            {
              "internalType": "uint256",
              "name": "initialSupply",
              "type": "uint256"
            }
          ],
          "internalType": "struct ISummerToken.TokenParams",
          "name": "params",
          "type": "tuple"
        }
      ],
      "stateMutability": "nonpayable",
      "type": "constructor"
    },
    {
      "inputs": [],
      "name": "AccountNotInitialized",
      "type": "error"
    },
    {
      "inputs": [
        {
          "internalType": "address",
          "name": "caller",
          "type": "address"
        }
      ],
      "name": "CallerIsNotAdmin",
      "type": "error"
    },
    {
      "inputs": [
        {
          "internalType": "address",
          "name": "caller",
          "type": "address"
        }
      ],
      "name": "CallerIsNotAuthorized",
      "type": "error"
    },
    {
      "inputs": [
        {
          "internalType": "address",
          "name": "caller",
          "type": "address"
        }
      ],
      "name": "CallerIsNotAuthorizedToBoard",
      "type": "error"
    },
    {
      "inputs": [
        {
          "internalType": "address",
          "name": "caller",
          "type": "address"
        }
      ],
      "name": "CallerIsNotCommander",
      "type": "error"
    },
    {
      "inputs": [
        {
          "internalType": "address",
          "name": "caller",
          "type": "address"
        },
        {
          "internalType": "bytes32",
          "name": "role",
          "type": "bytes32"
        }
      ],
      "name": "CallerIsNotContractSpecificRole",
      "type": "error"
    },
    {
      "inputs": [
        {
          "internalType": "address",
          "name": "caller",
          "type": "address"
        }
      ],
      "name": "CallerIsNotCurator",
      "type": "error"
    },
    {
      "inputs": [
        {
          "internalType": "address",
          "name": "caller",
          "type": "address"
        }
      ],
      "name": "CallerIsNotDecayController",
      "type": "error"
    },
    {
      "inputs": [
        {
          "internalType": "address",
          "name": "caller",
          "type": "address"
        }
      ],
      "name": "CallerIsNotDecayManager",
      "type": "error"
    },
    {
      "inputs": [
        {
          "internalType": "address",
          "name": "caller",
          "type": "address"
        }
      ],
      "name": "CallerIsNotGovernor",
      "type": "error"
    },
    {
      "inputs": [
        {
          "internalType": "address",
          "name": "caller",
          "type": "address"
        }
      ],
      "name": "CallerIsNotGuardian",
      "type": "error"
    },
    {
      "inputs": [
        {
          "internalType": "address",
          "name": "caller",
          "type": "address"
        }
      ],
      "name": "CallerIsNotGuardianOrGovernor",
      "type": "error"
    },
    {
      "inputs": [
        {
          "internalType": "address",
          "name": "caller",
          "type": "address"
        }
      ],
      "name": "CallerIsNotKeeper",
      "type": "error"
    },
    {
      "inputs": [
        {
          "internalType": "address",
          "name": "caller",
          "type": "address"
        }
      ],
      "name": "CallerIsNotRaft",
      "type": "error"
    },
    {
      "inputs": [
        {
          "internalType": "address",
          "name": "caller",
          "type": "address"
        }
      ],
      "name": "CallerIsNotRaftOrCommander",
      "type": "error"
    },
    {
      "inputs": [
        {
          "internalType": "address",
          "name": "caller",
          "type": "address"
        }
      ],
      "name": "CallerIsNotSuperKeeper",
      "type": "error"
    },
    {
      "inputs": [],
      "name": "CheckpointUnorderedInsertion",
      "type": "error"
    },
    {
      "inputs": [],
      "name": "DecayController__RewardsManagerAlreadySet",
      "type": "error"
    },
    {
      "inputs": [],
      "name": "DecayController__ZeroAddress",
      "type": "error"
    },
    {
      "inputs": [
        {
          "internalType": "address",
          "name": "caller",
          "type": "address"
        }
      ],
      "name": "DirectGrantIsDisabled",
      "type": "error"
    },
    {
      "inputs": [
        {
          "internalType": "address",
          "name": "caller",
          "type": "address"
        }
      ],
      "name": "DirectRevokeIsDisabled",
      "type": "error"
    },
    {
      "inputs": [],
      "name": "ECDSAInvalidSignature",
      "type": "error"
    },
    {
      "inputs": [
        {
          "internalType": "uint256",
          "name": "length",
          "type": "uint256"
        }
      ],
      "name": "ECDSAInvalidSignatureLength",
      "type": "error"
    },
    {
      "inputs": [
        {
          "internalType": "bytes32",
          "name": "s",
          "type": "bytes32"
        }
      ],
      "name": "ECDSAInvalidSignatureS",
      "type": "error"
    },
    {
      "inputs": [
        {
          "internalType": "uint256",
          "name": "increasedSupply",
          "type": "uint256"
        },
        {
          "internalType": "uint256",
          "name": "cap",
          "type": "uint256"
        }
      ],
      "name": "ERC20ExceededCap",
      "type": "error"
    },
    {
      "inputs": [
        {
          "internalType": "uint256",
          "name": "increasedSupply",
          "type": "uint256"
        },
        {
          "internalType": "uint256",
          "name": "cap",
          "type": "uint256"
        }
      ],
      "name": "ERC20ExceededSafeSupply",
      "type": "error"
    },
    {
      "inputs": [
        {
          "internalType": "address",
          "name": "spender",
          "type": "address"
        },
        {
          "internalType": "uint256",
          "name": "allowance",
          "type": "uint256"
        },
        {
          "internalType": "uint256",
          "name": "needed",
          "type": "uint256"
        }
      ],
      "name": "ERC20InsufficientAllowance",
      "type": "error"
    },
    {
      "inputs": [
        {
          "internalType": "address",
          "name": "sender",
          "type": "address"
        },
        {
          "internalType": "uint256",
          "name": "balance",
          "type": "uint256"
        },
        {
          "internalType": "uint256",
          "name": "needed",
          "type": "uint256"
        }
      ],
      "name": "ERC20InsufficientBalance",
      "type": "error"
    },
    {
      "inputs": [
        {
          "internalType": "address",
          "name": "approver",
          "type": "address"
        }
      ],
      "name": "ERC20InvalidApprover",
      "type": "error"
    },
    {
      "inputs": [
        {
          "internalType": "uint256",
          "name": "cap",
          "type": "uint256"
        }
      ],
      "name": "ERC20InvalidCap",
      "type": "error"
    },
    {
      "inputs": [
        {
          "internalType": "address",
          "name": "receiver",
          "type": "address"
        }
      ],
      "name": "ERC20InvalidReceiver",
      "type": "error"
    },
    {
      "inputs": [
        {
          "internalType": "address",
          "name": "sender",
          "type": "address"
        }
      ],
      "name": "ERC20InvalidSender",
      "type": "error"
    },
    {
      "inputs": [
        {
          "internalType": "address",
          "name": "spender",
          "type": "address"
        }
      ],
      "name": "ERC20InvalidSpender",
      "type": "error"
    },
    {
      "inputs": [
        {
          "internalType": "uint256",
          "name": "deadline",
          "type": "uint256"
        }
      ],
      "name": "ERC2612ExpiredSignature",
      "type": "error"
    },
    {
      "inputs": [
        {
          "internalType": "address",
          "name": "signer",
          "type": "address"
        },
        {
          "internalType": "address",
          "name": "owner",
          "type": "address"
        }
      ],
      "name": "ERC2612InvalidSigner",
      "type": "error"
    },
    {
      "inputs": [
        {
          "internalType": "uint256",
          "name": "timepoint",
          "type": "uint256"
        },
        {
          "internalType": "uint48",
          "name": "clock",
          "type": "uint48"
        }
      ],
      "name": "ERC5805FutureLookup",
      "type": "error"
    },
    {
      "inputs": [],
      "name": "ERC6372InconsistentClock",
      "type": "error"
    },
    {
      "inputs": [
        {
          "internalType": "address",
          "name": "invalidAddress",
          "type": "address"
        }
      ],
      "name": "InvalidAccessManagerAddress",
      "type": "error"
    },
    {
      "inputs": [
        {
          "internalType": "address",
          "name": "account",
          "type": "address"
        },
        {
          "internalType": "uint256",
          "name": "currentNonce",
          "type": "uint256"
        }
      ],
      "name": "InvalidAccountNonce",
      "type": "error"
    },
    {
      "inputs": [],
      "name": "InvalidDecayRate",
      "type": "error"
    },
    {
      "inputs": [],
      "name": "InvalidDecayType",
      "type": "error"
    },
    {
      "inputs": [],
      "name": "InvalidDelegate",
      "type": "error"
    },
    {
      "inputs": [],
      "name": "InvalidEndpointCall",
      "type": "error"
    },
    {
      "inputs": [],
      "name": "InvalidLocalDecimals",
      "type": "error"
    },
    {
      "inputs": [
        {
          "internalType": "bytes",
          "name": "options",
          "type": "bytes"
        }
      ],
      "name": "InvalidOptions",
      "type": "error"
    },
    {
      "inputs": [],
      "name": "InvalidShortString",
      "type": "error"
    },
    {
      "inputs": [
        {
          "internalType": "enum ISummerVestingWallet.VestingType",
          "name": "invalidType",
          "type": "uint8"
        }
      ],
      "name": "InvalidVestingType",
      "type": "error"
    },
    {
      "inputs": [],
      "name": "LzTokenUnavailable",
      "type": "error"
    },
    {
      "inputs": [
        {
          "internalType": "uint32",
          "name": "eid",
          "type": "uint32"
        }
      ],
      "name": "NoPeer",
      "type": "error"
    },
    {
      "inputs": [
        {
          "internalType": "uint256",
          "name": "msgValue",
          "type": "uint256"
        }
      ],
      "name": "NotEnoughNative",
      "type": "error"
    },
    {
      "inputs": [
        {
          "internalType": "address",
          "name": "addr",
          "type": "address"
        }
      ],
      "name": "OnlyEndpoint",
      "type": "error"
    },
    {
      "inputs": [
        {
          "internalType": "uint32",
          "name": "eid",
          "type": "uint32"
        },
        {
          "internalType": "bytes32",
          "name": "sender",
          "type": "bytes32"
        }
      ],
      "name": "OnlyPeer",
      "type": "error"
    },
    {
      "inputs": [],
      "name": "OnlySelf",
      "type": "error"
    },
    {
      "inputs": [
        {
          "internalType": "address",
          "name": "owner",
          "type": "address"
        }
      ],
      "name": "OwnableInvalidOwner",
      "type": "error"
    },
    {
      "inputs": [
        {
          "internalType": "address",
          "name": "account",
          "type": "address"
        }
      ],
      "name": "OwnableUnauthorizedAccount",
      "type": "error"
    },
    {
      "inputs": [
        {
          "internalType": "uint256",
          "name": "x",
          "type": "uint256"
        },
        {
          "internalType": "uint256",
          "name": "y",
          "type": "uint256"
        }
      ],
      "name": "PRBMath_MulDiv18_Overflow",
      "type": "error"
    },
    {
      "inputs": [
        {
          "internalType": "uint256",
          "name": "x",
          "type": "uint256"
        },
        {
          "internalType": "uint256",
          "name": "y",
          "type": "uint256"
        },
        {
          "internalType": "uint256",
          "name": "denominator",
          "type": "uint256"
        }
      ],
      "name": "PRBMath_MulDiv_Overflow",
      "type": "error"
    },
    {
      "inputs": [
        {
          "internalType": "uint8",
          "name": "bits",
          "type": "uint8"
        },
        {
          "internalType": "uint256",
          "name": "value",
          "type": "uint256"
        }
      ],
      "name": "SafeCastOverflowedUintDowncast",
      "type": "error"
    },
    {
      "inputs": [
        {
          "internalType": "address",
          "name": "token",
          "type": "address"
        }
      ],
      "name": "SafeERC20FailedOperation",
      "type": "error"
    },
    {
      "inputs": [
        {
          "internalType": "bytes",
          "name": "result",
          "type": "bytes"
        }
      ],
      "name": "SimulationResult",
      "type": "error"
    },
    {
      "inputs": [
        {
          "internalType": "uint256",
          "name": "amountLD",
          "type": "uint256"
        },
        {
          "internalType": "uint256",
          "name": "minAmountLD",
          "type": "uint256"
        }
      ],
      "name": "SlippageExceeded",
      "type": "error"
    },
    {
      "inputs": [
        {
          "internalType": "string",
          "name": "str",
          "type": "string"
        }
      ],
      "name": "StringTooLong",
      "type": "error"
    },
    {
      "inputs": [],
      "name": "TransferNotAllowed",
      "type": "error"
    },
    {
      "inputs": [],
      "name": "TransfersAlreadyEnabled",
      "type": "error"
    },
    {
      "inputs": [],
      "name": "TransfersCannotBeEnabledYet",
      "type": "error"
    },
    {
      "inputs": [
        {
          "internalType": "uint256",
          "name": "expiry",
          "type": "uint256"
        }
      ],
      "name": "VotesExpiredSignature",
      "type": "error"
    },
    {
      "anonymous": false,
      "inputs": [
        {
          "indexed": false,
          "internalType": "address",
          "name": "account",
          "type": "address"
        }
      ],
      "name": "AccountInitialized",
      "type": "event"
    },
    {
      "anonymous": false,
      "inputs": [
        {
          "indexed": true,
          "internalType": "address",
          "name": "account",
          "type": "address"
        }
      ],
      "name": "AddressRemovedFromWhitelist",
      "type": "event"
    },
    {
      "anonymous": false,
      "inputs": [
        {
          "indexed": true,
          "internalType": "address",
          "name": "account",
          "type": "address"
        }
      ],
      "name": "AddressWhitelisted",
      "type": "event"
    },
    {
      "anonymous": false,
      "inputs": [
        {
          "indexed": true,
          "internalType": "address",
          "name": "owner",
          "type": "address"
        },
        {
          "indexed": true,
          "internalType": "address",
          "name": "spender",
          "type": "address"
        },
        {
          "indexed": false,
          "internalType": "uint256",
          "name": "value",
          "type": "uint256"
        }
      ],
      "name": "Approval",
      "type": "event"
    },
    {
      "anonymous": false,
      "inputs": [
        {
          "indexed": false,
          "internalType": "uint40",
          "name": "newWindow",
          "type": "uint40"
        }
      ],
      "name": "DecayFreeWindowSet",
      "type": "event"
    },
    {
      "anonymous": false,
      "inputs": [
        {
          "indexed": false,
          "internalType": "uint8",
          "name": "newFunction",
          "type": "uint8"
        }
      ],
      "name": "DecayFunctionSet",
      "type": "event"
    },
    {
      "anonymous": false,
      "inputs": [
        {
          "indexed": false,
          "internalType": "uint256",
          "name": "newRate",
          "type": "uint256"
        }
      ],
      "name": "DecayRateSet",
      "type": "event"
    },
    {
      "anonymous": false,
      "inputs": [
        {
          "indexed": false,
          "internalType": "address",
          "name": "account",
          "type": "address"
        },
        {
          "indexed": false,
          "internalType": "uint256",
          "name": "newDecayFactor",
          "type": "uint256"
        }
      ],
      "name": "DecayUpdated",
      "type": "event"
    },
    {
      "anonymous": false,
      "inputs": [
        {
          "indexed": true,
          "internalType": "address",
          "name": "delegator",
          "type": "address"
        },
        {
          "indexed": true,
          "internalType": "address",
          "name": "fromDelegate",
          "type": "address"
        },
        {
          "indexed": true,
          "internalType": "address",
          "name": "toDelegate",
          "type": "address"
        }
      ],
      "name": "DelegateChanged",
      "type": "event"
    },
    {
      "anonymous": false,
      "inputs": [
        {
          "indexed": true,
          "internalType": "address",
          "name": "delegate",
          "type": "address"
        },
        {
          "indexed": false,
          "internalType": "uint256",
          "name": "previousVotes",
          "type": "uint256"
        },
        {
          "indexed": false,
          "internalType": "uint256",
          "name": "newVotes",
          "type": "uint256"
        }
      ],
      "name": "DelegateVotesChanged",
      "type": "event"
    },
    {
      "anonymous": false,
      "inputs": [],
      "name": "EIP712DomainChanged",
      "type": "event"
    },
    {
      "anonymous": false,
      "inputs": [
        {
          "components": [
            {
              "internalType": "uint32",
              "name": "eid",
              "type": "uint32"
            },
            {
              "internalType": "uint16",
              "name": "msgType",
              "type": "uint16"
            },
            {
              "internalType": "bytes",
              "name": "options",
              "type": "bytes"
            }
          ],
          "indexed": false,
          "internalType": "struct EnforcedOptionParam[]",
          "name": "_enforcedOptions",
          "type": "tuple[]"
        }
      ],
      "name": "EnforcedOptionSet",
      "type": "event"
    },
    {
      "anonymous": false,
      "inputs": [
        {
          "indexed": false,
          "internalType": "address",
          "name": "inspector",
          "type": "address"
        }
      ],
      "name": "MsgInspectorSet",
      "type": "event"
    },
    {
      "anonymous": false,
      "inputs": [
        {
          "indexed": true,
          "internalType": "bytes32",
          "name": "guid",
          "type": "bytes32"
        },
        {
          "indexed": false,
          "internalType": "uint32",
          "name": "srcEid",
          "type": "uint32"
        },
        {
          "indexed": true,
          "internalType": "address",
          "name": "toAddress",
          "type": "address"
        },
        {
          "indexed": false,
          "internalType": "uint256",
          "name": "amountReceivedLD",
          "type": "uint256"
        }
      ],
      "name": "OFTReceived",
      "type": "event"
    },
    {
      "anonymous": false,
      "inputs": [
        {
          "indexed": true,
          "internalType": "bytes32",
          "name": "guid",
          "type": "bytes32"
        },
        {
          "indexed": false,
          "internalType": "uint32",
          "name": "dstEid",
          "type": "uint32"
        },
        {
          "indexed": true,
          "internalType": "address",
          "name": "fromAddress",
          "type": "address"
        },
        {
          "indexed": false,
          "internalType": "uint256",
          "name": "amountSentLD",
          "type": "uint256"
        },
        {
          "indexed": false,
          "internalType": "uint256",
          "name": "amountReceivedLD",
          "type": "uint256"
        }
      ],
      "name": "OFTSent",
      "type": "event"
    },
    {
      "anonymous": false,
      "inputs": [
        {
          "indexed": true,
          "internalType": "address",
          "name": "previousOwner",
          "type": "address"
        },
        {
          "indexed": true,
          "internalType": "address",
          "name": "newOwner",
          "type": "address"
        }
      ],
      "name": "OwnershipTransferred",
      "type": "event"
    },
    {
      "anonymous": false,
      "inputs": [
        {
          "indexed": false,
          "internalType": "uint32",
          "name": "eid",
          "type": "uint32"
        },
        {
          "indexed": false,
          "internalType": "bytes32",
          "name": "peer",
          "type": "bytes32"
        }
      ],
      "name": "PeerSet",
      "type": "event"
    },
    {
      "anonymous": false,
      "inputs": [
        {
          "indexed": false,
          "internalType": "address",
          "name": "preCrimeAddress",
          "type": "address"
        }
      ],
      "name": "PreCrimeSet",
      "type": "event"
    },
    {
      "anonymous": false,
      "inputs": [
        {
          "indexed": true,
          "internalType": "address",
          "name": "from",
          "type": "address"
        },
        {
          "indexed": true,
          "internalType": "address",
          "name": "to",
          "type": "address"
        },
        {
          "indexed": false,
          "internalType": "uint256",
          "name": "value",
          "type": "uint256"
        }
      ],
      "name": "Transfer",
      "type": "event"
    },
    {
      "anonymous": false,
      "inputs": [],
      "name": "TransfersEnabled",
      "type": "event"
    },
    {
      "inputs": [],
      "name": "CLOCK_MODE",
      "outputs": [
        {
          "internalType": "string",
          "name": "",
          "type": "string"
        }
      ],
      "stateMutability": "pure",
      "type": "function"
    },
    {
      "inputs": [],
      "name": "DOMAIN_SEPARATOR",
      "outputs": [
        {
          "internalType": "bytes32",
          "name": "",
          "type": "bytes32"
        }
      ],
      "stateMutability": "view",
      "type": "function"
    },
    {
      "inputs": [],
      "name": "SEND",
      "outputs": [
        {
          "internalType": "uint16",
          "name": "",
          "type": "uint16"
        }
      ],
      "stateMutability": "view",
      "type": "function"
    },
    {
      "inputs": [],
      "name": "SEND_AND_CALL",
      "outputs": [
        {
          "internalType": "uint16",
          "name": "",
          "type": "uint16"
        }
      ],
      "stateMutability": "view",
      "type": "function"
    },
    {
      "inputs": [
        {
          "internalType": "address",
          "name": "account",
          "type": "address"
        }
      ],
      "name": "addToWhitelist",
      "outputs": [],
      "stateMutability": "nonpayable",
      "type": "function"
    },
    {
      "inputs": [
        {
          "components": [
            {
              "internalType": "uint32",
              "name": "srcEid",
              "type": "uint32"
            },
            {
              "internalType": "bytes32",
              "name": "sender",
              "type": "bytes32"
            },
            {
              "internalType": "uint64",
              "name": "nonce",
              "type": "uint64"
            }
          ],
          "internalType": "struct Origin",
          "name": "origin",
          "type": "tuple"
        }
      ],
      "name": "allowInitializePath",
      "outputs": [
        {
          "internalType": "bool",
          "name": "",
          "type": "bool"
        }
      ],
      "stateMutability": "view",
      "type": "function"
    },
    {
      "inputs": [
        {
          "internalType": "address",
          "name": "owner",
          "type": "address"
        },
        {
          "internalType": "address",
          "name": "spender",
          "type": "address"
        }
      ],
      "name": "allowance",
      "outputs": [
        {
          "internalType": "uint256",
          "name": "",
          "type": "uint256"
        }
      ],
      "stateMutability": "view",
      "type": "function"
    },
    {
      "inputs": [],
      "name": "approvalRequired",
      "outputs": [
        {
          "internalType": "bool",
          "name": "",
          "type": "bool"
        }
      ],
      "stateMutability": "pure",
      "type": "function"
    },
    {
      "inputs": [
        {
          "internalType": "address",
          "name": "spender",
          "type": "address"
        },
        {
          "internalType": "uint256",
          "name": "value",
          "type": "uint256"
        }
      ],
      "name": "approve",
      "outputs": [
        {
          "internalType": "bool",
          "name": "",
          "type": "bool"
        }
      ],
      "stateMutability": "nonpayable",
      "type": "function"
    },
    {
      "inputs": [
        {
          "internalType": "address",
          "name": "account",
          "type": "address"
        }
      ],
      "name": "balanceOf",
      "outputs": [
        {
          "internalType": "uint256",
          "name": "",
          "type": "uint256"
        }
      ],
      "stateMutability": "view",
      "type": "function"
    },
    {
      "inputs": [
        {
          "internalType": "uint256",
          "name": "value",
          "type": "uint256"
        }
      ],
      "name": "burn",
      "outputs": [],
      "stateMutability": "nonpayable",
      "type": "function"
    },
    {
      "inputs": [
        {
          "internalType": "address",
          "name": "account",
          "type": "address"
        },
        {
          "internalType": "uint256",
          "name": "value",
          "type": "uint256"
        }
      ],
      "name": "burnFrom",
      "outputs": [],
      "stateMutability": "nonpayable",
      "type": "function"
    },
    {
      "inputs": [],
      "name": "cap",
      "outputs": [
        {
          "internalType": "uint256",
          "name": "",
          "type": "uint256"
        }
      ],
      "stateMutability": "view",
      "type": "function"
    },
    {
      "inputs": [
        {
          "internalType": "address",
          "name": "account",
          "type": "address"
        },
        {
          "internalType": "uint32",
          "name": "pos",
          "type": "uint32"
        }
      ],
      "name": "checkpoints",
      "outputs": [
        {
          "components": [
            {
              "internalType": "uint48",
              "name": "_key",
              "type": "uint48"
            },
            {
              "internalType": "uint208",
              "name": "_value",
              "type": "uint208"
            }
          ],
          "internalType": "struct Checkpoints.Checkpoint208",
          "name": "",
          "type": "tuple"
        }
      ],
      "stateMutability": "view",
      "type": "function"
    },
    {
      "inputs": [],
      "name": "clock",
      "outputs": [
        {
          "internalType": "uint48",
          "name": "",
          "type": "uint48"
        }
      ],
      "stateMutability": "view",
      "type": "function"
    },
    {
      "inputs": [
        {
          "internalType": "uint32",
          "name": "_eid",
          "type": "uint32"
        },
        {
          "internalType": "uint16",
          "name": "_msgType",
          "type": "uint16"
        },
        {
          "internalType": "bytes",
          "name": "_extraOptions",
          "type": "bytes"
        }
      ],
      "name": "combineOptions",
      "outputs": [
        {
          "internalType": "bytes",
          "name": "",
          "type": "bytes"
        }
      ],
      "stateMutability": "view",
      "type": "function"
    },
    {
      "inputs": [],
      "name": "decimalConversionRate",
      "outputs": [
        {
          "internalType": "uint256",
          "name": "",
          "type": "uint256"
        }
      ],
      "stateMutability": "view",
      "type": "function"
    },
    {
      "inputs": [],
      "name": "decimals",
      "outputs": [
        {
          "internalType": "uint8",
          "name": "",
          "type": "uint8"
        }
      ],
      "stateMutability": "view",
      "type": "function"
    },
    {
      "inputs": [
        {
          "internalType": "address",
          "name": "delegatee",
          "type": "address"
        }
      ],
      "name": "delegate",
      "outputs": [],
      "stateMutability": "nonpayable",
      "type": "function"
    },
    {
      "inputs": [
        {
          "internalType": "address",
          "name": "delegatee",
          "type": "address"
        },
        {
          "internalType": "uint256",
          "name": "nonce",
          "type": "uint256"
        },
        {
          "internalType": "uint256",
          "name": "expiry",
          "type": "uint256"
        },
        {
          "internalType": "uint8",
          "name": "v",
          "type": "uint8"
        },
        {
          "internalType": "bytes32",
          "name": "r",
          "type": "bytes32"
        },
        {
          "internalType": "bytes32",
          "name": "s",
          "type": "bytes32"
        }
      ],
      "name": "delegateBySig",
      "outputs": [],
      "stateMutability": "nonpayable",
      "type": "function"
    },
    {
      "inputs": [
        {
          "internalType": "address",
          "name": "account",
          "type": "address"
        }
      ],
      "name": "delegates",
      "outputs": [
        {
          "internalType": "address",
          "name": "",
          "type": "address"
        }
      ],
      "stateMutability": "view",
      "type": "function"
    },
    {
      "inputs": [],
      "name": "eip712Domain",
      "outputs": [
        {
          "internalType": "bytes1",
          "name": "fields",
          "type": "bytes1"
        },
        {
          "internalType": "string",
          "name": "name",
          "type": "string"
        },
        {
          "internalType": "string",
          "name": "version",
          "type": "string"
        },
        {
          "internalType": "uint256",
          "name": "chainId",
          "type": "uint256"
        },
        {
          "internalType": "address",
          "name": "verifyingContract",
          "type": "address"
        },
        {
          "internalType": "bytes32",
          "name": "salt",
          "type": "bytes32"
        },
        {
          "internalType": "uint256[]",
          "name": "extensions",
          "type": "uint256[]"
        }
      ],
      "stateMutability": "view",
      "type": "function"
    },
    {
      "inputs": [],
      "name": "enableTransfers",
      "outputs": [],
      "stateMutability": "nonpayable",
      "type": "function"
    },
    {
      "inputs": [],
      "name": "endpoint",
      "outputs": [
        {
          "internalType": "contract ILayerZeroEndpointV2",
          "name": "",
          "type": "address"
        }
      ],
      "stateMutability": "view",
      "type": "function"
    },
    {
      "inputs": [
        {
          "internalType": "uint32",
          "name": "eid",
          "type": "uint32"
        },
        {
          "internalType": "uint16",
          "name": "msgType",
          "type": "uint16"
        }
      ],
      "name": "enforcedOptions",
      "outputs": [
        {
          "internalType": "bytes",
          "name": "enforcedOption",
          "type": "bytes"
        }
      ],
      "stateMutability": "view",
      "type": "function"
    },
    {
      "inputs": [
        {
          "internalType": "enum ContractSpecificRoles",
          "name": "roleName",
          "type": "uint8"
        },
        {
          "internalType": "address",
          "name": "roleTargetContract",
          "type": "address"
        }
      ],
      "name": "generateRole",
      "outputs": [
        {
          "internalType": "bytes32",
          "name": "",
          "type": "bytes32"
        }
      ],
      "stateMutability": "pure",
      "type": "function"
    },
    {
      "inputs": [
        {
          "internalType": "address",
          "name": "account",
          "type": "address"
        }
      ],
      "name": "getDecayFactor",
      "outputs": [
        {
          "internalType": "uint256",
          "name": "",
          "type": "uint256"
        }
      ],
      "stateMutability": "view",
      "type": "function"
    },
    {
      "inputs": [],
      "name": "getDecayFreeWindow",
      "outputs": [
        {
          "internalType": "uint40",
          "name": "",
          "type": "uint40"
        }
      ],
      "stateMutability": "view",
      "type": "function"
    },
    {
      "inputs": [
        {
          "internalType": "uint256",
          "name": "timepoint",
          "type": "uint256"
        }
      ],
      "name": "getPastTotalSupply",
      "outputs": [
        {
          "internalType": "uint256",
          "name": "",
          "type": "uint256"
        }
      ],
      "stateMutability": "view",
      "type": "function"
    },
    {
      "inputs": [
        {
          "internalType": "address",
          "name": "account",
          "type": "address"
        },
        {
          "internalType": "uint256",
          "name": "timepoint",
          "type": "uint256"
        }
      ],
      "name": "getPastVotes",
      "outputs": [
        {
          "internalType": "uint256",
          "name": "",
          "type": "uint256"
        }
      ],
      "stateMutability": "view",
      "type": "function"
    },
    {
      "inputs": [
        {
          "internalType": "address",
          "name": "account",
          "type": "address"
        }
      ],
      "name": "getVotes",
      "outputs": [
        {
          "internalType": "uint256",
          "name": "",
          "type": "uint256"
        }
      ],
      "stateMutability": "view",
      "type": "function"
    },
    {
      "inputs": [
        {
          "internalType": "address",
          "name": "account",
          "type": "address"
        }
      ],
      "name": "hasAdmiralsQuartersRole",
      "outputs": [
        {
          "internalType": "bool",
          "name": "",
          "type": "bool"
        }
      ],
      "stateMutability": "view",
      "type": "function"
    },
    {
      "inputs": [
        {
          "components": [
            {
              "internalType": "uint32",
              "name": "srcEid",
              "type": "uint32"
            },
            {
              "internalType": "bytes32",
              "name": "sender",
              "type": "bytes32"
            },
            {
              "internalType": "uint64",
              "name": "nonce",
              "type": "uint64"
            }
          ],
          "internalType": "struct Origin",
          "name": "",
          "type": "tuple"
        },
        {
          "internalType": "bytes",
          "name": "",
          "type": "bytes"
        },
        {
          "internalType": "address",
          "name": "_sender",
          "type": "address"
        }
      ],
      "name": "isComposeMsgSender",
      "outputs": [
        {
          "internalType": "bool",
          "name": "",
          "type": "bool"
        }
      ],
      "stateMutability": "view",
      "type": "function"
    },
    {
      "inputs": [
        {
          "internalType": "uint32",
          "name": "_eid",
          "type": "uint32"
        },
        {
          "internalType": "bytes32",
          "name": "_peer",
          "type": "bytes32"
        }
      ],
      "name": "isPeer",
      "outputs": [
        {
          "internalType": "bool",
          "name": "",
          "type": "bool"
        }
      ],
      "stateMutability": "view",
      "type": "function"
    },
    {
      "inputs": [
        {
          "components": [
            {
              "internalType": "uint32",
              "name": "srcEid",
              "type": "uint32"
            },
            {
              "internalType": "bytes32",
              "name": "sender",
              "type": "bytes32"
            },
            {
              "internalType": "uint64",
              "name": "nonce",
              "type": "uint64"
            }
          ],
          "internalType": "struct Origin",
          "name": "_origin",
          "type": "tuple"
        },
        {
          "internalType": "bytes32",
          "name": "_guid",
          "type": "bytes32"
        },
        {
          "internalType": "bytes",
          "name": "_message",
          "type": "bytes"
        },
        {
          "internalType": "address",
          "name": "_executor",
          "type": "address"
        },
        {
          "internalType": "bytes",
          "name": "_extraData",
          "type": "bytes"
        }
      ],
      "name": "lzReceive",
      "outputs": [],
      "stateMutability": "payable",
      "type": "function"
    },
    {
      "inputs": [
        {
          "components": [
            {
              "components": [
                {
                  "internalType": "uint32",
                  "name": "srcEid",
                  "type": "uint32"
                },
                {
                  "internalType": "bytes32",
                  "name": "sender",
                  "type": "bytes32"
                },
                {
                  "internalType": "uint64",
                  "name": "nonce",
                  "type": "uint64"
                }
              ],
              "internalType": "struct Origin",
              "name": "origin",
              "type": "tuple"
            },
            {
              "internalType": "uint32",
              "name": "dstEid",
              "type": "uint32"
            },
            {
              "internalType": "address",
              "name": "receiver",
              "type": "address"
            },
            {
              "internalType": "bytes32",
              "name": "guid",
              "type": "bytes32"
            },
            {
              "internalType": "uint256",
              "name": "value",
              "type": "uint256"
            },
            {
              "internalType": "address",
              "name": "executor",
              "type": "address"
            },
            {
              "internalType": "bytes",
              "name": "message",
              "type": "bytes"
            },
            {
              "internalType": "bytes",
              "name": "extraData",
              "type": "bytes"
            }
          ],
          "internalType": "struct InboundPacket[]",
          "name": "_packets",
          "type": "tuple[]"
        }
      ],
      "name": "lzReceiveAndRevert",
      "outputs": [],
      "stateMutability": "payable",
      "type": "function"
    },
    {
      "inputs": [
        {
          "components": [
            {
              "internalType": "uint32",
              "name": "srcEid",
              "type": "uint32"
            },
            {
              "internalType": "bytes32",
              "name": "sender",
              "type": "bytes32"
            },
            {
              "internalType": "uint64",
              "name": "nonce",
              "type": "uint64"
            }
          ],
          "internalType": "struct Origin",
          "name": "_origin",
          "type": "tuple"
        },
        {
          "internalType": "bytes32",
          "name": "_guid",
          "type": "bytes32"
        },
        {
          "internalType": "bytes",
          "name": "_message",
          "type": "bytes"
        },
        {
          "internalType": "address",
          "name": "_executor",
          "type": "address"
        },
        {
          "internalType": "bytes",
          "name": "_extraData",
          "type": "bytes"
        }
      ],
      "name": "lzReceiveSimulate",
      "outputs": [],
      "stateMutability": "payable",
      "type": "function"
    },
    {
      "inputs": [],
      "name": "msgInspector",
      "outputs": [
        {
          "internalType": "address",
          "name": "",
          "type": "address"
        }
      ],
      "stateMutability": "view",
      "type": "function"
    },
    {
      "inputs": [],
      "name": "name",
      "outputs": [
        {
          "internalType": "string",
          "name": "",
          "type": "string"
        }
      ],
      "stateMutability": "view",
      "type": "function"
    },
    {
      "inputs": [
        {
          "internalType": "uint32",
          "name": "",
          "type": "uint32"
        },
        {
          "internalType": "bytes32",
          "name": "",
          "type": "bytes32"
        }
      ],
      "name": "nextNonce",
      "outputs": [
        {
          "internalType": "uint64",
          "name": "nonce",
          "type": "uint64"
        }
      ],
      "stateMutability": "view",
      "type": "function"
    },
    {
      "inputs": [
        {
          "internalType": "address",
          "name": "owner",
          "type": "address"
        }
      ],
      "name": "nonces",
      "outputs": [
        {
          "internalType": "uint256",
          "name": "",
          "type": "uint256"
        }
      ],
      "stateMutability": "view",
      "type": "function"
    },
    {
      "inputs": [
        {
          "internalType": "address",
          "name": "account",
          "type": "address"
        }
      ],
      "name": "numCheckpoints",
      "outputs": [
        {
          "internalType": "uint32",
          "name": "",
          "type": "uint32"
        }
      ],
      "stateMutability": "view",
      "type": "function"
    },
    {
      "inputs": [],
      "name": "oApp",
      "outputs": [
        {
          "internalType": "address",
          "name": "",
          "type": "address"
        }
      ],
      "stateMutability": "view",
      "type": "function"
    },
    {
      "inputs": [],
      "name": "oAppVersion",
      "outputs": [
        {
          "internalType": "uint64",
          "name": "senderVersion",
          "type": "uint64"
        },
        {
          "internalType": "uint64",
          "name": "receiverVersion",
          "type": "uint64"
        }
      ],
      "stateMutability": "pure",
      "type": "function"
    },
    {
      "inputs": [],
      "name": "oftVersion",
      "outputs": [
        {
          "internalType": "bytes4",
          "name": "interfaceId",
          "type": "bytes4"
        },
        {
          "internalType": "uint64",
          "name": "version",
          "type": "uint64"
        }
      ],
      "stateMutability": "pure",
      "type": "function"
    },
    {
      "inputs": [],
      "name": "owner",
      "outputs": [
        {
          "internalType": "address",
          "name": "",
          "type": "address"
        }
      ],
      "stateMutability": "view",
      "type": "function"
    },
    {
      "inputs": [
        {
          "internalType": "uint32",
          "name": "eid",
          "type": "uint32"
        }
      ],
      "name": "peers",
      "outputs": [
        {
          "internalType": "bytes32",
          "name": "peer",
          "type": "bytes32"
        }
      ],
      "stateMutability": "view",
      "type": "function"
    },
    {
      "inputs": [
        {
          "internalType": "address",
          "name": "owner",
          "type": "address"
        },
        {
          "internalType": "address",
          "name": "spender",
          "type": "address"
        },
        {
          "internalType": "uint256",
          "name": "value",
          "type": "uint256"
        },
        {
          "internalType": "uint256",
          "name": "deadline",
          "type": "uint256"
        },
        {
          "internalType": "uint8",
          "name": "v",
          "type": "uint8"
        },
        {
          "internalType": "bytes32",
          "name": "r",
          "type": "bytes32"
        },
        {
          "internalType": "bytes32",
          "name": "s",
          "type": "bytes32"
        }
      ],
      "name": "permit",
      "outputs": [],
      "stateMutability": "nonpayable",
      "type": "function"
    },
    {
      "inputs": [],
      "name": "preCrime",
      "outputs": [
        {
          "internalType": "address",
          "name": "",
          "type": "address"
        }
      ],
      "stateMutability": "view",
      "type": "function"
    },
    {
      "inputs": [
        {
          "components": [
            {
              "internalType": "uint32",
              "name": "dstEid",
              "type": "uint32"
            },
            {
              "internalType": "bytes32",
              "name": "to",
              "type": "bytes32"
            },
            {
              "internalType": "uint256",
              "name": "amountLD",
              "type": "uint256"
            },
            {
              "internalType": "uint256",
              "name": "minAmountLD",
              "type": "uint256"
            },
            {
              "internalType": "bytes",
              "name": "extraOptions",
              "type": "bytes"
            },
            {
              "internalType": "bytes",
              "name": "composeMsg",
              "type": "bytes"
            },
            {
              "internalType": "bytes",
              "name": "oftCmd",
              "type": "bytes"
            }
          ],
          "internalType": "struct SendParam",
          "name": "_sendParam",
          "type": "tuple"
        }
      ],
      "name": "quoteOFT",
      "outputs": [
        {
          "components": [
            {
              "internalType": "uint256",
              "name": "minAmountLD",
              "type": "uint256"
            },
            {
              "internalType": "uint256",
              "name": "maxAmountLD",
              "type": "uint256"
            }
          ],
          "internalType": "struct OFTLimit",
          "name": "oftLimit",
          "type": "tuple"
        },
        {
          "components": [
            {
              "internalType": "int256",
              "name": "feeAmountLD",
              "type": "int256"
            },
            {
              "internalType": "string",
              "name": "description",
              "type": "string"
            }
          ],
          "internalType": "struct OFTFeeDetail[]",
          "name": "oftFeeDetails",
          "type": "tuple[]"
        },
        {
          "components": [
            {
              "internalType": "uint256",
              "name": "amountSentLD",
              "type": "uint256"
            },
            {
              "internalType": "uint256",
              "name": "amountReceivedLD",
              "type": "uint256"
            }
          ],
          "internalType": "struct OFTReceipt",
          "name": "oftReceipt",
          "type": "tuple"
        }
      ],
      "stateMutability": "view",
      "type": "function"
    },
    {
      "inputs": [
        {
          "components": [
            {
              "internalType": "uint32",
              "name": "dstEid",
              "type": "uint32"
            },
            {
              "internalType": "bytes32",
              "name": "to",
              "type": "bytes32"
            },
            {
              "internalType": "uint256",
              "name": "amountLD",
              "type": "uint256"
            },
            {
              "internalType": "uint256",
              "name": "minAmountLD",
              "type": "uint256"
            },
            {
              "internalType": "bytes",
              "name": "extraOptions",
              "type": "bytes"
            },
            {
              "internalType": "bytes",
              "name": "composeMsg",
              "type": "bytes"
            },
            {
              "internalType": "bytes",
              "name": "oftCmd",
              "type": "bytes"
            }
          ],
          "internalType": "struct SendParam",
          "name": "_sendParam",
          "type": "tuple"
        },
        {
          "internalType": "bool",
          "name": "_payInLzToken",
          "type": "bool"
        }
      ],
      "name": "quoteSend",
      "outputs": [
        {
          "components": [
            {
              "internalType": "uint256",
              "name": "nativeFee",
              "type": "uint256"
            },
            {
              "internalType": "uint256",
              "name": "lzTokenFee",
              "type": "uint256"
            }
          ],
          "internalType": "struct MessagingFee",
          "name": "msgFee",
          "type": "tuple"
        }
      ],
      "stateMutability": "view",
      "type": "function"
    },
    {
      "inputs": [
        {
          "internalType": "address",
          "name": "account",
          "type": "address"
        }
      ],
      "name": "removeFromWhitelist",
      "outputs": [],
      "stateMutability": "nonpayable",
      "type": "function"
    },
    {
      "inputs": [],
      "name": "renounceOwnership",
      "outputs": [],
      "stateMutability": "nonpayable",
      "type": "function"
    },
    {
      "inputs": [],
      "name": "rewardsManager",
      "outputs": [
        {
          "internalType": "contract IGovernanceRewardsManager",
          "name": "",
          "type": "address"
        }
      ],
      "stateMutability": "view",
      "type": "function"
    },
    {
      "inputs": [
        {
          "components": [
            {
              "internalType": "uint32",
              "name": "dstEid",
              "type": "uint32"
            },
            {
              "internalType": "bytes32",
              "name": "to",
              "type": "bytes32"
            },
            {
              "internalType": "uint256",
              "name": "amountLD",
              "type": "uint256"
            },
            {
              "internalType": "uint256",
              "name": "minAmountLD",
              "type": "uint256"
            },
            {
              "internalType": "bytes",
              "name": "extraOptions",
              "type": "bytes"
            },
            {
              "internalType": "bytes",
              "name": "composeMsg",
              "type": "bytes"
            },
            {
              "internalType": "bytes",
              "name": "oftCmd",
              "type": "bytes"
            }
          ],
          "internalType": "struct SendParam",
          "name": "_sendParam",
          "type": "tuple"
        },
        {
          "components": [
            {
              "internalType": "uint256",
              "name": "nativeFee",
              "type": "uint256"
            },
            {
              "internalType": "uint256",
              "name": "lzTokenFee",
              "type": "uint256"
            }
          ],
          "internalType": "struct MessagingFee",
          "name": "_fee",
          "type": "tuple"
        },
        {
          "internalType": "address",
          "name": "_refundAddress",
          "type": "address"
        }
      ],
      "name": "send",
      "outputs": [
        {
          "components": [
            {
              "internalType": "bytes32",
              "name": "guid",
              "type": "bytes32"
            },
            {
              "internalType": "uint64",
              "name": "nonce",
              "type": "uint64"
            },
            {
              "components": [
                {
                  "internalType": "uint256",
                  "name": "nativeFee",
                  "type": "uint256"
                },
                {
                  "internalType": "uint256",
                  "name": "lzTokenFee",
                  "type": "uint256"
                }
              ],
              "internalType": "struct MessagingFee",
              "name": "fee",
              "type": "tuple"
            }
          ],
          "internalType": "struct MessagingReceipt",
          "name": "msgReceipt",
          "type": "tuple"
        },
        {
          "components": [
            {
              "internalType": "uint256",
              "name": "amountSentLD",
              "type": "uint256"
            },
            {
              "internalType": "uint256",
              "name": "amountReceivedLD",
              "type": "uint256"
            }
          ],
          "internalType": "struct OFTReceipt",
          "name": "oftReceipt",
          "type": "tuple"
        }
      ],
      "stateMutability": "payable",
      "type": "function"
    },
    {
      "inputs": [
        {
          "internalType": "uint40",
          "name": "newWindow",
          "type": "uint40"
        }
      ],
      "name": "setDecayFreeWindow",
      "outputs": [],
      "stateMutability": "nonpayable",
      "type": "function"
    },
    {
      "inputs": [
        {
          "internalType": "enum VotingDecayLibrary.DecayFunction",
          "name": "newFunction",
          "type": "uint8"
        }
      ],
      "name": "setDecayFunction",
      "outputs": [],
      "stateMutability": "nonpayable",
      "type": "function"
    },
    {
      "inputs": [
        {
          "internalType": "uint256",
          "name": "newRatePerSecond",
          "type": "uint256"
        }
      ],
      "name": "setDecayRatePerSecond",
      "outputs": [],
      "stateMutability": "nonpayable",
      "type": "function"
    },
    {
      "inputs": [
        {
          "internalType": "address",
          "name": "_delegate",
          "type": "address"
        }
      ],
      "name": "setDelegate",
      "outputs": [],
      "stateMutability": "nonpayable",
      "type": "function"
    },
    {
      "inputs": [
        {
          "components": [
            {
              "internalType": "uint32",
              "name": "eid",
              "type": "uint32"
            },
            {
              "internalType": "uint16",
              "name": "msgType",
              "type": "uint16"
            },
            {
              "internalType": "bytes",
              "name": "options",
              "type": "bytes"
            }
          ],
          "internalType": "struct EnforcedOptionParam[]",
          "name": "_enforcedOptions",
          "type": "tuple[]"
        }
      ],
      "name": "setEnforcedOptions",
      "outputs": [],
      "stateMutability": "nonpayable",
      "type": "function"
    },
    {
      "inputs": [
        {
          "internalType": "address",
          "name": "_msgInspector",
          "type": "address"
        }
      ],
      "name": "setMsgInspector",
      "outputs": [],
      "stateMutability": "nonpayable",
      "type": "function"
    },
    {
      "inputs": [
        {
          "internalType": "uint32",
          "name": "_eid",
          "type": "uint32"
        },
        {
          "internalType": "bytes32",
          "name": "_peer",
          "type": "bytes32"
        }
      ],
      "name": "setPeer",
      "outputs": [],
      "stateMutability": "nonpayable",
      "type": "function"
    },
    {
      "inputs": [
        {
          "internalType": "address",
          "name": "_preCrime",
          "type": "address"
        }
      ],
      "name": "setPreCrime",
      "outputs": [],
      "stateMutability": "nonpayable",
      "type": "function"
    },
    {
      "inputs": [],
      "name": "sharedDecimals",
      "outputs": [
        {
          "internalType": "uint8",
          "name": "",
          "type": "uint8"
        }
      ],
      "stateMutability": "view",
      "type": "function"
    },
    {
      "inputs": [],
      "name": "symbol",
      "outputs": [
        {
          "internalType": "string",
          "name": "",
          "type": "string"
        }
      ],
      "stateMutability": "view",
      "type": "function"
    },
    {
      "inputs": [],
      "name": "token",
      "outputs": [
        {
          "internalType": "address",
          "name": "",
          "type": "address"
        }
      ],
      "stateMutability": "view",
      "type": "function"
    },
    {
      "inputs": [],
      "name": "totalSupply",
      "outputs": [
        {
          "internalType": "uint256",
          "name": "",
          "type": "uint256"
        }
      ],
      "stateMutability": "view",
      "type": "function"
    },
    {
      "inputs": [
        {
          "internalType": "address",
          "name": "to",
          "type": "address"
        },
        {
          "internalType": "uint256",
          "name": "value",
          "type": "uint256"
        }
      ],
      "name": "transfer",
      "outputs": [
        {
          "internalType": "bool",
          "name": "",
          "type": "bool"
        }
      ],
      "stateMutability": "nonpayable",
      "type": "function"
    },
    {
      "inputs": [],
      "name": "transferEnableDate",
      "outputs": [
        {
          "internalType": "uint256",
          "name": "",
          "type": "uint256"
        }
      ],
      "stateMutability": "view",
      "type": "function"
    },
    {
      "inputs": [
        {
          "internalType": "address",
          "name": "from",
          "type": "address"
        },
        {
          "internalType": "address",
          "name": "to",
          "type": "address"
        },
        {
          "internalType": "uint256",
          "name": "value",
          "type": "uint256"
        }
      ],
      "name": "transferFrom",
      "outputs": [
        {
          "internalType": "bool",
          "name": "",
          "type": "bool"
        }
      ],
      "stateMutability": "nonpayable",
      "type": "function"
    },
    {
      "inputs": [
        {
          "internalType": "address",
          "name": "newOwner",
          "type": "address"
        }
      ],
      "name": "transferOwnership",
      "outputs": [],
      "stateMutability": "nonpayable",
      "type": "function"
    },
    {
      "inputs": [],
      "name": "transfersEnabled",
      "outputs": [
        {
          "internalType": "bool",
          "name": "",
          "type": "bool"
        }
      ],
      "stateMutability": "view",
      "type": "function"
    },
    {
      "inputs": [
        {
          "internalType": "address",
          "name": "account",
          "type": "address"
        }
      ],
      "name": "updateDecayFactor",
      "outputs": [],
      "stateMutability": "nonpayable",
      "type": "function"
    },
    {
      "inputs": [],
      "name": "vestingWalletFactory",
      "outputs": [
        {
          "internalType": "contract SummerVestingWalletFactory",
          "name": "",
          "type": "address"
        }
      ],
      "stateMutability": "view",
      "type": "function"
    },
    {
      "inputs": [
        {
          "internalType": "address",
          "name": "account",
          "type": "address"
        }
      ],
      "name": "whitelistedAddresses",
      "outputs": [
        {
          "internalType": "bool",
          "name": "isWhitelisted",
          "type": "bool"
        }
      ],
      "stateMutability": "view",
      "type": "function"
    }
  ],
  "bytecode": "0x610200604052346100f15761001a6100156101da565b610317565b6040516153289081611454823960805181818161091901528181610a3901528181610f600152818161141a0152818161247b015281816140040152614839015260a051818181610eb001528181611ce1015281816133a3015281816137a80152614149015260c05181613689015260e0518161374601526101005181613653015261012051816136d8015261014051816136fe0152610160518161183f0152610180518161186801526101a051818181610cc2015261420901526101c0518161132b01526101e0518181816108100152612f260152f35b5f80fd5b634e487b7160e01b5f52604160045260245ffd5b601f909101601f19168101906001600160401b0382119082101761012c57604052565b6100f5565b6040519061014161016083610109565b565b60405190610141604083610109565b81601f820112156100f1578051906001600160401b03821161012c5760405192610186601f8401601f191660200185610109565b828452602083830101116100f157815f9260208093018386015e8301015290565b51906001600160a01b03821682036100f157565b519064ffffffffff821682036100f157565b519060028210156100f157565b61a03c80380380604051926101ef8285610109565b83398101906020818303126100f1578051906001600160401b0382116100f1570190610160828203126100f157610224610131565b82519092906001600160401b0381116100f15782610243918301610152565b835260208101516001600160401b0381116100f15761014092610267918301610152565b6020840152610278604082016101a7565b6040840152610289606082016101a7565b606084015261029a608082016101a7565b60808401526102ab60a082016101bb565b60a084015260c081015160c08401526102c660e082016101cd565b60e0840152610100810151610100840152610120810151610120840152015161014082015290565b600211156102f857565b634e487b7160e01b5f52602160045260245ffd5b6040513d5f823e3d90fd5b6080810180519091906103ad906001600160a01b0316926103726101208401518451956020860151610352604088015160018060a01b031690565b906060880198806103698b5160018060a01b031690565b958695306104b5565b6103a061038760a085015164ffffffffff1690565b60c085015160e08601519161039b836102ee565b6109ef565b516001600160a01b031690565b60405190611c82808301916001600160401b0383118484101761012c5783926103ee9261677c85393081526001600160a01b03909116602082015260400190565b03905ff080156104b057601280546001600160a01b0319166001600160a01b039290921691821790556104319061042c905b6001600160a01b031690565b610a21565b6101008101516101e052604051611bfe808201906001600160401b0382118383101761012c57829161046b916183fe843930815260200190565b03905ff09182156104b057601780546001600160a01b0319166001600160a01b039094169390931790925561014191610140906104a7906103a0565b91015190610a60565b61030c565b979491926104c79693979491976105be565b6001600160a01b038116908115610592576040516301ffc9a760e01b81526338c7ccdb60e01b6004820152602081602481865afa9081156104b0575f91610563575b50156105485750601080546001600160a01b0319166001600160a01b03928316179055168015610539576101c052565b6334566e4b60e21b5f5260045ffd5b6347bd7c1d60e01b5f526001600160a01b031660045260245ffd5b610585915060203d60201161058b575b61057d8183610109565b8101906105a6565b5f610509565b503d610573565b6347bd7c1d60e01b5f90815260045260245ffd5b908160209103126100f1575180151581036100f15790565b9594929092604051946105d2604087610109565b600186526105ea6020870197603160f81b895261098b565b6001600160a01b039081166080819052908216156106f257610614906001600160a01b0316610420565b803b156100f15760405163ca5eb5e160e01b81526001600160a01b039290921660048301525f908290602490829084905af180156104b0576106d8575b506106736106789261066b610666600661095a565b610970565b60a052610788565b61086d565b61068181610b3e565b6101605261068e82610c33565b610180526020815191012061012052519020610140524660e0526106b0610d25565b60c052306101005280156106c4576101a052565b63392e1e2760e01b5f90815260045260245ffd5b806106e65f6106ec93610109565b80610981565b5f610651565b632d618d8160e21b5f5260045ffd5b90600182811c9216801561072f575b602083101461071b57565b634e487b7160e01b5f52602260045260245ffd5b91607f1691610710565b601f821161074657505050565b5f5260205f20906020601f840160051c8301931061077e575b601f0160051c01905b818110610773575050565b5f8155600101610768565b909150819061075f565b80519091906001600160401b03811161012c576107b1816107aa600854610701565b6008610739565b602092601f82116001146107f1576107e1929382915f926107e6575b50508160011b915f199060031b1c19161790565b600855565b015190505f806107cd565b60085f52601f198216937ff3f7a9fe364faab93b216da50a3214154f22a0a2b415b23a84c8169e8b636ee3915f5b868110610855575083600195961061083d575b505050811b01600855565b01515f1960f88460031b161c191690555f8080610832565b9192602060018192868501518155019401920161081f565b80519091906001600160401b03811161012c576108968161088f600954610701565b6009610739565b602092601f82116001146108ca576108c5929382915f926107e65750508160011b915f199060031b1c19161790565b600955565b60095f52601f198216937f6e1540171b6c0c960b71a7020d9f60077f6af931a8bbf590da0223dacf75c7af915f5b86811061092e5750836001959610610916575b505050811b01600955565b01515f1960f88460031b161c191690555f808061090b565b919260206001819286850151815501940192016108f8565b634e487b7160e01b5f52601160045260245ffd5b60ff166012039060ff821161096b57565b610946565b60ff16604d811161096b57600a0a90565b5f9103126100f157565b6001600160a01b031680156109dc575f80546001600160a01b03198116831782556001600160a01b0316907f8be0079c531659141344cd1fd0a4f28419497f9722a3daafe3b4186f6b6457e09080a3565b631e4fbdf760e01b5f525f60045260245ffd5b64ffffffffff1664ffffffffff19601454161760145560155560028110156102f85760ff801960165416911617601655565b6001600160a01b03168015610539576011546001600160a01b038116610a51576001600160a01b03191617601155565b6336f62bb160e01b5f5260045ffd5b91906001600160a01b0383168015610b2b57610a86610a8183600754610def565b600755565b6001600160a01b0384165f908152600560209081526040808320805486019055518481527fddf252ad1be2c89b69c2b068fc378daa952ba7f163c4a11628f55a4df523b3ef9190a3600754926001600160d01b03808511610b145750610aed929350610dfc565b6101a051600754818111610aff575050565b63279e7e1560e21b5f5260045260245260445ffd5b630e58ae9360e11b5f52600485905260245260445ffd5b63ec442f0560e01b5f525f60045260245ffd5b908151602081105f14610b59575090610b5690610d84565b90565b6001600160401b03811161012c57610b7d81610b76600a54610701565b600a610739565b602092601f8211600114610bb457610bac929382915f926107e65750508160011b915f199060031b1c19161790565b600a5560ff90565b600a5f52601f198216937fc65a7bb8d6351c1cf70c95a316cc6a92839c986682d98bc35f958f4883f9d2a8915f5b868110610c1b5750836001959610610c03575b505050811b01600a5560ff90565b01515f1960f88460031b161c191690555f8080610bf5565b91926020600181928685015181550194019201610be2565b908151602081105f14610c4b575090610b5690610d84565b6001600160401b03811161012c57610c6f81610c68600b54610701565b600b610739565b602092601f8211600114610ca657610c9e929382915f926107e65750508160011b915f199060031b1c19161790565b600b5560ff90565b600b5f52601f198216937f0175b7a638427703f0dbe7bb9bbf987a2551717b34e79f33b5b1008d1fa01db9915f5b868110610d0d5750836001959610610cf5575b505050811b01600b5560ff90565b01515f1960f88460031b161c191690555f8080610ce7565b91926020600181928685015181550194019201610cd4565b61012051610140516040519060208201927f8b73c3c69bb8fe3d512ecc4cf759cc79239f7b179b0ffacaa9a75d522b39400f8452604083015260608201524660808201523060a082015260a08152610d7e60c082610109565b51902090565b601f815111610daf576020815191015160208210610da0571790565b5f198260200360031b1b161790565b604460209160405192839163305a27a960e01b83528160048401528051918291826024860152018484015e5f828201840152601f01601f19168101030190fd5b9190820180921161096b57565b90610e07825f610e28565b610e2457610e1681835f610e78565b610e2457610141915f610fe8565b5050565b6012546001600160a01b0390811691168114918215610e51575b5050610e4c575f90565b600190565b6001600160a01b03161490505f80610e42565b908160209103126100f157610b56906101a7565b60175490929190610e91906001600160a01b0316610420565b6040516305e5f31960e21b81526001600160a01b038316600482015290602090829060249082905afa9081156104b0575f91610fc9575b506001600160a01b03811680610f9e575050601754610f2393602091610ef6906001600160a01b0316610420565b6040516305e5f31960e21b81526001600160a01b0390921660048301529094859190829081906024820190565b03915afa9283156104b0575f93610f6d575b506001600160a01b03831680610f4d57505050505f90565b6001600160a01b03821614610f6557610e4c92610fe8565b505050600190565b610f9091935060203d602011610f97575b610f888183610109565b810190610e64565b915f610f35565b503d610f7e565b9091506001600160a01b03841603610fb857505050600190565b610fc192610fe8565b5f8080610f65565b610fe2915060203d602011610f9757610f888183610109565b5f610ec8565b9091906001600160a01b0316801561104f575b610141926001600160a01b0316908115611037575b5f908152600d6020526040808220549282529020546001600160a01b03908116911661120c565b611048611043846110c4565b6110f5565b5050611010565b611058826110c4565b600f548061109d57505f905b6001600160d01b03918216908216019390841161096b5761014193611093904265ffffffffffff16600f61137d565b9050509250610ffb565b805f1981011161096b57600f5f525f516020619ffc5f395f51905f52015460301c90611064565b6001600160d01b0381116110de576001600160d01b031690565b6306dfcc6560e41b5f5260d060045260245260445ffd5b600f548061113257505f905b6001600160d01b039081169181169190910390811161096b5761112e904265ffffffffffff16600f61137d565b9091565b805f1981011161096b57600f5f525f516020619ffc5f395f51905f52015460301c90611101565b90815480155f1461119457505f905b6001600160d01b039081169181169190910390811161096b5761112e9165ffffffffffff42169061137d565b805f1981011161096b575f83815260209020015f19015460301c90611168565b90815480155f146111ec57505f905b6001600160d01b039182169082160190811161096b5761112e9165ffffffffffff42169061137d565b805f1981011161096b575f83815260209020015f19015460301c906111c3565b6001600160a01b038083169392919081169081851415806112ff575b611234575b5050505050565b816112a5575b505082611249575b808061122d565b6001600160a01b03165f908152600e602052604090205f51602061a01c5f395f51905f52916112829161127c90916110c4565b906111b4565b604080516001600160d01b039384168152919092166020820152a25f8080611242565b6001600160a01b03165f908152600e602052604090205f51602061a01c5f395f51905f52906112dd906112d7866110c4565b90611159565b604080516001600160d01b039384168152919092166020820152a25f8061123a565b50831515611228565b5f1981019190821161096b57565b9081546801000000000000000081101561012c5760018101808455811015611369575f9283526020928390208251929093015160301b65ffffffffffff191665ffffffffffff9290921691909117910155565b634e487b7160e01b5f52603260045260245ffd5b805492939280156114295761139461139f91611308565b825f5260205f200190565b8054603081901c9365ffffffffffff9182169291811680841161141a578793036113e657506113e292509065ffffffffffff82549181199060301b169116179055565b9190565b9150506113e2916114066113f8610143565b65ffffffffffff9093168352565b6001600160d01b0386166020830152611316565b632520601d60e01b5f5260045ffd5b509061144e9161143a6113f8610143565b6001600160d01b0385166020830152611316565b5f919056fe60806040526004361015610011575f80fd5b5f3560e01c806306c933d8146104bf57806306fdde03146104ba578063095ea7b3146104b55780630d35b415146104b05780630dce88f4146104ab578063111ecdad146104a657806313137d65146104a1578063134d4f251461049c578063156a0d0f1461049757806317442b701461049257806318160ddd1461048d5780631f5e13341461048857806323b872dd14610483578063313ce5671461047e5780633400288b14610479578063355274ea146104745780633644e5151461046f5780633a46b1a81461046a5780633b6f743b14610465578063412290811461046057806342966c681461045b5780634bf5d7e91461045657806352ae2879146103575780635535d46114610451578063587cde1e1461044c5780635a0dfe4d146104475780635c19a95c146104425780635e280f111461043d57806369b3054b146104385780636fc1b31e146104335780636fcfff451461042e57806370a0823114610429578063715018a61461042457806379cc67901461041f5780637c930dde1461041a5780637d25a05e146104155780637ecebe001461041057806382413eac1461040b57806384b0196e14610406578063857749b0146104015780638ab1d681146103fc5780638da5cb5b146103f75780638e539e8c146103f257806391ddadf4146103ed57806392a525d5146103e857806395d89b41146103e3578063963efcaa146103de5780639ab24eb0146103d95780639f68b964146103d4578063a9059cbb146103cf578063af35c6c7146103ca578063b731ea0a146103c5578063b98bd070146103c0578063bb0b6a53146103bb578063bc70b354146103b6578063bd815db0146103b1578063bef97c87146103ac578063c3cda520146103a7578063c7c7f5b3146103a2578063ca5eb5e11461039d578063cfe081d114610398578063d045a0dc14610393578063d42438851461038e578063d505accf14610389578063dd62ed3e14610384578063defe20531461037f578063e0cf01ae1461037a578063e43252d714610375578063ea4ebdca14610370578063ebc136d01461036b578063f1127ed814610366578063f2fde38b14610361578063f56a47a51461035c578063fc0c546a146103575763ff7bd03d14610352575f80fd5b612bd0565b611096565b612ba3565b612b1a565b612a6a565b61298a565b612966565b6128ad565b6127f4565b6127cc565b61276d565b612641565b6125d1565b6125a0565b6124f0565b612453565b612331565b6121cd565b612188565b612034565b611fe0565b611fa7565b611ec4565b611e4a565b611d9f565b611d75565b611d5b565b611d04565b611cca565b611c25565b611b67565b611b45565b611a32565b611a0b565b61193f565b611924565b611827565b6117c9565b61178e565b611768565b61165c565b611628565b6115d1565b611596565b61152e565b6114be565b611449565b611405565b6112fd565b6112b7565b611274565b6111f9565b611046565b611027565b610fff565b610e4c565b610d07565b610ce5565b610cab565b610c26565b610bfd565b610bbd565b610ba2565b610b85565b610b64565b610b3e565b610b23565b610906565b610833565b6107f9565b610718565b610635565b61055b565b6104d9565b6001600160a01b038116036104d557565b5f80fd5b346104d55760203660031901126104d5576004356104f6816104c4565b60018060a01b03165f526018602052602060ff60405f2054166040519015158152f35b5f9103126104d557565b805180835260209291819084018484015e5f828201840152601f01601f1916010190565b906020610558928181520190610523565b90565b346104d5575f3660031901126104d5576040515f60085461057b816110d0565b808452906001811690811561061157506001146105b3575b6105af836105a3818503826111d8565b60405191829182610547565b0390f35b60085f9081527ff3f7a9fe364faab93b216da50a3214154f22a0a2b415b23a84c8169e8b636ee3939250905b8082106105f7575090915081016020016105a3610593565b9192600181602092548385880101520191019092916105df565b60ff191660208086019190915291151560051b840190910191506105a39050610593565b346104d55760403660031901126104d55761065f600435610655816104c4565b6024359033614077565b602060405160018152f35b908160e09103126104d55790565b939291906106948560a081019260208091805184520151910152565b60a06040860152815180915260c0850190602060c08260051b8801019301915f905b8282106106dc57505050509060606106da9294019060208091805184520151910152565b565b9091929360208061070a60019360bf198c82030186526040838a518051845201519181858201520190610523565b9601920192019092916106b6565b346104d55760203660031901126104d5576004356001600160401b0381116104d55761074890369060040161066a565b610750612c47565b50610759612c47565b506040516107668161119d565b5f81526001600160401b03602082015260206040519261078682856111d8565b5f8452601f1982015f5b8181106107d6575050906107ba6105af9260408101356107b4606083013592612c76565b5061339a565b90916107c4612c29565b92835282015260405193849384610678565b83906040516107e48161119d565b5f815260608382015282828901015201610790565b346104d5575f3660031901126104d55760206040517f00000000000000000000000000000000000000000000000000000000000000008152f35b346104d5575f3660031901126104d5576004546040516001600160a01b039091168152602090f35b60609060031901126104d557600490565b9181601f840112156104d5578235916001600160401b0383116104d557602083818601950101116104d557565b90600319820160e081126104d5576060136104d557600491606435916084356001600160401b0381116104d557826108d39160040161086c565b9290929160a4356108e3816104c4565b9160c435906001600160401b0382116104d5576109029160040161086c565b9091565b61090f36610899565b50919492915050337f00000000000000000000000000000000000000000000000000000000000000006001600160a01b031603610b1057813561095181610c18565b61095a816133ec565b906020840135809203610aeb575050610982610976858361411d565b6001600160a01b031690565b936109a86109986109938385614129565b61413b565b6109a185612c76565b508661416f565b916109b38260281090565b610a0b575b50506109e47fefed6d3500546b29533b128a29e3a94d70788727f0507505ac12eaf2e578fd9c92612c76565b6040805163ffffffff92909216825260208201929092526001600160a01b039490941693a3005b9082610a3692610a30610a206040880161341c565b93610a2a88612c76565b9261426a565b92614286565b917f00000000000000000000000000000000000000000000000000000000000000006001600160a01b0316803b156104d557604051633e5ac80960e11b8152935f918591829084908290610a8f908b8d60048501613426565b03925af1908115610ae6577fefed6d3500546b29533b128a29e3a94d70788727f0507505ac12eaf2e578fd9c936109e492610acc575b50926109b8565b80610ada5f610ae0936111d8565b80610519565b5f610ac5565b612c9b565b80610afa63ffffffff92610c18565b63309afaf360e21b5f521660045260245260445ffd5b6391ac5e4f60e01b5f523360045260245ffd5b346104d5575f3660031901126104d557602060405160028152f35b346104d5575f3660031901126104d5576040805162b9270b60e21b815260016020820152f35b346104d5575f3660031901126104d557604080516001815260026020820152f35b346104d5575f3660031901126104d5576020600754604051908152f35b346104d5575f3660031901126104d557602060405160018152f35b346104d55760603660031901126104d55761065f600435610bdd816104c4565b602435610be9816104c4565b60443591610bf8833383613450565b61351e565b346104d5575f3660031901126104d557602060405160128152f35b63ffffffff8116036104d557565b346104d55760403660031901126104d5577f238399d427b947898edb290f5ff0f9109849b1c3ba196a42e35f00c50a54b98b600435610c6481610c18565b60243590610c7061362a565b63ffffffff81165f5260016020528160405f2055610ca6604051928392836020909392919363ffffffff60408201951681520152565b0390a1005b346104d5575f3660031901126104d55760206040517f00000000000000000000000000000000000000000000000000000000000000008152f35b346104d5575f3660031901126104d5576020610cff613650565b604051908152f35b346104d55760403660031901126104d557600435610d24816104c4565b6024359065ffffffffffff421680831015610e2c57506001600160a01b0381165f908152600e6020526040902091610d5b90613a0e565b9180545f938160058111610dc4575b508291602095610d7e92610cff969561454a565b80610da5575050610d9f60035f5b6001600160d01b0316925f81601361493c565b906142da565b610d9f91610db46003926139f3565b905f52855f20015460301c610d8c565b93929190610dd1856143ec565b8503948511610e2757602095610cff95610d7e93855f5265ffffffffffff828a5f2001541665ffffffffffff8516105f14610e155750915b92509550919293610d6a565b929150610e2190613a3d565b90610e09565b612c15565b82637669fc0f60e11b5f5260045260245260445ffd5b801515036104d557565b346104d55760403660031901126104d5576004356001600160401b0381116104d557610e7c90369060040161066a565b602435610e8881610e42565b610e90612c47565b50813591606081013590610edb6040820135610eab86610c18565b610ed67f000000000000000000000000000000000000000000000000000000000000000080926140ec565b61410a565b91808310610fe957610f5c604086610f4187610ef78888613791565b90610f0185610c18565b610f09612c47565b50610f13856133ec565b610f2a610f1e612c38565b63ffffffff9097168752565b602086015285850152606084015215156080830152565b815180938192631bb8518b60e31b83523090600484016138cc565b03817f00000000000000000000000000000000000000000000000000000000000000006001600160a01b03165afa8015610ae6576105af915f91610fba575b5060405191829182815181526020918201519181019190915260400190565b610fdc915060403d604011610fe2575b610fd481836111d8565b8101906138b8565b82610f9b565b503d610fca565b826371c4efed60e01b5f5260045260245260445ffd5b346104d5575f3660031901126104d5576017546040516001600160a01b039091168152602090f35b346104d55760203660031901126104d5576110446004353361393a565b005b346104d5575f3660031901126104d5576105af6040516110676040826111d8565b600e81526d06d6f64653d74696d657374616d760941b6020820152604051918291602083526020830190610523565b346104d5575f3660031901126104d5576020604051308152f35b6024359061ffff821682036104d557565b359061ffff821682036104d557565b90600182811c921680156110fe575b60208310146110ea57565b634e487b7160e01b5f52602260045260245ffd5b91607f16916110df565b5f9291815491611117836110d0565b808352926001811690811561116c575060011461113357505050565b5f9081526020812093945091925b838310611152575060209250010190565b600181602092949394548385870101520191019190611141565b915050602093945060ff929192191683830152151560051b010190565b634e487b7160e01b5f52604160045260245ffd5b604081019081106001600160401b038211176111b857604052565b611189565b606081019081106001600160401b038211176111b857604052565b90601f801991011681019081106001600160401b038211176111b857604052565b346104d55760403660031901126104d5576105af61125961126061124d60043561122281610c18565b63ffffffff61122f6110b0565b91165f52600360205260405f209061ffff165f5260205260405f2090565b60405192838092611108565b03826111d8565b604051918291602083526020830190610523565b346104d55760203660031901126104d557600435611291816104c4565b60018060a01b03165f52600d602052602060018060a01b0360405f205416604051908152f35b346104d55760403660031901126104d55760206112f36004356112d981610c18565b6024359063ffffffff165f52600160205260405f20541490565b6040519015158152f35b346104d55760203660031901126104d55760043561131a816104c4565b33611329575b611044906139e9565b7f00000000000000000000000000000000000000000000000000000000000000006001600160a01b0316803b156104d557604051633e4986ef60e11b8152336004820152905f908290602490829084905af18015610ae6576113f1575b5060115461139c906001600160a01b0316610976565b90813b156104d55760405163dae21dab60e01b8152336004820152915f908390602490829084905af1918215610ae657611044926113dd575b509050611320565b80610ada5f6113eb936111d8565b5f6113d5565b80610ada5f6113ff936111d8565b5f611386565b346104d5575f3660031901126104d5576040517f00000000000000000000000000000000000000000000000000000000000000006001600160a01b03168152602090f35b346104d55760403660031901126104d55760043560038110156104d5576105af90602435611476816104c4565b60405190602082019260f81b83526bffffffffffffffffffffffff199060601b166021820152601581526114ab6035826111d8565b5190206040519081529081906020820190565b346104d55760203660031901126104d5577ff0be4f1e87349231d80c36b33f9e8639658eeaf474014dee15a3e6a4d441419760206004356114fe816104c4565b61150661362a565b600480546001600160a01b0319166001600160a01b03929092169182179055604051908152a1005b346104d55760203660031901126104d55760043561154b816104c4565b6001600160a01b03165f908152600e602052604090205463ffffffff811161157f5760405163ffffffff9091168152602090f35b6306dfcc6560e41b5f52602060045260245260445ffd5b346104d55760203660031901126104d5576004356115b3816104c4565b60018060a01b03165f526005602052602060405f2054604051908152f35b346104d5575f3660031901126104d5576115e961362a565b5f80546001600160a01b0319811682556001600160a01b03167f8be0079c531659141344cd1fd0a4f28419497f9722a3daafe3b4186f6b6457e08280a3005b346104d55760403660031901126104d557611044600435611648816104c4565b60243590611657823383613450565b61393a565b346104d55760203660031901126104d557600435611679816104c4565b60105461168e906001600160a01b0316610976565b60405163605a9a6160e11b8152602081600481855afa8015610ae6576116d6926020925f92611739575b506040518080958194632474521560e21b8352339060048401612cde565b03915afa908115610ae6575f9161170a575b50156116f75761104490612cf7565b630a4510f960e31b5f523360045260245ffd5b61172c915060203d602011611732575b61172481836111d8565b810190612cc9565b5f6116e8565b503d61171a565b61175a919250833d8511611761575b61175281836111d8565b810190612cba565b905f6116b8565b503d611748565b346104d55760403660031901126104d557611784600435610c18565b60206040515f8152f35b346104d55760203660031901126104d5576004356117ab816104c4565b60018060a01b03165f52600c602052602060405f2054604051908152f35b346104d55760a03660031901126104d5576117e33661085b565b506064356001600160401b0381116104d55761180390369060040161086c565b50506020608435611813816104c4565b6040516001600160a01b0390911630148152f35b346104d5575f3660031901126104d5576118cb6118637f000000000000000000000000000000000000000000000000000000000000000061435c565b61188c7f00000000000000000000000000000000000000000000000000000000000000006143b5565b602060405161189b82826111d8565b5f8152816118d981830194601f198301368737604051978897600f60f81b895260e0858a015260e0890190610523565b908782036040890152610523565b914660608701523060808701525f60a087015285830360c087015251918281520192915f5b82811061190d57505050500390f35b8351855286955093810193928101926001016118fe565b346104d5575f3660031901126104d557602060405160068152f35b346104d55760203660031901126104d55760043561195c816104c4565b601054611971906001600160a01b0316610976565b604051630ccc574960e41b8152602081600481855afa8015610ae6576119b8926020925f9261173957506040518080958194632474521560e21b8352339060048401612cde565b03915afa908115610ae6575f916119ec575b50156119d95761104490612e8e565b630ea7d7ed60e21b5f523360045260245ffd5b611a05915060203d6020116117325761172481836111d8565b5f6119ca565b346104d5575f3660031901126104d5575f546040516001600160a01b039091168152602090f35b346104d55760203660031901126104d5574265ffffffffffff1660043581811015611b3057611a6090613a0e565b600f54905f829160058411611adc575b611a7c9350600f61454a565b80611aa157506105af5f5b6040516001600160d01b0390911681529081906020820190565b611aad6105af916139f3565b600f5f527f8d1108e10bcb7c27dddfc02ed9d693a074039d026cf4ea4240b40f7d581ac802015460301c611a87565b9192611ae7816143ec565b8103908111610e2757611a7c93600f5f5265ffffffffffff8260205f2001541665ffffffffffff8516105f14611b1e575091611a70565b929150611b2a90613a3d565b90611a70565b637669fc0f60e11b5f5260045260245260445ffd5b346104d5575f3660031901126104d557602060405165ffffffffffff42168152f35b346104d55760203660031901126104d55760043564ffffffffff811681036104d557601054611b9e906001600160a01b0316610976565b604051630ccc574960e41b8152602081600481855afa8015610ae657611be5926020925f9261173957506040518080958194632474521560e21b8352339060048401612cde565b03915afa908115610ae6575f91611c06575b50156119d95761104490612ed2565b611c1f915060203d6020116117325761172481836111d8565b5f611bf7565b346104d5575f3660031901126104d5576040515f600954611c45816110d0565b80845290600181169081156106115750600114611c6c576105af836105a3818503826111d8565b60095f9081527f6e1540171b6c0c960b71a7020d9f60077f6af931a8bbf590da0223dacf75c7af939250905b808210611cb0575090915081016020016105a3610593565b919260018160209254838588010152019101909291611c98565b346104d5575f3660031901126104d55760206040517f00000000000000000000000000000000000000000000000000000000000000008152f35b346104d55760203660031901126104d5576020610cff611d56600435611d29816104c4565b611d506003610d8c611d4b8460018060a01b03165f52600e60205260405f2090565b6145ae565b90614c5c565b614cf1565b346104d5575f3660031901126104d55760206040515f8152f35b346104d55760403660031901126104d55761065f600435611d95816104c4565b602435903361351e565b346104d5575f3660031901126104d557601054611dc4906001600160a01b0316610976565b604051630ccc574960e41b8152602081600481855afa8015610ae657611e0b926020925f9261173957506040518080958194632474521560e21b8352339060048401612cde565b03915afa908115610ae6575f91611e2b575b50156119d957611044612f16565b611e44915060203d6020116117325761172481836111d8565b5f611e1d565b346104d5575f3660031901126104d5576002546040516001600160a01b039091168152602090f35b9060206003198301126104d5576004356001600160401b0381116104d55760040182601f820112156104d5578035926001600160401b0384116104d5576020808301928560051b0101116104d5579190565b346104d557611ed236611e72565b90611edb61362a565b611ee482612c5f565b90611ef260405192836111d8565b828252602082019260051b8101903682116104d55780935b828510611f1a5761104484613c0a565b84356001600160401b0381116104d5578201906060823603126104d55760405191611f44836111bd565b8035611f4f81610c18565b8352611f5d602082016110c1565b60208401526040810135906001600160401b0382116104d557019036601f830112156104d557602092611f97849336908581359101612f9f565b6040820152815201940193611f0a565b346104d55760203660031901126104d55763ffffffff600435611fc981610c18565b165f526001602052602060405f2054604051908152f35b346104d55760603660031901126104d557600435611ffd81610c18565b6120056110b0565b604435906001600160401b0382116104d5576105af9261202c61126093369060040161086c565b929091613064565b61203d36611e72565b5f5b8181106120ac57604051638e9e709960e01b81525f81600481335afa8015610ae657612086915f9161208a575b50604051638351eea760e01b815291829160048301610547565b0390fd5b6120a691503d805f833e61209e81836111d8565b810190613209565b8261206c565b6120b781838561311a565b906120e76120e36120c784612c76565b60208501359063ffffffff165f52600160205260405f20541490565b1590565b61217f5760c08201359160a0810135612104610100830183613142565b94909161211360e08501613174565b93612122610120820182613142565b959095303b156104d5575f9661214f926040519a8b9889978897633411683760e21b89526004890161318f565b0391305af1918215610ae65760019261216b575b505b0161203f565b80610ada5f612179936111d8565b5f612163565b60019150612165565b346104d5575f3660031901126104d557602060ff60175460a01c166040519015158152f35b6064359060ff821682036104d557565b6084359060ff821682036104d557565b346104d55760c03660031901126104d5576004356121ea816104c4565b602435906044356121f96121ad565b6084359060a435928042116122ce579161227e93916122706122759460405160208101917fe48329057bfd03d55e49b547132e39cffd9c1820ad7b9d4c5307691425d15adf835260018060a01b038a1660408301528a606083015260808201526080815261226860a0826111d8565b519020613cff565b6145d8565b9092919261465a565b6001600160a01b0381165f908152600c602052604090208054600181019091558093036122af576110449250613d34565b90506301d4b62360e61b5f5260018060a01b031660045260245260445ffd5b632341d78760e11b5f5260045260245ffd5b9160806106da929493612320604060c0830197805184526001600160401b0360208201511660208501520151604083019060208091805184520151910152565b019060208091805184520151910152565b60803660031901126104d5576004356001600160401b0381116104d55761235c90369060040161066a565b60403660231901126104d557606435612374816104c4565b61237c61326b565b50612385612c47565b5060608201359061239e6040840135610eab8535610c18565b91808310610fe957506123d8906123b5833361393a565b6123bf8385613791565b6123c886612c76565b916123d236613291565b92613f87565b906123e1612c29565b928184528160208501527f85496b760a4b7f8d66384b9df21b381f5d1b1e79f229a47aaf4c232edc2fe59a61244161241a855193612c76565b936040519181839233978460409194939263ffffffff606083019616825260208201520152565b0390a36105af604051928392836122e0565b346104d5575f60203660031901126104d557600435612471816104c4565b61247961362a565b7f00000000000000000000000000000000000000000000000000000000000000006001600160a01b031690813b156104d55760405163ca5eb5e160e01b81526001600160a01b039091166004820152905f908290602490829084905af18015610ae6576124e4575080f35b61104491505f906111d8565b346104d55760203660031901126104d557600435601054612519906001600160a01b0316610976565b604051630ccc574960e41b8152602081600481855afa8015610ae657612560926020925f9261173957506040518080958194632474521560e21b8352339060048401612cde565b03915afa908115610ae6575f91612581575b50156119d957611044906132b9565b61259a915060203d6020116117325761172481836111d8565b5f612572565b6125a936610899565b50505092903033036125c257610982610976858361411d565b63029a949d60e31b5f5260045ffd5b346104d55760203660031901126104d5577fd48d879cef83a1c0bdda516f27b13ddb1b3f8bbac1c9e1511bb2a659c24277606020600435612611816104c4565b61261961362a565b600280546001600160a01b0319166001600160a01b03929092169182179055604051908152a1005b346104d55760e03660031901126104d55760043561265e816104c4565b60243561266a816104c4565b604435906064359261267a6121bd565b60a43560c4359086421161275a576001600160a01b0384165f908152600c6020526040902080546001810190915561271f939061271a909860405160208101917f6e71edae12b1b97f4d1f60370fef10105fa2faae0126114a169c64845d6126c9835260018060a01b0389169b8c604084015260018060a01b038b1660608401528b608084015260a083015260c082015260c0815261226860e0826111d8565b613d25565b936001600160a01b03851603612739576110449350614077565b6325c0072360e11b5f526001600160a01b038085166004521660245260445ffd5b8663313c898160e11b5f5260045260245ffd5b346104d55760403660031901126104d55760206127c360043561278f816104c4565b6024359061279c826104c4565b60018060a01b03165f526006835260405f209060018060a01b03165f5260205260405f2090565b54604051908152f35b346104d5575f3660031901126104d5576012546040516001600160a01b039091168152602090f35b346104d55760203660031901126104d55760043560028110156104d557601054612826906001600160a01b0316610976565b604051630ccc574960e41b8152602081600481855afa8015610ae65761286d926020925f9261173957506040518080958194632474521560e21b8352339060048401612cde565b03915afa908115610ae6575f9161288e575b50156119d95761104490613308565b6128a7915060203d6020116117325761172481836111d8565b5f61287f565b346104d55760203660031901126104d5576004356128ca816104c4565b6010546128df906001600160a01b0316610976565b604051630ccc574960e41b8152602081600481855afa8015610ae657612926926020925f9261173957506040518080958194632474521560e21b8352339060048401612cde565b03915afa908115610ae6575f91612947575b50156119d95761104490613353565b612960915060203d6020116117325761172481836111d8565b5f612938565b346104d5575f3660031901126104d557602064ffffffffff60145416604051908152f35b346104d55760203660031901126104d5576004356129a7816104c4565b6010546129bc906001600160a01b0316610976565b60405163a89f38a360e01b81529091602082600481865afa928315610ae657612a06936020935f91612a4d575b50604051809581948293632474521560e21b845260048401612cde565b03915afa8015610ae6576105af915f91612a2e575b5060405190151581529081906020820190565b612a47915060203d6020116117325761172481836111d8565b5f612a1b565b612a649150843d86116117615761175281836111d8565b5f6129e9565b346104d55760403660031901126104d5576105af612ad0600435612a8d816104c4565b60243590612a9a82610c18565b612aa2612c47565b50612aab612c47565b506001600160a01b03165f908152600e60205260409020612aca612c47565b50614927565b5060405190612ade8261119d565b5465ffffffffffff811680835260309190911c60209283019081526040805192835290516001600160d01b031692820192909252918291820190565b346104d55760203660031901126104d557600435612b37816104c4565b612b3f61362a565b6001600160a01b03168015612b90575f80546001600160a01b03198116831782556001600160a01b0316907f8be0079c531659141344cd1fd0a4f28419497f9722a3daafe3b4186f6b6457e09080a3005b631e4fbdf760e01b5f525f60045260245ffd5b346104d55760203660031901126104d5576020610cff6003600435612bc7816104c4565b5f81601361493c565b346104d55760603660031901126104d5576020612bec3661085b565b63ffffffff8135612bfc81610c18565b165f52600182528160405f205491013560405191148152f35b634e487b7160e01b5f52601160045260245ffd5b604051906106da6040836111d8565b604051906106da60a0836111d8565b60405190612c548261119d565b5f6020838281520152565b6001600160401b0381116111b85760051b60200190565b3561055881610c18565b6001600160401b0381116111b857601f01601f191660200190565b6040513d5f823e3d90fd5b634e487b7160e01b5f52602160045260245ffd5b908160209103126104d5575190565b908160209103126104d5575161055881610e42565b9081526001600160a01b03909116602082015260400190565b6001600160a01b0381165f908152601360205260409020600101547f7d4f30fa682bd557f547a1f7245a280525fd183bdb54917c56ec7ef22e5b532a919064ffffffffff1615612def575b6001600160a01b0381165f908152601360205260409020612db560018201612d85612d7f612d75835464ffffffffff1690565b64ffffffffff1690565b42613a01565b612d98612d7560145464ffffffffff1690565b10612dd9575b805464ffffffffff19164264ffffffffff16179055565b54604080516001600160a01b0390931683526020830191909152819081015b0390a1565b612de86003855f81601361493c565b8355612d9e565b612e54604051612dfe8161119d565b670de0b6b3a76400008152600164ffffffffff602083018142168152612e358660139060018060a01b03165f5260205260405f2090565b93518455511691019064ffffffffff1664ffffffffff19825416179055565b6040516001600160a01b03821681527f9b44a2c7f9f0b5aa4e7da60d8a2325796c57f93a45559d66515743ffbd8a610390602090a1612d42565b6001600160a01b03165f818152601860205260408120805460ff191690557f535611fb62fa2a833988f283b779e417e996813e44046f521d76c17b5943b08c9080a2565b602064ffffffffff7f9ec539ec1ff2fdcda111a25f0c7d902ff0205d74dfaa05f434eecc8cdea9e8b192168064ffffffffff196014541617601455604051908152a1565b60175460ff8160a01c16612f90577f00000000000000000000000000000000000000000000000000000000000000004210612f815760ff60a01b1916600160a01b176017557feadb24812ab3c9a55c774958184293ebdb6c7f6a2dbab11f397d80c86feb65d35f80a1565b63be5fb0cb60e01b5f5260045ffd5b6385e1a58160e01b5f5260045ffd5b929192612fab82612c80565b91612fb960405193846111d8565b8294818452818301116104d5578281602093845f960137010152565b90929192836002116104d55783116104d557600201916001190190565b805191908290602001825e015f815290565b61301e93926106da92816040519687946020860190612ff2565b918237015f815203601f1981018452836111d8565b908060209392818452848401375f828201840152601f01601f1916010190565b916020610558938181520191613033565b61124d6112599263ffffffff6130959397959697165f52600360205260405f209061ffff165f5260205260405f2090565b8051156130f85783156130f25760028410156130c9575050612086604051928392639a6d49cd60e01b845260048401613053565b9092806130ec91610558946130e76130e2368484612f9f565b613cc7565b612fd5565b91613004565b92509050565b509190610558913691612f9f565b634e487b7160e01b5f52603260045260245ffd5b919081101561313d5760051b8101359061013e19813603018212156104d5570190565b613106565b903590601e19813603018212156104d557018035906001600160401b0382116104d5576020019181360383136104d557565b35610558816104c4565b6001600160401b038116036104d557565b9290936131eb926001600160401b0360406105589a98999763ffffffff81356131b781610c18565b1688526020810135602089015201356131cf8161317e565b166040860152606085015260e0608085015260e0840191613033565b6001600160a01b0390941660a082015280840360c090910152613033565b6020818303126104d5578051906001600160401b0382116104d5570181601f820112156104d55780519061323c82612c80565b9261324a60405194856111d8565b828452602083830101116104d557815f9260208093018386015e8301015290565b60405190613278826111bd565b815f81525f6020820152604061328c612c47565b910152565b60409060231901126104d557604051906132aa8261119d565b60243582526044356020830152565b670de0b6b3a764000081116132f9576020817f179ae38251712f92ada204166c624f1fd16102c85f82e13348393a898b04e9d292601555604051908152a1565b630678582160e51b5f5260045ffd5b600281101561334e5760207f7b7c2a74bf19219346c0b038bc25beb1372ff76eb0b6fe50ba0433b4ac9842799160ff8019601654169116809117601655604051908152a1565b612ca6565b6001600160a01b03165f818152601860205260408120805460ff191660011790557f4f783c179409b4127238bc9c990bc99b9a651666a0d20b51d6c42849eb88466d9080a2565b6133c990610ed67f000000000000000000000000000000000000000000000000000000000000000080926140ec565b9182918084106133d65750565b836371c4efed60e01b5f5260045260245260445ffd5b63ffffffff16805f52600160205260405f205490811561340a575090565b63f6ff4fb760e01b5f5260045260245ffd5b356105588161317e565b610558939260809260018060a01b0316825260208201525f60408201528160608201520190610523565b6001600160a01b039081165f81815260066020908152604080832094861683529390529190912091929091546001810161348b575b50505050565b8181106134fd5782156134ea576001600160a01b038416156134d7576134cd925f526006602052039160405f209060018060a01b03165f5260205260405f2090565b555f808080613485565b634a1406b160e11b5f525f60045260245ffd5b63e602df0560e01b5f525f60045260245ffd5b83637dc7a0d960e11b5f5260018060a01b031660045260245260445260645ffd5b6001600160a01b038116939291908415613617576001600160a01b03821680156136045761354c83836149f7565b156135f5576001600160a01b0382165f90815260056020526040902054958487106135cf57846106da9697036135928460018060a01b03165f52600560205260405f2090565b556001600160a01b0384165f9081526005602090815260409182902080548801905590518681525f5160206152d35f395f51905f529190a3614c2f565b63391434e360e21b5f526001600160a01b0383166004526024879052604485905260645ffd5b638cd22d1960e01b5f5260045ffd5b63ec442f0560e01b5f525f60045260245ffd5b634b637e8f60e11b5f525f60045260245ffd5b5f546001600160a01b0316330361363d57565b63118cdaa760e01b5f523360045260245ffd5b307f00000000000000000000000000000000000000000000000000000000000000006001600160a01b03161480613743575b156136ab577f000000000000000000000000000000000000000000000000000000000000000090565b60405160208101907f8b73c3c69bb8fe3d512ecc4cf759cc79239f7b179b0ffacaa9a75d522b39400f82527f000000000000000000000000000000000000000000000000000000000000000060408201527f000000000000000000000000000000000000000000000000000000000000000060608201524660808201523060a082015260a0815261373d60c0826111d8565b51902090565b507f00000000000000000000000000000000000000000000000000000000000000004614613682565b909161378361055893604084526040840190610523565b916020818403910152610523565b90916137f661381c936137d96137cd6020860135927f0000000000000000000000000000000000000000000000000000000000000000906140ec565b6001600160401b031690565b6137f06137e960a0870187613142565b3691612f9f565b916142e7565b93909283945f14613888576002905b61202c61381182612c76565b916080810190613142565b60045490926001600160a01b0390911690838261383857505050565b60405163043a78eb60e01b81529260209284928391829161385c916004840161376c565b03915afa8015610ae65761386d5750565b6138859060203d6020116117325761172481836111d8565b50565b600190613805565b91908260409103126104d5576040516138a88161119d565b6020808294805184520151910152565b906040828203126104d55761055891613890565b906020909392936040835263ffffffff8151166040840152818101516060840152608061392061390a604084015160a08488015260e0870190610523565b6060840151868203603f190160a0880152610523565b910151151560c08401526001600160a01b03909416910152565b6001600160a01b0381168015613617576139545f836149f7565b156135f5576001600160a01b0382165f908152600560205260409020548381106139c557915f8092856106da96950361399d8460018060a01b03165f52600560205260405f2090565b556007805486900390556040518581525f5160206152d35f395f51905f5290602090a3614c2f565b63391434e360e21b5f526001600160a01b038316600452602452604483905260645ffd5b6106da9033613d34565b5f19810191908211610e2757565b91908203918211610e2757565b65ffffffffffff8111613a265765ffffffffffff1690565b6306dfcc6560e41b5f52603060045260245260445ffd5b9060018201809211610e2757565b91908201809211610e2757565b805182101561313d5760209160051b010190565b601f8211613a7957505050565b5f5260205f20906020601f840160051c83019310613ab1575b601f0160051c01905b818110613aa6575050565b5f8155600101613a9b565b9091508190613a92565b91909182516001600160401b0381116111b857613ae281613adc84546110d0565b84613a6c565b6020601f8211600114613b21578190613b129394955f92613b16575b50508160011b915f199060031b1c19161790565b9055565b015190505f80613afe565b601f19821690613b34845f5260205f2090565b915f5b818110613b6e57509583600195969710613b56575b505050811b019055565b01515f1960f88460031b161c191690555f8080613b4c565b9192602060018192868b015181550194019201613b37565b602081016020825282518091526040820191602060408360051b8301019401925f915b838310613bb857505050505090565b9091929394602080613bfb600193603f19868203018752606060408b5163ffffffff815116845261ffff8682015116868501520151918160408201520190610523565b97019301930191939290613ba9565b5f5b8151811015613c955780613c2f6040613c2760019486613a58565b510151613cc7565b613c8f6040613c3e8386613a58565b51015163ffffffff613c508487613a58565b5151165f526003602052613c8a60405f20613c7a6020613c70878a613a58565b51015161ffff1690565b61ffff165f5260205260405f2090565b613abb565b01613c0c565b50612dd47fbe4864a8e820971c0247f5992e2da559595f7bf076a21cb5928d443d2a13b6749160405191829182613b86565b600361ffff60028301511603613cda5750565b604051639a6d49cd60e01b815260206004820152908190612086906024830190610523565b604290613d0a613650565b906040519161190160f01b8352600283015260228201522090565b916105589391612275936145d8565b6001600160a01b038181165f818152600d6020526040812080548685166001600160a01b03198216811790925594959490931693929184917f3134e8a2e6d97e929a7e54011ea5485d7d196dd5f0ba4d4ef95803e8e3fc257f9080a46001600160a01b0383165f90815260056020526040902054601254613dbd906001600160a01b0316610976565b6040516370a0823160e01b81526001600160a01b03861660048201529490602090869060249082905afa948515610ae6575f95613f24575b50601754613e0b906001600160a01b0316610976565b60405163baf3510760e01b81526001600160a01b0383166004820152602081602481855afa908115610ae6575f91613f05575b506001600160a01b031615613ef15760405163baf3510760e01b81526001600160a01b03929092166004830152909190602090839060249082905afa8015610ae6576106da95613eb0613eb792613ebc955f91613ec2575b506001600160a01b03165f90815260056020526040902090565b5492613a4b565b613a4b565b916146eb565b613ee4915060203d602011613eea575b613edc81836111d8565b8101906146d6565b5f613e96565b503d613ed2565b5050613ebc90613eb76106da955f92613a4b565b613f1e915060203d602011613eea57613edc81836111d8565b5f613e3e565b613f3e91955060203d6020116117615761175281836111d8565b935f613df5565b906080828203126104d557613f7f906040805193613f62856111bd565b805185526020810151613f748161317e565b602086015201613890565b604082015290565b613fe4608094926140009694613f9b61326b565b506020613fa8865161480d565b950191825180614068575b50613fbd856133ec565b9251151592613fcd610f1e612c38565b602086015260408501526060840152151585830152565b6040518095819482936302637a4560e41b8452600484016138cc565b03917f00000000000000000000000000000000000000000000000000000000000000006001600160a01b03165af1908115610ae6575f9161403f575090565b610558915060803d608011614061575b61405981836111d8565b810190613f45565b503d61404f565b6140719061482a565b5f613fb3565b6001600160a01b03169081156134ea576001600160a01b0381169283156134d757806140df7f8c5be1e5ebec7d5bd14f71427d1e84f3dd0314c0f7b2291e5b200ac8c7c3b92593855f52600660205260405f209060018060a01b03165f5260205260405f2090565b55604051908152602090a3565b81156140f6570490565b634e487b7160e01b5f52601260045260245ffd5b81810292918115918404141715610e2757565b906020116104d5573590565b906028116104d5576020013560c01c90565b610558906001600160401b037f0000000000000000000000000000000000000000000000000000000000000000911661410a565b6001600160a01b03811615614261575b6001600160a01b038116801561360457614199825f6149f7565b156135f5576141b26141ad84600754613a4b565b600755565b6001600160a01b0382165f908152600560209081526040808320805487019055518581525f5160206152d35f395f51905f529190a36007546001600160d01b039081811161424c57505081614207915f614c2f565b7f000000000000000000000000000000000000000000000000000000000000000060075481811161423757505090565b63279e7e1560e21b5f5260045260245260445ffd5b630e58ae9360e11b5f5260045260245260445ffd5b5061dead61417f565b90806028116104d5576105589136916027190190602801612f9f565b90926142cc90610558936040519586946001600160401b0360c01b9060c01b16602086015263ffffffff60e01b9060e01b166028850152602c840152604c830190612ff2565b03601f1981018352826111d8565b61055891611d5691614c5c565b8251158015939061432d57906142cc61432a9260405194859360208501526001600160401b0360c01b9060c01b1660408401523360488401526068830190612ff2565b91565b50906040519160208301526001600160401b0360c01b9060c01b1660408201526028815261432a6048826111d8565b60ff81146143a25760ff811690601f821161439357604051916143806040846111d8565b6020808452838101919036833783525290565b632cd44ac360e21b5f5260045ffd5b506040516105588161125981600a611108565b60ff81146143d95760ff811690601f821161439357604051916143806040846111d8565b506040516105588161125981600b611108565b600181111561055857806001600160801b82101561450d575b6144b36144a961449f61449561448b6144816144706144ba9760046144bf9a600160401b811015614500575b6401000000008110156144f3575b620100008110156144e6575b6101008110156144d9575b60108110156144cc575b10156144c4575b60030260011c90565b61447a818b6140ec565b0160011c90565b61447a818a6140ec565b61447a81896140ec565b61447a81886140ec565b61447a81876140ec565b61447a81866140ec565b80936140ec565b821190565b900390565b60011b614467565b60041c9160021b91614460565b60081c9160041b91614456565b60101c9160081b9161444b565b60201c9160101b9161443f565b60401c9160201b91614431565b50506144bf6144ba6144b36144a961449f61449561448b6144816144706145348a60801c90565b9850600160401b97506144059650505050505050565b91905b83821061455a5750505090565b9091928083169080841860011c8201809211610e2757845f5265ffffffffffff8260205f2001541665ffffffffffff8416105f1461459c5750925b919061454d565b9392506145a890613a3d565b91614595565b805490816145bc5750505f90565b815f19810111610e27575f525f199060205f2001015460301c90565b91906fa2a8918ca85bafe22016d0b997e4df60600160ff1b038411614645579160209360809260ff5f9560405194855216868401526040830152606082015282805260015afa15610ae6575f516001600160a01b0381161561463b57905f905f90565b505f906001905f90565b5050505f9160039190565b6004111561334e57565b61466381614650565b8061466c575050565b61467581614650565b6001810361468c5763f645eedf60e01b5f5260045ffd5b61469581614650565b600281036146b0575063fce698f760e01b5f5260045260245ffd5b806146bc600392614650565b146146c45750565b6335e2f38360e21b5f5260045260245ffd5b908160209103126104d55751610558816104c4565b6001600160a01b03808316939291908116908185141580614804575b614713575b5050505050565b81614797575b505082614728575b808061470c565b6001600160a01b03165f908152600e602052604090207fdec2bacdd2f05b59de34da9b523dff8be42e5e38e818c82fdb0bae774387a724916147749161476e9091614a78565b90614adc565b604080516001600160d01b039384168152919092166020820152a25f8080614721565b6001600160a01b03165f908152600e602052604090207fdec2bacdd2f05b59de34da9b523dff8be42e5e38e818c82fdb0bae774387a724906147e2906147dc86614a78565b90614aa9565b604080516001600160d01b039384168152919092166020820152a25f80614719565b50831515614707565b8034036148175790565b6304fb820960e51b5f523460045260245ffd5b60405163393f876560e21b81527f00000000000000000000000000000000000000000000000000000000000000006001600160a01b031690602081600481855afa908115610ae6575f91614908575b506001600160a01b03169182156148f9576020915f9160405190848201926323b872dd60e01b845233602484015260448301526064820152606481526148c06084826111d8565b519082855af115612c9b575f513d6148f05750803b155b6148de5750565b635274afe760e01b5f5260045260245ffd5b600114156148d7565b6329b99a9560e11b5f5260045ffd5b614921915060203d602011613eea57613edc81836111d8565b5f614879565b805482101561313d575f5260205f2001905f90565b939192909260028110156149ea57826003036152be576001600160a01b038481165f908152600d6020526040902054169081151582816149d6575b50806149c6575b6149af57505050506149936120e38284614b98565b6149a05761055891614b43565b633aab01a760e11b5f5260045ffd5b61055895929394506149c090613a3d565b9161493c565b506149d18287614b98565b61497e565b6001600160a01b038716141590505f614977565b5091505061055891614b43565b6001600160a01b031680158015614a67575b614a605760ff60175460a01c16614a60575f52601860205260ff60405f205416908115614a3f575b50614a3a575f90565b600190565b6001600160a01b03165f9081526018602052604081205460ff169150614a31565b5050600190565b506001600160a01b03821615614a09565b6001600160d01b038111614a92576001600160d01b031690565b6306dfcc6560e41b5f5260d060045260245260445ffd5b90614ab3826145ae565b6001600160d01b0391821690821603908111610e27576109029165ffffffffffff421690614eba565b90614ae6826145ae565b6001600160d01b0391821690821601908111610e27576109029165ffffffffffff421690614eba565b614b19600f6145ae565b6001600160d01b0391821690821603908111610e2757610902904265ffffffffffff16600f614eba565b6001600160a01b039091165f9081526020829052604090209064ffffffffff600183015416420390428211610e275761055892549160028201549060ff600364ffffffffff6001860154169401541693614bd4565b614bba64ffffffffff926001929060018060a01b03165f5260205260405f2090565b015416151590565b670de0b6b3a764000061055891614da1565b93909280841115614c28578303928311610e2757600281101561334e5780614c00575061055892615039565b600281101561334e57600103614c195761055892614f90565b6346b2fddf60e11b5f5260045ffd5b5050505090565b9190614c3b8184615074565b614c5757614c4a8282856150ab565b614c57576106da9261520b565b505050565b9091905f1983820983820291828083109203918083039214614ce057670de0b6b3a7640000821015614cc9577faccb18165bd6fe31ae1cf318dc5b51eee0e1ba569b88cd74c1773b91fac106699394670de0b6b3a7640000910990828211900360ee1b910360121c170290565b8490635173648d60e01b5f5260045260245260445ffd5b5050670de0b6b3a764000090049150565b905f19670de0b6b3a76400008309670de0b6b3a7640000830290818082109103908082039114614d9157670de0b6b3a7640000811015614d6c57670de0b6b3a7640000807faccb18165bd6fe31ae1cf318dc5b51eee0e1ba569b88cd74c1773b91fac1066994950990828211900360ee1b910360121c170290565b630c740aef60e31b5f526004849052670de0b6b3a7640000602481905260445260645ffd5b50670de0b6b3a764000090049150565b5f19670de0b6b3a7640000820991670de0b6b3a7640000820291828085109403938085039414614e535781841015614e3257670de0b6b3a7640000829109600182190182168092046002816003021880820260020302808202600203028082026002030280820260020302808202600203028091026002030293600183805f03040190848311900302920304170290565b630c740aef60e31b5f52600452670de0b6b3a764000060245260445260645ffd5b509061055892506140ec565b8054600160401b8110156111b857614e7c91600182018155614927565b614ea757815160209092015160301b65ffffffffffff191665ffffffffffff92909216919091179055565b634e487b7160e01b5f525f60045260245ffd5b80549293928015614f6657614ed1614edc916139f3565b825f5260205f200190565b8054603081901c9365ffffffffffff91821692918116808411614f5757879303614f235750614f1f92509065ffffffffffff82549181199060301b169116179055565b9190565b915050614f1f91614f43614f35612c29565b65ffffffffffff9093168352565b6001600160d01b0386166020830152614e5f565b632520601d60e01b5f5260045ffd5b5090614f8b91614f77614f35612c29565b6001600160d01b0385166020830152614e5f565b5f9190565b9082158015615031575b61502b57670de0b6b3a764000003670de0b6b3a76400008111610e275780600184161561501c575b9260011c90815b614fed57505090614fd991614c5c565b8015614fe85761055890614bc2565b505f90565b80614ff791614c5c565b906001811661500b575b60011c9081614fc9565b928161501691614c5c565b92615001565b50670de0b6b3a7640000614fc2565b50905090565b508015614f9a565b916150439161410a565b670de0b6b3a76400000390670de0b6b3a76400008211610e2757670de0b6b3a7640000916150709161410a565b0490565b6012546001600160a01b0390811691168114918215615098575b5050614a3a575f90565b6001600160a01b03161490505f8061508e565b601754909291906150c4906001600160a01b0316610976565b6040516305e5f31960e21b81526001600160a01b038316600482015290602090829060249082905afa908115610ae6575f916151ec575b506001600160a01b038116806151c157505060175461515693602091615129906001600160a01b0316610976565b6040516305e5f31960e21b81526001600160a01b0390921660048301529094859190829081906024820190565b03915afa928315610ae6575f936151a0575b506001600160a01b0383168061518057505050505f90565b6001600160a01b0382161461519857614a3a9261520b565b505050600190565b6151ba91935060203d602011613eea57613edc81836111d8565b915f615168565b9091506001600160a01b038416036151db57505050600190565b6151e49261520b565b5f8080615198565b615205915060203d602011613eea57613edc81836111d8565b5f6150fb565b9091906001600160a01b03168015615272575b6106da926001600160a01b031690811561525a575b5f908152600d6020526040808220549282529020546001600160a01b0390811691166146eb565b61526b61526684614a78565b614b0f565b5050615233565b61527b82614a78565b615285600f6145ae565b6001600160d01b039182169082160193908411610e27576106da936152b4904265ffffffffffff16600f614eba565b905050925061521e565b634e487b7160e01b5f52605160045260245ffdfeddf252ad1be2c89b69c2b068fc378daa952ba7f163c4a11628f55a4df523b3efa2646970667358221220df0f868bf7699a894182d47eb004ec40f3384c53cb35d44a5fb3b56f1ab93ddc64736f6c634300081c003360a0806040523461016f57604081611c82803803809161001f8285610199565b83398101031261016f57610032816101d0565b906001600160a01b0390610048906020016101d0565b168015610186576040516301ffc9a760e01b81526338c7ccdb60e01b6004820152602081602481855afa90811561017b575f9161013c575b501561012a575f80546001600160a01b0319169190911790556001600160a01b0316801561011b576080819052600380546001600160a01b0319169091179055301561011b576009546001600160a01b03811661010c576001600160a01b0319163017600955604051611a9d90816101e5823960805181818161055c015281816106c5015261107f0152f35b6336f62bb160e01b5f5260045ffd5b6334566e4b60e21b5f5260045ffd5b6347bd7c1d60e01b5f5260045260245ffd5b90506020813d602011610173575b8161015760209383610199565b8101031261016f5751801515810361016f575f610080565b5f80fd5b3d915061014a565b6040513d5f823e3d90fd5b6347bd7c1d60e01b5f525f60045260245ffd5b601f909101601f19168101906001600160401b038211908210176101bc57604052565b634e487b7160e01b5f52604160045260245ffd5b51906001600160a01b038216820361016f5756fe6080806040526004361015610012575f80fd5b5f905f3560e01c90816318160ddd146112d557508063211dc32d146112a95780632378bea6146111505780632e17de781461104f5780633d18b91214610f5b5780633d509c9714610d4657806348e5d9f814610ce0578063638634ee14610cbc57806369b3054b14610c525780637035ab9814610bff578063705b504a14610bc657806370a0823114610b8d57806372f702f314610b6457806377df7b6a14610b3f5780637bb7bed114610aec578063a2f1b4c914610ac9578063a3cd8ac41461078e578063a694fc3a1461069d578063bcd1101414610650578063c7ec362314610629578063cecc238f14610521578063dae21dab146103f3578063e70b9e27146103a0578063e9fad8ee14610286578063ebc136d01461016a5763f12297771461013c575f80fd5b3461016757602036600319011261016757602061015f61015a6112ef565b611497565b604051908152f35b80fd5b5034610167576020366003190112610167576101846112ef565b815460405163a89f38a360e01b81526001600160a01b039091169190602081600481865afa90811561027b578491610241575b50604051632474521560e21b815260048101919091526001600160a01b0390911660248201529060209082908180604481015b03915afa9081156102365760209291610209575b506040519015158152f35b6102299150823d841161022f575b61022181836113fd565b810190611433565b5f6101fe565b503d610217565b6040513d84823e3d90fd5b9190506020823d602011610273575b8161025d602093836113fd565b8101031261026f5790516101ea6101b7565b5f80fd5b3d9150610250565b6040513d86823e3d90fd5b50346101675780600319360112610167575f516020611a485f395f51905f525c6103915760015f516020611a485f395f51905f525d6102c433611628565b60015433825b8281106102fc5783805f516020611a485f395f51905f525d33815260086020526102f9604082205433336116e2565b80f35b8061030860019261187e565b838060a01b0391549060031b1c16808652600660205260408620845f5260205260405f20548061033b575b5050016102ca565b818752600660205260408720855f526020528660405f205561035e81338461176d565b6040519081527f540798df468d7b23d11f156fdb954cb19ad414d150722a7b6d55ba369dea792e60203392a35f80610333565b633ee5aeb560e01b8152600490fd5b50346101675760403660031901126101675760406103bc6112ef565b916103c5611305565b9260018060a01b031681526006602052209060018060a01b03165f52602052602060405f2054604051908152f35b50346101675760203660031901126101675761040d6112ef565b815460405163605a9a6160e11b81526001600160a01b0390911690602081600481855afa90811561027b5784916104ed575b50604051632474521560e21b815260048101919091523360248201529060209082908180604481015b03915afa9081156104e25783916104c3575b50156104b0576001600160a01b0381169081610494578280f35b61049d90611548565b908252600a60205260408220555f808280f35b630a4510f960e31b825233600452602482fd5b6104dc915060203d60201161022f5761022181836113fd565b5f61047a565b6040513d85823e3d90fd5b90506020813d602011610519575b81610508602093836113fd565b8101031261026f575161046861043f565b3d91506104fb565b50346101675760403660031901126101675761053b6112ef565b816001600160a01b0382168061055a575b506102f960243583336117b0565b7f00000000000000000000000000000000000000000000000000000000000000006001600160a01b0316803b1561061057828091602460405180948193633e4986ef60e11b83528760048401525af19081156104e2578391610614575b50506009546001600160a01b031690813b1561061057829160248392604051948593849263dae21dab60e01b845260048401525af18015610236571561054c5781610601916113fd565b61060c57815f61054c565b5080fd5b8280fd5b8161061e916113fd565b61060c57815f6105b7565b5034610167576060366003190112610167576106436112ef565b5061064c611305565b5080f35b50346101675760203660031901126101675760209061015f90600260406001600160a01b0361067d6112ef565b169283815260048652600182822001549381526004865220015490611339565b503461016757602036600319011261016757336106c2575b6102f960043533336117b0565b807f00000000000000000000000000000000000000000000000000000000000000006001600160a01b0316803b1561077657818091602460405180948193633e4986ef60e11b83523360048401525af1801561023657610779575b506009546001600160a01b0316803b156107765781809160246040518094819363dae21dab60e01b83523360048401525af1801561023657610761575b50506106b5565b8161076b916113fd565b61016757805f61075a565b50fd5b81610783916113fd565b61016757805f61071d565b5034610167576060366003190112610167576107a86112ef565b6024356044359160018060a01b03845416604051630ccc574960e41b8152602081600481855afa908115610992578691610a95575b50604051632474521560e21b815260048101919091523360248201529060209082908180604481015b03915afa908115610a8a578591610a6b575b5015610a5857600154845b818110610a105750506001600160a01b031680845260046020526040842060028101805492949192909190806109e5575080156109d3576108ad7f68e3e9397770d9dfa88c0953a34e1a70a05416b3895957f5b689787a920791c491610888876119f2565b50808455604080516001600160a01b0389168152602081019290925290918291820190565b0390a15b815442811161099d57506108c681548461131b565b60018301555b6040516370a0823160e01b815230600482015290602082602481885afa91821561099257869261095e575b5061090960018401549154809361131b565b1061094f57916020916109437fac24935fd910bc682b5ccb1a07b718cadf8cf2f6d1404c4f3ddc3662dae40e29944260038401554261148a565b9055604051908152a280f35b63010ee96f60e31b8552600485fd5b9091506020813d60201161098a575b8161097a602093836113fd565b8101031261026f5751905f6108f7565b3d915061096d565b6040513d88823e3d90fd5b6109a890429061147d565b6109cc6109c46109be6001860193845490611339565b8661148a565b83549061131b565b90556108cc565b60016203036160e11b03198652600486fd5b8115159182610a05575b5050156108b1576333fec8c760e21b8552600485fd5b141590505f806109ef565b80610a1c60019261187e565b838060a01b0391549060031b1c1680885260046020526003610a4f60408a2092610a4581611497565b600485015561144b565b91015501610823565b630ea7d7ed60e21b845233600452602484fd5b610a84915060203d60201161022f5761022181836113fd565b5f610818565b6040513d87823e3d90fd5b90506020813d602011610ac1575b81610ab0602093836113fd565b8101031261026f57516108066107dd565b3d9150610aa3565b50346101675780600319360112610167576020604051670de0b6b3a76400008152f35b50346101675760203660031901126101675760043590600154821015610b30576020610b178361187e565b905460405160039290921b1c6001600160a01b03168152f35b634e23d03560e01b8152600490fd5b50346101675780600319360112610167575060206702c68af0bb140000604051908152f35b50346101675780600319360112610167576003546040516001600160a01b039091168152602090f35b5034610167576020366003190112610167576020906040906001600160a01b03610bb56112ef565b168152600883522054604051908152f35b5034610167576020366003190112610167576020906040906001600160a01b03610bee6112ef565b168152600a83522054604051908152f35b5034610167576040366003190112610167576040610c1b6112ef565b91610c24611305565b9260018060a01b031681526005602052209060018060a01b03165f52602052602060405f2054604051908152f35b503461016757604036600319011261016757600435600381101561060c5790602091610c7c611305565b60405191848301935060f81b83526bffffffffffffffffffffffff199060601b16602182015260158152610cb16035826113fd565b519020604051908152f35b503461016757602036600319011261016757602061015f610cdb6112ef565b61144b565b50346101675760203660031901126101675760a0906040906001600160a01b03610d086112ef565b168152600460205220805490600181015490600281015460046003830154920154926040519485526020850152604084015260608301526080820152f35b503461016757602036600319011261016757610d606112ef565b8154604051630ccc574960e41b81526001600160a01b0390911690602081600481855afa90811561027b578491610f27575b50604051632474521560e21b815260048101919091523360248201529060209082908180604481015b03915afa9081156104e2578391610f08575b5015610ef5576001600160a01b03168082526004602052604082206002015415610ee65780825260046020526040822054421115610ed7576040516370a0823160e01b8152306004820152602081602481855afa9081156104e2578391610ea5575b5080610e935750602081610e637f66257bcef574219c04f7c05f7a1c78d599da10491294c92a5805c48b4cdf500993611917565b5080845260048252836004604082208281558260018201558260028201558260038201550155604051908152a180f35b633007cea360e01b8352600452602482fd5b90506020813d602011610ecf575b81610ec0602093836113fd565b8101031261026f57515f610e2f565b3d9150610eb3565b63d9ba1add60e01b8252600482fd5b63064fed9960e31b8252600482fd5b630ea7d7ed60e21b825233600452602482fd5b610f21915060203d60201161022f5761022181836113fd565b5f610dcd565b90506020813d602011610f53575b81610f42602093836113fd565b8101031261026f5751610dbb610d92565b3d9150610f35565b50346101675780600319360112610167575f516020611a485f395f51905f525c6103915760015f516020611a485f395f51905f525d610f9933611628565b60015433825b828110610fba5783805f516020611a485f395f51905f525d80f35b80610fc660019261187e565b838060a01b0391549060031b1c16808652600660205260408620845f5260205260405f205480610ff9575b505001610f9f565b818752600660205260408720855f526020528660405f205561101c81338461176d565b6040519081527f540798df468d7b23d11f156fdb954cb19ad414d150722a7b6d55ba369dea792e60203392a35f80610ff1565b503461026f57602036600319011261026f5761106a33611628565b3361107d575b6102f960043533336116e2565b7f00000000000000000000000000000000000000000000000000000000000000006001600160a01b0316803b1561026f575f8091602460405180948193633e4986ef60e11b83523360048401525af1801561114557611132575b5060095481906001600160a01b0316803b156107765781809160246040518094819363dae21dab60e01b83523360048401525af180156102365761111d575b5050611070565b81611127916113fd565b61016757805f611116565b61113e91505f906113fd565b5f5f6110d7565b6040513d5f823e3d90fd5b3461026f57604036600319011261026f576111696112ef565b5f54604051630ccc574960e41b815260243592916001600160a01b031690602081600481855afa908115611145575f91611275575b50604051632474521560e21b815260048101919091523360248201529060209082908180604481015b03915afa908115611145575f91611256575b5015611243576001600160a01b03165f818152600460205260409020805491929142111561123457817fad2f86b01ed93b4b3a150d448c61a4f5d8d38075d3c0c64cc0a26fd6e1f495459260026020930155604051908152a2005b63d9ba1add60e01b5f5260045ffd5b630ea7d7ed60e21b5f523360045260245ffd5b61126f915060203d60201161022f5761022181836113fd565b836111d9565b90506020813d6020116112a1575b81611290602093836113fd565b8101031261026f57516111c761119e565b3d9150611283565b3461026f57604036600319011261026f57602061015f6112c76112ef565b6112cf611305565b90611360565b3461026f575f36600319011261026f576020906007548152f35b600435906001600160a01b038216820361026f57565b602435906001600160a01b038216820361026f57565b8115611325570490565b634e487b7160e01b5f52601260045260245ffd5b8181029291811591840414171561134c57565b634e487b7160e01b5f52601160045260245ffd5b6113f9906113c76113f3670de0b6b3a76400009460018060a01b0384165f526008602052856113cd60405f20546113c761139985611497565b6001600160a01b039586165f818152600560209081526040808320998d16835298905296909620549061147d565b90611339565b04905f52600660205260405f2060018060a01b0385165f5260205260405f20549061148a565b91611548565b0490565b90601f8019910116810190811067ffffffffffffffff82111761141f57604052565b634e487b7160e01b5f52604160045260245ffd5b9081602091031261026f5751801515810361026f5790565b6001600160a01b03165f8181526004602052604090205442101561146e57504290565b5f52600460205260405f205490565b9190820391821161134c57565b9190820180921161134c57565b60075490811561152c576114f560018060a01b038216805f5260046020526114df6114c9600460405f2001549461144b565b825f526004602052600360405f2001549061147d565b905f526004602052600160405f20015490611339565b670de0b6b3a7640000810290808204670de0b6b3a7640000149015171561134c57611529926115239161131b565b9061148a565b90565b905060018060a01b03165f526004602052600460405f20015490565b60035460405163f56a47a560e01b81526001600160a01b03928316600482018190529092909160209184916024918391165afa918215611145575f926115f4575b50805f52600a60205260405f2054156115f0576702c68af0bb1400009182810292818404149015171561134c575f52600a60205260405f205490670b1a2bc2ec5000009182810292818404149015171561134c57670de0b6b3a7640000916113f99161148a565b5090565b9091506020813d602011611620575b81611610602093836113fd565b8101031261026f5751905f611589565b3d9150611603565b600154905f5b82811061163a57505050565b8061164660019261187e565b838060a01b0391549060031b1c16805f52600460205260405f2061166982611497565b9060048101918255600361167c8461144b565b910155838060a01b038516611694575b50500161162e565b61169e8286611360565b825f52600660205260405f20858060a01b0387165f5260205260405f205554905f52600560205260405f20838060a01b0385165f5260205260405f20555f8061168c565b919091811561175e5781611755816020936117207f0f5bb82176feb1b5e747e28471aa92156a04d9f3ab9f45f28e2d704232b93f759660075461147d565b60075560018060a01b031695865f526008855260405f2061174283825461147d565b90556003546001600160a01b031661176d565b604051908152a2565b6310356e5960e21b5f5260045ffd5b60405163a9059cbb60e01b60208201526001600160a01b039290921660248301526044808301939093529181526117ae916117a96064836113fd565b6118bf565b565b9190811561186f576003546001600160a01b03161561186057816117556020926117fd7f9e71bc8eea02a63969f509818f2dafb9254532904319f9dbda79b67bd34a5f3d9560075461148a565b60075560018060a01b031694855f526008845260405f2061181f84825461148a565b90556003546040516323b872dd60e01b868201526001600160a01b0392831660248201523060448201526064808201869052815291166117a96084836113fd565b63417198d360e01b5f5260045ffd5b636a76ff9f60e01b5f5260045ffd5b6001548110156118965760015f5260205f2001905f90565b634e487b7160e01b5f52603260045260245ffd5b8054821015611896575f5260205f2001905f90565b905f602091828151910182855af115611145575f513d61190e57506001600160a01b0381163b155b6118ee5750565b635274afe760e01b5f9081526001600160a01b0391909116600452602490fd5b600114156118e7565b5f8181526002602052604090205480156119ec575f19810181811161134c576001545f1981019190821161134c5781810361199e575b505050600154801561198a575f19016119678160016118aa565b8154905f199060031b1b191690556001555f5260026020525f6040812055600190565b634e487b7160e01b5f52603160045260245ffd5b6119d66119af6119c09360016118aa565b90549060031b1c92839260016118aa565b819391549060031b91821b915f19901b19161790565b90555f52600260205260405f20555f808061194d565b50505f90565b805f52600260205260405f2054155f14611a4257600154600160401b81101561141f57611a2b6119c082600185940160015560016118aa565b9055600154905f52600260205260405f2055600190565b505f9056fe9b779b17422d0df92223018b32b4d1fa46e071723d6817e2486d003becc55f00a2646970667358221220323a9d6bcbb23b524cbb6e4b0cddf2f02383ead57882f77db2388f8616949dba64736f6c634300081c003360a034606c57601f611bfe38819003918201601f19168301916001600160401b03831184841017607057808492602094604052833981010312606c57516001600160a01b0381168103606c57608052604051611b7990816100858239608051818181605d01526101ec0152f35b5f80fd5b634e487b7160e01b5f52604160045260245ffdfe6080806040526004361015610012575f80fd5b5f3560e01c9081631797cc64146103ce5750806392f1d24f146100cf578063baf35107146100905763fc0c546a14610048575f80fd5b3461008c575f36600319011261008c576040517f00000000000000000000000000000000000000000000000000000000000000006001600160a01b03168152602090f35b5f80fd5b3461008c57602036600319011261008c576001600160a01b036100b161040d565b165f525f602052602060018060a01b0360405f205416604051908152f35b3461008c57608036600319011261008c576100e861040d565b602435906044359067ffffffffffffffff821161008c573660238301121561008c5781600401359167ffffffffffffffff8311610397578260051b604051936101346020830186610423565b8452602460208501918301019136831161008c57602401905b8282106103be5750505060643590600282101561008c576001600160a01b039081165f81815260208190526040902054909391166103ab575f92845b82518510156101c45760208560051b8401015181018091116101b057600190940193610189565b634e487b7160e01b5f52601160045260245ffd5b9350916040516116aa908181019181831067ffffffffffffffff8411176103975761049a82397f00000000000000000000000000000000000000000000000000000000000000006001600160a01b0316808352602083018690524267ffffffffffffffff1660408401526303c2670060608401529181906102486080820186610445565b8860a082015261010060c0820152610264610100820187610466565b9060e03391015203905ff0801561038c575f8581526020818152604080832080546001600160a01b03199081166001600160a01b0390961695861790915584845260018352818420805490911689179055516323b872dd60e01b815233600482015260248101849052604481019890985291969283916064918391905af1801561038c5761034a575b508392916020957fa24f0c282d4a63b2f7e3712da4fab41eaf78fcd5ff348ea189f9d6e5430054de9261033f610334604051948594855260608b8601526060850190610466565b916040840190610445565b0390a3604051908152f35b602093929193813d602011610384575b8161036760209383610423565b8101031261008c575190811515820361008c5791929050836102ed565b3d915061035a565b6040513d5f823e3d90fd5b634e487b7160e01b5f52604160045260245ffd5b82630f7b254960e21b5f5260045260245ffd5b813581526020918201910161014d565b3461008c57602036600319011261008c576020906001600160a01b036103f261040d565b165f9081526001835260409020546001600160a01b03168152f35b600435906001600160a01b038216820361008c57565b90601f8019910116810190811067ffffffffffffffff82111761039757604052565b9060028210156104525752565b634e487b7160e01b5f52602160045260245ffd5b90602080835192838152019201905f5b8181106104835750505090565b825184526020938401939092019160010161047656fe610100604052346103dd576116aa8038038061001a816103e1565b9283398101610100828203126103dd5761003382610406565b9161004060208201610406565b9161004d6040830161041a565b6100596060840161041a565b60808401519060028210156103dd5760a085015160c08601519093906001600160401b0381116103dd5786019585601f880112156103dd578651956100a56100a08861042e565b6103e1565b9760208989815201906020829960051b8201019283116103dd57602001905b8282106103cd5750505060e06100da9101610406565b966001600160a01b031680156103ba575f80546001600160a01b03198116831782556001600160a01b0316907f8be0079c531659141344cd1fd0a4f28419497f9722a3daafe3b4186f6b6457e09080a360805260a05260c0526006558151906001600160401b038211610358576801000000000000000082116103585760045482600455808310610380575b5060045f5260205f205f5b83811061036c5750505050519161019661018d6100a08561042e565b9380855261042e565b602084019390601f190136853751926001600160401b03841161035857680100000000000000008411610358576005548460055580851061030b575b509260055f5260205f208160051c905f5b8281106102c65750601f198316909203918261027a575b610207858560e05261045b565b506040516111839081610507823960805181818161030b0152818161044f01528181610d860152610ff9015260a0518181816102e101528181610b130152610dc4015260c05181818161068401528181610b49015261107a015260e0518181816101870152818161052701526107000152f35b5f9586935b808810610297575050610207955001555f80806101fa565b909360206102bb6001928a88511515919060ff809160031b9316831b921b19161790565b95019701969061027f565b5f5f5b602081106102de5750828201556001016101e3565b979060206103026001928b85511515919060ff809160031b9316831b921b19161790565b920198016102c9565b6103379060055f5260205f20601f80880160051c8201928189168061033d575b500160051c0190610445565b5f6101d2565b5f198501908154905f199060200360031b1c1690555f61032b565b634e487b7160e01b5f52604160045260245ffd5b600190602084519401938184015501610171565b60045f526103b4907f8a35acfbc15ff81a39ae7d344fd709f28e8600b4aa8c65c6b64bfe7fe36bd19b908101908401610445565b5f610166565b631e4fbdf760e01b5f525f60045260245ffd5b81518152602091820191016100c4565b5f80fd5b6040519190601f01601f191682016001600160401b0381118382101761035857604052565b51906001600160a01b03821682036103dd57565b51906001600160401b03821682036103dd57565b6001600160401b0381116103585760051b60200190565b818110610450575050565b5f8155600101610445565b6001600160a01b0381165f9081525f51602061168a5f395f51905f52602052604090205460ff16610501576001600160a01b03165f8181525f51602061168a5f395f51905f5260205260408120805460ff191660011790553391907f55435dd261a4b9b3364963f7738a7a662ad9c84396d64be3365284bb7f0a5041907f2f8788117e7eff1d82e926ec794901d17c78024a50270940304540a733656f0d9080a4600190565b505f9056fe608080604052600436101561001c575b50361561001a575f80fd5b005b5f3560e01c90816301ffc9a714610bb2575080630a17b06b14610b7b5780630e17454c14610b375780630fb5a6b414610af45780631916558714610a44578063248a9ca314610a1957806324ea54f4146109df5780632f2ff15d146109a1578063330609441461098457806336568abe14610940578063715018a6146108e9578063810ec23b146108b057806386d1a69f146107be57806388fb15021461066a5780638da5cb5b1461064357806391d14854146105fa57806396132521146105dd5780639852595c146105a5578063a217fddf1461058b578063a3f8eace14610568578063aa5ef02b14610473578063be9a655514610430578063c2a5b0be146103ab578063c9514c9b14610373578063d547741f14610330578063efbe1c1c146102c2578063f2fde38b1461023d578063f8d870c814610200578063fbccedae146101ba5763fc0c546a14610172575f61000f565b346101b6575f3660031901126101b6576040517f00000000000000000000000000000000000000000000000000000000000000006001600160a01b03168152602090f35b5f80fd5b346101b6575f3660031901126101b65760206101f86101ef476101ea6001600160401b0342169160015490610c7c565b610d77565b60015490610d34565b604051908152f35b346101b65760203660031901126101b6576004356005548110156101b65760ff61022b602092610c5d565b90549060031b1c166040519015158152f35b346101b65760203660031901126101b657610256610c05565b61025e610fc9565b6001600160a01b031680156102af575f80546001600160a01b03198116831782556001600160a01b0316907f8be0079c531659141344cd1fd0a4f28419497f9722a3daafe3b4186f6b6457e09080a3005b631e4fbdf760e01b5f525f60045260245ffd5b346101b6575f3660031901126101b65760206101f86001600160401b037f0000000000000000000000000000000000000000000000000000000000000000166001600160401b037f000000000000000000000000000000000000000000000000000000000000000016610c7c565b346101b65760403660031901126101b65761001a60043561034f610c1b565b9061036e610369825f526003602052600160405f20015490565b610e7f565b610f45565b346101b65760203660031901126101b6576004356004548110156101b65761039c602091610c31565b90549060031b1c604051908152f35b346101b65760203660031901126101b6576004356103c7610e10565b600181108015610425575b610416575f198101908111610402576103ea90610c5d565b81549060031b9060ff6001831b921b19161790555f80f35b634e487b7160e01b5f52601160045260245ffd5b630d8a8dc160e21b5f5260045ffd5b5060045481116103d2565b346101b6575f3660031901126101b65760206040516001600160401b037f0000000000000000000000000000000000000000000000000000000000000000168152f35b346101b65760203660031901126101b65760043561048f610e10565b600454600160401b811015610554578060016104ae9201600455610c31565b81545f1960039290921b91821b19169083901b17905560055490600160401b821015610554576104e782600161001a9401600555610c5d565b60ff82549160031b1b19169055604051906323b872dd60e01b6020830152336024830152306044830152606482015260648152610525608482610c89565b7f00000000000000000000000000000000000000000000000000000000000000006001600160a01b03166110f5565b634e487b7160e01b5f52604160045260245ffd5b346101b65760203660031901126101b65760206101f8610586610c05565b610d41565b346101b6575f3660031901126101b65760206040515f8152f35b346101b65760203660031901126101b6576001600160a01b036105c6610c05565b165f526002602052602060405f2054604051908152f35b346101b6575f3660031901126101b6576020600154604051908152f35b346101b65760403660031901126101b657610613610c1b565b6004355f52600360205260405f209060018060a01b03165f52602052602060ff60405f2054166040519015158152f35b346101b6575f3660031901126101b6575f546040516001600160a01b039091168152602090f35b346101b6575f3660031901126101b657610682610e10565b7f000000000000000000000000000000000000000000000000000000000000000060028110156107aa5761079b575f5f6004545b808210610775576106fb60206106d4856106ce611078565b90610d34565b60405163a9059cbb60e01b8152336004820152602481019190915291829081906044820190565b03815f7f00000000000000000000000000000000000000000000000000000000000000006001600160a01b03165af1801561076a5761073657005b6020813d602011610762575b8161074f60209383610c89565b810103126101b65751801515036101b657005b3d9150610742565b6040513d5f823e3d90fd5b909161079360019161078685610c31565b90549060031b1c90610c7c565b9201906106b6565b632d09888560e11b5f5260045ffd5b634e487b7160e01b5f52602160045260245ffd5b346101b6575f3660031901126101b6576107e9476101ea6001600160401b0342169160015490610c7c565b6108006107f96001548093610d34565b8092610c7c565b6001557fda9d4e5f101b8b9b1c5b76d0c5a9f7923571acfc02376aa076b75a8c080c956b6020604051838152a15f546001600160a01b0316478211610899575f80809381935af13d15610894573d6001600160401b0381116105545760405190610874601f8201601f191660200183610c89565b81525f60203d92013e5b1561088557005b63d6bda27560e01b5f5260045ffd5b61087e565b504763cf47918160e01b5f5260045260245260445ffd5b346101b65760403660031901126101b6576108c9610c05565b602435906001600160401b03821682036101b6576020916101f891610caa565b346101b6575f3660031901126101b657610901610fc9565b5f80546001600160a01b0319811682556001600160a01b03167f8be0079c531659141344cd1fd0a4f28419497f9722a3daafe3b4186f6b6457e08280a3005b346101b65760403660031901126101b657610959610c1b565b336001600160a01b038216036109755761001a90600435610f45565b63334bd91960e11b5f5260045ffd5b346101b6575f3660031901126101b6576020600654604051908152f35b346101b65760403660031901126101b65761001a6004356109c0610c1b565b906109da610369825f526003602052600160405f20015490565b610eb9565b346101b6575f3660031901126101b65760206040517f55435dd261a4b9b3364963f7738a7a662ad9c84396d64be3365284bb7f0a50418152f35b346101b65760203660031901126101b65760206101f86004355f526003602052600160405f20015490565b346101b65760203660031901126101b65761001a610a60610c05565b610a6981610d41565b9060018060a01b0316805f52600260205260405f20610a89838254610c7c565b9055807fc0e523490dd523c33b1878c9eb14ff46991e3f5b2cd33710918618f2a39cba1b6020604051858152a25f5460405163a9059cbb60e01b60208201526001600160a01b039091166024820152604480820193909352918252610aef606483610c89565b6110f5565b346101b6575f3660031901126101b65760206040516001600160401b037f0000000000000000000000000000000000000000000000000000000000000000168152f35b346101b6575f3660031901126101b6577f000000000000000000000000000000000000000000000000000000000000000060405160028210156107aa576020918152f35b346101b65760203660031901126101b6576004356001600160401b03811681036101b6576101f86020916101ea4760015490610c7c565b346101b65760203660031901126101b6576004359063ffffffff60e01b82168092036101b657602091637965db0b60e01b8114908115610bf4575b5015158152f35b6301ffc9a760e01b14905083610bed565b600435906001600160a01b03821682036101b657565b602435906001600160a01b03821682036101b657565b600454811015610c495760045f5260205f2001905f90565b634e487b7160e01b5f52603260045260245ffd5b90600554821015610c495760055f52601f60205f208360051c01921690565b9190820180921161040257565b90601f801991011681019081106001600160401b0382111761055457604052565b6040516370a0823160e01b81523060048201526001600160a01b03919091169190602081602481865afa90811561076a575f91610d00575b506101ea90610cfd935f52600260205260405f205490610c7c565b90565b90506020813d602011610d2c575b81610d1b60209383610c89565b810103126101b65751610cfd610ce2565b3d9150610d0e565b9190820391821161040257565b610cfd90610d586001600160401b03421682610caa565b6001600160a01b039091165f9081526002602052604090205490610d34565b906001600160401b03808216907f00000000000000000000000000000000000000000000000000000000000000001680821015610db657505050505f90565b610dea906001600160401b037f00000000000000000000000000000000000000000000000000000000000000001690610c7c565b1015610df4575090565b610cfd9150610e0290610fef565b610e0a611078565b90610c7c565b335f9081527f928bc822364ea6c79099cd2e1cc1a80e662a0ebf765aa4970cedb73b2f2abb72602052604090205460ff1615610e4857565b63e2517d3f60e01b5f52336004527f55435dd261a4b9b3364963f7738a7a662ad9c84396d64be3365284bb7f0a504160245260445ffd5b5f81815260036020908152604080832033845290915290205460ff1615610ea35750565b63e2517d3f60e01b5f523360045260245260445ffd5b5f8181526003602090815260408083206001600160a01b038616845290915290205460ff16610f3f575f8181526003602090815260408083206001600160a01b0395909516808452949091528120805460ff19166001179055339291907f2f8788117e7eff1d82e926ec794901d17c78024a50270940304540a733656f0d9080a4600190565b50505f90565b5f8181526003602090815260408083206001600160a01b038616845290915290205460ff1615610f3f575f8181526003602090815260408083206001600160a01b0395909516808452949091528120805460ff19169055339291907ff6391f5c32d9c69d2a47ea670b442974b53935d1edc7fd64eb21e047a839171b9080a4600190565b5f546001600160a01b03163303610fdc57565b63118cdaa760e01b5f523360045260245ffd5b6001600160401b037f00000000000000000000000000000000000000000000000000000000000000001662ed4e00810191828211610402576001600160401b0316918210610f3f5761104091610d34565b62ed4dff198101908111610402576276a700900460028101809111610402576006548181029181830414901517156104025760031c90565b7f000000000000000000000000000000000000000000000000000000000000000060028110156107aa576110f1575f5f600454905b8181106110b957505090565b60ff6110c482610c5d565b90549060031b1c166110d9575b6001016110ad565b916110e960019161078685610c31565b9290506110d1565b5f90565b905f602091828151910182855af11561076a575f513d61114457506001600160a01b0381163b155b6111245750565b635274afe760e01b5f9081526001600160a01b0391909116600452602490fd5b6001141561111d56fea2646970667358221220de7ae2d8d8d37f917a4873aba2ec9de4684382c8a36b5814e6d5f5a1b01fb3b264736f6c634300081c0033928bc822364ea6c79099cd2e1cc1a80e662a0ebf765aa4970cedb73b2f2abb72a26469706673582212207d3001476127c324f5d780164e5a05319d92d0818f018e765ab239d614992bb664736f6c634300081c00338d1108e10bcb7c27dddfc02ed9d693a074039d026cf4ea4240b40f7d581ac801dec2bacdd2f05b59de34da9b523dff8be42e5e38e818c82fdb0bae774387a724",
  "linkReferences": {},
  "deployedLinkReferences": {}
}