{
  "_format": "hh-sol-artifact-1",
  "contractName": "SummerGovernor",
  "sourceName": "src/contracts/SummerGovernor.sol",
  "abi": [
    {
      "inputs": [
        {
          "components": [
            {
              "internalType": "contract ISummerToken",
              "name": "token",
              "type": "address"
            },
            {
              "internalType": "contract TimelockController",
              "name": "timelock",
              "type": "address"
            },
            {
              "internalType": "uint48",
              "name": "votingDelay",
              "type": "uint48"
            },
            {
              "internalType": "uint32",
              "name": "votingPeriod",
              "type": "uint32"
            },
            {
              "internalType": "uint256",
              "name": "proposalThreshold",
              "type": "uint256"
            },
            {
              "internalType": "uint256",
              "name": "quorumFraction",
              "type": "uint256"
            },
            {
              "internalType": "address",
              "name": "initialWhitelistGuardian",
              "type": "address"
            },
            {
              "internalType": "address",
              "name": "endpoint",
              "type": "address"
            },
            {
              "internalType": "uint32",
              "name": "proposalChainId",
              "type": "uint32"
            },
            {
              "internalType": "uint32[]",
              "name": "peerEndpointIds",
              "type": "uint32[]"
            },
            {
              "internalType": "address[]",
              "name": "peerAddresses",
              "type": "address[]"
            }
          ],
          "internalType": "struct ISummerGovernor.GovernorParams",
          "name": "params",
          "type": "tuple"
        }
      ],
      "stateMutability": "nonpayable",
      "type": "constructor"
    },
    {
      "inputs": [],
      "name": "CheckpointUnorderedInsertion",
      "type": "error"
    },
    {
      "inputs": [],
      "name": "DecayController__RewardsManagerAlreadySet",
      "type": "error"
    },
    {
      "inputs": [],
      "name": "DecayController__ZeroAddress",
      "type": "error"
    },
    {
      "inputs": [],
      "name": "FailedCall",
      "type": "error"
    },
    {
      "inputs": [
        {
          "internalType": "address",
          "name": "voter",
          "type": "address"
        }
      ],
      "name": "GovernorAlreadyCastVote",
      "type": "error"
    },
    {
      "inputs": [
        {
          "internalType": "uint256",
          "name": "proposalId",
          "type": "uint256"
        }
      ],
      "name": "GovernorAlreadyQueuedProposal",
      "type": "error"
    },
    {
      "inputs": [],
      "name": "GovernorDisabledDeposit",
      "type": "error"
    },
    {
      "inputs": [
        {
          "internalType": "address",
          "name": "proposer",
          "type": "address"
        },
        {
          "internalType": "uint256",
          "name": "votes",
          "type": "uint256"
        },
        {
          "internalType": "uint256",
          "name": "threshold",
          "type": "uint256"
        }
      ],
      "name": "GovernorInsufficientProposerVotes",
      "type": "error"
    },
    {
      "inputs": [
        {
          "internalType": "uint256",
          "name": "targets",
          "type": "uint256"
        },
        {
          "internalType": "uint256",
          "name": "calldatas",
          "type": "uint256"
        },
        {
          "internalType": "uint256",
          "name": "values",
          "type": "uint256"
        }
      ],
      "name": "GovernorInvalidProposalLength",
      "type": "error"
    },
    {
      "inputs": [
        {
          "internalType": "uint256",
          "name": "quorumNumerator",
          "type": "uint256"
        },
        {
          "internalType": "uint256",
          "name": "quorumDenominator",
          "type": "uint256"
        }
      ],
      "name": "GovernorInvalidQuorumFraction",
      "type": "error"
    },
    {
      "inputs": [
        {
          "internalType": "address",
          "name": "voter",
          "type": "address"
        }
      ],
      "name": "GovernorInvalidSignature",
      "type": "error"
    },
    {
      "inputs": [],
      "name": "GovernorInvalidVoteParams",
      "type": "error"
    },
    {
      "inputs": [],
      "name": "GovernorInvalidVoteType",
      "type": "error"
    },
    {
      "inputs": [
        {
          "internalType": "uint256",
          "name": "votingPeriod",
          "type": "uint256"
        }
      ],
      "name": "GovernorInvalidVotingPeriod",
      "type": "error"
    },
    {
      "inputs": [
        {
          "internalType": "uint256",
          "name": "proposalId",
          "type": "uint256"
        }
      ],
      "name": "GovernorNonexistentProposal",
      "type": "error"
    },
    {
      "inputs": [
        {
          "internalType": "uint256",
          "name": "proposalId",
          "type": "uint256"
        }
      ],
      "name": "GovernorNotQueuedProposal",
      "type": "error"
    },
    {
      "inputs": [],
      "name": "GovernorNotSet",
      "type": "error"
    },
    {
      "inputs": [
        {
          "internalType": "address",
          "name": "account",
          "type": "address"
        }
      ],
      "name": "GovernorOnlyExecutor",
      "type": "error"
    },
    {
      "inputs": [
        {
          "internalType": "address",
          "name": "account",
          "type": "address"
        }
      ],
      "name": "GovernorOnlyProposer",
      "type": "error"
    },
    {
      "inputs": [],
      "name": "GovernorQueueNotImplemented",
      "type": "error"
    },
    {
      "inputs": [
        {
          "internalType": "address",
          "name": "proposer",
          "type": "address"
        }
      ],
      "name": "GovernorRestrictedProposer",
      "type": "error"
    },
    {
      "inputs": [
        {
          "internalType": "uint256",
          "name": "proposalId",
          "type": "uint256"
        },
        {
          "internalType": "enum IGovernor.ProposalState",
          "name": "current",
          "type": "uint8"
        },
        {
          "internalType": "bytes32",
          "name": "expectedStates",
          "type": "bytes32"
        }
      ],
      "name": "GovernorUnexpectedProposalState",
      "type": "error"
    },
    {
      "inputs": [
        {
          "internalType": "address",
          "name": "account",
          "type": "address"
        },
        {
          "internalType": "uint256",
          "name": "currentNonce",
          "type": "uint256"
        }
      ],
      "name": "InvalidAccountNonce",
      "type": "error"
    },
    {
      "inputs": [],
      "name": "InvalidDelegate",
      "type": "error"
    },
    {
      "inputs": [],
      "name": "InvalidEndpointCall",
      "type": "error"
    },
    {
      "inputs": [],
      "name": "InvalidShortString",
      "type": "error"
    },
    {
      "inputs": [],
      "name": "LzTokenUnavailable",
      "type": "error"
    },
    {
      "inputs": [
        {
          "internalType": "uint32",
          "name": "eid",
          "type": "uint32"
        }
      ],
      "name": "NoPeer",
      "type": "error"
    },
    {
      "inputs": [
        {
          "internalType": "uint256",
          "name": "msgValue",
          "type": "uint256"
        }
      ],
      "name": "NotEnoughNative",
      "type": "error"
    },
    {
      "inputs": [
        {
          "internalType": "address",
          "name": "addr",
          "type": "address"
        }
      ],
      "name": "OnlyEndpoint",
      "type": "error"
    },
    {
      "inputs": [
        {
          "internalType": "uint32",
          "name": "eid",
          "type": "uint32"
        },
        {
          "internalType": "bytes32",
          "name": "sender",
          "type": "bytes32"
        }
      ],
      "name": "OnlyPeer",
      "type": "error"
    },
    {
      "inputs": [
        {
          "internalType": "address",
          "name": "owner",
          "type": "address"
        }
      ],
      "name": "OwnableInvalidOwner",
      "type": "error"
    },
    {
      "inputs": [
        {
          "internalType": "address",
          "name": "account",
          "type": "address"
        }
      ],
      "name": "OwnableUnauthorizedAccount",
      "type": "error"
    },
    {
      "inputs": [
        {
          "internalType": "uint8",
          "name": "bits",
          "type": "uint8"
        },
        {
          "internalType": "uint256",
          "name": "value",
          "type": "uint256"
        }
      ],
      "name": "SafeCastOverflowedUintDowncast",
      "type": "error"
    },
    {
      "inputs": [
        {
          "internalType": "address",
          "name": "token",
          "type": "address"
        }
      ],
      "name": "SafeERC20FailedOperation",
      "type": "error"
    },
    {
      "inputs": [
        {
          "internalType": "string",
          "name": "str",
          "type": "string"
        }
      ],
      "name": "StringTooLong",
      "type": "error"
    },
    {
      "inputs": [],
      "name": "SummerGovernorInvalidCaller",
      "type": "error"
    },
    {
      "inputs": [
        {
          "internalType": "uint256",
          "name": "chainId",
          "type": "uint256"
        },
        {
          "internalType": "uint256",
          "name": "proposalChainId",
          "type": "uint256"
        }
      ],
      "name": "SummerGovernorInvalidChain",
      "type": "error"
    },
    {
      "inputs": [],
      "name": "SummerGovernorInvalidPeerArrays",
      "type": "error"
    },
    {
      "inputs": [
        {
          "internalType": "uint256",
          "name": "proposalThreshold",
          "type": "uint256"
        },
        {
          "internalType": "uint256",
          "name": "minThreshold",
          "type": "uint256"
        },
        {
          "internalType": "uint256",
          "name": "maxThreshold",
          "type": "uint256"
        }
      ],
      "name": "SummerGovernorInvalidProposalThreshold",
      "type": "error"
    },
    {
      "inputs": [
        {
          "internalType": "address",
          "name": "trustedRemote",
          "type": "address"
        }
      ],
      "name": "SummerGovernorInvalidTrustedRemote",
      "type": "error"
    },
    {
      "inputs": [
        {
          "internalType": "address",
          "name": "whitelistGuardian",
          "type": "address"
        }
      ],
      "name": "SummerGovernorInvalidWhitelistGuardian",
      "type": "error"
    },
    {
      "inputs": [
        {
          "internalType": "address",
          "name": "proposer",
          "type": "address"
        },
        {
          "internalType": "uint256",
          "name": "votes",
          "type": "uint256"
        },
        {
          "internalType": "uint256",
          "name": "threshold",
          "type": "uint256"
        }
      ],
      "name": "SummerGovernorProposerBelowThresholdAndNotWhitelisted",
      "type": "error"
    },
    {
      "inputs": [
        {
          "internalType": "address",
          "name": "caller",
          "type": "address"
        },
        {
          "internalType": "address",
          "name": "proposer",
          "type": "address"
        },
        {
          "internalType": "uint256",
          "name": "votes",
          "type": "uint256"
        },
        {
          "internalType": "uint256",
          "name": "threshold",
          "type": "uint256"
        }
      ],
      "name": "SummerGovernorUnauthorizedCancellation",
      "type": "error"
    },
    {
      "anonymous": false,
      "inputs": [],
      "name": "EIP712DomainChanged",
      "type": "event"
    },
    {
      "anonymous": false,
      "inputs": [
        {
          "indexed": true,
          "internalType": "address",
          "name": "previousOwner",
          "type": "address"
        },
        {
          "indexed": true,
          "internalType": "address",
          "name": "newOwner",
          "type": "address"
        }
      ],
      "name": "OwnershipTransferred",
      "type": "event"
    },
    {
      "anonymous": false,
      "inputs": [
        {
          "indexed": false,
          "internalType": "uint32",
          "name": "eid",
          "type": "uint32"
        },
        {
          "indexed": false,
          "internalType": "bytes32",
          "name": "peer",
          "type": "bytes32"
        }
      ],
      "name": "PeerSet",
      "type": "event"
    },
    {
      "anonymous": false,
      "inputs": [
        {
          "indexed": false,
          "internalType": "uint256",
          "name": "proposalId",
          "type": "uint256"
        }
      ],
      "name": "ProposalCanceled",
      "type": "event"
    },
    {
      "anonymous": false,
      "inputs": [
        {
          "indexed": false,
          "internalType": "uint256",
          "name": "proposalId",
          "type": "uint256"
        },
        {
          "indexed": false,
          "internalType": "address",
          "name": "proposer",
          "type": "address"
        },
        {
          "indexed": false,
          "internalType": "address[]",
          "name": "targets",
          "type": "address[]"
        },
        {
          "indexed": false,
          "internalType": "uint256[]",
          "name": "values",
          "type": "uint256[]"
        },
        {
          "indexed": false,
          "internalType": "string[]",
          "name": "signatures",
          "type": "string[]"
        },
        {
          "indexed": false,
          "internalType": "bytes[]",
          "name": "calldatas",
          "type": "bytes[]"
        },
        {
          "indexed": false,
          "internalType": "uint256",
          "name": "voteStart",
          "type": "uint256"
        },
        {
          "indexed": false,
          "internalType": "uint256",
          "name": "voteEnd",
          "type": "uint256"
        },
        {
          "indexed": false,
          "internalType": "string",
          "name": "description",
          "type": "string"
        }
      ],
      "name": "ProposalCreated",
      "type": "event"
    },
    {
      "anonymous": false,
      "inputs": [
        {
          "indexed": false,
          "internalType": "uint256",
          "name": "proposalId",
          "type": "uint256"
        }
      ],
      "name": "ProposalExecuted",
      "type": "event"
    },
    {
      "anonymous": false,
      "inputs": [
        {
          "indexed": false,
          "internalType": "uint256",
          "name": "proposalId",
          "type": "uint256"
        },
        {
          "indexed": false,
          "internalType": "uint256",
          "name": "etaSeconds",
          "type": "uint256"
        }
      ],
      "name": "ProposalQueued",
      "type": "event"
    },
    {
      "anonymous": false,
      "inputs": [
        {
          "indexed": true,
          "internalType": "uint256",
          "name": "proposalId",
          "type": "uint256"
        },
        {
          "indexed": true,
          "internalType": "uint32",
          "name": "srcEid",
          "type": "uint32"
        }
      ],
      "name": "ProposalReceivedCrossChain",
      "type": "event"
    },
    {
      "anonymous": false,
      "inputs": [
        {
          "indexed": true,
          "internalType": "uint256",
          "name": "proposalId",
          "type": "uint256"
        },
        {
          "indexed": true,
          "internalType": "uint32",
          "name": "dstEid",
          "type": "uint32"
        }
      ],
      "name": "ProposalSentCrossChain",
      "type": "event"
    },
    {
      "anonymous": false,
      "inputs": [
        {
          "indexed": false,
          "internalType": "uint256",
          "name": "oldProposalThreshold",
          "type": "uint256"
        },
        {
          "indexed": false,
          "internalType": "uint256",
          "name": "newProposalThreshold",
          "type": "uint256"
        }
      ],
      "name": "ProposalThresholdSet",
      "type": "event"
    },
    {
      "anonymous": false,
      "inputs": [
        {
          "indexed": false,
          "internalType": "uint256",
          "name": "oldQuorumNumerator",
          "type": "uint256"
        },
        {
          "indexed": false,
          "internalType": "uint256",
          "name": "newQuorumNumerator",
          "type": "uint256"
        }
      ],
      "name": "QuorumNumeratorUpdated",
      "type": "event"
    },
    {
      "anonymous": false,
      "inputs": [
        {
          "indexed": false,
          "internalType": "address",
          "name": "oldTimelock",
          "type": "address"
        },
        {
          "indexed": false,
          "internalType": "address",
          "name": "newTimelock",
          "type": "address"
        }
      ],
      "name": "TimelockChange",
      "type": "event"
    },
    {
      "anonymous": false,
      "inputs": [
        {
          "indexed": true,
          "internalType": "address",
          "name": "voter",
          "type": "address"
        },
        {
          "indexed": false,
          "internalType": "uint256",
          "name": "proposalId",
          "type": "uint256"
        },
        {
          "indexed": false,
          "internalType": "uint8",
          "name": "support",
          "type": "uint8"
        },
        {
          "indexed": false,
          "internalType": "uint256",
          "name": "weight",
          "type": "uint256"
        },
        {
          "indexed": false,
          "internalType": "string",
          "name": "reason",
          "type": "string"
        }
      ],
      "name": "VoteCast",
      "type": "event"
    },
    {
      "anonymous": false,
      "inputs": [
        {
          "indexed": true,
          "internalType": "address",
          "name": "voter",
          "type": "address"
        },
        {
          "indexed": false,
          "internalType": "uint256",
          "name": "proposalId",
          "type": "uint256"
        },
        {
          "indexed": false,
          "internalType": "uint8",
          "name": "support",
          "type": "uint8"
        },
        {
          "indexed": false,
          "internalType": "uint256",
          "name": "weight",
          "type": "uint256"
        },
        {
          "indexed": false,
          "internalType": "string",
          "name": "reason",
          "type": "string"
        },
        {
          "indexed": false,
          "internalType": "bytes",
          "name": "params",
          "type": "bytes"
        }
      ],
      "name": "VoteCastWithParams",
      "type": "event"
    },
    {
      "anonymous": false,
      "inputs": [
        {
          "indexed": false,
          "internalType": "uint256",
          "name": "oldVotingDelay",
          "type": "uint256"
        },
        {
          "indexed": false,
          "internalType": "uint256",
          "name": "newVotingDelay",
          "type": "uint256"
        }
      ],
      "name": "VotingDelaySet",
      "type": "event"
    },
    {
      "anonymous": false,
      "inputs": [
        {
          "indexed": false,
          "internalType": "uint256",
          "name": "oldVotingPeriod",
          "type": "uint256"
        },
        {
          "indexed": false,
          "internalType": "uint256",
          "name": "newVotingPeriod",
          "type": "uint256"
        }
      ],
      "name": "VotingPeriodSet",
      "type": "event"
    },
    {
      "anonymous": false,
      "inputs": [
        {
          "indexed": true,
          "internalType": "address",
          "name": "account",
          "type": "address"
        },
        {
          "indexed": false,
          "internalType": "uint256",
          "name": "expiration",
          "type": "uint256"
        }
      ],
      "name": "WhitelistAccountExpirationSet",
      "type": "event"
    },
    {
      "anonymous": false,
      "inputs": [
        {
          "indexed": true,
          "internalType": "address",
          "name": "newGuardian",
          "type": "address"
        }
      ],
      "name": "WhitelistGuardianSet",
      "type": "event"
    },
    {
      "inputs": [],
      "name": "BALLOT_TYPEHASH",
      "outputs": [
        {
          "internalType": "bytes32",
          "name": "",
          "type": "bytes32"
        }
      ],
      "stateMutability": "view",
      "type": "function"
    },
    {
      "inputs": [],
      "name": "CLOCK_MODE",
      "outputs": [
        {
          "internalType": "string",
          "name": "",
          "type": "string"
        }
      ],
      "stateMutability": "view",
      "type": "function"
    },
    {
      "inputs": [],
      "name": "COUNTING_MODE",
      "outputs": [
        {
          "internalType": "string",
          "name": "",
          "type": "string"
        }
      ],
      "stateMutability": "pure",
      "type": "function"
    },
    {
      "inputs": [],
      "name": "EXTENDED_BALLOT_TYPEHASH",
      "outputs": [
        {
          "internalType": "bytes32",
          "name": "",
          "type": "bytes32"
        }
      ],
      "stateMutability": "view",
      "type": "function"
    },
    {
      "inputs": [],
      "name": "MAX_PROPOSAL_THRESHOLD",
      "outputs": [
        {
          "internalType": "uint256",
          "name": "",
          "type": "uint256"
        }
      ],
      "stateMutability": "view",
      "type": "function"
    },
    {
      "inputs": [],
      "name": "MIN_PROPOSAL_THRESHOLD",
      "outputs": [
        {
          "internalType": "uint256",
          "name": "",
          "type": "uint256"
        }
      ],
      "stateMutability": "view",
      "type": "function"
    },
    {
      "inputs": [
        {
          "components": [
            {
              "internalType": "uint32",
              "name": "srcEid",
              "type": "uint32"
            },
            {
              "internalType": "bytes32",
              "name": "sender",
              "type": "bytes32"
            },
            {
              "internalType": "uint64",
              "name": "nonce",
              "type": "uint64"
            }
          ],
          "internalType": "struct Origin",
          "name": "origin",
          "type": "tuple"
        }
      ],
      "name": "allowInitializePath",
      "outputs": [
        {
          "internalType": "bool",
          "name": "",
          "type": "bool"
        }
      ],
      "stateMutability": "view",
      "type": "function"
    },
    {
      "inputs": [
        {
          "internalType": "address[]",
          "name": "targets",
          "type": "address[]"
        },
        {
          "internalType": "uint256[]",
          "name": "values",
          "type": "uint256[]"
        },
        {
          "internalType": "bytes[]",
          "name": "calldatas",
          "type": "bytes[]"
        },
        {
          "internalType": "bytes32",
          "name": "descriptionHash",
          "type": "bytes32"
        }
      ],
      "name": "cancel",
      "outputs": [
        {
          "internalType": "uint256",
          "name": "",
          "type": "uint256"
        }
      ],
      "stateMutability": "nonpayable",
      "type": "function"
    },
    {
      "inputs": [
        {
          "internalType": "uint256",
          "name": "proposalId",
          "type": "uint256"
        },
        {
          "internalType": "uint8",
          "name": "support",
          "type": "uint8"
        }
      ],
      "name": "castVote",
      "outputs": [
        {
          "internalType": "uint256",
          "name": "",
          "type": "uint256"
        }
      ],
      "stateMutability": "nonpayable",
      "type": "function"
    },
    {
      "inputs": [
        {
          "internalType": "uint256",
          "name": "proposalId",
          "type": "uint256"
        },
        {
          "internalType": "uint8",
          "name": "support",
          "type": "uint8"
        },
        {
          "internalType": "address",
          "name": "voter",
          "type": "address"
        },
        {
          "internalType": "bytes",
          "name": "signature",
          "type": "bytes"
        }
      ],
      "name": "castVoteBySig",
      "outputs": [
        {
          "internalType": "uint256",
          "name": "",
          "type": "uint256"
        }
      ],
      "stateMutability": "nonpayable",
      "type": "function"
    },
    {
      "inputs": [
        {
          "internalType": "uint256",
          "name": "proposalId",
          "type": "uint256"
        },
        {
          "internalType": "uint8",
          "name": "support",
          "type": "uint8"
        },
        {
          "internalType": "string",
          "name": "reason",
          "type": "string"
        }
      ],
      "name": "castVoteWithReason",
      "outputs": [
        {
          "internalType": "uint256",
          "name": "",
          "type": "uint256"
        }
      ],
      "stateMutability": "nonpayable",
      "type": "function"
    },
    {
      "inputs": [
        {
          "internalType": "uint256",
          "name": "proposalId",
          "type": "uint256"
        },
        {
          "internalType": "uint8",
          "name": "support",
          "type": "uint8"
        },
        {
          "internalType": "string",
          "name": "reason",
          "type": "string"
        },
        {
          "internalType": "bytes",
          "name": "params",
          "type": "bytes"
        }
      ],
      "name": "castVoteWithReasonAndParams",
      "outputs": [
        {
          "internalType": "uint256",
          "name": "",
          "type": "uint256"
        }
      ],
      "stateMutability": "nonpayable",
      "type": "function"
    },
    {
      "inputs": [
        {
          "internalType": "uint256",
          "name": "proposalId",
          "type": "uint256"
        },
        {
          "internalType": "uint8",
          "name": "support",
          "type": "uint8"
        },
        {
          "internalType": "address",
          "name": "voter",
          "type": "address"
        },
        {
          "internalType": "string",
          "name": "reason",
          "type": "string"
        },
        {
          "internalType": "bytes",
          "name": "params",
          "type": "bytes"
        },
        {
          "internalType": "bytes",
          "name": "signature",
          "type": "bytes"
        }
      ],
      "name": "castVoteWithReasonAndParamsBySig",
      "outputs": [
        {
          "internalType": "uint256",
          "name": "",
          "type": "uint256"
        }
      ],
      "stateMutability": "nonpayable",
      "type": "function"
    },
    {
      "inputs": [],
      "name": "clock",
      "outputs": [
        {
          "internalType": "uint48",
          "name": "",
          "type": "uint48"
        }
      ],
      "stateMutability": "view",
      "type": "function"
    },
    {
      "inputs": [],
      "name": "config",
      "outputs": [
        {
          "internalType": "address",
          "name": "whitelistGuardian",
          "type": "address"
        }
      ],
      "stateMutability": "view",
      "type": "function"
    },
    {
      "inputs": [],
      "name": "eip712Domain",
      "outputs": [
        {
          "internalType": "bytes1",
          "name": "fields",
          "type": "bytes1"
        },
        {
          "internalType": "string",
          "name": "name",
          "type": "string"
        },
        {
          "internalType": "string",
          "name": "version",
          "type": "string"
        },
        {
          "internalType": "uint256",
          "name": "chainId",
          "type": "uint256"
        },
        {
          "internalType": "address",
          "name": "verifyingContract",
          "type": "address"
        },
        {
          "internalType": "bytes32",
          "name": "salt",
          "type": "bytes32"
        },
        {
          "internalType": "uint256[]",
          "name": "extensions",
          "type": "uint256[]"
        }
      ],
      "stateMutability": "view",
      "type": "function"
    },
    {
      "inputs": [],
      "name": "endpoint",
      "outputs": [
        {
          "internalType": "contract ILayerZeroEndpointV2",
          "name": "",
          "type": "address"
        }
      ],
      "stateMutability": "view",
      "type": "function"
    },
    {
      "inputs": [
        {
          "internalType": "address[]",
          "name": "targets",
          "type": "address[]"
        },
        {
          "internalType": "uint256[]",
          "name": "values",
          "type": "uint256[]"
        },
        {
          "internalType": "bytes[]",
          "name": "calldatas",
          "type": "bytes[]"
        },
        {
          "internalType": "bytes32",
          "name": "descriptionHash",
          "type": "bytes32"
        }
      ],
      "name": "execute",
      "outputs": [
        {
          "internalType": "uint256",
          "name": "",
          "type": "uint256"
        }
      ],
      "stateMutability": "payable",
      "type": "function"
    },
    {
      "inputs": [
        {
          "internalType": "address",
          "name": "account",
          "type": "address"
        },
        {
          "internalType": "uint256",
          "name": "timepoint",
          "type": "uint256"
        }
      ],
      "name": "getVotes",
      "outputs": [
        {
          "internalType": "uint256",
          "name": "",
          "type": "uint256"
        }
      ],
      "stateMutability": "view",
      "type": "function"
    },
    {
      "inputs": [
        {
          "internalType": "address",
          "name": "account",
          "type": "address"
        },
        {
          "internalType": "uint256",
          "name": "timepoint",
          "type": "uint256"
        },
        {
          "internalType": "bytes",
          "name": "params",
          "type": "bytes"
        }
      ],
      "name": "getVotesWithParams",
      "outputs": [
        {
          "internalType": "uint256",
          "name": "",
          "type": "uint256"
        }
      ],
      "stateMutability": "view",
      "type": "function"
    },
    {
      "inputs": [
        {
          "internalType": "address",
          "name": "account",
          "type": "address"
        }
      ],
      "name": "getWhitelistAccountExpiration",
      "outputs": [
        {
          "internalType": "uint256",
          "name": "",
          "type": "uint256"
        }
      ],
      "stateMutability": "view",
      "type": "function"
    },
    {
      "inputs": [],
      "name": "getWhitelistGuardian",
      "outputs": [
        {
          "internalType": "address",
          "name": "",
          "type": "address"
        }
      ],
      "stateMutability": "view",
      "type": "function"
    },
    {
      "inputs": [
        {
          "internalType": "uint256",
          "name": "proposalId",
          "type": "uint256"
        },
        {
          "internalType": "address",
          "name": "account",
          "type": "address"
        }
      ],
      "name": "hasVoted",
      "outputs": [
        {
          "internalType": "bool",
          "name": "",
          "type": "bool"
        }
      ],
      "stateMutability": "view",
      "type": "function"
    },
    {
      "inputs": [
        {
          "internalType": "address[]",
          "name": "targets",
          "type": "address[]"
        },
        {
          "internalType": "uint256[]",
          "name": "values",
          "type": "uint256[]"
        },
        {
          "internalType": "bytes[]",
          "name": "calldatas",
          "type": "bytes[]"
        },
        {
          "internalType": "bytes32",
          "name": "descriptionHash",
          "type": "bytes32"
        }
      ],
      "name": "hashProposal",
      "outputs": [
        {
          "internalType": "uint256",
          "name": "",
          "type": "uint256"
        }
      ],
      "stateMutability": "pure",
      "type": "function"
    },
    {
      "inputs": [
        {
          "components": [
            {
              "internalType": "uint32",
              "name": "srcEid",
              "type": "uint32"
            },
            {
              "internalType": "bytes32",
              "name": "sender",
              "type": "bytes32"
            },
            {
              "internalType": "uint64",
              "name": "nonce",
              "type": "uint64"
            }
          ],
          "internalType": "struct Origin",
          "name": "",
          "type": "tuple"
        },
        {
          "internalType": "bytes",
          "name": "",
          "type": "bytes"
        },
        {
          "internalType": "address",
          "name": "_sender",
          "type": "address"
        }
      ],
      "name": "isComposeMsgSender",
      "outputs": [
        {
          "internalType": "bool",
          "name": "",
          "type": "bool"
        }
      ],
      "stateMutability": "view",
      "type": "function"
    },
    {
      "inputs": [
        {
          "internalType": "address",
          "name": "account",
          "type": "address"
        }
      ],
      "name": "isWhitelisted",
      "outputs": [
        {
          "internalType": "bool",
          "name": "",
          "type": "bool"
        }
      ],
      "stateMutability": "view",
      "type": "function"
    },
    {
      "inputs": [
        {
          "components": [
            {
              "internalType": "uint32",
              "name": "srcEid",
              "type": "uint32"
            },
            {
              "internalType": "bytes32",
              "name": "sender",
              "type": "bytes32"
            },
            {
              "internalType": "uint64",
              "name": "nonce",
              "type": "uint64"
            }
          ],
          "internalType": "struct Origin",
          "name": "_origin",
          "type": "tuple"
        },
        {
          "internalType": "bytes32",
          "name": "_guid",
          "type": "bytes32"
        },
        {
          "internalType": "bytes",
          "name": "_message",
          "type": "bytes"
        },
        {
          "internalType": "address",
          "name": "_executor",
          "type": "address"
        },
        {
          "internalType": "bytes",
          "name": "_extraData",
          "type": "bytes"
        }
      ],
      "name": "lzReceive",
      "outputs": [],
      "stateMutability": "payable",
      "type": "function"
    },
    {
      "inputs": [],
      "name": "name",
      "outputs": [
        {
          "internalType": "string",
          "name": "",
          "type": "string"
        }
      ],
      "stateMutability": "view",
      "type": "function"
    },
    {
      "inputs": [
        {
          "internalType": "uint32",
          "name": "",
          "type": "uint32"
        },
        {
          "internalType": "bytes32",
          "name": "",
          "type": "bytes32"
        }
      ],
      "name": "nextNonce",
      "outputs": [
        {
          "internalType": "uint64",
          "name": "nonce",
          "type": "uint64"
        }
      ],
      "stateMutability": "view",
      "type": "function"
    },
    {
      "inputs": [
        {
          "internalType": "address",
          "name": "owner",
          "type": "address"
        }
      ],
      "name": "nonces",
      "outputs": [
        {
          "internalType": "uint256",
          "name": "",
          "type": "uint256"
        }
      ],
      "stateMutability": "view",
      "type": "function"
    },
    {
      "inputs": [],
      "name": "oAppVersion",
      "outputs": [
        {
          "internalType": "uint64",
          "name": "senderVersion",
          "type": "uint64"
        },
        {
          "internalType": "uint64",
          "name": "receiverVersion",
          "type": "uint64"
        }
      ],
      "stateMutability": "pure",
      "type": "function"
    },
    {
      "inputs": [
        {
          "internalType": "address",
          "name": "",
          "type": "address"
        },
        {
          "internalType": "address",
          "name": "",
          "type": "address"
        },
        {
          "internalType": "uint256[]",
          "name": "",
          "type": "uint256[]"
        },
        {
          "internalType": "uint256[]",
          "name": "",
          "type": "uint256[]"
        },
        {
          "internalType": "bytes",
          "name": "",
          "type": "bytes"
        }
      ],
      "name": "onERC1155BatchReceived",
      "outputs": [
        {
          "internalType": "bytes4",
          "name": "",
          "type": "bytes4"
        }
      ],
      "stateMutability": "nonpayable",
      "type": "function"
    },
    {
      "inputs": [
        {
          "internalType": "address",
          "name": "",
          "type": "address"
        },
        {
          "internalType": "address",
          "name": "",
          "type": "address"
        },
        {
          "internalType": "uint256",
          "name": "",
          "type": "uint256"
        },
        {
          "internalType": "uint256",
          "name": "",
          "type": "uint256"
        },
        {
          "internalType": "bytes",
          "name": "",
          "type": "bytes"
        }
      ],
      "name": "onERC1155Received",
      "outputs": [
        {
          "internalType": "bytes4",
          "name": "",
          "type": "bytes4"
        }
      ],
      "stateMutability": "nonpayable",
      "type": "function"
    },
    {
      "inputs": [
        {
          "internalType": "address",
          "name": "",
          "type": "address"
        },
        {
          "internalType": "address",
          "name": "",
          "type": "address"
        },
        {
          "internalType": "uint256",
          "name": "",
          "type": "uint256"
        },
        {
          "internalType": "bytes",
          "name": "",
          "type": "bytes"
        }
      ],
      "name": "onERC721Received",
      "outputs": [
        {
          "internalType": "bytes4",
          "name": "",
          "type": "bytes4"
        }
      ],
      "stateMutability": "nonpayable",
      "type": "function"
    },
    {
      "inputs": [],
      "name": "owner",
      "outputs": [
        {
          "internalType": "address",
          "name": "",
          "type": "address"
        }
      ],
      "stateMutability": "view",
      "type": "function"
    },
    {
      "inputs": [
        {
          "internalType": "uint32",
          "name": "eid",
          "type": "uint32"
        }
      ],
      "name": "peers",
      "outputs": [
        {
          "internalType": "bytes32",
          "name": "peer",
          "type": "bytes32"
        }
      ],
      "stateMutability": "view",
      "type": "function"
    },
    {
      "inputs": [],
      "name": "proposalChainId",
      "outputs": [
        {
          "internalType": "uint32",
          "name": "",
          "type": "uint32"
        }
      ],
      "stateMutability": "view",
      "type": "function"
    },
    {
      "inputs": [
        {
          "internalType": "uint256",
          "name": "proposalId",
          "type": "uint256"
        }
      ],
      "name": "proposalDeadline",
      "outputs": [
        {
          "internalType": "uint256",
          "name": "",
          "type": "uint256"
        }
      ],
      "stateMutability": "view",
      "type": "function"
    },
    {
      "inputs": [
        {
          "internalType": "uint256",
          "name": "proposalId",
          "type": "uint256"
        }
      ],
      "name": "proposalEta",
      "outputs": [
        {
          "internalType": "uint256",
          "name": "",
          "type": "uint256"
        }
      ],
      "stateMutability": "view",
      "type": "function"
    },
    {
      "inputs": [
        {
          "internalType": "uint256",
          "name": "proposalId",
          "type": "uint256"
        }
      ],
      "name": "proposalNeedsQueuing",
      "outputs": [
        {
          "internalType": "bool",
          "name": "",
          "type": "bool"
        }
      ],
      "stateMutability": "view",
      "type": "function"
    },
    {
      "inputs": [
        {
          "internalType": "uint256",
          "name": "proposalId",
          "type": "uint256"
        }
      ],
      "name": "proposalProposer",
      "outputs": [
        {
          "internalType": "address",
          "name": "",
          "type": "address"
        }
      ],
      "stateMutability": "view",
      "type": "function"
    },
    {
      "inputs": [
        {
          "internalType": "uint256",
          "name": "proposalId",
          "type": "uint256"
        }
      ],
      "name": "proposalSnapshot",
      "outputs": [
        {
          "internalType": "uint256",
          "name": "",
          "type": "uint256"
        }
      ],
      "stateMutability": "view",
      "type": "function"
    },
    {
      "inputs": [],
      "name": "proposalThreshold",
      "outputs": [
        {
          "internalType": "uint256",
          "name": "",
          "type": "uint256"
        }
      ],
      "stateMutability": "view",
      "type": "function"
    },
    {
      "inputs": [
        {
          "internalType": "uint256",
          "name": "proposalId",
          "type": "uint256"
        }
      ],
      "name": "proposalVotes",
      "outputs": [
        {
          "internalType": "uint256",
          "name": "againstVotes",
          "type": "uint256"
        },
        {
          "internalType": "uint256",
          "name": "forVotes",
          "type": "uint256"
        },
        {
          "internalType": "uint256",
          "name": "abstainVotes",
          "type": "uint256"
        }
      ],
      "stateMutability": "view",
      "type": "function"
    },
    {
      "inputs": [
        {
          "internalType": "address[]",
          "name": "targets",
          "type": "address[]"
        },
        {
          "internalType": "uint256[]",
          "name": "values",
          "type": "uint256[]"
        },
        {
          "internalType": "bytes[]",
          "name": "calldatas",
          "type": "bytes[]"
        },
        {
          "internalType": "string",
          "name": "description",
          "type": "string"
        }
      ],
      "name": "propose",
      "outputs": [
        {
          "internalType": "uint256",
          "name": "",
          "type": "uint256"
        }
      ],
      "stateMutability": "nonpayable",
      "type": "function"
    },
    {
      "inputs": [
        {
          "internalType": "address[]",
          "name": "targets",
          "type": "address[]"
        },
        {
          "internalType": "uint256[]",
          "name": "values",
          "type": "uint256[]"
        },
        {
          "internalType": "bytes[]",
          "name": "calldatas",
          "type": "bytes[]"
        },
        {
          "internalType": "bytes32",
          "name": "descriptionHash",
          "type": "bytes32"
        }
      ],
      "name": "queue",
      "outputs": [
        {
          "internalType": "uint256",
          "name": "",
          "type": "uint256"
        }
      ],
      "stateMutability": "nonpayable",
      "type": "function"
    },
    {
      "inputs": [
        {
          "internalType": "uint256",
          "name": "timepoint",
          "type": "uint256"
        }
      ],
      "name": "quorum",
      "outputs": [
        {
          "internalType": "uint256",
          "name": "",
          "type": "uint256"
        }
      ],
      "stateMutability": "view",
      "type": "function"
    },
    {
      "inputs": [],
      "name": "quorumDenominator",
      "outputs": [
        {
          "internalType": "uint256",
          "name": "",
          "type": "uint256"
        }
      ],
      "stateMutability": "view",
      "type": "function"
    },
    {
      "inputs": [
        {
          "internalType": "uint256",
          "name": "timepoint",
          "type": "uint256"
        }
      ],
      "name": "quorumNumerator",
      "outputs": [
        {
          "internalType": "uint256",
          "name": "",
          "type": "uint256"
        }
      ],
      "stateMutability": "view",
      "type": "function"
    },
    {
      "inputs": [],
      "name": "quorumNumerator",
      "outputs": [
        {
          "internalType": "uint256",
          "name": "",
          "type": "uint256"
        }
      ],
      "stateMutability": "view",
      "type": "function"
    },
    {
      "inputs": [
        {
          "internalType": "address",
          "name": "target",
          "type": "address"
        },
        {
          "internalType": "uint256",
          "name": "value",
          "type": "uint256"
        },
        {
          "internalType": "bytes",
          "name": "data",
          "type": "bytes"
        }
      ],
      "name": "relay",
      "outputs": [],
      "stateMutability": "payable",
      "type": "function"
    },
    {
      "inputs": [],
      "name": "renounceOwnership",
      "outputs": [],
      "stateMutability": "nonpayable",
      "type": "function"
    },
    {
      "inputs": [
        {
          "internalType": "uint32",
          "name": "_dstEid",
          "type": "uint32"
        },
        {
          "internalType": "address[]",
          "name": "_dstTargets",
          "type": "address[]"
        },
        {
          "internalType": "uint256[]",
          "name": "_dstValues",
          "type": "uint256[]"
        },
        {
          "internalType": "bytes[]",
          "name": "_dstCalldatas",
          "type": "bytes[]"
        },
        {
          "internalType": "bytes32",
          "name": "_dstDescriptionHash",
          "type": "bytes32"
        },
        {
          "internalType": "bytes",
          "name": "_options",
          "type": "bytes"
        }
      ],
      "name": "sendProposalToTargetChain",
      "outputs": [],
      "stateMutability": "nonpayable",
      "type": "function"
    },
    {
      "inputs": [
        {
          "internalType": "address",
          "name": "_delegate",
          "type": "address"
        }
      ],
      "name": "setDelegate",
      "outputs": [],
      "stateMutability": "nonpayable",
      "type": "function"
    },
    {
      "inputs": [
        {
          "internalType": "uint32",
          "name": "_eid",
          "type": "uint32"
        },
        {
          "internalType": "bytes32",
          "name": "_peer",
          "type": "bytes32"
        }
      ],
      "name": "setPeer",
      "outputs": [],
      "stateMutability": "nonpayable",
      "type": "function"
    },
    {
      "inputs": [
        {
          "internalType": "uint256",
          "name": "newProposalThreshold",
          "type": "uint256"
        }
      ],
      "name": "setProposalThreshold",
      "outputs": [],
      "stateMutability": "nonpayable",
      "type": "function"
    },
    {
      "inputs": [
        {
          "internalType": "uint48",
          "name": "newVotingDelay",
          "type": "uint48"
        }
      ],
      "name": "setVotingDelay",
      "outputs": [],
      "stateMutability": "nonpayable",
      "type": "function"
    },
    {
      "inputs": [
        {
          "internalType": "uint32",
          "name": "newVotingPeriod",
          "type": "uint32"
        }
      ],
      "name": "setVotingPeriod",
      "outputs": [],
      "stateMutability": "nonpayable",
      "type": "function"
    },
    {
      "inputs": [
        {
          "internalType": "address",
          "name": "account",
          "type": "address"
        },
        {
          "internalType": "uint256",
          "name": "expiration",
          "type": "uint256"
        }
      ],
      "name": "setWhitelistAccountExpiration",
      "outputs": [],
      "stateMutability": "nonpayable",
      "type": "function"
    },
    {
      "inputs": [
        {
          "internalType": "address",
          "name": "_whitelistGuardian",
          "type": "address"
        }
      ],
      "name": "setWhitelistGuardian",
      "outputs": [],
      "stateMutability": "nonpayable",
      "type": "function"
    },
    {
      "inputs": [
        {
          "internalType": "uint256",
          "name": "proposalId",
          "type": "uint256"
        }
      ],
      "name": "state",
      "outputs": [
        {
          "internalType": "enum IGovernor.ProposalState",
          "name": "",
          "type": "uint8"
        }
      ],
      "stateMutability": "view",
      "type": "function"
    },
    {
      "inputs": [
        {
          "internalType": "bytes4",
          "name": "interfaceId",
          "type": "bytes4"
        }
      ],
      "name": "supportsInterface",
      "outputs": [
        {
          "internalType": "bool",
          "name": "",
          "type": "bool"
        }
      ],
      "stateMutability": "view",
      "type": "function"
    },
    {
      "inputs": [],
      "name": "timelock",
      "outputs": [
        {
          "internalType": "address",
          "name": "",
          "type": "address"
        }
      ],
      "stateMutability": "view",
      "type": "function"
    },
    {
      "inputs": [],
      "name": "token",
      "outputs": [
        {
          "internalType": "contract IERC5805",
          "name": "",
          "type": "address"
        }
      ],
      "stateMutability": "view",
      "type": "function"
    },
    {
      "inputs": [
        {
          "internalType": "address",
          "name": "newOwner",
          "type": "address"
        }
      ],
      "name": "transferOwnership",
      "outputs": [],
      "stateMutability": "nonpayable",
      "type": "function"
    },
    {
      "inputs": [
        {
          "internalType": "uint256",
          "name": "newQuorumNumerator",
          "type": "uint256"
        }
      ],
      "name": "updateQuorumNumerator",
      "outputs": [],
      "stateMutability": "nonpayable",
      "type": "function"
    },
    {
      "inputs": [
        {
          "internalType": "contract TimelockController",
          "name": "newTimelock",
          "type": "address"
        }
      ],
      "name": "updateTimelock",
      "outputs": [],
      "stateMutability": "nonpayable",
      "type": "function"
    },
    {
      "inputs": [],
      "name": "version",
      "outputs": [
        {
          "internalType": "string",
          "name": "",
          "type": "string"
        }
      ],
      "stateMutability": "view",
      "type": "function"
    },
    {
      "inputs": [],
      "name": "votingDelay",
      "outputs": [
        {
          "internalType": "uint256",
          "name": "",
          "type": "uint256"
        }
      ],
      "stateMutability": "view",
      "type": "function"
    },
    {
      "inputs": [],
      "name": "votingPeriod",
      "outputs": [
        {
          "internalType": "uint256",
          "name": "",
          "type": "uint256"
        }
      ],
      "stateMutability": "view",
      "type": "function"
    },
    {
      "stateMutability": "payable",
      "type": "receive"
    }
  ],
  "bytecode": "0x6101e06040523461011f5761001a6100156102a3565b610425565b604051614d3190816111c58239608051816141c1015260a05181614278015260c0518161418b015260e051816142100152610100518161423601526101205181611aab01526101405181611ad7015261016051818181611d960152818161236301528181612523015281816125c2015281816130be01528181613760015281816139ee01528181613d1d01528181613ddb0152614a8b015261018051818181610ea1015281816111db015281816113b20152612bb001526101a0518181816107a10152818161153d015281816120bb015281816145d4015281816147300152614bbd01526101c051818181610e50015281816119de0152818161270f0152612c950152f35b5f80fd5b634e487b7160e01b5f52604160045260245ffd5b601f909101601f19168101906001600160401b0382119082101761015a57604052565b610123565b6040519061016f61016083610137565b565b6040519061016f604083610137565b6001600160a01b0381160361011f57565b519061016f82610180565b519065ffffffffffff8216820361011f57565b519063ffffffff8216820361011f57565b6001600160401b03811161015a5760051b60200190565b9080601f8301121561011f5781516101ee816101c0565b926101fc6040519485610137565b81845260208085019260051b82010192831161011f57602001905b8282106102245750505090565b60208091610231846101af565b815201910190610217565b9080601f8301121561011f578151610253816101c0565b926102616040519485610137565b81845260208085019260051b82010192831161011f57602001905b8282106102895750505090565b60208091835161029881610180565b81520191019061027c565b615f1680380380604051926102b88285610137565b833981019060208183031261011f578051906001600160401b03821161011f57016101608183031261011f576102ec61015f565b916102f682610191565b835261030460208301610191565b60208401526103156040830161019c565b6040840152610326606083016101af565b60608401526080820151608084015260a082015160a084015261034b60c08301610191565b60c084015261035c60e08301610191565b60e084015261036e61010083016101af565b6101008401526101208201516001600160401b03811161011f57816103949184016101d7565b6101208401526101408201516001600160401b03811161011f576103b8920161023c565b61014082015290565b604051906103d0604083610137565b60018252565b604051906103e5604083610137565b600e82526d29bab6b6b2b923b7bb32b93737b960911b6020830152565b9081602091031261011f575161041781610180565b90565b6040513d5f823e3d90fd5b60e0810151602091906004906001600160a01b031661050b610100840191610451835163ffffffff1690565b63ffffffff811646036105d9578587015161047c906001600160a01b03165b6001600160a01b031690565b905b469063ffffffff16036105d2578686015186906104a3906001600160a01b0316610470565b81516104b7906001600160a01b0316610470565b60a0830151906104d0604085015165ffffffffffff1690565b91816104e3606087015163ffffffff1690565b946104fc608088019e8f5198015160018060a01b031690565b976105056103d6565b996105ea565b8251602090610522906001600160a01b0316610470565b60405163defe205360e01b815293849182905afa80156105cd5761016f9461056161056792610588955f9161059e575b506001600160a01b031661091b565b5161095a565b60c083015161057e906001600160a01b03166109b4565b5163ffffffff1690565b6101c05261014061012082015191015190610a3a565b6105c0915060203d6020116105c6575b6105b88183610137565b810190610402565b5f610552565b503d6105ae565b61041a565b85306104a3565b309061047e565b5f91031261011f57565b98966106b86106d4976106b36106c2969a6106ae6106bd969f9d979d9a999a6106116103c1565b60208101603160f81b815261062583610d3d565b6101205261063282610e2a565b6101405282516020840120918260e05251902080610100524660a0526040519060208201927f8b73c3c69bb8fe3d512ecc4cf759cc79239f7b179b0ffacaa9a75d522b39400f8452604083015260608201524660808201523060a082015260a0815261069f60c082610137565b5190206080523060c052610836565b610cea565b610be3565b610c30565b610cb1565b6001600160a01b031661016052610b1b565b6001600160a01b031680156107a057610180526001600160a01b0381161561078c576106ff90610ad3565b6001600160a01b039081166101a08190529082161561077d5761072a906001600160a01b0316610470565b803b1561011f5760405163ca5eb5e160e01b81526001600160a01b039290921660048301525f908290602490829084905af180156105cd576107695750565b806107775f61016f93610137565b806105e0565b632d618d8160e21b5f5260045ffd5b631e4fbdf760e01b5f90815260045260245ffd5b6334566e4b60e21b5f5260045ffd5b90600182811c921680156107dd575b60208310146107c957565b634e487b7160e01b5f52602260045260245ffd5b91607f16916107be565b601f82116107f457505050565b5f5260205f20906020601f840160051c8301931061082c575b601f0160051c01905b818110610821575050565b5f8155600101610816565b909150819061080d565b80519091906001600160401b03811161015a5761085f816108586003546107af565b60036107e7565b602092601f821160011461089f5761088f929382915f92610894575b50508160011b915f199060031b1c19161790565b600355565b015190505f8061087b565b60035f52601f198216937fc2575a0e9e593c00f959f8c92f12db2869c3395a3b0502d05e2516446f71f85b915f5b86811061090357508360019596106108eb575b505050811b01600355565b01515f1960f88460031b161c191690555f80806108e0565b919260206001819286850151815501940192016108cd565b6001600160a01b031680156107a057600d546001600160a01b03811661094b576001600160a01b03191617600d55565b6336f62bb160e01b5f5260045ffd5b683635c9adc5dea00000811080156109a1575b6109745750565b6309c6075760e01b5f52600452683635c9adc5dea0000060245269152d02c7e14af680000060445260645ffd5b5069152d02c7e14af6800000811161096d565b6001600160a01b031680156109fb57601180546001600160a01b031916821790557f7b8ac9dc00c39ab43cee17ce9ec96af81b02a21526626b7701fc69cb025711c25f80a2565b63224fa21960e21b5f5260045260245ffd5b634e487b7160e01b5f52603260045260245ffd5b8051821015610a355760209160051b010190565b610a0d565b91909180518015610abe57835103610ac4575f5b8151811015610abe57807f238399d427b947898edb290f5ff0f9109849b1c3ba196a42e35f00c50a54b98b604063ffffffff610a8c60019587610a21565b5116848060a01b03610a9e858a610a21565b5116815f52600f60205280835f205582519182526020820152a101610a4e565b50509050565b638158df6160e01b5f5260045ffd5b600e80546001600160a01b039283166001600160a01b0319821681179092559091167f8be0079c531659141344cd1fd0a4f28419497f9722a3daafe3b4186f6b6457e05f80a3565b60648111610bcc57600c549081610b6c575f516020615ef65f395f51905f5291505f5b610b58610b49610fc6565b610b5284610f1c565b906110bb565b5050604080519182526020820192909252a1565b815f19810111610bb857600c5f527fdf6966c971051c3d54ec59162606531493a51404a002842f56009d7e5cf4a8c691909101545f516020615ef65f395f51905f52919060301c610b3e565b634e487b7160e01b5f52601160045260245ffd5b63243e544560e01b5f52600452606460245260445ffd5b600a547fc565b045403dc03c2eea82b81a0465edad9e2e7fc4d97e11421c209da93d7a93604065ffffffffffff81519481851686521693846020820152a165ffffffffffff191617600a55565b63ffffffff8116908115610c9e5769ffffffff000000000000907f7e3f7f0708a84de9203036abaa450dccc85ad5ff52f78c170f3edb55cf5e88286040600a549481519063ffffffff8760301c1682526020820152a160301b169069ffffffff000000000000191617600a55565b63f1cfbf0560e01b5f525f60045260245ffd5b60095460408051918252602082018390527fccb45da8d5717e6c4544694297c4ba5cf151d455c9bb0ed4fc7a38411bc0546191a1600955565b600754604080516001600160a01b03808416825290931660208401819052927f08f74ea46ef7894f65eabfb5e6e695de773a000b47c529ab559178069b2264019190a16001600160a01b03191617600755565b908151602081105f14610d5557509061041790610f4d565b6001600160401b03811161015a57610d7781610d715f546107af565b5f6107e7565b602092601f8211600114610dad57610da6929382915f926108945750508160011b915f199060031b1c19161790565b5f5560ff90565b5f8052601f198216937f290decd9548b62a8d60345a988386fc84ba6bc95484008f6362f93160ef3e563915f5b868110610e125750836001959610610dfa575b505050811b015f5560ff90565b01515f1960f88460031b161c191690555f8080610ded565b91926020600181928685015181550194019201610dda565b908151602081105f14610e4257509061041790610f4d565b6001600160401b03811161015a57610e6681610e5f6001546107af565b60016107e7565b602092601f8211600114610e9d57610e95929382915f926108945750508160011b915f199060031b1c19161790565b60015560ff90565b60015f52601f198216937fb10e2d527612073b26eecdfd717e6a320cf44b4afac2b0732d9fcbe2b7fa0cf6915f5b868110610f045750836001959610610eec575b505050811b0160015560ff90565b01515f1960f88460031b161c191690555f8080610ede565b91926020600181928685015181550194019201610ecb565b6001600160d01b038111610f36576001600160d01b031690565b6306dfcc6560e41b5f5260d060045260245260445ffd5b601f815111610f78576020815191015160208210610f69571790565b5f198260200360031b1b161790565b604460209160405192839163305a27a960e01b83528160048401528051918291826024860152018484015e5f828201840152601f01601f19168101030190fd5b5f19810191908211610bb857565b610160516040516324776b7d60e21b815290602090829060049082906001600160a01b03165afa5f918161102c575b50610417575065ffffffffffff43116110145765ffffffffffff431690565b6306dfcc6560e41b5f5260306004524360245260445ffd5b9091506020813d602011611060575b8161104860209383610137565b8101031261011f576110599061019c565b905f610ff5565b3d915061103b565b9081546801000000000000000081101561015a5760018101808455811015610a35575f9283526020928390208251929093015160301b65ffffffffffff191665ffffffffffff9290921691909117910155565b600c54919291801561119b576110d36110fc91610fb8565b600c5f527fdf6966c971051c3d54ec59162606531493a51404a002842f56009d7e5cf4a8c70190565b9081546111186111118265ffffffffffff1690565b9160301c90565b9265ffffffffffff80841692169180831161118c578692036111565761115292509065ffffffffffff82549181199060301b169116179055565b9190565b505061115290611175611167610171565b65ffffffffffff9092168252565b6001600160d01b03851660208201525b600c611068565b632520601d60e01b5f5260045ffd5b506111bf906111ab611167610171565b6001600160d01b0384166020820152611185565b5f919056fe6080604052600436101561001a575b3615610018575f80fd5b005b5f3560e01c806301ffc9a71461047457806302a251a31461046f57806306f3f9e61461046a57806306fdde031461046557806313137d6514610460578063143489d01461045b578063150b7a0214610456578063160cbed71461045157806317442b701461044c57806325fd935a146104475780632656227d146104425780632d63f6931461043d5780632fe3e261146104385780633400288b146104335780633932abb11461042e5780633af32abf146104295780633e4f49e614610424578063438596321461041f578063452115d61461041a5780634bf5d7e914610415578063544ffc9c1461041057806354fd4d501461040b57806356781388146104065780635b8d0e0d146104015780635e280f11146103fc5780635f398a14146103f757806360c4247f146103f25780636f283761146103ed578063715018a6146103e8578063768e7812146103e357806379051887146103de578063791f5d23146103d957806379502c55146103d4578063798ec935146103d45780637b3c71d3146103cf5780637d25a05e146103ca5780637d5e81e2146103c55780637ecebe00146103c057806380c176eb146103bb57806382413eac146103b657806384b0196e146103b15780638da5cb5b146103ac5780638ff262e3146103a757806391ddadf4146103a257806395df68c31461039d57806397c3d334146103985780639a802a6d14610393578063a7713a701461038e578063a890c91014610389578063a9a9529414610384578063ab58fb8e1461037f578063b58131b01461037a578063bb0b6a5314610375578063bc197c8114610370578063c01f9e371461036b578063c28bc2fa14610366578063c59057e414610361578063ca5eb5e11461035c578063d33219b414610357578063dd4e2ba514610352578063deaaa7cc1461034d578063ded0a63814610348578063e540d01d14610343578063eb9019d41461033e578063ece40cc114610339578063f23a6e6114610334578063f2fde38b1461032f578063f8ce560a1461032a578063fc0c546a146103255763ff7bd03d0361000e576125f1565b6125ad565b6124f2565b612468565b6123fb565b6123a6565b612301565b61225f565b6121f1565b6121b7565b612158565b612130565b612093565b612077565b61200c565b611fee565b611f41565b611f08565b611eeb565b611eb8565b611e9c565b611e24565b611df9565b611d24565b611d09565b611cce565b611ca4565b611b8b565b611b63565b611a93565b611a02565b6119c2565b611987565b6118d9565b6118b3565b61185e565b611836565b611813565b6117a1565b6116eb565b611690565b611612565b6115ec565b61156c565b611528565b611492565b611380565b61132d565b6112ec565b6112bd565b6111b2565b61115d565b61112e565b6110b5565b611090565b611023565b610fce565b610f99565b610e3e565b610e1a565b610df9565b610bb2565b61096e565b610834565b61073d565b610614565b610516565b6104f0565b346104e25760203660031901126104e25760043563ffffffff60e01b81168091036104e2576020906332a2ad4360e11b81149081156104d1575b81156104c0575b506040519015158152f35b6301ffc9a760e01b1490505f6104b5565b630271189760e51b811491506104ae565b5f80fd5b5f9103126104e257565b346104e2575f3660031901126104e257602063ffffffff600a5460301c16604051908152f35b346104e25760203660031901126104e25760043561053261310a565b606481116105c5576001600160d01b0361054a613e0e565b1690610554613d08565b916001600160d01b0382116105ad577f0553476bf02ef2726e8ce5ced78d63e26e602e4a2257b1f559418e24b463399792610599906001600160d01b038416906148d6565b5050604080519182526020820192909252a1005b506306dfcc6560e41b5f5260d060045260245260445ffd5b63243e544560e01b5f52600452606460245260445ffd5b805180835260209291819084018484015e5f828201840152601f01601f1916010190565b9060206106119281815201906105dc565b90565b346104e2575f3660031901126104e2576040515f60035461063481612636565b80845290600181169081156106ca575060011461066c575b6106688361065c818503826108c1565b60405191829182610600565b0390f35b60035f9081527fc2575a0e9e593c00f959f8c92f12db2869c3395a3b0502d05e2516446f71f85b939250905b8082106106b05750909150810160200161065c61064c565b919260018160209254838588010152019101909291610698565b60ff191660208086019190915291151560051b8401909101915061065c905061064c565b60609060031901126104e257600490565b9181601f840112156104e2578235916001600160401b0383116104e257602083818601950101116104e257565b6001600160a01b038116036104e257565b60e03660031901126104e257610752366106ee565b6084356001600160401b0381116104e2576107719036906004016106ff565b9061077d60a43561072c565b60c4356001600160401b0381116104e25761079c9036906004016106ff565b5050337f00000000000000000000000000000000000000000000000000000000000000006001600160a01b031603610821578235926107da84611008565b6107e384613187565b9360208201358095036107fb575061001893506131b7565b63ffffffff8161080b8793611008565b63309afaf360e21b5f521660045260245260445ffd5b6391ac5e4f60e01b5f523360045260245ffd5b346104e25760203660031901126104e257600480355f908152602091825260409020546001600160a01b03166040516001600160a01b039091168152f35b634e487b7160e01b5f52604160045260245ffd5b604081019081106001600160401b038211176108a157604052565b610872565b606081019081106001600160401b038211176108a157604052565b90601f801991011681019081106001600160401b038211176108a157604052565b604051906108f16040836108c1565b565b604051906108f160a0836108c1565b6001600160401b0381116108a157601f01601f191660200190565b92919261092982610902565b9161093760405193846108c1565b8294818452818301116104e2578281602093845f960137010152565b9080601f830112156104e2578160206106119335910161091d565b346104e25760803660031901126104e25761098a60043561072c565b61099560243561072c565b6064356001600160401b0381116104e2576109b4903690600401610953565b50600754306001600160a01b03909116036109db57604051630a85bd0160e11b8152602090f35b637485328f60e11b5f5260045ffd5b6001600160401b0381116108a15760051b60200190565b9080601f830112156104e2578135610a18816109ea565b92610a2660405194856108c1565b81845260208085019260051b8201019283116104e257602001905b828210610a4e5750505090565b602080918335610a5d8161072c565b815201910190610a41565b9080601f830112156104e2578135610a7f816109ea565b92610a8d60405194856108c1565b81845260208085019260051b8201019283116104e257602001905b828210610ab55750505090565b8135815260209182019101610aa8565b9080601f830112156104e2578135610adc816109ea565b92610aea60405194856108c1565b81845260208085019260051b820101918383116104e25760208201905b838210610b1657505050505090565b81356001600160401b0381116104e257602091610b3887848094880101610953565b815201910190610b07565b60806003198201126104e2576004356001600160401b0381116104e25781610b6d91600401610a01565b916024356001600160401b0381116104e25782610b8c91600401610a68565b91604435906001600160401b0382116104e257610bab91600401610ac5565b9060643590565b346104e257610bc036610b43565b9092610bce82858584613014565b93610bd885613294565b50600754610bf6906001600160a01b03165b6001600160a01b031690565b936040519363793d064960e11b8552602085600481895afa948515610da4575f95610dd8575b503060601b6bffffffffffffffffffffffff191618946020604051809263b1c5f42760e01b82528180610c558b89898c60048601613f90565b03915afa908115610da4575f91610da9575b50610c7a875f52600860205260405f2090565b55600754610c90906001600160a01b0316610bea565b90813b156104e2575f8094610cbc87604051998a97889687956308f2a0bb60e41b875260048701613fd5565b03925af1908115610da457610ce092610cdb92610d8a575b5042613be6565b613b99565b9065ffffffffffff821615610d7b577f9a2e42fd6722813d69113e7d0079d3d940171428df7373df9c7f7617cfda2892610d6883610d49610668956001610d2f875f52600460205260405f2090565b019065ffffffffffff1665ffffffffffff19825416179055565b6040805185815265ffffffffffff909216602083015290918291820190565b0390a16040519081529081906020820190565b634844252360e11b5f5260045ffd5b80610d985f610d9e936108c1565b806104e6565b5f610cd4565b6126f9565b610dcb915060203d602011610dd1575b610dc381836108c1565b810190613d9b565b5f610c67565b503d610db9565b610df291955060203d602011610dd157610dc381836108c1565b935f610c1c565b346104e2575f3660031901126104e257604080516001815260026020820152f35b346104e2575f3660031901126104e257602060405169152d02c7e14af68000008152f35b610e4736610b43565b919263ffffffff7f000000000000000000000000000000000000000000000000000000000000000016804603610f83575033610e9d575b9061066893610e8d9392613366565b6040519081529081906020820190565b91907f00000000000000000000000000000000000000000000000000000000000000006001600160a01b0316803b156104e257604051633e4986ef60e11b8152336004820152905f908290602490829084905af18015610da457610f6f575b50600d54610f12906001600160a01b0316610bea565b93843b156104e25760405163dae21dab60e01b8152336004820152945f908690602490829084905af1938415610da45761066895610e8d95610f5b575b50919293509350610e7e565b80610d985f610f69936108c1565b5f610f4f565b80610d985f610f7d936108c1565b5f610efc565b6327bf854560e21b5f524660045260245260445ffd5b346104e25760203660031901126104e2576004355f526004602052602065ffffffffffff60405f205460a01c16604051908152f35b346104e2575f3660031901126104e25760206040517f3e83946653575f9a39005e1545185629e92736b7528ab20ca3816f315424a8118152f35b63ffffffff8116036104e257565b600435906108f182611008565b346104e25760403660031901126104e2577f238399d427b947898edb290f5ff0f9109849b1c3ba196a42e35f00c50a54b98b604060043561106381611008565b63ffffffff602435916110746134cc565b1690815f52600f60205280835f205582519182526020820152a1005b346104e2575f3660031901126104e257602065ffffffffffff600a5416604051908152f35b346104e25760203660031901126104e25760206110f36004356110d78161072c565b6001600160a01b03165f90815260106020526040902054421090565b6040519015158152f35b634e487b7160e01b5f52602160045260245ffd5b6008111561111b57565b6110fd565b600881101561111b57602452565b346104e25760203660031901126104e25761114a60043561350b565b604051600882101561111b576020918152f35b346104e25760403660031901126104e257602060ff6111a66024356004356111848261072c565b5f52600b8452600360405f20019060018060a01b03165f5260205260405f2090565b54166040519015158152f35b346104e2576111c036610b43565b9192336111d7575b9061066893610e8d9392612704565b91907f00000000000000000000000000000000000000000000000000000000000000006001600160a01b0316803b156104e257604051633e4986ef60e11b8152336004820152905f908290602490829084905af18015610da4576112a9575b50600d5461124c906001600160a01b0316610bea565b93843b156104e25760405163dae21dab60e01b8152336004820152945f908690602490829084905af1938415610da45761066895610e8d95611295575b509192935093506111c8565b80610d985f6112a3936108c1565b5f611289565b80610d985f6112b7936108c1565b5f611236565b346104e2575f3660031901126104e2576106686112d861374c565b6040519182916020835260208301906105dc565b346104e25760203660031901126104e2576004355f52600b602052606060405f20805490600260018201549101549060405192835260208301526040820152f35b346104e2575f3660031901126104e25761066860405161134e6040826108c1565b60018152603160f81b60208201526040519182916020835260208301906105dc565b6024359060ff821682036104e257565b346104e25760403660031901126104e25760043561139c611370565b90336113b0575b61066891610e8d9161285e565b7f00000000000000000000000000000000000000000000000000000000000000006001600160a01b0316803b156104e257604051633e4986ef60e11b8152336004820152905f908290602490829084905af18015610da45761147e575b50600d54611423906001600160a01b0316610bea565b91823b156104e25760405163dae21dab60e01b8152336004820152925f908490602490829084905af1918215610da45761066893610e8d9361146a575b50915091506113a3565b80610d985f611478936108c1565b5f611460565b80610d985f61148c936108c1565b5f61140d565b346104e25760c03660031901126104e2576004356114ae611370565b90604435906114bc8261072c565b6064356001600160401b0381116104e2576114db9036906004016106ff565b6084356001600160401b0381116104e2576114fa903690600401610953565b9160a435946001600160401b0386116104e25761066896611522610e8d973690600401610953565b9561287b565b346104e2575f3660031901126104e2576040517f00000000000000000000000000000000000000000000000000000000000000006001600160a01b03168152602090f35b346104e25760803660031901126104e257600435611588611370565b906044356001600160401b0381116104e2576115a89036906004016106ff565b9190926064356001600160401b0381116104e2576115e1946115d16115d9923690600401610953565b94369161091d565b913390613991565b604051908152602090f35b346104e25760203660031901126104e257602061160a600435612981565b604051908152f35b346104e25760203660031901126104e25760043561162f8161072c565b61163761310a565b6001600160a01b0316801561167e57601180546001600160a01b031916821790557f7b8ac9dc00c39ab43cee17ce9ec96af81b02a21526626b7701fc69cb025711c25f80a2005b63224fa21960e21b5f5260045260245ffd5b346104e2575f3660031901126104e2576116a86134cc565b600e80546001600160a01b031981169091555f906001600160a01b03167f8be0079c531659141344cd1fd0a4f28419497f9722a3daafe3b4186f6b6457e08280a3005b346104e25760c03660031901126104e257611704611016565b6024356001600160401b0381116104e257611723903690600401610a01565b6044356001600160401b0381116104e257611742903690600401610a68565b916064356001600160401b0381116104e257611762903690600401610ac5565b6084359060a435946001600160401b0386116104e2576117896100189636906004016106ff565b959094612aa9565b65ffffffffffff8116036104e257565b346104e25760203660031901126104e2576004356117be81611791565b6117c661310a565b600a547fc565b045403dc03c2eea82b81a0465edad9e2e7fc4d97e11421c209da93d7a93604065ffffffffffff81519481851686521693846020820152a165ffffffffffff191617600a55005b346104e2575f3660031901126104e2576020604051683635c9adc5dea000008152f35b346104e2575f3660031901126104e2576011546040516001600160a01b039091168152602090f35b346104e25760603660031901126104e25760043561187a611370565b90604435906001600160401b0382116104e2576020926118ab6118a461160a9436906004016106ff565b369161091d565b91339061381b565b346104e25760403660031901126104e2576118cf600435611008565b60206040515f8152f35b346104e25760803660031901126104e2576004356001600160401b0381116104e257611909903690600401610a01565b6024356001600160401b0381116104e257611928903690600401610a68565b906044356001600160401b0381116104e257611948903690600401610ac5565b90606435916001600160401b0383116104e257366023840112156104e25761066893611981610e8d94369060248160040135910161091d565b92612b9b565b346104e25760203660031901126104e2576004356119a48161072c565b60018060a01b03165f526002602052602060405f2054604051908152f35b346104e2575f3660031901126104e257602060405163ffffffff7f0000000000000000000000000000000000000000000000000000000000000000168152f35b346104e25760a03660031901126104e257611a1c366106ee565b506064356001600160401b0381116104e257611a3c9036906004016106ff565b50506020608435611a4c8161072c565b6040516001600160a01b0390911630148152f35b90602080835192838152019201905f5b818110611a7d5750505090565b8251845260209384019390920191600101611a70565b346104e2575f3660031901126104e257611b35611acf7f00000000000000000000000000000000000000000000000000000000000000006147ce565b610668611afb7f000000000000000000000000000000000000000000000000000000000000000061482d565b611b4360405191611b0d6020846108c1565b5f808452366020850137604051958695600f60f81b875260e0602088015260e08701906105dc565b9085820360408701526105dc565b904660608501523060808501525f60a085015283820360c0850152611a60565b346104e2575f3660031901126104e257600e546040516001600160a01b039091168152602090f35b346104e25760803660031901126104e257600435611ba7611370565b9060443591611bb58361072c565b6064356001600160401b0381116104e257611c68611bda611c6c923690600401610953565b6001600160a01b0386165f908152600260205260409020805460018101909155611c629060405160208101917ff2aad550cf55f045cb27e9c559f9889fdfb6e6cdaa032301d6ea397784ae51d7835288604083015260ff8816606083015260018060a01b038a16608083015260a082015260a08152611c5a60c0826108c1565b519020613838565b86613868565b1590565b611c875790610e8d9161066893611c8161284a565b9261381b565b6394ab6c0760e01b5f526001600160a01b03831660045260245b5ffd5b346104e2575f3660031901126104e2576020611cbe613d08565b65ffffffffffff60405191168152f35b346104e25760203660031901126104e257600435611ceb8161072c565b60018060a01b03165f526010602052602060405f2054604051908152f35b346104e2575f3660031901126104e257602060405160648152f35b346104e25760603660031901126104e257600435611d418161072c565b6024356044356001600160401b0381116104e257611d63903690600401610953565b50604051630748d63560e31b81526001600160a01b039283166004820152602481019190915290602090829060449082907f0000000000000000000000000000000000000000000000000000000000000000165afa8015610da457610668915f91611dda575b506040519081529081906020820190565b611df3915060203d602011610dd157610dc381836108c1565b5f611dc9565b346104e2575f3660031901126104e25760206001600160d01b03611e1b613e0e565b16604051908152f35b346104e25760203660031901126104e257600435611e418161072c565b611e4961310a565b600754604080516001600160a01b03808416825290931660208401819052927f08f74ea46ef7894f65eabfb5e6e695de773a000b47c529ab559178069b2264019190a16001600160a01b03191617600755005b346104e25760203660031901126104e257602060405160018152f35b346104e25760203660031901126104e257602061160a6004355f52600460205265ffffffffffff600160405f2001541690565b346104e2575f3660031901126104e2576020600954604051908152f35b346104e25760203660031901126104e25763ffffffff600435611f2a81611008565b165f52600f602052602060405f2054604051908152f35b346104e25760a03660031901126104e257611f5d60043561072c565b611f6860243561072c565b6044356001600160401b0381116104e257611f87903690600401610a68565b506064356001600160401b0381116104e257611fa7903690600401610a68565b506084356001600160401b0381116104e257611fc7903690600401610953565b50610668611fd3612eeb565b6040516001600160e01b031990911681529081906020820190565b346104e25760203660031901126104e257602061160a600435612f0a565b60603660031901126104e2576004356120248161072c565b6024356044356001600160401b0381116104e257610018925f9261204d849336906004016106ff565b919061205761310a565b826040519384928337810185815203925af1612071612f51565b90613e52565b346104e257602061160a61208a36610b43565b92919091613014565b346104e2575f60203660031901126104e2576004356120b18161072c565b6120b96134cc565b7f00000000000000000000000000000000000000000000000000000000000000006001600160a01b031690813b156104e25760405163ca5eb5e160e01b81526001600160a01b039091166004820152905f908290602490829084905af18015610da457612124575080f35b61001891505f906108c1565b346104e2575f3660031901126104e2576007546040516001600160a01b039091168152602090f35b346104e2575f3660031901126104e2576106686040516121796040826108c1565b602081527f737570706f72743d627261766f2671756f72756d3d666f722c6162737461696e60208201526040519182916020835260208301906105dc565b346104e2575f3660031901126104e25760206040517ff2aad550cf55f045cb27e9c559f9889fdfb6e6cdaa032301d6ea397784ae51d78152f35b346104e25760403660031901126104e25760043561220e8161072c565b7f4e7b7545bc5744d0e30425959f4687475774b6c7edad77d24cb51c7d967d451560206024359261223d61310a565b6001600160a01b03165f818152601083526040908190208590555193845292a2005b346104e25760203660031901126104e25760043561227c81611008565b61228461310a565b63ffffffff81169081156122ee5763ffffffff60301b907f7e3f7f0708a84de9203036abaa450dccc85ad5ff52f78c170f3edb55cf5e88286040600a549481519063ffffffff8760301c1682526020820152a160301b169063ffffffff60301b191617600a555f80f35b63f1cfbf0560e01b5f525f60045260245ffd5b346104e25760403660031901126104e25760043561231e8161072c565b6024355f6040516123306020826108c1565b52604051630748d63560e31b81526001600160a01b039283166004820152602481019190915290602090829060449082907f0000000000000000000000000000000000000000000000000000000000000000165afa8015610da457610668915f91611dda57506040519081529081906020820190565b346104e25760203660031901126104e2576004356123c261310a565b60095460408051918252602082018390527fccb45da8d5717e6c4544694297c4ba5cf151d455c9bb0ed4fc7a38411bc0546191a1600955005b346104e25760a03660031901126104e25761241760043561072c565b61242260243561072c565b6084356001600160401b0381116104e257612441903690600401610953565b50600754306001600160a01b03909116036109db5760405163f23a6e6160e01b8152602090f35b346104e25760203660031901126104e2576004356124858161072c565b61248d6134cc565b6001600160a01b031680156124df57600e80546001600160a01b0319811683179091556001600160a01b03167f8be0079c531659141344cd1fd0a4f28419497f9722a3daafe3b4186f6b6457e05f80a3005b631e4fbdf760e01b5f525f60045260245ffd5b346104e25760203660031901126104e257600435604051632394e7a360e21b815260048101829052906020826024817f00000000000000000000000000000000000000000000000000000000000000006001600160a01b03165afa918215610da4575f92612588575b5061256590612981565b90818102918183041490151715612583576106689060649004610e8d565b612828565b6125659192506125a69060203d602011610dd157610dc381836108c1565b919061255b565b346104e2575f3660031901126104e2576040517f00000000000000000000000000000000000000000000000000000000000000006001600160a01b03168152602090f35b346104e25760603660031901126104e257602061260d366106ee565b63ffffffff813561261d81611008565b165f52600f82528160405f205491013560405191148152f35b90600182811c92168015612664575b602083101461265057565b634e487b7160e01b5f52602260045260245ffd5b91607f1691612645565b5f929181549161267d83612636565b80835292600181169081156126d2575060011461269957505050565b5f9081526020812093945091925b8383106126b8575060209250010190565b6001816020929493945483858701015201910191906126a7565b915050602093945060ff929192191683830152151560051b010190565b3561061181611008565b6040513d5f823e3d90fd5b9392919063ffffffff7f000000000000000000000000000000000000000000000000000000000000000016804603610f83575061276061274684848489613014565b5f908152600460205260409020546001600160a01b031690565b94336001600160a01b038716141580612808575b806127ea575b61278957610611949550613618565b8561279c6127964261283c565b8261307b565b906127e66127a960095490565b6040516308a4880b60e31b81523360048201526001600160a01b039093166024840152604483019390935260648201929092529081906084820190565b0390fd5b50601154612800906001600160a01b0316610bea565b33141561277a565b505f1942014281116125835761281e908761307b565b6009541115612774565b634e487b7160e01b5f52601160045260245ffd5b5f1981019190821161258357565b604051906128596020836108c1565b5f8252565b61061191604051916128716020846108c1565b5f8352339061381b565b939092919695611c68612936916129308a6128af8160018060a01b03165f52600260205260405f2080549060018201905590565b6128ba36888a61091d565b602081519101208b5160208d0120906040519260208401947f3e83946653575f9a39005e1545185629e92736b7528ab20ca3816f315424a81186528d604086015260ff8d16606086015260018060a01b0316608085015260a084015260c083015260e082015260e08152611c5a610100826108c1565b8a613868565b6129515761061195969161294b91369161091d565b92613991565b6394ab6c0760e01b5f526001600160a01b03871660045260245ffd5b634e487b7160e01b5f52603260045260245ffd5b600c54905f19820182811161258357821115612aa457600c5f527fdf6966c971051c3d54ec59162606531493a51404a002842f56009d7e5cf4a8c682015465ffffffffffff8116821015612a9b57506129d990613b99565b5f829160058411612a47575b6129ef9350614436565b806129f957505f90565b612a3b612a34612a0b6106119361283c565b600c5f527fdf6966c971051c3d54ec59162606531493a51404a002842f56009d7e5cf4a8c70190565b5460301c90565b6001600160d01b031690565b9192612a52816142d8565b8103908111612583576129ef93600c5f5265ffffffffffff8260205f2001541665ffffffffffff8516105f14612a895750916129e5565b929150612a9590613bc8565b906129e5565b91505060301c90565b61296d565b9390612b2f612b09979363ffffffff9793612b1b612b7297612ac961310a565b612ad583828689613014565b9b8c94612af7604051988997602089015260a0604089015260c0880190612f80565b868103601f1901606088015290611a60565b848103601f1901608086015290612fbc565b9060a083015203601f1981018352826108c1565b612b6b612b50612b4a612b4336878761091d565b8489614571565b51613bd6565b92612b596108e2565b9384525f60208501523094369161091d565b90856146a7565b5016907f56fd6890539d17e2b7a1a260eb3a205a9a381dcd8a38504cbbb1eb3a2c316ddb5f80a3565b92919033612bae575b610611935f612c8a565b7f00000000000000000000000000000000000000000000000000000000000000006001600160a01b0316803b156104e257604051633e4986ef60e11b8152336004820152905f908290602490829084905af18015610da457612c76575b50600d54612c21906001600160a01b0316610bea565b93843b156104e25760405163dae21dab60e01b8152336004820152945f908690602490829084905af1948515610da45761061195612c62575b509350612ba4565b80610d985f612c70936108c1565b5f612c5a565b80610d985f612c84936108c1565b5f612c0b565b5090919263ffffffff7f000000000000000000000000000000000000000000000000000000000000000016804603610f8357505f19420142811161258357612cd2903361307b565b6009549081811080612ed3575b612eba575050612cf781516020830120858585613014565b938251845190818114801590612eaf575b8015612ea7575b612e8857505065ffffffffffff612d40612d31875f52600460205260405f2090565b5460a01c65ffffffffffff1690565b16612e6b577f7d84a6263ae0d98d3329bd7b46bb4e8d6f98cd35a7adb45c274c8b7fd5ebd5e0939291612e6591612da5612d78613d08565b65ffffffffffff612d9e612d9365ffffffffffff600a541690565b65ffffffffffff1690565b9116613be6565b612dc3612dba63ffffffff600a5460301c1690565b63ffffffff1690565b91612e42612dd98a5f52600460205260405f2090565b80546001600160a01b03191633178155612e19612df585613b99565b825465ffffffffffff60a01b191660a09190911b65ffffffffffff60a01b16178255565b612e22856147a3565b815463ffffffff60d01b191660d09190911b63ffffffff60d01b16179055565b612e56612e4f8751613bf3565b9383613be6565b92604051978897338c8a613c3c565b0390a190565b611ca185612e788161350b565b6331b75e4d60e01b5f529061327b565b9151630447b05d60e41b5f908152600493909352602452604452606490fd5b508015612d0f565b508251811415612d08565b6303554fd560e01b5f523360045260245260445260645ffd5b50335f90815260106020526040902054421015612cdf565b600754306001600160a01b03909116036109db5763bc197c8160e01b90565b805f52600460205265ffffffffffff60405f205460a01c16905f52600460205263ffffffff60405f205460d01c160165ffffffffffff81116125835765ffffffffffff1690565b3d15612f7b573d90612f6282610902565b91612f7060405193846108c1565b82523d5f602084013e565b606090565b90602080835192838152019201905f5b818110612f9d5750505090565b82516001600160a01b0316845260209384019390920191600101612f90565b9080602083519182815201916020808360051b8301019401925f915b838310612fe757505050505090565b9091929394602080613005600193601f1986820301875289516105dc565b97019301930191939290612fd8565b92906130759161306161304f9460405195869461303d602087019960808b5260a0880190612f80565b868103601f1901604088015290611a60565b848103601f1901606086015290612fbc565b90608083015203601f1981018352826108c1565b51902090565b905f60405161308b6020826108c1565b52604051630748d63560e31b81526001600160a01b039283166004820152602481019190915290602090829060449082907f0000000000000000000000000000000000000000000000000000000000000000165afa908115610da4575f916130f1575090565b610611915060203d602011610dd157610dc381836108c1565b600754336001600160a01b039091160361317457600754306001600160a01b039091160361313457565b61313d36610902565b61314a60405191826108c1565b3681526020810190365f83375f602036830101525190205b8061316b613e96565b03613162575b50565b6347096e4760e01b5f523360045260245ffd5b63ffffffff16805f52600f60205260405f20549081156131a5575090565b63f6ff4fb760e01b5f5260045260245ffd5b909182019160a0818403126104e257803560208201356001600160401b0381116104e257846131e7918401610a01565b60408301356001600160401b0381116104e25785613206918501610a68565b916060840135956001600160401b0387116104e25761323d608061323463ffffffff936131719a8901610ac5565b960135966126ef565b16817f30d15b7e92a81e472f6ba5aff0c0a81b2f409d1af0e92aa0e20d98ba24f98b415f80a3613f02565b600881101561111b5760ff600191161b90565b60045260649190600881101561111b576024525f604452565b61329d8161350b565b9060106132a983613268565b16156132b3575090565b6331b75e4d60e01b5f526004526132ca9150611120565b601060445260645ffd5b6132dd8161350b565b9060026132e983613268565b16156132f3575090565b6331b75e4d60e01b5f5260045261330a9150611120565b600260445260645ffd5b9061331e8261350b565b918161332984613268565b161561333457505090565b6331b75e4d60e01b5f5260045261334a82611120565b60445260645ffd5b8051821015612aa45760209160051b010190565b9392909161337682828588613014565b92602095613388602060101786613314565b506133b161339e865f52600460205260405f2090565b805460ff60f01b1916600160f01b179055565b6007546133c6906001600160a01b0316610bea565b306001600160a01b0390911603613461575b846133e5959697506149b6565b60075430906133fe90610bea906001600160a01b031681565b141580613446575b61343d575b6040518181527f712ae1383f79ac853f8d882153778e0260ef8f03b504e2866e0593e04d2b291f908060208101612e65565b5f60055561340b565b506005546001600160801b03811660809190911c1415613406565b925f95929491955b84518110156134bd5760019030613493610bea613486848a613352565b516001600160a01b031690565b1461349f575b01613469565b6134b86134ac8289613352565b518a8151910120614022565b613499565b509195508594909391926133d8565b600e546001600160a01b031633036134e057565b63118cdaa760e01b5f523360045260245ffd5b908160209103126104e2575180151581036104e25790565b61351481614088565b9061351e82611111565b600582036136145761353991505f52600860205260405f2090565b5460075461354f906001600160a01b0316610bea565b604051632c258a9f60e11b815260048101839052602081602481855afa908115610da4575f916135f5575b5015613587575050600590565b604051632ab0f52960e01b81526004810192909252602090829060249082905afa908115610da4575f916135c6575b50156135c157600790565b600290565b6135e8915060203d6020116135ee575b6135e081836108c1565b8101906134f3565b5f6135b6565b503d6135d6565b61360e915060203d6020116135ee576135e081836108c1565b5f61357a565b5090565b90613624939291613014565b61362f603b82613314565b5061365a613645825f52600460205260405f2090565b80546001600160f81b0316600160f81b179055565b6040518181527f789cf55be980739dad1d0699b93b58e806b51c9d96619bfa8fe0a28abaa7b30c90602090a1613698815f52600860205260405f2090565b54806136a2575090565b6007546136b7906001600160a01b0316610bea565b803b156104e25760405163c4d252f560e01b815260048101929092525f908290602490829084905af18015610da4576136fd575b505f8181526008602052604081205590565b80610d985f61370b936108c1565b5f6136eb565b604051906137206040836108c1565b601d82527f6d6f64653d626c6f636b6e756d6265722666726f6d3d64656661756c740000006020830152565b604051634bf5d7e960e01b81525f816004817f00000000000000000000000000000000000000000000000000000000000000006001600160a01b03165afa5f91816137a0575b506106115750610611613711565b9091503d805f833e6137b281836108c1565b8101906020818303126104e2578051906001600160401b0382116104e2570181601f820112156104e2578051906137e882610902565b926137f660405194856108c1565b828452602083830101116104e257815f9260208093018386015e83010152905f613792565b916106119391604051936138306020866108c1565b5f8552613991565b604290613843614188565b906040519161190160f01b8352600283015260228201522090565b6004111561111b57565b9190823b6138a3579061387a9161429e565b506138848161385e565b15918261389057505090565b6001600160a01b03918216911614919050565b915f926138d96138e785946040519283916020830195630b135d3f60e11b875260248401526040604484015260648301906105dc565b03601f1981018352826108c1565b51915afa6138f3612f51565b81613923575b81613902575090565b905061391f630b135d3f60e11b9160208082518301019101613d9b565b1490565b9050602081511015906138f9565b93909260ff61395d9361061197958752166020860152604085015260a0606085015260a08401906105dc565b9160808184039101526105dc565b909260ff60809361061196958452166020830152604082015281606082015201906105dc565b92919061399d846132d4565b50835f5260046020526139c165ffffffffffff8060405f205460a01c161682613daa565b506040516309ab24eb60e41b81526001600160a01b038281166004830152909590602090879060249082907f0000000000000000000000000000000000000000000000000000000000000000165afa958615610da4575f96613b78575b50613a31855f52600b60205260405f2090565b6001600160a01b0383165f90815260038201602081905260409091205460ff16613b5c576001600160a01b0384165f90815260209190915260409020613a7e90805460ff19166001179055565b60ff841680613b1a5750613a93878254613be6565b90555b8051613ade5750613ad87fb8e138887d0aa13bab447e82de9d5c1777041ecd21ca36ba824ff1e6c07ddda4938660405194859460018060a01b0316978561396b565b0390a290565b613ad8907fe2babfbac5889a709b63bb7f598b324e08bc5a4fb9ec647fb3cbc9ec07eb8712948760405195869560018060a01b03169886613931565b60018103613b385750600101613b31878254613be6565b9055613a96565b600203613b4d57600201613b31878254613be6565b6303599be160e11b5f5260045ffd5b6371c6af4960e01b5f526001600160a01b03841660045260245ffd5b613b9291965060203d602011610dd157610dc381836108c1565b945f613a1e565b65ffffffffffff8111613bb15765ffffffffffff1690565b6306dfcc6560e41b5f52603060045260245260445ffd5b906001820180921161258357565b90620186a0820180921161258357565b9190820180921161258357565b90613bfd826109ea565b613c0a60405191826108c1565b8281528092613c1b601f19916109ea565b01905f5b828110613c2b57505050565b806060602080938501015201613c1f565b959998969794939192613c7d93613c6f92885260018060a01b031660208801526101206040880152610120870190612f80565b908582036060870152611a60565b968388036080850152815180895260208901906020808260051b8c01019401915f905b828210613cdc575050505061061196975090613cc39184820360a0860152612fbc565b9360c083015260e08201526101008184039101526105dc565b90919294602080613cfa6001938f601f1990820301865289516105dc565b970192019201909291613ca0565b6040516324776b7d60e21b81526020816004817f00000000000000000000000000000000000000000000000000000000000000006001600160a01b03165afa5f9181613d5e575b50610611575061061143613b99565b9091506020813d602011613d93575b81613d7a602093836108c1565b810103126104e25751613d8c81611791565b905f613d4f565b3d9150613d6d565b908160209103126104e2575190565b604051630748d63560e31b81526001600160a01b0391821660048201526024810192909252602090829060449082907f0000000000000000000000000000000000000000000000000000000000000000165afa908115610da4575f916130f1575090565b600c5480613e1b57505f90565b805f1981011161258357600c5f527fdf6966c971051c3d54ec59162606531493a51404a002842f56009d7e5cf4a8c6015460301c90565b9091906108f15750805115613e6957805190602001fd5b63d6bda27560e01b5f5260045ffd5b8115613e82570490565b634e487b7160e01b5f52601260045260245ffd5b6005546001600160801b038116919060801c8214613ef0575f82815260066020526040808220546001600160801b03808616845291832092909255600580546001600160801b031916600190950190911693909317909255565b634e487b715f5260316020526024601cfd5b93509091935f5b8251811015613f5e57600190613f575f806001600160a01b03613f2c8589613352565b5116613f38858a613352565b5190613f44868d613352565b5191602083519301915af1612071612f51565b5001613f09565b50935050507f712ae1383f79ac853f8d882153778e0260ef8f03b504e2866e0593e04d2b291f6020604051838152a190565b949392613fbc608093613fae613fca9460a08a5260a08a0190612f80565b9088820360208a0152611a60565b908682036040880152612fbc565b935f60608201520152565b919261400460a094613ff6614012949998979960c0875260c0870190612f80565b908582036020870152611a60565b908382036040850152612fbc565b945f606083015260808201520152565b6005546001608082901c9081016001600160801b039081169392168314614076575f90815260066020526040902055600580546001600160801b031660809290921b6001600160801b031916919091179055565b634e487b715f5260416020526024601cfd5b61409a815f52600460205260405f2090565b5460f881901c9060f01c60ff166141815761417b576140c7612d93612d31835f52600460205260405f2090565b8015614167576140d8612d93613d08565b80911015614161576140e982612f0a565b106140f45750600190565b614100611c6882614a44565b801561413e575b156141125750600390565b614130905f52600460205265ffffffffffff600160405f2001541690565b61413957600490565b600590565b5061415c611c68825f52600b60205260405f20600181015490541090565b614107565b50505f90565b636ad0607560e01b5f52600482905260245ffd5b50600290565b5050600790565b307f00000000000000000000000000000000000000000000000000000000000000006001600160a01b03161480614275575b156141e3577f000000000000000000000000000000000000000000000000000000000000000090565b60405160208101907f8b73c3c69bb8fe3d512ecc4cf759cc79239f7b179b0ffacaa9a75d522b39400f82527f000000000000000000000000000000000000000000000000000000000000000060408201527f000000000000000000000000000000000000000000000000000000000000000060608201524660808201523060a082015260a0815261307560c0826108c1565b507f000000000000000000000000000000000000000000000000000000000000000046146141ba565b81519190604183036142ce576142c79250602082015190606060408401519301515f1a90614b19565b9192909190565b50505f9160029190565b600181111561061157806001600160801b8210156143f9575b61439f61439561438b61438161437761436d61435c6143a69760046143ab9a600160401b8110156143ec575b6401000000008110156143df575b620100008110156143d2575b6101008110156143c5575b60108110156143b8575b10156143b0575b60030260011c90565b614366818b613e78565b0160011c90565b614366818a613e78565b6143668189613e78565b6143668188613e78565b6143668187613e78565b6143668186613e78565b8093613e78565b821190565b900390565b60011b614353565b60041c9160021b9161434c565b60081c9160041b91614342565b60101c9160081b91614337565b60201c9160101b9161432b565b60401c9160201b9161431d565b50506143ab6143a661439f61439561438b61438161437761436d61435c6144208a60801c90565b9850600160401b97506142f19650505050505050565b905b82811061444457505090565b90918082169080831860011c820180921161258357600c5f527fdf6966c971051c3d54ec59162606531493a51404a002842f56009d7e5cf4a8c782015465ffffffffffff908116908516101561449d5750915b90614438565b9291506144a990613bc8565b90614497565b604051906144bc82610886565b5f6020838281520152565b91908260409103126104e2576040516144df81610886565b6020808294805184520151910152565b906040828203126104e257610611916144c7565b906020909392936040835263ffffffff81511660408401528181015160608401526080614557614541604084015160a08488015260e08701906105dc565b6060840151868203603f190160a08801526105dc565b910151151560c08401526001600160a01b03909416910152565b6145d0926040926145806144af565b5061458a83613187565b6145a16145956108f3565b63ffffffff9095168552565b60208401528383015260608201525f6080820152815180938192631bb8518b60e31b8352309060048401614503565b03817f00000000000000000000000000000000000000000000000000000000000000006001600160a01b03165afa908115610da4575f9161460f575090565b610611915060403d604011614631575b61462981836108c1565b8101906144ef565b503d61461f565b60405190614645826108a6565b815f81525f602082015260406146596144af565b910152565b6080818303126104e25760405191614675836108a6565b8151835260208201516001600160401b03811681036104e257602084015261469f916040016144c7565b604082015290565b6147106080949261472c96946146bb614638565b5060206146c88651614b91565b950191825180614794575b506146dd85613187565b92511515926146f96146ed6108f3565b63ffffffff9097168752565b602086015260408501526060840152151585830152565b6040518095819482936302637a4560e41b845260048401614503565b03917f00000000000000000000000000000000000000000000000000000000000000006001600160a01b03165af1908115610da4575f9161476b575090565b610611915060803d60801161478d575b61478581836108c1565b81019061465e565b503d61477b565b61479d90614bae565b5f6146d3565b63ffffffff81116147b75763ffffffff1690565b6306dfcc6560e41b5f52602060045260245260445ffd5b60ff81146148145760ff811690601f821161480557604051916147f26040846108c1565b6020808452838101919036833783525290565b632cd44ac360e21b5f5260045ffd5b5060405161061181614826815f61266e565b03826108c1565b60ff81146148515760ff811690601f821161480557604051916147f26040846108c1565b506040516106118161482681600161266e565b908154600160401b8110156108a15760018101808455811015612aa4576108f1925f5260205f2001906148b465ffffffffffff825116839065ffffffffffff1665ffffffffffff19825416179055565b60200151815465ffffffffffff1660309190911b65ffffffffffff1916179055565b600c54919291801561498d57612a0b6148ee9161283c565b90815461490a6149038265ffffffffffff1690565b9160301c90565b9265ffffffffffff80841692169180831161497e578692036149485761494492509065ffffffffffff82549181199060301b169116179055565b9190565b5050614944906149676149596108e2565b65ffffffffffff9092168252565b6001600160d01b03851660208201525b600c614864565b632520601d60e01b5f5260045ffd5b506149b19061499d6149596108e2565b6001600160d01b0384166020820152614977565b5f9190565b6007549094919391926001600160a01b0390911690813b156104e2575f93614a096040519687958694859463e38335e560e01b86526bffffffffffffffffffffffff193060601b16189260048601613f90565b039134905af18015610da457614a2b575b505f90815260086020526040812055565b80614a375f80936108c1565b8003126104e2575f614a1a565b805f52600b60205260405f20905f52600460205265ffffffffffff60405f205460a01c1660405190632394e7a360e21b825280600483015260208260248160018060a01b037f0000000000000000000000000000000000000000000000000000000000000000165afa918215610da4575f92614af4575b50614ac590612981565b9081810291818304149015171561258357614aef9060649004916002600182015491015490613be6565b101590565b614ac5919250614b129060203d602011610dd157610dc381836108c1565b9190614abb565b91906fa2a8918ca85bafe22016d0b997e4df60600160ff1b038411614b86579160209360809260ff5f9560405194855216868401526040830152606082015282805260015afa15610da4575f516001600160a01b03811615614b7c57905f905f90565b505f906001905f90565b5050505f9160039190565b804710614b9b5790565b476304fb820960e51b5f5260045260245ffd5b60405163393f876560e21b81527f00000000000000000000000000000000000000000000000000000000000000006001600160a01b03169190602081600481865afa908115610da4575f91614c29575b506001600160a01b0316918215614c1a576108f1923390614c64565b6329b99a9560e11b5f5260045ffd5b90506020813d602011614c5c575b81614c44602093836108c1565b810103126104e25751614c568161072c565b5f614bfe565b3d9150614c37565b6040516323b872dd60e01b60208083019182526001600160a01b039485166024840152949093166044820152606480820195909552938452925f9190614cab6084826108c1565b519082855af1156126f9575f513d614cf257506001600160a01b0381163b155b614cd25750565b635274afe760e01b5f9081526001600160a01b0391909116600452602490fd5b60011415614ccb56fea2646970667358221220e613ec2481ba18f548258155083df43fb2105cb30ca827cddd2e73a916f9057d64736f6c634300081c00330553476bf02ef2726e8ce5ced78d63e26e602e4a2257b1f559418e24b4633997",
  "linkReferences": {},
  "deployedLinkReferences": {}
}