{
  "_format": "hh-sol-artifact-1",
  "contractName": "SummerToken",
  "sourceName": "src/contracts/SummerToken.sol",
  "abi": [
    {
      "inputs": [
        {
          "components": [
            {
              "internalType": "string",
              "name": "name",
              "type": "string"
            },
            {
              "internalType": "string",
              "name": "symbol",
              "type": "string"
            },
            {
              "internalType": "address",
              "name": "lzEndpoint",
              "type": "address"
            },
            {
              "internalType": "address",
              "name": "owner",
              "type": "address"
            },
            {
              "internalType": "address",
              "name": "accessManager",
              "type": "address"
            },
            {
              "internalType": "uint40",
              "name": "initialDecayFreeWindow",
              "type": "uint40"
            },
            {
              "internalType": "uint256",
              "name": "initialDecayRate",
              "type": "uint256"
            },
            {
              "internalType": "enum VotingDecayLibrary.DecayFunction",
              "name": "initialDecayFunction",
              "type": "uint8"
            },
            {
              "internalType": "uint256",
              "name": "transferEnableDate",
              "type": "uint256"
            }
          ],
          "internalType": "struct ISummerToken.TokenParams",
          "name": "params",
          "type": "tuple"
        }
      ],
      "stateMutability": "nonpayable",
      "type": "constructor"
    },
    {
      "inputs": [],
      "name": "AccountNotInitialized",
      "type": "error"
    },
    {
      "inputs": [
        {
          "internalType": "address",
          "name": "caller",
          "type": "address"
        }
      ],
      "name": "CallerIsNotAdmin",
      "type": "error"
    },
    {
      "inputs": [
        {
          "internalType": "address",
          "name": "caller",
          "type": "address"
        }
      ],
      "name": "CallerIsNotAuthorized",
      "type": "error"
    },
    {
      "inputs": [
        {
          "internalType": "address",
          "name": "caller",
          "type": "address"
        }
      ],
      "name": "CallerIsNotAuthorizedToBoard",
      "type": "error"
    },
    {
      "inputs": [
        {
          "internalType": "address",
          "name": "caller",
          "type": "address"
        }
      ],
      "name": "CallerIsNotCommander",
      "type": "error"
    },
    {
      "inputs": [
        {
          "internalType": "address",
          "name": "caller",
          "type": "address"
        },
        {
          "internalType": "bytes32",
          "name": "role",
          "type": "bytes32"
        }
      ],
      "name": "CallerIsNotContractSpecificRole",
      "type": "error"
    },
    {
      "inputs": [
        {
          "internalType": "address",
          "name": "caller",
          "type": "address"
        }
      ],
      "name": "CallerIsNotCurator",
      "type": "error"
    },
    {
      "inputs": [
        {
          "internalType": "address",
          "name": "caller",
          "type": "address"
        }
      ],
      "name": "CallerIsNotDecayController",
      "type": "error"
    },
    {
      "inputs": [
        {
          "internalType": "address",
          "name": "caller",
          "type": "address"
        }
      ],
      "name": "CallerIsNotDecayManager",
      "type": "error"
    },
    {
      "inputs": [
        {
          "internalType": "address",
          "name": "caller",
          "type": "address"
        }
      ],
      "name": "CallerIsNotGovernor",
      "type": "error"
    },
    {
      "inputs": [
        {
          "internalType": "address",
          "name": "caller",
          "type": "address"
        }
      ],
      "name": "CallerIsNotGuardian",
      "type": "error"
    },
    {
      "inputs": [
        {
          "internalType": "address",
          "name": "caller",
          "type": "address"
        }
      ],
      "name": "CallerIsNotGuardianOrGovernor",
      "type": "error"
    },
    {
      "inputs": [
        {
          "internalType": "address",
          "name": "caller",
          "type": "address"
        }
      ],
      "name": "CallerIsNotKeeper",
      "type": "error"
    },
    {
      "inputs": [
        {
          "internalType": "address",
          "name": "caller",
          "type": "address"
        }
      ],
      "name": "CallerIsNotRaft",
      "type": "error"
    },
    {
      "inputs": [
        {
          "internalType": "address",
          "name": "caller",
          "type": "address"
        }
      ],
      "name": "CallerIsNotRaftOrCommander",
      "type": "error"
    },
    {
      "inputs": [
        {
          "internalType": "address",
          "name": "caller",
          "type": "address"
        }
      ],
      "name": "CallerIsNotSuperKeeper",
      "type": "error"
    },
    {
      "inputs": [],
      "name": "CheckpointUnorderedInsertion",
      "type": "error"
    },
    {
      "inputs": [
        {
          "internalType": "address",
          "name": "caller",
          "type": "address"
        }
      ],
      "name": "DirectGrantIsDisabled",
      "type": "error"
    },
    {
      "inputs": [
        {
          "internalType": "address",
          "name": "caller",
          "type": "address"
        }
      ],
      "name": "DirectRevokeIsDisabled",
      "type": "error"
    },
    {
      "inputs": [],
      "name": "ECDSAInvalidSignature",
      "type": "error"
    },
    {
      "inputs": [
        {
          "internalType": "uint256",
          "name": "length",
          "type": "uint256"
        }
      ],
      "name": "ECDSAInvalidSignatureLength",
      "type": "error"
    },
    {
      "inputs": [
        {
          "internalType": "bytes32",
          "name": "s",
          "type": "bytes32"
        }
      ],
      "name": "ECDSAInvalidSignatureS",
      "type": "error"
    },
    {
      "inputs": [
        {
          "internalType": "uint256",
          "name": "increasedSupply",
          "type": "uint256"
        },
        {
          "internalType": "uint256",
          "name": "cap",
          "type": "uint256"
        }
      ],
      "name": "ERC20ExceededSafeSupply",
      "type": "error"
    },
    {
      "inputs": [
        {
          "internalType": "address",
          "name": "spender",
          "type": "address"
        },
        {
          "internalType": "uint256",
          "name": "allowance",
          "type": "uint256"
        },
        {
          "internalType": "uint256",
          "name": "needed",
          "type": "uint256"
        }
      ],
      "name": "ERC20InsufficientAllowance",
      "type": "error"
    },
    {
      "inputs": [
        {
          "internalType": "address",
          "name": "sender",
          "type": "address"
        },
        {
          "internalType": "uint256",
          "name": "balance",
          "type": "uint256"
        },
        {
          "internalType": "uint256",
          "name": "needed",
          "type": "uint256"
        }
      ],
      "name": "ERC20InsufficientBalance",
      "type": "error"
    },
    {
      "inputs": [
        {
          "internalType": "address",
          "name": "approver",
          "type": "address"
        }
      ],
      "name": "ERC20InvalidApprover",
      "type": "error"
    },
    {
      "inputs": [
        {
          "internalType": "address",
          "name": "receiver",
          "type": "address"
        }
      ],
      "name": "ERC20InvalidReceiver",
      "type": "error"
    },
    {
      "inputs": [
        {
          "internalType": "address",
          "name": "sender",
          "type": "address"
        }
      ],
      "name": "ERC20InvalidSender",
      "type": "error"
    },
    {
      "inputs": [
        {
          "internalType": "address",
          "name": "spender",
          "type": "address"
        }
      ],
      "name": "ERC20InvalidSpender",
      "type": "error"
    },
    {
      "inputs": [
        {
          "internalType": "uint256",
          "name": "deadline",
          "type": "uint256"
        }
      ],
      "name": "ERC2612ExpiredSignature",
      "type": "error"
    },
    {
      "inputs": [
        {
          "internalType": "address",
          "name": "signer",
          "type": "address"
        },
        {
          "internalType": "address",
          "name": "owner",
          "type": "address"
        }
      ],
      "name": "ERC2612InvalidSigner",
      "type": "error"
    },
    {
      "inputs": [
        {
          "internalType": "uint256",
          "name": "timepoint",
          "type": "uint256"
        },
        {
          "internalType": "uint48",
          "name": "clock",
          "type": "uint48"
        }
      ],
      "name": "ERC5805FutureLookup",
      "type": "error"
    },
    {
      "inputs": [],
      "name": "ERC6372InconsistentClock",
      "type": "error"
    },
    {
      "inputs": [
        {
          "internalType": "address",
          "name": "invalidAddress",
          "type": "address"
        }
      ],
      "name": "InvalidAccessManagerAddress",
      "type": "error"
    },
    {
      "inputs": [
        {
          "internalType": "address",
          "name": "account",
          "type": "address"
        },
        {
          "internalType": "uint256",
          "name": "currentNonce",
          "type": "uint256"
        }
      ],
      "name": "InvalidAccountNonce",
      "type": "error"
    },
    {
      "inputs": [],
      "name": "InvalidDecayRate",
      "type": "error"
    },
    {
      "inputs": [],
      "name": "InvalidDecayType",
      "type": "error"
    },
    {
      "inputs": [],
      "name": "InvalidDelegate",
      "type": "error"
    },
    {
      "inputs": [],
      "name": "InvalidEndpointCall",
      "type": "error"
    },
    {
      "inputs": [],
      "name": "InvalidLocalDecimals",
      "type": "error"
    },
    {
      "inputs": [
        {
          "internalType": "bytes",
          "name": "options",
          "type": "bytes"
        }
      ],
      "name": "InvalidOptions",
      "type": "error"
    },
    {
      "inputs": [],
      "name": "InvalidShortString",
      "type": "error"
    },
    {
      "inputs": [
        {
          "internalType": "enum ISummerVestingWallet.VestingType",
          "name": "invalidType",
          "type": "uint8"
        }
      ],
      "name": "InvalidVestingType",
      "type": "error"
    },
    {
      "inputs": [],
      "name": "LzTokenUnavailable",
      "type": "error"
    },
    {
      "inputs": [
        {
          "internalType": "uint32",
          "name": "eid",
          "type": "uint32"
        }
      ],
      "name": "NoPeer",
      "type": "error"
    },
    {
      "inputs": [
        {
          "internalType": "uint256",
          "name": "msgValue",
          "type": "uint256"
        }
      ],
      "name": "NotEnoughNative",
      "type": "error"
    },
    {
      "inputs": [
        {
          "internalType": "address",
          "name": "addr",
          "type": "address"
        }
      ],
      "name": "OnlyEndpoint",
      "type": "error"
    },
    {
      "inputs": [
        {
          "internalType": "uint32",
          "name": "eid",
          "type": "uint32"
        },
        {
          "internalType": "bytes32",
          "name": "sender",
          "type": "bytes32"
        }
      ],
      "name": "OnlyPeer",
      "type": "error"
    },
    {
      "inputs": [],
      "name": "OnlySelf",
      "type": "error"
    },
    {
      "inputs": [
        {
          "internalType": "address",
          "name": "owner",
          "type": "address"
        }
      ],
      "name": "OwnableInvalidOwner",
      "type": "error"
    },
    {
      "inputs": [
        {
          "internalType": "address",
          "name": "account",
          "type": "address"
        }
      ],
      "name": "OwnableUnauthorizedAccount",
      "type": "error"
    },
    {
      "inputs": [
        {
          "internalType": "uint256",
          "name": "x",
          "type": "uint256"
        },
        {
          "internalType": "uint256",
          "name": "y",
          "type": "uint256"
        }
      ],
      "name": "PRBMath_MulDiv18_Overflow",
      "type": "error"
    },
    {
      "inputs": [
        {
          "internalType": "uint256",
          "name": "x",
          "type": "uint256"
        },
        {
          "internalType": "uint256",
          "name": "y",
          "type": "uint256"
        },
        {
          "internalType": "uint256",
          "name": "denominator",
          "type": "uint256"
        }
      ],
      "name": "PRBMath_MulDiv_Overflow",
      "type": "error"
    },
    {
      "inputs": [
        {
          "internalType": "uint8",
          "name": "bits",
          "type": "uint8"
        },
        {
          "internalType": "uint256",
          "name": "value",
          "type": "uint256"
        }
      ],
      "name": "SafeCastOverflowedUintDowncast",
      "type": "error"
    },
    {
      "inputs": [
        {
          "internalType": "address",
          "name": "token",
          "type": "address"
        }
      ],
      "name": "SafeERC20FailedOperation",
      "type": "error"
    },
    {
      "inputs": [
        {
          "internalType": "bytes",
          "name": "result",
          "type": "bytes"
        }
      ],
      "name": "SimulationResult",
      "type": "error"
    },
    {
      "inputs": [
        {
          "internalType": "uint256",
          "name": "amountLD",
          "type": "uint256"
        },
        {
          "internalType": "uint256",
          "name": "minAmountLD",
          "type": "uint256"
        }
      ],
      "name": "SlippageExceeded",
      "type": "error"
    },
    {
      "inputs": [
        {
          "internalType": "string",
          "name": "str",
          "type": "string"
        }
      ],
      "name": "StringTooLong",
      "type": "error"
    },
    {
      "inputs": [],
      "name": "TransferNotAllowed",
      "type": "error"
    },
    {
      "inputs": [],
      "name": "TransfersAlreadyEnabled",
      "type": "error"
    },
    {
      "inputs": [],
      "name": "TransfersCannotBeEnabledYet",
      "type": "error"
    },
    {
      "inputs": [
        {
          "internalType": "uint256",
          "name": "expiry",
          "type": "uint256"
        }
      ],
      "name": "VotesExpiredSignature",
      "type": "error"
    },
    {
      "anonymous": false,
      "inputs": [
        {
          "indexed": false,
          "internalType": "address",
          "name": "account",
          "type": "address"
        }
      ],
      "name": "AccountInitialized",
      "type": "event"
    },
    {
      "anonymous": false,
      "inputs": [
        {
          "indexed": true,
          "internalType": "address",
          "name": "account",
          "type": "address"
        }
      ],
      "name": "AddressRemovedFromWhitelist",
      "type": "event"
    },
    {
      "anonymous": false,
      "inputs": [
        {
          "indexed": true,
          "internalType": "address",
          "name": "account",
          "type": "address"
        }
      ],
      "name": "AddressWhitelisted",
      "type": "event"
    },
    {
      "anonymous": false,
      "inputs": [
        {
          "indexed": true,
          "internalType": "address",
          "name": "owner",
          "type": "address"
        },
        {
          "indexed": true,
          "internalType": "address",
          "name": "spender",
          "type": "address"
        },
        {
          "indexed": false,
          "internalType": "uint256",
          "name": "value",
          "type": "uint256"
        }
      ],
      "name": "Approval",
      "type": "event"
    },
    {
      "anonymous": false,
      "inputs": [
        {
          "indexed": false,
          "internalType": "uint40",
          "name": "newWindow",
          "type": "uint40"
        }
      ],
      "name": "DecayFreeWindowSet",
      "type": "event"
    },
    {
      "anonymous": false,
      "inputs": [
        {
          "indexed": false,
          "internalType": "uint8",
          "name": "newFunction",
          "type": "uint8"
        }
      ],
      "name": "DecayFunctionSet",
      "type": "event"
    },
    {
      "anonymous": false,
      "inputs": [
        {
          "indexed": false,
          "internalType": "uint256",
          "name": "newRate",
          "type": "uint256"
        }
      ],
      "name": "DecayRateSet",
      "type": "event"
    },
    {
      "anonymous": false,
      "inputs": [
        {
          "indexed": false,
          "internalType": "address",
          "name": "account",
          "type": "address"
        },
        {
          "indexed": false,
          "internalType": "uint256",
          "name": "newDecayFactor",
          "type": "uint256"
        }
      ],
      "name": "DecayUpdated",
      "type": "event"
    },
    {
      "anonymous": false,
      "inputs": [
        {
          "indexed": true,
          "internalType": "address",
          "name": "delegator",
          "type": "address"
        },
        {
          "indexed": true,
          "internalType": "address",
          "name": "fromDelegate",
          "type": "address"
        },
        {
          "indexed": true,
          "internalType": "address",
          "name": "toDelegate",
          "type": "address"
        }
      ],
      "name": "DelegateChanged",
      "type": "event"
    },
    {
      "anonymous": false,
      "inputs": [
        {
          "indexed": true,
          "internalType": "address",
          "name": "delegate",
          "type": "address"
        },
        {
          "indexed": false,
          "internalType": "uint256",
          "name": "previousVotes",
          "type": "uint256"
        },
        {
          "indexed": false,
          "internalType": "uint256",
          "name": "newVotes",
          "type": "uint256"
        }
      ],
      "name": "DelegateVotesChanged",
      "type": "event"
    },
    {
      "anonymous": false,
      "inputs": [],
      "name": "EIP712DomainChanged",
      "type": "event"
    },
    {
      "anonymous": false,
      "inputs": [
        {
          "components": [
            {
              "internalType": "uint32",
              "name": "eid",
              "type": "uint32"
            },
            {
              "internalType": "uint16",
              "name": "msgType",
              "type": "uint16"
            },
            {
              "internalType": "bytes",
              "name": "options",
              "type": "bytes"
            }
          ],
          "indexed": false,
          "internalType": "struct EnforcedOptionParam[]",
          "name": "_enforcedOptions",
          "type": "tuple[]"
        }
      ],
      "name": "EnforcedOptionSet",
      "type": "event"
    },
    {
      "anonymous": false,
      "inputs": [
        {
          "indexed": false,
          "internalType": "address",
          "name": "inspector",
          "type": "address"
        }
      ],
      "name": "MsgInspectorSet",
      "type": "event"
    },
    {
      "anonymous": false,
      "inputs": [
        {
          "indexed": true,
          "internalType": "bytes32",
          "name": "guid",
          "type": "bytes32"
        },
        {
          "indexed": false,
          "internalType": "uint32",
          "name": "srcEid",
          "type": "uint32"
        },
        {
          "indexed": true,
          "internalType": "address",
          "name": "toAddress",
          "type": "address"
        },
        {
          "indexed": false,
          "internalType": "uint256",
          "name": "amountReceivedLD",
          "type": "uint256"
        }
      ],
      "name": "OFTReceived",
      "type": "event"
    },
    {
      "anonymous": false,
      "inputs": [
        {
          "indexed": true,
          "internalType": "bytes32",
          "name": "guid",
          "type": "bytes32"
        },
        {
          "indexed": false,
          "internalType": "uint32",
          "name": "dstEid",
          "type": "uint32"
        },
        {
          "indexed": true,
          "internalType": "address",
          "name": "fromAddress",
          "type": "address"
        },
        {
          "indexed": false,
          "internalType": "uint256",
          "name": "amountSentLD",
          "type": "uint256"
        },
        {
          "indexed": false,
          "internalType": "uint256",
          "name": "amountReceivedLD",
          "type": "uint256"
        }
      ],
      "name": "OFTSent",
      "type": "event"
    },
    {
      "anonymous": false,
      "inputs": [
        {
          "indexed": true,
          "internalType": "address",
          "name": "previousOwner",
          "type": "address"
        },
        {
          "indexed": true,
          "internalType": "address",
          "name": "newOwner",
          "type": "address"
        }
      ],
      "name": "OwnershipTransferred",
      "type": "event"
    },
    {
      "anonymous": false,
      "inputs": [
        {
          "indexed": false,
          "internalType": "uint32",
          "name": "eid",
          "type": "uint32"
        },
        {
          "indexed": false,
          "internalType": "bytes32",
          "name": "peer",
          "type": "bytes32"
        }
      ],
      "name": "PeerSet",
      "type": "event"
    },
    {
      "anonymous": false,
      "inputs": [
        {
          "indexed": false,
          "internalType": "address",
          "name": "preCrimeAddress",
          "type": "address"
        }
      ],
      "name": "PreCrimeSet",
      "type": "event"
    },
    {
      "anonymous": false,
      "inputs": [
        {
          "indexed": true,
          "internalType": "address",
          "name": "from",
          "type": "address"
        },
        {
          "indexed": true,
          "internalType": "address",
          "name": "to",
          "type": "address"
        },
        {
          "indexed": false,
          "internalType": "uint256",
          "name": "value",
          "type": "uint256"
        }
      ],
      "name": "Transfer",
      "type": "event"
    },
    {
      "anonymous": false,
      "inputs": [],
      "name": "TransfersEnabled",
      "type": "event"
    },
    {
      "inputs": [],
      "name": "CLOCK_MODE",
      "outputs": [
        {
          "internalType": "string",
          "name": "",
          "type": "string"
        }
      ],
      "stateMutability": "pure",
      "type": "function"
    },
    {
      "inputs": [],
      "name": "DOMAIN_SEPARATOR",
      "outputs": [
        {
          "internalType": "bytes32",
          "name": "",
          "type": "bytes32"
        }
      ],
      "stateMutability": "view",
      "type": "function"
    },
    {
      "inputs": [],
      "name": "SEND",
      "outputs": [
        {
          "internalType": "uint16",
          "name": "",
          "type": "uint16"
        }
      ],
      "stateMutability": "view",
      "type": "function"
    },
    {
      "inputs": [],
      "name": "SEND_AND_CALL",
      "outputs": [
        {
          "internalType": "uint16",
          "name": "",
          "type": "uint16"
        }
      ],
      "stateMutability": "view",
      "type": "function"
    },
    {
      "inputs": [
        {
          "internalType": "address",
          "name": "account",
          "type": "address"
        }
      ],
      "name": "addToWhitelist",
      "outputs": [],
      "stateMutability": "nonpayable",
      "type": "function"
    },
    {
      "inputs": [
        {
          "components": [
            {
              "internalType": "uint32",
              "name": "srcEid",
              "type": "uint32"
            },
            {
              "internalType": "bytes32",
              "name": "sender",
              "type": "bytes32"
            },
            {
              "internalType": "uint64",
              "name": "nonce",
              "type": "uint64"
            }
          ],
          "internalType": "struct Origin",
          "name": "origin",
          "type": "tuple"
        }
      ],
      "name": "allowInitializePath",
      "outputs": [
        {
          "internalType": "bool",
          "name": "",
          "type": "bool"
        }
      ],
      "stateMutability": "view",
      "type": "function"
    },
    {
      "inputs": [
        {
          "internalType": "address",
          "name": "owner",
          "type": "address"
        },
        {
          "internalType": "address",
          "name": "spender",
          "type": "address"
        }
      ],
      "name": "allowance",
      "outputs": [
        {
          "internalType": "uint256",
          "name": "",
          "type": "uint256"
        }
      ],
      "stateMutability": "view",
      "type": "function"
    },
    {
      "inputs": [],
      "name": "approvalRequired",
      "outputs": [
        {
          "internalType": "bool",
          "name": "",
          "type": "bool"
        }
      ],
      "stateMutability": "pure",
      "type": "function"
    },
    {
      "inputs": [
        {
          "internalType": "address",
          "name": "spender",
          "type": "address"
        },
        {
          "internalType": "uint256",
          "name": "value",
          "type": "uint256"
        }
      ],
      "name": "approve",
      "outputs": [
        {
          "internalType": "bool",
          "name": "",
          "type": "bool"
        }
      ],
      "stateMutability": "nonpayable",
      "type": "function"
    },
    {
      "inputs": [
        {
          "internalType": "address",
          "name": "account",
          "type": "address"
        }
      ],
      "name": "balanceOf",
      "outputs": [
        {
          "internalType": "uint256",
          "name": "",
          "type": "uint256"
        }
      ],
      "stateMutability": "view",
      "type": "function"
    },
    {
      "inputs": [
        {
          "internalType": "uint256",
          "name": "value",
          "type": "uint256"
        }
      ],
      "name": "burn",
      "outputs": [],
      "stateMutability": "nonpayable",
      "type": "function"
    },
    {
      "inputs": [
        {
          "internalType": "address",
          "name": "account",
          "type": "address"
        },
        {
          "internalType": "uint256",
          "name": "value",
          "type": "uint256"
        }
      ],
      "name": "burnFrom",
      "outputs": [],
      "stateMutability": "nonpayable",
      "type": "function"
    },
    {
      "inputs": [
        {
          "internalType": "address",
          "name": "account",
          "type": "address"
        },
        {
          "internalType": "uint32",
          "name": "pos",
          "type": "uint32"
        }
      ],
      "name": "checkpoints",
      "outputs": [
        {
          "components": [
            {
              "internalType": "uint48",
              "name": "_key",
              "type": "uint48"
            },
            {
              "internalType": "uint208",
              "name": "_value",
              "type": "uint208"
            }
          ],
          "internalType": "struct Checkpoints.Checkpoint208",
          "name": "",
          "type": "tuple"
        }
      ],
      "stateMutability": "view",
      "type": "function"
    },
    {
      "inputs": [],
      "name": "clock",
      "outputs": [
        {
          "internalType": "uint48",
          "name": "",
          "type": "uint48"
        }
      ],
      "stateMutability": "view",
      "type": "function"
    },
    {
      "inputs": [
        {
          "internalType": "uint32",
          "name": "_eid",
          "type": "uint32"
        },
        {
          "internalType": "uint16",
          "name": "_msgType",
          "type": "uint16"
        },
        {
          "internalType": "bytes",
          "name": "_extraOptions",
          "type": "bytes"
        }
      ],
      "name": "combineOptions",
      "outputs": [
        {
          "internalType": "bytes",
          "name": "",
          "type": "bytes"
        }
      ],
      "stateMutability": "view",
      "type": "function"
    },
    {
      "inputs": [],
      "name": "decimalConversionRate",
      "outputs": [
        {
          "internalType": "uint256",
          "name": "",
          "type": "uint256"
        }
      ],
      "stateMutability": "view",
      "type": "function"
    },
    {
      "inputs": [],
      "name": "decimals",
      "outputs": [
        {
          "internalType": "uint8",
          "name": "",
          "type": "uint8"
        }
      ],
      "stateMutability": "view",
      "type": "function"
    },
    {
      "inputs": [
        {
          "internalType": "address",
          "name": "delegatee",
          "type": "address"
        }
      ],
      "name": "delegate",
      "outputs": [],
      "stateMutability": "nonpayable",
      "type": "function"
    },
    {
      "inputs": [
        {
          "internalType": "address",
          "name": "delegatee",
          "type": "address"
        },
        {
          "internalType": "uint256",
          "name": "nonce",
          "type": "uint256"
        },
        {
          "internalType": "uint256",
          "name": "expiry",
          "type": "uint256"
        },
        {
          "internalType": "uint8",
          "name": "v",
          "type": "uint8"
        },
        {
          "internalType": "bytes32",
          "name": "r",
          "type": "bytes32"
        },
        {
          "internalType": "bytes32",
          "name": "s",
          "type": "bytes32"
        }
      ],
      "name": "delegateBySig",
      "outputs": [],
      "stateMutability": "nonpayable",
      "type": "function"
    },
    {
      "inputs": [
        {
          "internalType": "address",
          "name": "account",
          "type": "address"
        }
      ],
      "name": "delegates",
      "outputs": [
        {
          "internalType": "address",
          "name": "",
          "type": "address"
        }
      ],
      "stateMutability": "view",
      "type": "function"
    },
    {
      "inputs": [],
      "name": "eip712Domain",
      "outputs": [
        {
          "internalType": "bytes1",
          "name": "fields",
          "type": "bytes1"
        },
        {
          "internalType": "string",
          "name": "name",
          "type": "string"
        },
        {
          "internalType": "string",
          "name": "version",
          "type": "string"
        },
        {
          "internalType": "uint256",
          "name": "chainId",
          "type": "uint256"
        },
        {
          "internalType": "address",
          "name": "verifyingContract",
          "type": "address"
        },
        {
          "internalType": "bytes32",
          "name": "salt",
          "type": "bytes32"
        },
        {
          "internalType": "uint256[]",
          "name": "extensions",
          "type": "uint256[]"
        }
      ],
      "stateMutability": "view",
      "type": "function"
    },
    {
      "inputs": [],
      "name": "enableTransfers",
      "outputs": [],
      "stateMutability": "nonpayable",
      "type": "function"
    },
    {
      "inputs": [],
      "name": "endpoint",
      "outputs": [
        {
          "internalType": "contract ILayerZeroEndpointV2",
          "name": "",
          "type": "address"
        }
      ],
      "stateMutability": "view",
      "type": "function"
    },
    {
      "inputs": [
        {
          "internalType": "uint32",
          "name": "eid",
          "type": "uint32"
        },
        {
          "internalType": "uint16",
          "name": "msgType",
          "type": "uint16"
        }
      ],
      "name": "enforcedOptions",
      "outputs": [
        {
          "internalType": "bytes",
          "name": "enforcedOption",
          "type": "bytes"
        }
      ],
      "stateMutability": "view",
      "type": "function"
    },
    {
      "inputs": [
        {
          "internalType": "enum ContractSpecificRoles",
          "name": "roleName",
          "type": "uint8"
        },
        {
          "internalType": "address",
          "name": "roleTargetContract",
          "type": "address"
        }
      ],
      "name": "generateRole",
      "outputs": [
        {
          "internalType": "bytes32",
          "name": "",
          "type": "bytes32"
        }
      ],
      "stateMutability": "pure",
      "type": "function"
    },
    {
      "inputs": [
        {
          "internalType": "address",
          "name": "account",
          "type": "address"
        }
      ],
      "name": "getDecayFactor",
      "outputs": [
        {
          "internalType": "uint256",
          "name": "",
          "type": "uint256"
        }
      ],
      "stateMutability": "view",
      "type": "function"
    },
    {
      "inputs": [],
      "name": "getDecayFreeWindow",
      "outputs": [
        {
          "internalType": "uint40",
          "name": "",
          "type": "uint40"
        }
      ],
      "stateMutability": "view",
      "type": "function"
    },
    {
      "inputs": [
        {
          "internalType": "uint256",
          "name": "timepoint",
          "type": "uint256"
        }
      ],
      "name": "getPastTotalSupply",
      "outputs": [
        {
          "internalType": "uint256",
          "name": "",
          "type": "uint256"
        }
      ],
      "stateMutability": "view",
      "type": "function"
    },
    {
      "inputs": [
        {
          "internalType": "address",
          "name": "account",
          "type": "address"
        },
        {
          "internalType": "uint256",
          "name": "timepoint",
          "type": "uint256"
        }
      ],
      "name": "getPastVotes",
      "outputs": [
        {
          "internalType": "uint256",
          "name": "",
          "type": "uint256"
        }
      ],
      "stateMutability": "view",
      "type": "function"
    },
    {
      "inputs": [
        {
          "internalType": "address",
          "name": "account",
          "type": "address"
        }
      ],
      "name": "getVotes",
      "outputs": [
        {
          "internalType": "uint256",
          "name": "",
          "type": "uint256"
        }
      ],
      "stateMutability": "view",
      "type": "function"
    },
    {
      "inputs": [
        {
          "components": [
            {
              "internalType": "uint32",
              "name": "srcEid",
              "type": "uint32"
            },
            {
              "internalType": "bytes32",
              "name": "sender",
              "type": "bytes32"
            },
            {
              "internalType": "uint64",
              "name": "nonce",
              "type": "uint64"
            }
          ],
          "internalType": "struct Origin",
          "name": "",
          "type": "tuple"
        },
        {
          "internalType": "bytes",
          "name": "",
          "type": "bytes"
        },
        {
          "internalType": "address",
          "name": "_sender",
          "type": "address"
        }
      ],
      "name": "isComposeMsgSender",
      "outputs": [
        {
          "internalType": "bool",
          "name": "",
          "type": "bool"
        }
      ],
      "stateMutability": "view",
      "type": "function"
    },
    {
      "inputs": [
        {
          "internalType": "uint32",
          "name": "_eid",
          "type": "uint32"
        },
        {
          "internalType": "bytes32",
          "name": "_peer",
          "type": "bytes32"
        }
      ],
      "name": "isPeer",
      "outputs": [
        {
          "internalType": "bool",
          "name": "",
          "type": "bool"
        }
      ],
      "stateMutability": "view",
      "type": "function"
    },
    {
      "inputs": [
        {
          "components": [
            {
              "internalType": "uint32",
              "name": "srcEid",
              "type": "uint32"
            },
            {
              "internalType": "bytes32",
              "name": "sender",
              "type": "bytes32"
            },
            {
              "internalType": "uint64",
              "name": "nonce",
              "type": "uint64"
            }
          ],
          "internalType": "struct Origin",
          "name": "_origin",
          "type": "tuple"
        },
        {
          "internalType": "bytes32",
          "name": "_guid",
          "type": "bytes32"
        },
        {
          "internalType": "bytes",
          "name": "_message",
          "type": "bytes"
        },
        {
          "internalType": "address",
          "name": "_executor",
          "type": "address"
        },
        {
          "internalType": "bytes",
          "name": "_extraData",
          "type": "bytes"
        }
      ],
      "name": "lzReceive",
      "outputs": [],
      "stateMutability": "payable",
      "type": "function"
    },
    {
      "inputs": [
        {
          "components": [
            {
              "components": [
                {
                  "internalType": "uint32",
                  "name": "srcEid",
                  "type": "uint32"
                },
                {
                  "internalType": "bytes32",
                  "name": "sender",
                  "type": "bytes32"
                },
                {
                  "internalType": "uint64",
                  "name": "nonce",
                  "type": "uint64"
                }
              ],
              "internalType": "struct Origin",
              "name": "origin",
              "type": "tuple"
            },
            {
              "internalType": "uint32",
              "name": "dstEid",
              "type": "uint32"
            },
            {
              "internalType": "address",
              "name": "receiver",
              "type": "address"
            },
            {
              "internalType": "bytes32",
              "name": "guid",
              "type": "bytes32"
            },
            {
              "internalType": "uint256",
              "name": "value",
              "type": "uint256"
            },
            {
              "internalType": "address",
              "name": "executor",
              "type": "address"
            },
            {
              "internalType": "bytes",
              "name": "message",
              "type": "bytes"
            },
            {
              "internalType": "bytes",
              "name": "extraData",
              "type": "bytes"
            }
          ],
          "internalType": "struct InboundPacket[]",
          "name": "_packets",
          "type": "tuple[]"
        }
      ],
      "name": "lzReceiveAndRevert",
      "outputs": [],
      "stateMutability": "payable",
      "type": "function"
    },
    {
      "inputs": [
        {
          "components": [
            {
              "internalType": "uint32",
              "name": "srcEid",
              "type": "uint32"
            },
            {
              "internalType": "bytes32",
              "name": "sender",
              "type": "bytes32"
            },
            {
              "internalType": "uint64",
              "name": "nonce",
              "type": "uint64"
            }
          ],
          "internalType": "struct Origin",
          "name": "_origin",
          "type": "tuple"
        },
        {
          "internalType": "bytes32",
          "name": "_guid",
          "type": "bytes32"
        },
        {
          "internalType": "bytes",
          "name": "_message",
          "type": "bytes"
        },
        {
          "internalType": "address",
          "name": "_executor",
          "type": "address"
        },
        {
          "internalType": "bytes",
          "name": "_extraData",
          "type": "bytes"
        }
      ],
      "name": "lzReceiveSimulate",
      "outputs": [],
      "stateMutability": "payable",
      "type": "function"
    },
    {
      "inputs": [
        {
          "internalType": "address",
          "name": "to",
          "type": "address"
        },
        {
          "internalType": "uint256",
          "name": "amount",
          "type": "uint256"
        }
      ],
      "name": "mint",
      "outputs": [],
      "stateMutability": "nonpayable",
      "type": "function"
    },
    {
      "inputs": [],
      "name": "msgInspector",
      "outputs": [
        {
          "internalType": "address",
          "name": "",
          "type": "address"
        }
      ],
      "stateMutability": "view",
      "type": "function"
    },
    {
      "inputs": [],
      "name": "name",
      "outputs": [
        {
          "internalType": "string",
          "name": "",
          "type": "string"
        }
      ],
      "stateMutability": "view",
      "type": "function"
    },
    {
      "inputs": [
        {
          "internalType": "uint32",
          "name": "",
          "type": "uint32"
        },
        {
          "internalType": "bytes32",
          "name": "",
          "type": "bytes32"
        }
      ],
      "name": "nextNonce",
      "outputs": [
        {
          "internalType": "uint64",
          "name": "nonce",
          "type": "uint64"
        }
      ],
      "stateMutability": "view",
      "type": "function"
    },
    {
      "inputs": [
        {
          "internalType": "address",
          "name": "owner",
          "type": "address"
        }
      ],
      "name": "nonces",
      "outputs": [
        {
          "internalType": "uint256",
          "name": "",
          "type": "uint256"
        }
      ],
      "stateMutability": "view",
      "type": "function"
    },
    {
      "inputs": [
        {
          "internalType": "address",
          "name": "account",
          "type": "address"
        }
      ],
      "name": "numCheckpoints",
      "outputs": [
        {
          "internalType": "uint32",
          "name": "",
          "type": "uint32"
        }
      ],
      "stateMutability": "view",
      "type": "function"
    },
    {
      "inputs": [],
      "name": "oApp",
      "outputs": [
        {
          "internalType": "address",
          "name": "",
          "type": "address"
        }
      ],
      "stateMutability": "view",
      "type": "function"
    },
    {
      "inputs": [],
      "name": "oAppVersion",
      "outputs": [
        {
          "internalType": "uint64",
          "name": "senderVersion",
          "type": "uint64"
        },
        {
          "internalType": "uint64",
          "name": "receiverVersion",
          "type": "uint64"
        }
      ],
      "stateMutability": "pure",
      "type": "function"
    },
    {
      "inputs": [],
      "name": "oftVersion",
      "outputs": [
        {
          "internalType": "bytes4",
          "name": "interfaceId",
          "type": "bytes4"
        },
        {
          "internalType": "uint64",
          "name": "version",
          "type": "uint64"
        }
      ],
      "stateMutability": "pure",
      "type": "function"
    },
    {
      "inputs": [],
      "name": "owner",
      "outputs": [
        {
          "internalType": "address",
          "name": "",
          "type": "address"
        }
      ],
      "stateMutability": "view",
      "type": "function"
    },
    {
      "inputs": [
        {
          "internalType": "uint32",
          "name": "eid",
          "type": "uint32"
        }
      ],
      "name": "peers",
      "outputs": [
        {
          "internalType": "bytes32",
          "name": "peer",
          "type": "bytes32"
        }
      ],
      "stateMutability": "view",
      "type": "function"
    },
    {
      "inputs": [
        {
          "internalType": "address",
          "name": "owner",
          "type": "address"
        },
        {
          "internalType": "address",
          "name": "spender",
          "type": "address"
        },
        {
          "internalType": "uint256",
          "name": "value",
          "type": "uint256"
        },
        {
          "internalType": "uint256",
          "name": "deadline",
          "type": "uint256"
        },
        {
          "internalType": "uint8",
          "name": "v",
          "type": "uint8"
        },
        {
          "internalType": "bytes32",
          "name": "r",
          "type": "bytes32"
        },
        {
          "internalType": "bytes32",
          "name": "s",
          "type": "bytes32"
        }
      ],
      "name": "permit",
      "outputs": [],
      "stateMutability": "nonpayable",
      "type": "function"
    },
    {
      "inputs": [],
      "name": "preCrime",
      "outputs": [
        {
          "internalType": "address",
          "name": "",
          "type": "address"
        }
      ],
      "stateMutability": "view",
      "type": "function"
    },
    {
      "inputs": [
        {
          "components": [
            {
              "internalType": "uint32",
              "name": "dstEid",
              "type": "uint32"
            },
            {
              "internalType": "bytes32",
              "name": "to",
              "type": "bytes32"
            },
            {
              "internalType": "uint256",
              "name": "amountLD",
              "type": "uint256"
            },
            {
              "internalType": "uint256",
              "name": "minAmountLD",
              "type": "uint256"
            },
            {
              "internalType": "bytes",
              "name": "extraOptions",
              "type": "bytes"
            },
            {
              "internalType": "bytes",
              "name": "composeMsg",
              "type": "bytes"
            },
            {
              "internalType": "bytes",
              "name": "oftCmd",
              "type": "bytes"
            }
          ],
          "internalType": "struct SendParam",
          "name": "_sendParam",
          "type": "tuple"
        }
      ],
      "name": "quoteOFT",
      "outputs": [
        {
          "components": [
            {
              "internalType": "uint256",
              "name": "minAmountLD",
              "type": "uint256"
            },
            {
              "internalType": "uint256",
              "name": "maxAmountLD",
              "type": "uint256"
            }
          ],
          "internalType": "struct OFTLimit",
          "name": "oftLimit",
          "type": "tuple"
        },
        {
          "components": [
            {
              "internalType": "int256",
              "name": "feeAmountLD",
              "type": "int256"
            },
            {
              "internalType": "string",
              "name": "description",
              "type": "string"
            }
          ],
          "internalType": "struct OFTFeeDetail[]",
          "name": "oftFeeDetails",
          "type": "tuple[]"
        },
        {
          "components": [
            {
              "internalType": "uint256",
              "name": "amountSentLD",
              "type": "uint256"
            },
            {
              "internalType": "uint256",
              "name": "amountReceivedLD",
              "type": "uint256"
            }
          ],
          "internalType": "struct OFTReceipt",
          "name": "oftReceipt",
          "type": "tuple"
        }
      ],
      "stateMutability": "view",
      "type": "function"
    },
    {
      "inputs": [
        {
          "components": [
            {
              "internalType": "uint32",
              "name": "dstEid",
              "type": "uint32"
            },
            {
              "internalType": "bytes32",
              "name": "to",
              "type": "bytes32"
            },
            {
              "internalType": "uint256",
              "name": "amountLD",
              "type": "uint256"
            },
            {
              "internalType": "uint256",
              "name": "minAmountLD",
              "type": "uint256"
            },
            {
              "internalType": "bytes",
              "name": "extraOptions",
              "type": "bytes"
            },
            {
              "internalType": "bytes",
              "name": "composeMsg",
              "type": "bytes"
            },
            {
              "internalType": "bytes",
              "name": "oftCmd",
              "type": "bytes"
            }
          ],
          "internalType": "struct SendParam",
          "name": "_sendParam",
          "type": "tuple"
        },
        {
          "internalType": "bool",
          "name": "_payInLzToken",
          "type": "bool"
        }
      ],
      "name": "quoteSend",
      "outputs": [
        {
          "components": [
            {
              "internalType": "uint256",
              "name": "nativeFee",
              "type": "uint256"
            },
            {
              "internalType": "uint256",
              "name": "lzTokenFee",
              "type": "uint256"
            }
          ],
          "internalType": "struct MessagingFee",
          "name": "msgFee",
          "type": "tuple"
        }
      ],
      "stateMutability": "view",
      "type": "function"
    },
    {
      "inputs": [
        {
          "internalType": "address",
          "name": "account",
          "type": "address"
        }
      ],
      "name": "removeFromWhitelist",
      "outputs": [],
      "stateMutability": "nonpayable",
      "type": "function"
    },
    {
      "inputs": [],
      "name": "renounceOwnership",
      "outputs": [],
      "stateMutability": "nonpayable",
      "type": "function"
    },
    {
      "inputs": [],
      "name": "rewardsManager",
      "outputs": [
        {
          "internalType": "contract GovernanceRewardsManager",
          "name": "",
          "type": "address"
        }
      ],
      "stateMutability": "view",
      "type": "function"
    },
    {
      "inputs": [
        {
          "components": [
            {
              "internalType": "uint32",
              "name": "dstEid",
              "type": "uint32"
            },
            {
              "internalType": "bytes32",
              "name": "to",
              "type": "bytes32"
            },
            {
              "internalType": "uint256",
              "name": "amountLD",
              "type": "uint256"
            },
            {
              "internalType": "uint256",
              "name": "minAmountLD",
              "type": "uint256"
            },
            {
              "internalType": "bytes",
              "name": "extraOptions",
              "type": "bytes"
            },
            {
              "internalType": "bytes",
              "name": "composeMsg",
              "type": "bytes"
            },
            {
              "internalType": "bytes",
              "name": "oftCmd",
              "type": "bytes"
            }
          ],
          "internalType": "struct SendParam",
          "name": "_sendParam",
          "type": "tuple"
        },
        {
          "components": [
            {
              "internalType": "uint256",
              "name": "nativeFee",
              "type": "uint256"
            },
            {
              "internalType": "uint256",
              "name": "lzTokenFee",
              "type": "uint256"
            }
          ],
          "internalType": "struct MessagingFee",
          "name": "_fee",
          "type": "tuple"
        },
        {
          "internalType": "address",
          "name": "_refundAddress",
          "type": "address"
        }
      ],
      "name": "send",
      "outputs": [
        {
          "components": [
            {
              "internalType": "bytes32",
              "name": "guid",
              "type": "bytes32"
            },
            {
              "internalType": "uint64",
              "name": "nonce",
              "type": "uint64"
            },
            {
              "components": [
                {
                  "internalType": "uint256",
                  "name": "nativeFee",
                  "type": "uint256"
                },
                {
                  "internalType": "uint256",
                  "name": "lzTokenFee",
                  "type": "uint256"
                }
              ],
              "internalType": "struct MessagingFee",
              "name": "fee",
              "type": "tuple"
            }
          ],
          "internalType": "struct MessagingReceipt",
          "name": "msgReceipt",
          "type": "tuple"
        },
        {
          "components": [
            {
              "internalType": "uint256",
              "name": "amountSentLD",
              "type": "uint256"
            },
            {
              "internalType": "uint256",
              "name": "amountReceivedLD",
              "type": "uint256"
            }
          ],
          "internalType": "struct OFTReceipt",
          "name": "oftReceipt",
          "type": "tuple"
        }
      ],
      "stateMutability": "payable",
      "type": "function"
    },
    {
      "inputs": [
        {
          "internalType": "uint40",
          "name": "newWindow",
          "type": "uint40"
        }
      ],
      "name": "setDecayFreeWindow",
      "outputs": [],
      "stateMutability": "nonpayable",
      "type": "function"
    },
    {
      "inputs": [
        {
          "internalType": "enum VotingDecayLibrary.DecayFunction",
          "name": "newFunction",
          "type": "uint8"
        }
      ],
      "name": "setDecayFunction",
      "outputs": [],
      "stateMutability": "nonpayable",
      "type": "function"
    },
    {
      "inputs": [
        {
          "internalType": "uint256",
          "name": "newRatePerSecond",
          "type": "uint256"
        }
      ],
      "name": "setDecayRatePerSecond",
      "outputs": [],
      "stateMutability": "nonpayable",
      "type": "function"
    },
    {
      "inputs": [
        {
          "internalType": "address",
          "name": "_delegate",
          "type": "address"
        }
      ],
      "name": "setDelegate",
      "outputs": [],
      "stateMutability": "nonpayable",
      "type": "function"
    },
    {
      "inputs": [
        {
          "components": [
            {
              "internalType": "uint32",
              "name": "eid",
              "type": "uint32"
            },
            {
              "internalType": "uint16",
              "name": "msgType",
              "type": "uint16"
            },
            {
              "internalType": "bytes",
              "name": "options",
              "type": "bytes"
            }
          ],
          "internalType": "struct EnforcedOptionParam[]",
          "name": "_enforcedOptions",
          "type": "tuple[]"
        }
      ],
      "name": "setEnforcedOptions",
      "outputs": [],
      "stateMutability": "nonpayable",
      "type": "function"
    },
    {
      "inputs": [
        {
          "internalType": "address",
          "name": "_msgInspector",
          "type": "address"
        }
      ],
      "name": "setMsgInspector",
      "outputs": [],
      "stateMutability": "nonpayable",
      "type": "function"
    },
    {
      "inputs": [
        {
          "internalType": "uint32",
          "name": "_eid",
          "type": "uint32"
        },
        {
          "internalType": "bytes32",
          "name": "_peer",
          "type": "bytes32"
        }
      ],
      "name": "setPeer",
      "outputs": [],
      "stateMutability": "nonpayable",
      "type": "function"
    },
    {
      "inputs": [
        {
          "internalType": "address",
          "name": "_preCrime",
          "type": "address"
        }
      ],
      "name": "setPreCrime",
      "outputs": [],
      "stateMutability": "nonpayable",
      "type": "function"
    },
    {
      "inputs": [],
      "name": "sharedDecimals",
      "outputs": [
        {
          "internalType": "uint8",
          "name": "",
          "type": "uint8"
        }
      ],
      "stateMutability": "view",
      "type": "function"
    },
    {
      "inputs": [],
      "name": "symbol",
      "outputs": [
        {
          "internalType": "string",
          "name": "",
          "type": "string"
        }
      ],
      "stateMutability": "view",
      "type": "function"
    },
    {
      "inputs": [],
      "name": "token",
      "outputs": [
        {
          "internalType": "address",
          "name": "",
          "type": "address"
        }
      ],
      "stateMutability": "view",
      "type": "function"
    },
    {
      "inputs": [],
      "name": "totalSupply",
      "outputs": [
        {
          "internalType": "uint256",
          "name": "",
          "type": "uint256"
        }
      ],
      "stateMutability": "view",
      "type": "function"
    },
    {
      "inputs": [
        {
          "internalType": "address",
          "name": "to",
          "type": "address"
        },
        {
          "internalType": "uint256",
          "name": "value",
          "type": "uint256"
        }
      ],
      "name": "transfer",
      "outputs": [
        {
          "internalType": "bool",
          "name": "",
          "type": "bool"
        }
      ],
      "stateMutability": "nonpayable",
      "type": "function"
    },
    {
      "inputs": [],
      "name": "transferEnableDate",
      "outputs": [
        {
          "internalType": "uint256",
          "name": "",
          "type": "uint256"
        }
      ],
      "stateMutability": "view",
      "type": "function"
    },
    {
      "inputs": [
        {
          "internalType": "address",
          "name": "from",
          "type": "address"
        },
        {
          "internalType": "address",
          "name": "to",
          "type": "address"
        },
        {
          "internalType": "uint256",
          "name": "value",
          "type": "uint256"
        }
      ],
      "name": "transferFrom",
      "outputs": [
        {
          "internalType": "bool",
          "name": "",
          "type": "bool"
        }
      ],
      "stateMutability": "nonpayable",
      "type": "function"
    },
    {
      "inputs": [
        {
          "internalType": "address",
          "name": "newOwner",
          "type": "address"
        }
      ],
      "name": "transferOwnership",
      "outputs": [],
      "stateMutability": "nonpayable",
      "type": "function"
    },
    {
      "inputs": [],
      "name": "transfersEnabled",
      "outputs": [
        {
          "internalType": "bool",
          "name": "",
          "type": "bool"
        }
      ],
      "stateMutability": "view",
      "type": "function"
    },
    {
      "inputs": [
        {
          "internalType": "address",
          "name": "account",
          "type": "address"
        }
      ],
      "name": "updateDecayFactor",
      "outputs": [],
      "stateMutability": "nonpayable",
      "type": "function"
    },
    {
      "inputs": [],
      "name": "vestingWalletFactory",
      "outputs": [
        {
          "internalType": "contract SummerVestingWalletFactory",
          "name": "",
          "type": "address"
        }
      ],
      "stateMutability": "view",
      "type": "function"
    },
    {
      "inputs": [
        {
          "internalType": "address",
          "name": "",
          "type": "address"
        }
      ],
      "name": "whitelistedAddresses",
      "outputs": [
        {
          "internalType": "bool",
          "name": "",
          "type": "bool"
        }
      ],
      "stateMutability": "view",
      "type": "function"
    }
  ],
  "bytecode": "0x6101c08060405234610804575f619090803803809161001e828661082f565b8439820191602081840312610804578051906001600160401b038211610804570161012081840312610804576040519261012084016001600160401b0381118582101761081b5760405281516001600160401b0381116108045781610084918401610852565b84526020820151906001600160401b038211610804576100a5918301610852565b928360208201526100b8604083016108a7565b8060408301526100ca606084016108a7565b928360608401526100dd608082016108a7565b93608084019385855260a08301519164ffffffffff831683036108045760a0820192835260c08401519460c0830195865260e08501519460028610156108045760e0840195865261010090810151908401908152925160408051909b94996001600160a01b03908116959194811693166101578d8661082f565b600185526020850193603160f81b85528015610808575f80546001600160a01b03198116831782558f51939183916001600160a01b0316907f8be0079c531659141344cd1fd0a4f28419497f9722a3daafe3b4186f6b6457e09080a380608052803b15610804576024835f8193819563ca5eb5e160e01b845260048401525af180156107fa576107e5575b5064e8d4a5100060a05281516001600160401b0381116106f257600854600181811c911680156107db575b60208210146106d457601f8111610773575b508060208d601f83116001146107115791610706575b508160011b915f199060031b1c1916176008555b8051906001600160401b0382116106f257600954600181811c911680156106e8575b60208210146106d4579081601f849311610663575b506020908d601f84116001146105ff57926105f4575b50508160011b915f199060031b1c1916176009555b6102b4816108bb565b610160526102c183610a56565b610180526020815191012091826101205251902080610140524660e05289519060208201927f8b73c3c69bb8fe3d512ecc4cf759cc79239f7b179b0ffacaa9a75d522b39400f84528b83015260608201524660808201523060a082015260a0815261032d60c08261082f565b51902060c052306101005280156105e05787516301ffc9a760e01b8152639bd1803160e01b6004820152602081602481855afa9081156105d6578891610597575b501561058557601080546001600160a01b031916909117905551915190519164ffffffffff1660028310156105715764ffffffffff19601254161760125560135560ff80196014541691161760145560018060a01b0390511683519061198d908183019183831060018060401b0384111761055d579183918793615b058439308252602082015203019083f0801561055357601580546001600160a01b0319166001600160a01b0392909216919091179055516101a0528151611bfe808201906001600160401b0382118383101761053f576020918391617492833930815203019082f09081156105345750601680546001600160a01b0319166001600160a01b039290921691909117905551614f769081610b8f823960805181818161090901528181610a2901528181610f16015281816113280152818161234b01528181613d290152614487015260a051818181610e6601528181611bbb01528181612e8a0152818161328f0152613e6e015260c05181613170015260e0518161322d0152610100518161313a015261012051816131bf015261014051816131e50152610160518161175b0152610180518161178401526101a0518181816108000152611ca10152f35b8251903d90823e3d90fd5b634e487b7160e01b84526041600452602484fd5b83513d84823e3d90fd5b634e487b7160e01b86526041600452602486fd5b634e487b7160e01b86526021600452602486fd5b6347bd7c1d60e01b8752600452602486fd5b90506020813d6020116105ce575b816105b26020938361082f565b810103126105ca575180151581036105ca575f61036e565b8780fd5b3d91506105a5565b89513d8a823e3d90fd5b6347bd7c1d60e01b87526004879052602487fd5b015190505f80610296565b600981528281209350601f198516905b81811061064b5750908460019594939210610633575b505050811b016009556102ab565b01515f1960f88460031b161c191690555f8080610625565b9293602060018192878601518155019501930161060f565b60098e529091507f6e1540171b6c0c960b71a7020d9f60077f6af931a8bbf590da0223dacf75c7af601f840160051c810191602085106106ca575b849392918f91601f0160051c0191905b8282106106bc575050610280565b81558493506001018e6106ae565b909150819061069e565b634e487b7160e01b8d52602260045260248dfd5b90607f169061026b565b634e487b7160e01b8c52604160045260248cfd5b90508301515f610235565b600881528181209250601f198416905b81811061075b57509083600194939210610743575b5050811b01600855610249565b8501515f1960f88460031b161c191690555f80610736565b9192602060018192868a015181550194019201610721565b60088d527ff3f7a9fe364faab93b216da50a3214154f22a0a2b415b23a84c8169e8b636ee3601f830160051c810191602084106107d1575b601f0160051c01908d905b8281106107c457505061021f565b6001918155018d906107b6565b90915081906107ab565b90607f169061020d565b6107f2919b505f9061082f565b5f995f6101e2565b8d513d5f823e3d90fd5b5f80fd5b631e4fbdf760e01b5f525f60045260245ffd5b634e487b7160e01b5f52604160045260245ffd5b601f909101601f19168101906001600160401b0382119082101761081b57604052565b81601f82011215610804578051906001600160401b03821161081b5760405192610886601f8401601f19166020018561082f565b8284526020838301011161080457815f9260208093018386015e8301015290565b51906001600160a01b038216820361080457565b908151602081105f14610935575090601f8151116108f55760208151910151602082106108e6571790565b5f198260200360031b1b161790565b604460209160405192839163305a27a960e01b83528160048401528051918291826024860152018484015e5f828201840152601f01601f19168101030190fd5b6001600160401b03811161081b57600a54600181811c91168015610a4c575b6020821014610a3857601f8111610a05575b50602092601f82116001146109a457928192935f92610999575b50508160011b915f199060031b1c191617600a5560ff90565b015190505f80610980565b601f19821693600a5f52805f20915f5b8681106109ed57508360019596106109d5575b505050811b01600a5560ff90565b01515f1960f88460031b161c191690555f80806109c7565b919260206001819286850151815501940192016109b4565b600a5f52601f60205f20910160051c810190601f830160051c015b818110610a2d5750610966565b5f8155600101610a20565b634e487b7160e01b5f52602260045260245ffd5b90607f1690610954565b908151602081105f14610a81575090601f8151116108f55760208151910151602082106108e6571790565b6001600160401b03811161081b57600b54600181811c91168015610b84575b6020821014610a3857601f8111610b51575b50602092601f8211600114610af057928192935f92610ae5575b50508160011b915f199060031b1c191617600b5560ff90565b015190505f80610acc565b601f19821693600b5f52805f20915f5b868110610b395750836001959610610b21575b505050811b01600b5560ff90565b01515f1960f88460031b161c191690555f8080610b13565b91926020600181928685015181550194019201610b00565b600b5f52601f60205f20910160051c810190601f830160051c015b818110610b795750610ab2565b5f8155600101610b6c565b90607f1690610aa056fe60806040526004361015610011575f80fd5b5f3560e01c806306c933d8146104af57806306fdde03146104aa578063095ea7b3146104a55780630d35b415146104a05780630dce88f41461049b578063111ecdad1461049657806313137d6514610491578063134d4f251461048c578063156a0d0f1461048757806317442b701461048257806318160ddd1461047d5780631f5e13341461047857806323b872dd14610473578063313ce5671461046e5780633400288b146104695780633644e515146104645780633a46b1a81461045f5780633b6f743b1461045a57806340c10f1914610455578063412290811461045057806342966c681461044b5780634bf5d7e91461044657806352ae28791461034c5780635535d46114610441578063587cde1e1461043c5780635a0dfe4d146104375780635c19a95c146104325780635e280f111461042d57806369b3054b146104285780636fc1b31e146104235780636fcfff451461041e57806370a0823114610419578063715018a61461041457806379cc67901461040f5780637c930dde1461040a5780637d25a05e146104055780637ecebe001461040057806382413eac146103fb57806384b0196e146103f6578063857749b0146103f15780638ab1d681146103ec5780638da5cb5b146103e75780638e539e8c146103e257806391ddadf4146103dd57806392a525d5146103d857806395d89b41146103d3578063963efcaa146103ce5780639ab24eb0146103c95780639f68b964146103c4578063a9059cbb146103bf578063af35c6c7146103ba578063b731ea0a146103b5578063b98bd070146103b0578063bb0b6a53146103ab578063bc70b354146103a6578063bd815db0146103a1578063bef97c871461039c578063c3cda52014610397578063c7c7f5b314610392578063ca5eb5e11461038d578063cfe081d114610388578063d045a0dc14610383578063d42438851461037e578063d505accf14610379578063dd62ed3e14610374578063defe20531461036f578063e0cf01ae1461036a578063e43252d714610365578063ea4ebdca14610360578063f1127ed81461035b578063f2fde38b14610356578063f56a47a514610351578063fc0c546a1461034c5763ff7bd03d14610347575f80fd5b61298f565b61107d565b612962565b6128d9565b612829565b612805565b612799565b6126d2565b6126aa565b61264b565b61251f565b6124af565b61247e565b6123c0565b612323565b612201565b61209d565b612058565b611f04565b611eb0565b611e77565b611d94565b611d1a565b611c79565b611c4f565b611c35565b611bde565b611ba4565b611aff565b611a20565b6119fe565b6118eb565b6118c4565b61185b565b611840565b611743565b6116e5565b6116aa565b611684565b61156a565b611536565b6114df565b6114a4565b61143c565b6113cc565b611357565b611313565b6112e4565b61129e565b61125b565b6111e0565b61102d565b611010565b610fe8565b610fb5565b610e02565b610cbd565b610c9b565b610c16565b610bed565b610bad565b610b92565b610b75565b610b54565b610b2e565b610b13565b6108f6565b610823565b6107e9565b610708565b610625565b61054b565b6104c9565b6001600160a01b038116036104c557565b5f80fd5b346104c55760203660031901126104c5576004356104e6816104b4565b60018060a01b03165f526017602052602060ff60405f2054166040519015158152f35b5f9103126104c557565b805180835260209291819084018484015e5f828201840152601f01601f1916010190565b906020610548928181520190610513565b90565b346104c5575f3660031901126104c5576040515f60085461056b816110b7565b808452906001811690811561060157506001146105a3575b61059f83610593818503826111bf565b60405191829182610537565b0390f35b60085f9081527ff3f7a9fe364faab93b216da50a3214154f22a0a2b415b23a84c8169e8b636ee3939250905b8082106105e757509091508101602001610593610583565b9192600181602092548385880101520191019092916105cf565b60ff191660208086019190915291151560051b840190910191506105939050610583565b346104c55760403660031901126104c55761064f600435610645816104b4565b6024359033613d9c565b602060405160018152f35b908160e09103126104c55790565b939291906106848560a081019260208091805184520151910152565b60a06040860152815180915260c0850190602060c08260051b8801019301915f905b8282106106cc57505050509060606106ca9294019060208091805184520151910152565b565b909192936020806106fa60019360bf198c82030186526040838a518051845201519181858201520190610513565b9601920192019092916106a6565b346104c55760203660031901126104c5576004356001600160401b0381116104c55761073890369060040161065a565b6107406129f2565b506107496129f2565b5060405161075681611184565b5f81526001600160401b03602082015260206040519261077682856111bf565b5f8452601f1982015f5b8181106107c6575050906107aa61059f9260408101356107a4606083013592612a21565b50612e81565b90916107b46129d4565b92835282015260405193849384610668565b83906040516107d481611184565b5f815260608382015282828901015201610780565b346104c5575f3660031901126104c55760206040517f00000000000000000000000000000000000000000000000000000000000000008152f35b346104c5575f3660031901126104c5576004546040516001600160a01b039091168152602090f35b60609060031901126104c557600490565b9181601f840112156104c5578235916001600160401b0383116104c557602083818601950101116104c557565b90600319820160e081126104c5576060136104c557600491606435916084356001600160401b0381116104c557826108c39160040161085c565b9290929160a4356108d3816104b4565b9160c435906001600160401b0382116104c5576108f29160040161085c565b9091565b6108ff36610889565b50919492915050337f00000000000000000000000000000000000000000000000000000000000000006001600160a01b031603610b0057813561094181610c08565b61094a81612ed3565b906020840135809203610adb5750506109726109668583613e42565b6001600160a01b031690565b936109986109886109838385613e4e565b613e60565b61099185612a21565b5086613e94565b916109a38260281090565b6109fb575b50506109d47fefed6d3500546b29533b128a29e3a94d70788727f0507505ac12eaf2e578fd9c92612a21565b6040805163ffffffff92909216825260208201929092526001600160a01b039490941693a3005b9082610a2692610a20610a1060408801612f03565b93610a1a88612a21565b92613eb8565b92613ed4565b917f00000000000000000000000000000000000000000000000000000000000000006001600160a01b0316803b156104c557604051633e5ac80960e11b8152935f918591829084908290610a7f908b8d60048501612f0d565b03925af1908115610ad6577fefed6d3500546b29533b128a29e3a94d70788727f0507505ac12eaf2e578fd9c936109d492610abc575b50926109a8565b80610aca5f610ad0936111bf565b80610509565b5f610ab5565b612a69565b80610aea63ffffffff92610c08565b63309afaf360e21b5f521660045260245260445ffd5b6391ac5e4f60e01b5f523360045260245ffd5b346104c5575f3660031901126104c557602060405160028152f35b346104c5575f3660031901126104c5576040805162b9270b60e21b815260016020820152f35b346104c5575f3660031901126104c557604080516001815260026020820152f35b346104c5575f3660031901126104c5576020600754604051908152f35b346104c5575f3660031901126104c557602060405160018152f35b346104c55760603660031901126104c55761064f600435610bcd816104b4565b602435610bd9816104b4565b60443591610be8833383612f37565b613005565b346104c5575f3660031901126104c557602060405160128152f35b63ffffffff8116036104c557565b346104c55760403660031901126104c5577f238399d427b947898edb290f5ff0f9109849b1c3ba196a42e35f00c50a54b98b600435610c5481610c08565b60243590610c60613111565b63ffffffff81165f5260016020528160405f2055610c96604051928392836020909392919363ffffffff60408201951681520152565b0390a1005b346104c5575f3660031901126104c5576020610cb5613137565b604051908152f35b346104c55760403660031901126104c557600435610cda816104b4565b6024359065ffffffffffff421680831015610de257506001600160a01b0381165f908152600e6020526040902091610d1190613733565b9180545f938160058111610d7a575b508291602095610d3492610cb59695614198565b80610d5b575050610d5560035f5b6001600160d01b0316925f81601161458a565b90613f28565b610d5591610d6a600392613581565b905f52855f20015460301c610d42565b93929190610d878561403a565b8503948511610ddd57602095610cb595610d3493855f5265ffffffffffff828a5f2001541665ffffffffffff8516105f14610dcb5750915b92509550919293610d20565b929150610dd790613762565b90610dbf565b61356d565b82637669fc0f60e11b5f5260045260245260445ffd5b801515036104c557565b346104c55760403660031901126104c5576004356001600160401b0381116104c557610e3290369060040161065a565b602435610e3e81610df8565b610e466129f2565b50813591606081013590610e916040820135610e6186610c08565b610e8c7f00000000000000000000000000000000000000000000000000000000000000008092613e11565b613e2f565b91808310610f9f57610f12604086610ef787610ead8888613278565b90610eb785610c08565b610ebf6129f2565b50610ec985612ed3565b610ee0610ed46129e3565b63ffffffff9097168752565b602086015285850152606084015215156080830152565b815180938192631bb8518b60e31b83523090600484016133b3565b03817f00000000000000000000000000000000000000000000000000000000000000006001600160a01b03165afa8015610ad65761059f915f91610f70575b5060405191829182815181526020918201519181019190915260400190565b610f92915060403d604011610f98575b610f8a81836111bf565b81019061339f565b82610f51565b503d610f80565b826371c4efed60e01b5f5260045260245260445ffd5b346104c55760403660031901126104c557610fe6600435610fd5816104b4565b60243590610fe1613111565b613421565b005b346104c5575f3660031901126104c5576016546040516001600160a01b039091168152602090f35b346104c55760203660031901126104c557610fe6600435336134be565b346104c5575f3660031901126104c55761059f60405161104e6040826111bf565b600e81526d06d6f64653d74696d657374616d760941b6020820152604051918291602083526020830190610513565b346104c5575f3660031901126104c5576020604051308152f35b6024359061ffff821682036104c557565b359061ffff821682036104c557565b90600182811c921680156110e5575b60208310146110d157565b634e487b7160e01b5f52602260045260245ffd5b91607f16916110c6565b5f92918154916110fe836110b7565b8083529260018116908115611153575060011461111a57505050565b5f9081526020812093945091925b838310611139575060209250010190565b600181602092949394548385870101520191019190611128565b915050602093945060ff929192191683830152151560051b010190565b634e487b7160e01b5f52604160045260245ffd5b604081019081106001600160401b0382111761119f57604052565b611170565b606081019081106001600160401b0382111761119f57604052565b90601f801991011681019081106001600160401b0382111761119f57604052565b346104c55760403660031901126104c55761059f61124061124761123460043561120981610c08565b63ffffffff611216611097565b91165f52600360205260405f209061ffff165f5260205260405f2090565b604051928380926110ef565b03826111bf565b604051918291602083526020830190610513565b346104c55760203660031901126104c557600435611278816104b4565b60018060a01b03165f52600d602052602060018060a01b0360405f205416604051908152f35b346104c55760403660031901126104c55760206112da6004356112c081610c08565b6024359063ffffffff165f52600160205260405f20541490565b6040519015158152f35b346104c55760203660031901126104c557610fe6600435611304816104b4565b61130d3361359c565b33613a59565b346104c5575f3660031901126104c5576040517f00000000000000000000000000000000000000000000000000000000000000006001600160a01b03168152602090f35b346104c55760403660031901126104c55760043560038110156104c55761059f90602435611384816104b4565b60405190602082019260f81b83526bffffffffffffffffffffffff199060601b166021820152601581526113b96035826111bf565b5190206040519081529081906020820190565b346104c55760203660031901126104c5577ff0be4f1e87349231d80c36b33f9e8639658eeaf474014dee15a3e6a4d4414197602060043561140c816104b4565b611414613111565b600480546001600160a01b0319166001600160a01b03929092169182179055604051908152a1005b346104c55760203660031901126104c557600435611459816104b4565b6001600160a01b03165f908152600e602052604090205463ffffffff811161148d5760405163ffffffff9091168152602090f35b6306dfcc6560e41b5f52602060045260245260445ffd5b346104c55760203660031901126104c5576004356114c1816104b4565b60018060a01b03165f526005602052602060405f2054604051908152f35b346104c5575f3660031901126104c5576114f7613111565b5f80546001600160a01b0319811682556001600160a01b03167f8be0079c531659141344cd1fd0a4f28419497f9722a3daafe3b4186f6b6457e08280a3005b346104c55760403660031901126104c557610fe6600435611556816104b4565b60243590611565823383612f37565b6134be565b346104c55760203660031901126104c557600435611587816104b4565b60105461159c906001600160a01b0316610966565b60405163605a9a6160e11b8152602081600481855afa8015610ad6576115f2926020925f92611655575b50604051632474521560e21b815260048101929092523360248301529092839190829081906044820190565b03915afa908115610ad6575f91611626575b501561161357610fe69061359c565b630a4510f960e31b5f523360045260245ffd5b611648915060203d60201161164e575b61164081836111bf565b810190612a74565b5f611604565b503d611636565b611676919250833d851161167d575b61166e81836111bf565b810190612a5a565b905f6115c6565b503d611664565b346104c55760403660031901126104c5576116a0600435610c08565b60206040515f8152f35b346104c55760203660031901126104c5576004356116c7816104b4565b60018060a01b03165f52600c602052602060405f2054604051908152f35b346104c55760a03660031901126104c5576116ff3661084b565b506064356001600160401b0381116104c55761171f90369060040161085c565b5050602060843561172f816104b4565b6040516001600160a01b0390911630148152f35b346104c5575f3660031901126104c5576117e761177f7f0000000000000000000000000000000000000000000000000000000000000000613faa565b6117a87f0000000000000000000000000000000000000000000000000000000000000000614003565b60206040516117b782826111bf565b5f8152816117f581830194601f198301368737604051978897600f60f81b895260e0858a015260e0890190610513565b908782036040890152610513565b914660608701523060808701525f60a087015285830360c087015251918281520192915f5b82811061182957505050500390f35b83518552869550938101939281019260010161181a565b346104c5575f3660031901126104c557602060405160068152f35b346104c55760203660031901126104c557600435611878816104b4565b611880613111565b6001600160a01b03165f818152601760205260408120805460ff191690557f535611fb62fa2a833988f283b779e417e996813e44046f521d76c17b5943b08c9080a2005b346104c5575f3660031901126104c5575f546040516001600160a01b039091168152602090f35b346104c55760203660031901126104c5574265ffffffffffff16600435818110156119e95761191990613733565b600f54905f829160058411611995575b6119359350600f614198565b8061195a575061059f5f5b6040516001600160d01b0390911681529081906020820190565b61196661059f91613581565b600f5f527f8d1108e10bcb7c27dddfc02ed9d693a074039d026cf4ea4240b40f7d581ac802015460301c611940565b91926119a08161403a565b8103908111610ddd5761193593600f5f5265ffffffffffff8260205f2001541665ffffffffffff8516105f146119d7575091611929565b9291506119e390613762565b90611929565b637669fc0f60e11b5f5260045260245260445ffd5b346104c5575f3660031901126104c557602060405165ffffffffffff42168152f35b346104c55760203660031901126104c55760043564ffffffffff811681036104c557601054611a57906001600160a01b0316610966565b604051630ccc574960e41b8152602081600481855afa8015610ad657611aac926020925f926116555750604051632474521560e21b815260048101929092523360248301529092839190829081906044820190565b03915afa908115610ad6575f91611ae0575b5015611acd57610fe690612a89565b630ea7d7ed60e21b5f523360045260245ffd5b611af9915060203d60201161164e5761164081836111bf565b5f611abe565b346104c5575f3660031901126104c5576040515f600954611b1f816110b7565b80845290600181169081156106015750600114611b465761059f83610593818503826111bf565b60095f9081527f6e1540171b6c0c960b71a7020d9f60077f6af931a8bbf590da0223dacf75c7af939250905b808210611b8a57509091508101602001610593610583565b919260018160209254838588010152019101909291611b72565b346104c5575f3660031901126104c55760206040517f00000000000000000000000000000000000000000000000000000000000000008152f35b346104c55760203660031901126104c5576020610cb5611c30600435611c03816104b4565b611c2a6003610d42611c258460018060a01b03165f52600e60205260405f2090565b6141fc565b90614af4565b614b89565b346104c5575f3660031901126104c55760206040515f8152f35b346104c55760403660031901126104c55761064f600435611c6f816104b4565b6024359033613005565b346104c5575f3660031901126104c557611c91613111565b60165460ff8160a01c16611d0b577f00000000000000000000000000000000000000000000000000000000000000004210611cfc5760ff60a01b1916600160a01b176016557feadb24812ab3c9a55c774958184293ebdb6c7f6a2dbab11f397d80c86feb65d35f80a1005b63be5fb0cb60e01b5f5260045ffd5b6385e1a58160e01b5f5260045ffd5b346104c5575f3660031901126104c5576002546040516001600160a01b039091168152602090f35b9060206003198301126104c5576004356001600160401b0381116104c55760040182601f820112156104c5578035926001600160401b0384116104c5576020808301928560051b0101116104c5579190565b346104c557611da236611d42565b90611dab613111565b611db482612a0a565b90611dc260405192836111bf565b828252602082019260051b8101903682116104c55780935b828510611dea57610fe68461392f565b84356001600160401b0381116104c5578201906060823603126104c55760405191611e14836111a4565b8035611e1f81610c08565b8352611e2d602082016110a8565b60208401526040810135906001600160401b0382116104c557019036601f830112156104c557602092611e67849336908581359101612acd565b6040820152815201940193611dda565b346104c55760203660031901126104c55763ffffffff600435611e9981610c08565b165f526001602052602060405f2054604051908152f35b346104c55760603660031901126104c557600435611ecd81610c08565b611ed5611097565b604435906001600160401b0382116104c55761059f92611efc61124793369060040161085c565b929091612b92565b611f0d36611d42565b5f5b818110611f7c57604051638e9e709960e01b81525f81600481335afa8015610ad657611f56915f91611f5a575b50604051638351eea760e01b815291829160048301610537565b0390fd5b611f7691503d805f833e611f6e81836111bf565b810190612d37565b82611f3c565b611f87818385612c48565b90611fb7611fb3611f9784612a21565b60208501359063ffffffff165f52600160205260405f20541490565b1590565b61204f5760c08201359160a0810135611fd4610100830183612c70565b949091611fe360e08501612ca2565b93611ff2610120820182612c70565b959095303b156104c5575f9661201f926040519a8b9889978897633411683760e21b895260048901612cbd565b0391305af1918215610ad65760019261203b575b505b01611f0f565b80610aca5f612049936111bf565b5f612033565b60019150612035565b346104c5575f3660031901126104c557602060ff60165460a01c166040519015158152f35b6064359060ff821682036104c557565b6084359060ff821682036104c557565b346104c55760c03660031901126104c5576004356120ba816104b4565b602435906044356120c961207d565b6084359060a4359280421161219e579161214e93916121406121459460405160208101917fe48329057bfd03d55e49b547132e39cffd9c1820ad7b9d4c5307691425d15adf835260018060a01b038a1660408301528a606083015260808201526080815261213860a0826111bf565b519020613a24565b614226565b909291926142a8565b6001600160a01b0381165f908152600c6020526040902080546001810190915580930361217f57610fe69250613a59565b90506301d4b62360e61b5f5260018060a01b031660045260245260445ffd5b632341d78760e11b5f5260045260245ffd5b9160806106ca9294936121f0604060c0830197805184526001600160401b0360208201511660208501520151604083019060208091805184520151910152565b019060208091805184520151910152565b60803660031901126104c5576004356001600160401b0381116104c55761222c90369060040161065a565b60403660231901126104c557606435612244816104b4565b61224c612d99565b506122556129f2565b5060608201359061226e6040840135610e618535610c08565b91808310610f9f57506122a89061228583336134be565b61228f8385613278565b61229886612a21565b916122a236612dbf565b92613cac565b906122b16129d4565b928184528160208501527f85496b760a4b7f8d66384b9df21b381f5d1b1e79f229a47aaf4c232edc2fe59a6123116122ea855193612a21565b936040519181839233978460409194939263ffffffff606083019616825260208201520152565b0390a361059f604051928392836121b0565b346104c5575f60203660031901126104c557600435612341816104b4565b612349613111565b7f00000000000000000000000000000000000000000000000000000000000000006001600160a01b031690813b156104c55760405163ca5eb5e160e01b81526001600160a01b039091166004820152905f908290602490829084905af18015610ad6576123b4575080f35b610fe691505f906111bf565b346104c55760203660031901126104c5576004356010546123e9906001600160a01b0316610966565b604051630ccc574960e41b8152602081600481855afa8015610ad65761243e926020925f926116555750604051632474521560e21b815260048101929092523360248301529092839190829081906044820190565b03915afa908115610ad6575f9161245f575b5015611acd57610fe690612de7565b612478915060203d60201161164e5761164081836111bf565b5f612450565b61248736610889565b50505092903033036124a0576109726109668583613e42565b63029a949d60e31b5f5260045ffd5b346104c55760203660031901126104c5577fd48d879cef83a1c0bdda516f27b13ddb1b3f8bbac1c9e1511bb2a659c242776060206004356124ef816104b4565b6124f7613111565b600280546001600160a01b0319166001600160a01b03929092169182179055604051908152a1005b346104c55760e03660031901126104c55760043561253c816104b4565b602435612548816104b4565b604435906064359261255861208d565b60a43560c43590864211612638576001600160a01b0384165f908152600c602052604090208054600181019091556125fd93906125f8909860405160208101917f6e71edae12b1b97f4d1f60370fef10105fa2faae0126114a169c64845d6126c9835260018060a01b0389169b8c604084015260018060a01b038b1660608401528b608084015260a083015260c082015260c0815261213860e0826111bf565b613a4a565b936001600160a01b0385160361261757610fe69350613d9c565b6325c0072360e11b5f526001600160a01b038085166004521660245260445ffd5b8663313c898160e11b5f5260045260245ffd5b346104c55760403660031901126104c55760206126a160043561266d816104b4565b6024359061267a826104b4565b60018060a01b03165f526006835260405f209060018060a01b03165f5260205260405f2090565b54604051908152f35b346104c5575f3660031901126104c5576015546040516001600160a01b039091168152602090f35b346104c55760203660031901126104c55760043560028110156104c557601054612704906001600160a01b0316610966565b604051630ccc574960e41b8152602081600481855afa8015610ad657612759926020925f926116555750604051632474521560e21b815260048101929092523360248301529092839190829081906044820190565b03915afa908115610ad6575f9161277a575b5015611acd57610fe690612e36565b612793915060203d60201161164e5761164081836111bf565b5f61276b565b346104c55760203660031901126104c5576004356127b6816104b4565b6127be613111565b6001600160a01b03165f818152601760205260408120805460ff191660011790557f4f783c179409b4127238bc9c990bc99b9a651666a0d20b51d6c42849eb88466d9080a2005b346104c5575f3660031901126104c557602064ffffffffff60125416604051908152f35b346104c55760403660031901126104c55761059f61288f60043561284c816104b4565b6024359061285982610c08565b6128616129f2565b5061286a6129f2565b506001600160a01b03165f908152600e602052604090206128896129f2565b50614575565b506040519061289d82611184565b5465ffffffffffff811680835260309190911c60209283019081526040805192835290516001600160d01b031692820192909252918291820190565b346104c55760203660031901126104c5576004356128f6816104b4565b6128fe613111565b6001600160a01b0316801561294f575f80546001600160a01b03198116831782556001600160a01b0316907f8be0079c531659141344cd1fd0a4f28419497f9722a3daafe3b4186f6b6457e09080a3005b631e4fbdf760e01b5f525f60045260245ffd5b346104c55760203660031901126104c5576020610cb56003600435612986816104b4565b5f81601161458a565b346104c55760603660031901126104c55760206129ab3661084b565b63ffffffff81356129bb81610c08565b165f52600182528160405f205491013560405191148152f35b604051906106ca6040836111bf565b604051906106ca60a0836111bf565b604051906129ff82611184565b5f6020838281520152565b6001600160401b03811161119f5760051b60200190565b3561054881610c08565b6001600160401b03811161119f57601f01601f191660200190565b634e487b7160e01b5f52602160045260245ffd5b908160209103126104c5575190565b6040513d5f823e3d90fd5b908160209103126104c5575161054881610df8565b602064ffffffffff7f9ec539ec1ff2fdcda111a25f0c7d902ff0205d74dfaa05f434eecc8cdea9e8b192168064ffffffffff196012541617601255604051908152a1565b929192612ad982612a2b565b91612ae760405193846111bf565b8294818452818301116104c5578281602093845f960137010152565b90929192836002116104c55783116104c557600201916001190190565b805191908290602001825e015f815290565b612b4c93926106ca92816040519687946020860190612b20565b918237015f815203601f1981018452836111bf565b908060209392818452848401375f828201840152601f01601f1916010190565b916020610548938181520191612b61565b6112346112409263ffffffff612bc39397959697165f52600360205260405f209061ffff165f5260205260405f2090565b805115612c26578315612c20576002841015612bf7575050611f56604051928392639a6d49cd60e01b845260048401612b81565b909280612c1a9161054894612c15612c10368484612acd565b6139ec565b612b03565b91612b32565b92509050565b509190610548913691612acd565b634e487b7160e01b5f52603260045260245ffd5b9190811015612c6b5760051b8101359061013e19813603018212156104c5570190565b612c34565b903590601e19813603018212156104c557018035906001600160401b0382116104c5576020019181360383136104c557565b35610548816104b4565b6001600160401b038116036104c557565b929093612d19926001600160401b0360406105489a98999763ffffffff8135612ce581610c08565b168852602081013560208901520135612cfd81612cac565b166040860152606085015260e0608085015260e0840191612b61565b6001600160a01b0390941660a082015280840360c090910152612b61565b6020818303126104c5578051906001600160401b0382116104c5570181601f820112156104c557805190612d6a82612a2b565b92612d7860405194856111bf565b828452602083830101116104c557815f9260208093018386015e8301015290565b60405190612da6826111a4565b815f81525f60208201526040612dba6129f2565b910152565b60409060231901126104c55760405190612dd882611184565b60243582526044356020830152565b670de0b6b3a76400008111612e27576020817f179ae38251712f92ada204166c624f1fd16102c85f82e13348393a898b04e9d292601355604051908152a1565b630678582160e51b5f5260045ffd5b6002811015612e7c5760207f7b7c2a74bf19219346c0b038bc25beb1372ff76eb0b6fe50ba0433b4ac9842799160ff8019601454169116809117601455604051908152a1565b612a46565b612eb090610e8c7f00000000000000000000000000000000000000000000000000000000000000008092613e11565b918291808410612ebd5750565b836371c4efed60e01b5f5260045260245260445ffd5b63ffffffff16805f52600160205260405f2054908115612ef1575090565b63f6ff4fb760e01b5f5260045260245ffd5b3561054881612cac565b610548939260809260018060a01b0316825260208201525f60408201528160608201520190610513565b6001600160a01b039081165f818152600660209081526040808320948616835293905291909120919290915460018101612f72575b50505050565b818110612fe4578215612fd1576001600160a01b03841615612fbe57612fb4925f526006602052039160405f209060018060a01b03165f5260205260405f2090565b555f808080612f6c565b634a1406b160e11b5f525f60045260245ffd5b63e602df0560e01b5f525f60045260245ffd5b83637dc7a0d960e11b5f5260018060a01b031660045260245260445260645ffd5b6001600160a01b0381169392919084156130fe576001600160a01b03821680156130eb576130338383614645565b156130dc576001600160a01b0382165f90815260056020526040902054958487106130b657846106ca9697036130798460018060a01b03165f52600560205260405f2090565b556001600160a01b0384165f9081526005602090815260409182902080548801905590518681525f516020614f215f395f51905f529190a3614810565b63391434e360e21b5f526001600160a01b0383166004526024879052604485905260645ffd5b638cd22d1960e01b5f5260045ffd5b63ec442f0560e01b5f525f60045260245ffd5b634b637e8f60e11b5f525f60045260245ffd5b5f546001600160a01b0316330361312457565b63118cdaa760e01b5f523360045260245ffd5b307f00000000000000000000000000000000000000000000000000000000000000006001600160a01b0316148061322a575b15613192577f000000000000000000000000000000000000000000000000000000000000000090565b60405160208101907f8b73c3c69bb8fe3d512ecc4cf759cc79239f7b179b0ffacaa9a75d522b39400f82527f000000000000000000000000000000000000000000000000000000000000000060408201527f000000000000000000000000000000000000000000000000000000000000000060608201524660808201523060a082015260a0815261322460c0826111bf565b51902090565b507f00000000000000000000000000000000000000000000000000000000000000004614613169565b909161326a61054893604084526040840190610513565b916020818403910152610513565b90916132dd613303936132c06132b46020860135927f000000000000000000000000000000000000000000000000000000000000000090613e11565b6001600160401b031690565b6132d76132d060a0870187612c70565b3691612acd565b91613f35565b93909283945f1461336f576002905b611efc6132f882612a21565b916080810190612c70565b60045490926001600160a01b0390911690838261331f57505050565b60405163043a78eb60e01b8152926020928492839182916133439160048401613253565b03915afa8015610ad6576133545750565b61336c9060203d60201161164e5761164081836111bf565b50565b6001906132ec565b91908260409103126104c55760405161338f81611184565b6020808294805184520151910152565b906040828203126104c55761054891613377565b906020909392936040835263ffffffff815116604084015281810151606084015260806134076133f1604084015160a08488015260e0870190610513565b6060840151868203603f190160a0880152610513565b910151151560c08401526001600160a01b03909416910152565b91906001600160a01b03831680156130eb5761343d845f614645565b156130dc57600754828101809111610ddd576007556001600160a01b0384165f908152600560209081526040808320805486019055518481525f516020614f215f395f51905f529190a3600754926001600160d01b038085116134a757506106ca9293505f614810565b630e58ae9360e11b5f52600485905260245260445ffd5b6001600160a01b03811680156130fe576134d85f83614645565b156130dc576001600160a01b0382165f9081526005602052604090205483811061354957915f8092856106ca9695036135218460018060a01b03165f52600560205260405f2090565b556007805486900390556040518581525f516020614f215f395f51905f5290602090a3614810565b63391434e360e21b5f526001600160a01b038316600452602452604483905260645ffd5b634e487b7160e01b5f52601160045260245ffd5b5f19810191908211610ddd57565b91908203918211610ddd57565b6001600160a01b0381165f908152601160205260409020600101547f7d4f30fa682bd557f547a1f7245a280525fd183bdb54917c56ec7ef22e5b532a919064ffffffffff1615613694575b6001600160a01b0381165f90815260116020526040902061365a6001820161362a61362461361a835464ffffffffff1690565b64ffffffffff1690565b4261358f565b61363d61361a60125464ffffffffff1690565b1061367e575b805464ffffffffff19164264ffffffffff16179055565b54604080516001600160a01b0390931683526020830191909152819081015b0390a1565b61368d6003855f81601161458a565b8355613643565b6136f96040516136a381611184565b670de0b6b3a76400008152600164ffffffffff6020830181421681526136da8660119060018060a01b03165f5260205260405f2090565b93518455511691019064ffffffffff1664ffffffffff19825416179055565b6040516001600160a01b03821681527f9b44a2c7f9f0b5aa4e7da60d8a2325796c57f93a45559d66515743ffbd8a610390602090a16135e7565b65ffffffffffff811161374b5765ffffffffffff1690565b6306dfcc6560e41b5f52603060045260245260445ffd5b9060018201809211610ddd57565b91908201809211610ddd57565b8051821015612c6b5760209160051b010190565b601f821161379e57505050565b5f5260205f20906020601f840160051c830193106137d6575b601f0160051c01905b8181106137cb575050565b5f81556001016137c0565b90915081906137b7565b91909182516001600160401b03811161119f576138078161380184546110b7565b84613791565b6020601f82116001146138465781906138379394955f9261383b575b50508160011b915f199060031b1c19161790565b9055565b015190505f80613823565b601f19821690613859845f5260205f2090565b915f5b8181106138935750958360019596971061387b575b505050811b019055565b01515f1960f88460031b161c191690555f8080613871565b9192602060018192868b01518155019401920161385c565b602081016020825282518091526040820191602060408360051b8301019401925f915b8383106138dd57505050505090565b9091929394602080613920600193603f19868203018752606060408b5163ffffffff815116845261ffff8682015116868501520151918160408201520190610513565b970193019301919392906138ce565b5f5b81518110156139ba5780613954604061394c6001948661377d565b5101516139ec565b6139b46040613963838661377d565b51015163ffffffff613975848761377d565b5151165f5260036020526139af60405f2061399f6020613995878a61377d565b51015161ffff1690565b61ffff165f5260205260405f2090565b6137e0565b01613931565b506136797fbe4864a8e820971c0247f5992e2da559595f7bf076a21cb5928d443d2a13b67491604051918291826138ab565b600361ffff600283015116036139ff5750565b604051639a6d49cd60e01b815260206004820152908190611f56906024830190610513565b604290613a2f613137565b906040519161190160f01b8352600283015260228201522090565b91610548939161214593614226565b6001600160a01b038181165f818152600d6020526040812080548685166001600160a01b03198216811790925594959490931693929184917f3134e8a2e6d97e929a7e54011ea5485d7d196dd5f0ba4d4ef95803e8e3fc257f9080a46001600160a01b0383165f90815260056020526040902054601554613ae2906001600160a01b0316610966565b6040516370a0823160e01b81526001600160a01b03861660048201529490602090869060249082905afa948515610ad6575f95613c49575b50601654613b30906001600160a01b0316610966565b60405163baf3510760e01b81526001600160a01b0383166004820152602081602481855afa908115610ad6575f91613c2a575b506001600160a01b031615613c165760405163baf3510760e01b81526001600160a01b03929092166004830152909190602090839060249082905afa8015610ad6576106ca95613bd5613bdc92613be1955f91613be7575b506001600160a01b03165f90815260056020526040902090565b5492613770565b613770565b91614339565b613c09915060203d602011613c0f575b613c0181836111bf565b810190614324565b5f613bbb565b503d613bf7565b5050613be190613bdc6106ca955f92613770565b613c43915060203d602011613c0f57613c0181836111bf565b5f613b63565b613c6391955060203d60201161167d5761166e81836111bf565b935f613b1a565b906080828203126104c557613ca4906040805193613c87856111a4565b805185526020810151613c9981612cac565b602086015201613377565b604082015290565b613d0960809492613d259694613cc0612d99565b506020613ccd865161445b565b950191825180613d8d575b50613ce285612ed3565b9251151592613cf2610ed46129e3565b602086015260408501526060840152151585830152565b6040518095819482936302637a4560e41b8452600484016133b3565b03917f00000000000000000000000000000000000000000000000000000000000000006001600160a01b03165af1908115610ad6575f91613d64575090565b610548915060803d608011613d86575b613d7e81836111bf565b810190613c6a565b503d613d74565b613d9690614478565b5f613cd8565b6001600160a01b0316908115612fd1576001600160a01b038116928315612fbe5780613e047f8c5be1e5ebec7d5bd14f71427d1e84f3dd0314c0f7b2291e5b200ac8c7c3b92593855f52600660205260405f209060018060a01b03165f5260205260405f2090565b55604051908152602090a3565b8115613e1b570490565b634e487b7160e01b5f52601260045260245ffd5b81810292918115918404141715610ddd57565b906020116104c5573590565b906028116104c5576020013560c01c90565b610548906001600160401b037f00000000000000000000000000000000000000000000000000000000000000009116613e2f565b816001600160a01b03821615613eae575b61054891613421565b61dead9150613ea5565b90806028116104c5576105489136916027190190602801612acd565b9092613f1a90610548936040519586946001600160401b0360c01b9060c01b16602086015263ffffffff60e01b9060e01b166028850152602c840152604c830190612b20565b03601f1981018352826111bf565b61054891611c3091614af4565b82511580159390613f7b5790613f1a613f789260405194859360208501526001600160401b0360c01b9060c01b1660408401523360488401526068830190612b20565b91565b50906040519160208301526001600160401b0360c01b9060c01b16604082015260288152613f786048826111bf565b60ff8114613ff05760ff811690601f8211613fe15760405191613fce6040846111bf565b6020808452838101919036833783525290565b632cd44ac360e21b5f5260045ffd5b506040516105488161124081600a6110ef565b60ff81146140275760ff811690601f8211613fe15760405191613fce6040846111bf565b506040516105488161124081600b6110ef565b600181111561054857806001600160801b82101561415b575b6141016140f76140ed6140e36140d96140cf6140be61410897600461410d9a600160401b81101561414e575b640100000000811015614141575b62010000811015614134575b610100811015614127575b601081101561411a575b1015614112575b60030260011c90565b6140c8818b613e11565b0160011c90565b6140c8818a613e11565b6140c88189613e11565b6140c88188613e11565b6140c88187613e11565b6140c88186613e11565b8093613e11565b821190565b900390565b60011b6140b5565b60041c9160021b916140ae565b60081c9160041b916140a4565b60101c9160081b91614099565b60201c9160101b9161408d565b60401c9160201b9161407f565b505061410d6141086141016140f76140ed6140e36140d96140cf6140be6141828a60801c90565b9850600160401b97506140539650505050505050565b91905b8382106141a85750505090565b9091928083169080841860011c8201809211610ddd57845f5265ffffffffffff8260205f2001541665ffffffffffff8416105f146141ea5750925b919061419b565b9392506141f690613762565b916141e3565b8054908161420a5750505f90565b815f19810111610ddd575f525f199060205f2001015460301c90565b91906fa2a8918ca85bafe22016d0b997e4df60600160ff1b038411614293579160209360809260ff5f9560405194855216868401526040830152606082015282805260015afa15610ad6575f516001600160a01b0381161561428957905f905f90565b505f906001905f90565b5050505f9160039190565b60041115612e7c57565b6142b18161429e565b806142ba575050565b6142c38161429e565b600181036142da5763f645eedf60e01b5f5260045ffd5b6142e38161429e565b600281036142fe575063fce698f760e01b5f5260045260245ffd5b8061430a60039261429e565b146143125750565b6335e2f38360e21b5f5260045260245ffd5b908160209103126104c55751610548816104b4565b6001600160a01b03808316939291908116908185141580614452575b614361575b5050505050565b816143e5575b505082614376575b808061435a565b6001600160a01b03165f908152600e602052604090207fdec2bacdd2f05b59de34da9b523dff8be42e5e38e818c82fdb0bae774387a724916143c2916143bc90916146c6565b9061472a565b604080516001600160d01b039384168152919092166020820152a25f808061436f565b6001600160a01b03165f908152600e602052604090207fdec2bacdd2f05b59de34da9b523dff8be42e5e38e818c82fdb0bae774387a724906144309061442a866146c6565b906146f7565b604080516001600160d01b039384168152919092166020820152a25f80614367565b50831515614355565b8034036144655790565b6304fb820960e51b5f523460045260245ffd5b60405163393f876560e21b81527f00000000000000000000000000000000000000000000000000000000000000006001600160a01b031690602081600481855afa908115610ad6575f91614556575b506001600160a01b0316918215614547576020915f9160405190848201926323b872dd60e01b8452336024840152604483015260648201526064815261450e6084826111bf565b519082855af115612a69575f513d61453e5750803b155b61452c5750565b635274afe760e01b5f5260045260245ffd5b60011415614525565b6329b99a9560e11b5f5260045ffd5b61456f915060203d602011613c0f57613c0181836111bf565b5f6144c7565b8054821015612c6b575f5260205f2001905f90565b939192909260028110156146385782600303614f0c576001600160a01b038481165f908152600d602052604090205416908115158281614624575b5080614614575b6145fd57505050506145e1611fb382846147e6565b6145ee5761054891614791565b633aab01a760e11b5f5260045ffd5b610548959293945061460e90613762565b9161458a565b5061461f82876147e6565b6145cc565b6001600160a01b038716141590505f6145c5565b5091505061054891614791565b6001600160a01b0316801580156146b5575b6146ae5760ff60165460a01c166146ae575f52601760205260ff60405f20541690811561468d575b50614688575f90565b600190565b6001600160a01b03165f9081526017602052604081205460ff16915061467f565b5050600190565b506001600160a01b03821615614657565b6001600160d01b0381116146e0576001600160d01b031690565b6306dfcc6560e41b5f5260d060045260245260445ffd5b90614701826141fc565b6001600160d01b0391821690821603908111610ddd576108f29165ffffffffffff421690614d52565b90614734826141fc565b6001600160d01b0391821690821601908111610ddd576108f29165ffffffffffff421690614d52565b614767600f6141fc565b6001600160d01b0391821690821603908111610ddd576108f2904265ffffffffffff16600f614d52565b6001600160a01b039091165f9081526020829052604090209064ffffffffff600183015416420390428211610ddd5761054892549160028201549060ff600364ffffffffff600186015416940154169361484f565b61480864ffffffffff926001929060018060a01b03165f5260205260405f2090565b015416151590565b919061481c81846148aa565b6148385761482b8282856148e1565b614838576106ca92614a41565b505050565b670de0b6b3a764000061054891614c39565b939092808411156148a3578303928311610ddd576002811015612e7c578061487b575061054892614ed1565b6002811015612e7c576001036148945761054892614e28565b6346b2fddf60e11b5f5260045ffd5b5050505090565b6015546001600160a01b03908116911681149182156148ce575b5050614688575f90565b6001600160a01b03161490505f806148c4565b601654909291906148fa906001600160a01b0316610966565b6040516305e5f31960e21b81526001600160a01b038316600482015290602090829060249082905afa908115610ad6575f91614a22575b506001600160a01b038116806149f757505060165461498c9360209161495f906001600160a01b0316610966565b6040516305e5f31960e21b81526001600160a01b0390921660048301529094859190829081906024820190565b03915afa928315610ad6575f936149d6575b506001600160a01b038316806149b657505050505f90565b6001600160a01b038216146149ce5761468892614a41565b505050600190565b6149f091935060203d602011613c0f57613c0181836111bf565b915f61499e565b9091506001600160a01b03841603614a1157505050600190565b614a1a92614a41565b5f80806149ce565b614a3b915060203d602011613c0f57613c0181836111bf565b5f614931565b9091906001600160a01b03168015614aa8575b6106ca926001600160a01b0316908115614a90575b5f908152600d6020526040808220549282529020546001600160a01b039081169116614339565b614aa1614a9c846146c6565b61475d565b5050614a69565b614ab1826146c6565b614abb600f6141fc565b6001600160d01b039182169082160193908411610ddd576106ca93614aea904265ffffffffffff16600f614d52565b9050509250614a54565b9091905f1983820983820291828083109203918083039214614b7857670de0b6b3a7640000821015614b61577faccb18165bd6fe31ae1cf318dc5b51eee0e1ba569b88cd74c1773b91fac106699394670de0b6b3a7640000910990828211900360ee1b910360121c170290565b8490635173648d60e01b5f5260045260245260445ffd5b5050670de0b6b3a764000090049150565b905f19670de0b6b3a76400008309670de0b6b3a7640000830290818082109103908082039114614c2957670de0b6b3a7640000811015614c0457670de0b6b3a7640000807faccb18165bd6fe31ae1cf318dc5b51eee0e1ba569b88cd74c1773b91fac1066994950990828211900360ee1b910360121c170290565b630c740aef60e31b5f526004849052670de0b6b3a7640000602481905260445260645ffd5b50670de0b6b3a764000090049150565b5f19670de0b6b3a7640000820991670de0b6b3a7640000820291828085109403938085039414614ceb5781841015614cca57670de0b6b3a7640000829109600182190182168092046002816003021880820260020302808202600203028082026002030280820260020302808202600203028091026002030293600183805f03040190848311900302920304170290565b630c740aef60e31b5f52600452670de0b6b3a764000060245260445260645ffd5b50906105489250613e11565b8054600160401b81101561119f57614d1491600182018155614575565b614d3f57815160209092015160301b65ffffffffffff191665ffffffffffff92909216919091179055565b634e487b7160e01b5f525f60045260245ffd5b80549293928015614dfe57614d69614d7491613581565b825f5260205f200190565b8054603081901c9365ffffffffffff91821692918116808411614def57879303614dbb5750614db792509065ffffffffffff82549181199060301b169116179055565b9190565b915050614db791614ddb614dcd6129d4565b65ffffffffffff9093168352565b6001600160d01b0386166020830152614cf7565b632520601d60e01b5f5260045ffd5b5090614e2391614e0f614dcd6129d4565b6001600160d01b0385166020830152614cf7565b5f9190565b9082158015614ec9575b614ec357670de0b6b3a764000003670de0b6b3a76400008111610ddd57806001841615614eb4575b9260011c90815b614e8557505090614e7191614af4565b8015614e80576105489061483d565b505f90565b80614e8f91614af4565b9060018116614ea3575b60011c9081614e61565b9281614eae91614af4565b92614e99565b50670de0b6b3a7640000614e5a565b50905090565b508015614e32565b91614edb91613e2f565b670de0b6b3a76400000390670de0b6b3a76400008211610ddd57670de0b6b3a764000091614f0891613e2f565b0490565b634e487b7160e01b5f52605160045260245ffdfeddf252ad1be2c89b69c2b068fc378daa952ba7f163c4a11628f55a4df523b3efa264697066735822122071d19f342bfed3c3472632d5655fa3119a02a8ae34daf44af46e93d70fa2795664736f6c634300081c003360a080604052346101415760408161198d803803809161001f828561016b565b83398101031261014157610032816101a2565b906001600160a01b0390610048906020016101a2565b168015610158576040516301ffc9a760e01b8152639bd1803160e01b6004820152602081602481855afa90811561014d575f9161010e575b50156100fc575f80546001600160a01b0319169190911790556001600160a01b031680156100ed576080819052600380546001600160a01b03191690911790556040516117d690816101b7823960805181818161013b01528181610349015281816104400152610de30152f35b6334566e4b60e21b5f5260045ffd5b6347bd7c1d60e01b5f5260045260245ffd5b90506020813d602011610145575b816101296020938361016b565b8101031261014157518015158103610141575f610080565b5f80fd5b3d915061011c565b6040513d5f823e3d90fd5b6347bd7c1d60e01b5f525f60045260245ffd5b601f909101601f19168101906001600160401b0382119082101761018e57604052565b634e487b7160e01b5f52604160045260245ffd5b51906001600160a01b03821682036101415756fe6080806040526004361015610012575f80fd5b5f905f3560e01c90816318160ddd14610fe457508063211dc32d14610fb85780632378bea614610e5f5780632e17de7814610dab5780633d18b91214610cae5780633d509c9714610a8357806348e5d9f814610a1d578063638634ee146109f957806369b3054b1461098f5780637035ab981461093c578063705b504a1461090357806370a08231146108ca57806372f702f3146108a157806377df7b6a1461087c5780637bb7bed114610829578063a2f1b4c914610806578063a3cd8ac4146104b7578063a694fc3a14610418578063bcd11014146103cb578063cecc238f1461030e578063e70b9e27146102bb578063e9fad8ee14610199578063f12297771461016d5763f9ddf50d14610126575f80fd5b3461016a578060031936011261016a576040517f00000000000000000000000000000000000000000000000000000000000000006001600160a01b03168152602090f35b80fd5b503461016a57602036600319011261016a57602061019161018c610ffe565b6111a6565b604051908152f35b503461016a578060031936011261016a575f5160206117815f395f51905f525c6102ac5760015f5160206117815f395f51905f525d6101d733611337565b6101e0336113f1565b60015433825b8281106102175783805f5160206117815f395f51905f525d338152600860205261021460408220543361141d565b80f35b806102236001926115b7565b838060a01b0391549060031b1c16808652600660205260408620845f5260205260405f205480610256575b5050016101e6565b818752600660205260408720855f526020528660405f20556102798133846114a6565b6040519081527f540798df468d7b23d11f156fdb954cb19ad414d150722a7b6d55ba369dea792e60203392a35f8061024e565b633ee5aeb560e01b8152600490fd5b503461016a57604036600319011261016a5760406102d7610ffe565b916102e0611014565b9260018060a01b031681526006602052209060018060a01b03165f52602052602060405f2054604051908152f35b503461016a57604036600319011261016a57610328610ffe565b816001600160a01b03821680610347575b5061021460243583336114e9565b7f00000000000000000000000000000000000000000000000000000000000000006001600160a01b031690813b156103c7578291602483926040519485938492633e4986ef60e11b845260048401525af180156103bc571561033957816103ad9161110c565b6103b857815f610339565b5080fd5b6040513d84823e3d90fd5b8280fd5b503461016a57602036600319011261016a5760209061019190600260406001600160a01b036103f8610ffe565b169283815260048652600182822001549381526004865220015490611048565b503461016a57602036600319011261016a573361043d575b61021460043533336114e9565b807f00000000000000000000000000000000000000000000000000000000000000006001600160a01b0316803b156104b457818091602460405180948193633e4986ef60e11b83523360048401525af180156103bc5761049f575b5050610430565b816104a99161110c565b61016a57805f610498565b50fd5b503461016a57606036600319011261016a576104d1610ffe565b6024356044359160018060a01b03845416604051630ccc574960e41b8152602081600481855afa9081156106bf5786916107d2575b50604051632474521560e21b815260048101919091523360248201529060209082908180604481015b03915afa9081156107c7578591610798575b501561078557600154845b81811061073d5750506001600160a01b0316808452600460205260408420600281018054929491929091908061071257508015610700576105d67f68e3e9397770d9dfa88c0953a34e1a70a05416b3895957f5b689787a920791c4916105b18761172b565b50808455604080516001600160a01b0389168152602081019290925290918291820190565b0390a15b81544281116106ca57506105ef81548461102a565b60018301555b6040516370a0823160e01b815230600482015290602082602481885afa9182156106bf578692610687575b5061063260018401549154809361102a565b10610678579160209161066c7fac24935fd910bc682b5ccb1a07b718cadf8cf2f6d1404c4f3ddc3662dae40e299442600384015542611199565b9055604051908152a280f35b63010ee96f60e31b8552600485fd5b9091506020813d6020116106b7575b816106a36020938361110c565b810103126106b35751905f610620565b5f80fd5b3d9150610696565b6040513d88823e3d90fd5b6106d590429061118c565b6106f96106f16106eb6001860193845490611048565b86611199565b83549061102a565b90556105f5565b60016203036160e11b03198652600486fd5b8115159182610732575b5050156105da576333fec8c760e21b8552600485fd5b141590505f8061071c565b806107496001926115b7565b838060a01b0391549060031b1c168088526004602052600361077c60408a2092610772816111a6565b600485015561115a565b9101550161054c565b630ea7d7ed60e21b845233600452602484fd5b6107ba915060203d6020116107c0575b6107b2818361110c565b810190611142565b5f610541565b503d6107a8565b6040513d87823e3d90fd5b90506020813d6020116107fe575b816107ed6020938361110c565b810103126106b3575161052f610506565b3d91506107e0565b503461016a578060031936011261016a576020604051670de0b6b3a76400008152f35b503461016a57602036600319011261016a576004359060015482101561086d576020610854836115b7565b905460405160039290921b1c6001600160a01b03168152f35b634e23d03560e01b8152600490fd5b503461016a578060031936011261016a575060206702c68af0bb140000604051908152f35b503461016a578060031936011261016a576003546040516001600160a01b039091168152602090f35b503461016a57602036600319011261016a576020906040906001600160a01b036108f2610ffe565b168152600883522054604051908152f35b503461016a57602036600319011261016a576020906040906001600160a01b0361092b610ffe565b168152600983522054604051908152f35b503461016a57604036600319011261016a576040610958610ffe565b91610961611014565b9260018060a01b031681526005602052209060018060a01b03165f52602052602060405f2054604051908152f35b503461016a57604036600319011261016a5760043560038110156103b857906020916109b9611014565b60405191848301935060f81b83526bffffffffffffffffffffffff199060601b166021820152601581526109ee60358261110c565b519020604051908152f35b503461016a57602036600319011261016a576020610191610a18610ffe565b61115a565b503461016a57602036600319011261016a5760a0906040906001600160a01b03610a45610ffe565b168152600460205220805490600181015490600281015460046003830154920154926040519485526020850152604084015260608301526080820152f35b503461016a57602036600319011261016a57610a9d610ffe565b8154604051630ccc574960e41b81526001600160a01b0390911690602081600481855afa908115610ca3578491610c6f575b50604051632474521560e21b815260048101919091523360248201529060209082908180604481015b03915afa908115610c14578391610c50575b5015610c3d576001600160a01b03168082526004602052604082206002015415610c2e5780825260046020526040822054421115610c1f576040516370a0823160e01b8152306004820152602081602481855afa908115610c14578391610be2575b5080610bd05750602081610ba07f66257bcef574219c04f7c05f7a1c78d599da10491294c92a5805c48b4cdf500993611650565b5080845260048252836004604082208281558260018201558260028201558260038201550155604051908152a180f35b633007cea360e01b8352600452602482fd5b90506020813d602011610c0c575b81610bfd6020938361110c565b810103126106b357515f610b6c565b3d9150610bf0565b6040513d85823e3d90fd5b63d9ba1add60e01b8252600482fd5b63064fed9960e31b8252600482fd5b630ea7d7ed60e21b825233600452602482fd5b610c69915060203d6020116107c0576107b2818361110c565b5f610b0a565b90506020813d602011610c9b575b81610c8a6020938361110c565b810103126106b35751610af8610acf565b3d9150610c7d565b6040513d86823e3d90fd5b503461016a578060031936011261016a575f5160206117815f395f51905f525c6102ac5760015f5160206117815f395f51905f525d610cec33611337565b610cf5336113f1565b60015433825b828110610d165783805f5160206117815f395f51905f525d80f35b80610d226001926115b7565b838060a01b0391549060031b1c16808652600660205260408620845f5260205260405f205480610d55575b505001610cfb565b818752600660205260408720855f526020528660405f2055610d788133846114a6565b6040519081527f540798df468d7b23d11f156fdb954cb19ad414d150722a7b6d55ba369dea792e60203392a35f80610d4d565b50346106b35760203660031901126106b357610dc633611337565b610dcf336113f1565b33610de1575b6102146004353361141d565b7f00000000000000000000000000000000000000000000000000000000000000006001600160a01b0316803b156106b3575f8091602460405180948193633e4986ef60e11b83523360048401525af18015610e5457610e41575b50610dd5565b610e4d91505f9061110c565b5f5f610e3b565b6040513d5f823e3d90fd5b346106b35760403660031901126106b357610e78610ffe565b5f54604051630ccc574960e41b815260243592916001600160a01b031690602081600481855afa908115610e54575f91610f84575b50604051632474521560e21b815260048101919091523360248201529060209082908180604481015b03915afa908115610e54575f91610f65575b5015610f52576001600160a01b03165f8181526004602052604090208054919291421115610f4357817fad2f86b01ed93b4b3a150d448c61a4f5d8d38075d3c0c64cc0a26fd6e1f495459260026020930155604051908152a2005b63d9ba1add60e01b5f5260045ffd5b630ea7d7ed60e21b5f523360045260245ffd5b610f7e915060203d6020116107c0576107b2818361110c565b83610ee8565b90506020813d602011610fb0575b81610f9f6020938361110c565b810103126106b35751610ed6610ead565b3d9150610f92565b346106b35760403660031901126106b3576020610191610fd6610ffe565b610fde611014565b9061106f565b346106b3575f3660031901126106b3576020906007548152f35b600435906001600160a01b03821682036106b357565b602435906001600160a01b03821682036106b357565b8115611034570490565b634e487b7160e01b5f52601260045260245ffd5b8181029291811591840414171561105b57565b634e487b7160e01b5f52601160045260245ffd5b611108906110d6611102670de0b6b3a76400009460018060a01b0384165f526008602052856110dc60405f20546110d66110a8856111a6565b6001600160a01b039586165f818152600560209081526040808320998d16835298905296909620549061118c565b90611048565b04905f52600660205260405f2060018060a01b0385165f5260205260405f205490611199565b91611257565b0490565b90601f8019910116810190811067ffffffffffffffff82111761112e57604052565b634e487b7160e01b5f52604160045260245ffd5b908160209103126106b3575180151581036106b35790565b6001600160a01b03165f8181526004602052604090205442101561117d57504290565b5f52600460205260405f205490565b9190820391821161105b57565b9190820180921161105b57565b60075490811561123b5761120460018060a01b038216805f5260046020526111ee6111d8600460405f2001549461115a565b825f526004602052600360405f2001549061118c565b905f526004602052600160405f20015490611048565b670de0b6b3a7640000810290808204670de0b6b3a7640000149015171561105b57611238926112329161102a565b90611199565b90565b905060018060a01b03165f526004602052600460405f20015490565b60035460405163f56a47a560e01b81526001600160a01b03928316600482018190529092909160209184916024918391165afa918215610e54575f92611303575b50805f52600960205260405f2054156112ff576702c68af0bb1400009182810292818404149015171561105b575f52600960205260405f205490670b1a2bc2ec5000009182810292818404149015171561105b57670de0b6b3a76400009161110891611199565b5090565b9091506020813d60201161132f575b8161131f6020938361110c565b810103126106b35751905f611298565b3d9150611312565b600154905f5b82811061134957505050565b806113556001926115b7565b838060a01b0391549060031b1c16805f52600460205260405f20611378826111a6565b9060048101918255600361138b8461115a565b910155838060a01b0385166113a3575b50500161133d565b6113ad828661106f565b825f52600660205260405f20858060a01b0387165f5260205260405f205554905f52600560205260405f20838060a01b0385165f5260205260405f20555f8061139b565b6001600160a01b0381169081611405575050565b61140e90611257565b905f52600960205260405f2055565b908015611497576020816114547f0f5bb82176feb1b5e747e28471aa92156a04d9f3ab9f45f28e2d704232b93f759360075461118c565b60075561148e8160018060a01b03861695865f526008855260405f2061147b83825461118c565b90556003546001600160a01b03166114a6565b604051908152a2565b6310356e5960e21b5f5260045ffd5b60405163a9059cbb60e01b60208201526001600160a01b039290921660248301526044808301939093529181526114e7916114e260648361110c565b6115f8565b565b919081156115a8576003546001600160a01b031615611599578161148e6020926115367f9e71bc8eea02a63969f509818f2dafb9254532904319f9dbda79b67bd34a5f3d95600754611199565b60075560018060a01b031694855f526008845260405f20611558848254611199565b90556003546040516323b872dd60e01b868201526001600160a01b0392831660248201523060448201526064808201869052815291166114e260848361110c565b63417198d360e01b5f5260045ffd5b636a76ff9f60e01b5f5260045ffd5b6001548110156115cf5760015f5260205f2001905f90565b634e487b7160e01b5f52603260045260245ffd5b80548210156115cf575f5260205f2001905f90565b905f602091828151910182855af115610e54575f513d61164757506001600160a01b0381163b155b6116275750565b635274afe760e01b5f9081526001600160a01b0391909116600452602490fd5b60011415611620565b5f818152600260205260409020548015611725575f19810181811161105b576001545f1981019190821161105b578181036116d7575b50505060015480156116c3575f19016116a08160016115e3565b8154905f199060031b1b191690556001555f5260026020525f6040812055600190565b634e487b7160e01b5f52603160045260245ffd5b61170f6116e86116f99360016115e3565b90549060031b1c92839260016115e3565b819391549060031b91821b915f19901b19161790565b90555f52600260205260405f20555f8080611686565b50505f90565b805f52600260205260405f2054155f1461177b57600154600160401b81101561112e576117646116f982600185940160015560016115e3565b9055600154905f52600260205260405f2055600190565b505f9056fe9b779b17422d0df92223018b32b4d1fa46e071723d6817e2486d003becc55f00a264697066735822122039a116e64f83245db8e1a88daca4f40f9d4bc5c130e381224a0839036df0726864736f6c634300081c003360a034606c57601f611bfe38819003918201601f19168301916001600160401b03831184841017607057808492602094604052833981010312606c57516001600160a01b0381168103606c57608052604051611b7990816100858239608051818181605d01526101ec0152f35b5f80fd5b634e487b7160e01b5f52604160045260245ffdfe6080806040526004361015610012575f80fd5b5f3560e01c9081631797cc64146103ce5750806392f1d24f146100cf578063baf35107146100905763fc0c546a14610048575f80fd5b3461008c575f36600319011261008c576040517f00000000000000000000000000000000000000000000000000000000000000006001600160a01b03168152602090f35b5f80fd5b3461008c57602036600319011261008c576001600160a01b036100b161040d565b165f525f602052602060018060a01b0360405f205416604051908152f35b3461008c57608036600319011261008c576100e861040d565b602435906044359067ffffffffffffffff821161008c573660238301121561008c5781600401359167ffffffffffffffff8311610397578260051b604051936101346020830186610423565b8452602460208501918301019136831161008c57602401905b8282106103be5750505060643590600282101561008c576001600160a01b039081165f81815260208190526040902054909391166103ab575f92845b82518510156101c45760208560051b8401015181018091116101b057600190940193610189565b634e487b7160e01b5f52601160045260245ffd5b9350916040516116aa908181019181831067ffffffffffffffff8411176103975761049a82397f00000000000000000000000000000000000000000000000000000000000000006001600160a01b0316808352602083018690524267ffffffffffffffff1660408401526303c2670060608401529181906102486080820186610445565b8860a082015261010060c0820152610264610100820187610466565b9060e03391015203905ff0801561038c575f8581526020818152604080832080546001600160a01b03199081166001600160a01b0390961695861790915584845260018352818420805490911689179055516323b872dd60e01b815233600482015260248101849052604481019890985291969283916064918391905af1801561038c5761034a575b508392916020957fa24f0c282d4a63b2f7e3712da4fab41eaf78fcd5ff348ea189f9d6e5430054de9261033f610334604051948594855260608b8601526060850190610466565b916040840190610445565b0390a3604051908152f35b602093929193813d602011610384575b8161036760209383610423565b8101031261008c575190811515820361008c5791929050836102ed565b3d915061035a565b6040513d5f823e3d90fd5b634e487b7160e01b5f52604160045260245ffd5b82630f7b254960e21b5f5260045260245ffd5b813581526020918201910161014d565b3461008c57602036600319011261008c576020906001600160a01b036103f261040d565b165f9081526001835260409020546001600160a01b03168152f35b600435906001600160a01b038216820361008c57565b90601f8019910116810190811067ffffffffffffffff82111761039757604052565b9060028210156104525752565b634e487b7160e01b5f52602160045260245ffd5b90602080835192838152019201905f5b8181106104835750505090565b825184526020938401939092019160010161047656fe610100604052346103dd576116aa8038038061001a816103e1565b9283398101610100828203126103dd5761003382610406565b9161004060208201610406565b9161004d6040830161041a565b6100596060840161041a565b60808401519060028210156103dd5760a085015160c08601519093906001600160401b0381116103dd5786019585601f880112156103dd578651956100a56100a08861042e565b6103e1565b9760208989815201906020829960051b8201019283116103dd57602001905b8282106103cd5750505060e06100da9101610406565b966001600160a01b031680156103ba575f80546001600160a01b03198116831782556001600160a01b0316907f8be0079c531659141344cd1fd0a4f28419497f9722a3daafe3b4186f6b6457e09080a360805260a05260c0526006558151906001600160401b038211610358576801000000000000000082116103585760045482600455808310610380575b5060045f5260205f205f5b83811061036c5750505050519161019661018d6100a08561042e565b9380855261042e565b602084019390601f190136853751926001600160401b03841161035857680100000000000000008411610358576005548460055580851061030b575b509260055f5260205f208160051c905f5b8281106102c65750601f198316909203918261027a575b610207858560e05261045b565b506040516111839081610507823960805181818161030b0152818161044f01528181610d860152610ff9015260a0518181816102e101528181610b130152610dc4015260c05181818161068401528181610b49015261107a015260e0518181816101870152818161052701526107000152f35b5f9586935b808810610297575050610207955001555f80806101fa565b909360206102bb6001928a88511515919060ff809160031b9316831b921b19161790565b95019701969061027f565b5f5f5b602081106102de5750828201556001016101e3565b979060206103026001928b85511515919060ff809160031b9316831b921b19161790565b920198016102c9565b6103379060055f5260205f20601f80880160051c8201928189168061033d575b500160051c0190610445565b5f6101d2565b5f198501908154905f199060200360031b1c1690555f61032b565b634e487b7160e01b5f52604160045260245ffd5b600190602084519401938184015501610171565b60045f526103b4907f8a35acfbc15ff81a39ae7d344fd709f28e8600b4aa8c65c6b64bfe7fe36bd19b908101908401610445565b5f610166565b631e4fbdf760e01b5f525f60045260245ffd5b81518152602091820191016100c4565b5f80fd5b6040519190601f01601f191682016001600160401b0381118382101761035857604052565b51906001600160a01b03821682036103dd57565b51906001600160401b03821682036103dd57565b6001600160401b0381116103585760051b60200190565b818110610450575050565b5f8155600101610445565b6001600160a01b0381165f9081525f51602061168a5f395f51905f52602052604090205460ff16610501576001600160a01b03165f8181525f51602061168a5f395f51905f5260205260408120805460ff191660011790553391907f55435dd261a4b9b3364963f7738a7a662ad9c84396d64be3365284bb7f0a5041907f2f8788117e7eff1d82e926ec794901d17c78024a50270940304540a733656f0d9080a4600190565b505f9056fe608080604052600436101561001c575b50361561001a575f80fd5b005b5f3560e01c90816301ffc9a714610bb2575080630a17b06b14610b7b5780630e17454c14610b375780630fb5a6b414610af45780631916558714610a44578063248a9ca314610a1957806324ea54f4146109df5780632f2ff15d146109a1578063330609441461098457806336568abe14610940578063715018a6146108e9578063810ec23b146108b057806386d1a69f146107be57806388fb15021461066a5780638da5cb5b1461064357806391d14854146105fa57806396132521146105dd5780639852595c146105a5578063a217fddf1461058b578063a3f8eace14610568578063aa5ef02b14610473578063be9a655514610430578063c2a5b0be146103ab578063c9514c9b14610373578063d547741f14610330578063efbe1c1c146102c2578063f2fde38b1461023d578063f8d870c814610200578063fbccedae146101ba5763fc0c546a14610172575f61000f565b346101b6575f3660031901126101b6576040517f00000000000000000000000000000000000000000000000000000000000000006001600160a01b03168152602090f35b5f80fd5b346101b6575f3660031901126101b65760206101f86101ef476101ea6001600160401b0342169160015490610c7c565b610d77565b60015490610d34565b604051908152f35b346101b65760203660031901126101b6576004356005548110156101b65760ff61022b602092610c5d565b90549060031b1c166040519015158152f35b346101b65760203660031901126101b657610256610c05565b61025e610fc9565b6001600160a01b031680156102af575f80546001600160a01b03198116831782556001600160a01b0316907f8be0079c531659141344cd1fd0a4f28419497f9722a3daafe3b4186f6b6457e09080a3005b631e4fbdf760e01b5f525f60045260245ffd5b346101b6575f3660031901126101b65760206101f86001600160401b037f0000000000000000000000000000000000000000000000000000000000000000166001600160401b037f000000000000000000000000000000000000000000000000000000000000000016610c7c565b346101b65760403660031901126101b65761001a60043561034f610c1b565b9061036e610369825f526003602052600160405f20015490565b610e7f565b610f45565b346101b65760203660031901126101b6576004356004548110156101b65761039c602091610c31565b90549060031b1c604051908152f35b346101b65760203660031901126101b6576004356103c7610e10565b600181108015610425575b610416575f198101908111610402576103ea90610c5d565b81549060031b9060ff6001831b921b19161790555f80f35b634e487b7160e01b5f52601160045260245ffd5b630d8a8dc160e21b5f5260045ffd5b5060045481116103d2565b346101b6575f3660031901126101b65760206040516001600160401b037f0000000000000000000000000000000000000000000000000000000000000000168152f35b346101b65760203660031901126101b65760043561048f610e10565b600454600160401b811015610554578060016104ae9201600455610c31565b81545f1960039290921b91821b19169083901b17905560055490600160401b821015610554576104e782600161001a9401600555610c5d565b60ff82549160031b1b19169055604051906323b872dd60e01b6020830152336024830152306044830152606482015260648152610525608482610c89565b7f00000000000000000000000000000000000000000000000000000000000000006001600160a01b03166110f5565b634e487b7160e01b5f52604160045260245ffd5b346101b65760203660031901126101b65760206101f8610586610c05565b610d41565b346101b6575f3660031901126101b65760206040515f8152f35b346101b65760203660031901126101b6576001600160a01b036105c6610c05565b165f526002602052602060405f2054604051908152f35b346101b6575f3660031901126101b6576020600154604051908152f35b346101b65760403660031901126101b657610613610c1b565b6004355f52600360205260405f209060018060a01b03165f52602052602060ff60405f2054166040519015158152f35b346101b6575f3660031901126101b6575f546040516001600160a01b039091168152602090f35b346101b6575f3660031901126101b657610682610e10565b7f000000000000000000000000000000000000000000000000000000000000000060028110156107aa5761079b575f5f6004545b808210610775576106fb60206106d4856106ce611078565b90610d34565b60405163a9059cbb60e01b8152336004820152602481019190915291829081906044820190565b03815f7f00000000000000000000000000000000000000000000000000000000000000006001600160a01b03165af1801561076a5761073657005b6020813d602011610762575b8161074f60209383610c89565b810103126101b65751801515036101b657005b3d9150610742565b6040513d5f823e3d90fd5b909161079360019161078685610c31565b90549060031b1c90610c7c565b9201906106b6565b632d09888560e11b5f5260045ffd5b634e487b7160e01b5f52602160045260245ffd5b346101b6575f3660031901126101b6576107e9476101ea6001600160401b0342169160015490610c7c565b6108006107f96001548093610d34565b8092610c7c565b6001557fda9d4e5f101b8b9b1c5b76d0c5a9f7923571acfc02376aa076b75a8c080c956b6020604051838152a15f546001600160a01b0316478211610899575f80809381935af13d15610894573d6001600160401b0381116105545760405190610874601f8201601f191660200183610c89565b81525f60203d92013e5b1561088557005b63d6bda27560e01b5f5260045ffd5b61087e565b504763cf47918160e01b5f5260045260245260445ffd5b346101b65760403660031901126101b6576108c9610c05565b602435906001600160401b03821682036101b6576020916101f891610caa565b346101b6575f3660031901126101b657610901610fc9565b5f80546001600160a01b0319811682556001600160a01b03167f8be0079c531659141344cd1fd0a4f28419497f9722a3daafe3b4186f6b6457e08280a3005b346101b65760403660031901126101b657610959610c1b565b336001600160a01b038216036109755761001a90600435610f45565b63334bd91960e11b5f5260045ffd5b346101b6575f3660031901126101b6576020600654604051908152f35b346101b65760403660031901126101b65761001a6004356109c0610c1b565b906109da610369825f526003602052600160405f20015490565b610eb9565b346101b6575f3660031901126101b65760206040517f55435dd261a4b9b3364963f7738a7a662ad9c84396d64be3365284bb7f0a50418152f35b346101b65760203660031901126101b65760206101f86004355f526003602052600160405f20015490565b346101b65760203660031901126101b65761001a610a60610c05565b610a6981610d41565b9060018060a01b0316805f52600260205260405f20610a89838254610c7c565b9055807fc0e523490dd523c33b1878c9eb14ff46991e3f5b2cd33710918618f2a39cba1b6020604051858152a25f5460405163a9059cbb60e01b60208201526001600160a01b039091166024820152604480820193909352918252610aef606483610c89565b6110f5565b346101b6575f3660031901126101b65760206040516001600160401b037f0000000000000000000000000000000000000000000000000000000000000000168152f35b346101b6575f3660031901126101b6577f000000000000000000000000000000000000000000000000000000000000000060405160028210156107aa576020918152f35b346101b65760203660031901126101b6576004356001600160401b03811681036101b6576101f86020916101ea4760015490610c7c565b346101b65760203660031901126101b6576004359063ffffffff60e01b82168092036101b657602091637965db0b60e01b8114908115610bf4575b5015158152f35b6301ffc9a760e01b14905083610bed565b600435906001600160a01b03821682036101b657565b602435906001600160a01b03821682036101b657565b600454811015610c495760045f5260205f2001905f90565b634e487b7160e01b5f52603260045260245ffd5b90600554821015610c495760055f52601f60205f208360051c01921690565b9190820180921161040257565b90601f801991011681019081106001600160401b0382111761055457604052565b6040516370a0823160e01b81523060048201526001600160a01b03919091169190602081602481865afa90811561076a575f91610d00575b506101ea90610cfd935f52600260205260405f205490610c7c565b90565b90506020813d602011610d2c575b81610d1b60209383610c89565b810103126101b65751610cfd610ce2565b3d9150610d0e565b9190820391821161040257565b610cfd90610d586001600160401b03421682610caa565b6001600160a01b039091165f9081526002602052604090205490610d34565b906001600160401b03808216907f00000000000000000000000000000000000000000000000000000000000000001680821015610db657505050505f90565b610dea906001600160401b037f00000000000000000000000000000000000000000000000000000000000000001690610c7c565b1015610df4575090565b610cfd9150610e0290610fef565b610e0a611078565b90610c7c565b335f9081527f928bc822364ea6c79099cd2e1cc1a80e662a0ebf765aa4970cedb73b2f2abb72602052604090205460ff1615610e4857565b63e2517d3f60e01b5f52336004527f55435dd261a4b9b3364963f7738a7a662ad9c84396d64be3365284bb7f0a504160245260445ffd5b5f81815260036020908152604080832033845290915290205460ff1615610ea35750565b63e2517d3f60e01b5f523360045260245260445ffd5b5f8181526003602090815260408083206001600160a01b038616845290915290205460ff16610f3f575f8181526003602090815260408083206001600160a01b0395909516808452949091528120805460ff19166001179055339291907f2f8788117e7eff1d82e926ec794901d17c78024a50270940304540a733656f0d9080a4600190565b50505f90565b5f8181526003602090815260408083206001600160a01b038616845290915290205460ff1615610f3f575f8181526003602090815260408083206001600160a01b0395909516808452949091528120805460ff19169055339291907ff6391f5c32d9c69d2a47ea670b442974b53935d1edc7fd64eb21e047a839171b9080a4600190565b5f546001600160a01b03163303610fdc57565b63118cdaa760e01b5f523360045260245ffd5b6001600160401b037f00000000000000000000000000000000000000000000000000000000000000001662ed4e00810191828211610402576001600160401b0316918210610f3f5761104091610d34565b62ed4dff198101908111610402576276a700900460028101809111610402576006548181029181830414901517156104025760031c90565b7f000000000000000000000000000000000000000000000000000000000000000060028110156107aa576110f1575f5f600454905b8181106110b957505090565b60ff6110c482610c5d565b90549060031b1c166110d9575b6001016110ad565b916110e960019161078685610c31565b9290506110d1565b5f90565b905f602091828151910182855af11561076a575f513d61114457506001600160a01b0381163b155b6111245750565b635274afe760e01b5f9081526001600160a01b0391909116600452602490fd5b6001141561111d56fea2646970667358221220de7ae2d8d8d37f917a4873aba2ec9de4684382c8a36b5814e6d5f5a1b01fb3b264736f6c634300081c0033928bc822364ea6c79099cd2e1cc1a80e662a0ebf765aa4970cedb73b2f2abb72a26469706673582212207d3001476127c324f5d780164e5a05319d92d0818f018e765ab239d614992bb664736f6c634300081c0033",
  "linkReferences": {},
  "deployedLinkReferences": {}
}