{
  "_format": "hh-sol-artifact-1",
  "contractName": "SummerGovernor",
  "sourceName": "src/contracts/SummerGovernor.sol",
  "abi": [
    {
      "inputs": [
        {
          "components": [
            {
              "internalType": "contract IVotes",
              "name": "token",
              "type": "address"
            },
            {
              "internalType": "contract TimelockController",
              "name": "timelock",
              "type": "address"
            },
            {
              "internalType": "uint48",
              "name": "votingDelay",
              "type": "uint48"
            },
            {
              "internalType": "uint32",
              "name": "votingPeriod",
              "type": "uint32"
            },
            {
              "internalType": "uint256",
              "name": "proposalThreshold",
              "type": "uint256"
            },
            {
              "internalType": "uint256",
              "name": "quorumFraction",
              "type": "uint256"
            },
            {
              "internalType": "address",
              "name": "initialWhitelistGuardian",
              "type": "address"
            },
            {
              "internalType": "address",
              "name": "endpoint",
              "type": "address"
            },
            {
              "internalType": "uint32",
              "name": "proposalChainId",
              "type": "uint32"
            },
            {
              "internalType": "uint32[]",
              "name": "peerEndpointIds",
              "type": "uint32[]"
            },
            {
              "internalType": "address[]",
              "name": "peerAddresses",
              "type": "address[]"
            }
          ],
          "internalType": "struct ISummerGovernor.GovernorParams",
          "name": "params",
          "type": "tuple"
        }
      ],
      "stateMutability": "nonpayable",
      "type": "constructor"
    },
    {
      "inputs": [],
      "name": "CheckpointUnorderedInsertion",
      "type": "error"
    },
    {
      "inputs": [],
      "name": "DecayController__ZeroAddress",
      "type": "error"
    },
    {
      "inputs": [],
      "name": "FailedCall",
      "type": "error"
    },
    {
      "inputs": [
        {
          "internalType": "address",
          "name": "voter",
          "type": "address"
        }
      ],
      "name": "GovernorAlreadyCastVote",
      "type": "error"
    },
    {
      "inputs": [
        {
          "internalType": "uint256",
          "name": "proposalId",
          "type": "uint256"
        }
      ],
      "name": "GovernorAlreadyQueuedProposal",
      "type": "error"
    },
    {
      "inputs": [],
      "name": "GovernorDisabledDeposit",
      "type": "error"
    },
    {
      "inputs": [
        {
          "internalType": "address",
          "name": "proposer",
          "type": "address"
        },
        {
          "internalType": "uint256",
          "name": "votes",
          "type": "uint256"
        },
        {
          "internalType": "uint256",
          "name": "threshold",
          "type": "uint256"
        }
      ],
      "name": "GovernorInsufficientProposerVotes",
      "type": "error"
    },
    {
      "inputs": [
        {
          "internalType": "uint256",
          "name": "targets",
          "type": "uint256"
        },
        {
          "internalType": "uint256",
          "name": "calldatas",
          "type": "uint256"
        },
        {
          "internalType": "uint256",
          "name": "values",
          "type": "uint256"
        }
      ],
      "name": "GovernorInvalidProposalLength",
      "type": "error"
    },
    {
      "inputs": [
        {
          "internalType": "uint256",
          "name": "quorumNumerator",
          "type": "uint256"
        },
        {
          "internalType": "uint256",
          "name": "quorumDenominator",
          "type": "uint256"
        }
      ],
      "name": "GovernorInvalidQuorumFraction",
      "type": "error"
    },
    {
      "inputs": [
        {
          "internalType": "address",
          "name": "voter",
          "type": "address"
        }
      ],
      "name": "GovernorInvalidSignature",
      "type": "error"
    },
    {
      "inputs": [],
      "name": "GovernorInvalidVoteParams",
      "type": "error"
    },
    {
      "inputs": [],
      "name": "GovernorInvalidVoteType",
      "type": "error"
    },
    {
      "inputs": [
        {
          "internalType": "uint256",
          "name": "votingPeriod",
          "type": "uint256"
        }
      ],
      "name": "GovernorInvalidVotingPeriod",
      "type": "error"
    },
    {
      "inputs": [
        {
          "internalType": "uint256",
          "name": "proposalId",
          "type": "uint256"
        }
      ],
      "name": "GovernorNonexistentProposal",
      "type": "error"
    },
    {
      "inputs": [
        {
          "internalType": "uint256",
          "name": "proposalId",
          "type": "uint256"
        }
      ],
      "name": "GovernorNotQueuedProposal",
      "type": "error"
    },
    {
      "inputs": [],
      "name": "GovernorNotSet",
      "type": "error"
    },
    {
      "inputs": [
        {
          "internalType": "address",
          "name": "account",
          "type": "address"
        }
      ],
      "name": "GovernorOnlyExecutor",
      "type": "error"
    },
    {
      "inputs": [
        {
          "internalType": "address",
          "name": "account",
          "type": "address"
        }
      ],
      "name": "GovernorOnlyProposer",
      "type": "error"
    },
    {
      "inputs": [],
      "name": "GovernorQueueNotImplemented",
      "type": "error"
    },
    {
      "inputs": [
        {
          "internalType": "address",
          "name": "proposer",
          "type": "address"
        }
      ],
      "name": "GovernorRestrictedProposer",
      "type": "error"
    },
    {
      "inputs": [
        {
          "internalType": "uint256",
          "name": "proposalId",
          "type": "uint256"
        },
        {
          "internalType": "enum IGovernor.ProposalState",
          "name": "current",
          "type": "uint8"
        },
        {
          "internalType": "bytes32",
          "name": "expectedStates",
          "type": "bytes32"
        }
      ],
      "name": "GovernorUnexpectedProposalState",
      "type": "error"
    },
    {
      "inputs": [
        {
          "internalType": "address",
          "name": "account",
          "type": "address"
        },
        {
          "internalType": "uint256",
          "name": "currentNonce",
          "type": "uint256"
        }
      ],
      "name": "InvalidAccountNonce",
      "type": "error"
    },
    {
      "inputs": [],
      "name": "InvalidDelegate",
      "type": "error"
    },
    {
      "inputs": [],
      "name": "InvalidEndpointCall",
      "type": "error"
    },
    {
      "inputs": [],
      "name": "InvalidShortString",
      "type": "error"
    },
    {
      "inputs": [],
      "name": "LzTokenUnavailable",
      "type": "error"
    },
    {
      "inputs": [
        {
          "internalType": "uint32",
          "name": "eid",
          "type": "uint32"
        }
      ],
      "name": "NoPeer",
      "type": "error"
    },
    {
      "inputs": [
        {
          "internalType": "uint256",
          "name": "msgValue",
          "type": "uint256"
        }
      ],
      "name": "NotEnoughNative",
      "type": "error"
    },
    {
      "inputs": [
        {
          "internalType": "address",
          "name": "addr",
          "type": "address"
        }
      ],
      "name": "OnlyEndpoint",
      "type": "error"
    },
    {
      "inputs": [
        {
          "internalType": "uint32",
          "name": "eid",
          "type": "uint32"
        },
        {
          "internalType": "bytes32",
          "name": "sender",
          "type": "bytes32"
        }
      ],
      "name": "OnlyPeer",
      "type": "error"
    },
    {
      "inputs": [
        {
          "internalType": "address",
          "name": "owner",
          "type": "address"
        }
      ],
      "name": "OwnableInvalidOwner",
      "type": "error"
    },
    {
      "inputs": [
        {
          "internalType": "address",
          "name": "account",
          "type": "address"
        }
      ],
      "name": "OwnableUnauthorizedAccount",
      "type": "error"
    },
    {
      "inputs": [
        {
          "internalType": "uint8",
          "name": "bits",
          "type": "uint8"
        },
        {
          "internalType": "uint256",
          "name": "value",
          "type": "uint256"
        }
      ],
      "name": "SafeCastOverflowedUintDowncast",
      "type": "error"
    },
    {
      "inputs": [
        {
          "internalType": "address",
          "name": "token",
          "type": "address"
        }
      ],
      "name": "SafeERC20FailedOperation",
      "type": "error"
    },
    {
      "inputs": [
        {
          "internalType": "string",
          "name": "str",
          "type": "string"
        }
      ],
      "name": "StringTooLong",
      "type": "error"
    },
    {
      "inputs": [],
      "name": "SummerGovernorInvalidCaller",
      "type": "error"
    },
    {
      "inputs": [
        {
          "internalType": "uint256",
          "name": "chainId",
          "type": "uint256"
        },
        {
          "internalType": "uint256",
          "name": "proposalChainId",
          "type": "uint256"
        }
      ],
      "name": "SummerGovernorInvalidChain",
      "type": "error"
    },
    {
      "inputs": [],
      "name": "SummerGovernorInvalidPeerArrays",
      "type": "error"
    },
    {
      "inputs": [
        {
          "internalType": "uint256",
          "name": "proposalThreshold",
          "type": "uint256"
        },
        {
          "internalType": "uint256",
          "name": "minThreshold",
          "type": "uint256"
        },
        {
          "internalType": "uint256",
          "name": "maxThreshold",
          "type": "uint256"
        }
      ],
      "name": "SummerGovernorInvalidProposalThreshold",
      "type": "error"
    },
    {
      "inputs": [
        {
          "internalType": "address",
          "name": "trustedRemote",
          "type": "address"
        }
      ],
      "name": "SummerGovernorInvalidTrustedRemote",
      "type": "error"
    },
    {
      "inputs": [
        {
          "internalType": "address",
          "name": "whitelistGuardian",
          "type": "address"
        }
      ],
      "name": "SummerGovernorInvalidWhitelistGuardian",
      "type": "error"
    },
    {
      "inputs": [
        {
          "internalType": "address",
          "name": "proposer",
          "type": "address"
        },
        {
          "internalType": "uint256",
          "name": "votes",
          "type": "uint256"
        },
        {
          "internalType": "uint256",
          "name": "threshold",
          "type": "uint256"
        }
      ],
      "name": "SummerGovernorProposerBelowThresholdAndNotWhitelisted",
      "type": "error"
    },
    {
      "inputs": [
        {
          "internalType": "address",
          "name": "caller",
          "type": "address"
        },
        {
          "internalType": "address",
          "name": "proposer",
          "type": "address"
        },
        {
          "internalType": "uint256",
          "name": "votes",
          "type": "uint256"
        },
        {
          "internalType": "uint256",
          "name": "threshold",
          "type": "uint256"
        }
      ],
      "name": "SummerGovernorUnauthorizedCancellation",
      "type": "error"
    },
    {
      "anonymous": false,
      "inputs": [],
      "name": "EIP712DomainChanged",
      "type": "event"
    },
    {
      "anonymous": false,
      "inputs": [
        {
          "indexed": true,
          "internalType": "address",
          "name": "previousOwner",
          "type": "address"
        },
        {
          "indexed": true,
          "internalType": "address",
          "name": "newOwner",
          "type": "address"
        }
      ],
      "name": "OwnershipTransferred",
      "type": "event"
    },
    {
      "anonymous": false,
      "inputs": [
        {
          "indexed": false,
          "internalType": "uint32",
          "name": "eid",
          "type": "uint32"
        },
        {
          "indexed": false,
          "internalType": "bytes32",
          "name": "peer",
          "type": "bytes32"
        }
      ],
      "name": "PeerSet",
      "type": "event"
    },
    {
      "anonymous": false,
      "inputs": [
        {
          "indexed": false,
          "internalType": "uint256",
          "name": "proposalId",
          "type": "uint256"
        }
      ],
      "name": "ProposalCanceled",
      "type": "event"
    },
    {
      "anonymous": false,
      "inputs": [
        {
          "indexed": false,
          "internalType": "uint256",
          "name": "proposalId",
          "type": "uint256"
        },
        {
          "indexed": false,
          "internalType": "address",
          "name": "proposer",
          "type": "address"
        },
        {
          "indexed": false,
          "internalType": "address[]",
          "name": "targets",
          "type": "address[]"
        },
        {
          "indexed": false,
          "internalType": "uint256[]",
          "name": "values",
          "type": "uint256[]"
        },
        {
          "indexed": false,
          "internalType": "string[]",
          "name": "signatures",
          "type": "string[]"
        },
        {
          "indexed": false,
          "internalType": "bytes[]",
          "name": "calldatas",
          "type": "bytes[]"
        },
        {
          "indexed": false,
          "internalType": "uint256",
          "name": "voteStart",
          "type": "uint256"
        },
        {
          "indexed": false,
          "internalType": "uint256",
          "name": "voteEnd",
          "type": "uint256"
        },
        {
          "indexed": false,
          "internalType": "string",
          "name": "description",
          "type": "string"
        }
      ],
      "name": "ProposalCreated",
      "type": "event"
    },
    {
      "anonymous": false,
      "inputs": [
        {
          "indexed": false,
          "internalType": "uint256",
          "name": "proposalId",
          "type": "uint256"
        }
      ],
      "name": "ProposalExecuted",
      "type": "event"
    },
    {
      "anonymous": false,
      "inputs": [
        {
          "indexed": false,
          "internalType": "uint256",
          "name": "proposalId",
          "type": "uint256"
        },
        {
          "indexed": false,
          "internalType": "uint256",
          "name": "etaSeconds",
          "type": "uint256"
        }
      ],
      "name": "ProposalQueued",
      "type": "event"
    },
    {
      "anonymous": false,
      "inputs": [
        {
          "indexed": true,
          "internalType": "uint256",
          "name": "proposalId",
          "type": "uint256"
        },
        {
          "indexed": true,
          "internalType": "uint32",
          "name": "srcEid",
          "type": "uint32"
        }
      ],
      "name": "ProposalReceivedCrossChain",
      "type": "event"
    },
    {
      "anonymous": false,
      "inputs": [
        {
          "indexed": true,
          "internalType": "uint256",
          "name": "proposalId",
          "type": "uint256"
        },
        {
          "indexed": true,
          "internalType": "uint32",
          "name": "dstEid",
          "type": "uint32"
        }
      ],
      "name": "ProposalSentCrossChain",
      "type": "event"
    },
    {
      "anonymous": false,
      "inputs": [
        {
          "indexed": false,
          "internalType": "uint256",
          "name": "oldProposalThreshold",
          "type": "uint256"
        },
        {
          "indexed": false,
          "internalType": "uint256",
          "name": "newProposalThreshold",
          "type": "uint256"
        }
      ],
      "name": "ProposalThresholdSet",
      "type": "event"
    },
    {
      "anonymous": false,
      "inputs": [
        {
          "indexed": false,
          "internalType": "uint256",
          "name": "oldQuorumNumerator",
          "type": "uint256"
        },
        {
          "indexed": false,
          "internalType": "uint256",
          "name": "newQuorumNumerator",
          "type": "uint256"
        }
      ],
      "name": "QuorumNumeratorUpdated",
      "type": "event"
    },
    {
      "anonymous": false,
      "inputs": [
        {
          "indexed": false,
          "internalType": "address",
          "name": "oldTimelock",
          "type": "address"
        },
        {
          "indexed": false,
          "internalType": "address",
          "name": "newTimelock",
          "type": "address"
        }
      ],
      "name": "TimelockChange",
      "type": "event"
    },
    {
      "anonymous": false,
      "inputs": [
        {
          "indexed": true,
          "internalType": "address",
          "name": "voter",
          "type": "address"
        },
        {
          "indexed": false,
          "internalType": "uint256",
          "name": "proposalId",
          "type": "uint256"
        },
        {
          "indexed": false,
          "internalType": "uint8",
          "name": "support",
          "type": "uint8"
        },
        {
          "indexed": false,
          "internalType": "uint256",
          "name": "weight",
          "type": "uint256"
        },
        {
          "indexed": false,
          "internalType": "string",
          "name": "reason",
          "type": "string"
        }
      ],
      "name": "VoteCast",
      "type": "event"
    },
    {
      "anonymous": false,
      "inputs": [
        {
          "indexed": true,
          "internalType": "address",
          "name": "voter",
          "type": "address"
        },
        {
          "indexed": false,
          "internalType": "uint256",
          "name": "proposalId",
          "type": "uint256"
        },
        {
          "indexed": false,
          "internalType": "uint8",
          "name": "support",
          "type": "uint8"
        },
        {
          "indexed": false,
          "internalType": "uint256",
          "name": "weight",
          "type": "uint256"
        },
        {
          "indexed": false,
          "internalType": "string",
          "name": "reason",
          "type": "string"
        },
        {
          "indexed": false,
          "internalType": "bytes",
          "name": "params",
          "type": "bytes"
        }
      ],
      "name": "VoteCastWithParams",
      "type": "event"
    },
    {
      "anonymous": false,
      "inputs": [
        {
          "indexed": false,
          "internalType": "uint256",
          "name": "oldVotingDelay",
          "type": "uint256"
        },
        {
          "indexed": false,
          "internalType": "uint256",
          "name": "newVotingDelay",
          "type": "uint256"
        }
      ],
      "name": "VotingDelaySet",
      "type": "event"
    },
    {
      "anonymous": false,
      "inputs": [
        {
          "indexed": false,
          "internalType": "uint256",
          "name": "oldVotingPeriod",
          "type": "uint256"
        },
        {
          "indexed": false,
          "internalType": "uint256",
          "name": "newVotingPeriod",
          "type": "uint256"
        }
      ],
      "name": "VotingPeriodSet",
      "type": "event"
    },
    {
      "anonymous": false,
      "inputs": [
        {
          "indexed": true,
          "internalType": "address",
          "name": "account",
          "type": "address"
        },
        {
          "indexed": false,
          "internalType": "uint256",
          "name": "expiration",
          "type": "uint256"
        }
      ],
      "name": "WhitelistAccountExpirationSet",
      "type": "event"
    },
    {
      "anonymous": false,
      "inputs": [
        {
          "indexed": true,
          "internalType": "address",
          "name": "newGuardian",
          "type": "address"
        }
      ],
      "name": "WhitelistGuardianSet",
      "type": "event"
    },
    {
      "inputs": [],
      "name": "BALLOT_TYPEHASH",
      "outputs": [
        {
          "internalType": "bytes32",
          "name": "",
          "type": "bytes32"
        }
      ],
      "stateMutability": "view",
      "type": "function"
    },
    {
      "inputs": [],
      "name": "CLOCK_MODE",
      "outputs": [
        {
          "internalType": "string",
          "name": "",
          "type": "string"
        }
      ],
      "stateMutability": "view",
      "type": "function"
    },
    {
      "inputs": [],
      "name": "COUNTING_MODE",
      "outputs": [
        {
          "internalType": "string",
          "name": "",
          "type": "string"
        }
      ],
      "stateMutability": "pure",
      "type": "function"
    },
    {
      "inputs": [],
      "name": "EXTENDED_BALLOT_TYPEHASH",
      "outputs": [
        {
          "internalType": "bytes32",
          "name": "",
          "type": "bytes32"
        }
      ],
      "stateMutability": "view",
      "type": "function"
    },
    {
      "inputs": [],
      "name": "MAX_PROPOSAL_THRESHOLD",
      "outputs": [
        {
          "internalType": "uint256",
          "name": "",
          "type": "uint256"
        }
      ],
      "stateMutability": "view",
      "type": "function"
    },
    {
      "inputs": [],
      "name": "MIN_PROPOSAL_THRESHOLD",
      "outputs": [
        {
          "internalType": "uint256",
          "name": "",
          "type": "uint256"
        }
      ],
      "stateMutability": "view",
      "type": "function"
    },
    {
      "inputs": [
        {
          "components": [
            {
              "internalType": "uint32",
              "name": "srcEid",
              "type": "uint32"
            },
            {
              "internalType": "bytes32",
              "name": "sender",
              "type": "bytes32"
            },
            {
              "internalType": "uint64",
              "name": "nonce",
              "type": "uint64"
            }
          ],
          "internalType": "struct Origin",
          "name": "origin",
          "type": "tuple"
        }
      ],
      "name": "allowInitializePath",
      "outputs": [
        {
          "internalType": "bool",
          "name": "",
          "type": "bool"
        }
      ],
      "stateMutability": "view",
      "type": "function"
    },
    {
      "inputs": [
        {
          "internalType": "address[]",
          "name": "targets",
          "type": "address[]"
        },
        {
          "internalType": "uint256[]",
          "name": "values",
          "type": "uint256[]"
        },
        {
          "internalType": "bytes[]",
          "name": "calldatas",
          "type": "bytes[]"
        },
        {
          "internalType": "bytes32",
          "name": "descriptionHash",
          "type": "bytes32"
        }
      ],
      "name": "cancel",
      "outputs": [
        {
          "internalType": "uint256",
          "name": "",
          "type": "uint256"
        }
      ],
      "stateMutability": "nonpayable",
      "type": "function"
    },
    {
      "inputs": [
        {
          "internalType": "uint256",
          "name": "proposalId",
          "type": "uint256"
        },
        {
          "internalType": "uint8",
          "name": "support",
          "type": "uint8"
        }
      ],
      "name": "castVote",
      "outputs": [
        {
          "internalType": "uint256",
          "name": "",
          "type": "uint256"
        }
      ],
      "stateMutability": "nonpayable",
      "type": "function"
    },
    {
      "inputs": [
        {
          "internalType": "uint256",
          "name": "proposalId",
          "type": "uint256"
        },
        {
          "internalType": "uint8",
          "name": "support",
          "type": "uint8"
        },
        {
          "internalType": "address",
          "name": "voter",
          "type": "address"
        },
        {
          "internalType": "bytes",
          "name": "signature",
          "type": "bytes"
        }
      ],
      "name": "castVoteBySig",
      "outputs": [
        {
          "internalType": "uint256",
          "name": "",
          "type": "uint256"
        }
      ],
      "stateMutability": "nonpayable",
      "type": "function"
    },
    {
      "inputs": [
        {
          "internalType": "uint256",
          "name": "proposalId",
          "type": "uint256"
        },
        {
          "internalType": "uint8",
          "name": "support",
          "type": "uint8"
        },
        {
          "internalType": "string",
          "name": "reason",
          "type": "string"
        }
      ],
      "name": "castVoteWithReason",
      "outputs": [
        {
          "internalType": "uint256",
          "name": "",
          "type": "uint256"
        }
      ],
      "stateMutability": "nonpayable",
      "type": "function"
    },
    {
      "inputs": [
        {
          "internalType": "uint256",
          "name": "proposalId",
          "type": "uint256"
        },
        {
          "internalType": "uint8",
          "name": "support",
          "type": "uint8"
        },
        {
          "internalType": "string",
          "name": "reason",
          "type": "string"
        },
        {
          "internalType": "bytes",
          "name": "params",
          "type": "bytes"
        }
      ],
      "name": "castVoteWithReasonAndParams",
      "outputs": [
        {
          "internalType": "uint256",
          "name": "",
          "type": "uint256"
        }
      ],
      "stateMutability": "nonpayable",
      "type": "function"
    },
    {
      "inputs": [
        {
          "internalType": "uint256",
          "name": "proposalId",
          "type": "uint256"
        },
        {
          "internalType": "uint8",
          "name": "support",
          "type": "uint8"
        },
        {
          "internalType": "address",
          "name": "voter",
          "type": "address"
        },
        {
          "internalType": "string",
          "name": "reason",
          "type": "string"
        },
        {
          "internalType": "bytes",
          "name": "params",
          "type": "bytes"
        },
        {
          "internalType": "bytes",
          "name": "signature",
          "type": "bytes"
        }
      ],
      "name": "castVoteWithReasonAndParamsBySig",
      "outputs": [
        {
          "internalType": "uint256",
          "name": "",
          "type": "uint256"
        }
      ],
      "stateMutability": "nonpayable",
      "type": "function"
    },
    {
      "inputs": [],
      "name": "clock",
      "outputs": [
        {
          "internalType": "uint48",
          "name": "",
          "type": "uint48"
        }
      ],
      "stateMutability": "view",
      "type": "function"
    },
    {
      "inputs": [],
      "name": "config",
      "outputs": [
        {
          "internalType": "address",
          "name": "whitelistGuardian",
          "type": "address"
        }
      ],
      "stateMutability": "view",
      "type": "function"
    },
    {
      "inputs": [],
      "name": "eip712Domain",
      "outputs": [
        {
          "internalType": "bytes1",
          "name": "fields",
          "type": "bytes1"
        },
        {
          "internalType": "string",
          "name": "name",
          "type": "string"
        },
        {
          "internalType": "string",
          "name": "version",
          "type": "string"
        },
        {
          "internalType": "uint256",
          "name": "chainId",
          "type": "uint256"
        },
        {
          "internalType": "address",
          "name": "verifyingContract",
          "type": "address"
        },
        {
          "internalType": "bytes32",
          "name": "salt",
          "type": "bytes32"
        },
        {
          "internalType": "uint256[]",
          "name": "extensions",
          "type": "uint256[]"
        }
      ],
      "stateMutability": "view",
      "type": "function"
    },
    {
      "inputs": [],
      "name": "endpoint",
      "outputs": [
        {
          "internalType": "contract ILayerZeroEndpointV2",
          "name": "",
          "type": "address"
        }
      ],
      "stateMutability": "view",
      "type": "function"
    },
    {
      "inputs": [
        {
          "internalType": "address[]",
          "name": "targets",
          "type": "address[]"
        },
        {
          "internalType": "uint256[]",
          "name": "values",
          "type": "uint256[]"
        },
        {
          "internalType": "bytes[]",
          "name": "calldatas",
          "type": "bytes[]"
        },
        {
          "internalType": "bytes32",
          "name": "descriptionHash",
          "type": "bytes32"
        }
      ],
      "name": "execute",
      "outputs": [
        {
          "internalType": "uint256",
          "name": "",
          "type": "uint256"
        }
      ],
      "stateMutability": "payable",
      "type": "function"
    },
    {
      "inputs": [
        {
          "internalType": "address",
          "name": "account",
          "type": "address"
        },
        {
          "internalType": "uint256",
          "name": "timepoint",
          "type": "uint256"
        }
      ],
      "name": "getVotes",
      "outputs": [
        {
          "internalType": "uint256",
          "name": "",
          "type": "uint256"
        }
      ],
      "stateMutability": "view",
      "type": "function"
    },
    {
      "inputs": [
        {
          "internalType": "address",
          "name": "account",
          "type": "address"
        },
        {
          "internalType": "uint256",
          "name": "timepoint",
          "type": "uint256"
        },
        {
          "internalType": "bytes",
          "name": "params",
          "type": "bytes"
        }
      ],
      "name": "getVotesWithParams",
      "outputs": [
        {
          "internalType": "uint256",
          "name": "",
          "type": "uint256"
        }
      ],
      "stateMutability": "view",
      "type": "function"
    },
    {
      "inputs": [
        {
          "internalType": "address",
          "name": "account",
          "type": "address"
        }
      ],
      "name": "getWhitelistAccountExpiration",
      "outputs": [
        {
          "internalType": "uint256",
          "name": "",
          "type": "uint256"
        }
      ],
      "stateMutability": "view",
      "type": "function"
    },
    {
      "inputs": [],
      "name": "getWhitelistGuardian",
      "outputs": [
        {
          "internalType": "address",
          "name": "",
          "type": "address"
        }
      ],
      "stateMutability": "view",
      "type": "function"
    },
    {
      "inputs": [
        {
          "internalType": "uint256",
          "name": "proposalId",
          "type": "uint256"
        },
        {
          "internalType": "address",
          "name": "account",
          "type": "address"
        }
      ],
      "name": "hasVoted",
      "outputs": [
        {
          "internalType": "bool",
          "name": "",
          "type": "bool"
        }
      ],
      "stateMutability": "view",
      "type": "function"
    },
    {
      "inputs": [
        {
          "internalType": "address[]",
          "name": "targets",
          "type": "address[]"
        },
        {
          "internalType": "uint256[]",
          "name": "values",
          "type": "uint256[]"
        },
        {
          "internalType": "bytes[]",
          "name": "calldatas",
          "type": "bytes[]"
        },
        {
          "internalType": "bytes32",
          "name": "descriptionHash",
          "type": "bytes32"
        }
      ],
      "name": "hashProposal",
      "outputs": [
        {
          "internalType": "uint256",
          "name": "",
          "type": "uint256"
        }
      ],
      "stateMutability": "pure",
      "type": "function"
    },
    {
      "inputs": [
        {
          "components": [
            {
              "internalType": "uint32",
              "name": "srcEid",
              "type": "uint32"
            },
            {
              "internalType": "bytes32",
              "name": "sender",
              "type": "bytes32"
            },
            {
              "internalType": "uint64",
              "name": "nonce",
              "type": "uint64"
            }
          ],
          "internalType": "struct Origin",
          "name": "",
          "type": "tuple"
        },
        {
          "internalType": "bytes",
          "name": "",
          "type": "bytes"
        },
        {
          "internalType": "address",
          "name": "_sender",
          "type": "address"
        }
      ],
      "name": "isComposeMsgSender",
      "outputs": [
        {
          "internalType": "bool",
          "name": "",
          "type": "bool"
        }
      ],
      "stateMutability": "view",
      "type": "function"
    },
    {
      "inputs": [
        {
          "internalType": "address",
          "name": "account",
          "type": "address"
        }
      ],
      "name": "isWhitelisted",
      "outputs": [
        {
          "internalType": "bool",
          "name": "",
          "type": "bool"
        }
      ],
      "stateMutability": "view",
      "type": "function"
    },
    {
      "inputs": [
        {
          "components": [
            {
              "internalType": "uint32",
              "name": "srcEid",
              "type": "uint32"
            },
            {
              "internalType": "bytes32",
              "name": "sender",
              "type": "bytes32"
            },
            {
              "internalType": "uint64",
              "name": "nonce",
              "type": "uint64"
            }
          ],
          "internalType": "struct Origin",
          "name": "_origin",
          "type": "tuple"
        },
        {
          "internalType": "bytes32",
          "name": "_guid",
          "type": "bytes32"
        },
        {
          "internalType": "bytes",
          "name": "_message",
          "type": "bytes"
        },
        {
          "internalType": "address",
          "name": "_executor",
          "type": "address"
        },
        {
          "internalType": "bytes",
          "name": "_extraData",
          "type": "bytes"
        }
      ],
      "name": "lzReceive",
      "outputs": [],
      "stateMutability": "payable",
      "type": "function"
    },
    {
      "inputs": [],
      "name": "name",
      "outputs": [
        {
          "internalType": "string",
          "name": "",
          "type": "string"
        }
      ],
      "stateMutability": "view",
      "type": "function"
    },
    {
      "inputs": [
        {
          "internalType": "uint32",
          "name": "",
          "type": "uint32"
        },
        {
          "internalType": "bytes32",
          "name": "",
          "type": "bytes32"
        }
      ],
      "name": "nextNonce",
      "outputs": [
        {
          "internalType": "uint64",
          "name": "nonce",
          "type": "uint64"
        }
      ],
      "stateMutability": "view",
      "type": "function"
    },
    {
      "inputs": [
        {
          "internalType": "address",
          "name": "owner",
          "type": "address"
        }
      ],
      "name": "nonces",
      "outputs": [
        {
          "internalType": "uint256",
          "name": "",
          "type": "uint256"
        }
      ],
      "stateMutability": "view",
      "type": "function"
    },
    {
      "inputs": [],
      "name": "oAppVersion",
      "outputs": [
        {
          "internalType": "uint64",
          "name": "senderVersion",
          "type": "uint64"
        },
        {
          "internalType": "uint64",
          "name": "receiverVersion",
          "type": "uint64"
        }
      ],
      "stateMutability": "pure",
      "type": "function"
    },
    {
      "inputs": [
        {
          "internalType": "address",
          "name": "",
          "type": "address"
        },
        {
          "internalType": "address",
          "name": "",
          "type": "address"
        },
        {
          "internalType": "uint256[]",
          "name": "",
          "type": "uint256[]"
        },
        {
          "internalType": "uint256[]",
          "name": "",
          "type": "uint256[]"
        },
        {
          "internalType": "bytes",
          "name": "",
          "type": "bytes"
        }
      ],
      "name": "onERC1155BatchReceived",
      "outputs": [
        {
          "internalType": "bytes4",
          "name": "",
          "type": "bytes4"
        }
      ],
      "stateMutability": "nonpayable",
      "type": "function"
    },
    {
      "inputs": [
        {
          "internalType": "address",
          "name": "",
          "type": "address"
        },
        {
          "internalType": "address",
          "name": "",
          "type": "address"
        },
        {
          "internalType": "uint256",
          "name": "",
          "type": "uint256"
        },
        {
          "internalType": "uint256",
          "name": "",
          "type": "uint256"
        },
        {
          "internalType": "bytes",
          "name": "",
          "type": "bytes"
        }
      ],
      "name": "onERC1155Received",
      "outputs": [
        {
          "internalType": "bytes4",
          "name": "",
          "type": "bytes4"
        }
      ],
      "stateMutability": "nonpayable",
      "type": "function"
    },
    {
      "inputs": [
        {
          "internalType": "address",
          "name": "",
          "type": "address"
        },
        {
          "internalType": "address",
          "name": "",
          "type": "address"
        },
        {
          "internalType": "uint256",
          "name": "",
          "type": "uint256"
        },
        {
          "internalType": "bytes",
          "name": "",
          "type": "bytes"
        }
      ],
      "name": "onERC721Received",
      "outputs": [
        {
          "internalType": "bytes4",
          "name": "",
          "type": "bytes4"
        }
      ],
      "stateMutability": "nonpayable",
      "type": "function"
    },
    {
      "inputs": [],
      "name": "owner",
      "outputs": [
        {
          "internalType": "address",
          "name": "",
          "type": "address"
        }
      ],
      "stateMutability": "view",
      "type": "function"
    },
    {
      "inputs": [
        {
          "internalType": "uint32",
          "name": "eid",
          "type": "uint32"
        }
      ],
      "name": "peers",
      "outputs": [
        {
          "internalType": "bytes32",
          "name": "peer",
          "type": "bytes32"
        }
      ],
      "stateMutability": "view",
      "type": "function"
    },
    {
      "inputs": [],
      "name": "proposalChainId",
      "outputs": [
        {
          "internalType": "uint32",
          "name": "",
          "type": "uint32"
        }
      ],
      "stateMutability": "view",
      "type": "function"
    },
    {
      "inputs": [
        {
          "internalType": "uint256",
          "name": "proposalId",
          "type": "uint256"
        }
      ],
      "name": "proposalDeadline",
      "outputs": [
        {
          "internalType": "uint256",
          "name": "",
          "type": "uint256"
        }
      ],
      "stateMutability": "view",
      "type": "function"
    },
    {
      "inputs": [
        {
          "internalType": "uint256",
          "name": "proposalId",
          "type": "uint256"
        }
      ],
      "name": "proposalEta",
      "outputs": [
        {
          "internalType": "uint256",
          "name": "",
          "type": "uint256"
        }
      ],
      "stateMutability": "view",
      "type": "function"
    },
    {
      "inputs": [
        {
          "internalType": "uint256",
          "name": "proposalId",
          "type": "uint256"
        }
      ],
      "name": "proposalNeedsQueuing",
      "outputs": [
        {
          "internalType": "bool",
          "name": "",
          "type": "bool"
        }
      ],
      "stateMutability": "view",
      "type": "function"
    },
    {
      "inputs": [
        {
          "internalType": "uint256",
          "name": "proposalId",
          "type": "uint256"
        }
      ],
      "name": "proposalProposer",
      "outputs": [
        {
          "internalType": "address",
          "name": "",
          "type": "address"
        }
      ],
      "stateMutability": "view",
      "type": "function"
    },
    {
      "inputs": [
        {
          "internalType": "uint256",
          "name": "proposalId",
          "type": "uint256"
        }
      ],
      "name": "proposalSnapshot",
      "outputs": [
        {
          "internalType": "uint256",
          "name": "",
          "type": "uint256"
        }
      ],
      "stateMutability": "view",
      "type": "function"
    },
    {
      "inputs": [],
      "name": "proposalThreshold",
      "outputs": [
        {
          "internalType": "uint256",
          "name": "",
          "type": "uint256"
        }
      ],
      "stateMutability": "view",
      "type": "function"
    },
    {
      "inputs": [
        {
          "internalType": "uint256",
          "name": "proposalId",
          "type": "uint256"
        }
      ],
      "name": "proposalVotes",
      "outputs": [
        {
          "internalType": "uint256",
          "name": "againstVotes",
          "type": "uint256"
        },
        {
          "internalType": "uint256",
          "name": "forVotes",
          "type": "uint256"
        },
        {
          "internalType": "uint256",
          "name": "abstainVotes",
          "type": "uint256"
        }
      ],
      "stateMutability": "view",
      "type": "function"
    },
    {
      "inputs": [
        {
          "internalType": "address[]",
          "name": "targets",
          "type": "address[]"
        },
        {
          "internalType": "uint256[]",
          "name": "values",
          "type": "uint256[]"
        },
        {
          "internalType": "bytes[]",
          "name": "calldatas",
          "type": "bytes[]"
        },
        {
          "internalType": "string",
          "name": "description",
          "type": "string"
        }
      ],
      "name": "propose",
      "outputs": [
        {
          "internalType": "uint256",
          "name": "",
          "type": "uint256"
        }
      ],
      "stateMutability": "nonpayable",
      "type": "function"
    },
    {
      "inputs": [
        {
          "internalType": "address[]",
          "name": "targets",
          "type": "address[]"
        },
        {
          "internalType": "uint256[]",
          "name": "values",
          "type": "uint256[]"
        },
        {
          "internalType": "bytes[]",
          "name": "calldatas",
          "type": "bytes[]"
        },
        {
          "internalType": "bytes32",
          "name": "descriptionHash",
          "type": "bytes32"
        }
      ],
      "name": "queue",
      "outputs": [
        {
          "internalType": "uint256",
          "name": "",
          "type": "uint256"
        }
      ],
      "stateMutability": "nonpayable",
      "type": "function"
    },
    {
      "inputs": [
        {
          "internalType": "uint256",
          "name": "timepoint",
          "type": "uint256"
        }
      ],
      "name": "quorum",
      "outputs": [
        {
          "internalType": "uint256",
          "name": "",
          "type": "uint256"
        }
      ],
      "stateMutability": "view",
      "type": "function"
    },
    {
      "inputs": [],
      "name": "quorumDenominator",
      "outputs": [
        {
          "internalType": "uint256",
          "name": "",
          "type": "uint256"
        }
      ],
      "stateMutability": "view",
      "type": "function"
    },
    {
      "inputs": [
        {
          "internalType": "uint256",
          "name": "timepoint",
          "type": "uint256"
        }
      ],
      "name": "quorumNumerator",
      "outputs": [
        {
          "internalType": "uint256",
          "name": "",
          "type": "uint256"
        }
      ],
      "stateMutability": "view",
      "type": "function"
    },
    {
      "inputs": [],
      "name": "quorumNumerator",
      "outputs": [
        {
          "internalType": "uint256",
          "name": "",
          "type": "uint256"
        }
      ],
      "stateMutability": "view",
      "type": "function"
    },
    {
      "inputs": [
        {
          "internalType": "address",
          "name": "target",
          "type": "address"
        },
        {
          "internalType": "uint256",
          "name": "value",
          "type": "uint256"
        },
        {
          "internalType": "bytes",
          "name": "data",
          "type": "bytes"
        }
      ],
      "name": "relay",
      "outputs": [],
      "stateMutability": "payable",
      "type": "function"
    },
    {
      "inputs": [],
      "name": "renounceOwnership",
      "outputs": [],
      "stateMutability": "nonpayable",
      "type": "function"
    },
    {
      "inputs": [
        {
          "internalType": "uint32",
          "name": "_dstEid",
          "type": "uint32"
        },
        {
          "internalType": "address[]",
          "name": "_dstTargets",
          "type": "address[]"
        },
        {
          "internalType": "uint256[]",
          "name": "_dstValues",
          "type": "uint256[]"
        },
        {
          "internalType": "bytes[]",
          "name": "_dstCalldatas",
          "type": "bytes[]"
        },
        {
          "internalType": "bytes32",
          "name": "_dstDescriptionHash",
          "type": "bytes32"
        },
        {
          "internalType": "bytes",
          "name": "_options",
          "type": "bytes"
        }
      ],
      "name": "sendProposalToTargetChain",
      "outputs": [],
      "stateMutability": "nonpayable",
      "type": "function"
    },
    {
      "inputs": [
        {
          "internalType": "address",
          "name": "_delegate",
          "type": "address"
        }
      ],
      "name": "setDelegate",
      "outputs": [],
      "stateMutability": "nonpayable",
      "type": "function"
    },
    {
      "inputs": [
        {
          "internalType": "uint32",
          "name": "_eid",
          "type": "uint32"
        },
        {
          "internalType": "bytes32",
          "name": "_peer",
          "type": "bytes32"
        }
      ],
      "name": "setPeer",
      "outputs": [],
      "stateMutability": "nonpayable",
      "type": "function"
    },
    {
      "inputs": [
        {
          "internalType": "uint256",
          "name": "newProposalThreshold",
          "type": "uint256"
        }
      ],
      "name": "setProposalThreshold",
      "outputs": [],
      "stateMutability": "nonpayable",
      "type": "function"
    },
    {
      "inputs": [
        {
          "internalType": "uint48",
          "name": "newVotingDelay",
          "type": "uint48"
        }
      ],
      "name": "setVotingDelay",
      "outputs": [],
      "stateMutability": "nonpayable",
      "type": "function"
    },
    {
      "inputs": [
        {
          "internalType": "uint32",
          "name": "newVotingPeriod",
          "type": "uint32"
        }
      ],
      "name": "setVotingPeriod",
      "outputs": [],
      "stateMutability": "nonpayable",
      "type": "function"
    },
    {
      "inputs": [
        {
          "internalType": "address",
          "name": "account",
          "type": "address"
        },
        {
          "internalType": "uint256",
          "name": "expiration",
          "type": "uint256"
        }
      ],
      "name": "setWhitelistAccountExpiration",
      "outputs": [],
      "stateMutability": "nonpayable",
      "type": "function"
    },
    {
      "inputs": [
        {
          "internalType": "address",
          "name": "_whitelistGuardian",
          "type": "address"
        }
      ],
      "name": "setWhitelistGuardian",
      "outputs": [],
      "stateMutability": "nonpayable",
      "type": "function"
    },
    {
      "inputs": [
        {
          "internalType": "uint256",
          "name": "proposalId",
          "type": "uint256"
        }
      ],
      "name": "state",
      "outputs": [
        {
          "internalType": "enum IGovernor.ProposalState",
          "name": "",
          "type": "uint8"
        }
      ],
      "stateMutability": "view",
      "type": "function"
    },
    {
      "inputs": [],
      "name": "summerToken",
      "outputs": [
        {
          "internalType": "contract ISummerToken",
          "name": "",
          "type": "address"
        }
      ],
      "stateMutability": "view",
      "type": "function"
    },
    {
      "inputs": [
        {
          "internalType": "bytes4",
          "name": "interfaceId",
          "type": "bytes4"
        }
      ],
      "name": "supportsInterface",
      "outputs": [
        {
          "internalType": "bool",
          "name": "",
          "type": "bool"
        }
      ],
      "stateMutability": "view",
      "type": "function"
    },
    {
      "inputs": [],
      "name": "timelock",
      "outputs": [
        {
          "internalType": "address",
          "name": "",
          "type": "address"
        }
      ],
      "stateMutability": "view",
      "type": "function"
    },
    {
      "inputs": [],
      "name": "token",
      "outputs": [
        {
          "internalType": "contract IERC5805",
          "name": "",
          "type": "address"
        }
      ],
      "stateMutability": "view",
      "type": "function"
    },
    {
      "inputs": [
        {
          "internalType": "address",
          "name": "newOwner",
          "type": "address"
        }
      ],
      "name": "transferOwnership",
      "outputs": [],
      "stateMutability": "nonpayable",
      "type": "function"
    },
    {
      "inputs": [
        {
          "internalType": "uint256",
          "name": "newQuorumNumerator",
          "type": "uint256"
        }
      ],
      "name": "updateQuorumNumerator",
      "outputs": [],
      "stateMutability": "nonpayable",
      "type": "function"
    },
    {
      "inputs": [
        {
          "internalType": "contract TimelockController",
          "name": "newTimelock",
          "type": "address"
        }
      ],
      "name": "updateTimelock",
      "outputs": [],
      "stateMutability": "nonpayable",
      "type": "function"
    },
    {
      "inputs": [],
      "name": "version",
      "outputs": [
        {
          "internalType": "string",
          "name": "",
          "type": "string"
        }
      ],
      "stateMutability": "view",
      "type": "function"
    },
    {
      "inputs": [],
      "name": "votingDelay",
      "outputs": [
        {
          "internalType": "uint256",
          "name": "",
          "type": "uint256"
        }
      ],
      "stateMutability": "view",
      "type": "function"
    },
    {
      "inputs": [],
      "name": "votingPeriod",
      "outputs": [
        {
          "internalType": "uint256",
          "name": "",
          "type": "uint256"
        }
      ],
      "stateMutability": "view",
      "type": "function"
    },
    {
      "stateMutability": "payable",
      "type": "receive"
    }
  ],
  "bytecode": "0x6101e0604052346101265761001a6100156102aa565b610409565b604051614c099081611064823960805181614099015260a05181614150015260c05181614063015260e051816140e80152610100518161410e01526101205181611996015261014051816119c2015261016051818181611c800152818161224d0152818161240d015281816124f001528181612f9601528181613638015281816138c601528181613bf501528181613cb30152614963015261018051818181610eaf0152818161118b015281816112fd015281816124ac0152612d5001526101a0518181816107b10152818161142801528181611fa5015281816144ac015281816146080152614a9501526101c051818181610e60015281816118c90152818161263d0152612adb0152f35b5f80fd5b634e487b7160e01b5f52604160045260245ffd5b601f909101601f19168101906001600160401b0382119082101761016157604052565b61012a565b604051906101766101608361013e565b565b6040519061017660408361013e565b6001600160a01b0381160361012657565b519061017682610187565b519065ffffffffffff8216820361012657565b519063ffffffff8216820361012657565b6001600160401b0381116101615760051b60200190565b9080601f830112156101265781516101f5816101c7565b92610203604051948561013e565b81845260208085019260051b82010192831161012657602001905b82821061022b5750505090565b60208091610238846101b6565b81520191019061021e565b9080601f8301121561012657815161025a816101c7565b92610268604051948561013e565b81845260208085019260051b82010192831161012657602001905b8282106102905750505090565b60208091835161029f81610187565b815201910190610283565b615c8d80380380604051926102bf828561013e565b8339810190602081830312610126578051906001600160401b038211610126570161016081830312610126576102f3610166565b916102fd82610198565b835261030b60208301610198565b602084015261031c604083016101a3565b604084015261032d606083016101b6565b60608401526080820151608084015260a082015160a084015261035260c08301610198565b60c084015261036360e08301610198565b60e084015261037561010083016101b6565b6101008401526101208201516001600160401b038111610126578161039b9184016101de565b6101208401526101408201516001600160401b038111610126576103bf9201610243565b61014082015290565b604051906103d760408361013e565b60018252565b604051906103ec60408361013e565b600e82526d29bab6b6b2b923b7bb32b93737b960911b6020830152565b60e08101516020820151825160a08401516040850151610176959461047b946001600160a01b039485169461047594928116939116918291869065ffffffffffff169061045d60608b015163ffffffff1690565b9260808b01988951958061046f6103dd565b996104c9565b516107f6565b60c0810151610492906001600160a01b0316610850565b61010081015163ffffffff166101c052610140610120820151910151906108d6565b5f91031261012657565b6040513d5f823e3d90fd5b98966105976105b3976105926105a1969a61058d61059c969f9d979d9a999a6104f06103c8565b60208101603160f81b815261050483610bd9565b6101205261051182610cc9565b6101405282516020840120918260e05251902080610100524660a0526040519060208201927f8b73c3c69bb8fe3d512ecc4cf759cc79239f7b179b0ffacaa9a75d522b39400f8452604083015260608201524660808201523060a082015260a0815261057e60c08261013e565b5190206080523060c052610711565b610b86565b610a7f565b610acc565b610b4d565b6001600160a01b0316610160526109b7565b6001600160a01b0316801561067b57610180526001600160a01b03811615610667576105de9061096f565b6001600160a01b039081166101a081905290821615610658576001600160a01b0316803b156101265760405163ca5eb5e160e01b81526001600160a01b039290921660048301525f908290602490829084905af180156106535761063f5750565b8061064d5f6101769361013e565b806104b4565b6104be565b632d618d8160e21b5f5260045ffd5b631e4fbdf760e01b5f90815260045260245ffd5b6334566e4b60e21b5f5260045ffd5b90600182811c921680156106b8575b60208310146106a457565b634e487b7160e01b5f52602260045260245ffd5b91607f1691610699565b601f82116106cf57505050565b5f5260205f20906020601f840160051c83019310610707575b601f0160051c01905b8181106106fc575050565b5f81556001016106f1565b90915081906106e8565b80519091906001600160401b0381116101615761073a8161073360035461068a565b60036106c2565b602092601f821160011461077a5761076a929382915f9261076f575b50508160011b915f199060031b1c19161790565b600355565b015190505f80610756565b60035f52601f198216937fc2575a0e9e593c00f959f8c92f12db2869c3395a3b0502d05e2516446f71f85b915f5b8681106107de57508360019596106107c6575b505050811b01600355565b01515f1960f88460031b161c191690555f80806107bb565b919260206001819286850151815501940192016107a8565b683635c9adc5dea000008110801561083d575b6108105750565b6309c6075760e01b5f52600452683635c9adc5dea0000060245269152d02c7e14af680000060445260645ffd5b5069152d02c7e14af68000008111610809565b6001600160a01b0316801561089757601080546001600160a01b031916821790557f7b8ac9dc00c39ab43cee17ce9ec96af81b02a21526626b7701fc69cb025711c25f80a2565b63224fa21960e21b5f5260045260245ffd5b634e487b7160e01b5f52603260045260245ffd5b80518210156108d15760209160051b010190565b6108a9565b9190918051801561095a57835103610960575f5b815181101561095a57807f238399d427b947898edb290f5ff0f9109849b1c3ba196a42e35f00c50a54b98b604063ffffffff610928600195876108bd565b5116848060a01b0361093a858a6108bd565b5116815f52600e60205280835f205582519182526020820152a1016108ea565b50509050565b638158df6160e01b5f5260045ffd5b600d80546001600160a01b039283166001600160a01b0319821681179092559091167f8be0079c531659141344cd1fd0a4f28419497f9722a3daafe3b4186f6b6457e05f80a3565b60648111610a6857600c549081610a08575f516020615c6d5f395f51905f5291505f5b6109f46109e5610e65565b6109ee84610dbb565b90610f5a565b5050604080519182526020820192909252a1565b815f19810111610a5457600c5f527fdf6966c971051c3d54ec59162606531493a51404a002842f56009d7e5cf4a8c691909101545f516020615c6d5f395f51905f52919060301c6109da565b634e487b7160e01b5f52601160045260245ffd5b63243e544560e01b5f52600452606460245260445ffd5b600a547fc565b045403dc03c2eea82b81a0465edad9e2e7fc4d97e11421c209da93d7a93604065ffffffffffff81519481851686521693846020820152a165ffffffffffff191617600a55565b63ffffffff8116908115610b3a5769ffffffff000000000000907f7e3f7f0708a84de9203036abaa450dccc85ad5ff52f78c170f3edb55cf5e88286040600a549481519063ffffffff8760301c1682526020820152a160301b169069ffffffff000000000000191617600a55565b63f1cfbf0560e01b5f525f60045260245ffd5b60095460408051918252602082018390527fccb45da8d5717e6c4544694297c4ba5cf151d455c9bb0ed4fc7a38411bc0546191a1600955565b600754604080516001600160a01b03808416825290931660208401819052927f08f74ea46ef7894f65eabfb5e6e695de773a000b47c529ab559178069b2264019190a16001600160a01b03191617600755565b908151602081105f14610bf4575090610bf190610dec565b90565b6001600160401b03811161016157610c1681610c105f5461068a565b5f6106c2565b602092601f8211600114610c4c57610c45929382915f9261076f5750508160011b915f199060031b1c19161790565b5f5560ff90565b5f8052601f198216937f290decd9548b62a8d60345a988386fc84ba6bc95484008f6362f93160ef3e563915f5b868110610cb15750836001959610610c99575b505050811b015f5560ff90565b01515f1960f88460031b161c191690555f8080610c8c565b91926020600181928685015181550194019201610c79565b908151602081105f14610ce1575090610bf190610dec565b6001600160401b03811161016157610d0581610cfe60015461068a565b60016106c2565b602092601f8211600114610d3c57610d34929382915f9261076f5750508160011b915f199060031b1c19161790565b60015560ff90565b60015f52601f198216937fb10e2d527612073b26eecdfd717e6a320cf44b4afac2b0732d9fcbe2b7fa0cf6915f5b868110610da35750836001959610610d8b575b505050811b0160015560ff90565b01515f1960f88460031b161c191690555f8080610d7d565b91926020600181928685015181550194019201610d6a565b6001600160d01b038111610dd5576001600160d01b031690565b6306dfcc6560e41b5f5260d060045260245260445ffd5b601f815111610e17576020815191015160208210610e08571790565b5f198260200360031b1b161790565b604460209160405192839163305a27a960e01b83528160048401528051918291826024860152018484015e5f828201840152601f01601f19168101030190fd5b5f19810191908211610a5457565b610160516040516324776b7d60e21b815290602090829060049082906001600160a01b03165afa5f9181610ecb575b50610bf1575065ffffffffffff4311610eb35765ffffffffffff431690565b6306dfcc6560e41b5f5260306004524360245260445ffd5b9091506020813d602011610eff575b81610ee76020938361013e565b8101031261012657610ef8906101a3565b905f610e94565b3d9150610eda565b9081546801000000000000000081101561016157600181018084558110156108d1575f9283526020928390208251929093015160301b65ffffffffffff191665ffffffffffff9290921691909117910155565b600c54919291801561103a57610f72610f9b91610e57565b600c5f527fdf6966c971051c3d54ec59162606531493a51404a002842f56009d7e5cf4a8c70190565b908154610fb7610fb08265ffffffffffff1690565b9160301c90565b9265ffffffffffff80841692169180831161102b57869203610ff557610ff192509065ffffffffffff82549181199060301b169116179055565b9190565b5050610ff190611014611006610178565b65ffffffffffff9092168252565b6001600160d01b03851660208201525b600c610f07565b632520601d60e01b5f5260045ffd5b5061105e9061104a611006610178565b6001600160d01b0384166020820152611024565b5f919056fe6080604052600436101561001a575b3615610018575f80fd5b005b5f3560e01c806301ffc9a71461048457806302a251a31461047f57806306f3f9e61461047a57806306fdde031461047557806313137d6514610470578063143489d01461046b578063150b7a0214610466578063160cbed71461046157806317442b701461045c57806325fd935a146104575780632656227d146104525780632d63f6931461044d5780632fe3e261146104485780633400288b146104435780633932abb11461043e5780633af32abf146104395780633e4f49e614610434578063438596321461042f578063452115d61461042a5780634bf5d7e914610425578063544ffc9c1461042057806354fd4d501461041b57806356781388146104165780635b8d0e0d146104115780635e280f111461040c5780635f398a141461040757806360c4247f146104025780636f283761146103fd578063715018a6146103f8578063768e7812146103f357806379051887146103ee578063791f5d23146103e957806379502c55146103e4578063798ec935146103e45780637b3c71d3146103df5780637d25a05e146103da5780637d5e81e2146103d55780637ecebe00146103d057806380c176eb146103cb57806382413eac146103c657806384b0196e146103c15780638da5cb5b146103bc5780638ff262e3146103b757806391ddadf4146103b257806395df68c3146103ad57806397c3d334146103a85780639a802a6d146103a3578063a7713a701461039e578063a890c91014610399578063a9a9529414610394578063ab58fb8e1461038f578063b58131b01461038a578063bb0b6a5314610385578063bc197c8114610380578063c01f9e371461037b578063c28bc2fa14610376578063c59057e414610371578063ca5eb5e11461036c578063d33219b414610367578063dd4e2ba514610362578063deaaa7cc1461035d578063ded0a63814610358578063e540d01d14610353578063eb9019d41461034e578063ece40cc114610349578063f23a6e6114610344578063f2fde38b1461033f578063f8ce560a1461033a578063f9ddf50d14610335578063fc0c546a146103305763ff7bd03d0361000e5761251f565b6124db565b612497565b6123dc565b612352565b6122e5565b612290565b6121eb565b612149565b6120db565b6120a1565b612042565b61201a565b611f7d565b611f61565b611ef6565b611ed8565b611e2b565b611df2565b611dd5565b611da2565b611d86565b611d0e565b611ce3565b611c0e565b611bf3565b611bb8565b611b8e565b611a76565b611a4e565b61197e565b6118ed565b6118ad565b611872565b6117c4565b61179e565b611749565b611721565b6116fe565b61168c565b6115d6565b61157b565b6114fd565b6114d7565b611457565b611413565b61137d565b6112cb565b611278565b611237565b611208565b611164565b61110f565b6110e0565b611067565b611042565b610fd5565b610f80565b610f4b565b610e4e565b610e2a565b610e09565b610bc2565b61097e565b610844565b61074d565b610624565b610526565b610500565b346104f25760203660031901126104f25760043563ffffffff60e01b81168091036104f2576020906332a2ad4360e11b81149081156104e1575b81156104d0575b506040519015158152f35b6301ffc9a760e01b1490505f6104c5565b630271189760e51b811491506104be565b5f80fd5b5f9103126104f257565b346104f2575f3660031901126104f257602063ffffffff600a5460301c16604051908152f35b346104f25760203660031901126104f257600435610542612fe2565b606481116105d5576001600160d01b0361055a613ce6565b1690610564613be0565b916001600160d01b0382116105bd577f0553476bf02ef2726e8ce5ced78d63e26e602e4a2257b1f559418e24b4633997926105a9906001600160d01b038416906147ae565b5050604080519182526020820192909252a1005b506306dfcc6560e41b5f5260d060045260245260445ffd5b63243e544560e01b5f52600452606460245260445ffd5b805180835260209291819084018484015e5f828201840152601f01601f1916010190565b9060206106219281815201906105ec565b90565b346104f2575f3660031901126104f2576040515f60035461064481612564565b80845290600181169081156106da575060011461067c575b6106788361066c818503826108d1565b60405191829182610610565b0390f35b60035f9081527fc2575a0e9e593c00f959f8c92f12db2869c3395a3b0502d05e2516446f71f85b939250905b8082106106c05750909150810160200161066c61065c565b9192600181602092548385880101520191019092916106a8565b60ff191660208086019190915291151560051b8401909101915061066c905061065c565b60609060031901126104f257600490565b9181601f840112156104f2578235916001600160401b0383116104f257602083818601950101116104f257565b6001600160a01b038116036104f257565b60e03660031901126104f257610762366106fe565b6084356001600160401b0381116104f25761078190369060040161070f565b9061078d60a43561073c565b60c4356001600160401b0381116104f2576107ac90369060040161070f565b5050337f00000000000000000000000000000000000000000000000000000000000000006001600160a01b031603610831578235926107ea84610fba565b6107f38461305f565b93602082013580950361080b5750610018935061308f565b63ffffffff8161081b8793610fba565b63309afaf360e21b5f521660045260245260445ffd5b6391ac5e4f60e01b5f523360045260245ffd5b346104f25760203660031901126104f257600480355f908152602091825260409020546001600160a01b03166040516001600160a01b039091168152f35b634e487b7160e01b5f52604160045260245ffd5b604081019081106001600160401b038211176108b157604052565b610882565b606081019081106001600160401b038211176108b157604052565b90601f801991011681019081106001600160401b038211176108b157604052565b604051906109016040836108d1565b565b6040519061090160a0836108d1565b6001600160401b0381116108b157601f01601f191660200190565b92919261093982610912565b9161094760405193846108d1565b8294818452818301116104f2578281602093845f960137010152565b9080601f830112156104f2578160206106219335910161092d565b346104f25760803660031901126104f25761099a60043561073c565b6109a560243561073c565b6064356001600160401b0381116104f2576109c4903690600401610963565b50600754306001600160a01b03909116036109eb57604051630a85bd0160e11b8152602090f35b637485328f60e11b5f5260045ffd5b6001600160401b0381116108b15760051b60200190565b9080601f830112156104f2578135610a28816109fa565b92610a3660405194856108d1565b81845260208085019260051b8201019283116104f257602001905b828210610a5e5750505090565b602080918335610a6d8161073c565b815201910190610a51565b9080601f830112156104f2578135610a8f816109fa565b92610a9d60405194856108d1565b81845260208085019260051b8201019283116104f257602001905b828210610ac55750505090565b8135815260209182019101610ab8565b9080601f830112156104f2578135610aec816109fa565b92610afa60405194856108d1565b81845260208085019260051b820101918383116104f25760208201905b838210610b2657505050505090565b81356001600160401b0381116104f257602091610b4887848094880101610963565b815201910190610b17565b60806003198201126104f2576004356001600160401b0381116104f25781610b7d91600401610a11565b916024356001600160401b0381116104f25782610b9c91600401610a78565b91604435906001600160401b0382116104f257610bbb91600401610ad5565b9060643590565b346104f257610bd036610b53565b9092610bde82858584612eec565b93610be88561316c565b50600754610c06906001600160a01b03165b6001600160a01b031690565b936040519363793d064960e11b8552602085600481895afa948515610db4575f95610de8575b503060601b6bffffffffffffffffffffffff191618946020604051809263b1c5f42760e01b82528180610c658b89898c60048601613e68565b03915afa908115610db4575f91610db9575b50610c8a875f52600860205260405f2090565b55600754610ca0906001600160a01b0316610bfa565b90813b156104f2575f8094610ccc87604051998a97889687956308f2a0bb60e41b875260048701613ead565b03925af1908115610db457610cf092610ceb92610d9a575b5042613abe565b613a71565b9065ffffffffffff821615610d8b577f9a2e42fd6722813d69113e7d0079d3d940171428df7373df9c7f7617cfda2892610d7883610d59610678956001610d3f875f52600460205260405f2090565b019065ffffffffffff1665ffffffffffff19825416179055565b6040805185815265ffffffffffff909216602083015290918291820190565b0390a16040519081529081906020820190565b634844252360e11b5f5260045ffd5b80610da85f610dae936108d1565b806104f6565b5f610ce4565b612627565b610ddb915060203d602011610de1575b610dd381836108d1565b810190613c73565b5f610c77565b503d610dc9565b610e0291955060203d602011610de157610dd381836108d1565b935f610c2c565b346104f2575f3660031901126104f257604080516001815260026020820152f35b346104f2575f3660031901126104f257602060405169152d02c7e14af68000008152f35b610e5736610b53565b919263ffffffff7f000000000000000000000000000000000000000000000000000000000000000016804603610f35575033610ead575b9061067893610e9d939261323e565b6040519081529081906020820190565b7f00000000000000000000000000000000000000000000000000000000000000006001600160a01b03169390929190843b156104f2575f8095602460405180988193633e4986ef60e11b83523360048401525af1938415610db45761067895610e9d95610f21575b50919293509350610e8e565b80610da85f610f2f936108d1565b5f610f15565b6327bf854560e21b5f524660045260245260445ffd5b346104f25760203660031901126104f2576004355f526004602052602065ffffffffffff60405f205460a01c16604051908152f35b346104f2575f3660031901126104f25760206040517f3e83946653575f9a39005e1545185629e92736b7528ab20ca3816f315424a8118152f35b63ffffffff8116036104f257565b6004359061090182610fba565b346104f25760403660031901126104f2577f238399d427b947898edb290f5ff0f9109849b1c3ba196a42e35f00c50a54b98b604060043561101581610fba565b63ffffffff602435916110266133a4565b1690815f52600e60205280835f205582519182526020820152a1005b346104f2575f3660031901126104f257602065ffffffffffff600a5416604051908152f35b346104f25760203660031901126104f25760206110a56004356110898161073c565b6001600160a01b03165f908152600f6020526040902054421090565b6040519015158152f35b634e487b7160e01b5f52602160045260245ffd5b600811156110cd57565b6110af565b60088110156110cd57602452565b346104f25760203660031901126104f2576110fc6004356133e3565b60405160088210156110cd576020918152f35b346104f25760403660031901126104f257602060ff6111586024356004356111368261073c565b5f52600b8452600360405f20019060018060a01b03165f5260205260405f2090565b54166040519015158152f35b346104f25761117236610b53565b919233611189575b9061067893610e9d9392612632565b7f00000000000000000000000000000000000000000000000000000000000000006001600160a01b0316803b156104f2575f8091602460405180948193633e4986ef60e11b83523360048401525af18015610db4576111e9575b5061117a565b806111f95f8093969594966108d1565b8003126104f25790915f6111e3565b346104f2575f3660031901126104f257610678611223613624565b6040519182916020835260208301906105ec565b346104f25760203660031901126104f2576004355f52600b602052606060405f20805490600260018201549101549060405192835260208301526040820152f35b346104f2575f3660031901126104f2576106786040516112996040826108d1565b60018152603160f81b60208201526040519182916020835260208301906105ec565b6024359060ff821682036104f257565b346104f25760403660031901126104f2576004356112e76112bb565b90336112fb575b61067891610e9d9161278c565b7f00000000000000000000000000000000000000000000000000000000000000006001600160a01b031691823b156104f2575f8093602460405180968193633e4986ef60e11b83523360048401525af1918215610db45761067893610e9d93611369575b50915091506112ee565b80610da85f611377936108d1565b5f61135f565b346104f25760c03660031901126104f2576004356113996112bb565b90604435906113a78261073c565b6064356001600160401b0381116104f2576113c690369060040161070f565b6084356001600160401b0381116104f2576113e5903690600401610963565b9160a435946001600160401b0386116104f2576106789661140d610e9d973690600401610963565b956127a9565b346104f2575f3660031901126104f2576040517f00000000000000000000000000000000000000000000000000000000000000006001600160a01b03168152602090f35b346104f25760803660031901126104f2576004356114736112bb565b906044356001600160401b0381116104f25761149390369060040161070f565b9190926064356001600160401b0381116104f2576114cc946114bc6114c4923690600401610963565b94369161092d565b913390613869565b604051908152602090f35b346104f25760203660031901126104f25760206114f56004356128af565b604051908152f35b346104f25760203660031901126104f25760043561151a8161073c565b611522612fe2565b6001600160a01b0316801561156957601080546001600160a01b031916821790557f7b8ac9dc00c39ab43cee17ce9ec96af81b02a21526626b7701fc69cb025711c25f80a2005b63224fa21960e21b5f5260045260245ffd5b346104f2575f3660031901126104f2576115936133a4565b600d80546001600160a01b031981169091555f906001600160a01b03167f8be0079c531659141344cd1fd0a4f28419497f9722a3daafe3b4186f6b6457e08280a3005b346104f25760c03660031901126104f2576115ef610fc8565b6024356001600160401b0381116104f25761160e903690600401610a11565b6044356001600160401b0381116104f25761162d903690600401610a78565b916064356001600160401b0381116104f25761164d903690600401610ad5565b6084359060a435946001600160401b0386116104f25761167461001896369060040161070f565b9590946129d7565b65ffffffffffff8116036104f257565b346104f25760203660031901126104f2576004356116a98161167c565b6116b1612fe2565b600a547fc565b045403dc03c2eea82b81a0465edad9e2e7fc4d97e11421c209da93d7a93604065ffffffffffff81519481851686521693846020820152a165ffffffffffff191617600a55005b346104f2575f3660031901126104f2576020604051683635c9adc5dea000008152f35b346104f2575f3660031901126104f2576010546040516001600160a01b039091168152602090f35b346104f25760603660031901126104f2576004356117656112bb565b90604435906001600160401b0382116104f25760209261179661178f6114f594369060040161070f565b369161092d565b9133906136f3565b346104f25760403660031901126104f2576117ba600435610fba565b60206040515f8152f35b346104f25760803660031901126104f2576004356001600160401b0381116104f2576117f4903690600401610a11565b6024356001600160401b0381116104f257611813903690600401610a78565b906044356001600160401b0381116104f257611833903690600401610ad5565b90606435916001600160401b0383116104f257366023840112156104f2576106789361186c610e9d94369060248160040135910161092d565b92612ac9565b346104f25760203660031901126104f25760043561188f8161073c565b60018060a01b03165f526002602052602060405f2054604051908152f35b346104f2575f3660031901126104f257602060405163ffffffff7f0000000000000000000000000000000000000000000000000000000000000000168152f35b346104f25760a03660031901126104f257611907366106fe565b506064356001600160401b0381116104f25761192790369060040161070f565b505060206084356119378161073c565b6040516001600160a01b0390911630148152f35b90602080835192838152019201905f5b8181106119685750505090565b825184526020938401939092019160010161195b565b346104f2575f3660031901126104f257611a206119ba7f00000000000000000000000000000000000000000000000000000000000000006146a6565b6106786119e67f0000000000000000000000000000000000000000000000000000000000000000614705565b611a2e604051916119f86020846108d1565b5f808452366020850137604051958695600f60f81b875260e0602088015260e08701906105ec565b9085820360408701526105ec565b904660608501523060808501525f60a085015283820360c085015261194b565b346104f2575f3660031901126104f257600d546040516001600160a01b039091168152602090f35b346104f25760803660031901126104f257600435611a926112bb565b9060443591611aa08361073c565b6064356001600160401b0381116104f257611b53611ac5611b57923690600401610963565b6001600160a01b0386165f908152600260205260409020805460018101909155611b4d9060405160208101917ff2aad550cf55f045cb27e9c559f9889fdfb6e6cdaa032301d6ea397784ae51d7835288604083015260ff8816606083015260018060a01b038a16608083015260a082015260a08152611b4560c0826108d1565b519020613710565b86613740565b1590565b611b725790610e9d9161067893611b6c612778565b926136f3565b6394ab6c0760e01b5f526001600160a01b03831660045260245ffd5b346104f2575f3660031901126104f2576020611ba8613be0565b65ffffffffffff60405191168152f35b346104f25760203660031901126104f257600435611bd58161073c565b60018060a01b03165f52600f602052602060405f2054604051908152f35b346104f2575f3660031901126104f257602060405160648152f35b346104f25760603660031901126104f257600435611c2b8161073c565b6024356044356001600160401b0381116104f257611c4d903690600401610963565b50604051630748d63560e31b81526001600160a01b039283166004820152602481019190915290602090829060449082907f0000000000000000000000000000000000000000000000000000000000000000165afa8015610db457610678915f91611cc4575b506040519081529081906020820190565b611cdd915060203d602011610de157610dd381836108d1565b5f611cb3565b346104f2575f3660031901126104f25760206001600160d01b03611d05613ce6565b16604051908152f35b346104f25760203660031901126104f257600435611d2b8161073c565b611d33612fe2565b600754604080516001600160a01b03808416825290931660208401819052927f08f74ea46ef7894f65eabfb5e6e695de773a000b47c529ab559178069b2264019190a16001600160a01b03191617600755005b346104f25760203660031901126104f257602060405160018152f35b346104f25760203660031901126104f25760206114f56004355f52600460205265ffffffffffff600160405f2001541690565b346104f2575f3660031901126104f2576020600954604051908152f35b346104f25760203660031901126104f25763ffffffff600435611e1481610fba565b165f52600e602052602060405f2054604051908152f35b346104f25760a03660031901126104f257611e4760043561073c565b611e5260243561073c565b6044356001600160401b0381116104f257611e71903690600401610a78565b506064356001600160401b0381116104f257611e91903690600401610a78565b506084356001600160401b0381116104f257611eb1903690600401610963565b50610678611ebd612dc3565b6040516001600160e01b031990911681529081906020820190565b346104f25760203660031901126104f25760206114f5600435612de2565b60603660031901126104f257600435611f0e8161073c565b6024356044356001600160401b0381116104f257610018925f92611f378493369060040161070f565b9190611f41612fe2565b826040519384928337810185815203925af1611f5b612e29565b90613d2a565b346104f25760206114f5611f7436610b53565b92919091612eec565b346104f2575f60203660031901126104f257600435611f9b8161073c565b611fa36133a4565b7f00000000000000000000000000000000000000000000000000000000000000006001600160a01b031690813b156104f25760405163ca5eb5e160e01b81526001600160a01b039091166004820152905f908290602490829084905af18015610db45761200e575080f35b61001891505f906108d1565b346104f2575f3660031901126104f2576007546040516001600160a01b039091168152602090f35b346104f2575f3660031901126104f2576106786040516120636040826108d1565b602081527f737570706f72743d627261766f2671756f72756d3d666f722c6162737461696e60208201526040519182916020835260208301906105ec565b346104f2575f3660031901126104f25760206040517ff2aad550cf55f045cb27e9c559f9889fdfb6e6cdaa032301d6ea397784ae51d78152f35b346104f25760403660031901126104f2576004356120f88161073c565b7f4e7b7545bc5744d0e30425959f4687475774b6c7edad77d24cb51c7d967d4515602060243592612127612fe2565b6001600160a01b03165f818152600f83526040908190208590555193845292a2005b346104f25760203660031901126104f25760043561216681610fba565b61216e612fe2565b63ffffffff81169081156121d85763ffffffff60301b907f7e3f7f0708a84de9203036abaa450dccc85ad5ff52f78c170f3edb55cf5e88286040600a549481519063ffffffff8760301c1682526020820152a160301b169063ffffffff60301b191617600a555f80f35b63f1cfbf0560e01b5f525f60045260245ffd5b346104f25760403660031901126104f2576004356122088161073c565b6024355f60405161221a6020826108d1565b52604051630748d63560e31b81526001600160a01b039283166004820152602481019190915290602090829060449082907f0000000000000000000000000000000000000000000000000000000000000000165afa8015610db457610678915f91611cc457506040519081529081906020820190565b346104f25760203660031901126104f2576004356122ac612fe2565b60095460408051918252602082018390527fccb45da8d5717e6c4544694297c4ba5cf151d455c9bb0ed4fc7a38411bc0546191a1600955005b346104f25760a03660031901126104f25761230160043561073c565b61230c60243561073c565b6084356001600160401b0381116104f25761232b903690600401610963565b50600754306001600160a01b03909116036109eb5760405163f23a6e6160e01b8152602090f35b346104f25760203660031901126104f25760043561236f8161073c565b6123776133a4565b6001600160a01b031680156123c957600d80546001600160a01b0319811683179091556001600160a01b03167f8be0079c531659141344cd1fd0a4f28419497f9722a3daafe3b4186f6b6457e05f80a3005b631e4fbdf760e01b5f525f60045260245ffd5b346104f25760203660031901126104f257600435604051632394e7a360e21b815260048101829052906020826024817f00000000000000000000000000000000000000000000000000000000000000006001600160a01b03165afa918215610db4575f92612472575b5061244f906128af565b9081810291818304149015171561246d576106789060649004610e9d565b612756565b61244f9192506124909060203d602011610de157610dd381836108d1565b9190612445565b346104f2575f3660031901126104f2576040517f00000000000000000000000000000000000000000000000000000000000000006001600160a01b03168152602090f35b346104f2575f3660031901126104f2576040517f00000000000000000000000000000000000000000000000000000000000000006001600160a01b03168152602090f35b346104f25760603660031901126104f257602061253b366106fe565b63ffffffff813561254b81610fba565b165f52600e82528160405f205491013560405191148152f35b90600182811c92168015612592575b602083101461257e57565b634e487b7160e01b5f52602260045260245ffd5b91607f1691612573565b5f92918154916125ab83612564565b808352926001811690811561260057506001146125c757505050565b5f9081526020812093945091925b8383106125e6575060209250010190565b6001816020929493945483858701015201910191906125d5565b915050602093945060ff929192191683830152151560051b010190565b3561062181610fba565b6040513d5f823e3d90fd5b9392919063ffffffff7f000000000000000000000000000000000000000000000000000000000000000016804603610f35575061268e61267484848489612eec565b5f908152600460205260409020546001600160a01b031690565b94336001600160a01b038716141580612736575b80612718575b6126b7576106219495506134f0565b856126ca6126c44261276a565b82612f53565b906127146126d760095490565b6040516308a4880b60e31b81523360048201526001600160a01b039093166024840152604483019390935260648201929092529081906084820190565b0390fd5b5060105461272e906001600160a01b0316610bfa565b3314156126a8565b505f19420142811161246d5761274c9087612f53565b60095411156126a2565b634e487b7160e01b5f52601160045260245ffd5b5f1981019190821161246d57565b604051906127876020836108d1565b5f8252565b610621916040519161279f6020846108d1565b5f835233906136f3565b939092919695611b536128649161285e8a6127dd8160018060a01b03165f52600260205260405f2080549060018201905590565b6127e836888a61092d565b602081519101208b5160208d0120906040519260208401947f3e83946653575f9a39005e1545185629e92736b7528ab20ca3816f315424a81186528d604086015260ff8d16606086015260018060a01b0316608085015260a084015260c083015260e082015260e08152611b45610100826108d1565b8a613740565b61287f5761062195969161287991369161092d565b92613869565b6394ab6c0760e01b5f526001600160a01b03871660045260245ffd5b634e487b7160e01b5f52603260045260245ffd5b600c54905f19820182811161246d578211156129d257600c5f527fdf6966c971051c3d54ec59162606531493a51404a002842f56009d7e5cf4a8c682015465ffffffffffff81168210156129c9575061290790613a71565b5f829160058411612975575b61291d935061430e565b8061292757505f90565b6129696129626129396106219361276a565b600c5f527fdf6966c971051c3d54ec59162606531493a51404a002842f56009d7e5cf4a8c70190565b5460301c90565b6001600160d01b031690565b9192612980816141b0565b810390811161246d5761291d93600c5f5265ffffffffffff8260205f2001541665ffffffffffff8516105f146129b7575091612913565b9291506129c390613aa0565b90612913565b91505060301c90565b61289b565b9390612a5d612a37979363ffffffff9793612a49612aa0976129f7612fe2565b612a0383828689612eec565b9b8c94612a25604051988997602089015260a0604089015260c0880190612e58565b868103601f190160608801529061194b565b848103601f1901608086015290612e94565b9060a083015203601f1981018352826108d1565b612a99612a7e612a78612a7136878761092d565b8489614449565b51613aae565b92612a876108f2565b9384525f60208501523094369161092d565b908561457f565b5016907f56fd6890539d17e2b7a1a260eb3a205a9a381dcd8a38504cbbb1eb3a2c316ddb5f80a3565b9091925f9333612d4e575b63ffffffff7f000000000000000000000000000000000000000000000000000000000000000016804603612d3857505f19420142811161246d57612b189033612f53565b6009549081811080612d20575b612d07575050612b3d82516020840120828686612eec565b948351855190818114801590612cfc575b8015612cf4575b612cd257505065ffffffffffff612b86612b77885f52600460205260405f2090565b5460a01c65ffffffffffff1690565b16612cb257507f7d84a6263ae0d98d3329bd7b46bb4e8d6f98cd35a7adb45c274c8b7fd5ebd5e0939291612cac91612bec612bbf613be0565b65ffffffffffff612be5612bda65ffffffffffff600a541690565b65ffffffffffff1690565b9116613abe565b612c0a612c0163ffffffff600a5460301c1690565b63ffffffff1690565b91612c89612c208a5f52600460205260405f2090565b80546001600160a01b03191633178155612c60612c3c85613a71565b825465ffffffffffff60a01b191660a09190911b65ffffffffffff60a01b16178255565b612c698561467b565b815463ffffffff60d01b191660d09190911b63ffffffff60d01b16179055565b612c9d612c968751613acb565b9383613abe565b92604051978897338c8a613b14565b0390a190565b612ccf86612cbf816133e3565b6331b75e4d60e01b845290613153565b90fd5b612ccf92935190630447b05d60e41b8552929190606493600452602452604452565b508015612b55565b508351811415612b4e565b6303554fd560e01b875233600452602452604452606485fd5b50335f908152600f6020526040902054421015612b25565b6327bf854560e21b865246600452602452604485fd5b7f00000000000000000000000000000000000000000000000000000000000000006001600160a01b0316803b156104f2575f8091602460405180948193633e4986ef60e11b83523360048401525af18015610db457612dae575b50612ad4565b612dbb9195505f906108d1565b5f935f612da8565b600754306001600160a01b03909116036109eb5763bc197c8160e01b90565b805f52600460205265ffffffffffff60405f205460a01c16905f52600460205263ffffffff60405f205460d01c160165ffffffffffff811161246d5765ffffffffffff1690565b3d15612e53573d90612e3a82610912565b91612e4860405193846108d1565b82523d5f602084013e565b606090565b90602080835192838152019201905f5b818110612e755750505090565b82516001600160a01b0316845260209384019390920191600101612e68565b9080602083519182815201916020808360051b8301019401925f915b838310612ebf57505050505090565b9091929394602080612edd600193601f1986820301875289516105ec565b97019301930191939290612eb0565b9290612f4d91612f39612f2794604051958694612f15602087019960808b5260a0880190612e58565b868103601f190160408801529061194b565b848103601f1901606086015290612e94565b90608083015203601f1981018352826108d1565b51902090565b905f604051612f636020826108d1565b52604051630748d63560e31b81526001600160a01b039283166004820152602481019190915290602090829060449082907f0000000000000000000000000000000000000000000000000000000000000000165afa908115610db4575f91612fc9575090565b610621915060203d602011610de157610dd381836108d1565b600754336001600160a01b039091160361304c57600754306001600160a01b039091160361300c57565b61301536610912565b61302260405191826108d1565b3681526020810190365f83375f602036830101525190205b80613043613d6e565b0361303a575b50565b6347096e4760e01b5f523360045260245ffd5b63ffffffff16805f52600e60205260405f205490811561307d575090565b63f6ff4fb760e01b5f5260045260245ffd5b909182019160a0818403126104f257803560208201356001600160401b0381116104f257846130bf918401610a11565b60408301356001600160401b0381116104f257856130de918501610a78565b916060840135956001600160401b0387116104f257613115608061310c63ffffffff936130499a8901610ad5565b9601359661261d565b16817f30d15b7e92a81e472f6ba5aff0c0a81b2f409d1af0e92aa0e20d98ba24f98b415f80a3613dda565b60088110156110cd5760ff600191161b90565b6004526064919060088110156110cd576024525f604452565b613175816133e3565b90601061318183613140565b161561318b575090565b6331b75e4d60e01b5f526004526131a291506110d2565b601060445260645ffd5b6131b5816133e3565b9060026131c183613140565b16156131cb575090565b6331b75e4d60e01b5f526004526131e291506110d2565b600260445260645ffd5b906131f6826133e3565b918161320184613140565b161561320c57505090565b6331b75e4d60e01b5f52600452613222826110d2565b60445260645ffd5b80518210156129d25760209160051b010190565b9392909161324e82828588612eec565b926020956132606020601017866131ec565b50613289613276865f52600460205260405f2090565b805460ff60f01b1916600160f01b179055565b60075461329e906001600160a01b0316610bfa565b306001600160a01b0390911603613339575b846132bd9596975061488e565b60075430906132d690610bfa906001600160a01b031681565b14158061331e575b613315575b6040518181527f712ae1383f79ac853f8d882153778e0260ef8f03b504e2866e0593e04d2b291f908060208101612cac565b5f6005556132e3565b506005546001600160801b03811660809190911c14156132de565b925f95929491955b8451811015613395576001903061336b610bfa61335e848a61322a565b516001600160a01b031690565b14613377575b01613341565b613390613384828961322a565b518a8151910120613efa565b613371565b509195508594909391926132b0565b600d546001600160a01b031633036133b857565b63118cdaa760e01b5f523360045260245ffd5b908160209103126104f2575180151581036104f25790565b6133ec81613f60565b906133f6826110c3565b600582036134ec5761341191505f52600860205260405f2090565b54600754613427906001600160a01b0316610bfa565b604051632c258a9f60e11b815260048101839052602081602481855afa908115610db4575f916134cd575b501561345f575050600590565b604051632ab0f52960e01b81526004810192909252602090829060249082905afa908115610db4575f9161349e575b501561349957600790565b600290565b6134c0915060203d6020116134c6575b6134b881836108d1565b8101906133cb565b5f61348e565b503d6134ae565b6134e6915060203d6020116134c6576134b881836108d1565b5f613452565b5090565b906134fc939291612eec565b613507603b826131ec565b5061353261351d825f52600460205260405f2090565b80546001600160f81b0316600160f81b179055565b6040518181527f789cf55be980739dad1d0699b93b58e806b51c9d96619bfa8fe0a28abaa7b30c90602090a1613570815f52600860205260405f2090565b548061357a575090565b60075461358f906001600160a01b0316610bfa565b803b156104f25760405163c4d252f560e01b815260048101929092525f908290602490829084905af18015610db4576135d5575b505f8181526008602052604081205590565b80610da85f6135e3936108d1565b5f6135c3565b604051906135f86040836108d1565b601d82527f6d6f64653d626c6f636b6e756d6265722666726f6d3d64656661756c740000006020830152565b604051634bf5d7e960e01b81525f816004817f00000000000000000000000000000000000000000000000000000000000000006001600160a01b03165afa5f9181613678575b5061062157506106216135e9565b9091503d805f833e61368a81836108d1565b8101906020818303126104f2578051906001600160401b0382116104f2570181601f820112156104f2578051906136c082610912565b926136ce60405194856108d1565b828452602083830101116104f257815f9260208093018386015e83010152905f61366a565b916106219391604051936137086020866108d1565b5f8552613869565b60429061371b614060565b906040519161190160f01b8352600283015260228201522090565b600411156110cd57565b9190823b61377b579061375291614176565b5061375c81613736565b15918261376857505090565b6001600160a01b03918216911614919050565b915f926137b16137bf85946040519283916020830195630b135d3f60e11b875260248401526040604484015260648301906105ec565b03601f1981018352826108d1565b51915afa6137cb612e29565b816137fb575b816137da575090565b90506137f7630b135d3f60e11b9160208082518301019101613c73565b1490565b9050602081511015906137d1565b93909260ff6138359361062197958752166020860152604085015260a0606085015260a08401906105ec565b9160808184039101526105ec565b909260ff60809361062196958452166020830152604082015281606082015201906105ec565b929190613875846131ac565b50835f52600460205261389965ffffffffffff8060405f205460a01c161682613c82565b506040516309ab24eb60e41b81526001600160a01b038281166004830152909590602090879060249082907f0000000000000000000000000000000000000000000000000000000000000000165afa958615610db4575f96613a50575b50613909855f52600b60205260405f2090565b6001600160a01b0383165f90815260038201602081905260409091205460ff16613a34576001600160a01b0384165f9081526020919091526040902061395690805460ff19166001179055565b60ff8416806139f2575061396b878254613abe565b90555b80516139b657506139b07fb8e138887d0aa13bab447e82de9d5c1777041ecd21ca36ba824ff1e6c07ddda4938660405194859460018060a01b03169785613843565b0390a290565b6139b0907fe2babfbac5889a709b63bb7f598b324e08bc5a4fb9ec647fb3cbc9ec07eb8712948760405195869560018060a01b03169886613809565b60018103613a105750600101613a09878254613abe565b905561396e565b600203613a2557600201613a09878254613abe565b6303599be160e11b5f5260045ffd5b6371c6af4960e01b5f526001600160a01b03841660045260245ffd5b613a6a91965060203d602011610de157610dd381836108d1565b945f6138f6565b65ffffffffffff8111613a895765ffffffffffff1690565b6306dfcc6560e41b5f52603060045260245260445ffd5b906001820180921161246d57565b90620186a0820180921161246d57565b9190820180921161246d57565b90613ad5826109fa565b613ae260405191826108d1565b8281528092613af3601f19916109fa565b01905f5b828110613b0357505050565b806060602080938501015201613af7565b959998969794939192613b5593613b4792885260018060a01b031660208801526101206040880152610120870190612e58565b90858203606087015261194b565b968388036080850152815180895260208901906020808260051b8c01019401915f905b828210613bb4575050505061062196975090613b9b9184820360a0860152612e94565b9360c083015260e08201526101008184039101526105ec565b90919294602080613bd26001938f601f1990820301865289516105ec565b970192019201909291613b78565b6040516324776b7d60e21b81526020816004817f00000000000000000000000000000000000000000000000000000000000000006001600160a01b03165afa5f9181613c36575b50610621575061062143613a71565b9091506020813d602011613c6b575b81613c52602093836108d1565b810103126104f25751613c648161167c565b905f613c27565b3d9150613c45565b908160209103126104f2575190565b604051630748d63560e31b81526001600160a01b0391821660048201526024810192909252602090829060449082907f0000000000000000000000000000000000000000000000000000000000000000165afa908115610db4575f91612fc9575090565b600c5480613cf357505f90565b805f1981011161246d57600c5f527fdf6966c971051c3d54ec59162606531493a51404a002842f56009d7e5cf4a8c6015460301c90565b9091906109015750805115613d4157805190602001fd5b63d6bda27560e01b5f5260045ffd5b8115613d5a570490565b634e487b7160e01b5f52601260045260245ffd5b6005546001600160801b038116919060801c8214613dc8575f82815260066020526040808220546001600160801b03808616845291832092909255600580546001600160801b031916600190950190911693909317909255565b634e487b715f5260316020526024601cfd5b93509091935f5b8251811015613e3657600190613e2f5f806001600160a01b03613e04858961322a565b5116613e10858a61322a565b5190613e1c868d61322a565b5191602083519301915af1611f5b612e29565b5001613de1565b50935050507f712ae1383f79ac853f8d882153778e0260ef8f03b504e2866e0593e04d2b291f6020604051838152a190565b949392613e94608093613e86613ea29460a08a5260a08a0190612e58565b9088820360208a015261194b565b908682036040880152612e94565b935f60608201520152565b9192613edc60a094613ece613eea949998979960c0875260c0870190612e58565b90858203602087015261194b565b908382036040850152612e94565b945f606083015260808201520152565b6005546001608082901c9081016001600160801b039081169392168314613f4e575f90815260066020526040902055600580546001600160801b031660809290921b6001600160801b031916919091179055565b634e487b715f5260416020526024601cfd5b613f72815f52600460205260405f2090565b5460f881901c9060f01c60ff166140595761405357613f9f612bda612b77835f52600460205260405f2090565b801561403f57613fb0612bda613be0565b8091101561403957613fc182612de2565b10613fcc5750600190565b613fd8611b538261491c565b8015614016575b15613fea5750600390565b614008905f52600460205265ffffffffffff600160405f2001541690565b61401157600490565b600590565b50614034611b53825f52600b60205260405f20600181015490541090565b613fdf565b50505f90565b636ad0607560e01b5f52600482905260245ffd5b50600290565b5050600790565b307f00000000000000000000000000000000000000000000000000000000000000006001600160a01b0316148061414d575b156140bb577f000000000000000000000000000000000000000000000000000000000000000090565b60405160208101907f8b73c3c69bb8fe3d512ecc4cf759cc79239f7b179b0ffacaa9a75d522b39400f82527f000000000000000000000000000000000000000000000000000000000000000060408201527f000000000000000000000000000000000000000000000000000000000000000060608201524660808201523060a082015260a08152612f4d60c0826108d1565b507f00000000000000000000000000000000000000000000000000000000000000004614614092565b81519190604183036141a65761419f9250602082015190606060408401519301515f1a906149f1565b9192909190565b50505f9160029190565b600181111561062157806001600160801b8210156142d1575b61427761426d61426361425961424f61424561423461427e9760046142839a600160401b8110156142c4575b6401000000008110156142b7575b620100008110156142aa575b61010081101561429d575b6010811015614290575b1015614288575b60030260011c90565b61423e818b613d50565b0160011c90565b61423e818a613d50565b61423e8189613d50565b61423e8188613d50565b61423e8187613d50565b61423e8186613d50565b8093613d50565b821190565b900390565b60011b61422b565b60041c9160021b91614224565b60081c9160041b9161421a565b60101c9160081b9161420f565b60201c9160101b91614203565b60401c9160201b916141f5565b505061428361427e61427761426d61426361425961424f6142456142346142f88a60801c90565b9850600160401b97506141c99650505050505050565b905b82811061431c57505090565b90918082169080831860011c820180921161246d57600c5f527fdf6966c971051c3d54ec59162606531493a51404a002842f56009d7e5cf4a8c782015465ffffffffffff90811690851610156143755750915b90614310565b92915061438190613aa0565b9061436f565b6040519061439482610896565b5f6020838281520152565b91908260409103126104f2576040516143b781610896565b6020808294805184520151910152565b906040828203126104f2576106219161439f565b906020909392936040835263ffffffff8151166040840152818101516060840152608061442f614419604084015160a08488015260e08701906105ec565b6060840151868203603f190160a08801526105ec565b910151151560c08401526001600160a01b03909416910152565b6144a892604092614458614387565b506144628361305f565b61447961446d610903565b63ffffffff9095168552565b60208401528383015260608201525f6080820152815180938192631bb8518b60e31b83523090600484016143db565b03817f00000000000000000000000000000000000000000000000000000000000000006001600160a01b03165afa908115610db4575f916144e7575090565b610621915060403d604011614509575b61450181836108d1565b8101906143c7565b503d6144f7565b6040519061451d826108b6565b815f81525f60208201526040614531614387565b910152565b6080818303126104f2576040519161454d836108b6565b8151835260208201516001600160401b03811681036104f25760208401526145779160400161439f565b604082015290565b6145e8608094926146049694614593614510565b5060206145a08651614a69565b95019182518061466c575b506145b58561305f565b92511515926145d16145c5610903565b63ffffffff9097168752565b602086015260408501526060840152151585830152565b6040518095819482936302637a4560e41b8452600484016143db565b03917f00000000000000000000000000000000000000000000000000000000000000006001600160a01b03165af1908115610db4575f91614643575090565b610621915060803d608011614665575b61465d81836108d1565b810190614536565b503d614653565b61467590614a86565b5f6145ab565b63ffffffff811161468f5763ffffffff1690565b6306dfcc6560e41b5f52602060045260245260445ffd5b60ff81146146ec5760ff811690601f82116146dd57604051916146ca6040846108d1565b6020808452838101919036833783525290565b632cd44ac360e21b5f5260045ffd5b50604051610621816146fe815f61259c565b03826108d1565b60ff81146147295760ff811690601f82116146dd57604051916146ca6040846108d1565b50604051610621816146fe81600161259c565b908154600160401b8110156108b157600181018084558110156129d257610901925f5260205f20019061478c65ffffffffffff825116839065ffffffffffff1665ffffffffffff19825416179055565b60200151815465ffffffffffff1660309190911b65ffffffffffff1916179055565b600c549192918015614865576129396147c69161276a565b9081546147e26147db8265ffffffffffff1690565b9160301c90565b9265ffffffffffff808416921691808311614856578692036148205761481c92509065ffffffffffff82549181199060301b169116179055565b9190565b505061481c9061483f6148316108f2565b65ffffffffffff9092168252565b6001600160d01b03851660208201525b600c61473c565b632520601d60e01b5f5260045ffd5b50614889906148756148316108f2565b6001600160d01b038416602082015261484f565b5f9190565b6007549094919391926001600160a01b0390911690813b156104f2575f936148e16040519687958694859463e38335e560e01b86526bffffffffffffffffffffffff193060601b16189260048601613e68565b039134905af18015610db457614903575b505f90815260086020526040812055565b8061490f5f80936108d1565b8003126104f2575f6148f2565b805f52600b60205260405f20905f52600460205265ffffffffffff60405f205460a01c1660405190632394e7a360e21b825280600483015260208260248160018060a01b037f0000000000000000000000000000000000000000000000000000000000000000165afa918215610db4575f926149cc575b5061499d906128af565b9081810291818304149015171561246d576149c79060649004916002600182015491015490613abe565b101590565b61499d9192506149ea9060203d602011610de157610dd381836108d1565b9190614993565b91906fa2a8918ca85bafe22016d0b997e4df60600160ff1b038411614a5e579160209360809260ff5f9560405194855216868401526040830152606082015282805260015afa15610db4575f516001600160a01b03811615614a5457905f905f90565b505f906001905f90565b5050505f9160039190565b804710614a735790565b476304fb820960e51b5f5260045260245ffd5b60405163393f876560e21b81527f00000000000000000000000000000000000000000000000000000000000000006001600160a01b03169190602081600481865afa908115610db4575f91614b01575b506001600160a01b0316918215614af257610901923390614b3c565b6329b99a9560e11b5f5260045ffd5b90506020813d602011614b34575b81614b1c602093836108d1565b810103126104f25751614b2e8161073c565b5f614ad6565b3d9150614b0f565b6040516323b872dd60e01b60208083019182526001600160a01b039485166024840152949093166044820152606480820195909552938452925f9190614b836084826108d1565b519082855af115612627575f513d614bca57506001600160a01b0381163b155b614baa5750565b635274afe760e01b5f9081526001600160a01b0391909116600452602490fd5b60011415614ba356fea26469706673582212205b41e96c9510fc31b9aa736da49e3651f1b154fa1db4ae493dfe782541b0580464736f6c634300081c00330553476bf02ef2726e8ce5ced78d63e26e602e4a2257b1f559418e24b4633997",
  "linkReferences": {},
  "deployedLinkReferences": {}
}