{
  "_format": "hh-sol-artifact-1",
  "contractName": "SummerToken",
  "sourceName": "src/contracts/SummerToken.sol",
  "abi": [
    {
      "inputs": [
        {
          "components": [
            {
              "internalType": "string",
              "name": "name",
              "type": "string"
            },
            {
              "internalType": "string",
              "name": "symbol",
              "type": "string"
            },
            {
              "internalType": "address",
              "name": "lzEndpoint",
              "type": "address"
            },
            {
              "internalType": "address",
              "name": "initialOwner",
              "type": "address"
            },
            {
              "internalType": "address",
              "name": "accessManager",
              "type": "address"
            },
            {
              "internalType": "uint256",
              "name": "maxSupply",
              "type": "uint256"
            },
            {
              "internalType": "uint256",
              "name": "transferEnableDate",
              "type": "uint256"
            },
            {
              "internalType": "uint32",
              "name": "hubChainId",
              "type": "uint32"
            }
          ],
          "internalType": "struct ISummerToken.ConstructorParams",
          "name": "params",
          "type": "tuple"
        }
      ],
      "stateMutability": "nonpayable",
      "type": "constructor"
    },
    {
      "inputs": [],
      "name": "AlreadyInitialized",
      "type": "error"
    },
    {
      "inputs": [
        {
          "internalType": "address",
          "name": "caller",
          "type": "address"
        }
      ],
      "name": "CallerIsNotAdmin",
      "type": "error"
    },
    {
      "inputs": [
        {
          "internalType": "address",
          "name": "caller",
          "type": "address"
        }
      ],
      "name": "CallerIsNotAuthorized",
      "type": "error"
    },
    {
      "inputs": [
        {
          "internalType": "address",
          "name": "caller",
          "type": "address"
        }
      ],
      "name": "CallerIsNotAuthorizedToBoard",
      "type": "error"
    },
    {
      "inputs": [
        {
          "internalType": "address",
          "name": "caller",
          "type": "address"
        }
      ],
      "name": "CallerIsNotCommander",
      "type": "error"
    },
    {
      "inputs": [
        {
          "internalType": "address",
          "name": "caller",
          "type": "address"
        },
        {
          "internalType": "bytes32",
          "name": "role",
          "type": "bytes32"
        }
      ],
      "name": "CallerIsNotContractSpecificRole",
      "type": "error"
    },
    {
      "inputs": [
        {
          "internalType": "address",
          "name": "caller",
          "type": "address"
        }
      ],
      "name": "CallerIsNotCurator",
      "type": "error"
    },
    {
      "inputs": [
        {
          "internalType": "address",
          "name": "caller",
          "type": "address"
        }
      ],
      "name": "CallerIsNotDecayController",
      "type": "error"
    },
    {
      "inputs": [
        {
          "internalType": "address",
          "name": "caller",
          "type": "address"
        }
      ],
      "name": "CallerIsNotDecayManager",
      "type": "error"
    },
    {
      "inputs": [
        {
          "internalType": "address",
          "name": "caller",
          "type": "address"
        }
      ],
      "name": "CallerIsNotFoundation",
      "type": "error"
    },
    {
      "inputs": [
        {
          "internalType": "address",
          "name": "caller",
          "type": "address"
        }
      ],
      "name": "CallerIsNotGovernor",
      "type": "error"
    },
    {
      "inputs": [
        {
          "internalType": "address",
          "name": "caller",
          "type": "address"
        }
      ],
      "name": "CallerIsNotGuardian",
      "type": "error"
    },
    {
      "inputs": [
        {
          "internalType": "address",
          "name": "caller",
          "type": "address"
        }
      ],
      "name": "CallerIsNotGuardianOrGovernor",
      "type": "error"
    },
    {
      "inputs": [
        {
          "internalType": "address",
          "name": "caller",
          "type": "address"
        }
      ],
      "name": "CallerIsNotKeeper",
      "type": "error"
    },
    {
      "inputs": [
        {
          "internalType": "address",
          "name": "caller",
          "type": "address"
        }
      ],
      "name": "CallerIsNotRaft",
      "type": "error"
    },
    {
      "inputs": [
        {
          "internalType": "address",
          "name": "caller",
          "type": "address"
        }
      ],
      "name": "CallerIsNotRaftOrCommander",
      "type": "error"
    },
    {
      "inputs": [
        {
          "internalType": "address",
          "name": "caller",
          "type": "address"
        }
      ],
      "name": "CallerIsNotSuperKeeper",
      "type": "error"
    },
    {
      "inputs": [],
      "name": "CheckpointUnorderedInsertion",
      "type": "error"
    },
    {
      "inputs": [],
      "name": "DecayController__RewardsManagerAlreadySet",
      "type": "error"
    },
    {
      "inputs": [],
      "name": "DecayController__ZeroAddress",
      "type": "error"
    },
    {
      "inputs": [
        {
          "internalType": "uint256",
          "name": "rate",
          "type": "uint256"
        }
      ],
      "name": "DecayRateTooHigh",
      "type": "error"
    },
    {
      "inputs": [
        {
          "internalType": "address",
          "name": "caller",
          "type": "address"
        }
      ],
      "name": "DirectGrantIsDisabled",
      "type": "error"
    },
    {
      "inputs": [
        {
          "internalType": "address",
          "name": "caller",
          "type": "address"
        }
      ],
      "name": "DirectRevokeIsDisabled",
      "type": "error"
    },
    {
      "inputs": [],
      "name": "ECDSAInvalidSignature",
      "type": "error"
    },
    {
      "inputs": [
        {
          "internalType": "uint256",
          "name": "length",
          "type": "uint256"
        }
      ],
      "name": "ECDSAInvalidSignatureLength",
      "type": "error"
    },
    {
      "inputs": [
        {
          "internalType": "bytes32",
          "name": "s",
          "type": "bytes32"
        }
      ],
      "name": "ECDSAInvalidSignatureS",
      "type": "error"
    },
    {
      "inputs": [
        {
          "internalType": "uint256",
          "name": "increasedSupply",
          "type": "uint256"
        },
        {
          "internalType": "uint256",
          "name": "cap",
          "type": "uint256"
        }
      ],
      "name": "ERC20ExceededCap",
      "type": "error"
    },
    {
      "inputs": [
        {
          "internalType": "uint256",
          "name": "increasedSupply",
          "type": "uint256"
        },
        {
          "internalType": "uint256",
          "name": "cap",
          "type": "uint256"
        }
      ],
      "name": "ERC20ExceededSafeSupply",
      "type": "error"
    },
    {
      "inputs": [
        {
          "internalType": "address",
          "name": "spender",
          "type": "address"
        },
        {
          "internalType": "uint256",
          "name": "allowance",
          "type": "uint256"
        },
        {
          "internalType": "uint256",
          "name": "needed",
          "type": "uint256"
        }
      ],
      "name": "ERC20InsufficientAllowance",
      "type": "error"
    },
    {
      "inputs": [
        {
          "internalType": "address",
          "name": "sender",
          "type": "address"
        },
        {
          "internalType": "uint256",
          "name": "balance",
          "type": "uint256"
        },
        {
          "internalType": "uint256",
          "name": "needed",
          "type": "uint256"
        }
      ],
      "name": "ERC20InsufficientBalance",
      "type": "error"
    },
    {
      "inputs": [
        {
          "internalType": "address",
          "name": "approver",
          "type": "address"
        }
      ],
      "name": "ERC20InvalidApprover",
      "type": "error"
    },
    {
      "inputs": [
        {
          "internalType": "uint256",
          "name": "cap",
          "type": "uint256"
        }
      ],
      "name": "ERC20InvalidCap",
      "type": "error"
    },
    {
      "inputs": [
        {
          "internalType": "address",
          "name": "receiver",
          "type": "address"
        }
      ],
      "name": "ERC20InvalidReceiver",
      "type": "error"
    },
    {
      "inputs": [
        {
          "internalType": "address",
          "name": "sender",
          "type": "address"
        }
      ],
      "name": "ERC20InvalidSender",
      "type": "error"
    },
    {
      "inputs": [
        {
          "internalType": "address",
          "name": "spender",
          "type": "address"
        }
      ],
      "name": "ERC20InvalidSpender",
      "type": "error"
    },
    {
      "inputs": [
        {
          "internalType": "uint256",
          "name": "deadline",
          "type": "uint256"
        }
      ],
      "name": "ERC2612ExpiredSignature",
      "type": "error"
    },
    {
      "inputs": [
        {
          "internalType": "address",
          "name": "signer",
          "type": "address"
        },
        {
          "internalType": "address",
          "name": "owner",
          "type": "address"
        }
      ],
      "name": "ERC2612InvalidSigner",
      "type": "error"
    },
    {
      "inputs": [
        {
          "internalType": "uint256",
          "name": "timepoint",
          "type": "uint256"
        },
        {
          "internalType": "uint48",
          "name": "clock",
          "type": "uint48"
        }
      ],
      "name": "ERC5805FutureLookup",
      "type": "error"
    },
    {
      "inputs": [],
      "name": "ERC6372InconsistentClock",
      "type": "error"
    },
    {
      "inputs": [
        {
          "internalType": "address",
          "name": "invalidAddress",
          "type": "address"
        }
      ],
      "name": "InvalidAccessManagerAddress",
      "type": "error"
    },
    {
      "inputs": [
        {
          "internalType": "address",
          "name": "account",
          "type": "address"
        },
        {
          "internalType": "uint256",
          "name": "currentNonce",
          "type": "uint256"
        }
      ],
      "name": "InvalidAccountNonce",
      "type": "error"
    },
    {
      "inputs": [],
      "name": "InvalidAddressLength",
      "type": "error"
    },
    {
      "inputs": [
        {
          "internalType": "uint40",
          "name": "window",
          "type": "uint40"
        }
      ],
      "name": "InvalidDecayFreeWindow",
      "type": "error"
    },
    {
      "inputs": [],
      "name": "InvalidDecayRate",
      "type": "error"
    },
    {
      "inputs": [],
      "name": "InvalidDecayType",
      "type": "error"
    },
    {
      "inputs": [],
      "name": "InvalidDelegate",
      "type": "error"
    },
    {
      "inputs": [],
      "name": "InvalidEndpointCall",
      "type": "error"
    },
    {
      "inputs": [],
      "name": "InvalidLocalDecimals",
      "type": "error"
    },
    {
      "inputs": [
        {
          "internalType": "bytes",
          "name": "options",
          "type": "bytes"
        }
      ],
      "name": "InvalidOptions",
      "type": "error"
    },
    {
      "inputs": [],
      "name": "InvalidShortString",
      "type": "error"
    },
    {
      "inputs": [
        {
          "internalType": "enum ISummerVestingWallet.VestingType",
          "name": "invalidType",
          "type": "uint8"
        }
      ],
      "name": "InvalidVestingType",
      "type": "error"
    },
    {
      "inputs": [],
      "name": "LzTokenUnavailable",
      "type": "error"
    },
    {
      "inputs": [
        {
          "internalType": "uint32",
          "name": "eid",
          "type": "uint32"
        }
      ],
      "name": "NoPeer",
      "type": "error"
    },
    {
      "inputs": [
        {
          "internalType": "uint256",
          "name": "msgValue",
          "type": "uint256"
        }
      ],
      "name": "NotEnoughNative",
      "type": "error"
    },
    {
      "inputs": [
        {
          "internalType": "uint256",
          "name": "chainId",
          "type": "uint256"
        },
        {
          "internalType": "uint256",
          "name": "hubChainId",
          "type": "uint256"
        }
      ],
      "name": "NotHubChain",
      "type": "error"
    },
    {
      "inputs": [
        {
          "internalType": "address",
          "name": "addr",
          "type": "address"
        }
      ],
      "name": "OnlyEndpoint",
      "type": "error"
    },
    {
      "inputs": [
        {
          "internalType": "uint32",
          "name": "eid",
          "type": "uint32"
        },
        {
          "internalType": "bytes32",
          "name": "sender",
          "type": "bytes32"
        }
      ],
      "name": "OnlyPeer",
      "type": "error"
    },
    {
      "inputs": [],
      "name": "OnlySelf",
      "type": "error"
    },
    {
      "inputs": [
        {
          "internalType": "address",
          "name": "owner",
          "type": "address"
        }
      ],
      "name": "OwnableInvalidOwner",
      "type": "error"
    },
    {
      "inputs": [
        {
          "internalType": "address",
          "name": "account",
          "type": "address"
        }
      ],
      "name": "OwnableUnauthorizedAccount",
      "type": "error"
    },
    {
      "inputs": [
        {
          "internalType": "uint256",
          "name": "x",
          "type": "uint256"
        },
        {
          "internalType": "uint256",
          "name": "y",
          "type": "uint256"
        }
      ],
      "name": "PRBMath_MulDiv18_Overflow",
      "type": "error"
    },
    {
      "inputs": [
        {
          "internalType": "uint256",
          "name": "x",
          "type": "uint256"
        },
        {
          "internalType": "uint256",
          "name": "y",
          "type": "uint256"
        },
        {
          "internalType": "uint256",
          "name": "denominator",
          "type": "uint256"
        }
      ],
      "name": "PRBMath_MulDiv_Overflow",
      "type": "error"
    },
    {
      "inputs": [
        {
          "internalType": "uint8",
          "name": "bits",
          "type": "uint8"
        },
        {
          "internalType": "uint256",
          "name": "value",
          "type": "uint256"
        }
      ],
      "name": "SafeCastOverflowedUintDowncast",
      "type": "error"
    },
    {
      "inputs": [
        {
          "internalType": "address",
          "name": "token",
          "type": "address"
        }
      ],
      "name": "SafeERC20FailedOperation",
      "type": "error"
    },
    {
      "inputs": [
        {
          "internalType": "bytes",
          "name": "result",
          "type": "bytes"
        }
      ],
      "name": "SimulationResult",
      "type": "error"
    },
    {
      "inputs": [
        {
          "internalType": "uint256",
          "name": "amountLD",
          "type": "uint256"
        },
        {
          "internalType": "uint256",
          "name": "minAmountLD",
          "type": "uint256"
        }
      ],
      "name": "SlippageExceeded",
      "type": "error"
    },
    {
      "inputs": [
        {
          "internalType": "string",
          "name": "str",
          "type": "string"
        }
      ],
      "name": "StringTooLong",
      "type": "error"
    },
    {
      "inputs": [],
      "name": "SummerTokenInvalidPeerArrays",
      "type": "error"
    },
    {
      "inputs": [],
      "name": "TransferNotAllowed",
      "type": "error"
    },
    {
      "inputs": [],
      "name": "TransfersAlreadyEnabled",
      "type": "error"
    },
    {
      "inputs": [],
      "name": "TransfersCannotBeEnabledYet",
      "type": "error"
    },
    {
      "inputs": [
        {
          "internalType": "uint256",
          "name": "expiry",
          "type": "uint256"
        }
      ],
      "name": "VotesExpiredSignature",
      "type": "error"
    },
    {
      "anonymous": false,
      "inputs": [
        {
          "indexed": false,
          "internalType": "address",
          "name": "account",
          "type": "address"
        }
      ],
      "name": "AccountInitialized",
      "type": "event"
    },
    {
      "anonymous": false,
      "inputs": [
        {
          "indexed": true,
          "internalType": "address",
          "name": "account",
          "type": "address"
        }
      ],
      "name": "AddressRemovedFromWhitelist",
      "type": "event"
    },
    {
      "anonymous": false,
      "inputs": [
        {
          "indexed": true,
          "internalType": "address",
          "name": "account",
          "type": "address"
        }
      ],
      "name": "AddressWhitelisted",
      "type": "event"
    },
    {
      "anonymous": false,
      "inputs": [
        {
          "indexed": true,
          "internalType": "address",
          "name": "owner",
          "type": "address"
        },
        {
          "indexed": true,
          "internalType": "address",
          "name": "spender",
          "type": "address"
        },
        {
          "indexed": false,
          "internalType": "uint256",
          "name": "value",
          "type": "uint256"
        }
      ],
      "name": "Approval",
      "type": "event"
    },
    {
      "anonymous": false,
      "inputs": [
        {
          "indexed": false,
          "internalType": "uint40",
          "name": "newWindow",
          "type": "uint40"
        }
      ],
      "name": "DecayFreeWindowSet",
      "type": "event"
    },
    {
      "anonymous": false,
      "inputs": [
        {
          "indexed": false,
          "internalType": "uint8",
          "name": "newFunction",
          "type": "uint8"
        }
      ],
      "name": "DecayFunctionSet",
      "type": "event"
    },
    {
      "anonymous": false,
      "inputs": [
        {
          "indexed": false,
          "internalType": "uint256",
          "name": "newRate",
          "type": "uint256"
        }
      ],
      "name": "DecayRateSet",
      "type": "event"
    },
    {
      "anonymous": false,
      "inputs": [
        {
          "indexed": false,
          "internalType": "address",
          "name": "account",
          "type": "address"
        },
        {
          "indexed": false,
          "internalType": "uint256",
          "name": "newDecayFactor",
          "type": "uint256"
        }
      ],
      "name": "DecayUpdated",
      "type": "event"
    },
    {
      "anonymous": false,
      "inputs": [
        {
          "indexed": true,
          "internalType": "address",
          "name": "delegator",
          "type": "address"
        },
        {
          "indexed": true,
          "internalType": "address",
          "name": "fromDelegate",
          "type": "address"
        },
        {
          "indexed": true,
          "internalType": "address",
          "name": "toDelegate",
          "type": "address"
        }
      ],
      "name": "DelegateChanged",
      "type": "event"
    },
    {
      "anonymous": false,
      "inputs": [
        {
          "indexed": true,
          "internalType": "address",
          "name": "delegate",
          "type": "address"
        },
        {
          "indexed": false,
          "internalType": "uint256",
          "name": "previousVotes",
          "type": "uint256"
        },
        {
          "indexed": false,
          "internalType": "uint256",
          "name": "newVotes",
          "type": "uint256"
        }
      ],
      "name": "DelegateVotesChanged",
      "type": "event"
    },
    {
      "anonymous": false,
      "inputs": [],
      "name": "EIP712DomainChanged",
      "type": "event"
    },
    {
      "anonymous": false,
      "inputs": [
        {
          "components": [
            {
              "internalType": "uint32",
              "name": "eid",
              "type": "uint32"
            },
            {
              "internalType": "uint16",
              "name": "msgType",
              "type": "uint16"
            },
            {
              "internalType": "bytes",
              "name": "options",
              "type": "bytes"
            }
          ],
          "indexed": false,
          "internalType": "struct EnforcedOptionParam[]",
          "name": "_enforcedOptions",
          "type": "tuple[]"
        }
      ],
      "name": "EnforcedOptionSet",
      "type": "event"
    },
    {
      "anonymous": false,
      "inputs": [
        {
          "indexed": false,
          "internalType": "address",
          "name": "inspector",
          "type": "address"
        }
      ],
      "name": "MsgInspectorSet",
      "type": "event"
    },
    {
      "anonymous": false,
      "inputs": [
        {
          "indexed": true,
          "internalType": "bytes32",
          "name": "guid",
          "type": "bytes32"
        },
        {
          "indexed": false,
          "internalType": "uint32",
          "name": "srcEid",
          "type": "uint32"
        },
        {
          "indexed": true,
          "internalType": "address",
          "name": "toAddress",
          "type": "address"
        },
        {
          "indexed": false,
          "internalType": "uint256",
          "name": "amountReceivedLD",
          "type": "uint256"
        }
      ],
      "name": "OFTReceived",
      "type": "event"
    },
    {
      "anonymous": false,
      "inputs": [
        {
          "indexed": true,
          "internalType": "bytes32",
          "name": "guid",
          "type": "bytes32"
        },
        {
          "indexed": false,
          "internalType": "uint32",
          "name": "dstEid",
          "type": "uint32"
        },
        {
          "indexed": true,
          "internalType": "address",
          "name": "fromAddress",
          "type": "address"
        },
        {
          "indexed": false,
          "internalType": "uint256",
          "name": "amountSentLD",
          "type": "uint256"
        },
        {
          "indexed": false,
          "internalType": "uint256",
          "name": "amountReceivedLD",
          "type": "uint256"
        }
      ],
      "name": "OFTSent",
      "type": "event"
    },
    {
      "anonymous": false,
      "inputs": [
        {
          "indexed": true,
          "internalType": "address",
          "name": "previousOwner",
          "type": "address"
        },
        {
          "indexed": true,
          "internalType": "address",
          "name": "newOwner",
          "type": "address"
        }
      ],
      "name": "OwnershipTransferred",
      "type": "event"
    },
    {
      "anonymous": false,
      "inputs": [
        {
          "indexed": false,
          "internalType": "uint32",
          "name": "eid",
          "type": "uint32"
        },
        {
          "indexed": false,
          "internalType": "bytes32",
          "name": "peer",
          "type": "bytes32"
        }
      ],
      "name": "PeerSet",
      "type": "event"
    },
    {
      "anonymous": false,
      "inputs": [
        {
          "indexed": false,
          "internalType": "address",
          "name": "preCrimeAddress",
          "type": "address"
        }
      ],
      "name": "PreCrimeSet",
      "type": "event"
    },
    {
      "anonymous": false,
      "inputs": [
        {
          "indexed": true,
          "internalType": "address",
          "name": "from",
          "type": "address"
        },
        {
          "indexed": true,
          "internalType": "address",
          "name": "to",
          "type": "address"
        },
        {
          "indexed": false,
          "internalType": "uint256",
          "name": "value",
          "type": "uint256"
        }
      ],
      "name": "Transfer",
      "type": "event"
    },
    {
      "anonymous": false,
      "inputs": [],
      "name": "TransfersEnabled",
      "type": "event"
    },
    {
      "inputs": [],
      "name": "ADMIRALS_QUARTERS_ROLE",
      "outputs": [
        {
          "internalType": "bytes32",
          "name": "",
          "type": "bytes32"
        }
      ],
      "stateMutability": "view",
      "type": "function"
    },
    {
      "inputs": [],
      "name": "CLOCK_MODE",
      "outputs": [
        {
          "internalType": "string",
          "name": "",
          "type": "string"
        }
      ],
      "stateMutability": "pure",
      "type": "function"
    },
    {
      "inputs": [],
      "name": "DECAY_CONTROLLER_ROLE",
      "outputs": [
        {
          "internalType": "bytes32",
          "name": "",
          "type": "bytes32"
        }
      ],
      "stateMutability": "view",
      "type": "function"
    },
    {
      "inputs": [],
      "name": "DOMAIN_SEPARATOR",
      "outputs": [
        {
          "internalType": "bytes32",
          "name": "",
          "type": "bytes32"
        }
      ],
      "stateMutability": "view",
      "type": "function"
    },
    {
      "inputs": [],
      "name": "GOVERNOR_ROLE",
      "outputs": [
        {
          "internalType": "bytes32",
          "name": "",
          "type": "bytes32"
        }
      ],
      "stateMutability": "view",
      "type": "function"
    },
    {
      "inputs": [],
      "name": "GUARDIAN_ROLE",
      "outputs": [
        {
          "internalType": "bytes32",
          "name": "",
          "type": "bytes32"
        }
      ],
      "stateMutability": "view",
      "type": "function"
    },
    {
      "inputs": [],
      "name": "SEND",
      "outputs": [
        {
          "internalType": "uint16",
          "name": "",
          "type": "uint16"
        }
      ],
      "stateMutability": "view",
      "type": "function"
    },
    {
      "inputs": [],
      "name": "SEND_AND_CALL",
      "outputs": [
        {
          "internalType": "uint16",
          "name": "",
          "type": "uint16"
        }
      ],
      "stateMutability": "view",
      "type": "function"
    },
    {
      "inputs": [],
      "name": "SUPER_KEEPER_ROLE",
      "outputs": [
        {
          "internalType": "bytes32",
          "name": "",
          "type": "bytes32"
        }
      ],
      "stateMutability": "view",
      "type": "function"
    },
    {
      "inputs": [
        {
          "internalType": "address",
          "name": "account",
          "type": "address"
        }
      ],
      "name": "addToWhitelist",
      "outputs": [],
      "stateMutability": "nonpayable",
      "type": "function"
    },
    {
      "inputs": [
        {
          "components": [
            {
              "internalType": "uint32",
              "name": "srcEid",
              "type": "uint32"
            },
            {
              "internalType": "bytes32",
              "name": "sender",
              "type": "bytes32"
            },
            {
              "internalType": "uint64",
              "name": "nonce",
              "type": "uint64"
            }
          ],
          "internalType": "struct Origin",
          "name": "origin",
          "type": "tuple"
        }
      ],
      "name": "allowInitializePath",
      "outputs": [
        {
          "internalType": "bool",
          "name": "",
          "type": "bool"
        }
      ],
      "stateMutability": "view",
      "type": "function"
    },
    {
      "inputs": [
        {
          "internalType": "address",
          "name": "owner",
          "type": "address"
        },
        {
          "internalType": "address",
          "name": "spender",
          "type": "address"
        }
      ],
      "name": "allowance",
      "outputs": [
        {
          "internalType": "uint256",
          "name": "",
          "type": "uint256"
        }
      ],
      "stateMutability": "view",
      "type": "function"
    },
    {
      "inputs": [],
      "name": "approvalRequired",
      "outputs": [
        {
          "internalType": "bool",
          "name": "",
          "type": "bool"
        }
      ],
      "stateMutability": "pure",
      "type": "function"
    },
    {
      "inputs": [
        {
          "internalType": "address",
          "name": "spender",
          "type": "address"
        },
        {
          "internalType": "uint256",
          "name": "value",
          "type": "uint256"
        }
      ],
      "name": "approve",
      "outputs": [
        {
          "internalType": "bool",
          "name": "",
          "type": "bool"
        }
      ],
      "stateMutability": "nonpayable",
      "type": "function"
    },
    {
      "inputs": [
        {
          "internalType": "address",
          "name": "account",
          "type": "address"
        }
      ],
      "name": "balanceOf",
      "outputs": [
        {
          "internalType": "uint256",
          "name": "",
          "type": "uint256"
        }
      ],
      "stateMutability": "view",
      "type": "function"
    },
    {
      "inputs": [
        {
          "internalType": "uint256",
          "name": "value",
          "type": "uint256"
        }
      ],
      "name": "burn",
      "outputs": [],
      "stateMutability": "nonpayable",
      "type": "function"
    },
    {
      "inputs": [
        {
          "internalType": "address",
          "name": "account",
          "type": "address"
        },
        {
          "internalType": "uint256",
          "name": "value",
          "type": "uint256"
        }
      ],
      "name": "burnFrom",
      "outputs": [],
      "stateMutability": "nonpayable",
      "type": "function"
    },
    {
      "inputs": [],
      "name": "cap",
      "outputs": [
        {
          "internalType": "uint256",
          "name": "",
          "type": "uint256"
        }
      ],
      "stateMutability": "view",
      "type": "function"
    },
    {
      "inputs": [
        {
          "internalType": "address",
          "name": "account",
          "type": "address"
        },
        {
          "internalType": "uint32",
          "name": "pos",
          "type": "uint32"
        }
      ],
      "name": "checkpoints",
      "outputs": [
        {
          "components": [
            {
              "internalType": "uint48",
              "name": "_key",
              "type": "uint48"
            },
            {
              "internalType": "uint208",
              "name": "_value",
              "type": "uint208"
            }
          ],
          "internalType": "struct Checkpoints.Checkpoint208",
          "name": "",
          "type": "tuple"
        }
      ],
      "stateMutability": "view",
      "type": "function"
    },
    {
      "inputs": [],
      "name": "clock",
      "outputs": [
        {
          "internalType": "uint48",
          "name": "",
          "type": "uint48"
        }
      ],
      "stateMutability": "view",
      "type": "function"
    },
    {
      "inputs": [
        {
          "internalType": "uint32",
          "name": "_eid",
          "type": "uint32"
        },
        {
          "internalType": "uint16",
          "name": "_msgType",
          "type": "uint16"
        },
        {
          "internalType": "bytes",
          "name": "_extraOptions",
          "type": "bytes"
        }
      ],
      "name": "combineOptions",
      "outputs": [
        {
          "internalType": "bytes",
          "name": "",
          "type": "bytes"
        }
      ],
      "stateMutability": "view",
      "type": "function"
    },
    {
      "inputs": [],
      "name": "decimalConversionRate",
      "outputs": [
        {
          "internalType": "uint256",
          "name": "",
          "type": "uint256"
        }
      ],
      "stateMutability": "view",
      "type": "function"
    },
    {
      "inputs": [],
      "name": "decimals",
      "outputs": [
        {
          "internalType": "uint8",
          "name": "",
          "type": "uint8"
        }
      ],
      "stateMutability": "view",
      "type": "function"
    },
    {
      "inputs": [
        {
          "internalType": "address",
          "name": "delegatee",
          "type": "address"
        }
      ],
      "name": "delegate",
      "outputs": [],
      "stateMutability": "nonpayable",
      "type": "function"
    },
    {
      "inputs": [
        {
          "internalType": "address",
          "name": "delegatee",
          "type": "address"
        },
        {
          "internalType": "uint256",
          "name": "nonce",
          "type": "uint256"
        },
        {
          "internalType": "uint256",
          "name": "expiry",
          "type": "uint256"
        },
        {
          "internalType": "uint8",
          "name": "v",
          "type": "uint8"
        },
        {
          "internalType": "bytes32",
          "name": "r",
          "type": "bytes32"
        },
        {
          "internalType": "bytes32",
          "name": "s",
          "type": "bytes32"
        }
      ],
      "name": "delegateBySig",
      "outputs": [],
      "stateMutability": "nonpayable",
      "type": "function"
    },
    {
      "inputs": [
        {
          "internalType": "address",
          "name": "account",
          "type": "address"
        }
      ],
      "name": "delegates",
      "outputs": [
        {
          "internalType": "address",
          "name": "",
          "type": "address"
        }
      ],
      "stateMutability": "view",
      "type": "function"
    },
    {
      "inputs": [],
      "name": "eip712Domain",
      "outputs": [
        {
          "internalType": "bytes1",
          "name": "fields",
          "type": "bytes1"
        },
        {
          "internalType": "string",
          "name": "name",
          "type": "string"
        },
        {
          "internalType": "string",
          "name": "version",
          "type": "string"
        },
        {
          "internalType": "uint256",
          "name": "chainId",
          "type": "uint256"
        },
        {
          "internalType": "address",
          "name": "verifyingContract",
          "type": "address"
        },
        {
          "internalType": "bytes32",
          "name": "salt",
          "type": "bytes32"
        },
        {
          "internalType": "uint256[]",
          "name": "extensions",
          "type": "uint256[]"
        }
      ],
      "stateMutability": "view",
      "type": "function"
    },
    {
      "inputs": [],
      "name": "enableTransfers",
      "outputs": [],
      "stateMutability": "nonpayable",
      "type": "function"
    },
    {
      "inputs": [],
      "name": "endpoint",
      "outputs": [
        {
          "internalType": "contract ILayerZeroEndpointV2",
          "name": "",
          "type": "address"
        }
      ],
      "stateMutability": "view",
      "type": "function"
    },
    {
      "inputs": [
        {
          "internalType": "uint32",
          "name": "eid",
          "type": "uint32"
        },
        {
          "internalType": "uint16",
          "name": "msgType",
          "type": "uint16"
        }
      ],
      "name": "enforcedOptions",
      "outputs": [
        {
          "internalType": "bytes",
          "name": "enforcedOption",
          "type": "bytes"
        }
      ],
      "stateMutability": "view",
      "type": "function"
    },
    {
      "inputs": [
        {
          "internalType": "enum ContractSpecificRoles",
          "name": "roleName",
          "type": "uint8"
        },
        {
          "internalType": "address",
          "name": "roleTargetContract",
          "type": "address"
        }
      ],
      "name": "generateRole",
      "outputs": [
        {
          "internalType": "bytes32",
          "name": "",
          "type": "bytes32"
        }
      ],
      "stateMutability": "pure",
      "type": "function"
    },
    {
      "inputs": [
        {
          "internalType": "address",
          "name": "account",
          "type": "address"
        }
      ],
      "name": "getDecayFactor",
      "outputs": [
        {
          "internalType": "uint256",
          "name": "",
          "type": "uint256"
        }
      ],
      "stateMutability": "view",
      "type": "function"
    },
    {
      "inputs": [],
      "name": "getDecayFreeWindow",
      "outputs": [
        {
          "internalType": "uint40",
          "name": "",
          "type": "uint40"
        }
      ],
      "stateMutability": "view",
      "type": "function"
    },
    {
      "inputs": [],
      "name": "getDecayRatePerYear",
      "outputs": [
        {
          "internalType": "Percentage",
          "name": "",
          "type": "uint256"
        }
      ],
      "stateMutability": "view",
      "type": "function"
    },
    {
      "inputs": [
        {
          "internalType": "address",
          "name": "account",
          "type": "address"
        }
      ],
      "name": "getDelegationChainLength",
      "outputs": [
        {
          "internalType": "uint256",
          "name": "",
          "type": "uint256"
        }
      ],
      "stateMutability": "view",
      "type": "function"
    },
    {
      "inputs": [
        {
          "internalType": "uint256",
          "name": "timepoint",
          "type": "uint256"
        }
      ],
      "name": "getPastTotalSupply",
      "outputs": [
        {
          "internalType": "uint256",
          "name": "",
          "type": "uint256"
        }
      ],
      "stateMutability": "view",
      "type": "function"
    },
    {
      "inputs": [
        {
          "internalType": "address",
          "name": "account",
          "type": "address"
        },
        {
          "internalType": "uint256",
          "name": "timepoint",
          "type": "uint256"
        }
      ],
      "name": "getPastVotes",
      "outputs": [
        {
          "internalType": "uint256",
          "name": "",
          "type": "uint256"
        }
      ],
      "stateMutability": "view",
      "type": "function"
    },
    {
      "inputs": [
        {
          "internalType": "address",
          "name": "account",
          "type": "address"
        }
      ],
      "name": "getVotes",
      "outputs": [
        {
          "internalType": "uint256",
          "name": "",
          "type": "uint256"
        }
      ],
      "stateMutability": "view",
      "type": "function"
    },
    {
      "inputs": [
        {
          "internalType": "address",
          "name": "account",
          "type": "address"
        }
      ],
      "name": "hasAdmiralsQuartersRole",
      "outputs": [
        {
          "internalType": "bool",
          "name": "",
          "type": "bool"
        }
      ],
      "stateMutability": "view",
      "type": "function"
    },
    {
      "inputs": [],
      "name": "hubChainId",
      "outputs": [
        {
          "internalType": "uint32",
          "name": "",
          "type": "uint32"
        }
      ],
      "stateMutability": "view",
      "type": "function"
    },
    {
      "inputs": [
        {
          "components": [
            {
              "internalType": "uint256",
              "name": "initialSupply",
              "type": "uint256"
            },
            {
              "internalType": "uint40",
              "name": "initialDecayFreeWindow",
              "type": "uint40"
            },
            {
              "internalType": "Percentage",
              "name": "initialYearlyDecayRate",
              "type": "uint256"
            },
            {
              "internalType": "enum VotingDecayLibrary.DecayFunction",
              "name": "initialDecayFunction",
              "type": "uint8"
            }
          ],
          "internalType": "struct ISummerToken.InitializeParams",
          "name": "params",
          "type": "tuple"
        }
      ],
      "name": "initialize",
      "outputs": [],
      "stateMutability": "nonpayable",
      "type": "function"
    },
    {
      "inputs": [
        {
          "components": [
            {
              "internalType": "uint32",
              "name": "srcEid",
              "type": "uint32"
            },
            {
              "internalType": "bytes32",
              "name": "sender",
              "type": "bytes32"
            },
            {
              "internalType": "uint64",
              "name": "nonce",
              "type": "uint64"
            }
          ],
          "internalType": "struct Origin",
          "name": "",
          "type": "tuple"
        },
        {
          "internalType": "bytes",
          "name": "",
          "type": "bytes"
        },
        {
          "internalType": "address",
          "name": "_sender",
          "type": "address"
        }
      ],
      "name": "isComposeMsgSender",
      "outputs": [
        {
          "internalType": "bool",
          "name": "",
          "type": "bool"
        }
      ],
      "stateMutability": "view",
      "type": "function"
    },
    {
      "inputs": [
        {
          "internalType": "uint32",
          "name": "_eid",
          "type": "uint32"
        },
        {
          "internalType": "bytes32",
          "name": "_peer",
          "type": "bytes32"
        }
      ],
      "name": "isPeer",
      "outputs": [
        {
          "internalType": "bool",
          "name": "",
          "type": "bool"
        }
      ],
      "stateMutability": "view",
      "type": "function"
    },
    {
      "inputs": [
        {
          "components": [
            {
              "internalType": "uint32",
              "name": "srcEid",
              "type": "uint32"
            },
            {
              "internalType": "bytes32",
              "name": "sender",
              "type": "bytes32"
            },
            {
              "internalType": "uint64",
              "name": "nonce",
              "type": "uint64"
            }
          ],
          "internalType": "struct Origin",
          "name": "_origin",
          "type": "tuple"
        },
        {
          "internalType": "bytes32",
          "name": "_guid",
          "type": "bytes32"
        },
        {
          "internalType": "bytes",
          "name": "_message",
          "type": "bytes"
        },
        {
          "internalType": "address",
          "name": "_executor",
          "type": "address"
        },
        {
          "internalType": "bytes",
          "name": "_extraData",
          "type": "bytes"
        }
      ],
      "name": "lzReceive",
      "outputs": [],
      "stateMutability": "payable",
      "type": "function"
    },
    {
      "inputs": [
        {
          "components": [
            {
              "components": [
                {
                  "internalType": "uint32",
                  "name": "srcEid",
                  "type": "uint32"
                },
                {
                  "internalType": "bytes32",
                  "name": "sender",
                  "type": "bytes32"
                },
                {
                  "internalType": "uint64",
                  "name": "nonce",
                  "type": "uint64"
                }
              ],
              "internalType": "struct Origin",
              "name": "origin",
              "type": "tuple"
            },
            {
              "internalType": "uint32",
              "name": "dstEid",
              "type": "uint32"
            },
            {
              "internalType": "address",
              "name": "receiver",
              "type": "address"
            },
            {
              "internalType": "bytes32",
              "name": "guid",
              "type": "bytes32"
            },
            {
              "internalType": "uint256",
              "name": "value",
              "type": "uint256"
            },
            {
              "internalType": "address",
              "name": "executor",
              "type": "address"
            },
            {
              "internalType": "bytes",
              "name": "message",
              "type": "bytes"
            },
            {
              "internalType": "bytes",
              "name": "extraData",
              "type": "bytes"
            }
          ],
          "internalType": "struct InboundPacket[]",
          "name": "_packets",
          "type": "tuple[]"
        }
      ],
      "name": "lzReceiveAndRevert",
      "outputs": [],
      "stateMutability": "payable",
      "type": "function"
    },
    {
      "inputs": [
        {
          "components": [
            {
              "internalType": "uint32",
              "name": "srcEid",
              "type": "uint32"
            },
            {
              "internalType": "bytes32",
              "name": "sender",
              "type": "bytes32"
            },
            {
              "internalType": "uint64",
              "name": "nonce",
              "type": "uint64"
            }
          ],
          "internalType": "struct Origin",
          "name": "_origin",
          "type": "tuple"
        },
        {
          "internalType": "bytes32",
          "name": "_guid",
          "type": "bytes32"
        },
        {
          "internalType": "bytes",
          "name": "_message",
          "type": "bytes"
        },
        {
          "internalType": "address",
          "name": "_executor",
          "type": "address"
        },
        {
          "internalType": "bytes",
          "name": "_extraData",
          "type": "bytes"
        }
      ],
      "name": "lzReceiveSimulate",
      "outputs": [],
      "stateMutability": "payable",
      "type": "function"
    },
    {
      "inputs": [],
      "name": "msgInspector",
      "outputs": [
        {
          "internalType": "address",
          "name": "",
          "type": "address"
        }
      ],
      "stateMutability": "view",
      "type": "function"
    },
    {
      "inputs": [],
      "name": "name",
      "outputs": [
        {
          "internalType": "string",
          "name": "",
          "type": "string"
        }
      ],
      "stateMutability": "view",
      "type": "function"
    },
    {
      "inputs": [
        {
          "internalType": "uint32",
          "name": "",
          "type": "uint32"
        },
        {
          "internalType": "bytes32",
          "name": "",
          "type": "bytes32"
        }
      ],
      "name": "nextNonce",
      "outputs": [
        {
          "internalType": "uint64",
          "name": "nonce",
          "type": "uint64"
        }
      ],
      "stateMutability": "view",
      "type": "function"
    },
    {
      "inputs": [
        {
          "internalType": "address",
          "name": "owner",
          "type": "address"
        }
      ],
      "name": "nonces",
      "outputs": [
        {
          "internalType": "uint256",
          "name": "",
          "type": "uint256"
        }
      ],
      "stateMutability": "view",
      "type": "function"
    },
    {
      "inputs": [
        {
          "internalType": "address",
          "name": "account",
          "type": "address"
        }
      ],
      "name": "numCheckpoints",
      "outputs": [
        {
          "internalType": "uint32",
          "name": "",
          "type": "uint32"
        }
      ],
      "stateMutability": "view",
      "type": "function"
    },
    {
      "inputs": [],
      "name": "oApp",
      "outputs": [
        {
          "internalType": "address",
          "name": "",
          "type": "address"
        }
      ],
      "stateMutability": "view",
      "type": "function"
    },
    {
      "inputs": [],
      "name": "oAppVersion",
      "outputs": [
        {
          "internalType": "uint64",
          "name": "senderVersion",
          "type": "uint64"
        },
        {
          "internalType": "uint64",
          "name": "receiverVersion",
          "type": "uint64"
        }
      ],
      "stateMutability": "pure",
      "type": "function"
    },
    {
      "inputs": [],
      "name": "oftVersion",
      "outputs": [
        {
          "internalType": "bytes4",
          "name": "interfaceId",
          "type": "bytes4"
        },
        {
          "internalType": "uint64",
          "name": "version",
          "type": "uint64"
        }
      ],
      "stateMutability": "pure",
      "type": "function"
    },
    {
      "inputs": [],
      "name": "owner",
      "outputs": [
        {
          "internalType": "address",
          "name": "",
          "type": "address"
        }
      ],
      "stateMutability": "view",
      "type": "function"
    },
    {
      "inputs": [
        {
          "internalType": "uint32",
          "name": "eid",
          "type": "uint32"
        }
      ],
      "name": "peers",
      "outputs": [
        {
          "internalType": "bytes32",
          "name": "peer",
          "type": "bytes32"
        }
      ],
      "stateMutability": "view",
      "type": "function"
    },
    {
      "inputs": [
        {
          "internalType": "address",
          "name": "owner",
          "type": "address"
        },
        {
          "internalType": "address",
          "name": "spender",
          "type": "address"
        },
        {
          "internalType": "uint256",
          "name": "value",
          "type": "uint256"
        },
        {
          "internalType": "uint256",
          "name": "deadline",
          "type": "uint256"
        },
        {
          "internalType": "uint8",
          "name": "v",
          "type": "uint8"
        },
        {
          "internalType": "bytes32",
          "name": "r",
          "type": "bytes32"
        },
        {
          "internalType": "bytes32",
          "name": "s",
          "type": "bytes32"
        }
      ],
      "name": "permit",
      "outputs": [],
      "stateMutability": "nonpayable",
      "type": "function"
    },
    {
      "inputs": [],
      "name": "preCrime",
      "outputs": [
        {
          "internalType": "address",
          "name": "",
          "type": "address"
        }
      ],
      "stateMutability": "view",
      "type": "function"
    },
    {
      "inputs": [
        {
          "components": [
            {
              "internalType": "uint32",
              "name": "dstEid",
              "type": "uint32"
            },
            {
              "internalType": "bytes32",
              "name": "to",
              "type": "bytes32"
            },
            {
              "internalType": "uint256",
              "name": "amountLD",
              "type": "uint256"
            },
            {
              "internalType": "uint256",
              "name": "minAmountLD",
              "type": "uint256"
            },
            {
              "internalType": "bytes",
              "name": "extraOptions",
              "type": "bytes"
            },
            {
              "internalType": "bytes",
              "name": "composeMsg",
              "type": "bytes"
            },
            {
              "internalType": "bytes",
              "name": "oftCmd",
              "type": "bytes"
            }
          ],
          "internalType": "struct SendParam",
          "name": "_sendParam",
          "type": "tuple"
        }
      ],
      "name": "quoteOFT",
      "outputs": [
        {
          "components": [
            {
              "internalType": "uint256",
              "name": "minAmountLD",
              "type": "uint256"
            },
            {
              "internalType": "uint256",
              "name": "maxAmountLD",
              "type": "uint256"
            }
          ],
          "internalType": "struct OFTLimit",
          "name": "oftLimit",
          "type": "tuple"
        },
        {
          "components": [
            {
              "internalType": "int256",
              "name": "feeAmountLD",
              "type": "int256"
            },
            {
              "internalType": "string",
              "name": "description",
              "type": "string"
            }
          ],
          "internalType": "struct OFTFeeDetail[]",
          "name": "oftFeeDetails",
          "type": "tuple[]"
        },
        {
          "components": [
            {
              "internalType": "uint256",
              "name": "amountSentLD",
              "type": "uint256"
            },
            {
              "internalType": "uint256",
              "name": "amountReceivedLD",
              "type": "uint256"
            }
          ],
          "internalType": "struct OFTReceipt",
          "name": "oftReceipt",
          "type": "tuple"
        }
      ],
      "stateMutability": "view",
      "type": "function"
    },
    {
      "inputs": [
        {
          "components": [
            {
              "internalType": "uint32",
              "name": "dstEid",
              "type": "uint32"
            },
            {
              "internalType": "bytes32",
              "name": "to",
              "type": "bytes32"
            },
            {
              "internalType": "uint256",
              "name": "amountLD",
              "type": "uint256"
            },
            {
              "internalType": "uint256",
              "name": "minAmountLD",
              "type": "uint256"
            },
            {
              "internalType": "bytes",
              "name": "extraOptions",
              "type": "bytes"
            },
            {
              "internalType": "bytes",
              "name": "composeMsg",
              "type": "bytes"
            },
            {
              "internalType": "bytes",
              "name": "oftCmd",
              "type": "bytes"
            }
          ],
          "internalType": "struct SendParam",
          "name": "_sendParam",
          "type": "tuple"
        },
        {
          "internalType": "bool",
          "name": "_payInLzToken",
          "type": "bool"
        }
      ],
      "name": "quoteSend",
      "outputs": [
        {
          "components": [
            {
              "internalType": "uint256",
              "name": "nativeFee",
              "type": "uint256"
            },
            {
              "internalType": "uint256",
              "name": "lzTokenFee",
              "type": "uint256"
            }
          ],
          "internalType": "struct MessagingFee",
          "name": "msgFee",
          "type": "tuple"
        }
      ],
      "stateMutability": "view",
      "type": "function"
    },
    {
      "inputs": [
        {
          "internalType": "address",
          "name": "account",
          "type": "address"
        }
      ],
      "name": "removeFromWhitelist",
      "outputs": [],
      "stateMutability": "nonpayable",
      "type": "function"
    },
    {
      "inputs": [],
      "name": "renounceOwnership",
      "outputs": [],
      "stateMutability": "nonpayable",
      "type": "function"
    },
    {
      "inputs": [],
      "name": "rewardsManager",
      "outputs": [
        {
          "internalType": "contract IGovernanceRewardsManager",
          "name": "",
          "type": "address"
        }
      ],
      "stateMutability": "view",
      "type": "function"
    },
    {
      "inputs": [
        {
          "components": [
            {
              "internalType": "uint32",
              "name": "dstEid",
              "type": "uint32"
            },
            {
              "internalType": "bytes32",
              "name": "to",
              "type": "bytes32"
            },
            {
              "internalType": "uint256",
              "name": "amountLD",
              "type": "uint256"
            },
            {
              "internalType": "uint256",
              "name": "minAmountLD",
              "type": "uint256"
            },
            {
              "internalType": "bytes",
              "name": "extraOptions",
              "type": "bytes"
            },
            {
              "internalType": "bytes",
              "name": "composeMsg",
              "type": "bytes"
            },
            {
              "internalType": "bytes",
              "name": "oftCmd",
              "type": "bytes"
            }
          ],
          "internalType": "struct SendParam",
          "name": "_sendParam",
          "type": "tuple"
        },
        {
          "components": [
            {
              "internalType": "uint256",
              "name": "nativeFee",
              "type": "uint256"
            },
            {
              "internalType": "uint256",
              "name": "lzTokenFee",
              "type": "uint256"
            }
          ],
          "internalType": "struct MessagingFee",
          "name": "_fee",
          "type": "tuple"
        },
        {
          "internalType": "address",
          "name": "_refundAddress",
          "type": "address"
        }
      ],
      "name": "send",
      "outputs": [
        {
          "components": [
            {
              "internalType": "bytes32",
              "name": "guid",
              "type": "bytes32"
            },
            {
              "internalType": "uint64",
              "name": "nonce",
              "type": "uint64"
            },
            {
              "components": [
                {
                  "internalType": "uint256",
                  "name": "nativeFee",
                  "type": "uint256"
                },
                {
                  "internalType": "uint256",
                  "name": "lzTokenFee",
                  "type": "uint256"
                }
              ],
              "internalType": "struct MessagingFee",
              "name": "fee",
              "type": "tuple"
            }
          ],
          "internalType": "struct MessagingReceipt",
          "name": "msgReceipt",
          "type": "tuple"
        },
        {
          "components": [
            {
              "internalType": "uint256",
              "name": "amountSentLD",
              "type": "uint256"
            },
            {
              "internalType": "uint256",
              "name": "amountReceivedLD",
              "type": "uint256"
            }
          ],
          "internalType": "struct OFTReceipt",
          "name": "oftReceipt",
          "type": "tuple"
        }
      ],
      "stateMutability": "payable",
      "type": "function"
    },
    {
      "inputs": [
        {
          "internalType": "uint40",
          "name": "newWindow",
          "type": "uint40"
        }
      ],
      "name": "setDecayFreeWindow",
      "outputs": [],
      "stateMutability": "nonpayable",
      "type": "function"
    },
    {
      "inputs": [
        {
          "internalType": "enum VotingDecayLibrary.DecayFunction",
          "name": "newFunction",
          "type": "uint8"
        }
      ],
      "name": "setDecayFunction",
      "outputs": [],
      "stateMutability": "nonpayable",
      "type": "function"
    },
    {
      "inputs": [
        {
          "internalType": "Percentage",
          "name": "newYearlyRate",
          "type": "uint256"
        }
      ],
      "name": "setDecayRatePerYear",
      "outputs": [],
      "stateMutability": "nonpayable",
      "type": "function"
    },
    {
      "inputs": [
        {
          "internalType": "address",
          "name": "_delegate",
          "type": "address"
        }
      ],
      "name": "setDelegate",
      "outputs": [],
      "stateMutability": "nonpayable",
      "type": "function"
    },
    {
      "inputs": [
        {
          "components": [
            {
              "internalType": "uint32",
              "name": "eid",
              "type": "uint32"
            },
            {
              "internalType": "uint16",
              "name": "msgType",
              "type": "uint16"
            },
            {
              "internalType": "bytes",
              "name": "options",
              "type": "bytes"
            }
          ],
          "internalType": "struct EnforcedOptionParam[]",
          "name": "_enforcedOptions",
          "type": "tuple[]"
        }
      ],
      "name": "setEnforcedOptions",
      "outputs": [],
      "stateMutability": "nonpayable",
      "type": "function"
    },
    {
      "inputs": [
        {
          "internalType": "address",
          "name": "_msgInspector",
          "type": "address"
        }
      ],
      "name": "setMsgInspector",
      "outputs": [],
      "stateMutability": "nonpayable",
      "type": "function"
    },
    {
      "inputs": [
        {
          "internalType": "uint32",
          "name": "_eid",
          "type": "uint32"
        },
        {
          "internalType": "bytes32",
          "name": "_peer",
          "type": "bytes32"
        }
      ],
      "name": "setPeer",
      "outputs": [],
      "stateMutability": "nonpayable",
      "type": "function"
    },
    {
      "inputs": [
        {
          "internalType": "address",
          "name": "_preCrime",
          "type": "address"
        }
      ],
      "name": "setPreCrime",
      "outputs": [],
      "stateMutability": "nonpayable",
      "type": "function"
    },
    {
      "inputs": [],
      "name": "sharedDecimals",
      "outputs": [
        {
          "internalType": "uint8",
          "name": "",
          "type": "uint8"
        }
      ],
      "stateMutability": "view",
      "type": "function"
    },
    {
      "inputs": [],
      "name": "symbol",
      "outputs": [
        {
          "internalType": "string",
          "name": "",
          "type": "string"
        }
      ],
      "stateMutability": "view",
      "type": "function"
    },
    {
      "inputs": [],
      "name": "token",
      "outputs": [
        {
          "internalType": "address",
          "name": "",
          "type": "address"
        }
      ],
      "stateMutability": "view",
      "type": "function"
    },
    {
      "inputs": [],
      "name": "totalSupply",
      "outputs": [
        {
          "internalType": "uint256",
          "name": "",
          "type": "uint256"
        }
      ],
      "stateMutability": "view",
      "type": "function"
    },
    {
      "inputs": [
        {
          "internalType": "address",
          "name": "to",
          "type": "address"
        },
        {
          "internalType": "uint256",
          "name": "value",
          "type": "uint256"
        }
      ],
      "name": "transfer",
      "outputs": [
        {
          "internalType": "bool",
          "name": "",
          "type": "bool"
        }
      ],
      "stateMutability": "nonpayable",
      "type": "function"
    },
    {
      "inputs": [],
      "name": "transferEnableDate",
      "outputs": [
        {
          "internalType": "uint256",
          "name": "",
          "type": "uint256"
        }
      ],
      "stateMutability": "view",
      "type": "function"
    },
    {
      "inputs": [
        {
          "internalType": "address",
          "name": "from",
          "type": "address"
        },
        {
          "internalType": "address",
          "name": "to",
          "type": "address"
        },
        {
          "internalType": "uint256",
          "name": "value",
          "type": "uint256"
        }
      ],
      "name": "transferFrom",
      "outputs": [
        {
          "internalType": "bool",
          "name": "",
          "type": "bool"
        }
      ],
      "stateMutability": "nonpayable",
      "type": "function"
    },
    {
      "inputs": [
        {
          "internalType": "address",
          "name": "newOwner",
          "type": "address"
        }
      ],
      "name": "transferOwnership",
      "outputs": [],
      "stateMutability": "nonpayable",
      "type": "function"
    },
    {
      "inputs": [],
      "name": "transfersEnabled",
      "outputs": [
        {
          "internalType": "bool",
          "name": "",
          "type": "bool"
        }
      ],
      "stateMutability": "view",
      "type": "function"
    },
    {
      "inputs": [
        {
          "internalType": "address",
          "name": "account",
          "type": "address"
        }
      ],
      "name": "updateDecayFactor",
      "outputs": [],
      "stateMutability": "nonpayable",
      "type": "function"
    },
    {
      "inputs": [],
      "name": "vestingWalletFactory",
      "outputs": [
        {
          "internalType": "contract SummerVestingWalletFactory",
          "name": "",
          "type": "address"
        }
      ],
      "stateMutability": "view",
      "type": "function"
    },
    {
      "inputs": [
        {
          "internalType": "address",
          "name": "account",
          "type": "address"
        }
      ],
      "name": "whitelistedAddresses",
      "outputs": [
        {
          "internalType": "bool",
          "name": "isWhitelisted",
          "type": "bool"
        }
      ],
      "stateMutability": "view",
      "type": "function"
    }
  ],
  "bytecode": "0x61024080604052346108bb575f9061bb66803803809161001f82856108e6565b83398101906020818303126108bb578051906001600160401b0382116108bb5701610100818303126108bb576040519161010083016001600160401b038111848210176108d25760405281516001600160401b0381116108bb5781610085918401610909565b83526020820151906001600160401b0382116108bb576100a6918301610909565b918260208201526100b96040830161095e565b908160408201526100cc6060840161095e565b908160608201526100df6080850161095e565b92608082019284845260a0860151918260a085015260e060c08801519760c0860198895201519563ffffffff871687036108bb5760e0850196875293516040805190996001600160a01b039687169691948216939091166101408b866108e6565b600185526020850193603160f81b855280156108bf575f80546001600160a01b03198116831782558d51939183916001600160a01b0316907f8be0079c531659141344cd1fd0a4f28419497f9722a3daafe3b4186f6b6457e09080a380608052803b156108bb576024835f8193819563ca5eb5e160e01b845260048401525af180156108b15761089c575b5064e8d4a5100060a05281516001600160401b0381116107a957600854600181811c91168015610892575b602082101461078b57601f811161082a575b508060208d601f83116001146107c857916107bd575b508160011b915f199060031b1c1916176008555b8051906001600160401b0382116107a957600954600181811c9116801561079f575b602082101461078b579081601f84931161071a575b506020908d601f84116001146106b657926106ab575b50508160011b915f199060031b1c1916176009555b61029d81610972565b610160526102aa83610b0d565b610180526020815191012091826101205251902080610140524660e05287519060208201927f8b73c3c69bb8fe3d512ecc4cf759cc79239f7b179b0ffacaa9a75d522b39400f84528983015260608201524660808201523060a082015260a0815261031660c0826108e6565b51902060c05230610100528015610697576101a05280156106835784516301ffc9a760e01b815263261c910560e21b6004820152602081602481855afa90811561067957879161063a575b5015610628576101c052301561061957306101e05280518451906001600160a01b0316612df9808301906001600160401b0382118483101761060557916103c29184936169ba85393081526001600160a01b03909116602082015260400190565b039086f080156105fb57601180546001600160a01b0319166001600160a01b0392909216918217905580156105ec576010546001600160a01b0381166105dd576001600160a01b03191617601055518351906001600160a01b03166123b3808301906001600160401b038211848310176105c9579161045b9184936197b385393081526001600160a01b03909116602082015260400190565b039085f080156105bc57601780546001600160a01b0319166001600160a01b039092169190911790555163ffffffff1661020052516102205251615d749081610c4682396080518181816109ea01528181610b0a01528181610fd8015281816114c60152818161287d0152818161461001526150cf015260a051818181610f2801528181611e1d015281816136f001528181613ba3015281816145170152614736015260c05181613983015260e05181613a400152610100518161394d015261012051816139d2015261014051816139f8015261016051816119270152610180518161195001526101a051818181610dcd0152613fe301526101c0518181816117a201528181611a7201528181611cfb01528181611eec0152818161211801528181612b8e01528181612c3f0152612d3601526101e051816113d1015261020051818181611c680152612fe60152610220518181816108ce01526132c70152f35b50505051903d90823e3d90fd5b634e487b7160e01b88526041600452602488fd5b6336f62bb160e01b8752600487fd5b6334566e4b60e21b8652600486fd5b84513d87823e3d90fd5b634e487b7160e01b89526041600452602489fd5b6334566e4b60e21b8552600485fd5b6347bd7c1d60e01b8652600452602485fd5b90506020813d602011610671575b81610655602093836108e6565b8101031261066d5751801515810361066d575f610361565b8680fd5b3d9150610648565b86513d89823e3d90fd5b6347bd7c1d60e01b86526004869052602486fd5b63392e1e2760e01b87526004879052602487fd5b015190505f8061027f565b600981528281209350601f198516905b81811061070257509084600195949392106106ea575b505050811b01600955610294565b01515f1960f88460031b161c191690555f80806106dc565b929360206001819287860151815501950193016106c6565b60098e529091507f6e1540171b6c0c960b71a7020d9f60077f6af931a8bbf590da0223dacf75c7af601f840160051c81019160208510610781575b849392918f91601f0160051c0191905b828210610773575050610269565b81558493506001018e610765565b9091508190610755565b634e487b7160e01b8d52602260045260248dfd5b90607f1690610254565b634e487b7160e01b8c52604160045260248cfd5b90508301515f61021e565b600881528181209250601f198416905b818110610812575090836001949392106107fa575b5050811b01600855610232565b8501515f1960f88460031b161c191690555f806107ed565b9192602060018192868a0151815501940192016107d8565b60088d527ff3f7a9fe364faab93b216da50a3214154f22a0a2b415b23a84c8169e8b636ee3601f830160051c81019160208410610888575b601f0160051c01908d905b82811061087b575050610208565b6001918155018d9061086d565b9091508190610862565b90607f16906101f6565b6108a9919b505f906108e6565b5f995f6101cb565b8b513d5f823e3d90fd5b5f80fd5b631e4fbdf760e01b5f525f60045260245ffd5b634e487b7160e01b5f52604160045260245ffd5b601f909101601f19168101906001600160401b038211908210176108d257604052565b81601f820112156108bb578051906001600160401b0382116108d2576040519261093d601f8401601f1916602001856108e6565b828452602083830101116108bb57815f9260208093018386015e8301015290565b51906001600160a01b03821682036108bb57565b908151602081105f146109ec575090601f8151116109ac57602081519101516020821061099d571790565b5f198260200360031b1b161790565b604460209160405192839163305a27a960e01b83528160048401528051918291826024860152018484015e5f828201840152601f01601f19168101030190fd5b6001600160401b0381116108d257600a54600181811c91168015610b03575b6020821014610aef57601f8111610abc575b50602092601f8211600114610a5b57928192935f92610a50575b50508160011b915f199060031b1c191617600a5560ff90565b015190505f80610a37565b601f19821693600a5f52805f20915f5b868110610aa45750836001959610610a8c575b505050811b01600a5560ff90565b01515f1960f88460031b161c191690555f8080610a7e565b91926020600181928685015181550194019201610a6b565b600a5f52601f60205f20910160051c810190601f830160051c015b818110610ae45750610a1d565b5f8155600101610ad7565b634e487b7160e01b5f52602260045260245ffd5b90607f1690610a0b565b908151602081105f14610b38575090601f8151116109ac57602081519101516020821061099d571790565b6001600160401b0381116108d257600b54600181811c91168015610c3b575b6020821014610aef57601f8111610c08575b50602092601f8211600114610ba757928192935f92610b9c575b50508160011b915f199060031b1c191617600b5560ff90565b015190505f80610b83565b601f19821693600b5f52805f20915f5b868110610bf05750836001959610610bd8575b505050811b01600b5560ff90565b01515f1960f88460031b161c191690555f8080610bca565b91926020600181928685015181550194019201610bb7565b600b5f52601f60205f20910160051c810190601f830160051c015b818110610c305750610b69565b5f8155600101610c23565b90607f1690610b5756fe60806040526004361015610011575f80fd5b5f3560e01c806306c933d81461054f57806306fdde031461054a578063095ea7b3146105455780630d35b415146105405780630dce88f41461053b578063111ecdad1461053657806313137d6514610531578063134d4f251461052c578063156a0d0f1461052757806317442b701461052257806318160ddd1461051d5780631f5e13341461051857806323b872dd1461051357806324ea54f41461050e578063313ce567146105095780633400288b14610504578063355274ea146104ff5780633644e515146104fa5780633a46b1a8146104f55780633b6f743b146104f057806341229081146104eb57806342966c68146104e65780634bf5d7e9146104e157806352ae2879146103ba5780635535d461146104dc578063587cde1e146104d75780635a0dfe4d146104d25780635c19a95c146104cd5780635e280f11146104c857806366e943f1146104c357806369b3054b146104be5780636fc1b31e146104b95780636fcfff45146104b457806370a08231146104af578063715018a6146104aa57806379cc6790146104a55780637c930dde146104a05780637d25a05e1461049b5780637ecebe001461049657806382413eac1461049157806382c4e4ca1461048c57806384b0196e14610487578063857749b0146104825780638ab1d6811461047d5780638da5cb5b146104785780638e539e8c1461047357806391ddadf41461046e578063929f58401461046957806392a525d51461046457806395d89b411461045f578063963efcaa1461045a5780639ab24eb0146104555780639de048dc146104505780639f2881181461044b5780639f68b96414610446578063a89f38a314610441578063a9059cbb1461043c578063af35c6c714610437578063b5e86d4f14610432578063b731ea0a1461042d578063b98bd07014610428578063bb0b6a5314610423578063bc70b3541461041e578063bd815db014610419578063bef97c8714610414578063c0b534c21461040f578063c3cda5201461040a578063c7c7f5b314610405578063ca5eb5e114610400578063ccc57490146103fb578063d045a0dc146103f6578063d4243885146103f1578063d505accf146103ec578063dd62ed3e146103e7578063defe2053146103e2578063e0cf01ae146103dd578063e43252d7146103d8578063ea4ebdca146103d3578063ebc136d0146103ce578063f1127ed8146103c9578063f2fde38b146103c4578063f56a47a5146103bf578063fc0c546a146103ba5763ff7bd03d146103b5575f80fd5b612f01565b61110e565b612ed4565b612e4b565b612d9b565b612cc9565b612ca5565b612bf4565b612b47565b612b1f565b612acd565b6129ba565b61294a565b612919565b6128f2565b612855565b6126be565b612571565b612517565b6124f2565b61239e565b61234a565b612311565b61222e565b6121b4565b61217d565b6120da565b6120b0565b612076565b61205c565b611f8e565b611eaa565b611e40565b611e06565b611d61565b611cb4565b611c4c565b611c2a565b611b12565b611aeb565b611a27565b611a0c565b61190f565b6118e2565b611884565b611849565b611823565b61173c565b611708565b6116b1565b611676565b61160e565b61159e565b61152f565b6114f5565b6114b1565b6113a3565b61135d565b61131a565b61129f565b6110be565b61109f565b611077565b610ec4565b610e12565b610df0565b610db6565b610d31565b610d08565b610cce565b610c8e565b610c73565b610c56565b610c35565b610c0f565b610bf4565b6109d7565b610904565b6108b7565b6107d6565b6106f3565b610619565b610597565b6001600160a01b0381160361056557565b5f80fd5b6001600160a01b03165f90815260056020526040902090565b9060018060a01b03165f5260205260405f2090565b34610565576020366003190112610565576004356105b481610554565b60018060a01b03165f526018602052602060ff60405f2054166040519015158152f35b5f91031261056557565b805180835260209291819084018484015e5f828201840152601f01601f1916010190565b9060206106169281815201906105e1565b90565b34610565575f366003190112610565576040515f6008546106398161115b565b80845290600181169081156106cf5750600114610671575b61066d836106618185038261127e565b60405191829182610605565b0390f35b60085f9081527ff3f7a9fe364faab93b216da50a3214154f22a0a2b415b23a84c8169e8b636ee3939250905b8082106106b557509091508101602001610661610651565b91926001816020925483858801015201910190929161069d565b60ff191660208086019190915291151560051b840190910191506106619050610651565b346105655760403660031901126105655761071d60043561071381610554565b60243590336146a5565b602060405160018152f35b908160e09103126105655790565b939291906107528560a081019260208091805184520151910152565b60a06040860152815180915260c0850190602060c08260051b8801019301915f905b82821061079a57505050509060606107989294019060208091805184520151910152565b565b909192936020806107c860019360bf198c82030186526040838a5180518452015191818582015201906105e1565b960192019201909291610774565b34610565576020366003190112610565576004356001600160401b03811161056557610806903690600401610728565b61080e612f46565b50610817612f46565b5060405161082481611228565b5f81526001600160401b036020820152602060405192610844828561127e565b5f8452601f1982015f5b8181106108945750509061087861066d926040810135610872606083013592612f75565b506136e7565b9091610882611f52565b92835282015260405193849384610736565b83906040516108a281611228565b5f81526060838201528282890101520161084e565b34610565575f3660031901126105655760206040517f00000000000000000000000000000000000000000000000000000000000000008152f35b6001600160a01b03909116815260200190565b34610565575f366003190112610565576004546040516001600160a01b039091168152602090f35b606090600319011261056557600490565b9181601f84011215610565578235916001600160401b038311610565576020838186019501011161056557565b90600319820160e081126105655760601361056557600491606435916084356001600160401b03811161056557826109a49160040161093d565b9290929160a4356109b481610554565b9160c435906001600160401b038211610565576109d39160040161093d565b9091565b6109e03661096a565b50919492915050337f00000000000000000000000000000000000000000000000000000000000000006001600160a01b031603610be1578135610a2281610d23565b610a2b81613739565b906020840135809203610bbc575050610a53610a47858361470a565b6001600160a01b031690565b93610a79610a69610a648385614716565b614728565b610a7285612f75565b508661475c565b91610a848260281090565b610adc575b5050610ab57fefed6d3500546b29533b128a29e3a94d70788727f0507505ac12eaf2e578fd9c92612f75565b6040805163ffffffff92909216825260208201929092526001600160a01b039490941693a3005b9082610b0792610b01610af160408801613769565b93610afb88612f75565b92614780565b9261479c565b917f00000000000000000000000000000000000000000000000000000000000000006001600160a01b0316803b1561056557604051633e5ac80960e11b8152935f918591829084908290610b60908b8d60048501613773565b03925af1908115610bb7577fefed6d3500546b29533b128a29e3a94d70788727f0507505ac12eaf2e578fd9c93610ab592610b9d575b5092610a89565b80610bab5f610bb19361127e565b806105d7565b5f610b96565b6130a5565b80610bcb63ffffffff92610d23565b63309afaf360e21b5f521660045260245260445ffd5b6391ac5e4f60e01b5f523360045260245ffd5b34610565575f36600319011261056557602060405160028152f35b34610565575f366003190112610565576040805162b9270b60e21b815260016020820152f35b34610565575f36600319011261056557604080516001815260026020820152f35b34610565575f366003190112610565576020600754604051908152f35b34610565575f36600319011261056557602060405160018152f35b346105655760603660031901126105655761071d600435610cae81610554565b602435610cba81610554565b60443591610cc983338361379d565b613855565b34610565575f3660031901126105655760206040517f55435dd261a4b9b3364963f7738a7a662ad9c84396d64be3365284bb7f0a50418152f35b34610565575f36600319011261056557602060405160128152f35b63ffffffff81160361056557565b34610565576040366003190112610565577f238399d427b947898edb290f5ff0f9109849b1c3ba196a42e35f00c50a54b98b600435610d6f81610d23565b60243590610d7b613924565b63ffffffff81165f5260016020528160405f2055610db1604051928392836020909392919363ffffffff60408201951681520152565b0390a1005b34610565575f3660031901126105655760206040517f00000000000000000000000000000000000000000000000000000000000000008152f35b34610565575f366003190112610565576020610e0a61394a565b604051908152f35b3461056557604036600319011261056557600435610e2f81610554565b60243565ffffffffffff421680821015610ea45761066d670de0b6b3a7640000610e9285610e8c8660018060a01b0383165f52600e60205260405f20610e8560018060d01b0391610e7f84613ddf565b90613e29565b1692613a81565b90612f93565b04604051918291829190602083019252565b90637669fc0f60e11b5f5260045260245260445ffd5b8015150361056557565b34610565576040366003190112610565576004356001600160401b03811161056557610ef4903690600401610728565b602435610f0081610eba565b610f08612f46565b50813591606081013590610f536040820135610f2386610d23565b610f4e7f00000000000000000000000000000000000000000000000000000000000000008092612fa6565b612f93565b9180831061106157610fd4604086610fb987610f6f8888613b8c565b90610f7985610d23565b610f81612f46565b50610f8b85613739565b610fa2610f96611f61565b63ffffffff9097168752565b602086015285850152606084015215156080830152565b815180938192631bb8518b60e31b8352309060048401613cc7565b03817f00000000000000000000000000000000000000000000000000000000000000006001600160a01b03165afa8015610bb75761066d915f91611032575b5060405191829182815181526020918201519181019190915260400190565b611054915060403d60401161105a575b61104c818361127e565b810190613cb3565b82611013565b503d611042565b826371c4efed60e01b5f5260045260245260445ffd5b34610565575f366003190112610565576017546040516001600160a01b039091168152602090f35b34610565576020366003190112610565576110bc60043533613d35565b005b34610565575f3660031901126105655761066d6040516110df60408261127e565b600e81526d06d6f64653d74696d657374616d760941b60208201526040519182916020835260208301906105e1565b34610565575f366003190112610565576020604051308152f35b6024359061ffff8216820361056557565b359061ffff8216820361056557565b634e487b7160e01b5f525f60045260245ffd5b90600182811c92168015611189575b602083101461117557565b634e487b7160e01b5f52602260045260245ffd5b91607f169161116a565b5f92918154916111a28361115b565b80835292600181169081156111f757506001146111be57505050565b5f9081526020812093945091925b8383106111dd575060209250010190565b6001816020929493945483858701015201910191906111cc565b915050602093945060ff929192191683830152151560051b010190565b634e487b7160e01b5f52604160045260245ffd5b604081019081106001600160401b0382111761124357604052565b611214565b608081019081106001600160401b0382111761124357604052565b606081019081106001600160401b0382111761124357604052565b90601f801991011681019081106001600160401b0382111761124357604052565b346105655760403660031901126105655761066d6112ff6113066112f36004356112c881610d23565b63ffffffff6112d5611128565b91165f52600360205260405f209061ffff165f5260205260405f2090565b60405192838092611193565b038261127e565b6040519182916020835260208301906105e1565b346105655760203660031901126105655760043561133781610554565b60018060a01b03165f52600d602052602060018060a01b0360405f205416604051908152f35b3461056557604036600319011261056557602061139960043561137f81610d23565b6024359063ffffffff165f52600160205260405f20541490565b6040519015158152f35b34610565576020366003190112610565576004356113c081610554565b336113cf575b6110bc90612fdf565b7f00000000000000000000000000000000000000000000000000000000000000006001600160a01b0316803b15610565575f6040518092633e4986ef60e11b825281838161142033600483016108f1565b03925af18015610bb75761149d575b50601054611445906001600160a01b0316610a47565b90813b15610565575f604051809363dae21dab60e01b825281838161146d33600483016108f1565b03925af1918215610bb7576110bc92611489575b5090506113c6565b80610bab5f6114979361127e565b5f611481565b80610bab5f6114ab9361127e565b5f61142f565b34610565575f366003190112610565576040517f00000000000000000000000000000000000000000000000000000000000000006001600160a01b03168152602090f35b34610565575f3660031901126105655760206040517f0d186688925976bbe6755ae984501c8e3e2b103a7af59fd803ab9c6d891ae7e08152f35b346105655760403660031901126105655760043560038110156105655761066d9060243561155c81610554565b60405190602082019260f81b835260018060601b03199060601b1660218201526015815261158b60358261127e565b5190206040519081529081906020820190565b34610565576020366003190112610565577ff0be4f1e87349231d80c36b33f9e8639658eeaf474014dee15a3e6a4d441419760206004356115de81610554565b6115e6613924565b600480546001600160a01b0319166001600160a01b03929092169182179055604051908152a1005b346105655760203660031901126105655760043561162b81610554565b6001600160a01b03165f908152600e602052604090205463ffffffff811161165f5760405163ffffffff9091168152602090f35b6306dfcc6560e41b5f52602060045260245260445ffd5b346105655760203660031901126105655760043561169381610554565b60018060a01b03165f526005602052602060405f2054604051908152f35b34610565575f366003190112610565576116c9613924565b5f80546001600160a01b0319811682556001600160a01b03167f8be0079c531659141344cd1fd0a4f28419497f9722a3daafe3b4186f6b6457e08280a3005b34610565576040366003190112610565576110bc60043561172881610554565b6024359061173782338361379d565b613d35565b346105655760203660031901126105655760043561175981610554565b604051632474521560e21b81527f025d8bbf3268be680d2605ebf6da15063b9915615bf1087dab336efc1bf970cb60048201523360248201526020816044816001600160a01b037f0000000000000000000000000000000000000000000000000000000000000000165afa908115610bb7575f916117f4575b50156117e1576110bc906130b0565b630a4510f960e31b5f523360045260245ffd5b611816915060203d60201161181c575b61180e818361127e565b810190613090565b5f6117d2565b503d611804565b346105655760403660031901126105655761183f600435610d23565b60206040515f8152f35b346105655760203660031901126105655760043561186681610554565b60018060a01b03165f52600c602052602060405f2054604051908152f35b346105655760a03660031901126105655761189e3661092c565b506064356001600160401b038111610565576118be90369060040161093d565b505060206084356118ce81610554565b6040516001600160a01b0390911630148152f35b34610565576020366003190112610565576020610e0a600360043561190681610554565b5f816012614b6c565b34610565575f366003190112610565576119b361194b7f0000000000000000000000000000000000000000000000000000000000000000614beb565b6119747f0000000000000000000000000000000000000000000000000000000000000000614c44565b6020604051611983828261127e565b5f8152816119c181830194601f198301368737604051978897600f60f81b895260e0858a015260e08901906105e1565b9087820360408901526105e1565b914660608701523060808701525f60a087015285830360c087015251918281520192915f5b8281106119f557505050500390f35b8351855286955093810193928101926001016119e6565b34610565575f36600319011261056557602060405160068152f35b3461056557602036600319011261056557600435611a4481610554565b604051632474521560e21b81525f516020615cff5f395f51905f5260048201523360248201526020816044817f00000000000000000000000000000000000000000000000000000000000000006001600160a01b03165afa908115610bb7575f91611acc575b5015611ab9576110bc906131b8565b630ea7d7ed60e21b5f523360045260245ffd5b611ae5915060203d60201161181c5761180e818361127e565b5f611aaa565b34610565575f366003190112610565575f546040516001600160a01b039091168152602090f35b34610565576020366003190112610565574265ffffffffffff1660043581811015611c1557611b4090613ddf565b600f54905f829160058411611bbc575b611b5c9350600f614dd9565b80611b81575061066d5f5b6040516001600160d01b0390911681529081906020820190565b611b8d61066d91613a66565b600f5f527f8d1108e10bcb7c27dddfc02ed9d693a074039d026cf4ea4240b40f7d581ac802015460301c611b67565b9192611bc781614c7b565b8103908111611c1057611b5c93600f5f5265ffffffffffff8260205f2001541665ffffffffffff8516105f14611bfe575091611b50565b929150611c0a90613e0e565b90611b50565b612f7f565b637669fc0f60e11b5f5260045260245260445ffd5b34610565575f36600319011261056557602060405165ffffffffffff42168152f35b34610565575f36600319011261056557602060405163ffffffff7f0000000000000000000000000000000000000000000000000000000000000000168152f35b6004359064ffffffffff8216820361056557565b6024359064ffffffffff8216820361056557565b3461056557602036600319011261056557611ccd611c8c565b604051632474521560e21b81525f516020615cff5f395f51905f5260048201523360248201526020816044817f00000000000000000000000000000000000000000000000000000000000000006001600160a01b03165afa908115610bb7575f91611d42575b5015611ab9576110bc906131fc565b611d5b915060203d60201161181c5761180e818361127e565b5f611d33565b34610565575f366003190112610565576040515f600954611d818161115b565b80845290600181169081156106cf5750600114611da85761066d836106618185038261127e565b60095f9081527f6e1540171b6c0c960b71a7020d9f60077f6af931a8bbf590da0223dacf75c7af939250905b808210611dec57509091508101602001610661610651565b919260018160209254838588010152019101909291611dd4565b34610565575f3660031901126105655760206040517f00000000000000000000000000000000000000000000000000000000000000008152f35b34610565576020366003190112610565576020610e0a611ea5600435611e6581610554565b611e9f6003611e8c611e878460018060a01b03165f52600e60205260405f2090565b614e35565b6001600160d01b0316925f8160126151d2565b90615759565b6157ee565b3461056557602036600319011261056557600435604051632474521560e21b81525f516020615cff5f395f51905f5260048201523360248201526020816044817f00000000000000000000000000000000000000000000000000000000000000006001600160a01b03165afa908115610bb7575f91611f33575b5015611ab9576110bc90613249565b611f4c915060203d60201161181c5761180e818361127e565b5f611f24565b6040519061079860408361127e565b6040519061079860a08361127e565b60643590600282101561056557565b60043590600282101561056557565b3461056557608036600319011261056557604051611fab81611248565b6004358152611fb8611ca0565b602082019081529060443560408201908152611fd2611f70565b60608301908152611fe1613924565b60ff6019541661204e5761203c936120246301e187e0846120056120359651613ef4565b61201664ffffffffff855116613eba565b5104915164ffffffffff1690565b915191612030836132a8565b613f18565b5133613f62565b6110bc600160ff196019541617601955565b62dc149f60e41b5f5260045ffd5b34610565575f3660031901126105655760206040515f8152f35b34610565575f3660031901126105655760206040517fb00be3d6a5434b97b328543d1486d56adcb7e74080170d1cdd7e0306c3d9ba3d8152f35b346105655760403660031901126105655761071d6004356120d081610554565b6024359033613855565b34610565575f36600319011261056557604051632474521560e21b81525f516020615cff5f395f51905f5260048201523360248201526020816044817f00000000000000000000000000000000000000000000000000000000000000006001600160a01b03165afa908115610bb7575f9161215e575b5015611ab9576110bc6132b7565b612177915060203d60201161181c5761180e818361127e565b5f612150565b34610565575f366003190112610565576014546301e187e08102908082046301e187e01490151715611c1057602090604051908152f35b34610565575f366003190112610565576002546040516001600160a01b039091168152602090f35b906020600319830112610565576004356001600160401b0381116105655760040182601f82011215610565578035926001600160401b038411610565576020808301928560051b010111610565579190565b346105655761223c366121dc565b90612245613924565b61224e82612f5e565b9061225c604051928361127e565b828252602082019260051b8101903682116105655780935b828510612284576110bc846141ee565b84356001600160401b0381116105655782019060608236031261056557604051916122ae83611263565b80356122b981610d23565b83526122c760208201611139565b60208401526040810135906001600160401b03821161056557019036601f8301121561056557602092612301849336908581359101613340565b6040820152815201940193612274565b346105655760203660031901126105655763ffffffff60043561233381610d23565b165f526001602052602060405f2054604051908152f35b346105655760603660031901126105655760043561236781610d23565b61236f611128565b604435906001600160401b0382116105655761066d9261239661130693369060040161093d565b929091613405565b6123a7366121dc565b5f5b81811061241657604051638e9e709960e01b81525f81600481335afa8015610bb7576123f0915f916123f4575b50604051638351eea760e01b815291829160048301610605565b0390fd5b61241091503d805f833e612408818361127e565b8101906135aa565b826123d6565b6124218183856134bb565b9061245161244d61243184612f75565b60208501359063ffffffff165f52600160205260405f20541490565b1590565b6124e95760c08201359160a081013561246e6101008301836134e3565b94909161247d60e08501613515565b9361248c6101208201826134e3565b959095303b15610565575f966124b9926040519a8b9889978897633411683760e21b895260048901613530565b0391305af1918215610bb7576001926124d5575b505b016123a9565b80610bab5f6124e39361127e565b5f6124cd565b600191506124cf565b34610565575f36600319011261056557602060ff60175460a01c166040519015158152f35b34610565575f3660031901126105655760206040517f025d8bbf3268be680d2605ebf6da15063b9915615bf1087dab336efc1bf970cb8152f35b6064359060ff8216820361056557565b6084359060ff8216820361056557565b346105655760c03660031901126105655760043561258e81610554565b6024359060443561259d612551565b6084359060a4359280421161265b579161262293916126146126199460405160208101917fe48329057bfd03d55e49b547132e39cffd9c1820ad7b9d4c5307691425d15adf835260018060a01b038a1660408301528a606083015260808201526080815261260c60a08261127e565b5190206142e3565b614e5f565b90929192614ee1565b61262b81614683565b80930361263c576110bc9250614318565b90506301d4b62360e61b5f5260018060a01b031660045260245260445ffd5b632341d78760e11b5f5260045260245ffd5b9160806107989294936126ad604060c0830197805184526001600160401b0360208201511660208501520151604083019060208091805184520151910152565b019060208091805184520151910152565b6080366003190112610565576004356001600160401b038111610565576126e9903690600401610728565b6040366023190112610565576064359061270282610554565b61270a61360c565b50612713612f46565b5061272a6001600160a01b03602083013516610a47565b60175461273b9060a01c60ff161590565b9081612826575b81612812575b50612803576127949161276e6040830135606084013561276785612f75565b913361450a565b93909161277b8585613b8c565b61278486612f75565b9161278e36613632565b92614593565b917f85496b760a4b7f8d66384b9df21b381f5d1b1e79f229a47aaf4c232edc2fe59a6127be611f52565b948386528060208701526127d3855193612f75565b6040805163ffffffff9290921682526020820195909552938401523392606090a361066d6040519283928361266d565b638cd22d1960e01b5f5260045ffd5b6001600160a01b031633141590505f612748565b905061284f61244d6128488360018060a01b03165f52601860205260405f2090565b5460ff1690565b90612742565b34610565575f60203660031901126105655760043561287381610554565b61287b613924565b7f00000000000000000000000000000000000000000000000000000000000000006001600160a01b031690813b156105655760405163ca5eb5e160e01b81526001600160a01b039091166004820152905f908290602490829084905af18015610bb7576128e6575080f35b6110bc91505f9061127e565b34610565575f3660031901126105655760206040515f516020615cff5f395f51905f528152f35b6129223661096a565b505050929030330361293b57610a53610a47858361470a565b63029a949d60e31b5f5260045ffd5b34610565576020366003190112610565577fd48d879cef83a1c0bdda516f27b13ddb1b3f8bbac1c9e1511bb2a659c2427760602060043561298a81610554565b612992613924565b600280546001600160a01b0319166001600160a01b03929092169182179055604051908152a1005b346105655760e0366003190112610565576004356129d781610554565b6024356129e381610554565b60443590606435926129f3612561565b60a43560c43590864211612aba57612a7f92612a7a612a1186614683565b9860405160208101917f6e71edae12b1b97f4d1f60370fef10105fa2faae0126114a169c64845d6126c9835260018060a01b0389169b8c604084015260018060a01b038b1660608401528b608084015260a083015260c082015260c0815261260c60e08261127e565b614309565b936001600160a01b03851603612a99576110bc93506146a5565b6325c0072360e11b5f526001600160a01b038085166004521660245260445ffd5b8663313c898160e11b5f5260045260245ffd5b34610565576040366003190112610565576020612b16600435612aef81610554565b60243590612afc82610554565b6001600160a01b03165f9081526006845260409020610582565b54604051908152f35b34610565575f366003190112610565576011546040516001600160a01b039091168152602090f35b3461056557602036600319011261056557612b60611f7f565b604051632474521560e21b81525f516020615cff5f395f51905f5260048201523360248201526020816044817f00000000000000000000000000000000000000000000000000000000000000006001600160a01b03165afa908115610bb7575f91612bd5575b5015611ab9576110bc9061365a565b612bee915060203d60201161181c5761180e818361127e565b5f612bc6565b3461056557602036600319011261056557600435612c1181610554565b604051632474521560e21b81525f516020615cff5f395f51905f5260048201523360248201526020816044817f00000000000000000000000000000000000000000000000000000000000000006001600160a01b03165afa908115610bb7575f91612c86575b5015611ab9576110bc906136a0565b612c9f915060203d60201161181c5761180e818361127e565b5f612c77565b34610565575f36600319011261056557602064ffffffffff60135416604051908152f35b3461056557602036600319011261056557600435612ce681610554565b604051632474521560e21b81527fb00be3d6a5434b97b328543d1486d56adcb7e74080170d1cdd7e0306c3d9ba3d60048201526001600160a01b03918216602482015290602090829060449082907f0000000000000000000000000000000000000000000000000000000000000000165afa8015610bb75761066d915f91612d7c575b5060405190151581529081906020820190565b612d95915060203d60201161181c5761180e818361127e565b5f612d69565b346105655760403660031901126105655761066d612e01600435612dbe81610554565b60243590612dcb82610d23565b612dd3612f46565b50612ddc612f46565b506001600160a01b03165f908152600e60205260409020612dfb612f46565b506151bd565b5060405190612e0f82611228565b5465ffffffffffff811680835260309190911c60209283019081526040805192835290516001600160d01b031692820192909252918291820190565b3461056557602036600319011261056557600435612e6881610554565b612e70613924565b6001600160a01b03168015612ec1575f80546001600160a01b03198116831782556001600160a01b0316907f8be0079c531659141344cd1fd0a4f28419497f9722a3daafe3b4186f6b6457e09080a3005b631e4fbdf760e01b5f525f60045260245ffd5b34610565576020366003190112610565576020610e0a6003600435612ef881610554565b5f8160126151d2565b34610565576060366003190112610565576020612f1d3661092c565b63ffffffff8135612f2d81610d23565b165f52600182528160405f205491013560405191148152f35b60405190612f5382611228565b5f6020838281520152565b6001600160401b0381116112435760051b60200190565b3561061681610d23565b634e487b7160e01b5f52601160045260245ffd5b81810292918115918404141715611c1057565b8115612fb0570490565b634e487b7160e01b5f52601260045260245ffd5b6001600160401b03811161124357601f01601f191660200190565b63ffffffff7f0000000000000000000000000000000000000000000000000000000000000000168046036130665750610798906001600160a01b03811615158061303d575b61302f575b33614318565b61303881614a9f565b613029565b506001600160a01b0381165f9081526012602052604090206001015464ffffffffff1615613024565b6322a45b8960e21b5f524660045260245260445ffd5b634e487b7160e01b5f52602160045260245ffd5b90816020910312610565575161061681610eba565b6040513d5f823e3d90fd5b6130b981614a9f565b6001600160a01b0381165f90815260126020526040902090600182019064ffffffffff8083541616420391428311611c105783546013547f7d4f30fa682bd557f547a1f7245a280525fd183bdb54917c56ec7ef22e5b532a9591949064ffffffffff161061319a575b6001600160a01b0383165f9081526016602052604090206131769291859161315c906001600160e01b038416904263ffffffff16906154a3565b505055805464ffffffffff19164264ffffffffff16179055565b604080516001600160a01b039092168252602082019290925290819081015b0390a1565b9250613176906131af6003845f8160126151d2565b93909150613122565b6001600160a01b03165f818152601860205260408120805460ff191690557f535611fb62fa2a833988f283b779e417e996813e44046f521d76c17b5943b08c9080a2565b602064ffffffffff7f9ec539ec1ff2fdcda111a25f0c7d902ff0205d74dfaa05f434eecc8cdea9e8b19261322f81613eba565b168064ffffffffff196013541617601355604051908152a1565b6301e187e09061325881613ef4565b04670de0b6b3a76400008111613299576020817f179ae38251712f92ada204166c624f1fd16102c85f82e13348393a898b04e9d292601455604051908152a1565b630678582160e51b5f5260045ffd5b600211156132b257565b61307c565b60175460ff8160a01c16613331577f000000000000000000000000000000000000000000000000000000000000000042106133225760ff60a01b1916600160a01b176017557feadb24812ab3c9a55c774958184293ebdb6c7f6a2dbab11f397d80c86feb65d35f80a1565b63be5fb0cb60e01b5f5260045ffd5b6385e1a58160e01b5f5260045ffd5b92919261334c82612fc4565b9161335a604051938461127e565b829481845281830111610565578281602093845f960137010152565b909291928360021161056557831161056557600201916001190190565b805191908290602001825e015f815290565b6133bf939261079892816040519687946020860190613393565b918237015f815203601f19810184528361127e565b908060209392818452848401375f828201840152601f01601f1916010190565b9160206106169381815201916133d4565b6112f36112ff9263ffffffff6134369397959697165f52600360205260405f209061ffff165f5260205260405f2090565b80511561349957831561349357600284101561346a5750506123f0604051928392639a6d49cd60e01b8452600484016133f4565b90928061348d9161061694613488613483368484613340565b6142ab565b613376565b916133a5565b92509050565b509190610616913691613340565b634e487b7160e01b5f52603260045260245ffd5b91908110156134de5760051b8101359061013e1981360301821215610565570190565b6134a7565b903590601e198136030182121561056557018035906001600160401b0382116105655760200191813603831361056557565b3561061681610554565b6001600160401b0381160361056557565b92909361358c926001600160401b0360406106169a98999763ffffffff813561355881610d23565b1688526020810135602089015201356135708161351f565b166040860152606085015260e0608085015260e08401916133d4565b6001600160a01b0390941660a082015280840360c0909101526133d4565b602081830312610565578051906001600160401b038211610565570181601f82011215610565578051906135dd82612fc4565b926135eb604051948561127e565b8284526020838301011161056557815f9260208093018386015e8301015290565b6040519061361982611263565b815f81525f6020820152604061362d612f46565b910152565b6040906023190112610565576040519061364b82611228565b60243582526044356020830152565b60028110156132b25760207f7b7c2a74bf19219346c0b038bc25beb1372ff76eb0b6fe50ba0433b4ac9842799160ff8019601554169116809117601555604051908152a1565b6001600160a01b03165f818152601860205260408120805460ff191660011790557f4f783c179409b4127238bc9c990bc99b9a651666a0d20b51d6c42849eb88466d9080a2565b61371690610f4e7f00000000000000000000000000000000000000000000000000000000000000008092612fa6565b9182918084106137235750565b836371c4efed60e01b5f5260045260245260445ffd5b63ffffffff16805f52600160205260405f2054908115613757575090565b63f6ff4fb760e01b5f5260045260245ffd5b356106168161351f565b610616939260809260018060a01b0316825260208201525f604082015281606082015201906105e1565b6001600160a01b03165f818152600660205260409020919290916137c2908490610582565b54600181016137d2575b50505050565b818110613834578215613821576001600160a01b0384161561380e57613804925f526006602052039160405f20610582565b555f8080806137cc565b634a1406b160e11b5f525f60045260245ffd5b63e602df0560e01b5f525f60045260245ffd5b83637dc7a0d960e11b5f5260018060a01b031660045260245260445260645ffd5b6001600160a01b038116939291908415613911576001600160a01b03821680156138fe5761388383836152ed565b156128035761389182610569565b54958487106138d857846107989697036138aa84610569565b556138b484610569565b8054860190556040518581525f516020615d1f5f395f51905f5290602090a361595c565b63391434e360e21b5f526001600160a01b0383166004526024879052604485905260645ffd5b63ec442f0560e01b5f525f60045260245ffd5b634b637e8f60e11b5f525f60045260245ffd5b5f546001600160a01b0316330361393757565b63118cdaa760e01b5f523360045260245ffd5b307f00000000000000000000000000000000000000000000000000000000000000006001600160a01b03161480613a3d575b156139a5577f000000000000000000000000000000000000000000000000000000000000000090565b60405160208101907f8b73c3c69bb8fe3d512ecc4cf759cc79239f7b179b0ffacaa9a75d522b39400f82527f000000000000000000000000000000000000000000000000000000000000000060408201527f000000000000000000000000000000000000000000000000000000000000000060608201524660808201523060a082015260a08152613a3760c08261127e565b51902090565b507f0000000000000000000000000000000000000000000000000000000000000000461461397c565b5f19810191908211611c1057565b91908203918211611c1057565b613a8c906016610582565b6001600160e01b0390613aa69063ffffffff8416906147f4565b1680613b625750613ad960155491613ad3613ac98464ffffffffff9060081c1690565b64ffffffffff1690565b90613a74565b613aec613ac960135464ffffffffff1690565b9182821115613b535760ff16613b01816132a8565b80613b1d5750613b176106169260145492613a74565b906149bb565b80613b296001926132a8565b03613b4457613b3e6106169260145492613a74565b9061486e565b6346b2fddf60e11b5f5260045ffd5b505050670de0b6b3a764000090565b905090565b9091613b7e610616936040845260408401906105e1565b9160208184039101526105e1565b9091613bf1613c1793613bd4613bc86020860135927f000000000000000000000000000000000000000000000000000000000000000090612fa6565b6001600160401b031690565b613beb613be460a08701876134e3565b3691613340565b91614a30565b93909283945f14613c83576002905b612396613c0c82612f75565b9160808101906134e3565b60045490926001600160a01b03909116908382613c3357505050565b60405163043a78eb60e01b815292602092849283918291613c579160048401613b67565b03915afa8015610bb757613c685750565b613c809060203d60201161181c5761180e818361127e565b50565b600190613c00565b919082604091031261056557604051613ca381611228565b6020808294805184520151910152565b906040828203126105655761061691613c8b565b906020909392936040835263ffffffff81511660408401528181015160608401526080613d1b613d05604084015160a08488015260e08701906105e1565b6060840151868203603f190160a08801526105e1565b910151151560c08401526001600160a01b03909416910152565b6001600160a01b038116801561391157613d4f5f836152ed565b1561280357613d5d82610569565b54838110613da157915f809285610798969503613d7984610569565b556007805486900390556040518581525f516020615d1f5f395f51905f5290602090a361595c565b63391434e360e21b5f526001600160a01b038316600452602452604483905260645ffd5b613dd764ffffffffff92600192610582565b015416151590565b65ffffffffffff8111613df75765ffffffffffff1690565b6306dfcc6560e41b5f52603060045260245260445ffd5b9060018201809211611c1057565b91908201809211611c1057565b908154905f829160058411613e67575b613e44935084614dd9565b80613e4f5750505f90565b613e5890613a66565b905f5260205f20015460301c90565b9192613e7281614c7b565b8103908111611c1057613e4493855f5265ffffffffffff8260205f2001541665ffffffffffff8516105f14613ea8575091613e39565b929150613eb490613e0e565b90613e39565b64ffffffffff1662278d0081108015613ee7575b613ed55750565b6344aa7c4560e01b5f5260045260245ffd5b506301e187e08111613ece565b6706f05b59d3b200008111613f065750565b6306f18fc760e31b5f5260045260245ffd5b64ffffffffff1664ffffffffff19601354161760135560145560028110156132b2576015805465ffffffffffff191660ff92909216919091174260081b65ffffffffff0016179055565b91906001600160a01b03831680156138fe57613f7e845f6152ed565b1561280357613f97613f9283600754613e1c565b600755565b613fa084610569565b8054830190556040518281525f905f516020615d1f5f395f51905f5290602090a3600754926001600160d01b038085116140255750613fe19293505f61595c565b7f0000000000000000000000000000000000000000000000000000000000000000600754818111614010575050565b63279e7e1560e21b5f5260045260245260445ffd5b630e58ae9360e11b5f52600485905260245260445ffd5b80518210156134de5760209160051b010190565b601f821161405d57505050565b5f5260205f20906020601f840160051c83019310614095575b601f0160051c01905b81811061408a575050565b5f815560010161407f565b9091508190614076565b91909182516001600160401b038111611243576140c6816140c0845461115b565b84614050565b6020601f82116001146141055781906140f69394955f926140fa575b50508160011b915f199060031b1c19161790565b9055565b015190505f806140e2565b601f19821690614118845f5260205f2090565b915f5b8181106141525750958360019596971061413a575b505050811b019055565b01515f1960f88460031b161c191690555f8080614130565b9192602060018192868b01518155019401920161411b565b602081016020825282518091526040820191602060408360051b8301019401925f915b83831061419c57505050505090565b90919293946020806141df600193603f19868203018752606060408b5163ffffffff815116845261ffff86820151168685015201519181604082015201906105e1565b9701930193019193929061418d565b5f5b81518110156142795780614213604061420b6001948661403c565b5101516142ab565b6142736040614222838661403c565b51015163ffffffff614234848761403c565b5151165f52600360205261426e60405f2061425e6020614254878a61403c565b51015161ffff1690565b61ffff165f5260205260405f2090565b61409f565b016141f0565b506131957fbe4864a8e820971c0247f5992e2da559595f7bf076a21cb5928d443d2a13b674916040519182918261416a565b600361ffff600283015116036142be5750565b604051639a6d49cd60e01b8152602060048201529081906123f09060248301906105e1565b6042906142ee61394a565b906040519161190160f01b8352600283015260228201522090565b91610616939161261993614e5f565b6001600160a01b038181165f818152600d6020526040812080548685166001600160a01b03198216811790925594959490931693929184917f3134e8a2e6d97e929a7e54011ea5485d7d196dd5f0ba4d4ef95803e8e3fc257f9080a461437d83610569565b54601154614393906001600160a01b0316610a47565b93602060405180966370a0823160e01b825281806143b486600483016108f1565b03915afa948515610bb7575f956144d9575b506017546143dc906001600160a01b0316610a47565b60405163baf3510760e01b8152602081806143fa86600483016108f1565b0381855afa908115610bb7575f916144ba575b506001600160a01b0316156144a65761443f9291602091604051808096819463baf3510760e01b8352600483016108f1565b03915afa8015610bb7576107989561446561446c92614471955f91614477575b50610569565b5492613e1c565b613e1c565b91614f81565b614499915060203d60201161449f575b614491818361127e565b810190614f6c565b5f61445f565b503d614487565b50506144719061446c610798955f92613e1c565b6144d3915060203d60201161449f57614491818361127e565b5f61440d565b6144fc91955060203d602011614503575b6144f4818361127e565b810190614f5d565b935f6143c6565b503d6144ea565b9391925061453d90610f4e7f00000000000000000000000000000000000000000000000000000000000000008092612fa6565b918083106110615750610798828094613d35565b906080828203126105655761458b90604080519361456e85611263565b8051855260208101516145808161351f565b602086015201613c8b565b604082015290565b6145f06080949261460c96946145a761360c565b5060206145b486516150a3565b950191825180614674575b506145c985613739565b92511515926145d9610f96611f61565b602086015260408501526060840152151585830152565b6040518095819482936302637a4560e41b845260048401613cc7565b03917f00000000000000000000000000000000000000000000000000000000000000006001600160a01b03165af1908115610bb7575f9161464b575090565b610616915060803d60801161466d575b614665818361127e565b810190614551565b503d61465b565b61467d906150c0565b5f6145bf565b6001600160a01b03165f908152600c6020526040902080546001810190915590565b6001600160a01b0316908115613821576001600160a01b03811692831561380e57806146fd7f8c5be1e5ebec7d5bd14f71427d1e84f3dd0314c0f7b2291e5b200ac8c7c3b92593855f52600660205260405f20610582565b55604051908152602090a3565b90602011610565573590565b90602811610565576020013560c01c90565b610616906001600160401b037f00000000000000000000000000000000000000000000000000000000000000009116612f93565b816001600160a01b03821615614776575b61061691613f62565b61dead915061476d565b9080602811610565576106169136916027190190602801613340565b60405160c09190911b6001600160c01b031916602082015260e09190911b6001600160e01b0319166028820152602c810191909152906106169082906147e690604c830190613393565b03601f19810183528261127e565b9081549063ffffffff5f91165b82821061482d575050806148155750505f90565b61481e90613a66565b905f5260205f20015460201c90565b90916148398184615558565b90845f528263ffffffff8360205f20015416115f1461485b5750915b90614801565b9250600181018091111561485557612f7f565b8115801561491e575b61491057670de0b6b3a764000003670de0b6b3a76400008111611c1057806001831615614901575b9160011c90815b6148d25750506148be90670de0b6b3a7640000615759565b80156148cd576106169061536e565b505f90565b806148dc91615759565b90600181166148f0575b60011c90816148a6565b91816148fb91615759565b916148e6565b50670de0b6b3a764000061489f565b5050670de0b6b3a764000090565b508015614877565b90821580156149b3575b6149ad57670de0b6b3a764000003670de0b6b3a76400008111611c105780600184161561499e575b9260011c90815b61496f575050906148be91615759565b8061497991615759565b906001811661498d575b60011c908161495f565b928161499891615759565b92614983565b50670de0b6b3a7640000614958565b50905090565b508015614930565b906149c591612f93565b670de0b6b3a764000003670de0b6b3a76400008111611c1057670de0b6b3a764000081810204809103611c105790565b916149ff91612f93565b670de0b6b3a76400000390670de0b6b3a76400008211611c1057670de0b6b3a764000091614a2c91612f93565b0490565b82511580159390614a7357906147e6614a7092604051948593602085015260018060c01b03199060c01b1660408401523360488401526068830190613393565b91565b509060405191602083015260018060c01b03199060c01b16604082015260288152614a7060488261127e565b6001600160a01b0381165f9081526012602052604090206001015464ffffffffff1615614ac95750565b6131957f9b44a2c7f9f0b5aa4e7da60d8a2325796c57f93a45559d66515743ffbd8a610391614b43604051614afd81611228565b670de0b6b3a76400008152600164ffffffffff602083018142168152614b24866012610582565b93518455511691019064ffffffffff1664ffffffffff19825416179055565b614b5e614b51826016610582565b63ffffffff4216906153c9565b5050604051918291826108f1565b939291906001600160a01b038116908115614be157614b8b9085615cc6565b906001600160a01b03808316919085168214614bd7578115918215614bcd575b5050614bc55760018201809211611c105761061694614b6c565b509250505090565b1490505f80614bab565b5050509250505090565b5050505050505f90565b60ff8114614c315760ff811690601f8211614c225760405191614c0f60408461127e565b6020808452838101919036833783525290565b632cd44ac360e21b5f5260045ffd5b50604051610616816112ff81600a611193565b60ff8114614c685760ff811690601f8211614c225760405191614c0f60408461127e565b50604051610616816112ff81600b611193565b600181111561061657806001600160801b821015614d9c575b614d42614d38614d2e614d24614d1a614d10614cff614d49976004614d4e9a600160401b811015614d8f575b640100000000811015614d82575b62010000811015614d75575b610100811015614d68575b6010811015614d5b575b1015614d53575b60030260011c90565b614d09818b612fa6565b0160011c90565b614d09818a612fa6565b614d098189612fa6565b614d098188612fa6565b614d098187612fa6565b614d098186612fa6565b8093612fa6565b821190565b900390565b60011b614cf6565b60041c9160021b91614cef565b60081c9160041b91614ce5565b60101c9160081b91614cda565b60201c9160101b91614cce565b60401c9160201b91614cc0565b5050614d4e614d49614d42614d38614d2e614d24614d1a614d10614cff614dc38a60801c90565b9850600160401b9750614c949650505050505050565b905b838310614de85750505090565b909192614df58185615558565b90835f5265ffffffffffff8260205f2001541665ffffffffffff8416105f14614e225750925b9190614ddb565b93506001810180911115614e1b57612f7f565b80549081614e435750505f90565b815f19810111611c10575f525f199060205f2001015460301c90565b91906fa2a8918ca85bafe22016d0b997e4df60600160ff1b038411614ecc579160209360809260ff5f9560405194855216868401526040830152606082015282805260015afa15610bb7575f516001600160a01b03811615614ec257905f905f90565b505f906001905f90565b5050505f9160039190565b600411156132b257565b614eea81614ed7565b80614ef3575050565b614efc81614ed7565b60018103614f135763f645eedf60e01b5f5260045ffd5b614f1c81614ed7565b60028103614f37575063fce698f760e01b5f5260045260245ffd5b80614f43600392614ed7565b14614f4b5750565b6335e2f38360e21b5f5260045260245ffd5b90816020910312610565575190565b90816020910312610565575161061681610554565b6001600160a01b0380831693929190811690818514158061509a575b614fa9575b5050505050565b8161502d575b505082614fbe575b8080614fa2565b6001600160a01b03165f908152600e602052604090207fdec2bacdd2f05b59de34da9b523dff8be42e5e38e818c82fdb0bae774387a7249161500a91615004909161556d565b906155d1565b604080516001600160d01b039384168152919092166020820152a25f8080614fb7565b6001600160a01b03165f908152600e602052604090207fdec2bacdd2f05b59de34da9b523dff8be42e5e38e818c82fdb0bae774387a72490615078906150728661556d565b9061559e565b604080516001600160d01b039384168152919092166020820152a25f80614faf565b50831515614f9d565b8034036150ad5790565b6304fb820960e51b5f523460045260245ffd5b60405163393f876560e21b81527f00000000000000000000000000000000000000000000000000000000000000006001600160a01b031690602081600481855afa908115610bb7575f9161519e575b506001600160a01b031691821561518f576020915f9160405190848201926323b872dd60e01b8452336024840152604483015260648201526064815261515660848261127e565b519082855af1156130a5575f513d6151865750803b155b6151745750565b635274afe760e01b5f5260045260245ffd5b6001141561516d565b6329b99a9560e11b5f5260045ffd5b6151b7915060203d60201161449f57614491818361127e565b5f61510f565b80548210156134de575f5260205f2001905f90565b93909290916001600160a01b038416908115614be1576002811015614be1576151fb8585615cc6565b916001600160a01b03808416919085168214806152e4575b6152d45781151591826152c9575b5050806152b9575b6152a2575050505061523e61244d8284613dc5565b61524b5761061691615638565b5060038101546106169161527261526c600884901c64ffffffffff16613ac9565b42613a74565b9064ffffffffff61529a6152936001600285015494015464ffffffffff1690565b9460ff1690565b931691615680565b61061695929394506152b390613e0e565b916151d2565b506152c48287613dc5565b615229565b141590505f80615221565b5050505091505061061691615638565b50821515615213565b6001600160a01b03168015801561535d575b6153565760ff60175460a01c16615356575f52601860205260ff60405f205416908115615335575b50615330575f90565b600190565b6001600160a01b03165f9081526018602052604081205460ff169150615327565b5050600190565b506001600160a01b038216156152ff565b670de0b6b3a76400006106169161589e565b8054600160401b8110156112435761539d916001820181556151bd565b6153c457815160209283015190921b63ffffffff191663ffffffff92909216919091179055565b611148565b80549091908015615485576153e06153eb91613a66565b835f5260205f200190565b908154926154066153ff8563ffffffff1690565b9460201c90565b9363ffffffff80841691168181116154765703615442575050805463ffffffff166503782dace9d960321b1790555b90670de0b6b3a764000090565b615471925061545e615452611f52565b63ffffffff9093168352565b670de0b6b3a76400006020830152615380565b615435565b632520601d60e01b5f5260045ffd5b506154959161545e615452611f52565b5f90670de0b6b3a764000090565b8054929392801561552e576154ba6154c591613a66565b825f5260205f200190565b8054602081901c9363ffffffff9182169291811680841161547657879303615508575061550492509063ffffffff82549181199060201b169116179055565b9190565b9150506155049161551a615452611f52565b6001600160e01b0386166020830152615380565b50906155539161553f615452611f52565b6001600160e01b0385166020830152615380565b5f9190565b90808216911860011c8101809111611c105790565b6001600160d01b038111615587576001600160d01b031690565b6306dfcc6560e41b5f5260d060045260245260445ffd5b906155a882614e35565b6001600160d01b0391821690821603908111611c10576109d39165ffffffffffff4216906159e0565b906155db82614e35565b6001600160d01b0391821690821601908111611c10576109d39165ffffffffffff4216906159e0565b61560e600f614e35565b6001600160d01b0391821690821603908111611c10576109d3904265ffffffffffff16600f6159e0565b906156439082610582565b9064ffffffffff600183015416420390428211611c105761061692549160028201549060ff600364ffffffffff600186015416940154169361570c565b91929092808311156156fc578203918211611c105760028110156132b257806156d957506156ad91612f93565b670de0b6b3a764000003670de0b6b3a76400008111611c1057614a2c670de0b6b3a76400009182612f93565b806156e56001926132a8565b03613b445761061691670de0b6b3a7640000614926565b50505050670de0b6b3a764000090565b93909280841115615752578303928311611c105760028110156132b257806157385750610616926149f5565b806157446001926132a8565b03613b445761061692614926565b5050505090565b9091905f19838209838202918280831092039180830392146157dd57670de0b6b3a76400008210156157c6577faccb18165bd6fe31ae1cf318dc5b51eee0e1ba569b88cd74c1773b91fac106699394670de0b6b3a7640000910990828211900360ee1b910360121c170290565b8490635173648d60e01b5f5260045260245260445ffd5b5050670de0b6b3a764000090049150565b905f19670de0b6b3a76400008309670de0b6b3a764000083029081808210910390808203911461588e57670de0b6b3a764000081101561586957670de0b6b3a7640000807faccb18165bd6fe31ae1cf318dc5b51eee0e1ba569b88cd74c1773b91fac1066994950990828211900360ee1b910360121c170290565b630c740aef60e31b5f526004849052670de0b6b3a7640000602481905260445260645ffd5b50670de0b6b3a764000090049150565b5f19670de0b6b3a7640000820991670de0b6b3a7640000820291828085109403938085039414615950578184101561592f57670de0b6b3a7640000829109600182190182168092046002816003021880820260020302808202600203028082026002030280820260020302808202600203028091026002030293600183805f03040190848311900302920304170290565b630c740aef60e31b5f52600452670de0b6b3a764000060245260445260645ffd5b50906106169250612fa6565b91906159688184615a93565b615973838386615aca565b9015908161598f575b5061598657505050565b61079892615c13565b9050155f61597c565b8054600160401b811015611243576159b5916001820181556151bd565b6153c457815160209092015160301b65ffffffffffff191665ffffffffffff92909216919091179055565b80549293928015615a6e576154ba6159f791613a66565b8054603081901c9365ffffffffffff9182169291811680841161547657879303615a3a575061550492509065ffffffffffff82549181199060301b169116179055565b91505061550491615a5a615a4c611f52565b65ffffffffffff9093168352565b6001600160d01b0386166020830152615998565b509061555391615a7f615a4c611f52565b6001600160d01b0385166020830152615998565b6011546001600160a01b0390811691168114918215615ab7575b5050615330575f90565b6001600160a01b03161490505f80615aad565b60175490929190615ae3906001600160a01b0316610a47565b602060405180926305e5f31960e21b82528180615b0387600483016108f1565b03915afa908115610bb7575f91615bf4575b506001600160a01b03811680615bc9575050601754615b5e93602091615b43906001600160a01b0316610a47565b60405180809781946305e5f31960e21b8352600483016108f1565b03915afa928315610bb7575f93615ba8575b506001600160a01b03831680615b8857505050505f90565b6001600160a01b03821614615ba05761533092615c13565b505050600190565b615bc291935060203d60201161449f57614491818361127e565b915f615b70565b9091506001600160a01b03841603615be357505050600190565b615bec92615c13565b5f8080615ba0565b615c0d915060203d60201161449f57614491818361127e565b5f615b15565b9091906001600160a01b03168015615c7a575b610798926001600160a01b0316908115615c62575b5f908152600d6020526040808220549282529020546001600160a01b039081169116614f81565b615c73615c6e8461556d565b615604565b5050615c3b565b615c838261556d565b615c8d600f614e35565b6001600160d01b039182169082160193908411611c105761079893615cbc904265ffffffffffff16600f6159e0565b9050509250615c26565b600314615ce157634e487b7160e01b5f52605160045260245ffd5b6001600160a01b039081165f908152600d6020526040902054169056fe7935bd0ae54bc31f548c14dba4d37c5c64b3f8ca900cb468fb8abd54d5894f55ddf252ad1be2c89b69c2b068fc378daa952ba7f163c4a11628f55a4df523b3efa2646970667358221220c6a785244c3fdd526fe2bfeb409872ee03ef8285e2e0e120dfcd7d995d7d7bee64736f6c634300081c003360e080604052346101e157604081612df9803803809161001f8285610200565b8339810103126101e15761003281610223565b906001600160a01b039061004890602001610223565b1680156101ed576040516301ffc9a760e01b815263261c910560e21b6004820152602081602481855afa90811561017d575f916101ae575b501561019c576080526001600160a01b0316801561016e5760a0819052600280546001600160a01b0319168217905560405190610d0e8083016001600160401b038111848210176101885760209284926120eb843981520301905ff0801561017d5760c052301561016e576008546001600160a01b03811661015f576001600160a01b0319163017600855604051611eb390816102388239608051818181610232015281816104580152818161075101528181610de0015261117d015260a05181611859015260c051818181610a0b015281816119a20152611ada0152f35b6336f62bb160e01b5f5260045ffd5b6334566e4b60e21b5f5260045ffd5b6040513d5f823e3d90fd5b634e487b7160e01b5f52604160045260245ffd5b6347bd7c1d60e01b5f5260045260245ffd5b90506020813d6020116101e5575b816101c960209383610200565b810103126101e1575180151581036101e1575f610080565b5f80fd5b3d91506101bc565b6347bd7c1d60e01b5f525f60045260245ffd5b601f909101601f19168101906001600160401b0382119082101761018857604052565b51906001600160a01b03821682036101e15756fe60806040526004361015610011575f80fd5b5f3560e01c8063055de2751461128a57806318160ddd1461126d578063211dc32d146112415780632378bea61461112f57806324ea54f4146110f55780632e17de78146110c55780633d18b91214610fe95780633d509c9714610d9957806348e5d9f814610d355780635eeb2e0f14610c3b578063638634ee14610c18578063647654b414610bbd57806366e943f114610b8357806369b3054b14610b225780637035ab9814610ad2578063705b504a14610a9a57806370a0823114610a6257806372f702f314610a3a57806376de5743146109f657806377df7b6a146109d35780637bb7bed114610983578063a2f1b4c914610961578063a3cd8ac4146106fc578063a694fc3a146106d5578063a89f38a31461069b578063bcd1101414610678578063c00007b01461058d578063c0b534c214610553578063ccc574901461052c578063cecc238f146104f4578063dae21dab146103fe578063e70b9e27146103ae578063e9fad8ee146102a7578063ebc136d0146101c95763f12297771461019a575f80fd5b346101c55760203660031901126101c55760206101bd6101b8611379565b6115e4565b604051908152f35b5f80fd5b346101c55760203660031901126101c5576101e2611379565b604051632474521560e21b81527fb00be3d6a5434b97b328543d1486d56adcb7e74080170d1cdd7e0306c3d9ba3d60048201526001600160a01b03918216602482015290602090829060449082907f0000000000000000000000000000000000000000000000000000000000000000165afa801561029c576020915f9161026f575b506040519015158152f35b61028f9150823d8411610295575b61028781836113c3565b810190611529565b82610264565b503d61027d565b6040513d5f823e3d90fd5b346101c5575f3660031901126101c5576102bf611675565b5f805433915b8181106102f5575f5f516020611e5e5f395f51905f525d335f5260076020526102f360405f20543333611947565b005b80610301600192611c15565b838060a01b0391549060031b1c166103183361178a565b805f52600560205260405f20855f5260205260405f20548061033d575b5050016102c5565b815f52600560205260405f20865f526020525f604081205561038e60405163a9059cbb60e01b60208201526103888161037a85336024840161192c565b03601f1981018352826113c3565b83611d74565b6040519081525f516020611e1e5f395f51905f5260203392a38480610335565b346101c55760403660031901126101c5576103c7611379565b6103cf61138f565b6001600160a01b039182165f908152600560209081526040808320949093168252928352819020549051908152f35b346101c55760203660031901126101c557610417611379565b604051632474521560e21b81527f025d8bbf3268be680d2605ebf6da15063b9915615bf1087dab336efc1bf970cb60048201523360248201526020816044817f00000000000000000000000000000000000000000000000000000000000000006001600160a01b03165afa90811561029c575f916104d5575b50156104c2576001600160a01b03811690816104a857005b6104b1906116aa565b905f52600960205260405f20555f80f35b630a4510f960e31b5f523360045260245ffd5b6104ee915060203d6020116102955761028781836113c3565b82610490565b346101c55760403660031901126101c5576102f3610510611379565b61051981611843565b6105228161178a565b6024359033611a99565b346101c5575f3660031901126101c55760206040515f516020611e3e5f395f51905f528152f35b346101c5575f3660031901126101c55760206040517f025d8bbf3268be680d2605ebf6da15063b9915615bf1087dab336efc1bf970cb8152f35b346101c55760203660031901126101c5576105a6611379565b6105ae611675565b6001600160a01b03165f8181526001602052604090205415610669576105d33361178a565b5f81815260056020908152604080832033845290915290205480610604575b5f5f516020611e5e5f395f51905f525d005b815f52600560205260405f2060018060a01b0333165f526020525f604081205561064960405163a9059cbb60e01b60208201526103888161037a85336024840161192c565b6040519081525f516020611e1e5f395f51905f5260203392a380806105f2565b63064fed9960e31b5f5260045ffd5b346101c55760203660031901126101c55760206101bd610696611379565b611580565b346101c5575f3660031901126101c55760206040517fb00be3d6a5434b97b328543d1486d56adcb7e74080170d1cdd7e0306c3d9ba3d8152f35b346101c55760203660031901126101c5576106ef33611843565b6102f36004353333611a99565b346101c55760603660031901126101c557610715611379565b60243560443590604051632474521560e21b81525f516020611e3e5f395f51905f52600482015233602482015260208160448160018060a01b037f0000000000000000000000000000000000000000000000000000000000000000165afa90811561029c575f91610942575b501561092f575f545f5b8181106108e757505060018060a01b03831692835f52600360205260405f2092845f52600160205260405f2054155f146108b05780156108a157610819917f68e3e9397770d9dfa88c0953a34e1a70a05416b3895957f5b689787a920791c461080c85936107f889611dcc565b508060028901556040519182918a8361192c565b0390a15b30903390611d29565b670de0b6b3a7640000810290808204670de0b6b3a7640000148115171561088d578261088260209361087160027fac24935fd910bc682b5ccb1a07b718cadf8cf2f6d1404c4f3ddc3662dae40e2997015480926113a5565b6001840155426003840155426115d7565b9055604051908152a2005b634e487b7160e01b5f52601160045260245ffd5b637ffcfc9f60e11b5f5260045ffd5b80151590816108d8575b506108c9578161081991610810565b6333fec8c760e21b5f5260045ffd5b905060028401541415856108ba565b806108f3600192611c15565b838060a01b0391549060031b1c16805f526003602052600361092660405f209261091c816115e4565b6004850155611541565b9101550161078b565b630ea7d7ed60e21b5f523360045260245ffd5b61095b915060203d6020116102955761028781836113c3565b84610781565b346101c5575f3660031901126101c5576020604051670de0b6b3a76400008152f35b346101c55760203660031901126101c5576004355f548110156109c4576109ab602091611c15565b905460405160039290921b1c6001600160a01b03168152f35b634e23d03560e01b5f5260045ffd5b346101c5575f3660031901126101c55760206702c68af0bb140000604051908152f35b346101c5575f3660031901126101c5576040517f00000000000000000000000000000000000000000000000000000000000000006001600160a01b03168152602090f35b346101c5575f3660031901126101c5576002546040516001600160a01b039091168152602090f35b346101c55760203660031901126101c5576001600160a01b03610a83611379565b165f526007602052602060405f2054604051908152f35b346101c55760203660031901126101c5576001600160a01b03610abb611379565b165f526009602052602060405f2054604051908152f35b346101c55760403660031901126101c557610aeb611379565b610af361138f565b6001600160a01b039182165f908152600460209081526040808320949093168252928352819020549051908152f35b346101c55760403660031901126101c55760043560038110156101c557602090610b4a61138f565b604051908382019260f81b835260018060601b03199060601b16602182015260158152610b786035826113c3565b519020604051908152f35b346101c5575f3660031901126101c55760206040517f0d186688925976bbe6755ae984501c8e3e2b103a7af59fd803ab9c6d891ae7e08152f35b346101c55760603660031901126101c557610bd6611379565b604435801515036101c55760018060a01b0316807fe3f87f6f94c12713b4e5a371c198e8183bb9f756a3d9f5210586dea4f78642cb60206040516024358152a3005b346101c55760203660031901126101c55760206101bd610c36611379565b611541565b346101c55760403660031901126101c557610c54611379565b610c5c61138f565b610c64611675565b6001600160a01b03165f818152600160205260409020549091901561066957610c8c8161178a565b815f52600560205260405f2060018060a01b0382165f5260205260405f20549081610cc3575f5f516020611e5e5f395f51905f525d005b60205f516020611e1e5f395f51905f5291845f526005825260405f2060018060a01b0382165f5282525f6040812055610d1c60405163a9059cbb60e01b84820152610d168161037a88866024840161192c565b86611d74565b6040519384526001600160a01b031692a38080806105f2565b346101c55760203660031901126101c5576001600160a01b03610d56611379565b165f52600360205260a060405f20805490600181015490600281015460046003830154920154926040519485526020850152604084015260608301526080820152f35b346101c55760203660031901126101c557610db2611379565b604051632474521560e21b81525f516020611e3e5f395f51905f5260048201523360248201526020816044817f00000000000000000000000000000000000000000000000000000000000000006001600160a01b03165afa90811561029c575f91610fca575b501561092f576001600160a01b03165f818152600160205260409020541561066957805f52600360205260405f2054421115610fbb576040516370a0823160e01b8152306004820152602081602481855afa90811561029c575f91610f89575b5060405163313ce56760e01b8152602081600481865afa5f9181610f4b575b50610f195750655af3107a40005b8111610f07577f66257bcef574219c04f7c05f7a1c78d599da10491294c92a5805c48b4cdf5009602083610ed881611c54565b50805f52600382525f6004604082208281558260018201558260028201558260038201550155604051908152a1005b633007cea360e01b5f5260045260245ffd5b60ff1660048111610f2c57506001610ea5565b6003190160ff811161088d5760ff16604d811161088d57600a0a610ea5565b9091506020813d602011610f81575b81610f67602093836113c3565b810103126101c5575160ff811681036101c5579084610e97565b3d9150610f5a565b90506020813d602011610fb3575b81610fa4602093836113c3565b810103126101c5575182610e78565b3d9150610f97565b63d9ba1add60e01b5f5260045ffd5b610fe3915060203d6020116102955761028781836113c3565b82610e18565b346101c5575f3660031901126101c557611001611675565b5f805433915b818110611020575f5f516020611e5e5f395f51905f525d005b8061102c600192611c15565b838060a01b0391549060031b1c166110433361178a565b805f52600560205260405f20855f5260205260405f205480611068575b505001611007565b815f52600560205260405f20865f526020525f60408120556110a560405163a9059cbb60e01b60208201526103888161037a85336024840161192c565b6040519081525f516020611e1e5f395f51905f5260203392a38480611060565b346101c55760203660031901126101c5576110df3361178a565b6110e833611843565b6102f36004353333611947565b346101c5575f3660031901126101c55760206040517f55435dd261a4b9b3364963f7738a7a662ad9c84396d64be3365284bb7f0a50418152f35b346101c55760403660031901126101c557611148611379565b604051632474521560e21b81525f516020611e3e5f395f51905f526004820152336024828101919091523591906020816044817f00000000000000000000000000000000000000000000000000000000000000006001600160a01b03165afa90811561029c575f91611222575b501561092f576001600160a01b03165f818152600160205260409020549091901561066957815f52600360205260405f208054421115610fbb57817fad2f86b01ed93b4b3a150d448c61a4f5d8d38075d3c0c64cc0a26fd6e1f495459260026020930155604051908152a2005b61123b915060203d6020116102955761028781836113c3565b836111b5565b346101c55760403660031901126101c55760206101bd61125f611379565b61126761138f565b9061140c565b346101c5575f3660031901126101c5576020600654604051908152f35b346101c55760203660031901126101c5576112a3611379565b6112ab611675565b5f80546001600160a01b0383169290915b8281106112d5575f5f516020611e5e5f395f51905f525d005b806112e1600192611c15565b838060a01b0391549060031b1c166112f88461178a565b805f52600560205260405f20865f526020528560405f20548061131f575b505050016112bc565b60205f516020611e1e5f395f51905f5291845f526005825260405f20845f5282525f604081205561136a60405163a9059cbb60e01b84820152610d168161037a858d6024840161192c565b604051908152a3858581611316565b600435906001600160a01b03821682036101c557565b602435906001600160a01b03821682036101c557565b81156113af570490565b634e487b7160e01b5f52601260045260245ffd5b90601f8019910116810190811067ffffffffffffffff8211176113e557604052565b634e487b7160e01b5f52604160045260245ffd5b8181029291811591840414171561088d57565b600254604051632c3e6f0f60e11b81526001600160a01b0383811660048301819052939260209183916024918391165afa90811561029c575f916114e7575b506001600160a01b0316156114e0576114b26114d6670de0b6b3a764000094846114dc955f526007602052866114b860405f20546114b261148b866115e4565b9560018060a01b031695865f52600460205260405f20865f5260205260405f205490611573565b906113f9565b04915f52600560205260405f20905f5260205260405f2054906115d7565b916116aa565b0490565b5050505f90565b90506020813d602011611521575b81611502602093836113c3565b810103126101c557516001600160a01b03811681036101c5575f61144b565b3d91506114f5565b908160209103126101c5575180151581036101c55790565b6001600160a01b03165f8181526003602052604090205442101561156457504290565b5f52600360205260405f205490565b9190820391821161088d57565b6001600160a01b03165f9081526003602052604090208054670de0b6b3a764000091428211156115c25760016115ba6114dc934290611573565b9101546113f9565b6114dc915060026001820154910154906113f9565b9190820180921161088d57565b6006548015611657579061164e6116549261164960018060a01b038416805f52600360205261163361161d600460405f20015496611541565b825f526003602052600360405f20015490611573565b905f526003602052600160405f200154906113f9565b6113a5565b906115d7565b90565b506001600160a01b03165f9081526003602052604090206004015490565b5f516020611e5e5f395f51905f525c61169b5760015f516020611e5e5f395f51905f525d565b633ee5aeb560e01b5f5260045ffd5b60025460405163f56a47a560e01b81526001600160a01b03928316600482018190529092909160209184916024918391165afa91821561029c575f92611756575b50805f52600960205260405f205415611752576702c68af0bb1400009182810292818404149015171561088d575f52600960205260405f205490670b1a2bc2ec5000009182810292818404149015171561088d57670de0b6b3a7640000916114dc916115d7565b5090565b9091506020813d602011611782575b81611772602093836113c3565b810103126101c55751905f6116eb565b3d9150611765565b5f54905f5b82811061179b57505050565b806117a7600192611c15565b838060a01b0391549060031b1c16805f52600360205260405f206117ca826115e4565b906004810191825560036117dd84611541565b910155838060a01b0385166117f5575b50500161178f565b6117ff828661140c565b825f52600560205260405f20858060a01b0387165f5260205260405f205554905f52600460205260405f20838060a01b0385165f5260205260405f20555f806117ed565b5f906001600160a01b031680611857575050565b7f00000000000000000000000000000000000000000000000000000000000000006001600160a01b0316803b156101c5575f8091602460405180948193633e4986ef60e11b83528760048401525af1801561029c57611917575b506008546001600160a01b031690813b1561191357829160248392604051948593849263dae21dab60e01b845260048401525af18015611908576118f3575050565b6118fe8280926113c3565b6119055750565b80fd5b6040513d84823e3d90fd5b8280fd5b6119249192505f906113c3565b5f905f6118b1565b6001600160a01b039091168152602081019190915260400190565b8215611a8a5761195983600654611573565b60065560018060a01b031690815f52600760205260405f2061197c848254611573565b905560405163040b850f60e31b81526020818061199d87306004840161192c565b03815f7f00000000000000000000000000000000000000000000000000000000000000006001600160a01b03165af1801561029c57611a6d575b5060025460405163a9059cbb60e01b8152919060209083906001600160a01b0316815f81611a098a886004840161192c565b03925af190811561029c577fd8654fcc8cf5b36d30b3f5e4688fc78118e6d68de60b9994e09902268b57c3e392602092611a52575b506040519485526001600160a01b031693a3565b611a6890833d85116102955761028781836113c3565b611a3e565b611a859060203d6020116102955761028781836113c3565b6119d7565b6310356e5960e21b5f5260045ffd5b91908115611c06576002546001600160a01b03168015611bf75782611ac091853091611d29565b60025460405163095ea7b360e01b81526001600160a01b037f000000000000000000000000000000000000000000000000000000000000000081169392602091839116815f81611b148a8a6004840161192c565b03925af1801561029c57611bda575b50602060405180936317a790f160e11b8252815f81611b4689306004840161192c565b03925af190811561029c577f5dac0c1b1112564a045ba943c9d50270893e8e826c49be8e7073adc713ab7bd792602092611bbf575b50611b88846006546115d7565b60065560018060a01b031693845f526007825260405f20611baa8582546115d7565b90556040519384526001600160a01b031692a3565b611bd590833d85116102955761028781836113c3565b611b7b565b611bf29060203d6020116102955761028781836113c3565b611b23565b63417198d360e01b5f5260045ffd5b636a76ff9f60e01b5f5260045ffd5b5f54811015611c2b575f805260205f2001905f90565b634e487b7160e01b5f52603260045260245ffd5b8054821015611c2b575f5260205f2001905f90565b5f818152600160205260409020548015611d23575f19810181811161088d575f545f1981019190821161088d57818103611cd7575b5050505f548015611cc3575f1901611ca1815f611c3f565b8154905f199060031b1b191690555f555f5260016020525f6040812055600190565b634e487b7160e01b5f52603160045260245ffd5b611d0d611ce7611cf7935f611c3f565b90549060031b1c9283925f611c3f565b819391549060031b91821b915f19901b19161790565b90555f52600160205260405f20555f8080611c89565b50505f90565b6040516323b872dd60e01b60208201526001600160a01b039283166024820152929091166044830152606480830193909352918152611d7291611d6d6084836113c3565b611d74565b565b905f602091828151910182855af11561029c575f513d611dc357506001600160a01b0381163b155b611da35750565b635274afe760e01b5f9081526001600160a01b0391909116600452602490fd5b60011415611d9c565b805f52600160205260405f2054155f14611e18575f54600160401b8110156113e557611e02611cf78260018594015f555f611c3f565b90555f54905f52600160205260405f2055600190565b505f9056fe540798df468d7b23d11f156fdb954cb19ad414d150722a7b6d55ba369dea792e7935bd0ae54bc31f548c14dba4d37c5c64b3f8ca900cb468fb8abd54d5894f559b779b17422d0df92223018b32b4d1fa46e071723d6817e2486d003becc55f00a2646970667358221220f3a59284f49a6ad475c73b0275641019c605d5485a96eb6d5b8460c01b1b28d764736f6c634300081c003360a0806040523461037d57602081610d0e803803809161001f8285610381565b83398101031261037d57516001600160a01b03811680820361037d57604051916702bb930b83832b2160c51b60208401526529bab6b6b2b960d11b6028840152600e835261006e602e84610381565b60405191607760f81b60208401526329aaa6a960e11b602184015260058352610098602584610381565b83516001600160401b03811161028e57600354600181811c91168015610373575b602082101461027057601f8111610310575b50602094601f82116001146102ad579481929394955f926102a2575b50508160011b915f199060031b1c1916176003555b82516001600160401b03811161028e57600454600181811c91168015610284575b602082101461027057601f811161020d575b506020601f82116001146101aa57819293945f9261019f575b50508160011b915f199060031b1c1916176004555b301461018c5760805260405161096990816103a582396080518181816102750152818161033401526107ae0152f35b63438d6fe360e01b5f523060045260245ffd5b015190505f80610148565b601f1982169060045f52805f20915f5b8181106101f5575095836001959697106101dd575b505050811b0160045561015d565b01515f1960f88460031b161c191690555f80806101cf565b9192602060018192868b0151815501940192016101ba565b60045f527f8a35acfbc15ff81a39ae7d344fd709f28e8600b4aa8c65c6b64bfe7fe36bd19b601f830160051c81019160208410610266575b601f0160051c01905b81811061025b575061012f565b5f815560010161024e565b9091508190610245565b634e487b7160e01b5f52602260045260245ffd5b90607f169061011d565b634e487b7160e01b5f52604160045260245ffd5b015190505f806100e7565b601f1982169560035f52805f20915f5b8881106102f8575083600195969798106102e0575b505050811b016003556100fc565b01515f1960f88460031b161c191690555f80806102d2565b919260206001819286850151815501940192016102bd565b60035f527fc2575a0e9e593c00f959f8c92f12db2869c3395a3b0502d05e2516446f71f85b601f830160051c81019160208410610369575b601f0160051c01905b81811061035e57506100cb565b5f8155600101610351565b9091508190610348565b90607f16906100b9565b5f80fd5b601f909101601f19168101906001600160401b0382119082101761028e5760405256fe6080806040526004361015610012575f80fd5b5f3560e01c90816306fdde031461065557508063095ea7b3146105d357806318160ddd146105b6578063205c2878146104d157806323b872dd146103f15780632f4f21e2146102c9578063313ce567146102a45780636f307dc31461026057806370a082311461022957806395d89b4114610125578063a9059cbb146100f45763dd62ed3e146100a0575f80fd5b346100f05760403660031901126100f0576100b9610737565b6100c161074d565b6001600160a01b039182165f908152600160209081526040808320949093168252928352819020549051908152f35b5f80fd5b346100f05760403660031901126100f05761011a610110610737565b602435903361082c565b602060405160018152f35b346100f0575f3660031901126100f0576040515f6004548060011c9060018116801561021f575b60208310811461020b578285529081156101e75750600114610189575b6101858361017981850382610763565b6040519182918261070d565b0390f35b60045f9081527f8a35acfbc15ff81a39ae7d344fd709f28e8600b4aa8c65c6b64bfe7fe36bd19b939250905b8082106101cd57509091508101602001610179610169565b9192600181602092548385880101520191019092916101b5565b60ff191660208086019190915291151560051b840190910191506101799050610169565b634e487b7160e01b5f52602260045260245ffd5b91607f169161014c565b346100f05760203660031901126100f0576001600160a01b0361024a610737565b165f525f602052602060405f2054604051908152f35b346100f0575f3660031901126100f0576040517f00000000000000000000000000000000000000000000000000000000000000006001600160a01b03168152602090f35b346100f0575f3660031901126100f05760206102be610799565b60ff60405191168152f35b346100f05760403660031901126100f0576102e2610737565b602435903033146103de576001600160a01b0316903082146103cb576103586040516323b872dd60e01b602082015233602482015230604482015282606482015260648152610332608482610763565b7f00000000000000000000000000000000000000000000000000000000000000006108b0565b81156103b857600254908082018092116103a45760205f5160206109145f395f51905f52915f9360025584845283825260408420818154019055604051908152a3602060405160018152f35b634e487b7160e01b5f52601160045260245ffd5b63ec442f0560e01b5f525f60045260245ffd5b5063ec442f0560e01b5f5260045260245ffd5b634b637e8f60e11b5f523060045260245ffd5b346100f05760603660031901126100f05761040a610737565b61041261074d565b6001600160a01b0382165f818152600160208181526040808420338552909152909120549193604435939290918101610451575b5061011a935061082c565b8381106104b65784156104a35733156104905761011a945f52600160205260405f2060018060a01b0333165f526020528360405f209103905584610446565b634a1406b160e11b5f525f60045260245ffd5b63e602df0560e01b5f525f60045260245ffd5b8390637dc7a0d960e11b5f523360045260245260445260645ffd5b346100f05760403660031901126100f0576104ea610737565b602435906001600160a01b03163081146105a457331561059157335f525f60205260405f205482811061057657918061011a93335f525f6020520360405f205580600254036002555f6040518281525f5160206109145f395f51905f5260203392a36040519163a9059cbb60e01b60208401526024830152604482015260448152610332606482610763565b905063391434e360e21b5f523360045260245260445260645ffd5b634b637e8f60e11b5f525f60045260245ffd5b63ec442f0560e01b5f5260045260245ffd5b346100f0575f3660031901126100f0576020600254604051908152f35b346100f05760403660031901126100f0576105ec610737565b6024359033156104a3576001600160a01b031690811561049057335f52600160205260405f20825f526020528060405f20556040519081527f8c5be1e5ebec7d5bd14f71427d1e84f3dd0314c0f7b2291e5b200ac8c7c3b92560203392a3602060405160018152f35b346100f0575f3660031901126100f0575f6003548060011c90600181168015610703575b60208310811461020b578285529081156101e757506001146106a5576101858361017981850382610763565b60035f9081527fc2575a0e9e593c00f959f8c92f12db2869c3395a3b0502d05e2516446f71f85b939250905b8082106106e957509091508101602001610179610169565b9192600181602092548385880101520191019092916106d1565b91607f1691610679565b602060409281835280519182918282860152018484015e5f828201840152601f01601f1916010190565b600435906001600160a01b03821682036100f057565b602435906001600160a01b03821682036100f057565b90601f8019910116810190811067ffffffffffffffff82111761078557604052565b634e487b7160e01b5f52604160045260245ffd5b60405163313ce56760e01b81526020816004817f00000000000000000000000000000000000000000000000000000000000000006001600160a01b03165afa5f91816107ee575b506107eb5750601290565b90565b9091506020813d602011610824575b8161080a60209383610763565b810103126100f0575160ff811681036100f057905f6107e0565b3d91506107fd565b6001600160a01b0316908115610591576001600160a01b03169182156103b857815f525f60205260405f205481811061089757815f5160206109145f395f51905f5292602092855f525f84520360405f2055845f525f825260405f20818154019055604051908152a3565b8263391434e360e21b5f5260045260245260445260645ffd5b905f602091828151910182855af115610908575f513d6108ff57506001600160a01b0381163b155b6108df5750565b635274afe760e01b5f9081526001600160a01b0391909116600452602490fd5b600114156108d8565b6040513d5f823e3d90fdfeddf252ad1be2c89b69c2b068fc378daa952ba7f163c4a11628f55a4df523b3efa2646970667358221220e8fa0e101cc73d90d0bce8033d0f872d3cf57abdd41b44287c972797b066c21e64736f6c634300081c003360c0806040523461011d576040816123b3803803809161001f8285610147565b83398101031261011d576100328161017e565b906001600160a01b03906100489060200161017e565b168015610134576040516301ffc9a760e01b815263261c910560e21b6004820152602081602481855afa908115610129575f916100ea575b50156100d8576080526001600160a01b038116156100c95760a052604051612220908161019382396080518181816101460152610349015260a05181818160aa015261042a0152f35b636b093aad60e01b5f5260045ffd5b6347bd7c1d60e01b5f5260045260245ffd5b90506020813d602011610121575b8161010560209383610147565b8101031261011d5751801515810361011d575f610080565b5f80fd5b3d91506100f8565b6040513d5f823e3d90fd5b6347bd7c1d60e01b5f525f60045260245ffd5b601f909101601f19168101906001600160401b0382119082101761016a57604052565b634e487b7160e01b5f52604160045260245ffd5b51906001600160a01b038216820361011d5756fe6080806040526004361015610012575f80fd5b5f3560e01c9081631797cc641461092f5750806324ea54f4146108f557806366e943f1146108bb57806369b3054b1461084957806392f1d24f146102a8578063a89f38a31461026e578063baf351071461022f578063c0b534c2146101f5578063ccc57490146101bb578063ebc136d0146100dd5763fc0c546a14610095575f80fd5b346100d9575f3660031901126100d9576040517f00000000000000000000000000000000000000000000000000000000000000006001600160a01b03168152602090f35b5f80fd5b346100d95760203660031901126100d9576100f661096e565b604051632474521560e21b81527fb00be3d6a5434b97b328543d1486d56adcb7e74080170d1cdd7e0306c3d9ba3d60048201526001600160a01b03918216602482015290602090829060449082907f0000000000000000000000000000000000000000000000000000000000000000165afa80156101b0576020915f91610183575b506040519015158152f35b6101a39150823d84116101a9575b61019b8183610984565b8101906109a5565b82610178565b503d610191565b6040513d5f823e3d90fd5b346100d9575f3660031901126100d95760206040517f7935bd0ae54bc31f548c14dba4d37c5c64b3f8ca900cb468fb8abd54d5894f558152f35b346100d9575f3660031901126100d95760206040517f025d8bbf3268be680d2605ebf6da15063b9915615bf1087dab336efc1bf970cb8152f35b346100d95760203660031901126100d9576001600160a01b0361025061096e565b165f525f602052602060018060a01b0360405f205416604051908152f35b346100d9575f3660031901126100d95760206040517fb00be3d6a5434b97b328543d1486d56adcb7e74080170d1cdd7e0306c3d9ba3d8152f35b346100d95760803660031901126100d9576102c161096e565b602435906044356001600160401b0381116100d957366023820112156100d9578060040135906001600160401b03821161071e578160051b6040519261030a6020830185610984565b835260246020840191830101913683116100d957602401905b828210610839575050506064359160028310156100d95760405163e66fd9ef60e01b81527f00000000000000000000000000000000000000000000000000000000000000006001600160a01b03169190602081600481865afa9081156101b0575f91610807575b50604051632474521560e21b81526004810191909152336024820152602081604481865afa9081156101b0575f916107e8575b50156107d5576001600160a01b039081165f81815260208190526040902054909291166107c257845f955b845187101561040f5761040760019160208960051b88010151906109bd565b9601956103e8565b604051636eb1769f60e11b81523360048201523060248201527f00000000000000000000000000000000000000000000000000000000000000006001600160a01b03169386939288929091906020816044818a5afa9081156101b0575f91610790575b5082811061077a57506040516370a0823160e01b81523360048201526020816024818a5afa9081156101b0575f91610748575b508281106107325750604051906117b890818301908382106001600160401b0383111761071e578392610a3384398882528960208301526001600160401b03421660408301526104f860608301876109de565b86608083015260e060a083015260c061051460e084018a6109ff565b92015203905ff080156101b0575f8781526020818152604080832080546001600160a01b03199081166001600160a01b0396909616958617909155848452600183529281902080549093168a1790925590516370a0823160e01b81526004810183905291969082602481845afa9182156101b0575f926106ea575b5060205f604051828101906323b872dd60e01b82523360248201528a6044820152866064820152606481526105c5608482610984565b519082855af1156101b0575f513d6106e15750803b155b6106cf5790602060249392604051948580926370a0823160e01b82528b60048301525afa9283156101b0575f9361069b575b5061061982826109bd565b830361067c57602087808a7fa24f0c282d4a63b2f7e3712da4fab41eaf78fcd5ff348ea189f9d6e5430054de8a8a8a610671610666604051948594855260608b86015260608501906109ff565b9160408401906109de565b0390a3604051908152f35b90610686916109bd565b632daa6d9560e21b5f5260045260245260445ffd5b9092506020813d6020116106c7575b816106b760209383610984565b810103126100d95751918861060e565b3d91506106aa565b635274afe760e01b5f5260045260245ffd5b600114156105dc565b9091506020813d602011610716575b8161070660209383610984565b810103126100d95751908861058f565b3d91506106f9565b634e487b7160e01b5f52604160045260245ffd5b8263cf47918160e01b5f5260045260245260445ffd5b90506020813d602011610772575b8161076360209383610984565b810103126100d95751886104a5565b3d9150610756565b8263054365bb60e31b5f5260045260245260445ffd5b90506020813d6020116107ba575b816107ab60209383610984565b810103126100d9575188610472565b3d915061079e565b50630f7b254960e21b5f5260045260245ffd5b636078547360e11b5f523360045260245ffd5b610801915060203d6020116101a95761019b8183610984565b866103bd565b90506020813d602011610831575b8161082260209383610984565b810103126100d957518661038a565b3d9150610815565b8135815260209182019101610323565b346100d95760403660031901126100d95760043560038110156100d957602435906001600160a01b03821682036100d95760405160f89190911b602082810191825260609390931b6001600160601b031916602183015260158252906108b0603582610984565b519020604051908152f35b346100d9575f3660031901126100d95760206040517f0d186688925976bbe6755ae984501c8e3e2b103a7af59fd803ab9c6d891ae7e08152f35b346100d9575f3660031901126100d95760206040517f55435dd261a4b9b3364963f7738a7a662ad9c84396d64be3365284bb7f0a50418152f35b346100d95760203660031901126100d9576020906001600160a01b0361095361096e565b165f9081526001835260409020546001600160a01b03168152f35b600435906001600160a01b03821682036100d957565b90601f801991011681019081106001600160401b0382111761071e57604052565b908160209103126100d9575180151581036100d95790565b919082018092116109ca57565b634e487b7160e01b5f52601160045260245ffd5b9060028210156109eb5752565b634e487b7160e01b5f52602160045260245ffd5b90602080835192838152019201905f5b818110610a1c5750505090565b8251845260209384019390920191600101610a0f56fe61012080604052346103b3576117b8803803809161001d8285610400565b8339810160e0828203126103b35761003482610423565b9161004160208201610423565b60408201519091906001600160401b03811681036103b35760608201519260028410156103b357608083015160a08401519093906001600160401b0381116103b35781019580601f880112156103b3578651966001600160401b038811610291578760051b90604051986100b8602084018b610400565b89526020808a01928201019283116103b357602001905b8282106103f05750505060c06100e59101610423565b6001600160a01b039091169182156103dd575f80546001600160a01b031981168517825560405194916001600160a01b03909116907f8be0079c531659141344cd1fd0a4f28419497f9722a3daafe3b4186f6b6457e09080a36080526303c2670060a0526001600160a01b03169081156103ca576301ffc9a760e01b815263261c910560e21b6004820152602081602481855afa9081156103bf575f91610380575b501561036e5760c0528160e052600555155f14610359575f5b81518110156102a55760208160051b83010151906003546801000000000000000081101561029157600181018060035581101561027d5760035f527fc2575a0e9e593c00f959f8c92f12db2869c3395a3b0502d05e2516446f71f85b01829055600454916801000000000000000083101561029157600183018060045583101561027d5760407f314a43cc84323145dcbc0d75c7e5350dc6a6def246c48e0f30a001924f5261399160019460045f5260205f208160051c019060ff60f883549260031b161b1916905560035482519182526020820152a1016101a0565b634e487b7160e01b5f52603260045260245ffd5b634e487b7160e01b5f52604160045260245ffd5b50505b6101008190526001600160a01b0316801561034757604051611380908161043882396080518181816102f60152818161065e01526111c0015260a0518181816102cc0152610f66015260c05181818161038401528181610490015281816106a701526109cb015260e05181818161072601528181610a4a01528181610f9c01526112770152610100518181816101720152818161081c0152610afc0152f35b63961c9a4f60e01b5f5260045260245ffd5b51156102a857632d09888560e11b5f5260045ffd5b6347bd7c1d60e01b5f5260045260245ffd5b90506020813d6020116103b7575b8161039b60209383610400565b810103126103b3575180151581036103b3575f610187565b5f80fd5b3d915061038e565b6040513d5f823e3d90fd5b6347bd7c1d60e01b5f525f60045260245ffd5b631e4fbdf760e01b5f525f60045260245ffd5b81518152602091820191016100cf565b601f909101601f19168101906001600160401b0382119082101761029157604052565b51906001600160a01b03821682036103b35756fe6080604052600436101561001a575b3615610018575f80fd5b005b5f3560e01c80630a17b06b14610fce5780630e17454c14610f8a5780630fb5a6b414610f475780631916558714610e9757806324ea54f414610e5d5780633306094414610e4057806366e943f114610e0657806369b3054b14610d94578063715018a614610d3d578063810ec23b14610d0457806386d1a69f14610c0d57806388fb1502146109ac5780638da5cb5b1461098557806396132521146109685780639852595c14610930578063a3f8eace1461090d578063a89f38a3146108d3578063aa5ef02b14610682578063be9a65551461063f578063c0b534c214610605578063c2a5b0be1461046b578063c9514c9b14610433578063ccc57490146103f9578063ebc136d01461031b578063efbe1c1c146102ad578063f2fde38b14610228578063f8d870c8146101eb578063fbccedae146101a55763fc0c546a0361000e57346101a1575f3660031901126101a1576040517f00000000000000000000000000000000000000000000000000000000000000006001600160a01b03168152602090f35b5f80fd5b346101a1575f3660031901126101a1576101c2476001549061108a565b5060206101e36101da6001600160401b0342166111b6565b60015490611173565b604051908152f35b346101a15760203660031901126101a1576004356004548110156101a15760ff61021660209261104d565b90549060031b1c166040519015158152f35b346101a15760203660031901126101a15761024161100b565b61024961124f565b6001600160a01b0316801561029a575f80546001600160a01b03198116831782556001600160a01b0316907f8be0079c531659141344cd1fd0a4f28419497f9722a3daafe3b4186f6b6457e09080a3005b631e4fbdf760e01b5f525f60045260245ffd5b346101a1575f3660031901126101a15760206101e36001600160401b037f0000000000000000000000000000000000000000000000000000000000000000166001600160401b037f00000000000000000000000000000000000000000000000000000000000000001661108a565b346101a15760203660031901126101a15761033461100b565b604051632474521560e21b81527fb00be3d6a5434b97b328543d1486d56adcb7e74080170d1cdd7e0306c3d9ba3d60048201526001600160a01b03918216602482015290602090829060449082907f0000000000000000000000000000000000000000000000000000000000000000165afa80156103ee576020915f916103c1575b506040519015158152f35b6103e19150823d84116103e7575b6103d98183611097565b810190611142565b826103b6565b503d6103cf565b6040513d5f823e3d90fd5b346101a1575f3660031901126101a15760206040517f7935bd0ae54bc31f548c14dba4d37c5c64b3f8ca900cb468fb8abd54d5894f558152f35b346101a15760203660031901126101a1576004356003548110156101a15761045c602091611021565b90549060031b1c604051908152f35b346101a15760203660031901126101a15760405163e66fd9ef60e01b815260048035917f00000000000000000000000000000000000000000000000000000000000000006001600160a01b031691602090829081855afa9081156103ee575f916105d1575b506020906104f5926040518080958194632474521560e21b835233906004840161115a565b03915afa9081156103ee575f916105b2575b501561059f57600181108015610594575b610585575f198101818111610571577ffbfd8ab7c24300fa9888cd721c8565a7da56759384781283684dcf7c7c4a846b9161055460209261104d565b81549060031b9060ff6001831b921b1916179055604051908152a1005b634e487b7160e01b5f52601160045260245ffd5b630d8a8dc160e21b5f5260045ffd5b506003548111610518565b636078547360e11b5f523360045260245ffd5b6105cb915060203d6020116103e7576103d98183611097565b82610507565b90506020813d6020116105fd575b816105ec60209383611097565b810103126101a157516104f56104d0565b3d91506105df565b346101a1575f3660031901126101a15760206040517f025d8bbf3268be680d2605ebf6da15063b9915615bf1087dab336efc1bf970cb8152f35b346101a1575f3660031901126101a15760206040516001600160401b037f0000000000000000000000000000000000000000000000000000000000000000168152f35b346101a15760203660031901126101a15760405163e66fd9ef60e01b815260048035917f00000000000000000000000000000000000000000000000000000000000000006001600160a01b031691602090829081855afa9081156103ee575f9161089f575b5060209061070c926040518080958194632474521560e21b835233906004840161115a565b03915afa9081156103ee575f91610880575b501561059f577f0000000000000000000000000000000000000000000000000000000000000000600281101561086c5761085d57600354600160401b811015610849578060016107719201600355611021565b81545f1960039290921b91821b19169083901b17905560045490600160401b821015610849576107aa826001610018940160045561104d565b60ff82549160031b1b191690557f314a43cc84323145dcbc0d75c7e5350dc6a6def246c48e0f30a001924f52613960406003548151908482526020820152a1604051906323b872dd60e01b602083015233602483015230604483015260648201526064815261081a608482611097565b7f00000000000000000000000000000000000000000000000000000000000000006001600160a01b03166112f2565b634e487b7160e01b5f52604160045260245ffd5b632d09888560e11b5f5260045ffd5b634e487b7160e01b5f52602160045260245ffd5b610899915060203d6020116103e7576103d98183611097565b8261071e565b90506020813d6020116108cb575b816108ba60209383611097565b810103126101a1575161070c6106e7565b3d91506108ad565b346101a1575f3660031901126101a15760206040517fb00be3d6a5434b97b328543d1486d56adcb7e74080170d1cdd7e0306c3d9ba3d8152f35b346101a15760203660031901126101a15760206101e361092b61100b565b611180565b346101a15760203660031901126101a1576001600160a01b0361095161100b565b165f526002602052602060405f2054604051908152f35b346101a1575f3660031901126101a1576020600154604051908152f35b346101a1575f3660031901126101a1575f546040516001600160a01b039091168152602090f35b346101a1575f3660031901126101a15760405163e66fd9ef60e01b81527f00000000000000000000000000000000000000000000000000000000000000006001600160a01b031690602081600481855afa9081156103ee575f91610bd9575b50602090610a30926040518080958194632474521560e21b835233906004840161115a565b03915afa9081156103ee575f91610bba575b501561059f577f0000000000000000000000000000000000000000000000000000000000000000600281101561086c5761085d575f5f600354905b818110610b7457825f5b600354811015610acf578060ff610a9f60019361104d565b90549060031b1c1615610ab3575b01610a87565b610abc81611021565b8154905f199060031b1b19169055610aad565b5060405163a9059cbb60e01b815233600482015260248101829052906020826044815f6001600160a01b037f0000000000000000000000000000000000000000000000000000000000000000165af19081156103ee577f646dccc228123fd14a7623a401dec2e05c198af8a02a568df7c11ff7a04a123092602092610b59575b50604051908152a1005b610b6f90833d85116103e7576103d98183611097565b610b4f565b60ff610b7f8261104d565b90549060031b1c1615610b95575b600101610a7d565b91610bb2600191610ba585611021565b90549060031b1c9061108a565b929050610b8d565b610bd3915060203d6020116103e7576103d98183611097565b81610a42565b90506020813d602011610c05575b81610bf460209383611097565b810103126101a15751610a30610a0b565b3d9150610be7565b346101a1575f3660031901126101a157610c2a476001549061108a565b50610c3d6001600160401b0342166111b6565b610c54610c4d6001548093611173565b809261108a565b6001557fda9d4e5f101b8b9b1c5b76d0c5a9f7923571acfc02376aa076b75a8c080c956b6020604051838152a15f546001600160a01b0316478211610ced575f80809381935af13d15610ce8573d6001600160401b0381116108495760405190610cc8601f8201601f191660200183611097565b81525f60203d92013e5b15610cd957005b63d6bda27560e01b5f5260045ffd5b610cd2565b504763cf47918160e01b5f5260045260245260445ffd5b346101a15760403660031901126101a157610d1d61100b565b602435906001600160401b03821682036101a1576020916101e3916110b8565b346101a1575f3660031901126101a157610d5561124f565b5f80546001600160a01b0319811682556001600160a01b03167f8be0079c531659141344cd1fd0a4f28419497f9722a3daafe3b4186f6b6457e08280a3005b346101a15760403660031901126101a15760043560038110156101a157602435906001600160a01b03821682036101a15760405160f89190911b602082810191825260609390931b6001600160601b03191660218301526015825290610dfb603582611097565b519020604051908152f35b346101a1575f3660031901126101a15760206040517f0d186688925976bbe6755ae984501c8e3e2b103a7af59fd803ab9c6d891ae7e08152f35b346101a1575f3660031901126101a1576020600554604051908152f35b346101a1575f3660031901126101a15760206040517f55435dd261a4b9b3364963f7738a7a662ad9c84396d64be3365284bb7f0a50418152f35b346101a15760203660031901126101a157610018610eb361100b565b610ebc81611180565b9060018060a01b0316805f52600260205260405f20610edc83825461108a565b9055807fc0e523490dd523c33b1878c9eb14ff46991e3f5b2cd33710918618f2a39cba1b6020604051858152a25f5460405163a9059cbb60e01b60208201526001600160a01b039091166024820152604480820193909352918252610f42606483611097565b6112f2565b346101a1575f3660031901126101a15760206040516001600160401b037f0000000000000000000000000000000000000000000000000000000000000000168152f35b346101a1575f3660031901126101a1577f0000000000000000000000000000000000000000000000000000000000000000604051600282101561086c576020918152f35b346101a15760203660031901126101a1576004356001600160401b03811681036101a1576101e3602091611005476001549061108a565b506111b6565b600435906001600160a01b03821682036101a157565b6003548110156110395760035f5260205f2001905f90565b634e487b7160e01b5f52603260045260245ffd5b906004548210156110395760045f52600582901c7f8a35acfbc15ff81a39ae7d344fd709f28e8600b4aa8c65c6b64bfe7fe36bd19b0191601f1690565b9190820180921161057157565b90601f801991011681019081106001600160401b0382111761084957604052565b6040516370a0823160e01b81523060048201526001600160a01b03919091169190602081602481865afa9081156103ee575f9161110e575b506110059061110b935f52600260205260405f20549061108a565b90565b90506020813d60201161113a575b8161112960209383611097565b810103126101a1575161110b6110f0565b3d915061111c565b908160209103126101a1575180151581036101a15790565b9081526001600160a01b03909116602082015260400190565b9190820391821161057157565b61110b906111976001600160401b034216826110b8565b6001600160a01b039091165f9081526002602052604090205490611173565b6001600160401b037f0000000000000000000000000000000000000000000000000000000000000000169062ed4e00820190818311610571576001600160401b03169081106112495762278d009161120d91611173565b0460055481810291818304148115171561057157601861110b9204908082105f1461124257505b61123c611275565b9061108a565b9050611234565b50505f90565b5f546001600160a01b0316330361126257565b63118cdaa760e01b5f523360045260245ffd5b7f0000000000000000000000000000000000000000000000000000000000000000600281101561086c576112ee575f5f600354905b8181106112b657505090565b60ff6112c18261104d565b90549060031b1c166112d6575b6001016112aa565b916112e6600191610ba585611021565b9290506112ce565b5f90565b905f602091828151910182855af1156103ee575f513d61134157506001600160a01b0381163b155b6113215750565b635274afe760e01b5f9081526001600160a01b0391909116600452602490fd5b6001141561131a56fea2646970667358221220773859c01e7ef9e97cda89fa2ace4c7c8336f27e7d637bc185594fdca0ef701264736f6c634300081c0033a26469706673582212204af70fe597289f860a3ad2982743c6c376826a9ce1e3253a5bf339fa99c50e7664736f6c634300081c0033",
  "linkReferences": {},
  "deployedLinkReferences": {}
}