{
  "_format": "hh-sol-artifact-1",
  "contractName": "SummerToken",
  "sourceName": "src/contracts/SummerToken.sol",
  "abi": [
    {
      "inputs": [
        {
          "components": [
            {
              "internalType": "string",
              "name": "name",
              "type": "string"
            },
            {
              "internalType": "string",
              "name": "symbol",
              "type": "string"
            },
            {
              "internalType": "address",
              "name": "lzEndpoint",
              "type": "address"
            },
            {
              "internalType": "address",
              "name": "governor",
              "type": "address"
            }
          ],
          "internalType": "struct ISummerToken.TokenParams",
          "name": "params",
          "type": "tuple"
        }
      ],
      "stateMutability": "nonpayable",
      "type": "constructor"
    },
    {
      "inputs": [],
      "name": "CheckpointUnorderedInsertion",
      "type": "error"
    },
    {
      "inputs": [],
      "name": "ECDSAInvalidSignature",
      "type": "error"
    },
    {
      "inputs": [
        {
          "internalType": "uint256",
          "name": "length",
          "type": "uint256"
        }
      ],
      "name": "ECDSAInvalidSignatureLength",
      "type": "error"
    },
    {
      "inputs": [
        {
          "internalType": "bytes32",
          "name": "s",
          "type": "bytes32"
        }
      ],
      "name": "ECDSAInvalidSignatureS",
      "type": "error"
    },
    {
      "inputs": [
        {
          "internalType": "uint256",
          "name": "increasedSupply",
          "type": "uint256"
        },
        {
          "internalType": "uint256",
          "name": "cap",
          "type": "uint256"
        }
      ],
      "name": "ERC20ExceededSafeSupply",
      "type": "error"
    },
    {
      "inputs": [
        {
          "internalType": "address",
          "name": "spender",
          "type": "address"
        },
        {
          "internalType": "uint256",
          "name": "allowance",
          "type": "uint256"
        },
        {
          "internalType": "uint256",
          "name": "needed",
          "type": "uint256"
        }
      ],
      "name": "ERC20InsufficientAllowance",
      "type": "error"
    },
    {
      "inputs": [
        {
          "internalType": "address",
          "name": "sender",
          "type": "address"
        },
        {
          "internalType": "uint256",
          "name": "balance",
          "type": "uint256"
        },
        {
          "internalType": "uint256",
          "name": "needed",
          "type": "uint256"
        }
      ],
      "name": "ERC20InsufficientBalance",
      "type": "error"
    },
    {
      "inputs": [
        {
          "internalType": "address",
          "name": "approver",
          "type": "address"
        }
      ],
      "name": "ERC20InvalidApprover",
      "type": "error"
    },
    {
      "inputs": [
        {
          "internalType": "address",
          "name": "receiver",
          "type": "address"
        }
      ],
      "name": "ERC20InvalidReceiver",
      "type": "error"
    },
    {
      "inputs": [
        {
          "internalType": "address",
          "name": "sender",
          "type": "address"
        }
      ],
      "name": "ERC20InvalidSender",
      "type": "error"
    },
    {
      "inputs": [
        {
          "internalType": "address",
          "name": "spender",
          "type": "address"
        }
      ],
      "name": "ERC20InvalidSpender",
      "type": "error"
    },
    {
      "inputs": [
        {
          "internalType": "uint256",
          "name": "deadline",
          "type": "uint256"
        }
      ],
      "name": "ERC2612ExpiredSignature",
      "type": "error"
    },
    {
      "inputs": [
        {
          "internalType": "address",
          "name": "signer",
          "type": "address"
        },
        {
          "internalType": "address",
          "name": "owner",
          "type": "address"
        }
      ],
      "name": "ERC2612InvalidSigner",
      "type": "error"
    },
    {
      "inputs": [
        {
          "internalType": "uint256",
          "name": "timepoint",
          "type": "uint256"
        },
        {
          "internalType": "uint48",
          "name": "clock",
          "type": "uint48"
        }
      ],
      "name": "ERC5805FutureLookup",
      "type": "error"
    },
    {
      "inputs": [],
      "name": "ERC6372InconsistentClock",
      "type": "error"
    },
    {
      "inputs": [
        {
          "internalType": "address",
          "name": "account",
          "type": "address"
        },
        {
          "internalType": "uint256",
          "name": "currentNonce",
          "type": "uint256"
        }
      ],
      "name": "InvalidAccountNonce",
      "type": "error"
    },
    {
      "inputs": [],
      "name": "InvalidDelegate",
      "type": "error"
    },
    {
      "inputs": [],
      "name": "InvalidEndpointCall",
      "type": "error"
    },
    {
      "inputs": [],
      "name": "InvalidLocalDecimals",
      "type": "error"
    },
    {
      "inputs": [
        {
          "internalType": "bytes",
          "name": "options",
          "type": "bytes"
        }
      ],
      "name": "InvalidOptions",
      "type": "error"
    },
    {
      "inputs": [],
      "name": "InvalidShortString",
      "type": "error"
    },
    {
      "inputs": [
        {
          "internalType": "enum SummerVestingWallet.VestingType",
          "name": "invalidType",
          "type": "uint8"
        }
      ],
      "name": "InvalidVestingType",
      "type": "error"
    },
    {
      "inputs": [],
      "name": "LzTokenUnavailable",
      "type": "error"
    },
    {
      "inputs": [
        {
          "internalType": "uint32",
          "name": "eid",
          "type": "uint32"
        }
      ],
      "name": "NoPeer",
      "type": "error"
    },
    {
      "inputs": [
        {
          "internalType": "uint256",
          "name": "msgValue",
          "type": "uint256"
        }
      ],
      "name": "NotEnoughNative",
      "type": "error"
    },
    {
      "inputs": [
        {
          "internalType": "address",
          "name": "addr",
          "type": "address"
        }
      ],
      "name": "OnlyEndpoint",
      "type": "error"
    },
    {
      "inputs": [
        {
          "internalType": "uint32",
          "name": "eid",
          "type": "uint32"
        },
        {
          "internalType": "bytes32",
          "name": "sender",
          "type": "bytes32"
        }
      ],
      "name": "OnlyPeer",
      "type": "error"
    },
    {
      "inputs": [],
      "name": "OnlySelf",
      "type": "error"
    },
    {
      "inputs": [
        {
          "internalType": "address",
          "name": "owner",
          "type": "address"
        }
      ],
      "name": "OwnableInvalidOwner",
      "type": "error"
    },
    {
      "inputs": [
        {
          "internalType": "address",
          "name": "account",
          "type": "address"
        }
      ],
      "name": "OwnableUnauthorizedAccount",
      "type": "error"
    },
    {
      "inputs": [
        {
          "internalType": "uint8",
          "name": "bits",
          "type": "uint8"
        },
        {
          "internalType": "uint256",
          "name": "value",
          "type": "uint256"
        }
      ],
      "name": "SafeCastOverflowedUintDowncast",
      "type": "error"
    },
    {
      "inputs": [
        {
          "internalType": "address",
          "name": "token",
          "type": "address"
        }
      ],
      "name": "SafeERC20FailedOperation",
      "type": "error"
    },
    {
      "inputs": [
        {
          "internalType": "bytes",
          "name": "result",
          "type": "bytes"
        }
      ],
      "name": "SimulationResult",
      "type": "error"
    },
    {
      "inputs": [
        {
          "internalType": "uint256",
          "name": "amountLD",
          "type": "uint256"
        },
        {
          "internalType": "uint256",
          "name": "minAmountLD",
          "type": "uint256"
        }
      ],
      "name": "SlippageExceeded",
      "type": "error"
    },
    {
      "inputs": [
        {
          "internalType": "string",
          "name": "str",
          "type": "string"
        }
      ],
      "name": "StringTooLong",
      "type": "error"
    },
    {
      "inputs": [
        {
          "internalType": "address",
          "name": "beneficiary",
          "type": "address"
        }
      ],
      "name": "VestingWalletAlreadyExists",
      "type": "error"
    },
    {
      "inputs": [
        {
          "internalType": "uint256",
          "name": "expiry",
          "type": "uint256"
        }
      ],
      "name": "VotesExpiredSignature",
      "type": "error"
    },
    {
      "anonymous": false,
      "inputs": [
        {
          "indexed": true,
          "internalType": "address",
          "name": "owner",
          "type": "address"
        },
        {
          "indexed": true,
          "internalType": "address",
          "name": "spender",
          "type": "address"
        },
        {
          "indexed": false,
          "internalType": "uint256",
          "name": "value",
          "type": "uint256"
        }
      ],
      "name": "Approval",
      "type": "event"
    },
    {
      "anonymous": false,
      "inputs": [
        {
          "indexed": true,
          "internalType": "address",
          "name": "delegator",
          "type": "address"
        },
        {
          "indexed": true,
          "internalType": "address",
          "name": "fromDelegate",
          "type": "address"
        },
        {
          "indexed": true,
          "internalType": "address",
          "name": "toDelegate",
          "type": "address"
        }
      ],
      "name": "DelegateChanged",
      "type": "event"
    },
    {
      "anonymous": false,
      "inputs": [
        {
          "indexed": true,
          "internalType": "address",
          "name": "delegate",
          "type": "address"
        },
        {
          "indexed": false,
          "internalType": "uint256",
          "name": "previousVotes",
          "type": "uint256"
        },
        {
          "indexed": false,
          "internalType": "uint256",
          "name": "newVotes",
          "type": "uint256"
        }
      ],
      "name": "DelegateVotesChanged",
      "type": "event"
    },
    {
      "anonymous": false,
      "inputs": [],
      "name": "EIP712DomainChanged",
      "type": "event"
    },
    {
      "anonymous": false,
      "inputs": [
        {
          "components": [
            {
              "internalType": "uint32",
              "name": "eid",
              "type": "uint32"
            },
            {
              "internalType": "uint16",
              "name": "msgType",
              "type": "uint16"
            },
            {
              "internalType": "bytes",
              "name": "options",
              "type": "bytes"
            }
          ],
          "indexed": false,
          "internalType": "struct EnforcedOptionParam[]",
          "name": "_enforcedOptions",
          "type": "tuple[]"
        }
      ],
      "name": "EnforcedOptionSet",
      "type": "event"
    },
    {
      "anonymous": false,
      "inputs": [
        {
          "indexed": false,
          "internalType": "address",
          "name": "inspector",
          "type": "address"
        }
      ],
      "name": "MsgInspectorSet",
      "type": "event"
    },
    {
      "anonymous": false,
      "inputs": [
        {
          "indexed": true,
          "internalType": "bytes32",
          "name": "guid",
          "type": "bytes32"
        },
        {
          "indexed": false,
          "internalType": "uint32",
          "name": "srcEid",
          "type": "uint32"
        },
        {
          "indexed": true,
          "internalType": "address",
          "name": "toAddress",
          "type": "address"
        },
        {
          "indexed": false,
          "internalType": "uint256",
          "name": "amountReceivedLD",
          "type": "uint256"
        }
      ],
      "name": "OFTReceived",
      "type": "event"
    },
    {
      "anonymous": false,
      "inputs": [
        {
          "indexed": true,
          "internalType": "bytes32",
          "name": "guid",
          "type": "bytes32"
        },
        {
          "indexed": false,
          "internalType": "uint32",
          "name": "dstEid",
          "type": "uint32"
        },
        {
          "indexed": true,
          "internalType": "address",
          "name": "fromAddress",
          "type": "address"
        },
        {
          "indexed": false,
          "internalType": "uint256",
          "name": "amountSentLD",
          "type": "uint256"
        },
        {
          "indexed": false,
          "internalType": "uint256",
          "name": "amountReceivedLD",
          "type": "uint256"
        }
      ],
      "name": "OFTSent",
      "type": "event"
    },
    {
      "anonymous": false,
      "inputs": [
        {
          "indexed": true,
          "internalType": "address",
          "name": "previousOwner",
          "type": "address"
        },
        {
          "indexed": true,
          "internalType": "address",
          "name": "newOwner",
          "type": "address"
        }
      ],
      "name": "OwnershipTransferred",
      "type": "event"
    },
    {
      "anonymous": false,
      "inputs": [
        {
          "indexed": false,
          "internalType": "uint32",
          "name": "eid",
          "type": "uint32"
        },
        {
          "indexed": false,
          "internalType": "bytes32",
          "name": "peer",
          "type": "bytes32"
        }
      ],
      "name": "PeerSet",
      "type": "event"
    },
    {
      "anonymous": false,
      "inputs": [
        {
          "indexed": false,
          "internalType": "address",
          "name": "preCrimeAddress",
          "type": "address"
        }
      ],
      "name": "PreCrimeSet",
      "type": "event"
    },
    {
      "anonymous": false,
      "inputs": [
        {
          "indexed": true,
          "internalType": "address",
          "name": "from",
          "type": "address"
        },
        {
          "indexed": true,
          "internalType": "address",
          "name": "to",
          "type": "address"
        },
        {
          "indexed": false,
          "internalType": "uint256",
          "name": "value",
          "type": "uint256"
        }
      ],
      "name": "Transfer",
      "type": "event"
    },
    {
      "inputs": [],
      "name": "CLOCK_MODE",
      "outputs": [
        {
          "internalType": "string",
          "name": "",
          "type": "string"
        }
      ],
      "stateMutability": "view",
      "type": "function"
    },
    {
      "inputs": [],
      "name": "DOMAIN_SEPARATOR",
      "outputs": [
        {
          "internalType": "bytes32",
          "name": "",
          "type": "bytes32"
        }
      ],
      "stateMutability": "view",
      "type": "function"
    },
    {
      "inputs": [],
      "name": "SEND",
      "outputs": [
        {
          "internalType": "uint16",
          "name": "",
          "type": "uint16"
        }
      ],
      "stateMutability": "view",
      "type": "function"
    },
    {
      "inputs": [],
      "name": "SEND_AND_CALL",
      "outputs": [
        {
          "internalType": "uint16",
          "name": "",
          "type": "uint16"
        }
      ],
      "stateMutability": "view",
      "type": "function"
    },
    {
      "inputs": [
        {
          "components": [
            {
              "internalType": "uint32",
              "name": "srcEid",
              "type": "uint32"
            },
            {
              "internalType": "bytes32",
              "name": "sender",
              "type": "bytes32"
            },
            {
              "internalType": "uint64",
              "name": "nonce",
              "type": "uint64"
            }
          ],
          "internalType": "struct Origin",
          "name": "origin",
          "type": "tuple"
        }
      ],
      "name": "allowInitializePath",
      "outputs": [
        {
          "internalType": "bool",
          "name": "",
          "type": "bool"
        }
      ],
      "stateMutability": "view",
      "type": "function"
    },
    {
      "inputs": [
        {
          "internalType": "address",
          "name": "owner",
          "type": "address"
        },
        {
          "internalType": "address",
          "name": "spender",
          "type": "address"
        }
      ],
      "name": "allowance",
      "outputs": [
        {
          "internalType": "uint256",
          "name": "",
          "type": "uint256"
        }
      ],
      "stateMutability": "view",
      "type": "function"
    },
    {
      "inputs": [],
      "name": "approvalRequired",
      "outputs": [
        {
          "internalType": "bool",
          "name": "",
          "type": "bool"
        }
      ],
      "stateMutability": "pure",
      "type": "function"
    },
    {
      "inputs": [
        {
          "internalType": "address",
          "name": "spender",
          "type": "address"
        },
        {
          "internalType": "uint256",
          "name": "value",
          "type": "uint256"
        }
      ],
      "name": "approve",
      "outputs": [
        {
          "internalType": "bool",
          "name": "",
          "type": "bool"
        }
      ],
      "stateMutability": "nonpayable",
      "type": "function"
    },
    {
      "inputs": [
        {
          "internalType": "address",
          "name": "account",
          "type": "address"
        }
      ],
      "name": "balanceOf",
      "outputs": [
        {
          "internalType": "uint256",
          "name": "",
          "type": "uint256"
        }
      ],
      "stateMutability": "view",
      "type": "function"
    },
    {
      "inputs": [
        {
          "internalType": "uint256",
          "name": "value",
          "type": "uint256"
        }
      ],
      "name": "burn",
      "outputs": [],
      "stateMutability": "nonpayable",
      "type": "function"
    },
    {
      "inputs": [
        {
          "internalType": "address",
          "name": "account",
          "type": "address"
        },
        {
          "internalType": "uint256",
          "name": "value",
          "type": "uint256"
        }
      ],
      "name": "burnFrom",
      "outputs": [],
      "stateMutability": "nonpayable",
      "type": "function"
    },
    {
      "inputs": [
        {
          "internalType": "address",
          "name": "account",
          "type": "address"
        },
        {
          "internalType": "uint32",
          "name": "pos",
          "type": "uint32"
        }
      ],
      "name": "checkpoints",
      "outputs": [
        {
          "components": [
            {
              "internalType": "uint48",
              "name": "_key",
              "type": "uint48"
            },
            {
              "internalType": "uint208",
              "name": "_value",
              "type": "uint208"
            }
          ],
          "internalType": "struct Checkpoints.Checkpoint208",
          "name": "",
          "type": "tuple"
        }
      ],
      "stateMutability": "view",
      "type": "function"
    },
    {
      "inputs": [],
      "name": "clock",
      "outputs": [
        {
          "internalType": "uint48",
          "name": "",
          "type": "uint48"
        }
      ],
      "stateMutability": "view",
      "type": "function"
    },
    {
      "inputs": [
        {
          "internalType": "uint32",
          "name": "_eid",
          "type": "uint32"
        },
        {
          "internalType": "uint16",
          "name": "_msgType",
          "type": "uint16"
        },
        {
          "internalType": "bytes",
          "name": "_extraOptions",
          "type": "bytes"
        }
      ],
      "name": "combineOptions",
      "outputs": [
        {
          "internalType": "bytes",
          "name": "",
          "type": "bytes"
        }
      ],
      "stateMutability": "view",
      "type": "function"
    },
    {
      "inputs": [
        {
          "internalType": "address",
          "name": "beneficiary",
          "type": "address"
        },
        {
          "internalType": "uint256",
          "name": "timeBasedAmount",
          "type": "uint256"
        },
        {
          "internalType": "uint256[]",
          "name": "goalAmounts",
          "type": "uint256[]"
        },
        {
          "internalType": "enum SummerVestingWallet.VestingType",
          "name": "vestingType",
          "type": "uint8"
        }
      ],
      "name": "createVestingWallet",
      "outputs": [],
      "stateMutability": "nonpayable",
      "type": "function"
    },
    {
      "inputs": [],
      "name": "decimalConversionRate",
      "outputs": [
        {
          "internalType": "uint256",
          "name": "",
          "type": "uint256"
        }
      ],
      "stateMutability": "view",
      "type": "function"
    },
    {
      "inputs": [],
      "name": "decimals",
      "outputs": [
        {
          "internalType": "uint8",
          "name": "",
          "type": "uint8"
        }
      ],
      "stateMutability": "view",
      "type": "function"
    },
    {
      "inputs": [
        {
          "internalType": "address",
          "name": "delegatee",
          "type": "address"
        }
      ],
      "name": "delegate",
      "outputs": [],
      "stateMutability": "nonpayable",
      "type": "function"
    },
    {
      "inputs": [
        {
          "internalType": "address",
          "name": "delegatee",
          "type": "address"
        },
        {
          "internalType": "uint256",
          "name": "nonce",
          "type": "uint256"
        },
        {
          "internalType": "uint256",
          "name": "expiry",
          "type": "uint256"
        },
        {
          "internalType": "uint8",
          "name": "v",
          "type": "uint8"
        },
        {
          "internalType": "bytes32",
          "name": "r",
          "type": "bytes32"
        },
        {
          "internalType": "bytes32",
          "name": "s",
          "type": "bytes32"
        }
      ],
      "name": "delegateBySig",
      "outputs": [],
      "stateMutability": "nonpayable",
      "type": "function"
    },
    {
      "inputs": [
        {
          "internalType": "address",
          "name": "account",
          "type": "address"
        }
      ],
      "name": "delegates",
      "outputs": [
        {
          "internalType": "address",
          "name": "",
          "type": "address"
        }
      ],
      "stateMutability": "view",
      "type": "function"
    },
    {
      "inputs": [],
      "name": "eip712Domain",
      "outputs": [
        {
          "internalType": "bytes1",
          "name": "fields",
          "type": "bytes1"
        },
        {
          "internalType": "string",
          "name": "name",
          "type": "string"
        },
        {
          "internalType": "string",
          "name": "version",
          "type": "string"
        },
        {
          "internalType": "uint256",
          "name": "chainId",
          "type": "uint256"
        },
        {
          "internalType": "address",
          "name": "verifyingContract",
          "type": "address"
        },
        {
          "internalType": "bytes32",
          "name": "salt",
          "type": "bytes32"
        },
        {
          "internalType": "uint256[]",
          "name": "extensions",
          "type": "uint256[]"
        }
      ],
      "stateMutability": "view",
      "type": "function"
    },
    {
      "inputs": [],
      "name": "endpoint",
      "outputs": [
        {
          "internalType": "contract ILayerZeroEndpointV2",
          "name": "",
          "type": "address"
        }
      ],
      "stateMutability": "view",
      "type": "function"
    },
    {
      "inputs": [
        {
          "internalType": "uint32",
          "name": "eid",
          "type": "uint32"
        },
        {
          "internalType": "uint16",
          "name": "msgType",
          "type": "uint16"
        }
      ],
      "name": "enforcedOptions",
      "outputs": [
        {
          "internalType": "bytes",
          "name": "enforcedOption",
          "type": "bytes"
        }
      ],
      "stateMutability": "view",
      "type": "function"
    },
    {
      "inputs": [
        {
          "internalType": "uint256",
          "name": "timepoint",
          "type": "uint256"
        }
      ],
      "name": "getPastTotalSupply",
      "outputs": [
        {
          "internalType": "uint256",
          "name": "",
          "type": "uint256"
        }
      ],
      "stateMutability": "view",
      "type": "function"
    },
    {
      "inputs": [
        {
          "internalType": "address",
          "name": "account",
          "type": "address"
        },
        {
          "internalType": "uint256",
          "name": "timepoint",
          "type": "uint256"
        }
      ],
      "name": "getPastVotes",
      "outputs": [
        {
          "internalType": "uint256",
          "name": "",
          "type": "uint256"
        }
      ],
      "stateMutability": "view",
      "type": "function"
    },
    {
      "inputs": [
        {
          "internalType": "address",
          "name": "account",
          "type": "address"
        }
      ],
      "name": "getVotes",
      "outputs": [
        {
          "internalType": "uint256",
          "name": "",
          "type": "uint256"
        }
      ],
      "stateMutability": "view",
      "type": "function"
    },
    {
      "inputs": [
        {
          "components": [
            {
              "internalType": "uint32",
              "name": "srcEid",
              "type": "uint32"
            },
            {
              "internalType": "bytes32",
              "name": "sender",
              "type": "bytes32"
            },
            {
              "internalType": "uint64",
              "name": "nonce",
              "type": "uint64"
            }
          ],
          "internalType": "struct Origin",
          "name": "",
          "type": "tuple"
        },
        {
          "internalType": "bytes",
          "name": "",
          "type": "bytes"
        },
        {
          "internalType": "address",
          "name": "_sender",
          "type": "address"
        }
      ],
      "name": "isComposeMsgSender",
      "outputs": [
        {
          "internalType": "bool",
          "name": "",
          "type": "bool"
        }
      ],
      "stateMutability": "view",
      "type": "function"
    },
    {
      "inputs": [
        {
          "internalType": "uint32",
          "name": "_eid",
          "type": "uint32"
        },
        {
          "internalType": "bytes32",
          "name": "_peer",
          "type": "bytes32"
        }
      ],
      "name": "isPeer",
      "outputs": [
        {
          "internalType": "bool",
          "name": "",
          "type": "bool"
        }
      ],
      "stateMutability": "view",
      "type": "function"
    },
    {
      "inputs": [
        {
          "components": [
            {
              "internalType": "uint32",
              "name": "srcEid",
              "type": "uint32"
            },
            {
              "internalType": "bytes32",
              "name": "sender",
              "type": "bytes32"
            },
            {
              "internalType": "uint64",
              "name": "nonce",
              "type": "uint64"
            }
          ],
          "internalType": "struct Origin",
          "name": "_origin",
          "type": "tuple"
        },
        {
          "internalType": "bytes32",
          "name": "_guid",
          "type": "bytes32"
        },
        {
          "internalType": "bytes",
          "name": "_message",
          "type": "bytes"
        },
        {
          "internalType": "address",
          "name": "_executor",
          "type": "address"
        },
        {
          "internalType": "bytes",
          "name": "_extraData",
          "type": "bytes"
        }
      ],
      "name": "lzReceive",
      "outputs": [],
      "stateMutability": "payable",
      "type": "function"
    },
    {
      "inputs": [
        {
          "components": [
            {
              "components": [
                {
                  "internalType": "uint32",
                  "name": "srcEid",
                  "type": "uint32"
                },
                {
                  "internalType": "bytes32",
                  "name": "sender",
                  "type": "bytes32"
                },
                {
                  "internalType": "uint64",
                  "name": "nonce",
                  "type": "uint64"
                }
              ],
              "internalType": "struct Origin",
              "name": "origin",
              "type": "tuple"
            },
            {
              "internalType": "uint32",
              "name": "dstEid",
              "type": "uint32"
            },
            {
              "internalType": "address",
              "name": "receiver",
              "type": "address"
            },
            {
              "internalType": "bytes32",
              "name": "guid",
              "type": "bytes32"
            },
            {
              "internalType": "uint256",
              "name": "value",
              "type": "uint256"
            },
            {
              "internalType": "address",
              "name": "executor",
              "type": "address"
            },
            {
              "internalType": "bytes",
              "name": "message",
              "type": "bytes"
            },
            {
              "internalType": "bytes",
              "name": "extraData",
              "type": "bytes"
            }
          ],
          "internalType": "struct InboundPacket[]",
          "name": "_packets",
          "type": "tuple[]"
        }
      ],
      "name": "lzReceiveAndRevert",
      "outputs": [],
      "stateMutability": "payable",
      "type": "function"
    },
    {
      "inputs": [
        {
          "components": [
            {
              "internalType": "uint32",
              "name": "srcEid",
              "type": "uint32"
            },
            {
              "internalType": "bytes32",
              "name": "sender",
              "type": "bytes32"
            },
            {
              "internalType": "uint64",
              "name": "nonce",
              "type": "uint64"
            }
          ],
          "internalType": "struct Origin",
          "name": "_origin",
          "type": "tuple"
        },
        {
          "internalType": "bytes32",
          "name": "_guid",
          "type": "bytes32"
        },
        {
          "internalType": "bytes",
          "name": "_message",
          "type": "bytes"
        },
        {
          "internalType": "address",
          "name": "_executor",
          "type": "address"
        },
        {
          "internalType": "bytes",
          "name": "_extraData",
          "type": "bytes"
        }
      ],
      "name": "lzReceiveSimulate",
      "outputs": [],
      "stateMutability": "payable",
      "type": "function"
    },
    {
      "inputs": [
        {
          "internalType": "address",
          "name": "to",
          "type": "address"
        },
        {
          "internalType": "uint256",
          "name": "amount",
          "type": "uint256"
        }
      ],
      "name": "mint",
      "outputs": [],
      "stateMutability": "nonpayable",
      "type": "function"
    },
    {
      "inputs": [],
      "name": "msgInspector",
      "outputs": [
        {
          "internalType": "address",
          "name": "",
          "type": "address"
        }
      ],
      "stateMutability": "view",
      "type": "function"
    },
    {
      "inputs": [],
      "name": "name",
      "outputs": [
        {
          "internalType": "string",
          "name": "",
          "type": "string"
        }
      ],
      "stateMutability": "view",
      "type": "function"
    },
    {
      "inputs": [
        {
          "internalType": "uint32",
          "name": "",
          "type": "uint32"
        },
        {
          "internalType": "bytes32",
          "name": "",
          "type": "bytes32"
        }
      ],
      "name": "nextNonce",
      "outputs": [
        {
          "internalType": "uint64",
          "name": "nonce",
          "type": "uint64"
        }
      ],
      "stateMutability": "view",
      "type": "function"
    },
    {
      "inputs": [
        {
          "internalType": "address",
          "name": "owner",
          "type": "address"
        }
      ],
      "name": "nonces",
      "outputs": [
        {
          "internalType": "uint256",
          "name": "",
          "type": "uint256"
        }
      ],
      "stateMutability": "view",
      "type": "function"
    },
    {
      "inputs": [
        {
          "internalType": "address",
          "name": "account",
          "type": "address"
        }
      ],
      "name": "numCheckpoints",
      "outputs": [
        {
          "internalType": "uint32",
          "name": "",
          "type": "uint32"
        }
      ],
      "stateMutability": "view",
      "type": "function"
    },
    {
      "inputs": [],
      "name": "oApp",
      "outputs": [
        {
          "internalType": "address",
          "name": "",
          "type": "address"
        }
      ],
      "stateMutability": "view",
      "type": "function"
    },
    {
      "inputs": [],
      "name": "oAppVersion",
      "outputs": [
        {
          "internalType": "uint64",
          "name": "senderVersion",
          "type": "uint64"
        },
        {
          "internalType": "uint64",
          "name": "receiverVersion",
          "type": "uint64"
        }
      ],
      "stateMutability": "pure",
      "type": "function"
    },
    {
      "inputs": [],
      "name": "oftVersion",
      "outputs": [
        {
          "internalType": "bytes4",
          "name": "interfaceId",
          "type": "bytes4"
        },
        {
          "internalType": "uint64",
          "name": "version",
          "type": "uint64"
        }
      ],
      "stateMutability": "pure",
      "type": "function"
    },
    {
      "inputs": [],
      "name": "owner",
      "outputs": [
        {
          "internalType": "address",
          "name": "",
          "type": "address"
        }
      ],
      "stateMutability": "view",
      "type": "function"
    },
    {
      "inputs": [
        {
          "internalType": "uint32",
          "name": "eid",
          "type": "uint32"
        }
      ],
      "name": "peers",
      "outputs": [
        {
          "internalType": "bytes32",
          "name": "peer",
          "type": "bytes32"
        }
      ],
      "stateMutability": "view",
      "type": "function"
    },
    {
      "inputs": [
        {
          "internalType": "address",
          "name": "owner",
          "type": "address"
        },
        {
          "internalType": "address",
          "name": "spender",
          "type": "address"
        },
        {
          "internalType": "uint256",
          "name": "value",
          "type": "uint256"
        },
        {
          "internalType": "uint256",
          "name": "deadline",
          "type": "uint256"
        },
        {
          "internalType": "uint8",
          "name": "v",
          "type": "uint8"
        },
        {
          "internalType": "bytes32",
          "name": "r",
          "type": "bytes32"
        },
        {
          "internalType": "bytes32",
          "name": "s",
          "type": "bytes32"
        }
      ],
      "name": "permit",
      "outputs": [],
      "stateMutability": "nonpayable",
      "type": "function"
    },
    {
      "inputs": [],
      "name": "preCrime",
      "outputs": [
        {
          "internalType": "address",
          "name": "",
          "type": "address"
        }
      ],
      "stateMutability": "view",
      "type": "function"
    },
    {
      "inputs": [
        {
          "components": [
            {
              "internalType": "uint32",
              "name": "dstEid",
              "type": "uint32"
            },
            {
              "internalType": "bytes32",
              "name": "to",
              "type": "bytes32"
            },
            {
              "internalType": "uint256",
              "name": "amountLD",
              "type": "uint256"
            },
            {
              "internalType": "uint256",
              "name": "minAmountLD",
              "type": "uint256"
            },
            {
              "internalType": "bytes",
              "name": "extraOptions",
              "type": "bytes"
            },
            {
              "internalType": "bytes",
              "name": "composeMsg",
              "type": "bytes"
            },
            {
              "internalType": "bytes",
              "name": "oftCmd",
              "type": "bytes"
            }
          ],
          "internalType": "struct SendParam",
          "name": "_sendParam",
          "type": "tuple"
        }
      ],
      "name": "quoteOFT",
      "outputs": [
        {
          "components": [
            {
              "internalType": "uint256",
              "name": "minAmountLD",
              "type": "uint256"
            },
            {
              "internalType": "uint256",
              "name": "maxAmountLD",
              "type": "uint256"
            }
          ],
          "internalType": "struct OFTLimit",
          "name": "oftLimit",
          "type": "tuple"
        },
        {
          "components": [
            {
              "internalType": "int256",
              "name": "feeAmountLD",
              "type": "int256"
            },
            {
              "internalType": "string",
              "name": "description",
              "type": "string"
            }
          ],
          "internalType": "struct OFTFeeDetail[]",
          "name": "oftFeeDetails",
          "type": "tuple[]"
        },
        {
          "components": [
            {
              "internalType": "uint256",
              "name": "amountSentLD",
              "type": "uint256"
            },
            {
              "internalType": "uint256",
              "name": "amountReceivedLD",
              "type": "uint256"
            }
          ],
          "internalType": "struct OFTReceipt",
          "name": "oftReceipt",
          "type": "tuple"
        }
      ],
      "stateMutability": "view",
      "type": "function"
    },
    {
      "inputs": [
        {
          "components": [
            {
              "internalType": "uint32",
              "name": "dstEid",
              "type": "uint32"
            },
            {
              "internalType": "bytes32",
              "name": "to",
              "type": "bytes32"
            },
            {
              "internalType": "uint256",
              "name": "amountLD",
              "type": "uint256"
            },
            {
              "internalType": "uint256",
              "name": "minAmountLD",
              "type": "uint256"
            },
            {
              "internalType": "bytes",
              "name": "extraOptions",
              "type": "bytes"
            },
            {
              "internalType": "bytes",
              "name": "composeMsg",
              "type": "bytes"
            },
            {
              "internalType": "bytes",
              "name": "oftCmd",
              "type": "bytes"
            }
          ],
          "internalType": "struct SendParam",
          "name": "_sendParam",
          "type": "tuple"
        },
        {
          "internalType": "bool",
          "name": "_payInLzToken",
          "type": "bool"
        }
      ],
      "name": "quoteSend",
      "outputs": [
        {
          "components": [
            {
              "internalType": "uint256",
              "name": "nativeFee",
              "type": "uint256"
            },
            {
              "internalType": "uint256",
              "name": "lzTokenFee",
              "type": "uint256"
            }
          ],
          "internalType": "struct MessagingFee",
          "name": "msgFee",
          "type": "tuple"
        }
      ],
      "stateMutability": "view",
      "type": "function"
    },
    {
      "inputs": [],
      "name": "renounceOwnership",
      "outputs": [],
      "stateMutability": "nonpayable",
      "type": "function"
    },
    {
      "inputs": [
        {
          "components": [
            {
              "internalType": "uint32",
              "name": "dstEid",
              "type": "uint32"
            },
            {
              "internalType": "bytes32",
              "name": "to",
              "type": "bytes32"
            },
            {
              "internalType": "uint256",
              "name": "amountLD",
              "type": "uint256"
            },
            {
              "internalType": "uint256",
              "name": "minAmountLD",
              "type": "uint256"
            },
            {
              "internalType": "bytes",
              "name": "extraOptions",
              "type": "bytes"
            },
            {
              "internalType": "bytes",
              "name": "composeMsg",
              "type": "bytes"
            },
            {
              "internalType": "bytes",
              "name": "oftCmd",
              "type": "bytes"
            }
          ],
          "internalType": "struct SendParam",
          "name": "_sendParam",
          "type": "tuple"
        },
        {
          "components": [
            {
              "internalType": "uint256",
              "name": "nativeFee",
              "type": "uint256"
            },
            {
              "internalType": "uint256",
              "name": "lzTokenFee",
              "type": "uint256"
            }
          ],
          "internalType": "struct MessagingFee",
          "name": "_fee",
          "type": "tuple"
        },
        {
          "internalType": "address",
          "name": "_refundAddress",
          "type": "address"
        }
      ],
      "name": "send",
      "outputs": [
        {
          "components": [
            {
              "internalType": "bytes32",
              "name": "guid",
              "type": "bytes32"
            },
            {
              "internalType": "uint64",
              "name": "nonce",
              "type": "uint64"
            },
            {
              "components": [
                {
                  "internalType": "uint256",
                  "name": "nativeFee",
                  "type": "uint256"
                },
                {
                  "internalType": "uint256",
                  "name": "lzTokenFee",
                  "type": "uint256"
                }
              ],
              "internalType": "struct MessagingFee",
              "name": "fee",
              "type": "tuple"
            }
          ],
          "internalType": "struct MessagingReceipt",
          "name": "msgReceipt",
          "type": "tuple"
        },
        {
          "components": [
            {
              "internalType": "uint256",
              "name": "amountSentLD",
              "type": "uint256"
            },
            {
              "internalType": "uint256",
              "name": "amountReceivedLD",
              "type": "uint256"
            }
          ],
          "internalType": "struct OFTReceipt",
          "name": "oftReceipt",
          "type": "tuple"
        }
      ],
      "stateMutability": "payable",
      "type": "function"
    },
    {
      "inputs": [
        {
          "internalType": "address",
          "name": "_delegate",
          "type": "address"
        }
      ],
      "name": "setDelegate",
      "outputs": [],
      "stateMutability": "nonpayable",
      "type": "function"
    },
    {
      "inputs": [
        {
          "components": [
            {
              "internalType": "uint32",
              "name": "eid",
              "type": "uint32"
            },
            {
              "internalType": "uint16",
              "name": "msgType",
              "type": "uint16"
            },
            {
              "internalType": "bytes",
              "name": "options",
              "type": "bytes"
            }
          ],
          "internalType": "struct EnforcedOptionParam[]",
          "name": "_enforcedOptions",
          "type": "tuple[]"
        }
      ],
      "name": "setEnforcedOptions",
      "outputs": [],
      "stateMutability": "nonpayable",
      "type": "function"
    },
    {
      "inputs": [
        {
          "internalType": "address",
          "name": "_msgInspector",
          "type": "address"
        }
      ],
      "name": "setMsgInspector",
      "outputs": [],
      "stateMutability": "nonpayable",
      "type": "function"
    },
    {
      "inputs": [
        {
          "internalType": "uint32",
          "name": "_eid",
          "type": "uint32"
        },
        {
          "internalType": "bytes32",
          "name": "_peer",
          "type": "bytes32"
        }
      ],
      "name": "setPeer",
      "outputs": [],
      "stateMutability": "nonpayable",
      "type": "function"
    },
    {
      "inputs": [
        {
          "internalType": "address",
          "name": "_preCrime",
          "type": "address"
        }
      ],
      "name": "setPreCrime",
      "outputs": [],
      "stateMutability": "nonpayable",
      "type": "function"
    },
    {
      "inputs": [],
      "name": "sharedDecimals",
      "outputs": [
        {
          "internalType": "uint8",
          "name": "",
          "type": "uint8"
        }
      ],
      "stateMutability": "view",
      "type": "function"
    },
    {
      "inputs": [],
      "name": "symbol",
      "outputs": [
        {
          "internalType": "string",
          "name": "",
          "type": "string"
        }
      ],
      "stateMutability": "view",
      "type": "function"
    },
    {
      "inputs": [],
      "name": "token",
      "outputs": [
        {
          "internalType": "address",
          "name": "",
          "type": "address"
        }
      ],
      "stateMutability": "view",
      "type": "function"
    },
    {
      "inputs": [],
      "name": "totalSupply",
      "outputs": [
        {
          "internalType": "uint256",
          "name": "",
          "type": "uint256"
        }
      ],
      "stateMutability": "view",
      "type": "function"
    },
    {
      "inputs": [
        {
          "internalType": "address",
          "name": "to",
          "type": "address"
        },
        {
          "internalType": "uint256",
          "name": "value",
          "type": "uint256"
        }
      ],
      "name": "transfer",
      "outputs": [
        {
          "internalType": "bool",
          "name": "",
          "type": "bool"
        }
      ],
      "stateMutability": "nonpayable",
      "type": "function"
    },
    {
      "inputs": [
        {
          "internalType": "address",
          "name": "from",
          "type": "address"
        },
        {
          "internalType": "address",
          "name": "to",
          "type": "address"
        },
        {
          "internalType": "uint256",
          "name": "value",
          "type": "uint256"
        }
      ],
      "name": "transferFrom",
      "outputs": [
        {
          "internalType": "bool",
          "name": "",
          "type": "bool"
        }
      ],
      "stateMutability": "nonpayable",
      "type": "function"
    },
    {
      "inputs": [
        {
          "internalType": "address",
          "name": "newOwner",
          "type": "address"
        }
      ],
      "name": "transferOwnership",
      "outputs": [],
      "stateMutability": "nonpayable",
      "type": "function"
    },
    {
      "inputs": [
        {
          "internalType": "address",
          "name": "owner",
          "type": "address"
        }
      ],
      "name": "vestingWallets",
      "outputs": [
        {
          "internalType": "address",
          "name": "vestingWallet",
          "type": "address"
        }
      ],
      "stateMutability": "view",
      "type": "function"
    }
  ],
  "bytecode": "0x6101a08060405234610585575f90616068803803809161001f82856105b0565b8339810190602081830312610585578051906001600160401b03821161058557016080818303126105855760405191608083016001600160401b0381118482101761059c5760405281516001600160401b03811161058557816100839184016105d3565b83526020820151906001600160401b038211610585576100a49183016105d3565b908160208401526100c960606100bc60408401610628565b9283604087015201610628565b60608401819052925160408051909590946001600160a01b03908116949293166100f387876105b0565b600186526020860194603160f81b86528015610589575f80546001600160a01b03198116831782558951939183916001600160a01b0316907f8be0079c531659141344cd1fd0a4f28419497f9722a3daafe3b4186f6b6457e09080a380608052803b15610585576024835f8193819563ca5eb5e160e01b845260048401525af1801561057b57610568575b5064e8d4a5100060a05282516001600160401b03811161047a57600854600181811c9116801561055e575b602082101461045c57601f81116104fb575b50806020601f821160011461049957839161048e575b508160011b915f199060031b1c1916176008555b8151916001600160401b03831161047a57600954600181811c91168015610470575b602082101461045c579081601f859493116103ec575b50602091601f8411600114610388579261037d575b50508160011b915f199060031b1c1916176009555b6102508161063c565b6101605261025d836107d7565b610180526020815191012091826101205251902080610140524660e05282519060208201927f8b73c3c69bb8fe3d512ecc4cf759cc79239f7b179b0ffacaa9a75d522b39400f84528483015260608201524660808201523060a082015260a081526102c960c0826105b0565b51902060c052306101005251615758908161091082396080518181816107bf015281816108df01528181610d2a0152818161114b01528181611eea0152818161349f0152613c04015260a051818181610c7a015281816117e30152818161282f01528181612d0b01526135e4015260c05181612b09015260e05181612bc601526101005181612ad301526101205181612b5801526101405181612b7e015261016051816114220152610180518161144e0152f35b015190505f80610232565b600981528281209350601f198516905b8181106103d457509084600195949392106103bc575b505050811b01600955610247565b01515f1960f88460031b161c191690555f80806103ae565b92936020600181928786015181550195019301610398565b60098352919250907f6e1540171b6c0c960b71a7020d9f60077f6af931a8bbf590da0223dacf75c7af601f850160051c81019160208610610452575b90601f86959493920160051c01905b818110610444575061021d565b838155859450600101610437565b9091508190610428565b634e487b7160e01b83526022600452602483fd5b90607f1690610207565b634e487b7160e01b82526041600452602482fd5b90508401515f6101d1565b600884528084209150601f198316845b8181106104e3575090836001949392106104cb575b5050811b016008556101e5565b8601515f1960f88460031b161c191690555f806104be565b9192602060018192868b0151815501940192016104a9565b600883527ff3f7a9fe364faab93b216da50a3214154f22a0a2b415b23a84c8169e8b636ee3601f830160051c81019160208410610554575b601f0160051c01905b81811061054957506101bb565b83815560010161053c565b9091508190610533565b90607f16906101a9565b61057491505f906105b0565b5f5f61017e565b87513d5f823e3d90fd5b5f80fd5b631e4fbdf760e01b5f525f60045260245ffd5b634e487b7160e01b5f52604160045260245ffd5b601f909101601f19168101906001600160401b0382119082101761059c57604052565b81601f82011215610585578051906001600160401b03821161059c5760405192610607601f8401601f1916602001856105b0565b8284526020838301011161058557815f9260208093018386015e8301015290565b51906001600160a01b038216820361058557565b908151602081105f146106b6575090601f815111610676576020815191015160208210610667571790565b5f198260200360031b1b161790565b604460209160405192839163305a27a960e01b83528160048401528051918291826024860152018484015e5f828201840152601f01601f19168101030190fd5b6001600160401b03811161059c57600a54600181811c911680156107cd575b60208210146107b957601f8111610786575b50602092601f821160011461072557928192935f9261071a575b50508160011b915f199060031b1c191617600a5560ff90565b015190505f80610701565b601f19821693600a5f52805f20915f5b86811061076e5750836001959610610756575b505050811b01600a5560ff90565b01515f1960f88460031b161c191690555f8080610748565b91926020600181928685015181550194019201610735565b600a5f52601f60205f20910160051c810190601f830160051c015b8181106107ae57506106e7565b5f81556001016107a1565b634e487b7160e01b5f52602260045260245ffd5b90607f16906106d5565b908151602081105f14610802575090601f815111610676576020815191015160208210610667571790565b6001600160401b03811161059c57600b54600181811c91168015610905575b60208210146107b957601f81116108d2575b50602092601f821160011461087157928192935f92610866575b50508160011b915f199060031b1c191617600b5560ff90565b015190505f8061084d565b601f19821693600b5f52805f20915f5b8681106108ba57508360019596106108a2575b505050811b01600b5560ff90565b01515f1960f88460031b161c191690555f8080610894565b91926020600181928685015181550194019201610881565b600b5f52601f60205f20910160051c810190601f830160051c015b8181106108fa5750610833565b5f81556001016108ed565b90607f169061082156fe60806040526004361015610011575f80fd5b5f3560e01c806306fdde03146103df578063095ea7b3146103da5780630d35b415146103d5578063111ecdad146103d057806313137d65146103cb578063134d4f25146103c6578063156a0d0f146103c157806317442b70146103bc57806318160ddd146103b75780631f5e1334146103b257806323b872dd146103ad578063313ce567146103a85780633400288b146103a35780633644e5151461039e5780633a46b1a8146103995780633b6f743b1461039457806340c10f191461038f57806342966c681461038a5780634bf5d7e91461038557806352ae2879146102bd5780635535d46114610380578063587cde1e1461037b5780635a0dfe4d146103765780635c19a95c146103715780635e280f111461036c5780636fc1b31e146103675780636fcfff451461036257806370a082311461035d578063715018a61461035857806379cc6790146103535780637d25a05e1461034e5780637ecebe001461034957806382413eac1461034457806384b0196e1461033f578063857749b01461033a5780638da5cb5b146103355780638e539e8c1461033057806391ddadf41461032b57806392f1d24f1461032657806395d89b4114610321578063963efcaa1461031c5780639ab24eb0146103175780639f68b96414610312578063a9059cbb1461030d578063b731ea0a14610308578063b98bd07014610303578063baf35107146102fe578063bb0b6a53146102f9578063bc70b354146102f4578063bd815db0146102ef578063c3cda520146102ea578063c7c7f5b3146102e5578063ca5eb5e1146102e0578063d045a0dc146102db578063d4243885146102d6578063d505accf146102d1578063dd62ed3e146102cc578063f1127ed8146102c7578063f2fde38b146102c2578063fc0c546a146102bd5763ff7bd03d146102b8575f80fd5b6122c4565b610ea9565b61223b565b61218b565b61212c565b612000565b611f90565b611f5f565b611ec2565b611da0565b611c3c565b611ac8565b611a74565b611a3b565b6119f8565b611915565b61189b565b611871565b611857565b611806565b6117cc565b611727565b611684565b611615565b61151c565b6114f5565b6114da565b61140a565b611379565b61133e565b611318565b6112e4565b61128d565b611252565b6111ea565b61117a565b611136565b611110565b6110ca565b611087565b61100c565b610e19565b610dfc565b610dc9565b610c16565b610b73565b610b51565b610acc565b610aa3565b610a63565b610a48565b610a2b565b610a0a565b6109e4565b6109c9565b6107ac565b6106d9565b6105f8565b610515565b61042a565b5f9103126103ee57565b5f80fd5b805180835260209291819084018484015e5f828201840152601f01601f1916010190565b9060206104279281815201906103f2565b90565b346103ee575f3660031901126103ee576040515f60085461044a81610ee3565b80845290600181169081156104e05750600114610482575b61047e8361047281850382610feb565b60405191829182610416565b0390f35b60085f9081527ff3f7a9fe364faab93b216da50a3214154f22a0a2b415b23a84c8169e8b636ee3939250905b8082106104c657509091508101602001610472610462565b9192600181602092548385880101520191019092916104ae565b60ff191660208086019190915291151560051b840190910191506104729050610462565b6001600160a01b038116036103ee57565b346103ee5760403660031901126103ee5761053f60043561053581610504565b6024359033613512565b602060405160018152f35b908160e09103126103ee5790565b939291906105748560a081019260208091805184520151910152565b60a06040860152815180915260c0850190602060c08260051b8801019301915f905b8282106105bc57505050509060606105ba9294019060208091805184520151910152565b565b909192936020806105ea60019360bf198c82030186526040838a5180518452015191818582015201906103f2565b960192019201909291610596565b346103ee5760203660031901126103ee576004356001600160401b0381116103ee5761062890369060040161054a565b610630612309565b50610639612309565b5060405161064681610fb0565b5f81526001600160401b0360208201526020604051926106668285610feb565b5f8452601f1982015f5b8181106106b65750509061069a61047e926040810135610694606083013592612321565b50612826565b90916106a4611640565b92835282015260405193849384610558565b83906040516106c481610fb0565b5f815260608382015282828901015201610670565b346103ee575f3660031901126103ee576004546040516001600160a01b039091168152602090f35b60609060031901126103ee57600490565b9181601f840112156103ee578235916001600160401b0383116103ee57602083818601950101116103ee57565b90600319820160e081126103ee576060136103ee57600491606435916084356001600160401b0381116103ee578261077991600401610712565b9290929160a43561078981610504565b9160c435906001600160401b0382116103ee576107a891600401610712565b9091565b6107b53661073f565b50919492915050337f00000000000000000000000000000000000000000000000000000000000000006001600160a01b0316036109b65781356107f781610abe565b61080081612878565b90602084013580920361099157505061082861081c85836135b8565b6001600160a01b031690565b9361084e61083e61083983856135c4565b6135d6565b61084785612321565b508661360a565b916108598260281090565b6108b1575b505061088a7fefed6d3500546b29533b128a29e3a94d70788727f0507505ac12eaf2e578fd9c92612321565b6040805163ffffffff92909216825260208201929092526001600160a01b039490941693a3005b90826108dc926108d66108c6604088016128a8565b936108d088612321565b9261362e565b9261364a565b917f00000000000000000000000000000000000000000000000000000000000000006001600160a01b0316803b156103ee57604051633e5ac80960e11b8152935f918591829084908290610935908b8d600485016128b2565b03925af190811561098c577fefed6d3500546b29533b128a29e3a94d70788727f0507505ac12eaf2e578fd9c9361088a92610972575b509261085e565b806109805f61098693610feb565b806103e4565b5f61096b565b61242a565b806109a063ffffffff92610abe565b63309afaf360e21b5f521660045260245260445ffd5b6391ac5e4f60e01b5f523360045260245ffd5b346103ee575f3660031901126103ee57602060405160028152f35b346103ee575f3660031901126103ee576040805162b9270b60e21b815260016020820152f35b346103ee575f3660031901126103ee57604080516001815260026020820152f35b346103ee575f3660031901126103ee576020600754604051908152f35b346103ee575f3660031901126103ee57602060405160018152f35b346103ee5760603660031901126103ee5761053f600435610a8381610504565b602435610a8f81610504565b60443591610a9e8333836128dc565b6129aa565b346103ee575f3660031901126103ee57602060405160128152f35b63ffffffff8116036103ee57565b346103ee5760403660031901126103ee577f238399d427b947898edb290f5ff0f9109849b1c3ba196a42e35f00c50a54b98b600435610b0a81610abe565b60243590610b16612aaa565b63ffffffff81165f5260016020528160405f2055610b4c604051928392836020909392919363ffffffff60408201951681520152565b0390a1005b346103ee575f3660031901126103ee576020610b6b612ad0565b604051908152f35b346103ee5760403660031901126103ee57600435610b9081610504565b60243565ffffffffffff610ba343612bec565b169182821015610bf6576001600160a01b03165f908152600e6020526040902061047e92506001600160d01b0391610be59190610bdf90612bec565b90612c29565b604051911681529081906020820190565b50637669fc0f60e11b5f5260045260245260445ffd5b801515036103ee57565b346103ee5760403660031901126103ee576004356001600160401b0381116103ee57610c4690369060040161054a565b602435610c5281610c0c565b610c5a612309565b50813591606081013590610ca56040820135610c7586610abe565b610ca07f00000000000000000000000000000000000000000000000000000000000000008092613587565b6135a5565b91808310610db357610d26604086610d0b87610cc18888612cf4565b90610ccb85610abe565b610cd3612309565b50610cdd85612878565b610cf4610ce861164f565b63ffffffff9097168752565b602086015285850152606084015215156080830152565b815180938192631bb8518b60e31b8352309060048401612e3f565b03817f00000000000000000000000000000000000000000000000000000000000000006001600160a01b03165afa801561098c5761047e915f91610d84575b5060405191829182815181526020918201519181019190915260400190565b610da6915060403d604011610dac575b610d9e8183610feb565b810190612e2b565b82610d65565b503d610d94565b826371c4efed60e01b5f5260045260245260445ffd5b346103ee5760403660031901126103ee57610dfa600435610de981610504565b60243590610df5612aaa565b612ead565b005b346103ee5760203660031901126103ee57610dfa60043533612f4e565b346103ee575f3660031901126103ee57610e3243612bec565b65ffffffffffff80610e4343612bec565b16911603610e9a5761047e604051610e5c604082610feb565b601d81527f6d6f64653d626c6f636b6e756d6265722666726f6d3d64656661756c7400000060208201526040519182916020835260208301906103f2565b6301bfc1c560e61b5f5260045ffd5b346103ee575f3660031901126103ee576020604051308152f35b6024359061ffff821682036103ee57565b359061ffff821682036103ee57565b90600182811c92168015610f11575b6020831014610efd57565b634e487b7160e01b5f52602260045260245ffd5b91607f1691610ef2565b5f9291815491610f2a83610ee3565b8083529260018116908115610f7f5750600114610f4657505050565b5f9081526020812093945091925b838310610f65575060209250010190565b600181602092949394548385870101520191019190610f54565b915050602093945060ff929192191683830152151560051b010190565b634e487b7160e01b5f52604160045260245ffd5b604081019081106001600160401b03821117610fcb57604052565b610f9c565b606081019081106001600160401b03821117610fcb57604052565b90601f801991011681019081106001600160401b03821117610fcb57604052565b346103ee5760403660031901126103ee5761047e61106c61107361106060043561103581610abe565b63ffffffff611042610ec3565b91165f52600360205260405f209061ffff165f5260205260405f2090565b60405192838092610f1b565b0382610feb565b6040519182916020835260208301906103f2565b346103ee5760203660031901126103ee576004356110a481610504565b60018060a01b03165f52600d602052602060018060a01b0360405f205416604051908152f35b346103ee5760403660031901126103ee5760206111066004356110ec81610abe565b6024359063ffffffff165f52600160205260405f20541490565b6040519015158152f35b346103ee5760203660031901126103ee57610dfa60043561113081610504565b33613076565b346103ee575f3660031901126103ee576040517f00000000000000000000000000000000000000000000000000000000000000006001600160a01b03168152602090f35b346103ee5760203660031901126103ee577ff0be4f1e87349231d80c36b33f9e8639658eeaf474014dee15a3e6a4d441419760206004356111ba81610504565b6111c2612aaa565b600480546001600160a01b0319166001600160a01b03929092169182179055604051908152a1005b346103ee5760203660031901126103ee5760043561120781610504565b6001600160a01b03165f908152600e602052604090205463ffffffff811161123b5760405163ffffffff9091168152602090f35b6306dfcc6560e41b5f52602060045260245260445ffd5b346103ee5760203660031901126103ee5760043561126f81610504565b60018060a01b03165f526005602052602060405f2054604051908152f35b346103ee575f3660031901126103ee576112a5612aaa565b5f80546001600160a01b0319811682556001600160a01b03167f8be0079c531659141344cd1fd0a4f28419497f9722a3daafe3b4186f6b6457e08280a3005b346103ee5760403660031901126103ee57610dfa60043561130481610504565b602435906113138233836128dc565b612f4e565b346103ee5760403660031901126103ee57611334600435610abe565b60206040515f8152f35b346103ee5760203660031901126103ee5760043561135b81610504565b60018060a01b03165f52600c602052602060405f2054604051908152f35b346103ee5760a03660031901126103ee5761139336610701565b506064356001600160401b0381116103ee576113b3903690600401610712565b505060206084356113c381610504565b6040516001600160a01b0390911630148152f35b90602080835192838152019201905f5b8181106113f45750505090565b82518452602093840193909201916001016113e7565b346103ee575f3660031901126103ee576114ac6114467f0000000000000000000000000000000000000000000000000000000000000000613a40565b61047e6114727f0000000000000000000000000000000000000000000000000000000000000000613a99565b6114ba60405191611484602084610feb565b5f808452366020850137604051958695600f60f81b875260e0602088015260e08701906103f2565b9085820360408701526103f2565b904660608501523060808501525f60a085015283820360c08501526113d7565b346103ee575f3660031901126103ee57602060405160068152f35b346103ee575f3660031901126103ee575f546040516001600160a01b039091168152602090f35b346103ee5760203660031901126103ee5760043565ffffffffffff61154043612bec565b1690818110156116005761155390612bec565b600f54905f8291600584116115a7575b61156f9350600f6137fc565b8061158b575060205f5b6040516001600160d01b039091168152f35b611596602091612c1b565b600f5f52815f20015460301c611579565b91926115b28161369e565b81039081116115fb5761156f93600f5f5265ffffffffffff8260205f2001541665ffffffffffff8516105f146115e9575091611563565b9291506115f590612387565b90611563565b612373565b637669fc0f60e11b5f5260045260245260445ffd5b346103ee575f3660031901126103ee57602061163043612bec565b65ffffffffffff60405191168152f35b604051906105ba604083610feb565b604051906105ba60a083610feb565b6001600160401b038111610fcb5760051b60200190565b6064359060028210156103ee57565b346103ee5760803660031901126103ee576004356116a181610504565b602435906044356001600160401b0381116103ee57366023820112156103ee578060040135926116d08461165e565b916116de6040519384610feb565b8483526024602084019560051b820101903682116103ee57602401945b818610611717575050610dfa9350611711611675565b92612435565b85358152602095860195016116fb565b346103ee575f3660031901126103ee576040515f60095461174781610ee3565b80845290600181169081156104e0575060011461176e5761047e8361047281850382610feb565b60095f9081527f6e1540171b6c0c960b71a7020d9f60077f6af931a8bbf590da0223dacf75c7af939250905b8082106117b257509091508101602001610472610462565b91926001816020925483858801015201910190929161179a565b346103ee575f3660031901126103ee5760206040517f00000000000000000000000000000000000000000000000000000000000000008152f35b346103ee5760203660031901126103ee5760043561182381610504565b6001600160a01b03165f908152600e602090815260409091206001600160d01b039061184e906130e9565b16604051908152f35b346103ee575f3660031901126103ee5760206040515f8152f35b346103ee5760403660031901126103ee5761053f60043561189181610504565b60243590336129aa565b346103ee575f3660031901126103ee576002546040516001600160a01b039091168152602090f35b9060206003198301126103ee576004356001600160401b0381116103ee5760040182601f820112156103ee578035926001600160401b0384116103ee576020808301928560051b0101116103ee579190565b346103ee57611923366118c3565b9061192c612aaa565b6119358261165e565b906119436040519283610feb565b828252602082019260051b8101903682116103ee5780935b82851061196b57610dfa846132b1565b84356001600160401b0381116103ee578201906060823603126103ee576040519161199583610fd0565b80356119a081610abe565b83526119ae60208201610ed4565b60208401526040810135906001600160401b0382116103ee57019036601f830112156103ee576020926119e8849336908581359101612525565b604082015281520194019361195b565b346103ee5760203660031901126103ee57600435611a1581610504565b60018060a01b03165f526010602052602060018060a01b0360405f205416604051908152f35b346103ee5760203660031901126103ee5763ffffffff600435611a5d81610abe565b165f526001602052602060405f2054604051908152f35b346103ee5760603660031901126103ee57600435611a9181610abe565b611a99610ec3565b604435906001600160401b0382116103ee5761047e92611ac0611073933690600401610712565b9290916125ea565b611ad1366118c3565b5f5b818110611b4057604051638e9e709960e01b81525f81600481335afa801561098c57611b1a915f91611b1e575b50604051638351eea760e01b815291829160048301610416565b0390fd5b611b3a91503d805f833e611b328183610feb565b810190612776565b82611b00565b611b4b81838561268c565b90611b7b611b77611b5b84612321565b60208501359063ffffffff165f52600160205260405f20541490565b1590565b611c135760c08201359160a0810135611b986101008301836126af565b949091611ba760e085016126e1565b93611bb66101208201826126af565b959095303b156103ee575f96611be3926040519a8b9889978897633411683760e21b8952600489016126fc565b0391305af191821561098c57600192611bff575b505b01611ad3565b806109805f611c0d93610feb565b5f611bf7565b60019150611bf9565b6064359060ff821682036103ee57565b6084359060ff821682036103ee57565b346103ee5760c03660031901126103ee57600435611c5981610504565b60243590604435611c68611c1c565b6084359060a43592804211611d3d5791611ced9391611cdf611ce49460405160208101917fe48329057bfd03d55e49b547132e39cffd9c1820ad7b9d4c5307691425d15adf835260018060a01b038a1660408301528a6060830152608082015260808152611cd760a082610feb565b5190206133ab565b613ad0565b90929192613b5c565b6001600160a01b0381165f908152600c60205260409020805460018101909155809303611d1e57610dfa9250613076565b90506301d4b62360e61b5f5260018060a01b031660045260245260445ffd5b632341d78760e11b5f5260045260245ffd5b9160806105ba929493611d8f604060c0830197805184526001600160401b0360208201511660208501520151604083019060208091805184520151910152565b019060208091805184520151910152565b60803660031901126103ee576004356001600160401b0381116103ee57611dcb90369060040161054a565b60403660231901126103ee57606435611de381610504565b611deb6127d8565b50611df4612309565b50606082013590611e0d6040840135610c758535610abe565b91808310610db35750611e4790611e248333612f4e565b611e2e8385612cf4565b611e3786612321565b91611e41366127fe565b92613422565b90611e50611640565b928184528160208501527f85496b760a4b7f8d66384b9df21b381f5d1b1e79f229a47aaf4c232edc2fe59a611eb0611e89855193612321565b936040519181839233978460409194939263ffffffff606083019616825260208201520152565b0390a361047e60405192839283611d4f565b346103ee575f60203660031901126103ee57600435611ee081610504565b611ee8612aaa565b7f00000000000000000000000000000000000000000000000000000000000000006001600160a01b031690813b156103ee5760405163ca5eb5e160e01b81526001600160a01b039091166004820152905f908290602490829084905af1801561098c57611f53575080f35b610dfa91505f90610feb565b611f683661073f565b5050509290303303611f815761082861081c85836135b8565b63029a949d60e31b5f5260045ffd5b346103ee5760203660031901126103ee577fd48d879cef83a1c0bdda516f27b13ddb1b3f8bbac1c9e1511bb2a659c24277606020600435611fd081610504565b611fd8612aaa565b600280546001600160a01b0319166001600160a01b03929092169182179055604051908152a1005b346103ee5760e03660031901126103ee5760043561201d81610504565b60243561202981610504565b6044359060643592612039611c2c565b60a43560c43590864211612119576001600160a01b0384165f908152600c602052604090208054600181019091556120de93906120d9909860405160208101917f6e71edae12b1b97f4d1f60370fef10105fa2faae0126114a169c64845d6126c9835260018060a01b0389169b8c604084015260018060a01b038b1660608401528b608084015260a083015260c082015260c08152611cd760e082610feb565b6133d1565b936001600160a01b038516036120f857610dfa9350613512565b6325c0072360e11b5f526001600160a01b038085166004521660245260445ffd5b8663313c898160e11b5f5260045260245ffd5b346103ee5760403660031901126103ee57602061218260043561214e81610504565b6024359061215b82610504565b60018060a01b03165f526006835260405f209060018060a01b03165f5260205260405f2090565b54604051908152f35b346103ee5760403660031901126103ee5761047e6121f16004356121ae81610504565b602435906121bb82610abe565b6121c3612309565b506121cc612309565b506001600160a01b03165f908152600e602052604090206121eb612309565b50613cab565b50604051906121ff82610fb0565b5465ffffffffffff811680835260309190911c60209283019081526040805192835290516001600160d01b031692820192909252918291820190565b346103ee5760203660031901126103ee5760043561225881610504565b612260612aaa565b6001600160a01b031680156122b1575f80546001600160a01b03198116831782556001600160a01b0316907f8be0079c531659141344cd1fd0a4f28419497f9722a3daafe3b4186f6b6457e09080a3005b631e4fbdf760e01b5f525f60045260245ffd5b346103ee5760603660031901126103ee5760206122e036610701565b63ffffffff81356122f081610abe565b165f52600182528160405f205491013560405191148152f35b6040519061231682610fb0565b5f6020838281520152565b3561042781610abe565b6001600160401b038111610fcb57601f01601f191660200190565b634e487b7160e01b5f52603260045260245ffd5b805182101561236e5760209160051b010190565b612346565b634e487b7160e01b5f52601160045260245ffd5b90600182018092116115fb57565b919082018092116115fb57565b634e487b7160e01b5f52602160045260245ffd5b6001600160a01b039182168152911660208201526001600160401b0390911660408201526303c2670060608201529394939260028210156124255760e09261241592608086015260a085015261010060c08501526101008401906113d7565b6001600160a01b03909416910152565b6123a2565b6040513d5f823e3d90fd5b6001600160a01b038181165f90815260106020526040902054939592931661250a57825f935b86518510156124835761247b600191612474878a61235a565b5190612395565b94019361245b565b93509194939093604051926116a891828501918583106001600160401b03841117610fcb5785946124c89461407b87393393896001600160401b0342169130906123b6565b03905ff091821561098c576001600160a01b039081165f90815260106020526040902080546001600160a01b0319169390911692831790556105ba91336129aa565b630f7b254960e21b5f526001600160a01b031660045260245ffd5b9291926125318261232b565b9161253f6040519384610feb565b8294818452818301116103ee578281602093845f960137010152565b90929192836002116103ee5783116103ee57600201916001190190565b805191908290602001825e015f815290565b6125a493926105ba92816040519687946020860190612578565b918237015f815203601f198101845283610feb565b908060209392818452848401375f828201840152601f01601f1916010190565b9160206104279381815201916125b9565b61106061106c9263ffffffff61261b9397959697165f52600360205260405f209061ffff165f5260205260405f2090565b80511561267e57831561267857600284101561264f575050611b1a604051928392639a6d49cd60e01b8452600484016125d9565b909280612672916104279461266d612668368484612525565b613373565b61255b565b9161258a565b92509050565b509190610427913691612525565b919081101561236e5760051b8101359061013e19813603018212156103ee570190565b903590601e19813603018212156103ee57018035906001600160401b0382116103ee576020019181360383136103ee57565b3561042781610504565b6001600160401b038116036103ee57565b929093612758926001600160401b0360406104279a98999763ffffffff813561272481610abe565b16885260208101356020890152013561273c816126eb565b166040860152606085015260e0608085015260e08401916125b9565b6001600160a01b0390941660a082015280840360c0909101526125b9565b6020818303126103ee578051906001600160401b0382116103ee570181601f820112156103ee578051906127a98261232b565b926127b76040519485610feb565b828452602083830101116103ee57815f9260208093018386015e8301015290565b604051906127e582610fd0565b815f81525f602082015260406127f9612309565b910152565b60409060231901126103ee576040519061281782610fb0565b60243582526044356020830152565b61285590610ca07f00000000000000000000000000000000000000000000000000000000000000008092613587565b9182918084106128625750565b836371c4efed60e01b5f5260045260245260445ffd5b63ffffffff16805f52600160205260405f2054908115612896575090565b63f6ff4fb760e01b5f5260045260245ffd5b35610427816126eb565b610427939260809260018060a01b0316825260208201525f604082015281606082015201906103f2565b6001600160a01b039081165f818152600660209081526040808320948616835293905291909120919290915460018101612917575b50505050565b818110612989578215612976576001600160a01b0384161561296357612959925f526006602052039160405f209060018060a01b03165f5260205260405f2090565b555f808080612911565b634a1406b160e11b5f525f60045260245ffd5b63e602df0560e01b5f525f60045260245ffd5b83637dc7a0d960e11b5f5260018060a01b031660045260245260445260645ffd5b6001600160a01b038116939291908415612a97576001600160a01b0382168015612a84576001600160a01b0382165f9081526005602052604090205495848710612a5e57846105ba969703612a0f8460018060a01b03165f52600560205260405f2090565b556001600160a01b0384165f9081526005602052604090208054860190556040518581527fddf252ad1be2c89b69c2b068fc378daa952ba7f163c4a11628f55a4df523b3ef90602090a3613ed3565b63391434e360e21b5f526001600160a01b0383166004526024879052604485905260645ffd5b63ec442f0560e01b5f525f60045260245ffd5b634b637e8f60e11b5f525f60045260245ffd5b5f546001600160a01b03163303612abd57565b63118cdaa760e01b5f523360045260245ffd5b307f00000000000000000000000000000000000000000000000000000000000000006001600160a01b03161480612bc3575b15612b2b577f000000000000000000000000000000000000000000000000000000000000000090565b60405160208101907f8b73c3c69bb8fe3d512ecc4cf759cc79239f7b179b0ffacaa9a75d522b39400f82527f000000000000000000000000000000000000000000000000000000000000000060408201527f000000000000000000000000000000000000000000000000000000000000000060608201524660808201523060a082015260a08152612bbd60c082610feb565b51902090565b507f00000000000000000000000000000000000000000000000000000000000000004614612b02565b65ffffffffffff8111612c045765ffffffffffff1690565b6306dfcc6560e41b5f52603060045260245260445ffd5b5f198101919082116115fb57565b908154905f829160058411612c67575b612c449350846137fc565b80612c4f5750505f90565b612c5890612c1b565b905f5260205f20015460301c90565b9192612c728161369e565b81039081116115fb57612c4493855f5265ffffffffffff8260205f2001541665ffffffffffff8516105f14612ca8575091612c39565b929150612cb490612387565b90612c39565b908160209103126103ee575161042781610c0c565b9091612ce6610427936040845260408401906103f2565b9160208184039101526103f2565b9091612d59612d7f93612d3c612d306020860135927f000000000000000000000000000000000000000000000000000000000000000090613587565b6001600160401b031690565b612d53612d4c60a08701876126af565b3691612525565b91613860565b93909283945f14612dfb576002905b611ac0612d7482612321565b9160808101906126af565b60045490926001600160a01b03909116908382612d9b57505050565b60405163043a78eb60e01b815292602092849283918291612dbf9160048401612ccf565b03915afa801561098c57612dd05750565b612df19060203d602011612df4575b612de98183610feb565b810190612cba565b50565b503d612ddf565b600190612d68565b91908260409103126103ee57604051612e1b81610fb0565b6020808294805184520151910152565b906040828203126103ee5761042791612e03565b906020909392936040835263ffffffff81511660408401528181015160608401526080612e93612e7d604084015160a08488015260e08701906103f2565b6060840151868203603f190160a08801526103f2565b910151151560c08401526001600160a01b03909416910152565b91906001600160a01b0383168015612a84576007548281018091116115fb576007556001600160a01b0384165f908152600560209081526040808320805486019055518481527fddf252ad1be2c89b69c2b068fc378daa952ba7f163c4a11628f55a4df523b3ef9190a36007546001600160d01b039390848111612f3757506105ba929350613e5a565b8490630e58ae9360e11b5f5260045260245260445ffd5b6001600160a01b038116908115612a97576001600160a01b0381165f90815260056020526040902054838110613051576001600160a01b039091165f9081526005602052604090206105ba939291839003905581600754036007555f817fddf252ad1be2c89b69c2b068fc378daa952ba7f163c4a11628f55a4df523b3ef60405180602081018782520390a38015613039575b612ff2612fed83613cc0565b613d8e565b50505f908152600d60205260408120549080527f81955a0a11e65eac625c29e8882660bae4e165a75d72780094acae8ece9a29ee546001600160a01b03908116911661391e565b61304a61304583613cc0565b613d59565b5050612fe1565b63391434e360e21b5f526001600160a01b03909116600452602452604482905260645ffd5b6001600160a01b038181165f818152600d6020526040902080546001600160a01b03198116848716179091556105ba949216926130e3916001600160a01b0384169085907f3134e8a2e6d97e929a7e54011ea5485d7d196dd5f0ba4d4ef95803e8e3fc257f5f80a46138d5565b9161391e565b805490816130f75750505f90565b815f198101116115fb575f525f199060205f2001015460301c90565b601f821161312057505050565b5f5260205f20906020601f840160051c83019310613158575b601f0160051c01905b81811061314d575050565b5f8155600101613142565b9091508190613139565b91909182516001600160401b038111610fcb57613189816131838454610ee3565b84613113565b6020601f82116001146131c85781906131b99394955f926131bd575b50508160011b915f199060031b1c19161790565b9055565b015190505f806131a5565b601f198216906131db845f5260205f2090565b915f5b818110613215575095836001959697106131fd575b505050811b019055565b01515f1960f88460031b161c191690555f80806131f3565b9192602060018192868b0151815501940192016131de565b602081016020825282518091526040820191602060408360051b8301019401925f915b83831061325f57505050505090565b90919293946020806132a2600193603f19868203018752606060408b5163ffffffff815116845261ffff86820151168685015201519181604082015201906103f2565b97019301930191939290613250565b5f5b815181101561333c57806132d660406132ce6001948661235a565b510151613373565b61333660406132e5838661235a565b51015163ffffffff6132f7848761235a565b5151165f52600360205261333160405f206133216020613317878a61235a565b51015161ffff1690565b61ffff165f5260205260405f2090565b613162565b016132b3565b5061336e7fbe4864a8e820971c0247f5992e2da559595f7bf076a21cb5928d443d2a13b674916040519182918261322d565b0390a1565b600361ffff600283015116036133865750565b604051639a6d49cd60e01b815260206004820152908190611b1a9060248301906103f2565b6042906133b6612ad0565b906040519161190160f01b8352600283015260228201522090565b916104279391611ce493613ad0565b906080828203126103ee5761341a9060408051936133fd85610fd0565b80518552602081015161340f816126eb565b602086015201612e03565b604082015290565b61347f6080949261349b96946134366127d8565b5060206134438651613bd8565b950191825180613503575b5061345885612878565b9251151592613468610ce861164f565b602086015260408501526060840152151585830152565b6040518095819482936302637a4560e41b845260048401612e3f565b03917f00000000000000000000000000000000000000000000000000000000000000006001600160a01b03165af190811561098c575f916134da575090565b610427915060803d6080116134fc575b6134f48183610feb565b8101906133e0565b503d6134ea565b61350c90613bf5565b5f61344e565b6001600160a01b0316908115612976576001600160a01b038116928315612963578061357a7f8c5be1e5ebec7d5bd14f71427d1e84f3dd0314c0f7b2291e5b200ac8c7c3b92593855f52600660205260405f209060018060a01b03165f5260205260405f2090565b55604051908152602090a3565b8115613591570490565b634e487b7160e01b5f52601260045260245ffd5b818102929181159184041417156115fb57565b906020116103ee573590565b906028116103ee576020013560c01c90565b610427906001600160401b037f000000000000000000000000000000000000000000000000000000000000000091166135a5565b816001600160a01b03821615613624575b61042791612ead565b61dead915061361b565b90806028116103ee576104279136916027190190602801612525565b909261369090610427936040519586946001600160401b0360c01b9060c01b16602086015263ffffffff60e01b9060e01b166028850152602c840152604c830190612578565b03601f198101835282610feb565b600181111561042757806001600160801b8210156137bf575b61376561375b61375161374761373d61373361372261376c9760048a600160401b6137719c10156137b2575b6401000000008110156137a5575b62010000811015613798575b61010081101561378b575b601081101561377e575b1015613776575b60030260011c90565b61372c818b613587565b0160011c90565b61372c818a613587565b61372c8189613587565b61372c8188613587565b61372c8187613587565b61372c8186613587565b8093613587565b821190565b900390565b60011b613719565b60041c9160021b91613712565b60081c9160041b91613708565b60101c9160081b916136fd565b60201c9160101b916136f1565b60401c9160201b916136e3565b505061377161376c61376561375b61375161374761373d6137336137226137e68a60801c90565b9850600160401b97506136b79650505050505050565b91905b83821061380c5750505090565b9091928083169080841860011c82018092116115fb57845f5265ffffffffffff8260205f2001541665ffffffffffff8416105f1461384e5750925b91906137ff565b93925061385a90612387565b91613847565b825115801593906138a657906136906138a39260405194859360208501526001600160401b0360c01b9060c01b1660408401523360488401526068830190612578565b91565b50906040519160208301526001600160401b0360c01b9060c01b166040820152602881526138a3604882610feb565b6001600160a01b039081165f9081526005602090815260408083205460109092529091205490911680613906575090565b5f52600560205260405f205481018091116115fb5790565b6001600160a01b03808316939291908116908185141580613a37575b613946575b5050505050565b816139ca575b50508261395b575b808061393f565b6001600160a01b03165f908152600e602052604090207fdec2bacdd2f05b59de34da9b523dff8be42e5e38e818c82fdb0bae774387a724916139a7916139a19091613cc0565b90613d25565b604080516001600160d01b039384168152919092166020820152a25f8080613954565b6001600160a01b03165f908152600e602052604090207fdec2bacdd2f05b59de34da9b523dff8be42e5e38e818c82fdb0bae774387a72490613a1590613a0f86613cc0565b90613cf1565b604080516001600160d01b039384168152919092166020820152a25f8061394c565b5083151561393a565b60ff8114613a865760ff811690601f8211613a775760405191613a64604084610feb565b6020808452838101919036833783525290565b632cd44ac360e21b5f5260045ffd5b506040516104278161106c81600a610f1b565b60ff8114613abd5760ff811690601f8211613a775760405191613a64604084610feb565b506040516104278161106c81600b610f1b565b91907f7fffffffffffffffffffffffffffffff5d576e7357a4501ddfe92f46681b20a08411613b47579160209360809260ff5f9560405194855216868401526040830152606082015282805260015afa1561098c575f516001600160a01b03811615613b3d57905f905f90565b505f906001905f90565b5050505f9160039190565b6004111561242557565b613b6581613b52565b80613b6e575050565b613b7781613b52565b60018103613b8e5763f645eedf60e01b5f5260045ffd5b613b9781613b52565b60028103613bb2575063fce698f760e01b5f5260045260245ffd5b80613bbe600392613b52565b14613bc65750565b6335e2f38360e21b5f5260045260245ffd5b803403613be25790565b6304fb820960e51b5f523460045260245ffd5b60405163393f876560e21b81527f00000000000000000000000000000000000000000000000000000000000000006001600160a01b03169190602081600481865afa90811561098c575f91613c70575b506001600160a01b0316918215613c61576105ba923390613dc3565b6329b99a9560e11b5f5260045ffd5b90506020813d602011613ca3575b81613c8b60209383610feb565b810103126103ee5751613c9d81610504565b5f613c45565b3d9150613c7e565b805482101561236e575f5260205f2001905f90565b6001600160d01b038111613cda576001600160d01b031690565b6306dfcc6560e41b5f5260d060045260245260445ffd5b90613cfb43612bec565b90613d05836130e9565b6001600160d01b0391821690821603919082116115fb576107a892613fa4565b90613d2f43612bec565b90613d39836130e9565b6001600160d01b0391821690821601919082116115fb576107a892613fa4565b613d6243612bec565b90613d6d600f6130e9565b6001600160d01b03918216908216019081116115fb576107a891600f613fa4565b613d9743612bec565b90613da2600f6130e9565b6001600160d01b03918216908216039081116115fb576107a891600f613fa4565b6040516323b872dd60e01b60208083019182526001600160a01b039485166024840152949093166044820152606480820195909552938452925f9190613e0a608482610feb565b519082855af11561242a575f513d613e5157506001600160a01b0381163b155b613e315750565b635274afe760e01b5f9081526001600160a01b0391909116600452602490fd5b60011415613e2a565b906105ba91613e6b61304583613cc0565b50506001600160a01b03168015613ec0575b600d6020527f81955a0a11e65eac625c29e8882660bae4e165a75d72780094acae8ece9a29ee545f9182526040909120546001600160a01b03908116911661391e565b613ecc612fed83613cc0565b5050613e7d565b6105ba92916001600160a01b03909116908115613f36575b6001600160a01b0316908115613f23575b5f908152600d6020526040808220549282529020546001600160a01b03908116911661391e565b613f2f612fed84613cc0565b5050613efc565b613f4261304584613cc0565b5050613eeb565b8054600160401b811015610fcb57613f6691600182018155613cab565b613f9157815160209092015160301b65ffffffffffff191665ffffffffffff92909216919091179055565b634e487b7160e01b5f525f60045260245ffd5b8054929392801561405057613fbb613fc691612c1b565b825f5260205f200190565b8054603081901c9365ffffffffffff918216929181168084116140415787930361400d575061400992509065ffffffffffff82549181199060301b169116179055565b9190565b9150506140099161402d61401f611640565b65ffffffffffff9093168352565b6001600160d01b0386166020830152613f49565b632520601d60e01b5f5260045ffd5b50906140759161406161401f611640565b6001600160d01b0385166020830152613f49565b5f919056fe610100604052346103dd576116a88038038061001a816103e1565b9283398101610100828203126103dd5761003382610406565b9161004060208201610406565b9161004d6040830161041a565b6100596060840161041a565b60808401519060028210156103dd5760a085015160c08601519093906001600160401b0381116103dd5786019585601f880112156103dd578651956100a56100a08861042e565b6103e1565b9760208989815201906020829960051b8201019283116103dd57602001905b8282106103cd5750505060e06100da9101610406565b966001600160a01b031680156103ba575f80546001600160a01b03198116831782556001600160a01b0316907f8be0079c531659141344cd1fd0a4f28419497f9722a3daafe3b4186f6b6457e09080a360805260a05260c0526006558151906001600160401b038211610358576801000000000000000082116103585760045482600455808310610380575b5060045f5260205f205f5b83811061036c5750505050519161019661018d6100a08561042e565b9380855261042e565b602084019390601f190136853751926001600160401b03841161035857680100000000000000008411610358576005548460055580851061030b575b509260055f5260205f208160051c905f5b8281106102c65750601f198316909203918261027a575b610207858560e05261045b565b506040516111819081610507823960805181818161030b0152818161044f01528181610d840152610ff7015260a0518181816102e101528181610b110152610dc2015260c05181818161068201528181610b470152611078015260e0518181816101870152818161052501526106fe0152f35b5f9586935b808810610297575050610207955001555f80806101fa565b909360206102bb6001928a88511515919060ff809160031b9316831b921b19161790565b95019701969061027f565b5f5f5b602081106102de5750828201556001016101e3565b979060206103026001928b85511515919060ff809160031b9316831b921b19161790565b920198016102c9565b6103379060055f5260205f20601f80880160051c8201928189168061033d575b500160051c0190610445565b5f6101d2565b5f198501908154905f199060200360031b1c1690555f61032b565b634e487b7160e01b5f52604160045260245ffd5b600190602084519401938184015501610171565b60045f526103b4907f8a35acfbc15ff81a39ae7d344fd709f28e8600b4aa8c65c6b64bfe7fe36bd19b908101908401610445565b5f610166565b631e4fbdf760e01b5f525f60045260245ffd5b81518152602091820191016100c4565b5f80fd5b6040519190601f01601f191682016001600160401b0381118382101761035857604052565b51906001600160a01b03821682036103dd57565b51906001600160401b03821682036103dd57565b6001600160401b0381116103585760051b60200190565b818110610450575050565b5f8155600101610445565b6001600160a01b0381165f9081525f5160206116885f395f51905f52602052604090205460ff16610501576001600160a01b03165f8181525f5160206116885f395f51905f5260205260408120805460ff191660011790553391907f55435dd261a4b9b3364963f7738a7a662ad9c84396d64be3365284bb7f0a5041907f2f8788117e7eff1d82e926ec794901d17c78024a50270940304540a733656f0d9080a4600190565b505f9056fe608080604052600436101561001c575b50361561001a575f80fd5b005b5f3560e01c90816301ffc9a714610bb0575080630a17b06b14610b795780630e17454c14610b355780630fb5a6b414610af25780631916558714610a42578063248a9ca314610a1757806324ea54f4146109dd5780632f2ff15d1461099f578063330609441461098257806336568abe1461093e578063715018a6146108e7578063810ec23b146108ae57806386d1a69f146107bc57806388fb1502146106685780638da5cb5b1461064157806391d14854146105f857806396132521146105db5780639852595c146105a3578063a217fddf14610589578063a3f8eace14610566578063aa5ef02b14610473578063be9a655514610430578063c2a5b0be146103ab578063c9514c9b14610373578063d547741f14610330578063efbe1c1c146102c2578063f2fde38b1461023d578063f8d870c814610200578063fbccedae146101ba5763fc0c546a14610172575f61000f565b346101b6575f3660031901126101b6576040517f00000000000000000000000000000000000000000000000000000000000000006001600160a01b03168152602090f35b5f80fd5b346101b6575f3660031901126101b65760206101f86101ef476101ea6001600160401b0342169160015490610c7a565b610d75565b60015490610d32565b604051908152f35b346101b65760203660031901126101b6576004356005548110156101b65760ff61022b602092610c5b565b90549060031b1c166040519015158152f35b346101b65760203660031901126101b657610256610c03565b61025e610fc7565b6001600160a01b031680156102af575f80546001600160a01b03198116831782556001600160a01b0316907f8be0079c531659141344cd1fd0a4f28419497f9722a3daafe3b4186f6b6457e09080a3005b631e4fbdf760e01b5f525f60045260245ffd5b346101b6575f3660031901126101b65760206101f86001600160401b037f0000000000000000000000000000000000000000000000000000000000000000166001600160401b037f000000000000000000000000000000000000000000000000000000000000000016610c7a565b346101b65760403660031901126101b65761001a60043561034f610c19565b9061036e610369825f526003602052600160405f20015490565b610e7d565b610f43565b346101b65760203660031901126101b6576004356004548110156101b65761039c602091610c2f565b90549060031b1c604051908152f35b346101b65760203660031901126101b6576004356103c7610e0e565b600181108015610425575b610416575f198101908111610402576103ea90610c5b565b81549060031b9060ff6001831b921b19161790555f80f35b634e487b7160e01b5f52601160045260245ffd5b630d8a8dc160e21b5f5260045ffd5b5060045481116103d2565b346101b6575f3660031901126101b65760206040516001600160401b037f0000000000000000000000000000000000000000000000000000000000000000168152f35b346101b65760203660031901126101b65760043561048f610e0e565b600454600160401b811015610552578060016104ae9201600455610c2f565b81549060031b9083821b915f19901b191617905560055490600160401b821015610552576104e582600161001a9401600555610c5b565b60ff82549160031b1b19169055604051906323b872dd60e01b6020830152336024830152306044830152606482015260648152610523608482610c87565b7f00000000000000000000000000000000000000000000000000000000000000006001600160a01b03166110f3565b634e487b7160e01b5f52604160045260245ffd5b346101b65760203660031901126101b65760206101f8610584610c03565b610d3f565b346101b6575f3660031901126101b65760206040515f8152f35b346101b65760203660031901126101b6576001600160a01b036105c4610c03565b165f526002602052602060405f2054604051908152f35b346101b6575f3660031901126101b6576020600154604051908152f35b346101b65760403660031901126101b657610611610c19565b6004355f52600360205260405f209060018060a01b03165f52602052602060ff60405f2054166040519015158152f35b346101b6575f3660031901126101b6575f546040516001600160a01b039091168152602090f35b346101b6575f3660031901126101b657610680610e0e565b7f000000000000000000000000000000000000000000000000000000000000000060028110156107a857610799575f5f6004545b808210610773576106f960206106d2856106cc611076565b90610d32565b60405163a9059cbb60e01b8152336004820152602481019190915291829081906044820190565b03815f7f00000000000000000000000000000000000000000000000000000000000000006001600160a01b03165af180156107685761073457005b6020813d602011610760575b8161074d60209383610c87565b810103126101b65751801515036101b657005b3d9150610740565b6040513d5f823e3d90fd5b909161079160019161078485610c2f565b90549060031b1c90610c7a565b9201906106b4565b632d09888560e11b5f5260045ffd5b634e487b7160e01b5f52602160045260245ffd5b346101b6575f3660031901126101b6576107e7476101ea6001600160401b0342169160015490610c7a565b6107fe6107f76001548093610d32565b8092610c7a565b6001557fda9d4e5f101b8b9b1c5b76d0c5a9f7923571acfc02376aa076b75a8c080c956b6020604051838152a15f546001600160a01b0316478211610897575f80809381935af13d15610892573d6001600160401b0381116105525760405190610872601f8201601f191660200183610c87565b81525f60203d92013e5b1561088357005b63d6bda27560e01b5f5260045ffd5b61087c565b504763cf47918160e01b5f5260045260245260445ffd5b346101b65760403660031901126101b6576108c7610c03565b602435906001600160401b03821682036101b6576020916101f891610ca8565b346101b6575f3660031901126101b6576108ff610fc7565b5f80546001600160a01b0319811682556001600160a01b03167f8be0079c531659141344cd1fd0a4f28419497f9722a3daafe3b4186f6b6457e08280a3005b346101b65760403660031901126101b657610957610c19565b336001600160a01b038216036109735761001a90600435610f43565b63334bd91960e11b5f5260045ffd5b346101b6575f3660031901126101b6576020600654604051908152f35b346101b65760403660031901126101b65761001a6004356109be610c19565b906109d8610369825f526003602052600160405f20015490565b610eb7565b346101b6575f3660031901126101b65760206040517f55435dd261a4b9b3364963f7738a7a662ad9c84396d64be3365284bb7f0a50418152f35b346101b65760203660031901126101b65760206101f86004355f526003602052600160405f20015490565b346101b65760203660031901126101b65761001a610a5e610c03565b610a6781610d3f565b9060018060a01b0316805f52600260205260405f20610a87838254610c7a565b9055807fc0e523490dd523c33b1878c9eb14ff46991e3f5b2cd33710918618f2a39cba1b6020604051858152a25f5460405163a9059cbb60e01b60208201526001600160a01b039091166024820152604480820193909352918252610aed606483610c87565b6110f3565b346101b6575f3660031901126101b65760206040516001600160401b037f0000000000000000000000000000000000000000000000000000000000000000168152f35b346101b6575f3660031901126101b6577f000000000000000000000000000000000000000000000000000000000000000060405160028210156107a8576020918152f35b346101b65760203660031901126101b6576004356001600160401b03811681036101b6576101f86020916101ea4760015490610c7a565b346101b65760203660031901126101b6576004359063ffffffff60e01b82168092036101b657602091637965db0b60e01b8114908115610bf2575b5015158152f35b6301ffc9a760e01b14905083610beb565b600435906001600160a01b03821682036101b657565b602435906001600160a01b03821682036101b657565b600454811015610c475760045f5260205f2001905f90565b634e487b7160e01b5f52603260045260245ffd5b90600554821015610c475760055f52601f60205f208360051c01921690565b9190820180921161040257565b90601f801991011681019081106001600160401b0382111761055257604052565b6040516370a0823160e01b81523060048201526001600160a01b03919091169190602081602481865afa908115610768575f91610cfe575b506101ea90610cfb935f52600260205260405f205490610c7a565b90565b90506020813d602011610d2a575b81610d1960209383610c87565b810103126101b65751610cfb610ce0565b3d9150610d0c565b9190820391821161040257565b610cfb90610d566001600160401b03421682610ca8565b6001600160a01b039091165f9081526002602052604090205490610d32565b906001600160401b03808216907f00000000000000000000000000000000000000000000000000000000000000001680821015610db457505050505f90565b610de8906001600160401b037f00000000000000000000000000000000000000000000000000000000000000001690610c7a565b1015610df2575090565b610cfb9150610e0090610fed565b610e08611076565b90610c7a565b335f9081527f928bc822364ea6c79099cd2e1cc1a80e662a0ebf765aa4970cedb73b2f2abb72602052604090205460ff1615610e4657565b63e2517d3f60e01b5f52336004527f55435dd261a4b9b3364963f7738a7a662ad9c84396d64be3365284bb7f0a504160245260445ffd5b5f81815260036020908152604080832033845290915290205460ff1615610ea15750565b63e2517d3f60e01b5f523360045260245260445ffd5b5f8181526003602090815260408083206001600160a01b038616845290915290205460ff16610f3d575f8181526003602090815260408083206001600160a01b0395909516808452949091528120805460ff19166001179055339291907f2f8788117e7eff1d82e926ec794901d17c78024a50270940304540a733656f0d9080a4600190565b50505f90565b5f8181526003602090815260408083206001600160a01b038616845290915290205460ff1615610f3d575f8181526003602090815260408083206001600160a01b0395909516808452949091528120805460ff19169055339291907ff6391f5c32d9c69d2a47ea670b442974b53935d1edc7fd64eb21e047a839171b9080a4600190565b5f546001600160a01b03163303610fda57565b63118cdaa760e01b5f523360045260245ffd5b6001600160401b037f00000000000000000000000000000000000000000000000000000000000000001662ed4e00810191828211610402576001600160401b0316918210610f3d5761103e91610d32565b62ed4dff198101908111610402576276a700900460028101809111610402576006548181029181830414901517156104025760031c90565b7f000000000000000000000000000000000000000000000000000000000000000060028110156107a8576110ef575f5f600454905b8181106110b757505090565b60ff6110c282610c5b565b90549060031b1c166110d7575b6001016110ab565b916110e760019161078485610c2f565b9290506110cf565b5f90565b905f602091828151910182855af115610768575f513d61114257506001600160a01b0381163b155b6111225750565b635274afe760e01b5f9081526001600160a01b0391909116600452602490fd5b6001141561111b56fea26469706673582212207f0fbaec745aabc86564f64f8c4c05fe3c217ebdd43789d040188d0d08646cf864736f6c634300081b0033928bc822364ea6c79099cd2e1cc1a80e662a0ebf765aa4970cedb73b2f2abb72a2646970667358221220967986d8055b4029786e737869a69f7d32d9e66bcb0a93a7f7e9bcceb0e686f464736f6c634300081b0033",
  "linkReferences": {},
  "deployedLinkReferences": {}
}