{
  "_format": "hh-sol-artifact-1",
  "contractName": "MetaMorphoArk",
  "sourceName": "src/contracts/arks/MetaMorphoArk.sol",
  "abi": [
    {
      "inputs": [
        {
          "internalType": "address",
          "name": "_metaMorpho",
          "type": "address"
        },
        {
          "components": [
            {
              "internalType": "string",
              "name": "name",
              "type": "string"
            },
            {
              "internalType": "string",
              "name": "details",
              "type": "string"
            },
            {
              "internalType": "address",
              "name": "accessManager",
              "type": "address"
            },
            {
              "internalType": "address",
              "name": "configurationManager",
              "type": "address"
            },
            {
              "internalType": "address",
              "name": "asset",
              "type": "address"
            },
            {
              "internalType": "uint256",
              "name": "depositCap",
              "type": "uint256"
            },
            {
              "internalType": "uint256",
              "name": "maxRebalanceOutflow",
              "type": "uint256"
            },
            {
              "internalType": "uint256",
              "name": "maxRebalanceInflow",
              "type": "uint256"
            },
            {
              "internalType": "bool",
              "name": "requiresKeeperData",
              "type": "bool"
            },
            {
              "internalType": "Percentage",
              "name": "maxDepositPercentageOfTVL",
              "type": "uint256"
            }
          ],
          "internalType": "struct ArkParams",
          "name": "_params",
          "type": "tuple"
        }
      ],
      "stateMutability": "nonpayable",
      "type": "constructor"
    },
    {
      "inputs": [
        {
          "internalType": "address",
          "name": "caller",
          "type": "address"
        }
      ],
      "name": "CallerIsNotAdmin",
      "type": "error"
    },
    {
      "inputs": [
        {
          "internalType": "address",
          "name": "caller",
          "type": "address"
        }
      ],
      "name": "CallerIsNotAuthorizedToBoard",
      "type": "error"
    },
    {
      "inputs": [
        {
          "internalType": "address",
          "name": "caller",
          "type": "address"
        }
      ],
      "name": "CallerIsNotCommander",
      "type": "error"
    },
    {
      "inputs": [
        {
          "internalType": "address",
          "name": "caller",
          "type": "address"
        },
        {
          "internalType": "bytes32",
          "name": "role",
          "type": "bytes32"
        }
      ],
      "name": "CallerIsNotContractSpecificRole",
      "type": "error"
    },
    {
      "inputs": [
        {
          "internalType": "address",
          "name": "caller",
          "type": "address"
        }
      ],
      "name": "CallerIsNotCurator",
      "type": "error"
    },
    {
      "inputs": [
        {
          "internalType": "address",
          "name": "caller",
          "type": "address"
        }
      ],
      "name": "CallerIsNotDecayController",
      "type": "error"
    },
    {
      "inputs": [
        {
          "internalType": "address",
          "name": "caller",
          "type": "address"
        }
      ],
      "name": "CallerIsNotGovernor",
      "type": "error"
    },
    {
      "inputs": [
        {
          "internalType": "address",
          "name": "caller",
          "type": "address"
        }
      ],
      "name": "CallerIsNotGuardian",
      "type": "error"
    },
    {
      "inputs": [
        {
          "internalType": "address",
          "name": "caller",
          "type": "address"
        }
      ],
      "name": "CallerIsNotGuardianOrGovernor",
      "type": "error"
    },
    {
      "inputs": [
        {
          "internalType": "address",
          "name": "caller",
          "type": "address"
        }
      ],
      "name": "CallerIsNotKeeper",
      "type": "error"
    },
    {
      "inputs": [
        {
          "internalType": "address",
          "name": "caller",
          "type": "address"
        }
      ],
      "name": "CallerIsNotRaft",
      "type": "error"
    },
    {
      "inputs": [
        {
          "internalType": "address",
          "name": "caller",
          "type": "address"
        }
      ],
      "name": "CallerIsNotRaftOrCommander",
      "type": "error"
    },
    {
      "inputs": [
        {
          "internalType": "address",
          "name": "caller",
          "type": "address"
        }
      ],
      "name": "CallerIsNotSuperKeeper",
      "type": "error"
    },
    {
      "inputs": [],
      "name": "CannotAddCommanderToArkWithCommander",
      "type": "error"
    },
    {
      "inputs": [],
      "name": "CannotDeployArkWithEmptyName",
      "type": "error"
    },
    {
      "inputs": [],
      "name": "CannotDeployArkWithoutConfigurationManager",
      "type": "error"
    },
    {
      "inputs": [],
      "name": "CannotDeployArkWithoutRaft",
      "type": "error"
    },
    {
      "inputs": [],
      "name": "CannotDeployArkWithoutToken",
      "type": "error"
    },
    {
      "inputs": [],
      "name": "CannotRemoveCommanderFromArkWithAssets",
      "type": "error"
    },
    {
      "inputs": [],
      "name": "CannotUseKeeperDataWhenNotRequired",
      "type": "error"
    },
    {
      "inputs": [],
      "name": "ConfigurationManagerZeroAddress",
      "type": "error"
    },
    {
      "inputs": [
        {
          "internalType": "address",
          "name": "caller",
          "type": "address"
        }
      ],
      "name": "DirectGrantIsDisabled",
      "type": "error"
    },
    {
      "inputs": [
        {
          "internalType": "address",
          "name": "caller",
          "type": "address"
        }
      ],
      "name": "DirectRevokeIsDisabled",
      "type": "error"
    },
    {
      "inputs": [],
      "name": "ERC4626AssetMismatch",
      "type": "error"
    },
    {
      "inputs": [
        {
          "internalType": "address",
          "name": "invalidAddress",
          "type": "address"
        }
      ],
      "name": "InvalidAccessManagerAddress",
      "type": "error"
    },
    {
      "inputs": [],
      "name": "InvalidBoardData",
      "type": "error"
    },
    {
      "inputs": [],
      "name": "InvalidDisembarkData",
      "type": "error"
    },
    {
      "inputs": [],
      "name": "InvalidVaultAddress",
      "type": "error"
    },
    {
      "inputs": [],
      "name": "KeeperDataRequired",
      "type": "error"
    },
    {
      "inputs": [],
      "name": "ReentrancyGuardReentrantCall",
      "type": "error"
    },
    {
      "inputs": [
        {
          "internalType": "address",
          "name": "token",
          "type": "address"
        }
      ],
      "name": "SafeERC20FailedOperation",
      "type": "error"
    },
    {
      "anonymous": false,
      "inputs": [
        {
          "indexed": true,
          "internalType": "address[]",
          "name": "rewardTokens",
          "type": "address[]"
        },
        {
          "indexed": true,
          "internalType": "uint256[]",
          "name": "rewardAmounts",
          "type": "uint256[]"
        }
      ],
      "name": "ArkHarvested",
      "type": "event"
    },
    {
      "anonymous": false,
      "inputs": [
        {
          "indexed": false,
          "internalType": "uint256",
          "name": "currentPrice",
          "type": "uint256"
        },
        {
          "indexed": false,
          "internalType": "uint256",
          "name": "timestamp",
          "type": "uint256"
        }
      ],
      "name": "ArkPoked",
      "type": "event"
    },
    {
      "anonymous": false,
      "inputs": [
        {
          "indexed": true,
          "internalType": "address[]",
          "name": "sweptTokens",
          "type": "address[]"
        },
        {
          "indexed": true,
          "internalType": "uint256[]",
          "name": "sweptAmounts",
          "type": "uint256[]"
        }
      ],
      "name": "ArkSwept",
      "type": "event"
    },
    {
      "anonymous": false,
      "inputs": [
        {
          "indexed": true,
          "internalType": "address",
          "name": "commander",
          "type": "address"
        },
        {
          "indexed": false,
          "internalType": "address",
          "name": "token",
          "type": "address"
        },
        {
          "indexed": false,
          "internalType": "uint256",
          "name": "amount",
          "type": "uint256"
        }
      ],
      "name": "Boarded",
      "type": "event"
    },
    {
      "anonymous": false,
      "inputs": [
        {
          "indexed": false,
          "internalType": "uint256",
          "name": "newCap",
          "type": "uint256"
        }
      ],
      "name": "DepositCapUpdated",
      "type": "event"
    },
    {
      "anonymous": false,
      "inputs": [
        {
          "indexed": true,
          "internalType": "address",
          "name": "commander",
          "type": "address"
        },
        {
          "indexed": false,
          "internalType": "address",
          "name": "token",
          "type": "address"
        },
        {
          "indexed": false,
          "internalType": "uint256",
          "name": "amount",
          "type": "uint256"
        }
      ],
      "name": "Disembarked",
      "type": "event"
    },
    {
      "anonymous": false,
      "inputs": [
        {
          "indexed": false,
          "internalType": "address",
          "name": "commander",
          "type": "address"
        }
      ],
      "name": "FleetCommanderRegistered",
      "type": "event"
    },
    {
      "anonymous": false,
      "inputs": [
        {
          "indexed": false,
          "internalType": "address",
          "name": "commander",
          "type": "address"
        }
      ],
      "name": "FleetCommanderUnregistered",
      "type": "event"
    },
    {
      "anonymous": false,
      "inputs": [
        {
          "indexed": false,
          "internalType": "Percentage",
          "name": "newMaxDepositPercentageOfTVL",
          "type": "uint256"
        }
      ],
      "name": "MaxDepositPercentageOfTVLUpdated",
      "type": "event"
    },
    {
      "anonymous": false,
      "inputs": [
        {
          "indexed": false,
          "internalType": "uint256",
          "name": "newMaxInflow",
          "type": "uint256"
        }
      ],
      "name": "MaxRebalanceInflowUpdated",
      "type": "event"
    },
    {
      "anonymous": false,
      "inputs": [
        {
          "indexed": false,
          "internalType": "uint256",
          "name": "newMaxOutflow",
          "type": "uint256"
        }
      ],
      "name": "MaxRebalanceOutflowUpdated",
      "type": "event"
    },
    {
      "anonymous": false,
      "inputs": [
        {
          "indexed": true,
          "internalType": "address",
          "name": "from",
          "type": "address"
        },
        {
          "indexed": true,
          "internalType": "address",
          "name": "to",
          "type": "address"
        },
        {
          "indexed": false,
          "internalType": "address",
          "name": "token",
          "type": "address"
        },
        {
          "indexed": false,
          "internalType": "uint256",
          "name": "amount",
          "type": "uint256"
        }
      ],
      "name": "Moved",
      "type": "event"
    },
    {
      "anonymous": false,
      "inputs": [
        {
          "indexed": false,
          "internalType": "address",
          "name": "newRaft",
          "type": "address"
        }
      ],
      "name": "RaftUpdated",
      "type": "event"
    },
    {
      "inputs": [],
      "name": "asset",
      "outputs": [
        {
          "internalType": "contract IERC20",
          "name": "",
          "type": "address"
        }
      ],
      "stateMutability": "view",
      "type": "function"
    },
    {
      "inputs": [
        {
          "internalType": "uint256",
          "name": "amount",
          "type": "uint256"
        },
        {
          "internalType": "bytes",
          "name": "boardData",
          "type": "bytes"
        }
      ],
      "name": "board",
      "outputs": [],
      "stateMutability": "nonpayable",
      "type": "function"
    },
    {
      "inputs": [],
      "name": "commander",
      "outputs": [
        {
          "internalType": "address",
          "name": "",
          "type": "address"
        }
      ],
      "stateMutability": "view",
      "type": "function"
    },
    {
      "inputs": [],
      "name": "config",
      "outputs": [
        {
          "internalType": "address",
          "name": "commander",
          "type": "address"
        },
        {
          "internalType": "address",
          "name": "raft",
          "type": "address"
        },
        {
          "internalType": "contract IERC20",
          "name": "asset",
          "type": "address"
        },
        {
          "internalType": "uint256",
          "name": "depositCap",
          "type": "uint256"
        },
        {
          "internalType": "uint256",
          "name": "maxRebalanceOutflow",
          "type": "uint256"
        },
        {
          "internalType": "uint256",
          "name": "maxRebalanceInflow",
          "type": "uint256"
        },
        {
          "internalType": "string",
          "name": "name",
          "type": "string"
        },
        {
          "internalType": "string",
          "name": "details",
          "type": "string"
        },
        {
          "internalType": "bool",
          "name": "requiresKeeperData",
          "type": "bool"
        },
        {
          "internalType": "Percentage",
          "name": "maxDepositPercentageOfTVL",
          "type": "uint256"
        }
      ],
      "stateMutability": "view",
      "type": "function"
    },
    {
      "inputs": [],
      "name": "configurationManager",
      "outputs": [
        {
          "internalType": "contract IConfigurationManager",
          "name": "",
          "type": "address"
        }
      ],
      "stateMutability": "view",
      "type": "function"
    },
    {
      "inputs": [],
      "name": "depositCap",
      "outputs": [
        {
          "internalType": "uint256",
          "name": "",
          "type": "uint256"
        }
      ],
      "stateMutability": "view",
      "type": "function"
    },
    {
      "inputs": [
        {
          "internalType": "uint256",
          "name": "amount",
          "type": "uint256"
        },
        {
          "internalType": "bytes",
          "name": "disembarkData",
          "type": "bytes"
        }
      ],
      "name": "disembark",
      "outputs": [],
      "stateMutability": "nonpayable",
      "type": "function"
    },
    {
      "inputs": [],
      "name": "fleetCommanderRewardsManagerFactory",
      "outputs": [
        {
          "internalType": "address",
          "name": "",
          "type": "address"
        }
      ],
      "stateMutability": "view",
      "type": "function"
    },
    {
      "inputs": [
        {
          "internalType": "enum ContractSpecificRoles",
          "name": "roleName",
          "type": "uint8"
        },
        {
          "internalType": "address",
          "name": "roleTargetContract",
          "type": "address"
        }
      ],
      "name": "generateRole",
      "outputs": [
        {
          "internalType": "bytes32",
          "name": "",
          "type": "bytes32"
        }
      ],
      "stateMutability": "pure",
      "type": "function"
    },
    {
      "inputs": [],
      "name": "getConfig",
      "outputs": [
        {
          "components": [
            {
              "internalType": "address",
              "name": "commander",
              "type": "address"
            },
            {
              "internalType": "address",
              "name": "raft",
              "type": "address"
            },
            {
              "internalType": "contract IERC20",
              "name": "asset",
              "type": "address"
            },
            {
              "internalType": "uint256",
              "name": "depositCap",
              "type": "uint256"
            },
            {
              "internalType": "uint256",
              "name": "maxRebalanceOutflow",
              "type": "uint256"
            },
            {
              "internalType": "uint256",
              "name": "maxRebalanceInflow",
              "type": "uint256"
            },
            {
              "internalType": "string",
              "name": "name",
              "type": "string"
            },
            {
              "internalType": "string",
              "name": "details",
              "type": "string"
            },
            {
              "internalType": "bool",
              "name": "requiresKeeperData",
              "type": "bool"
            },
            {
              "internalType": "Percentage",
              "name": "maxDepositPercentageOfTVL",
              "type": "uint256"
            }
          ],
          "internalType": "struct ArkConfig",
          "name": "",
          "type": "tuple"
        }
      ],
      "stateMutability": "view",
      "type": "function"
    },
    {
      "inputs": [],
      "name": "harborCommand",
      "outputs": [
        {
          "internalType": "address",
          "name": "",
          "type": "address"
        }
      ],
      "stateMutability": "view",
      "type": "function"
    },
    {
      "inputs": [
        {
          "internalType": "bytes",
          "name": "additionalData",
          "type": "bytes"
        }
      ],
      "name": "harvest",
      "outputs": [
        {
          "internalType": "address[]",
          "name": "rewardTokens",
          "type": "address[]"
        },
        {
          "internalType": "uint256[]",
          "name": "rewardAmounts",
          "type": "uint256[]"
        }
      ],
      "stateMutability": "nonpayable",
      "type": "function"
    },
    {
      "inputs": [
        {
          "internalType": "address",
          "name": "account",
          "type": "address"
        }
      ],
      "name": "hasAdmiralsQuartersRole",
      "outputs": [
        {
          "internalType": "bool",
          "name": "",
          "type": "bool"
        }
      ],
      "stateMutability": "view",
      "type": "function"
    },
    {
      "inputs": [],
      "name": "maxDepositPercentageOfTVL",
      "outputs": [
        {
          "internalType": "Percentage",
          "name": "",
          "type": "uint256"
        }
      ],
      "stateMutability": "view",
      "type": "function"
    },
    {
      "inputs": [],
      "name": "maxRebalanceInflow",
      "outputs": [
        {
          "internalType": "uint256",
          "name": "",
          "type": "uint256"
        }
      ],
      "stateMutability": "view",
      "type": "function"
    },
    {
      "inputs": [],
      "name": "maxRebalanceOutflow",
      "outputs": [
        {
          "internalType": "uint256",
          "name": "",
          "type": "uint256"
        }
      ],
      "stateMutability": "view",
      "type": "function"
    },
    {
      "inputs": [],
      "name": "metaMorpho",
      "outputs": [
        {
          "internalType": "contract IMetaMorpho",
          "name": "",
          "type": "address"
        }
      ],
      "stateMutability": "view",
      "type": "function"
    },
    {
      "inputs": [
        {
          "internalType": "uint256",
          "name": "amount",
          "type": "uint256"
        },
        {
          "internalType": "address",
          "name": "receiverArk",
          "type": "address"
        },
        {
          "internalType": "bytes",
          "name": "boardData",
          "type": "bytes"
        },
        {
          "internalType": "bytes",
          "name": "disembarkData",
          "type": "bytes"
        }
      ],
      "name": "move",
      "outputs": [],
      "stateMutability": "nonpayable",
      "type": "function"
    },
    {
      "inputs": [],
      "name": "name",
      "outputs": [
        {
          "internalType": "string",
          "name": "",
          "type": "string"
        }
      ],
      "stateMutability": "view",
      "type": "function"
    },
    {
      "inputs": [],
      "name": "raft",
      "outputs": [
        {
          "internalType": "address",
          "name": "",
          "type": "address"
        }
      ],
      "stateMutability": "view",
      "type": "function"
    },
    {
      "inputs": [],
      "name": "registerFleetCommander",
      "outputs": [],
      "stateMutability": "nonpayable",
      "type": "function"
    },
    {
      "inputs": [],
      "name": "requiresKeeperData",
      "outputs": [
        {
          "internalType": "bool",
          "name": "",
          "type": "bool"
        }
      ],
      "stateMutability": "view",
      "type": "function"
    },
    {
      "inputs": [
        {
          "internalType": "uint256",
          "name": "newDepositCap",
          "type": "uint256"
        }
      ],
      "name": "setDepositCap",
      "outputs": [],
      "stateMutability": "nonpayable",
      "type": "function"
    },
    {
      "inputs": [
        {
          "internalType": "Percentage",
          "name": "newMaxDepositPercentageOfTVL",
          "type": "uint256"
        }
      ],
      "name": "setMaxDepositPercentageOfTVL",
      "outputs": [],
      "stateMutability": "nonpayable",
      "type": "function"
    },
    {
      "inputs": [
        {
          "internalType": "uint256",
          "name": "newMaxRebalanceInflow",
          "type": "uint256"
        }
      ],
      "name": "setMaxRebalanceInflow",
      "outputs": [],
      "stateMutability": "nonpayable",
      "type": "function"
    },
    {
      "inputs": [
        {
          "internalType": "uint256",
          "name": "newMaxRebalanceOutflow",
          "type": "uint256"
        }
      ],
      "name": "setMaxRebalanceOutflow",
      "outputs": [],
      "stateMutability": "nonpayable",
      "type": "function"
    },
    {
      "inputs": [
        {
          "internalType": "address[]",
          "name": "tokens",
          "type": "address[]"
        }
      ],
      "name": "sweep",
      "outputs": [
        {
          "internalType": "address[]",
          "name": "sweptTokens",
          "type": "address[]"
        },
        {
          "internalType": "uint256[]",
          "name": "sweptAmounts",
          "type": "uint256[]"
        }
      ],
      "stateMutability": "nonpayable",
      "type": "function"
    },
    {
      "inputs": [],
      "name": "tipJar",
      "outputs": [
        {
          "internalType": "address",
          "name": "",
          "type": "address"
        }
      ],
      "stateMutability": "view",
      "type": "function"
    },
    {
      "inputs": [],
      "name": "totalAssets",
      "outputs": [
        {
          "internalType": "uint256",
          "name": "assets",
          "type": "uint256"
        }
      ],
      "stateMutability": "view",
      "type": "function"
    },
    {
      "inputs": [],
      "name": "treasury",
      "outputs": [
        {
          "internalType": "address",
          "name": "",
          "type": "address"
        }
      ],
      "stateMutability": "view",
      "type": "function"
    },
    {
      "inputs": [],
      "name": "unregisterFleetCommander",
      "outputs": [],
      "stateMutability": "nonpayable",
      "type": "function"
    }
  ],
  "bytecode": "0x60c0806040523461065c57612c4d803803809161001c82856106a2565b833981019060408183031261065c57610034816106c5565b602082015190916001600160401b03821161065c57016101408184031261065c576040519261006284610686565b81516001600160401b03811161065c578161007e9184016106d9565b84526020820151906001600160401b03821161065c5761009f9183016106d9565b90602084019182526100b3604082016106c5565b918260408601526100c6606083016106c5565b9460608101938685526100db608085016106c5565b946080830195865260a08501519560a0840196875260c08601519160c0850192835260e08701519360e0860194855261012061011a6101008a0161072e565b610100880190815298015161012087019081529a6001600160a01b0390811691168015610673576040516301ffc9a760e01b81526338c7ccdb60e01b6004820152602081602481855afa908115610668575f9161062a575b5015610618575f80546001600160a01b031916919091179055801561060957608052516001600160a01b0316156105fa5780516001600160a01b0316156105eb57835151156105dc576001600160a01b036101cb61073b565b16156105cd57516001600160a01b03166101e361073b565b96519151925193519451955115159851966101206040519161020483610686565b5f83526001600160a01b03166020830181905260408301849052606083018590526080830186905260a0830187905260c0830188905260e0830198895261010083019b8c529101978852600180546001600160a01b03199081169091556002805482169092179091556003805490911690911790556004556005556006558051906001600160401b0382116104d05760075490600182811c921680156105c3575b60208310146104b25781601f849311610555575b50602090601f83116001146104ef575f926104e4575b50508160011b915f199060031b1c1916176007555b5180519093906001600160401b0381116104d057600854600181811c911680156104c6575b60208210146104b257601f811161044f575b50602094601f82116001146103ec579481929394955f926103e1575b50508160011b915f199060031b1c1916176008555b51151560ff80196009541691161760095551600a5560018060a01b031680156103d25760a0526040516124a490816107a982396080518181816101990152818161090601528181610ea40152818161167a01528181611725015261211d015260a051818181610b5201528181610d190152818161190001528181611b7c0152611ca60152f35b630306120160e01b5f5260045ffd5b015190505f80610337565b601f1982169560085f52805f20915f5b8881106104375750836001959697981061041f575b505050811b0160085561034c565b01515f1960f88460031b161c191690555f8080610411565b919260206001819286850151815501940192016103fc565b60085f527ff3f7a9fe364faab93b216da50a3214154f22a0a2b415b23a84c8169e8b636ee3601f830160051c810191602084106104a8575b601f0160051c01905b81811061049d575061031b565b5f8155600101610490565b9091508190610487565b634e487b7160e01b5f52602260045260245ffd5b90607f1690610309565b634e487b7160e01b5f52604160045260245ffd5b015190505f806102cf565b60075f9081528281209350601f198516905b81811061053d5750908460019594939210610525575b505050811b016007556102e4565b01515f1960f88460031b161c191690555f8080610517565b92936020600181928786015181550195019301610501565b60075f529091507fa66cc928b5edb82af9bd49922954155ab7b0942694bea4ce44661d9a8736c688601f840160051c810191602085106105b9575b90601f859493920160051c01905b8181106105ab57506102b9565b5f815584935060010161059e565b9091508190610590565b91607f16916102a5565b633a4f9cdb60e21b5f5260045ffd5b63268c072960e01b5f5260045ffd5b637ff57ef160e11b5f5260045ffd5b63b53c493160e01b5f5260045ffd5b63f1634df960e01b5f5260045ffd5b6347bd7c1d60e01b5f5260045260245ffd5b90506020813d602011610660575b81610645602093836106a2565b8101031261065c576106569061072e565b5f610172565b5f80fd5b3d9150610638565b6040513d5f823e3d90fd5b6347bd7c1d60e01b5f525f60045260245ffd5b61014081019081106001600160401b038211176104d057604052565b601f909101601f19168101906001600160401b038211908210176104d057604052565b51906001600160a01b038216820361065c57565b81601f8201121561065c578051906001600160401b0382116104d0576040519261070d601f8401601f1916602001856106a2565b8284526020838301011161065c57815f9260208093018386015e8301015290565b5190811515820361065c57565b608051604051628bec5760e51b815290602090829060049082906001600160a01b03165afa908115610668575f91610771575090565b90506020813d6020116107a0575b8161078c602093836106a2565b8101031261065c5761079d906106c5565b90565b3d915061077f56fe6080806040526004361015610012575f80fd5b5f905f3560e01c90816301e1d11414611c845750806306fdde0314611c55578063117d8ae014611c2957806313c408f814611b265780632db6d39914611851578063303dbaf31461182f5780633194549e1461181257806337270936146117ea57806338d52e0f146117c25780634fc7fac3146117705780635b0f83f31461170057806361d027b31461165557806361f5cd8b146115f057806369b3054b1461158f578063780469bb14610fa257806379502c5514610eef5780637aaceb9514610e7d5780638665120314610e295780638a8b997614610dcd57806392f5e83214610d66578063ad5a356f14610d48578063b6042b3414610d03578063bdcdd88214610ce5578063c38a6f0b14610aaf578063c3f909d414610935578063c9c667e3146108f0578063ce5c7f61146103ea578063dbd5edc7146103cc578063ebc136d0146102a1578063ebf31131146102315763f7e533ec14610173575f80fd5b3461021a578060031936011261021a57604051633df94cfb60e21b8152906020826004817f00000000000000000000000000000000000000000000000000000000000000006001600160a01b03165afa9081156102255780916101e5575b6040516001600160a01b0383168152602090f35b90506020823d60201161021d575b8161020060209383611e37565b8101031261021a57506102146020916120f5565b5f6101d1565b80fd5b3d91506101f3565b604051903d90823e3d90fd5b503461021a578060031936011261021a5761024a612299565b1561028e57600180546001600160a01b03191690556040513381527f7cb941d7b1708e5b3bcd35ca960d6c6311188cec18886e5b67630552676b048790602090a180f35b631564c0e160e11b815233600452602490fd5b503461021a57602036600319011261021a576004356001600160a01b03811681036103c857815460405163a89f38a360e01b81526001600160a01b039091169190602081600481865afa9081156103bd578491610383575b50604051632474521560e21b815260048101919091526001600160a01b0390911660248201529060209082908180604481015b03915afa908115610378576020929161034b575b506040519015158152f35b61036b9150823d8411610371575b6103638183611e37565b8101906121aa565b5f610340565b503d610359565b6040513d84823e3d90fd5b9190506020823d6020116103b5575b8161039f60209383611e37565b810103126103b157905161032c6102f9565b8380fd5b3d9150610392565b6040513d86823e3d90fd5b5080fd5b503461021a578060031936011261021a576020600454604051908152f35b503461021a57602036600319011261021a576004356001600160401b0381116103c85761041b903690600401611da5565b604051628bec5760e51b8152602081600481305afa9081156103bd5784916108b6575b506001600160a01b031633036108a35761045661233b565b81019060208183031261089f578035906001600160401b0382116103b157019060808282031261089f5760405191608083018381106001600160401b0382111761088b5760405280356001600160401b03811161088757826104b9918301611e6f565b835260208101356001600160401b03811161088757826104da918301611e6f565b916020840192835260408201356001600160401b03811161086f5782019181601f8401121561086f5782359261050f84611e58565b9361051d6040519586611e37565b80855260208086019160051b8301019184831161086b57602001905b82821061087757505050604085019283526060810135906001600160401b03821161087357019080601f8301121561086f5781359161057783611e58565b926105856040519485611e37565b80845260208085019160051b8301019183831161086b5760208101915b8383106107e3575050505050606084019081526105c08351516121c2565b906105cc8451516121c2565b95805b85515181101561074f5786516001600160a01b03906105ef9083906121f4565b51169060018060a01b036106048289516121f4565b5116916106128288516121f4565b5161061e8387516121f4565b519185604051958693637d5f6a0960e11b8552608485019130600487015260248601526044850152608060648501528451809152602060a4850195019082905b8082106107305750505082908160209503925af18015610725576106f0575b8651600192506001600160a01b03906106979083906121f4565b51166106a382876121f4565b526106af8187516121f4565b516106ba828b6121f4565b526106ea828060a01b036106cf838a516121f4565b51166106d9612109565b6106e3848d6121f4565b51916123c1565b016105cf565b6020823d821161071d575b8161070860209383611e37565b81010312610719576001915061067d565b5f80fd5b3d91506106fb565b6040513d85823e3d90fd5b825187526020968701968996508a94509092019160019091019061065e565b50826107df8861075e8361221c565b6107678261225f565b907f3e3e7958121b3e39c7a49392d1aa9cdce870c2a059744f9e15cf66fff78654558680a36107958361221c565b9261079f8261225f565b946040519586957f3e3e7958121b3e39c7a49392d1aa9cdce870c2a059744f9e15cf66fff78654558380a35f51602061244f5f395f51905f525d83611edd565b0390f35b82356001600160401b03811161086757820185603f820112156108675760208101359061080f82611e58565b9161081d6040519384611e37565b8083526020808085019260051b840101019188831161086357604001905b828210610853575050508152602092830192016105a2565b813581526020918201910161083b565b8d80fd5b8a80fd5b8880fd5b8580fd5b8680fd5b8135815260209182019101610539565b8480fd5b634e487b7160e01b85526041600452602485fd5b8280fd5b631184b31b60e21b835233600452602483fd5b90506020813d6020116108e8575b816108d160209383611e37565b810103126103b1576108e2906120f5565b5f61043e565b3d91506108c4565b503461021a578060031936011261021a576040517f00000000000000000000000000000000000000000000000000000000000000006001600160a01b03168152602090f35b503461021a578060031936011261021a5761012060405161095581611e1b565b8281528260208201528260408201528260608201528260808201528260a0820152606060c0820152606060e082015282610100820152015260405161099981611e1b565b6001546001600160a01b03908116825260025481166020830190815260035490911660408301908152600454606084019081526005546080850190815260065460a08601908152939493919291610a9a9190610a86906109f7611f58565b9060c08801918252610a0761203a565b60e089810191825260095460ff1615156101008b01908152600a546101208c019081526040805160208082529d516001600160a01b039081169e82019e909e529d518d16908e01529851909a1660608c0152975160808b0152935160a08a01525160c08901525161014095880195909552869594610160870190611d81565b9051858203601f1901610100870152611d81565b91511515610120840152516101408301520390f35b503461021a57608036600319011261021a57600435610acc611e05565b906044356001600160401b0381116103b157610aec903690600401611da5565b90926064356001600160401b03811161086f57610b0d903690600401611da5565b90610b16612299565b15610cd25786939291610b2891612370565b604051632d182be560e21b81526004810185905230602482018190526044820152602081606481877f00000000000000000000000000000000000000000000000000000000000000006001600160a01b03165af180156103bd57610ca3575b5060035460405163095ea7b360e01b81529060209082906001600160a01b0316818781610bb88b896004840161218f565b03925af180156103bd57610c86575b506001600160a01b031693843b1561089f5781606484926040519485938492632db6d39960e01b845289600485015260406024850152816044850152848401378181018301859052601f01601f1916810103018183885af1801561037857610c71575b505060035460405130927f9f784fc02a186f1c98b2d9f15fda084da27cdd291a3785d978f91911d880516b928291610c6b916001600160a01b03168361218f565b0390a380f35b81610c7b91611e37565b61089f57825f610c2a565b610c9e9060203d602011610371576103638183611e37565b610bc7565b610cc49060203d602011610ccb575b610cbc8183611e37565b8101906120e6565b505f610b87565b503d610cb2565b631564c0e160e11b875233600452602487fd5b503461021a578060031936011261021a576020600a54604051908152f35b503461021a578060031936011261021a576040517f00000000000000000000000000000000000000000000000000000000000000006001600160a01b03168152602090f35b503461021a578060031936011261021a576020600654604051908152f35b503461021a57602036600319011261021a57600435610d83612299565b15610dba576020817fb6ac66853c4e59c71e118d25ab494bb847c4e5eb0c8894898c5343e6f61afc1292600655604051908152a180f35b631564c0e160e11b825233600452602482fd5b503461021a578060031936011261021a57610de6612299565b1561028e573360018060a01b031960015416176001557f55489ce0259bd691120d8860861be1c401c7c16a3cd268d21045756af4ecc5ca6020604051338152a180f35b503461021a57602036600319011261021a57600435610e46612299565b15610dba576020817f333b26cca69716ad4680ddb07663f5bfb4f06045671f336af9a83690a3ae00f992600455604051908152a180f35b503461021a578060031936011261021a57604051637aaceb9560e01b8152906020826004817f00000000000000000000000000000000000000000000000000000000000000006001600160a01b03165afa9081156102255780916101e5576040516001600160a01b0383168152602090f35b503461021a578060031936011261021a576001546002546003546004546005546006546001600160a01b0394851695851694929390921691610f8f9190610f8190610f38611f58565b90610f4161203a565b9360ff6009541697600a54976040519b8c9b8c5260208c015260408b015260608a0152608089015260a088015261014060c0880152610140870190611d81565b9085820360e0870152611d81565b9115156101008401526101208301520390f35b5034610719576020366003190112610719576004356001600160401b03811161071957610fd3903690600401611e6f565b604051628bec5760e51b8152602081600481305afa90811561139b575f91611555575b506001600160a01b031633036115425761100e61233b565b61101881516121c2565b9061102381516121c2565b9160018060a01b03600354166040516370a0823160e01b8152306004820152602081602481855afa90811561139b575f91611510575b5061122a575b50835b82518110156111d15760249060206001600160a01b0361108283876121f4565b5116604051938480926370a0823160e01b82523060048301525afa9182156111c6578692611193575b50816110bc575b6001915001611062565b6001600160a01b036110ce82866121f4565b51169160246110db612109565b9360206001600160a01b036110f0868a6121f4565b5116604051938480926370a0823160e01b82523060048301525afa918215611188578992611154575b5090600194611127926123c1565b828060a01b0361113783876121f4565b511661114383866121f4565b5261114e82876121f4565b526110b2565b91506020823d8211611180575b8161116e60209383611e37565b81010312610719579051906001611119565b3d9150611161565b6040513d8b823e3d90fd5b9091506020813d82116111be575b816111ae60209383611e37565b810103126107195751905f6110ab565b3d91506111a1565b6040513d88823e3d90fd5b84826107df866111e08361221c565b926111ea8261225f565b946040519586957f46b8771620f6acf56cb03d3e835ea8024c7dcbcf05fcc3f6ade9e19d1a3e212b8380a35f51602061244f5f395f51905f525d83611edd565b6001546040516330fe427560e21b81529060a090829060049082906001600160a01b03165afa90811561139b575f9161147e575b50516040516370a0823160e01b81523060048201526001600160a01b039091169190602081602481855afa90811561139b575f9161144c575b5060205f604051926112cc846112be8582019363095ea7b360e01b8552896024840161218f565b03601f198101865285611e37565b83519082865af15f513d82611430575b5050156113ec575b50506003546040516370a0823160e01b815230600482015290602090829060249082906001600160a01b03165afa90811561139b575f916113ba575b50604051602081018181106001600160401b038211176113a6576040525f8152823b1561071957611377925f9283604051809681958294632db6d39960e01b84526004840152604060248401526044830190611d81565b03925af1801561139b571561105f576113939194505f90611e37565b5f925f61105f565b6040513d5f823e3d90fd5b634e487b7160e01b5f52604160045260245ffd5b90506020813d6020116113e4575b816113d560209383611e37565b8101031261071957515f611320565b3d91506113c8565b6114299161142460405163095ea7b360e01b60208201528560248201525f60448201526044815261141e606482611e37565b826123f6565b6123f6565b5f806112e4565b9091506114445750813b15155b5f806112dc565b60011461143d565b90506020813d602011611476575b8161146760209383611e37565b8101031261071957515f611297565b3d915061145a565b905060a0813d60a011611508575b8161149960a09383611e37565b81010312610719576040519060a082018281106001600160401b038211176113a65760405280516001600160a01b0381168103610719576114fd916080918452602081015160208501526040810151604085015260608101516060850152016120f5565b60808201525f61125e565b3d915061148c565b90506020813d60201161153a575b8161152b60209383611e37565b8101031261071957515f611059565b3d915061151e565b631184b31b60e21b5f523360045260245ffd5b90506020813d602011611587575b8161157060209383611e37565b8101031261071957611581906120f5565b5f610ff6565b3d9150611563565b34610719576040366003190112610719576004356003811015610719576020906115b7611e05565b604051908382019260f81b835260018060601b03199060601b166021820152601581526115e5603582611e37565b519020604051908152f35b346107195760203660031901126107195760043561160c612299565b15611642576020817ffbe2d5c01ea8ba5596d6c4e6c82c6d4a0a0ee1128689993a4a5ba0169273d69f92600555604051908152a1005b631564c0e160e11b5f523360045260245ffd5b34610719575f366003190112610719576040516361d027b360e01b81526020816004817f00000000000000000000000000000000000000000000000000000000000000006001600160a01b03165afa801561139b575f906116c6575b6040516001600160a01b039091168152602090f35b506020813d6020116116f8575b816116e060209383611e37565b81010312610719576116f36020916120f5565b6116b1565b3d91506116d3565b34610719575f36600319011261071957604051635b0f83f360e01b81526020816004817f00000000000000000000000000000000000000000000000000000000000000006001600160a01b03165afa801561139b575f906116c6576040516001600160a01b039091168152602090f35b346107195760203660031901126107195760043561178c612299565b15611642576020817fd3c6d0ab315f2f1352f036cd9f401b49e38e1b90907e195225e8105f9a0b6f0292600a55604051908152a1005b34610719575f366003190112610719576003546040516001600160a01b039091168152602090f35b34610719575f366003190112610719576001546040516001600160a01b039091168152602090f35b34610719575f366003190112610719576020600554604051908152f35b34610719575f36600319011261071957602060ff600954166040519015158152f35b346107195761185f36611dd2565b61186761233b565b604051631b93849b60e11b8152602081600481305afa90811561139b575f91611aec575b50611894612299565b15611a0a575b506118a491612370565b6003546040516323b872dd60e01b6020820152336024820152306044820152606480820184905281526118e5916001600160a01b0316611424608483611e37565b60035460405163095ea7b360e01b8152906001600160a01b037f0000000000000000000000000000000000000000000000000000000000000000811691602091849116815f8161193989886004840161218f565b03925af190811561139b575f926020926119ef575b50604460405180948193636e553f6560e01b83528760048401523060248401525af1801561139b576119d0575b5060035460405133927fcbaa1442ac205415c9d69643e7b60ec73d1de35dbc807c21ec288c70ddc4207b9282916119bb916001600160a01b03168361218f565b0390a25f5f51602061244f5f395f51905f525d005b6119e89060203d602011610ccb57610cbc8183611e37565b508161197b565b611a0590833d8511610371576103638183611e37565b61194e565b604051628bec5760e51b8152602081600481305afa90811561139b575f91611ab2575b506001600160a01b0316331461189a5760405163d25dd10160e01b815233600482015290602090829060249082906001600160a01b03165afa90811561139b575f91611a93575b5015611a80578361189a565b638f7a567d60e01b5f523360045260245ffd5b611aac915060203d602011610371576103638183611e37565b84611a74565b90506020813d602011611ae4575b81611acd60209383611e37565b8101031261071957611ade906120f5565b85611a2d565b3d9150611ac0565b90506020813d602011611b1e575b81611b0760209383611e37565b8101031261071957611b18906120f5565b8461188b565b3d9150611afa565b3461071957611b3436611dd2565b611b3c612299565b1561164257611b5291611b4d61233b565b612370565b604051632d182be560e21b815260048101829052306024820181905260448201526020816064815f7f00000000000000000000000000000000000000000000000000000000000000006001600160a01b03165af1801561139b57611c0a575b50600354611bcb90829033906001600160a01b03166123c1565b60035460405133927fd5e872c5ecfb1bb8820b2e6a20e31b883682282da886621541f71e31ec11947e9282916119bb916001600160a01b03168361218f565b611c229060203d602011610ccb57610cbc8183611e37565b5081611bb1565b34610719575f366003190112610719576020611c43612109565b6040516001600160a01b039091168152f35b34610719575f366003190112610719576107df611c70611f58565b604051918291602083526020830190611d81565b34610719575f366003190112610719576370a0823160e01b81523060048201527f00000000000000000000000000000000000000000000000000000000000000006001600160a01b031690602081602481855afa801561139b575f90611d4e575b602091506024604051809481936303d1689d60e11b835260048301525afa801561139b575f90611d1b575b602090604051908152f35b506020813d602011611d46575b81611d3560209383611e37565b810103126107195760209051611d10565b3d9150611d28565b506020813d602011611d79575b81611d6860209383611e37565b810103126107195760209051611ce5565b3d9150611d5b565b805180835260209291819084018484015e5f828201840152601f01601f1916010190565b9181601f84011215610719578235916001600160401b038311610719576020838186019501011161071957565b9060406003198301126107195760043591602435906001600160401b03821161071957611e0191600401611da5565b9091565b602435906001600160a01b038216820361071957565b61014081019081106001600160401b038211176113a657604052565b90601f801991011681019081106001600160401b038211176113a657604052565b6001600160401b0381116113a65760051b60200190565b9080601f8301121561071957813590611e8782611e58565b92611e956040519485611e37565b82845260208085019360051b82010191821161071957602001915b818310611ebd5750505090565b82356001600160a01b038116810361071957815260209283019201611eb0565b604081016040825282518091526020606083019301905f5b818110611f39575050506020818303910152602080835192838152019201905f5b818110611f235750505090565b8251845260209384019390920191600101611f16565b82516001600160a01b0316855260209485019490920191600101611ef5565b604051905f6007548060011c9160018216918215612030575b60208410831461201c578386528592908115611ffd5750600114611f9e575b611f9c92500383611e37565b565b5060075f90815290917fa66cc928b5edb82af9bd49922954155ab7b0942694bea4ce44661d9a8736c6885b818310611fe1575050906020611f9c92820101611f90565b6020919350806001915483858901015201910190918492611fc9565b60209250611f9c94915060ff191682840152151560051b820101611f90565b634e487b7160e01b5f52602260045260245ffd5b92607f1692611f71565b604051905f6008548060011c91600182169182156120dc575b60208410831461201c578386528592908115611ffd575060011461207d57611f9c92500383611e37565b5060085f90815290917ff3f7a9fe364faab93b216da50a3214154f22a0a2b415b23a84c8169e8b636ee35b8183106120c0575050906020611f9c92820101611f90565b60209193508060019154838589010152019101909184926120a8565b92607f1692612053565b90816020910312610719575190565b51906001600160a01b038216820361071957565b604051628bec5760e51b81526020816004817f00000000000000000000000000000000000000000000000000000000000000006001600160a01b03165afa90811561139b575f91612158575090565b90506020813d602011612187575b8161217360209383611e37565b8101031261071957612184906120f5565b90565b3d9150612166565b6001600160a01b039091168152602081019190915260400190565b90816020910312610719575180151581036107195790565b906121cc82611e58565b6121d96040519182611e37565b82815280926121ea601f1991611e58565b0190602036910137565b80518210156122085760209160051b010190565b634e487b7160e01b5f52603260045260245ffd5b6040518091829160208251919201905f5b81811061223d5750505003902090565b82516001600160a01b031684528594506020938401939092019160010161222d565b6040518091829160208251919201905f5b8181106122805750505003902090565b8251845285945060209384019390920191600101612270565b5f54604051600160f91b60208083019182526001600160601b03193060601b1660218401526015835261230d9390926001600160a01b0390911691906122e0603582611e37565b519020604051632474521560e21b8152600481019190915233602482015292839190829081906044820190565b03915afa90811561139b575f91612322575090565b612184915060203d602011610371576103638183611e37565b5f51602061244f5f395f51905f525c6123615760015f51602061244f5f395f51905f525d565b633ee5aeb560e01b5f5260045ffd5b50158015806123b4575b6123a55780612399575b61238a57565b63332863a960e11b5f5260045ffd5b5060ff60095416612384565b630cd0fdf960e01b5f5260045ffd5b5060ff600954161561237a565b611424611f9c93926123e860405194859263a9059cbb60e01b60208501526024840161218f565b03601f198101845283611e37565b905f602091828151910182855af11561139b575f513d61244557506001600160a01b0381163b155b6124255750565b635274afe760e01b5f9081526001600160a01b0391909116600452602490fd5b6001141561241e56fe9b779b17422d0df92223018b32b4d1fa46e071723d6817e2486d003becc55f00a26469706673582212205601d0831b41a7104b007ebd7a1788779581967debb36c9365b3dd631720173564736f6c634300081c0033",
  "linkReferences": {},
  "deployedLinkReferences": {}
}