{
  "_format": "hh-sol-artifact-1",
  "contractName": "MoonwellArk",
  "sourceName": "src/contracts/arks/MoonwellArk.sol",
  "abi": [
    {
      "inputs": [
        {
          "internalType": "address",
          "name": "_mToken",
          "type": "address"
        },
        {
          "components": [
            {
              "internalType": "string",
              "name": "name",
              "type": "string"
            },
            {
              "internalType": "string",
              "name": "details",
              "type": "string"
            },
            {
              "internalType": "address",
              "name": "accessManager",
              "type": "address"
            },
            {
              "internalType": "address",
              "name": "configurationManager",
              "type": "address"
            },
            {
              "internalType": "address",
              "name": "asset",
              "type": "address"
            },
            {
              "internalType": "uint256",
              "name": "depositCap",
              "type": "uint256"
            },
            {
              "internalType": "uint256",
              "name": "maxRebalanceOutflow",
              "type": "uint256"
            },
            {
              "internalType": "uint256",
              "name": "maxRebalanceInflow",
              "type": "uint256"
            },
            {
              "internalType": "bool",
              "name": "requiresKeeperData",
              "type": "bool"
            },
            {
              "internalType": "Percentage",
              "name": "maxDepositPercentageOfTVL",
              "type": "uint256"
            }
          ],
          "internalType": "struct ArkParams",
          "name": "_params",
          "type": "tuple"
        }
      ],
      "stateMutability": "nonpayable",
      "type": "constructor"
    },
    {
      "inputs": [
        {
          "internalType": "address",
          "name": "caller",
          "type": "address"
        }
      ],
      "name": "CallerIsNotAdmin",
      "type": "error"
    },
    {
      "inputs": [
        {
          "internalType": "address",
          "name": "caller",
          "type": "address"
        }
      ],
      "name": "CallerIsNotAuthorizedToBoard",
      "type": "error"
    },
    {
      "inputs": [
        {
          "internalType": "address",
          "name": "caller",
          "type": "address"
        }
      ],
      "name": "CallerIsNotCommander",
      "type": "error"
    },
    {
      "inputs": [
        {
          "internalType": "address",
          "name": "caller",
          "type": "address"
        },
        {
          "internalType": "bytes32",
          "name": "role",
          "type": "bytes32"
        }
      ],
      "name": "CallerIsNotContractSpecificRole",
      "type": "error"
    },
    {
      "inputs": [
        {
          "internalType": "address",
          "name": "caller",
          "type": "address"
        }
      ],
      "name": "CallerIsNotCurator",
      "type": "error"
    },
    {
      "inputs": [
        {
          "internalType": "address",
          "name": "caller",
          "type": "address"
        }
      ],
      "name": "CallerIsNotDecayController",
      "type": "error"
    },
    {
      "inputs": [
        {
          "internalType": "address",
          "name": "caller",
          "type": "address"
        }
      ],
      "name": "CallerIsNotFoundation",
      "type": "error"
    },
    {
      "inputs": [
        {
          "internalType": "address",
          "name": "caller",
          "type": "address"
        }
      ],
      "name": "CallerIsNotGovernor",
      "type": "error"
    },
    {
      "inputs": [
        {
          "internalType": "address",
          "name": "caller",
          "type": "address"
        }
      ],
      "name": "CallerIsNotGuardian",
      "type": "error"
    },
    {
      "inputs": [
        {
          "internalType": "address",
          "name": "caller",
          "type": "address"
        }
      ],
      "name": "CallerIsNotGuardianOrGovernor",
      "type": "error"
    },
    {
      "inputs": [
        {
          "internalType": "address",
          "name": "caller",
          "type": "address"
        }
      ],
      "name": "CallerIsNotKeeper",
      "type": "error"
    },
    {
      "inputs": [
        {
          "internalType": "address",
          "name": "caller",
          "type": "address"
        }
      ],
      "name": "CallerIsNotRaft",
      "type": "error"
    },
    {
      "inputs": [
        {
          "internalType": "address",
          "name": "caller",
          "type": "address"
        }
      ],
      "name": "CallerIsNotRaftOrCommander",
      "type": "error"
    },
    {
      "inputs": [
        {
          "internalType": "address",
          "name": "caller",
          "type": "address"
        }
      ],
      "name": "CallerIsNotSuperKeeper",
      "type": "error"
    },
    {
      "inputs": [],
      "name": "CannotAddCommanderToArkWithCommander",
      "type": "error"
    },
    {
      "inputs": [],
      "name": "CannotDeployArkWithEmptyName",
      "type": "error"
    },
    {
      "inputs": [],
      "name": "CannotDeployArkWithoutConfigurationManager",
      "type": "error"
    },
    {
      "inputs": [],
      "name": "CannotDeployArkWithoutRaft",
      "type": "error"
    },
    {
      "inputs": [],
      "name": "CannotDeployArkWithoutToken",
      "type": "error"
    },
    {
      "inputs": [],
      "name": "CannotRemoveCommanderFromArkWithAssets",
      "type": "error"
    },
    {
      "inputs": [],
      "name": "CannotUseKeeperDataWhenNotRequired",
      "type": "error"
    },
    {
      "inputs": [],
      "name": "ConfigurationManagerZeroAddress",
      "type": "error"
    },
    {
      "inputs": [
        {
          "internalType": "address",
          "name": "caller",
          "type": "address"
        }
      ],
      "name": "DirectGrantIsDisabled",
      "type": "error"
    },
    {
      "inputs": [
        {
          "internalType": "address",
          "name": "caller",
          "type": "address"
        }
      ],
      "name": "DirectRevokeIsDisabled",
      "type": "error"
    },
    {
      "inputs": [],
      "name": "ERC4626AssetMismatch",
      "type": "error"
    },
    {
      "inputs": [],
      "name": "FleetCommanderAlreadyRegistered",
      "type": "error"
    },
    {
      "inputs": [],
      "name": "FleetCommanderNotRegistered",
      "type": "error"
    },
    {
      "inputs": [
        {
          "internalType": "address",
          "name": "invalidAddress",
          "type": "address"
        }
      ],
      "name": "InvalidAccessManagerAddress",
      "type": "error"
    },
    {
      "inputs": [],
      "name": "InvalidBoardData",
      "type": "error"
    },
    {
      "inputs": [],
      "name": "InvalidDisembarkData",
      "type": "error"
    },
    {
      "inputs": [],
      "name": "InvalidMoonwellAddress",
      "type": "error"
    },
    {
      "inputs": [],
      "name": "InvalidVaultAddress",
      "type": "error"
    },
    {
      "inputs": [],
      "name": "KeeperDataRequired",
      "type": "error"
    },
    {
      "inputs": [],
      "name": "MaxDepositPercentageOfTVLTooHigh",
      "type": "error"
    },
    {
      "inputs": [],
      "name": "MoonwellAssetMismatch",
      "type": "error"
    },
    {
      "inputs": [],
      "name": "MoonwellMintFailed",
      "type": "error"
    },
    {
      "inputs": [],
      "name": "MoonwellRedeemFailed",
      "type": "error"
    },
    {
      "inputs": [],
      "name": "MoonwellRedeemUnderlyingFailed",
      "type": "error"
    },
    {
      "inputs": [],
      "name": "ReentrancyGuardReentrantCall",
      "type": "error"
    },
    {
      "inputs": [
        {
          "internalType": "address",
          "name": "token",
          "type": "address"
        }
      ],
      "name": "SafeERC20FailedOperation",
      "type": "error"
    },
    {
      "anonymous": false,
      "inputs": [
        {
          "indexed": true,
          "internalType": "address[]",
          "name": "rewardTokens",
          "type": "address[]"
        },
        {
          "indexed": true,
          "internalType": "uint256[]",
          "name": "rewardAmounts",
          "type": "uint256[]"
        }
      ],
      "name": "ArkHarvested",
      "type": "event"
    },
    {
      "anonymous": false,
      "inputs": [
        {
          "indexed": false,
          "internalType": "uint256",
          "name": "currentPrice",
          "type": "uint256"
        },
        {
          "indexed": false,
          "internalType": "uint256",
          "name": "timestamp",
          "type": "uint256"
        }
      ],
      "name": "ArkPoked",
      "type": "event"
    },
    {
      "anonymous": false,
      "inputs": [
        {
          "indexed": true,
          "internalType": "address[]",
          "name": "sweptTokens",
          "type": "address[]"
        },
        {
          "indexed": true,
          "internalType": "uint256[]",
          "name": "sweptAmounts",
          "type": "uint256[]"
        }
      ],
      "name": "ArkSwept",
      "type": "event"
    },
    {
      "anonymous": false,
      "inputs": [
        {
          "indexed": true,
          "internalType": "address",
          "name": "commander",
          "type": "address"
        },
        {
          "indexed": false,
          "internalType": "address",
          "name": "token",
          "type": "address"
        },
        {
          "indexed": false,
          "internalType": "uint256",
          "name": "amount",
          "type": "uint256"
        }
      ],
      "name": "Boarded",
      "type": "event"
    },
    {
      "anonymous": false,
      "inputs": [
        {
          "indexed": false,
          "internalType": "uint256",
          "name": "newCap",
          "type": "uint256"
        }
      ],
      "name": "DepositCapUpdated",
      "type": "event"
    },
    {
      "anonymous": false,
      "inputs": [
        {
          "indexed": true,
          "internalType": "address",
          "name": "commander",
          "type": "address"
        },
        {
          "indexed": false,
          "internalType": "address",
          "name": "token",
          "type": "address"
        },
        {
          "indexed": false,
          "internalType": "uint256",
          "name": "amount",
          "type": "uint256"
        }
      ],
      "name": "Disembarked",
      "type": "event"
    },
    {
      "anonymous": false,
      "inputs": [
        {
          "indexed": false,
          "internalType": "address",
          "name": "commander",
          "type": "address"
        }
      ],
      "name": "FleetCommanderRegistered",
      "type": "event"
    },
    {
      "anonymous": false,
      "inputs": [
        {
          "indexed": false,
          "internalType": "address",
          "name": "commander",
          "type": "address"
        }
      ],
      "name": "FleetCommanderUnregistered",
      "type": "event"
    },
    {
      "anonymous": false,
      "inputs": [
        {
          "indexed": false,
          "internalType": "Percentage",
          "name": "newMaxDepositPercentageOfTVL",
          "type": "uint256"
        }
      ],
      "name": "MaxDepositPercentageOfTVLUpdated",
      "type": "event"
    },
    {
      "anonymous": false,
      "inputs": [
        {
          "indexed": false,
          "internalType": "uint256",
          "name": "newMaxInflow",
          "type": "uint256"
        }
      ],
      "name": "MaxRebalanceInflowUpdated",
      "type": "event"
    },
    {
      "anonymous": false,
      "inputs": [
        {
          "indexed": false,
          "internalType": "uint256",
          "name": "newMaxOutflow",
          "type": "uint256"
        }
      ],
      "name": "MaxRebalanceOutflowUpdated",
      "type": "event"
    },
    {
      "anonymous": false,
      "inputs": [
        {
          "indexed": true,
          "internalType": "address",
          "name": "from",
          "type": "address"
        },
        {
          "indexed": true,
          "internalType": "address",
          "name": "to",
          "type": "address"
        },
        {
          "indexed": false,
          "internalType": "address",
          "name": "token",
          "type": "address"
        },
        {
          "indexed": false,
          "internalType": "uint256",
          "name": "amount",
          "type": "uint256"
        }
      ],
      "name": "Moved",
      "type": "event"
    },
    {
      "anonymous": false,
      "inputs": [
        {
          "indexed": false,
          "internalType": "address",
          "name": "newRaft",
          "type": "address"
        }
      ],
      "name": "RaftUpdated",
      "type": "event"
    },
    {
      "inputs": [],
      "name": "ADMIRALS_QUARTERS_ROLE",
      "outputs": [
        {
          "internalType": "bytes32",
          "name": "",
          "type": "bytes32"
        }
      ],
      "stateMutability": "view",
      "type": "function"
    },
    {
      "inputs": [],
      "name": "DECAY_CONTROLLER_ROLE",
      "outputs": [
        {
          "internalType": "bytes32",
          "name": "",
          "type": "bytes32"
        }
      ],
      "stateMutability": "view",
      "type": "function"
    },
    {
      "inputs": [],
      "name": "GOVERNOR_ROLE",
      "outputs": [
        {
          "internalType": "bytes32",
          "name": "",
          "type": "bytes32"
        }
      ],
      "stateMutability": "view",
      "type": "function"
    },
    {
      "inputs": [],
      "name": "GUARDIAN_ROLE",
      "outputs": [
        {
          "internalType": "bytes32",
          "name": "",
          "type": "bytes32"
        }
      ],
      "stateMutability": "view",
      "type": "function"
    },
    {
      "inputs": [],
      "name": "SUPER_KEEPER_ROLE",
      "outputs": [
        {
          "internalType": "bytes32",
          "name": "",
          "type": "bytes32"
        }
      ],
      "stateMutability": "view",
      "type": "function"
    },
    {
      "inputs": [],
      "name": "asset",
      "outputs": [
        {
          "internalType": "contract IERC20",
          "name": "",
          "type": "address"
        }
      ],
      "stateMutability": "view",
      "type": "function"
    },
    {
      "inputs": [
        {
          "internalType": "address",
          "name": "user",
          "type": "address"
        }
      ],
      "name": "balanceOfUnderlyingWithInterest",
      "outputs": [
        {
          "internalType": "uint256",
          "name": "",
          "type": "uint256"
        }
      ],
      "stateMutability": "view",
      "type": "function"
    },
    {
      "inputs": [
        {
          "internalType": "uint256",
          "name": "amount",
          "type": "uint256"
        },
        {
          "internalType": "bytes",
          "name": "boardData",
          "type": "bytes"
        }
      ],
      "name": "board",
      "outputs": [],
      "stateMutability": "nonpayable",
      "type": "function"
    },
    {
      "inputs": [],
      "name": "commander",
      "outputs": [
        {
          "internalType": "address",
          "name": "",
          "type": "address"
        }
      ],
      "stateMutability": "view",
      "type": "function"
    },
    {
      "inputs": [],
      "name": "comptroller",
      "outputs": [
        {
          "internalType": "contract IComptroller",
          "name": "",
          "type": "address"
        }
      ],
      "stateMutability": "view",
      "type": "function"
    },
    {
      "inputs": [],
      "name": "config",
      "outputs": [
        {
          "internalType": "address",
          "name": "commander",
          "type": "address"
        },
        {
          "internalType": "address",
          "name": "raft",
          "type": "address"
        },
        {
          "internalType": "contract IERC20",
          "name": "asset",
          "type": "address"
        },
        {
          "internalType": "uint256",
          "name": "depositCap",
          "type": "uint256"
        },
        {
          "internalType": "uint256",
          "name": "maxRebalanceOutflow",
          "type": "uint256"
        },
        {
          "internalType": "uint256",
          "name": "maxRebalanceInflow",
          "type": "uint256"
        },
        {
          "internalType": "string",
          "name": "name",
          "type": "string"
        },
        {
          "internalType": "string",
          "name": "details",
          "type": "string"
        },
        {
          "internalType": "bool",
          "name": "requiresKeeperData",
          "type": "bool"
        },
        {
          "internalType": "Percentage",
          "name": "maxDepositPercentageOfTVL",
          "type": "uint256"
        }
      ],
      "stateMutability": "view",
      "type": "function"
    },
    {
      "inputs": [],
      "name": "configurationManager",
      "outputs": [
        {
          "internalType": "contract IConfigurationManager",
          "name": "",
          "type": "address"
        }
      ],
      "stateMutability": "view",
      "type": "function"
    },
    {
      "inputs": [],
      "name": "depositCap",
      "outputs": [
        {
          "internalType": "uint256",
          "name": "",
          "type": "uint256"
        }
      ],
      "stateMutability": "view",
      "type": "function"
    },
    {
      "inputs": [],
      "name": "details",
      "outputs": [
        {
          "internalType": "string",
          "name": "",
          "type": "string"
        }
      ],
      "stateMutability": "view",
      "type": "function"
    },
    {
      "inputs": [
        {
          "internalType": "uint256",
          "name": "amount",
          "type": "uint256"
        },
        {
          "internalType": "bytes",
          "name": "disembarkData",
          "type": "bytes"
        }
      ],
      "name": "disembark",
      "outputs": [],
      "stateMutability": "nonpayable",
      "type": "function"
    },
    {
      "inputs": [],
      "name": "fleetCommanderRewardsManagerFactory",
      "outputs": [
        {
          "internalType": "address",
          "name": "",
          "type": "address"
        }
      ],
      "stateMutability": "view",
      "type": "function"
    },
    {
      "inputs": [
        {
          "internalType": "enum ContractSpecificRoles",
          "name": "roleName",
          "type": "uint8"
        },
        {
          "internalType": "address",
          "name": "roleTargetContract",
          "type": "address"
        }
      ],
      "name": "generateRole",
      "outputs": [
        {
          "internalType": "bytes32",
          "name": "",
          "type": "bytes32"
        }
      ],
      "stateMutability": "pure",
      "type": "function"
    },
    {
      "inputs": [],
      "name": "getConfig",
      "outputs": [
        {
          "components": [
            {
              "internalType": "address",
              "name": "commander",
              "type": "address"
            },
            {
              "internalType": "address",
              "name": "raft",
              "type": "address"
            },
            {
              "internalType": "contract IERC20",
              "name": "asset",
              "type": "address"
            },
            {
              "internalType": "uint256",
              "name": "depositCap",
              "type": "uint256"
            },
            {
              "internalType": "uint256",
              "name": "maxRebalanceOutflow",
              "type": "uint256"
            },
            {
              "internalType": "uint256",
              "name": "maxRebalanceInflow",
              "type": "uint256"
            },
            {
              "internalType": "string",
              "name": "name",
              "type": "string"
            },
            {
              "internalType": "string",
              "name": "details",
              "type": "string"
            },
            {
              "internalType": "bool",
              "name": "requiresKeeperData",
              "type": "bool"
            },
            {
              "internalType": "Percentage",
              "name": "maxDepositPercentageOfTVL",
              "type": "uint256"
            }
          ],
          "internalType": "struct ArkConfig",
          "name": "",
          "type": "tuple"
        }
      ],
      "stateMutability": "view",
      "type": "function"
    },
    {
      "inputs": [],
      "name": "harborCommand",
      "outputs": [
        {
          "internalType": "address",
          "name": "",
          "type": "address"
        }
      ],
      "stateMutability": "view",
      "type": "function"
    },
    {
      "inputs": [
        {
          "internalType": "bytes",
          "name": "additionalData",
          "type": "bytes"
        }
      ],
      "name": "harvest",
      "outputs": [
        {
          "internalType": "address[]",
          "name": "rewardTokens",
          "type": "address[]"
        },
        {
          "internalType": "uint256[]",
          "name": "rewardAmounts",
          "type": "uint256[]"
        }
      ],
      "stateMutability": "nonpayable",
      "type": "function"
    },
    {
      "inputs": [
        {
          "internalType": "address",
          "name": "account",
          "type": "address"
        }
      ],
      "name": "hasAdmiralsQuartersRole",
      "outputs": [
        {
          "internalType": "bool",
          "name": "",
          "type": "bool"
        }
      ],
      "stateMutability": "view",
      "type": "function"
    },
    {
      "inputs": [],
      "name": "mToken",
      "outputs": [
        {
          "internalType": "contract IMToken",
          "name": "",
          "type": "address"
        }
      ],
      "stateMutability": "view",
      "type": "function"
    },
    {
      "inputs": [],
      "name": "maxDepositPercentageOfTVL",
      "outputs": [
        {
          "internalType": "Percentage",
          "name": "",
          "type": "uint256"
        }
      ],
      "stateMutability": "view",
      "type": "function"
    },
    {
      "inputs": [],
      "name": "maxRebalanceInflow",
      "outputs": [
        {
          "internalType": "uint256",
          "name": "",
          "type": "uint256"
        }
      ],
      "stateMutability": "view",
      "type": "function"
    },
    {
      "inputs": [],
      "name": "maxRebalanceOutflow",
      "outputs": [
        {
          "internalType": "uint256",
          "name": "",
          "type": "uint256"
        }
      ],
      "stateMutability": "view",
      "type": "function"
    },
    {
      "inputs": [
        {
          "internalType": "uint256",
          "name": "amount",
          "type": "uint256"
        },
        {
          "internalType": "address",
          "name": "receiverArk",
          "type": "address"
        },
        {
          "internalType": "bytes",
          "name": "boardData",
          "type": "bytes"
        },
        {
          "internalType": "bytes",
          "name": "disembarkData",
          "type": "bytes"
        }
      ],
      "name": "move",
      "outputs": [],
      "stateMutability": "nonpayable",
      "type": "function"
    },
    {
      "inputs": [],
      "name": "name",
      "outputs": [
        {
          "internalType": "string",
          "name": "",
          "type": "string"
        }
      ],
      "stateMutability": "view",
      "type": "function"
    },
    {
      "inputs": [],
      "name": "raft",
      "outputs": [
        {
          "internalType": "address",
          "name": "",
          "type": "address"
        }
      ],
      "stateMutability": "view",
      "type": "function"
    },
    {
      "inputs": [],
      "name": "registerFleetCommander",
      "outputs": [],
      "stateMutability": "nonpayable",
      "type": "function"
    },
    {
      "inputs": [],
      "name": "requiresKeeperData",
      "outputs": [
        {
          "internalType": "bool",
          "name": "",
          "type": "bool"
        }
      ],
      "stateMutability": "view",
      "type": "function"
    },
    {
      "inputs": [],
      "name": "rewardDistributor",
      "outputs": [
        {
          "internalType": "contract IRewardDistributor",
          "name": "",
          "type": "address"
        }
      ],
      "stateMutability": "view",
      "type": "function"
    },
    {
      "inputs": [
        {
          "internalType": "uint256",
          "name": "newDepositCap",
          "type": "uint256"
        }
      ],
      "name": "setDepositCap",
      "outputs": [],
      "stateMutability": "nonpayable",
      "type": "function"
    },
    {
      "inputs": [
        {
          "internalType": "Percentage",
          "name": "newMaxDepositPercentageOfTVL",
          "type": "uint256"
        }
      ],
      "name": "setMaxDepositPercentageOfTVL",
      "outputs": [],
      "stateMutability": "nonpayable",
      "type": "function"
    },
    {
      "inputs": [
        {
          "internalType": "uint256",
          "name": "newMaxRebalanceInflow",
          "type": "uint256"
        }
      ],
      "name": "setMaxRebalanceInflow",
      "outputs": [],
      "stateMutability": "nonpayable",
      "type": "function"
    },
    {
      "inputs": [
        {
          "internalType": "uint256",
          "name": "newMaxRebalanceOutflow",
          "type": "uint256"
        }
      ],
      "name": "setMaxRebalanceOutflow",
      "outputs": [],
      "stateMutability": "nonpayable",
      "type": "function"
    },
    {
      "inputs": [
        {
          "internalType": "address[]",
          "name": "tokens",
          "type": "address[]"
        }
      ],
      "name": "sweep",
      "outputs": [
        {
          "internalType": "address[]",
          "name": "sweptTokens",
          "type": "address[]"
        },
        {
          "internalType": "uint256[]",
          "name": "sweptAmounts",
          "type": "uint256[]"
        }
      ],
      "stateMutability": "nonpayable",
      "type": "function"
    },
    {
      "inputs": [],
      "name": "tipJar",
      "outputs": [
        {
          "internalType": "address",
          "name": "",
          "type": "address"
        }
      ],
      "stateMutability": "view",
      "type": "function"
    },
    {
      "inputs": [],
      "name": "totalAssets",
      "outputs": [
        {
          "internalType": "uint256",
          "name": "assets",
          "type": "uint256"
        }
      ],
      "stateMutability": "view",
      "type": "function"
    },
    {
      "inputs": [],
      "name": "treasury",
      "outputs": [
        {
          "internalType": "address",
          "name": "",
          "type": "address"
        }
      ],
      "stateMutability": "view",
      "type": "function"
    },
    {
      "inputs": [],
      "name": "unregisterFleetCommander",
      "outputs": [],
      "stateMutability": "nonpayable",
      "type": "function"
    },
    {
      "inputs": [],
      "name": "withdrawableTotalAssets",
      "outputs": [
        {
          "internalType": "uint256",
          "name": "",
          "type": "uint256"
        }
      ],
      "stateMutability": "view",
      "type": "function"
    }
  ],
  "bytecode": "0x61012080604052346105c457613a17803803809161001d8285610910565b83398101906040818303126105c45761003581610933565b602082015190916001600160401b0382116105c45701610140818403126105c45760405192610063846108f4565b81516001600160401b0381116105c4578161007f918401610947565b84526020820151906001600160401b0382116105c4576100a0918301610947565b90602084019182526100b460408201610933565b918260408601526100c760608301610933565b948560608201526100da60808401610933565b936080820194855260a08401519460a0830195865260c08501519060c0840191825260e08601519260e08501938452610120610119610100890161099c565b61010087019081529701516101208601908152996001600160a01b03908116911680156108e1576040516301ffc9a760e01b815263261c910560e21b6004820152602081602481855afa9081156105d0575f916108a7575b50156108955760805280156108865760a05280516001600160a01b0316156108775783515115610868576001600160a01b036101ab6109a9565b16156108595768056bc75e2d6310000089511161084a57516001600160a01b03166101d46109a9565b9651915192519351945195511515985196610120604051916101f5836108f4565b5f8084526001600160a01b03919091166020840181905260408401859052606084018690526080840187905260a0840188905260c0840189905260e08401998a5261010084019c8d529190920198895281546001600160a01b031990811690925560018054831690911790556002805490911690911790556003556004556005558051906001600160401b03821161074d5760065490600182811c92168015610840575b602083101461072f5781601f8493116107d2575b50602090601f831160011461076c575f92610761575b50508160011b915f199060031b1c1916176006555b5180519093906001600160401b03811161074d57600754600181811c91168015610743575b602082101461072f57601f81116106cc575b50602094601f8211600114610669579481929394955f9261065e575b50508160011b915f199060031b1c1916176007555b51151560ff8019600854169116176008555160095560018060a01b031680156105835760c0819052604051636f307dc360e01b8152602081600481855afa9081156105d0575f91610624575b506002546001600160a01b0390811691168190036106155760c051604051635fe3b56760e01b815290602090829060049082906001600160a01b03165afa9081156105d0575f916105db575b506001600160a01b031680156105835760208160049260e052604051928380926356610b3560e11b82525afa9081156105d0575f91610592575b506001600160a01b0316801561058357610100526040519060205f81840163095ea7b360e01b81528560248601528119604486015260448552610456606486610910565b84519082855af15f513d82610567575b505015610522575b604051612fa89081610a6f82396080518181816103720152611103015260a05181818161020301528181610a2301528181611251015281816119d301528181611ac2015261251f015260c0518181816104c201528181610be201528181610cb301528181610e9f01528181611d1c01528181611f8e015281816120d1015281816125e4015281816127ff01526129a8015260e0518181816104f80152611a6e0152610100518181816105830152610fc40152f35b61055a61055f936040519063095ea7b360e01b602083015260248201525f604482015260448152610554606482610910565b82610a16565b610a16565b5f808061046e565b90915061057b5750803b15155b5f80610466565b600114610574565b63527fdc7b60e01b5f5260045ffd5b90506020813d6020116105c8575b816105ad60209383610910565b810103126105c4576105be90610933565b5f610412565b5f80fd5b3d91506105a0565b6040513d5f823e3d90fd5b90506020813d60201161060d575b816105f660209383610910565b810103126105c45761060790610933565b5f6103d8565b3d91506105e9565b63f8a36e8760e01b5f5260045ffd5b90506020813d602011610656575b8161063f60209383610910565b810103126105c45761065090610933565b5f61038c565b3d9150610632565b015190505f8061032b565b601f1982169560075f52805f20915f5b8881106106b45750836001959697981061069c575b505050811b01600755610340565b01515f1960f88460031b161c191690555f808061068e565b91926020600181928685015181550194019201610679565b60075f527fa66cc928b5edb82af9bd49922954155ab7b0942694bea4ce44661d9a8736c688601f830160051c81019160208410610725575b601f0160051c01905b81811061071a575061030f565b5f815560010161070d565b9091508190610704565b634e487b7160e01b5f52602260045260245ffd5b90607f16906102fd565b634e487b7160e01b5f52604160045260245ffd5b015190505f806102c3565b60065f9081528281209350601f198516905b8181106107ba57509084600195949392106107a2575b505050811b016006556102d8565b01515f1960f88460031b161c191690555f8080610794565b9293602060018192878601518155019501930161077e565b60065f529091507ff652222313e28459528d920b65115c16c04f3efc82aaedc97be59f3f377c0d3f601f840160051c81019160208510610836575b90601f859493920160051c01905b81811061082857506102ad565b5f815584935060010161081b565b909150819061080d565b91607f1691610299565b634ef9dfe360e01b5f5260045ffd5b633a4f9cdb60e21b5f5260045ffd5b63268c072960e01b5f5260045ffd5b637ff57ef160e11b5f5260045ffd5b63f1634df960e01b5f5260045ffd5b6347bd7c1d60e01b5f5260045260245ffd5b90506020813d6020116108d9575b816108c260209383610910565b810103126105c4576108d39061099c565b5f610171565b3d91506108b5565b6347bd7c1d60e01b5f525f60045260245ffd5b61014081019081106001600160401b0382111761074d57604052565b601f909101601f19168101906001600160401b0382119082101761074d57604052565b51906001600160a01b03821682036105c457565b81601f820112156105c4578051906001600160401b03821161074d576040519261097b601f8401601f191660200185610910565b828452602083830101116105c457815f9260208093018386015e8301015290565b519081151582036105c457565b60a051604051628bec5760e51b815290602090829060049082906001600160a01b03165afa9081156105d0575f916109df575090565b90506020813d602011610a0e575b816109fa60209383610910565b810103126105c457610a0b90610933565b90565b3d91506109ed565b905f602091828151910182855af1156105d0575f513d610a6557506001600160a01b0381163b155b610a455750565b635274afe760e01b5f9081526001600160a01b0391909116600452602490fd5b60011415610a3e56fe60806040526004361015610011575f80fd5b5f5f3560e01c806301e1d114146121c057806306fdde03146121a5578063117d8ae01461217957806313c408f814611f2d57806324ea54f414611ef35780632db6d39914611c63578063303dbaf314611c415780633194549e14611c245780633727093614611bfd57806338d52e0f14611bd55780634fc7fac314611b5f578063526e4b0f14611b3c578063565974d314611b0d5780635b0f83f314611a9d5780635fe3b56714611a5957806361d027b3146119ae57806361f5cd8b1461194457806366e943f11461190a57806369b3054b146118a9578063780469bb1461134d57806379502c551461129c5780637aaceb951461122a57806386651203146111d15780638a8b99761461109a57806392f5e8321461102e578063a89f38a314610ff3578063acc2166a14610fae578063ad5a356f14610f90578063bdcdd88214610f72578063c0b534c214610f37578063c38a6f0b14610c11578063c3b6f93914610bcc578063c3f909d414610a52578063c9c667e314610a0d578063ccc57490146109d2578063ce5c7f6114610428578063d570ee4714610405578063dbd5edc7146103e7578063ebc136d014610308578063ebf311311461029b5763f7e533ec146101dd575f80fd5b34610284578060031936011261028457604051633df94cfb60e21b8152906020826004817f00000000000000000000000000000000000000000000000000000000000000006001600160a01b03165afa90811561028f57809161024f575b6040516001600160a01b0383168152602090f35b90506020823d602011610287575b8161026a602093836122a7565b81010312610284575061027e6020916124f7565b5f61023b565b80fd5b3d915061025d565b604051903d90823e3d90fd5b503461028457806003193601126102845780546001600160a01b03811633036102f9576001600160a01b03191681556040513381527f7cb941d7b1708e5b3bcd35ca960d6c6311188cec18886e5b67630552676b048790602090a180f35b63430da47160e01b8252600482fd5b50346102845760203660031901126102845761032261225f565b604051632474521560e21b81527fb00be3d6a5434b97b328543d1486d56adcb7e74080170d1cdd7e0306c3d9ba3d60048201526001600160a01b03918216602482015290602090829060449082907f0000000000000000000000000000000000000000000000000000000000000000165afa9081156103dc57602092916103af575b506040519015158152f35b6103cf9150823d84116103d5575b6103c781836122a7565b8101906125ac565b5f6103a4565b503d6103bd565b6040513d84823e3d90fd5b50346102845780600319360112610284576020600354604051908152f35b503461028457806003193601126102845760206104206127d0565b604051908152f35b5034610284576020366003190112610284576004356001600160401b0381116109c6576104599036906004016121ff565b5050604051628bec5760e51b8152602081600481305afa9081156103dc578291610994575b506001600160a01b0316330361098157610496612883565b61049e61250b565b60408051906104ad81836122a7565b600182526020820191601f19820136843780517f00000000000000000000000000000000000000000000000000000000000000006001600160a01b031693901561096d5783905284907f00000000000000000000000000000000000000000000000000000000000000006001600160a01b0316803b156109695761055783929183928651948580948193633685ffe760e01b83523060048401528a602484015260448301906122df565b03925af1801561095f57610946575b505080516307e218f960e41b8152600481019290925283826024817f00000000000000000000000000000000000000000000000000000000000000006001600160a01b03165afa91821561093c5784926107e4575b506105c682516126f9565b926105d183516126f9565b94805b84518110156106c4576024906001600160a01b0360206105f4838961272b565b51015116610602828961272b565b5260206001600160a01b0381610618848a61272b565b510151168651938480926370a0823160e01b82523060048301525afa80156106ba578390610684575b6001925080610650838b61272b565b528061065e575b50016105d4565b61067e9085848060a01b036020610675868c61272b565b51015116612909565b5f610657565b506020823d82116106b2575b8161069d602093836122a7565b810103126106ae5760019151610641565b5f80fd5b3d9150610690565b85513d85823e3d90fd5b50919250508091815b8551811015610702576106e0818761272b565b516106ee575b6001016106cd565b926106fa600191612eec565b9390506106e6565b50838593610718610712826126f9565b916126f9565b918493855b875181101561078857610730818961272b565b5161073e575b60010161071d565b94600190610780906001600160a01b03610758898761272b565b5116610764828861272b565b5261076f888b61272b565b5161077a828961272b565b52612eec565b959050610736565b50856107e0858561079881612753565b936107a283612796565b95519586957f3e3e7958121b3e39c7a49392d1aa9cdce870c2a059744f9e15cf66fff78654558380a35f516020612f535f395f51905f525d8361231b565b0390f35b9091503d8085833e6107f681836122a7565b810190602081830312610934578051906001600160401b038211610938570181601f820112156109345780519061082c826122c8565b92610839855194856122a7565b828452602061012081860194028301019181831161093057602001925b8284106108685750505050905f6105bb565b6101208483031261093057855161012081018181106001600160401b0382111761091c5787526101209160209161089e876124f7565b81526108ab8388016124f7565b8382015288870151898201526108c360608801612ec7565b60608201526108d460808801612edb565b60808201526108e560a08801612ec7565b60a08201526108f660c08801612edb565b60c082015260e087015160e0820152610100870151610100820152815201930192610856565b634e487b7160e01b8a52604160045260248afd5b8780fd5b8480fd5b8580fd5b81513d86823e3d90fd5b81610950916122a7565b61095b57835f610566565b8380fd5b83513d84823e3d90fd5b8280fd5b634e487b7160e01b86526032600452602486fd5b631184b31b60e21b815233600452602490fd5b90506020813d6020116109ca575b816109af602093836122a7565b810103126109c6576109c0906124f7565b5f61047e565b5080fd5b3d91506109a2565b503461028457806003193601126102845760206040517f7935bd0ae54bc31f548c14dba4d37c5c64b3f8ca900cb468fb8abd54d5894f558152f35b50346102845780600319360112610284576040517f00000000000000000000000000000000000000000000000000000000000000006001600160a01b03168152602090f35b503461028457806003193601126102845780610120604051610a738161228b565b8281528260208201528260408201528260608201528260808201528260a0820152606060c0820152606060e082015282610100820152015260405190610ab88261228b565b546001600160a01b03908116825260015481166020830190815260025490911660408301908152600354606084019081526004546080850190815260055460a08601908152939493919291610bb79190610ba390610b14612369565b9060c08801918252610b2461244b565b60e089810191825260085460ff1615156101008b019081526009546101208c019081526040805160208082529d516001600160a01b039081169e82019e909e529d518d16908e01529851909a1660608c0152975160808b0152935160a08a01525160c089015251610140958801959095528695946101608701906121db565b9051858203601f19016101008701526121db565b91511515610120840152516101408301520390f35b50346102845780600319360112610284576040517f00000000000000000000000000000000000000000000000000000000000000006001600160a01b03168152602090f35b503461028457608036600319011261028457600435610c2e612275565b6044356001600160401b03811161095b57610c4d9036906004016121ff565b6064939193356001600160401b03811161093857610c6f9036906004016121ff565b86549091906001600160a01b03163303610f245790610c8d916128b8565b610c96306125c4565b8203610e82576040516370a0823160e01b815230600482015285907f00000000000000000000000000000000000000000000000000000000000000006001600160a01b031690602081602481855afa908115610e77578391610e3f575b50906024602092604051948593849263db006a7560e01b845260048401525af1908115610e34578691610e02575b50610df35784905b6002546001600160a01b031693610d41848287612e0a565b6001600160a01b031694853b156109695781606484926040519485938492632db6d39960e01b845289600485015260406024850152816044850152848401378181018301859052601f01601f1916810103018183895af180156103dc57610dde575b5050610dd87f9f784fc02a186f1c98b2d9f15fda084da27cdd291a3785d978f91911d880516b91604051918291309583612591565b0390a380f35b81610de8916122a7565b61095b57835f610da3565b6324c9098760e21b8552600485fd5b90506020813d602011610e2c575b81610e1d602093836122a7565b810103126106ae57515f610d21565b3d9150610e10565b6040513d88823e3d90fd5b919250506020813d602011610e6f575b81610e5c602093836122a7565b810103126106ae57518691906024610cf3565b3d9150610e4f565b6040513d85823e3d90fd5b60405163852a12e360e01b815260048101839052602081602481897f00000000000000000000000000000000000000000000000000000000000000006001600160a01b03165af1908115610e34578691610ef2575b50610ee3578490610d29565b63daea017b60e01b8552600485fd5b90506020813d602011610f1c575b81610f0d602093836122a7565b810103126106ae57515f610ed7565b3d9150610f00565b631564c0e160e11b875233600452602487fd5b503461028457806003193601126102845760206040517f025d8bbf3268be680d2605ebf6da15063b9915615bf1087dab336efc1bf970cb8152f35b50346102845780600319360112610284576020600954604051908152f35b50346102845780600319360112610284576020600554604051908152f35b50346102845780600319360112610284576040517f00000000000000000000000000000000000000000000000000000000000000006001600160a01b03168152602090f35b503461028457806003193601126102845760206040517fb00be3d6a5434b97b328543d1486d56adcb7e74080170d1cdd7e0306c3d9ba3d8152f35b5034610284576020366003190112610284578054600435906001600160a01b03163303611087576020817fb6ac66853c4e59c71e118d25ab494bb847c4e5eb0c8894898c5343e6f61afc1292600555604051908152a180f35b631564c0e160e11b825233600452602482fd5b5034610284578060031936011261028457604051600160f91b602082019081523060601b6001600160601b031916602183015260158252906110dd6035826122a7565b519020604051632474521560e21b815260048101919091523360248201526020816044817f00000000000000000000000000000000000000000000000000000000000000006001600160a01b03165afa9081156103dc5782916111b2575b501561119f5780546001600160a01b038116611190576001600160a01b0319163390811782556040519081527f55489ce0259bd691120d8860861be1c401c7c16a3cd268d21045756af4ecc5ca90602090a180f35b636a79b97d60e11b8252600482fd5b631564c0e160e11b815233600452602490fd5b6111cb915060203d6020116103d5576103c781836122a7565b5f61113b565b5034610284576020366003190112610284578054600435906001600160a01b03163303611087576020817f333b26cca69716ad4680ddb07663f5bfb4f06045671f336af9a83690a3ae00f992600355604051908152a180f35b5034610284578060031936011261028457604051637aaceb9560e01b8152906020826004817f00000000000000000000000000000000000000000000000000000000000000006001600160a01b03165afa90811561028f57809161024f576040516001600160a01b0383168152602090f35b5034610284578060031936011261028457546001546002546003546004546005546001600160a01b039485169585169492939092169161133a919061132c906112e3612369565b906112ec61244b565b9360ff6008541697600954976040519b8c9b8c5260208c015260408b015260608a0152608089015260a088015261014060c08801526101408701906121db565b9085820360e08701526121db565b9115156101008401526101208301520390f35b50346106ae5760203660031901126106ae576004356001600160401b0381116106ae57366023820112156106ae578060040135611389816122c8565b9161139760405193846122a7565b8183526024602084019260051b820101903682116106ae57602401915b818310611889575050604051628bec5760e51b81529050602081600481305afa908115611739575f9161184f575b506001600160a01b0316330361183c576113fa612883565b61140481516126f9565b9061140f81516126f9565b6002545f5460405163c8169aa160e01b81529294926001600160a01b0392831692909160209183916004918391165afa908115611739575f91611802575b506040516370a0823160e01b8152306004820152602081602481865afa908115611739575f916117d0575b501515806117bd575b611647575b5050835b82518110156115ee5760249060206001600160a01b036114aa838761272b565b5116604051938480926370a0823160e01b82523060048301525afa918215610e345786926115bb575b50816114e4575b600191500161148a565b6001600160a01b036114f6828661272b565b511691602461150361250b565b9360206001600160a01b03611518868a61272b565b5116604051938480926370a0823160e01b82523060048301525afa9182156115b057899261157c575b509060019461154f92612909565b828060a01b0361155f838761272b565b511661156b838661272b565b52611576828761272b565b526114da565b91506020823d82116115a8575b81611596602093836122a7565b810103126106ae579051906001611541565b3d9150611589565b6040513d8b823e3d90fd5b9091506020813d82116115e6575b816115d6602093836122a7565b810103126106ae5751905f6114d3565b3d91506115c9565b84826107e0866115fd83612753565b9261160782612796565b946040519586957f46b8771620f6acf56cb03d3e835ea8024c7dcbcf05fcc3f6ade9e19d1a3e212b8380a35f516020612f535f395f51905f525d8361231b565b6040516370a0823160e01b8152306004820152602081602481865afa908115611739575f9161178a575b508161168260209260249486612e0a565b6040516370a0823160e01b81523060048201526001600160a01b0391909116939092839182905afa908115611739575f91611758575b50604051602081018181106001600160401b03821117611744576040525f8152823b156106ae5761170f925f9283604051809681958294632db6d39960e01b845260048401526040602484015260448301906121db565b03925af1801561173957611724575b80611486565b6117319194505f906122a7565b5f925f61171e565b6040513d5f823e3d90fd5b634e487b7160e01b5f52604160045260245ffd5b90506020813d602011611782575b81611773602093836122a7565b810103126106ae57515f6116b8565b3d9150611766565b90506020813d6020116117b5575b816117a5602093836122a7565b810103126106ae57516024611671565b3d9150611798565b50306001600160a01b0382161415611481565b90506020813d6020116117fa575b816117eb602093836122a7565b810103126106ae57515f611478565b3d91506117de565b90506020813d602011611834575b8161181d602093836122a7565b810103126106ae5761182e906124f7565b5f61144d565b3d9150611810565b631184b31b60e21b5f523360045260245ffd5b90506020813d602011611881575b8161186a602093836122a7565b810103126106ae5761187b906124f7565b5f6113e2565b3d915061185d565b82356001600160a01b03811681036106ae578152602092830192016113b4565b346106ae5760403660031901126106ae5760043560038110156106ae576020906118d1612275565b604051908382019260f81b835260018060601b03199060601b166021820152601581526118ff6035826122a7565b519020604051908152f35b346106ae575f3660031901126106ae5760206040517f0d186688925976bbe6755ae984501c8e3e2b103a7af59fd803ab9c6d891ae7e08152f35b346106ae5760203660031901126106ae575f54600435906001600160a01b0316330361199b576020817ffbe2d5c01ea8ba5596d6c4e6c82c6d4a0a0ee1128689993a4a5ba0169273d69f92600455604051908152a1005b631564c0e160e11b5f523360045260245ffd5b346106ae575f3660031901126106ae576040516361d027b360e01b81526020816004817f00000000000000000000000000000000000000000000000000000000000000006001600160a01b03165afa8015611739575f90611a1f575b6040516001600160a01b039091168152602090f35b506020813d602011611a51575b81611a39602093836122a7565b810103126106ae57611a4c6020916124f7565b611a0a565b3d9150611a2c565b346106ae575f3660031901126106ae576040517f00000000000000000000000000000000000000000000000000000000000000006001600160a01b03168152602090f35b346106ae575f3660031901126106ae57604051635b0f83f360e01b81526020816004817f00000000000000000000000000000000000000000000000000000000000000006001600160a01b03165afa8015611739575f90611a1f576040516001600160a01b039091168152602090f35b346106ae575f3660031901126106ae576107e0611b2861244b565b6040519182916020835260208301906121db565b346106ae5760203660031901126106ae576020610420611b5a61225f565b6125c4565b346106ae5760203660031901126106ae575f54600435906001600160a01b0316330361199b5768056bc75e2d631000008111611bc6576020817fd3c6d0ab315f2f1352f036cd9f401b49e38e1b90907e195225e8105f9a0b6f0292600955604051908152a1005b634ef9dfe360e01b5f5260045ffd5b346106ae575f3660031901126106ae576002546040516001600160a01b039091168152602090f35b346106ae575f3660031901126106ae575f546040516001600160a01b039091168152602090f35b346106ae575f3660031901126106ae576020600454604051908152f35b346106ae575f3660031901126106ae57602060ff600854166040519015158152f35b346106ae57611c713661222c565b611c79612883565b604051631b93849b60e11b8152602081600481305afa908115611739575f91611eb9575b506001600160a01b0316338103611de2575b50611cb9916128b8565b60018060a01b036002541690611cff6040516323b872dd60e01b602082015233602482015230604482015282606482015260648152611cf96084826122a7565b83612efa565b60405163140e25ad60e31b8152600481018290526020816024815f7f00000000000000000000000000000000000000000000000000000000000000006001600160a01b03165af1908115611739575f91611db0575b50611da157611d8c7fcbaa1442ac205415c9d69643e7b60ec73d1de35dbc807c21ec288c70ddc4207b91604051918291339583612591565b0390a25f5f516020612f535f395f51905f525d005b632c03530f60e11b5f5260045ffd5b90506020813d602011611dda575b81611dcb602093836122a7565b810103126106ae575183611d54565b3d9150611dbe565b604051628bec5760e51b8152602081600481305afa908115611739575f91611e7f575b506001600160a01b03163314611caf5760206024916040519283809263d206a05960e01b82523360048301525afa908115611739575f91611e60575b5015611e4d5783611caf565b638f7a567d60e01b5f523360045260245ffd5b611e79915060203d6020116103d5576103c781836122a7565b84611e41565b90506020813d602011611eb1575b81611e9a602093836122a7565b810103126106ae57611eab906124f7565b85611e05565b3d9150611e8d565b90506020813d602011611eeb575b81611ed4602093836122a7565b810103126106ae57611ee5906124f7565b84611c9d565b3d9150611ec7565b346106ae575f3660031901126106ae5760206040517f55435dd261a4b9b3364963f7738a7a662ad9c84396d64be3365284bb7f0a50418152f35b346106ae57611f3b3661222c565b5f546001600160a01b0316330361199b57611f5d91611f58612883565b6128b8565b6002546001600160a01b031690611f73306125c4565b81036120b4576040516370a0823160e01b81523060048201527f00000000000000000000000000000000000000000000000000000000000000006001600160a01b031690602081602481855afa908115611739575f91612082575b505f916024602092604051948593849263db006a7560e01b845260048401525af1908115611739575f91612050575b5061204157611d8c7fd5e872c5ecfb1bb8820b2e6a20e31b883682282da886621541f71e31ec11947e915b612033813386612909565b604051918291339583612591565b6324c9098760e21b5f5260045ffd5b90506020813d60201161207a575b8161206b602093836122a7565b810103126106ae575183611ffd565b3d915061205e565b90506020813d6020116120ac575b8161209d602093836122a7565b810103126106ae57515f611fce565b3d9150612090565b60405163852a12e360e01b8152600481018290526020816024815f7f00000000000000000000000000000000000000000000000000000000000000006001600160a01b03165af1908115611739575f91612147575b5061213857611d8c7fd5e872c5ecfb1bb8820b2e6a20e31b883682282da886621541f71e31ec11947e91612028565b63daea017b60e01b5f5260045ffd5b90506020813d602011612171575b81612162602093836122a7565b810103126106ae575183612109565b3d9150612155565b346106ae575f3660031901126106ae57602061219361250b565b6040516001600160a01b039091168152f35b346106ae575f3660031901126106ae576107e0611b28612369565b346106ae575f3660031901126106ae576020610420306125c4565b805180835260209291819084018484015e5f828201840152601f01601f1916010190565b9181601f840112156106ae578235916001600160401b0383116106ae57602083818601950101116106ae57565b9060406003198301126106ae5760043591602435906001600160401b0382116106ae5761225b916004016121ff565b9091565b600435906001600160a01b03821682036106ae57565b602435906001600160a01b03821682036106ae57565b61014081019081106001600160401b0382111761174457604052565b90601f801991011681019081106001600160401b0382111761174457604052565b6001600160401b0381116117445760051b60200190565b90602080835192838152019201905f5b8181106122fc5750505090565b82516001600160a01b03168452602093840193909201916001016122ef565b9061232e906040835260408301906122df565b906020818303910152602080835192838152019201905f5b8181106123535750505090565b8251845260209384019390920191600101612346565b604051905f6006548060011c9160018216918215612441575b60208410831461242d57838652859290811561240e57506001146123af575b6123ad925003836122a7565b565b5060065f90815290917ff652222313e28459528d920b65115c16c04f3efc82aaedc97be59f3f377c0d3f5b8183106123f25750509060206123ad928201016123a1565b60209193508060019154838589010152019101909184926123da565b602092506123ad94915060ff191682840152151560051b8201016123a1565b634e487b7160e01b5f52602260045260245ffd5b92607f1692612382565b604051905f6007548060011c91600182169182156124ed575b60208410831461242d57838652859290811561240e575060011461248e576123ad925003836122a7565b5060075f90815290917fa66cc928b5edb82af9bd49922954155ab7b0942694bea4ce44661d9a8736c6885b8183106124d15750509060206123ad928201016123a1565b60209193508060019154838589010152019101909184926124b9565b92607f1692612464565b51906001600160a01b03821682036106ae57565b604051628bec5760e51b81526020816004817f00000000000000000000000000000000000000000000000000000000000000006001600160a01b03165afa908115611739575f9161255a575090565b90506020813d602011612589575b81612575602093836122a7565b810103126106ae57612586906124f7565b90565b3d9150612568565b6001600160a01b039091168152602081019190915260400190565b908160209103126106ae575180151581036106ae5790565b6040516361bfb47160e11b81526001600160a01b039182166004820152907f000000000000000000000000000000000000000000000000000000000000000016608082602481845afa908115611739575f925f926126b7575b5060206004916040519283809263cfa9920160e01b82525afa908115611739575f91612685575b50421461265e575061258690612658612999565b90612943565b805f19048211810215670de0b6b3a764000002156106ae57670de0b6b3a764000091020490565b90506020813d6020116126af575b816126a0602093836122a7565b810103126106ae57515f612644565b3d9150612693565b925090506080823d6080116126f1575b816126d4608093836122a7565b810103126106ae576004602060608185015194015192915061261d565b3d91506126c7565b90612703826122c8565b61271060405191826122a7565b8281528092612721601f19916122c8565b0190602036910137565b805182101561273f5760209160051b010190565b634e487b7160e01b5f52603260045260245ffd5b6040518091829160208251919201905f5b8181106127745750505003902090565b82516001600160a01b0316845285945060209384019390920191600101612764565b6040518091829160208251919201905f5b8181106127b75750505003902090565b82518452859450602093840193909201916001016127a7565b60ff6008541661287f5760246127e5306125c4565b6002546040516370a0823160e01b81526001600160a01b037f000000000000000000000000000000000000000000000000000000000000000081166004830152909360209285928391165afa918215611739575f9261284b575b50818082109118021890565b9091506020813d602011612877575b81612867602093836122a7565b810103126106ae5751905f61283f565b3d915061285a565b5f90565b5f516020612f535f395f51905f525c6128a95760015f516020612f535f395f51905f525d565b633ee5aeb560e01b5f5260045ffd5b50158015806128fc575b6128ed57806128e1575b6128d257565b63332863a960e11b5f5260045ffd5b5060ff600854166128cc565b630cd0fdf960e01b5f5260045ffd5b5060ff60085416156128c2565b61293e6123ad939261293060405194859263a9059cbb60e01b602085015260248401612591565b03601f1981018452836122a7565b612efa565b90805f19048211810215670de0b6b3a764000002156106ae57670de0b6b3a764000091020490565b9190820180921161297857565b634e487b7160e01b5f52601160045260245ffd5b9190820391821161297857565b6040516318160ddd60e01b81527f00000000000000000000000000000000000000000000000000000000000000006001600160a01b0316602082600481845afa918215611739575f92612dd6575b508115612d7b57604051631d8e90d160e11b815290602082600481845afa918215611739575f92612d47575b506040516308f7a6e360e31b815291602083600481855afa928315611739575f93612d13575b50604051638f840ddd60e01b815290602082600481865afa918215611739575f92612cdf575b506040516379fed8ad60e11b815291602083600481875afa928315611739575f93612ca0575b506040516315f2405360e01b815260048101839052602481018690526044810182905292602090849060649082906001600160a01b03165afa928315611739575f93612c6c575b5065048c273950008311612c375760405163cfa9920160e01b8152602081600481885afa8015611739575f90612c03575b612b0891504261298c565b92838102938185041490151715612978576020612b2786600495612943565b94604051948580926305cee64160e21b82525afa928315611739575f93612bcf575b50835f19048311840215670de0b6b3a764000002156106ae57612b9394612b82612b8892670de0b6b3a764000087612b8e97020461296b565b9461296b565b9061296b565b61298c565b7812725dd1d243aba0e75fe645cc4873f9e65afe688c928e1f218111670de0b6b3a764000002158202156106ae57670de0b6b3a7640000020490565b9092506020813d602011612bfb575b81612beb602093836122a7565b810103126106ae5751915f612b49565b3d9150612bde565b506020813d602011612c2f575b81612c1d602093836122a7565b810103126106ae57612b089051612afd565b3d9150612c10565b60405162461bcd60e51b815260206004820152600d60248201526c0a482a88abea89e9ebe90928e9609b1b6044820152606490fd5b9092506020813d602011612c98575b81612c88602093836122a7565b810103126106ae5751915f612acc565b3d9150612c7b565b92506020833d602011612cd7575b81612cbb602093836122a7565b810103126106ae576020612cd06064946124f7565b9350612a85565b3d9150612cae565b9091506020813d602011612d0b575b81612cfb602093836122a7565b810103126106ae5751905f612a5f565b3d9150612cee565b9092506020813d602011612d3f575b81612d2f602093836122a7565b810103126106ae5751915f612a39565b3d9150612d22565b9091506020813d602011612d73575b81612d63602093836122a7565b810103126106ae5751905f612a13565b3d9150612d56565b60405163182df0f560e01b81529150602090829060049082905afa908115611739575f91612da7575090565b90506020813d602011612dce575b81612dc2602093836122a7565b810103126106ae575190565b3d9150612db5565b9091506020813d602011612e02575b81612df2602093836122a7565b810103126106ae5751905f6129e7565b3d9150612de5565b91909160205f60405193612e4185612e338582019363095ea7b360e01b85528960248401612591565b03601f1981018752866122a7565b84519082855af15f513d82612ea2575b505015612e5d57505050565b60405163095ea7b360e01b60208201526001600160a01b0390931660248401525f60448085019190915283526123ad9261293e90612e9c6064826122a7565b82612efa565b909150612ebf57506001600160a01b0381163b15155b5f80612e51565b600114612eb8565b51906001600160e01b03821682036106ae57565b519063ffffffff821682036106ae57565b5f1981146129785760010190565b905f602091828151910182855af115611739575f513d612f4957506001600160a01b0381163b155b612f295750565b635274afe760e01b5f9081526001600160a01b0391909116600452602490fd5b60011415612f2256fe9b779b17422d0df92223018b32b4d1fa46e071723d6817e2486d003becc55f00a2646970667358221220554979418b16861078be06195e262091a75f3e11966744bfe8afc265731f683b64736f6c634300081c0033",
  "linkReferences": {},
  "deployedLinkReferences": {}
}