{
  "_format": "hh-sol-artifact-1",
  "contractName": "MoonwellArk",
  "sourceName": "src/contracts/arks/MoonwellArk.sol",
  "abi": [
    {
      "inputs": [
        {
          "internalType": "address",
          "name": "_mToken",
          "type": "address"
        },
        {
          "components": [
            {
              "internalType": "string",
              "name": "name",
              "type": "string"
            },
            {
              "internalType": "string",
              "name": "details",
              "type": "string"
            },
            {
              "internalType": "address",
              "name": "accessManager",
              "type": "address"
            },
            {
              "internalType": "address",
              "name": "configurationManager",
              "type": "address"
            },
            {
              "internalType": "address",
              "name": "asset",
              "type": "address"
            },
            {
              "internalType": "uint256",
              "name": "depositCap",
              "type": "uint256"
            },
            {
              "internalType": "uint256",
              "name": "maxRebalanceOutflow",
              "type": "uint256"
            },
            {
              "internalType": "uint256",
              "name": "maxRebalanceInflow",
              "type": "uint256"
            },
            {
              "internalType": "bool",
              "name": "requiresKeeperData",
              "type": "bool"
            },
            {
              "internalType": "Percentage",
              "name": "maxDepositPercentageOfTVL",
              "type": "uint256"
            }
          ],
          "internalType": "struct ArkParams",
          "name": "_params",
          "type": "tuple"
        }
      ],
      "stateMutability": "nonpayable",
      "type": "constructor"
    },
    {
      "inputs": [
        {
          "internalType": "address",
          "name": "caller",
          "type": "address"
        }
      ],
      "name": "CallerIsNotAdmin",
      "type": "error"
    },
    {
      "inputs": [
        {
          "internalType": "address",
          "name": "caller",
          "type": "address"
        }
      ],
      "name": "CallerIsNotAuthorizedToBoard",
      "type": "error"
    },
    {
      "inputs": [
        {
          "internalType": "address",
          "name": "caller",
          "type": "address"
        }
      ],
      "name": "CallerIsNotCommander",
      "type": "error"
    },
    {
      "inputs": [
        {
          "internalType": "address",
          "name": "caller",
          "type": "address"
        },
        {
          "internalType": "bytes32",
          "name": "role",
          "type": "bytes32"
        }
      ],
      "name": "CallerIsNotContractSpecificRole",
      "type": "error"
    },
    {
      "inputs": [
        {
          "internalType": "address",
          "name": "caller",
          "type": "address"
        }
      ],
      "name": "CallerIsNotCurator",
      "type": "error"
    },
    {
      "inputs": [
        {
          "internalType": "address",
          "name": "caller",
          "type": "address"
        }
      ],
      "name": "CallerIsNotDecayController",
      "type": "error"
    },
    {
      "inputs": [
        {
          "internalType": "address",
          "name": "caller",
          "type": "address"
        }
      ],
      "name": "CallerIsNotFoundation",
      "type": "error"
    },
    {
      "inputs": [
        {
          "internalType": "address",
          "name": "caller",
          "type": "address"
        }
      ],
      "name": "CallerIsNotGovernor",
      "type": "error"
    },
    {
      "inputs": [
        {
          "internalType": "address",
          "name": "caller",
          "type": "address"
        }
      ],
      "name": "CallerIsNotGuardian",
      "type": "error"
    },
    {
      "inputs": [
        {
          "internalType": "address",
          "name": "caller",
          "type": "address"
        }
      ],
      "name": "CallerIsNotGuardianOrGovernor",
      "type": "error"
    },
    {
      "inputs": [
        {
          "internalType": "address",
          "name": "caller",
          "type": "address"
        }
      ],
      "name": "CallerIsNotKeeper",
      "type": "error"
    },
    {
      "inputs": [
        {
          "internalType": "address",
          "name": "caller",
          "type": "address"
        }
      ],
      "name": "CallerIsNotRaft",
      "type": "error"
    },
    {
      "inputs": [
        {
          "internalType": "address",
          "name": "caller",
          "type": "address"
        }
      ],
      "name": "CallerIsNotRaftOrCommander",
      "type": "error"
    },
    {
      "inputs": [
        {
          "internalType": "address",
          "name": "caller",
          "type": "address"
        }
      ],
      "name": "CallerIsNotSuperKeeper",
      "type": "error"
    },
    {
      "inputs": [],
      "name": "CannotAddCommanderToArkWithCommander",
      "type": "error"
    },
    {
      "inputs": [],
      "name": "CannotDeployArkWithEmptyName",
      "type": "error"
    },
    {
      "inputs": [],
      "name": "CannotDeployArkWithoutConfigurationManager",
      "type": "error"
    },
    {
      "inputs": [],
      "name": "CannotDeployArkWithoutRaft",
      "type": "error"
    },
    {
      "inputs": [],
      "name": "CannotDeployArkWithoutToken",
      "type": "error"
    },
    {
      "inputs": [],
      "name": "CannotRemoveCommanderFromArkWithAssets",
      "type": "error"
    },
    {
      "inputs": [],
      "name": "CannotUseKeeperDataWhenNotRequired",
      "type": "error"
    },
    {
      "inputs": [],
      "name": "ConfigurationManagerZeroAddress",
      "type": "error"
    },
    {
      "inputs": [
        {
          "internalType": "address",
          "name": "caller",
          "type": "address"
        }
      ],
      "name": "DirectGrantIsDisabled",
      "type": "error"
    },
    {
      "inputs": [
        {
          "internalType": "address",
          "name": "caller",
          "type": "address"
        }
      ],
      "name": "DirectRevokeIsDisabled",
      "type": "error"
    },
    {
      "inputs": [],
      "name": "ERC4626AssetMismatch",
      "type": "error"
    },
    {
      "inputs": [],
      "name": "FleetCommanderAlreadyRegistered",
      "type": "error"
    },
    {
      "inputs": [],
      "name": "FleetCommanderNotRegistered",
      "type": "error"
    },
    {
      "inputs": [
        {
          "internalType": "address",
          "name": "invalidAddress",
          "type": "address"
        }
      ],
      "name": "InvalidAccessManagerAddress",
      "type": "error"
    },
    {
      "inputs": [],
      "name": "InvalidBoardData",
      "type": "error"
    },
    {
      "inputs": [],
      "name": "InvalidDisembarkData",
      "type": "error"
    },
    {
      "inputs": [],
      "name": "InvalidMoonwellAddress",
      "type": "error"
    },
    {
      "inputs": [],
      "name": "InvalidVaultAddress",
      "type": "error"
    },
    {
      "inputs": [],
      "name": "KeeperDataRequired",
      "type": "error"
    },
    {
      "inputs": [],
      "name": "MaxDepositPercentageOfTVLTooHigh",
      "type": "error"
    },
    {
      "inputs": [],
      "name": "MoonwellAssetMismatch",
      "type": "error"
    },
    {
      "inputs": [],
      "name": "MoonwellMintFailed",
      "type": "error"
    },
    {
      "inputs": [],
      "name": "MoonwellRedeemFailed",
      "type": "error"
    },
    {
      "inputs": [],
      "name": "MoonwellRedeemUnderlyingFailed",
      "type": "error"
    },
    {
      "inputs": [],
      "name": "ReentrancyGuardReentrantCall",
      "type": "error"
    },
    {
      "inputs": [
        {
          "internalType": "address",
          "name": "token",
          "type": "address"
        }
      ],
      "name": "SafeERC20FailedOperation",
      "type": "error"
    },
    {
      "anonymous": false,
      "inputs": [
        {
          "indexed": true,
          "internalType": "address[]",
          "name": "rewardTokens",
          "type": "address[]"
        },
        {
          "indexed": true,
          "internalType": "uint256[]",
          "name": "rewardAmounts",
          "type": "uint256[]"
        }
      ],
      "name": "ArkHarvested",
      "type": "event"
    },
    {
      "anonymous": false,
      "inputs": [
        {
          "indexed": false,
          "internalType": "uint256",
          "name": "currentPrice",
          "type": "uint256"
        },
        {
          "indexed": false,
          "internalType": "uint256",
          "name": "timestamp",
          "type": "uint256"
        }
      ],
      "name": "ArkPoked",
      "type": "event"
    },
    {
      "anonymous": false,
      "inputs": [
        {
          "indexed": true,
          "internalType": "address[]",
          "name": "sweptTokens",
          "type": "address[]"
        },
        {
          "indexed": true,
          "internalType": "uint256[]",
          "name": "sweptAmounts",
          "type": "uint256[]"
        }
      ],
      "name": "ArkSwept",
      "type": "event"
    },
    {
      "anonymous": false,
      "inputs": [
        {
          "indexed": true,
          "internalType": "address",
          "name": "commander",
          "type": "address"
        },
        {
          "indexed": false,
          "internalType": "address",
          "name": "token",
          "type": "address"
        },
        {
          "indexed": false,
          "internalType": "uint256",
          "name": "amount",
          "type": "uint256"
        }
      ],
      "name": "Boarded",
      "type": "event"
    },
    {
      "anonymous": false,
      "inputs": [
        {
          "indexed": false,
          "internalType": "uint256",
          "name": "newCap",
          "type": "uint256"
        }
      ],
      "name": "DepositCapUpdated",
      "type": "event"
    },
    {
      "anonymous": false,
      "inputs": [
        {
          "indexed": true,
          "internalType": "address",
          "name": "commander",
          "type": "address"
        },
        {
          "indexed": false,
          "internalType": "address",
          "name": "token",
          "type": "address"
        },
        {
          "indexed": false,
          "internalType": "uint256",
          "name": "amount",
          "type": "uint256"
        }
      ],
      "name": "Disembarked",
      "type": "event"
    },
    {
      "anonymous": false,
      "inputs": [
        {
          "indexed": false,
          "internalType": "address",
          "name": "commander",
          "type": "address"
        }
      ],
      "name": "FleetCommanderRegistered",
      "type": "event"
    },
    {
      "anonymous": false,
      "inputs": [
        {
          "indexed": false,
          "internalType": "address",
          "name": "commander",
          "type": "address"
        }
      ],
      "name": "FleetCommanderUnregistered",
      "type": "event"
    },
    {
      "anonymous": false,
      "inputs": [
        {
          "indexed": false,
          "internalType": "Percentage",
          "name": "newMaxDepositPercentageOfTVL",
          "type": "uint256"
        }
      ],
      "name": "MaxDepositPercentageOfTVLUpdated",
      "type": "event"
    },
    {
      "anonymous": false,
      "inputs": [
        {
          "indexed": false,
          "internalType": "uint256",
          "name": "newMaxInflow",
          "type": "uint256"
        }
      ],
      "name": "MaxRebalanceInflowUpdated",
      "type": "event"
    },
    {
      "anonymous": false,
      "inputs": [
        {
          "indexed": false,
          "internalType": "uint256",
          "name": "newMaxOutflow",
          "type": "uint256"
        }
      ],
      "name": "MaxRebalanceOutflowUpdated",
      "type": "event"
    },
    {
      "anonymous": false,
      "inputs": [
        {
          "indexed": true,
          "internalType": "address",
          "name": "from",
          "type": "address"
        },
        {
          "indexed": true,
          "internalType": "address",
          "name": "to",
          "type": "address"
        },
        {
          "indexed": false,
          "internalType": "address",
          "name": "token",
          "type": "address"
        },
        {
          "indexed": false,
          "internalType": "uint256",
          "name": "amount",
          "type": "uint256"
        }
      ],
      "name": "Moved",
      "type": "event"
    },
    {
      "anonymous": false,
      "inputs": [
        {
          "indexed": false,
          "internalType": "address",
          "name": "newRaft",
          "type": "address"
        }
      ],
      "name": "RaftUpdated",
      "type": "event"
    },
    {
      "inputs": [],
      "name": "ADMIRALS_QUARTERS_ROLE",
      "outputs": [
        {
          "internalType": "bytes32",
          "name": "",
          "type": "bytes32"
        }
      ],
      "stateMutability": "view",
      "type": "function"
    },
    {
      "inputs": [],
      "name": "DECAY_CONTROLLER_ROLE",
      "outputs": [
        {
          "internalType": "bytes32",
          "name": "",
          "type": "bytes32"
        }
      ],
      "stateMutability": "view",
      "type": "function"
    },
    {
      "inputs": [],
      "name": "GOVERNOR_ROLE",
      "outputs": [
        {
          "internalType": "bytes32",
          "name": "",
          "type": "bytes32"
        }
      ],
      "stateMutability": "view",
      "type": "function"
    },
    {
      "inputs": [],
      "name": "GUARDIAN_ROLE",
      "outputs": [
        {
          "internalType": "bytes32",
          "name": "",
          "type": "bytes32"
        }
      ],
      "stateMutability": "view",
      "type": "function"
    },
    {
      "inputs": [],
      "name": "SUPER_KEEPER_ROLE",
      "outputs": [
        {
          "internalType": "bytes32",
          "name": "",
          "type": "bytes32"
        }
      ],
      "stateMutability": "view",
      "type": "function"
    },
    {
      "inputs": [],
      "name": "asset",
      "outputs": [
        {
          "internalType": "contract IERC20",
          "name": "",
          "type": "address"
        }
      ],
      "stateMutability": "view",
      "type": "function"
    },
    {
      "inputs": [
        {
          "internalType": "address",
          "name": "user",
          "type": "address"
        }
      ],
      "name": "balanceOfUnderlyingWithInterest",
      "outputs": [
        {
          "internalType": "uint256",
          "name": "",
          "type": "uint256"
        }
      ],
      "stateMutability": "view",
      "type": "function"
    },
    {
      "inputs": [
        {
          "internalType": "uint256",
          "name": "amount",
          "type": "uint256"
        },
        {
          "internalType": "bytes",
          "name": "boardData",
          "type": "bytes"
        }
      ],
      "name": "board",
      "outputs": [],
      "stateMutability": "nonpayable",
      "type": "function"
    },
    {
      "inputs": [],
      "name": "commander",
      "outputs": [
        {
          "internalType": "address",
          "name": "",
          "type": "address"
        }
      ],
      "stateMutability": "view",
      "type": "function"
    },
    {
      "inputs": [],
      "name": "comptroller",
      "outputs": [
        {
          "internalType": "contract IComptroller",
          "name": "",
          "type": "address"
        }
      ],
      "stateMutability": "view",
      "type": "function"
    },
    {
      "inputs": [],
      "name": "config",
      "outputs": [
        {
          "internalType": "address",
          "name": "commander",
          "type": "address"
        },
        {
          "internalType": "address",
          "name": "raft",
          "type": "address"
        },
        {
          "internalType": "contract IERC20",
          "name": "asset",
          "type": "address"
        },
        {
          "internalType": "uint256",
          "name": "depositCap",
          "type": "uint256"
        },
        {
          "internalType": "uint256",
          "name": "maxRebalanceOutflow",
          "type": "uint256"
        },
        {
          "internalType": "uint256",
          "name": "maxRebalanceInflow",
          "type": "uint256"
        },
        {
          "internalType": "string",
          "name": "name",
          "type": "string"
        },
        {
          "internalType": "string",
          "name": "details",
          "type": "string"
        },
        {
          "internalType": "bool",
          "name": "requiresKeeperData",
          "type": "bool"
        },
        {
          "internalType": "Percentage",
          "name": "maxDepositPercentageOfTVL",
          "type": "uint256"
        }
      ],
      "stateMutability": "view",
      "type": "function"
    },
    {
      "inputs": [],
      "name": "configurationManager",
      "outputs": [
        {
          "internalType": "contract IConfigurationManager",
          "name": "",
          "type": "address"
        }
      ],
      "stateMutability": "view",
      "type": "function"
    },
    {
      "inputs": [],
      "name": "depositCap",
      "outputs": [
        {
          "internalType": "uint256",
          "name": "",
          "type": "uint256"
        }
      ],
      "stateMutability": "view",
      "type": "function"
    },
    {
      "inputs": [],
      "name": "details",
      "outputs": [
        {
          "internalType": "string",
          "name": "",
          "type": "string"
        }
      ],
      "stateMutability": "view",
      "type": "function"
    },
    {
      "inputs": [
        {
          "internalType": "uint256",
          "name": "amount",
          "type": "uint256"
        },
        {
          "internalType": "bytes",
          "name": "disembarkData",
          "type": "bytes"
        }
      ],
      "name": "disembark",
      "outputs": [],
      "stateMutability": "nonpayable",
      "type": "function"
    },
    {
      "inputs": [],
      "name": "fleetCommanderRewardsManagerFactory",
      "outputs": [
        {
          "internalType": "address",
          "name": "",
          "type": "address"
        }
      ],
      "stateMutability": "view",
      "type": "function"
    },
    {
      "inputs": [
        {
          "internalType": "enum ContractSpecificRoles",
          "name": "roleName",
          "type": "uint8"
        },
        {
          "internalType": "address",
          "name": "roleTargetContract",
          "type": "address"
        }
      ],
      "name": "generateRole",
      "outputs": [
        {
          "internalType": "bytes32",
          "name": "",
          "type": "bytes32"
        }
      ],
      "stateMutability": "pure",
      "type": "function"
    },
    {
      "inputs": [],
      "name": "getConfig",
      "outputs": [
        {
          "components": [
            {
              "internalType": "address",
              "name": "commander",
              "type": "address"
            },
            {
              "internalType": "address",
              "name": "raft",
              "type": "address"
            },
            {
              "internalType": "contract IERC20",
              "name": "asset",
              "type": "address"
            },
            {
              "internalType": "uint256",
              "name": "depositCap",
              "type": "uint256"
            },
            {
              "internalType": "uint256",
              "name": "maxRebalanceOutflow",
              "type": "uint256"
            },
            {
              "internalType": "uint256",
              "name": "maxRebalanceInflow",
              "type": "uint256"
            },
            {
              "internalType": "string",
              "name": "name",
              "type": "string"
            },
            {
              "internalType": "string",
              "name": "details",
              "type": "string"
            },
            {
              "internalType": "bool",
              "name": "requiresKeeperData",
              "type": "bool"
            },
            {
              "internalType": "Percentage",
              "name": "maxDepositPercentageOfTVL",
              "type": "uint256"
            }
          ],
          "internalType": "struct ArkConfig",
          "name": "",
          "type": "tuple"
        }
      ],
      "stateMutability": "view",
      "type": "function"
    },
    {
      "inputs": [],
      "name": "harborCommand",
      "outputs": [
        {
          "internalType": "address",
          "name": "",
          "type": "address"
        }
      ],
      "stateMutability": "view",
      "type": "function"
    },
    {
      "inputs": [
        {
          "internalType": "bytes",
          "name": "additionalData",
          "type": "bytes"
        }
      ],
      "name": "harvest",
      "outputs": [
        {
          "internalType": "address[]",
          "name": "rewardTokens",
          "type": "address[]"
        },
        {
          "internalType": "uint256[]",
          "name": "rewardAmounts",
          "type": "uint256[]"
        }
      ],
      "stateMutability": "nonpayable",
      "type": "function"
    },
    {
      "inputs": [
        {
          "internalType": "address",
          "name": "account",
          "type": "address"
        }
      ],
      "name": "hasAdmiralsQuartersRole",
      "outputs": [
        {
          "internalType": "bool",
          "name": "",
          "type": "bool"
        }
      ],
      "stateMutability": "view",
      "type": "function"
    },
    {
      "inputs": [],
      "name": "mToken",
      "outputs": [
        {
          "internalType": "contract IMToken",
          "name": "",
          "type": "address"
        }
      ],
      "stateMutability": "view",
      "type": "function"
    },
    {
      "inputs": [],
      "name": "maxDepositPercentageOfTVL",
      "outputs": [
        {
          "internalType": "Percentage",
          "name": "",
          "type": "uint256"
        }
      ],
      "stateMutability": "view",
      "type": "function"
    },
    {
      "inputs": [],
      "name": "maxRebalanceInflow",
      "outputs": [
        {
          "internalType": "uint256",
          "name": "",
          "type": "uint256"
        }
      ],
      "stateMutability": "view",
      "type": "function"
    },
    {
      "inputs": [],
      "name": "maxRebalanceOutflow",
      "outputs": [
        {
          "internalType": "uint256",
          "name": "",
          "type": "uint256"
        }
      ],
      "stateMutability": "view",
      "type": "function"
    },
    {
      "inputs": [
        {
          "internalType": "uint256",
          "name": "amount",
          "type": "uint256"
        },
        {
          "internalType": "address",
          "name": "receiverArk",
          "type": "address"
        },
        {
          "internalType": "bytes",
          "name": "boardData",
          "type": "bytes"
        },
        {
          "internalType": "bytes",
          "name": "disembarkData",
          "type": "bytes"
        }
      ],
      "name": "move",
      "outputs": [],
      "stateMutability": "nonpayable",
      "type": "function"
    },
    {
      "inputs": [],
      "name": "name",
      "outputs": [
        {
          "internalType": "string",
          "name": "",
          "type": "string"
        }
      ],
      "stateMutability": "view",
      "type": "function"
    },
    {
      "inputs": [],
      "name": "raft",
      "outputs": [
        {
          "internalType": "address",
          "name": "",
          "type": "address"
        }
      ],
      "stateMutability": "view",
      "type": "function"
    },
    {
      "inputs": [],
      "name": "registerFleetCommander",
      "outputs": [],
      "stateMutability": "nonpayable",
      "type": "function"
    },
    {
      "inputs": [],
      "name": "requiresKeeperData",
      "outputs": [
        {
          "internalType": "bool",
          "name": "",
          "type": "bool"
        }
      ],
      "stateMutability": "view",
      "type": "function"
    },
    {
      "inputs": [
        {
          "internalType": "uint256",
          "name": "newDepositCap",
          "type": "uint256"
        }
      ],
      "name": "setDepositCap",
      "outputs": [],
      "stateMutability": "nonpayable",
      "type": "function"
    },
    {
      "inputs": [
        {
          "internalType": "Percentage",
          "name": "newMaxDepositPercentageOfTVL",
          "type": "uint256"
        }
      ],
      "name": "setMaxDepositPercentageOfTVL",
      "outputs": [],
      "stateMutability": "nonpayable",
      "type": "function"
    },
    {
      "inputs": [
        {
          "internalType": "uint256",
          "name": "newMaxRebalanceInflow",
          "type": "uint256"
        }
      ],
      "name": "setMaxRebalanceInflow",
      "outputs": [],
      "stateMutability": "nonpayable",
      "type": "function"
    },
    {
      "inputs": [
        {
          "internalType": "uint256",
          "name": "newMaxRebalanceOutflow",
          "type": "uint256"
        }
      ],
      "name": "setMaxRebalanceOutflow",
      "outputs": [],
      "stateMutability": "nonpayable",
      "type": "function"
    },
    {
      "inputs": [
        {
          "internalType": "address[]",
          "name": "tokens",
          "type": "address[]"
        }
      ],
      "name": "sweep",
      "outputs": [
        {
          "internalType": "address[]",
          "name": "sweptTokens",
          "type": "address[]"
        },
        {
          "internalType": "uint256[]",
          "name": "sweptAmounts",
          "type": "uint256[]"
        }
      ],
      "stateMutability": "nonpayable",
      "type": "function"
    },
    {
      "inputs": [],
      "name": "tipJar",
      "outputs": [
        {
          "internalType": "address",
          "name": "",
          "type": "address"
        }
      ],
      "stateMutability": "view",
      "type": "function"
    },
    {
      "inputs": [],
      "name": "totalAssets",
      "outputs": [
        {
          "internalType": "uint256",
          "name": "assets",
          "type": "uint256"
        }
      ],
      "stateMutability": "view",
      "type": "function"
    },
    {
      "inputs": [],
      "name": "treasury",
      "outputs": [
        {
          "internalType": "address",
          "name": "",
          "type": "address"
        }
      ],
      "stateMutability": "view",
      "type": "function"
    },
    {
      "inputs": [],
      "name": "unregisterFleetCommander",
      "outputs": [],
      "stateMutability": "nonpayable",
      "type": "function"
    },
    {
      "inputs": [],
      "name": "withdrawableTotalAssets",
      "outputs": [
        {
          "internalType": "uint256",
          "name": "",
          "type": "uint256"
        }
      ],
      "stateMutability": "view",
      "type": "function"
    }
  ],
  "bytecode": "0x6101008060405234610578576139a4803803809161001d828561088a565b833981019060408183031261057857610035816108ad565b602082015190916001600160401b03821161057857016101408184031261057857604051926100638461086e565b81516001600160401b038111610578578161007f9184016108c1565b84526020820151906001600160401b038211610578576100a09183016108c1565b90602084019182526100b4604082016108ad565b918260408601526100c7606083016108ad565b948560608201526100da608084016108ad565b936080820194855260a08401519460a0830195865260c08501519060c0840191825260e08601519260e085019384526101206101196101008901610916565b61010087019081529701516101208601908152996001600160a01b039081169116801561085b576040516301ffc9a760e01b815263261c910560e21b6004820152602081602481855afa908115610584575f91610821575b501561080f5760805280156108005760a05280516001600160a01b0316156107f157835151156107e2576001600160a01b036101ab610923565b16156107d35768056bc75e2d631000008951116107c457516001600160a01b03166101d4610923565b9651915192519351945195511515985196610120604051916101f58361086e565b5f8084526001600160a01b03919091166020840181905260408401859052606084018690526080840187905260a0840188905260c0840189905260e08401998a5261010084019c8d529190920198895281546001600160a01b031990811690925560018054831690911790556002805490911690911790556003556004556005558051906001600160401b0382116106c75760065490600182811c921680156107ba575b60208310146106a95781601f84931161074c575b50602090601f83116001146106e6575f926106db575b50508160011b915f199060031b1c1916176006555b5180519093906001600160401b0381116106c757600754600181811c911680156106bd575b60208210146106a957601f8111610646575b50602094601f82116001146105e3579481929394955f926105d8575b50508160011b915f199060031b1c1916176007555b51151560ff8019600854169116176008555160095560018060a01b031680156105375760c0819052604051636f307dc360e01b8152602081600481855afa908115610584575f9161059e575b506002546001600160a01b03908116911681900361058f5760c051604051635fe3b56760e01b815290602090829060049082906001600160a01b03165afa908115610584575f91610546575b506001600160a01b031680156105375760e0526040519060205f81840163095ea7b360e01b8152856024860152811960448601526044855261041b60648661088a565b84519082855af15f513d8261051b575b5050156104d6575b604051612fbb90816109e982396080518181816103670152611116015260a0518181816101f801528181610a7701528181611264015281816119e601528181611ad50152612532015260c05181818161051701528181610c3601528181610d0701528181610ef701528181611d2f01528181611fa1015281816120e4015281816125f70152818161281201526129bb015260e0518181816104a20152611a810152f35b61050e610513936040519063095ea7b360e01b602083015260248201525f60448201526044815261050860648261088a565b82610990565b610990565b5f8080610433565b90915061052f5750803b15155b5f8061042b565b600114610528565b63527fdc7b60e01b5f5260045ffd5b90506020813d60201161057c575b816105616020938361088a565b8101031261057857610572906108ad565b5f6103d8565b5f80fd5b3d9150610554565b6040513d5f823e3d90fd5b63f8a36e8760e01b5f5260045ffd5b90506020813d6020116105d0575b816105b96020938361088a565b81010312610578576105ca906108ad565b5f61038c565b3d91506105ac565b015190505f8061032b565b601f1982169560075f52805f20915f5b88811061062e57508360019596979810610616575b505050811b01600755610340565b01515f1960f88460031b161c191690555f8080610608565b919260206001819286850151815501940192016105f3565b60075f527fa66cc928b5edb82af9bd49922954155ab7b0942694bea4ce44661d9a8736c688601f830160051c8101916020841061069f575b601f0160051c01905b818110610694575061030f565b5f8155600101610687565b909150819061067e565b634e487b7160e01b5f52602260045260245ffd5b90607f16906102fd565b634e487b7160e01b5f52604160045260245ffd5b015190505f806102c3565b60065f9081528281209350601f198516905b818110610734575090846001959493921061071c575b505050811b016006556102d8565b01515f1960f88460031b161c191690555f808061070e565b929360206001819287860151815501950193016106f8565b60065f529091507ff652222313e28459528d920b65115c16c04f3efc82aaedc97be59f3f377c0d3f601f840160051c810191602085106107b0575b90601f859493920160051c01905b8181106107a257506102ad565b5f8155849350600101610795565b9091508190610787565b91607f1691610299565b634ef9dfe360e01b5f5260045ffd5b633a4f9cdb60e21b5f5260045ffd5b63268c072960e01b5f5260045ffd5b637ff57ef160e11b5f5260045ffd5b63f1634df960e01b5f5260045ffd5b6347bd7c1d60e01b5f5260045260245ffd5b90506020813d602011610853575b8161083c6020938361088a565b810103126105785761084d90610916565b5f610171565b3d915061082f565b6347bd7c1d60e01b5f525f60045260245ffd5b61014081019081106001600160401b038211176106c757604052565b601f909101601f19168101906001600160401b038211908210176106c757604052565b51906001600160a01b038216820361057857565b81601f82011215610578578051906001600160401b0382116106c757604051926108f5601f8401601f19166020018561088a565b8284526020838301011161057857815f9260208093018386015e8301015290565b5190811515820361057857565b60a051604051628bec5760e51b815290602090829060049082906001600160a01b03165afa908115610584575f91610959575090565b90506020813d602011610988575b816109746020938361088a565b8101031261057857610985906108ad565b90565b3d9150610967565b905f602091828151910182855af115610584575f513d6109df57506001600160a01b0381163b155b6109bf5750565b635274afe760e01b5f9081526001600160a01b0391909116600452602490fd5b600114156109b856fe60806040526004361015610011575f80fd5b5f5f3560e01c806301e1d114146121d357806306fdde03146121b8578063117d8ae01461218c57806313c408f814611f4057806324ea54f414611f065780632db6d39914611c76578063303dbaf314611c545780633194549e14611c375780633727093614611c1057806338d52e0f14611be85780634fc7fac314611b72578063526e4b0f14611b4f578063565974d314611b205780635b0f83f314611ab05780635fe3b56714611a6c57806361d027b3146119c157806361f5cd8b1461195757806366e943f11461191d57806369b3054b146118bc578063780469bb1461136057806379502c55146112af5780637aaceb951461123d57806386651203146111e45780638a8b9976146110ad57806392f5e83214611041578063a89f38a314611006578063ad5a356f14610fe8578063bdcdd88214610fca578063c0b534c214610f8f578063c38a6f0b14610c65578063c3b6f93914610c20578063c3f909d414610aa6578063c9c667e314610a61578063ccc5749014610a26578063ce5c7f611461041d578063d570ee47146103fa578063dbd5edc7146103dc578063ebc136d0146102fd578063ebf31131146102905763f7e533ec146101d2575f80fd5b34610279578060031936011261027957604051633df94cfb60e21b8152906020826004817f00000000000000000000000000000000000000000000000000000000000000006001600160a01b03165afa908115610284578091610244575b6040516001600160a01b0383168152602090f35b90506020823d60201161027c575b8161025f602093836122ba565b81010312610279575061027360209161250a565b5f610230565b80fd5b3d9150610252565b604051903d90823e3d90fd5b503461027957806003193601126102795780546001600160a01b03811633036102ee576001600160a01b03191681556040513381527f7cb941d7b1708e5b3bcd35ca960d6c6311188cec18886e5b67630552676b048790602090a180f35b63430da47160e01b8252600482fd5b503461027957602036600319011261027957610317612272565b604051632474521560e21b81527fb00be3d6a5434b97b328543d1486d56adcb7e74080170d1cdd7e0306c3d9ba3d60048201526001600160a01b03918216602482015290602090829060449082907f0000000000000000000000000000000000000000000000000000000000000000165afa9081156103d157602092916103a4575b506040519015158152f35b6103c49150823d84116103ca575b6103bc81836122ba565b8101906125bf565b5f610399565b503d6103b2565b6040513d84823e3d90fd5b50346102795780600319360112610279576020600354604051908152f35b503461027957806003193601126102795760206104156127e3565b604051908152f35b5034610279576020366003190112610279576004356001600160401b03811161095f5761044e903690600401612212565b5050604051628bec5760e51b8152602081600481305afa9081156103d15782916109ec575b506001600160a01b031633036109d95761048b612896565b61049361251e565b6040516356610b3560e11b81527f00000000000000000000000000000000000000000000000000000000000000006001600160a01b031690602081600481855afa9081156109ce578491610994575b506001600160a01b031690811561098557604090815161050283826122ba565b600181526020810191601f19840136843781517f00000000000000000000000000000000000000000000000000000000000000006001600160a01b03169390156109715783905286929190803b1561096d5761058484929183928751948580948193633685ffe760e01b83523060048401528b602484015260448301906122f2565b03925af180156109635790839161094a575b505060248351809581936307e218f960e41b835260048301525afa9182156109405784926107e8575b506105ca825161270c565b926105d5835161270c565b94805b84518110156106c8576024906001600160a01b0360206105f8838961273e565b51015116610606828961273e565b5260206001600160a01b038161061c848a61273e565b510151168651938480926370a0823160e01b82523060048301525afa80156106be578390610688575b6001925080610654838b61273e565b5280610662575b50016105d8565b6106829085848060a01b036020610679868c61273e565b5101511661291c565b5f61065b565b506020823d82116106b6575b816106a1602093836122ba565b810103126106b25760019151610645565b5f80fd5b3d9150610694565b85513d85823e3d90fd5b50919250508091815b8551811015610706576106e4818761273e565b516106f2575b6001016106d1565b926106fe600191612eff565b9390506106ea565b5083859361071c6107168261270c565b9161270c565b918493855b875181101561078c57610734818961273e565b51610742575b600101610721565b94600190610784906001600160a01b0361075c898761273e565b5116610768828861273e565b52610773888b61273e565b5161077e828961273e565b52612eff565b95905061073a565b50856107e4858561079c81612766565b936107a6836127a9565b95519586957f3e3e7958121b3e39c7a49392d1aa9cdce870c2a059744f9e15cf66fff78654558380a35f516020612f665f395f51905f525d8361232e565b0390f35b9091503d8085833e6107fa81836122ba565b810190602081830312610938578051906001600160401b03821161093c570181601f8201121561093857805190610830826122db565b9261083d855194856122ba565b828452602061012081860194028301019181831161093457602001925b82841061086c5750505050905f6105bf565b6101208483031261093457855161012081018181106001600160401b03821117610920578752610120916020916108a28761250a565b81526108af83880161250a565b8382015288870151898201526108c760608801612eda565b60608201526108d860808801612eee565b60808201526108e960a08801612eda565b60a08201526108fa60c08801612eee565b60c082015260e087015160e082015261010087015161010082015281520193019261085a565b634e487b7160e01b8a52604160045260248afd5b8780fd5b8480fd5b8580fd5b81513d86823e3d90fd5b81610954916122ba565b61095f57815f610596565b5080fd5b84513d85823e3d90fd5b8380fd5b634e487b7160e01b88526032600452602488fd5b63527fdc7b60e01b8452600484fd5b90506020813d6020116109c6575b816109af602093836122ba565b8101031261096d576109c09061250a565b5f6104e2565b3d91506109a2565b6040513d86823e3d90fd5b631184b31b60e21b815233600452602490fd5b90506020813d602011610a1e575b81610a07602093836122ba565b8101031261095f57610a189061250a565b5f610473565b3d91506109fa565b503461027957806003193601126102795760206040517f7935bd0ae54bc31f548c14dba4d37c5c64b3f8ca900cb468fb8abd54d5894f558152f35b50346102795780600319360112610279576040517f00000000000000000000000000000000000000000000000000000000000000006001600160a01b03168152602090f35b503461027957806003193601126102795780610120604051610ac78161229e565b8281528260208201528260408201528260608201528260808201528260a0820152606060c0820152606060e082015282610100820152015260405190610b0c8261229e565b546001600160a01b03908116825260015481166020830190815260025490911660408301908152600354606084019081526004546080850190815260055460a08601908152939493919291610c0b9190610bf790610b6861237c565b9060c08801918252610b7861245e565b60e089810191825260085460ff1615156101008b019081526009546101208c019081526040805160208082529d516001600160a01b039081169e82019e909e529d518d16908e01529851909a1660608c0152975160808b0152935160a08a01525160c089015251610140958801959095528695946101608701906121ee565b9051858203601f19016101008701526121ee565b91511515610120840152516101408301520390f35b50346102795780600319360112610279576040517f00000000000000000000000000000000000000000000000000000000000000006001600160a01b03168152602090f35b503461027957608036600319011261027957600435610c82612288565b6044356001600160401b03811161096d57610ca1903690600401612212565b6064939193356001600160401b03811161093c57610cc3903690600401612212565b86549091906001600160a01b03163303610f7c5790610ce1916128cb565b610cea306125d7565b8203610eda576040516370a0823160e01b815230600482015285907f00000000000000000000000000000000000000000000000000000000000000006001600160a01b031690602081602481855afa908115610ecf578391610e97575b50906024602092604051948593849263db006a7560e01b845260048401525af1908115610e8c578691610e5a575b50610e4b5784905b6002546001600160a01b031693610d95848287612e1d565b6001600160a01b031694853b15610e475781606484926040519485938492632db6d39960e01b845289600485015260406024850152816044850152848401378181018301859052601f01601f1916810103018183895af180156103d157610e32575b5050610e2c7f9f784fc02a186f1c98b2d9f15fda084da27cdd291a3785d978f91911d880516b916040519182913095836125a4565b0390a380f35b81610e3c916122ba565b61096d57835f610df7565b8280fd5b6324c9098760e21b8552600485fd5b90506020813d602011610e84575b81610e75602093836122ba565b810103126106b257515f610d75565b3d9150610e68565b6040513d88823e3d90fd5b919250506020813d602011610ec7575b81610eb4602093836122ba565b810103126106b257518691906024610d47565b3d9150610ea7565b6040513d85823e3d90fd5b60405163852a12e360e01b815260048101839052602081602481897f00000000000000000000000000000000000000000000000000000000000000006001600160a01b03165af1908115610e8c578691610f4a575b50610f3b578490610d7d565b63daea017b60e01b8552600485fd5b90506020813d602011610f74575b81610f65602093836122ba565b810103126106b257515f610f2f565b3d9150610f58565b631564c0e160e11b875233600452602487fd5b503461027957806003193601126102795760206040517f025d8bbf3268be680d2605ebf6da15063b9915615bf1087dab336efc1bf970cb8152f35b50346102795780600319360112610279576020600954604051908152f35b50346102795780600319360112610279576020600554604051908152f35b503461027957806003193601126102795760206040517fb00be3d6a5434b97b328543d1486d56adcb7e74080170d1cdd7e0306c3d9ba3d8152f35b5034610279576020366003190112610279578054600435906001600160a01b0316330361109a576020817fb6ac66853c4e59c71e118d25ab494bb847c4e5eb0c8894898c5343e6f61afc1292600555604051908152a180f35b631564c0e160e11b825233600452602482fd5b5034610279578060031936011261027957604051600160f91b602082019081523060601b6001600160601b031916602183015260158252906110f06035826122ba565b519020604051632474521560e21b815260048101919091523360248201526020816044817f00000000000000000000000000000000000000000000000000000000000000006001600160a01b03165afa9081156103d15782916111c5575b50156111b25780546001600160a01b0381166111a3576001600160a01b0319163390811782556040519081527f55489ce0259bd691120d8860861be1c401c7c16a3cd268d21045756af4ecc5ca90602090a180f35b636a79b97d60e11b8252600482fd5b631564c0e160e11b815233600452602490fd5b6111de915060203d6020116103ca576103bc81836122ba565b5f61114e565b5034610279576020366003190112610279578054600435906001600160a01b0316330361109a576020817f333b26cca69716ad4680ddb07663f5bfb4f06045671f336af9a83690a3ae00f992600355604051908152a180f35b5034610279578060031936011261027957604051637aaceb9560e01b8152906020826004817f00000000000000000000000000000000000000000000000000000000000000006001600160a01b03165afa908115610284578091610244576040516001600160a01b0383168152602090f35b5034610279578060031936011261027957546001546002546003546004546005546001600160a01b039485169585169492939092169161134d919061133f906112f661237c565b906112ff61245e565b9360ff6008541697600954976040519b8c9b8c5260208c015260408b015260608a0152608089015260a088015261014060c08801526101408701906121ee565b9085820360e08701526121ee565b9115156101008401526101208301520390f35b50346106b25760203660031901126106b2576004356001600160401b0381116106b257366023820112156106b257806004013561139c816122db565b916113aa60405193846122ba565b8183526024602084019260051b820101903682116106b257602401915b81831061189c575050604051628bec5760e51b81529050602081600481305afa90811561174c575f91611862575b506001600160a01b0316330361184f5761140d612896565b611417815161270c565b90611422815161270c565b6002545f5460405163c8169aa160e01b81529294926001600160a01b0392831692909160209183916004918391165afa90811561174c575f91611815575b506040516370a0823160e01b8152306004820152602081602481865afa90811561174c575f916117e3575b501515806117d0575b61165a575b5050835b82518110156116015760249060206001600160a01b036114bd838761273e565b5116604051938480926370a0823160e01b82523060048301525afa918215610e8c5786926115ce575b50816114f7575b600191500161149d565b6001600160a01b03611509828661273e565b511691602461151661251e565b9360206001600160a01b0361152b868a61273e565b5116604051938480926370a0823160e01b82523060048301525afa9182156115c357899261158f575b50906001946115629261291c565b828060a01b03611572838761273e565b511661157e838661273e565b52611589828761273e565b526114ed565b91506020823d82116115bb575b816115a9602093836122ba565b810103126106b2579051906001611554565b3d915061159c565b6040513d8b823e3d90fd5b9091506020813d82116115f9575b816115e9602093836122ba565b810103126106b25751905f6114e6565b3d91506115dc565b84826107e48661161083612766565b9261161a826127a9565b946040519586957f46b8771620f6acf56cb03d3e835ea8024c7dcbcf05fcc3f6ade9e19d1a3e212b8380a35f516020612f665f395f51905f525d8361232e565b6040516370a0823160e01b8152306004820152602081602481865afa90811561174c575f9161179d575b508161169560209260249486612e1d565b6040516370a0823160e01b81523060048201526001600160a01b0391909116939092839182905afa90811561174c575f9161176b575b50604051602081018181106001600160401b03821117611757576040525f8152823b156106b257611722925f9283604051809681958294632db6d39960e01b845260048401526040602484015260448301906121ee565b03925af1801561174c57611737575b80611499565b6117449194505f906122ba565b5f925f611731565b6040513d5f823e3d90fd5b634e487b7160e01b5f52604160045260245ffd5b90506020813d602011611795575b81611786602093836122ba565b810103126106b257515f6116cb565b3d9150611779565b90506020813d6020116117c8575b816117b8602093836122ba565b810103126106b257516024611684565b3d91506117ab565b50306001600160a01b0382161415611494565b90506020813d60201161180d575b816117fe602093836122ba565b810103126106b257515f61148b565b3d91506117f1565b90506020813d602011611847575b81611830602093836122ba565b810103126106b2576118419061250a565b5f611460565b3d9150611823565b631184b31b60e21b5f523360045260245ffd5b90506020813d602011611894575b8161187d602093836122ba565b810103126106b25761188e9061250a565b5f6113f5565b3d9150611870565b82356001600160a01b03811681036106b2578152602092830192016113c7565b346106b25760403660031901126106b25760043560038110156106b2576020906118e4612288565b604051908382019260f81b835260018060601b03199060601b166021820152601581526119126035826122ba565b519020604051908152f35b346106b2575f3660031901126106b25760206040517f0d186688925976bbe6755ae984501c8e3e2b103a7af59fd803ab9c6d891ae7e08152f35b346106b25760203660031901126106b2575f54600435906001600160a01b031633036119ae576020817ffbe2d5c01ea8ba5596d6c4e6c82c6d4a0a0ee1128689993a4a5ba0169273d69f92600455604051908152a1005b631564c0e160e11b5f523360045260245ffd5b346106b2575f3660031901126106b2576040516361d027b360e01b81526020816004817f00000000000000000000000000000000000000000000000000000000000000006001600160a01b03165afa801561174c575f90611a32575b6040516001600160a01b039091168152602090f35b506020813d602011611a64575b81611a4c602093836122ba565b810103126106b257611a5f60209161250a565b611a1d565b3d9150611a3f565b346106b2575f3660031901126106b2576040517f00000000000000000000000000000000000000000000000000000000000000006001600160a01b03168152602090f35b346106b2575f3660031901126106b257604051635b0f83f360e01b81526020816004817f00000000000000000000000000000000000000000000000000000000000000006001600160a01b03165afa801561174c575f90611a32576040516001600160a01b039091168152602090f35b346106b2575f3660031901126106b2576107e4611b3b61245e565b6040519182916020835260208301906121ee565b346106b25760203660031901126106b2576020610415611b6d612272565b6125d7565b346106b25760203660031901126106b2575f54600435906001600160a01b031633036119ae5768056bc75e2d631000008111611bd9576020817fd3c6d0ab315f2f1352f036cd9f401b49e38e1b90907e195225e8105f9a0b6f0292600955604051908152a1005b634ef9dfe360e01b5f5260045ffd5b346106b2575f3660031901126106b2576002546040516001600160a01b039091168152602090f35b346106b2575f3660031901126106b2575f546040516001600160a01b039091168152602090f35b346106b2575f3660031901126106b2576020600454604051908152f35b346106b2575f3660031901126106b257602060ff600854166040519015158152f35b346106b257611c843661223f565b611c8c612896565b604051631b93849b60e11b8152602081600481305afa90811561174c575f91611ecc575b506001600160a01b0316338103611df5575b50611ccc916128cb565b60018060a01b036002541690611d126040516323b872dd60e01b602082015233602482015230604482015282606482015260648152611d0c6084826122ba565b83612f0d565b60405163140e25ad60e31b8152600481018290526020816024815f7f00000000000000000000000000000000000000000000000000000000000000006001600160a01b03165af190811561174c575f91611dc3575b50611db457611d9f7fcbaa1442ac205415c9d69643e7b60ec73d1de35dbc807c21ec288c70ddc4207b916040519182913395836125a4565b0390a25f5f516020612f665f395f51905f525d005b632c03530f60e11b5f5260045ffd5b90506020813d602011611ded575b81611dde602093836122ba565b810103126106b2575183611d67565b3d9150611dd1565b604051628bec5760e51b8152602081600481305afa90811561174c575f91611e92575b506001600160a01b03163314611cc25760206024916040519283809263d206a05960e01b82523360048301525afa90811561174c575f91611e73575b5015611e605783611cc2565b638f7a567d60e01b5f523360045260245ffd5b611e8c915060203d6020116103ca576103bc81836122ba565b84611e54565b90506020813d602011611ec4575b81611ead602093836122ba565b810103126106b257611ebe9061250a565b85611e18565b3d9150611ea0565b90506020813d602011611efe575b81611ee7602093836122ba565b810103126106b257611ef89061250a565b84611cb0565b3d9150611eda565b346106b2575f3660031901126106b25760206040517f55435dd261a4b9b3364963f7738a7a662ad9c84396d64be3365284bb7f0a50418152f35b346106b257611f4e3661223f565b5f546001600160a01b031633036119ae57611f7091611f6b612896565b6128cb565b6002546001600160a01b031690611f86306125d7565b81036120c7576040516370a0823160e01b81523060048201527f00000000000000000000000000000000000000000000000000000000000000006001600160a01b031690602081602481855afa90811561174c575f91612095575b505f916024602092604051948593849263db006a7560e01b845260048401525af190811561174c575f91612063575b5061205457611d9f7fd5e872c5ecfb1bb8820b2e6a20e31b883682282da886621541f71e31ec11947e915b61204681338661291c565b6040519182913395836125a4565b6324c9098760e21b5f5260045ffd5b90506020813d60201161208d575b8161207e602093836122ba565b810103126106b2575183612010565b3d9150612071565b90506020813d6020116120bf575b816120b0602093836122ba565b810103126106b257515f611fe1565b3d91506120a3565b60405163852a12e360e01b8152600481018290526020816024815f7f00000000000000000000000000000000000000000000000000000000000000006001600160a01b03165af190811561174c575f9161215a575b5061214b57611d9f7fd5e872c5ecfb1bb8820b2e6a20e31b883682282da886621541f71e31ec11947e9161203b565b63daea017b60e01b5f5260045ffd5b90506020813d602011612184575b81612175602093836122ba565b810103126106b257518361211c565b3d9150612168565b346106b2575f3660031901126106b25760206121a661251e565b6040516001600160a01b039091168152f35b346106b2575f3660031901126106b2576107e4611b3b61237c565b346106b2575f3660031901126106b2576020610415306125d7565b805180835260209291819084018484015e5f828201840152601f01601f1916010190565b9181601f840112156106b2578235916001600160401b0383116106b257602083818601950101116106b257565b9060406003198301126106b25760043591602435906001600160401b0382116106b25761226e91600401612212565b9091565b600435906001600160a01b03821682036106b257565b602435906001600160a01b03821682036106b257565b61014081019081106001600160401b0382111761175757604052565b90601f801991011681019081106001600160401b0382111761175757604052565b6001600160401b0381116117575760051b60200190565b90602080835192838152019201905f5b81811061230f5750505090565b82516001600160a01b0316845260209384019390920191600101612302565b90612341906040835260408301906122f2565b906020818303910152602080835192838152019201905f5b8181106123665750505090565b8251845260209384019390920191600101612359565b604051905f6006548060011c9160018216918215612454575b60208410831461244057838652859290811561242157506001146123c2575b6123c0925003836122ba565b565b5060065f90815290917ff652222313e28459528d920b65115c16c04f3efc82aaedc97be59f3f377c0d3f5b8183106124055750509060206123c0928201016123b4565b60209193508060019154838589010152019101909184926123ed565b602092506123c094915060ff191682840152151560051b8201016123b4565b634e487b7160e01b5f52602260045260245ffd5b92607f1692612395565b604051905f6007548060011c9160018216918215612500575b60208410831461244057838652859290811561242157506001146124a1576123c0925003836122ba565b5060075f90815290917fa66cc928b5edb82af9bd49922954155ab7b0942694bea4ce44661d9a8736c6885b8183106124e45750509060206123c0928201016123b4565b60209193508060019154838589010152019101909184926124cc565b92607f1692612477565b51906001600160a01b03821682036106b257565b604051628bec5760e51b81526020816004817f00000000000000000000000000000000000000000000000000000000000000006001600160a01b03165afa90811561174c575f9161256d575090565b90506020813d60201161259c575b81612588602093836122ba565b810103126106b2576125999061250a565b90565b3d915061257b565b6001600160a01b039091168152602081019190915260400190565b908160209103126106b2575180151581036106b25790565b6040516361bfb47160e11b81526001600160a01b039182166004820152907f000000000000000000000000000000000000000000000000000000000000000016608082602481845afa90811561174c575f925f926126ca575b5060206004916040519283809263cfa9920160e01b82525afa90811561174c575f91612698575b50421461267157506125999061266b6129ac565b90612956565b805f19048211810215670de0b6b3a764000002156106b257670de0b6b3a764000091020490565b90506020813d6020116126c2575b816126b3602093836122ba565b810103126106b257515f612657565b3d91506126a6565b925090506080823d608011612704575b816126e7608093836122ba565b810103126106b25760046020606081850151940151929150612630565b3d91506126da565b90612716826122db565b61272360405191826122ba565b8281528092612734601f19916122db565b0190602036910137565b80518210156127525760209160051b010190565b634e487b7160e01b5f52603260045260245ffd5b6040518091829160208251919201905f5b8181106127875750505003902090565b82516001600160a01b0316845285945060209384019390920191600101612777565b6040518091829160208251919201905f5b8181106127ca5750505003902090565b82518452859450602093840193909201916001016127ba565b60ff600854166128925760246127f8306125d7565b6002546040516370a0823160e01b81526001600160a01b037f000000000000000000000000000000000000000000000000000000000000000081166004830152909360209285928391165afa91821561174c575f9261285e575b50818082109118021890565b9091506020813d60201161288a575b8161287a602093836122ba565b810103126106b25751905f612852565b3d915061286d565b5f90565b5f516020612f665f395f51905f525c6128bc5760015f516020612f665f395f51905f525d565b633ee5aeb560e01b5f5260045ffd5b501580158061290f575b61290057806128f4575b6128e557565b63332863a960e11b5f5260045ffd5b5060ff600854166128df565b630cd0fdf960e01b5f5260045ffd5b5060ff60085416156128d5565b6129516123c0939261294360405194859263a9059cbb60e01b6020850152602484016125a4565b03601f1981018452836122ba565b612f0d565b90805f19048211810215670de0b6b3a764000002156106b257670de0b6b3a764000091020490565b9190820180921161298b57565b634e487b7160e01b5f52601160045260245ffd5b9190820391821161298b57565b6040516318160ddd60e01b81527f00000000000000000000000000000000000000000000000000000000000000006001600160a01b0316602082600481845afa91821561174c575f92612de9575b508115612d8e57604051631d8e90d160e11b815290602082600481845afa91821561174c575f92612d5a575b506040516308f7a6e360e31b815291602083600481855afa92831561174c575f93612d26575b50604051638f840ddd60e01b815290602082600481865afa91821561174c575f92612cf2575b506040516379fed8ad60e11b815291602083600481875afa92831561174c575f93612cb3575b506040516315f2405360e01b815260048101839052602481018690526044810182905292602090849060649082906001600160a01b03165afa92831561174c575f93612c7f575b5065048c273950008311612c4a5760405163cfa9920160e01b8152602081600481885afa801561174c575f90612c16575b612b1b91504261299f565b9283810293818504149015171561298b576020612b3a86600495612956565b94604051948580926305cee64160e21b82525afa92831561174c575f93612be2575b50835f19048311840215670de0b6b3a764000002156106b257612ba694612b95612b9b92670de0b6b3a764000087612ba197020461297e565b9461297e565b9061297e565b61299f565b7812725dd1d243aba0e75fe645cc4873f9e65afe688c928e1f218111670de0b6b3a764000002158202156106b257670de0b6b3a7640000020490565b9092506020813d602011612c0e575b81612bfe602093836122ba565b810103126106b25751915f612b5c565b3d9150612bf1565b506020813d602011612c42575b81612c30602093836122ba565b810103126106b257612b1b9051612b10565b3d9150612c23565b60405162461bcd60e51b815260206004820152600d60248201526c0a482a88abea89e9ebe90928e9609b1b6044820152606490fd5b9092506020813d602011612cab575b81612c9b602093836122ba565b810103126106b25751915f612adf565b3d9150612c8e565b92506020833d602011612cea575b81612cce602093836122ba565b810103126106b2576020612ce360649461250a565b9350612a98565b3d9150612cc1565b9091506020813d602011612d1e575b81612d0e602093836122ba565b810103126106b25751905f612a72565b3d9150612d01565b9092506020813d602011612d52575b81612d42602093836122ba565b810103126106b25751915f612a4c565b3d9150612d35565b9091506020813d602011612d86575b81612d76602093836122ba565b810103126106b25751905f612a26565b3d9150612d69565b60405163182df0f560e01b81529150602090829060049082905afa90811561174c575f91612dba575090565b90506020813d602011612de1575b81612dd5602093836122ba565b810103126106b2575190565b3d9150612dc8565b9091506020813d602011612e15575b81612e05602093836122ba565b810103126106b25751905f6129fa565b3d9150612df8565b91909160205f60405193612e5485612e468582019363095ea7b360e01b855289602484016125a4565b03601f1981018752866122ba565b84519082855af15f513d82612eb5575b505015612e7057505050565b60405163095ea7b360e01b60208201526001600160a01b0390931660248401525f60448085019190915283526123c09261295190612eaf6064826122ba565b82612f0d565b909150612ed257506001600160a01b0381163b15155b5f80612e64565b600114612ecb565b51906001600160e01b03821682036106b257565b519063ffffffff821682036106b257565b5f19811461298b5760010190565b905f602091828151910182855af11561174c575f513d612f5c57506001600160a01b0381163b155b612f3c5750565b635274afe760e01b5f9081526001600160a01b0391909116600452602490fd5b60011415612f3556fe9b779b17422d0df92223018b32b4d1fa46e071723d6817e2486d003becc55f00a26469706673582212200b9c023b910a6665b3ad123df1bdc077d0f32e30cccbd45cf0dcd81fc189cbb364736f6c634300081c0033",
  "linkReferences": {},
  "deployedLinkReferences": {}
}