{
  "_format": "hh-sol-artifact-1",
  "contractName": "MorphoArk",
  "sourceName": "src/contracts/arks/MorphoArk.sol",
  "abi": [
    {
      "inputs": [
        {
          "internalType": "address",
          "name": "_morpho",
          "type": "address"
        },
        {
          "internalType": "Id",
          "name": "_marketId",
          "type": "bytes32"
        },
        {
          "components": [
            {
              "internalType": "string",
              "name": "name",
              "type": "string"
            },
            {
              "internalType": "string",
              "name": "details",
              "type": "string"
            },
            {
              "internalType": "address",
              "name": "accessManager",
              "type": "address"
            },
            {
              "internalType": "address",
              "name": "configurationManager",
              "type": "address"
            },
            {
              "internalType": "address",
              "name": "asset",
              "type": "address"
            },
            {
              "internalType": "uint256",
              "name": "depositCap",
              "type": "uint256"
            },
            {
              "internalType": "uint256",
              "name": "maxRebalanceOutflow",
              "type": "uint256"
            },
            {
              "internalType": "uint256",
              "name": "maxRebalanceInflow",
              "type": "uint256"
            },
            {
              "internalType": "bool",
              "name": "requiresKeeperData",
              "type": "bool"
            },
            {
              "internalType": "Percentage",
              "name": "maxDepositPercentageOfTVL",
              "type": "uint256"
            }
          ],
          "internalType": "struct ArkParams",
          "name": "_arkParams",
          "type": "tuple"
        }
      ],
      "stateMutability": "nonpayable",
      "type": "constructor"
    },
    {
      "inputs": [
        {
          "internalType": "address",
          "name": "caller",
          "type": "address"
        }
      ],
      "name": "CallerIsNotAdmin",
      "type": "error"
    },
    {
      "inputs": [
        {
          "internalType": "address",
          "name": "caller",
          "type": "address"
        }
      ],
      "name": "CallerIsNotAuthorizedToBoard",
      "type": "error"
    },
    {
      "inputs": [
        {
          "internalType": "address",
          "name": "caller",
          "type": "address"
        }
      ],
      "name": "CallerIsNotCommander",
      "type": "error"
    },
    {
      "inputs": [
        {
          "internalType": "address",
          "name": "caller",
          "type": "address"
        },
        {
          "internalType": "bytes32",
          "name": "role",
          "type": "bytes32"
        }
      ],
      "name": "CallerIsNotContractSpecificRole",
      "type": "error"
    },
    {
      "inputs": [
        {
          "internalType": "address",
          "name": "caller",
          "type": "address"
        }
      ],
      "name": "CallerIsNotCurator",
      "type": "error"
    },
    {
      "inputs": [
        {
          "internalType": "address",
          "name": "caller",
          "type": "address"
        }
      ],
      "name": "CallerIsNotDecayController",
      "type": "error"
    },
    {
      "inputs": [
        {
          "internalType": "address",
          "name": "caller",
          "type": "address"
        }
      ],
      "name": "CallerIsNotGovernor",
      "type": "error"
    },
    {
      "inputs": [
        {
          "internalType": "address",
          "name": "caller",
          "type": "address"
        }
      ],
      "name": "CallerIsNotGuardian",
      "type": "error"
    },
    {
      "inputs": [
        {
          "internalType": "address",
          "name": "caller",
          "type": "address"
        }
      ],
      "name": "CallerIsNotGuardianOrGovernor",
      "type": "error"
    },
    {
      "inputs": [
        {
          "internalType": "address",
          "name": "caller",
          "type": "address"
        }
      ],
      "name": "CallerIsNotKeeper",
      "type": "error"
    },
    {
      "inputs": [
        {
          "internalType": "address",
          "name": "caller",
          "type": "address"
        }
      ],
      "name": "CallerIsNotRaft",
      "type": "error"
    },
    {
      "inputs": [
        {
          "internalType": "address",
          "name": "caller",
          "type": "address"
        }
      ],
      "name": "CallerIsNotRaftOrCommander",
      "type": "error"
    },
    {
      "inputs": [
        {
          "internalType": "address",
          "name": "caller",
          "type": "address"
        }
      ],
      "name": "CallerIsNotSuperKeeper",
      "type": "error"
    },
    {
      "inputs": [],
      "name": "CannotAddCommanderToArkWithCommander",
      "type": "error"
    },
    {
      "inputs": [],
      "name": "CannotDeployArkWithEmptyName",
      "type": "error"
    },
    {
      "inputs": [],
      "name": "CannotDeployArkWithoutConfigurationManager",
      "type": "error"
    },
    {
      "inputs": [],
      "name": "CannotDeployArkWithoutRaft",
      "type": "error"
    },
    {
      "inputs": [],
      "name": "CannotDeployArkWithoutToken",
      "type": "error"
    },
    {
      "inputs": [],
      "name": "CannotRemoveCommanderFromArkWithAssets",
      "type": "error"
    },
    {
      "inputs": [],
      "name": "CannotUseKeeperDataWhenNotRequired",
      "type": "error"
    },
    {
      "inputs": [],
      "name": "ConfigurationManagerZeroAddress",
      "type": "error"
    },
    {
      "inputs": [
        {
          "internalType": "address",
          "name": "caller",
          "type": "address"
        }
      ],
      "name": "DirectGrantIsDisabled",
      "type": "error"
    },
    {
      "inputs": [
        {
          "internalType": "address",
          "name": "caller",
          "type": "address"
        }
      ],
      "name": "DirectRevokeIsDisabled",
      "type": "error"
    },
    {
      "inputs": [],
      "name": "ERC4626AssetMismatch",
      "type": "error"
    },
    {
      "inputs": [
        {
          "internalType": "address",
          "name": "invalidAddress",
          "type": "address"
        }
      ],
      "name": "InvalidAccessManagerAddress",
      "type": "error"
    },
    {
      "inputs": [],
      "name": "InvalidBoardData",
      "type": "error"
    },
    {
      "inputs": [],
      "name": "InvalidDisembarkData",
      "type": "error"
    },
    {
      "inputs": [],
      "name": "InvalidMarketId",
      "type": "error"
    },
    {
      "inputs": [],
      "name": "InvalidMorphoAddress",
      "type": "error"
    },
    {
      "inputs": [],
      "name": "InvalidVaultAddress",
      "type": "error"
    },
    {
      "inputs": [],
      "name": "KeeperDataRequired",
      "type": "error"
    },
    {
      "inputs": [],
      "name": "ReentrancyGuardReentrantCall",
      "type": "error"
    },
    {
      "inputs": [
        {
          "internalType": "address",
          "name": "token",
          "type": "address"
        }
      ],
      "name": "SafeERC20FailedOperation",
      "type": "error"
    },
    {
      "anonymous": false,
      "inputs": [
        {
          "indexed": true,
          "internalType": "address[]",
          "name": "rewardTokens",
          "type": "address[]"
        },
        {
          "indexed": true,
          "internalType": "uint256[]",
          "name": "rewardAmounts",
          "type": "uint256[]"
        }
      ],
      "name": "ArkHarvested",
      "type": "event"
    },
    {
      "anonymous": false,
      "inputs": [
        {
          "indexed": false,
          "internalType": "uint256",
          "name": "currentPrice",
          "type": "uint256"
        },
        {
          "indexed": false,
          "internalType": "uint256",
          "name": "timestamp",
          "type": "uint256"
        }
      ],
      "name": "ArkPoked",
      "type": "event"
    },
    {
      "anonymous": false,
      "inputs": [
        {
          "indexed": true,
          "internalType": "address[]",
          "name": "sweptTokens",
          "type": "address[]"
        },
        {
          "indexed": true,
          "internalType": "uint256[]",
          "name": "sweptAmounts",
          "type": "uint256[]"
        }
      ],
      "name": "ArkSwept",
      "type": "event"
    },
    {
      "anonymous": false,
      "inputs": [
        {
          "indexed": true,
          "internalType": "address",
          "name": "commander",
          "type": "address"
        },
        {
          "indexed": false,
          "internalType": "address",
          "name": "token",
          "type": "address"
        },
        {
          "indexed": false,
          "internalType": "uint256",
          "name": "amount",
          "type": "uint256"
        }
      ],
      "name": "Boarded",
      "type": "event"
    },
    {
      "anonymous": false,
      "inputs": [
        {
          "indexed": false,
          "internalType": "uint256",
          "name": "newCap",
          "type": "uint256"
        }
      ],
      "name": "DepositCapUpdated",
      "type": "event"
    },
    {
      "anonymous": false,
      "inputs": [
        {
          "indexed": true,
          "internalType": "address",
          "name": "commander",
          "type": "address"
        },
        {
          "indexed": false,
          "internalType": "address",
          "name": "token",
          "type": "address"
        },
        {
          "indexed": false,
          "internalType": "uint256",
          "name": "amount",
          "type": "uint256"
        }
      ],
      "name": "Disembarked",
      "type": "event"
    },
    {
      "anonymous": false,
      "inputs": [
        {
          "indexed": false,
          "internalType": "address",
          "name": "commander",
          "type": "address"
        }
      ],
      "name": "FleetCommanderRegistered",
      "type": "event"
    },
    {
      "anonymous": false,
      "inputs": [
        {
          "indexed": false,
          "internalType": "address",
          "name": "commander",
          "type": "address"
        }
      ],
      "name": "FleetCommanderUnregistered",
      "type": "event"
    },
    {
      "anonymous": false,
      "inputs": [
        {
          "indexed": false,
          "internalType": "Percentage",
          "name": "newMaxDepositPercentageOfTVL",
          "type": "uint256"
        }
      ],
      "name": "MaxDepositPercentageOfTVLUpdated",
      "type": "event"
    },
    {
      "anonymous": false,
      "inputs": [
        {
          "indexed": false,
          "internalType": "uint256",
          "name": "newMaxInflow",
          "type": "uint256"
        }
      ],
      "name": "MaxRebalanceInflowUpdated",
      "type": "event"
    },
    {
      "anonymous": false,
      "inputs": [
        {
          "indexed": false,
          "internalType": "uint256",
          "name": "newMaxOutflow",
          "type": "uint256"
        }
      ],
      "name": "MaxRebalanceOutflowUpdated",
      "type": "event"
    },
    {
      "anonymous": false,
      "inputs": [
        {
          "indexed": true,
          "internalType": "address",
          "name": "from",
          "type": "address"
        },
        {
          "indexed": true,
          "internalType": "address",
          "name": "to",
          "type": "address"
        },
        {
          "indexed": false,
          "internalType": "address",
          "name": "token",
          "type": "address"
        },
        {
          "indexed": false,
          "internalType": "uint256",
          "name": "amount",
          "type": "uint256"
        }
      ],
      "name": "Moved",
      "type": "event"
    },
    {
      "anonymous": false,
      "inputs": [
        {
          "indexed": false,
          "internalType": "address",
          "name": "newRaft",
          "type": "address"
        }
      ],
      "name": "RaftUpdated",
      "type": "event"
    },
    {
      "inputs": [],
      "name": "MORPHO",
      "outputs": [
        {
          "internalType": "contract IMorpho",
          "name": "",
          "type": "address"
        }
      ],
      "stateMutability": "view",
      "type": "function"
    },
    {
      "inputs": [],
      "name": "asset",
      "outputs": [
        {
          "internalType": "contract IERC20",
          "name": "",
          "type": "address"
        }
      ],
      "stateMutability": "view",
      "type": "function"
    },
    {
      "inputs": [
        {
          "internalType": "uint256",
          "name": "amount",
          "type": "uint256"
        },
        {
          "internalType": "bytes",
          "name": "boardData",
          "type": "bytes"
        }
      ],
      "name": "board",
      "outputs": [],
      "stateMutability": "nonpayable",
      "type": "function"
    },
    {
      "inputs": [],
      "name": "commander",
      "outputs": [
        {
          "internalType": "address",
          "name": "",
          "type": "address"
        }
      ],
      "stateMutability": "view",
      "type": "function"
    },
    {
      "inputs": [],
      "name": "config",
      "outputs": [
        {
          "internalType": "address",
          "name": "commander",
          "type": "address"
        },
        {
          "internalType": "address",
          "name": "raft",
          "type": "address"
        },
        {
          "internalType": "contract IERC20",
          "name": "asset",
          "type": "address"
        },
        {
          "internalType": "uint256",
          "name": "depositCap",
          "type": "uint256"
        },
        {
          "internalType": "uint256",
          "name": "maxRebalanceOutflow",
          "type": "uint256"
        },
        {
          "internalType": "uint256",
          "name": "maxRebalanceInflow",
          "type": "uint256"
        },
        {
          "internalType": "string",
          "name": "name",
          "type": "string"
        },
        {
          "internalType": "string",
          "name": "details",
          "type": "string"
        },
        {
          "internalType": "bool",
          "name": "requiresKeeperData",
          "type": "bool"
        },
        {
          "internalType": "Percentage",
          "name": "maxDepositPercentageOfTVL",
          "type": "uint256"
        }
      ],
      "stateMutability": "view",
      "type": "function"
    },
    {
      "inputs": [],
      "name": "configurationManager",
      "outputs": [
        {
          "internalType": "contract IConfigurationManager",
          "name": "",
          "type": "address"
        }
      ],
      "stateMutability": "view",
      "type": "function"
    },
    {
      "inputs": [],
      "name": "depositCap",
      "outputs": [
        {
          "internalType": "uint256",
          "name": "",
          "type": "uint256"
        }
      ],
      "stateMutability": "view",
      "type": "function"
    },
    {
      "inputs": [
        {
          "internalType": "uint256",
          "name": "amount",
          "type": "uint256"
        },
        {
          "internalType": "bytes",
          "name": "disembarkData",
          "type": "bytes"
        }
      ],
      "name": "disembark",
      "outputs": [],
      "stateMutability": "nonpayable",
      "type": "function"
    },
    {
      "inputs": [],
      "name": "fleetCommanderRewardsManagerFactory",
      "outputs": [
        {
          "internalType": "address",
          "name": "",
          "type": "address"
        }
      ],
      "stateMutability": "view",
      "type": "function"
    },
    {
      "inputs": [
        {
          "internalType": "enum ContractSpecificRoles",
          "name": "roleName",
          "type": "uint8"
        },
        {
          "internalType": "address",
          "name": "roleTargetContract",
          "type": "address"
        }
      ],
      "name": "generateRole",
      "outputs": [
        {
          "internalType": "bytes32",
          "name": "",
          "type": "bytes32"
        }
      ],
      "stateMutability": "pure",
      "type": "function"
    },
    {
      "inputs": [],
      "name": "getConfig",
      "outputs": [
        {
          "components": [
            {
              "internalType": "address",
              "name": "commander",
              "type": "address"
            },
            {
              "internalType": "address",
              "name": "raft",
              "type": "address"
            },
            {
              "internalType": "contract IERC20",
              "name": "asset",
              "type": "address"
            },
            {
              "internalType": "uint256",
              "name": "depositCap",
              "type": "uint256"
            },
            {
              "internalType": "uint256",
              "name": "maxRebalanceOutflow",
              "type": "uint256"
            },
            {
              "internalType": "uint256",
              "name": "maxRebalanceInflow",
              "type": "uint256"
            },
            {
              "internalType": "string",
              "name": "name",
              "type": "string"
            },
            {
              "internalType": "string",
              "name": "details",
              "type": "string"
            },
            {
              "internalType": "bool",
              "name": "requiresKeeperData",
              "type": "bool"
            },
            {
              "internalType": "Percentage",
              "name": "maxDepositPercentageOfTVL",
              "type": "uint256"
            }
          ],
          "internalType": "struct ArkConfig",
          "name": "",
          "type": "tuple"
        }
      ],
      "stateMutability": "view",
      "type": "function"
    },
    {
      "inputs": [],
      "name": "harborCommand",
      "outputs": [
        {
          "internalType": "address",
          "name": "",
          "type": "address"
        }
      ],
      "stateMutability": "view",
      "type": "function"
    },
    {
      "inputs": [
        {
          "internalType": "bytes",
          "name": "additionalData",
          "type": "bytes"
        }
      ],
      "name": "harvest",
      "outputs": [
        {
          "internalType": "address[]",
          "name": "rewardTokens",
          "type": "address[]"
        },
        {
          "internalType": "uint256[]",
          "name": "rewardAmounts",
          "type": "uint256[]"
        }
      ],
      "stateMutability": "nonpayable",
      "type": "function"
    },
    {
      "inputs": [],
      "name": "marketId",
      "outputs": [
        {
          "internalType": "Id",
          "name": "",
          "type": "bytes32"
        }
      ],
      "stateMutability": "view",
      "type": "function"
    },
    {
      "inputs": [],
      "name": "marketParams",
      "outputs": [
        {
          "internalType": "address",
          "name": "loanToken",
          "type": "address"
        },
        {
          "internalType": "address",
          "name": "collateralToken",
          "type": "address"
        },
        {
          "internalType": "address",
          "name": "oracle",
          "type": "address"
        },
        {
          "internalType": "address",
          "name": "irm",
          "type": "address"
        },
        {
          "internalType": "uint256",
          "name": "lltv",
          "type": "uint256"
        }
      ],
      "stateMutability": "view",
      "type": "function"
    },
    {
      "inputs": [],
      "name": "maxDepositPercentageOfTVL",
      "outputs": [
        {
          "internalType": "Percentage",
          "name": "",
          "type": "uint256"
        }
      ],
      "stateMutability": "view",
      "type": "function"
    },
    {
      "inputs": [],
      "name": "maxRebalanceInflow",
      "outputs": [
        {
          "internalType": "uint256",
          "name": "",
          "type": "uint256"
        }
      ],
      "stateMutability": "view",
      "type": "function"
    },
    {
      "inputs": [],
      "name": "maxRebalanceOutflow",
      "outputs": [
        {
          "internalType": "uint256",
          "name": "",
          "type": "uint256"
        }
      ],
      "stateMutability": "view",
      "type": "function"
    },
    {
      "inputs": [
        {
          "internalType": "uint256",
          "name": "amount",
          "type": "uint256"
        },
        {
          "internalType": "address",
          "name": "receiverArk",
          "type": "address"
        },
        {
          "internalType": "bytes",
          "name": "boardData",
          "type": "bytes"
        },
        {
          "internalType": "bytes",
          "name": "disembarkData",
          "type": "bytes"
        }
      ],
      "name": "move",
      "outputs": [],
      "stateMutability": "nonpayable",
      "type": "function"
    },
    {
      "inputs": [],
      "name": "name",
      "outputs": [
        {
          "internalType": "string",
          "name": "",
          "type": "string"
        }
      ],
      "stateMutability": "view",
      "type": "function"
    },
    {
      "inputs": [],
      "name": "raft",
      "outputs": [
        {
          "internalType": "address",
          "name": "",
          "type": "address"
        }
      ],
      "stateMutability": "view",
      "type": "function"
    },
    {
      "inputs": [],
      "name": "registerFleetCommander",
      "outputs": [],
      "stateMutability": "nonpayable",
      "type": "function"
    },
    {
      "inputs": [],
      "name": "requiresKeeperData",
      "outputs": [
        {
          "internalType": "bool",
          "name": "",
          "type": "bool"
        }
      ],
      "stateMutability": "view",
      "type": "function"
    },
    {
      "inputs": [
        {
          "internalType": "uint256",
          "name": "newDepositCap",
          "type": "uint256"
        }
      ],
      "name": "setDepositCap",
      "outputs": [],
      "stateMutability": "nonpayable",
      "type": "function"
    },
    {
      "inputs": [
        {
          "internalType": "Percentage",
          "name": "newMaxDepositPercentageOfTVL",
          "type": "uint256"
        }
      ],
      "name": "setMaxDepositPercentageOfTVL",
      "outputs": [],
      "stateMutability": "nonpayable",
      "type": "function"
    },
    {
      "inputs": [
        {
          "internalType": "uint256",
          "name": "newMaxRebalanceInflow",
          "type": "uint256"
        }
      ],
      "name": "setMaxRebalanceInflow",
      "outputs": [],
      "stateMutability": "nonpayable",
      "type": "function"
    },
    {
      "inputs": [
        {
          "internalType": "uint256",
          "name": "newMaxRebalanceOutflow",
          "type": "uint256"
        }
      ],
      "name": "setMaxRebalanceOutflow",
      "outputs": [],
      "stateMutability": "nonpayable",
      "type": "function"
    },
    {
      "inputs": [
        {
          "internalType": "address[]",
          "name": "tokens",
          "type": "address[]"
        }
      ],
      "name": "sweep",
      "outputs": [
        {
          "internalType": "address[]",
          "name": "sweptTokens",
          "type": "address[]"
        },
        {
          "internalType": "uint256[]",
          "name": "sweptAmounts",
          "type": "uint256[]"
        }
      ],
      "stateMutability": "nonpayable",
      "type": "function"
    },
    {
      "inputs": [],
      "name": "tipJar",
      "outputs": [
        {
          "internalType": "address",
          "name": "",
          "type": "address"
        }
      ],
      "stateMutability": "view",
      "type": "function"
    },
    {
      "inputs": [],
      "name": "totalAssets",
      "outputs": [
        {
          "internalType": "uint256",
          "name": "",
          "type": "uint256"
        }
      ],
      "stateMutability": "view",
      "type": "function"
    },
    {
      "inputs": [],
      "name": "treasury",
      "outputs": [
        {
          "internalType": "address",
          "name": "",
          "type": "address"
        }
      ],
      "stateMutability": "view",
      "type": "function"
    },
    {
      "inputs": [],
      "name": "unregisterFleetCommander",
      "outputs": [],
      "stateMutability": "nonpayable",
      "type": "function"
    }
  ],
  "bytecode": "0x60c0806040523461051057612fed803803809161001c82856107f0565b833981016060828203126105105761003382610813565b6020830151604084015190939192916001600160401b03821161051057019061014082820312610510576040519061006a826107d4565b82516001600160401b0381116105105781610086918501610827565b82526020830151906001600160401b038211610510576100a7918401610827565b91602082019283526100bb60408201610813565b928360408401526100ce60608301610813565b9260608101948486526100e360808501610813565b956080830196875260a08501519660a0840197885260c08601519160c0850192835260e08701519360e086019485526101206101226101008a0161087c565b61010088019081529801516101208701908152986001600160a01b03908116911680156107c1576040516301ffc9a760e01b8152639bd1803160e01b6004820152602081602481855afa90811561051c575f91610787575b5015610775575f80546001600160a01b031916919091179055801561076657608052516001600160a01b0316156107575780516001600160a01b0316156107485783515115610739576001600160a01b036101d3610889565b161561072a57516001600160a01b03166101eb610889565b97519151925193519451955115159651976101206040519161020c836107d4565b5f83526001600160a01b03166020830181905260408301849052606083018590526080830186905260a0830187905260c0830188905260e083019889526101008301998a529101988952600180546001600160a01b03199081169091556002805482169092179091556003805490911690911790556004556005556006558051906001600160401b0382116104fc5760075490600182811c92168015610720575b60208310146106235781601f8493116106b2575b50602090601f831160011461064c575f92610641575b50508160011b915f199060031b1c1916176007555b518051906001600160401b0382116104fc5760085490600182811c92168015610637575b60208310146106235781601f8493116105b5575b50602090601f831160011461054f575f92610544575b50508160011b915f199060031b1c1916176008555b51151560ff80196009541691161760095551600a5560018060a01b03169081156105355780156105275760a09082825280600b55602460405180948193632c3c915760e01b835260048301525afa801561051c575f90610470575b8051600c80546001600160a01b03199081166001600160a01b03938416179091556020830151600d80548316918416919091179055604080840151600e805484169185169190911790556060840151600f8054909316931692909217905560809190910151601055516126f690816108f782396080518181816101a4015281816107f901528181610e300152818161162c0152818161169e0152612330015260a051818181610a1d01528181611753015281816118af01528181611b940152611d6b0152f35b5060a0813d60a011610514575b8161048a60a093836107f0565b810103126105105760405160a081016001600160401b038111828210176104fc5760809283916040526104bc81610813565b83526104ca60208201610813565b60208401526104db60408201610813565b60408401526104ec60608201610813565b60608401520151828201526103aa565b634e487b7160e01b5f52604160045260245ffd5b5f80fd5b3d915061047d565b6040513d5f823e3d90fd5b62320bd360e51b5f5260045ffd5b630a875a6560e31b5f5260045ffd5b015190505f8061033a565b60085f9081528281209350601f198516905b81811061059d5750908460019594939210610585575b505050811b0160085561034f565b01515f1960f88460031b161c191690555f8080610577565b92936020600181928786015181550195019301610561565b60085f529091507ff3f7a9fe364faab93b216da50a3214154f22a0a2b415b23a84c8169e8b636ee3601f840160051c81019160208510610619575b90601f859493920160051c01905b81811061060b5750610324565b5f81558493506001016105fe565b90915081906105f0565b634e487b7160e01b5f52602260045260245ffd5b91607f1691610310565b015190505f806102d7565b60075f9081528281209350601f198516905b81811061069a5750908460019594939210610682575b505050811b016007556102ec565b01515f1960f88460031b161c191690555f8080610674565b9293602060018192878601518155019501930161065e565b60075f529091507fa66cc928b5edb82af9bd49922954155ab7b0942694bea4ce44661d9a8736c688601f840160051c81019160208510610716575b90601f859493920160051c01905b81811061070857506102c1565b5f81558493506001016106fb565b90915081906106ed565b91607f16916102ad565b633a4f9cdb60e21b5f5260045ffd5b63268c072960e01b5f5260045ffd5b637ff57ef160e11b5f5260045ffd5b63b53c493160e01b5f5260045ffd5b63f1634df960e01b5f5260045ffd5b6347bd7c1d60e01b5f5260045260245ffd5b90506020813d6020116107b9575b816107a2602093836107f0565b81010312610510576107b39061087c565b5f61017a565b3d9150610795565b6347bd7c1d60e01b5f525f60045260245ffd5b61014081019081106001600160401b038211176104fc57604052565b601f909101601f19168101906001600160401b038211908210176104fc57604052565b51906001600160a01b038216820361051057565b81601f82011215610510578051906001600160401b0382116104fc576040519261085b601f8401601f1916602001856107f0565b8284526020838301011161051057815f9260208093018386015e8301015290565b5190811515820361051057565b608051604051628bec5760e51b815290602090829060049082906001600160a01b03165afa90811561051c575f916108bf575090565b90506020813d6020116108ee575b816108da602093836107f0565b81010312610510576108eb90610813565b90565b3d91506108cd56fe6080806040526004361015610012575f80fd5b5f905f3560e01c90816301e1d11414611d3f5750806306fdde0314611d10578063117d8ae014611ce457806313c408f814611b655780632db6d39914611815578063303dbaf3146117f25780633194549e146117d457806337270936146117ab57806338d52e0f146117825780633acb56241461173d5780634fc7fac3146116e95780635b0f83f31461167757806361d027b31461160557806361f5cd8b146115b157806369b3054b146115475780636ed71ede14611529578063780469bb14610f2e57806379502c5514610e7b5780637aaceb9514610e095780637b9e68f214610db15780638665120314610d5d5780638a8b997614610d0157806392f5e83214610c9a578063ad5a356f14610c7c578063bdcdd88214610c5e578063c38a6f0b146109a2578063c3f909d414610828578063c9c667e3146107e3578063ce5c7f61146102ca578063dbd5edc7146102ac578063ebf311311461023c5763f7e533ec1461017e575f80fd5b34610225578060031936011261022557604051633df94cfb60e21b8152906020826004817f00000000000000000000000000000000000000000000000000000000000000006001600160a01b03165afa9081156102305780916101f0575b6040516001600160a01b0383168152602090f35b90506020823d602011610228575b8161020b60209383612045565b81010312610225575061021f602091612308565b5f6101dc565b80fd5b3d91506101fe565b604051903d90823e3d90fd5b50346102255780600319360112610225576102556124ac565b1561029957600180546001600160a01b03191690556040513381527f7cb941d7b1708e5b3bcd35ca960d6c6311188cec18886e5b67630552676b048790602090a180f35b631564c0e160e11b815233600452602490fd5b50346102255780600319360112610225576020600454604051908152f35b5034610225576020366003190112610225576004356001600160401b0381116107df576102fb903690600401611fb3565b604051628bec5760e51b8152602081600481305afa9081156107d457849161079a575b506001600160a01b031633036107875761033661253f565b81019060208183031261077f578035906001600160401b03821161078357019060808282031261077f5760405191608083018381106001600160401b0382111761076b5760405280356001600160401b038111610767578261039991830161207d565b835260208101356001600160401b03811161076757826103ba91830161207d565b916020840192835260408201356001600160401b03811161074f5782019181601f8401121561074f578235926103ef84612066565b936103fd6040519586612045565b80855260208086019160051b8301019184831161074b57602001905b82821061075757505050604085019283526060810135906001600160401b03821161075357019080601f8301121561074f5781359161045783612066565b926104656040519485612045565b80845260208085019160051b8301019183831161074b5760208101915b8383106106c3575050505050606084019081526104a08351516123d5565b906104ac8451516123d5565b95805b85515181101561062f5786516001600160a01b03906104cf908390612407565b51169060018060a01b036104e4828951612407565b5116916104f2828851612407565b516104fe838751612407565b519185604051958693637d5f6a0960e11b8552608485019130600487015260248601526044850152608060648501528451809152602060a4850195019082905b8082106106105750505082908160209503925af18015610605576105d0575b8651600192506001600160a01b0390610577908390612407565b51166105838287612407565b5261058f818751612407565b5161059a828b612407565b526105ca828060a01b036105af838a51612407565b51166105b961231c565b6105c3848d612407565b5191612613565b016104af565b6020823d82116105fd575b816105e860209383612045565b810103126105f9576001915061055d565b5f80fd5b3d91506105db565b6040513d85823e3d90fd5b825187526020968701968996508a94509092019160019091019061053e565b50826106bf8861063e8361242f565b61064782612472565b907f3e3e7958121b3e39c7a49392d1aa9cdce870c2a059744f9e15cf66fff78654558680a36106758361242f565b9261067f82612472565b946040519586957f3e3e7958121b3e39c7a49392d1aa9cdce870c2a059744f9e15cf66fff78654558380a35f5160206126a15f395f51905f525d836120eb565b0390f35b82356001600160401b03811161074757820185603f82011215610747576020810135906106ef82612066565b916106fd6040519384612045565b8083526020808085019260051b840101019188831161074357604001905b82821061073357505050815260209283019201610482565b813581526020918201910161071b565b8d80fd5b8a80fd5b8880fd5b8580fd5b8680fd5b8135815260209182019101610419565b8480fd5b634e487b7160e01b85526041600452602485fd5b8280fd5b8380fd5b631184b31b60e21b835233600452602483fd5b90506020813d6020116107cc575b816107b560209383612045565b81010312610783576107c690612308565b5f61031e565b3d91506107a8565b6040513d86823e3d90fd5b5080fd5b50346102255780600319360112610225576040517f00000000000000000000000000000000000000000000000000000000000000006001600160a01b03168152602090f35b503461022557806003193601126102255761012060405161084881612029565b8281528260208201528260408201528260608201528260808201528260a0820152606060c0820152606060e082015282610100820152015260405161088c81612029565b6001546001600160a01b03908116825260025481166020830190815260035490911660408301908152600454606084019081526005546080850190815260065460a0860190815293949391929161098d9190610979906108ea612166565b9060c088019182526108fa612248565b60e089810191825260095460ff1615156101008b01908152600a546101208c019081526040805160208082529d516001600160a01b039081169e82019e909e529d518d16908e01529851909a1660608c0152975160808b0152935160a08a01525160c08901525161014095880195909552869594610160870190611f8f565b9051858203601f1901610100870152611f8f565b91511515610120840152516101408301520390f35b5034610225576080366003190112610225576004356109bf612013565b906044356001600160401b038111610783576109df903690600401611fb3565b90926064356001600160401b03811161074f57610a00903690600401611fb3565b90610a096124ac565b15610c4b5786939291610a1b91612574565b7f00000000000000000000000000000000000000000000000000000000000000006001600160a01b0316803b1561078357604051630a8e0d6f60e11b8152610a65600482016125c5565b848160a48183865af1908115610c40578591610c2b575b5090604090610124825180948193635c2bea4960e01b8352610aa0600484016125c5565b8a60a48401528160c48401523060e4840152306101048401525af180156107d457610bfd575b5060035460405163095ea7b360e01b81529060209082906001600160a01b0316818781610af78b89600484016123a2565b03925af180156107d457610bd0575b506001600160a01b031693843b1561077f5781606484926040519485938492632db6d39960e01b845289600485015260406024850152816044850152848401378181018301859052601f01601f1916810103018183885af18015610bc557610bb0575b505060035460405130927f9f784fc02a186f1c98b2d9f15fda084da27cdd291a3785d978f91911d880516b928291610baa916001600160a01b0316836123a2565b0390a380f35b81610bba91612045565b61077f57825f610b69565b6040513d84823e3d90fd5b610bf19060203d602011610bf6575b610be98183612045565b8101906123bd565b610b06565b503d610bdf565b610c1e9060403d604011610c24575b610c168183612045565b8101906125fd565b50610ac6565b503d610c0c565b81610c3591612045565b61078357835f610a7c565b6040513d87823e3d90fd5b631564c0e160e11b875233600452602487fd5b50346102255780600319360112610225576020600a54604051908152f35b50346102255780600319360112610225576020600654604051908152f35b503461022557602036600319011261022557600435610cb76124ac565b15610cee576020817fb6ac66853c4e59c71e118d25ab494bb847c4e5eb0c8894898c5343e6f61afc1292600655604051908152a180f35b631564c0e160e11b825233600452602482fd5b5034610225578060031936011261022557610d1a6124ac565b15610299573360018060a01b031960015416176001557f55489ce0259bd691120d8860861be1c401c7c16a3cd268d21045756af4ecc5ca6020604051338152a180f35b503461022557602036600319011261022557600435610d7a6124ac565b15610cee576020817f333b26cca69716ad4680ddb07663f5bfb4f06045671f336af9a83690a3ae00f992600455604051908152a180f35b5034610225578060031936011261022557600c54600d54600e54600f54601054604080516001600160a01b0396871681529486166020860152928516928401929092529092166060820152608081019190915260a090f35b5034610225578060031936011261022557604051637aaceb9560e01b8152906020826004817f00000000000000000000000000000000000000000000000000000000000000006001600160a01b03165afa9081156102305780916101f0576040516001600160a01b0383168152602090f35b50346102255780600319360112610225576001546002546003546004546005546006546001600160a01b0394851695851694929390921691610f1b9190610f0d90610ec4612166565b90610ecd612248565b9360ff6009541697600a54976040519b8c9b8c5260208c015260408b015260608a0152608089015260a088015261014060c0880152610140870190611f8f565b9085820360e0870152611f8f565b9115156101008401526101208301520390f35b5034610225576020366003190112610225576004356001600160401b0381116107df57610f5f90369060040161207d565b604051628bec5760e51b8152602081600481305afa9081156106055783916114ef575b506001600160a01b031633036114dc57610f9a61253f565b610fa481516123d5565b90610faf81516123d5565b9160018060a01b03600354166040516370a0823160e01b8152306004820152602081602481855afa9081156111525786916114aa575b506111b6575b50835b825181101561115d5760249060206001600160a01b0361100e8387612407565b5116604051938480926370a0823160e01b82523060048301525afa91821561115257869261111f575b5081611048575b6001915001610fee565b6001600160a01b0361105a8286612407565b511691602461106761231c565b9360206001600160a01b0361107c868a612407565b5116604051938480926370a0823160e01b82523060048301525afa9182156111145789926110e0575b50906001946110b392612613565b828060a01b036110c38387612407565b51166110cf8386612407565b526110da8287612407565b5261103e565b91506020823d821161110c575b816110fa60209383612045565b810103126105f95790519060016110a5565b3d91506110ed565b6040513d8b823e3d90fd5b9091506020813d821161114a575b8161113a60209383612045565b810103126105f95751905f611037565b3d915061112d565b6040513d88823e3d90fd5b84826106bf8661116c8361242f565b9261117682612472565b946040519586957f46b8771620f6acf56cb03d3e835ea8024c7dcbcf05fcc3f6ade9e19d1a3e212b8380a35f5160206126a15f395f51905f525d836120eb565b6001546040516330fe427560e21b81529060a090829060049082906001600160a01b03165afa908115611152578691611414575b50516040516370a0823160e01b81523060048201526001600160a01b039091169190602081602481855afa9081156114095787916113d7575b50602087604051926112588461124a8582019363095ea7b360e01b855289602484016123a2565b03601f198101865285612045565b83519082865af187513d826113bb575b505015611377575b50506003546040516370a0823160e01b815230600482015290602090829060249082906001600160a01b03165afa908115611152578691611345575b50604051602081018181106001600160401b038211176113315760405286815286929190823b156107835761130792849283604051809681958294632db6d39960e01b84526004840152604060248401526044830190611f8f565b03925af18015610bc55761131c575b50610feb565b8161132691612045565b61078357835f611316565b634e487b7160e01b88526041600452602488fd5b90506020813d60201161136f575b8161136060209383612045565b810103126105f957515f6112ac565b3d9150611353565b6113b4916113af60405163095ea7b360e01b6020820152856024820152896044820152604481526113a9606482612045565b82612648565b612648565b5f80611270565b9091506113cf5750813b15155b5f80611268565b6001146113c8565b90506020813d602011611401575b816113f260209383612045565b810103126105f957515f611223565b3d91506113e5565b6040513d89823e3d90fd5b905060a0813d60a0116114a2575b8161142f60a09383612045565b8101031261074f576040519060a082018281106001600160401b038211176113315760405280516001600160a01b038116810361149e5761149391608091845260208101516020850152604081015160408501526060810151606085015201612308565b60808201525f6111ea565b8780fd5b3d9150611422565b90506020813d6020116114d4575b816114c560209383612045565b810103126105f957515f610fe5565b3d91506114b8565b631184b31b60e21b825233600452602482fd5b90506020813d602011611521575b8161150a60209383612045565b8101031261077f5761151b90612308565b5f610f82565b3d91506114fd565b50346102255780600319360112610225576020600b54604051908152f35b50346102255760403660031901126102255760043560038110156107df57602091611570612013565b9050604051908382019260f81b83526bffffffffffffffffffffffff199060601b166021820152601581526115a6603582612045565b519020604051908152f35b5034610225576020366003190112610225576004356115ce6124ac565b15610cee576020817ffbe2d5c01ea8ba5596d6c4e6c82c6d4a0a0ee1128689993a4a5ba0169273d69f92600555604051908152a180f35b50346102255780600319360112610225576040516361d027b360e01b8152906020826004817f00000000000000000000000000000000000000000000000000000000000000006001600160a01b03165afa9081156102305780916101f0576040516001600160a01b0383168152602090f35b5034610225578060031936011261022557604051635b0f83f360e01b8152906020826004817f00000000000000000000000000000000000000000000000000000000000000006001600160a01b03165afa9081156102305780916101f0576040516001600160a01b0383168152602090f35b5034610225576020366003190112610225576004356117066124ac565b15610cee576020817fd3c6d0ab315f2f1352f036cd9f401b49e38e1b90907e195225e8105f9a0b6f0292600a55604051908152a180f35b50346102255780600319360112610225576040517f00000000000000000000000000000000000000000000000000000000000000006001600160a01b03168152602090f35b50346102255780600319360112610225576003546040516001600160a01b039091168152602090f35b50346102255780600319360112610225576001546040516001600160a01b039091168152602090f35b50346102255780600319360112610225576020600554604051908152f35b5034610225578060031936011261022557602060ff600954166040519015158152f35b50346102255761182436611fe0565b9061182d61253f565b604051631b93849b60e11b8152602081600481305afa908115610c40578591611b2b575b5061185a6124ac565b15611a49575b509061186b91612574565b6003546040516323b872dd60e01b6020820152336024820152306044820152606480820184905281526118ac916001600160a01b03166113af608483612045565b817f00000000000000000000000000000000000000000000000000000000000000006001600160a01b0316803b156107df57604051630a8e0d6f60e11b81526118f7600482016125c5565b828160a48183865af1908115610605578391611a34575b505060035460405163095ea7b360e01b8152919060209083906001600160a01b03168186816119418a88600484016123a2565b03925af191821561060557604092611a17575b5061014482518094819363a99aad8960e01b8352611974600484016125c5565b8760a48401528160c48401523060e4840152610120610104840152816101248401525af18015610605576119f9575b5060035460405133927fcbaa1442ac205415c9d69643e7b60ec73d1de35dbc807c21ec288c70ddc4207b9282916119e3916001600160a01b0316836123a2565b0390a2805f5160206126a15f395f51905f525d80f35b611a119060403d604011610c2457610c168183612045565b506119a3565b611a2f9060203d602011610bf657610be98183612045565b611954565b81611a3e91612045565b6107df57815f61190e565b604051628bec5760e51b8152602081600481305afa908115611152578691611af1575b506001600160a01b031633146118605760405163d25dd10160e01b815233600482015290602090829060249082906001600160a01b03165afa908115610c40578591611ad2575b5015611abf575f611860565b638f7a567d60e01b845233600452602484fd5b611aeb915060203d602011610bf657610be98183612045565b5f611ab3565b90506020813d602011611b23575b81611b0c60209383612045565b8101031261074f57611b1d90612308565b5f611a6c565b3d9150611aff565b90506020813d602011611b5d575b81611b4660209383612045565b8101031261076757611b5790612308565b5f611851565b3d9150611b39565b50346105f957611b7436611fe0565b611b7c6124ac565b15611cd157611b9291611b8d61253f565b612574565b7f00000000000000000000000000000000000000000000000000000000000000006001600160a01b0316803b156105f957604051630a8e0d6f60e11b8152611bdc600482016125c5565b5f8160a48183865af18015611cc657611cb1575b5060408391610124825180948193635c2bea4960e01b8352611c14600484016125c5565b8760a48401528160c48401523060e4840152306101048401525af1801561060557611c93575b50600354611c5490829033906001600160a01b0316612613565b60035460405133927fd5e872c5ecfb1bb8820b2e6a20e31b883682282da886621541f71e31ec11947e9282916119e3916001600160a01b0316836123a2565b611cab9060403d604011610c2457610c168183612045565b50611c3a565b604093505f611cbf91612045565b5f92611bf0565b6040513d5f823e3d90fd5b631564c0e160e11b5f523360045260245ffd5b346105f9575f3660031901126105f9576020611cfe61231c565b6040516001600160a01b039091168152f35b346105f9575f3660031901126105f9576106bf611d2b612166565b604051918291602083526020830190611f8f565b346105f9575f3660031901126105f957600b546349e2903160e11b8252600482018190523060248301527f00000000000000000000000000000000000000000000000000000000000000006001600160a01b03169190606082604481865afa918215611cc6575f92611f17575b5060c090602460405180958193632e3071cd60e11b835260048301525afa918215611cc6575f92611e52575b505181516020909201516001600160801b0390811692166001810191908210611e3e57620f42408301809311611e3e57818102918183041490151715611e3e578115611e2a5760209160405191048152f35b634e487b7160e01b5f52601260045260245ffd5b634e487b7160e01b5f52601160045260245ffd5b90915060c0813d60c011611f0f575b81611e6e60c09383612045565b810103126105f9576040519060c082018281106001600160401b03821117611efb57611eef9160a091604052611ea3816122f4565b8452611eb1602082016122f4565b6020850152611ec2604082016122f4565b6040850152611ed3606082016122f4565b6060850152611ee4608082016122f4565b6080850152016122f4565b60a08201529082611dd8565b634e487b7160e01b5f52604160045260245ffd5b3d9150611e61565b9091506060813d606011611f87575b81611f3360609383612045565b810103126105f95760405160608101918183106001600160401b03841117611efb576040611f7b9160c094825280518452611f70602082016122f4565b6020850152016122f4565b60408201529190611dac565b3d9150611f26565b805180835260209291819084018484015e5f828201840152601f01601f1916010190565b9181601f840112156105f9578235916001600160401b0383116105f957602083818601950101116105f957565b9060406003198301126105f95760043591602435906001600160401b0382116105f95761200f91600401611fb3565b9091565b602435906001600160a01b03821682036105f957565b61014081019081106001600160401b03821117611efb57604052565b90601f801991011681019081106001600160401b03821117611efb57604052565b6001600160401b038111611efb5760051b60200190565b9080601f830112156105f95781359061209582612066565b926120a36040519485612045565b82845260208085019360051b8201019182116105f957602001915b8183106120cb5750505090565b82356001600160a01b03811681036105f9578152602092830192016120be565b604081016040825282518091526020606083019301905f5b818110612147575050506020818303910152602080835192838152019201905f5b8181106121315750505090565b8251845260209384019390920191600101612124565b82516001600160a01b0316855260209485019490920191600101612103565b604051905f6007548060011c916001821691821561223e575b60208410831461222a57838652859290811561220b57506001146121ac575b6121aa92500383612045565b565b5060075f90815290917fa66cc928b5edb82af9bd49922954155ab7b0942694bea4ce44661d9a8736c6885b8183106121ef5750509060206121aa9282010161219e565b60209193508060019154838589010152019101909184926121d7565b602092506121aa94915060ff191682840152151560051b82010161219e565b634e487b7160e01b5f52602260045260245ffd5b92607f169261217f565b604051905f6008548060011c91600182169182156122ea575b60208410831461222a57838652859290811561220b575060011461228b576121aa92500383612045565b5060085f90815290917ff3f7a9fe364faab93b216da50a3214154f22a0a2b415b23a84c8169e8b636ee35b8183106122ce5750509060206121aa9282010161219e565b60209193508060019154838589010152019101909184926122b6565b92607f1692612261565b51906001600160801b03821682036105f957565b51906001600160a01b03821682036105f957565b604051628bec5760e51b81526020816004817f00000000000000000000000000000000000000000000000000000000000000006001600160a01b03165afa908115611cc6575f9161236b575090565b90506020813d60201161239a575b8161238660209383612045565b810103126105f95761239790612308565b90565b3d9150612379565b6001600160a01b039091168152602081019190915260400190565b908160209103126105f9575180151581036105f95790565b906123df82612066565b6123ec6040519182612045565b82815280926123fd601f1991612066565b0190602036910137565b805182101561241b5760209160051b010190565b634e487b7160e01b5f52603260045260245ffd5b6040518091829160208251919201905f5b8181106124505750505003902090565b82516001600160a01b0316845285945060209384019390920191600101612440565b6040518091829160208251919201905f5b8181106124935750505003902090565b8251845285945060209384019390920191600101612483565b5f54604051600160f91b60208083019182526bffffffffffffffffffffffff193060601b166021840152601583526001600160a01b0390931692916124f2603582612045565b519020604460405180948193632474521560e21b835260048301523360248301525afa908115611cc6575f91612526575090565b612397915060203d602011610bf657610be98183612045565b5f5160206126a15f395f51905f525c6125655760015f5160206126a15f395f51905f525d565b633ee5aeb560e01b5f5260045ffd5b50158015806125b8575b6125a9578061259d575b61258e57565b63332863a960e11b5f5260045ffd5b5060ff60095416612588565b630cd0fdf960e01b5f5260045ffd5b5060ff600954161561257e565b600c546001600160a01b039081168252600d5481166020830152600e5481166040830152600f54166060820152601054608090910152565b91908260409103126105f9576020825192015190565b6113af6121aa939261263a60405194859263a9059cbb60e01b6020850152602484016123a2565b03601f198101845283612045565b905f602091828151910182855af115611cc6575f513d61269757506001600160a01b0381163b155b6126775750565b635274afe760e01b5f9081526001600160a01b0391909116600452602490fd5b6001141561267056fe9b779b17422d0df92223018b32b4d1fa46e071723d6817e2486d003becc55f00a26469706673582212209cbdc9b205fb9a58d61449ff1d6bdbf7e377cd6537a7da598440087f5cd26b6664736f6c634300081c0033",
  "linkReferences": {},
  "deployedLinkReferences": {}
}