{
  "_format": "hh-sol-artifact-1",
  "contractName": "SkyUsdsPsm3Ark",
  "sourceName": "src/contracts/arks/SkyUsdsPsm3Ark.sol",
  "abi": [
    {
      "inputs": [
        {
          "internalType": "address",
          "name": "_psm",
          "type": "address"
        },
        {
          "internalType": "address",
          "name": "_susds",
          "type": "address"
        },
        {
          "components": [
            {
              "internalType": "string",
              "name": "name",
              "type": "string"
            },
            {
              "internalType": "string",
              "name": "details",
              "type": "string"
            },
            {
              "internalType": "address",
              "name": "accessManager",
              "type": "address"
            },
            {
              "internalType": "address",
              "name": "configurationManager",
              "type": "address"
            },
            {
              "internalType": "address",
              "name": "asset",
              "type": "address"
            },
            {
              "internalType": "uint256",
              "name": "depositCap",
              "type": "uint256"
            },
            {
              "internalType": "uint256",
              "name": "maxRebalanceOutflow",
              "type": "uint256"
            },
            {
              "internalType": "uint256",
              "name": "maxRebalanceInflow",
              "type": "uint256"
            },
            {
              "internalType": "bool",
              "name": "requiresKeeperData",
              "type": "bool"
            },
            {
              "internalType": "Percentage",
              "name": "maxDepositPercentageOfTVL",
              "type": "uint256"
            }
          ],
          "internalType": "struct ArkParams",
          "name": "_params",
          "type": "tuple"
        }
      ],
      "stateMutability": "nonpayable",
      "type": "constructor"
    },
    {
      "inputs": [
        {
          "internalType": "address",
          "name": "caller",
          "type": "address"
        }
      ],
      "name": "CallerIsNotAdmin",
      "type": "error"
    },
    {
      "inputs": [
        {
          "internalType": "address",
          "name": "caller",
          "type": "address"
        }
      ],
      "name": "CallerIsNotAuthorizedToBoard",
      "type": "error"
    },
    {
      "inputs": [
        {
          "internalType": "address",
          "name": "caller",
          "type": "address"
        }
      ],
      "name": "CallerIsNotCommander",
      "type": "error"
    },
    {
      "inputs": [
        {
          "internalType": "address",
          "name": "caller",
          "type": "address"
        },
        {
          "internalType": "bytes32",
          "name": "role",
          "type": "bytes32"
        }
      ],
      "name": "CallerIsNotContractSpecificRole",
      "type": "error"
    },
    {
      "inputs": [
        {
          "internalType": "address",
          "name": "caller",
          "type": "address"
        }
      ],
      "name": "CallerIsNotCurator",
      "type": "error"
    },
    {
      "inputs": [
        {
          "internalType": "address",
          "name": "caller",
          "type": "address"
        }
      ],
      "name": "CallerIsNotDecayController",
      "type": "error"
    },
    {
      "inputs": [
        {
          "internalType": "address",
          "name": "caller",
          "type": "address"
        }
      ],
      "name": "CallerIsNotFoundation",
      "type": "error"
    },
    {
      "inputs": [
        {
          "internalType": "address",
          "name": "caller",
          "type": "address"
        }
      ],
      "name": "CallerIsNotGovernor",
      "type": "error"
    },
    {
      "inputs": [
        {
          "internalType": "address",
          "name": "caller",
          "type": "address"
        }
      ],
      "name": "CallerIsNotGuardian",
      "type": "error"
    },
    {
      "inputs": [
        {
          "internalType": "address",
          "name": "caller",
          "type": "address"
        }
      ],
      "name": "CallerIsNotGuardianOrGovernor",
      "type": "error"
    },
    {
      "inputs": [
        {
          "internalType": "address",
          "name": "caller",
          "type": "address"
        }
      ],
      "name": "CallerIsNotKeeper",
      "type": "error"
    },
    {
      "inputs": [
        {
          "internalType": "address",
          "name": "caller",
          "type": "address"
        }
      ],
      "name": "CallerIsNotRaft",
      "type": "error"
    },
    {
      "inputs": [
        {
          "internalType": "address",
          "name": "caller",
          "type": "address"
        }
      ],
      "name": "CallerIsNotRaftOrCommander",
      "type": "error"
    },
    {
      "inputs": [
        {
          "internalType": "address",
          "name": "caller",
          "type": "address"
        }
      ],
      "name": "CallerIsNotSuperKeeper",
      "type": "error"
    },
    {
      "inputs": [],
      "name": "CannotAddCommanderToArkWithCommander",
      "type": "error"
    },
    {
      "inputs": [],
      "name": "CannotDeployArkWithEmptyName",
      "type": "error"
    },
    {
      "inputs": [],
      "name": "CannotDeployArkWithoutConfigurationManager",
      "type": "error"
    },
    {
      "inputs": [],
      "name": "CannotDeployArkWithoutRaft",
      "type": "error"
    },
    {
      "inputs": [],
      "name": "CannotDeployArkWithoutToken",
      "type": "error"
    },
    {
      "inputs": [],
      "name": "CannotRemoveCommanderFromArkWithAssets",
      "type": "error"
    },
    {
      "inputs": [],
      "name": "CannotUseKeeperDataWhenNotRequired",
      "type": "error"
    },
    {
      "inputs": [],
      "name": "ConfigurationManagerZeroAddress",
      "type": "error"
    },
    {
      "inputs": [
        {
          "internalType": "address",
          "name": "caller",
          "type": "address"
        }
      ],
      "name": "DirectGrantIsDisabled",
      "type": "error"
    },
    {
      "inputs": [
        {
          "internalType": "address",
          "name": "caller",
          "type": "address"
        }
      ],
      "name": "DirectRevokeIsDisabled",
      "type": "error"
    },
    {
      "inputs": [],
      "name": "ERC4626AssetMismatch",
      "type": "error"
    },
    {
      "inputs": [],
      "name": "FleetCommanderAlreadyRegistered",
      "type": "error"
    },
    {
      "inputs": [],
      "name": "FleetCommanderNotRegistered",
      "type": "error"
    },
    {
      "inputs": [
        {
          "internalType": "address",
          "name": "invalidAddress",
          "type": "address"
        }
      ],
      "name": "InvalidAccessManagerAddress",
      "type": "error"
    },
    {
      "inputs": [],
      "name": "InvalidBoardData",
      "type": "error"
    },
    {
      "inputs": [],
      "name": "InvalidDisembarkData",
      "type": "error"
    },
    {
      "inputs": [],
      "name": "InvalidVaultAddress",
      "type": "error"
    },
    {
      "inputs": [],
      "name": "KeeperDataRequired",
      "type": "error"
    },
    {
      "inputs": [],
      "name": "MaxDepositPercentageOfTVLTooHigh",
      "type": "error"
    },
    {
      "inputs": [],
      "name": "ReentrancyGuardReentrantCall",
      "type": "error"
    },
    {
      "inputs": [
        {
          "internalType": "address",
          "name": "token",
          "type": "address"
        }
      ],
      "name": "SafeERC20FailedOperation",
      "type": "error"
    },
    {
      "anonymous": false,
      "inputs": [
        {
          "indexed": true,
          "internalType": "address[]",
          "name": "rewardTokens",
          "type": "address[]"
        },
        {
          "indexed": true,
          "internalType": "uint256[]",
          "name": "rewardAmounts",
          "type": "uint256[]"
        }
      ],
      "name": "ArkHarvested",
      "type": "event"
    },
    {
      "anonymous": false,
      "inputs": [
        {
          "indexed": false,
          "internalType": "uint256",
          "name": "currentPrice",
          "type": "uint256"
        },
        {
          "indexed": false,
          "internalType": "uint256",
          "name": "timestamp",
          "type": "uint256"
        }
      ],
      "name": "ArkPoked",
      "type": "event"
    },
    {
      "anonymous": false,
      "inputs": [
        {
          "indexed": true,
          "internalType": "address[]",
          "name": "sweptTokens",
          "type": "address[]"
        },
        {
          "indexed": true,
          "internalType": "uint256[]",
          "name": "sweptAmounts",
          "type": "uint256[]"
        }
      ],
      "name": "ArkSwept",
      "type": "event"
    },
    {
      "anonymous": false,
      "inputs": [
        {
          "indexed": true,
          "internalType": "address",
          "name": "commander",
          "type": "address"
        },
        {
          "indexed": false,
          "internalType": "address",
          "name": "token",
          "type": "address"
        },
        {
          "indexed": false,
          "internalType": "uint256",
          "name": "amount",
          "type": "uint256"
        }
      ],
      "name": "Boarded",
      "type": "event"
    },
    {
      "anonymous": false,
      "inputs": [
        {
          "indexed": false,
          "internalType": "uint256",
          "name": "newCap",
          "type": "uint256"
        }
      ],
      "name": "DepositCapUpdated",
      "type": "event"
    },
    {
      "anonymous": false,
      "inputs": [
        {
          "indexed": true,
          "internalType": "address",
          "name": "commander",
          "type": "address"
        },
        {
          "indexed": false,
          "internalType": "address",
          "name": "token",
          "type": "address"
        },
        {
          "indexed": false,
          "internalType": "uint256",
          "name": "amount",
          "type": "uint256"
        }
      ],
      "name": "Disembarked",
      "type": "event"
    },
    {
      "anonymous": false,
      "inputs": [
        {
          "indexed": false,
          "internalType": "address",
          "name": "commander",
          "type": "address"
        }
      ],
      "name": "FleetCommanderRegistered",
      "type": "event"
    },
    {
      "anonymous": false,
      "inputs": [
        {
          "indexed": false,
          "internalType": "address",
          "name": "commander",
          "type": "address"
        }
      ],
      "name": "FleetCommanderUnregistered",
      "type": "event"
    },
    {
      "anonymous": false,
      "inputs": [
        {
          "indexed": false,
          "internalType": "Percentage",
          "name": "newMaxDepositPercentageOfTVL",
          "type": "uint256"
        }
      ],
      "name": "MaxDepositPercentageOfTVLUpdated",
      "type": "event"
    },
    {
      "anonymous": false,
      "inputs": [
        {
          "indexed": false,
          "internalType": "uint256",
          "name": "newMaxInflow",
          "type": "uint256"
        }
      ],
      "name": "MaxRebalanceInflowUpdated",
      "type": "event"
    },
    {
      "anonymous": false,
      "inputs": [
        {
          "indexed": false,
          "internalType": "uint256",
          "name": "newMaxOutflow",
          "type": "uint256"
        }
      ],
      "name": "MaxRebalanceOutflowUpdated",
      "type": "event"
    },
    {
      "anonymous": false,
      "inputs": [
        {
          "indexed": true,
          "internalType": "address",
          "name": "from",
          "type": "address"
        },
        {
          "indexed": true,
          "internalType": "address",
          "name": "to",
          "type": "address"
        },
        {
          "indexed": false,
          "internalType": "address",
          "name": "token",
          "type": "address"
        },
        {
          "indexed": false,
          "internalType": "uint256",
          "name": "amount",
          "type": "uint256"
        }
      ],
      "name": "Moved",
      "type": "event"
    },
    {
      "anonymous": false,
      "inputs": [
        {
          "indexed": false,
          "internalType": "address",
          "name": "newRaft",
          "type": "address"
        }
      ],
      "name": "RaftUpdated",
      "type": "event"
    },
    {
      "inputs": [],
      "name": "ADMIRALS_QUARTERS_ROLE",
      "outputs": [
        {
          "internalType": "bytes32",
          "name": "",
          "type": "bytes32"
        }
      ],
      "stateMutability": "view",
      "type": "function"
    },
    {
      "inputs": [],
      "name": "DECAY_CONTROLLER_ROLE",
      "outputs": [
        {
          "internalType": "bytes32",
          "name": "",
          "type": "bytes32"
        }
      ],
      "stateMutability": "view",
      "type": "function"
    },
    {
      "inputs": [],
      "name": "GOVERNOR_ROLE",
      "outputs": [
        {
          "internalType": "bytes32",
          "name": "",
          "type": "bytes32"
        }
      ],
      "stateMutability": "view",
      "type": "function"
    },
    {
      "inputs": [],
      "name": "GUARDIAN_ROLE",
      "outputs": [
        {
          "internalType": "bytes32",
          "name": "",
          "type": "bytes32"
        }
      ],
      "stateMutability": "view",
      "type": "function"
    },
    {
      "inputs": [],
      "name": "SUPER_KEEPER_ROLE",
      "outputs": [
        {
          "internalType": "bytes32",
          "name": "",
          "type": "bytes32"
        }
      ],
      "stateMutability": "view",
      "type": "function"
    },
    {
      "inputs": [],
      "name": "asset",
      "outputs": [
        {
          "internalType": "contract IERC20",
          "name": "",
          "type": "address"
        }
      ],
      "stateMutability": "view",
      "type": "function"
    },
    {
      "inputs": [
        {
          "internalType": "uint256",
          "name": "amount",
          "type": "uint256"
        },
        {
          "internalType": "bytes",
          "name": "boardData",
          "type": "bytes"
        }
      ],
      "name": "board",
      "outputs": [],
      "stateMutability": "nonpayable",
      "type": "function"
    },
    {
      "inputs": [],
      "name": "commander",
      "outputs": [
        {
          "internalType": "address",
          "name": "",
          "type": "address"
        }
      ],
      "stateMutability": "view",
      "type": "function"
    },
    {
      "inputs": [],
      "name": "config",
      "outputs": [
        {
          "internalType": "address",
          "name": "commander",
          "type": "address"
        },
        {
          "internalType": "address",
          "name": "raft",
          "type": "address"
        },
        {
          "internalType": "contract IERC20",
          "name": "asset",
          "type": "address"
        },
        {
          "internalType": "uint256",
          "name": "depositCap",
          "type": "uint256"
        },
        {
          "internalType": "uint256",
          "name": "maxRebalanceOutflow",
          "type": "uint256"
        },
        {
          "internalType": "uint256",
          "name": "maxRebalanceInflow",
          "type": "uint256"
        },
        {
          "internalType": "string",
          "name": "name",
          "type": "string"
        },
        {
          "internalType": "string",
          "name": "details",
          "type": "string"
        },
        {
          "internalType": "bool",
          "name": "requiresKeeperData",
          "type": "bool"
        },
        {
          "internalType": "Percentage",
          "name": "maxDepositPercentageOfTVL",
          "type": "uint256"
        }
      ],
      "stateMutability": "view",
      "type": "function"
    },
    {
      "inputs": [],
      "name": "configurationManager",
      "outputs": [
        {
          "internalType": "contract IConfigurationManager",
          "name": "",
          "type": "address"
        }
      ],
      "stateMutability": "view",
      "type": "function"
    },
    {
      "inputs": [],
      "name": "depositCap",
      "outputs": [
        {
          "internalType": "uint256",
          "name": "",
          "type": "uint256"
        }
      ],
      "stateMutability": "view",
      "type": "function"
    },
    {
      "inputs": [],
      "name": "details",
      "outputs": [
        {
          "internalType": "string",
          "name": "",
          "type": "string"
        }
      ],
      "stateMutability": "view",
      "type": "function"
    },
    {
      "inputs": [
        {
          "internalType": "uint256",
          "name": "amount",
          "type": "uint256"
        },
        {
          "internalType": "bytes",
          "name": "disembarkData",
          "type": "bytes"
        }
      ],
      "name": "disembark",
      "outputs": [],
      "stateMutability": "nonpayable",
      "type": "function"
    },
    {
      "inputs": [],
      "name": "fleetCommanderRewardsManagerFactory",
      "outputs": [
        {
          "internalType": "address",
          "name": "",
          "type": "address"
        }
      ],
      "stateMutability": "view",
      "type": "function"
    },
    {
      "inputs": [
        {
          "internalType": "enum ContractSpecificRoles",
          "name": "roleName",
          "type": "uint8"
        },
        {
          "internalType": "address",
          "name": "roleTargetContract",
          "type": "address"
        }
      ],
      "name": "generateRole",
      "outputs": [
        {
          "internalType": "bytes32",
          "name": "",
          "type": "bytes32"
        }
      ],
      "stateMutability": "pure",
      "type": "function"
    },
    {
      "inputs": [],
      "name": "getConfig",
      "outputs": [
        {
          "components": [
            {
              "internalType": "address",
              "name": "commander",
              "type": "address"
            },
            {
              "internalType": "address",
              "name": "raft",
              "type": "address"
            },
            {
              "internalType": "contract IERC20",
              "name": "asset",
              "type": "address"
            },
            {
              "internalType": "uint256",
              "name": "depositCap",
              "type": "uint256"
            },
            {
              "internalType": "uint256",
              "name": "maxRebalanceOutflow",
              "type": "uint256"
            },
            {
              "internalType": "uint256",
              "name": "maxRebalanceInflow",
              "type": "uint256"
            },
            {
              "internalType": "string",
              "name": "name",
              "type": "string"
            },
            {
              "internalType": "string",
              "name": "details",
              "type": "string"
            },
            {
              "internalType": "bool",
              "name": "requiresKeeperData",
              "type": "bool"
            },
            {
              "internalType": "Percentage",
              "name": "maxDepositPercentageOfTVL",
              "type": "uint256"
            }
          ],
          "internalType": "struct ArkConfig",
          "name": "",
          "type": "tuple"
        }
      ],
      "stateMutability": "view",
      "type": "function"
    },
    {
      "inputs": [],
      "name": "harborCommand",
      "outputs": [
        {
          "internalType": "address",
          "name": "",
          "type": "address"
        }
      ],
      "stateMutability": "view",
      "type": "function"
    },
    {
      "inputs": [
        {
          "internalType": "bytes",
          "name": "additionalData",
          "type": "bytes"
        }
      ],
      "name": "harvest",
      "outputs": [
        {
          "internalType": "address[]",
          "name": "rewardTokens",
          "type": "address[]"
        },
        {
          "internalType": "uint256[]",
          "name": "rewardAmounts",
          "type": "uint256[]"
        }
      ],
      "stateMutability": "nonpayable",
      "type": "function"
    },
    {
      "inputs": [
        {
          "internalType": "address",
          "name": "account",
          "type": "address"
        }
      ],
      "name": "hasAdmiralsQuartersRole",
      "outputs": [
        {
          "internalType": "bool",
          "name": "",
          "type": "bool"
        }
      ],
      "stateMutability": "view",
      "type": "function"
    },
    {
      "inputs": [],
      "name": "maxDepositPercentageOfTVL",
      "outputs": [
        {
          "internalType": "Percentage",
          "name": "",
          "type": "uint256"
        }
      ],
      "stateMutability": "view",
      "type": "function"
    },
    {
      "inputs": [],
      "name": "maxRebalanceInflow",
      "outputs": [
        {
          "internalType": "uint256",
          "name": "",
          "type": "uint256"
        }
      ],
      "stateMutability": "view",
      "type": "function"
    },
    {
      "inputs": [],
      "name": "maxRebalanceOutflow",
      "outputs": [
        {
          "internalType": "uint256",
          "name": "",
          "type": "uint256"
        }
      ],
      "stateMutability": "view",
      "type": "function"
    },
    {
      "inputs": [
        {
          "internalType": "uint256",
          "name": "amount",
          "type": "uint256"
        },
        {
          "internalType": "address",
          "name": "receiverArk",
          "type": "address"
        },
        {
          "internalType": "bytes",
          "name": "boardData",
          "type": "bytes"
        },
        {
          "internalType": "bytes",
          "name": "disembarkData",
          "type": "bytes"
        }
      ],
      "name": "move",
      "outputs": [],
      "stateMutability": "nonpayable",
      "type": "function"
    },
    {
      "inputs": [],
      "name": "name",
      "outputs": [
        {
          "internalType": "string",
          "name": "",
          "type": "string"
        }
      ],
      "stateMutability": "view",
      "type": "function"
    },
    {
      "inputs": [],
      "name": "psm",
      "outputs": [
        {
          "internalType": "contract IPSM3",
          "name": "",
          "type": "address"
        }
      ],
      "stateMutability": "view",
      "type": "function"
    },
    {
      "inputs": [],
      "name": "raft",
      "outputs": [
        {
          "internalType": "address",
          "name": "",
          "type": "address"
        }
      ],
      "stateMutability": "view",
      "type": "function"
    },
    {
      "inputs": [],
      "name": "registerFleetCommander",
      "outputs": [],
      "stateMutability": "nonpayable",
      "type": "function"
    },
    {
      "inputs": [],
      "name": "requiresKeeperData",
      "outputs": [
        {
          "internalType": "bool",
          "name": "",
          "type": "bool"
        }
      ],
      "stateMutability": "view",
      "type": "function"
    },
    {
      "inputs": [
        {
          "internalType": "uint256",
          "name": "newDepositCap",
          "type": "uint256"
        }
      ],
      "name": "setDepositCap",
      "outputs": [],
      "stateMutability": "nonpayable",
      "type": "function"
    },
    {
      "inputs": [
        {
          "internalType": "Percentage",
          "name": "newMaxDepositPercentageOfTVL",
          "type": "uint256"
        }
      ],
      "name": "setMaxDepositPercentageOfTVL",
      "outputs": [],
      "stateMutability": "nonpayable",
      "type": "function"
    },
    {
      "inputs": [
        {
          "internalType": "uint256",
          "name": "newMaxRebalanceInflow",
          "type": "uint256"
        }
      ],
      "name": "setMaxRebalanceInflow",
      "outputs": [],
      "stateMutability": "nonpayable",
      "type": "function"
    },
    {
      "inputs": [
        {
          "internalType": "uint256",
          "name": "newMaxRebalanceOutflow",
          "type": "uint256"
        }
      ],
      "name": "setMaxRebalanceOutflow",
      "outputs": [],
      "stateMutability": "nonpayable",
      "type": "function"
    },
    {
      "inputs": [],
      "name": "susds",
      "outputs": [
        {
          "internalType": "contract IERC20",
          "name": "",
          "type": "address"
        }
      ],
      "stateMutability": "view",
      "type": "function"
    },
    {
      "inputs": [
        {
          "internalType": "address[]",
          "name": "tokens",
          "type": "address[]"
        }
      ],
      "name": "sweep",
      "outputs": [
        {
          "internalType": "address[]",
          "name": "sweptTokens",
          "type": "address[]"
        },
        {
          "internalType": "uint256[]",
          "name": "sweptAmounts",
          "type": "uint256[]"
        }
      ],
      "stateMutability": "nonpayable",
      "type": "function"
    },
    {
      "inputs": [],
      "name": "tipJar",
      "outputs": [
        {
          "internalType": "address",
          "name": "",
          "type": "address"
        }
      ],
      "stateMutability": "view",
      "type": "function"
    },
    {
      "inputs": [],
      "name": "totalAssets",
      "outputs": [
        {
          "internalType": "uint256",
          "name": "assets",
          "type": "uint256"
        }
      ],
      "stateMutability": "view",
      "type": "function"
    },
    {
      "inputs": [],
      "name": "treasury",
      "outputs": [
        {
          "internalType": "address",
          "name": "",
          "type": "address"
        }
      ],
      "stateMutability": "view",
      "type": "function"
    },
    {
      "inputs": [],
      "name": "unregisterFleetCommander",
      "outputs": [],
      "stateMutability": "nonpayable",
      "type": "function"
    },
    {
      "inputs": [],
      "name": "withdrawableTotalAssets",
      "outputs": [
        {
          "internalType": "uint256",
          "name": "",
          "type": "uint256"
        }
      ],
      "stateMutability": "view",
      "type": "function"
    }
  ],
  "bytecode": "0x610100806040523461069857612d5b803803809161001d82856106de565b833981016060828203126106985761003482610701565b9061004160208401610701565b604084015190936001600160401b038211610698570190610140828203126106985760405190610070826106c2565b82516001600160401b038111610698578161008c918501610715565b82526020830151906001600160401b038211610698576100ad918401610715565b91602082019283526100c160408201610701565b928360408401526100d460608301610701565b928360608201526100e760808401610701565b946080820195865260a08401519560a0830196875260c08501519060c0840191825260e08601519260e08501938452610120610126610100890161076a565b61010087019081529701516101208601908152976001600160a01b03908116911680156106af576040516301ffc9a760e01b815263261c910560e21b6004820152602081602481855afa9081156106a4575f91610666575b50156106545760805280156106455760a05280516001600160a01b0316156106365783515115610627576001600160a01b036101b8610777565b16156106185768056bc75e2d6310000087511161060957516001600160a01b03166101e1610777565b975191519251935194519551151596519761012060405191610202836106c2565b5f8084526001600160a01b03919091166020840181905260408401859052606084018690526080840187905260a0840188905260c0840189905260e08401998a5261010084019a8b5291909201998a5281546001600160a01b031990811690925560018054831690911790556002805490911690911790556003556004556005558051906001600160401b03821161050c5760065490600182811c921680156105ff575b60208310146104ee5781601f849311610591575b50602090601f831160011461052b575f92610520575b50508160011b915f199060031b1c1916176006555b518051906001600160401b03821161050c5760075490600182811c92168015610502575b60208310146104ee5781601f849311610480575b50602090601f831160011461041a575f9261040f575b50508160011b915f199060031b1c1916176007555b51151560ff8019600854169116176008555160095560018060a01b031660c05260018060a01b031660e05260405161257690816107e5823960805181818161034b0152610b94015260a0518181816101ec0152818161059801528181610ce10152818161142e015281816114bc015261208f015260c0518181816107fe0152818161172d01528181611a2901528181611bb501528181611fbe0152612245015260e0518181816107d90152818161151d0152818161177b01528181611a010152611f3e0152f35b015190505f80610333565b60075f9081528281209350601f198516905b8181106104685750908460019594939210610450575b505050811b01600755610348565b01515f1960f88460031b161c191690555f8080610442565b9293602060018192878601518155019501930161042c565b60075f529091507fa66cc928b5edb82af9bd49922954155ab7b0942694bea4ce44661d9a8736c688601f840160051c810191602085106104e4575b90601f859493920160051c01905b8181106104d6575061031d565b5f81558493506001016104c9565b90915081906104bb565b634e487b7160e01b5f52602260045260245ffd5b91607f1691610309565b634e487b7160e01b5f52604160045260245ffd5b015190505f806102d0565b60065f9081528281209350601f198516905b8181106105795750908460019594939210610561575b505050811b016006556102e5565b01515f1960f88460031b161c191690555f8080610553565b9293602060018192878601518155019501930161053d565b60065f529091507ff652222313e28459528d920b65115c16c04f3efc82aaedc97be59f3f377c0d3f601f840160051c810191602085106105f5575b90601f859493920160051c01905b8181106105e757506102ba565b5f81558493506001016105da565b90915081906105cc565b91607f16916102a6565b634ef9dfe360e01b5f5260045ffd5b633a4f9cdb60e21b5f5260045ffd5b63268c072960e01b5f5260045ffd5b637ff57ef160e11b5f5260045ffd5b63f1634df960e01b5f5260045ffd5b6347bd7c1d60e01b5f5260045260245ffd5b90506020813d60201161069c575b81610681602093836106de565b81010312610698576106929061076a565b5f61017e565b5f80fd5b3d9150610674565b6040513d5f823e3d90fd5b6347bd7c1d60e01b5f525f60045260245ffd5b61014081019081106001600160401b0382111761050c57604052565b601f909101601f19168101906001600160401b0382119082101761050c57604052565b51906001600160a01b038216820361069857565b81601f82011215610698578051906001600160401b03821161050c5760405192610749601f8401601f1916602001856106de565b8284526020838301011161069857815f9260208093018386015e8301015290565b5190811515820361069857565b60a051604051628bec5760e51b815290602090829060049082906001600160a01b03165afa9081156106a4575f916107ad575090565b90506020813d6020116107dc575b816107c8602093836106de565b81010312610698576107d990610701565b90565b3d91506107bb56fe60806040526004361015610011575f80fd5b5f5f3560e01c806301e1d11414611be457806304bda26214611ba057806306fdde0314611b85578063117d8ae014611b5957806313c408f8146119b357806324ea54f4146119795780632db6d3991461167f578063303dbaf31461165d5780633194549e14611640578063372709361461161957806338d52e0f146115f15780634fc7fac31461157b578063565974d31461154c57806358b8f19c146115085780635b0f83f31461149757806361d027b31461140957806361f5cd8b1461139f57806366e943f11461136557806369b3054b14611304578063780469bb14610dde57806379502c5514610d2d5780637aaceb9514610cbb5780638665120314610c625780638a8b997614610b2b57806392f5e83214610abf578063a89f38a314610a84578063ad5a356f14610a66578063bdcdd88214610a48578063c0b534c214610a0d578063c38a6f0b14610741578063c3f909d4146105c7578063c9c667e314610582578063ccc5749014610547578063ce5c7f6114610402578063d570ee47146103df578063dbd5edc7146103c1578063ebc136d0146102e1578063ebf31131146102745763f7e533ec146101c7575f80fd5b34610271578060031936011261027157604051633df94cfb60e21b81526020816004817f00000000000000000000000000000000000000000000000000000000000000006001600160a01b03165afa9081156102665760209291610239575b506040516001600160a01b039091168152f35b6102599150823d841161025f575b6102518183611cb4565b81019061205c565b5f610226565b503d610247565b6040513d84823e3d90fd5b80fd5b503461027157806003193601126102715780546001600160a01b03811633036102d2576001600160a01b03191681556040513381527f7cb941d7b1708e5b3bcd35ca960d6c6311188cec18886e5b67630552676b048790602090a180f35b63430da47160e01b8252600482fd5b5034610271576020366003190112610271576004356001600160a01b038116908190036103bd57604051632474521560e21b81527fb00be3d6a5434b97b328543d1486d56adcb7e74080170d1cdd7e0306c3d9ba3d600482015260248101919091526020816044817f00000000000000000000000000000000000000000000000000000000000000006001600160a01b03165afa9081156102665760209291610390575b506040519015158152f35b6103b09150823d84116103b6575b6103a88183611cb4565b810190612101565b5f610385565b503d61039e565b5080fd5b50346102715780600319360112610271576020600354604051908152f35b503461027157806003193601126102715760206103fa6121fd565b604051908152f35b5034610271576020366003190112610271576004356001600160401b0381116103bd57610433903690600401611c22565b5050604051628bec5760e51b8152602081600481305afa908115610266578291610528575b506001600160a01b0316330361051557610470612312565b60409061051182516104828482611cb4565b60018152601f19840190813660208301378451916104a08684611cb4565b60018352366020840137836104b48261214b565b52836104bf8361214b565b526104c981612180565b936104d3836121c3565b95519586957f3e3e7958121b3e39c7a49392d1aa9cdce870c2a059744f9e15cf66fff78654558380a35f5160206125215f395f51905f525d83611cec565b0390f35b631184b31b60e21b815233600452602490fd5b610541915060203d60201161025f576102518183611cb4565b5f610458565b503461027157806003193601126102715760206040517f7935bd0ae54bc31f548c14dba4d37c5c64b3f8ca900cb468fb8abd54d5894f558152f35b50346102715780600319360112610271576040517f00000000000000000000000000000000000000000000000000000000000000006001600160a01b03168152602090f35b5034610271578060031936011261027157806101206040516105e881611c98565b8281528260208201528260408201528260608201528260808201528260a0820152606060c0820152606060e08201528261010082015201526040519061062d82611c98565b546001600160a01b03908116825260015481166020830190815260025490911660408301908152600354606084019081526004546080850190815260055460a0860190815293949391929161072c919061071890610689611d67565b9060c08801918252610699611e49565b60e089810191825260085460ff1615156101008b019081526009546101208c019081526040805160208082529d516001600160a01b039081169e82019e909e529d518d16908e01529851909a1660608c0152975160808b0152935160a08a01525160c08901525161014095880195909552869594610160870190611bfe565b9051858203601f1901610100870152611bfe565b91511515610120840152516101408301520390f35b50346102715760803660031901126102715760043561075e611c82565b6044356001600160401b0381116109695761077d903690600401611c22565b6064939193356001600160401b038111610a095761079f903690600401611c22565b86549091906001600160a01b031633036109f6578692916107bf91612347565b60025460405163e243741160e01b81526001600160a01b037f0000000000000000000000000000000000000000000000000000000000000000818116937f000000000000000000000000000000000000000000000000000000000000000083169260209185918291610838918c91168960048501611f04565b0381855afa9283156109eb5786936109ab575b509061085b83826020959461240b565b60025460405163051f86b560e01b815294859384928992849261088f9230928e916001600160a01b03169060048701612398565b03925af180156109a057610971575b506002546001600160a01b0316936108b784828761240b565b6001600160a01b031694853b1561096d5781606484926040519485938492632db6d39960e01b845289600485015260406024850152816044850152848401378181018301859052601f01601f1916810103018183895af1801561026657610954575b505061094e7f9f784fc02a186f1c98b2d9f15fda084da27cdd291a3785d978f91911d880516b916040519182913095836120e6565b0390a380f35b8161095e91611cb4565b61096957835f610919565b8380fd5b8280fd5b6109929060203d602011610999575b61098a8183611cb4565b810190611ef5565b505f61089e565b503d610980565b6040513d85823e3d90fd5b925094506020823d6020116109e3575b816109c860209383611cb4565b810103126109df579051889490919061085b61084b565b5f80fd5b3d91506109bb565b6040513d88823e3d90fd5b631564c0e160e11b875233600452602487fd5b8580fd5b503461027157806003193601126102715760206040517f025d8bbf3268be680d2605ebf6da15063b9915615bf1087dab336efc1bf970cb8152f35b50346102715780600319360112610271576020600954604051908152f35b50346102715780600319360112610271576020600554604051908152f35b503461027157806003193601126102715760206040517fb00be3d6a5434b97b328543d1486d56adcb7e74080170d1cdd7e0306c3d9ba3d8152f35b5034610271576020366003190112610271578054600435906001600160a01b03163303610b18576020817fb6ac66853c4e59c71e118d25ab494bb847c4e5eb0c8894898c5343e6f61afc1292600555604051908152a180f35b631564c0e160e11b825233600452602482fd5b5034610271578060031936011261027157604051600160f91b602082019081523060601b6001600160601b03191660218301526015825290610b6e603582611cb4565b519020604051632474521560e21b815260048101919091523360248201526020816044817f00000000000000000000000000000000000000000000000000000000000000006001600160a01b03165afa908115610266578291610c43575b5015610c305780546001600160a01b038116610c21576001600160a01b0319163390811782556040519081527f55489ce0259bd691120d8860861be1c401c7c16a3cd268d21045756af4ecc5ca90602090a180f35b636a79b97d60e11b8252600482fd5b631564c0e160e11b815233600452602490fd5b610c5c915060203d6020116103b6576103a88183611cb4565b5f610bcc565b5034610271576020366003190112610271578054600435906001600160a01b03163303610b18576020817f333b26cca69716ad4680ddb07663f5bfb4f06045671f336af9a83690a3ae00f992600355604051908152a180f35b5034610271578060031936011261027157604051637aaceb9560e01b81526020816004817f00000000000000000000000000000000000000000000000000000000000000006001600160a01b03165afa908115610266576020929161023957506040516001600160a01b039091168152f35b5034610271578060031936011261027157546001546002546003546004546005546001600160a01b0394851695851694929390921691610dcb9190610dbd90610d74611d67565b90610d7d611e49565b9360ff6008541697600954976040519b8c9b8c5260208c015260408b015260608a0152608089015260a088015261014060c0880152610140870190611bfe565b9085820360e0870152611bfe565b9115156101008401526101208301520390f35b50346109df5760203660031901126109df576004356001600160401b0381116109df57366023820112156109df578060040135610e1a81611cd5565b91610e286040519384611cb4565b8183526024602084019260051b820101903682116109df57602401915b8183106112e4575050604051628bec5760e51b81529050602081600481305afa9081156111ca575f916112c5575b506001600160a01b031633036112b257610e8b612312565b610e958151612119565b90610ea08151612119565b6002545f5460405163c8169aa160e01b81529294926001600160a01b0392831692909160209183916004918391165afa9081156111ca575f91611293575b506040516370a0823160e01b8152306004820152602081602481865afa9081156111ca575f91611261575b5015158061124e575b6110d8575b5050835b825181101561107f5760249060206001600160a01b03610f3b838761216c565b5116604051938480926370a0823160e01b82523060048301525afa9182156109eb57869261104c575b5081610f75575b6001915001610f1b565b6001600160a01b03610f87828661216c565b5116916024610f9461207b565b9360206001600160a01b03610fa9868a61216c565b5116604051938480926370a0823160e01b82523060048301525afa91821561104157899261100d575b5090600194610fe0926123d1565b828060a01b03610ff0838761216c565b5116610ffc838661216c565b52611007828761216c565b52610f6b565b91506020823d8211611039575b8161102760209383611cb4565b810103126109df579051906001610fd2565b3d915061101a565b6040513d8b823e3d90fd5b9091506020813d8211611077575b8161106760209383611cb4565b810103126109df5751905f610f64565b3d915061105a565b84826105118661108e83612180565b92611098826121c3565b946040519586957f46b8771620f6acf56cb03d3e835ea8024c7dcbcf05fcc3f6ade9e19d1a3e212b8380a35f5160206125215f395f51905f525d83611cec565b6040516370a0823160e01b8152306004820152602081602481865afa9081156111ca575f9161121b575b50816111136020926024948661240b565b6040516370a0823160e01b81523060048201526001600160a01b0391909116939092839182905afa9081156111ca575f916111e9575b50604051602081018181106001600160401b038211176111d5576040525f8152823b156109df576111a0925f9283604051809681958294632db6d39960e01b84526004840152604060248401526044830190611bfe565b03925af180156111ca576111b5575b80610f17565b6111c29194505f90611cb4565b5f925f6111af565b6040513d5f823e3d90fd5b634e487b7160e01b5f52604160045260245ffd5b90506020813d602011611213575b8161120460209383611cb4565b810103126109df57515f611149565b3d91506111f7565b90506020813d602011611246575b8161123660209383611cb4565b810103126109df57516024611102565b3d9150611229565b50306001600160a01b0382161415610f12565b90506020813d60201161128b575b8161127c60209383611cb4565b810103126109df57515f610f09565b3d915061126f565b6112ac915060203d60201161025f576102518183611cb4565b5f610ede565b631184b31b60e21b5f523360045260245ffd5b6112de915060203d60201161025f576102518183611cb4565b5f610e73565b82356001600160a01b03811681036109df57815260209283019201610e45565b346109df5760403660031901126109df5760043560038110156109df5760209061132c611c82565b604051908382019260f81b835260018060601b03199060601b1660218201526015815261135a603582611cb4565b519020604051908152f35b346109df575f3660031901126109df5760206040517f0d186688925976bbe6755ae984501c8e3e2b103a7af59fd803ab9c6d891ae7e08152f35b346109df5760203660031901126109df575f54600435906001600160a01b031633036113f6576020817ffbe2d5c01ea8ba5596d6c4e6c82c6d4a0a0ee1128689993a4a5ba0169273d69f92600455604051908152a1005b631564c0e160e11b5f523360045260245ffd5b346109df575f3660031901126109df576040516361d027b360e01b81526020816004817f00000000000000000000000000000000000000000000000000000000000000006001600160a01b03165afa80156111ca576020915f9161147a57506040516001600160a01b039091168152f35b6114919150823d841161025f576102518183611cb4565b82610226565b346109df575f3660031901126109df57604051635b0f83f360e01b81526020816004817f00000000000000000000000000000000000000000000000000000000000000006001600160a01b03165afa80156111ca576020915f9161147a57506040516001600160a01b039091168152f35b346109df575f3660031901126109df576040517f00000000000000000000000000000000000000000000000000000000000000006001600160a01b03168152602090f35b346109df575f3660031901126109df57610511611567611e49565b604051918291602083526020830190611bfe565b346109df5760203660031901126109df575f54600435906001600160a01b031633036113f65768056bc75e2d6310000081116115e2576020817fd3c6d0ab315f2f1352f036cd9f401b49e38e1b90907e195225e8105f9a0b6f0292600955604051908152a1005b634ef9dfe360e01b5f5260045ffd5b346109df575f3660031901126109df576002546040516001600160a01b039091168152602090f35b346109df575f3660031901126109df575f546040516001600160a01b039091168152602090f35b346109df575f3660031901126109df576020600454604051908152f35b346109df575f3660031901126109df57602060ff600854166040519015158152f35b346109df5761168d36611c4f565b611695612312565b604051631b93849b60e11b8152602081600481305afa9081156111ca575f9161195a575b506001600160a01b031633810361189e575b506116d591612347565b6002546040516323b872dd60e01b60208201526001600160a01b0390911691906117209061171a8161170c85303360248501611f04565b03601f198101835282611cb4565b836124c8565b6002546001600160a01b037f00000000000000000000000000000000000000000000000000000000000000008116929161175e91839185911661240b565b600254604051626c044560e11b81526001600160a01b03918216937f000000000000000000000000000000000000000000000000000000000000000090921691602082806117b187878a60048501611f04565b0381845afa9182156111ca5784905f93611866575b505f6020946117ed60405198899687958694631a019e3760e01b8652309360048701612398565b03925af19081156111ca577fcbaa1442ac205415c9d69643e7b60ec73d1de35dbc807c21ec288c70ddc4207b9261183292611847575b506040519182913395836120e6565b0390a25f5f5160206125215f395f51905f525d005b61185f9060203d6020116109995761098a8183611cb4565b5084611823565b939250506020833d602011611896575b8161188360209383611cb4565b810103126109df5791519091835f6117c6565b3d9150611876565b604051628bec5760e51b8152602081600481305afa9081156111ca575f9161193b575b506001600160a01b031633146116cb5760206024916040519283809263d206a05960e01b82523360048301525afa9081156111ca575f9161191c575b501561190957836116cb565b638f7a567d60e01b5f523360045260245ffd5b611935915060203d6020116103b6576103a88183611cb4565b846118fd565b611954915060203d60201161025f576102518183611cb4565b856118c1565b611973915060203d60201161025f576102518183611cb4565b846116b9565b346109df575f3660031901126109df5760206040517f55435dd261a4b9b3364963f7738a7a662ad9c84396d64be3365284bb7f0a50418152f35b346109df576119c136611c4f565b5f546001600160a01b031633036113f6576119e3916119de612312565b612347565b60025460405163e243741160e01b81526001600160a01b03918216927f0000000000000000000000000000000000000000000000000000000000000000808416939192917f0000000000000000000000000000000000000000000000000000000000000000169060208380611a5d878a8a60048501611f04565b0381855afa9283156111ca575f93611b23575b5090611a8083826020959461240b565b60025460405163051f86b560e01b815295869384925f928492611ab49230928b916001600160a01b03169060048701612398565b03925af19081156111ca577fd5e872c5ecfb1bb8820b2e6a20e31b883682282da886621541f71e31ec11947e9261183292611b04575b50611af68133866123d1565b6040519182913395836120e6565b611b1c9060203d6020116109995761098a8183611cb4565b5084611aea565b92506020833d602011611b51575b81611b3e60209383611cb4565b810103126109df57915191611a80611a70565b3d9150611b31565b346109df575f3660031901126109df576020611b7361207b565b6040516001600160a01b039091168152f35b346109df575f3660031901126109df57610511611567611d67565b346109df575f3660031901126109df576040517f00000000000000000000000000000000000000000000000000000000000000006001600160a01b03168152602090f35b346109df575f3660031901126109df5760206103fa611f26565b805180835260209291819084018484015e5f828201840152601f01601f1916010190565b9181601f840112156109df578235916001600160401b0383116109df57602083818601950101116109df57565b9060406003198301126109df5760043591602435906001600160401b0382116109df57611c7e91600401611c22565b9091565b602435906001600160a01b03821682036109df57565b61014081019081106001600160401b038211176111d557604052565b90601f801991011681019081106001600160401b038211176111d557604052565b6001600160401b0381116111d55760051b60200190565b604081016040825282518091526020606083019301905f5b818110611d48575050506020818303910152602080835192838152019201905f5b818110611d325750505090565b8251845260209384019390920191600101611d25565b82516001600160a01b0316855260209485019490920191600101611d04565b604051905f6006548060011c9160018216918215611e3f575b602084108314611e2b578386528592908115611e0c5750600114611dad575b611dab92500383611cb4565b565b5060065f90815290917ff652222313e28459528d920b65115c16c04f3efc82aaedc97be59f3f377c0d3f5b818310611df0575050906020611dab92820101611d9f565b6020919350806001915483858901015201910190918492611dd8565b60209250611dab94915060ff191682840152151560051b820101611d9f565b634e487b7160e01b5f52602260045260245ffd5b92607f1692611d80565b604051905f6007548060011c9160018216918215611eeb575b602084108314611e2b578386528592908115611e0c5750600114611e8c57611dab92500383611cb4565b5060075f90815290917fa66cc928b5edb82af9bd49922954155ab7b0942694bea4ce44661d9a8736c6885b818310611ecf575050906020611dab92820101611d9f565b6020919350806001915483858901015201910190918492611eb7565b92607f1692611e62565b908160209103126109df575190565b6001600160a01b03918216815291166020820152604081019190915260600190565b6040516370a0823160e01b81523060048201525f91907f00000000000000000000000000000000000000000000000000000000000000006001600160a01b0316602082602481845afa9182156111ca575f92612028575b5081611f87575050565b600254604051626c044560e11b815293945060209284928392611fba92916001600160a01b039091169060048501611f04565b03817f00000000000000000000000000000000000000000000000000000000000000006001600160a01b03165afa9081156111ca575f91611ff9575090565b90506020813d602011612020575b8161201460209383611cb4565b810103126109df575190565b3d9150612007565b9091506020813d602011612054575b8161204460209383611cb4565b810103126109df5751905f611f7d565b3d9150612037565b908160209103126109df57516001600160a01b03811681036109df5790565b604051628bec5760e51b81526020816004817f00000000000000000000000000000000000000000000000000000000000000006001600160a01b03165afa9081156111ca575f916120ca575090565b6120e3915060203d60201161025f576102518183611cb4565b90565b6001600160a01b039091168152602081019190915260400190565b908160209103126109df575180151581036109df5790565b9061212382611cd5565b6121306040519182611cb4565b8281528092612141601f1991611cd5565b0190602036910137565b8051156121585760200190565b634e487b7160e01b5f52603260045260245ffd5b80518210156121585760209160051b010190565b6040518091829160208251919201905f5b8181106121a15750505003902090565b82516001600160a01b0316845285945060209384019390920191600101612191565b6040518091829160208251919201905f5b8181106121e45750505003902090565b82518452859450602093840193909201916001016121d4565b60ff6008541661230e575f612210611f26565b80612219575090565b6002546040516366677cf160e11b81529192506001600160a01b039081169190602090829060049082907f0000000000000000000000000000000000000000000000000000000000000000165afa80156111ca576020915f916122f1575b506040516370a0823160e01b81526001600160a01b03909116600482015291829060249082905afa9081156111ca575f916122bf575b50808210156122ba575090565b905090565b90506020813d6020116122e9575b816122da60209383611cb4565b810103126109df57515f6122ad565b3d91506122cd565b6123089150823d841161025f576102518183611cb4565b5f612277565b5f90565b5f5160206125215f395f51905f525c6123385760015f5160206125215f395f51905f525d565b633ee5aeb560e01b5f5260045ffd5b501580158061238b575b61237c5780612370575b61236157565b63332863a960e11b5f5260045ffd5b5060ff6008541661235b565b630cd0fdf960e01b5f5260045ffd5b5060ff6008541615612351565b6001600160a01b03918216815291811660208301526040820192909252606081019290925290911660808201525f60a082015260c00190565b612406611dab93926123f860405194859263a9059cbb60e01b6020850152602484016120e6565b03601f198101845283611cb4565b6124c8565b91909160205f60405193612442856124348582019363095ea7b360e01b855289602484016120e6565b03601f198101875286611cb4565b84519082855af15f513d826124a3575b50501561245e57505050565b60405163095ea7b360e01b60208201526001600160a01b0390931660248401525f6044808501919091528352611dab926124069061249d606482611cb4565b826124c8565b9091506124c057506001600160a01b0381163b15155b5f80612452565b6001146124b9565b905f602091828151910182855af1156111ca575f513d61251757506001600160a01b0381163b155b6124f75750565b635274afe760e01b5f9081526001600160a01b0391909116600452602490fd5b600114156124f056fe9b779b17422d0df92223018b32b4d1fa46e071723d6817e2486d003becc55f00a2646970667358221220d0c485338a834e9ac24a10ccfa9283d827e19499db1fd644fb19909378f4581164736f6c634300081c0033",
  "linkReferences": {},
  "deployedLinkReferences": {}
}