{
  "_format": "hh-sol-artifact-1",
  "contractName": "SkyUsdsPsm3Ark",
  "sourceName": "src/contracts/arks/SkyUsdsPsm3Ark.sol",
  "abi": [
    {
      "inputs": [
        {
          "internalType": "address",
          "name": "_psm",
          "type": "address"
        },
        {
          "internalType": "address",
          "name": "_susds",
          "type": "address"
        },
        {
          "components": [
            {
              "internalType": "string",
              "name": "name",
              "type": "string"
            },
            {
              "internalType": "string",
              "name": "details",
              "type": "string"
            },
            {
              "internalType": "address",
              "name": "accessManager",
              "type": "address"
            },
            {
              "internalType": "address",
              "name": "configurationManager",
              "type": "address"
            },
            {
              "internalType": "address",
              "name": "asset",
              "type": "address"
            },
            {
              "internalType": "uint256",
              "name": "depositCap",
              "type": "uint256"
            },
            {
              "internalType": "uint256",
              "name": "maxRebalanceOutflow",
              "type": "uint256"
            },
            {
              "internalType": "uint256",
              "name": "maxRebalanceInflow",
              "type": "uint256"
            },
            {
              "internalType": "bool",
              "name": "requiresKeeperData",
              "type": "bool"
            },
            {
              "internalType": "Percentage",
              "name": "maxDepositPercentageOfTVL",
              "type": "uint256"
            }
          ],
          "internalType": "struct ArkParams",
          "name": "_params",
          "type": "tuple"
        }
      ],
      "stateMutability": "nonpayable",
      "type": "constructor"
    },
    {
      "inputs": [
        {
          "internalType": "address",
          "name": "caller",
          "type": "address"
        }
      ],
      "name": "CallerIsNotAdmin",
      "type": "error"
    },
    {
      "inputs": [
        {
          "internalType": "address",
          "name": "caller",
          "type": "address"
        }
      ],
      "name": "CallerIsNotAuthorizedToBoard",
      "type": "error"
    },
    {
      "inputs": [
        {
          "internalType": "address",
          "name": "caller",
          "type": "address"
        }
      ],
      "name": "CallerIsNotCommander",
      "type": "error"
    },
    {
      "inputs": [
        {
          "internalType": "address",
          "name": "caller",
          "type": "address"
        },
        {
          "internalType": "bytes32",
          "name": "role",
          "type": "bytes32"
        }
      ],
      "name": "CallerIsNotContractSpecificRole",
      "type": "error"
    },
    {
      "inputs": [
        {
          "internalType": "address",
          "name": "caller",
          "type": "address"
        }
      ],
      "name": "CallerIsNotCurator",
      "type": "error"
    },
    {
      "inputs": [
        {
          "internalType": "address",
          "name": "caller",
          "type": "address"
        }
      ],
      "name": "CallerIsNotDecayController",
      "type": "error"
    },
    {
      "inputs": [
        {
          "internalType": "address",
          "name": "caller",
          "type": "address"
        }
      ],
      "name": "CallerIsNotGovernor",
      "type": "error"
    },
    {
      "inputs": [
        {
          "internalType": "address",
          "name": "caller",
          "type": "address"
        }
      ],
      "name": "CallerIsNotGuardian",
      "type": "error"
    },
    {
      "inputs": [
        {
          "internalType": "address",
          "name": "caller",
          "type": "address"
        }
      ],
      "name": "CallerIsNotGuardianOrGovernor",
      "type": "error"
    },
    {
      "inputs": [
        {
          "internalType": "address",
          "name": "caller",
          "type": "address"
        }
      ],
      "name": "CallerIsNotKeeper",
      "type": "error"
    },
    {
      "inputs": [
        {
          "internalType": "address",
          "name": "caller",
          "type": "address"
        }
      ],
      "name": "CallerIsNotRaft",
      "type": "error"
    },
    {
      "inputs": [
        {
          "internalType": "address",
          "name": "caller",
          "type": "address"
        }
      ],
      "name": "CallerIsNotRaftOrCommander",
      "type": "error"
    },
    {
      "inputs": [
        {
          "internalType": "address",
          "name": "caller",
          "type": "address"
        }
      ],
      "name": "CallerIsNotSuperKeeper",
      "type": "error"
    },
    {
      "inputs": [],
      "name": "CannotAddCommanderToArkWithCommander",
      "type": "error"
    },
    {
      "inputs": [],
      "name": "CannotDeployArkWithEmptyName",
      "type": "error"
    },
    {
      "inputs": [],
      "name": "CannotDeployArkWithoutConfigurationManager",
      "type": "error"
    },
    {
      "inputs": [],
      "name": "CannotDeployArkWithoutRaft",
      "type": "error"
    },
    {
      "inputs": [],
      "name": "CannotDeployArkWithoutToken",
      "type": "error"
    },
    {
      "inputs": [],
      "name": "CannotRemoveCommanderFromArkWithAssets",
      "type": "error"
    },
    {
      "inputs": [],
      "name": "CannotUseKeeperDataWhenNotRequired",
      "type": "error"
    },
    {
      "inputs": [],
      "name": "ConfigurationManagerZeroAddress",
      "type": "error"
    },
    {
      "inputs": [
        {
          "internalType": "address",
          "name": "caller",
          "type": "address"
        }
      ],
      "name": "DirectGrantIsDisabled",
      "type": "error"
    },
    {
      "inputs": [
        {
          "internalType": "address",
          "name": "caller",
          "type": "address"
        }
      ],
      "name": "DirectRevokeIsDisabled",
      "type": "error"
    },
    {
      "inputs": [],
      "name": "ERC4626AssetMismatch",
      "type": "error"
    },
    {
      "inputs": [],
      "name": "FleetCommanderAlreadyRegistered",
      "type": "error"
    },
    {
      "inputs": [],
      "name": "FleetCommanderNotRegistered",
      "type": "error"
    },
    {
      "inputs": [
        {
          "internalType": "address",
          "name": "invalidAddress",
          "type": "address"
        }
      ],
      "name": "InvalidAccessManagerAddress",
      "type": "error"
    },
    {
      "inputs": [],
      "name": "InvalidBoardData",
      "type": "error"
    },
    {
      "inputs": [],
      "name": "InvalidDisembarkData",
      "type": "error"
    },
    {
      "inputs": [],
      "name": "InvalidVaultAddress",
      "type": "error"
    },
    {
      "inputs": [],
      "name": "KeeperDataRequired",
      "type": "error"
    },
    {
      "inputs": [],
      "name": "MaxDepositPercentageOfTVLTooHigh",
      "type": "error"
    },
    {
      "inputs": [],
      "name": "ReentrancyGuardReentrantCall",
      "type": "error"
    },
    {
      "inputs": [
        {
          "internalType": "address",
          "name": "token",
          "type": "address"
        }
      ],
      "name": "SafeERC20FailedOperation",
      "type": "error"
    },
    {
      "anonymous": false,
      "inputs": [
        {
          "indexed": true,
          "internalType": "address[]",
          "name": "rewardTokens",
          "type": "address[]"
        },
        {
          "indexed": true,
          "internalType": "uint256[]",
          "name": "rewardAmounts",
          "type": "uint256[]"
        }
      ],
      "name": "ArkHarvested",
      "type": "event"
    },
    {
      "anonymous": false,
      "inputs": [
        {
          "indexed": false,
          "internalType": "uint256",
          "name": "currentPrice",
          "type": "uint256"
        },
        {
          "indexed": false,
          "internalType": "uint256",
          "name": "timestamp",
          "type": "uint256"
        }
      ],
      "name": "ArkPoked",
      "type": "event"
    },
    {
      "anonymous": false,
      "inputs": [
        {
          "indexed": true,
          "internalType": "address[]",
          "name": "sweptTokens",
          "type": "address[]"
        },
        {
          "indexed": true,
          "internalType": "uint256[]",
          "name": "sweptAmounts",
          "type": "uint256[]"
        }
      ],
      "name": "ArkSwept",
      "type": "event"
    },
    {
      "anonymous": false,
      "inputs": [
        {
          "indexed": true,
          "internalType": "address",
          "name": "commander",
          "type": "address"
        },
        {
          "indexed": false,
          "internalType": "address",
          "name": "token",
          "type": "address"
        },
        {
          "indexed": false,
          "internalType": "uint256",
          "name": "amount",
          "type": "uint256"
        }
      ],
      "name": "Boarded",
      "type": "event"
    },
    {
      "anonymous": false,
      "inputs": [
        {
          "indexed": false,
          "internalType": "uint256",
          "name": "newCap",
          "type": "uint256"
        }
      ],
      "name": "DepositCapUpdated",
      "type": "event"
    },
    {
      "anonymous": false,
      "inputs": [
        {
          "indexed": true,
          "internalType": "address",
          "name": "commander",
          "type": "address"
        },
        {
          "indexed": false,
          "internalType": "address",
          "name": "token",
          "type": "address"
        },
        {
          "indexed": false,
          "internalType": "uint256",
          "name": "amount",
          "type": "uint256"
        }
      ],
      "name": "Disembarked",
      "type": "event"
    },
    {
      "anonymous": false,
      "inputs": [
        {
          "indexed": false,
          "internalType": "address",
          "name": "commander",
          "type": "address"
        }
      ],
      "name": "FleetCommanderRegistered",
      "type": "event"
    },
    {
      "anonymous": false,
      "inputs": [
        {
          "indexed": false,
          "internalType": "address",
          "name": "commander",
          "type": "address"
        }
      ],
      "name": "FleetCommanderUnregistered",
      "type": "event"
    },
    {
      "anonymous": false,
      "inputs": [
        {
          "indexed": false,
          "internalType": "Percentage",
          "name": "newMaxDepositPercentageOfTVL",
          "type": "uint256"
        }
      ],
      "name": "MaxDepositPercentageOfTVLUpdated",
      "type": "event"
    },
    {
      "anonymous": false,
      "inputs": [
        {
          "indexed": false,
          "internalType": "uint256",
          "name": "newMaxInflow",
          "type": "uint256"
        }
      ],
      "name": "MaxRebalanceInflowUpdated",
      "type": "event"
    },
    {
      "anonymous": false,
      "inputs": [
        {
          "indexed": false,
          "internalType": "uint256",
          "name": "newMaxOutflow",
          "type": "uint256"
        }
      ],
      "name": "MaxRebalanceOutflowUpdated",
      "type": "event"
    },
    {
      "anonymous": false,
      "inputs": [
        {
          "indexed": true,
          "internalType": "address",
          "name": "from",
          "type": "address"
        },
        {
          "indexed": true,
          "internalType": "address",
          "name": "to",
          "type": "address"
        },
        {
          "indexed": false,
          "internalType": "address",
          "name": "token",
          "type": "address"
        },
        {
          "indexed": false,
          "internalType": "uint256",
          "name": "amount",
          "type": "uint256"
        }
      ],
      "name": "Moved",
      "type": "event"
    },
    {
      "anonymous": false,
      "inputs": [
        {
          "indexed": false,
          "internalType": "address",
          "name": "newRaft",
          "type": "address"
        }
      ],
      "name": "RaftUpdated",
      "type": "event"
    },
    {
      "inputs": [],
      "name": "ADMIRALS_QUARTERS_ROLE",
      "outputs": [
        {
          "internalType": "bytes32",
          "name": "",
          "type": "bytes32"
        }
      ],
      "stateMutability": "view",
      "type": "function"
    },
    {
      "inputs": [],
      "name": "DECAY_CONTROLLER_ROLE",
      "outputs": [
        {
          "internalType": "bytes32",
          "name": "",
          "type": "bytes32"
        }
      ],
      "stateMutability": "view",
      "type": "function"
    },
    {
      "inputs": [],
      "name": "GOVERNOR_ROLE",
      "outputs": [
        {
          "internalType": "bytes32",
          "name": "",
          "type": "bytes32"
        }
      ],
      "stateMutability": "view",
      "type": "function"
    },
    {
      "inputs": [],
      "name": "GUARDIAN_ROLE",
      "outputs": [
        {
          "internalType": "bytes32",
          "name": "",
          "type": "bytes32"
        }
      ],
      "stateMutability": "view",
      "type": "function"
    },
    {
      "inputs": [],
      "name": "SUPER_KEEPER_ROLE",
      "outputs": [
        {
          "internalType": "bytes32",
          "name": "",
          "type": "bytes32"
        }
      ],
      "stateMutability": "view",
      "type": "function"
    },
    {
      "inputs": [],
      "name": "asset",
      "outputs": [
        {
          "internalType": "contract IERC20",
          "name": "",
          "type": "address"
        }
      ],
      "stateMutability": "view",
      "type": "function"
    },
    {
      "inputs": [
        {
          "internalType": "uint256",
          "name": "amount",
          "type": "uint256"
        },
        {
          "internalType": "bytes",
          "name": "boardData",
          "type": "bytes"
        }
      ],
      "name": "board",
      "outputs": [],
      "stateMutability": "nonpayable",
      "type": "function"
    },
    {
      "inputs": [],
      "name": "commander",
      "outputs": [
        {
          "internalType": "address",
          "name": "",
          "type": "address"
        }
      ],
      "stateMutability": "view",
      "type": "function"
    },
    {
      "inputs": [],
      "name": "config",
      "outputs": [
        {
          "internalType": "address",
          "name": "commander",
          "type": "address"
        },
        {
          "internalType": "address",
          "name": "raft",
          "type": "address"
        },
        {
          "internalType": "contract IERC20",
          "name": "asset",
          "type": "address"
        },
        {
          "internalType": "uint256",
          "name": "depositCap",
          "type": "uint256"
        },
        {
          "internalType": "uint256",
          "name": "maxRebalanceOutflow",
          "type": "uint256"
        },
        {
          "internalType": "uint256",
          "name": "maxRebalanceInflow",
          "type": "uint256"
        },
        {
          "internalType": "string",
          "name": "name",
          "type": "string"
        },
        {
          "internalType": "string",
          "name": "details",
          "type": "string"
        },
        {
          "internalType": "bool",
          "name": "requiresKeeperData",
          "type": "bool"
        },
        {
          "internalType": "Percentage",
          "name": "maxDepositPercentageOfTVL",
          "type": "uint256"
        }
      ],
      "stateMutability": "view",
      "type": "function"
    },
    {
      "inputs": [],
      "name": "configurationManager",
      "outputs": [
        {
          "internalType": "contract IConfigurationManager",
          "name": "",
          "type": "address"
        }
      ],
      "stateMutability": "view",
      "type": "function"
    },
    {
      "inputs": [],
      "name": "depositCap",
      "outputs": [
        {
          "internalType": "uint256",
          "name": "",
          "type": "uint256"
        }
      ],
      "stateMutability": "view",
      "type": "function"
    },
    {
      "inputs": [],
      "name": "details",
      "outputs": [
        {
          "internalType": "string",
          "name": "",
          "type": "string"
        }
      ],
      "stateMutability": "view",
      "type": "function"
    },
    {
      "inputs": [
        {
          "internalType": "uint256",
          "name": "amount",
          "type": "uint256"
        },
        {
          "internalType": "bytes",
          "name": "disembarkData",
          "type": "bytes"
        }
      ],
      "name": "disembark",
      "outputs": [],
      "stateMutability": "nonpayable",
      "type": "function"
    },
    {
      "inputs": [],
      "name": "fleetCommanderRewardsManagerFactory",
      "outputs": [
        {
          "internalType": "address",
          "name": "",
          "type": "address"
        }
      ],
      "stateMutability": "view",
      "type": "function"
    },
    {
      "inputs": [
        {
          "internalType": "enum ContractSpecificRoles",
          "name": "roleName",
          "type": "uint8"
        },
        {
          "internalType": "address",
          "name": "roleTargetContract",
          "type": "address"
        }
      ],
      "name": "generateRole",
      "outputs": [
        {
          "internalType": "bytes32",
          "name": "",
          "type": "bytes32"
        }
      ],
      "stateMutability": "pure",
      "type": "function"
    },
    {
      "inputs": [],
      "name": "getConfig",
      "outputs": [
        {
          "components": [
            {
              "internalType": "address",
              "name": "commander",
              "type": "address"
            },
            {
              "internalType": "address",
              "name": "raft",
              "type": "address"
            },
            {
              "internalType": "contract IERC20",
              "name": "asset",
              "type": "address"
            },
            {
              "internalType": "uint256",
              "name": "depositCap",
              "type": "uint256"
            },
            {
              "internalType": "uint256",
              "name": "maxRebalanceOutflow",
              "type": "uint256"
            },
            {
              "internalType": "uint256",
              "name": "maxRebalanceInflow",
              "type": "uint256"
            },
            {
              "internalType": "string",
              "name": "name",
              "type": "string"
            },
            {
              "internalType": "string",
              "name": "details",
              "type": "string"
            },
            {
              "internalType": "bool",
              "name": "requiresKeeperData",
              "type": "bool"
            },
            {
              "internalType": "Percentage",
              "name": "maxDepositPercentageOfTVL",
              "type": "uint256"
            }
          ],
          "internalType": "struct ArkConfig",
          "name": "",
          "type": "tuple"
        }
      ],
      "stateMutability": "view",
      "type": "function"
    },
    {
      "inputs": [],
      "name": "harborCommand",
      "outputs": [
        {
          "internalType": "address",
          "name": "",
          "type": "address"
        }
      ],
      "stateMutability": "view",
      "type": "function"
    },
    {
      "inputs": [
        {
          "internalType": "bytes",
          "name": "additionalData",
          "type": "bytes"
        }
      ],
      "name": "harvest",
      "outputs": [
        {
          "internalType": "address[]",
          "name": "rewardTokens",
          "type": "address[]"
        },
        {
          "internalType": "uint256[]",
          "name": "rewardAmounts",
          "type": "uint256[]"
        }
      ],
      "stateMutability": "nonpayable",
      "type": "function"
    },
    {
      "inputs": [
        {
          "internalType": "address",
          "name": "account",
          "type": "address"
        }
      ],
      "name": "hasAdmiralsQuartersRole",
      "outputs": [
        {
          "internalType": "bool",
          "name": "",
          "type": "bool"
        }
      ],
      "stateMutability": "view",
      "type": "function"
    },
    {
      "inputs": [],
      "name": "maxDepositPercentageOfTVL",
      "outputs": [
        {
          "internalType": "Percentage",
          "name": "",
          "type": "uint256"
        }
      ],
      "stateMutability": "view",
      "type": "function"
    },
    {
      "inputs": [],
      "name": "maxRebalanceInflow",
      "outputs": [
        {
          "internalType": "uint256",
          "name": "",
          "type": "uint256"
        }
      ],
      "stateMutability": "view",
      "type": "function"
    },
    {
      "inputs": [],
      "name": "maxRebalanceOutflow",
      "outputs": [
        {
          "internalType": "uint256",
          "name": "",
          "type": "uint256"
        }
      ],
      "stateMutability": "view",
      "type": "function"
    },
    {
      "inputs": [
        {
          "internalType": "uint256",
          "name": "amount",
          "type": "uint256"
        },
        {
          "internalType": "address",
          "name": "receiverArk",
          "type": "address"
        },
        {
          "internalType": "bytes",
          "name": "boardData",
          "type": "bytes"
        },
        {
          "internalType": "bytes",
          "name": "disembarkData",
          "type": "bytes"
        }
      ],
      "name": "move",
      "outputs": [],
      "stateMutability": "nonpayable",
      "type": "function"
    },
    {
      "inputs": [],
      "name": "name",
      "outputs": [
        {
          "internalType": "string",
          "name": "",
          "type": "string"
        }
      ],
      "stateMutability": "view",
      "type": "function"
    },
    {
      "inputs": [],
      "name": "psm",
      "outputs": [
        {
          "internalType": "contract IPSM3",
          "name": "",
          "type": "address"
        }
      ],
      "stateMutability": "view",
      "type": "function"
    },
    {
      "inputs": [],
      "name": "raft",
      "outputs": [
        {
          "internalType": "address",
          "name": "",
          "type": "address"
        }
      ],
      "stateMutability": "view",
      "type": "function"
    },
    {
      "inputs": [],
      "name": "registerFleetCommander",
      "outputs": [],
      "stateMutability": "nonpayable",
      "type": "function"
    },
    {
      "inputs": [],
      "name": "requiresKeeperData",
      "outputs": [
        {
          "internalType": "bool",
          "name": "",
          "type": "bool"
        }
      ],
      "stateMutability": "view",
      "type": "function"
    },
    {
      "inputs": [
        {
          "internalType": "uint256",
          "name": "newDepositCap",
          "type": "uint256"
        }
      ],
      "name": "setDepositCap",
      "outputs": [],
      "stateMutability": "nonpayable",
      "type": "function"
    },
    {
      "inputs": [
        {
          "internalType": "Percentage",
          "name": "newMaxDepositPercentageOfTVL",
          "type": "uint256"
        }
      ],
      "name": "setMaxDepositPercentageOfTVL",
      "outputs": [],
      "stateMutability": "nonpayable",
      "type": "function"
    },
    {
      "inputs": [
        {
          "internalType": "uint256",
          "name": "newMaxRebalanceInflow",
          "type": "uint256"
        }
      ],
      "name": "setMaxRebalanceInflow",
      "outputs": [],
      "stateMutability": "nonpayable",
      "type": "function"
    },
    {
      "inputs": [
        {
          "internalType": "uint256",
          "name": "newMaxRebalanceOutflow",
          "type": "uint256"
        }
      ],
      "name": "setMaxRebalanceOutflow",
      "outputs": [],
      "stateMutability": "nonpayable",
      "type": "function"
    },
    {
      "inputs": [],
      "name": "susds",
      "outputs": [
        {
          "internalType": "contract IERC20",
          "name": "",
          "type": "address"
        }
      ],
      "stateMutability": "view",
      "type": "function"
    },
    {
      "inputs": [
        {
          "internalType": "address[]",
          "name": "tokens",
          "type": "address[]"
        }
      ],
      "name": "sweep",
      "outputs": [
        {
          "internalType": "address[]",
          "name": "sweptTokens",
          "type": "address[]"
        },
        {
          "internalType": "uint256[]",
          "name": "sweptAmounts",
          "type": "uint256[]"
        }
      ],
      "stateMutability": "nonpayable",
      "type": "function"
    },
    {
      "inputs": [],
      "name": "tipJar",
      "outputs": [
        {
          "internalType": "address",
          "name": "",
          "type": "address"
        }
      ],
      "stateMutability": "view",
      "type": "function"
    },
    {
      "inputs": [],
      "name": "totalAssets",
      "outputs": [
        {
          "internalType": "uint256",
          "name": "",
          "type": "uint256"
        }
      ],
      "stateMutability": "view",
      "type": "function"
    },
    {
      "inputs": [],
      "name": "treasury",
      "outputs": [
        {
          "internalType": "address",
          "name": "",
          "type": "address"
        }
      ],
      "stateMutability": "view",
      "type": "function"
    },
    {
      "inputs": [],
      "name": "unregisterFleetCommander",
      "outputs": [],
      "stateMutability": "nonpayable",
      "type": "function"
    },
    {
      "inputs": [],
      "name": "withdrawableTotalAssets",
      "outputs": [
        {
          "internalType": "uint256",
          "name": "",
          "type": "uint256"
        }
      ],
      "stateMutability": "view",
      "type": "function"
    }
  ],
  "bytecode": "0x610100806040523461061857612d90803803809161001d8285610638565b83398101606082820312610618576100348261065b565b906100416020840161065b565b604084015190936001600160401b0382116106185701906101408282031261061857604051906100708261061c565b82516001600160401b038111610618578161008c91850161066f565b82526020830151906001600160401b038211610618576100ad91840161066f565b91602082019283526100c16040820161065b565b928360408401526100d46060830161065b565b928360608201526100e76080840161065b565b946080820195865260a08401519560a0830196875260c08501519060c0840191825260e08601519260e08501938452610100870151968715158803610618576101008601978852610120908101519086019081526001600160a01b03918216608052971680156106095760a05280516001600160a01b0316156105fa57835151156105eb576001600160a01b0361017c6106c4565b16156105dc5768056bc75e2d631000008751116105cd57516001600160a01b03166101a56106c4565b9751915192519351945195511515965197610120604051916101c68361061c565b5f8084526001600160a01b03919091166020840181905260408401859052606084018690526080840187905260a0840188905260c0840189905260e08401998a5261010084019a8b5291909201998a5281546001600160a01b031990811690925560018054831690911790556002805490911690911790556003556004556005558051906001600160401b0382116104d05760065490600182811c921680156105c3575b60208310146104b25781601f849311610555575b50602090601f83116001146104ef575f926104e4575b50508160011b915f199060031b1c1916176006555b518051906001600160401b0382116104d05760075490600182811c921680156104c6575b60208310146104b25781601f849311610444575b50602090601f83116001146103de575f926103d3575b50508160011b915f199060031b1c1916176007555b51151560ff8019600854169116176008555160095560018060a01b031660c05260018060a01b031660e052604051612653908161073d823960805181818161034b0152610c2b015260a0518181816101ec0152818161059801528181610d7801528181611571015281816115ff015261223c015260c0518181816107fd0152818161187d01528181611bad01528181611d790152818161216a01526123e4015260e0518181816107d901528181611660015281816118e401528181611b87015261210a0152f35b015190505f806102f7565b60075f9081528281209350601f198516905b81811061042c5750908460019594939210610414575b505050811b0160075561030c565b01515f1960f88460031b161c191690555f8080610406565b929360206001819287860151815501950193016103f0565b60075f529091507fa66cc928b5edb82af9bd49922954155ab7b0942694bea4ce44661d9a8736c688601f840160051c810191602085106104a8575b90601f859493920160051c01905b81811061049a57506102e1565b5f815584935060010161048d565b909150819061047f565b634e487b7160e01b5f52602260045260245ffd5b91607f16916102cd565b634e487b7160e01b5f52604160045260245ffd5b015190505f80610294565b60065f9081528281209350601f198516905b81811061053d5750908460019594939210610525575b505050811b016006556102a9565b01515f1960f88460031b161c191690555f8080610517565b92936020600181928786015181550195019301610501565b60065f529091507ff652222313e28459528d920b65115c16c04f3efc82aaedc97be59f3f377c0d3f601f840160051c810191602085106105b9575b90601f859493920160051c01905b8181106105ab575061027e565b5f815584935060010161059e565b9091508190610590565b91607f169161026a565b634ef9dfe360e01b5f5260045ffd5b633a4f9cdb60e21b5f5260045ffd5b63268c072960e01b5f5260045ffd5b637ff57ef160e11b5f5260045ffd5b63f1634df960e01b5f5260045ffd5b5f80fd5b61014081019081106001600160401b038211176104d057604052565b601f909101601f19168101906001600160401b038211908210176104d057604052565b51906001600160a01b038216820361061857565b81601f82011215610618578051906001600160401b0382116104d057604051926106a3601f8401601f191660200185610638565b8284526020838301011161061857815f9260208093018386015e8301015290565b60a051604051628bec5760e51b815290602090829060049082906001600160a01b03165afa908115610731575f916106fa575090565b90506020813d602011610729575b8161071560209383610638565b81010312610618576107269061065b565b90565b3d9150610708565b6040513d5f823e3d90fdfe60806040526004361015610011575f80fd5b5f5f3560e01c806301e1d11414611da857806304bda26214611d6457806306fdde0314611d49578063117d8ae014611d1d57806313c408f814611b3957806324ea54f414611aff5780632db6d399146117c2578063303dbaf3146117a05780633194549e14611783578063372709361461175c57806338d52e0f146117345780634fc7fac3146116be578063565974d31461168f57806358b8f19c1461164b5780635b0f83f3146115da57806361d027b31461154c57806361f5cd8b146114e257806366e943f1146114a857806369b3054b14611447578063780469bb14610e7557806379502c5514610dc45780637aaceb9514610d525780638665120314610cf95780638a8b997614610bc257806392f5e83214610b56578063a89f38a314610b1b578063ad5a356f14610afd578063bdcdd88214610adf578063c0b534c214610aa4578063c38a6f0b14610741578063c3f909d4146105c7578063c9c667e314610582578063ccc5749014610547578063ce5c7f6114610402578063d570ee47146103df578063dbd5edc7146103c1578063ebc136d0146102e1578063ebf31131146102745763f7e533ec146101c7575f80fd5b34610271578060031936011261027157604051633df94cfb60e21b81526020816004817f00000000000000000000000000000000000000000000000000000000000000006001600160a01b03165afa9081156102665760209291610239575b506040516001600160a01b039091168152f35b6102599150823d841161025f575b6102518183611e78565b810190612209565b5f610226565b503d610247565b6040513d84823e3d90fd5b80fd5b503461027157806003193601126102715780546001600160a01b03811633036102d2576001600160a01b03191681556040513381527f7cb941d7b1708e5b3bcd35ca960d6c6311188cec18886e5b67630552676b048790602090a180f35b63430da47160e01b8252600482fd5b5034610271576020366003190112610271576004356001600160a01b038116908190036103bd57604051632474521560e21b81527fb00be3d6a5434b97b328543d1486d56adcb7e74080170d1cdd7e0306c3d9ba3d600482015260248101919091526020816044817f00000000000000000000000000000000000000000000000000000000000000006001600160a01b03165afa9081156102665760209291610390575b506040519015158152f35b6103b09150823d84116103b6575b6103a88183611e78565b8101906122ae565b5f610385565b503d61039e565b5080fd5b50346102715780600319360112610271576020600354604051908152f35b503461027157806003193601126102715760206103fa6123aa565b604051908152f35b5034610271576020366003190112610271576004356001600160401b0381116103bd57610433903690600401611de6565b5050604051628bec5760e51b8152602081600481305afa908115610266578291610528575b506001600160a01b03163303610515576104706124b1565b60409061051182516104828482611e78565b60018152601f19840190813660208301378451916104a08684611e78565b60018352366020840137836104b4826122f8565b52836104bf836122f8565b526104c98161232d565b936104d383612370565b95519586957f3e3e7958121b3e39c7a49392d1aa9cdce870c2a059744f9e15cf66fff78654558380a35f5160206125fe5f395f51905f525d83611eb0565b0390f35b631184b31b60e21b815233600452602490fd5b610541915060203d60201161025f576102518183611e78565b5f610458565b503461027157806003193601126102715760206040517f7935bd0ae54bc31f548c14dba4d37c5c64b3f8ca900cb468fb8abd54d5894f558152f35b50346102715780600319360112610271576040517f00000000000000000000000000000000000000000000000000000000000000006001600160a01b03168152602090f35b5034610271578060031936011261027157806101206040516105e881611e5c565b8281528260208201528260408201528260608201528260808201528260a0820152606060c0820152606060e08201528261010082015201526040519061062d82611e5c565b546001600160a01b03908116825260015481166020830190815260025490911660408301908152600354606084019081526004546080850190815260055460a0860190815293949391929161072c919061071890610689611f2b565b9060c0880191825261069961200d565b60e089810191825260085460ff1615156101008b019081526009546101208c019081526040805160208082529d516001600160a01b039081169e82019e909e529d518d16908e01529851909a1660608c0152975160808b0152935160a08a01525160c08901525161014095880195909552869594610160870190611dc2565b9051858203601f1901610100870152611dc2565b91511515610120840152516101408301520390f35b50346102715760803660031901126102715760043561075e611e46565b6044356001600160401b0381116109b95761077d903690600401611de6565b6064939193356001600160401b038111610aa05761079f903690600401611de6565b86549091906001600160a01b03163303610a8d578692916107bf916124e6565b60025460405163e243741160e01b81526001600160a01b037f00000000000000000000000000000000000000000000000000000000000000008116927f00000000000000000000000000000000000000000000000000000000000000008216929160209183918291610838918b911688600485016120c8565b0381855afa908115610a82578591610a49575b5060405163095ea7b360e01b8152916020838061086c858560048401612293565b038189885af1928315610a3e57602093610a23575b5060025460405163051f86b560e01b81529485938492899284926108b69230928e916001600160a01b03169060048701612537565b03925af18015610a18576109e9575b5060025460405163095ea7b360e01b81526001600160a01b039091169490602081806108f5888660048401612293565b0381878a5af180156109de576109c1575b506001600160a01b031694853b156109bd5781606484926040519485938492632db6d39960e01b845289600485015260406024850152816044850152848401378181018301859052601f01601f1916810103018183895af18015610266576109a4575b505061099e7f9f784fc02a186f1c98b2d9f15fda084da27cdd291a3785d978f91911d880516b91604051918291309583612293565b0390a380f35b816109ae91611e78565b6109b957835f610969565b8380fd5b8280fd5b6109d99060203d6020116103b6576103a88183611e78565b610906565b6040513d86823e3d90fd5b610a0a9060203d602011610a11575b610a028183611e78565b8101906120b9565b505f6108c5565b503d6109f8565b6040513d85823e3d90fd5b610a3990843d86116103b6576103a88183611e78565b610881565b6040513d88823e3d90fd5b9450506020843d602011610a7a575b81610a6560209383611e78565b81010312610a76578793515f61084b565b5f80fd5b3d9150610a58565b6040513d87823e3d90fd5b631564c0e160e11b875233600452602487fd5b8580fd5b503461027157806003193601126102715760206040517f025d8bbf3268be680d2605ebf6da15063b9915615bf1087dab336efc1bf970cb8152f35b50346102715780600319360112610271576020600954604051908152f35b50346102715780600319360112610271576020600554604051908152f35b503461027157806003193601126102715760206040517fb00be3d6a5434b97b328543d1486d56adcb7e74080170d1cdd7e0306c3d9ba3d8152f35b5034610271576020366003190112610271578054600435906001600160a01b03163303610baf576020817fb6ac66853c4e59c71e118d25ab494bb847c4e5eb0c8894898c5343e6f61afc1292600555604051908152a180f35b631564c0e160e11b825233600452602482fd5b5034610271578060031936011261027157604051600160f91b602082019081523060601b6001600160601b03191660218301526015825290610c05603582611e78565b519020604051632474521560e21b815260048101919091523360248201526020816044817f00000000000000000000000000000000000000000000000000000000000000006001600160a01b03165afa908115610266578291610cda575b5015610cc75780546001600160a01b038116610cb8576001600160a01b0319163390811782556040519081527f55489ce0259bd691120d8860861be1c401c7c16a3cd268d21045756af4ecc5ca90602090a180f35b636a79b97d60e11b8252600482fd5b631564c0e160e11b815233600452602490fd5b610cf3915060203d6020116103b6576103a88183611e78565b5f610c63565b5034610271576020366003190112610271578054600435906001600160a01b03163303610baf576020817f333b26cca69716ad4680ddb07663f5bfb4f06045671f336af9a83690a3ae00f992600355604051908152a180f35b5034610271578060031936011261027157604051637aaceb9560e01b81526020816004817f00000000000000000000000000000000000000000000000000000000000000006001600160a01b03165afa908115610266576020929161023957506040516001600160a01b039091168152f35b5034610271578060031936011261027157546001546002546003546004546005546001600160a01b0394851695851694929390921691610e629190610e5490610e0b611f2b565b90610e1461200d565b9360ff6008541697600954976040519b8c9b8c5260208c015260408b015260608a0152608089015260a088015261014060c0880152610140870190611dc2565b9085820360e0870152611dc2565b9115156101008401526101208301520390f35b5034610a76576020366003190112610a76576004356001600160401b038111610a765736602382011215610a76578060040135610eb181611e99565b91610ebf6040519384611e78565b8183526024602084019260051b82010190368211610a7657602401915b818310611427575050604051628bec5760e51b81529050602081600481305afa9081156112a2575f91611408575b506001600160a01b031633036113f557610f226124b1565b610f2c81516122c6565b90610f3781516122c6565b6002545f5460405163c8169aa160e01b81529294926001600160a01b0392831692909160209183916004918391165afa9081156112a2575f916113d6575b506040516370a0823160e01b8152306004820152602081602481865afa9081156112a2575f916113a4575b50151580611391575b61116f575b5050835b82518110156111165760249060206001600160a01b03610fd28387612319565b5116604051938480926370a0823160e01b82523060048301525afa918215610a3e5786926110e3575b508161100c575b6001915001610fb2565b6001600160a01b0361101e8286612319565b511691602461102b612228565b9360206001600160a01b03611040868a612319565b5116604051938480926370a0823160e01b82523060048301525afa9182156110d85789926110a4575b509060019461107792612570565b828060a01b036110878387612319565b51166110938386612319565b5261109e8287612319565b52611002565b91506020823d82116110d0575b816110be60209383611e78565b81010312610a76579051906001611069565b3d91506110b1565b6040513d8b823e3d90fd5b9091506020813d821161110e575b816110fe60209383611e78565b81010312610a765751905f610ffb565b3d91506110f1565b8482610511866111258361232d565b9261112f82612370565b946040519586957f46b8771620f6acf56cb03d3e835ea8024c7dcbcf05fcc3f6ade9e19d1a3e212b8380a35f5160206125fe5f395f51905f525d83611eb0565b6040516370a0823160e01b8152306004820152602081602481865afa9081156112a2575f9161135e575b50602491602091825f604051926111d2846111c48582019363095ea7b360e01b8552888b8401612293565b03601f198101865285611e78565b83519082895af15f513d82611342575b5050156112f3575b506040516370a0823160e01b81523060048201526001600160a01b0391909116939092839182905afa9081156112a2575f916112c1575b50604051602081018181106001600160401b038211176112ad576040525f8152823b15610a7657611278925f9283604051809681958294632db6d39960e01b84526004840152604060248401526044830190611dc2565b03925af180156112a25761128d575b80610fae565b61129a9194505f90611e78565b5f925f611287565b6040513d5f823e3d90fd5b634e487b7160e01b5f52604160045260245ffd5b90506020813d6020116112eb575b816112dc60209383611e78565b81010312610a7657515f611221565b3d91506112cf565b60405163095ea7b360e01b848201526001600160a01b038316858201525f604480830191909152815261133c919061133690611330606482611e78565b876125a5565b856125a5565b5f6111ea565b9091506113565750843b15155b5f806111e2565b60011461134f565b90506020813d602011611389575b8161137960209383611e78565b81010312610a7657516024611199565b3d915061136c565b50306001600160a01b0382161415610fa9565b90506020813d6020116113ce575b816113bf60209383611e78565b81010312610a7657515f610fa0565b3d91506113b2565b6113ef915060203d60201161025f576102518183611e78565b5f610f75565b631184b31b60e21b5f523360045260245ffd5b611421915060203d60201161025f576102518183611e78565b5f610f0a565b82356001600160a01b0381168103610a7657815260209283019201610edc565b34610a76576040366003190112610a76576004356003811015610a765760209061146f611e46565b604051908382019260f81b835260018060601b03199060601b1660218201526015815261149d603582611e78565b519020604051908152f35b34610a76575f366003190112610a765760206040517f0d186688925976bbe6755ae984501c8e3e2b103a7af59fd803ab9c6d891ae7e08152f35b34610a76576020366003190112610a76575f54600435906001600160a01b03163303611539576020817ffbe2d5c01ea8ba5596d6c4e6c82c6d4a0a0ee1128689993a4a5ba0169273d69f92600455604051908152a1005b631564c0e160e11b5f523360045260245ffd5b34610a76575f366003190112610a76576040516361d027b360e01b81526020816004817f00000000000000000000000000000000000000000000000000000000000000006001600160a01b03165afa80156112a2576020915f916115bd57506040516001600160a01b039091168152f35b6115d49150823d841161025f576102518183611e78565b82610226565b34610a76575f366003190112610a7657604051635b0f83f360e01b81526020816004817f00000000000000000000000000000000000000000000000000000000000000006001600160a01b03165afa80156112a2576020915f916115bd57506040516001600160a01b039091168152f35b34610a76575f366003190112610a76576040517f00000000000000000000000000000000000000000000000000000000000000006001600160a01b03168152602090f35b34610a76575f366003190112610a76576105116116aa61200d565b604051918291602083526020830190611dc2565b34610a76576020366003190112610a76575f54600435906001600160a01b031633036115395768056bc75e2d631000008111611725576020817fd3c6d0ab315f2f1352f036cd9f401b49e38e1b90907e195225e8105f9a0b6f0292600955604051908152a1005b634ef9dfe360e01b5f5260045ffd5b34610a76575f366003190112610a76576002546040516001600160a01b039091168152602090f35b34610a76575f366003190112610a76575f546040516001600160a01b039091168152602090f35b34610a76575f366003190112610a76576020600454604051908152f35b34610a76575f366003190112610a7657602060ff600854166040519015158152f35b34610a76576117d036611e13565b6117d86124b1565b604051631b93849b60e11b8152602081600481305afa9081156112a2575f91611ae0575b506001600160a01b0316338103611a24575b50611818916124e6565b6002546040516323b872dd60e01b60208201526001600160a01b0390911691906118639061185d8161184f853033602485016120c8565b03601f198101835282611e78565b836125a5565b60025460405163095ea7b360e01b81526001600160a01b037f000000000000000000000000000000000000000000000000000000000000000081169392602091839116815f816118b7888a60048401612293565b03925af180156112a257611a07575b50600254604051626c044560e11b81526001600160a01b03918216937f0000000000000000000000000000000000000000000000000000000000000000909216916020828061191a87878a600485016120c8565b0381845afa9182156112a25784905f936119cf575b505f60209461195660405198899687958694631a019e3760e01b8652309360048701612537565b03925af19081156112a2577fcbaa1442ac205415c9d69643e7b60ec73d1de35dbc807c21ec288c70ddc4207b9261199b926119b0575b50604051918291339583612293565b0390a25f5f5160206125fe5f395f51905f525d005b6119c89060203d602011610a1157610a028183611e78565b508461198c565b939250506020833d6020116119ff575b816119ec60209383611e78565b81010312610a765791519091835f61192f565b3d91506119df565b611a1f9060203d6020116103b6576103a88183611e78565b6118c6565b604051628bec5760e51b8152602081600481305afa9081156112a2575f91611ac1575b506001600160a01b0316331461180e5760206024916040519283809263d206a05960e01b82523360048301525afa9081156112a2575f91611aa2575b5015611a8f578361180e565b638f7a567d60e01b5f523360045260245ffd5b611abb915060203d6020116103b6576103a88183611e78565b84611a83565b611ada915060203d60201161025f576102518183611e78565b85611a47565b611af9915060203d60201161025f576102518183611e78565b846117fc565b34610a76575f366003190112610a765760206040517f55435dd261a4b9b3364963f7738a7a662ad9c84396d64be3365284bb7f0a50418152f35b34610a7657611b4736611e13565b5f546001600160a01b0316330361153957611b6991611b646124b1565b6124e6565b60025460405163e243741160e01b81526001600160a01b03918216927f000000000000000000000000000000000000000000000000000000000000000083169290917f00000000000000000000000000000000000000000000000000000000000000009091169060208180611be3868989600485016120c8565b0381855afa9081156112a2575f91611ceb575b5060405163095ea7b360e01b81529160208380611c17858560048401612293565b03815f895af19283156112a257602093611cd0575b5060025460405163051f86b560e01b815295869384925f928492611c619230928b916001600160a01b03169060048701612537565b03925af19081156112a2577fd5e872c5ecfb1bb8820b2e6a20e31b883682282da886621541f71e31ec11947e9261199b92611cb1575b50611ca3813386612570565b604051918291339583612293565b611cc99060203d602011610a1157610a028183611e78565b5084611c97565b611ce690843d86116103b6576103a88183611e78565b611c2c565b90506020813d602011611d15575b81611d0660209383611e78565b81010312610a76575185611bf6565b3d9150611cf9565b34610a76575f366003190112610a76576020611d37612228565b6040516001600160a01b039091168152f35b34610a76575f366003190112610a76576105116116aa611f2b565b34610a76575f366003190112610a76576040517f00000000000000000000000000000000000000000000000000000000000000006001600160a01b03168152602090f35b34610a76575f366003190112610a765760206103fa6120ea565b805180835260209291819084018484015e5f828201840152601f01601f1916010190565b9181601f84011215610a76578235916001600160401b038311610a765760208381860195010111610a7657565b906040600319830112610a765760043591602435906001600160401b038211610a7657611e4291600401611de6565b9091565b602435906001600160a01b0382168203610a7657565b61014081019081106001600160401b038211176112ad57604052565b90601f801991011681019081106001600160401b038211176112ad57604052565b6001600160401b0381116112ad5760051b60200190565b604081016040825282518091526020606083019301905f5b818110611f0c575050506020818303910152602080835192838152019201905f5b818110611ef65750505090565b8251845260209384019390920191600101611ee9565b82516001600160a01b0316855260209485019490920191600101611ec8565b604051905f6006548060011c9160018216918215612003575b602084108314611fef578386528592908115611fd05750600114611f71575b611f6f92500383611e78565b565b5060065f90815290917ff652222313e28459528d920b65115c16c04f3efc82aaedc97be59f3f377c0d3f5b818310611fb4575050906020611f6f92820101611f63565b6020919350806001915483858901015201910190918492611f9c565b60209250611f6f94915060ff191682840152151560051b820101611f63565b634e487b7160e01b5f52602260045260245ffd5b92607f1692611f44565b604051905f6007548060011c91600182169182156120af575b602084108314611fef578386528592908115611fd0575060011461205057611f6f92500383611e78565b5060075f90815290917fa66cc928b5edb82af9bd49922954155ab7b0942694bea4ce44661d9a8736c6885b818310612093575050906020611f6f92820101611f63565b602091935080600191548385890101520191019091849261207b565b92607f1692612026565b90816020910312610a76575190565b6001600160a01b03918216815291166020820152604081019190915260600190565b6002546040516370a0823160e01b81523060048201526001600160a01b037f000000000000000000000000000000000000000000000000000000000000000081169216602082602481865afa9182156112a2575f926121d4575b50602091926121666040519485938493626c044560e11b8552600485016120c8565b03817f00000000000000000000000000000000000000000000000000000000000000006001600160a01b03165afa9081156112a2575f916121a5575090565b90506020813d6020116121cc575b816121c060209383611e78565b81010312610a76575190565b3d91506121b3565b91506020823d602011612201575b816121ef60209383611e78565b81010312610a76576020915191612144565b3d91506121e2565b90816020910312610a7657516001600160a01b0381168103610a765790565b604051628bec5760e51b81526020816004817f00000000000000000000000000000000000000000000000000000000000000006001600160a01b03165afa9081156112a2575f91612277575090565b612290915060203d60201161025f576102518183611e78565b90565b6001600160a01b039091168152602081019190915260400190565b90816020910312610a7657518015158103610a765790565b906122d082611e99565b6122dd6040519182611e78565b82815280926122ee601f1991611e99565b0190602036910137565b8051156123055760200190565b634e487b7160e01b5f52603260045260245ffd5b80518210156123055760209160051b010190565b6040518091829160208251919201905f5b81811061234e5750505003902090565b82516001600160a01b031684528594506020938401939092019160010161233e565b6040518091829160208251919201905f5b8181106123915750505003902090565b8251845285945060209384019390920191600101612381565b60ff600854166124ad576123bc6120ea565b6002546040516366677cf160e11b81526001600160a01b0391821691602090829060049082907f0000000000000000000000000000000000000000000000000000000000000000165afa80156112a2576020915f91612490575b506040516370a0823160e01b81526001600160a01b03909116600482015291829060249082905afa9081156112a2575f9161245e575b5080821015612459575090565b905090565b90506020813d602011612488575b8161247960209383611e78565b81010312610a7657515f61244c565b3d915061246c565b6124a79150823d841161025f576102518183611e78565b5f612416565b5f90565b5f5160206125fe5f395f51905f525c6124d75760015f5160206125fe5f395f51905f525d565b633ee5aeb560e01b5f5260045ffd5b501580158061252a575b61251b578061250f575b61250057565b63332863a960e11b5f5260045ffd5b5060ff600854166124fa565b630cd0fdf960e01b5f5260045ffd5b5060ff60085416156124f0565b6001600160a01b03918216815291811660208301526040820192909252606081019290925290911660808201525f60a082015260c00190565b6125a5611f6f939261259760405194859263a9059cbb60e01b602085015260248401612293565b03601f198101845283611e78565b905f602091828151910182855af1156112a2575f513d6125f457506001600160a01b0381163b155b6125d45750565b635274afe760e01b5f9081526001600160a01b0391909116600452602490fd5b600114156125cd56fe9b779b17422d0df92223018b32b4d1fa46e071723d6817e2486d003becc55f00a2646970667358221220099a89aeceda051e8b092ad4769031c903d3ab0d9259725ac5161738f872894a64736f6c634300081c0033",
  "linkReferences": {},
  "deployedLinkReferences": {}
}